{
  "address": "0xDEECb2C11b9224C0a9f371421B4e35A89A62395b",
  "abi": [
    {
      "inputs": [
        {
          "internalType": "address",
          "name": "_optimisticOracleV3",
          "type": "address"
        },
        {
          "internalType": "address",
          "name": "_governance",
          "type": "address"
        }
      ],
      "stateMutability": "nonpayable",
      "type": "constructor"
    },
    {
      "inputs": [],
      "name": "AccessControlBadConfirmation",
      "type": "error"
    },
    {
      "inputs": [
        {
          "internalType": "address",
          "name": "account",
          "type": "address"
        },
        {
          "internalType": "bytes32",
          "name": "neededRole",
          "type": "bytes32"
        }
      ],
      "name": "AccessControlUnauthorizedAccount",
      "type": "error"
    },
    {
      "anonymous": false,
      "inputs": [
        {
          "indexed": true,
          "internalType": "bytes32",
          "name": "identifier",
          "type": "bytes32"
        },
        {
          "indexed": false,
          "internalType": "uint256",
          "name": "time",
          "type": "uint256"
        },
        {
          "indexed": false,
          "internalType": "bytes",
          "name": "ancillaryData",
          "type": "bytes"
        }
      ],
      "name": "PriceRequestAdded",
      "type": "event"
    },
    {
      "anonymous": false,
      "inputs": [
        {
          "indexed": true,
          "internalType": "bytes32",
          "name": "role",
          "type": "bytes32"
        },
        {
          "indexed": true,
          "internalType": "bytes32",
          "name": "previousAdminRole",
          "type": "bytes32"
        },
        {
          "indexed": true,
          "internalType": "bytes32",
          "name": "newAdminRole",
          "type": "bytes32"
        }
      ],
      "name": "RoleAdminChanged",
      "type": "event"
    },
    {
      "anonymous": false,
      "inputs": [
        {
          "indexed": true,
          "internalType": "bytes32",
          "name": "role",
          "type": "bytes32"
        },
        {
          "indexed": true,
          "internalType": "address",
          "name": "account",
          "type": "address"
        },
        {
          "indexed": true,
          "internalType": "address",
          "name": "sender",
          "type": "address"
        }
      ],
      "name": "RoleGranted",
      "type": "event"
    },
    {
      "anonymous": false,
      "inputs": [
        {
          "indexed": true,
          "internalType": "bytes32",
          "name": "role",
          "type": "bytes32"
        },
        {
          "indexed": true,
          "internalType": "address",
          "name": "account",
          "type": "address"
        },
        {
          "indexed": true,
          "internalType": "address",
          "name": "sender",
          "type": "address"
        }
      ],
      "name": "RoleRevoked",
      "type": "event"
    },
    {
      "anonymous": false,
      "inputs": [
        {
          "indexed": true,
          "internalType": "address",
          "name": "owner",
          "type": "address"
        },
        {
          "indexed": false,
          "internalType": "bool",
          "name": "arbitrateViaEscalationManager",
          "type": "bool"
        }
      ],
      "name": "UpdatedArbitrateViaEscalationManager",
      "type": "event"
    },
    {
      "anonymous": false,
      "inputs": [
        {
          "indexed": true,
          "internalType": "address",
          "name": "owner",
          "type": "address"
        },
        {
          "indexed": false,
          "internalType": "bool",
          "name": "discardOracle",
          "type": "bool"
        }
      ],
      "name": "UpdatedDiscardOracle",
      "type": "event"
    },
    {
      "anonymous": false,
      "inputs": [
        {
          "indexed": true,
          "internalType": "address",
          "name": "owner",
          "type": "address"
        },
        {
          "indexed": false,
          "internalType": "bool",
          "name": "validateDisputers",
          "type": "bool"
        }
      ],
      "name": "UpdatedValidateDisputers",
      "type": "event"
    },
    {
      "inputs": [],
      "name": "CLAIM_ASSESSOR_ROLE",
      "outputs": [
        {
          "internalType": "bytes32",
          "name": "",
          "type": "bytes32"
        }
      ],
      "stateMutability": "view",
      "type": "function"
    },
    {
      "inputs": [],
      "name": "DEFAULT_ADMIN_ROLE",
      "outputs": [
        {
          "internalType": "bytes32",
          "name": "",
          "type": "bytes32"
        }
      ],
      "stateMutability": "view",
      "type": "function"
    },
    {
      "inputs": [],
      "name": "NUMERICAL_VALUE",
      "outputs": [
        {
          "internalType": "int256",
          "name": "",
          "type": "int256"
        }
      ],
      "stateMutability": "view",
      "type": "function"
    },
    {
      "inputs": [],
      "name": "OPTMISTIC_ORACLE_V3_ROLE",
      "outputs": [
        {
          "internalType": "bytes32",
          "name": "",
          "type": "bytes32"
        }
      ],
      "stateMutability": "view",
      "type": "function"
    },
    {
      "inputs": [],
      "name": "arbitrateViaEscalationManager",
      "outputs": [
        {
          "internalType": "bool",
          "name": "",
          "type": "bool"
        }
      ],
      "stateMutability": "view",
      "type": "function"
    },
    {
      "inputs": [
        {
          "internalType": "bytes32",
          "name": "assertionId",
          "type": "bytes32"
        }
      ],
      "name": "assertionDisputedCallback",
      "outputs": [],
      "stateMutability": "nonpayable",
      "type": "function"
    },
    {
      "inputs": [
        {
          "internalType": "bytes32",
          "name": "assertionId",
          "type": "bytes32"
        },
        {
          "internalType": "bool",
          "name": "assertedTruthfully",
          "type": "bool"
        }
      ],
      "name": "assertionResolvedCallback",
      "outputs": [],
      "stateMutability": "nonpayable",
      "type": "function"
    },
    {
      "inputs": [
        {
          "internalType": "address",
          "name": "",
          "type": "address"
        }
      ],
      "name": "checkDisputers",
      "outputs": [
        {
          "internalType": "bool",
          "name": "",
          "type": "bool"
        }
      ],
      "stateMutability": "view",
      "type": "function"
    },
    {
      "inputs": [],
      "name": "discardOracle",
      "outputs": [
        {
          "internalType": "bool",
          "name": "",
          "type": "bool"
        }
      ],
      "stateMutability": "view",
      "type": "function"
    },
    {
      "inputs": [
        {
          "internalType": "bytes32",
          "name": "",
          "type": "bytes32"
        }
      ],
      "name": "getAssertionPolicy",
      "outputs": [
        {
          "components": [
            {
              "internalType": "bool",
              "name": "blockAssertion",
              "type": "bool"
            },
            {
              "internalType": "bool",
              "name": "arbitrateViaEscalationManager",
              "type": "bool"
            },
            {
              "internalType": "bool",
              "name": "discardOracle",
              "type": "bool"
            },
            {
              "internalType": "bool",
              "name": "validateDisputers",
              "type": "bool"
            }
          ],
          "internalType": "struct EscalationManagerInterface.AssertionPolicy",
          "name": "",
          "type": "tuple"
        }
      ],
      "stateMutability": "view",
      "type": "function"
    },
    {
      "inputs": [
        {
          "internalType": "bytes32",
          "name": "identifier",
          "type": "bytes32"
        },
        {
          "internalType": "uint256",
          "name": "time",
          "type": "uint256"
        },
        {
          "internalType": "bytes",
          "name": "ancillaryData",
          "type": "bytes"
        }
      ],
      "name": "getPrice",
      "outputs": [
        {
          "internalType": "int256",
          "name": "",
          "type": "int256"
        }
      ],
      "stateMutability": "view",
      "type": "function"
    },
    {
      "inputs": [
        {
          "internalType": "bytes32",
          "name": "role",
          "type": "bytes32"
        }
      ],
      "name": "getRoleAdmin",
      "outputs": [
        {
          "internalType": "bytes32",
          "name": "",
          "type": "bytes32"
        }
      ],
      "stateMutability": "view",
      "type": "function"
    },
    {
      "inputs": [
        {
          "internalType": "bytes32",
          "name": "role",
          "type": "bytes32"
        },
        {
          "internalType": "address",
          "name": "account",
          "type": "address"
        }
      ],
      "name": "grantRole",
      "outputs": [],
      "stateMutability": "nonpayable",
      "type": "function"
    },
    {
      "inputs": [
        {
          "internalType": "bytes32",
          "name": "role",
          "type": "bytes32"
        },
        {
          "internalType": "address",
          "name": "account",
          "type": "address"
        }
      ],
      "name": "hasRole",
      "outputs": [
        {
          "internalType": "bool",
          "name": "",
          "type": "bool"
        }
      ],
      "stateMutability": "view",
      "type": "function"
    },
    {
      "inputs": [
        {
          "internalType": "bytes32",
          "name": "assertionId",
          "type": "bytes32"
        },
        {
          "internalType": "address",
          "name": "disputeCaller",
          "type": "address"
        }
      ],
      "name": "isDisputeAllowed",
      "outputs": [
        {
          "internalType": "bool",
          "name": "",
          "type": "bool"
        }
      ],
      "stateMutability": "view",
      "type": "function"
    },
    {
      "inputs": [
        {
          "internalType": "bytes32",
          "name": "",
          "type": "bytes32"
        }
      ],
      "name": "isOraclePriceCalled",
      "outputs": [
        {
          "internalType": "bool",
          "name": "",
          "type": "bool"
        }
      ],
      "stateMutability": "view",
      "type": "function"
    },
    {
      "inputs": [
        {
          "internalType": "bytes32",
          "name": "",
          "type": "bytes32"
        }
      ],
      "name": "oraclePrice",
      "outputs": [
        {
          "internalType": "int256",
          "name": "",
          "type": "int256"
        }
      ],
      "stateMutability": "view",
      "type": "function"
    },
    {
      "inputs": [
        {
          "internalType": "bytes32",
          "name": "role",
          "type": "bytes32"
        },
        {
          "internalType": "address",
          "name": "callerConfirmation",
          "type": "address"
        }
      ],
      "name": "renounceRole",
      "outputs": [],
      "stateMutability": "nonpayable",
      "type": "function"
    },
    {
      "inputs": [
        {
          "internalType": "bytes32",
          "name": "identifier",
          "type": "bytes32"
        },
        {
          "internalType": "uint256",
          "name": "time",
          "type": "uint256"
        },
        {
          "internalType": "bytes",
          "name": "ancillaryData",
          "type": "bytes"
        }
      ],
      "name": "requestPrice",
      "outputs": [],
      "stateMutability": "nonpayable",
      "type": "function"
    },
    {
      "inputs": [
        {
          "internalType": "bytes32",
          "name": "role",
          "type": "bytes32"
        },
        {
          "internalType": "address",
          "name": "account",
          "type": "address"
        }
      ],
      "name": "revokeRole",
      "outputs": [],
      "stateMutability": "nonpayable",
      "type": "function"
    },
    {
      "inputs": [
        {
          "internalType": "bool",
          "name": "_arbitrateViaEscalationManager",
          "type": "bool"
        }
      ],
      "name": "setArbitrateViaEscalationManager",
      "outputs": [],
      "stateMutability": "nonpayable",
      "type": "function"
    },
    {
      "inputs": [
        {
          "internalType": "bool",
          "name": "_discardOracle",
          "type": "bool"
        }
      ],
      "name": "setDiscardOracle",
      "outputs": [],
      "stateMutability": "nonpayable",
      "type": "function"
    },
    {
      "inputs": [
        {
          "internalType": "bytes32",
          "name": "identifier",
          "type": "bytes32"
        },
        {
          "internalType": "uint256",
          "name": "time",
          "type": "uint256"
        },
        {
          "internalType": "bytes",
          "name": "ancillaryData",
          "type": "bytes"
        },
        {
          "internalType": "int256",
          "name": "price",
          "type": "int256"
        }
      ],
      "name": "setOraclePrice",
      "outputs": [],
      "stateMutability": "nonpayable",
      "type": "function"
    },
    {
      "inputs": [
        {
          "internalType": "bool",
          "name": "_validateDisputers",
          "type": "bool"
        }
      ],
      "name": "setValidateDisputers",
      "outputs": [],
      "stateMutability": "nonpayable",
      "type": "function"
    },
    {
      "inputs": [
        {
          "internalType": "bytes4",
          "name": "interfaceId",
          "type": "bytes4"
        }
      ],
      "name": "supportsInterface",
      "outputs": [
        {
          "internalType": "bool",
          "name": "",
          "type": "bool"
        }
      ],
      "stateMutability": "view",
      "type": "function"
    },
    {
      "inputs": [
        {
          "internalType": "address",
          "name": "_disputer",
          "type": "address"
        }
      ],
      "name": "toggleDisputer",
      "outputs": [],
      "stateMutability": "nonpayable",
      "type": "function"
    },
    {
      "inputs": [],
      "name": "validateDisputers",
      "outputs": [
        {
          "internalType": "bool",
          "name": "",
          "type": "bool"
        }
      ],
      "stateMutability": "view",
      "type": "function"
    }
  ],
  "transactionHash": "0x77eacb797845100f8a5b8638f5e66c17abc256f55558cc9cf236539766b95405",
  "args": [
    "0xf0641df8Dd1290016229083F0695fE49067EcB79",
    "0x3ad22Ae2dE3dCF105E8DaA12acDd15bD47596863"
  ],
  "numDeployments": 1,
  "solcInputHash": "ff82c0bebc09e4bed4a32d9e58f6bea9",
  "bytecode": "0x60806040523480156200001157600080fd5b5060405162000ff538038062000ff58339810160408190526200003491620001d0565b6200004f60008051602062000fb583398151915282620000b9565b506200006b60008051602062000fb58339815191528062000168565b6200008660008051602062000fd583398151915283620000b9565b50620000b160008051602062000fd583398151915260008051602062000fb583398151915262000168565b505062000208565b6000828152602081815260408083206001600160a01b038516845290915281205460ff166200015e576000838152602081815260408083206001600160a01b03861684529091529020805460ff19166001179055620001153390565b6001600160a01b0316826001600160a01b0316847f2f8788117e7eff1d82e926ec794901d17c78024a50270940304540a733656f0d60405160405180910390a450600162000162565b5060005b92915050565b600082815260208190526040808220600101805490849055905190918391839186917fbd79b86ffe0ab8e8776151514217cd7cacd52c909f66475c3af44e129f0b00ff9190a4505050565b80516001600160a01b0381168114620001cb57600080fd5b919050565b60008060408385031215620001e457600080fd5b620001ef83620001b3565b9150620001ff60208401620001b3565b90509250929050565b610d9d80620002186000396000f3fe608060405234801561001057600080fd5b50600436106101a95760003560e01c8063719c6d56116100f9578063c0b0503511610097578063d547741f11610071578063d547741f14610468578063d62efb751461047b578063d99fec711461048e578063f1b156b2146104a357600080fd5b8063c0b050351461041f578063c89a4ae914610432578063d448a4ec1461045557600080fd5b8063a217fddf116100d3578063a217fddf14610340578063a6b011a714610348578063a96e6cc6146103f7578063b1d959561461040a57600080fd5b8063719c6d56146102fa57806379adeacc1461030d57806391d148541461032d57600080fd5b80632daeba581161016657806341dc20461161014057806341dc20461461029457806343db49ad146102a75780634c7a7d38146102ba5780636b915d91146102cc57600080fd5b80632daeba581461024b5780632f2ff15d1461026e57806336568abe1461028157600080fd5b806301ffc9a7146101ae5780631f25bee0146101d6578063216666a4146101f3578063248a9ca314610208578063261d3d3a1461022b5780632a7de60b1461023e575b600080fd5b6101c16101bc366004610a56565b6104b6565b60405190151581526020015b60405180910390f35b6101e5670de0b6b3a764000081565b6040519081526020016101cd565b610206610201366004610b2a565b6104ed565b005b6101e5610216366004610b7a565b60009081526020819052604090206001015490565b610206610239366004610b93565b610545565b6001546101c19060ff1681565b6101c1610259366004610c07565b60026020526000908152604090205460ff1681565b61020661027c366004610c22565b61061b565b61020661028f366004610c22565b610646565b6102066102a2366004610c07565b61067e565b6102066102b5366004610c5e565b6106c0565b6001546101c190610100900460ff1681565b6101c16102da366004610c22565b6001600160a01b031660009081526002602052604090205460ff16919050565b6101e5610308366004610b2a565b61072f565b6101e561031b366004610b7a565b60036020526000908152604090205481565b6101c161033b366004610c22565b6107d5565b6101e5600081565b6103bc610356366004610b7a565b6040805160808101825260008082526020820181905291810182905260608101919091525050604080516080810182526000815260015460ff80821615156020840152610100820481161515938301939093526201000090049091161515606082015290565b6040516101cd919081511515815260208083015115159082015260408083015115159082015260609182015115159181019190915260800190565b610206610405366004610c5e565b6107fe565b6101e5600080516020610d4883398151915281565b61020661042d366004610c5e565b610863565b6101c1610440366004610b7a565b60046020526000908152604090205460ff1681565b610206610463366004610b7a565b6108be565b610206610476366004610c22565b6108da565b6001546101c19062010000900460ff1681565b6101e5600080516020610d2883398151915281565b6102066104b1366004610c79565b6108ff565b60006001600160e01b03198216637965db0b60e01b14806104e757506301ffc9a760e01b6001600160e01b03198316145b92915050565b600080516020610d4883398151915261050581610913565b837fb17a139310ca50023f8dc119e2f4d6b839cf066d7b246eb502d16c335d1db6318484604051610537929190610cc0565b60405180910390a250505050565b600080516020610d2883398151915261055d81610913565b8115806105715750670de0b6b3a764000082145b6105c25760405162461bcd60e51b815260206004820152601760248201527f454d616e616765723a20696e76616c696420707269636500000000000000000060448201526064015b60405180910390fd5b60008585856040516020016105d993929190610cfa565b60408051601f198184030181529181528151602092830120600090815260038352818120959095556004909152909220805460ff191660011790555050505050565b60008281526020819052604090206001015461063681610913565b6106408383610920565b50505050565b6001600160a01b038116331461066f5760405163334bd91960e11b815260040160405180910390fd5b61067982826109b2565b505050565b600080516020610d2883398151915261069681610913565b506001600160a01b03166000908152600260205260409020805460ff19811660ff90911615179055565b600080516020610d288339815191526106d881610913565b600180548315156101000261ff001990911617905560405133907f0d848abbfec5c62f73a9e68f269ba0413cf78f98e90f97a268b65f0bafeafddf9061072390851515815260200190565b60405180910390a25050565b60008084848460405160200161074793929190610cfa565b60408051601f1981840301815291815281516020928301206000818152600490935291205490915060ff166107be5760405162461bcd60e51b815260206004820152601a60248201527f454d616e616765723a206e6f207072696365207265717565737400000000000060448201526064016105b9565b600090815260036020526040902054949350505050565b6000918252602082815260408084206001600160a01b0393909316845291905290205460ff1690565b600080516020610d2883398151915261081681610913565b60018054831515620100000262ff00001990911617905560405133907f86349522c1d987577f509a5fcb6fe45f112a16c9c4616f5eab7e13d64d16a3829061072390851515815260200190565b600080516020610d2883398151915261087b81610913565b6001805460ff191683151590811790915560405190815233907f808c14e99b3ea0f600449e4471ee5a2275234c5b1db0a8da763f8a15ee663f0290602001610723565b600080516020610d488339815191526108d681610913565b5050565b6000828152602081905260409020600101546108f581610913565b61064083836109b2565b600080516020610d48833981519152610679815b61091d8133610a1d565b50565b600061092c83836107d5565b6109aa576000838152602081815260408083206001600160a01b03861684529091529020805460ff191660011790556109623390565b6001600160a01b0316826001600160a01b0316847f2f8788117e7eff1d82e926ec794901d17c78024a50270940304540a733656f0d60405160405180910390a45060016104e7565b5060006104e7565b60006109be83836107d5565b156109aa576000838152602081815260408083206001600160a01b0386168085529252808320805460ff1916905551339286917ff6391f5c32d9c69d2a47ea670b442974b53935d1edc7fd64eb21e047a839171b9190a45060016104e7565b610a2782826107d5565b6108d65760405163e2517d3f60e01b81526001600160a01b0382166004820152602481018390526044016105b9565b600060208284031215610a6857600080fd5b81356001600160e01b031981168114610a8057600080fd5b9392505050565b634e487b7160e01b600052604160045260246000fd5b600082601f830112610aae57600080fd5b813567ffffffffffffffff80821115610ac957610ac9610a87565b604051601f8301601f19908116603f01168101908282118183101715610af157610af1610a87565b81604052838152866020858801011115610b0a57600080fd5b836020870160208301376000602085830101528094505050505092915050565b600080600060608486031215610b3f57600080fd5b8335925060208401359150604084013567ffffffffffffffff811115610b6457600080fd5b610b7086828701610a9d565b9150509250925092565b600060208284031215610b8c57600080fd5b5035919050565b60008060008060808587031215610ba957600080fd5b8435935060208501359250604085013567ffffffffffffffff811115610bce57600080fd5b610bda87828801610a9d565b949793965093946060013593505050565b80356001600160a01b0381168114610c0257600080fd5b919050565b600060208284031215610c1957600080fd5b610a8082610beb565b60008060408385031215610c3557600080fd5b82359150610c4560208401610beb565b90509250929050565b80358015158114610c0257600080fd5b600060208284031215610c7057600080fd5b610a8082610c4e565b60008060408385031215610c8c57600080fd5b82359150610c4560208401610c4e565b60005b83811015610cb7578181015183820152602001610c9f565b50506000910152565b8281526040602082015260008251806040840152610ce5816060850160208701610c9c565b601f01601f1916919091016060019392505050565b83815282602082015260008251610d18816040850160208701610c9c565b9190910160400194935050505056fea7fb00808094bb0669054259df045936913ac8f131613a7a6da2e81ac75d5f48fa9ee5805867fcd64bc0d88adbfc542f8166570d1ca4cbb35eece5c4fc348fdda2646970667358221220dc7dce771708a108c25a516b77244b2379454b785f03c8c2f0c656f63f3694ed64736f6c63430008170033a7fb00808094bb0669054259df045936913ac8f131613a7a6da2e81ac75d5f48fa9ee5805867fcd64bc0d88adbfc542f8166570d1ca4cbb35eece5c4fc348fdd",
  "devdoc": {
    "errors": {
      "AccessControlBadConfirmation()": [
        {
          "details": "The caller of a function is not the expected one. NOTE: Don't confuse with {AccessControlUnauthorizedAccount}."
        }
      ],
      "AccessControlUnauthorizedAccount(address,bytes32)": [
        {
          "details": "The `account` is missing a role."
        }
      ]
    },
    "events": {
      "RoleAdminChanged(bytes32,bytes32,bytes32)": {
        "details": "Emitted when `newAdminRole` is set as ``role``'s admin role, replacing `previousAdminRole` `DEFAULT_ADMIN_ROLE` is the starting admin for all roles, despite {RoleAdminChanged} not being emitted signaling this."
      },
      "RoleGranted(bytes32,address,address)": {
        "details": "Emitted when `account` is granted `role`. `sender` is the account that originated the contract call, an admin role bearer except when using {AccessControl-_setupRole}."
      },
      "RoleRevoked(bytes32,address,address)": {
        "details": "Emitted when `account` is revoked `role`. `sender` is the account that originated the contract call:   - if using `revokeRole`, it is the admin role bearer   - if using `renounceRole`, it is the role bearer (i.e. `account`)"
      }
    },
    "kind": "dev",
    "methods": {
      "assertionDisputedCallback(bytes32)": {
        "params": {
          "assertionId": "The identifier of the assertion that was disputed."
        }
      },
      "assertionResolvedCallback(bytes32,bool)": {
        "params": {
          "assertedTruthfully": "Whether the assertion was resolved as truthful or not.",
          "assertionId": "The identifier of the assertion that was resolved."
        }
      },
      "getPrice(bytes32,uint256,bytes)": {
        "params": {
          "ancillaryData": "ancillary data of the price being requested.",
          "identifier": "price identifier being requested.",
          "time": "timestamp of the price being requested."
        },
        "returns": {
          "_0": "price from the escalation manager to inform the resolution of the dispute."
        }
      },
      "getRoleAdmin(bytes32)": {
        "details": "Returns the admin role that controls `role`. See {grantRole} and {revokeRole}. To change a role's admin, use {_setRoleAdmin}."
      },
      "grantRole(bytes32,address)": {
        "details": "Grants `role` to `account`. If `account` had not been already granted `role`, emits a {RoleGranted} event. Requirements: - the caller must have ``role``'s admin role. May emit a {RoleGranted} event."
      },
      "hasRole(bytes32,address)": {
        "details": "Returns `true` if `account` has been granted `role`."
      },
      "isDisputeAllowed(bytes32,address)": {
        "params": {
          "assertionId": "the assertionId to validate the dispute for.",
          "disputeCaller": "the caller of the dispute function."
        },
        "returns": {
          "_0": "bool true if the dispute is allowed, false otherwise."
        }
      },
      "renounceRole(bytes32,address)": {
        "details": "Revokes `role` from the calling account. Roles are often managed via {grantRole} and {revokeRole}: this function's purpose is to provide a mechanism for accounts to lose their privileges if they are compromised (such as when a trusted device is misplaced). If the calling account had been revoked `role`, emits a {RoleRevoked} event. Requirements: - the caller must be `callerConfirmation`. May emit a {RoleRevoked} event."
      },
      "requestPrice(bytes32,uint256,bytes)": {
        "params": {
          "ancillaryData": "ancillary data of the price being requested.",
          "identifier": "the identifier to fetch the price for.",
          "time": "the time to fetch the price for."
        }
      },
      "revokeRole(bytes32,address)": {
        "details": "Revokes `role` from `account`. If `account` had been granted `role`, emits a {RoleRevoked} event. Requirements: - the caller must have ``role``'s admin role. May emit a {RoleRevoked} event."
      },
      "supportsInterface(bytes4)": {
        "details": "See {IERC165-supportsInterface}."
      }
    },
    "version": 1
  },
  "userdoc": {
    "kind": "user",
    "methods": {
      "assertionDisputedCallback(bytes32)": {
        "notice": "Callback function that is called by Optimistic Oracle V3 when an assertion is disputed."
      },
      "assertionResolvedCallback(bytes32,bool)": {
        "notice": "Callback function that is called by Optimistic Oracle V3 when an assertion is resolved."
      },
      "constructor": {
        "notice": "Constructs the escalation manager."
      },
      "getPrice(bytes32,uint256,bytes)": {
        "notice": "Implements price getting logic. This method is called by Optimistic Oracle V3 settling an assertion that is configured to use the escalation manager as the oracle. The interface is constructed to mimic the UMA DVM."
      },
      "isDisputeAllowed(bytes32,address)": {
        "notice": "Callback function that is called by Optimistic Oracle V3 when an assertion is disputed. Used to validate if the dispute should be allowed based on the escalation policy."
      },
      "requestPrice(bytes32,uint256,bytes)": {
        "notice": "Implements price requesting logic for the escalation manager. This function is called by the Optimistic Oracle V3 on dispute and is constructed to mimic that of the UMA DVM interface."
      }
    },
    "version": 1
  },
  "storageLayout": {
    "storage": [
      {
        "astId": 1034,
        "contract": "contracts/uma/EscalationManager.sol:EscalationManager",
        "label": "_roles",
        "offset": 0,
        "slot": "0",
        "type": "t_mapping(t_bytes32,t_struct(RoleData)1029_storage)"
      },
      {
        "astId": 28758,
        "contract": "contracts/uma/EscalationManager.sol:EscalationManager",
        "label": "arbitrateViaEscalationManager",
        "offset": 0,
        "slot": "1",
        "type": "t_bool"
      },
      {
        "astId": 28760,
        "contract": "contracts/uma/EscalationManager.sol:EscalationManager",
        "label": "discardOracle",
        "offset": 1,
        "slot": "1",
        "type": "t_bool"
      },
      {
        "astId": 28762,
        "contract": "contracts/uma/EscalationManager.sol:EscalationManager",
        "label": "validateDisputers",
        "offset": 2,
        "slot": "1",
        "type": "t_bool"
      },
      {
        "astId": 28766,
        "contract": "contracts/uma/EscalationManager.sol:EscalationManager",
        "label": "checkDisputers",
        "offset": 0,
        "slot": "2",
        "type": "t_mapping(t_address,t_bool)"
      },
      {
        "astId": 28770,
        "contract": "contracts/uma/EscalationManager.sol:EscalationManager",
        "label": "oraclePrice",
        "offset": 0,
        "slot": "3",
        "type": "t_mapping(t_bytes32,t_int256)"
      },
      {
        "astId": 28774,
        "contract": "contracts/uma/EscalationManager.sol:EscalationManager",
        "label": "isOraclePriceCalled",
        "offset": 0,
        "slot": "4",
        "type": "t_mapping(t_bytes32,t_bool)"
      }
    ],
    "types": {
      "t_address": {
        "encoding": "inplace",
        "label": "address",
        "numberOfBytes": "20"
      },
      "t_bool": {
        "encoding": "inplace",
        "label": "bool",
        "numberOfBytes": "1"
      },
      "t_bytes32": {
        "encoding": "inplace",
        "label": "bytes32",
        "numberOfBytes": "32"
      },
      "t_int256": {
        "encoding": "inplace",
        "label": "int256",
        "numberOfBytes": "32"
      },
      "t_mapping(t_address,t_bool)": {
        "encoding": "mapping",
        "key": "t_address",
        "label": "mapping(address => bool)",
        "numberOfBytes": "32",
        "value": "t_bool"
      },
      "t_mapping(t_bytes32,t_bool)": {
        "encoding": "mapping",
        "key": "t_bytes32",
        "label": "mapping(bytes32 => bool)",
        "numberOfBytes": "32",
        "value": "t_bool"
      },
      "t_mapping(t_bytes32,t_int256)": {
        "encoding": "mapping",
        "key": "t_bytes32",
        "label": "mapping(bytes32 => int256)",
        "numberOfBytes": "32",
        "value": "t_int256"
      },
      "t_mapping(t_bytes32,t_struct(RoleData)1029_storage)": {
        "encoding": "mapping",
        "key": "t_bytes32",
        "label": "mapping(bytes32 => struct AccessControl.RoleData)",
        "numberOfBytes": "32",
        "value": "t_struct(RoleData)1029_storage"
      },
      "t_struct(RoleData)1029_storage": {
        "encoding": "inplace",
        "label": "struct AccessControl.RoleData",
        "members": [
          {
            "astId": 1026,
            "contract": "contracts/uma/EscalationManager.sol:EscalationManager",
            "label": "hasRole",
            "offset": 0,
            "slot": "0",
            "type": "t_mapping(t_address,t_bool)"
          },
          {
            "astId": 1028,
            "contract": "contracts/uma/EscalationManager.sol:EscalationManager",
            "label": "adminRole",
            "offset": 0,
            "slot": "1",
            "type": "t_bytes32"
          }
        ],
        "numberOfBytes": "64"
      }
    }
  }
}