{
  "address": "0x64E15E60d781E6F4bBE201AC59519A94b72Bf6Ad",
  "abi": [
    {
      "inputs": [
        {
          "internalType": "address",
          "name": "_admin",
          "type": "address"
        }
      ],
      "stateMutability": "nonpayable",
      "type": "constructor"
    },
    {
      "inputs": [
        {
          "internalType": "address",
          "name": "owner",
          "type": "address"
        }
      ],
      "name": "OwnableInvalidOwner",
      "type": "error"
    },
    {
      "inputs": [
        {
          "internalType": "address",
          "name": "account",
          "type": "address"
        }
      ],
      "name": "OwnableUnauthorizedAccount",
      "type": "error"
    },
    {
      "anonymous": false,
      "inputs": [
        {
          "indexed": false,
          "internalType": "address",
          "name": "_asset",
          "type": "address"
        },
        {
          "indexed": false,
          "internalType": "uint256",
          "name": "_price",
          "type": "uint256"
        },
        {
          "indexed": false,
          "internalType": "uint256",
          "name": "timestamp",
          "type": "uint256"
        }
      ],
      "name": "AssetPriceUpdated",
      "type": "event"
    },
    {
      "anonymous": false,
      "inputs": [
        {
          "indexed": true,
          "internalType": "address",
          "name": "previousOwner",
          "type": "address"
        },
        {
          "indexed": true,
          "internalType": "address",
          "name": "newOwner",
          "type": "address"
        }
      ],
      "name": "OwnershipTransferred",
      "type": "event"
    },
    {
      "anonymous": false,
      "inputs": [
        {
          "indexed": false,
          "internalType": "address",
          "name": "_oldAggregator",
          "type": "address"
        },
        {
          "indexed": false,
          "internalType": "address",
          "name": "_newAggregator",
          "type": "address"
        }
      ],
      "name": "SetETHUSDAggregator",
      "type": "event"
    },
    {
      "inputs": [
        {
          "internalType": "address",
          "name": "_token",
          "type": "address"
        }
      ],
      "name": "addStableCoin",
      "outputs": [],
      "stateMutability": "nonpayable",
      "type": "function"
    },
    {
      "inputs": [
        {
          "internalType": "address",
          "name": "tokenA",
          "type": "address"
        },
        {
          "internalType": "address",
          "name": "tokenB",
          "type": "address"
        },
        {
          "internalType": "uint256",
          "name": "amountA",
          "type": "uint256"
        }
      ],
      "name": "consult",
      "outputs": [
        {
          "internalType": "uint256",
          "name": "",
          "type": "uint256"
        }
      ],
      "stateMutability": "view",
      "type": "function"
    },
    {
      "inputs": [
        {
          "internalType": "address",
          "name": "_asset",
          "type": "address"
        }
      ],
      "name": "getAssetEthPrice",
      "outputs": [
        {
          "internalType": "uint256",
          "name": "",
          "type": "uint256"
        }
      ],
      "stateMutability": "view",
      "type": "function"
    },
    {
      "inputs": [],
      "name": "getEthUsdPrice",
      "outputs": [
        {
          "internalType": "uint256",
          "name": "",
          "type": "uint256"
        }
      ],
      "stateMutability": "view",
      "type": "function"
    },
    {
      "inputs": [],
      "name": "owner",
      "outputs": [
        {
          "internalType": "address",
          "name": "",
          "type": "address"
        }
      ],
      "stateMutability": "view",
      "type": "function"
    },
    {
      "inputs": [
        {
          "internalType": "address",
          "name": "_token",
          "type": "address"
        }
      ],
      "name": "removeStableCoin",
      "outputs": [],
      "stateMutability": "nonpayable",
      "type": "function"
    },
    {
      "inputs": [],
      "name": "renounceOwnership",
      "outputs": [],
      "stateMutability": "nonpayable",
      "type": "function"
    },
    {
      "inputs": [
        {
          "internalType": "address",
          "name": "_asset",
          "type": "address"
        },
        {
          "internalType": "uint256",
          "name": "_price",
          "type": "uint256"
        }
      ],
      "name": "setAssetEthPrice",
      "outputs": [],
      "stateMutability": "nonpayable",
      "type": "function"
    },
    {
      "inputs": [
        {
          "internalType": "address",
          "name": "_aggregator",
          "type": "address"
        }
      ],
      "name": "setETHUSDAggregator",
      "outputs": [],
      "stateMutability": "nonpayable",
      "type": "function"
    },
    {
      "inputs": [],
      "name": "stableCoins",
      "outputs": [
        {
          "internalType": "address[]",
          "name": "",
          "type": "address[]"
        }
      ],
      "stateMutability": "view",
      "type": "function"
    },
    {
      "inputs": [
        {
          "internalType": "address",
          "name": "newOwner",
          "type": "address"
        }
      ],
      "name": "transferOwnership",
      "outputs": [],
      "stateMutability": "nonpayable",
      "type": "function"
    }
  ],
  "transactionHash": "0x6f879cd090ceff45f143f1cef4dd7c5271b95dfff72714f5a7416311b4fafd0c",
  "args": [
    "0x3ad22Ae2dE3dCF105E8DaA12acDd15bD47596863"
  ],
  "numDeployments": 1,
  "solcInputHash": "ff82c0bebc09e4bed4a32d9e58f6bea9",
  "bytecode": "0x6080604052600480546001600160a01b031916735f4ec3df9cbd43714fe2740f5e3616155c5b841917905534801561003657600080fd5b50604051610ccf380380610ccf833981016040819052610055916100e4565b806001600160a01b03811661008457604051631e4fbdf760e01b81526000600482015260240160405180910390fd5b61008d81610094565b5050610114565b600080546001600160a01b038381166001600160a01b0319831681178455604051919092169283917f8be0079c531659141344cd1fd0a4f28419497f9722a3daafe3b4186f6b6457e09190a35050565b6000602082840312156100f657600080fd5b81516001600160a01b038116811461010d57600080fd5b9392505050565b610bac806101236000396000f3fe608060405234801561001057600080fd5b50600436106100a95760003560e01c8063715018a611610071578063715018a6146101285780638da5cb5b14610130578063a0a8045e1461014b578063b100d9af14610153578063b3c1f5d814610166578063f2fde38b1461017957600080fd5b80630994bc10146100ae5780630c4c7949146100c3578063355188ab146100e157806351bb5dff14610102578063636cfa0c14610115575b600080fd5b6100c16100bc36600461089a565b61018c565b005b6100cb6101f6565b6040516100d891906108b5565b60405180910390f35b6100f46100ef36600461089a565b610207565b6040519081526020016100d8565b6100c161011036600461089a565b610256565b6100f4610123366004610902565b61026d565b6100c16104ac565b6000546040516001600160a01b0390911681526020016100d8565b6100f46104c0565b6100c161016136600461093e565b6104ca565b6100c161017436600461089a565b61052a565b6100c161018736600461089a565b61053d565b61019461057b565b600480546001600160a01b038381166001600160a01b031983168117909355604080519190921680825260208201939093527fec4c051ed5655b13cc3b1897b18ac12c155d90cd608287ef9d9153b20771283091015b60405180910390a15050565b606061020260016105a8565b905090565b60006102146001836105b5565b610236576001600160a01b038216600090815260036020526040902054610250565b61023e6105d6565b61025090670de0b6b3a764000061097e565b92915050565b61025e61057b565b610269600182610666565b5050565b600061027a6001856105b5565b801561028c575061028c6001846105b5565b156102985750806104a5565b60006102a56001866105b5565b6102c7576001600160a01b0385166000908152600360205260409020546102e1565b6102cf6105d6565b6102e190670de0b6b3a764000061097e565b905060006102f06001866105b5565b610312576001600160a01b03851660009081526003602052604090205461032c565b61031a6105d6565b61032c90670de0b6b3a764000061097e565b9050811580159061033c57508015155b61039d5760405162461bcd60e51b815260206004820152602760248201527f504f3a20507269636573206f6620626f746820746f6b656e732073686f756c64604482015266081899481cd95d60ca1b60648201526084015b60405180910390fd5b80866001600160a01b031663313ce5676040518163ffffffff1660e01b8152600401602060405180830381865afa1580156103dc573d6000803e3d6000fd5b505050506040513d601f19601f8201168201806040525081019061040091906109a0565b61040b90600a610aa7565b6104159190610ab6565b856001600160a01b031663313ce5676040518163ffffffff1660e01b8152600401602060405180830381865afa158015610453573d6000803e3d6000fd5b505050506040513d601f19601f8201168201806040525081019061047791906109a0565b61048290600a610aa7565b61048c8487610ab6565b6104969190610ab6565b6104a0919061097e565b925050505b9392505050565b6104b461057b565b6104be600061067b565b565b60006102026105d6565b6104d261057b565b6001600160a01b0382166000818152600360209081526040918290208490558151928352820183905242908201527fce6e0b57367bae95ca7198e1172f653ea64a645c16ab586b4cefa9237bfc2d92906060016101ea565b61053261057b565b6102696001826106cb565b61054561057b565b6001600160a01b03811661056f57604051631e4fbdf760e01b815260006004820152602401610394565b6105788161067b565b50565b6000546001600160a01b031633146104be5760405163118cdaa760e01b8152336004820152602401610394565b606060006104a5836106e0565b6001600160a01b031660009081526001919091016020526040902054151590565b6004805460408051633fabe5a360e21b815290516000936001600160a01b03909316928492849263feaf968c928281019260a09291908290030181865afa158015610625573d6000803e3d6000fd5b505050506040513d601f19601f820116820180604052508101906106499190610ae7565b5050509150506305f5e1008161065f919061097e565b9250505090565b60006104a5836001600160a01b03841661073c565b600080546001600160a01b038381166001600160a01b0319831681178455604051919092169283917f8be0079c531659141344cd1fd0a4f28419497f9722a3daafe3b4186f6b6457e09190a35050565b60006104a5836001600160a01b03841661082f565b60608160000180548060200260200160405190810160405280929190818152602001828054801561073057602002820191906000526020600020905b81548152602001906001019080831161071c575b50505050509050919050565b60008181526001830160205260408120548015610825576000610760600183610b37565b855490915060009061077490600190610b37565b90508082146107d957600086600001828154811061079457610794610b4a565b90600052602060002001549050808760000184815481106107b7576107b7610b4a565b6000918252602080832090910192909255918252600188019052604090208390555b85548690806107ea576107ea610b60565b600190038181906000526020600020016000905590558560010160008681526020019081526020016000206000905560019350505050610250565b6000915050610250565b600081815260018301602052604081205461087657508154600181810184556000848152602080822090930184905584548482528286019093526040902091909155610250565b506000610250565b80356001600160a01b038116811461089557600080fd5b919050565b6000602082840312156108ac57600080fd5b6104a58261087e565b6020808252825182820181905260009190848201906040850190845b818110156108f65783516001600160a01b0316835292840192918401916001016108d1565b50909695505050505050565b60008060006060848603121561091757600080fd5b6109208461087e565b925061092e6020850161087e565b9150604084013590509250925092565b6000806040838503121561095157600080fd5b61095a8361087e565b946020939093013593505050565b634e487b7160e01b600052601160045260246000fd5b60008261099b57634e487b7160e01b600052601260045260246000fd5b500490565b6000602082840312156109b257600080fd5b815160ff811681146104a557600080fd5b600181815b808511156109fe5781600019048211156109e4576109e4610968565b808516156109f157918102915b93841c93908002906109c8565b509250929050565b600082610a1557506001610250565b81610a2257506000610250565b8160018114610a385760028114610a4257610a5e565b6001915050610250565b60ff841115610a5357610a53610968565b50506001821b610250565b5060208310610133831016604e8410600b8410161715610a81575081810a610250565b610a8b83836109c3565b8060001904821115610a9f57610a9f610968565b029392505050565b60006104a560ff841683610a06565b808202811582820484141761025057610250610968565b805169ffffffffffffffffffff8116811461089557600080fd5b600080600080600060a08688031215610aff57600080fd5b610b0886610acd565b9450602086015193506040860151925060608601519150610b2b60808701610acd565b90509295509295909350565b8181038181111561025057610250610968565b634e487b7160e01b600052603260045260246000fd5b634e487b7160e01b600052603160045260246000fdfea2646970667358221220e7cf11c5389eab94fc838eae9daa31cca5678581ec06c43c965539f1f3863e5a64736f6c63430008170033",
  "devdoc": {
    "errors": {
      "OwnableInvalidOwner(address)": [
        {
          "details": "The owner is not a valid owner account. (eg. `address(0)`)"
        }
      ],
      "OwnableUnauthorizedAccount(address)": [
        {
          "details": "The caller account is not authorized to perform an operation."
        }
      ]
    },
    "kind": "dev",
    "methods": {
      "owner()": {
        "details": "Returns the address of the current owner."
      },
      "renounceOwnership()": {
        "details": "Leaves the contract without owner. It will not be possible to call `onlyOwner` functions. Can only be called by the current owner. NOTE: Renouncing ownership will leave the contract without an owner, thereby disabling any functionality that is only available to the owner."
      },
      "transferOwnership(address)": {
        "details": "Transfers ownership of the contract to a new account (`newOwner`). Can only be called by the current owner."
      }
    },
    "stateVariables": {
      "ethPrices": {
        "details": "please take care token decimal e.x ethPrice[uno_address] = 123456 means 1 UNO = 123456 / (10 ** 18 eth)"
      }
    },
    "version": 1
  },
  "userdoc": {
    "kind": "user",
    "methods": {
      "consult(address,address,uint256)": {
        "notice": "returns the tokenB amount for tokenA"
      }
    },
    "version": 1
  },
  "storageLayout": {
    "storage": [
      {
        "astId": 1395,
        "contract": "contracts/Mocks/OraclePriceFeed.sol:PriceOracle",
        "label": "_owner",
        "offset": 0,
        "slot": "0",
        "type": "t_address"
      },
      {
        "astId": 11892,
        "contract": "contracts/Mocks/OraclePriceFeed.sol:PriceOracle",
        "label": "_stableCoins",
        "offset": 0,
        "slot": "1",
        "type": "t_struct(AddressSet)6467_storage"
      },
      {
        "astId": 11897,
        "contract": "contracts/Mocks/OraclePriceFeed.sol:PriceOracle",
        "label": "ethPrices",
        "offset": 0,
        "slot": "3",
        "type": "t_mapping(t_address,t_uint256)"
      },
      {
        "astId": 11900,
        "contract": "contracts/Mocks/OraclePriceFeed.sol:PriceOracle",
        "label": "ethUSDAggregator",
        "offset": 0,
        "slot": "4",
        "type": "t_address"
      }
    ],
    "types": {
      "t_address": {
        "encoding": "inplace",
        "label": "address",
        "numberOfBytes": "20"
      },
      "t_array(t_bytes32)dyn_storage": {
        "base": "t_bytes32",
        "encoding": "dynamic_array",
        "label": "bytes32[]",
        "numberOfBytes": "32"
      },
      "t_bytes32": {
        "encoding": "inplace",
        "label": "bytes32",
        "numberOfBytes": "32"
      },
      "t_mapping(t_address,t_uint256)": {
        "encoding": "mapping",
        "key": "t_address",
        "label": "mapping(address => uint256)",
        "numberOfBytes": "32",
        "value": "t_uint256"
      },
      "t_mapping(t_bytes32,t_uint256)": {
        "encoding": "mapping",
        "key": "t_bytes32",
        "label": "mapping(bytes32 => uint256)",
        "numberOfBytes": "32",
        "value": "t_uint256"
      },
      "t_struct(AddressSet)6467_storage": {
        "encoding": "inplace",
        "label": "struct EnumerableSet.AddressSet",
        "members": [
          {
            "astId": 6466,
            "contract": "contracts/Mocks/OraclePriceFeed.sol:PriceOracle",
            "label": "_inner",
            "offset": 0,
            "slot": "0",
            "type": "t_struct(Set)6152_storage"
          }
        ],
        "numberOfBytes": "64"
      },
      "t_struct(Set)6152_storage": {
        "encoding": "inplace",
        "label": "struct EnumerableSet.Set",
        "members": [
          {
            "astId": 6147,
            "contract": "contracts/Mocks/OraclePriceFeed.sol:PriceOracle",
            "label": "_values",
            "offset": 0,
            "slot": "0",
            "type": "t_array(t_bytes32)dyn_storage"
          },
          {
            "astId": 6151,
            "contract": "contracts/Mocks/OraclePriceFeed.sol:PriceOracle",
            "label": "_positions",
            "offset": 0,
            "slot": "1",
            "type": "t_mapping(t_bytes32,t_uint256)"
          }
        ],
        "numberOfBytes": "64"
      },
      "t_uint256": {
        "encoding": "inplace",
        "label": "uint256",
        "numberOfBytes": "32"
      }
    }
  }
}