{
  "address": "0xe297dE2D7C1A3a0b0b92e180CE51E017F54446C8",
  "abi": [
    {
      "inputs": [],
      "name": "AccessControlBadConfirmation",
      "type": "error"
    },
    {
      "inputs": [
        {
          "internalType": "address",
          "name": "account",
          "type": "address"
        },
        {
          "internalType": "bytes32",
          "name": "neededRole",
          "type": "bytes32"
        }
      ],
      "name": "AccessControlUnauthorizedAccount",
      "type": "error"
    },
    {
      "inputs": [],
      "name": "EnforcedPause",
      "type": "error"
    },
    {
      "inputs": [],
      "name": "ExpectedPause",
      "type": "error"
    },
    {
      "inputs": [],
      "name": "InvalidInitialization",
      "type": "error"
    },
    {
      "inputs": [],
      "name": "NotInitializing",
      "type": "error"
    },
    {
      "inputs": [],
      "name": "ReentrancyGuardReentrantCall",
      "type": "error"
    },
    {
      "anonymous": false,
      "inputs": [
        {
          "indexed": true,
          "internalType": "address",
          "name": "user",
          "type": "address"
        },
        {
          "indexed": false,
          "internalType": "uint256",
          "name": "amount",
          "type": "uint256"
        }
      ],
      "name": "EmergencyWithdraw",
      "type": "event"
    },
    {
      "anonymous": false,
      "inputs": [
        {
          "indexed": true,
          "internalType": "address",
          "name": "user",
          "type": "address"
        },
        {
          "indexed": false,
          "internalType": "bool",
          "name": "EmergencyWithdraw",
          "type": "bool"
        }
      ],
      "name": "EmergencyWithdrawToggled",
      "type": "event"
    },
    {
      "anonymous": false,
      "inputs": [
        {
          "indexed": true,
          "internalType": "address",
          "name": "_user",
          "type": "address"
        },
        {
          "indexed": true,
          "internalType": "address",
          "name": "_receiver",
          "type": "address"
        },
        {
          "indexed": false,
          "internalType": "uint256",
          "name": "_amount",
          "type": "uint256"
        }
      ],
      "name": "Harvest",
      "type": "event"
    },
    {
      "anonymous": false,
      "inputs": [
        {
          "indexed": false,
          "internalType": "uint64",
          "name": "version",
          "type": "uint64"
        }
      ],
      "name": "Initialized",
      "type": "event"
    },
    {
      "anonymous": false,
      "inputs": [
        {
          "indexed": true,
          "internalType": "uint256",
          "name": "policyId",
          "type": "uint256"
        },
        {
          "indexed": true,
          "internalType": "address",
          "name": "payout",
          "type": "address"
        },
        {
          "indexed": false,
          "internalType": "uint256",
          "name": "amount",
          "type": "uint256"
        }
      ],
      "name": "InsurancePayoutSettled",
      "type": "event"
    },
    {
      "anonymous": false,
      "inputs": [
        {
          "indexed": true,
          "internalType": "address",
          "name": "_owner",
          "type": "address"
        },
        {
          "indexed": false,
          "internalType": "bool",
          "name": "_killed",
          "type": "bool"
        }
      ],
      "name": "KillPool",
      "type": "event"
    },
    {
      "anonymous": false,
      "inputs": [
        {
          "indexed": true,
          "internalType": "address",
          "name": "_staker",
          "type": "address"
        },
        {
          "indexed": true,
          "internalType": "address",
          "name": "_pool",
          "type": "address"
        },
        {
          "indexed": false,
          "internalType": "uint256",
          "name": "_requestAmount",
          "type": "uint256"
        }
      ],
      "name": "LeftPool",
      "type": "event"
    },
    {
      "anonymous": false,
      "inputs": [
        {
          "indexed": true,
          "internalType": "address",
          "name": "_user",
          "type": "address"
        },
        {
          "indexed": false,
          "internalType": "uint256",
          "name": "_cancelAmount",
          "type": "uint256"
        },
        {
          "indexed": false,
          "internalType": "uint256",
          "name": "_cancelAmountInUno",
          "type": "uint256"
        }
      ],
      "name": "LogCancelWithdrawRequest",
      "type": "event"
    },
    {
      "anonymous": false,
      "inputs": [
        {
          "indexed": true,
          "internalType": "address",
          "name": "_SSIP",
          "type": "address"
        },
        {
          "indexed": true,
          "internalType": "address",
          "name": "_rewarder",
          "type": "address"
        },
        {
          "indexed": false,
          "internalType": "address",
          "name": "_currency",
          "type": "address"
        }
      ],
      "name": "LogCreateRewarder",
      "type": "event"
    },
    {
      "anonymous": false,
      "inputs": [
        {
          "indexed": true,
          "internalType": "address",
          "name": "_user",
          "type": "address"
        },
        {
          "indexed": true,
          "internalType": "address",
          "name": "_riskPool",
          "type": "address"
        },
        {
          "indexed": false,
          "internalType": "uint256",
          "name": "_withdrawLpAmount",
          "type": "uint256"
        },
        {
          "indexed": false,
          "internalType": "uint256",
          "name": "_withdrawUnoAmount",
          "type": "uint256"
        }
      ],
      "name": "LogLeaveFromPendingSSIP",
      "type": "event"
    },
    {
      "anonymous": false,
      "inputs": [
        {
          "indexed": true,
          "internalType": "address",
          "name": "_from",
          "type": "address"
        },
        {
          "indexed": true,
          "internalType": "address",
          "name": "_to",
          "type": "address"
        },
        {
          "indexed": false,
          "internalType": "uint256",
          "name": "_amount",
          "type": "uint256"
        }
      ],
      "name": "LogLpTransferInSSIP",
      "type": "event"
    },
    {
      "anonymous": false,
      "inputs": [
        {
          "indexed": true,
          "internalType": "address",
          "name": "_user",
          "type": "address"
        },
        {
          "indexed": true,
          "internalType": "address",
          "name": "_migrateTo",
          "type": "address"
        },
        {
          "indexed": false,
          "internalType": "uint256",
          "name": "_migratedAmount",
          "type": "uint256"
        }
      ],
      "name": "LogMigrate",
      "type": "event"
    },
    {
      "anonymous": false,
      "inputs": [
        {
          "indexed": true,
          "internalType": "address",
          "name": "_SSIP",
          "type": "address"
        },
        {
          "indexed": true,
          "internalType": "address",
          "name": "_capitalAgent",
          "type": "address"
        }
      ],
      "name": "LogSetCapitalAgent",
      "type": "event"
    },
    {
      "anonymous": false,
      "inputs": [
        {
          "indexed": true,
          "internalType": "address",
          "name": "_SSIP",
          "type": "address"
        },
        {
          "indexed": false,
          "internalType": "uint256",
          "name": "_lockTime",
          "type": "uint256"
        }
      ],
      "name": "LogSetLockTime",
      "type": "event"
    },
    {
      "anonymous": false,
      "inputs": [
        {
          "indexed": true,
          "internalType": "address",
          "name": "_SSIP",
          "type": "address"
        },
        {
          "indexed": true,
          "internalType": "address",
          "name": "_migrateTo",
          "type": "address"
        }
      ],
      "name": "LogSetMigrateTo",
      "type": "event"
    },
    {
      "anonymous": false,
      "inputs": [
        {
          "indexed": true,
          "internalType": "address",
          "name": "_SSIP",
          "type": "address"
        },
        {
          "indexed": false,
          "internalType": "uint256",
          "name": "_minLPCapital",
          "type": "uint256"
        }
      ],
      "name": "LogSetMinLPCapital",
      "type": "event"
    },
    {
      "anonymous": false,
      "inputs": [
        {
          "indexed": true,
          "internalType": "address",
          "name": "_SSIP",
          "type": "address"
        },
        {
          "indexed": false,
          "internalType": "uint256",
          "name": "_rewardPerBlock",
          "type": "uint256"
        }
      ],
      "name": "LogSetRewardMultiplier",
      "type": "event"
    },
    {
      "anonymous": false,
      "inputs": [
        {
          "indexed": true,
          "internalType": "address",
          "name": "_SSIP",
          "type": "address"
        },
        {
          "indexed": false,
          "internalType": "bytes32",
          "name": "_role",
          "type": "bytes32"
        },
        {
          "indexed": true,
          "internalType": "address",
          "name": "_account",
          "type": "address"
        }
      ],
      "name": "LogSetRole",
      "type": "event"
    },
    {
      "anonymous": false,
      "inputs": [
        {
          "indexed": true,
          "internalType": "address",
          "name": "_SSIP",
          "type": "address"
        },
        {
          "indexed": false,
          "internalType": "uint256",
          "name": "_startTime",
          "type": "uint256"
        }
      ],
      "name": "LogSetStakingStartTime",
      "type": "event"
    },
    {
      "anonymous": false,
      "inputs": [
        {
          "indexed": false,
          "internalType": "uint256",
          "name": "_lastRewardBlock",
          "type": "uint256"
        },
        {
          "indexed": false,
          "internalType": "uint256",
          "name": "_lpSupply",
          "type": "uint256"
        },
        {
          "indexed": false,
          "internalType": "uint256",
          "name": "_accUnoPerShare",
          "type": "uint256"
        }
      ],
      "name": "LogUpdatePool",
      "type": "event"
    },
    {
      "anonymous": false,
      "inputs": [
        {
          "indexed": true,
          "internalType": "address",
          "name": "pool",
          "type": "address"
        },
        {
          "indexed": true,
          "internalType": "address",
          "name": "user",
          "type": "address"
        },
        {
          "indexed": false,
          "internalType": "uint256",
          "name": "amount",
          "type": "uint256"
        }
      ],
      "name": "LogUserUpdated",
      "type": "event"
    },
    {
      "anonymous": false,
      "inputs": [
        {
          "indexed": false,
          "internalType": "address",
          "name": "account",
          "type": "address"
        }
      ],
      "name": "Paused",
      "type": "event"
    },
    {
      "anonymous": false,
      "inputs": [
        {
          "indexed": true,
          "internalType": "address",
          "name": "_user",
          "type": "address"
        },
        {
          "indexed": false,
          "internalType": "uint256",
          "name": "_claimAmount",
          "type": "uint256"
        }
      ],
      "name": "PolicyClaim",
      "type": "event"
    },
    {
      "anonymous": false,
      "inputs": [
        {
          "indexed": true,
          "internalType": "address",
          "name": "_owner",
          "type": "address"
        },
        {
          "indexed": false,
          "internalType": "bool",
          "name": "_alive",
          "type": "bool"
        }
      ],
      "name": "PoolAlived",
      "type": "event"
    },
    {
      "anonymous": false,
      "inputs": [
        {
          "indexed": true,
          "internalType": "address",
          "name": "_owner",
          "type": "address"
        },
        {
          "indexed": false,
          "internalType": "bool",
          "name": "_fail",
          "type": "bool"
        }
      ],
      "name": "PoolFailed",
      "type": "event"
    },
    {
      "anonymous": false,
      "inputs": [
        {
          "indexed": true,
          "internalType": "address",
          "name": "_SSIP",
          "type": "address"
        },
        {
          "indexed": true,
          "internalType": "address",
          "name": "_pool",
          "type": "address"
        }
      ],
      "name": "RiskPoolCreated",
      "type": "event"
    },
    {
      "anonymous": false,
      "inputs": [
        {
          "indexed": true,
          "internalType": "bytes32",
          "name": "role",
          "type": "bytes32"
        },
        {
          "indexed": true,
          "internalType": "bytes32",
          "name": "previousAdminRole",
          "type": "bytes32"
        },
        {
          "indexed": true,
          "internalType": "bytes32",
          "name": "newAdminRole",
          "type": "bytes32"
        }
      ],
      "name": "RoleAdminChanged",
      "type": "event"
    },
    {
      "anonymous": false,
      "inputs": [
        {
          "indexed": true,
          "internalType": "bytes32",
          "name": "role",
          "type": "bytes32"
        },
        {
          "indexed": true,
          "internalType": "address",
          "name": "account",
          "type": "address"
        },
        {
          "indexed": true,
          "internalType": "address",
          "name": "sender",
          "type": "address"
        }
      ],
      "name": "RoleGranted",
      "type": "event"
    },
    {
      "anonymous": false,
      "inputs": [
        {
          "indexed": true,
          "internalType": "bytes32",
          "name": "role",
          "type": "bytes32"
        },
        {
          "indexed": true,
          "internalType": "address",
          "name": "account",
          "type": "address"
        },
        {
          "indexed": true,
          "internalType": "address",
          "name": "sender",
          "type": "address"
        }
      ],
      "name": "RoleRevoked",
      "type": "event"
    },
    {
      "anonymous": false,
      "inputs": [
        {
          "indexed": true,
          "internalType": "address[]",
          "name": "_staker",
          "type": "address[]"
        },
        {
          "indexed": true,
          "internalType": "address",
          "name": "_pool",
          "type": "address"
        },
        {
          "indexed": false,
          "internalType": "uint256",
          "name": "_amount",
          "type": "uint256"
        }
      ],
      "name": "RollOverReward",
      "type": "event"
    },
    {
      "anonymous": false,
      "inputs": [
        {
          "indexed": true,
          "internalType": "address",
          "name": "_staker",
          "type": "address"
        },
        {
          "indexed": true,
          "internalType": "address",
          "name": "_pool",
          "type": "address"
        },
        {
          "indexed": false,
          "internalType": "uint256",
          "name": "_amount",
          "type": "uint256"
        }
      ],
      "name": "StakedInPool",
      "type": "event"
    },
    {
      "anonymous": false,
      "inputs": [
        {
          "indexed": false,
          "internalType": "address",
          "name": "account",
          "type": "address"
        }
      ],
      "name": "Unpaused",
      "type": "event"
    },
    {
      "inputs": [],
      "name": "ACC_UNO_PRECISION",
      "outputs": [
        {
          "internalType": "uint256",
          "name": "",
          "type": "uint256"
        }
      ],
      "stateMutability": "view",
      "type": "function"
    },
    {
      "inputs": [],
      "name": "ADMIN_ROLE",
      "outputs": [
        {
          "internalType": "bytes32",
          "name": "",
          "type": "bytes32"
        }
      ],
      "stateMutability": "view",
      "type": "function"
    },
    {
      "inputs": [],
      "name": "BOT_ROLE",
      "outputs": [
        {
          "internalType": "bytes32",
          "name": "",
          "type": "bytes32"
        }
      ],
      "stateMutability": "view",
      "type": "function"
    },
    {
      "inputs": [],
      "name": "CLAIM_PROCESSOR_ROLE",
      "outputs": [
        {
          "internalType": "bytes32",
          "name": "",
          "type": "bytes32"
        }
      ],
      "stateMutability": "view",
      "type": "function"
    },
    {
      "inputs": [],
      "name": "DEFAULT_ADMIN_ROLE",
      "outputs": [
        {
          "internalType": "bytes32",
          "name": "",
          "type": "bytes32"
        }
      ],
      "stateMutability": "view",
      "type": "function"
    },
    {
      "inputs": [],
      "name": "cancelWithdrawRequest",
      "outputs": [],
      "stateMutability": "nonpayable",
      "type": "function"
    },
    {
      "inputs": [],
      "name": "capitalAgent",
      "outputs": [
        {
          "internalType": "address",
          "name": "",
          "type": "address"
        }
      ],
      "stateMutability": "view",
      "type": "function"
    },
    {
      "inputs": [
        {
          "internalType": "address",
          "name": "_operator",
          "type": "address"
        },
        {
          "internalType": "address",
          "name": "_factory",
          "type": "address"
        },
        {
          "internalType": "address",
          "name": "_currency",
          "type": "address"
        }
      ],
      "name": "createRewarder",
      "outputs": [],
      "stateMutability": "nonpayable",
      "type": "function"
    },
    {
      "inputs": [
        {
          "internalType": "string",
          "name": "_name",
          "type": "string"
        },
        {
          "internalType": "string",
          "name": "_symbol",
          "type": "string"
        },
        {
          "internalType": "address",
          "name": "_factory",
          "type": "address"
        },
        {
          "internalType": "address",
          "name": "_currency",
          "type": "address"
        },
        {
          "internalType": "uint256",
          "name": "_rewardMultiplier",
          "type": "uint256"
        },
        {
          "internalType": "uint256",
          "name": "_SCR",
          "type": "uint256"
        }
      ],
      "name": "createRiskPool",
      "outputs": [],
      "stateMutability": "nonpayable",
      "type": "function"
    },
    {
      "inputs": [],
      "name": "emergencyWithdraw",
      "outputs": [],
      "stateMutability": "nonpayable",
      "type": "function"
    },
    {
      "inputs": [],
      "name": "emergencyWithdrawAllowed",
      "outputs": [
        {
          "internalType": "bool",
          "name": "",
          "type": "bool"
        }
      ],
      "stateMutability": "view",
      "type": "function"
    },
    {
      "inputs": [
        {
          "internalType": "uint256",
          "name": "_amount",
          "type": "uint256"
        }
      ],
      "name": "enterInPool",
      "outputs": [],
      "stateMutability": "payable",
      "type": "function"
    },
    {
      "inputs": [
        {
          "internalType": "bytes32",
          "name": "role",
          "type": "bytes32"
        }
      ],
      "name": "getRoleAdmin",
      "outputs": [
        {
          "internalType": "bytes32",
          "name": "",
          "type": "bytes32"
        }
      ],
      "stateMutability": "view",
      "type": "function"
    },
    {
      "inputs": [
        {
          "internalType": "address",
          "name": "_to",
          "type": "address"
        }
      ],
      "name": "getStakedAmountPerUser",
      "outputs": [
        {
          "internalType": "uint256",
          "name": "unoAmount",
          "type": "uint256"
        },
        {
          "internalType": "uint256",
          "name": "lpAmount",
          "type": "uint256"
        }
      ],
      "stateMutability": "view",
      "type": "function"
    },
    {
      "inputs": [],
      "name": "getTotalWithdrawPendingAmount",
      "outputs": [
        {
          "internalType": "uint256",
          "name": "",
          "type": "uint256"
        }
      ],
      "stateMutability": "view",
      "type": "function"
    },
    {
      "inputs": [
        {
          "internalType": "address",
          "name": "_user",
          "type": "address"
        }
      ],
      "name": "getWithdrawRequestPerUser",
      "outputs": [
        {
          "internalType": "uint256",
          "name": "pendingAmount",
          "type": "uint256"
        },
        {
          "internalType": "uint256",
          "name": "pendingAmountInUno",
          "type": "uint256"
        },
        {
          "internalType": "uint256",
          "name": "originUnoAmount",
          "type": "uint256"
        },
        {
          "internalType": "uint256",
          "name": "requestTime",
          "type": "uint256"
        }
      ],
      "stateMutability": "view",
      "type": "function"
    },
    {
      "inputs": [
        {
          "internalType": "bytes32",
          "name": "role",
          "type": "bytes32"
        },
        {
          "internalType": "address",
          "name": "account",
          "type": "address"
        }
      ],
      "name": "grantRole",
      "outputs": [],
      "stateMutability": "nonpayable",
      "type": "function"
    },
    {
      "inputs": [
        {
          "internalType": "address",
          "name": "_to",
          "type": "address"
        }
      ],
      "name": "harvest",
      "outputs": [],
      "stateMutability": "nonpayable",
      "type": "function"
    },
    {
      "inputs": [
        {
          "internalType": "bytes32",
          "name": "role",
          "type": "bytes32"
        },
        {
          "internalType": "address",
          "name": "account",
          "type": "address"
        }
      ],
      "name": "hasRole",
      "outputs": [
        {
          "internalType": "bool",
          "name": "",
          "type": "bool"
        }
      ],
      "stateMutability": "view",
      "type": "function"
    },
    {
      "inputs": [
        {
          "internalType": "address",
          "name": "_capitalAgent",
          "type": "address"
        },
        {
          "internalType": "address",
          "name": "_multiSigWallet",
          "type": "address"
        }
      ],
      "name": "initialize",
      "outputs": [],
      "stateMutability": "nonpayable",
      "type": "function"
    },
    {
      "inputs": [],
      "name": "killPool",
      "outputs": [],
      "stateMutability": "nonpayable",
      "type": "function"
    },
    {
      "inputs": [],
      "name": "killed",
      "outputs": [
        {
          "internalType": "bool",
          "name": "",
          "type": "bool"
        }
      ],
      "stateMutability": "view",
      "type": "function"
    },
    {
      "inputs": [
        {
          "internalType": "uint256",
          "name": "_amount",
          "type": "uint256"
        }
      ],
      "name": "leaveFromPending",
      "outputs": [],
      "stateMutability": "nonpayable",
      "type": "function"
    },
    {
      "inputs": [
        {
          "internalType": "uint256",
          "name": "_amount",
          "type": "uint256"
        }
      ],
      "name": "leaveFromPoolInPending",
      "outputs": [],
      "stateMutability": "nonpayable",
      "type": "function"
    },
    {
      "inputs": [],
      "name": "lockTime",
      "outputs": [
        {
          "internalType": "uint256",
          "name": "",
          "type": "uint256"
        }
      ],
      "stateMutability": "view",
      "type": "function"
    },
    {
      "inputs": [
        {
          "internalType": "address",
          "name": "_from",
          "type": "address"
        },
        {
          "internalType": "address",
          "name": "_to",
          "type": "address"
        },
        {
          "internalType": "uint256",
          "name": "_amount",
          "type": "uint256"
        }
      ],
      "name": "lpTransfer",
      "outputs": [],
      "stateMutability": "nonpayable",
      "type": "function"
    },
    {
      "inputs": [],
      "name": "migrate",
      "outputs": [],
      "stateMutability": "nonpayable",
      "type": "function"
    },
    {
      "inputs": [],
      "name": "migrateTo",
      "outputs": [
        {
          "internalType": "address",
          "name": "",
          "type": "address"
        }
      ],
      "stateMutability": "view",
      "type": "function"
    },
    {
      "inputs": [],
      "name": "pausePool",
      "outputs": [],
      "stateMutability": "nonpayable",
      "type": "function"
    },
    {
      "inputs": [],
      "name": "paused",
      "outputs": [
        {
          "internalType": "bool",
          "name": "",
          "type": "bool"
        }
      ],
      "stateMutability": "view",
      "type": "function"
    },
    {
      "inputs": [
        {
          "internalType": "address",
          "name": "_to",
          "type": "address"
        }
      ],
      "name": "pendingUno",
      "outputs": [
        {
          "internalType": "uint256",
          "name": "pending",
          "type": "uint256"
        }
      ],
      "stateMutability": "view",
      "type": "function"
    },
    {
      "inputs": [
        {
          "internalType": "uint256",
          "name": "",
          "type": "uint256"
        }
      ],
      "name": "policies",
      "outputs": [
        {
          "internalType": "uint256",
          "name": "insuranceAmount",
          "type": "uint256"
        },
        {
          "internalType": "address",
          "name": "payoutAddress",
          "type": "address"
        },
        {
          "internalType": "bool",
          "name": "settled",
          "type": "bool"
        }
      ],
      "stateMutability": "view",
      "type": "function"
    },
    {
      "inputs": [],
      "name": "poolInfo",
      "outputs": [
        {
          "internalType": "uint256",
          "name": "lastRewardBlock",
          "type": "uint256"
        },
        {
          "internalType": "uint256",
          "name": "accUnoPerShare",
          "type": "uint256"
        },
        {
          "internalType": "uint256",
          "name": "unoMultiplierPerBlock",
          "type": "uint256"
        }
      ],
      "stateMutability": "view",
      "type": "function"
    },
    {
      "inputs": [
        {
          "internalType": "bytes32",
          "name": "role",
          "type": "bytes32"
        },
        {
          "internalType": "address",
          "name": "callerConfirmation",
          "type": "address"
        }
      ],
      "name": "renounceRole",
      "outputs": [],
      "stateMutability": "nonpayable",
      "type": "function"
    },
    {
      "inputs": [],
      "name": "revivePool",
      "outputs": [],
      "stateMutability": "nonpayable",
      "type": "function"
    },
    {
      "inputs": [
        {
          "internalType": "bytes32",
          "name": "role",
          "type": "bytes32"
        },
        {
          "internalType": "address",
          "name": "account",
          "type": "address"
        }
      ],
      "name": "revokeRole",
      "outputs": [],
      "stateMutability": "nonpayable",
      "type": "function"
    },
    {
      "inputs": [],
      "name": "rewarder",
      "outputs": [
        {
          "internalType": "address",
          "name": "",
          "type": "address"
        }
      ],
      "stateMutability": "view",
      "type": "function"
    },
    {
      "inputs": [],
      "name": "riskPool",
      "outputs": [
        {
          "internalType": "address",
          "name": "",
          "type": "address"
        }
      ],
      "stateMutability": "view",
      "type": "function"
    },
    {
      "inputs": [
        {
          "internalType": "bytes32",
          "name": "",
          "type": "bytes32"
        },
        {
          "internalType": "address",
          "name": "",
          "type": "address"
        }
      ],
      "name": "roleLockTime",
      "outputs": [
        {
          "internalType": "uint256",
          "name": "",
          "type": "uint256"
        }
      ],
      "stateMutability": "view",
      "type": "function"
    },
    {
      "inputs": [
        {
          "internalType": "address[]",
          "name": "_to",
          "type": "address[]"
        }
      ],
      "name": "rollOverReward",
      "outputs": [],
      "stateMutability": "nonpayable",
      "type": "function"
    },
    {
      "inputs": [
        {
          "internalType": "uint256",
          "name": "_accUnoPerShare",
          "type": "uint256"
        },
        {
          "internalType": "uint256",
          "name": "_lastRewardBlock",
          "type": "uint256"
        }
      ],
      "name": "setAccUnoPerShare",
      "outputs": [],
      "stateMutability": "nonpayable",
      "type": "function"
    },
    {
      "inputs": [
        {
          "internalType": "address",
          "name": "_capitalAgent",
          "type": "address"
        }
      ],
      "name": "setCapitalAgent",
      "outputs": [],
      "stateMutability": "nonpayable",
      "type": "function"
    },
    {
      "inputs": [
        {
          "internalType": "uint256",
          "name": "_lockTime",
          "type": "uint256"
        }
      ],
      "name": "setLockTime",
      "outputs": [],
      "stateMutability": "nonpayable",
      "type": "function"
    },
    {
      "inputs": [
        {
          "internalType": "uint256",
          "name": "_lpPriceUno",
          "type": "uint256"
        }
      ],
      "name": "setLpPriceInRiskPool",
      "outputs": [],
      "stateMutability": "nonpayable",
      "type": "function"
    },
    {
      "inputs": [
        {
          "internalType": "address",
          "name": "_migrateTo",
          "type": "address"
        }
      ],
      "name": "setMigrateTo",
      "outputs": [],
      "stateMutability": "nonpayable",
      "type": "function"
    },
    {
      "inputs": [
        {
          "internalType": "uint256",
          "name": "_minLPCapital",
          "type": "uint256"
        }
      ],
      "name": "setMinLPCapital",
      "outputs": [],
      "stateMutability": "nonpayable",
      "type": "function"
    },
    {
      "inputs": [
        {
          "internalType": "uint256",
          "name": "_rewardMultiplier",
          "type": "uint256"
        }
      ],
      "name": "setRewardMultiplier",
      "outputs": [],
      "stateMutability": "nonpayable",
      "type": "function"
    },
    {
      "inputs": [
        {
          "internalType": "bytes32",
          "name": "_role",
          "type": "bytes32"
        },
        {
          "internalType": "address",
          "name": "_account",
          "type": "address"
        }
      ],
      "name": "setRole",
      "outputs": [],
      "stateMutability": "nonpayable",
      "type": "function"
    },
    {
      "inputs": [
        {
          "internalType": "uint256",
          "name": "_startTime",
          "type": "uint256"
        }
      ],
      "name": "setStakingStartTime",
      "outputs": [],
      "stateMutability": "nonpayable",
      "type": "function"
    },
    {
      "inputs": [
        {
          "internalType": "address",
          "name": "_user",
          "type": "address"
        },
        {
          "internalType": "uint256",
          "name": "_amount",
          "type": "uint256"
        },
        {
          "internalType": "uint256",
          "name": "_rewardDebt",
          "type": "uint256"
        }
      ],
      "name": "setUserDetails",
      "outputs": [],
      "stateMutability": "nonpayable",
      "type": "function"
    },
    {
      "inputs": [
        {
          "internalType": "uint256",
          "name": "_policyId",
          "type": "uint256"
        },
        {
          "internalType": "address",
          "name": "_payout",
          "type": "address"
        },
        {
          "internalType": "uint256",
          "name": "_amount",
          "type": "uint256"
        }
      ],
      "name": "settlePayout",
      "outputs": [],
      "stateMutability": "nonpayable",
      "type": "function"
    },
    {
      "inputs": [],
      "name": "stakingStartTime",
      "outputs": [
        {
          "internalType": "uint256",
          "name": "",
          "type": "uint256"
        }
      ],
      "stateMutability": "view",
      "type": "function"
    },
    {
      "inputs": [
        {
          "internalType": "bytes4",
          "name": "interfaceId",
          "type": "bytes4"
        }
      ],
      "name": "supportsInterface",
      "outputs": [
        {
          "internalType": "bool",
          "name": "",
          "type": "bool"
        }
      ],
      "stateMutability": "view",
      "type": "function"
    },
    {
      "inputs": [],
      "name": "toggleEmergencyWithdraw",
      "outputs": [],
      "stateMutability": "nonpayable",
      "type": "function"
    },
    {
      "inputs": [],
      "name": "toggleRollOver",
      "outputs": [],
      "stateMutability": "nonpayable",
      "type": "function"
    },
    {
      "inputs": [],
      "name": "unpausePool",
      "outputs": [],
      "stateMutability": "nonpayable",
      "type": "function"
    },
    {
      "inputs": [],
      "name": "updatePool",
      "outputs": [],
      "stateMutability": "nonpayable",
      "type": "function"
    },
    {
      "inputs": [
        {
          "internalType": "address",
          "name": "",
          "type": "address"
        }
      ],
      "name": "userInfo",
      "outputs": [
        {
          "internalType": "uint256",
          "name": "lastWithdrawTime",
          "type": "uint256"
        },
        {
          "internalType": "uint256",
          "name": "rewardDebt",
          "type": "uint256"
        },
        {
          "internalType": "uint256",
          "name": "amount",
          "type": "uint256"
        },
        {
          "internalType": "bool",
          "name": "isNotRollOver",
          "type": "bool"
        }
      ],
      "stateMutability": "view",
      "type": "function"
    }
  ],
  "transactionHash": "0x92dbb771d4db2bcf619ef6abf5b8ed145f0a9137dd0d08a3ad3f3a54bd465456",
  "args": [],
  "numDeployments": 1,
  "solcInputHash": "ff82c0bebc09e4bed4a32d9e58f6bea9",
  "bytecode": "0x608060405234801561001057600080fd5b50614cb4806100206000396000f3fe6080604052600436106103815760003560e01c806391d14854116101d1578063c4d87fe211610102578063e08c5de1116100a0578063e3824a381161006f578063e3824a3814610b21578063f1daf24c14610b34578063fd91db9614610b54578063fe30e7e614610b7457600080fd5b8063e08c5de114610a9f578063e0c8d9a514610abf578063e19e716814610af7578063e3161ddd14610b0c57600080fd5b8063d547741f116100dc578063d547741f14610a2a578063db2e21bc14610a4a578063dcc3e06e14610a5f578063dff8720314610a7f57600080fd5b8063c4d87fe21461097c578063c4e5dacf1461099c578063d3e89483146109bc57600080fd5b8063aceda7f91161016f578063b150377411610149578063b1503774146108d3578063ba61945714610907578063c2eb8eb91461093c578063c3dcfcf11461095c57600080fd5b8063aceda7f914610872578063ae04d45d14610893578063af16d6e0146108b357600080fd5b806398c6e760116101ab57806398c6e76014610813578063a217fddf14610833578063a3bdd63214610848578063aa09d5b71461085d57600080fd5b806391d14854146107935780639336f406146107b357806393b6b86c146107f357600080fd5b806336568abe116102b65780636abfd183116102545780637da2a4a7116102235780637da2a4a71461070e5780638395206c1461074257806389919b71146107625780638fd3ab801461077e57600080fd5b80636abfd183146106a1578063736ec05c146106b757806375b238fc146106d75780637a39b8d8146106f957600080fd5b80635a2f3d09116102905780635a2f3d091461060d5780635c975abb146106475780635d90bad91461066c578063677554151461068c57600080fd5b806336568abe1461059557806342198160146105b5578063485cc955146105ed57600080fd5b80630e5c011e116103235780631959a002116102fd5780631959a002146104cd5780631f3a0e4114610534578063248a9ca3146105555780632f2ff15d1461057557600080fd5b80630e5c011e1461046d5780630e9ae4201461048d5780630f4c3c4f146104ad57600080fd5b8063093cf18f1161035f578063093cf18f146104025780630bd075a1146104175780630d668087146104375780630e2be5061461044d57600080fd5b806301ffc9a714610386578063068cc514146103bb578063078fa9bc146103d2575b600080fd5b34801561039257600080fd5b506103a66103a136600461453d565b610b94565b60405190151581526020015b60405180910390f35b3480156103c757600080fd5b506103d0610bcb565b005b3480156103de57600080fd5b506103f4600080516020614c1f83398151915281565b6040519081526020016103b2565b34801561040e57600080fd5b506103d0610c44565b34801561042357600080fd5b506103d061043236600461456e565b610d10565b34801561044357600080fd5b506103f460045481565b34801561045957600080fd5b506103d0610468366004614587565b610df8565b34801561047957600080fd5b506103d06104883660046145ce565b610e69565b34801561049957600080fd5b506103d06104a83660046145eb565b610ed9565b3480156104b957600080fd5b506103d06104c836600461456e565b6111d3565b3480156104d957600080fd5b506105126104e83660046145ce565b60086020526000908152604090208054600182015460028301546003909301549192909160ff1684565b60408051948552602085019390935291830152151560608201526080016103b2565b34801561054057600080fd5b506001546103a690600160a01b900460ff1681565b34801561056157600080fd5b506103f461057036600461456e565b61129a565b34801561058157600080fd5b506103d061059036600461462c565b6112bc565b3480156105a157600080fd5b506103d06105b036600461462c565b611353565b3480156105c157600080fd5b506001546105d5906001600160a01b031681565b6040516001600160a01b0390911681526020016103b2565b3480156105f957600080fd5b506103d061060836600461465c565b611386565b34801561061957600080fd5b50600954600a54600b5461062c92919083565b604080519384526020840192909252908201526060016103b2565b34801561065357600080fd5b50600080516020614c3f8339815191525460ff166103a6565b34801561067857600080fd5b506103d061068736600461456e565b6115b7565b34801561069857600080fd5b506103d061165c565b3480156106ad57600080fd5b506103f460055481565b3480156106c357600080fd5b506103d06106d23660046145ce565b611700565b3480156106e357600080fd5b506103f4600080516020614c5f83398151915281565b34801561070557600080fd5b506103d06117d7565b34801561071a57600080fd5b506103d0336000908152600860205260409020600301805460ff19811660ff90911615179055565b34801561074e57600080fd5b506103d061075d36600461456e565b611880565b34801561076e57600080fd5b506103f4670de0b6b3a764000081565b34801561078a57600080fd5b506103d0611bac565b34801561079f57600080fd5b506103a66107ae36600461462c565b611e08565b3480156107bf57600080fd5b506107d36107ce3660046145ce565b611e40565b6040805194855260208501939093529183015260608201526080016103b2565b3480156107ff57600080fd5b506103d061080e36600461456e565b611f5e565b34801561081f57600080fd5b506000546105d5906001600160a01b031681565b34801561083f57600080fd5b506103f4600081565b34801561085457600080fd5b506103f46120a2565b34801561086957600080fd5b506103d0612115565b34801561087e57600080fd5b506001546103a690600160a81b900460ff1681565b34801561089f57600080fd5b506103d06108ae36600461456e565b612181565b3480156108bf57600080fd5b506103d06108ce36600461468a565b61226c565b3480156108df57600080fd5b506103f47f6d5c9827c1f410bbb61d3b2a0a34b6b30492d9a1fd38588edca7ec4562ab9c9b81565b34801561091357600080fd5b506109276109223660046145ce565b61245f565b604080519283526020830191909152016103b2565b34801561094857600080fd5b506103d06109573660046145ce565b61250b565b34801561096857600080fd5b506103d061097736600461471e565b6125e3565b34801561098857600080fd5b506103d06109973660046147c5565b6127f9565b3480156109a857600080fd5b506003546105d5906001600160a01b031681565b3480156109c857600080fd5b50610a056109d736600461456e565b600760205260009081526040902080546001909101546001600160a01b03811690600160a01b900460ff1683565b604080519384526001600160a01b0390921660208401521515908201526060016103b2565b348015610a3657600080fd5b506103d0610a4536600461462c565b612929565b348015610a5657600080fd5b506103d061294b565b348015610a6b57600080fd5b506002546105d5906001600160a01b031681565b348015610a8b57600080fd5b506103d0610a9a36600461462c565b612b39565b348015610aab57600080fd5b506103f4610aba3660046145ce565b612c76565b348015610acb57600080fd5b506103f4610ada36600461462c565b600660209081526000928352604080842090915290825290205481565b348015610b0357600080fd5b506103d0612db0565b348015610b1857600080fd5b506103d0612e9a565b6103d0610b2f36600461456e565b612fba565b348015610b4057600080fd5b506103d0610b4f36600461456e565b613075565b348015610b6057600080fd5b506103d0610b6f366004614810565b613338565b348015610b8057600080fd5b506103d0610b8f3660046148d5565b61372c565b60006001600160e01b03198216637965db0b60e01b1480610bc557506301ffc9a760e01b6001600160e01b03198316145b92915050565b600080516020614c5f833981519152610be381613909565b336000908152600080516020614bdf8339815191526020526040902054600080516020614c5f83398151915290421015610c385760405162461bcd60e51b8152600401610c2f906148fc565b60405180910390fd5b610c40613913565b5050565b600080516020614c5f833981519152610c5c81613909565b336000908152600080516020614bdf8339815191526020526040902054600080516020614c5f83398151915290421015610ca85760405162461bcd60e51b8152600401610c2f906148fc565b6001805460ff600160a81b808304821615810260ff60a81b19909316929092179283905560405130937f4a1fbdd1e9ef46cfe9e097f622e1d79f51dcd6762c86122e6a8198c5394d640193610d04939104161515815260200190565b60405180910390a25050565b600080516020614c5f833981519152610d2881613909565b336000908152600080516020614bdf8339815191526020526040902054600080516020614c5f83398151915290421015610d745760405162461bcd60e51b8152600401610c2f906148fc565b60008311610db85760405162461bcd60e51b8152602060048201526011602482015270556e6f52653a207a65726f2076616c756560781b6044820152606401610c2f565b600b83905560405183815230907fbd1dd13c6a5b4a28ebd27fdcb8fdd01aba6bbb9f67599306248f465bcdf9817f906020015b60405180910390a2505050565b600080516020614c5f833981519152610e1081613909565b336000908152600080516020614bdf8339815191526020526040902054600080516020614c5f83398151915290421015610e5c5760405162461bcd60e51b8152600401610c2f906148fc565b5050600a91909155600955565b610e7161396d565b600154600160a01b900460ff1615610e9b5760405162461bcd60e51b8152600401610c2f90614931565b600554421015610ebd5760405162461bcd60e51b8152600401610c2f90614960565b610ec561399e565b610ece816139e8565b610ed6613ae4565b50565b610ee161399e565b610ee961396d565b600154600160a01b900460ff1615610f135760405162461bcd60e51b8152600401610c2f90614931565b6003546001600160a01b03163314610f6d5760405162461bcd60e51b815260206004820181905260248201527f556e6f52653a206e6f7420616c6c6f77206f7468657273207472616e736665726044820152606401610c2f565b610f76836139e8565b6001600160a01b03838116600081815260086020526040808220600201546003549151631665744b60e11b81526004810194909452939192911690632ccae89690602401606060405180830381865afa158015610fd7573d6000803e3d6000fd5b505050506040513d601f19601f82011682018060405250810190610ffb9190614997565b5050905082818361100c91906149db565b101561105a5760405162461bcd60e51b815260206004820152601760248201527f556e6f52653a2062616c616e6365206f766572666c6f770000000000000000006044820152606401610c2f565b600a54600090670de0b6b3a76400009061107490856149ee565b61107e9190614a05565b600a54909150670de0b6b3a76400009061109890866149ee565b6110a29190614a05565b6110ac90826149db565b6001600160a01b0387166000908152600860205260409020600101556110d284846149db565b6001600160a01b038716600090815260086020526040902060020155600a54670de0b6b3a76400009061110590866149ee565b61110f9190614a05565b6001600160a01b0386166000908152600860205260409020600101546111359190614a27565b6001600160a01b0386166000908152600860205260409020600181019190915560020154611164908590614a27565b6001600160a01b0380871660008181526008602052604090819020600201939093559151908816907fabc254a3e8b16a8605ce22e693a6e493e375434011c1a7ff082d09e2a84ad121906111bb9088815260200190565b60405180910390a35050506111ce613ae4565b505050565b600080516020614c5f8339815191526111eb81613909565b336000908152600080516020614bdf8339815191526020526040902054600080516020614c5f833981519152904210156112375760405162461bcd60e51b8152600401610c2f906148fc565b60035460405163f3212d2960e01b8152600481018590526001600160a01b039091169063f3212d2990602401600060405180830381600087803b15801561127d57600080fd5b505af1158015611291573d6000803e3d6000fd5b50505050505050565b6000908152600080516020614bff833981519152602052604090206001015490565b600154600160a01b900460ff16156112e65760405162461bcd60e51b8152600401610c2f90614931565b6112ee61396d565b6112f78261129a565b61130081613909565b6113098361129a565b60008181526006602090815260408083203384529091529020544210156113425760405162461bcd60e51b8152600401610c2f906148fc565b61134c8484613b0a565b5050505050565b6001600160a01b038116331461137c5760405163334bd91960e11b815260040160405180910390fd5b6111ce8282613baf565b7ff0c57e16840df040f15088dc2f81fe391c3923bec73e23a9662efc9c229c6a008054600160401b810460ff16159067ffffffffffffffff166000811580156113cc5750825b905060008267ffffffffffffffff1660011480156113e95750303b155b9050811580156113f7575080155b156114155760405163f92ee8a960e01b815260040160405180910390fd5b845467ffffffffffffffff19166001178555831561143f57845460ff60401b1916600160401b1785555b6001600160a01b0386166114a05760405162461bcd60e51b815260206004820152602260248201527f556e6f52653a207a65726f206d756c746973696777616c6c6574206164647265604482015261737360f01b6064820152608401610c2f565b600180546001600160a01b0319166001600160a01b038916179055620d2f006004556114ca613c38565b6114d2613c48565b6114da613c58565b6114f2600080516020614c5f83398151915287613b0a565b5061150b600080516020614c5f83398151915280613c60565b611531600080516020614c1f833981519152600080516020614c5f833981519152613c60565b6115697f6d5c9827c1f410bbb61d3b2a0a34b6b30492d9a1fd38588edca7ec4562ab9c9b600080516020614c5f833981519152613c60565b831561129157845460ff60401b19168555604051600181527fc7f505b2f371ae2175ee4913f4499e1f2633a7b5936321eed1cdaeb6115181d29060200160405180910390a150505050505050565b600080516020614c5f8339815191526115cf81613909565b336000908152600080516020614bdf8339815191526020526040902054600080516020614c5f8339815191529042101561161b5760405162461bcd60e51b8152600401610c2f906148fc565b6116254284614a27565b600581905560405190815230907fa8aa08cc14eef7b97ab4cd52f37082e23f7526bccc98cf91e6a1d412494b905190602001610deb565b600080516020614c5f83398151915261167481613909565b336000908152600080516020614bdf8339815191526020526040902054600080516020614c5f833981519152904210156116c05760405162461bcd60e51b8152600401610c2f906148fc565b6001805460ff60a01b191690556040516000815233907f77337fcf1b48e6e024b256962b66c49de98c9f606b2cd9937cc0edbc7a0fb70990602001610d04565b600080516020614c5f83398151915261171881613909565b336000908152600080516020614bdf8339815191526020526040902054600080516020614c5f833981519152904210156117645760405162461bcd60e51b8152600401610c2f906148fc565b6001600160a01b03831661178a5760405162461bcd60e51b8152600401610c2f90614a3a565b600080546001600160a01b0319166001600160a01b0385169081178255604051909130917f877238238dbd7134e89b00809ea73fabb50da117ace807a6b31c733bbf55d3699190a3505050565b600080516020614c5f8339815191526117ef81613909565b336000908152600080516020614bdf8339815191526020526040902054600080516020614c5f8339815191529042101561183b5760405162461bcd60e51b8152600401610c2f906148fc565b6001805460ff60a01b1916600160a01b17815560405190815233907f7c952f2e528aa25b4eaf8b6c07af29184b27ce591295e543ced0a27b167dc79490602001610d04565b61188861396d565b6005544210156118aa5760405162461bcd60e51b8152600401610c2f90614960565b6118b261399e565b6118bb336139e8565b60015460405163c139b04f60e01b8152306004820152602481018390526001600160a01b039091169063c139b04f90604401602060405180830381865afa15801561190a573d6000803e3d6000fd5b505050506040513d601f19601f8201168201806040525081019061192e9190614a67565b61197a5760405162461bcd60e51b815260206004820181905260248201527f556e6f52653a206d696e696d756d206361706974616c20756e646572666c6f776044820152606401610c2f565b336000908152600860209081526040808320600201546003548251627a9fd960e91b815292519194936001600160a01b039091169263f53fb20092600480830193928290030181865afa1580156119d5573d6000803e3d6000fd5b505050506040513d601f19601f820116820180604052508101906119f99190614a89565b600354604051631665744b60e11b81523360048201529192506000916001600160a01b0390911690632ccae89690602401606060405180830381865afa158015611a47573d6000803e3d6000fd5b505050506040513d601f19601f82011682018060405250810190611a6b9190614997565b505090508184670de0b6b3a7640000611a8491906149ee565b611a8e9190614a05565b611a9882856149db565b1015611ae65760405162461bcd60e51b815260206004820152601f60248201527f556e6f52653a20776974686472617720616d6f756e74206f766572666c6f77006044820152606401610c2f565b6003546040516323de6d9560e11b8152336004820152602481018690526001600160a01b03909116906347bcdb2a90604401600060405180830381600087803b158015611b3257600080fd5b505af1158015611b46573d6000803e3d6000fd5b50503360008181526008602090815260409182902042905560035491518981526001600160a01b0390921694509192507f940a14c75c418e7230a2e65567722d2dda5a6713cf71b369bd0fa219fdc1ac5e910160405180910390a3505050610ed6613ae4565b611bb461399e565b611bbc61396d565b600154600160a01b900460ff1615611be65760405162461bcd60e51b8152600401610c2f90614931565b6000546001600160a01b0316611c0e5760405162461bcd60e51b8152600401610c2f90614a3a565b611c17336139e8565b60045433600090815260086020526040812054909190611c3790426149db565b60035460008054604051633613302f60e01b81523360048201526001600160a01b0391821660248201529490931160448501819052945092911690633613302f906064016020604051808303816000875af1158015611c9a573d6000803e3d6000fd5b505050506040513d601f19601f82011682018060405250810190611cbe9190614a89565b60015460405163fb6cb84760e01b81526004810183905260006024820181905260448201529192506001600160a01b03169063fb6cb84790606401600060405180830381600087803b158015611d1357600080fd5b505af1158015611d27573d6000803e3d6000fd5b50506000805460405163ed59344b60e01b8152336004820152602481018690526060604482015260648101929092526001600160a01b0316925063ed59344b9150608401600060405180830381600087803b158015611d8557600080fd5b505af1158015611d99573d6000803e3d6000fd5b505033600081815260086020908152604080832060028101849055600101839055915491518681526001600160a01b0390921694509192507ff0fee1f70845d356d6a3e0baa0944ce846437b6469ea89416dad2cd7067919a4910160405180910390a35050611e06613ae4565b565b6000918252600080516020614bff833981519152602090815260408084206001600160a01b0393909316845291905290205460ff1690565b6000806000806000600360009054906101000a90046001600160a01b03166001600160a01b031663f53fb2006040518163ffffffff1660e01b8152600401602060405180830381865afa158015611e9b573d6000803e3d6000fd5b505050506040513d601f19601f82011682018060405250810190611ebf9190614a89565b600354604051631665744b60e11b81526001600160a01b038981166004830152929350911690632ccae89690602401606060405180830381865afa158015611f0b573d6000803e3d6000fd5b505050506040513d601f19601f82011682018060405250810190611f2f9190614997565b9196509093509150670de0b6b3a7640000611f4a82876149ee565b611f549190614a05565b9350509193509193565b600080516020614c5f833981519152611f7681613909565b336000908152600080516020614bdf8339815191526020526040902054600080516020614c5f83398151915290421015611fc25760405162461bcd60e51b8152600401610c2f906148fc565b600083116120125760405162461bcd60e51b815260206004820152601b60248201527f556e6f52653a206e6f7420616c6c6f77207a65726f2076616c756500000000006044820152606401610c2f565b6003546040516324edae1b60e21b8152600481018590526001600160a01b03909116906393b6b86c90602401600060405180830381600087803b15801561205857600080fd5b505af115801561206c573d6000803e3d6000fd5b50506040518581523092507f353ac2778fe09bc60cf3070bb11d548faf4037e4217a06977c16463087474aab9150602001610deb565b6003546040805163e95aa8d360e01b815290516000926001600160a01b03169163e95aa8d39160048083019260209291908290030181865afa1580156120ec573d6000803e3d6000fd5b505050506040513d601f19601f820116820180604052508101906121109190614a89565b905090565b600080516020614c5f83398151915261212d81613909565b336000908152600080516020614bdf8339815191526020526040902054600080516020614c5f833981519152904210156121795760405162461bcd60e51b8152600401610c2f906148fc565b610c40613cc3565b600080516020614c5f83398151915261219981613909565b336000908152600080516020614bdf8339815191526020526040902054600080516020614c5f833981519152904210156121e55760405162461bcd60e51b8152600401610c2f906148fc565b600083116122355760405162461bcd60e51b815260206004820152601f60248201527f556e6f52653a206e6f7420616c6c6f77207a65726f206c6f636b2074696d65006044820152606401610c2f565b600483905560405183815230907f2c2c43c64e937ae35257af782c222986dc5adb4f56dc0881594e79bf83658d8c90602001610deb565b61227461399e565b600080516020614c5f83398151915261228c81613909565b336000908152600080516020614bdf8339815191526020526040902054600080516020614c5f833981519152904210156122d85760405162461bcd60e51b8152600401610c2f906148fc565b6001600160a01b03841661232e5760405162461bcd60e51b815260206004820181905260248201527f556e6f52653a20726577617264657220666163746f7279206e6f2065786973746044820152606401610c2f565b6001600160a01b0385166123845760405162461bcd60e51b815260206004820152601c60248201527f556e6f52653a207a65726f206f70657261746f722061646472657373000000006044820152606401610c2f565b6040516369ee745160e01b81526001600160a01b03868116600483015284811660248301523060448301528516906369ee7451906064016020604051808303816000875af11580156123da573d6000803e3d6000fd5b505050506040513d601f19601f820116820180604052508101906123fe9190614aa2565b600280546001600160a01b0319166001600160a01b0392831690811790915560405191851682529030907f6c409a36847a0a3870deae25f656f4300d45957d2643fc27faab145e19cfcf1b9060200160405180910390a350506111ce613ae4565b6001600160a01b038082166000908152600860209081526040808320600201546003548251627a9fd960e91b81529251949591948694919092169263f53fb20092600480830193928290030181865afa1580156124c0573d6000803e3d6000fd5b505050506040513d601f19601f820116820180604052508101906124e49190614a89565b9050670de0b6b3a76400006124f982846149ee565b6125039190614a05565b925050915091565b600080516020614c5f83398151915261252381613909565b336000908152600080516020614bdf8339815191526020526040902054600080516020614c5f8339815191529042101561256f5760405162461bcd60e51b8152600401610c2f906148fc565b6001600160a01b0383166125955760405162461bcd60e51b8152600401610c2f90614a3a565b600180546001600160a01b0319166001600160a01b03851690811790915560405130907fdf8e7a62b39a2ec070924d5c5dce9a1957d75476af59af5a7e7ce2ee48bc777490600090a3505050565b6125eb61399e565b600080516020614c5f83398151915261260381613909565b336000908152600080516020614bdf8339815191526020526040902054600080516020614c5f8339815191529042101561264f5760405162461bcd60e51b8152600401610c2f906148fc565b6001600160a01b0386166126a55760405162461bcd60e51b815260206004820152601b60248201527f556e6f52653a207a65726f20666163746f7279206164647265737300000000006044820152606401610c2f565b604051630d98e31f60e01b81526001600160a01b03871690630d98e31f906126db908d908d908d908d9030908d90600401614ae8565b6020604051808303816000875af11580156126fa573d6000803e3d6000fd5b505050506040513d601f19601f8201168201806040525081019061271e9190614aa2565b600380546001600160a01b0319166001600160a01b03928316179055436009556000600a55600b859055600154604051633f14eb6160e11b8152306004820152878316602482015260448101869052911690637e29d6c290606401600060405180830381600087803b15801561279357600080fd5b505af11580156127a7573d6000803e3d6000fd5b50506003546040516001600160a01b0390911692503091507f184d7691bf4a73930a21086fa1bdf0ee3075421531a60730288325fd5838021790600090a350506127ef613ae4565b5050505050505050565b600080516020614c5f83398151915261281181613909565b336000908152600080516020614bdf8339815191526020526040902054600080516020614c5f8339815191529042101561285d5760405162461bcd60e51b8152600401610c2f906148fc565b6001600160a01b0385811660008181526008602052604090819020600281018890556001018690556003549051637e348b7d60e01b815260048101929092526024820187905290911690637e348b7d90604401600060405180830381600087803b1580156128ca57600080fd5b505af11580156128de573d6000803e3d6000fd5b50506040518681526001600160a01b03881692503091507f465dd1981de2fdd0163048712ba5bbf7ff0ff09e5f6bd26f566a19079909594a9060200160405180910390a35050505050565b6129328261129a565b61293b81613909565b6129458383613baf565b50505050565b61295361399e565b61295b61396d565b600154600160a81b900460ff166129c45760405162461bcd60e51b815260206004820152602760248201527f556e6f72653a20656d657267656e63795769746864726177206973206e6f7420604482015266185b1b1bddd95960ca1b6064820152608401610c2f565b3360009081526008602090815260409182902082516080810184528154815260018201549281019290925260028101549282018390526003015460ff16151560608201529080612a565760405162461bcd60e51b815260206004820152601760248201527f556e6f72653a205a65726f207573657220616d6f756e740000000000000000006044820152606401610c2f565b336000818152600860205260408082208281556001810183905560028101929092556003918201805460ff19169055905490516395ccea6760e01b81526004810192909252602482018390526001600160a01b0316906395ccea67906044016020604051808303816000875af1158015612ad4573d6000803e3d6000fd5b505050506040513d601f19601f82011682018060405250810190612af89190614a67565b5060405181815233907f5fafa99d0643513820be26656b45130b01e1c03062e1266bf36f88cbd3bd9695906020015b60405180910390a25050611e06613ae4565b600080516020614c5f833981519152612b5181613909565b336000908152600080516020614bdf8339815191526020526040902054600080516020614c5f83398151915290421015612b9d5760405162461bcd60e51b8152600401610c2f906148fc565b612ba561396d565b600154600160a01b900460ff1615612bcf5760405162461bcd60e51b8152600401610c2f90614931565b6001600160a01b038316612bf55760405162461bcd60e51b8152600401610c2f90614a3a565b600454612c029042614a27565b60008581526006602090815260408083206001600160a01b0388168452909152902055612c2f8484613b0a565b506040518481526001600160a01b0384169030907faa08bed1c8e2500452096c9af125a3944be2a139782a1853abaef7a74bd7dd519060200160405180910390a350505050565b600080600360009054906101000a90046001600160a01b03166001600160a01b03166318160ddd6040518163ffffffff1660e01b8152600401602060405180830381865afa158015612ccc573d6000803e3d6000fd5b505050506040513d601f19601f82011682018060405250810190612cf09190614a89565b600a546009549192509043118015612d0757508115155b15612d5d57600954600090612d1c90436149db565b600b54909150600090612d2f90836149ee565b905083612d44670de0b6b3a7640000836149ee565b612d4e9190614a05565b612d589084614a27565b925050505b6001600160a01b03841660009081526008602052604090206002810154600190910154670de0b6b3a7640000612d9384846149ee565b612d9d9190614a05565b612da791906149db565b95945050505050565b612db861399e565b612dc061396d565b600154600160a01b900460ff1615612dea5760405162461bcd60e51b8152600401610c2f90614931565b600354604051635d2cd2a760e01b815233600482015260009182916001600160a01b0390911690635d2cd2a79060240160408051808303816000875af1158015612e38573d6000803e3d6000fd5b505050506040513d601f19601f82011682018060405250810190612e5c9190614b36565b604080518381526020810183905292945090925033917f09c6481cb228ea7f61ceb67c8e708038eb74bbb68cfcc54a9cfca199087ecfb79101612b27565b600954431115611e0657600354604080516318160ddd60e01b815290516000926001600160a01b0316916318160ddd9160048083019260209291908290030181865afa158015612eee573d6000803e3d6000fd5b505050506040513d601f19601f82011682018060405250810190612f129190614a89565b90508015612f6f57600954600090612f2a90436149db565b600b54909150600090612f3d90836149ee565b905082612f52670de0b6b3a7640000836149ee565b612f5c9190614a05565b600a54612f699190614a27565b600a5550505b436009819055600a5460408051928352602083018490528201527f1f2d1a9fde053af46b5db3dc92a8aa8696e56a677998fdd1311b45be341f7853906060015b60405180910390a150565b612fc261396d565b600154600160a01b900460ff1615612fec5760405162461bcd60e51b8152600401610c2f90614931565b60055442101561300e5760405162461bcd60e51b8152600401610c2f90614960565b61301661399e565b61301f81613d0c565b6130298133613e25565b6003546040518281526001600160a01b039091169033907fd3dba7b5565b16b7749db7d1938410a636e3c7a6ea46ed8ce7e259e19f2f3b9f9060200160405180910390a3610ed6613ae4565b6005544210156130975760405162461bcd60e51b8152600401610c2f90614960565b61309f61396d565b6130a761399e565b6000811161310b5760405162461bcd60e51b815260206004820152602b60248201527f576974686472617720616d6f756e742073686f756c642062652067726561746f60448201526a72207468616e207a65726f60a81b6064820152608401610c2f565b6004543360009081526008602052604090205461312890426149db565b101561316b5760405162461bcd60e51b8152602060048201526012602482015271556e6f52653a204c6f636b65642074696d6560701b6044820152606401610c2f565b613174336139e8565b33600081815260086020526040808220600201546003549151636ce40c7960e01b81526004810194909452602484018590529282916001600160a01b031690636ce40c799060440160408051808303816000875af11580156131da573d6000803e3d6000fd5b505050506040513d601f19601f820116820180604052508101906131fe9190614b36565b600154604051632da26abb60e11b8152600481018390529294509092506001600160a01b031690635b44d57690602401600060405180830381600087803b15801561324857600080fd5b505af115801561325c573d6000803e3d6000fd5b5050600a5460009250670de0b6b3a7640000915061327a90866149ee565b6132849190614a05565b600a54909150670de0b6b3a76400009061329e90856149ee565b6132a89190614a05565b6132b290826149db565b336000908152600860205260409020600101556132cf83856149db565b336000818152600860209081526040918290206002019390935560035481518781529384018690526001600160a01b0316927fced2424eb51507abd1611ac0d9893e5bc6b6d0a0596b53f86d24d31fc75a5d60910160405180910390a350505050610ed6613ae4565b60055442101561335a5760405162461bcd60e51b8152600401610c2f90614960565b61336261396d565b600154600160a01b900460ff161561338c5760405162461bcd60e51b8152600401610c2f90614931565b7f6d5c9827c1f410bbb61d3b2a0a34b6b30492d9a1fd38588edca7ec4562ab9c9b6133b681613909565b6133be61399e565b600260009054906101000a90046001600160a01b03166001600160a01b031663e5a6b10f6040518163ffffffff1660e01b8152600401602060405180830381865afa158015613411573d6000803e3d6000fd5b505050506040513d601f19601f820116820180604052508101906134359190614aa2565b6001600160a01b0316600360009054906101000a90046001600160a01b03166001600160a01b031663e5a6b10f6040518163ffffffff1660e01b8152600401602060405180830381865afa158015613491573d6000803e3d6000fd5b505050506040513d601f19601f820116820180604052508101906134b59190614aa2565b6001600160a01b03161461350b5760405162461bcd60e51b815260206004820152601b60248201527f556e6f52653a2063757272656e6379206e6f74206d61746368656400000000006044820152606401610c2f565b613513612e9a565b60008060005b845181101561361e576008600086838151811061353857613538614b5a565b6020908102919091018101516001600160a01b031682528101919091526040016000206003015460ff16156135af5760405162461bcd60e51b815260206004820152601a60248201527f556e6f52653a20726f6c6c6f766572206973206e6f74207365740000000000006044820152606401610c2f565b6000806135d48784815181106135c7576135c7614b5a565b60200260200101516140b0565b90925090506135e38286614a27565b94506135ef8185614a27565b93506136148288858151811061360757613607614b5a565b6020026020010151613e25565b5050600101613519565b506002546001600160a01b03161580159061363857508115155b80156136445750600081115b156136cb57600254600354604051631963b13960e21b81526001600160a01b039182166004820152602481018590526044810184905291169063658ec4e4906064016020604051808303816000875af11580156136a5573d6000803e3d6000fd5b505050506040513d601f19601f820116820180604052508101906136c99190614a89565b505b6003546040516001600160a01b03909116906136e8908690614b70565b604051908190038120848252907f2b1ab5aad08854cca1e3b3cd94bbb4acc5cf06bd794383289c30ae264d03121d9060200160405180910390a35050610c40613ae4565b61373461396d565b600154600160a01b900460ff161561375e5760405162461bcd60e51b8152600401610c2f90614931565b600080516020614c1f83398151915261377681613909565b3360009081527f91a0c6d16784d279cd653f0105de5bc1074659b9682f36410ea0c34f270c6e746020526040902054600080516020614c1f833981519152904210156137d45760405162461bcd60e51b8152600401610c2f906148fc565b60035460405163172500a160e11b81526001600160a01b038681166004830152602482018690526000921690632e4a0142906044016020604051808303816000875af1158015613828573d6000803e3d6000fd5b505050506040513d601f19601f8201168201806040525081019061384c9190614a89565b6001805460405163fb6cb84760e01b815260048101849052602481018a905260448101929092529192506001600160a01b039091169063fb6cb84790606401600060405180830381600087803b1580156138a557600080fd5b505af11580156138b9573d6000803e3d6000fd5b50505050846001600160a01b0316867fa57c8f00bb515630e1e4af145f087299b8d5ac5d871605bb0a9c0479b7b2d65b866040516138f991815260200190565b60405180910390a3505050505050565b610ed681336141ce565b61391b614207565b600080516020614c3f833981519152805460ff191681557f5db9ee0a495bf2e6ff9c91a7834c1ba4fdd244a5e8aa4e537bd38aeae4b073aa335b6040516001600160a01b039091168152602001612faf565b600080516020614c3f8339815191525460ff1615611e065760405163d93c066560e01b815260040160405180910390fd5b7f9b779b17422d0df92223018b32b4d1fa46e071723d6817e2486d003becc55f008054600119016139e257604051633ee5aeb560e01b815260040160405180910390fd5b60029055565b6139f0612e9a565b6000806139fc836140b0565b60025491935091506001600160a01b031615801590613a1a57508115155b15613a9f57600254604051631963b13960e21b81526001600160a01b03858116600483015260248201859052604482018490529091169063658ec4e4906064016020604051808303816000875af1158015613a79573d6000803e3d6000fd5b505050506040513d601f19601f82011682018060405250810190613a9d9190614a89565b505b6040518281526001600160a01b0384169033907fa0306f61d3fafe13787b78e276cb6b644382854a66cb46daae14227d3ec267979060200160405180910390a3505050565b60017f9b779b17422d0df92223018b32b4d1fa46e071723d6817e2486d003becc55f0055565b6000600080516020614bff833981519152613b258484611e08565b613ba5576000848152602082815260408083206001600160a01b03871684529091529020805460ff19166001179055613b5b3390565b6001600160a01b0316836001600160a01b0316857f2f8788117e7eff1d82e926ec794901d17c78024a50270940304540a733656f0d60405160405180910390a46001915050610bc5565b6000915050610bc5565b600154600090600160a01b900460ff1615613bdc5760405162461bcd60e51b8152600401610c2f90614931565b613be461396d565b613bed8361129a565b6000818152600660209081526040808320338452909152902054421015613c265760405162461bcd60e51b8152600401610c2f906148fc565b613c308484614237565b949350505050565b613c406142b3565b611e066142fc565b613c506142b3565b611e06614304565b611e066142b3565b600080516020614bff8339815191526000613c7a8461129a565b600085815260208490526040808220600101869055519192508491839187917fbd79b86ffe0ab8e8776151514217cd7cacd52c909f66475c3af44e129f0b00ff9190a450505050565b613ccb61396d565b600080516020614c3f833981519152805460ff191660011781557f62e78cea01bee320cd4e420270b5ea74000d11b0c9f74754ebdbfc544b05a25833613955565b6003546040805163e5a6b10f60e01b815290516000926001600160a01b03169163e5a6b10f9160048083019260209291908290030181865afa158015613d56573d6000803e3d6000fd5b505050506040513d601f19601f82011682018060405250810190613d7a9190614aa2565b90506001600160a01b038116613e0b5781341015613dda5760405162461bcd60e51b815260206004820152601860248201527f556e6f52653a20696e73756666696369656e74207061696400000000000000006044820152606401610c2f565b81341115613df557613df533613df084346149db565b614325565b600354610c40906001600160a01b031683614325565b600354610c4090829033906001600160a01b0316856143ff565b81600003613e695760405162461bcd60e51b8152602060048201526011602482015270556e6f52653a205a45524f2056616c756560781b6044820152606401610c2f565b613e71612e9a565b60035460408051627a9fd960e91b815290516000926001600160a01b03169163f53fb2009160048083019260209291908290030181865afa158015613eba573d6000803e3d6000fd5b505050506040513d601f19601f82011682018060405250810190613ede9190614a89565b600354604051637e348b7d60e01b81526001600160a01b03858116600483015260248201879052929350911690637e348b7d90604401600060405180830381600087803b158015613f2e57600080fd5b505af1158015613f42573d6000803e3d6000fd5b505050506001600160a01b03821660009081526008602090815260409182902082516080810184528154815260018201549281019290925260028101549282019290925260039091015460ff1615156060820152600a54670de0b6b3a7640000908390613faf87846149ee565b613fb991906149ee565b613fc39190614a05565b613fcd9190614a05565b8160200151613fdc9190614a27565b602082015281613ff485670de0b6b3a76400006149ee565b613ffe9190614a05565b816040015161400d9190614a27565b60408281019182526001600160a01b038581166000908152600860209081529083902085518155908501516001808301919091559351600282015560608501516003909101805460ff191691151591909117905591549051638be5a39f60e01b815260048101879052911690638be5a39f90602401600060405180830381600087803b15801561409c57600080fd5b505af11580156127ef573d6000803e3d6000fd5b600354604051631665744b60e11b81526001600160a01b0383811660048301526000928392839290911690632ccae89690602401606060405180830381865afa158015614101573d6000803e3d6000fd5b505050506040513d601f19601f820116820180604052508101906141259190614997565b50915050801561413b5750600093849350915050565b6001600160a01b038416600090815260086020526040812060020154600a54909190670de0b6b3a76400009061417190846149ee565b61417b9190614a05565b6001600160a01b038716600090815260086020526040812060010154919250906141a590836149db565b6001600160a01b0390971660009081526008602052604090206001019190915550939492505050565b6141d88282611e08565b610c405760405163e2517d3f60e01b81526001600160a01b038216600482015260248101839052604401610c2f565b600080516020614c3f8339815191525460ff16611e0657604051638dfc202b60e01b815260040160405180910390fd5b6000600080516020614bff8339815191526142528484611e08565b15613ba5576000848152602082815260408083206001600160a01b0387168085529252808320805460ff1916905551339287917ff6391f5c32d9c69d2a47ea670b442974b53935d1edc7fd64eb21e047a839171b9190a46001915050610bc5565b7ff0c57e16840df040f15088dc2f81fe391c3923bec73e23a9662efc9c229c6a0054600160401b900460ff16611e0657604051631afcd79f60e31b815260040160405180910390fd5b613ae46142b3565b61430c6142b3565b600080516020614c3f833981519152805460ff19169055565b604080516000808252602082019092526001600160a01b03841690839060405161434f9190614baf565b60006040518083038185875af1925050503d806000811461438c576040519150601f19603f3d011682016040523d82523d6000602084013e614391565b606091505b50509050806111ce5760405162461bcd60e51b815260206004820152603460248201527f5472616e7366657248656c7065723a3a736166655472616e736665724554483a60448201527308115512081d1c985b9cd9995c8819985a5b195960621b6064820152608401610c2f565b604080516001600160a01b0385811660248301528481166044830152606480830185905283518084039091018152608490920183526020820180516001600160e01b03166323b872dd60e01b17905291516000928392908816916144639190614baf565b6000604051808303816000865af19150503d80600081146144a0576040519150601f19603f3d011682016040523d82523d6000602084013e6144a5565b606091505b50915091508180156144cf5750805115806144cf5750808060200190518101906144cf9190614a67565b6145355760405162461bcd60e51b815260206004820152603160248201527f5472616e7366657248656c7065723a3a7472616e7366657246726f6d3a207472604482015270185b9cd9995c919c9bdb4819985a5b1959607a1b6064820152608401610c2f565b505050505050565b60006020828403121561454f57600080fd5b81356001600160e01b03198116811461456757600080fd5b9392505050565b60006020828403121561458057600080fd5b5035919050565b6000806040838503121561459a57600080fd5b50508035926020909101359150565b6001600160a01b0381168114610ed657600080fd5b80356145c9816145a9565b919050565b6000602082840312156145e057600080fd5b8135614567816145a9565b60008060006060848603121561460057600080fd5b833561460b816145a9565b9250602084013561461b816145a9565b929592945050506040919091013590565b6000806040838503121561463f57600080fd5b823591506020830135614651816145a9565b809150509250929050565b6000806040838503121561466f57600080fd5b823561467a816145a9565b91506020830135614651816145a9565b60008060006060848603121561469f57600080fd5b83356146aa816145a9565b925060208401356146ba816145a9565b915060408401356146ca816145a9565b809150509250925092565b60008083601f8401126146e757600080fd5b50813567ffffffffffffffff8111156146ff57600080fd5b60208301915083602082850101111561471757600080fd5b9250929050565b60008060008060008060008060c0898b03121561473a57600080fd5b883567ffffffffffffffff8082111561475257600080fd5b61475e8c838d016146d5565b909a50985060208b013591508082111561477757600080fd5b506147848b828c016146d5565b9097509550506040890135614798816145a9565b935060608901356147a8816145a9565b979a969950949793969295929450505060808201359160a0013590565b6000806000606084860312156147da57600080fd5b83356147e5816145a9565b95602085013595506040909401359392505050565b634e487b7160e01b600052604160045260246000fd5b6000602080838503121561482357600080fd5b823567ffffffffffffffff8082111561483b57600080fd5b818501915085601f83011261484f57600080fd5b813581811115614861576148616147fa565b8060051b604051601f19603f83011681018181108582111715614886576148866147fa565b6040529182528482019250838101850191888311156148a457600080fd5b938501935b828510156148c9576148ba856145be565b845293850193928501926148a9565b98975050505050505050565b6000806000606084860312156148ea57600080fd5b83359250602084013561461b816145a9565b6020808252818101527f556e6f52653a20726f6c6c206c6f636b2074696d65206e6f7420706173736564604082015260600190565b602080825260159082015274155b9bd4994e881c1bdbdb081a5cc81ada5b1b1959605a1b604082015260600190565b60208082526019908201527f556e6f52653a206e6f7420617661696c61626c652074696d6500000000000000604082015260600190565b6000806000606084860312156149ac57600080fd5b8351925060208401519150604084015190509250925092565b634e487b7160e01b600052601160045260246000fd5b81810381811115610bc557610bc56149c5565b8082028115828204841417610bc557610bc56149c5565b600082614a2257634e487b7160e01b600052601260045260246000fd5b500490565b80820180821115610bc557610bc56149c5565b602080825260139082015272556e6f52653a207a65726f206164647265737360681b604082015260600190565b600060208284031215614a7957600080fd5b8151801515811461456757600080fd5b600060208284031215614a9b57600080fd5b5051919050565b600060208284031215614ab457600080fd5b8151614567816145a9565b81835281816020850137506000828201602090810191909152601f909101601f19169091010190565b608081526000614afc60808301888a614abf565b8281036020840152614b0f818789614abf565b6001600160a01b039586166040850152939094166060909201919091525095945050505050565b60008060408385031215614b4957600080fd5b505080516020909101519092909150565b634e487b7160e01b600052603260045260246000fd5b815160009082906020808601845b83811015614ba35781516001600160a01b031685529382019390820190600101614b7e565b50929695505050505050565b6000825160005b81811015614bd05760208186018101518583015201614bb6565b50600092019182525091905056fe0c3bb05773fb95f6688e1e7d9c896674dccd66884026cf30a3d5e3a9bfecd81102dd7bc7dec4dceedda775e58dd541e08a116c6c53815c0bd028192f7b6268003b745c09aefb8f732a168ec71c3c87b50c0a4cfd1d104649ae3c04a4623b26bfcd5ed15c6e187e77e9aee88184c21f4f2182ab5827cb3b7e07fbedcd63f03300a49807205ce4d355092ef5a8a18f56e8913cf4a201fbe287825b095693c21775a26469706673582212200cb9b16446f376886f7198e5902289086d25daabb6d335947c6d284a462e19f964736f6c63430008170033",
  "devdoc": {
    "errors": {
      "AccessControlBadConfirmation()": [
        {
          "details": "The caller of a function is not the expected one. NOTE: Don't confuse with {AccessControlUnauthorizedAccount}."
        }
      ],
      "AccessControlUnauthorizedAccount(address,bytes32)": [
        {
          "details": "The `account` is missing a role."
        }
      ],
      "EnforcedPause()": [
        {
          "details": "The operation failed because the contract is paused."
        }
      ],
      "ExpectedPause()": [
        {
          "details": "The operation failed because the contract is not paused."
        }
      ],
      "InvalidInitialization()": [
        {
          "details": "The contract is already initialized."
        }
      ],
      "NotInitializing()": [
        {
          "details": "The contract is not initializing."
        }
      ],
      "ReentrancyGuardReentrantCall()": [
        {
          "details": "Unauthorized reentrant call."
        }
      ]
    },
    "events": {
      "Initialized(uint64)": {
        "details": "Triggered when the contract has been initialized or reinitialized."
      },
      "Paused(address)": {
        "details": "Emitted when the pause is triggered by `account`."
      },
      "RoleAdminChanged(bytes32,bytes32,bytes32)": {
        "details": "Emitted when `newAdminRole` is set as ``role``'s admin role, replacing `previousAdminRole` `DEFAULT_ADMIN_ROLE` is the starting admin for all roles, despite {RoleAdminChanged} not being emitted signaling this."
      },
      "RoleGranted(bytes32,address,address)": {
        "details": "Emitted when `account` is granted `role`. `sender` is the account that originated the contract call, an admin role bearer except when using {AccessControl-_setupRole}."
      },
      "RoleRevoked(bytes32,address,address)": {
        "details": "Emitted when `account` is revoked `role`. `sender` is the account that originated the contract call:   - if using `revokeRole`, it is the admin role bearer   - if using `renounceRole`, it is the role bearer (i.e. `account`)"
      },
      "Unpaused(address)": {
        "details": "Emitted when the pause is lifted by `account`."
      }
    },
    "kind": "dev",
    "methods": {
      "cancelWithdrawRequest()": {
        "details": "user can cancel its pending withdraw request"
      },
      "createRewarder(address,address,address)": {
        "details": "create rewarder with UNO token"
      },
      "createRiskPool(string,string,address,address,uint256,uint256)": {
        "details": "create Risk pool with UNO from SSIP owner"
      },
      "enterInPool(uint256)": {
        "details": "stake user collateral, update user reward per block",
        "params": {
          "_amount": "amount to deposit to pool"
        }
      },
      "getRoleAdmin(bytes32)": {
        "details": "Returns the admin role that controls `role`. See {grantRole} and {revokeRole}. To change a role's admin, use {_setRoleAdmin}."
      },
      "getStakedAmountPerUser(address)": {
        "details": "return user staked currency corresponding to current lp price of uno"
      },
      "getTotalWithdrawPendingAmount()": {
        "details": "get total withdraw request amount in pending for the risk pool in UNO"
      },
      "getWithdrawRequestPerUser(address)": {
        "details": "get withdraw request amount in pending per user in UNO"
      },
      "grantRole(bytes32,address)": {
        "details": "Grants `role` to `account`. If `account` had not been already granted `role`, emits a {RoleGranted} event. Requirements: - the caller must have ``role``'s admin role. May emit a {RoleGranted} event."
      },
      "harvest(address)": {
        "details": "withdraw user pending uno",
        "params": {
          "_to": "user address"
        }
      },
      "hasRole(bytes32,address)": {
        "details": "Returns `true` if `account` has been granted `role`."
      },
      "killPool()": {
        "details": "kill pool to restrict pool functionality, can only by called by admin role"
      },
      "leaveFromPending(uint256)": {
        "details": "user can submit claim again and receive his funds into his wallet after 10 days since last WR."
      },
      "leaveFromPoolInPending(uint256)": {
        "details": "WR will be in pending for 10 days at least"
      },
      "migrate()": {
        "details": "migrate user to new version"
      },
      "pausePool()": {
        "details": "pause pool to restrict pool functionality, can only by called by admin role"
      },
      "paused()": {
        "details": "Returns true if the contract is paused, and false otherwise."
      },
      "pendingUno(address)": {
        "details": "return pending uno to claim of `_to` address"
      },
      "renounceRole(bytes32,address)": {
        "details": "Revokes `role` from the calling account. Roles are often managed via {grantRole} and {revokeRole}: this function's purpose is to provide a mechanism for accounts to lose their privileges if they are compromised (such as when a trusted device is misplaced). If the calling account had been revoked `role`, emits a {RoleRevoked} event. Requirements: - the caller must be `callerConfirmation`. May emit a {RoleRevoked} event."
      },
      "revivePool()": {
        "details": "revive pool, can only by called by admin role"
      },
      "revokeRole(bytes32,address)": {
        "details": "Revokes `role` from `account`. If `account` had been granted `role`, emits a {RoleRevoked} event. Requirements: - the caller must have ``role``'s admin role. May emit a {RoleRevoked} event."
      },
      "rollOverReward(address[])": {
        "details": "user roll over its pending uno to stake"
      },
      "setCapitalAgent(address)": {
        "details": "set new capital agent, can only by called by admin role",
        "params": {
          "_capitalAgent": "new capital agent address"
        }
      },
      "setLockTime(uint256)": {
        "details": "lock time, only admin role call this function"
      },
      "setMigrateTo(address)": {
        "details": "set migrate address, can only by called by admin role",
        "params": {
          "_migrateTo": "new migrate address"
        }
      },
      "setMinLPCapital(uint256)": {
        "details": "update min lp capital, only admin role call this function"
      },
      "setRewardMultiplier(uint256)": {
        "details": "update reward muiltiplier, can only by called by admin role",
        "params": {
          "_rewardMultiplier": "value to set"
        }
      },
      "setStakingStartTime(uint256)": {
        "details": "set staking start time, only admin role call this function"
      },
      "settlePayout(uint256,address,uint256)": {
        "details": "claim policy to payout, can only be called by claim processor role"
      },
      "supportsInterface(bytes4)": {
        "details": "See {IERC165-supportsInterface}."
      },
      "toggleEmergencyWithdraw()": {
        "details": "toggle emergency withdraw bool to restrict or use this emergency withdraw, only admin role call this function"
      },
      "toggleRollOver()": {
        "details": "user can toggle its roll over bool"
      },
      "unpausePool()": {
        "details": "unpause pool, can only by called by admin role"
      },
      "updatePool()": {
        "details": "update pool last reward and accumulated uno per share, update every time when use enter, withdraw from pool"
      }
    },
    "version": 1
  },
  "userdoc": {
    "kind": "user",
    "methods": {},
    "version": 1
  },
  "storageLayout": {
    "storage": [
      {
        "astId": 17572,
        "contract": "contracts/SingleSidedInsurancePool.sol:SingleSidedInsurancePool",
        "label": "migrateTo",
        "offset": 0,
        "slot": "0",
        "type": "t_address"
      },
      {
        "astId": 17574,
        "contract": "contracts/SingleSidedInsurancePool.sol:SingleSidedInsurancePool",
        "label": "capitalAgent",
        "offset": 0,
        "slot": "1",
        "type": "t_address"
      },
      {
        "astId": 17576,
        "contract": "contracts/SingleSidedInsurancePool.sol:SingleSidedInsurancePool",
        "label": "killed",
        "offset": 20,
        "slot": "1",
        "type": "t_bool"
      },
      {
        "astId": 17578,
        "contract": "contracts/SingleSidedInsurancePool.sol:SingleSidedInsurancePool",
        "label": "emergencyWithdrawAllowed",
        "offset": 21,
        "slot": "1",
        "type": "t_bool"
      },
      {
        "astId": 17580,
        "contract": "contracts/SingleSidedInsurancePool.sol:SingleSidedInsurancePool",
        "label": "rewarder",
        "offset": 0,
        "slot": "2",
        "type": "t_address"
      },
      {
        "astId": 17583,
        "contract": "contracts/SingleSidedInsurancePool.sol:SingleSidedInsurancePool",
        "label": "riskPool",
        "offset": 0,
        "slot": "3",
        "type": "t_address"
      },
      {
        "astId": 17585,
        "contract": "contracts/SingleSidedInsurancePool.sol:SingleSidedInsurancePool",
        "label": "lockTime",
        "offset": 0,
        "slot": "4",
        "type": "t_uint256"
      },
      {
        "astId": 17587,
        "contract": "contracts/SingleSidedInsurancePool.sol:SingleSidedInsurancePool",
        "label": "stakingStartTime",
        "offset": 0,
        "slot": "5",
        "type": "t_uint256"
      },
      {
        "astId": 17616,
        "contract": "contracts/SingleSidedInsurancePool.sol:SingleSidedInsurancePool",
        "label": "roleLockTime",
        "offset": 0,
        "slot": "6",
        "type": "t_mapping(t_bytes32,t_mapping(t_address,t_uint256))"
      },
      {
        "astId": 17621,
        "contract": "contracts/SingleSidedInsurancePool.sol:SingleSidedInsurancePool",
        "label": "policies",
        "offset": 0,
        "slot": "7",
        "type": "t_mapping(t_uint256,t_struct(Policy)17610_storage)"
      },
      {
        "astId": 17626,
        "contract": "contracts/SingleSidedInsurancePool.sol:SingleSidedInsurancePool",
        "label": "userInfo",
        "offset": 0,
        "slot": "8",
        "type": "t_mapping(t_address,t_struct(UserInfo)17603_storage)"
      },
      {
        "astId": 17629,
        "contract": "contracts/SingleSidedInsurancePool.sol:SingleSidedInsurancePool",
        "label": "poolInfo",
        "offset": 0,
        "slot": "9",
        "type": "t_struct(PoolInfo)17594_storage"
      }
    ],
    "types": {
      "t_address": {
        "encoding": "inplace",
        "label": "address",
        "numberOfBytes": "20"
      },
      "t_bool": {
        "encoding": "inplace",
        "label": "bool",
        "numberOfBytes": "1"
      },
      "t_bytes32": {
        "encoding": "inplace",
        "label": "bytes32",
        "numberOfBytes": "32"
      },
      "t_mapping(t_address,t_struct(UserInfo)17603_storage)": {
        "encoding": "mapping",
        "key": "t_address",
        "label": "mapping(address => struct SingleSidedInsurancePool.UserInfo)",
        "numberOfBytes": "32",
        "value": "t_struct(UserInfo)17603_storage"
      },
      "t_mapping(t_address,t_uint256)": {
        "encoding": "mapping",
        "key": "t_address",
        "label": "mapping(address => uint256)",
        "numberOfBytes": "32",
        "value": "t_uint256"
      },
      "t_mapping(t_bytes32,t_mapping(t_address,t_uint256))": {
        "encoding": "mapping",
        "key": "t_bytes32",
        "label": "mapping(bytes32 => mapping(address => uint256))",
        "numberOfBytes": "32",
        "value": "t_mapping(t_address,t_uint256)"
      },
      "t_mapping(t_uint256,t_struct(Policy)17610_storage)": {
        "encoding": "mapping",
        "key": "t_uint256",
        "label": "mapping(uint256 => struct SingleSidedInsurancePool.Policy)",
        "numberOfBytes": "32",
        "value": "t_struct(Policy)17610_storage"
      },
      "t_struct(Policy)17610_storage": {
        "encoding": "inplace",
        "label": "struct SingleSidedInsurancePool.Policy",
        "members": [
          {
            "astId": 17605,
            "contract": "contracts/SingleSidedInsurancePool.sol:SingleSidedInsurancePool",
            "label": "insuranceAmount",
            "offset": 0,
            "slot": "0",
            "type": "t_uint256"
          },
          {
            "astId": 17607,
            "contract": "contracts/SingleSidedInsurancePool.sol:SingleSidedInsurancePool",
            "label": "payoutAddress",
            "offset": 0,
            "slot": "1",
            "type": "t_address"
          },
          {
            "astId": 17609,
            "contract": "contracts/SingleSidedInsurancePool.sol:SingleSidedInsurancePool",
            "label": "settled",
            "offset": 20,
            "slot": "1",
            "type": "t_bool"
          }
        ],
        "numberOfBytes": "64"
      },
      "t_struct(PoolInfo)17594_storage": {
        "encoding": "inplace",
        "label": "struct SingleSidedInsurancePool.PoolInfo",
        "members": [
          {
            "astId": 17589,
            "contract": "contracts/SingleSidedInsurancePool.sol:SingleSidedInsurancePool",
            "label": "lastRewardBlock",
            "offset": 0,
            "slot": "0",
            "type": "t_uint256"
          },
          {
            "astId": 17591,
            "contract": "contracts/SingleSidedInsurancePool.sol:SingleSidedInsurancePool",
            "label": "accUnoPerShare",
            "offset": 0,
            "slot": "1",
            "type": "t_uint256"
          },
          {
            "astId": 17593,
            "contract": "contracts/SingleSidedInsurancePool.sol:SingleSidedInsurancePool",
            "label": "unoMultiplierPerBlock",
            "offset": 0,
            "slot": "2",
            "type": "t_uint256"
          }
        ],
        "numberOfBytes": "96"
      },
      "t_struct(UserInfo)17603_storage": {
        "encoding": "inplace",
        "label": "struct SingleSidedInsurancePool.UserInfo",
        "members": [
          {
            "astId": 17596,
            "contract": "contracts/SingleSidedInsurancePool.sol:SingleSidedInsurancePool",
            "label": "lastWithdrawTime",
            "offset": 0,
            "slot": "0",
            "type": "t_uint256"
          },
          {
            "astId": 17598,
            "contract": "contracts/SingleSidedInsurancePool.sol:SingleSidedInsurancePool",
            "label": "rewardDebt",
            "offset": 0,
            "slot": "1",
            "type": "t_uint256"
          },
          {
            "astId": 17600,
            "contract": "contracts/SingleSidedInsurancePool.sol:SingleSidedInsurancePool",
            "label": "amount",
            "offset": 0,
            "slot": "2",
            "type": "t_uint256"
          },
          {
            "astId": 17602,
            "contract": "contracts/SingleSidedInsurancePool.sol:SingleSidedInsurancePool",
            "label": "isNotRollOver",
            "offset": 0,
            "slot": "3",
            "type": "t_bool"
          }
        ],
        "numberOfBytes": "128"
      },
      "t_uint256": {
        "encoding": "inplace",
        "label": "uint256",
        "numberOfBytes": "32"
      }
    }
  }
}