{
  "address": "0x4548339b51163918b15b225aBC2021383269f011",
  "abi": [
    {
      "inputs": [
        {
          "internalType": "address",
          "name": "_usdcToken",
          "type": "address"
        },
        {
          "internalType": "address",
          "name": "_WETH",
          "type": "address"
        },
        {
          "internalType": "address",
          "name": "_oraclePriceFeed",
          "type": "address"
        },
        {
          "internalType": "address",
          "name": "_uniswapRouter",
          "type": "address"
        },
        {
          "internalType": "address",
          "name": "_uniswapFactory",
          "type": "address"
        },
        {
          "internalType": "address",
          "name": "_multiSigWallet",
          "type": "address"
        }
      ],
      "stateMutability": "nonpayable",
      "type": "constructor"
    },
    {
      "anonymous": false,
      "inputs": [
        {
          "indexed": true,
          "internalType": "address",
          "name": "_dexAddress",
          "type": "address"
        },
        {
          "indexed": true,
          "internalType": "address",
          "name": "_convertToken",
          "type": "address"
        },
        {
          "indexed": false,
          "internalType": "uint256",
          "name": "_convertAmount",
          "type": "uint256"
        },
        {
          "indexed": false,
          "internalType": "uint256",
          "name": "_desiredAmount",
          "type": "uint256"
        },
        {
          "indexed": false,
          "internalType": "uint256",
          "name": "_convertedAmount",
          "type": "uint256"
        }
      ],
      "name": "ConvertedTokenToETH",
      "type": "event"
    },
    {
      "anonymous": false,
      "inputs": [
        {
          "indexed": true,
          "internalType": "address",
          "name": "_dexAddress",
          "type": "address"
        },
        {
          "indexed": true,
          "internalType": "address",
          "name": "_convertToken",
          "type": "address"
        },
        {
          "indexed": true,
          "internalType": "address",
          "name": "_convertedToken",
          "type": "address"
        },
        {
          "indexed": false,
          "internalType": "uint256",
          "name": "_convertAmount",
          "type": "uint256"
        },
        {
          "indexed": false,
          "internalType": "uint256",
          "name": "_desiredAmount",
          "type": "uint256"
        },
        {
          "indexed": false,
          "internalType": "uint256",
          "name": "_convertedAmount",
          "type": "uint256"
        }
      ],
      "name": "ConvertedTokenToToken",
      "type": "event"
    },
    {
      "anonymous": false,
      "inputs": [
        {
          "indexed": true,
          "internalType": "address",
          "name": "_exchangeAgent",
          "type": "address"
        },
        {
          "indexed": true,
          "internalType": "address",
          "name": "_whiteListAddress",
          "type": "address"
        }
      ],
      "name": "LogAddWhiteList",
      "type": "event"
    },
    {
      "anonymous": false,
      "inputs": [
        {
          "indexed": true,
          "internalType": "address",
          "name": "_exchangeAgent",
          "type": "address"
        },
        {
          "indexed": true,
          "internalType": "address",
          "name": "_whiteListAddress",
          "type": "address"
        }
      ],
      "name": "LogRemoveWhiteList",
      "type": "event"
    },
    {
      "anonymous": false,
      "inputs": [
        {
          "indexed": true,
          "internalType": "address",
          "name": "_exchangeAgent",
          "type": "address"
        },
        {
          "indexed": true,
          "internalType": "address",
          "name": "_oraclePriceFeed",
          "type": "address"
        }
      ],
      "name": "LogSetOraclePriceFeed",
      "type": "event"
    },
    {
      "anonymous": false,
      "inputs": [
        {
          "indexed": true,
          "internalType": "address",
          "name": "_exchangeAgent",
          "type": "address"
        },
        {
          "indexed": false,
          "internalType": "uint256",
          "name": "_slippage",
          "type": "uint256"
        }
      ],
      "name": "LogSetSlippage",
      "type": "event"
    },
    {
      "anonymous": false,
      "inputs": [
        {
          "indexed": true,
          "internalType": "address",
          "name": "previousOwner",
          "type": "address"
        },
        {
          "indexed": true,
          "internalType": "address",
          "name": "newOwner",
          "type": "address"
        }
      ],
      "name": "OwnershipTransferred",
      "type": "event"
    },
    {
      "inputs": [],
      "name": "UNISWAP_FACTORY",
      "outputs": [
        {
          "internalType": "address",
          "name": "",
          "type": "address"
        }
      ],
      "stateMutability": "view",
      "type": "function"
    },
    {
      "inputs": [],
      "name": "UNISWAP_ROUTER",
      "outputs": [
        {
          "internalType": "address",
          "name": "",
          "type": "address"
        }
      ],
      "stateMutability": "view",
      "type": "function"
    },
    {
      "inputs": [],
      "name": "USDC_TOKEN",
      "outputs": [
        {
          "internalType": "address",
          "name": "",
          "type": "address"
        }
      ],
      "stateMutability": "view",
      "type": "function"
    },
    {
      "inputs": [],
      "name": "WETH",
      "outputs": [
        {
          "internalType": "address",
          "name": "",
          "type": "address"
        }
      ],
      "stateMutability": "view",
      "type": "function"
    },
    {
      "inputs": [
        {
          "internalType": "address",
          "name": "_whiteListAddress",
          "type": "address"
        }
      ],
      "name": "addWhiteList",
      "outputs": [],
      "stateMutability": "nonpayable",
      "type": "function"
    },
    {
      "inputs": [
        {
          "internalType": "address",
          "name": "_token",
          "type": "address"
        },
        {
          "internalType": "uint256",
          "name": "_convertAmount",
          "type": "uint256"
        }
      ],
      "name": "convertForETH",
      "outputs": [
        {
          "internalType": "uint256",
          "name": "",
          "type": "uint256"
        }
      ],
      "stateMutability": "nonpayable",
      "type": "function"
    },
    {
      "inputs": [
        {
          "internalType": "address",
          "name": "_token0",
          "type": "address"
        },
        {
          "internalType": "address",
          "name": "_token1",
          "type": "address"
        },
        {
          "internalType": "uint256",
          "name": "_token0Amount",
          "type": "uint256"
        }
      ],
      "name": "convertForToken",
      "outputs": [
        {
          "internalType": "uint256",
          "name": "",
          "type": "uint256"
        }
      ],
      "stateMutability": "nonpayable",
      "type": "function"
    },
    {
      "inputs": [
        {
          "internalType": "address",
          "name": "_token",
          "type": "address"
        },
        {
          "internalType": "uint256",
          "name": "_tokenAmount",
          "type": "uint256"
        }
      ],
      "name": "getETHAmountForToken",
      "outputs": [
        {
          "internalType": "uint256",
          "name": "",
          "type": "uint256"
        }
      ],
      "stateMutability": "view",
      "type": "function"
    },
    {
      "inputs": [
        {
          "internalType": "uint256",
          "name": "_usdtAmount",
          "type": "uint256"
        }
      ],
      "name": "getETHAmountForUSDC",
      "outputs": [
        {
          "internalType": "uint256",
          "name": "",
          "type": "uint256"
        }
      ],
      "stateMutability": "view",
      "type": "function"
    },
    {
      "inputs": [
        {
          "internalType": "address",
          "name": "_token0",
          "type": "address"
        },
        {
          "internalType": "address",
          "name": "_token1",
          "type": "address"
        },
        {
          "internalType": "uint256",
          "name": "_token0Amount",
          "type": "uint256"
        }
      ],
      "name": "getNeededTokenAmount",
      "outputs": [
        {
          "internalType": "uint256",
          "name": "",
          "type": "uint256"
        }
      ],
      "stateMutability": "view",
      "type": "function"
    },
    {
      "inputs": [
        {
          "internalType": "address",
          "name": "_token",
          "type": "address"
        },
        {
          "internalType": "uint256",
          "name": "_ethAmount",
          "type": "uint256"
        }
      ],
      "name": "getTokenAmountForETH",
      "outputs": [
        {
          "internalType": "uint256",
          "name": "",
          "type": "uint256"
        }
      ],
      "stateMutability": "view",
      "type": "function"
    },
    {
      "inputs": [
        {
          "internalType": "address",
          "name": "_token",
          "type": "address"
        },
        {
          "internalType": "uint256",
          "name": "_usdtAmount",
          "type": "uint256"
        }
      ],
      "name": "getTokenAmountForUSDC",
      "outputs": [
        {
          "internalType": "uint256",
          "name": "",
          "type": "uint256"
        }
      ],
      "stateMutability": "view",
      "type": "function"
    },
    {
      "inputs": [],
      "name": "oraclePriceFeed",
      "outputs": [
        {
          "internalType": "address",
          "name": "",
          "type": "address"
        }
      ],
      "stateMutability": "view",
      "type": "function"
    },
    {
      "inputs": [],
      "name": "owner",
      "outputs": [
        {
          "internalType": "address",
          "name": "",
          "type": "address"
        }
      ],
      "stateMutability": "view",
      "type": "function"
    },
    {
      "inputs": [
        {
          "internalType": "address",
          "name": "_whiteListAddress",
          "type": "address"
        }
      ],
      "name": "removeWhiteList",
      "outputs": [],
      "stateMutability": "nonpayable",
      "type": "function"
    },
    {
      "inputs": [],
      "name": "renounceOwnership",
      "outputs": [],
      "stateMutability": "nonpayable",
      "type": "function"
    },
    {
      "inputs": [
        {
          "internalType": "address",
          "name": "_oraclePriceFeed",
          "type": "address"
        }
      ],
      "name": "setOraclePriceFeed",
      "outputs": [],
      "stateMutability": "nonpayable",
      "type": "function"
    },
    {
      "inputs": [
        {
          "internalType": "uint256",
          "name": "_slippage",
          "type": "uint256"
        }
      ],
      "name": "setSlippage",
      "outputs": [],
      "stateMutability": "nonpayable",
      "type": "function"
    },
    {
      "inputs": [],
      "name": "slippage",
      "outputs": [
        {
          "internalType": "uint256",
          "name": "",
          "type": "uint256"
        }
      ],
      "stateMutability": "view",
      "type": "function"
    },
    {
      "inputs": [
        {
          "internalType": "address",
          "name": "newOwner",
          "type": "address"
        }
      ],
      "name": "transferOwnership",
      "outputs": [],
      "stateMutability": "nonpayable",
      "type": "function"
    },
    {
      "inputs": [
        {
          "internalType": "address",
          "name": "",
          "type": "address"
        }
      ],
      "name": "whiteList",
      "outputs": [
        {
          "internalType": "bool",
          "name": "",
          "type": "bool"
        }
      ],
      "stateMutability": "view",
      "type": "function"
    },
    {
      "stateMutability": "payable",
      "type": "receive"
    }
  ],
  "transactionHash": "0x4584b54bec9c78d07d3a07e17e1454bffa36416b42133be2660c21ce82a15956",
  "args": [
    "0xCe86b34aE48947794F038a2c1C2BA577bC4B03a4",
    "0xED1432BfE5235019c6724c23628467D92F26cabb",
    "0xD3E572A50c8e201A274BA0007d4fC43c4fAbbc37",
    "0x161EAD7347193e7eA44ea997efD92777E35C9320",
    "0x1e7fa99d0DD1D2896564B44A26EbA952DB167159",
    "0x6C641CE6A7216F12d28692f9d8b2BDcdE812eD2b"
  ],
  "solcInputHash": "55abe8d480488cedbd434b37ba320443",
  "bytecode": "0x6101006040523480156200001257600080fd5b50604051620028dd380380620028dd8339810160408190526200003591620002ac565b60016000556200004e62000048620001ad565b620001b1565b6001600160a01b038616620000805760405162461bcd60e51b815260040162000077906200042c565b60405180910390fd5b6001600160a01b038316620000a95760405162461bcd60e51b81526004016200007790620003a9565b6001600160a01b038216620000d25760405162461bcd60e51b8152600401620000779062000498565b6001600160a01b038516620000fb5760405162461bcd60e51b815260040162000077906200032c565b6001600160a01b038116620001245760405162461bcd60e51b81526004016200007790620003ea565b6001600160601b0319606087811b821660805283811b821660a05284811b821660c05286901b1660e052600280546001600160a01b0386166001600160a01b0319909116179055336000908152600460205260409020805460ff191660011790556200019360646005620004da565b600355620001a18162000203565b50505050505062000506565b3390565b600180546001600160a01b038381166001600160a01b0319831681179093556040519116919082907f8be0079c531659141344cd1fd0a4f28419497f9722a3daafe3b4186f6b6457e090600090a35050565b6200020d620001ad565b6001600160a01b03166200022062000280565b6001600160a01b031614620002495760405162461bcd60e51b8152600401620000779062000463565b6001600160a01b038116620002725760405162461bcd60e51b8152600401620000779062000363565b6200027d81620001b1565b50565b6001546001600160a01b031690565b80516001600160a01b0381168114620002a757600080fd5b919050565b60008060008060008060c08789031215620002c5578182fd5b620002d0876200028f565b9550620002e0602088016200028f565b9450620002f0604088016200028f565b935062000300606088016200028f565b925062000310608088016200028f565b91506200032060a088016200028f565b90509295509295509295565b60208082526018908201527f556e6f52653a207a65726f205745544820616464726573730000000000000000604082015260600190565b60208082526026908201527f4f776e61626c653a206e6577206f776e657220697320746865207a65726f206160408201526564647265737360d01b606082015260800190565b60208082526021908201527f556e6f52653a207a65726f20756e6973776170526f75746572206164647265736040820152607360f81b606082015260800190565b60208082526022908201527f556e6f52653a207a65726f206d756c746973696777616c6c6574206164647265604082015261737360f01b606082015260800190565b60208082526018908201527f556e6f52653a207a65726f205553444320616464726573730000000000000000604082015260600190565b6020808252818101527f4f776e61626c653a2063616c6c6572206973206e6f7420746865206f776e6572604082015260600190565b60208082526022908201527f556e6f52653a207a65726f20756e6973776170466163746f7279206164647265604082015261737360f01b606082015260800190565b60008160001904831182151516156200050157634e487b7160e01b81526011600452602481fd5b500290565b60805160601c60a05160601c60c05160601c60e05160601c6123606200057d60003960008181610cc20152818161182c0152611917015260008181610aa401528181610c5d0152610e1f01526000610dfb01526000818161076d015281816107eb01528181610c9a015261106901526123606000f3fe60806040526004361061016e5760003560e01c806393badc41116100cb578063c74c0fac1161007f578063f0fa55a911610059578063f0fa55a91461039f578063f2fde38b146103bf578063fa569274146103df57610175565b8063c74c0fac14610355578063d82649201461036a578063e7cd4a041461037f57610175565b8063a9a12d43116100b0578063a9a12d4314610300578063ad5c464814610320578063ba560ed91461033557610175565b806393badc41146102c05780639a553968146102e057610175565b80633e032a3b11610122578063715018a611610107578063715018a61461027457806375d38071146102895780638da5cb5b146102ab57610175565b80633e032a3b1461023f578063531a22111461025457610175565b80632042e5c2116101535780632042e5c2146101d257806334899be6146101f2578063372c12b11461021257610175565b8063102e32591461017a5780631eb5b699146101b057610175565b3661017557005b600080fd5b34801561018657600080fd5b5061019a610195366004611bbf565b6103f4565b6040516101a791906120d5565b60405180910390f35b3480156101bc57600080fd5b506101d06101cb366004611b47565b61051b565b005b3480156101de57600080fd5b506101d06101ed366004611b47565b6105e8565b3480156101fe57600080fd5b5061019a61020d366004611b7f565b6106cf565b34801561021e57600080fd5b5061023261022d366004611b47565b610725565b6040516101a79190611d25565b34801561024b57600080fd5b5061019a61073a565b34801561026057600080fd5b5061019a61026f366004611c0a565b610740565b34801561028057600080fd5b506101d06108a6565b34801561029557600080fd5b5061029e6108f1565b6040516101a79190611cba565b3480156102b757600080fd5b5061029e610900565b3480156102cc57600080fd5b5061019a6102db366004611b7f565b61090f565b3480156102ec57600080fd5b5061019a6102fb366004611bbf565b610adc565b34801561030c57600080fd5b5061019a61031b366004611bbf565b610c93565b34801561032c57600080fd5b5061029e610cc0565b34801561034157600080fd5b5061019a610350366004611bbf565b610ce4565b34801561036157600080fd5b5061029e610df9565b34801561037657600080fd5b5061029e610e1d565b34801561038b57600080fd5b506101d061039a366004611b47565b610e41565b3480156103ab57600080fd5b506101d06103ba366004611c0a565b610f2c565b3480156103cb57600080fd5b506101d06103da366004611b47565b610ff6565b3480156103eb57600080fd5b5061029e611067565b60025460405163355188ab60e01b815260009182916001600160a01b039091169063355188ab90610429908790600401611cba565b60206040518083038186803b15801561044157600080fd5b505afa158015610455573d6000803e3d6000fd5b505050506040513d601f19601f820116820180604052508101906104799190611c22565b90506000846001600160a01b031663313ce5676040518163ffffffff1660e01b815260040160206040518083038186803b1580156104b657600080fd5b505afa1580156104ca573d6000803e3d6000fd5b505050506040513d601f19601f820116820180604052508101906104ee9190611c3a565b60ff1690506104fe81600a6121cb565b6105088386612299565b6105129190612165565b95945050505050565b61052361108b565b6001600160a01b0316610534610900565b6001600160a01b0316146105635760405162461bcd60e51b815260040161055a90611f67565b60405180910390fd5b6001600160a01b0381166105895760405162461bcd60e51b815260040161055a90611e08565b6002805473ffffffffffffffffffffffffffffffffffffffff19166001600160a01b03838116919091179182905560405191169030907f76d908faefb2e5bb2e5551cce5530e7d157dd5ddafe26554d2320c5cc065009f90600090a350565b6105f061108b565b6001600160a01b0316610601610900565b6001600160a01b0316146106275760405162461bcd60e51b815260040161055a90611f67565b6001600160a01b03811661064d5760405162461bcd60e51b815260040161055a90611e08565b6001600160a01b03811660009081526004602052604090205460ff166106855760405162461bcd60e51b815260040161055a90611e3f565b6001600160a01b038116600081815260046020526040808220805460ff191690555130917f2f467772ef0a5478314f3bc2b37d4b2ad29b65f052b2cedc8e2972dda033529291a350565b60006107106040518060400160405280601781526020017f5b5f6765744e6565646564546f6b656e416d6f756e745d0000000000000000008152508561108f565b61071b8484846110d8565b90505b9392505050565b60046020526000908152604090205460ff1681565b60035481565b60025460405163355188ab60e01b815260009182916001600160a01b039091169063355188ab90610795907f000000000000000000000000000000000000000000000000000000000000000090600401611cba565b60206040518083038186803b1580156107ad57600080fd5b505afa1580156107c1573d6000803e3d6000fd5b505050506040513d601f19601f820116820180604052508101906107e59190611c22565b905060007f00000000000000000000000000000000000000000000000000000000000000006001600160a01b031663313ce5676040518163ffffffff1660e01b815260040160206040518083038186803b15801561084257600080fd5b505afa158015610856573d6000803e3d6000fd5b505050506040513d601f19601f8201168201806040525081019061087a9190611c3a565b60ff16905061088a81600a6121cb565b6108948386612299565b61089e9190612165565b949350505050565b6108ae61108b565b6001600160a01b03166108bf610900565b6001600160a01b0316146108e55760405162461bcd60e51b815260040161055a90611f67565b6108ef600061119e565b565b6002546001600160a01b031681565b6001546001600160a01b031690565b3360009081526004602052604081205460ff1661093e5760405162461bcd60e51b815260040161055a90611ff9565b600260005414156109615760405162461bcd60e51b815260040161055a9061209e565b600260009081556001600160a01b03851615610a31576040516370a0823160e01b81526000906001600160a01b038716906370a08231906109a6903390600401611cba565b60206040518083038186803b1580156109be57600080fd5b505afa1580156109d2573d6000803e3d6000fd5b505050506040513d601f19601f820116820180604052508101906109f69190611c22565b11610a135760405162461bcd60e51b815260040161055a90611d74565b610a1f853330866111fd565b610a2a8585856110d8565b9050610a3e565b610a3b8484610ce4565b90505b60008111610a5e5760405162461bcd60e51b815260040161055a90612067565b6000606480600354606480610a739190612299565b610a7d91906122b8565b610a879085612299565b610a919190612165565b610a9b9190612165565b90506000610acc7f0000000000000000000000000000000000000000000000000000000000000000888888866112ed565b6001600055979650505050505050565b3360009081526004602052604081205460ff16610b0b5760405162461bcd60e51b815260040161055a90611ff9565b60026000541415610b2e5760405162461bcd60e51b815260040161055a9061209e565b600260009081556040516370a0823160e01b81526001600160a01b038516906370a0823190610b61903390600401611cba565b60206040518083038186803b158015610b7957600080fd5b505afa158015610b8d573d6000803e3d6000fd5b505050506040513d601f19601f82011682018060405250810190610bb19190611c22565b11610bce5760405162461bcd60e51b815260040161055a90611d74565b6001600160a01b03831615610be957610be9833330856111fd565b6000610bf584846103f4565b905060008111610c175760405162461bcd60e51b815260040161055a90612067565b6000606480600354606480610c2c9190612299565b610c3691906122b8565b610c409085612299565b610c4a9190612165565b610c549190612165565b90506000610c847f000000000000000000000000000000000000000000000000000000000000000087878561177b565b60016000559695505050505050565b600061071e7f000000000000000000000000000000000000000000000000000000000000000084846110d8565b7f000000000000000000000000000000000000000000000000000000000000000081565b60025460405163355188ab60e01b815260009182916001600160a01b039091169063355188ab90610d19908790600401611cba565b60206040518083038186803b158015610d3157600080fd5b505afa158015610d45573d6000803e3d6000fd5b505050506040513d601f19601f82011682018060405250810190610d699190611c22565b90506000846001600160a01b031663313ce5676040518163ffffffff1660e01b815260040160206040518083038186803b158015610da657600080fd5b505afa158015610dba573d6000803e3d6000fd5b505050506040513d601f19601f82011682018060405250810190610dde9190611c3a565b60ff16905081610def82600a6121cb565b6105089086612299565b7f000000000000000000000000000000000000000000000000000000000000000081565b7f000000000000000000000000000000000000000000000000000000000000000081565b610e4961108b565b6001600160a01b0316610e5a610900565b6001600160a01b031614610e805760405162461bcd60e51b815260040161055a90611f67565b6001600160a01b038116610ea65760405162461bcd60e51b815260040161055a90611e08565b6001600160a01b03811660009081526004602052604090205460ff1615610edf5760405162461bcd60e51b815260040161055a90611ef9565b6001600160a01b038116600081815260046020526040808220805460ff191660011790555130917f8cd7b0b1a7316eb3e5d781d629cb8bf4e2fd9a8903bdd0f6b894c087d61b21f291a350565b610f3461108b565b6001600160a01b0316610f45610900565b6001600160a01b031614610f6b5760405162461bcd60e51b815260040161055a90611f67565b60008111610f8b5760405162461bcd60e51b815260040161055a90611f30565b60648110610fab5760405162461bcd60e51b815260040161055a90612030565b610fb6606482612299565b60035560405130907f1b5c61e79b0735d33852817a0af9ed28b909c7c0a2a04abcc0c19bba6d6ba56490610feb9084906120d5565b60405180910390a250565b610ffe61108b565b6001600160a01b031661100f610900565b6001600160a01b0316146110355760405162461bcd60e51b815260040161055a90611f67565b6001600160a01b03811661105b5760405162461bcd60e51b815260040161055a90611dab565b6110648161119e565b50565b7f000000000000000000000000000000000000000000000000000000000000000081565b3390565b6110d482826040516024016110a5929190611d30565b60408051601f198184030181529190526020810180516001600160e01b031663319af33360e01b179052611a39565b5050565b60006111196040518060400160405280601781526020017f5b5f6765744e6565646564546f6b656e416d6f756e745d0000000000000000008152508561108f565b6002546040516318db3e8360e21b81526000916001600160a01b03169063636cfa0c9061114e90889088908890600401611ce8565b60206040518083038186803b15801561116657600080fd5b505afa15801561117a573d6000803e3d6000fd5b505050506040513d601f19601f820116820180604052508101906105129190611c22565b600180546001600160a01b0383811673ffffffffffffffffffffffffffffffffffffffff19831681179093556040519116919082907f8be0079c531659141344cd1fd0a4f28419497f9722a3daafe3b4186f6b6457e090600090a35050565b600080856001600160a01b03166323b872dd86868660405160240161122493929190611ce8565b6040516020818303038152906040529060e01b6020820180516001600160e01b03838183161783525050505060405161125d9190611c9e565b6000604051808303816000865af19150503d806000811461129a576040519150601f19603f3d011682016040523d82523d6000602084013e61129f565b606091505b50915091508180156112c95750805115806112c95750808060200190518101906112c99190611bea565b6112e55760405162461bcd60e51b815260040161055a90611e9c565b505050505050565b6000808690506000816001600160a01b031663c45a01556040518163ffffffff1660e01b815260040160206040518083038186803b15801561132e57600080fd5b505afa158015611342573d6000803e3d6000fd5b505050506040513d601f19601f820116820180604052508101906113669190611b63565b90506000866001600160a01b03166370a08231336040518263ffffffff1660e01b81526004016113969190611cba565b60206040518083038186803b1580156113ae57600080fd5b505afa1580156113c2573d6000803e3d6000fd5b505050506040513d601f19601f820116820180604052508101906113e69190611c22565b90506000836001600160a01b031663ad5c46486040518163ffffffff1660e01b815260040160206040518083038186803b15801561142357600080fd5b505afa158015611437573d6000803e3d6000fd5b505050506040513d601f19601f8201168201806040525081019061145b9190611b63565b90506001600160a01b03891615611479575087611479818589611a5a565b60405163e6a4390560e01b81526000906001600160a01b0385169063e6a43905906114aa9085908d90600401611cce565b60206040518083038186803b1580156114c257600080fd5b505afa1580156114d6573d6000803e3d6000fd5b505050506040513d601f19601f820116820180604052508101906114fa9190611b63565b6001600160a01b03161461167d57604080516002808252606082018352600092602083019080368337019050509050818160008151811061154b57634e487b7160e01b600052603260045260246000fd5b60200260200101906001600160a01b031690816001600160a01b031681525050888160018151811061158d57634e487b7160e01b600052603260045260246000fd5b6001600160a01b0392831660209182029290920101528a166116145760405163b6f9de9560e01b81526001600160a01b0386169063b6f9de95908a906115dd908b908690339042906004016120de565b6000604051808303818588803b1580156115f657600080fd5b505af115801561160a573d6000803e3d6000fd5b505050505061167b565b604051635c11d79560e01b81526001600160a01b03861690635c11d79590611648908b908b90869033904290600401612113565b600060405180830381600087803b15801561166257600080fd5b505af1158015611676573d6000803e3d6000fd5b505050505b505b6040516370a0823160e01b81526000906001600160a01b038a16906370a08231906116ac903390600401611cba565b60206040518083038186803b1580156116c457600080fd5b505afa1580156116d8573d6000803e3d6000fd5b505050506040513d601f19601f820116820180604052508101906116fc9190611c22565b9050886001600160a01b03168a6001600160a01b03168c6001600160a01b03167fd30edfe8aafab67575a170d015da0337bcb39e5c9af1b2dfb9294fb75b344ac38b8b888761174b91906122b8565b60405161175a9392919061214f565b60405180910390a461176c83826122b8565b9b9a5050505050505050505050565b6000808590506000816001600160a01b031663c45a01556040518163ffffffff1660e01b815260040160206040518083038186803b1580156117bc57600080fd5b505afa1580156117d0573d6000803e3d6000fd5b505050506040513d601f19601f820116820180604052508101906117f49190611b63565b90503331611803878488611a5a565b60405163e6a4390560e01b81526000906001600160a01b0384169063e6a4390590611854908b907f000000000000000000000000000000000000000000000000000000000000000090600401611cce565b60206040518083038186803b15801561186c57600080fd5b505afa158015611880573d6000803e3d6000fd5b505050506040513d601f19601f820116820180604052508101906118a49190611b63565b6001600160a01b0316146119ce5760408051600280825260608201835260009260208301908036833701905050905087816000815181106118f557634e487b7160e01b600052603260045260246000fd5b60200260200101906001600160a01b031690816001600160a01b0316815250507f00000000000000000000000000000000000000000000000000000000000000008160018151811061195757634e487b7160e01b600052603260045260246000fd5b6001600160a01b03928316602091820292909201015260405163791ac94760e01b81529085169063791ac9479061199a908a908a90869033904290600401612113565b600060405180830381600087803b1580156119b457600080fd5b505af11580156119c8573d6000803e3d6000fd5b50505050505b33316001600160a01b03888116908a167f1df84ee81df9963f5d40b2a3f717360c1f62daa6f21f69580398a8d570de644c8989611a0b87876122b8565b604051611a1a9392919061214f565b60405180910390a3611a2c82826122b8565b9998505050505050505050565b80516a636f6e736f6c652e6c6f67602083016000808483855afa5050505050565b600080846001600160a01b031663095ea7b38585604051602401611a7f929190611d0c565b6040516020818303038152906040529060e01b6020820180516001600160e01b038381831617835250505050604051611ab89190611c9e565b6000604051808303816000865af19150503d8060008114611af5576040519150601f19603f3d011682016040523d82523d6000602084013e611afa565b606091505b5091509150818015611b24575080511580611b24575080806020019051810190611b249190611bea565b611b405760405162461bcd60e51b815260040161055a90611f9c565b5050505050565b600060208284031215611b58578081fd5b813561071e81612315565b600060208284031215611b74578081fd5b815161071e81612315565b600080600060608486031215611b93578182fd5b8335611b9e81612315565b92506020840135611bae81612315565b929592945050506040919091013590565b60008060408385031215611bd1578182fd5b8235611bdc81612315565b946020939093013593505050565b600060208284031215611bfb578081fd5b8151801515811461071e578182fd5b600060208284031215611c1b578081fd5b5035919050565b600060208284031215611c33578081fd5b5051919050565b600060208284031215611c4b578081fd5b815160ff8116811461071e578182fd5b6000815180845260208085019450808401835b83811015611c935781516001600160a01b031687529582019590820190600101611c6e565b509495945050505050565b60008251611cb08184602087016122cf565b9190910192915050565b6001600160a01b0391909116815260200190565b6001600160a01b0392831681529116602082015260400190565b6001600160a01b039384168152919092166020820152604081019190915260600190565b6001600160a01b03929092168252602082015260400190565b901515815260200190565b6000604082528351806040840152611d4f8160608501602088016122cf565b6001600160a01b0393909316602083015250601f91909101601f191601606001919050565b60208082526013908201527f556e6f52653a207a65726f2062616c616e636500000000000000000000000000604082015260600190565b60208082526026908201527f4f776e61626c653a206e6577206f776e657220697320746865207a65726f206160408201527f6464726573730000000000000000000000000000000000000000000000000000606082015260800190565b60208082526013908201527f556e6f52653a207a65726f206164647265737300000000000000000000000000604082015260600190565b6020808252602c908201527f556e6f52653a207768697465206c6973742072656d6f766564206f7220756e6160408201527f6464656420616c72656164790000000000000000000000000000000000000000606082015260800190565b60208082526031908201527f5472616e7366657248656c7065723a3a7472616e7366657246726f6d3a20747260408201527f616e7366657246726f6d206661696c6564000000000000000000000000000000606082015260800190565b60208082526019908201527f556e6f52653a207768697465206c69737420616c726561647900000000000000604082015260600190565b60208082526014908201527f556e6f52653a207a65726f20736c697070616765000000000000000000000000604082015260600190565b6020808252818101527f4f776e61626c653a2063616c6c6572206973206e6f7420746865206f776e6572604082015260600190565b6020808252602b908201527f5472616e7366657248656c7065723a3a73616665417070726f76653a2061707060408201527f726f7665206661696c6564000000000000000000000000000000000000000000606082015260800190565b6020808252601e908201527f556e6f52653a2045786368616e67654167656e7420466f7262696464656e0000604082015260600190565b6020808252601d908201527f556e6f52653a203130302520736c697070616765206f766572666c6f77000000604082015260600190565b6020808252600f908201527f556e6f52653a206e6f2070616972730000000000000000000000000000000000604082015260600190565b6020808252601f908201527f5265656e7472616e637947756172643a207265656e7472616e742063616c6c00604082015260600190565b90815260200190565b6000858252608060208301526120f76080830186611c5b565b6001600160a01b03949094166040830152506060015292915050565b600086825285602083015260a0604083015261213260a0830186611c5b565b6001600160a01b0394909416606083015250608001529392505050565b9283526020830191909152604082015260600190565b60008261218057634e487b7160e01b81526012600452602481fd5b500490565b80825b600180861161219757506121c2565b8187048211156121a9576121a96122ff565b808616156121b657918102915b9490941c938002612188565b94509492505050565b600061071e60001984846000826121e45750600161071e565b816121f15750600061071e565b816001811461220757600281146122115761223e565b600191505061071e565b60ff841115612222576122226122ff565b6001841b915084821115612238576122386122ff565b5061071e565b5060208310610133831016604e8410600b8410161715612271575081810a8381111561226c5761226c6122ff565b61071e565b61227e8484846001612185565b808604821115612290576122906122ff565b02949350505050565b60008160001904831182151516156122b3576122b36122ff565b500290565b6000828210156122ca576122ca6122ff565b500390565b60005b838110156122ea5781810151838201526020016122d2565b838111156122f9576000848401525b50505050565b634e487b7160e01b600052601160045260246000fd5b6001600160a01b038116811461106457600080fdfea2646970667358221220c69b4909a10494472f73f563a78d5ba439a1543e8f1620137c4e41743227987464736f6c63430008000033",
  "devdoc": {
    "kind": "dev",
    "methods": {
      "owner()": {
        "details": "Returns the address of the current owner."
      },
      "renounceOwnership()": {
        "details": "Leaves the contract without owner. It will not be possible to call `onlyOwner` functions anymore. Can only be called by the current owner. NOTE: Renouncing ownership will leave the contract without an owner, thereby removing any functionality that is only available to the owner."
      },
      "transferOwnership(address)": {
        "details": "Transfers ownership of the contract to a new account (`newOwner`). Can only be called by the current owner."
      }
    },
    "version": 1
  },
  "userdoc": {
    "kind": "user",
    "methods": {},
    "version": 1
  },
  "storageLayout": {
    "storage": [
      {
        "astId": 114,
        "contract": "contracts/ExchangeAgent.sol:ExchangeAgent",
        "label": "_status",
        "offset": 0,
        "slot": "0",
        "type": "t_uint256"
      },
      {
        "astId": 7,
        "contract": "contracts/ExchangeAgent.sol:ExchangeAgent",
        "label": "_owner",
        "offset": 0,
        "slot": "1",
        "type": "t_address"
      },
      {
        "astId": 4055,
        "contract": "contracts/ExchangeAgent.sol:ExchangeAgent",
        "label": "oraclePriceFeed",
        "offset": 0,
        "slot": "2",
        "type": "t_address"
      },
      {
        "astId": 4057,
        "contract": "contracts/ExchangeAgent.sol:ExchangeAgent",
        "label": "slippage",
        "offset": 0,
        "slot": "3",
        "type": "t_uint256"
      },
      {
        "astId": 4064,
        "contract": "contracts/ExchangeAgent.sol:ExchangeAgent",
        "label": "whiteList",
        "offset": 0,
        "slot": "4",
        "type": "t_mapping(t_address,t_bool)"
      }
    ],
    "types": {
      "t_address": {
        "encoding": "inplace",
        "label": "address",
        "numberOfBytes": "20"
      },
      "t_bool": {
        "encoding": "inplace",
        "label": "bool",
        "numberOfBytes": "1"
      },
      "t_mapping(t_address,t_bool)": {
        "encoding": "mapping",
        "key": "t_address",
        "label": "mapping(address => bool)",
        "numberOfBytes": "32",
        "value": "t_bool"
      },
      "t_uint256": {
        "encoding": "inplace",
        "label": "uint256",
        "numberOfBytes": "32"
      }
    }
  }
}