{
  "address": "0x08c93862FFc7D34B3a416E6E98936268AB6e37c4",
  "abi": [
    {
      "inputs": [
        {
          "internalType": "address",
          "name": "_claimAssessor",
          "type": "address"
        },
        {
          "internalType": "address",
          "name": "_multiSigWallet",
          "type": "address"
        }
      ],
      "stateMutability": "nonpayable",
      "type": "constructor"
    },
    {
      "anonymous": false,
      "inputs": [
        {
          "indexed": true,
          "internalType": "address",
          "name": "_user",
          "type": "address"
        },
        {
          "indexed": true,
          "internalType": "address",
          "name": "_receiver",
          "type": "address"
        },
        {
          "indexed": false,
          "internalType": "uint256",
          "name": "_amount",
          "type": "uint256"
        }
      ],
      "name": "Harvest",
      "type": "event"
    },
    {
      "anonymous": false,
      "inputs": [
        {
          "indexed": true,
          "internalType": "address",
          "name": "_staker",
          "type": "address"
        },
        {
          "indexed": true,
          "internalType": "address",
          "name": "_pool",
          "type": "address"
        },
        {
          "indexed": false,
          "internalType": "uint256",
          "name": "_requestAmount",
          "type": "uint256"
        }
      ],
      "name": "LeftPool",
      "type": "event"
    },
    {
      "anonymous": false,
      "inputs": [
        {
          "indexed": true,
          "internalType": "address",
          "name": "_user",
          "type": "address"
        },
        {
          "indexed": false,
          "internalType": "uint256",
          "name": "_cancelAmount",
          "type": "uint256"
        },
        {
          "indexed": false,
          "internalType": "uint256",
          "name": "_cancelAmountInUno",
          "type": "uint256"
        }
      ],
      "name": "LogCancelWithdrawRequest",
      "type": "event"
    },
    {
      "anonymous": false,
      "inputs": [
        {
          "indexed": true,
          "internalType": "address",
          "name": "_SSRP",
          "type": "address"
        },
        {
          "indexed": true,
          "internalType": "address",
          "name": "_rewarder",
          "type": "address"
        },
        {
          "indexed": false,
          "internalType": "address",
          "name": "_currency",
          "type": "address"
        }
      ],
      "name": "LogCreateRewarder",
      "type": "event"
    },
    {
      "anonymous": false,
      "inputs": [
        {
          "indexed": true,
          "internalType": "address",
          "name": "_SSRP",
          "type": "address"
        },
        {
          "indexed": true,
          "internalType": "address",
          "name": "_syntheticSSRP",
          "type": "address"
        },
        {
          "indexed": true,
          "internalType": "address",
          "name": "_lpToken",
          "type": "address"
        }
      ],
      "name": "LogCreateSyntheticSSRP",
      "type": "event"
    },
    {
      "anonymous": false,
      "inputs": [
        {
          "indexed": true,
          "internalType": "address",
          "name": "_user",
          "type": "address"
        },
        {
          "indexed": false,
          "internalType": "uint256",
          "name": "_withdrawLpAmount",
          "type": "uint256"
        },
        {
          "indexed": false,
          "internalType": "uint256",
          "name": "_withdrawUnoAmount",
          "type": "uint256"
        }
      ],
      "name": "LogLeaveFromPendingSSRP",
      "type": "event"
    },
    {
      "anonymous": false,
      "inputs": [
        {
          "indexed": true,
          "internalType": "address",
          "name": "_from",
          "type": "address"
        },
        {
          "indexed": true,
          "internalType": "address",
          "name": "_to",
          "type": "address"
        },
        {
          "indexed": false,
          "internalType": "uint256",
          "name": "_amount",
          "type": "uint256"
        }
      ],
      "name": "LogLpTransferInSSRP",
      "type": "event"
    },
    {
      "anonymous": false,
      "inputs": [
        {
          "indexed": true,
          "internalType": "address",
          "name": "_user",
          "type": "address"
        },
        {
          "indexed": true,
          "internalType": "address",
          "name": "_migrateTo",
          "type": "address"
        },
        {
          "indexed": false,
          "internalType": "uint256",
          "name": "_migratedAmount",
          "type": "uint256"
        }
      ],
      "name": "LogMigrate",
      "type": "event"
    },
    {
      "anonymous": false,
      "inputs": [
        {
          "indexed": true,
          "internalType": "address",
          "name": "_SSIP",
          "type": "address"
        },
        {
          "indexed": true,
          "internalType": "address",
          "name": "_claimAssessor",
          "type": "address"
        }
      ],
      "name": "LogSetClaimAssessor",
      "type": "event"
    },
    {
      "anonymous": false,
      "inputs": [
        {
          "indexed": true,
          "internalType": "address",
          "name": "_SSIP",
          "type": "address"
        },
        {
          "indexed": false,
          "internalType": "uint256",
          "name": "_lockTime",
          "type": "uint256"
        }
      ],
      "name": "LogSetLockTime",
      "type": "event"
    },
    {
      "anonymous": false,
      "inputs": [
        {
          "indexed": true,
          "internalType": "address",
          "name": "_SSIP",
          "type": "address"
        },
        {
          "indexed": true,
          "internalType": "address",
          "name": "_migrateTo",
          "type": "address"
        }
      ],
      "name": "LogSetMigrateTo",
      "type": "event"
    },
    {
      "anonymous": false,
      "inputs": [
        {
          "indexed": true,
          "internalType": "address",
          "name": "_SSIP",
          "type": "address"
        },
        {
          "indexed": false,
          "internalType": "uint256",
          "name": "_minLPCapital",
          "type": "uint256"
        }
      ],
      "name": "LogSetMinLPCapital",
      "type": "event"
    },
    {
      "anonymous": false,
      "inputs": [
        {
          "indexed": true,
          "internalType": "address",
          "name": "_SSIP",
          "type": "address"
        },
        {
          "indexed": false,
          "internalType": "uint256",
          "name": "_rewardMultiplier",
          "type": "uint256"
        }
      ],
      "name": "LogSetRewardMultiplier",
      "type": "event"
    },
    {
      "anonymous": false,
      "inputs": [
        {
          "indexed": true,
          "internalType": "address",
          "name": "_SSIP",
          "type": "address"
        },
        {
          "indexed": false,
          "internalType": "uint256",
          "name": "_startTime",
          "type": "uint256"
        }
      ],
      "name": "LogSetStakingStartTime",
      "type": "event"
    },
    {
      "anonymous": false,
      "inputs": [
        {
          "indexed": false,
          "internalType": "uint128",
          "name": "_lastRewardBlock",
          "type": "uint128"
        },
        {
          "indexed": false,
          "internalType": "uint256",
          "name": "_lpSupply",
          "type": "uint256"
        },
        {
          "indexed": false,
          "internalType": "uint256",
          "name": "_accUnoPerShare",
          "type": "uint256"
        }
      ],
      "name": "LogUpdatePool",
      "type": "event"
    },
    {
      "anonymous": false,
      "inputs": [
        {
          "indexed": true,
          "internalType": "address",
          "name": "previousOwner",
          "type": "address"
        },
        {
          "indexed": true,
          "internalType": "address",
          "name": "newOwner",
          "type": "address"
        }
      ],
      "name": "OwnershipTransferred",
      "type": "event"
    },
    {
      "anonymous": false,
      "inputs": [
        {
          "indexed": true,
          "internalType": "address",
          "name": "_user",
          "type": "address"
        },
        {
          "indexed": false,
          "internalType": "uint256",
          "name": "_claimAmount",
          "type": "uint256"
        }
      ],
      "name": "PolicyClaim",
      "type": "event"
    },
    {
      "anonymous": false,
      "inputs": [
        {
          "indexed": true,
          "internalType": "address",
          "name": "_SSRP",
          "type": "address"
        },
        {
          "indexed": true,
          "internalType": "address",
          "name": "_pool",
          "type": "address"
        }
      ],
      "name": "RiskPoolCreated",
      "type": "event"
    },
    {
      "anonymous": false,
      "inputs": [
        {
          "indexed": true,
          "internalType": "address",
          "name": "_staker",
          "type": "address"
        },
        {
          "indexed": true,
          "internalType": "address",
          "name": "_pool",
          "type": "address"
        },
        {
          "indexed": false,
          "internalType": "uint256",
          "name": "_amount",
          "type": "uint256"
        }
      ],
      "name": "StakedInPool",
      "type": "event"
    },
    {
      "inputs": [],
      "name": "ACC_UNO_PRECISION",
      "outputs": [
        {
          "internalType": "uint256",
          "name": "",
          "type": "uint256"
        }
      ],
      "stateMutability": "view",
      "type": "function"
    },
    {
      "inputs": [],
      "name": "LOCK_TIME",
      "outputs": [
        {
          "internalType": "uint256",
          "name": "",
          "type": "uint256"
        }
      ],
      "stateMutability": "view",
      "type": "function"
    },
    {
      "inputs": [],
      "name": "STAKING_START_TIME",
      "outputs": [
        {
          "internalType": "uint256",
          "name": "",
          "type": "uint256"
        }
      ],
      "stateMutability": "view",
      "type": "function"
    },
    {
      "inputs": [],
      "name": "cancelWithdrawRequest",
      "outputs": [],
      "stateMutability": "nonpayable",
      "type": "function"
    },
    {
      "inputs": [],
      "name": "claimAssessor",
      "outputs": [
        {
          "internalType": "address",
          "name": "",
          "type": "address"
        }
      ],
      "stateMutability": "view",
      "type": "function"
    },
    {
      "inputs": [
        {
          "internalType": "address",
          "name": "_operator",
          "type": "address"
        },
        {
          "internalType": "address",
          "name": "_factory",
          "type": "address"
        },
        {
          "internalType": "address",
          "name": "_currency",
          "type": "address"
        }
      ],
      "name": "createRewarder",
      "outputs": [],
      "stateMutability": "nonpayable",
      "type": "function"
    },
    {
      "inputs": [
        {
          "internalType": "string",
          "name": "_name",
          "type": "string"
        },
        {
          "internalType": "string",
          "name": "_symbol",
          "type": "string"
        },
        {
          "internalType": "address",
          "name": "_factory",
          "type": "address"
        },
        {
          "internalType": "address",
          "name": "_currency",
          "type": "address"
        },
        {
          "internalType": "uint256",
          "name": "_rewardMultiplier",
          "type": "uint256"
        }
      ],
      "name": "createRiskPool",
      "outputs": [],
      "stateMutability": "nonpayable",
      "type": "function"
    },
    {
      "inputs": [
        {
          "internalType": "address",
          "name": "_owner",
          "type": "address"
        },
        {
          "internalType": "address",
          "name": "_factory",
          "type": "address"
        }
      ],
      "name": "createSyntheticSSRP",
      "outputs": [],
      "stateMutability": "nonpayable",
      "type": "function"
    },
    {
      "inputs": [
        {
          "internalType": "uint256",
          "name": "_amount",
          "type": "uint256"
        }
      ],
      "name": "enterInPool",
      "outputs": [],
      "stateMutability": "nonpayable",
      "type": "function"
    },
    {
      "inputs": [
        {
          "internalType": "address",
          "name": "_to",
          "type": "address"
        }
      ],
      "name": "getStakedAmountPerUser",
      "outputs": [
        {
          "internalType": "uint256",
          "name": "unoAmount",
          "type": "uint256"
        },
        {
          "internalType": "uint256",
          "name": "lpAmount",
          "type": "uint256"
        }
      ],
      "stateMutability": "view",
      "type": "function"
    },
    {
      "inputs": [],
      "name": "getTotalWithdrawPendingAmount",
      "outputs": [
        {
          "internalType": "uint256",
          "name": "",
          "type": "uint256"
        }
      ],
      "stateMutability": "view",
      "type": "function"
    },
    {
      "inputs": [
        {
          "internalType": "address",
          "name": "_user",
          "type": "address"
        }
      ],
      "name": "getWithdrawRequestPerUser",
      "outputs": [
        {
          "internalType": "uint256",
          "name": "pendingAmount",
          "type": "uint256"
        },
        {
          "internalType": "uint256",
          "name": "pendingAmountInUno",
          "type": "uint256"
        },
        {
          "internalType": "uint256",
          "name": "originUnoAmount",
          "type": "uint256"
        },
        {
          "internalType": "uint256",
          "name": "requestTime",
          "type": "uint256"
        }
      ],
      "stateMutability": "view",
      "type": "function"
    },
    {
      "inputs": [
        {
          "internalType": "address",
          "name": "_to",
          "type": "address"
        }
      ],
      "name": "harvest",
      "outputs": [],
      "stateMutability": "nonpayable",
      "type": "function"
    },
    {
      "inputs": [],
      "name": "leaveFromPending",
      "outputs": [],
      "stateMutability": "nonpayable",
      "type": "function"
    },
    {
      "inputs": [
        {
          "internalType": "uint256",
          "name": "_amount",
          "type": "uint256"
        }
      ],
      "name": "leaveFromPoolInPending",
      "outputs": [],
      "stateMutability": "nonpayable",
      "type": "function"
    },
    {
      "inputs": [
        {
          "internalType": "address",
          "name": "_from",
          "type": "address"
        },
        {
          "internalType": "address",
          "name": "_to",
          "type": "address"
        },
        {
          "internalType": "uint256",
          "name": "_amount",
          "type": "uint256"
        }
      ],
      "name": "lpTransfer",
      "outputs": [],
      "stateMutability": "nonpayable",
      "type": "function"
    },
    {
      "inputs": [],
      "name": "migrate",
      "outputs": [],
      "stateMutability": "nonpayable",
      "type": "function"
    },
    {
      "inputs": [],
      "name": "migrateTo",
      "outputs": [
        {
          "internalType": "address",
          "name": "",
          "type": "address"
        }
      ],
      "stateMutability": "view",
      "type": "function"
    },
    {
      "inputs": [],
      "name": "owner",
      "outputs": [
        {
          "internalType": "address",
          "name": "",
          "type": "address"
        }
      ],
      "stateMutability": "view",
      "type": "function"
    },
    {
      "inputs": [
        {
          "internalType": "address",
          "name": "_to",
          "type": "address"
        }
      ],
      "name": "pendingUno",
      "outputs": [
        {
          "internalType": "uint256",
          "name": "pending",
          "type": "uint256"
        }
      ],
      "stateMutability": "view",
      "type": "function"
    },
    {
      "inputs": [
        {
          "internalType": "address",
          "name": "_to",
          "type": "address"
        },
        {
          "internalType": "uint256",
          "name": "_amount",
          "type": "uint256"
        }
      ],
      "name": "policyClaim",
      "outputs": [],
      "stateMutability": "nonpayable",
      "type": "function"
    },
    {
      "inputs": [],
      "name": "poolInfo",
      "outputs": [
        {
          "internalType": "uint128",
          "name": "lastRewardBlock",
          "type": "uint128"
        },
        {
          "internalType": "uint128",
          "name": "accUnoPerShare",
          "type": "uint128"
        },
        {
          "internalType": "uint256",
          "name": "unoMultiplierPerBlock",
          "type": "uint256"
        }
      ],
      "stateMutability": "view",
      "type": "function"
    },
    {
      "inputs": [],
      "name": "renounceOwnership",
      "outputs": [],
      "stateMutability": "nonpayable",
      "type": "function"
    },
    {
      "inputs": [],
      "name": "rewarder",
      "outputs": [
        {
          "internalType": "address",
          "name": "",
          "type": "address"
        }
      ],
      "stateMutability": "view",
      "type": "function"
    },
    {
      "inputs": [],
      "name": "riskPool",
      "outputs": [
        {
          "internalType": "address",
          "name": "",
          "type": "address"
        }
      ],
      "stateMutability": "view",
      "type": "function"
    },
    {
      "inputs": [
        {
          "internalType": "address",
          "name": "_claimAssessor",
          "type": "address"
        }
      ],
      "name": "setClaimAssessor",
      "outputs": [],
      "stateMutability": "nonpayable",
      "type": "function"
    },
    {
      "inputs": [
        {
          "internalType": "uint256",
          "name": "_lockTime",
          "type": "uint256"
        }
      ],
      "name": "setLockTime",
      "outputs": [],
      "stateMutability": "nonpayable",
      "type": "function"
    },
    {
      "inputs": [
        {
          "internalType": "address",
          "name": "_migrateTo",
          "type": "address"
        }
      ],
      "name": "setMigrateTo",
      "outputs": [],
      "stateMutability": "nonpayable",
      "type": "function"
    },
    {
      "inputs": [
        {
          "internalType": "uint256",
          "name": "_minLPCapital",
          "type": "uint256"
        }
      ],
      "name": "setMinLPCapital",
      "outputs": [],
      "stateMutability": "nonpayable",
      "type": "function"
    },
    {
      "inputs": [
        {
          "internalType": "uint256",
          "name": "_rewardMultiplier",
          "type": "uint256"
        }
      ],
      "name": "setRewardMultiplier",
      "outputs": [],
      "stateMutability": "nonpayable",
      "type": "function"
    },
    {
      "inputs": [
        {
          "internalType": "uint256",
          "name": "_startTime",
          "type": "uint256"
        }
      ],
      "name": "setStakingStartTime",
      "outputs": [],
      "stateMutability": "nonpayable",
      "type": "function"
    },
    {
      "inputs": [],
      "name": "syntheticSSRP",
      "outputs": [
        {
          "internalType": "address",
          "name": "",
          "type": "address"
        }
      ],
      "stateMutability": "view",
      "type": "function"
    },
    {
      "inputs": [
        {
          "internalType": "address",
          "name": "newOwner",
          "type": "address"
        }
      ],
      "name": "transferOwnership",
      "outputs": [],
      "stateMutability": "nonpayable",
      "type": "function"
    },
    {
      "inputs": [],
      "name": "updatePool",
      "outputs": [],
      "stateMutability": "nonpayable",
      "type": "function"
    },
    {
      "inputs": [
        {
          "internalType": "address",
          "name": "",
          "type": "address"
        }
      ],
      "name": "userInfo",
      "outputs": [
        {
          "internalType": "uint256",
          "name": "lastWithdrawTime",
          "type": "uint256"
        },
        {
          "internalType": "uint256",
          "name": "rewardDebt",
          "type": "uint256"
        },
        {
          "internalType": "uint256",
          "name": "amount",
          "type": "uint256"
        }
      ],
      "stateMutability": "view",
      "type": "function"
    }
  ],
  "transactionHash": "0x299fad8c040626b49b93a97c65aecf83b99977da187c6fe5e4f2780c289cbbf6",
  "args": [
    "0x6C641CE6A7216F12d28692f9d8b2BDcdE812eD2b",
    "0x6C641CE6A7216F12d28692f9d8b2BDcdE812eD2b"
  ],
  "solcInputHash": "e24230ab867da20750c1e578f668f75c",
  "bytecode": "0x6080604052620d2f006005553480156200001857600080fd5b5060405162003603380380620036038339810160408190526200003b91620001dc565b6001600055620000546200004e620000dd565b620000e1565b6001600160a01b038116620000865760405162461bcd60e51b81526004016200007d90620002cf565b60405180910390fd5b6001600160a01b038216620000af5760405162461bcd60e51b81526004016200007d906200028e565b600280546001600160a01b0319166001600160a01b038416179055620000d58162000133565b505062000311565b3390565b600180546001600160a01b038381166001600160a01b0319831681179093556040519116919082907f8be0079c531659141344cd1fd0a4f28419497f9722a3daafe3b4186f6b6457e090600090a35050565b6200013d620000dd565b6001600160a01b031662000150620001b0565b6001600160a01b031614620001795760405162461bcd60e51b81526004016200007d9062000259565b6001600160a01b038116620001a25760405162461bcd60e51b81526004016200007d9062000213565b620001ad81620000e1565b50565b6001546001600160a01b031690565b80516001600160a01b0381168114620001d757600080fd5b919050565b60008060408385031215620001ef578182fd5b620001fa83620001bf565b91506200020a60208401620001bf565b90509250929050565b60208082526026908201527f4f776e61626c653a206e6577206f776e657220697320746865207a65726f206160408201526564647265737360d01b606082015260800190565b6020808252818101527f4f776e61626c653a2063616c6c6572206973206e6f7420746865206f776e6572604082015260600190565b60208082526021908201527f556e6f52653a207a65726f20636c61696d4173736573736f72206164647265736040820152607360f81b606082015260800190565b60208082526022908201527f556e6f52653a207a65726f206d756c746953696757616c6c6574206164647265604082015261737360f01b606082015260800190565b6132e280620003216000396000f3fe608060405234801561001057600080fd5b50600436106102415760003560e01c80639336f40611610145578063c4e5dacf116100bd578063e08c5de11161008c578063e3161ddd11610071578063e3161ddd14610462578063e3824a381461046a578063f2fde38b1461047d57610241565b8063e08c5de114610447578063e19e71681461045a57610241565b8063c4e5dacf14610427578063c6e899151461042f578063dba6f96214610437578063dcc3e06e1461043f57610241565b8063a3bdd63211610114578063af16d6e0116100f9578063af16d6e0146103eb578063ba619457146103fe578063bc8f88281461041f57610241565b8063a3bdd632146103d0578063ae04d45d146103d857610241565b80639336f4061461037f57806393b6b86c146103a257806398c6e760146103b55780639cdf6c27146103bd57610241565b80635a2f3d09116101d85780638395206c116101a75780638ba04b171161018c5780638ba04b171461035c5780638da5cb5b1461036f5780638fd3ab801461037757610241565b80638395206c1461034157806389919b711461035457610241565b80635a2f3d09146102fc5780635d90bad914610313578063715018a614610326578063736ec05c1461032e57610241565b80631959a002116102145780631959a002146102945780632e4a0142146102bf578063413d9c3a146102d25780634c032366146102e757610241565b80630bd075a1146102465780630e5c011e1461025b5780630e9ae4201461026e578063157f71ed14610281575b600080fd5b6102596102543660046129e2565b610490565b005b6102596102693660046127f9565b61053a565b61025961027c3660046128ba565b610595565b61025961028f3660046127f9565b61088d565b6102a76102a23660046127f9565b61093e565b6040516102b6939291906131b7565b60405180910390f35b6102596102cd3660046128fa565b61095f565b6102da610aeb565b6040516102b691906131a0565b6102ef610af1565b6040516102b69190612ac5565b610304610b00565b6040516102b693929190613159565b6102596103213660046129e2565b610b1e565b610259610b9c565b61025961033c3660046127f9565b610be7565b61025961034f3660046129e2565b610c98565b6102da610f15565b61025961036a366004612945565b610f21565b6102ef61110e565b61025961111d565b61039261038d3660046127f9565b611306565b6040516102b694939291906131cd565b6102596103b03660046129e2565b611444565b6102ef61153e565b6102596103cb366004612838565b61154d565b6102da61170a565b6102596103e63660046129e2565b61178c565b6102596103f9366004612870565b611822565b61041161040c3660046127f9565b6119d0565b6040516102b69291906131a9565b610259611a8b565b6102ef611d29565b6102ef611d38565b6102da611d47565b6102ef611d4d565b6102da6104553660046127f9565b611d5c565b610259611ec6565b610259611fc1565b6102596104783660046129e2565b612156565b61025961048b3660046127f9565b612454565b6104986124c5565b6001600160a01b03166104a961110e565b6001600160a01b0316146104d85760405162461bcd60e51b81526004016104cf90612fa7565b60405180910390fd5b600081116104f85760405162461bcd60e51b81526004016104cf90612e26565b600b81905560405130907fbd1dd13c6a5b4a28ebd27fdcb8fdd01aba6bbb9f67599306248f465bcdf9817f9061052f9084906131a0565b60405180910390a250565b60065442101561055c5760405162461bcd60e51b81526004016104cf9061307f565b6002600054141561057f5760405162461bcd60e51b81526004016104cf906130b6565b600260005561058d816124c9565b506001600055565b600260005414156105b85760405162461bcd60e51b81526004016104cf906130b6565b60026000556008546001600160a01b031633146105e75760405162461bcd60e51b81526004016104cf90613124565b6004546001600160a01b0384811691161480159061061357506004546001600160a01b03838116911614155b1561088357610621836124c9565b6001600160a01b03808416600090815260096020526040808220600201546008549151631665744b60e11b815290939190911690632ccae89690610669908890600401612ac5565b60606040518083038186803b15801561068157600080fd5b505afa158015610695573d6000803e3d6000fd5b505050506040513d601f19601f820116820180604052508101906106b99190612a35565b505090508281836106ca919061326a565b10156106e85760405162461bcd60e51b81526004016104cf90612d83565b600a54600090670de0b6b3a76400009061071290600160801b90046001600160801b03168561324b565b61071c919061322b565b600a54909150670de0b6b3a76400009061074690600160801b90046001600160801b03168661324b565b610750919061322b565b61075a908261326a565b6001600160a01b038716600090815260096020526040902060010155610780848461326a565b6001600160a01b038716600090815260096020526040902060020155600a54670de0b6b3a7640000906107c390600160801b90046001600160801b03168661324b565b6107cd919061322b565b6001600160a01b0386166000908152600960205260409020600101546107f39190613213565b6001600160a01b0386166000908152600960205260409020600181019190915560020154610822908590613213565b6001600160a01b0380871660008181526009602052604090819020600201939093559151908816907fe97af49bf17de46bed3f953a242569bed68114f89f39c1afe4012bba1c5963d4906108779088906131a0565b60405180910390a35050505b5050600160005550565b6108956124c5565b6001600160a01b03166108a661110e565b6001600160a01b0316146108cc5760405162461bcd60e51b81526004016104cf90612fa7565b6001600160a01b0381166108f25760405162461bcd60e51b81526004016104cf90612c81565b600280546001600160a01b0319166001600160a01b03831690811790915560405130907f073f9d6137d7fa6d64859eb388090b7e90a768c36e707e4404e1fa6485b5c91e90600090a350565b60096020526000908152604090208054600182015460029092015490919083565b6002546001600160a01b031633146109895760405162461bcd60e51b81526004016104cf90613013565b6006544210156109ab5760405162461bcd60e51b81526004016104cf9061307f565b600260005414156109ce5760405162461bcd60e51b81526004016104cf906130b6565b60026000556001600160a01b0382166109f95760405162461bcd60e51b81526004016104cf90612c81565b60008111610a195760405162461bcd60e51b81526004016104cf90612e94565b60085460405163172500a160e11b81526000916001600160a01b031690632e4a014290610a4c9086908690600401612b5e565b602060405180830381600087803b158015610a6657600080fd5b505af1158015610a7a573d6000803e3d6000fd5b505050506040513d601f19601f82011682018060405250810190610a9e91906129fa565b9050826001600160a01b03167f6420c9536b9a539410a930b1fd8d115dc296d8b71426dcc0ab64f2f736b7d59f82604051610ad991906131a0565b60405180910390a25050600160005550565b60055481565b6004546001600160a01b031681565b600a54600b546001600160801b0380831692600160801b9004169083565b610b266124c5565b6001600160a01b0316610b3761110e565b6001600160a01b031614610b5d5760405162461bcd60e51b81526004016104cf90612fa7565b610b674282613213565b60065560405130907fa8aa08cc14eef7b97ab4cd52f37082e23f7526bccc98cf91e6a1d412494b90519061052f9084906131a0565b610ba46124c5565b6001600160a01b0316610bb561110e565b6001600160a01b031614610bdb5760405162461bcd60e51b81526004016104cf90612fa7565b610be5600061265b565b565b610bef6124c5565b6001600160a01b0316610c0061110e565b6001600160a01b031614610c265760405162461bcd60e51b81526004016104cf90612fa7565b6001600160a01b038116610c4c5760405162461bcd60e51b81526004016104cf90612c81565b600380546001600160a01b0319166001600160a01b03831690811790915560405130907f877238238dbd7134e89b00809ea73fabb50da117ace807a6b31c733bbf55d36990600090a350565b600654421015610cba5760405162461bcd60e51b81526004016104cf9061307f565b60026000541415610cdd5760405162461bcd60e51b81526004016104cf906130b6565b6002600055610ceb336124c9565b336000908152600960209081526040808320600201546008548251627a9fd960e91b815292519194936001600160a01b039091169263f53fb2009260048083019392829003018186803b158015610d4157600080fd5b505afa158015610d55573d6000803e3d6000fd5b505050506040513d601f19601f82011682018060405250810190610d7991906129fa565b600854604051631665744b60e11b81529192506000916001600160a01b0390911690632ccae89690610daf903390600401612ac5565b60606040518083038186803b158015610dc757600080fd5b505afa158015610ddb573d6000803e3d6000fd5b505050506040513d601f19601f82011682018060405250810190610dff9190612a35565b505090508184670de0b6b3a7640000610e18919061324b565b610e22919061322b565b610e2c828561326a565b1015610e4a5760405162461bcd60e51b81526004016104cf90612cef565b6008546040516323de6d9560e11b81526001600160a01b03909116906347bcdb2a90610e7c9033908890600401612b5e565b600060405180830381600087803b158015610e9657600080fd5b505af1158015610eaa573d6000803e3d6000fd5b5050336000818152600960205260409081902042905560085490516001600160a01b0390911693509091507f940a14c75c418e7230a2e65567722d2dda5a6713cf71b369bd0fa219fdc1ac5e90610f029088906131a0565b60405180910390a3505060016000555050565b670de0b6b3a764000081565b610f296124c5565b6001600160a01b0316610f3a61110e565b6001600160a01b031614610f605760405162461bcd60e51b81526004016104cf90612fa7565b60026000541415610f835760405162461bcd60e51b81526004016104cf906130b6565b60026000556008546001600160a01b031615610fb15760405162461bcd60e51b81526004016104cf90612dba565b6001600160a01b038316610fd75760405162461bcd60e51b81526004016104cf90612f70565b6001600160a01b038216610ffd5760405162461bcd60e51b81526004016104cf90612bed565b604051630d98e31f60e01b81526001600160a01b03841690630d98e31f90611033908a908a908a908a9030908a90600401612b9f565b602060405180830381600087803b15801561104d57600080fd5b505af1158015611061573d6000803e3d6000fd5b505050506040513d601f19601f82011682018060405250810190611085919061281c565b600880546001600160a01b0319166001600160a01b039283161790819055600a80546fffffffffffffffffffffffffffffffff1916436001600160801b0390811691909117169055600b83905560405191169030907f184d7691bf4a73930a21086fa1bdf0ee3075421531a60730288325fd5838021790600090a3505060016000555050505050565b6001546001600160a01b031690565b600260005414156111405760405162461bcd60e51b81526004016104cf906130b6565b60026000556003546001600160a01b031661116d5760405162461bcd60e51b81526004016104cf90612c81565b611176336124c9565b336000908152600960205260408120600281015460055491549092919061119d904261326a565b600854600354604051633613302f60e01b81529390921193506000926001600160a01b0391821692633613302f926111df923392909116908790600401612b16565b602060405180830381600087803b1580156111f957600080fd5b505af115801561120d573d6000803e3d6000fd5b505050506040513d601f19601f8201168201806040525081019061123191906129fa565b60035460405163ed59344b60e01b81529192506001600160a01b03169063ed59344b906112649033908790600401612b77565b600060405180830381600087803b15801561127e57600080fd5b505af1158015611292573d6000803e3d6000fd5b505033600081815260096020526040808220600281018390556001019190915560035490516001600160a01b0390911693509091507ff0fee1f70845d356d6a3e0baa0944ce846437b6469ea89416dad2cd7067919a4906112f49085906131a0565b60405180910390a35050600160005550565b6000806000806000600860009054906101000a90046001600160a01b03166001600160a01b031663f53fb2006040518163ffffffff1660e01b815260040160206040518083038186803b15801561135c57600080fd5b505afa158015611370573d6000803e3d6000fd5b505050506040513d601f19601f8201168201806040525081019061139491906129fa565b600854604051631665744b60e11b81529192506001600160a01b031690632ccae896906113c5908990600401612ac5565b60606040518083038186803b1580156113dd57600080fd5b505afa1580156113f1573d6000803e3d6000fd5b505050506040513d601f19601f820116820180604052508101906114159190612a35565b9196509093509150670de0b6b3a7640000611430828761324b565b61143a919061322b565b9350509193509193565b61144c6124c5565b6001600160a01b031661145d61110e565b6001600160a01b0316146114835760405162461bcd60e51b81526004016104cf90612fa7565b600081116114a35760405162461bcd60e51b81526004016104cf906130ed565b6008546040516324edae1b60e21b81526001600160a01b03909116906393b6b86c906114d39084906004016131a0565b600060405180830381600087803b1580156114ed57600080fd5b505af1158015611501573d6000803e3d6000fd5b50505050306001600160a01b03167f353ac2778fe09bc60cf3070bb11d548faf4037e4217a06977c16463087474aab8260405161052f91906131a0565b6003546001600160a01b031681565b6115556124c5565b6001600160a01b031661156661110e565b6001600160a01b03161461158c5760405162461bcd60e51b81526004016104cf90612fa7565b600260005414156115af5760405162461bcd60e51b81526004016104cf906130b6565b60026000556001600160a01b0382166115da5760405162461bcd60e51b81526004016104cf90612f02565b6001600160a01b0381166116005760405162461bcd60e51b81526004016104cf90612cb8565b6008546001600160a01b03166116285760405162461bcd60e51b81526004016104cf90612ecb565b6008546040516377b3d99760e01b81526001600160a01b03808416926377b3d9979261165a9287921690600401612ad9565b602060405180830381600087803b15801561167457600080fd5b505af1158015611688573d6000803e3d6000fd5b505050506040513d601f19601f820116820180604052508101906116ac919061281c565b600480546001600160a01b0319166001600160a01b03928316179081905560085460405190831692919091169030907f3d2362862a7867eb0f64552c1fa638b6adf3907a7defe349eab238f6a0b2d83190600090a450506001600055565b6008546040805163e95aa8d360e01b815290516000926001600160a01b03169163e95aa8d3916004808301926020929190829003018186803b15801561174f57600080fd5b505afa158015611763573d6000803e3d6000fd5b505050506040513d601f19601f8201168201806040525081019061178791906129fa565b905090565b6117946124c5565b6001600160a01b03166117a561110e565b6001600160a01b0316146117cb5760405162461bcd60e51b81526004016104cf90612fa7565b600081116117eb5760405162461bcd60e51b81526004016104cf90612f39565b600581905560405130907f2c2c43c64e937ae35257af782c222986dc5adb4f56dc0881594e79bf83658d8c9061052f9084906131a0565b61182a6124c5565b6001600160a01b031661183b61110e565b6001600160a01b0316146118615760405162461bcd60e51b81526004016104cf90612fa7565b600260005414156118845760405162461bcd60e51b81526004016104cf906130b6565b60026000556001600160a01b0382166118af5760405162461bcd60e51b81526004016104cf9061304a565b6001600160a01b0383166118d55760405162461bcd60e51b81526004016104cf90612e5d565b6001600160a01b0381166118fb5760405162461bcd60e51b81526004016104cf90612bed565b6040516369ee745160e01b81526001600160a01b038316906369ee74519061192b90869085903090600401612af3565b602060405180830381600087803b15801561194557600080fd5b505af1158015611959573d6000803e3d6000fd5b505050506040513d601f19601f8201168201806040525081019061197d919061281c565b600780546001600160a01b0319166001600160a01b03928316179081905560405191169030907f6c409a36847a0a3870deae25f656f4300d45957d2643fc27faab145e19cfcf1b906112f4908590612ac5565b6001600160a01b038082166000908152600960209081526040808320600201546008548251627a9fd960e91b81529251949591948694919092169263f53fb2009260048083019392829003018186803b158015611a2c57600080fd5b505afa158015611a40573d6000803e3d6000fd5b505050506040513d601f19601f82011682018060405250810190611a6491906129fa565b9050670de0b6b3a7640000611a79828461324b565b611a83919061322b565b925050915091565b600654421015611aad5760405162461bcd60e51b81526004016104cf9061307f565b60026000541415611ad05760405162461bcd60e51b81526004016104cf906130b6565b600260009081556005543382526009602052604090912054611af2904261326a565b1015611b105760405162461bcd60e51b81526004016104cf90612def565b611b19336124c9565b33600081815260096020526040808220600201546008549151631665744b60e11b815290936001600160a01b0390921691632ccae89691611b5d9190600401612ac5565b60606040518083038186803b158015611b7557600080fd5b505afa158015611b89573d6000803e3d6000fd5b505050506040513d601f19601f82011682018060405250810190611bad9190612a35565b5050600a54909150600090670de0b6b3a764000090611bdc90600160801b90046001600160801b03168561324b565b611be6919061322b565b600a54909150670de0b6b3a764000090611c1090600160801b90046001600160801b03168461324b565b611c1a919061322b565b611c24908261326a565b3360008181526009602052604080822060010193909355600854925163b20ecd1560e01b8152909283926001600160a01b039091169163b20ecd1591611c6c91600401612ac5565b6040805180830381600087803b158015611c8557600080fd5b505af1158015611c99573d6000803e3d6000fd5b505050506040513d601f19601f82011682018060405250810190611cbd9190612a12565b9092509050611ccc828661326a565b33600081815260096020526040908190206002019290925590517f617c612e91653c86cd4538e3de94b98c8dd628b41e343380d1cf858f95c0674a90611d1590859085906131a9565b60405180910390a250506001600055505050565b6008546001600160a01b031681565b6002546001600160a01b031681565b60065481565b6007546001600160a01b031681565b600080600860009054906101000a90046001600160a01b03166001600160a01b03166318160ddd6040518163ffffffff1660e01b815260040160206040518083038186803b158015611dad57600080fd5b505afa158015611dc1573d6000803e3d6000fd5b505050506040513d601f19601f82011682018060405250810190611de591906129fa565b600a549091506001600160801b03600160801b82048116911643118015611e0b57508115155b15611e6a57600a54600090611e29906001600160801b03164361326a565b600b54909150600090611e3c908361324b565b905083611e51670de0b6b3a76400008361324b565b611e5b919061322b565b611e6590846131e8565b925050505b6001600160a01b03841660009081526009602052604090206002810154600190910154670de0b6b3a7640000611ea96001600160801b0385168461324b565b611eb3919061322b565b611ebd919061326a565b95945050505050565b60026000541415611ee95760405162461bcd60e51b81526004016104cf906130b6565b600260009081556008546040516306e6829960e51b815282916001600160a01b03169063dcd0532090611f20903390600401612ac5565b6040805180830381600087803b158015611f3957600080fd5b505af1158015611f4d573d6000803e3d6000fd5b505050506040513d601f19601f82011682018060405250810190611f719190612a12565b91509150336001600160a01b03167f09c6481cb228ea7f61ceb67c8e708038eb74bbb68cfcc54a9cfca199087ecfb78383604051611fb09291906131a9565b60405180910390a250506001600055565b600a546001600160801b0316431115610be557600854604080516318160ddd60e01b815290516000926001600160a01b0316916318160ddd916004808301926020929190829003018186803b15801561201957600080fd5b505afa15801561202d573d6000803e3d6000fd5b505050506040513d601f19601f8201168201806040525081019061205191906129fa565b905080156120e157600a54600090612072906001600160801b03164361326a565b600b54909150600090612085908361324b565b90508261209a670de0b6b3a76400008361324b565b6120a4919061322b565b600a546120c19190600160801b90046001600160801b03166131e8565b600a80546001600160801b03928316600160801b02921691909117905550505b600a80546fffffffffffffffffffffffffffffffff1916436001600160801b0390811691909117918290556040517f982b813c7d00a9ffce9441ba40f429b2e4a35068d75532f496d0c63585c2fa689261214b92818116928692600160801b90049091169061317d565b60405180910390a150565b6006544210156121785760405162461bcd60e51b81526004016104cf9061307f565b6002600054141561219b5760405162461bcd60e51b81526004016104cf906130b6565b6002600055806121bd5760405162461bcd60e51b81526004016104cf90612fdc565b6121c5611fc1565b6008546040805163e5a6b10f60e01b815290516000926001600160a01b03169163e5a6b10f916004808301926020929190829003018186803b15801561220a57600080fd5b505afa15801561221e573d6000803e3d6000fd5b505050506040513d601f19601f82011682018060405250810190612242919061281c565b90506000600860009054906101000a90046001600160a01b03166001600160a01b031663f53fb2006040518163ffffffff1660e01b815260040160206040518083038186803b15801561229457600080fd5b505afa1580156122a8573d6000803e3d6000fd5b505050506040513d601f19601f820116820180604052508101906122cc91906129fa565b6008549091506122e990839033906001600160a01b0316866126ad565b600854604051637e348b7d60e01b81526001600160a01b0390911690637e348b7d9061231b9033908790600401612b5e565b600060405180830381600087803b15801561233557600080fd5b505af1158015612349573d6000803e3d6000fd5b5050600a54670de0b6b3a76400009250839150600160801b90046001600160801b0316612376868461324b565b612380919061324b565b61238a919061322b565b612394919061322b565b336000908152600960205260409020600101546123b19190613213565b33600090815260096020526040902060010155806123d784670de0b6b3a764000061324b565b6123e1919061322b565b336000908152600960205260409020600201546123fe9190613213565b33600081815260096020526040908190206002019290925560085491516001600160a01b03909216917fd3dba7b5565b16b7749db7d1938410a636e3c7a6ea46ed8ce7e259e19f2f3b9f906112f49087906131a0565b61245c6124c5565b6001600160a01b031661246d61110e565b6001600160a01b0316146124935760405162461bcd60e51b81526004016104cf90612fa7565b6001600160a01b0381166124b95760405162461bcd60e51b81526004016104cf90612c24565b6124c28161265b565b50565b3390565b6124d1611fc1565b6001600160a01b038116600090815260096020526040812060020154600a54909190670de0b6b3a76400009061251790600160801b90046001600160801b03168461324b565b612521919061322b565b6001600160a01b0384166000908152600960205260408120600101549192509061254b908361326a565b336000908152600960205260408120600101849055600754919250906001600160a01b03161580159061257d57508115155b156126095760075460405163186e465160e31b81526001600160a01b039091169063c3723288906125b49088908690600401612b5e565b602060405180830381600087803b1580156125ce57600080fd5b505af11580156125e2573d6000803e3d6000fd5b505050506040513d601f19601f8201168201806040525081019061260691906129fa565b90505b846001600160a01b0316336001600160a01b03167fa0306f61d3fafe13787b78e276cb6b644382854a66cb46daae14227d3ec267978360405161264c91906131a0565b60405180910390a35050505050565b600180546001600160a01b038381166001600160a01b0319831681179093556040519116919082907f8be0079c531659141344cd1fd0a4f28419497f9722a3daafe3b4186f6b6457e090600090a35050565b600080856001600160a01b03166323b872dd8686866040516024016126d493929190612b3a565b6040516020818303038152906040529060e01b6020820180517bffffffffffffffffffffffffffffffffffffffffffffffffffffffff83818316178352505050506040516127229190612a8c565b6000604051808303816000865af19150503d806000811461275f576040519150601f19603f3d011682016040523d82523d6000602084013e612764565b606091505b509150915081801561278e57508051158061278e57508080602001905181019061278e9190612925565b6127aa5760405162461bcd60e51b81526004016104cf90612d26565b505050505050565b60008083601f8401126127c3578182fd5b50813567ffffffffffffffff8111156127da578182fd5b6020830191508360208285010111156127f257600080fd5b9250929050565b60006020828403121561280a578081fd5b813561281581613297565b9392505050565b60006020828403121561282d578081fd5b815161281581613297565b6000806040838503121561284a578081fd5b823561285581613297565b9150602083013561286581613297565b809150509250929050565b600080600060608486031215612884578081fd5b833561288f81613297565b9250602084013561289f81613297565b915060408401356128af81613297565b809150509250925092565b6000806000606084860312156128ce578283fd5b83356128d981613297565b925060208401356128e981613297565b929592945050506040919091013590565b6000806040838503121561290c578182fd5b823561291781613297565b946020939093013593505050565b600060208284031215612936578081fd5b81518015158114612815578182fd5b600080600080600080600060a0888a03121561295f578283fd5b873567ffffffffffffffff80821115612976578485fd5b6129828b838c016127b2565b909950975060208a013591508082111561299a578485fd5b506129a78a828b016127b2565b90965094505060408801356129bb81613297565b925060608801356129cb81613297565b809250506080880135905092959891949750929550565b6000602082840312156129f3578081fd5b5035919050565b600060208284031215612a0b578081fd5b5051919050565b60008060408385031215612a24578182fd5b505080516020909101519092909150565b600080600060608486031215612a49578283fd5b8351925060208401519150604084015190509250925092565b60008284528282602086013780602084860101526020601f19601f85011685010190509392505050565b60008251815b81811015612aac5760208186018101518583015201612a92565b81811115612aba5782828501525b509190910192915050565b6001600160a01b0391909116815260200190565b6001600160a01b0392831681529116602082015260400190565b6001600160a01b0393841681529183166020830152909116604082015260600190565b6001600160a01b039384168152919092166020820152901515604082015260600190565b6001600160a01b039384168152919092166020820152604081019190915260600190565b6001600160a01b03929092168252602082015260400190565b6001600160a01b03929092168252602082015260606040820181905260009082015260800190565b600060808252612bb360808301888a612a62565b8281036020840152612bc6818789612a62565b9150506001600160a01b038085166040840152808416606084015250979650505050505050565b6020808252601c908201527f556e6f52653a207a65726f2063757272656e6379206164647265737300000000604082015260600190565b60208082526026908201527f4f776e61626c653a206e6577206f776e657220697320746865207a65726f206160408201527f6464726573730000000000000000000000000000000000000000000000000000606082015260800190565b60208082526013908201527f556e6f52653a207a65726f206164647265737300000000000000000000000000604082015260600190565b6020808252601a908201527f556e6f52653a7a65726f20666163746f72792061646472657373000000000000604082015260600190565b6020808252601f908201527f556e6f52653a20776974686472617720616d6f756e74206f766572666c6f7700604082015260600190565b60208082526031908201527f5472616e7366657248656c7065723a3a7472616e7366657246726f6d3a20747260408201527f616e7366657246726f6d206661696c6564000000000000000000000000000000606082015260800190565b60208082526017908201527f556e6f52653a2062616c616e6365206f766572666c6f77000000000000000000604082015260600190565b6020808252818101527f556e6f52653a207269736b20706f6f6c206372656174656420616c7265616479604082015260600190565b60208082526012908201527f556e6f52653a204c6f636b65642074696d650000000000000000000000000000604082015260600190565b60208082526011908201527f556e6f52653a207a65726f2076616c7565000000000000000000000000000000604082015260600190565b6020808252601c908201527f556e6f52653a207a65726f206f70657261746f72206164647265737300000000604082015260600190565b60208082526012908201527f556e6f52653a207a65726f20616d6f756e740000000000000000000000000000604082015260600190565b6020808252601b908201527f556e6f52653a7a65726f204c5020746f6b656e20616464726573730000000000604082015260600190565b60208082526019908201527f556e6f52653a207a65726f206f776e6572206164647265737300000000000000604082015260600190565b6020808252601f908201527f556e6f52653a206e6f7420616c6c6f77207a65726f206c6f636b2074696d6500604082015260600190565b6020808252601b908201527f556e6f52653a207a65726f20666163746f727920616464726573730000000000604082015260600190565b6020808252818101527f4f776e61626c653a2063616c6c6572206973206e6f7420746865206f776e6572604082015260600190565b60208082526011908201527f556e6f52653a205a45524f2056616c7565000000000000000000000000000000604082015260600190565b60208082526010908201527f556e6f52653a20466f7262696464656e00000000000000000000000000000000604082015260600190565b6020808252818101527f556e6f52653a20726577617264657220666163746f7279206e6f206578697374604082015260600190565b60208082526019908201527f556e6f52653a206e6f7420617661696c61626c652074696d6500000000000000604082015260600190565b6020808252601f908201527f5265656e7472616e637947756172643a207265656e7472616e742063616c6c00604082015260600190565b6020808252601b908201527f556e6f52653a206e6f7420616c6c6f77207a65726f2076616c75650000000000604082015260600190565b6020808252818101527f556e6f52653a206e6f7420616c6c6f77206f7468657273207472616e73666572604082015260600190565b6001600160801b039384168152919092166020820152604081019190915260600190565b6001600160801b0393841681526020810192909252909116604082015260600190565b90815260200190565b918252602082015260400190565b9283526020830191909152604082015260600190565b93845260208401929092526040830152606082015260800190565b60006001600160801b0380831681851680830382111561320a5761320a613281565b01949350505050565b6000821982111561322657613226613281565b500190565b60008261324657634e487b7160e01b81526012600452602481fd5b500490565b600081600019048311821515161561326557613265613281565b500290565b60008282101561327c5761327c613281565b500390565b634e487b7160e01b600052601160045260246000fd5b6001600160a01b03811681146124c257600080fdfea26469706673582212201cbd582ff93409ddd55712740aaa67549ee9b1d42d57603f62ca4053e4509a5864736f6c63430008000033",
  "devdoc": {
    "kind": "dev",
    "methods": {
      "createRiskPool(string,string,address,address,uint256)": {
        "details": "create Risk pool with UNO from SSRP owner"
      },
      "getTotalWithdrawPendingAmount()": {
        "details": "get total withdraw request amount in pending for the risk pool in UNO"
      },
      "getWithdrawRequestPerUser(address)": {
        "details": "get withdraw request amount in pending per user in UNO"
      },
      "leaveFromPending()": {
        "details": "user can submit claim again and receive his funds into his wallet after 10 days since last WR."
      },
      "leaveFromPoolInPending(uint256)": {
        "details": "WR will be in pending for 10 days at least"
      },
      "owner()": {
        "details": "Returns the address of the current owner."
      },
      "renounceOwnership()": {
        "details": "Leaves the contract without owner. It will not be possible to call `onlyOwner` functions anymore. Can only be called by the current owner. NOTE: Renouncing ownership will leave the contract without an owner, thereby removing any functionality that is only available to the owner."
      },
      "transferOwnership(address)": {
        "details": "Transfers ownership of the contract to a new account (`newOwner`). Can only be called by the current owner."
      }
    },
    "version": 1
  },
  "userdoc": {
    "kind": "user",
    "methods": {},
    "version": 1
  },
  "storageLayout": {
    "storage": [
      {
        "astId": 114,
        "contract": "contracts/SingleSidedReinsurancePool.sol:SingleSidedReinsurancePool",
        "label": "_status",
        "offset": 0,
        "slot": "0",
        "type": "t_uint256"
      },
      {
        "astId": 7,
        "contract": "contracts/SingleSidedReinsurancePool.sol:SingleSidedReinsurancePool",
        "label": "_owner",
        "offset": 0,
        "slot": "1",
        "type": "t_address"
      },
      {
        "astId": 11461,
        "contract": "contracts/SingleSidedReinsurancePool.sol:SingleSidedReinsurancePool",
        "label": "claimAssessor",
        "offset": 0,
        "slot": "2",
        "type": "t_address"
      },
      {
        "astId": 11463,
        "contract": "contracts/SingleSidedReinsurancePool.sol:SingleSidedReinsurancePool",
        "label": "migrateTo",
        "offset": 0,
        "slot": "3",
        "type": "t_address"
      },
      {
        "astId": 11465,
        "contract": "contracts/SingleSidedReinsurancePool.sol:SingleSidedReinsurancePool",
        "label": "syntheticSSRP",
        "offset": 0,
        "slot": "4",
        "type": "t_address"
      },
      {
        "astId": 11468,
        "contract": "contracts/SingleSidedReinsurancePool.sol:SingleSidedReinsurancePool",
        "label": "LOCK_TIME",
        "offset": 0,
        "slot": "5",
        "type": "t_uint256"
      },
      {
        "astId": 11473,
        "contract": "contracts/SingleSidedReinsurancePool.sol:SingleSidedReinsurancePool",
        "label": "STAKING_START_TIME",
        "offset": 0,
        "slot": "6",
        "type": "t_uint256"
      },
      {
        "astId": 11475,
        "contract": "contracts/SingleSidedReinsurancePool.sol:SingleSidedReinsurancePool",
        "label": "rewarder",
        "offset": 0,
        "slot": "7",
        "type": "t_address"
      },
      {
        "astId": 11478,
        "contract": "contracts/SingleSidedReinsurancePool.sol:SingleSidedReinsurancePool",
        "label": "riskPool",
        "offset": 0,
        "slot": "8",
        "type": "t_address"
      },
      {
        "astId": 11497,
        "contract": "contracts/SingleSidedReinsurancePool.sol:SingleSidedReinsurancePool",
        "label": "userInfo",
        "offset": 0,
        "slot": "9",
        "type": "t_mapping(t_address,t_struct(UserInfo)11492_storage)"
      },
      {
        "astId": 11500,
        "contract": "contracts/SingleSidedReinsurancePool.sol:SingleSidedReinsurancePool",
        "label": "poolInfo",
        "offset": 0,
        "slot": "10",
        "type": "t_struct(PoolInfo)11485_storage"
      }
    ],
    "types": {
      "t_address": {
        "encoding": "inplace",
        "label": "address",
        "numberOfBytes": "20"
      },
      "t_mapping(t_address,t_struct(UserInfo)11492_storage)": {
        "encoding": "mapping",
        "key": "t_address",
        "label": "mapping(address => struct SingleSidedReinsurancePool.UserInfo)",
        "numberOfBytes": "32",
        "value": "t_struct(UserInfo)11492_storage"
      },
      "t_struct(PoolInfo)11485_storage": {
        "encoding": "inplace",
        "label": "struct SingleSidedReinsurancePool.PoolInfo",
        "members": [
          {
            "astId": 11480,
            "contract": "contracts/SingleSidedReinsurancePool.sol:SingleSidedReinsurancePool",
            "label": "lastRewardBlock",
            "offset": 0,
            "slot": "0",
            "type": "t_uint128"
          },
          {
            "astId": 11482,
            "contract": "contracts/SingleSidedReinsurancePool.sol:SingleSidedReinsurancePool",
            "label": "accUnoPerShare",
            "offset": 16,
            "slot": "0",
            "type": "t_uint128"
          },
          {
            "astId": 11484,
            "contract": "contracts/SingleSidedReinsurancePool.sol:SingleSidedReinsurancePool",
            "label": "unoMultiplierPerBlock",
            "offset": 0,
            "slot": "1",
            "type": "t_uint256"
          }
        ],
        "numberOfBytes": "64"
      },
      "t_struct(UserInfo)11492_storage": {
        "encoding": "inplace",
        "label": "struct SingleSidedReinsurancePool.UserInfo",
        "members": [
          {
            "astId": 11487,
            "contract": "contracts/SingleSidedReinsurancePool.sol:SingleSidedReinsurancePool",
            "label": "lastWithdrawTime",
            "offset": 0,
            "slot": "0",
            "type": "t_uint256"
          },
          {
            "astId": 11489,
            "contract": "contracts/SingleSidedReinsurancePool.sol:SingleSidedReinsurancePool",
            "label": "rewardDebt",
            "offset": 0,
            "slot": "1",
            "type": "t_uint256"
          },
          {
            "astId": 11491,
            "contract": "contracts/SingleSidedReinsurancePool.sol:SingleSidedReinsurancePool",
            "label": "amount",
            "offset": 0,
            "slot": "2",
            "type": "t_uint256"
          }
        ],
        "numberOfBytes": "96"
      },
      "t_uint128": {
        "encoding": "inplace",
        "label": "uint128",
        "numberOfBytes": "16"
      },
      "t_uint256": {
        "encoding": "inplace",
        "label": "uint256",
        "numberOfBytes": "32"
      }
    }
  }
}