{
  "address": "0xc16d5d06154eCd6D6Dd7e2EcDd63f4070273F2E7",
  "abi": [
    {
      "inputs": [
        {
          "internalType": "address",
          "name": "_exchangeAgent",
          "type": "address"
        }
      ],
      "stateMutability": "nonpayable",
      "type": "constructor"
    },
    {
      "anonymous": false,
      "inputs": [
        {
          "indexed": true,
          "internalType": "address",
          "name": "_salesPolicy",
          "type": "address"
        }
      ],
      "name": "LogAddPolicy",
      "type": "event"
    },
    {
      "anonymous": false,
      "inputs": [
        {
          "indexed": true,
          "internalType": "address",
          "name": "_ssip",
          "type": "address"
        }
      ],
      "name": "LogAddPool",
      "type": "event"
    },
    {
      "anonymous": false,
      "inputs": [
        {
          "indexed": true,
          "internalType": "address",
          "name": "_policy",
          "type": "address"
        },
        {
          "indexed": false,
          "internalType": "uint256",
          "name": "_policyTokenId",
          "type": "uint256"
        }
      ],
      "name": "LogMarkToClaimPolicy",
      "type": "event"
    },
    {
      "anonymous": false,
      "inputs": [
        {
          "indexed": true,
          "internalType": "address",
          "name": "_policy",
          "type": "address"
        },
        {
          "indexed": false,
          "internalType": "uint256",
          "name": "_amount",
          "type": "uint256"
        },
        {
          "indexed": false,
          "internalType": "uint256",
          "name": "_policyUtilized",
          "type": "uint256"
        },
        {
          "indexed": false,
          "internalType": "uint256",
          "name": "_totalUtilizedAmount",
          "type": "uint256"
        }
      ],
      "name": "LogUpdatePolicyCoverage",
      "type": "event"
    },
    {
      "anonymous": false,
      "inputs": [
        {
          "indexed": true,
          "internalType": "address",
          "name": "_policy",
          "type": "address"
        },
        {
          "indexed": false,
          "internalType": "uint256",
          "name": "_policyTokenId",
          "type": "uint256"
        }
      ],
      "name": "LogUpdatePolicyExpired",
      "type": "event"
    },
    {
      "anonymous": false,
      "inputs": [
        {
          "indexed": true,
          "internalType": "address",
          "name": "_ssip",
          "type": "address"
        },
        {
          "indexed": false,
          "internalType": "uint256",
          "name": "_poolCapital",
          "type": "uint256"
        },
        {
          "indexed": false,
          "internalType": "uint256",
          "name": "_totalCapital",
          "type": "uint256"
        }
      ],
      "name": "LogUpdatePoolCapital",
      "type": "event"
    },
    {
      "inputs": [],
      "name": "CALC_PRECISION",
      "outputs": [
        {
          "internalType": "uint256",
          "name": "",
          "type": "uint256"
        }
      ],
      "stateMutability": "view",
      "type": "function"
    },
    {
      "inputs": [],
      "name": "MCR",
      "outputs": [
        {
          "internalType": "uint256",
          "name": "",
          "type": "uint256"
        }
      ],
      "stateMutability": "view",
      "type": "function"
    },
    {
      "inputs": [],
      "name": "MLR",
      "outputs": [
        {
          "internalType": "uint256",
          "name": "",
          "type": "uint256"
        }
      ],
      "stateMutability": "view",
      "type": "function"
    },
    {
      "inputs": [],
      "name": "POLICY_UPDATE_PERIOD",
      "outputs": [
        {
          "internalType": "uint256",
          "name": "",
          "type": "uint256"
        }
      ],
      "stateMutability": "view",
      "type": "function"
    },
    {
      "inputs": [
        {
          "internalType": "uint256",
          "name": "_stakingAmount",
          "type": "uint256"
        },
        {
          "internalType": "uint256",
          "name": "_stakingAmountInUSDT",
          "type": "uint256"
        }
      ],
      "name": "SSIPStaking",
      "outputs": [],
      "stateMutability": "nonpayable",
      "type": "function"
    },
    {
      "inputs": [
        {
          "internalType": "uint256",
          "name": "_withdrawAmount",
          "type": "uint256"
        },
        {
          "internalType": "uint256",
          "name": "_withdrawAmountInUSDT",
          "type": "uint256"
        }
      ],
      "name": "SSIPWithdraw",
      "outputs": [],
      "stateMutability": "nonpayable",
      "type": "function"
    },
    {
      "inputs": [
        {
          "internalType": "address",
          "name": "_policy",
          "type": "address"
        }
      ],
      "name": "addPolicy",
      "outputs": [],
      "stateMutability": "nonpayable",
      "type": "function"
    },
    {
      "inputs": [
        {
          "internalType": "address",
          "name": "_ssip",
          "type": "address"
        }
      ],
      "name": "addPool",
      "outputs": [],
      "stateMutability": "nonpayable",
      "type": "function"
    },
    {
      "inputs": [],
      "name": "exchangeAgent",
      "outputs": [
        {
          "internalType": "address",
          "name": "",
          "type": "address"
        }
      ],
      "stateMutability": "view",
      "type": "function"
    },
    {
      "inputs": [],
      "name": "lastUpdateTime",
      "outputs": [
        {
          "internalType": "uint256",
          "name": "",
          "type": "uint256"
        }
      ],
      "stateMutability": "view",
      "type": "function"
    },
    {
      "inputs": [
        {
          "internalType": "address",
          "name": "_policy",
          "type": "address"
        },
        {
          "internalType": "uint256",
          "name": "_policyId",
          "type": "uint256"
        }
      ],
      "name": "markToClaimPolicy",
      "outputs": [],
      "stateMutability": "nonpayable",
      "type": "function"
    },
    {
      "inputs": [],
      "name": "owner",
      "outputs": [
        {
          "internalType": "address",
          "name": "",
          "type": "address"
        }
      ],
      "stateMutability": "view",
      "type": "function"
    },
    {
      "inputs": [
        {
          "internalType": "address",
          "name": "",
          "type": "address"
        }
      ],
      "name": "policyInfo",
      "outputs": [
        {
          "internalType": "uint256",
          "name": "utilizedAmount",
          "type": "uint256"
        },
        {
          "internalType": "bool",
          "name": "exist",
          "type": "bool"
        }
      ],
      "stateMutability": "view",
      "type": "function"
    },
    {
      "inputs": [
        {
          "internalType": "uint256",
          "name": "",
          "type": "uint256"
        }
      ],
      "name": "policyList",
      "outputs": [
        {
          "internalType": "address",
          "name": "",
          "type": "address"
        }
      ],
      "stateMutability": "view",
      "type": "function"
    },
    {
      "inputs": [
        {
          "internalType": "uint256",
          "name": "_coverageAmount",
          "type": "uint256"
        }
      ],
      "name": "policySale",
      "outputs": [],
      "stateMutability": "nonpayable",
      "type": "function"
    },
    {
      "inputs": [
        {
          "internalType": "address",
          "name": "",
          "type": "address"
        }
      ],
      "name": "poolInfo",
      "outputs": [
        {
          "internalType": "uint256",
          "name": "totalCapital",
          "type": "uint256"
        },
        {
          "internalType": "uint256",
          "name": "totalCapitalInUSDT",
          "type": "uint256"
        },
        {
          "internalType": "bool",
          "name": "exist",
          "type": "bool"
        }
      ],
      "stateMutability": "view",
      "type": "function"
    },
    {
      "inputs": [
        {
          "internalType": "uint256",
          "name": "",
          "type": "uint256"
        }
      ],
      "name": "poolList",
      "outputs": [
        {
          "internalType": "address",
          "name": "",
          "type": "address"
        }
      ],
      "stateMutability": "view",
      "type": "function"
    },
    {
      "inputs": [
        {
          "internalType": "address",
          "name": "_exchangeAgent",
          "type": "address"
        }
      ],
      "name": "setExchangeAgent",
      "outputs": [],
      "stateMutability": "nonpayable",
      "type": "function"
    },
    {
      "inputs": [
        {
          "internalType": "uint256",
          "name": "_MCR",
          "type": "uint256"
        }
      ],
      "name": "setMCR",
      "outputs": [],
      "stateMutability": "nonpayable",
      "type": "function"
    },
    {
      "inputs": [
        {
          "internalType": "uint256",
          "name": "_MLR",
          "type": "uint256"
        }
      ],
      "name": "setMLR",
      "outputs": [],
      "stateMutability": "nonpayable",
      "type": "function"
    },
    {
      "inputs": [],
      "name": "totalCapitalStaked",
      "outputs": [
        {
          "internalType": "uint256",
          "name": "",
          "type": "uint256"
        }
      ],
      "stateMutability": "view",
      "type": "function"
    },
    {
      "inputs": [],
      "name": "totalCapitalStakedInUSDT",
      "outputs": [
        {
          "internalType": "uint256",
          "name": "",
          "type": "uint256"
        }
      ],
      "stateMutability": "view",
      "type": "function"
    },
    {
      "inputs": [],
      "name": "totalUtilizedAmount",
      "outputs": [
        {
          "internalType": "uint256",
          "name": "",
          "type": "uint256"
        }
      ],
      "stateMutability": "view",
      "type": "function"
    },
    {
      "inputs": [
        {
          "internalType": "address",
          "name": "_policyAddr",
          "type": "address"
        },
        {
          "internalType": "uint256",
          "name": "_policyId",
          "type": "uint256"
        }
      ],
      "name": "updatePolicyStatus",
      "outputs": [],
      "stateMutability": "nonpayable",
      "type": "function"
    }
  ],
  "transactionHash": "0x79cf1c3d7ab3c4d76025946c259bc9b2f7fe07ac17fe2041a02380ddc939b18a",
  "args": [
    "0xA31158b2fDF02a6E14fbd12F121F03657b92d1B1"
  ],
  "solcInputHash": "a4d91358c036d420da7aee9136e29f67",
  "bytecode": "0x608060405262015180600c55670de0b6b3a764000060105534801561002357600080fd5b506040516115983803806115988339810160408190526100429161007a565b600160008190558054336001600160a01b031991821617909155600280549091166001600160a01b03929092169190911790556100a8565b60006020828403121561008b578081fd5b81516001600160a01b03811681146100a1578182fd5b9392505050565b6114e1806100b76000396000f3fe608060405234801561001057600080fd5b50600436106101985760003560e01c806392ff38ec116100e3578063d8c5c8631161008c578063e13eaa6a11610066578063e13eaa6a146102fd578063e462ec1f14610305578063f3ae60271461031857610198565b8063d8c5c863146102cf578063d914cd4b146102e2578063d9203b91146102f557610198565b8063b84ef081116100bd578063b84ef081146102ac578063c8f33c91146102bf578063d4688a45146102c757610198565b806392ff38ec1461026f5780639a7b5f1114610277578063a0931af21461029957610198565b806355afa2431161014557806386e4c2ad1161011f57806386e4c2ad1461024c5780638bb708311461025f5780638da5cb5b1461026757610198565b806355afa2431461022957806356704ace14610231578063794e57241461024457610198565b8063385a128f11610176578063385a128f146101ee5780634dc70bac146102015780634fdc9ea91461021657610198565b806318a00d8e1461019d5780632364778a146101b25780632a48235b146101c5575b600080fd5b6101b06101ab366004611010565b610339565b005b6101b06101c03660046110be565b6103e1565b6101d86101d33660046110a6565b610473565b6040516101e591906110df565b60405180910390f35b6101b06101fc3660046110a6565b61049d565b610209610516565b6040516101e591906113ba565b6101d86102243660046110a6565b61051c565b61020961052c565b6101b061023f366004611033565b610532565b6102096106ef565b6101b061025a366004611033565b6106f5565b610209610880565b6101d8610886565b610209610895565b61028a610285366004611010565b61089b565b6040516101e5939291906113e1565b6101b06102a73660046110a6565b6108bf565b6101b06102ba366004611010565b610951565b610209610a7c565b610209610a82565b6101b06102dd3660046110a6565b610a88565b6101b06102f0366004611010565b610b01565b6101d8610c12565b610209610c21565b6101b06103133660046110be565b610c27565b61032b610326366004611010565b610c8b565b6040516101e59291906113c3565b6001546001600160a01b0316331461036c5760405162461bcd60e51b815260040161036390611128565b60405180910390fd5b6002600054141561038f5760405162461bcd60e51b815260040161036390611315565b60026000556001600160a01b0381166103ba5760405162461bcd60e51b81526004016103639061115f565b600280546001600160a01b0319166001600160a01b03929092169190911790556001600055565b600260005414156104045760405162461bcd60e51b815260040161036390611315565b60026000818155338152600360205260409020015460ff166104385760405162461bcd60e51b8152600401610363906112de565b61044181610ca7565b61045d5760405162461bcd60e51b81526004016103639061123b565b61046a3383836000610cdc565b50506001600055565b6004818154811061048357600080fd5b6000918252602090912001546001600160a01b0316905081565b6001546001600160a01b031633146104c75760405162461bcd60e51b815260040161036390611128565b600260005414156104ea5760405162461bcd60e51b815260040161036390611315565b60026000558061050c5760405162461bcd60e51b815260040161036390611196565b600e556001600055565b60105481565b6009818154811061048357600080fd5b60075481565b600260005414156105555760405162461bcd60e51b815260040161036390611315565b6002600055600d54421180156105795750600c54600d546105769042611466565b10155b6105955760405162461bcd60e51b815260040161036390611270565b6000806000846001600160a01b0316637a5402e9856040518263ffffffff1660e01b81526004016105c691906113ba565b60a06040518083038186803b1580156105de57600080fd5b505afa1580156105f2573d6000803e3d6000fd5b505050506040513d601f19601f82011682018060405250810190610616919061105e565b50935093509350506000818361062c919061140f565b4210801591506106e25761064286856000610ea4565b6040516352eaf0a160e11b81526001600160a01b0387169063a5d5e1429061066e9088906004016113ba565b600060405180830381600087803b15801561068857600080fd5b505af115801561069c573d6000803e3d6000fd5b50505050856001600160a01b03167faf1c77a8196c946ab8e645210cd1e2685b4fb758ddfd474fd918298854dea6fc866040516106d991906113ba565b60405180910390a25b5050600160005550505050565b600e5481565b6001546001600160a01b0316331461071f5760405162461bcd60e51b815260040161036390611128565b600260005414156107425760405162461bcd60e51b815260040161036390611315565b60026000908155604051637a5402e960e01b81526001600160a01b03841690637a5402e9906107759085906004016113ba565b60a06040518083038186803b15801561078d57600080fd5b505afa1580156107a1573d6000803e3d6000fd5b505050506040513d601f19601f820116820180604052508101906107c5919061105e565b5050509150506107d783826000610ea4565b6040516319d9b48f60e11b81526001600160a01b038416906333b3691e906108039085906004016113ba565b600060405180830381600087803b15801561081d57600080fd5b505af1158015610831573d6000803e3d6000fd5b50505050826001600160a01b03167f56b46e5b13fdb3c0b1989f448e91b2ad68cf0c8e8ddd87f996720708ae3a15698360405161086e91906113ba565b60405180910390a25050600160005550565b600f5481565b6001546001600160a01b031681565b60065481565b60036020526000908152604090208054600182015460029092015490919060ff1683565b600260005414156108e25760405162461bcd60e51b815260040161036390611315565b600260009081553381526008602052604090206001015460ff166109185760405162461bcd60e51b8152600401610363906112a7565b61092181610fd2565b61093d5760405162461bcd60e51b8152600401610363906110f3565b61094933826001610ea4565b506001600055565b600260005414156109745760405162461bcd60e51b815260040161036390611315565b600260009081556001600160a01b03821681526008602052604090206001015460ff16156109b45760405162461bcd60e51b815260040161036390611383565b6009805460018082019092557f6e1540171b6c0c960b71a7020d9f60077f6af931a8bbf590da0223dacf75c7af0180546001600160a01b0319166001600160a01b0384169081179091556040805180820182526000808252602080830186815294825260089052919091209051815590519101805460ff1916911515919091179055610a40600a611007565b6040516001600160a01b038216907f0789738a8762772f9c60cff4d99f9abd7acfc972d634b64eeb4c98370cce70ee90600090a2506001600055565b600d5481565b600b5481565b6001546001600160a01b03163314610ab25760405162461bcd60e51b815260040161036390611128565b60026000541415610ad55760405162461bcd60e51b815260040161036390611315565b600260005580610af75760405162461bcd60e51b815260040161036390611196565b600f556001600055565b6001600160a01b03811660009081526003602052604090206002015460ff1615610b3d5760405162461bcd60e51b815260040161036390611204565b6004805460018082019092557f8a35acfbc15ff81a39ae7d344fd709f28e8600b4aa8c65c6b64bfe7fe36bd19b0180546001600160a01b0319166001600160a01b0384169081179091556040805160608101825260008082526020808301828152838501878152958352600390915292902090518155905192810192909255516002909101805460ff1916911515919091179055610bdb6005611007565b6040516001600160a01b038216907f0efea706f79fea31d38bda2770598b35fe0bf3c0332f91d3fb62bf987f3b2e3390600090a250565b6002546001600160a01b031681565b600c5481565b60026000541415610c4a5760405162461bcd60e51b815260040161036390611315565b60026000818155338152600360205260409020015460ff16610c7e5760405162461bcd60e51b8152600401610363906112de565b61046a3383836001610cdc565b6008602052600090815260409020805460019091015460ff1682565b6000601054600e54600754610cbc9190611447565b610cc69190611427565b82600754610cd49190611466565b101592915050565b80610d19576001600160a01b038416600090815260036020526040902054831115610d195760405162461bcd60e51b81526004016103639061134c565b80610d47576001600160a01b038416600090815260036020526040902054610d42908490611466565b610d6b565b6001600160a01b038416600090815260036020526040902054610d6b90849061140f565b6001600160a01b03851660009081526003602052604090205580610db5576001600160a01b038416600090815260036020526040902060010154610db0908390611466565b610ddc565b6001600160a01b038416600090815260036020526040902060010154610ddc90839061140f565b6001600160a01b03851660009081526003602052604090206001015580610e105782600654610e0b9190611466565b610e1e565b82600654610e1e919061140f565b60065580610e395781600754610e349190611466565b610e47565b81600754610e47919061140f565b6007556001600160a01b038416600081815260036020526040908190205460065491517f4c54f63d510ce2f2f9bf99bf203458cb67aa75fae97ccab560a1654eba9dbf2492610e9692916113d3565b60405180910390a250505050565b80610ee1576001600160a01b038316600090815260086020526040902054821115610ee15760405162461bcd60e51b8152600401610363906111cd565b80610f0f576001600160a01b038316600090815260086020526040902054610f0a908390611466565b610f33565b6001600160a01b038316600090815260086020526040902054610f3390839061140f565b6001600160a01b03841660009081526008602052604090205580610f645781600b54610f5f9190611466565b610f72565b81600b54610f72919061140f565b600b8190556001600160a01b0384166000818152600860205260409081902054905191927facece99dd8b86cb96519fb17caded4d103b35a8261463d0d11f80a411460730092610fc592879290916113f9565b60405180910390a2505050565b6000601054600f54600754610fe79190611447565b610ff19190611427565b82600b54610fff919061140f565b111592915050565b80546001019055565b600060208284031215611021578081fd5b813561102c81611493565b9392505050565b60008060408385031215611045578081fd5b823561105081611493565b946020939093013593505050565b600080600080600060a08688031215611075578081fd5b855161108081611493565b602087015160408801516060890151608090990151929a91995097965090945092505050565b6000602082840312156110b7578081fd5b5035919050565b600080604083850312156110d0578182fd5b50508035926020909101359150565b6001600160a01b0391909116815260200190565b6020808252818101527f556e6f52653a206d6178696d756d206c65766572616765206f766572666c6f77604082015260600190565b6020808252601e908201527f556e6f52653a204361706974616c204167656e7420466f7262696464656e0000604082015260600190565b60208082526013908201527f556e6f52653a207a65726f206164647265737300000000000000000000000000604082015260600190565b6020808252600f908201527f556e6f52653a207a65726f206d63720000000000000000000000000000000000604082015260600190565b6020808252601f908201527f556e6f52653a20706f6c69637920636f766572616765206f766572666c6f7700604082015260600190565b60208082526019908201527f556e6f52653a20616c726561647920657869737420706f6f6c00000000000000604082015260600190565b6020808252818101527f556e6f52653a206d696e696d756d206361706974616c20756e646572666c6f77604082015260600190565b6020808252601c908201527f556e6f52653a206e6f742075706461746520706572696f642079657400000000604082015260600190565b60208082526016908201527f556e6f52653a206e6f20657869737420706f6c69637900000000000000000000604082015260600190565b60208082526014908201527f556e6f52653a206e6f2065786973742073736970000000000000000000000000604082015260600190565b6020808252601f908201527f5265656e7472616e637947756172643a207265656e7472616e742063616c6c00604082015260600190565b6020808252601c908201527f556e6f52653a20706f6f6c206361706974616c206f766572666c6f7700000000604082015260600190565b6020808252601b908201527f556e6f52653a20616c726561647920657869737420706f6c6963790000000000604082015260600190565b90815260200190565b9182521515602082015260400190565b918252602082015260400190565b92835260208301919091521515604082015260600190565b9283526020830191909152604082015260600190565b600082198211156114225761142261147d565b500190565b60008261144257634e487b7160e01b81526012600452602481fd5b500490565b60008160001904831182151516156114615761146161147d565b500290565b6000828210156114785761147861147d565b500390565b634e487b7160e01b600052601160045260246000fd5b6001600160a01b03811681146114a857600080fd5b5056fea26469706673582212202a89ecbac135cccb40d338031af4e572507aab14452390f61886fc0d8904ab8764736f6c63430008000033",
  "devdoc": {
    "kind": "dev",
    "methods": {},
    "version": 1
  },
  "userdoc": {
    "kind": "user",
    "methods": {},
    "version": 1
  },
  "storageLayout": {
    "storage": [
      {
        "astId": 114,
        "contract": "contracts/CapitalAgent.sol:CapitalAgent",
        "label": "_status",
        "offset": 0,
        "slot": "0",
        "type": "t_uint256"
      },
      {
        "astId": 2421,
        "contract": "contracts/CapitalAgent.sol:CapitalAgent",
        "label": "owner",
        "offset": 0,
        "slot": "1",
        "type": "t_address"
      },
      {
        "astId": 2423,
        "contract": "contracts/CapitalAgent.sol:CapitalAgent",
        "label": "exchangeAgent",
        "offset": 0,
        "slot": "2",
        "type": "t_address"
      },
      {
        "astId": 2440,
        "contract": "contracts/CapitalAgent.sol:CapitalAgent",
        "label": "poolInfo",
        "offset": 0,
        "slot": "3",
        "type": "t_mapping(t_address,t_struct(PoolInfo)2430_storage)"
      },
      {
        "astId": 2443,
        "contract": "contracts/CapitalAgent.sol:CapitalAgent",
        "label": "poolList",
        "offset": 0,
        "slot": "4",
        "type": "t_array(t_address)dyn_storage"
      },
      {
        "astId": 2446,
        "contract": "contracts/CapitalAgent.sol:CapitalAgent",
        "label": "poolIds",
        "offset": 0,
        "slot": "5",
        "type": "t_struct(Counter)2094_storage"
      },
      {
        "astId": 2448,
        "contract": "contracts/CapitalAgent.sol:CapitalAgent",
        "label": "totalCapitalStaked",
        "offset": 0,
        "slot": "6",
        "type": "t_uint256"
      },
      {
        "astId": 2450,
        "contract": "contracts/CapitalAgent.sol:CapitalAgent",
        "label": "totalCapitalStakedInUSDT",
        "offset": 0,
        "slot": "7",
        "type": "t_uint256"
      },
      {
        "astId": 2455,
        "contract": "contracts/CapitalAgent.sol:CapitalAgent",
        "label": "policyInfo",
        "offset": 0,
        "slot": "8",
        "type": "t_mapping(t_address,t_struct(PolicyInfo)2435_storage)"
      },
      {
        "astId": 2458,
        "contract": "contracts/CapitalAgent.sol:CapitalAgent",
        "label": "policyList",
        "offset": 0,
        "slot": "9",
        "type": "t_array(t_address)dyn_storage"
      },
      {
        "astId": 2461,
        "contract": "contracts/CapitalAgent.sol:CapitalAgent",
        "label": "policyIds",
        "offset": 0,
        "slot": "10",
        "type": "t_struct(Counter)2094_storage"
      },
      {
        "astId": 2463,
        "contract": "contracts/CapitalAgent.sol:CapitalAgent",
        "label": "totalUtilizedAmount",
        "offset": 0,
        "slot": "11",
        "type": "t_uint256"
      },
      {
        "astId": 2466,
        "contract": "contracts/CapitalAgent.sol:CapitalAgent",
        "label": "POLICY_UPDATE_PERIOD",
        "offset": 0,
        "slot": "12",
        "type": "t_uint256"
      },
      {
        "astId": 2468,
        "contract": "contracts/CapitalAgent.sol:CapitalAgent",
        "label": "lastUpdateTime",
        "offset": 0,
        "slot": "13",
        "type": "t_uint256"
      },
      {
        "astId": 2470,
        "contract": "contracts/CapitalAgent.sol:CapitalAgent",
        "label": "MCR",
        "offset": 0,
        "slot": "14",
        "type": "t_uint256"
      },
      {
        "astId": 2472,
        "contract": "contracts/CapitalAgent.sol:CapitalAgent",
        "label": "MLR",
        "offset": 0,
        "slot": "15",
        "type": "t_uint256"
      },
      {
        "astId": 2475,
        "contract": "contracts/CapitalAgent.sol:CapitalAgent",
        "label": "CALC_PRECISION",
        "offset": 0,
        "slot": "16",
        "type": "t_uint256"
      }
    ],
    "types": {
      "t_address": {
        "encoding": "inplace",
        "label": "address",
        "numberOfBytes": "20"
      },
      "t_array(t_address)dyn_storage": {
        "base": "t_address",
        "encoding": "dynamic_array",
        "label": "address[]",
        "numberOfBytes": "32"
      },
      "t_bool": {
        "encoding": "inplace",
        "label": "bool",
        "numberOfBytes": "1"
      },
      "t_mapping(t_address,t_struct(PolicyInfo)2435_storage)": {
        "encoding": "mapping",
        "key": "t_address",
        "label": "mapping(address => struct CapitalAgent.PolicyInfo)",
        "numberOfBytes": "32",
        "value": "t_struct(PolicyInfo)2435_storage"
      },
      "t_mapping(t_address,t_struct(PoolInfo)2430_storage)": {
        "encoding": "mapping",
        "key": "t_address",
        "label": "mapping(address => struct CapitalAgent.PoolInfo)",
        "numberOfBytes": "32",
        "value": "t_struct(PoolInfo)2430_storage"
      },
      "t_struct(Counter)2094_storage": {
        "encoding": "inplace",
        "label": "struct Counters.Counter",
        "members": [
          {
            "astId": 2093,
            "contract": "contracts/CapitalAgent.sol:CapitalAgent",
            "label": "_value",
            "offset": 0,
            "slot": "0",
            "type": "t_uint256"
          }
        ],
        "numberOfBytes": "32"
      },
      "t_struct(PolicyInfo)2435_storage": {
        "encoding": "inplace",
        "label": "struct CapitalAgent.PolicyInfo",
        "members": [
          {
            "astId": 2432,
            "contract": "contracts/CapitalAgent.sol:CapitalAgent",
            "label": "utilizedAmount",
            "offset": 0,
            "slot": "0",
            "type": "t_uint256"
          },
          {
            "astId": 2434,
            "contract": "contracts/CapitalAgent.sol:CapitalAgent",
            "label": "exist",
            "offset": 0,
            "slot": "1",
            "type": "t_bool"
          }
        ],
        "numberOfBytes": "64"
      },
      "t_struct(PoolInfo)2430_storage": {
        "encoding": "inplace",
        "label": "struct CapitalAgent.PoolInfo",
        "members": [
          {
            "astId": 2425,
            "contract": "contracts/CapitalAgent.sol:CapitalAgent",
            "label": "totalCapital",
            "offset": 0,
            "slot": "0",
            "type": "t_uint256"
          },
          {
            "astId": 2427,
            "contract": "contracts/CapitalAgent.sol:CapitalAgent",
            "label": "totalCapitalInUSDT",
            "offset": 0,
            "slot": "1",
            "type": "t_uint256"
          },
          {
            "astId": 2429,
            "contract": "contracts/CapitalAgent.sol:CapitalAgent",
            "label": "exist",
            "offset": 0,
            "slot": "2",
            "type": "t_bool"
          }
        ],
        "numberOfBytes": "96"
      },
      "t_uint256": {
        "encoding": "inplace",
        "label": "uint256",
        "numberOfBytes": "32"
      }
    }
  }
}