{
  "address": "0xfFB1739Ccc47471C4EA74339190168A043E46b32",
  "abi": [
    {
      "inputs": [
        {
          "internalType": "address",
          "name": "_exchangeAgent",
          "type": "address"
        },
        {
          "internalType": "address",
          "name": "_unoToken",
          "type": "address"
        },
        {
          "internalType": "address",
          "name": "_usdtToken",
          "type": "address"
        }
      ],
      "stateMutability": "nonpayable",
      "type": "constructor"
    },
    {
      "anonymous": false,
      "inputs": [
        {
          "indexed": true,
          "internalType": "address",
          "name": "_operator",
          "type": "address"
        },
        {
          "indexed": true,
          "internalType": "address",
          "name": "_premiumPool",
          "type": "address"
        },
        {
          "indexed": false,
          "internalType": "uint256",
          "name": "_unoAmount",
          "type": "uint256"
        }
      ],
      "name": "LogBuyBackAndBurn",
      "type": "event"
    },
    {
      "anonymous": false,
      "inputs": [
        {
          "indexed": true,
          "internalType": "address",
          "name": "_from",
          "type": "address"
        },
        {
          "indexed": false,
          "internalType": "address",
          "name": "_premiumCurrency",
          "type": "address"
        },
        {
          "indexed": false,
          "internalType": "uint256",
          "name": "_premiumAmount",
          "type": "uint256"
        }
      ],
      "name": "LogCollectPremium",
      "type": "event"
    },
    {
      "anonymous": false,
      "inputs": [
        {
          "indexed": true,
          "internalType": "address",
          "name": "_rewarder",
          "type": "address"
        },
        {
          "indexed": true,
          "internalType": "address",
          "name": "_currency",
          "type": "address"
        },
        {
          "indexed": false,
          "internalType": "uint256",
          "name": "_amountDeposited",
          "type": "uint256"
        }
      ],
      "name": "LogDepositToSyntheticSSIPRewarder",
      "type": "event"
    },
    {
      "anonymous": false,
      "inputs": [
        {
          "indexed": true,
          "internalType": "address",
          "name": "_rewarder",
          "type": "address"
        },
        {
          "indexed": false,
          "internalType": "uint256",
          "name": "_ethAmountDeposited",
          "type": "uint256"
        }
      ],
      "name": "LogDepositToSyntheticSSRPRewarder",
      "type": "event"
    },
    {
      "anonymous": false,
      "inputs": [
        {
          "indexed": true,
          "internalType": "address",
          "name": "_currency",
          "type": "address"
        },
        {
          "indexed": true,
          "internalType": "address",
          "name": "_to",
          "type": "address"
        },
        {
          "indexed": false,
          "internalType": "uint256",
          "name": "_amount",
          "type": "uint256"
        }
      ],
      "name": "PremiumWithdraw",
      "type": "event"
    },
    {
      "inputs": [],
      "name": "BACK_BURN_PREMIUM_ETH",
      "outputs": [
        {
          "internalType": "uint256",
          "name": "",
          "type": "uint256"
        }
      ],
      "stateMutability": "view",
      "type": "function"
    },
    {
      "inputs": [
        {
          "internalType": "address",
          "name": "",
          "type": "address"
        }
      ],
      "name": "BACK_BURN_UNO_PREMIUM",
      "outputs": [
        {
          "internalType": "uint256",
          "name": "",
          "type": "uint256"
        }
      ],
      "stateMutability": "view",
      "type": "function"
    },
    {
      "inputs": [
        {
          "internalType": "address",
          "name": "",
          "type": "address"
        }
      ],
      "name": "SSIP_PREMIUM",
      "outputs": [
        {
          "internalType": "uint256",
          "name": "",
          "type": "uint256"
        }
      ],
      "stateMutability": "view",
      "type": "function"
    },
    {
      "inputs": [],
      "name": "SSIP_PREMIUM_ETH",
      "outputs": [
        {
          "internalType": "uint256",
          "name": "",
          "type": "uint256"
        }
      ],
      "stateMutability": "view",
      "type": "function"
    },
    {
      "inputs": [
        {
          "internalType": "address",
          "name": "",
          "type": "address"
        }
      ],
      "name": "SSRP_PREMIUM",
      "outputs": [
        {
          "internalType": "uint256",
          "name": "",
          "type": "uint256"
        }
      ],
      "stateMutability": "view",
      "type": "function"
    },
    {
      "inputs": [],
      "name": "SSRP_PREMIUM_ETH",
      "outputs": [
        {
          "internalType": "uint256",
          "name": "",
          "type": "uint256"
        }
      ],
      "stateMutability": "view",
      "type": "function"
    },
    {
      "inputs": [],
      "name": "UNO_TOKEN",
      "outputs": [
        {
          "internalType": "address",
          "name": "",
          "type": "address"
        }
      ],
      "stateMutability": "view",
      "type": "function"
    },
    {
      "inputs": [],
      "name": "USDT_TOKEN",
      "outputs": [
        {
          "internalType": "address",
          "name": "",
          "type": "address"
        }
      ],
      "stateMutability": "view",
      "type": "function"
    },
    {
      "inputs": [
        {
          "internalType": "address",
          "name": "_currency",
          "type": "address"
        }
      ],
      "name": "addCurrency",
      "outputs": [],
      "stateMutability": "nonpayable",
      "type": "function"
    },
    {
      "inputs": [
        {
          "internalType": "address",
          "name": "",
          "type": "address"
        }
      ],
      "name": "availableCurrencies",
      "outputs": [
        {
          "internalType": "bool",
          "name": "",
          "type": "bool"
        }
      ],
      "stateMutability": "view",
      "type": "function"
    },
    {
      "inputs": [
        {
          "internalType": "uint256",
          "name": "",
          "type": "uint256"
        }
      ],
      "name": "availableCurrencyList",
      "outputs": [
        {
          "internalType": "address",
          "name": "",
          "type": "address"
        }
      ],
      "stateMutability": "view",
      "type": "function"
    },
    {
      "inputs": [],
      "name": "burnAddress",
      "outputs": [
        {
          "internalType": "address",
          "name": "",
          "type": "address"
        }
      ],
      "stateMutability": "view",
      "type": "function"
    },
    {
      "inputs": [],
      "name": "buyBackAndBurn",
      "outputs": [],
      "stateMutability": "nonpayable",
      "type": "function"
    },
    {
      "inputs": [
        {
          "internalType": "address",
          "name": "_premiumCurrency",
          "type": "address"
        },
        {
          "internalType": "uint256",
          "name": "_premiumAmount",
          "type": "uint256"
        }
      ],
      "name": "collectPremium",
      "outputs": [],
      "stateMutability": "nonpayable",
      "type": "function"
    },
    {
      "inputs": [
        {
          "internalType": "uint256",
          "name": "_premiumAmount",
          "type": "uint256"
        }
      ],
      "name": "collectPremiumInETH",
      "outputs": [],
      "stateMutability": "payable",
      "type": "function"
    },
    {
      "inputs": [
        {
          "internalType": "address",
          "name": "_currency",
          "type": "address"
        },
        {
          "internalType": "address",
          "name": "_rewarder",
          "type": "address"
        }
      ],
      "name": "depositToSyntheticSSIPRewarder",
      "outputs": [],
      "stateMutability": "payable",
      "type": "function"
    },
    {
      "inputs": [
        {
          "internalType": "address",
          "name": "_rewarder",
          "type": "address"
        }
      ],
      "name": "depositToSyntheticSSRPRewarder",
      "outputs": [],
      "stateMutability": "payable",
      "type": "function"
    },
    {
      "inputs": [],
      "name": "exchangeAgent",
      "outputs": [
        {
          "internalType": "address",
          "name": "",
          "type": "address"
        }
      ],
      "stateMutability": "view",
      "type": "function"
    },
    {
      "inputs": [],
      "name": "owner",
      "outputs": [
        {
          "internalType": "address",
          "name": "",
          "type": "address"
        }
      ],
      "stateMutability": "view",
      "type": "function"
    },
    {
      "inputs": [
        {
          "internalType": "address",
          "name": "_currency",
          "type": "address"
        }
      ],
      "name": "removeCurrency",
      "outputs": [],
      "stateMutability": "nonpayable",
      "type": "function"
    },
    {
      "inputs": [
        {
          "internalType": "address",
          "name": "_currency",
          "type": "address"
        },
        {
          "internalType": "address",
          "name": "_to",
          "type": "address"
        },
        {
          "internalType": "uint256",
          "name": "_amount",
          "type": "uint256"
        }
      ],
      "name": "withdrawPremium",
      "outputs": [],
      "stateMutability": "nonpayable",
      "type": "function"
    },
    {
      "stateMutability": "payable",
      "type": "receive"
    }
  ],
  "transactionHash": "0x6c367a62c47d7df609af3965f6823e7d602eb74a2ac6b9ff48647678f55b5a91",
  "args": [
    "0xA31158b2fDF02a6E14fbd12F121F03657b92d1B1",
    "0x53fb43BaE4C13d6AFAD37fB37c3fC49f3Af433F5",
    "0x40c035016AD732b6cFce34c3F881040B6C6cf71E"
  ],
  "solcInputHash": "09308523ecc8e79e881eb162c1ddd7d0",
  "bytecode": "0x6080604052600019600d553480156200001757600080fd5b5060405162002078380380620020788339810160408190526200003a91620000aa565b60016000819055600280546001600160a01b039586166001600160a01b031991821617909155815481163317909155600380549385169382169390931790925560048054919093169116179055620000f3565b80516001600160a01b0381168114620000a557600080fd5b919050565b600080600060608486031215620000bf578283fd5b620000ca846200008d565b9250620000da602085016200008d565b9150620000ea604085016200008d565b90509250925092565b611f7580620001036000396000f3fe60806040526004361061013e5760003560e01c80638ab234b6116100bb578063c970e99f1161007f578063d9203b9111610059578063d9203b9114610357578063e980a96a1461036c578063f88822c41461037f57610145565b8063c970e99f1461030f578063d830c71514610324578063d84e305a1461033757610145565b80638ab234b6146102785780638c8ac76d1461029a5780638da5cb5b146102ba578063c4ddd57c146102cf578063c5d3a107146102ef57610145565b8063493721f511610102578063493721f5146101f95780635bb48a001461020e57806370d5ae051461022e578063729ae6b01461024357806377b330c91461026357610145565b8063095002b81461014a5780630cf84e0b146101755780630f97b97b1461019557806314074237146101b75780631af42c0f146101cc57610145565b3661014557005b600080fd5b34801561015657600080fd5b5061015f610392565b60405161016c9190611e97565b60405180910390f35b34801561018157600080fd5b5061015f6101903660046119a0565b610398565b3480156101a157600080fd5b506101aa6103aa565b60405161016c9190611ae0565b3480156101c357600080fd5b5061015f6103b9565b3480156101d857600080fd5b506101ec6101e73660046119a0565b6103bf565b60405161016c9190611b4b565b34801561020557600080fd5b5061015f6103d4565b34801561021a57600080fd5b506101aa610229366004611a77565b6103da565b34801561023a57600080fd5b506101aa610404565b34801561024f57600080fd5b5061015f61025e3660046119a0565b61040a565b34801561026f57600080fd5b506101aa61041c565b34801561028457600080fd5b506102986102933660046119a0565b61042b565b005b3480156102a657600080fd5b506102986102b5366004611a2e565b61050a565b3480156102c657600080fd5b506101aa61075b565b3480156102db57600080fd5b5061015f6102ea3660046119a0565b61076a565b3480156102fb57600080fd5b5061029861030a3660046119a0565b61077c565b34801561031b57600080fd5b5061029861094c565b610298610332366004611a77565b610dcd565b34801561034357600080fd5b506102986103523660046119f3565b610eb5565b34801561036357600080fd5b506101aa611059565b61029861037a3660046119c1565b611068565b61029861038d3660046119a0565b611233565b600c5481565b60096020526000908152604090205481565b6003546001600160a01b031681565b600a5481565b60056020526000908152604090205460ff1681565b600b5481565b600681815481106103ea57600080fd5b6000918252602090912001546001600160a01b0316905081565b61dead81565b60086020526000908152604090205481565b6004546001600160a01b031681565b6001546001600160a01b0316331461045e5760405162461bcd60e51b815260040161045590611cec565b60405180910390fd5b6001600160a01b03811660009081526005602052604090205460ff16156104975760405162461bcd60e51b815260040161045590611c7e565b6001600160a01b03166000818152600560205260408120805460ff191660019081179091556006805491820181559091527ff652222313e28459528d920b65115c16c04f3efc82aaedc97be59f3f377c0d3f01805473ffffffffffffffffffffffffffffffffffffffff19169091179055565b6002600054141561052d5760405162461bcd60e51b815260040161045590611e60565b600260009081556001600160a01b038316815260056020526040902054829060ff1661056b5760405162461bcd60e51b815260040161045590611bea565b6040516370a0823160e01b815282906001600160a01b038516906370a0823190610599903390600401611ae0565b60206040518083038186803b1580156105b157600080fd5b505afa1580156105c5573d6000803e3d6000fd5b505050506040513d601f19601f820116820180604052508101906105e99190611a8f565b10156106075760405162461bcd60e51b815260040161045590611cb5565b6106138333308561162f565b612710610622836103e8611ed8565b61062c9190611eb8565b6001600160a01b03841660009081526007602052604090205461064f9190611ea0565b6001600160a01b03841660009081526007602052604090205561271061067783611b58611ed8565b6106819190611eb8565b6001600160a01b0384166000908152600860205260409020546106a49190611ea0565b6001600160a01b0384166000908152600860205260409020556127106106cc836107d0611ed8565b6106d69190611eb8565b6001600160a01b0384166000908152600960205260409020546106f99190611ea0565b6001600160a01b03841660009081526009602052604090819020919091555133907f411101aad886ab4351e7c392d06f013b37a7c6c00b7f964bca364da03df0e7d5906107499086908690611b32565b60405180910390a25050600160005550565b6001546001600160a01b031681565b60076020526000908152604090205481565b6001546001600160a01b031633146107a65760405162461bcd60e51b815260040161045590611cec565b6001600160a01b03811660009081526005602052604090205460ff166107de5760405162461bcd60e51b815260040161045590611d91565b6001600160a01b0381166000908152600560205260408120805460ff1916905560068054919061080f600184611ef7565b8154811061082d57634e487b7160e01b600052603260045260246000fd5b60009182526020822001546001600160a01b031691505b82811015610945576006818154811061086d57634e487b7160e01b600052603260045260246000fd5b6000918252602090912001546001600160a01b03858116911614156109335781600682815481106108ae57634e487b7160e01b600052603260045260246000fd5b9060005260206000200160006101000a8154816001600160a01b0302191690836001600160a01b0316021790555060068054806108fb57634e487b7160e01b600052603160045260246000fd5b6000828152602090208101600019908101805473ffffffffffffffffffffffffffffffffffffffff1916905501905550610949915050565b8061093d81611f0e565b915050610844565b5050505b50565b6001546001600160a01b031633146109765760405162461bcd60e51b815260040161045590611cec565b600c5460009015610a3a57600254600c5461099a916001600160a01b03169061171f565b600254600354600c546040516393badc4160e01b81526001600160a01b03938416936393badc41936109d6936000939290911691600401611b0e565b602060405180830381600087803b1580156109f057600080fd5b505af1158015610a04573d6000803e3d6000fd5b505050506040513d601f19601f82011682018060405250810190610a289190611a8f565b610a329082611ea0565b6000600c5590505b60005b600654811015610d6e5760006009600060068481548110610a6e57634e487b7160e01b600052603260045260246000fd5b60009182526020808320909101546001600160a01b031683528201929092526040019020541115610d5c576009600060068381548110610abe57634e487b7160e01b600052603260045260246000fd5b60009182526020808320909101546001600160a01b031683528201929092526040019020546006805483908110610b0557634e487b7160e01b600052603260045260246000fd5b600091825260209091200154600254604051636eb1769f60e11b81526001600160a01b039283169263dd62ed3e92610b4592309290911690600401611af4565b60206040518083038186803b158015610b5d57600080fd5b505afa158015610b71573d6000803e3d6000fd5b505050506040513d601f19601f82011682018060405250810190610b959190611a8f565b1015610be657610be660068281548110610bbf57634e487b7160e01b600052603260045260246000fd5b600091825260209091200154600254600d546001600160a01b0392831692909116906117b1565b600254600680546000926001600160a01b0316916393badc419185908110610c1e57634e487b7160e01b600052603260045260246000fd5b6000918252602082200154600354600680546001600160a01b03938416949290931692600992919089908110610c6457634e487b7160e01b600052603260045260246000fd5b60009182526020808320909101546001600160a01b0316835282019290925260409081019091205490516001600160e01b031960e086901b168152610cae93929190600401611b0e565b602060405180830381600087803b158015610cc857600080fd5b505af1158015610cdc573d6000803e3d6000fd5b505050506040513d601f19601f82011682018060405250810190610d009190611a8f565b9050610d0c8184611ea0565b925060006009600060068581548110610d3557634e487b7160e01b600052603260045260246000fd5b60009182526020808320909101546001600160a01b03168352820192909252604001902055505b80610d6681611f0e565b915050610a3d565b508015610d8e57600354610d8e906001600160a01b031661dead8361189e565b604051309033907f94032d93ea01eeeccc1b1f03a7eddaf352c7cd85e246c6fc01afed0ddf6b5c1d90610dc2908590611e97565b60405180910390a350565b60026000541415610df05760405162461bcd60e51b815260040161045590611e60565b6002600055612710610e04826103e8611ed8565b610e0e9190611eb8565b600a54610e1b9190611ea0565b600a55612710610e2d82611b58611ed8565b610e379190611eb8565b600b54610e449190611ea0565b600b55612710610e56826107d0611ed8565b610e609190611eb8565b600c54610e6d9190611ea0565b600c5560405133907f411101aad886ab4351e7c392d06f013b37a7c6c00b7f964bca364da03df0e7d590610ea5906000908590611b32565b60405180910390a2506001600055565b6001546001600160a01b03163314610edf5760405162461bcd60e51b815260040161045590611cec565b6001600160a01b038216610f055760405162461bcd60e51b815260040161045590611b56565b60008111610f255760405162461bcd60e51b815260040161045590611d23565b6001600160a01b038316610f625780471015610f535760405162461bcd60e51b815260040161045590611d5a565b610f5d828261171f565b611009565b6040516370a0823160e01b815281906001600160a01b038516906370a0823190610f90903090600401611ae0565b60206040518083038186803b158015610fa857600080fd5b505afa158015610fbc573d6000803e3d6000fd5b505050506040513d601f19601f82011682018060405250810190610fe09190611a8f565b1015610ffe5760405162461bcd60e51b815260040161045590611d5a565b61100983838361189e565b816001600160a01b0316836001600160a01b03167f8d18a25569e967883ac0402e6991b4ac87616370a1c2ce59726abce4ef45bdb88360405161104c9190611e97565b60405180910390a3505050565b6002546001600160a01b031681565b6001546001600160a01b031633146110925760405162461bcd60e51b815260040161045590611cec565b600260005414156110b55760405162461bcd60e51b815260040161045590611e60565b60026000556001600160a01b0381166110e05760405162461bcd60e51b815260040161045590611b56565b6001600160a01b0382161580156110f957506000600b54115b156111645761110a81600b5461171f565b6000600b81905550816001600160a01b0316816001600160a01b03167f370cbb08cddf346c35e924a503aa223dcc1b75a993d7c23a602d2e4bc0802c10600b546040516111579190611e97565b60405180910390a361122a565b6001600160a01b03821660009081526005602052604090205460ff1680156111a357506001600160a01b03821660009081526008602052604090205415155b1561122a576001600160a01b0382166000908152600860205260409020546111ce908390839061189e565b6001600160a01b0380831660008181526008602052604080822091909155600b54905191928416917f370cbb08cddf346c35e924a503aa223dcc1b75a993d7c23a602d2e4bc0802c109161122191611e97565b60405180910390a35b50506001600055565b6001546001600160a01b0316331461125d5760405162461bcd60e51b815260040161045590611cec565b600260005414156112805760405162461bcd60e51b815260040161045590611e60565b60026000556001600160a01b0381166112ab5760405162461bcd60e51b815260040161045590611b56565b600a54600090156112cb57600a546112c39082611ea0565b6000600a5590505b60005b6006548110156115d457600060076000600684815481106112ff57634e487b7160e01b600052603260045260246000fd5b60009182526020808320909101546001600160a01b0316835282019290925260400190205411156115c257600760006006838154811061134f57634e487b7160e01b600052603260045260246000fd5b60009182526020808320909101546001600160a01b03168352820192909252604001902054600680548390811061139657634e487b7160e01b600052603260045260246000fd5b600091825260209091200154600254604051636eb1769f60e11b81526001600160a01b039283169263dd62ed3e926113d692309290911690600401611af4565b60206040518083038186803b1580156113ee57600080fd5b505afa158015611402573d6000803e3d6000fd5b505050506040513d601f19601f820116820180604052508101906114269190611a8f565b10156114505761145060068281548110610bbf57634e487b7160e01b600052603260045260246000fd5b600254600680546000926001600160a01b031691639a553968918590811061148857634e487b7160e01b600052603260045260246000fd5b9060005260206000200160009054906101000a90046001600160a01b031660076000600687815481106114cb57634e487b7160e01b600052603260045260246000fd5b60009182526020808320909101546001600160a01b0316835282019290925260409081019091205490516001600160e01b031960e085901b168152611514929190600401611b32565b602060405180830381600087803b15801561152e57600080fd5b505af1158015611542573d6000803e3d6000fd5b505050506040513d601f19601f820116820180604052508101906115669190611a8f565b90506115728184611ea0565b92506000600760006006858154811061159b57634e487b7160e01b600052603260045260246000fd5b60009182526020808320909101546001600160a01b03168352820192909252604001902055505b806115cc81611f0e565b9150506112ce565b50801561122a576115e5828261171f565b816001600160a01b03167f9a380c5d696c8e394928ff8981a11ee388a14e2f7e16d373d73486cf3c4862548260405161161e9190611e97565b60405180910390a250506001600055565b600080856001600160a01b03166323b872dd86868660405160240161165693929190611b0e565b6040516020818303038152906040529060e01b6020820180516001600160e01b03838183161783525050505060405161168f9190611aa7565b6000604051808303816000865af19150503d80600081146116cc576040519150601f19603f3d011682016040523d82523d6000602084013e6116d1565b606091505b50915091508180156116fb5750805115806116fb5750808060200190518101906116fb9190611a57565b6117175760405162461bcd60e51b815260040161045590611b8d565b505050505050565b604080516000808252602082019092526001600160a01b0384169083906040516117499190611aa7565b60006040518083038185875af1925050503d8060008114611786576040519150601f19603f3d011682016040523d82523d6000602084013e61178b565b606091505b50509050806117ac5760405162461bcd60e51b815260040161045590611c21565b505050565b600080846001600160a01b031663095ea7b385856040516024016117d6929190611b32565b6040516020818303038152906040529060e01b6020820180516001600160e01b03838183161783525050505060405161180f9190611aa7565b6000604051808303816000865af19150503d806000811461184c576040519150601f19603f3d011682016040523d82523d6000602084013e611851565b606091505b509150915081801561187b57508051158061187b57508080602001905181019061187b9190611a57565b6118975760405162461bcd60e51b815260040161045590611dc8565b5050505050565b600080846001600160a01b031663a9059cbb85856040516024016118c3929190611b32565b6040516020818303038152906040529060e01b6020820180516001600160e01b0383818316178352505050506040516118fc9190611aa7565b6000604051808303816000865af19150503d8060008114611939576040519150601f19603f3d011682016040523d82523d6000602084013e61193e565b606091505b50915091508180156119685750805115806119685750808060200190518101906119689190611a57565b6118975760405162461bcd60e51b815260040161045590611e13565b80356001600160a01b038116811461199b57600080fd5b919050565b6000602082840312156119b1578081fd5b6119ba82611984565b9392505050565b600080604083850312156119d3578081fd5b6119dc83611984565b91506119ea60208401611984565b90509250929050565b600080600060608486031215611a07578081fd5b611a1084611984565b9250611a1e60208501611984565b9150604084013590509250925092565b60008060408385031215611a40578182fd5b611a4983611984565b946020939093013593505050565b600060208284031215611a68578081fd5b815180151581146119ba578182fd5b600060208284031215611a88578081fd5b5035919050565b600060208284031215611aa0578081fd5b5051919050565b60008251815b81811015611ac75760208186018101518583015201611aad565b81811115611ad55782828501525b509190910192915050565b6001600160a01b0391909116815260200190565b6001600160a01b0392831681529116602082015260400190565b6001600160a01b039384168152919092166020820152604081019190915260600190565b6001600160a01b03929092168252602082015260400190565b901515815260200190565b60208082526013908201527f556e6f52653a207a65726f206164647265737300000000000000000000000000604082015260600190565b60208082526031908201527f5472616e7366657248656c7065723a3a7472616e7366657246726f6d3a20747260408201527f616e7366657246726f6d206661696c6564000000000000000000000000000000606082015260800190565b6020808252601b908201527f556e6f52653a206e6f7420616c6c6f7765642063757272656e63790000000000604082015260600190565b60208082526034908201527f5472616e7366657248656c7065723a3a736166655472616e736665724554483a60408201527f20455448207472616e73666572206661696c6564000000000000000000000000606082015260800190565b60208082526011908201527f416c726561647920617661696c61626c65000000000000000000000000000000604082015260600190565b6020808252601f908201527f556e6f52653a207072656d69756d2062616c616e6365206f766572666c6f7700604082015260600190565b6020808252601c908201527f556e6f52653a205072656d69756d506f6f6c20466f7262696464656e00000000604082015260600190565b60208082526012908201527f556e6f52653a207a65726f20616d6f756e740000000000000000000000000000604082015260600190565b6020808252601b908201527f556e6f52653a20496e73756666696369656e74205072656d69756d0000000000604082015260600190565b60208082526011908201527f4e6f7420617661696c61626c6520796574000000000000000000000000000000604082015260600190565b6020808252602b908201527f5472616e7366657248656c7065723a3a73616665417070726f76653a2061707060408201526a1c9bdd994819985a5b195960aa1b606082015260800190565b6020808252602d908201527f5472616e7366657248656c7065723a3a736166655472616e736665723a20747260408201526c185b9cd9995c8819985a5b1959609a1b606082015260800190565b6020808252601f908201527f5265656e7472616e637947756172643a207265656e7472616e742063616c6c00604082015260600190565b90815260200190565b60008219821115611eb357611eb3611f29565b500190565b600082611ed357634e487b7160e01b81526012600452602481fd5b500490565b6000816000190483118215151615611ef257611ef2611f29565b500290565b600082821015611f0957611f09611f29565b500390565b6000600019821415611f2257611f22611f29565b5060010190565b634e487b7160e01b600052601160045260246000fdfea26469706673582212209a07f3d0ea034dd9c60a6d9abc142f91d7fbd5ed5e8a4a98d97ef08e373ea3cd64736f6c63430008000033",
  "devdoc": {
    "kind": "dev",
    "methods": {},
    "version": 1
  },
  "userdoc": {
    "kind": "user",
    "methods": {},
    "version": 1
  },
  "storageLayout": {
    "storage": [
      {
        "astId": 114,
        "contract": "contracts/PremiumPool.sol:PremiumPool",
        "label": "_status",
        "offset": 0,
        "slot": "0",
        "type": "t_uint256"
      },
      {
        "astId": 3941,
        "contract": "contracts/PremiumPool.sol:PremiumPool",
        "label": "owner",
        "offset": 0,
        "slot": "1",
        "type": "t_address"
      },
      {
        "astId": 3943,
        "contract": "contracts/PremiumPool.sol:PremiumPool",
        "label": "exchangeAgent",
        "offset": 0,
        "slot": "2",
        "type": "t_address"
      },
      {
        "astId": 3945,
        "contract": "contracts/PremiumPool.sol:PremiumPool",
        "label": "UNO_TOKEN",
        "offset": 0,
        "slot": "3",
        "type": "t_address"
      },
      {
        "astId": 3947,
        "contract": "contracts/PremiumPool.sol:PremiumPool",
        "label": "USDT_TOKEN",
        "offset": 0,
        "slot": "4",
        "type": "t_address"
      },
      {
        "astId": 3951,
        "contract": "contracts/PremiumPool.sol:PremiumPool",
        "label": "availableCurrencies",
        "offset": 0,
        "slot": "5",
        "type": "t_mapping(t_address,t_bool)"
      },
      {
        "astId": 3954,
        "contract": "contracts/PremiumPool.sol:PremiumPool",
        "label": "availableCurrencyList",
        "offset": 0,
        "slot": "6",
        "type": "t_array(t_address)dyn_storage"
      },
      {
        "astId": 3961,
        "contract": "contracts/PremiumPool.sol:PremiumPool",
        "label": "SSRP_PREMIUM",
        "offset": 0,
        "slot": "7",
        "type": "t_mapping(t_address,t_uint256)"
      },
      {
        "astId": 3965,
        "contract": "contracts/PremiumPool.sol:PremiumPool",
        "label": "SSIP_PREMIUM",
        "offset": 0,
        "slot": "8",
        "type": "t_mapping(t_address,t_uint256)"
      },
      {
        "astId": 3969,
        "contract": "contracts/PremiumPool.sol:PremiumPool",
        "label": "BACK_BURN_UNO_PREMIUM",
        "offset": 0,
        "slot": "9",
        "type": "t_mapping(t_address,t_uint256)"
      },
      {
        "astId": 3971,
        "contract": "contracts/PremiumPool.sol:PremiumPool",
        "label": "SSRP_PREMIUM_ETH",
        "offset": 0,
        "slot": "10",
        "type": "t_uint256"
      },
      {
        "astId": 3973,
        "contract": "contracts/PremiumPool.sol:PremiumPool",
        "label": "SSIP_PREMIUM_ETH",
        "offset": 0,
        "slot": "11",
        "type": "t_uint256"
      },
      {
        "astId": 3975,
        "contract": "contracts/PremiumPool.sol:PremiumPool",
        "label": "BACK_BURN_PREMIUM_ETH",
        "offset": 0,
        "slot": "12",
        "type": "t_uint256"
      },
      {
        "astId": 3982,
        "contract": "contracts/PremiumPool.sol:PremiumPool",
        "label": "MAX_INTEGER",
        "offset": 0,
        "slot": "13",
        "type": "t_uint256"
      }
    ],
    "types": {
      "t_address": {
        "encoding": "inplace",
        "label": "address",
        "numberOfBytes": "20"
      },
      "t_array(t_address)dyn_storage": {
        "base": "t_address",
        "encoding": "dynamic_array",
        "label": "address[]",
        "numberOfBytes": "32"
      },
      "t_bool": {
        "encoding": "inplace",
        "label": "bool",
        "numberOfBytes": "1"
      },
      "t_mapping(t_address,t_bool)": {
        "encoding": "mapping",
        "key": "t_address",
        "label": "mapping(address => bool)",
        "numberOfBytes": "32",
        "value": "t_bool"
      },
      "t_mapping(t_address,t_uint256)": {
        "encoding": "mapping",
        "key": "t_address",
        "label": "mapping(address => uint256)",
        "numberOfBytes": "32",
        "value": "t_uint256"
      },
      "t_uint256": {
        "encoding": "inplace",
        "label": "uint256",
        "numberOfBytes": "32"
      }
    }
  }
}