{
  "address": "0x084118E0Ef4A35951ec263c8d5a48a9347dc833a",
  "abi": [
    {
      "inputs": [
        {
          "internalType": "address",
          "name": "_rewardToken",
          "type": "address"
        },
        {
          "internalType": "address",
          "name": "_SSRP",
          "type": "address"
        }
      ],
      "stateMutability": "nonpayable",
      "type": "constructor"
    },
    {
      "inputs": [
        {
          "internalType": "address",
          "name": "to",
          "type": "address"
        },
        {
          "internalType": "uint256",
          "name": "unoAmount",
          "type": "uint256"
        }
      ],
      "name": "onUnoReward",
      "outputs": [
        {
          "internalType": "uint256",
          "name": "",
          "type": "uint256"
        }
      ],
      "stateMutability": "nonpayable",
      "type": "function"
    }
  ],
  "transactionHash": "0xe05e064fc39a8927d9ec01bf31583d48ac6f5980b5862753d9010ef7e05d582f",
  "args": [
    "0x53fb43BaE4C13d6AFAD37fB37c3fC49f3Af433F5",
    "0xF38967853760446CD79f62D153135c63C57fe550"
  ],
  "solcInputHash": "a302a98cb43be6499dcfc6647a3755e5",
  "bytecode": "0x60c060405234801561001057600080fd5b5060405161053938038061053983398101604081905261002f91610069565b6001600160601b0319606092831b8116608052911b1660a05261009b565b80516001600160a01b038116811461006457600080fd5b919050565b6000806040838503121561007b578182fd5b6100848361004d565b91506100926020840161004d565b90509250929050565b60805160601c60a05160601c6104676100d26000396000606601526000818160c60152818161015a015261018c01526104676000f3fe608060405234801561001057600080fd5b506004361061002b5760003560e01c80636ccb36b714610030575b600080fd5b61004361003e3660046102bf565b610059565b6040516100509190610428565b60405180910390f35b6000336001600160a01b037f000000000000000000000000000000000000000000000000000000000000000016146100ac5760405162461bcd60e51b81526004016100a39061039a565b60405180910390fd5b6040516370a0823160e01b81526000906001600160a01b037f000000000000000000000000000000000000000000000000000000000000000016906370a08231906100fb90309060040161036d565b60206040518083038186803b15801561011357600080fd5b505afa158015610127573d6000803e3d6000fd5b505050506040513d601f19601f8201168201806040525081019061014b919061031c565b905080831115610187576101807f000000000000000000000000000000000000000000000000000000000000000085836101bd565b90506101b7565b6101b27f000000000000000000000000000000000000000000000000000000000000000085856101bd565b829150505b92915050565b600080846001600160a01b031663a9059cbb85856040516024016101e2929190610381565b6040516020818303038152906040529060e01b6020820180517bffffffffffffffffffffffffffffffffffffffffffffffffffffffff83818316178352505050506040516102309190610334565b6000604051808303816000865af19150503d806000811461026d576040519150601f19603f3d011682016040523d82523d6000602084013e610272565b606091505b509150915081801561029c57508051158061029c57508080602001905181019061029c91906102f5565b6102b85760405162461bcd60e51b81526004016100a3906103db565b5050505050565b600080604083850312156102d1578182fd5b82356001600160a01b03811681146102e7578283fd5b946020939093013593505050565b600060208284031215610306578081fd5b81518015158114610315578182fd5b9392505050565b60006020828403121561032d578081fd5b5051919050565b60008251815b81811015610354576020818601810151858301520161033a565b818111156103625782828501525b509190910192915050565b6001600160a01b0391909116815260200190565b6001600160a01b03929092168252602082015260400190565b60208082526021908201527f4f6e6c7920535352502063616e2063616c6c20746869732066756e6374696f6e6040820152601760f91b606082015260800190565b6020808252602d908201527f5472616e7366657248656c7065723a3a736166655472616e736665723a20747260408201526c185b9cd9995c8819985a5b1959609a1b606082015260800190565b9081526020019056fea264697066735822122026a951d2e4e0bf5faa321b54a6192bffca81fad8b6b138fcbb4641edfa11929164736f6c63430008000033",
  "devdoc": {
    "kind": "dev",
    "methods": {},
    "version": 1
  },
  "userdoc": {
    "kind": "user",
    "methods": {},
    "version": 1
  },
  "storageLayout": {
    "storage": [],
    "types": null
  }
}