{
  "address": "0xFf45560a07c9ab2A11eD683a1ca0AAA93Aef9786",
  "abi": [
    {
      "inputs": [
        {
          "internalType": "address",
          "name": "_owner",
          "type": "address"
        },
        {
          "internalType": "address",
          "name": "_usdt_token",
          "type": "address"
        },
        {
          "internalType": "address",
          "name": "_uno_token",
          "type": "address"
        },
        {
          "internalType": "address",
          "name": "_exchangeAgent",
          "type": "address"
        },
        {
          "internalType": "address",
          "name": "_premiumPool",
          "type": "address"
        },
        {
          "internalType": "address",
          "name": "_capitalAgent",
          "type": "address"
        }
      ],
      "stateMutability": "nonpayable",
      "type": "constructor"
    },
    {
      "anonymous": false,
      "inputs": [
        {
          "indexed": true,
          "internalType": "address",
          "name": "_premiumPool",
          "type": "address"
        }
      ],
      "name": "LogSetPremiumPool",
      "type": "event"
    },
    {
      "anonymous": false,
      "inputs": [
        {
          "indexed": false,
          "internalType": "uint16",
          "name": "_protocolIdx",
          "type": "uint16"
        },
        {
          "indexed": false,
          "internalType": "uint256",
          "name": "_mcr",
          "type": "uint256"
        }
      ],
      "name": "LogSetProtocolMCR",
      "type": "event"
    },
    {
      "anonymous": false,
      "inputs": [
        {
          "indexed": true,
          "internalType": "address",
          "name": "_salesPolicy",
          "type": "address"
        },
        {
          "indexed": false,
          "internalType": "uint16",
          "name": "_protocolIdx",
          "type": "uint16"
        }
      ],
      "name": "ProtocolCreated",
      "type": "event"
    },
    {
      "inputs": [],
      "name": "UNO_TOKEN",
      "outputs": [
        {
          "internalType": "address",
          "name": "",
          "type": "address"
        }
      ],
      "stateMutability": "view",
      "type": "function"
    },
    {
      "inputs": [],
      "name": "USDT_TOKEN",
      "outputs": [
        {
          "internalType": "address",
          "name": "",
          "type": "address"
        }
      ],
      "stateMutability": "view",
      "type": "function"
    },
    {
      "inputs": [
        {
          "internalType": "string",
          "name": "_name",
          "type": "string"
        },
        {
          "internalType": "string",
          "name": "_productType",
          "type": "string"
        },
        {
          "internalType": "string",
          "name": "_premiumDescription",
          "type": "string"
        },
        {
          "internalType": "uint256",
          "name": "_coverDuration",
          "type": "uint256"
        },
        {
          "internalType": "address",
          "name": "_protocolAddress",
          "type": "address"
        },
        {
          "internalType": "address",
          "name": "_protocolCurrency",
          "type": "address"
        }
      ],
      "name": "addProtocol",
      "outputs": [],
      "stateMutability": "nonpayable",
      "type": "function"
    },
    {
      "inputs": [],
      "name": "allProtocolsLength",
      "outputs": [
        {
          "internalType": "uint256",
          "name": "",
          "type": "uint256"
        }
      ],
      "stateMutability": "view",
      "type": "function"
    },
    {
      "inputs": [
        {
          "internalType": "uint16",
          "name": "_protocolIdx",
          "type": "uint16"
        },
        {
          "internalType": "address",
          "name": "_premiumCurrency",
          "type": "address"
        }
      ],
      "name": "approvePremiumInPolicy",
      "outputs": [],
      "stateMutability": "nonpayable",
      "type": "function"
    },
    {
      "inputs": [],
      "name": "capitalAgent",
      "outputs": [
        {
          "internalType": "address",
          "name": "",
          "type": "address"
        }
      ],
      "stateMutability": "view",
      "type": "function"
    },
    {
      "inputs": [],
      "name": "exchangeAgent",
      "outputs": [
        {
          "internalType": "address",
          "name": "",
          "type": "address"
        }
      ],
      "stateMutability": "view",
      "type": "function"
    },
    {
      "inputs": [
        {
          "internalType": "uint16",
          "name": "",
          "type": "uint16"
        }
      ],
      "name": "getProtocol",
      "outputs": [
        {
          "internalType": "uint256",
          "name": "coverDuration",
          "type": "uint256"
        },
        {
          "internalType": "uint256",
          "name": "mcr",
          "type": "uint256"
        },
        {
          "internalType": "address",
          "name": "protocolAddress",
          "type": "address"
        },
        {
          "internalType": "address",
          "name": "protocolCurrency",
          "type": "address"
        },
        {
          "internalType": "string",
          "name": "name",
          "type": "string"
        },
        {
          "internalType": "string",
          "name": "productType",
          "type": "string"
        },
        {
          "internalType": "string",
          "name": "premiumDescription",
          "type": "string"
        },
        {
          "internalType": "address",
          "name": "salesPolicy",
          "type": "address"
        },
        {
          "internalType": "bool",
          "name": "exist",
          "type": "bool"
        }
      ],
      "stateMutability": "view",
      "type": "function"
    },
    {
      "inputs": [
        {
          "internalType": "uint16",
          "name": "_protocolIdx",
          "type": "uint16"
        }
      ],
      "name": "getProtocolData",
      "outputs": [
        {
          "internalType": "string",
          "name": "protocolName",
          "type": "string"
        },
        {
          "internalType": "string",
          "name": "productType",
          "type": "string"
        },
        {
          "internalType": "address",
          "name": "protocolAddress",
          "type": "address"
        }
      ],
      "stateMutability": "view",
      "type": "function"
    },
    {
      "inputs": [],
      "name": "owner",
      "outputs": [
        {
          "internalType": "address",
          "name": "",
          "type": "address"
        }
      ],
      "stateMutability": "view",
      "type": "function"
    },
    {
      "inputs": [],
      "name": "premiumPool",
      "outputs": [
        {
          "internalType": "address",
          "name": "",
          "type": "address"
        }
      ],
      "stateMutability": "view",
      "type": "function"
    },
    {
      "inputs": [
        {
          "internalType": "uint16",
          "name": "_protocolIdx",
          "type": "uint16"
        },
        {
          "internalType": "uint256",
          "name": "_maxDeadline",
          "type": "uint256"
        }
      ],
      "name": "setBuyPolicyMaxDeadlineInPolicy",
      "outputs": [],
      "stateMutability": "nonpayable",
      "type": "function"
    },
    {
      "inputs": [
        {
          "internalType": "uint16",
          "name": "_protocolIdx",
          "type": "uint16"
        },
        {
          "internalType": "address",
          "name": "_exchangeAgent",
          "type": "address"
        }
      ],
      "name": "setExchangeAgentInPolicy",
      "outputs": [],
      "stateMutability": "nonpayable",
      "type": "function"
    },
    {
      "inputs": [
        {
          "internalType": "address",
          "name": "_premiumPool",
          "type": "address"
        }
      ],
      "name": "setPremiumPool",
      "outputs": [],
      "stateMutability": "nonpayable",
      "type": "function"
    },
    {
      "inputs": [
        {
          "internalType": "uint16",
          "name": "_protocolIdx",
          "type": "uint16"
        },
        {
          "internalType": "address",
          "name": "_premiumPool",
          "type": "address"
        }
      ],
      "name": "setPremiumPoolInPolicy",
      "outputs": [],
      "stateMutability": "nonpayable",
      "type": "function"
    },
    {
      "inputs": [
        {
          "internalType": "uint16",
          "name": "_protocolIdx",
          "type": "uint16"
        },
        {
          "internalType": "uint256",
          "name": "_mcr",
          "type": "uint256"
        }
      ],
      "name": "setProtocolMCR",
      "outputs": [],
      "stateMutability": "nonpayable",
      "type": "function"
    },
    {
      "inputs": [
        {
          "internalType": "uint16",
          "name": "_protocolIdx",
          "type": "uint16"
        },
        {
          "internalType": "string",
          "name": "_uri",
          "type": "string"
        }
      ],
      "name": "setProtocolURIInPolicy",
      "outputs": [],
      "stateMutability": "nonpayable",
      "type": "function"
    },
    {
      "inputs": [
        {
          "internalType": "uint16",
          "name": "_protocolIdx",
          "type": "uint16"
        },
        {
          "internalType": "address",
          "name": "_signer",
          "type": "address"
        }
      ],
      "name": "setSignerInPolicy",
      "outputs": [],
      "stateMutability": "nonpayable",
      "type": "function"
    }
  ],
  "transactionHash": "0xe2e214d828bdbd94b0ea2b5ff65c12d8afc1340dca427470d7325791ad2d8ab7",
  "args": [
    "0x5569BDF4e02cec3fE459796e3d0e741616029fA4",
    "0x40c035016AD732b6cFce34c3F881040B6C6cf71E",
    "0x53fb43BaE4C13d6AFAD37fB37c3fC49f3Af433F5",
    "0xA31158b2fDF02a6E14fbd12F121F03657b92d1B1",
    "0xfFB1739Ccc47471C4EA74339190168A043E46b32",
    "0xc16d5d06154eCd6D6Dd7e2EcDd63f4070273F2E7"
  ],
  "solcInputHash": "a4d91358c036d420da7aee9136e29f67",
  "bytecode": "0x60806040523480156200001157600080fd5b50604051620055a3380380620055a38339810160408190526200003491620000cb565b60016000819055600780546001600160a01b03199081166001600160a01b03988916179091556008805482169688169690961790955560028054861697871697909717909655855484169185169190911790945560038054831691841691909117905560048054909116929091169190911790556200014b565b80516001600160a01b0381168114620000c657600080fd5b919050565b60008060008060008060c08789031215620000e4578182fd5b620000ef87620000ae565b9550620000ff60208801620000ae565b94506200010f60408801620000ae565b93506200011f60608801620000ae565b92506200012f60808801620000ae565b91506200013f60a08801620000ae565b90509295509295509295565b615448806200015b6000396000f3fe60806040523480156200001157600080fd5b5060043610620001305760003560e01c80638da5cb5b11620000b1578063bbd9d8e1116200007b578063bbd9d8e1146200023b578063d2c7c2a41462000263578063d9203b911462000291578063db5b7c98146200029b578063edb13bbb14620002b25762000130565b80638da5cb5b14620001ea578063ab17ef8214620001f4578063b2e6d91f146200020b578063b381ff8214620002225762000130565b80634219816011620000ff57806342198160146200019e5780634762dfae14620001a85780634ba69faa14620001bf578063721b70c814620001c957806377b330c914620001e05762000130565b80630ea3b56314620001355780630f97b97b146200014e5780631bcc2472146200017057806320f721cd1462000187575b600080fd5b6200014c62000146366004620012c1565b620002c9565b005b620001586200037e565b6040516200016791906200133b565b60405180910390f35b6200014c62000181366004620010bc565b6200038d565b6200014c62000198366004620012c1565b6200042d565b62000158620004ff565b6200014c620001b9366004620011ca565b6200050e565b62000158620005ad565b6200014c620001da36600462001201565b620005bc565b6200015862000632565b6200015862000641565b6200014c62000205366004620010e0565b62000650565b6200014c6200021c366004620011ca565b620009ad565b6200022c62000a4c565b60405162000167919062001546565b620002526200024c366004620011ad565b62000a5f565b6040516200016793929190620013cd565b6200027a62000274366004620011ad565b62000bc9565b60405162000167999897969594939291906200154f565b6200015862000ddf565b6200014c620002ac366004620011ca565b62000dee565b6200014c620002c3366004620011ca565b62000e8d565b6002546001600160a01b03163314620002ff5760405162461bcd60e51b8152600401620002f6906200147e565b60405180910390fd5b60008111620003225760405162461bcd60e51b8152600401620002f69062001447565b61ffff8216600090815260056020526040908190206001810183905590517fce9bfac800790847f5a11bfe3df969c5563f99ea96e4544a235410640627154d9062000371908590859062001532565b60405180910390a1505050565b6008546001600160a01b031681565b6002546001600160a01b03163314620003ba5760405162461bcd60e51b8152600401620002f6906200147e565b6001600160a01b038116620003e35760405162461bcd60e51b8152600401620002f69062001410565b600180546001600160a01b0319166001600160a01b0383169081179091556040517faa0150507cbcab99f33127173fcbdd580e5710d253406b99952e1feda3cdcc0e90600090a250565b6002546001600160a01b031633146200045a5760405162461bcd60e51b8152600401620002f6906200147e565b600081116200047d5760405162461bcd60e51b8152600401620002f690620014b5565b61ffff82166000908152600560205260409081902060070154905163fda2071d60e01b81526001600160a01b0390911690819063fda2071d90620004c690859060040162001546565b600060405180830381600087803b158015620004e157600080fd5b505af1158015620004f6573d6000803e3d6000fd5b50505050505050565b6004546001600160a01b031681565b6002546001600160a01b031633146200053b5760405162461bcd60e51b8152600401620002f6906200147e565b6001600160a01b038116620005645760405162461bcd60e51b8152600401620002f69062001410565b61ffff821660009081526005602052604090819020600701549051630c5006c760e11b81526001600160a01b039091169081906318a00d8e90620004c69085906004016200133b565b6001546001600160a01b031681565b6002546001600160a01b03163314620005e95760405162461bcd60e51b8152600401620002f6906200147e565b61ffff8216600090815260056020526040908190206007015490516313b41ce760e31b81526001600160a01b03909116908190639da0e73890620004c6908590600401620013b8565b6007546001600160a01b031681565b6002546001600160a01b031681565b6002546001600160a01b031633146200067d5760405162461bcd60e51b8152600401620002f6906200147e565b60026000541415620006a35760405162461bcd60e51b8152600401620002f690620014ec565b60026000908155620006b6600662000f03565b60035460015460045460408051602081019091526000808252949550869493620006f49387936001600160a01b039283169391831692169062000f0b565b6004805460405163b84ef08160e01b81529293506001600160a01b03169163b84ef0819162000726918591016200133b565b600060405180830381600087803b1580156200074157600080fd5b505af115801562000756573d6000803e3d6000fd5b5050505060405180610120016040528087815260200160018152602001866001600160a01b03168152602001836001600160a01b031681526020018d8d8080601f016020809104026020016040519081016040528093929190818152602001838380828437600092019190915250505090825250604080516020601f8e018190048102820181019092528c815291810191908d908d9081908401838280828437600092019190915250505090825250604080516020601f8c018190048102820181019092528a815291810191908b908b908190840183828082843760009201829052509385525050506001600160a01b038085166020808501919091526001604094850181905261ffff891684526005825292849020855181558582015193810193909355928401516002830180549183166001600160a01b03199283161790556060850151600384018054919093169116179055608083015180519192620008c89260048501929091019062000f93565b5060a08201518051620008e691600584019160209091019062000f93565b5060c082015180516200090491600684019160209091019062000f93565b5060e082015160079091018054610100909301511515600160a01b0260ff60a01b196001600160a01b039093166001600160a01b0319909416939093179190911691909117905562000957600662000f8a565b806001600160a01b03167fbcf8a46c68576cc4e52eb8fbc678b3ce3adbeadb33126980d791f827ccff41118460405162000992919062001523565b60405180910390a25050600160005550505050505050505050565b6002546001600160a01b03163314620009da5760405162461bcd60e51b8152600401620002f6906200147e565b6001600160a01b03811662000a035760405162461bcd60e51b8152600401620002f69062001410565b61ffff821660009081526005602052604090819020600701549051636c19e78360e01b81526001600160a01b03909116908190636c19e78390620004c69085906004016200133b565b600062000a5a600662000f03565b905090565b61ffff81166000908152600560208190526040822060028101546004820180546060958695909492939201916001600160a01b031690839062000aa290620015d3565b80601f016020809104026020016040519081016040528092919081815260200182805462000ad090620015d3565b801562000b215780601f1062000af55761010080835404028352916020019162000b21565b820191906000526020600020905b81548152906001019060200180831162000b0357829003601f168201915b5050505050925081805462000b3690620015d3565b80601f016020809104026020016040519081016040528092919081815260200182805462000b6490620015d3565b801562000bb55780601f1062000b895761010080835404028352916020019162000bb5565b820191906000526020600020905b81548152906001019060200180831162000b9757829003601f168201915b505050505091509250925092509193909250565b60056020526000908152604090208054600182015460028301546003840154600485018054949593946001600160a01b0393841694929093169262000c0e90620015d3565b80601f016020809104026020016040519081016040528092919081815260200182805462000c3c90620015d3565b801562000c8d5780601f1062000c615761010080835404028352916020019162000c8d565b820191906000526020600020905b81548152906001019060200180831162000c6f57829003601f168201915b50505050509080600501805462000ca490620015d3565b80601f016020809104026020016040519081016040528092919081815260200182805462000cd290620015d3565b801562000d235780601f1062000cf75761010080835404028352916020019162000d23565b820191906000526020600020905b81548152906001019060200180831162000d0557829003601f168201915b50505050509080600601805462000d3a90620015d3565b80601f016020809104026020016040519081016040528092919081815260200182805462000d6890620015d3565b801562000db95780601f1062000d8d5761010080835404028352916020019162000db9565b820191906000526020600020905b81548152906001019060200180831162000d9b57829003601f168201915b505050600790930154919250506001600160a01b0381169060ff600160a01b9091041689565b6003546001600160a01b031681565b6002546001600160a01b0316331462000e1b5760405162461bcd60e51b8152600401620002f6906200147e565b6001600160a01b03811662000e445760405162461bcd60e51b8152600401620002f69062001410565b61ffff821660009081526005602052604090819020600701549051630de6123960e11b81526001600160a01b03909116908190631bcc247290620004c69085906004016200133b565b6002546001600160a01b0316331462000eba5760405162461bcd60e51b8152600401620002f6906200147e565b61ffff8216600090815260056020526040908190206007015490516321ecf70160e01b81526001600160a01b039091169081906321ecf70190620004c69085906004016200133b565b80545b919050565b60008030868686600860009054906101000a90046001600160a01b0316600760009054906101000a90046001600160a01b0316888d60405162000f4e9062001022565b62000f619897969594939291906200134f565b604051809103906000f08015801562000f7e573d6000803e3d6000fd5b50979650505050505050565b80546001019055565b82805462000fa190620015d3565b90600052602060002090601f01602090048101928262000fc5576000855562001010565b82601f1062000fe057805160ff191683800117855562001010565b8280016001018555821562001010579182015b828111156200101057825182559160200191906001019062000ff3565b506200101e92915062001030565b5090565b613dec806200162783390190565b5b808211156200101e576000815560010162001031565b80356001600160a01b038116811462000f0657600080fd5b60008083601f84011262001071578081fd5b50813567ffffffffffffffff81111562001089578182fd5b602083019150836020828501011115620010a257600080fd5b9250929050565b803561ffff8116811462000f0657600080fd5b600060208284031215620010ce578081fd5b620010d98262001047565b9392505050565b600080600080600080600080600060c08a8c031215620010fe578485fd5b893567ffffffffffffffff8082111562001116578687fd5b620011248d838e016200105f565b909b50995060208c01359150808211156200113d578687fd5b6200114b8d838e016200105f565b909950975060408c013591508082111562001164578687fd5b50620011738c828d016200105f565b90965094505060608a013592506200118e60808b0162001047565b91506200119e60a08b0162001047565b90509295985092959850929598565b600060208284031215620011bf578081fd5b620010d982620010a9565b60008060408385031215620011dd578182fd5b620011e883620010a9565b9150620011f86020840162001047565b90509250929050565b6000806040838503121562001214578182fd5b6200121f83620010a9565b915060208084013567ffffffffffffffff808211156200123d578384fd5b818601915086601f83011262001251578384fd5b81358181111562001266576200126662001610565b604051601f8201601f19168101850183811182821017156200128c576200128c62001610565b6040528181528382018501891015620012a3578586fd5b81858501868301378585838301015280955050505050509250929050565b60008060408385031215620012d4578182fd5b620012df83620010a9565b946020939093013593505050565b60008151808452815b818110156200131457602081850181015186830182015201620012f6565b81811115620013265782602083870101525b50601f01601f19169290920160200192915050565b6001600160a01b0391909116815260200190565b60006101006001600160a01b03808c168452808b166020850152808a1660408501528089166060850152808816608085015280871660a0850152508060c08401526200139e81840186620012ed565b91505061ffff831660e08301529998505050505050505050565b600060208252620010d96020830184620012ed565b600060608252620013e26060830186620012ed565b8281036020840152620013f68186620012ed565b9150506001600160a01b0383166040830152949350505050565b60208082526013908201527f556e6f52653a207a65726f206164647265737300000000000000000000000000604082015260600190565b6020808252600f908201527f556e6f52653a207a65726f206d63720000000000000000000000000000000000604082015260600190565b60208082526010908201527f556e6f52653a20466f7262696464656e00000000000000000000000000000000604082015260600190565b60208082526018908201527f556e6f52653a207a65726f206d617820646561646c696e650000000000000000604082015260600190565b6020808252601f908201527f5265656e7472616e637947756172643a207265656e7472616e742063616c6c00604082015260600190565b61ffff91909116815260200190565b61ffff929092168252602082015260400190565b90815260200190565b60006101208b83528a60208401526001600160a01b03808b166040850152808a166060850152816080850152620015898285018a620012ed565b915083820360a08501526200159f8289620012ed565b915083820360c0850152620015b58288620012ed565b951660e0840152505090151561010090910152979650505050505050565b600281046001821680620015e857607f821691505b602082108114156200160a57634e487b7160e01b600052602260045260246000fd5b50919050565b634e487b7160e01b600052604160045260246000fdfe60e06040526000196011553480156200001757600080fd5b5060405162003dec38038062003dec8339810160408190526200003a916200030c565b6040518060400160405280601081526020016f506f6c69637920696e737572616e636560801b8152506040518060400160405280601081526020016f506f6c69637920696e737572616e636560801b8152506040518060400160405280601881526020017f427579506f6c6963794d6574615472616e73616374696f6e0000000000000000815250604051806040016040528060018152602001603160f81b81525081816040518060800160405280604f815260200162003d9d604f9139805190602001208280519060200120828051906020012030620001206200023260201b60201c565b6040516200013695949392919060200162000461565b60408051601f19818403018152919052805160209182012060005586516200016a9550600294509087019250905062000236565b5080516200018090600390602084019062000236565b5050600160085550606088811b6001600160601b0319908116608052600a805461ffff191661ffff85161762010000600160b01b031916620100006001600160a01b038c81169190910291909117909155600d80546001600160a01b03199081168a84161790915587841b831660a0529286901b90911660c052600b805490921690881617905562093a8060095581516200022390600e90602085019062000236565b505050505050505050620004e0565b4690565b82805462000244906200048d565b90600052602060002090601f016020900481019282620002685760008555620002b3565b82601f106200028357805160ff1916838001178555620002b3565b82800160010185558215620002b3579182015b82811115620002b357825182559160200191906001019062000296565b50620002c1929150620002c5565b5090565b5b80821115620002c15760008155600101620002c6565b80516001600160a01b0381168114620002f457600080fd5b919050565b805161ffff81168114620002f457600080fd5b600080600080600080600080610100898b03121562000329578384fd5b6200033489620002dc565b9750602062000345818b01620002dc565b97506200035560408b01620002dc565b96506200036560608b01620002dc565b95506200037560808b01620002dc565b94506200038560a08b01620002dc565b60c08b01519094506001600160401b0380821115620003a2578485fd5b818c0191508c601f830112620003b6578485fd5b815181811115620003cb57620003cb620004ca565b604051601f8201601f1916810185018381118282101715620003f157620003f1620004ca565b60405281815283820185018f101562000408578687fd5b8692505b818310156200042b57838301850151818401860152918401916200040c565b818311156200043c57868583830101525b80965050505050506200045260e08a01620002f9565b90509295985092959890939650565b948552602085019390935260408401919091526001600160a01b03166060830152608082015260a00190565b600281046001821680620004a257607f821691505b60208210811415620004c457634e487b7160e01b600052602260045260246000fd5b50919050565b634e487b7160e01b600052604160045260246000fd5b60805160601c60a05160601c60c05160601c61384f6200054e60003960008181610f900152611555015260005050600081816109d701528181610acb01528181610ba001528181610e7701528181610ffb015281816112450152818161131a0152611981015261384f6000f3fe6080604052600436106102085760003560e01c80636352211e11610118578063b88d4fde116100a0578063c87b56dd1161006f578063c87b56dd146105d4578063d341960b146105f4578063de4e420114610609578063e985e9c51461061e578063fda2071d1461063e5761020f565b8063b88d4fde1461056c578063c2eb8eb91461058c578063c45a0155146105ac578063c4cf5370146105c15761020f565b80637a5402e9116100e75780637a5402e9146104c657806395d89b41146104f75780639da0e7381461050c578063a22cb4651461052c578063a5d5e1421461054c5761020f565b80636352211e146104515780636c19e7831461047157806370a082311461049157806377b330c9146104b15761020f565b8063238ac9331161019b57806333b3691e1161016a57806333b3691e146103c557806342198160146103e557806342842e0e146103fa5780634ba69faa1461041a5780634d8dbb3c1461042f5761020f565b8063238ac9331461032e57806323b872dd146103435780632b07fce3146103635780632d0335ab146103985761020f565b80630c53c51c116101d75780630c53c51c146102bb57806318a00d8e146102ce5780631bcc2472146102ee57806321ecf7011461030e5761020f565b806301ffc9a71461021457806306fdde031461024a578063081812fc1461026c578063095ea7b3146102995761020f565b3661020f57005b600080fd5b34801561022057600080fd5b5061023461022f366004612999565b61065e565b6040516102419190612d07565b60405180910390f35b34801561025657600080fd5b5061025f6106a6565b6040516102419190612d54565b34801561027857600080fd5b5061028c610287366004612a17565b610739565b6040516102419190612be4565b3480156102a557600080fd5b506102b96102b4366004612954565b610785565b005b61025f6102c93660046128e4565b61081d565b3480156102da57600080fd5b506102b96102e93660046127c1565b6109d5565b3480156102fa57600080fd5b506102b96103093660046127c1565b610ac9565b34801561031a57600080fd5b506102b96103293660046127c1565b610b9e565b34801561033a57600080fd5b5061028c610cae565b34801561034f57600080fd5b506102b961035e36600461280d565b610cbd565b34801561036f57600080fd5b5061038361037e366004612a17565b610cf5565b60405161024199989796959493929190613645565b3480156103a457600080fd5b506103b86103b33660046127c1565b610d55565b604051610241919061362a565b3480156103d157600080fd5b506102b96103e0366004612a17565b610d70565b3480156103f157600080fd5b5061028c610dfd565b34801561040657600080fd5b506102b961041536600461280d565b610e0c565b34801561042657600080fd5b5061028c610e27565b34801561043b57600080fd5b50610444610e36565b60405161024191906135e1565b34801561045d57600080fd5b5061028c61046c366004612a17565b610e40565b34801561047d57600080fd5b506102b961048c3660046127c1565b610e75565b34801561049d57600080fd5b506103b86104ac3660046127c1565b610f4a565b3480156104bd57600080fd5b5061028c610f8e565b3480156104d257600080fd5b506104e66104e1366004612a17565b610fb2565b604051610241959493929190612cd9565b34801561050357600080fd5b5061025f610fea565b34801561051857600080fd5b506102b96105273660046129d1565b610ff9565b34801561053857600080fd5b506102b96105473660046128ae565b6110aa565b34801561055857600080fd5b506102b9610567366004612a17565b611178565b34801561057857600080fd5b506102b9610587366004612848565b611204565b34801561059857600080fd5b506102b96105a73660046127c1565b611243565b3480156105b857600080fd5b5061028c611318565b6102b96105cf366004612a47565b61133c565b3480156105e057600080fd5b5061025f6105ef366004612a17565b6118b7565b34801561060057600080fd5b506103b861193a565b34801561061557600080fd5b506103b861194b565b34801561062a57600080fd5b506102346106393660046127db565b611951565b34801561064a57600080fd5b506102b9610659366004612a17565b61197f565b60006001600160e01b031982166380ac58cd60e01b148061068f57506001600160e01b03198216635b5e139f60e01b145b8061069e575061069e82611a38565b90505b919050565b6060600280546106b590613703565b80601f01602080910402602001604051908101604052809291908181526020018280546106e190613703565b801561072e5780601f106107035761010080835404028352916020019161072e565b820191906000526020600020905b81548152906001019060200180831161071157829003601f168201915b505050505090505b90565b600061074482611a51565b6107695760405162461bcd60e51b815260040161076090613320565b60405180910390fd5b506000908152600660205260409020546001600160a01b031690565b600061079082610e40565b9050806001600160a01b0316836001600160a01b031614156107c45760405162461bcd60e51b8152600401610760906134d5565b806001600160a01b03166107d6611a6e565b6001600160a01b031614806107f257506107f281610639611a6e565b61080e5760405162461bcd60e51b815260040161076090613156565b6108188383611a72565b505050565b6060600061082a86611ae0565b90506000356001600160e01b0319908116908216141561085c5760405162461bcd60e51b815260040161076090612ed3565b604080516060810182526001600160a01b038916600081815260016020908152908490205483528201529081018790526108998882888888611afc565b6108b55760405162461bcd60e51b8152600401610760906133b5565b6001600160a01b0388166000908152600160208190526040909120546108da91613694565b6001600160a01b038916600090815260016020908152604080832093909355915190918291309161090f918c918e9101612afb565b60408051601f198184030181529082905261092991612adf565b6000604051808303816000865af19150503d8060008114610966576040519150601f19603f3d011682016040523d82523d6000602084013e61096b565b606091505b50915091508161098d5760405162461bcd60e51b815260040161076090612e65565b7f5845892132946850460bff5a0083f71031bc5bf9aadcd40f1de79423eac9b10b8a338b6040516109c093929190612bf8565b60405180910390a19998505050505050505050565b7f00000000000000000000000000000000000000000000000000000000000000006001600160a01b0316610a07611bd2565b6001600160a01b031614610a2d5760405162461bcd60e51b8152600401610760906132e9565b6001600160a01b038116610a535760405162461bcd60e51b815260040161076090612e2e565b600a805475ffffffffffffffffffffffffffffffffffffffff00001916620100006001600160a01b038416908102919091179182905560405130927fc3177381220e3683a27c54985d092dbe1cb47c9120f3053c10284834dfda5f1b91610abe9161ffff16906135e1565b60405180910390a350565b7f00000000000000000000000000000000000000000000000000000000000000006001600160a01b0316610afb611bd2565b6001600160a01b031614610b215760405162461bcd60e51b8152600401610760906132e9565b6001600160a01b038116610b475760405162461bcd60e51b815260040161076090612e2e565b600b80546001600160a01b0319166001600160a01b038316908117909155600a546040513092917f94128e4300bfd33abb55528d41b5b229e819cf4f2abedfc04ff18c8abab199c491610abe9161ffff16906135e1565b7f00000000000000000000000000000000000000000000000000000000000000006001600160a01b0316610bd0611bd2565b6001600160a01b031614610bf65760405162461bcd60e51b8152600401610760906132e9565b6001600160a01b038116610c1c5760405162461bcd60e51b815260040161076090612e2e565b600b546001600160a01b0316610c445760405162461bcd60e51b815260040161076090613453565b600b54601154610c619183916001600160a01b0390911690611c2e565b600a54600b546040516001600160a01b038481169330937f722454f4bb0415a0cbc72420f236cd42ec5e56259afafb401deaa9c284c02d5393610abe9361ffff90931692909116906135f0565b600c546001600160a01b031681565b610cce610cc8611a6e565b82611d1b565b610cea5760405162461bcd60e51b815260040161076090613516565b610818838383611da0565b6010602052600090815260409020805460018201546002830154600384015460048501546005860154600690960154949593949293919290916001600160a01b03908116919081169060ff600160a01b8204811691600160a81b90041689565b6001600160a01b031660009081526001602052604090205490565b60026008541415610d935760405162461bcd60e51b8152600401610760906135aa565b6002600855600081815260106020526040902060060154600160a01b900460ff16610dd05760405162461bcd60e51b815260040161076090612f30565b6000818152601060205260409020600601805460ff60a01b19169055610df581611ecd565b506001600855565b600d546001600160a01b031681565b61081883838360405180602001604052806000815250611204565b600b546001600160a01b031681565b600a5461ffff1681565b6000818152600460205260408120546001600160a01b03168061069e5760405162461bcd60e51b815260040161076090613234565b7f00000000000000000000000000000000000000000000000000000000000000006001600160a01b0316610ea7611bd2565b6001600160a01b031614610ecd5760405162461bcd60e51b8152600401610760906132e9565b6001600160a01b038116610ef35760405162461bcd60e51b815260040161076090612e2e565b600c80546001600160a01b0319166001600160a01b038316908117909155600a546040513092917fd9763970fede39242cdd022989dc223021c84e3a2466a675e86ade06ee2c361a91610abe9161ffff16906135e1565b60006001600160a01b038216610f725760405162461bcd60e51b8152600401610760906131ea565b506001600160a01b031660009081526005602052604090205490565b7f000000000000000000000000000000000000000000000000000000000000000081565b600081815260106020526040902060028101546001820154825460038401546006909401546001600160a01b03169391939590929450565b6060600380546106b590613703565b7f00000000000000000000000000000000000000000000000000000000000000006001600160a01b031661102b611bd2565b6001600160a01b0316146110515760405162461bcd60e51b8152600401610760906132e9565b805161106490600e906020840190612671565b50600a5460405130917f23ff632ee616fb8c7e8f7e3cbd753181800ea4c090ac021dd7a68f79b7acbd219161109f9161ffff1690859061360d565b60405180910390a250565b6110b2611a6e565b6001600160a01b0316826001600160a01b031614156110e35760405162461bcd60e51b815260040161076090613065565b80600760006110f0611a6e565b6001600160a01b03908116825260208083019390935260409182016000908120918716808252919093529120805460ff191692151592909217909155611134611a6e565b6001600160a01b03167f17307eab39ab6107e8899845ad3d59bd9653f200f220920489ca2b5937696c318360405161116c9190612d07565b60405180910390a35050565b6002600854141561119b5760405162461bcd60e51b8152600401610760906135aa565b6002600855600081815260106020526040902060060154600160a01b900460ff16156111d95760405162461bcd60e51b815260040161076090612d9a565b6000818152601060205260409020600601805460ff60a81b1916600160a81b179055610df581611ecd565b61121561120f611a6e565b83611d1b565b6112315760405162461bcd60e51b815260040161076090613516565b61123d84848484611f74565b50505050565b7f00000000000000000000000000000000000000000000000000000000000000006001600160a01b0316611275611bd2565b6001600160a01b03161461129b5760405162461bcd60e51b8152600401610760906132e9565b6001600160a01b0381166112c15760405162461bcd60e51b815260040161076090612e2e565b600d80546001600160a01b0319166001600160a01b038316908117909155600a546040513092917fc3177381220e3683a27c54985d092dbe1cb47c9120f3053c10284834dfda5f1b91610abe9161ffff16906135e1565b7f000000000000000000000000000000000000000000000000000000000000000081565b6002600854141561135f5760405162461bcd60e51b8152600401610760906135aa565b6002600855600061137687898b8989898989611fa7565b90506001600160a01b0381161580159061139d5750600c546001600160a01b038281169116145b6113b95760405162461bcd60e51b8152600401610760906131b3565b4286111580156113d357506009546113d187426136c0565b105b6113ef5760405162461bcd60e51b81526004016107609061311f565b60006113fb600f612068565b905060006001600160a01b03871661155357600a5460405163ccd7bb4160e01b8152620100009091046001600160a01b03169063ccd7bb4190611442908c9060040161362a565b60206040518083038186803b15801561145a57600080fd5b505afa15801561146e573d6000803e3d6000fd5b505050506040513d601f19601f820116820180604052508101906114929190612a2f565b9050803410156114b45760405162461bcd60e51b815260040161076090613573565b803411156114d6576114d66114c7611bd2565b6114d183346136c0565b61206c565b600b546114ec906001600160a01b03168261206c565b600b5460405163d830c71560e01b81526001600160a01b039091169063d830c7159061151c90849060040161362a565b600060405180830381600087803b15801561153657600080fd5b505af115801561154a573d6000803e3d6000fd5b505050506116d4565b7f00000000000000000000000000000000000000000000000000000000000000006001600160a01b0316876001600160a01b03161461165a57600a5460405163a80cda2f60e01b8152620100009091046001600160a01b03169063a80cda2f906115c3908a908d90600401612c8d565b60206040518083038186803b1580156115db57600080fd5b505afa1580156115ef573d6000803e3d6000fd5b505050506040513d601f19601f820116820180604052508101906116139190612a2f565b905061162887611621611bd2565b30846120f9565b600b54604051638c8ac76d60e01b81526001600160a01b0390911690638c8ac76d9061151c908a908590600401612c8d565b508761166f87611668611bd2565b308c6120f9565b600b54604051638c8ac76d60e01b81526001600160a01b0390911690638c8ac76d906116a1908a908d90600401612c8d565b600060405180830381600087803b1580156116bb57600080fd5b505af11580156116cf573d6000803e3d6000fd5b505050505b6040518061012001604052804281526020018b81526020018c81526020018a8152602001828152602001886001600160a01b03168152602001611715611bd2565b6001600160a01b039081168252600160208084018290526000604094850181905287815260108252849020855181559085015191810191909155918301516002830155606083015160038301556080830151600483015560a08301516005830180549183166001600160a01b031992831617905560c08401516006909301805460e0860151610100909601511515600160a81b0260ff60a81b19961515600160a01b0260ff60a01b199690951691909316179390931691909117929092169190911790556117ea6117e4611bd2565b836121e9565b600d546040516350498d7960e11b81526001600160a01b039091169063a0931af29061181a908e9060040161362a565b600060405180830381600087803b15801561183457600080fd5b505af1158015611848573d6000803e3d6000fd5b50505050611856600f6122c8565b600a54829061ffff167f74ce76e2ace91f83f8188aaa1002ebcab81a9668c13e09d5c89f9a6647bfebdd611888611bd2565b8e8d8c8760405161189d959493929190612ca6565b60405180910390a350506001600855505050505050505050565b60606118c282611a51565b6118de5760405162461bcd60e51b8152600401610760906133f6565b60006118e86122d1565b905060008151116119085760405180602001604052806000815250611933565b80611912846122e0565b604051602001611923929190612b32565b6040516020818303038152906040525b9392505050565b6000611946600f612068565b905090565b60095481565b6001600160a01b03918216600090815260076020908152604080832093909416825291909152205460ff1690565b7f00000000000000000000000000000000000000000000000000000000000000006001600160a01b03166119b1611bd2565b6001600160a01b0316146119d75760405162461bcd60e51b8152600401610760906132e9565b600081116119f75760405162461bcd60e51b81526004016107609061327d565b6009819055600a5460405130917f317b924d7be379083195d8458727e3bbbe596f3c7229ee96f2ad885fd7e0f4419161109f91859161ffff90911690613633565b6001600160e01b031981166301ffc9a760e01b14919050565b6000908152600460205260409020546001600160a01b0316151590565b3390565b600081815260066020526040902080546001600160a01b0319166001600160a01b0384169081179091558190611aa782610e40565b6001600160a01b03167f8c5be1e5ebec7d5bd14f71427d1e84f3dd0314c0f7b2291e5b200ac8c7c3b92560405160405180910390a45050565b6000815160001415611af4575060006106a1565b506020015190565b6000806001611b12611b0d88612413565b612471565b84878760405160008152602001604052604051611b329493929190612d36565b6020604051602081039080840390855afa158015611b54573d6000803e3d6000fd5b505050602060405103519050611b8b604051806040016040528060088152602001675b7369676e65725d60c01b815250828961248d565b6001600160a01b038116611bb15760405162461bcd60e51b81526004016107609061309c565b866001600160a01b0316816001600160a01b03161491505095945050505050565b600033301415611c2957600080368080601f0160208091040260200160405190810160405280939291908181526020018383808284376000920191909152505050503601516001600160a01b031691506107369050565b503390565b600080846001600160a01b031663095ea7b38585604051602401611c53929190612c8d565b6040516020818303038152906040529060e01b6020820180516001600160e01b038381831617835250505050604051611c8c9190612adf565b6000604051808303816000865af19150503d8060008114611cc9576040519150601f19603f3d011682016040523d82523d6000602084013e611cce565b606091505b5091509150818015611cf8575080511580611cf8575080806020019051810190611cf8919061297d565b611d145760405162461bcd60e51b81526004016107609061348a565b5050505050565b6000611d2682611a51565b611d425760405162461bcd60e51b8152600401610760906130d3565b6000611d4d83610e40565b9050806001600160a01b0316846001600160a01b03161480611d885750836001600160a01b0316611d7d84610739565b6001600160a01b0316145b80611d985750611d988185611951565b949350505050565b826001600160a01b0316611db382610e40565b6001600160a01b031614611dd95760405162461bcd60e51b81526004016107609061336c565b6001600160a01b038216611dff5760405162461bcd60e51b815260040161076090613021565b611e0a8383836124d4565b611e15600082611a72565b6001600160a01b0383166000908152600560205260408120805460019290611e3e9084906136c0565b90915550506001600160a01b0382166000908152600560205260408120805460019290611e6c908490613694565b909155505060008181526004602052604080822080546001600160a01b0319166001600160a01b0386811691821790925591518493918716917fddf252ad1be2c89b69c2b068fc378daa952ba7f163c4a11628f55a4df523b3ef91a4505050565b6000611ed882610e40565b9050611ee6816000846124d4565b611ef1600083611a72565b6001600160a01b0381166000908152600560205260408120805460019290611f1a9084906136c0565b909155505060008281526004602052604080822080546001600160a01b0319169055518391906001600160a01b038416907fddf252ad1be2c89b69c2b068fc378daa952ba7f163c4a11628f55a4df523b3ef908390a45050565b611f7f848484611da0565b611f8b84848484612529565b61123d5760405162461bcd60e51b815260040161076090612dd1565b6000808989898989604051602001611fc3959493929190612bad565b604051602081830303815290604052805190602001209050600081604051602001611fee9190612b61565b60405160208183030381529060405280519060200120905060006001828689896040516000815260200160405260405161202b9493929190612d36565b6020604051602081039080840390855afa15801561204d573d6000803e3d6000fd5b5050604051601f1901519d9c50505050505050505050505050565b5490565b604080516000808252602082019092526001600160a01b0384169083906040516120969190612adf565b60006040518083038185875af1925050503d80600081146120d3576040519150601f19603f3d011682016040523d82523d6000602084013e6120d8565b606091505b50509050806108185760405162461bcd60e51b815260040161076090612fc4565b600080856001600160a01b03166323b872dd86868660405160240161212093929190612c2d565b6040516020818303038152906040529060e01b6020820180516001600160e01b0383818316178352505050506040516121599190612adf565b6000604051808303816000865af19150503d8060008114612196576040519150601f19603f3d011682016040523d82523d6000602084013e61219b565b606091505b50915091508180156121c55750805115806121c55750808060200190518101906121c5919061297d565b6121e15760405162461bcd60e51b815260040161076090612f67565b505050505050565b6001600160a01b03821661220f5760405162461bcd60e51b8152600401610760906132b4565b61221881611a51565b156122355760405162461bcd60e51b815260040161076090612e9c565b612241600083836124d4565b6001600160a01b038216600090815260056020526040812080546001929061226a908490613694565b909155505060008181526004602052604080822080546001600160a01b0319166001600160a01b03861690811790915590518392907fddf252ad1be2c89b69c2b068fc378daa952ba7f163c4a11628f55a4df523b3ef908290a45050565b80546001019055565b6060600e80546106b590613703565b60608161230557506040805180820190915260018152600360fc1b60208201526106a1565b8160005b811561232f57806123198161373e565b91506123289050600a836136ac565b9150612309565b60008167ffffffffffffffff81111561235857634e487b7160e01b600052604160045260246000fd5b6040519080825280601f01601f191660200182016040528015612382576020820181803683370190505b5090505b8415611d98576123976001836136c0565b91506123a4600a86613759565b6123af906030613694565b60f81b8183815181106123d257634e487b7160e01b600052603260045260246000fd5b60200101907effffffffffffffffffffffffffffffffffffffffffffffffffffffffffffff1916908160001a90535061240c600a866136ac565b9450612386565b60006040518060800160405280604381526020016137d760439139805160209182012083518483015160408087015180519086012090516124549501612d12565b604051602081830303815290604052805190602001209050919050565b600061247b612644565b82604051602001612454929190612b92565b6108188383836040516024016124a593929190612d67565b60408051601f198184030181529190526020810180516001600160e01b03166307e763af60e51b17905261264a565b6000818152601060205260409020600601546001600160a01b03166124f857610818565b600081815260106020526040902060060180546001600160a01b0384166001600160a01b0319909116179055505050565b600061253d846001600160a01b031661266b565b1561263957836001600160a01b031663150b7a02612559611a6e565b8786866040518563ffffffff1660e01b815260040161257b9493929190612c51565b602060405180830381600087803b15801561259557600080fd5b505af19250505080156125c5575060408051601f3d908101601f191682019092526125c2918101906129b5565b60015b61261f573d8080156125f3576040519150601f19603f3d011682016040523d82523d6000602084013e6125f8565b606091505b5080516126175760405162461bcd60e51b815260040161076090612dd1565b805181602001fd5b6001600160e01b031916630a85bd0160e11b149050611d98565b506001949350505050565b60005490565b80516a636f6e736f6c652e6c6f67602083016000808483855afa5050505050565b3b151590565b82805461267d90613703565b90600052602060002090601f01602090048101928261269f57600085556126e5565b82601f106126b857805160ff19168380011785556126e5565b828001600101855582156126e5579182015b828111156126e55782518255916020019190600101906126ca565b506126f19291506126f5565b5090565b5b808211156126f157600081556001016126f6565b600067ffffffffffffffff8084111561272557612725613799565b604051601f8501601f19168101602001828111828210171561274957612749613799565b60405284815291508183850186101561276157600080fd5b8484602083013760006020868301015250509392505050565b80356001600160a01b03811681146106a157600080fd5b600082601f8301126127a1578081fd5b6119338383356020850161270a565b803560ff811681146106a157600080fd5b6000602082840312156127d2578081fd5b6119338261277a565b600080604083850312156127ed578081fd5b6127f68361277a565b91506128046020840161277a565b90509250929050565b600080600060608486031215612821578081fd5b61282a8461277a565b92506128386020850161277a565b9150604084013590509250925092565b6000806000806080858703121561285d578081fd5b6128668561277a565b93506128746020860161277a565b925060408501359150606085013567ffffffffffffffff811115612896578182fd5b6128a287828801612791565b91505092959194509250565b600080604083850312156128c0578182fd5b6128c98361277a565b915060208301356128d9816137af565b809150509250929050565b600080600080600060a086880312156128fb578081fd5b6129048661277a565b9450602086013567ffffffffffffffff81111561291f578182fd5b61292b88828901612791565b9450506040860135925060608601359150612948608087016127b0565b90509295509295909350565b60008060408385031215612966578182fd5b61296f8361277a565b946020939093013593505050565b60006020828403121561298e578081fd5b8151611933816137af565b6000602082840312156129aa578081fd5b8135611933816137c0565b6000602082840312156129c6578081fd5b8151611933816137c0565b6000602082840312156129e2578081fd5b813567ffffffffffffffff8111156129f8578182fd5b8201601f81018413612a08578182fd5b611d988482356020840161270a565b600060208284031215612a28578081fd5b5035919050565b600060208284031215612a40578081fd5b5051919050565b600080600080600080600080610100898b031215612a63578586fd5b88359750602089013596506040890135955060608901359450612a8860808a0161277a565b935060a0890135925060c08901359150612aa460e08a016127b0565b90509295985092959890939650565b60008151808452612acb8160208601602086016136d7565b601f01601f19169290920160200192915050565b60008251612af18184602087016136d7565b9190910192915050565b60008351612b0d8184602088016136d7565b60609390931b6bffffffffffffffffffffffff19169190920190815260140192915050565b60008351612b448184602088016136d7565b835190830190612b588183602088016136d7565b01949350505050565b7f19457468657265756d205369676e6564204d6573736167653a0a3332000000008152601c810191909152603c0190565b61190160f01b81526002810192909252602282015260420190565b948552602085019390935260408401919091526060808401919091521b6bffffffffffffffffffffffff1916608082015260940190565b6001600160a01b0391909116815260200190565b60006001600160a01b03808616835280851660208401525060606040830152612c246060830184612ab3565b95945050505050565b6001600160a01b039384168152919092166020820152604081019190915260600190565b60006001600160a01b03808716835280861660208401525083604083015260806060830152612c836080830184612ab3565b9695505050505050565b6001600160a01b03929092168252602082015260400190565b6001600160a01b039586168152602081019490945260408401929092529092166060820152608081019190915260a00190565b6001600160a01b03959095168552602085019390935260408401919091526060830152608082015260a00190565b901515815260200190565b93845260208401929092526001600160a01b03166040830152606082015260800190565b93845260ff9290921660208401526040830152606082015260800190565b6000602082526119336020830184612ab3565b600060608252612d7a6060830186612ab3565b6001600160a01b0394851660208401529290931660409091015292915050565b60208082526016908201527f556e6f52653a206578706972656420616c726561647900000000000000000000604082015260600190565b60208082526032908201527f4552433732313a207472616e7366657220746f206e6f6e20455243373231526560408201527f63656976657220696d706c656d656e7465720000000000000000000000000000606082015260800190565b60208082526013908201527f556e6f52653a207a65726f206164647265737300000000000000000000000000604082015260600190565b6020808252601c908201527f46756e6374696f6e2063616c6c206e6f74207375636365737366756c00000000604082015260600190565b6020808252601c908201527f4552433732313a20746f6b656e20616c7265616479206d696e74656400000000604082015260600190565b6020808252603d908201527f66756e6374696f6e5369676e61747572652063616e206e6f74206265206f662060408201527f657865637574654d6574615472616e73616374696f6e206d6574686f64000000606082015260800190565b6020808252601e908201527f556e6f52653a206d61726b656420746f20636c61696d20616c72656164790000604082015260600190565b60208082526031908201527f5472616e7366657248656c7065723a3a7472616e7366657246726f6d3a20747260408201527f616e7366657246726f6d206661696c6564000000000000000000000000000000606082015260800190565b60208082526034908201527f5472616e7366657248656c7065723a3a736166655472616e736665724554483a60408201527f20455448207472616e73666572206661696c6564000000000000000000000000606082015260800190565b60208082526024908201527f4552433732313a207472616e7366657220746f20746865207a65726f206164646040820152637265737360e01b606082015260800190565b60208082526019908201527f4552433732313a20617070726f766520746f2063616c6c657200000000000000604082015260600190565b60208082526011908201527f496e76616c6964207369676e6174757265000000000000000000000000000000604082015260600190565b6020808252602c908201527f4552433732313a206f70657261746f7220717565727920666f72206e6f6e657860408201526b34b9ba32b73a103a37b5b2b760a11b606082015260800190565b60208082526018908201527f556e6f52653a207369676e617475726520657870697265640000000000000000604082015260600190565b60208082526038908201527f4552433732313a20617070726f76652063616c6c6572206973206e6f74206f7760408201527f6e6572206e6f7220617070726f76656420666f7220616c6c0000000000000000606082015260800190565b60208082526015908201527f556e6f52653a20696e76616c6964207369676e65720000000000000000000000604082015260600190565b6020808252602a908201527f4552433732313a2062616c616e636520717565727920666f7220746865207a65604082015269726f206164647265737360b01b606082015260800190565b60208082526029908201527f4552433732313a206f776e657220717565727920666f72206e6f6e657869737460408201526832b73a103a37b5b2b760b91b606082015260800190565b6020808252601a908201527f556e6f52653a207a65726f206d6178207369676e656454696d65000000000000604082015260600190565b6020808252818101527f4552433732313a206d696e7420746f20746865207a65726f2061646472657373604082015260600190565b6020808252601c908201527f556e6f52653a2053616c6573506f6c69637920466f7262696464656e00000000604082015260600190565b6020808252602c908201527f4552433732313a20617070726f76656420717565727920666f72206e6f6e657860408201526b34b9ba32b73a103a37b5b2b760a11b606082015260800190565b60208082526029908201527f4552433732313a207472616e73666572206f6620746f6b656e2074686174206960408201526839903737ba1037bbb760b91b606082015260800190565b60208082526021908201527f5369676e657220616e64207369676e617475726520646f206e6f74206d6174636040820152600d60fb1b606082015260800190565b6020808252602f908201527f4552433732314d657461646174613a2055524920717565727920666f72206e6f60408201527f6e6578697374656e7420746f6b656e0000000000000000000000000000000000606082015260800190565b6020808252601e908201527f556e6f52653a206e6f742064656669656e64207072656d69756d506f6f6c0000604082015260600190565b6020808252602b908201527f5472616e7366657248656c7065723a3a73616665417070726f76653a2061707060408201526a1c9bdd994819985a5b195960aa1b606082015260800190565b60208082526021908201527f4552433732313a20617070726f76616c20746f2063757272656e74206f776e656040820152603960f91b606082015260800190565b60208082526031908201527f4552433732313a207472616e736665722063616c6c6572206973206e6f74206f60408201527f776e6572206e6f7220617070726f766564000000000000000000000000000000606082015260800190565b60208082526018908201527f556e6f52653a20696e73756666696369656e7420706169640000000000000000604082015260600190565b6020808252601f908201527f5265656e7472616e637947756172643a207265656e7472616e742063616c6c00604082015260600190565b61ffff91909116815260200190565b61ffff9290921682526001600160a01b0316602082015260400190565b600061ffff8416825260406020830152611d986040830184612ab3565b90815260200190565b91825261ffff16602082015260400190565b98895260208901979097526040880195909552606087019390935260808601919091526001600160a01b0390811660a08601521660c0840152151560e083015215156101008201526101200190565b600082198211156136a7576136a761376d565b500190565b6000826136bb576136bb613783565b500490565b6000828210156136d2576136d261376d565b500390565b60005b838110156136f25781810151838201526020016136da565b8381111561123d5750506000910152565b60028104600182168061371757607f821691505b6020821081141561373857634e487b7160e01b600052602260045260246000fd5b50919050565b60006000198214156137525761375261376d565b5060010190565b60008261376857613768613783565b500690565b634e487b7160e01b600052601160045260246000fd5b634e487b7160e01b600052601260045260246000fd5b634e487b7160e01b600052604160045260246000fd5b80151581146137bd57600080fd5b50565b6001600160e01b0319811681146137bd57600080fdfe4d6574615472616e73616374696f6e2875696e74323536206e6f6e63652c616464726573732066726f6d2c62797465732066756e6374696f6e5369676e617475726529a26469706673582212201e85647f77d8dfa210110846a235b1af8343cd1db7991db1c104d8971e3b796a64736f6c63430008000033454950373132446f6d61696e28737472696e67206e616d652c737472696e672076657273696f6e2c6164647265737320766572696679696e67436f6e74726163742c627974657333322073616c7429a26469706673582212201c15a9c6901e7c2c4a61e770867b5b0bc46e26d329fd604c16b8d0b453f64a9064736f6c63430008000033",
  "devdoc": {
    "kind": "dev",
    "methods": {},
    "version": 1
  },
  "userdoc": {
    "kind": "user",
    "methods": {},
    "version": 1
  },
  "storageLayout": {
    "storage": [
      {
        "astId": 114,
        "contract": "contracts/factories/SalesPolicyFactory.sol:SalesPolicyFactory",
        "label": "_status",
        "offset": 0,
        "slot": "0",
        "type": "t_uint256"
      },
      {
        "astId": 12734,
        "contract": "contracts/factories/SalesPolicyFactory.sol:SalesPolicyFactory",
        "label": "premiumPool",
        "offset": 0,
        "slot": "1",
        "type": "t_address"
      },
      {
        "astId": 12736,
        "contract": "contracts/factories/SalesPolicyFactory.sol:SalesPolicyFactory",
        "label": "owner",
        "offset": 0,
        "slot": "2",
        "type": "t_address"
      },
      {
        "astId": 12738,
        "contract": "contracts/factories/SalesPolicyFactory.sol:SalesPolicyFactory",
        "label": "exchangeAgent",
        "offset": 0,
        "slot": "3",
        "type": "t_address"
      },
      {
        "astId": 12740,
        "contract": "contracts/factories/SalesPolicyFactory.sol:SalesPolicyFactory",
        "label": "capitalAgent",
        "offset": 0,
        "slot": "4",
        "type": "t_address"
      },
      {
        "astId": 12745,
        "contract": "contracts/factories/SalesPolicyFactory.sol:SalesPolicyFactory",
        "label": "getProtocol",
        "offset": 0,
        "slot": "5",
        "type": "t_mapping(t_uint16,t_struct(Protocol)12732_storage)"
      },
      {
        "astId": 12748,
        "contract": "contracts/factories/SalesPolicyFactory.sol:SalesPolicyFactory",
        "label": "protocolIds",
        "offset": 0,
        "slot": "6",
        "type": "t_struct(Counter)2094_storage"
      },
      {
        "astId": 12750,
        "contract": "contracts/factories/SalesPolicyFactory.sol:SalesPolicyFactory",
        "label": "USDT_TOKEN",
        "offset": 0,
        "slot": "7",
        "type": "t_address"
      },
      {
        "astId": 12752,
        "contract": "contracts/factories/SalesPolicyFactory.sol:SalesPolicyFactory",
        "label": "UNO_TOKEN",
        "offset": 0,
        "slot": "8",
        "type": "t_address"
      }
    ],
    "types": {
      "t_address": {
        "encoding": "inplace",
        "label": "address",
        "numberOfBytes": "20"
      },
      "t_bool": {
        "encoding": "inplace",
        "label": "bool",
        "numberOfBytes": "1"
      },
      "t_mapping(t_uint16,t_struct(Protocol)12732_storage)": {
        "encoding": "mapping",
        "key": "t_uint16",
        "label": "mapping(uint16 => struct SalesPolicyFactory.Protocol)",
        "numberOfBytes": "32",
        "value": "t_struct(Protocol)12732_storage"
      },
      "t_string_storage": {
        "encoding": "bytes",
        "label": "string",
        "numberOfBytes": "32"
      },
      "t_struct(Counter)2094_storage": {
        "encoding": "inplace",
        "label": "struct Counters.Counter",
        "members": [
          {
            "astId": 2093,
            "contract": "contracts/factories/SalesPolicyFactory.sol:SalesPolicyFactory",
            "label": "_value",
            "offset": 0,
            "slot": "0",
            "type": "t_uint256"
          }
        ],
        "numberOfBytes": "32"
      },
      "t_struct(Protocol)12732_storage": {
        "encoding": "inplace",
        "label": "struct SalesPolicyFactory.Protocol",
        "members": [
          {
            "astId": 12715,
            "contract": "contracts/factories/SalesPolicyFactory.sol:SalesPolicyFactory",
            "label": "coverDuration",
            "offset": 0,
            "slot": "0",
            "type": "t_uint256"
          },
          {
            "astId": 12717,
            "contract": "contracts/factories/SalesPolicyFactory.sol:SalesPolicyFactory",
            "label": "mcr",
            "offset": 0,
            "slot": "1",
            "type": "t_uint256"
          },
          {
            "astId": 12719,
            "contract": "contracts/factories/SalesPolicyFactory.sol:SalesPolicyFactory",
            "label": "protocolAddress",
            "offset": 0,
            "slot": "2",
            "type": "t_address"
          },
          {
            "astId": 12721,
            "contract": "contracts/factories/SalesPolicyFactory.sol:SalesPolicyFactory",
            "label": "protocolCurrency",
            "offset": 0,
            "slot": "3",
            "type": "t_address"
          },
          {
            "astId": 12723,
            "contract": "contracts/factories/SalesPolicyFactory.sol:SalesPolicyFactory",
            "label": "name",
            "offset": 0,
            "slot": "4",
            "type": "t_string_storage"
          },
          {
            "astId": 12725,
            "contract": "contracts/factories/SalesPolicyFactory.sol:SalesPolicyFactory",
            "label": "productType",
            "offset": 0,
            "slot": "5",
            "type": "t_string_storage"
          },
          {
            "astId": 12727,
            "contract": "contracts/factories/SalesPolicyFactory.sol:SalesPolicyFactory",
            "label": "premiumDescription",
            "offset": 0,
            "slot": "6",
            "type": "t_string_storage"
          },
          {
            "astId": 12729,
            "contract": "contracts/factories/SalesPolicyFactory.sol:SalesPolicyFactory",
            "label": "salesPolicy",
            "offset": 0,
            "slot": "7",
            "type": "t_address"
          },
          {
            "astId": 12731,
            "contract": "contracts/factories/SalesPolicyFactory.sol:SalesPolicyFactory",
            "label": "exist",
            "offset": 20,
            "slot": "7",
            "type": "t_bool"
          }
        ],
        "numberOfBytes": "256"
      },
      "t_uint16": {
        "encoding": "inplace",
        "label": "uint16",
        "numberOfBytes": "2"
      },
      "t_uint256": {
        "encoding": "inplace",
        "label": "uint256",
        "numberOfBytes": "32"
      }
    }
  }
}