{
  "address": "0x09Dd90e1CD8B07b872D86C93DD21e6a49c5d9C85",
  "abi": [
    {
      "inputs": [
        {
          "internalType": "address",
          "name": "_owner",
          "type": "address"
        },
        {
          "internalType": "address",
          "name": "_claimAssessor",
          "type": "address"
        },
        {
          "internalType": "address",
          "name": "_exchangeAgent",
          "type": "address"
        },
        {
          "internalType": "address",
          "name": "_USDT_TOKEN",
          "type": "address"
        },
        {
          "internalType": "address",
          "name": "_capitalAgent",
          "type": "address"
        }
      ],
      "stateMutability": "nonpayable",
      "type": "constructor"
    },
    {
      "anonymous": false,
      "inputs": [
        {
          "indexed": true,
          "internalType": "address",
          "name": "_user",
          "type": "address"
        },
        {
          "indexed": true,
          "internalType": "address",
          "name": "_receiver",
          "type": "address"
        },
        {
          "indexed": false,
          "internalType": "uint256",
          "name": "_amount",
          "type": "uint256"
        }
      ],
      "name": "Harvest",
      "type": "event"
    },
    {
      "anonymous": false,
      "inputs": [
        {
          "indexed": true,
          "internalType": "address",
          "name": "_staker",
          "type": "address"
        },
        {
          "indexed": true,
          "internalType": "address",
          "name": "_pool",
          "type": "address"
        },
        {
          "indexed": false,
          "internalType": "uint256",
          "name": "_requestAmount",
          "type": "uint256"
        }
      ],
      "name": "LeftPool",
      "type": "event"
    },
    {
      "anonymous": false,
      "inputs": [
        {
          "indexed": true,
          "internalType": "address",
          "name": "_SSIP",
          "type": "address"
        },
        {
          "indexed": true,
          "internalType": "address",
          "name": "_rewarder",
          "type": "address"
        },
        {
          "indexed": false,
          "internalType": "address",
          "name": "_currency",
          "type": "address"
        }
      ],
      "name": "LogCreateRewarder",
      "type": "event"
    },
    {
      "anonymous": false,
      "inputs": [
        {
          "indexed": true,
          "internalType": "address",
          "name": "_user",
          "type": "address"
        },
        {
          "indexed": false,
          "internalType": "uint256",
          "name": "_withdrawLpAmount",
          "type": "uint256"
        },
        {
          "indexed": false,
          "internalType": "uint256",
          "name": "_withdrawUnoAmount",
          "type": "uint256"
        }
      ],
      "name": "LogLeaveFromPendingSSIP",
      "type": "event"
    },
    {
      "anonymous": false,
      "inputs": [
        {
          "indexed": true,
          "internalType": "address",
          "name": "_from",
          "type": "address"
        },
        {
          "indexed": true,
          "internalType": "address",
          "name": "_to",
          "type": "address"
        },
        {
          "indexed": false,
          "internalType": "uint256",
          "name": "_amount",
          "type": "uint256"
        }
      ],
      "name": "LogLpTransferInSSIP",
      "type": "event"
    },
    {
      "anonymous": false,
      "inputs": [
        {
          "indexed": true,
          "internalType": "address",
          "name": "_exchangeAgent",
          "type": "address"
        }
      ],
      "name": "LogSetExchangeAgent",
      "type": "event"
    },
    {
      "anonymous": false,
      "inputs": [
        {
          "indexed": false,
          "internalType": "uint128",
          "name": "_lastRewardBlock",
          "type": "uint128"
        },
        {
          "indexed": false,
          "internalType": "uint256",
          "name": "_lpSupply",
          "type": "uint256"
        },
        {
          "indexed": false,
          "internalType": "uint256",
          "name": "_accUnoPerShare",
          "type": "uint256"
        }
      ],
      "name": "LogUpdatePool",
      "type": "event"
    },
    {
      "anonymous": false,
      "inputs": [
        {
          "indexed": true,
          "internalType": "address",
          "name": "_user",
          "type": "address"
        },
        {
          "indexed": false,
          "internalType": "uint256",
          "name": "_claimAmount",
          "type": "uint256"
        }
      ],
      "name": "PolicyClaim",
      "type": "event"
    },
    {
      "anonymous": false,
      "inputs": [
        {
          "indexed": true,
          "internalType": "address",
          "name": "_SSIP",
          "type": "address"
        },
        {
          "indexed": true,
          "internalType": "address",
          "name": "_pool",
          "type": "address"
        }
      ],
      "name": "RiskPoolCreated",
      "type": "event"
    },
    {
      "anonymous": false,
      "inputs": [
        {
          "indexed": true,
          "internalType": "address",
          "name": "_staker",
          "type": "address"
        },
        {
          "indexed": true,
          "internalType": "address",
          "name": "_pool",
          "type": "address"
        },
        {
          "indexed": false,
          "internalType": "uint256",
          "name": "_amount",
          "type": "uint256"
        }
      ],
      "name": "StakedInPool",
      "type": "event"
    },
    {
      "inputs": [],
      "name": "ACC_UNO_PRECISION",
      "outputs": [
        {
          "internalType": "uint256",
          "name": "",
          "type": "uint256"
        }
      ],
      "stateMutability": "view",
      "type": "function"
    },
    {
      "inputs": [],
      "name": "LOCK_TIME",
      "outputs": [
        {
          "internalType": "uint256",
          "name": "",
          "type": "uint256"
        }
      ],
      "stateMutability": "view",
      "type": "function"
    },
    {
      "inputs": [],
      "name": "USDT_TOKEN",
      "outputs": [
        {
          "internalType": "address",
          "name": "",
          "type": "address"
        }
      ],
      "stateMutability": "view",
      "type": "function"
    },
    {
      "inputs": [],
      "name": "cancelWithdrawRequest",
      "outputs": [],
      "stateMutability": "nonpayable",
      "type": "function"
    },
    {
      "inputs": [],
      "name": "capitalAgent",
      "outputs": [
        {
          "internalType": "address",
          "name": "",
          "type": "address"
        }
      ],
      "stateMutability": "view",
      "type": "function"
    },
    {
      "inputs": [],
      "name": "claimAssessor",
      "outputs": [
        {
          "internalType": "address",
          "name": "",
          "type": "address"
        }
      ],
      "stateMutability": "view",
      "type": "function"
    },
    {
      "inputs": [
        {
          "internalType": "address",
          "name": "_operator",
          "type": "address"
        },
        {
          "internalType": "address",
          "name": "_factory",
          "type": "address"
        },
        {
          "internalType": "address",
          "name": "_currency",
          "type": "address"
        }
      ],
      "name": "createRewarder",
      "outputs": [],
      "stateMutability": "nonpayable",
      "type": "function"
    },
    {
      "inputs": [
        {
          "internalType": "string",
          "name": "_name",
          "type": "string"
        },
        {
          "internalType": "string",
          "name": "_symbol",
          "type": "string"
        },
        {
          "internalType": "address",
          "name": "_factory",
          "type": "address"
        },
        {
          "internalType": "address",
          "name": "_currency",
          "type": "address"
        },
        {
          "internalType": "uint256",
          "name": "_rewardMultiplier",
          "type": "uint256"
        }
      ],
      "name": "createRiskPool",
      "outputs": [],
      "stateMutability": "nonpayable",
      "type": "function"
    },
    {
      "inputs": [
        {
          "internalType": "uint256",
          "name": "_amount",
          "type": "uint256"
        }
      ],
      "name": "enterInPool",
      "outputs": [],
      "stateMutability": "nonpayable",
      "type": "function"
    },
    {
      "inputs": [
        {
          "internalType": "address",
          "name": "_to",
          "type": "address"
        }
      ],
      "name": "getStakedAmountPerUser",
      "outputs": [
        {
          "internalType": "uint256",
          "name": "unoAmount",
          "type": "uint256"
        },
        {
          "internalType": "uint256",
          "name": "lpAmount",
          "type": "uint256"
        }
      ],
      "stateMutability": "view",
      "type": "function"
    },
    {
      "inputs": [],
      "name": "getTotalWithdrawPendingAmount",
      "outputs": [
        {
          "internalType": "uint256",
          "name": "",
          "type": "uint256"
        }
      ],
      "stateMutability": "view",
      "type": "function"
    },
    {
      "inputs": [
        {
          "internalType": "address",
          "name": "_user",
          "type": "address"
        }
      ],
      "name": "getWithdrawRequestPerUser",
      "outputs": [
        {
          "internalType": "uint256",
          "name": "pendingAmount",
          "type": "uint256"
        },
        {
          "internalType": "uint256",
          "name": "pendingAmountInUno",
          "type": "uint256"
        },
        {
          "internalType": "uint256",
          "name": "originUnoAmount",
          "type": "uint256"
        },
        {
          "internalType": "uint256",
          "name": "requestTime",
          "type": "uint256"
        }
      ],
      "stateMutability": "view",
      "type": "function"
    },
    {
      "inputs": [
        {
          "internalType": "address",
          "name": "_to",
          "type": "address"
        }
      ],
      "name": "harvest",
      "outputs": [],
      "stateMutability": "nonpayable",
      "type": "function"
    },
    {
      "inputs": [],
      "name": "leaveFromPending",
      "outputs": [],
      "stateMutability": "nonpayable",
      "type": "function"
    },
    {
      "inputs": [
        {
          "internalType": "uint256",
          "name": "_amount",
          "type": "uint256"
        }
      ],
      "name": "leaveFromPoolInPending",
      "outputs": [],
      "stateMutability": "nonpayable",
      "type": "function"
    },
    {
      "inputs": [
        {
          "internalType": "address",
          "name": "_from",
          "type": "address"
        },
        {
          "internalType": "address",
          "name": "_to",
          "type": "address"
        },
        {
          "internalType": "uint256",
          "name": "_amount",
          "type": "uint256"
        }
      ],
      "name": "lpTransfer",
      "outputs": [],
      "stateMutability": "nonpayable",
      "type": "function"
    },
    {
      "inputs": [],
      "name": "migrate",
      "outputs": [],
      "stateMutability": "nonpayable",
      "type": "function"
    },
    {
      "inputs": [],
      "name": "migrateTo",
      "outputs": [
        {
          "internalType": "address",
          "name": "",
          "type": "address"
        }
      ],
      "stateMutability": "view",
      "type": "function"
    },
    {
      "inputs": [],
      "name": "owner",
      "outputs": [
        {
          "internalType": "address",
          "name": "",
          "type": "address"
        }
      ],
      "stateMutability": "view",
      "type": "function"
    },
    {
      "inputs": [
        {
          "internalType": "address",
          "name": "_to",
          "type": "address"
        }
      ],
      "name": "pendingUno",
      "outputs": [
        {
          "internalType": "uint256",
          "name": "pending",
          "type": "uint256"
        }
      ],
      "stateMutability": "view",
      "type": "function"
    },
    {
      "inputs": [
        {
          "internalType": "address",
          "name": "_to",
          "type": "address"
        },
        {
          "internalType": "uint256",
          "name": "_amount",
          "type": "uint256"
        }
      ],
      "name": "policyClaim",
      "outputs": [],
      "stateMutability": "nonpayable",
      "type": "function"
    },
    {
      "inputs": [],
      "name": "poolInfo",
      "outputs": [
        {
          "internalType": "uint128",
          "name": "lastRewardBlock",
          "type": "uint128"
        },
        {
          "internalType": "uint128",
          "name": "accUnoPerShare",
          "type": "uint128"
        },
        {
          "internalType": "uint256",
          "name": "unoMultiplierPerBlock",
          "type": "uint256"
        }
      ],
      "stateMutability": "view",
      "type": "function"
    },
    {
      "inputs": [],
      "name": "rewarder",
      "outputs": [
        {
          "internalType": "address",
          "name": "",
          "type": "address"
        }
      ],
      "stateMutability": "view",
      "type": "function"
    },
    {
      "inputs": [],
      "name": "riskPool",
      "outputs": [
        {
          "internalType": "address",
          "name": "",
          "type": "address"
        }
      ],
      "stateMutability": "view",
      "type": "function"
    },
    {
      "inputs": [
        {
          "internalType": "address",
          "name": "_capitalAgent",
          "type": "address"
        }
      ],
      "name": "setCapitalAgent",
      "outputs": [],
      "stateMutability": "nonpayable",
      "type": "function"
    },
    {
      "inputs": [
        {
          "internalType": "address",
          "name": "_claimAssessor",
          "type": "address"
        }
      ],
      "name": "setClaimAssessor",
      "outputs": [],
      "stateMutability": "nonpayable",
      "type": "function"
    },
    {
      "inputs": [
        {
          "internalType": "address",
          "name": "_exchangeAgent",
          "type": "address"
        }
      ],
      "name": "setExchangeAgent",
      "outputs": [],
      "stateMutability": "nonpayable",
      "type": "function"
    },
    {
      "inputs": [
        {
          "internalType": "address",
          "name": "_migrateTo",
          "type": "address"
        }
      ],
      "name": "setMigrateTo",
      "outputs": [],
      "stateMutability": "nonpayable",
      "type": "function"
    },
    {
      "inputs": [
        {
          "internalType": "uint256",
          "name": "_minLPCapital",
          "type": "uint256"
        }
      ],
      "name": "setMinLPCapital",
      "outputs": [],
      "stateMutability": "nonpayable",
      "type": "function"
    },
    {
      "inputs": [
        {
          "internalType": "uint256",
          "name": "_rewardMultiplier",
          "type": "uint256"
        }
      ],
      "name": "setRewardMultiplier",
      "outputs": [],
      "stateMutability": "nonpayable",
      "type": "function"
    },
    {
      "inputs": [],
      "name": "updatePool",
      "outputs": [],
      "stateMutability": "nonpayable",
      "type": "function"
    },
    {
      "inputs": [
        {
          "internalType": "address",
          "name": "",
          "type": "address"
        }
      ],
      "name": "userInfo",
      "outputs": [
        {
          "internalType": "uint256",
          "name": "lastWithdrawTime",
          "type": "uint256"
        },
        {
          "internalType": "uint256",
          "name": "rewardDebt",
          "type": "uint256"
        },
        {
          "internalType": "uint256",
          "name": "amount",
          "type": "uint256"
        }
      ],
      "stateMutability": "view",
      "type": "function"
    }
  ],
  "transactionHash": "0x92cba9bd2003a44f4e0ace1250124fc49b9f8273c1fe7900f828fce8c8089383",
  "args": [
    "0x5569BDF4e02cec3fE459796e3d0e741616029fA4",
    "0x5569BDF4e02cec3fE459796e3d0e741616029fA4",
    "0xA31158b2fDF02a6E14fbd12F121F03657b92d1B1",
    "0x40c035016AD732b6cFce34c3F881040B6C6cf71E",
    "0xc16d5d06154eCd6D6Dd7e2EcDd63f4070273F2E7"
  ],
  "solcInputHash": "50cabb577fc819d7f2df2b36d784cbc9",
  "bytecode": "0x60806040523480156200001157600080fd5b5060405162002d8638038062002d868339810160408190526200003491620000b8565b6001600081905580546001600160a01b03199081166001600160a01b03978816179091556003805482169487169490941790935560028054841694861694909417909355600580548316918516919091179055600680549091169190921617905562000127565b80516001600160a01b0381168114620000b357600080fd5b919050565b600080600080600060a08688031215620000d0578081fd5b620000db866200009b565b9450620000eb602087016200009b565b9350620000fb604087016200009b565b92506200010b606087016200009b565b91506200011b608087016200009b565b90509295509295909350565b612c4f80620001376000396000f3fe608060405234801561001057600080fd5b50600436106101f05760003560e01c80638fd3ab801161010f578063c2eb8eb9116100a2578063e08c5de111610071578063e08c5de1146103db578063e19e7168146103ee578063e3161ddd146103f6578063e3824a38146103fe576101f0565b8063c2eb8eb9146103b0578063c4e5dacf146103c3578063c6e89915146103cb578063dcc3e06e146103d3576101f0565b8063a3bdd632116100de578063a3bdd6321461036c578063af16d6e014610374578063ba61945714610387578063bc8f8828146103a8576101f0565b80638fd3ab80146103265780639336f4061461032e57806393b6b86c1461035157806398c6e76014610364576101f0565b806342198160116101875780638395206c116101565780638395206c146102f057806389919b71146103035780638ba04b171461030b5780638da5cb5b1461031e576101f0565b806342198160146102a95780635a2f3d09146102be578063736ec05c146102d557806377b330c9146102e8576101f0565b806318a00d8e116101c357806318a00d8e146102435780631959a002146102565780632e4a014214610281578063413d9c3a14610294576101f0565b80630bd075a1146101f55780630e5c011e1461020a5780630e9ae4201461021d578063157f71ed14610230575b600080fd5b6102086102033660046125b0565b610411565b005b6102086102183660046123ff565b610469565b61020861022b366004612488565b6104a2565b61020861023e3660046123ff565b610768565b6102086102513660046123ff565b6107da565b6102696102643660046123ff565b610874565b60405161027893929190612b21565b60405180910390f35b61020861028f3660046124c8565b610895565b61029c6109ff565b6040516102789190612b0a565b6102b1610a06565b6040516102789190612693565b6102c6610a15565b60405161027893929190612ac3565b6102086102e33660046123ff565b610a33565b6102b1610aa5565b6102086102fe3660046125b0565b610ab4565b61029c610d11565b610208610319366004612513565b610d1d565b6102b1610f0c565b610208610f1b565b61034161033c3660046123ff565b611092565b6040516102789493929190612b37565b61020861035f3660046125b0565b6111d0565b6102b161127f565b61029c61128e565b61020861038236600461243e565b611310565b61039a6103953660046123ff565b61146f565b604051610278929190612b13565b61020861152a565b6102086103be3660046123ff565b611925565b6102b1611997565b6102b16119a6565b6102b16119b5565b61029c6103e93660046123ff565b6119c4565b610208611b2e565b610208611bbf565b61020861040c3660046125b0565b611d55565b6001546001600160a01b031633146104445760405162461bcd60e51b815260040161043b906129b4565b60405180910390fd5b600081116104645760405162461bcd60e51b815260040161043b9061290f565b600b55565b6002600054141561048c5760405162461bcd60e51b815260040161043b90612a20565b600260005561049a81612121565b506001600055565b600260005414156104c55760405162461bcd60e51b815260040161043b90612a20565b60026000556008546001600160a01b031633146104f45760405162461bcd60e51b815260040161043b90612a8e565b6104fd83612121565b6001600160a01b03808416600090815260096020526040808220600201546008549151631665744b60e11b815290939190911690632ccae89690610545908890600401612693565b60606040518083038186803b15801561055d57600080fd5b505afa158015610571573d6000803e3d6000fd5b505050506040513d601f19601f820116820180604052508101906105959190612603565b505090508281836105a69190612bd4565b10156105c45760405162461bcd60e51b815260040161043b9061286c565b600a54600090670de0b6b3a7640000906105ee90600160801b90046001600160801b031685612bb5565b6105f89190612b95565b600a54909150670de0b6b3a76400009061062290600160801b90046001600160801b031686612bb5565b61062c9190612b95565b6106369082612bd4565b6001600160a01b03871660009081526009602052604090206001015561065c8484612bd4565b6001600160a01b038716600090815260096020526040902060020155600a54670de0b6b3a76400009061069f90600160801b90046001600160801b031686612bb5565b6106a99190612b95565b6001600160a01b0386166000908152600960205260409020600101546106cf9190612b7d565b6001600160a01b03861660009081526009602052604090206001810191909155600201546106fe908590612b7d565b6001600160a01b0380871660008181526009602052604090819020600201939093559151908816907fabc254a3e8b16a8605ce22e693a6e493e375434011c1a7ff082d09e2a84ad12190610753908890612b0a565b60405180910390a35050600160005550505050565b6001546001600160a01b031633146107925760405162461bcd60e51b815260040161043b906129b4565b6001600160a01b0381166107b85760405162461bcd60e51b815260040161043b906127a1565b600280546001600160a01b0319166001600160a01b0392909216919091179055565b6001546001600160a01b031633146108045760405162461bcd60e51b815260040161043b906129b4565b6001600160a01b03811661082a5760405162461bcd60e51b815260040161043b906127a1565b600380546001600160a01b0319166001600160a01b0383169081179091556040517fbdca3ec80f8567aeaf30c6168374c798baf11902e9b21c2b8ba3186ffd13012290600090a250565b60096020526000908152604090208054600182015460029092015490919083565b6002546001600160a01b031633146108bf5760405162461bcd60e51b815260040161043b906129b4565b600260005414156108e25760405162461bcd60e51b815260040161043b90612a20565b60026000556001600160a01b03821661090d5760405162461bcd60e51b815260040161043b906127a1565b6000811161092d5760405162461bcd60e51b815260040161043b90612946565b60085460405163172500a160e11b81526000916001600160a01b031690632e4a0142906109609086908690600401612712565b602060405180830381600087803b15801561097a57600080fd5b505af115801561098e573d6000803e3d6000fd5b505050506040513d601f19601f820116820180604052508101906109b291906125c8565b9050826001600160a01b03167f6420c9536b9a539410a930b1fd8d115dc296d8b71426dcc0ab64f2f736b7d59f826040516109ed9190612b0a565b60405180910390a25050600160005550565b6201518081565b6006546001600160a01b031681565b600a54600b546001600160801b0380831692600160801b9004169083565b6001546001600160a01b03163314610a5d5760405162461bcd60e51b815260040161043b906129b4565b6001600160a01b038116610a835760405162461bcd60e51b815260040161043b906127a1565b600480546001600160a01b0319166001600160a01b0392909216919091179055565b6005546001600160a01b031681565b60026000541415610ad75760405162461bcd60e51b815260040161043b90612a20565b6002600055610ae533612121565b336000908152600960209081526040808320600201546008548251627a9fd960e91b815292519194936001600160a01b039091169263f53fb2009260048083019392829003018186803b158015610b3b57600080fd5b505afa158015610b4f573d6000803e3d6000fd5b505050506040513d601f19601f82011682018060405250810190610b7391906125c8565b600854604051631665744b60e11b81529192506000916001600160a01b0390911690632ccae89690610ba9903390600401612693565b60606040518083038186803b158015610bc157600080fd5b505afa158015610bd5573d6000803e3d6000fd5b505050506040513d601f19601f82011682018060405250810190610bf99190612603565b5050905083670de0b6b3a7640000838386610c149190612bd4565b610c1e9190612bb5565b610c289190612b95565b1015610c465760405162461bcd60e51b815260040161043b906127d8565b6008546040516323de6d9560e11b81526001600160a01b03909116906347bcdb2a90610c789033908890600401612712565b600060405180830381600087803b158015610c9257600080fd5b505af1158015610ca6573d6000803e3d6000fd5b5050336000818152600960205260409081902042905560085490516001600160a01b0390911693509091507f940a14c75c418e7230a2e65567722d2dda5a6713cf71b369bd0fa219fdc1ac5e90610cfe908890612b0a565b60405180910390a3505060016000555050565b670de0b6b3a764000081565b6001546001600160a01b03163314610d475760405162461bcd60e51b815260040161043b906129b4565b60026000541415610d6a5760405162461bcd60e51b815260040161043b90612a20565b60026000556008546001600160a01b031615610d985760405162461bcd60e51b815260040161043b906128a3565b604051630d98e31f60e01b81526001600160a01b03841690630d98e31f90610dce908a908a908a908a9030908a90600401612753565b602060405180830381600087803b158015610de857600080fd5b505af1158015610dfc573d6000803e3d6000fd5b505050506040513d601f19601f82011682018060405250810190610e209190612422565b600880546001600160a01b0319166001600160a01b03928316179055600a80546fffffffffffffffffffffffffffffffff1916436001600160801b0390811691909117169055600b82905560065460405163d914cd4b60e01b815291169063d914cd4b90610e92903090600401612693565b600060405180830381600087803b158015610eac57600080fd5b505af1158015610ec0573d6000803e3d6000fd5b50506008546040516001600160a01b0390911692503091507f184d7691bf4a73930a21086fa1bdf0ee3075421531a60730288325fd5838021790600090a3505060016000555050505050565b6001546001600160a01b031681565b60026000541415610f3e5760405162461bcd60e51b815260040161043b90612a20565b60026000556004546001600160a01b0316610f6b5760405162461bcd60e51b815260040161043b906127a1565b610f7433612121565b336000908152600960205260408120600281015490549091906201518090610f9c9042612bd4565b60085460048054604051633613302f60e01b81529490931194506001600160a01b0391821693633613302f93610fd99333939116918791016126ca565b600060405180830381600087803b158015610ff357600080fd5b505af1158015611007573d6000803e3d6000fd5b50506004805460405163ed59344b60e01b81526001600160a01b03909116935063ed59344b925061103c91339187910161272b565b600060405180830381600087803b15801561105657600080fd5b505af115801561106a573d6000803e3d6000fd5b5050336000908152600960205260408120600281018290556001908101829055905550505050565b6000806000806000600860009054906101000a90046001600160a01b03166001600160a01b031663f53fb2006040518163ffffffff1660e01b815260040160206040518083038186803b1580156110e857600080fd5b505afa1580156110fc573d6000803e3d6000fd5b505050506040513d601f19601f8201168201806040525081019061112091906125c8565b600854604051631665744b60e11b81529192506001600160a01b031690632ccae89690611151908990600401612693565b60606040518083038186803b15801561116957600080fd5b505afa15801561117d573d6000803e3d6000fd5b505050506040513d601f19601f820116820180604052508101906111a19190612603565b9196509093509150670de0b6b3a76400006111bc8287612bb5565b6111c69190612b95565b9350509193509193565b6001546001600160a01b031633146111fa5760405162461bcd60e51b815260040161043b906129b4565b6000811161121a5760405162461bcd60e51b815260040161043b90612a57565b6008546040516324edae1b60e21b81526001600160a01b03909116906393b6b86c9061124a908490600401612b0a565b600060405180830381600087803b15801561126457600080fd5b505af1158015611278573d6000803e3d6000fd5b5050505050565b6004546001600160a01b031681565b6008546040805163e95aa8d360e01b815290516000926001600160a01b03169163e95aa8d3916004808301926020929190829003018186803b1580156112d357600080fd5b505afa1580156112e7573d6000803e3d6000fd5b505050506040513d601f19601f8201168201806040525081019061130b91906125c8565b905090565b6001546001600160a01b0316331461133a5760405162461bcd60e51b815260040161043b906129b4565b6002600054141561135d5760405162461bcd60e51b815260040161043b90612a20565b60026000556001600160a01b0382166113885760405162461bcd60e51b815260040161043b906129eb565b6040516369ee745160e01b81526001600160a01b038316906369ee7451906113b8908690859030906004016126a7565b602060405180830381600087803b1580156113d257600080fd5b505af11580156113e6573d6000803e3d6000fd5b505050506040513d601f19601f8201168201806040525081019061140a9190612422565b600780546001600160a01b0319166001600160a01b03928316179081905560405191169030907f6c409a36847a0a3870deae25f656f4300d45957d2643fc27faab145e19cfcf1b9061145d908590612693565b60405180910390a35050600160005550565b6001600160a01b038082166000908152600960209081526040808320600201546008548251627a9fd960e91b81529251949591948694919092169263f53fb2009260048083019392829003018186803b1580156114cb57600080fd5b505afa1580156114df573d6000803e3d6000fd5b505050506040513d601f19601f8201168201806040525081019061150391906125c8565b9050670de0b6b3a76400006115188284612bb5565b6115229190612b95565b925050915091565b6002600054141561154d5760405162461bcd60e51b815260040161043b90612a20565b600260009081553381526009602052604090205462015180906115709042612bd4565b101561158e5760405162461bcd60e51b815260040161043b906128d8565b61159733612121565b33600081815260096020526040808220600201546008549151631665744b60e11b8152909383926001600160a01b031691632ccae896916115da91600401612693565b60606040518083038186803b1580156115f257600080fd5b505afa158015611606573d6000803e3d6000fd5b505050506040513d601f19601f8201168201806040525081019061162a9190612603565b92505091506000600860009054906101000a90046001600160a01b03166001600160a01b031663e5a6b10f6040518163ffffffff1660e01b815260040160206040518083038186803b15801561167f57600080fd5b505afa158015611693573d6000803e3d6000fd5b505050506040513d601f19601f820116820180604052508101906116b79190612422565b600354600554604051631a44cdf360e11b81529293506000926001600160a01b03928316926334899be6926116f69287929091169088906004016126ee565b60206040518083038186803b15801561170e57600080fd5b505afa158015611722573d6000803e3d6000fd5b505050506040513d601f19601f8201168201806040525081019061174691906125c8565b6006546040516311b23bc560e11b81529192506001600160a01b031690632364778a906117799086908590600401612b13565b600060405180830381600087803b15801561179357600080fd5b505af11580156117a7573d6000803e3d6000fd5b5050600a5460009250670de0b6b3a764000091506117d590600160801b90046001600160801b031688612bb5565b6117df9190612b95565b600a54909150670de0b6b3a76400009061180990600160801b90046001600160801b031687612bb5565b6118139190612b95565b61181d9082612bd4565b3360008181526009602052604080822060010193909355600854925163b20ecd1560e01b8152909283926001600160a01b039091169163b20ecd159161186591600401612693565b6040805180830381600087803b15801561187e57600080fd5b505af1158015611892573d6000803e3d6000fd5b505050506040513d601f19601f820116820180604052508101906118b691906125e0565b90925090506118c58289612bd4565b33600081815260096020526040908190206002019290925590517fb307c5ea066d3a6d37e8de2f87ccfe31b6a3852e4df8d60a6d70b93b2f8a2ed59061190e9085908590612b13565b60405180910390a250506001600055505050505050565b6001546001600160a01b0316331461194f5760405162461bcd60e51b815260040161043b906129b4565b6001600160a01b0381166119755760405162461bcd60e51b815260040161043b906127a1565b600680546001600160a01b0319166001600160a01b0392909216919091179055565b6008546001600160a01b031681565b6002546001600160a01b031681565b6007546001600160a01b031681565b600080600860009054906101000a90046001600160a01b03166001600160a01b03166318160ddd6040518163ffffffff1660e01b815260040160206040518083038186803b158015611a1557600080fd5b505afa158015611a29573d6000803e3d6000fd5b505050506040513d601f19601f82011682018060405250810190611a4d91906125c8565b600a549091506001600160801b03600160801b82048116911643118015611a7357508115155b15611ad257600a54600090611a91906001600160801b031643612bd4565b600b54909150600090611aa49083612bb5565b905083611ab9670de0b6b3a764000083612bb5565b611ac39190612b95565b611acd9084612b52565b925050505b6001600160a01b03841660009081526009602052604090206002810154600190910154670de0b6b3a7640000611b116001600160801b03851684612bb5565b611b1b9190612b95565b611b259190612bd4565b95945050505050565b60026000541415611b515760405162461bcd60e51b815260040161043b90612a20565b60026000556008546040516306e6829960e51b81526001600160a01b039091169063dcd0532090611b86903390600401612693565b600060405180830381600087803b158015611ba057600080fd5b505af1158015611bb4573d6000803e3d6000fd5b505060016000555050565b600a546001600160801b0316431115611d5357600854604080516318160ddd60e01b815290516000926001600160a01b0316916318160ddd916004808301926020929190829003018186803b158015611c1757600080fd5b505afa158015611c2b573d6000803e3d6000fd5b505050506040513d601f19601f82011682018060405250810190611c4f91906125c8565b90508015611cdf57600a54600090611c70906001600160801b031643612bd4565b600b54909150600090611c839083612bb5565b905082611c98670de0b6b3a764000083612bb5565b611ca29190612b95565b600a54611cbf9190600160801b90046001600160801b0316612b52565b600a80546001600160801b03928316600160801b02921691909117905550505b600a80546fffffffffffffffffffffffffffffffff1916436001600160801b0390811691909117918290556040517f982b813c7d00a9ffce9441ba40f429b2e4a35068d75532f496d0c63585c2fa6892611d4992818116928692600160801b900490911690612ae7565b60405180910390a1505b565b60026000541415611d785760405162461bcd60e51b815260040161043b90612a20565b600260005580611d9a5760405162461bcd60e51b815260040161043b9061297d565b611da2611bbf565b6008546040805163e5a6b10f60e01b815290516000926001600160a01b03169163e5a6b10f916004808301926020929190829003018186803b158015611de757600080fd5b505afa158015611dfb573d6000803e3d6000fd5b505050506040513d601f19601f82011682018060405250810190611e1f9190612422565b90506000600860009054906101000a90046001600160a01b03166001600160a01b031663f53fb2006040518163ffffffff1660e01b815260040160206040518083038186803b158015611e7157600080fd5b505afa158015611e85573d6000803e3d6000fd5b505050506040513d601f19601f82011682018060405250810190611ea991906125c8565b600854909150611ec690839033906001600160a01b0316866122b3565b600854604051637e348b7d60e01b81526001600160a01b0390911690637e348b7d90611ef89033908790600401612712565b600060405180830381600087803b158015611f1257600080fd5b505af1158015611f26573d6000803e3d6000fd5b5050600a54670de0b6b3a76400009250839150600160801b90046001600160801b0316611f538684612bb5565b611f5d9190612bb5565b611f679190612b95565b611f719190612b95565b33600090815260096020526040902060010154611f8e9190612b7d565b3360009081526009602052604090206001015580611fb484670de0b6b3a7640000612bb5565b611fbe9190612b95565b33600090815260096020526040902060020154611fdb9190612b7d565b33600090815260096020526040808220600201929092556003546005549251631a44cdf360e11b815291926001600160a01b03918216926334899be69261202b92889291169089906004016126ee565b60206040518083038186803b15801561204357600080fd5b505afa158015612057573d6000803e3d6000fd5b505050506040513d601f19601f8201168201806040525081019061207b91906125c8565b60065460405163e462ec1f60e01b81529192506001600160a01b03169063e462ec1f906120ae9087908590600401612b13565b600060405180830381600087803b1580156120c857600080fd5b505af11580156120dc573d6000803e3d6000fd5b50506008546040516001600160a01b0390911692503391507fd3dba7b5565b16b7749db7d1938410a636e3c7a6ea46ed8ce7e259e19f2f3b9f90610cfe908890612b0a565b612129611bbf565b6001600160a01b038116600090815260096020526040812060020154600a54909190670de0b6b3a76400009061216f90600160801b90046001600160801b031684612bb5565b6121799190612b95565b6001600160a01b038416600090815260096020526040812060010154919250906121a39083612bd4565b336000908152600960205260408120600101849055600754919250906001600160a01b0316158015906121d557508115155b156122615760075460405163186e465160e31b81526001600160a01b039091169063c37232889061220c9088908690600401612712565b602060405180830381600087803b15801561222657600080fd5b505af115801561223a573d6000803e3d6000fd5b505050506040513d601f19601f8201168201806040525081019061225e91906125c8565b90505b846001600160a01b0316336001600160a01b03167fa0306f61d3fafe13787b78e276cb6b644382854a66cb46daae14227d3ec26797836040516122a49190612b0a565b60405180910390a35050505050565b600080856001600160a01b03166323b872dd8686866040516024016122da939291906126ee565b6040516020818303038152906040529060e01b6020820180517bffffffffffffffffffffffffffffffffffffffffffffffffffffffff8381831617835250505050604051612328919061265a565b6000604051808303816000865af19150503d8060008114612365576040519150601f19603f3d011682016040523d82523d6000602084013e61236a565b606091505b509150915081801561239457508051158061239457508080602001905181019061239491906124f3565b6123b05760405162461bcd60e51b815260040161043b9061280f565b505050505050565b60008083601f8401126123c9578182fd5b50813567ffffffffffffffff8111156123e0578182fd5b6020830191508360208285010111156123f857600080fd5b9250929050565b600060208284031215612410578081fd5b813561241b81612c01565b9392505050565b600060208284031215612433578081fd5b815161241b81612c01565b600080600060608486031215612452578182fd5b833561245d81612c01565b9250602084013561246d81612c01565b9150604084013561247d81612c01565b809150509250925092565b60008060006060848603121561249c578283fd5b83356124a781612c01565b925060208401356124b781612c01565b929592945050506040919091013590565b600080604083850312156124da578182fd5b82356124e581612c01565b946020939093013593505050565b600060208284031215612504578081fd5b8151801515811461241b578182fd5b600080600080600080600060a0888a03121561252d578283fd5b873567ffffffffffffffff80821115612544578485fd5b6125508b838c016123b8565b909950975060208a0135915080821115612568578485fd5b506125758a828b016123b8565b909650945050604088013561258981612c01565b9250606088013561259981612c01565b809250506080880135905092959891949750929550565b6000602082840312156125c1578081fd5b5035919050565b6000602082840312156125d9578081fd5b5051919050565b600080604083850312156125f2578182fd5b505080516020909101519092909150565b600080600060608486031215612617578283fd5b8351925060208401519150604084015190509250925092565b60008284528282602086013780602084860101526020601f19601f85011685010190509392505050565b60008251815b8181101561267a5760208186018101518583015201612660565b818111156126885782828501525b509190910192915050565b6001600160a01b0391909116815260200190565b6001600160a01b0393841681529183166020830152909116604082015260600190565b6001600160a01b039384168152919092166020820152901515604082015260600190565b6001600160a01b039384168152919092166020820152604081019190915260600190565b6001600160a01b03929092168252602082015260400190565b6001600160a01b03929092168252602082015260606040820181905260009082015260800190565b60006080825261276760808301888a612630565b828103602084015261277a818789612630565b9150506001600160a01b038085166040840152808416606084015250979650505050505050565b60208082526013908201527f556e6f52653a207a65726f206164647265737300000000000000000000000000604082015260600190565b6020808252601f908201527f556e6f52653a20776974686472617720616d6f756e74206f766572666c6f7700604082015260600190565b60208082526031908201527f5472616e7366657248656c7065723a3a7472616e7366657246726f6d3a20747260408201527f616e7366657246726f6d206661696c6564000000000000000000000000000000606082015260800190565b60208082526017908201527f556e6f52653a2062616c616e6365206f766572666c6f77000000000000000000604082015260600190565b6020808252818101527f556e6f52653a207269736b20706f6f6c206372656174656420616c7265616479604082015260600190565b60208082526012908201527f556e6f52653a204c6f636b65642074696d650000000000000000000000000000604082015260600190565b60208082526011908201527f556e6f52653a207a65726f2076616c7565000000000000000000000000000000604082015260600190565b60208082526012908201527f556e6f52653a207a65726f20616d6f756e740000000000000000000000000000604082015260600190565b60208082526011908201527f556e6f52653a205a45524f2056616c7565000000000000000000000000000000604082015260600190565b60208082526010908201527f556e6f52653a20466f7262696464656e00000000000000000000000000000000604082015260600190565b6020808252818101527f556e6f52653a20726577617264657220666163746f7279206e6f206578697374604082015260600190565b6020808252601f908201527f5265656e7472616e637947756172643a207265656e7472616e742063616c6c00604082015260600190565b6020808252601b908201527f556e6f52653a206e6f7420616c6c6f77207a65726f2076616c75650000000000604082015260600190565b6020808252818101527f556e6f52653a206e6f7420616c6c6f77206f7468657273207472616e73666572604082015260600190565b6001600160801b039384168152919092166020820152604081019190915260600190565b6001600160801b0393841681526020810192909252909116604082015260600190565b90815260200190565b918252602082015260400190565b9283526020830191909152604082015260600190565b93845260208401929092526040830152606082015260800190565b60006001600160801b03808316818516808303821115612b7457612b74612beb565b01949350505050565b60008219821115612b9057612b90612beb565b500190565b600082612bb057634e487b7160e01b81526012600452602481fd5b500490565b6000816000190483118215151615612bcf57612bcf612beb565b500290565b600082821015612be657612be6612beb565b500390565b634e487b7160e01b600052601160045260246000fd5b6001600160a01b0381168114612c1657600080fd5b5056fea26469706673582212209fc61a58e0371188ee0bc87297f9133f1d24cf7e66e24aacb40e75c3eadd34b964736f6c63430008000033",
  "devdoc": {
    "kind": "dev",
    "methods": {
      "createRiskPool(string,string,address,address,uint256)": {
        "details": "create Risk pool with UNO from SSIP owner"
      },
      "getTotalWithdrawPendingAmount()": {
        "details": "get total withdraw request amount in pending for the risk pool in UNO"
      },
      "getWithdrawRequestPerUser(address)": {
        "details": "get withdraw request amount in pending per user in UNO"
      },
      "leaveFromPending()": {
        "details": "user can submit claim again and receive his funds into his wallet after 10 days since last WR."
      },
      "leaveFromPoolInPending(uint256)": {
        "details": "WR will be in pending for 10 days at least"
      }
    },
    "version": 1
  },
  "userdoc": {
    "kind": "user",
    "methods": {},
    "version": 1
  },
  "storageLayout": {
    "storage": [
      {
        "astId": 114,
        "contract": "contracts/SingleSidedInsurancePool.sol:SingleSidedInsurancePool",
        "label": "_status",
        "offset": 0,
        "slot": "0",
        "type": "t_uint256"
      },
      {
        "astId": 8046,
        "contract": "contracts/SingleSidedInsurancePool.sol:SingleSidedInsurancePool",
        "label": "owner",
        "offset": 0,
        "slot": "1",
        "type": "t_address"
      },
      {
        "astId": 8048,
        "contract": "contracts/SingleSidedInsurancePool.sol:SingleSidedInsurancePool",
        "label": "claimAssessor",
        "offset": 0,
        "slot": "2",
        "type": "t_address"
      },
      {
        "astId": 8050,
        "contract": "contracts/SingleSidedInsurancePool.sol:SingleSidedInsurancePool",
        "label": "exchangeAgent",
        "offset": 0,
        "slot": "3",
        "type": "t_address"
      },
      {
        "astId": 8052,
        "contract": "contracts/SingleSidedInsurancePool.sol:SingleSidedInsurancePool",
        "label": "migrateTo",
        "offset": 0,
        "slot": "4",
        "type": "t_address"
      },
      {
        "astId": 8054,
        "contract": "contracts/SingleSidedInsurancePool.sol:SingleSidedInsurancePool",
        "label": "USDT_TOKEN",
        "offset": 0,
        "slot": "5",
        "type": "t_address"
      },
      {
        "astId": 8056,
        "contract": "contracts/SingleSidedInsurancePool.sol:SingleSidedInsurancePool",
        "label": "capitalAgent",
        "offset": 0,
        "slot": "6",
        "type": "t_address"
      },
      {
        "astId": 8064,
        "contract": "contracts/SingleSidedInsurancePool.sol:SingleSidedInsurancePool",
        "label": "rewarder",
        "offset": 0,
        "slot": "7",
        "type": "t_address"
      },
      {
        "astId": 8067,
        "contract": "contracts/SingleSidedInsurancePool.sol:SingleSidedInsurancePool",
        "label": "riskPool",
        "offset": 0,
        "slot": "8",
        "type": "t_address"
      },
      {
        "astId": 8086,
        "contract": "contracts/SingleSidedInsurancePool.sol:SingleSidedInsurancePool",
        "label": "userInfo",
        "offset": 0,
        "slot": "9",
        "type": "t_mapping(t_address,t_struct(UserInfo)8081_storage)"
      },
      {
        "astId": 8089,
        "contract": "contracts/SingleSidedInsurancePool.sol:SingleSidedInsurancePool",
        "label": "poolInfo",
        "offset": 0,
        "slot": "10",
        "type": "t_struct(PoolInfo)8074_storage"
      }
    ],
    "types": {
      "t_address": {
        "encoding": "inplace",
        "label": "address",
        "numberOfBytes": "20"
      },
      "t_mapping(t_address,t_struct(UserInfo)8081_storage)": {
        "encoding": "mapping",
        "key": "t_address",
        "label": "mapping(address => struct SingleSidedInsurancePool.UserInfo)",
        "numberOfBytes": "32",
        "value": "t_struct(UserInfo)8081_storage"
      },
      "t_struct(PoolInfo)8074_storage": {
        "encoding": "inplace",
        "label": "struct SingleSidedInsurancePool.PoolInfo",
        "members": [
          {
            "astId": 8069,
            "contract": "contracts/SingleSidedInsurancePool.sol:SingleSidedInsurancePool",
            "label": "lastRewardBlock",
            "offset": 0,
            "slot": "0",
            "type": "t_uint128"
          },
          {
            "astId": 8071,
            "contract": "contracts/SingleSidedInsurancePool.sol:SingleSidedInsurancePool",
            "label": "accUnoPerShare",
            "offset": 16,
            "slot": "0",
            "type": "t_uint128"
          },
          {
            "astId": 8073,
            "contract": "contracts/SingleSidedInsurancePool.sol:SingleSidedInsurancePool",
            "label": "unoMultiplierPerBlock",
            "offset": 0,
            "slot": "1",
            "type": "t_uint256"
          }
        ],
        "numberOfBytes": "64"
      },
      "t_struct(UserInfo)8081_storage": {
        "encoding": "inplace",
        "label": "struct SingleSidedInsurancePool.UserInfo",
        "members": [
          {
            "astId": 8076,
            "contract": "contracts/SingleSidedInsurancePool.sol:SingleSidedInsurancePool",
            "label": "lastWithdrawTime",
            "offset": 0,
            "slot": "0",
            "type": "t_uint256"
          },
          {
            "astId": 8078,
            "contract": "contracts/SingleSidedInsurancePool.sol:SingleSidedInsurancePool",
            "label": "rewardDebt",
            "offset": 0,
            "slot": "1",
            "type": "t_uint256"
          },
          {
            "astId": 8080,
            "contract": "contracts/SingleSidedInsurancePool.sol:SingleSidedInsurancePool",
            "label": "amount",
            "offset": 0,
            "slot": "2",
            "type": "t_uint256"
          }
        ],
        "numberOfBytes": "96"
      },
      "t_uint128": {
        "encoding": "inplace",
        "label": "uint128",
        "numberOfBytes": "16"
      },
      "t_uint256": {
        "encoding": "inplace",
        "label": "uint256",
        "numberOfBytes": "32"
      }
    }
  }
}