{
  "address": "0x7409CbB5fEcbD99A9713b3e0a71be41f3d12CED6",
  "abi": [
    {
      "inputs": [
        {
          "internalType": "address",
          "name": "_owner",
          "type": "address"
        },
        {
          "internalType": "address",
          "name": "_exchangeAgent",
          "type": "address"
        }
      ],
      "stateMutability": "nonpayable",
      "type": "constructor"
    },
    {
      "inputs": [],
      "name": "allSSIPLength",
      "outputs": [
        {
          "internalType": "uint256",
          "name": "",
          "type": "uint256"
        }
      ],
      "stateMutability": "view",
      "type": "function"
    },
    {
      "inputs": [],
      "name": "exchangeAgent",
      "outputs": [
        {
          "internalType": "address",
          "name": "",
          "type": "address"
        }
      ],
      "stateMutability": "view",
      "type": "function"
    },
    {
      "inputs": [],
      "name": "lastNewSSIP",
      "outputs": [
        {
          "internalType": "address",
          "name": "",
          "type": "address"
        }
      ],
      "stateMutability": "view",
      "type": "function"
    },
    {
      "inputs": [
        {
          "internalType": "address",
          "name": "_owner",
          "type": "address"
        },
        {
          "internalType": "address",
          "name": "_lpToken",
          "type": "address"
        },
        {
          "internalType": "address",
          "name": "_unoToken",
          "type": "address"
        }
      ],
      "name": "newSyntheticSSIP",
      "outputs": [
        {
          "internalType": "address",
          "name": "",
          "type": "address"
        }
      ],
      "stateMutability": "nonpayable",
      "type": "function"
    },
    {
      "inputs": [],
      "name": "owner",
      "outputs": [
        {
          "internalType": "address",
          "name": "",
          "type": "address"
        }
      ],
      "stateMutability": "view",
      "type": "function"
    },
    {
      "inputs": [
        {
          "internalType": "uint256",
          "name": "",
          "type": "uint256"
        }
      ],
      "name": "ssipList",
      "outputs": [
        {
          "internalType": "address",
          "name": "",
          "type": "address"
        }
      ],
      "stateMutability": "view",
      "type": "function"
    }
  ],
  "transactionHash": "0x90712c86354b951bbf5b4610426c7e19d16e5093ed1af1cc331576e48b9649a0",
  "args": [
    "0x5569BDF4e02cec3fE459796e3d0e741616029fA4",
    "0xA31158b2fDF02a6E14fbd12F121F03657b92d1B1"
  ],
  "solcInputHash": "a4d91358c036d420da7aee9136e29f67",
  "bytecode": "0x608060405234801561001057600080fd5b50604051611d24380380611d2483398101604081905261002f9161007c565b600080546001600160a01b039384166001600160a01b031991821617909155600180549290931691161790556100ae565b80516001600160a01b038116811461007757600080fd5b919050565b6000806040838503121561008e578182fd5b61009783610060565b91506100a560208401610060565b90509250929050565b611c67806100bd6000396000f3fe608060405234801561001057600080fd5b50600436106100725760003560e01c8063a558796c11610050578063a558796c146100bb578063afae6742146100c3578063d9203b91146100d857610072565b80633a24e142146100775780636dc686e6146100a05780638da5cb5b146100b3575b600080fd5b61008a61008536600461025d565b6100e0565b60405161009791906102b7565b60405180910390f35b61008a6100ae36600461029f565b6101d7565b61008a610201565b61008a610210565b6100cb61021f565b604051610097919061032d565b61008a610225565b600080546001600160a01b031633146101145760405162461bcd60e51b815260040161010b906102f6565b60405180910390fd5b600084600160009054906101000a90046001600160a01b0316858560405161013b90610234565b61014894939291906102cb565b604051809103906000f080158015610164573d6000803e3d6000fd5b50600280546001600160a01b03831673ffffffffffffffffffffffffffffffffffffffff199182168117909255600380546001810182556000919091527fc2575a0e9e593c00f959f8c92f12db2869c3395a3b0502d05e2516446f71f85b01805490911690911790559150509392505050565b600381815481106101e757600080fd5b6000918252602090912001546001600160a01b0316905081565b6000546001600160a01b031681565b6002546001600160a01b031681565b60035490565b6001546001600160a01b031681565b6118fb8061033783390190565b80356001600160a01b038116811461025857600080fd5b919050565b600080600060608486031215610271578283fd5b61027a84610241565b925061028860208501610241565b915061029660408501610241565b90509250925092565b6000602082840312156102b0578081fd5b5035919050565b6001600160a01b0391909116815260200190565b6001600160a01b03948516815292841660208401529083166040830152909116606082015260800190565b60208082526010908201527f556e6f52653a20466f7262696464656e00000000000000000000000000000000604082015260600190565b9081526020019056fe60a06040523480156200001157600080fd5b50604051620018fb380380620018fb8339810160408190526200003491620000b5565b6001600081905580546001600160a01b03199081166001600160a01b039687161790915560028054821694861694909417909355600580549093169190931617905560601b6001600160601b031916608052670de0b6b3a764000060085562000111565b80516001600160a01b0381168114620000b057600080fd5b919050565b60008060008060808587031215620000cb578384fd5b620000d68562000098565b9350620000e66020860162000098565b9250620000f66040860162000098565b9150620001066060860162000098565b905092959194509250565b60805160601c6117bd6200013e6000396000818161034201528181610d1d0152610dc601526117bd6000f3fe608060405234801561001057600080fd5b50600436106101625760003560e01c806389919b71116100c8578063bc8f88281161008c578063e19e716811610066578063e19e71681461028c578063e3161ddd14610294578063e3824a381461029c57610162565b8063bc8f882814610269578063dcc3e06e14610271578063e08c5de11461027957610162565b806389919b71146102365780638da5cb5b1461023e5780638fd3ab801461024657806398c6e7601461024e578063af16d6e01461025657610162565b80631959a0021161012a5780635fcbd285116101045780635fcbd28514610208578063736ec05c146102105780638395206c1461022357610162565b80631959a002146101d557806336642c21146101f8578063413d9c3a1461020057610162565b80630e5c011e146101675780630f42e89d1461017c5780630f97b97b1461018f57806313a10036146101ad57806318a00d8e146101c2575b600080fd5b61017a6101753660046112a3565b6102af565b005b61017a61018a36600461134c565b6102f1565b610197610340565b6040516101a491906113b5565b60405180910390f35b6101b5610364565b6040516101a491906116b1565b61017a6101d03660046112a3565b61036a565b6101e86101e33660046112a3565b610404565b6040516101a494939291906116d0565b6101b561042b565b6101b5610431565b610197610438565b61017a61021e3660046112a3565b610447565b61017a61023136600461134c565b6104b9565b6101b56105bc565b6101976105c8565b61017a6105d7565b61019761071d565b61017a6102643660046112e2565b61072c565b61017a610879565b6101976108f5565b6101b56102873660046112a3565b610904565b61017a6109ca565b61017a6109fa565b61017a6102aa36600461134c565b610aac565b600260005414156102db5760405162461bcd60e51b81526004016102d29061167a565b60405180910390fd5b60026000556102e981610bdd565b506001600055565b6001546001600160a01b0316331461031b5760405162461bcd60e51b81526004016102d2906115c1565b6000811161033b5760405162461bcd60e51b81526004016102d290611553565b600855565b7f000000000000000000000000000000000000000000000000000000000000000081565b600a5481565b6001546001600160a01b031633146103945760405162461bcd60e51b81526004016102d2906115c1565b6001600160a01b0381166103ba5760405162461bcd60e51b81526004016102d290611451565b600280546001600160a01b0319166001600160a01b0383169081179091556040517fbdca3ec80f8567aeaf30c6168374c798baf11902e9b21c2b8ba3186ffd13012290600090a250565b60096020526000908152604090208054600182015460028301546003909301549192909184565b600b5481565b620d2f0081565b6005546001600160a01b031681565b6001546001600160a01b031633146104715760405162461bcd60e51b81526004016102d2906115c1565b6001600160a01b0381166104975760405162461bcd60e51b81526004016102d290611451565b600380546001600160a01b0319166001600160a01b0392909216919091179055565b600260005414156104dc5760405162461bcd60e51b81526004016102d29061167a565b60026000556104ea33610bdd565b33600090815260096020526040902060028101546003909101548261050f8284611742565b101561052d5760405162461bcd60e51b81526004016102d290611488565b3360009081526009602052604090206003015461054b9084906116eb565b3360009081526009602052604090206003810191909155429055600b546105739084906116eb565b600b55604051309033907fd60ea263bba686471127787b82c1f8b19bddbd87f52b83498879e720d839d51f906105aa9087906116b1565b60405180910390a35050600160005550565b670de0b6b3a764000081565b6001546001600160a01b031681565b600260005414156105fa5760405162461bcd60e51b81526004016102d29061167a565b60026000556003546001600160a01b03166106275760405162461bcd60e51b81526004016102d290611451565b61063033610bdd565b336000908152600960205260409020600301541580159061066e575033600090815260096020526040902054620d2f009061066b9042611742565b10155b156106805761067b610f3e565b610688565b61068861105f565b336000818152600960205260409081902060020154600354915163ed59344b60e01b815290926001600160a01b039092169163ed59344b916106cf91908590600401611429565b600060405180830381600087803b1580156106e957600080fd5b505af11580156106fd573d6000803e3d6000fd5b505033600090815260096020526040812060020181905560019055505050565b6003546001600160a01b031681565b6001546001600160a01b031633146107565760405162461bcd60e51b81526004016102d2906115c1565b600260005414156107795760405162461bcd60e51b81526004016102d29061167a565b60026000556001600160a01b0382166107a45760405162461bcd60e51b81526004016102d2906115f8565b6040516369ee745160e01b81526001600160a01b038316906369ee7451906107d4908690859030906004016113c9565b602060405180830381600087803b1580156107ee57600080fd5b505af1158015610802573d6000803e3d6000fd5b505050506040513d601f19601f8201168201806040525081019061082691906112c6565b600480546001600160a01b0319166001600160a01b03928316179081905560405191169030907f6c409a36847a0a3870deae25f656f4300d45957d2643fc27faab145e19cfcf1b906105aa9085906113b5565b6002600054141561089c5760405162461bcd60e51b81526004016102d29061167a565b6002600090815533815260096020526040902054620d2f00906108bf9042611742565b10156108dd5760405162461bcd60e51b81526004016102d29061151c565b6108e633610bdd565b6108ee610f3e565b6001600055565b6004546001600160a01b031681565b600754600654600091904311801561091d5750600a5415155b15610978576000600654436109329190611742565b90506000600854826109449190611723565b600a5490915061095c670de0b6b3a764000083611723565b6109669190611703565b60075461097391906116eb565b925050505b6001600160a01b03831660009081526009602052604090206002810154600190910154670de0b6b3a76400006109ae8484611723565b6109b89190611703565b6109c29190611742565b949350505050565b600260005414156109ed5760405162461bcd60e51b81526004016102d29061167a565b60026000556108ee61105f565b600654431115610aaa57600a5415610a6357600060065443610a1c9190611742565b9050600060085482610a2e9190611723565b600a54909150610a46670de0b6b3a764000083611723565b610a509190611703565b600754610a5d91906116eb565b60075550505b436006819055600a546007546040517f1f2d1a9fde053af46b5db3dc92a8aa8696e56a677998fdd1311b45be341f785393610aa193909290916116ba565b60405180910390a15b565b60026000541415610acf5760405162461bcd60e51b81526004016102d29061167a565b600260005580610af15760405162461bcd60e51b81526004016102d29061158a565b610af96109fa565b600554610b11906001600160a01b03163330846110c6565b670de0b6b3a764000060075482610b289190611723565b610b329190611703565b33600090815260096020526040902060010154610b4f91906116eb565b336000908152600960205260409020600181019190915560020154610b759082906116eb565b33600090815260096020526040902060020155600a54610b969082906116eb565b600a55604051309033907f19db7bd0d4b3b497594ec1221d3c790b31e985baeb3c80851231d930db53578b90610bcd9085906116b1565b60405180910390a3506001600055565b610be56109fa565b6001600160a01b038116600090815260096020526040812060020154600754909190670de0b6b3a764000090610c1b9084611723565b610c259190611703565b6001600160a01b03841660009081526009602052604081206001015491925090610c4f9083611742565b33600090815260096020908152604080832060010186905560048054825163e5a6b10f60e01b815292519596509394859485946001600160a01b039091169363e5a6b10f938181019391829003018186803b158015610cad57600080fd5b505afa158015610cc1573d6000803e3d6000fd5b505050506040513d601f19601f82011682018060405250810190610ce591906112c6565b90506001600160a01b038116610d9e5760025460405163102e325960e01b81526001600160a01b039091169063102e325990610d47907f0000000000000000000000000000000000000000000000000000000000000000908890600401611410565b60206040518083038186803b158015610d5f57600080fd5b505afa158015610d73573d6000803e3d6000fd5b505050506040513d601f19601f82011682018060405250810190610d979190611364565b9250610e45565b600254604051631a44cdf360e11b81526001600160a01b03909116906334899be690610df2907f000000000000000000000000000000000000000000000000000000000000000090859089906004016113ec565b60206040518083038186803b158015610e0a57600080fd5b505afa158015610e1e573d6000803e3d6000fd5b505050506040513d601f19601f82011682018060405250810190610e429190611364565b92505b6004546001600160a01b031615801590610e5f5750600084115b15610eea576004805460405163186e465160e31b81526001600160a01b039091169163c372328891610e95918b91889101611410565b602060405180830381600087803b158015610eaf57600080fd5b505af1158015610ec3573d6000803e3d6000fd5b505050506040513d601f19601f82011682018060405250810190610ee79190611364565b91505b866001600160a01b0316336001600160a01b03167f1501dd260e02a8825a24ab4e4875600b0093dd977e06b49bba75faaebe28364784604051610f2d91906116b1565b60405180910390a350505050505050565b336000908152600960205260408120600281015460039091015460075491929091670de0b6b3a764000090610f739085611723565b610f7d9190611703565b600554909150610f97906001600160a01b031633846111b6565b670de0b6b3a764000060075483610fae9190611723565b610fb89190611703565b610fc29082611742565b33600090815260096020526040902060010155610fdf8284611742565b3360009081526009602052604081206002810192909255600390910155600b5461100a908390611742565b600b55600a5461101b908390611742565b600a55604051309033907f082897d5a3548ef5742607ecedf0f1b9e4c355dcc81c81d5bfda47f2b49084a7906110529086906116b1565b60405180910390a3505050565b3360009081526009602052604081206003018054919055600b54611084908290611742565b600b55604051309033907faa15bd4bbb83b4c5e5bf28548326ffc2e718d46db45779599cf4d87b42fbd104906110bb9085906116b1565b60405180910390a350565b600080856001600160a01b03166323b872dd8686866040516024016110ed939291906113ec565b6040516020818303038152906040529060e01b6020820180516001600160e01b038381831617835250505050604051611126919061137c565b6000604051808303816000865af19150503d8060008114611163576040519150601f19603f3d011682016040523d82523d6000602084013e611168565b606091505b5091509150818015611192575080511580611192575080806020019051810190611192919061132c565b6111ae5760405162461bcd60e51b81526004016102d2906114bf565b505050505050565b600080846001600160a01b031663a9059cbb85856040516024016111db929190611410565b6040516020818303038152906040529060e01b6020820180516001600160e01b038381831617835250505050604051611214919061137c565b6000604051808303816000865af19150503d8060008114611251576040519150601f19603f3d011682016040523d82523d6000602084013e611256565b606091505b5091509150818015611280575080511580611280575080806020019051810190611280919061132c565b61129c5760405162461bcd60e51b81526004016102d29061162d565b5050505050565b6000602082840312156112b4578081fd5b81356112bf8161176f565b9392505050565b6000602082840312156112d7578081fd5b81516112bf8161176f565b6000806000606084860312156112f6578182fd5b83356113018161176f565b925060208401356113118161176f565b915060408401356113218161176f565b809150509250925092565b60006020828403121561133d578081fd5b815180151581146112bf578182fd5b60006020828403121561135d578081fd5b5035919050565b600060208284031215611375578081fd5b5051919050565b60008251815b8181101561139c5760208186018101518583015201611382565b818111156113aa5782828501525b509190910192915050565b6001600160a01b0391909116815260200190565b6001600160a01b0393841681529183166020830152909116604082015260600190565b6001600160a01b039384168152919092166020820152604081019190915260600190565b6001600160a01b03929092168252602082015260400190565b6001600160a01b03929092168252602082015260606040820181905260009082015260800190565b60208082526013908201527f556e6f52653a207a65726f206164647265737300000000000000000000000000604082015260600190565b6020808252601f908201527f556e6f52653a20776974686472617720616d6f756e74206f766572666c6f7700604082015260600190565b60208082526031908201527f5472616e7366657248656c7065723a3a7472616e7366657246726f6d3a20747260408201527f616e7366657246726f6d206661696c6564000000000000000000000000000000606082015260800190565b60208082526012908201527f556e6f52653a204c6f636b65642074696d650000000000000000000000000000604082015260600190565b60208082526011908201527f556e6f52653a207a65726f2076616c7565000000000000000000000000000000604082015260600190565b60208082526011908201527f556e6f52653a205a45524f2056616c7565000000000000000000000000000000604082015260600190565b60208082526010908201527f556e6f52653a20466f7262696464656e00000000000000000000000000000000604082015260600190565b6020808252818101527f556e6f52653a20726577617264657220666163746f7279206e6f206578697374604082015260600190565b6020808252602d908201527f5472616e7366657248656c7065723a3a736166655472616e736665723a20747260408201526c185b9cd9995c8819985a5b1959609a1b606082015260800190565b6020808252601f908201527f5265656e7472616e637947756172643a207265656e7472616e742063616c6c00604082015260600190565b90815260200190565b9283526020830191909152604082015260600190565b93845260208401929092526040830152606082015260800190565b600082198211156116fe576116fe611759565b500190565b60008261171e57634e487b7160e01b81526012600452602481fd5b500490565b600081600019048311821515161561173d5761173d611759565b500290565b60008282101561175457611754611759565b500390565b634e487b7160e01b600052601160045260246000fd5b6001600160a01b038116811461178457600080fd5b5056fea2646970667358221220b01271d0bbe92052e48de06c49be3dbeb98bcff6a3521b3c8aa151ef7a97ffa064736f6c63430008000033a26469706673582212207aa322129f63f9030a726a6f27ef446b2b50d347a3bfd2b83c012595afe7d61e64736f6c63430008000033",
  "devdoc": {
    "kind": "dev",
    "methods": {},
    "version": 1
  },
  "userdoc": {
    "kind": "user",
    "methods": {},
    "version": 1
  },
  "storageLayout": {
    "storage": [
      {
        "astId": 13225,
        "contract": "contracts/factories/SyntheticSSIPFactory.sol:SyntheticSSIPFactory",
        "label": "owner",
        "offset": 0,
        "slot": "0",
        "type": "t_address"
      },
      {
        "astId": 13227,
        "contract": "contracts/factories/SyntheticSSIPFactory.sol:SyntheticSSIPFactory",
        "label": "exchangeAgent",
        "offset": 0,
        "slot": "1",
        "type": "t_address"
      },
      {
        "astId": 13229,
        "contract": "contracts/factories/SyntheticSSIPFactory.sol:SyntheticSSIPFactory",
        "label": "lastNewSSIP",
        "offset": 0,
        "slot": "2",
        "type": "t_address"
      },
      {
        "astId": 13232,
        "contract": "contracts/factories/SyntheticSSIPFactory.sol:SyntheticSSIPFactory",
        "label": "ssipList",
        "offset": 0,
        "slot": "3",
        "type": "t_array(t_address)dyn_storage"
      }
    ],
    "types": {
      "t_address": {
        "encoding": "inplace",
        "label": "address",
        "numberOfBytes": "20"
      },
      "t_array(t_address)dyn_storage": {
        "base": "t_address",
        "encoding": "dynamic_array",
        "label": "address[]",
        "numberOfBytes": "32"
      }
    }
  }
}