{
  "address": "0x87e1f628225c170a5C0Bf895580686430DEb3322",
  "abi": [
    {
      "inputs": [
        {
          "internalType": "address",
          "name": "_usdcToken",
          "type": "address"
        },
        {
          "internalType": "address",
          "name": "_WETH",
          "type": "address"
        },
        {
          "internalType": "address",
          "name": "_oraclePriceFeed",
          "type": "address"
        },
        {
          "internalType": "address",
          "name": "_uniswapRouter",
          "type": "address"
        },
        {
          "internalType": "address",
          "name": "_multiSigWallet",
          "type": "address"
        }
      ],
      "stateMutability": "nonpayable",
      "type": "constructor"
    },
    {
      "anonymous": false,
      "inputs": [
        {
          "indexed": true,
          "internalType": "address",
          "name": "_dexAddress",
          "type": "address"
        },
        {
          "indexed": true,
          "internalType": "address",
          "name": "_convertToken",
          "type": "address"
        },
        {
          "indexed": false,
          "internalType": "uint256",
          "name": "_convertAmount",
          "type": "uint256"
        },
        {
          "indexed": false,
          "internalType": "uint256",
          "name": "_desiredAmount",
          "type": "uint256"
        },
        {
          "indexed": false,
          "internalType": "uint256",
          "name": "_convertedAmount",
          "type": "uint256"
        }
      ],
      "name": "ConvertedTokenToETH",
      "type": "event"
    },
    {
      "anonymous": false,
      "inputs": [
        {
          "indexed": true,
          "internalType": "address",
          "name": "_dexAddress",
          "type": "address"
        },
        {
          "indexed": true,
          "internalType": "address",
          "name": "_convertToken",
          "type": "address"
        },
        {
          "indexed": true,
          "internalType": "address",
          "name": "_convertedToken",
          "type": "address"
        },
        {
          "indexed": false,
          "internalType": "uint256",
          "name": "_convertAmount",
          "type": "uint256"
        },
        {
          "indexed": false,
          "internalType": "uint256",
          "name": "_desiredAmount",
          "type": "uint256"
        },
        {
          "indexed": false,
          "internalType": "uint256",
          "name": "_convertedAmount",
          "type": "uint256"
        }
      ],
      "name": "ConvertedTokenToToken",
      "type": "event"
    },
    {
      "anonymous": false,
      "inputs": [
        {
          "indexed": true,
          "internalType": "address",
          "name": "_exchangeAgent",
          "type": "address"
        },
        {
          "indexed": true,
          "internalType": "address",
          "name": "_whiteListAddress",
          "type": "address"
        }
      ],
      "name": "LogAddWhiteList",
      "type": "event"
    },
    {
      "anonymous": false,
      "inputs": [
        {
          "indexed": true,
          "internalType": "address",
          "name": "_exchangeAgent",
          "type": "address"
        },
        {
          "indexed": true,
          "internalType": "address",
          "name": "_whiteListAddress",
          "type": "address"
        }
      ],
      "name": "LogRemoveWhiteList",
      "type": "event"
    },
    {
      "anonymous": false,
      "inputs": [
        {
          "indexed": true,
          "internalType": "address",
          "name": "_router",
          "type": "address"
        },
        {
          "indexed": false,
          "internalType": "address",
          "name": "_weth",
          "type": "address"
        }
      ],
      "name": "LogSetDexRouter",
      "type": "event"
    },
    {
      "anonymous": false,
      "inputs": [
        {
          "indexed": true,
          "internalType": "address",
          "name": "_exchangeAgent",
          "type": "address"
        },
        {
          "indexed": true,
          "internalType": "address",
          "name": "_oraclePriceFeed",
          "type": "address"
        }
      ],
      "name": "LogSetOraclePriceFeed",
      "type": "event"
    },
    {
      "anonymous": false,
      "inputs": [
        {
          "indexed": true,
          "internalType": "address",
          "name": "_exchangeAgent",
          "type": "address"
        },
        {
          "indexed": false,
          "internalType": "uint256",
          "name": "_slippage",
          "type": "uint256"
        }
      ],
      "name": "LogSetSlippage",
      "type": "event"
    },
    {
      "anonymous": false,
      "inputs": [
        {
          "indexed": true,
          "internalType": "address",
          "name": "previousOwner",
          "type": "address"
        },
        {
          "indexed": true,
          "internalType": "address",
          "name": "newOwner",
          "type": "address"
        }
      ],
      "name": "OwnershipTransferred",
      "type": "event"
    },
    {
      "inputs": [],
      "name": "UNISWAP_ROUTER",
      "outputs": [
        {
          "internalType": "address",
          "name": "",
          "type": "address"
        }
      ],
      "stateMutability": "view",
      "type": "function"
    },
    {
      "inputs": [],
      "name": "USDC_TOKEN",
      "outputs": [
        {
          "internalType": "address",
          "name": "",
          "type": "address"
        }
      ],
      "stateMutability": "view",
      "type": "function"
    },
    {
      "inputs": [],
      "name": "WETH",
      "outputs": [
        {
          "internalType": "address",
          "name": "",
          "type": "address"
        }
      ],
      "stateMutability": "view",
      "type": "function"
    },
    {
      "inputs": [
        {
          "internalType": "address",
          "name": "_whiteListAddress",
          "type": "address"
        }
      ],
      "name": "addWhiteList",
      "outputs": [],
      "stateMutability": "nonpayable",
      "type": "function"
    },
    {
      "inputs": [
        {
          "internalType": "address",
          "name": "_token",
          "type": "address"
        },
        {
          "internalType": "uint256",
          "name": "_convertAmount",
          "type": "uint256"
        }
      ],
      "name": "convertForETH",
      "outputs": [
        {
          "internalType": "uint256",
          "name": "",
          "type": "uint256"
        }
      ],
      "stateMutability": "nonpayable",
      "type": "function"
    },
    {
      "inputs": [
        {
          "internalType": "address",
          "name": "_token0",
          "type": "address"
        },
        {
          "internalType": "address",
          "name": "_token1",
          "type": "address"
        },
        {
          "internalType": "uint256",
          "name": "_token0Amount",
          "type": "uint256"
        }
      ],
      "name": "convertForToken",
      "outputs": [
        {
          "internalType": "uint256",
          "name": "",
          "type": "uint256"
        }
      ],
      "stateMutability": "nonpayable",
      "type": "function"
    },
    {
      "inputs": [
        {
          "internalType": "address",
          "name": "_token",
          "type": "address"
        },
        {
          "internalType": "uint256",
          "name": "_tokenAmount",
          "type": "uint256"
        }
      ],
      "name": "getETHAmountForToken",
      "outputs": [
        {
          "internalType": "uint256",
          "name": "",
          "type": "uint256"
        }
      ],
      "stateMutability": "view",
      "type": "function"
    },
    {
      "inputs": [
        {
          "internalType": "uint256",
          "name": "_usdtAmount",
          "type": "uint256"
        }
      ],
      "name": "getETHAmountForUSDC",
      "outputs": [
        {
          "internalType": "uint256",
          "name": "",
          "type": "uint256"
        }
      ],
      "stateMutability": "view",
      "type": "function"
    },
    {
      "inputs": [
        {
          "internalType": "address",
          "name": "_token0",
          "type": "address"
        },
        {
          "internalType": "address",
          "name": "_token1",
          "type": "address"
        },
        {
          "internalType": "uint256",
          "name": "_token0Amount",
          "type": "uint256"
        }
      ],
      "name": "getNeededTokenAmount",
      "outputs": [
        {
          "internalType": "uint256",
          "name": "",
          "type": "uint256"
        }
      ],
      "stateMutability": "view",
      "type": "function"
    },
    {
      "inputs": [
        {
          "internalType": "address",
          "name": "_token",
          "type": "address"
        },
        {
          "internalType": "uint256",
          "name": "_ethAmount",
          "type": "uint256"
        }
      ],
      "name": "getTokenAmountForETH",
      "outputs": [
        {
          "internalType": "uint256",
          "name": "",
          "type": "uint256"
        }
      ],
      "stateMutability": "view",
      "type": "function"
    },
    {
      "inputs": [
        {
          "internalType": "address",
          "name": "_token",
          "type": "address"
        },
        {
          "internalType": "uint256",
          "name": "_usdtAmount",
          "type": "uint256"
        }
      ],
      "name": "getTokenAmountForUSDC",
      "outputs": [
        {
          "internalType": "uint256",
          "name": "",
          "type": "uint256"
        }
      ],
      "stateMutability": "view",
      "type": "function"
    },
    {
      "inputs": [],
      "name": "oraclePriceFeed",
      "outputs": [
        {
          "internalType": "address",
          "name": "",
          "type": "address"
        }
      ],
      "stateMutability": "view",
      "type": "function"
    },
    {
      "inputs": [],
      "name": "owner",
      "outputs": [
        {
          "internalType": "address",
          "name": "",
          "type": "address"
        }
      ],
      "stateMutability": "view",
      "type": "function"
    },
    {
      "inputs": [
        {
          "internalType": "address",
          "name": "_whiteListAddress",
          "type": "address"
        }
      ],
      "name": "removeWhiteList",
      "outputs": [],
      "stateMutability": "nonpayable",
      "type": "function"
    },
    {
      "inputs": [],
      "name": "renounceOwnership",
      "outputs": [],
      "stateMutability": "nonpayable",
      "type": "function"
    },
    {
      "inputs": [
        {
          "internalType": "address",
          "name": "_router",
          "type": "address"
        },
        {
          "internalType": "address",
          "name": "_weth",
          "type": "address"
        }
      ],
      "name": "setDexRouter",
      "outputs": [],
      "stateMutability": "nonpayable",
      "type": "function"
    },
    {
      "inputs": [
        {
          "internalType": "address",
          "name": "_oraclePriceFeed",
          "type": "address"
        }
      ],
      "name": "setOraclePriceFeed",
      "outputs": [],
      "stateMutability": "nonpayable",
      "type": "function"
    },
    {
      "inputs": [
        {
          "internalType": "uint256",
          "name": "_slippage",
          "type": "uint256"
        }
      ],
      "name": "setSlippage",
      "outputs": [],
      "stateMutability": "nonpayable",
      "type": "function"
    },
    {
      "inputs": [],
      "name": "slippage",
      "outputs": [
        {
          "internalType": "uint256",
          "name": "",
          "type": "uint256"
        }
      ],
      "stateMutability": "view",
      "type": "function"
    },
    {
      "inputs": [
        {
          "internalType": "address",
          "name": "newOwner",
          "type": "address"
        }
      ],
      "name": "transferOwnership",
      "outputs": [],
      "stateMutability": "nonpayable",
      "type": "function"
    },
    {
      "inputs": [
        {
          "internalType": "address",
          "name": "",
          "type": "address"
        }
      ],
      "name": "whiteList",
      "outputs": [
        {
          "internalType": "bool",
          "name": "",
          "type": "bool"
        }
      ],
      "stateMutability": "view",
      "type": "function"
    },
    {
      "stateMutability": "payable",
      "type": "receive"
    }
  ],
  "transactionHash": "0xec590c036d37d7755bb6bdcd0c5ba4cf98b99aa10b1f3d6699f25dca9e50baef",
  "args": [
    "0x8ac76a51cc950d9822d68b83fe1ad97b32cd580d",
    "0x0000000000000000000000000000000000000000",
    "0x0000000000000000000000000000000000000000",
    "0x0000000000000000000000000000000000000000",
    "0x8c3d5c9538256DAB8Eb4B197370574340fe3254F"
  ],
  "solcInputHash": "069bdbdfcf194203ad7f85fa845fafd2",
  "bytecode": "0x60a06040523480156200001157600080fd5b506040516200268438038062002684833981016040819052620000349162000237565b60016000556200004d6200004762000138565b6200013c565b6001600160a01b0385166200007f5760405162461bcd60e51b815260040162000076906200032e565b60405180910390fd5b6001600160a01b038116620000a85760405162461bcd60e51b81526004016200007690620002ec565b6001600160601b0319606086901b16608052600280546001600160a01b038481166001600160a01b031992831617909255600380548784169083161790556004805492861692909116919091179055336000908152600660205260409020805460ff191660011790556200011f606460056200039a565b6005556200012d816200018e565b5050505050620003c6565b3390565b600180546001600160a01b038381166001600160a01b0319831681179093556040519116919082907f8be0079c531659141344cd1fd0a4f28419497f9722a3daafe3b4186f6b6457e090600090a35050565b6200019862000138565b6001600160a01b0316620001ab6200020b565b6001600160a01b031614620001d45760405162461bcd60e51b8152600401620000769062000365565b6001600160a01b038116620001fd5760405162461bcd60e51b81526004016200007690620002a6565b62000208816200013c565b50565b6001546001600160a01b031690565b80516001600160a01b03811681146200023257600080fd5b919050565b600080600080600060a086880312156200024f578081fd5b6200025a866200021a565b94506200026a602087016200021a565b93506200027a604087016200021a565b92506200028a606087016200021a565b91506200029a608087016200021a565b90509295509295909350565b60208082526026908201527f4f776e61626c653a206e6577206f776e657220697320746865207a65726f206160408201526564647265737360d01b606082015260800190565b60208082526022908201527f556e6f52653a207a65726f206d756c746973696777616c6c6574206164647265604082015261737360f01b606082015260800190565b60208082526018908201527f556e6f52653a207a65726f205553444320616464726573730000000000000000604082015260600190565b6020808252818101527f4f776e61626c653a2063616c6c6572206973206e6f7420746865206f776e6572604082015260600190565b6000816000190483118215151615620003c157634e487b7160e01b81526011600452602481fd5b500290565b60805160601c61228a620003fa60003960008181610735015281816107b101528181610c3c0152611070015261228a6000f3fe60806040526004361061016e5760003560e01c806393badc41116100cb578063d82649201161007f578063f2d068a611610059578063f2d068a6146103aa578063f2fde38b146103ca578063fa569274146103ea57610175565b8063d826492014610355578063e7cd4a041461036a578063f0fa55a91461038a57610175565b8063a9a12d43116100b0578063a9a12d4314610300578063ad5c464814610320578063ba560ed91461033557610175565b806393badc41146102c05780639a553968146102e057610175565b80633e032a3b11610122578063715018a611610107578063715018a61461027457806375d38071146102895780638da5cb5b146102ab57610175565b80633e032a3b1461023f578063531a22111461025457610175565b80632042e5c2116101535780632042e5c2146101d257806334899be6146101f2578063372c12b11461021257610175565b8063102e32591461017a5780631eb5b699146101b057610175565b3661017557005b600080fd5b34801561018657600080fd5b5061019a610195366004611b40565b6103ff565b6040516101a7919061202f565b60405180910390f35b3480156101bc57600080fd5b506101d06101cb366004611a90565b610523565b005b3480156101de57600080fd5b506101d06101ed366004611a90565b6105f0565b3480156101fe57600080fd5b5061019a61020d366004611b00565b6106d7565b34801561021e57600080fd5b5061023261022d366004611a90565b6106ee565b6040516101a79190611cc3565b34801561024b57600080fd5b5061019a610703565b34801561026057600080fd5b5061019a61026f366004611b8b565b610709565b34801561028057600080fd5b506101d061086c565b34801561029557600080fd5b5061029e6108b7565b6040516101a79190611c58565b3480156102b757600080fd5b5061029e6108c6565b3480156102cc57600080fd5b5061019a6102db366004611b00565b6108d5565b3480156102ec57600080fd5b5061019a6102fb366004611b40565b610a90565b34801561030c57600080fd5b5061019a61031b366004611b40565b610c35565b34801561032c57600080fd5b5061029e610c62565b34801561034157600080fd5b5061019a610350366004611b40565b610c71565b34801561036157600080fd5b5061029e610d83565b34801561037657600080fd5b506101d0610385366004611a90565b610d92565b34801561039657600080fd5b506101d06103a5366004611b8b565b610e7d565b3480156103b657600080fd5b506101d06103c5366004611ac8565b610f47565b3480156103d657600080fd5b506101d06103e5366004611a90565b610ffd565b3480156103f657600080fd5b5061029e61106e565b6004805460405163355188ab60e01b815260009283926001600160a01b03169163355188ab9161043191889101611c58565b60206040518083038186803b15801561044957600080fd5b505afa15801561045d573d6000803e3d6000fd5b505050506040513d601f19601f820116820180604052508101906104819190611ba3565b90506000846001600160a01b031663313ce5676040518163ffffffff1660e01b815260040160206040518083038186803b1580156104be57600080fd5b505afa1580156104d2573d6000803e3d6000fd5b505050506040513d601f19601f820116820180604052508101906104f69190611bbb565b60ff16905061050681600a612125565b61051083866121f3565b61051a91906120bf565b95945050505050565b61052b611092565b6001600160a01b031661053c6108c6565b6001600160a01b03161461056b5760405162461bcd60e51b815260040161056290611ec1565b60405180910390fd5b6001600160a01b0381166105915760405162461bcd60e51b815260040161056290611d62565b6004805473ffffffffffffffffffffffffffffffffffffffff19166001600160a01b03838116919091179182905560405191169030907f76d908faefb2e5bb2e5551cce5530e7d157dd5ddafe26554d2320c5cc065009f90600090a350565b6105f8611092565b6001600160a01b03166106096108c6565b6001600160a01b03161461062f5760405162461bcd60e51b815260040161056290611ec1565b6001600160a01b0381166106555760405162461bcd60e51b815260040161056290611d62565b6001600160a01b03811660009081526006602052604090205460ff1661068d5760405162461bcd60e51b815260040161056290611d99565b6001600160a01b038116600081815260066020526040808220805460ff191690555130917f2f467772ef0a5478314f3bc2b37d4b2ad29b65f052b2cedc8e2972dda033529291a350565b60006106e4848484611096565b90505b9392505050565b60066020526000908152604090205460ff1681565b60055481565b6004805460405163355188ab60e01b815260009283926001600160a01b03169163355188ab9161075b917f00000000000000000000000000000000000000000000000000000000000000009101611c58565b60206040518083038186803b15801561077357600080fd5b505afa158015610787573d6000803e3d6000fd5b505050506040513d601f19601f820116820180604052508101906107ab9190611ba3565b905060007f00000000000000000000000000000000000000000000000000000000000000006001600160a01b031663313ce5676040518163ffffffff1660e01b815260040160206040518083038186803b15801561080857600080fd5b505afa15801561081c573d6000803e3d6000fd5b505050506040513d601f19601f820116820180604052508101906108409190611bbb565b60ff16905061085081600a612125565b61085a83866121f3565b61086491906120bf565b949350505050565b610874611092565b6001600160a01b03166108856108c6565b6001600160a01b0316146108ab5760405162461bcd60e51b815260040161056290611ec1565b6108b5600061111c565b565b6004546001600160a01b031681565b6001546001600160a01b031690565b3360009081526006602052604081205460ff166109045760405162461bcd60e51b815260040161056290611f53565b600260005414156109275760405162461bcd60e51b815260040161056290611ff8565b600260009081556001600160a01b038516156109f7576040516370a0823160e01b81526000906001600160a01b038716906370a082319061096c903390600401611c58565b60206040518083038186803b15801561098457600080fd5b505afa158015610998573d6000803e3d6000fd5b505050506040513d601f19601f820116820180604052508101906109bc9190611ba3565b116109d95760405162461bcd60e51b815260040161056290611cce565b6109e58533308661117b565b6109f0858585611096565b9050610a04565b610a018484610c71565b90505b60008111610a245760405162461bcd60e51b815260040161056290611fc1565b6000606480600554606480610a3991906121f3565b610a439190612212565b610a4d90856121f3565b610a5791906120bf565b610a6191906120bf565b600254909150600090610a80906001600160a01b031688888886611280565b6001600055979650505050505050565b3360009081526006602052604081205460ff16610abf5760405162461bcd60e51b815260040161056290611f53565b60026000541415610ae25760405162461bcd60e51b815260040161056290611ff8565b600260009081556040516370a0823160e01b81526001600160a01b038516906370a0823190610b15903390600401611c58565b60206040518083038186803b158015610b2d57600080fd5b505afa158015610b41573d6000803e3d6000fd5b505050506040513d601f19601f82011682018060405250810190610b659190611ba3565b11610b825760405162461bcd60e51b815260040161056290611cce565b6001600160a01b03831615610b9d57610b9d8333308561117b565b6000610ba984846103ff565b905060008111610bcb5760405162461bcd60e51b815260040161056290611fc1565b6000606480600554606480610be091906121f3565b610bea9190612212565b610bf490856121f3565b610bfe91906120bf565b610c0891906120bf565b600254909150600090610c26906001600160a01b031687878561170e565b60016000559695505050505050565b60006106e77f00000000000000000000000000000000000000000000000000000000000000008484611096565b6003546001600160a01b031681565b6004805460405163355188ab60e01b815260009283926001600160a01b03169163355188ab91610ca391889101611c58565b60206040518083038186803b158015610cbb57600080fd5b505afa158015610ccf573d6000803e3d6000fd5b505050506040513d601f19601f82011682018060405250810190610cf39190611ba3565b90506000846001600160a01b031663313ce5676040518163ffffffff1660e01b815260040160206040518083038186803b158015610d3057600080fd5b505afa158015610d44573d6000803e3d6000fd5b505050506040513d601f19601f82011682018060405250810190610d689190611bbb565b60ff16905081610d7982600a612125565b61051090866121f3565b6002546001600160a01b031681565b610d9a611092565b6001600160a01b0316610dab6108c6565b6001600160a01b031614610dd15760405162461bcd60e51b815260040161056290611ec1565b6001600160a01b038116610df75760405162461bcd60e51b815260040161056290611d62565b6001600160a01b03811660009081526006602052604090205460ff1615610e305760405162461bcd60e51b815260040161056290611e53565b6001600160a01b038116600081815260066020526040808220805460ff191660011790555130917f8cd7b0b1a7316eb3e5d781d629cb8bf4e2fd9a8903bdd0f6b894c087d61b21f291a350565b610e85611092565b6001600160a01b0316610e966108c6565b6001600160a01b031614610ebc5760405162461bcd60e51b815260040161056290611ec1565b60008111610edc5760405162461bcd60e51b815260040161056290611e8a565b60648110610efc5760405162461bcd60e51b815260040161056290611f8a565b610f076064826121f3565b60055560405130907f1b5c61e79b0735d33852817a0af9ed28b909c7c0a2a04abcc0c19bba6d6ba56490610f3c90849061202f565b60405180910390a250565b610f4f611092565b6001600160a01b0316610f606108c6565b6001600160a01b031614610f865760405162461bcd60e51b815260040161056290611ec1565b600280546001600160a01b0380851673ffffffffffffffffffffffffffffffffffffffff19928316811790935560038054918516919092161790556040517fbe4403f97253d319ce3b91271005bebc5331e19245280f693739495e320f2c6a90610ff1908490611c58565b60405180910390a25050565b611005611092565b6001600160a01b03166110166108c6565b6001600160a01b03161461103c5760405162461bcd60e51b815260040161056290611ec1565b6001600160a01b0381166110625760405162461bcd60e51b815260040161056290611d05565b61106b8161111c565b50565b7f000000000000000000000000000000000000000000000000000000000000000081565b3390565b600480546040516318db3e8360e21b815260009283926001600160a01b03169163636cfa0c916110cc9189918991899101611c86565b60206040518083038186803b1580156110e457600080fd5b505afa1580156110f8573d6000803e3d6000fd5b505050506040513d601f19601f8201168201806040525081019061051a9190611ba3565b600180546001600160a01b0383811673ffffffffffffffffffffffffffffffffffffffff19831681179093556040519116919082907f8be0079c531659141344cd1fd0a4f28419497f9722a3daafe3b4186f6b6457e090600090a35050565b600080856001600160a01b03166323b872dd8686866040516024016111a293929190611c86565b6040516020818303038152906040529060e01b6020820180517bffffffffffffffffffffffffffffffffffffffffffffffffffffffff83818316178352505050506040516111f09190611c1f565b6000604051808303816000865af19150503d806000811461122d576040519150601f19603f3d011682016040523d82523d6000602084013e611232565b606091505b509150915081801561125c57508051158061125c57508080602001905181019061125c9190611b6b565b6112785760405162461bcd60e51b815260040161056290611df6565b505050505050565b6000808690506000816001600160a01b031663c45a01556040518163ffffffff1660e01b815260040160206040518083038186803b1580156112c157600080fd5b505afa1580156112d5573d6000803e3d6000fd5b505050506040513d601f19601f820116820180604052508101906112f99190611aac565b90506000866001600160a01b03166370a08231336040518263ffffffff1660e01b81526004016113299190611c58565b60206040518083038186803b15801561134157600080fd5b505afa158015611355573d6000803e3d6000fd5b505050506040513d601f19601f820116820180604052508101906113799190611ba3565b90506000836001600160a01b031663ad5c46486040518163ffffffff1660e01b815260040160206040518083038186803b1580156113b657600080fd5b505afa1580156113ca573d6000803e3d6000fd5b505050506040513d601f19601f820116820180604052508101906113ee9190611aac565b90506001600160a01b0389161561140c57508761140c81858961198e565b60405163e6a4390560e01b81526000906001600160a01b0385169063e6a439059061143d9085908d90600401611c6c565b60206040518083038186803b15801561145557600080fd5b505afa158015611469573d6000803e3d6000fd5b505050506040513d601f19601f8201168201806040525081019061148d9190611aac565b6001600160a01b0316146116105760408051600280825260608201835260009260208301908036833701905050905081816000815181106114de57634e487b7160e01b600052603260045260246000fd5b60200260200101906001600160a01b031690816001600160a01b031681525050888160018151811061152057634e487b7160e01b600052603260045260246000fd5b6001600160a01b0392831660209182029290920101528a166115a75760405163b6f9de9560e01b81526001600160a01b0386169063b6f9de95908a90611570908b90869033904290600401612038565b6000604051808303818588803b15801561158957600080fd5b505af115801561159d573d6000803e3d6000fd5b505050505061160e565b604051635c11d79560e01b81526001600160a01b03861690635c11d795906115db908b908b9086903390429060040161206d565b600060405180830381600087803b1580156115f557600080fd5b505af1158015611609573d6000803e3d6000fd5b505050505b505b6040516370a0823160e01b81526000906001600160a01b038a16906370a082319061163f903390600401611c58565b60206040518083038186803b15801561165757600080fd5b505afa15801561166b573d6000803e3d6000fd5b505050506040513d601f19601f8201168201806040525081019061168f9190611ba3565b9050886001600160a01b03168a6001600160a01b03168c6001600160a01b03167fd30edfe8aafab67575a170d015da0337bcb39e5c9af1b2dfb9294fb75b344ac38b8b88876116de9190612212565b6040516116ed939291906120a9565b60405180910390a46116ff8382612212565b9b9a5050505050505050505050565b6000808590506000816001600160a01b031663c45a01556040518163ffffffff1660e01b815260040160206040518083038186803b15801561174f57600080fd5b505afa158015611763573d6000803e3d6000fd5b505050506040513d601f19601f820116820180604052508101906117879190611aac565b9050333161179687848861198e565b60035460405163e6a4390560e01b81526000916001600160a01b038581169263e6a43905926117cc928d92911690600401611c6c565b60206040518083038186803b1580156117e457600080fd5b505afa1580156117f8573d6000803e3d6000fd5b505050506040513d601f19601f8201168201806040525081019061181c9190611aac565b6001600160a01b03161461192357604080516002808252606082018352600092602083019080368337019050509050878160008151811061186d57634e487b7160e01b600052603260045260246000fd5b6001600160a01b0392831660209182029290920101526003548251911690829060019081106118ac57634e487b7160e01b600052603260045260246000fd5b6001600160a01b03928316602091820292909201015260405163791ac94760e01b81529085169063791ac947906118ef908a908a9086903390429060040161206d565b600060405180830381600087803b15801561190957600080fd5b505af115801561191d573d6000803e3d6000fd5b50505050505b33316001600160a01b03888116908a167f1df84ee81df9963f5d40b2a3f717360c1f62daa6f21f69580398a8d570de644c89896119608787612212565b60405161196f939291906120a9565b60405180910390a36119818282612212565b9998505050505050505050565b600080846001600160a01b031663095ea7b385856040516024016119b3929190611caa565b6040516020818303038152906040529060e01b6020820180517bffffffffffffffffffffffffffffffffffffffffffffffffffffffff8381831617835250505050604051611a019190611c1f565b6000604051808303816000865af19150503d8060008114611a3e576040519150601f19603f3d011682016040523d82523d6000602084013e611a43565b606091505b5091509150818015611a6d575080511580611a6d575080806020019051810190611a6d9190611b6b565b611a895760405162461bcd60e51b815260040161056290611ef6565b5050505050565b600060208284031215611aa1578081fd5b81356106e78161223f565b600060208284031215611abd578081fd5b81516106e78161223f565b60008060408385031215611ada578081fd5b8235611ae58161223f565b91506020830135611af58161223f565b809150509250929050565b600080600060608486031215611b14578081fd5b8335611b1f8161223f565b92506020840135611b2f8161223f565b929592945050506040919091013590565b60008060408385031215611b52578182fd5b8235611b5d8161223f565b946020939093013593505050565b600060208284031215611b7c578081fd5b815180151581146106e7578182fd5b600060208284031215611b9c578081fd5b5035919050565b600060208284031215611bb4578081fd5b5051919050565b600060208284031215611bcc578081fd5b815160ff811681146106e7578182fd5b6000815180845260208085019450808401835b83811015611c145781516001600160a01b031687529582019590820190600101611bef565b509495945050505050565b60008251815b81811015611c3f5760208186018101518583015201611c25565b81811115611c4d5782828501525b509190910192915050565b6001600160a01b0391909116815260200190565b6001600160a01b0392831681529116602082015260400190565b6001600160a01b039384168152919092166020820152604081019190915260600190565b6001600160a01b03929092168252602082015260400190565b901515815260200190565b60208082526013908201527f556e6f52653a207a65726f2062616c616e636500000000000000000000000000604082015260600190565b60208082526026908201527f4f776e61626c653a206e6577206f776e657220697320746865207a65726f206160408201527f6464726573730000000000000000000000000000000000000000000000000000606082015260800190565b60208082526013908201527f556e6f52653a207a65726f206164647265737300000000000000000000000000604082015260600190565b6020808252602c908201527f556e6f52653a207768697465206c6973742072656d6f766564206f7220756e6160408201527f6464656420616c72656164790000000000000000000000000000000000000000606082015260800190565b60208082526031908201527f5472616e7366657248656c7065723a3a7472616e7366657246726f6d3a20747260408201527f616e7366657246726f6d206661696c6564000000000000000000000000000000606082015260800190565b60208082526019908201527f556e6f52653a207768697465206c69737420616c726561647900000000000000604082015260600190565b60208082526014908201527f556e6f52653a207a65726f20736c697070616765000000000000000000000000604082015260600190565b6020808252818101527f4f776e61626c653a2063616c6c6572206973206e6f7420746865206f776e6572604082015260600190565b6020808252602b908201527f5472616e7366657248656c7065723a3a73616665417070726f76653a2061707060408201527f726f7665206661696c6564000000000000000000000000000000000000000000606082015260800190565b6020808252601e908201527f556e6f52653a2045786368616e67654167656e7420466f7262696464656e0000604082015260600190565b6020808252601d908201527f556e6f52653a203130302520736c697070616765206f766572666c6f77000000604082015260600190565b6020808252600f908201527f556e6f52653a206e6f2070616972730000000000000000000000000000000000604082015260600190565b6020808252601f908201527f5265656e7472616e637947756172643a207265656e7472616e742063616c6c00604082015260600190565b90815260200190565b6000858252608060208301526120516080830186611bdc565b6001600160a01b03949094166040830152506060015292915050565b600086825285602083015260a0604083015261208c60a0830186611bdc565b6001600160a01b0394909416606083015250608001529392505050565b9283526020830191909152604082015260600190565b6000826120da57634e487b7160e01b81526012600452602481fd5b500490565b80825b60018086116120f1575061211c565b81870482111561210357612103612229565b8086161561211057918102915b9490941c9380026120e2565b94509492505050565b60006106e7600019848460008261213e575060016106e7565b8161214b575060006106e7565b8160018114612161576002811461216b57612198565b60019150506106e7565b60ff84111561217c5761217c612229565b6001841b91508482111561219257612192612229565b506106e7565b5060208310610133831016604e8410600b84101617156121cb575081810a838111156121c6576121c6612229565b6106e7565b6121d884848460016120df565b8086048211156121ea576121ea612229565b02949350505050565b600081600019048311821515161561220d5761220d612229565b500290565b60008282101561222457612224612229565b500390565b634e487b7160e01b600052601160045260246000fd5b6001600160a01b038116811461106b57600080fdfea2646970667358221220f059e98f20570a0b9af03844c84e79be37b09537e2bd001aaf8876546824c73964736f6c63430008000033",
  "devdoc": {
    "kind": "dev",
    "methods": {
      "owner()": {
        "details": "Returns the address of the current owner."
      },
      "renounceOwnership()": {
        "details": "Leaves the contract without owner. It will not be possible to call `onlyOwner` functions anymore. Can only be called by the current owner. NOTE: Renouncing ownership will leave the contract without an owner, thereby removing any functionality that is only available to the owner."
      },
      "transferOwnership(address)": {
        "details": "Transfers ownership of the contract to a new account (`newOwner`). Can only be called by the current owner."
      }
    },
    "version": 1
  },
  "userdoc": {
    "kind": "user",
    "methods": {},
    "version": 1
  },
  "storageLayout": {
    "storage": [
      {
        "astId": 114,
        "contract": "contracts/ExchangeAgent.sol:ExchangeAgent",
        "label": "_status",
        "offset": 0,
        "slot": "0",
        "type": "t_uint256"
      },
      {
        "astId": 7,
        "contract": "contracts/ExchangeAgent.sol:ExchangeAgent",
        "label": "_owner",
        "offset": 0,
        "slot": "1",
        "type": "t_address"
      },
      {
        "astId": 4084,
        "contract": "contracts/ExchangeAgent.sol:ExchangeAgent",
        "label": "UNISWAP_ROUTER",
        "offset": 0,
        "slot": "2",
        "type": "t_address"
      },
      {
        "astId": 4086,
        "contract": "contracts/ExchangeAgent.sol:ExchangeAgent",
        "label": "WETH",
        "offset": 0,
        "slot": "3",
        "type": "t_address"
      },
      {
        "astId": 4088,
        "contract": "contracts/ExchangeAgent.sol:ExchangeAgent",
        "label": "oraclePriceFeed",
        "offset": 0,
        "slot": "4",
        "type": "t_address"
      },
      {
        "astId": 4090,
        "contract": "contracts/ExchangeAgent.sol:ExchangeAgent",
        "label": "slippage",
        "offset": 0,
        "slot": "5",
        "type": "t_uint256"
      },
      {
        "astId": 4097,
        "contract": "contracts/ExchangeAgent.sol:ExchangeAgent",
        "label": "whiteList",
        "offset": 0,
        "slot": "6",
        "type": "t_mapping(t_address,t_bool)"
      }
    ],
    "types": {
      "t_address": {
        "encoding": "inplace",
        "label": "address",
        "numberOfBytes": "20"
      },
      "t_bool": {
        "encoding": "inplace",
        "label": "bool",
        "numberOfBytes": "1"
      },
      "t_mapping(t_address,t_bool)": {
        "encoding": "mapping",
        "key": "t_address",
        "label": "mapping(address => bool)",
        "numberOfBytes": "32",
        "value": "t_bool"
      },
      "t_uint256": {
        "encoding": "inplace",
        "label": "uint256",
        "numberOfBytes": "32"
      }
    }
  }
}