{
  "address": "0x2e7269f5334E54930Cd7b844c71025c4943e9ddb",
  "abi": [
    {
      "inputs": [
        {
          "internalType": "address",
          "name": "_usdcToken",
          "type": "address"
        },
        {
          "internalType": "address",
          "name": "_WETH",
          "type": "address"
        },
        {
          "internalType": "address",
          "name": "_oraclePriceFeed",
          "type": "address"
        },
        {
          "internalType": "address",
          "name": "_uniswapRouter",
          "type": "address"
        },
        {
          "internalType": "address",
          "name": "_uniswapFactory",
          "type": "address"
        },
        {
          "internalType": "address",
          "name": "_multiSigWallet",
          "type": "address"
        },
        {
          "internalType": "uint256",
          "name": "_swapDeadline",
          "type": "uint256"
        }
      ],
      "stateMutability": "nonpayable",
      "type": "constructor"
    },
    {
      "inputs": [
        {
          "internalType": "address",
          "name": "target",
          "type": "address"
        }
      ],
      "name": "AddressEmptyCode",
      "type": "error"
    },
    {
      "inputs": [
        {
          "internalType": "address",
          "name": "account",
          "type": "address"
        }
      ],
      "name": "AddressInsufficientBalance",
      "type": "error"
    },
    {
      "inputs": [],
      "name": "EnforcedPause",
      "type": "error"
    },
    {
      "inputs": [],
      "name": "ExpectedPause",
      "type": "error"
    },
    {
      "inputs": [],
      "name": "FailedInnerCall",
      "type": "error"
    },
    {
      "inputs": [
        {
          "internalType": "address",
          "name": "owner",
          "type": "address"
        }
      ],
      "name": "OwnableInvalidOwner",
      "type": "error"
    },
    {
      "inputs": [
        {
          "internalType": "address",
          "name": "account",
          "type": "address"
        }
      ],
      "name": "OwnableUnauthorizedAccount",
      "type": "error"
    },
    {
      "inputs": [],
      "name": "ReentrancyGuardReentrantCall",
      "type": "error"
    },
    {
      "inputs": [
        {
          "internalType": "address",
          "name": "token",
          "type": "address"
        }
      ],
      "name": "SafeERC20FailedOperation",
      "type": "error"
    },
    {
      "anonymous": false,
      "inputs": [
        {
          "indexed": true,
          "internalType": "address",
          "name": "_dexAddress",
          "type": "address"
        },
        {
          "indexed": true,
          "internalType": "address",
          "name": "_convertToken",
          "type": "address"
        },
        {
          "indexed": false,
          "internalType": "uint256",
          "name": "_convertAmount",
          "type": "uint256"
        },
        {
          "indexed": false,
          "internalType": "uint256",
          "name": "_desiredAmount",
          "type": "uint256"
        },
        {
          "indexed": false,
          "internalType": "uint256",
          "name": "_convertedAmount",
          "type": "uint256"
        }
      ],
      "name": "ConvertedTokenToETH",
      "type": "event"
    },
    {
      "anonymous": false,
      "inputs": [
        {
          "indexed": true,
          "internalType": "address",
          "name": "_dexAddress",
          "type": "address"
        },
        {
          "indexed": true,
          "internalType": "address",
          "name": "_convertToken",
          "type": "address"
        },
        {
          "indexed": true,
          "internalType": "address",
          "name": "_convertedToken",
          "type": "address"
        },
        {
          "indexed": false,
          "internalType": "uint256",
          "name": "_convertAmount",
          "type": "uint256"
        },
        {
          "indexed": false,
          "internalType": "uint256",
          "name": "_desiredAmount",
          "type": "uint256"
        },
        {
          "indexed": false,
          "internalType": "uint256",
          "name": "_convertedAmount",
          "type": "uint256"
        }
      ],
      "name": "ConvertedTokenToToken",
      "type": "event"
    },
    {
      "anonymous": false,
      "inputs": [
        {
          "indexed": true,
          "internalType": "address",
          "name": "_exchangeAgent",
          "type": "address"
        },
        {
          "indexed": true,
          "internalType": "address",
          "name": "_whiteListAddress",
          "type": "address"
        }
      ],
      "name": "LogAddWhiteList",
      "type": "event"
    },
    {
      "anonymous": false,
      "inputs": [
        {
          "indexed": true,
          "internalType": "address",
          "name": "_exchangeAgent",
          "type": "address"
        },
        {
          "indexed": true,
          "internalType": "address",
          "name": "_whiteListAddress",
          "type": "address"
        }
      ],
      "name": "LogRemoveWhiteList",
      "type": "event"
    },
    {
      "anonymous": false,
      "inputs": [
        {
          "indexed": true,
          "internalType": "address",
          "name": "_exchangeAgent",
          "type": "address"
        },
        {
          "indexed": true,
          "internalType": "address",
          "name": "_oraclePriceFeed",
          "type": "address"
        }
      ],
      "name": "LogSetOraclePriceFeed",
      "type": "event"
    },
    {
      "anonymous": false,
      "inputs": [
        {
          "indexed": true,
          "internalType": "address",
          "name": "_exchangeAgent",
          "type": "address"
        },
        {
          "indexed": false,
          "internalType": "uint256",
          "name": "_slippage",
          "type": "uint256"
        }
      ],
      "name": "LogSetSlippage",
      "type": "event"
    },
    {
      "anonymous": false,
      "inputs": [
        {
          "indexed": true,
          "internalType": "address",
          "name": "previousOwner",
          "type": "address"
        },
        {
          "indexed": true,
          "internalType": "address",
          "name": "newOwner",
          "type": "address"
        }
      ],
      "name": "OwnershipTransferStarted",
      "type": "event"
    },
    {
      "anonymous": false,
      "inputs": [
        {
          "indexed": true,
          "internalType": "address",
          "name": "previousOwner",
          "type": "address"
        },
        {
          "indexed": true,
          "internalType": "address",
          "name": "newOwner",
          "type": "address"
        }
      ],
      "name": "OwnershipTransferred",
      "type": "event"
    },
    {
      "anonymous": false,
      "inputs": [
        {
          "indexed": false,
          "internalType": "address",
          "name": "account",
          "type": "address"
        }
      ],
      "name": "Paused",
      "type": "event"
    },
    {
      "anonymous": false,
      "inputs": [
        {
          "indexed": false,
          "internalType": "address",
          "name": "account",
          "type": "address"
        }
      ],
      "name": "Unpaused",
      "type": "event"
    },
    {
      "inputs": [],
      "name": "UNISWAP_FACTORY",
      "outputs": [
        {
          "internalType": "address",
          "name": "",
          "type": "address"
        }
      ],
      "stateMutability": "view",
      "type": "function"
    },
    {
      "inputs": [],
      "name": "UNISWAP_ROUTER",
      "outputs": [
        {
          "internalType": "address",
          "name": "",
          "type": "address"
        }
      ],
      "stateMutability": "view",
      "type": "function"
    },
    {
      "inputs": [],
      "name": "WETH",
      "outputs": [
        {
          "internalType": "address",
          "name": "",
          "type": "address"
        }
      ],
      "stateMutability": "view",
      "type": "function"
    },
    {
      "inputs": [],
      "name": "acceptOwnership",
      "outputs": [],
      "stateMutability": "nonpayable",
      "type": "function"
    },
    {
      "inputs": [
        {
          "internalType": "address",
          "name": "_whiteListAddress",
          "type": "address"
        }
      ],
      "name": "addWhiteList",
      "outputs": [],
      "stateMutability": "nonpayable",
      "type": "function"
    },
    {
      "inputs": [
        {
          "internalType": "address",
          "name": "_token",
          "type": "address"
        },
        {
          "internalType": "uint256",
          "name": "_convertAmount",
          "type": "uint256"
        }
      ],
      "name": "convertForETH",
      "outputs": [
        {
          "internalType": "uint256",
          "name": "",
          "type": "uint256"
        }
      ],
      "stateMutability": "nonpayable",
      "type": "function"
    },
    {
      "inputs": [
        {
          "internalType": "address",
          "name": "_token0",
          "type": "address"
        },
        {
          "internalType": "address",
          "name": "_token1",
          "type": "address"
        },
        {
          "internalType": "uint256",
          "name": "_token0Amount",
          "type": "uint256"
        }
      ],
      "name": "convertForToken",
      "outputs": [
        {
          "internalType": "uint256",
          "name": "",
          "type": "uint256"
        }
      ],
      "stateMutability": "nonpayable",
      "type": "function"
    },
    {
      "inputs": [
        {
          "internalType": "address",
          "name": "_token",
          "type": "address"
        },
        {
          "internalType": "uint256",
          "name": "_tokenAmount",
          "type": "uint256"
        }
      ],
      "name": "getETHAmountForToken",
      "outputs": [
        {
          "internalType": "uint256",
          "name": "",
          "type": "uint256"
        }
      ],
      "stateMutability": "view",
      "type": "function"
    },
    {
      "inputs": [
        {
          "internalType": "uint256",
          "name": "_usdtAmount",
          "type": "uint256"
        }
      ],
      "name": "getETHAmountForUSDC",
      "outputs": [
        {
          "internalType": "uint256",
          "name": "",
          "type": "uint256"
        }
      ],
      "stateMutability": "view",
      "type": "function"
    },
    {
      "inputs": [
        {
          "internalType": "address",
          "name": "_token0",
          "type": "address"
        },
        {
          "internalType": "address",
          "name": "_token1",
          "type": "address"
        },
        {
          "internalType": "uint256",
          "name": "_token0Amount",
          "type": "uint256"
        }
      ],
      "name": "getNeededTokenAmount",
      "outputs": [
        {
          "internalType": "uint256",
          "name": "",
          "type": "uint256"
        }
      ],
      "stateMutability": "view",
      "type": "function"
    },
    {
      "inputs": [
        {
          "internalType": "address",
          "name": "_token",
          "type": "address"
        },
        {
          "internalType": "uint256",
          "name": "_ethAmount",
          "type": "uint256"
        }
      ],
      "name": "getTokenAmountForETH",
      "outputs": [
        {
          "internalType": "uint256",
          "name": "",
          "type": "uint256"
        }
      ],
      "stateMutability": "view",
      "type": "function"
    },
    {
      "inputs": [
        {
          "internalType": "address",
          "name": "_token",
          "type": "address"
        },
        {
          "internalType": "uint256",
          "name": "_usdtAmount",
          "type": "uint256"
        }
      ],
      "name": "getTokenAmountForUSDC",
      "outputs": [
        {
          "internalType": "uint256",
          "name": "",
          "type": "uint256"
        }
      ],
      "stateMutability": "view",
      "type": "function"
    },
    {
      "inputs": [],
      "name": "killPool",
      "outputs": [],
      "stateMutability": "nonpayable",
      "type": "function"
    },
    {
      "inputs": [],
      "name": "oraclePriceFeed",
      "outputs": [
        {
          "internalType": "address",
          "name": "",
          "type": "address"
        }
      ],
      "stateMutability": "view",
      "type": "function"
    },
    {
      "inputs": [],
      "name": "owner",
      "outputs": [
        {
          "internalType": "address",
          "name": "",
          "type": "address"
        }
      ],
      "stateMutability": "view",
      "type": "function"
    },
    {
      "inputs": [],
      "name": "paused",
      "outputs": [
        {
          "internalType": "bool",
          "name": "",
          "type": "bool"
        }
      ],
      "stateMutability": "view",
      "type": "function"
    },
    {
      "inputs": [],
      "name": "pendingOwner",
      "outputs": [
        {
          "internalType": "address",
          "name": "",
          "type": "address"
        }
      ],
      "stateMutability": "view",
      "type": "function"
    },
    {
      "inputs": [
        {
          "internalType": "address",
          "name": "_whiteListAddress",
          "type": "address"
        }
      ],
      "name": "removeWhiteList",
      "outputs": [],
      "stateMutability": "nonpayable",
      "type": "function"
    },
    {
      "inputs": [],
      "name": "renounceOwnership",
      "outputs": [],
      "stateMutability": "nonpayable",
      "type": "function"
    },
    {
      "inputs": [],
      "name": "revivePool",
      "outputs": [],
      "stateMutability": "nonpayable",
      "type": "function"
    },
    {
      "inputs": [
        {
          "internalType": "address",
          "name": "_oraclePriceFeed",
          "type": "address"
        }
      ],
      "name": "setOraclePriceFeed",
      "outputs": [],
      "stateMutability": "nonpayable",
      "type": "function"
    },
    {
      "inputs": [
        {
          "internalType": "uint256",
          "name": "_slippage",
          "type": "uint256"
        }
      ],
      "name": "setSlippage",
      "outputs": [],
      "stateMutability": "nonpayable",
      "type": "function"
    },
    {
      "inputs": [
        {
          "internalType": "uint256",
          "name": "_swapDeadline",
          "type": "uint256"
        }
      ],
      "name": "setSwapDeadline",
      "outputs": [],
      "stateMutability": "nonpayable",
      "type": "function"
    },
    {
      "inputs": [],
      "name": "slippage",
      "outputs": [
        {
          "internalType": "uint256",
          "name": "",
          "type": "uint256"
        }
      ],
      "stateMutability": "view",
      "type": "function"
    },
    {
      "inputs": [],
      "name": "swapDeadline",
      "outputs": [
        {
          "internalType": "uint256",
          "name": "",
          "type": "uint256"
        }
      ],
      "stateMutability": "view",
      "type": "function"
    },
    {
      "inputs": [
        {
          "internalType": "address",
          "name": "newOwner",
          "type": "address"
        }
      ],
      "name": "transferOwnership",
      "outputs": [],
      "stateMutability": "nonpayable",
      "type": "function"
    },
    {
      "inputs": [],
      "name": "usdcToken",
      "outputs": [
        {
          "internalType": "address",
          "name": "",
          "type": "address"
        }
      ],
      "stateMutability": "view",
      "type": "function"
    },
    {
      "inputs": [
        {
          "internalType": "address",
          "name": "",
          "type": "address"
        }
      ],
      "name": "whiteList",
      "outputs": [
        {
          "internalType": "bool",
          "name": "",
          "type": "bool"
        }
      ],
      "stateMutability": "view",
      "type": "function"
    },
    {
      "stateMutability": "payable",
      "type": "receive"
    }
  ],
  "transactionHash": "0xcbbbd794c719816a04068dfb3a0f79b86ddb7232c9c8d4b67cc74ccda80053b2",
  "args": [
    "0xdb2587DEb089c8f914BA6FeDf1E3d3Cb8660A015",
    "0xfff9976782d46cc05630d1f6ebab18b2324d6b14",
    "0x1Ae92ea347051D6B92de0F588bBde01874A15130",
    "0x3bFA4769FB09eefC5a80d6E87c3B9C650f7Ae48E",
    "0x0227628f3F023bb0B980b67D528571c95c6DaC1c",
    "0x3ad22Ae2dE3dCF105E8DaA12acDd15bD47596863",
    3600
  ],
  "numDeployments": 1,
  "solcInputHash": "f640b8494781bf0375ed0351e653c49a",
  "bytecode": "0x6101006040523480156200001257600080fd5b506040516200283d3803806200283d83398101604081905262000035916200035b565b6001600055816001600160a01b0381166200006b57604051631e4fbdf760e01b8152600060048201526024015b60405180910390fd5b6200007681620002ce565b506002805460ff60a01b191690556001600160a01b038716620000dc5760405162461bcd60e51b815260206004820152601860248201527f556e6f52653a207a65726f205553444320616464726573730000000000000000604482015260640162000062565b6001600160a01b0384166200013e5760405162461bcd60e51b815260206004820152602160248201527f556e6f52653a207a65726f20756e6973776170526f75746572206164647265736044820152607360f81b606482015260840162000062565b6001600160a01b038316620001a15760405162461bcd60e51b815260206004820152602260248201527f556e6f52653a207a65726f20756e6973776170466163746f7279206164647265604482015261737360f01b606482015260840162000062565b6001600160a01b038616620001f95760405162461bcd60e51b815260206004820152601860248201527f556e6f52653a207a65726f205745544820616464726573730000000000000000604482015260640162000062565b6001600160a01b0382166200025c5760405162461bcd60e51b815260206004820152602260248201527f556e6f52653a207a65726f206d756c746973696777616c6c6574206164647265604482015261737360f01b606482015260840162000062565b6001600160a01b0387811660805283811660a05284811660c05286811660e052600380546001600160a01b031916918716919091179055336000908152600660205260409020805460ff19166001179055620002bb60646005620003e7565b6004556005555062000413945050505050565b600280546001600160a01b0319169055620002e981620002ec565b50565b600180546001600160a01b038381166001600160a01b0319831681179093556040519116919082907f8be0079c531659141344cd1fd0a4f28419497f9722a3daafe3b4186f6b6457e090600090a35050565b80516001600160a01b03811681146200035657600080fd5b919050565b600080600080600080600060e0888a0312156200037757600080fd5b62000382886200033e565b965062000392602089016200033e565b9550620003a2604089016200033e565b9450620003b2606089016200033e565b9350620003c2608089016200033e565b9250620003d260a089016200033e565b915060c0880151905092959891949750929550565b80820281158282048414176200040d57634e487b7160e01b600052601160045260246000fd5b92915050565b60805160a05160c05160e0516123bf6200047e600039600081816104770152818161193d0152611a190152600081816104ff01528181610bdf0152610de4015260006104cb01526000818161020c0152818161084f015281816108cd0152610e2101526123bf6000f3fe6080604052600436106101bb5760003560e01c80638da5cb5b116100ec578063ba560ed91161008a578063e30c397811610064578063e30c397814610521578063e7cd4a041461053f578063f0fa55a91461055f578063f2fde38b1461057f57600080fd5b8063ba560ed914610499578063c74c0fac146104b9578063d8264920146104ed57600080fd5b8063942dbff4116100c6578063942dbff41461040f5780639a55396814610425578063a9a12d4314610445578063ad5c46481461046557600080fd5b80638da5cb5b146103b157806393ad9f17146103cf57806393badc41146103ef57600080fd5b8063531a221111610159578063715018a611610133578063715018a61461035257806375d380711461036757806379ba5097146103875780637a39b8d81461039c57600080fd5b8063531a2211146102fe5780635c975abb1461031e578063677554151461033d57600080fd5b80632042e5c2116101955780632042e5c21461026857806334899be614610288578063372c12b1146102a85780633e032a3b146102e857600080fd5b8063102e3259146101c757806311eac855146101fa5780631eb5b6991461024657600080fd5b366101c257005b600080fd5b3480156101d357600080fd5b506101e76101e2366004611fde565b61059f565b6040519081526020015b60405180910390f35b34801561020657600080fd5b5061022e7f000000000000000000000000000000000000000000000000000000000000000081565b6040516001600160a01b0390911681526020016101f1565b34801561025257600080fd5b5061026661026136600461200a565b6106a6565b005b34801561027457600080fd5b5061026661028336600461200a565b610729565b34801561029457600080fd5b506101e76102a3366004612027565b61081e565b3480156102b457600080fd5b506102d86102c336600461200a565b60066020526000908152604090205460ff1681565b60405190151581526020016101f1565b3480156102f457600080fd5b506101e760045481565b34801561030a57600080fd5b506101e7610319366004612068565b610835565b34801561032a57600080fd5b50600254600160a01b900460ff166102d8565b34801561034957600080fd5b50610266610979565b34801561035e57600080fd5b5061026661098b565b34801561037357600080fd5b5060035461022e906001600160a01b031681565b34801561039357600080fd5b5061026661099d565b3480156103a857600080fd5b506102666109e1565b3480156103bd57600080fd5b506001546001600160a01b031661022e565b3480156103db57600080fd5b506102666103ea366004612068565b6109f1565b3480156103fb57600080fd5b506101e761040a366004612027565b6109fe565b34801561041b57600080fd5b506101e760055481565b34801561043157600080fd5b506101e7610440366004611fde565b610c16565b34801561045157600080fd5b506101e7610460366004611fde565b610e1a565b34801561047157600080fd5b5061022e7f000000000000000000000000000000000000000000000000000000000000000081565b3480156104a557600080fd5b506101e76104b4366004611fde565b610e47565b3480156104c557600080fd5b5061022e7f000000000000000000000000000000000000000000000000000000000000000081565b3480156104f957600080fd5b5061022e7f000000000000000000000000000000000000000000000000000000000000000081565b34801561052d57600080fd5b506002546001600160a01b031661022e565b34801561054b57600080fd5b5061026661055a36600461200a565b610f3a565b34801561056b57600080fd5b5061026661057a366004612068565b61101e565b34801561058b57600080fd5b5061026661059a36600461200a565b611103565b60035460405163355188ab60e01b81526001600160a01b038481166004830152600092839291169063355188ab90602401602060405180830381865afa1580156105ed573d6000803e3d6000fd5b505050506040513d601f19601f820116820180604052508101906106119190612081565b90506000846001600160a01b031663313ce5676040518163ffffffff1660e01b8152600401602060405180830381865afa158015610653573d6000803e3d6000fd5b505050506040513d601f19601f82011682018060405250810190610677919061209a565b60ff16905061068781600a6121b7565b61069183866121c3565b61069b91906121da565b925050505b92915050565b6106ae611174565b6001600160a01b0381166106dd5760405162461bcd60e51b81526004016106d4906121fc565b60405180910390fd5b600380546001600160a01b0319166001600160a01b03831690811790915560405130907f76d908faefb2e5bb2e5551cce5530e7d157dd5ddafe26554d2320c5cc065009f90600090a350565b610731611174565b6001600160a01b0381166107575760405162461bcd60e51b81526004016106d4906121fc565b6001600160a01b03811660009081526006602052604090205460ff166107d45760405162461bcd60e51b815260206004820152602c60248201527f556e6f52653a207768697465206c6973742072656d6f766564206f7220756e6160448201526b6464656420616c726561647960a01b60648201526084016106d4565b6001600160a01b038116600081815260066020526040808220805460ff191690555130917f2f467772ef0a5478314f3bc2b37d4b2ad29b65f052b2cedc8e2972dda033529291a350565b600061082b8484846111a1565b90505b9392505050565b60035460405163355188ab60e01b81526001600160a01b037f000000000000000000000000000000000000000000000000000000000000000081166004830152600092839291169063355188ab90602401602060405180830381865afa1580156108a3573d6000803e3d6000fd5b505050506040513d601f19601f820116820180604052508101906108c79190612081565b905060007f00000000000000000000000000000000000000000000000000000000000000006001600160a01b031663313ce5676040518163ffffffff1660e01b8152600401602060405180830381865afa158015610929573d6000803e3d6000fd5b505050506040513d601f19601f8201168201806040525081019061094d919061209a565b60ff16905061095d81600a6121b7565b61096783866121c3565b61097191906121da565b949350505050565b610981611174565b61098961122b565b565b610993611174565b6109896000611280565b60025433906001600160a01b031681146109d55760405163118cdaa760e01b81526001600160a01b03821660048201526024016106d4565b6109de81611280565b50565b6109e9611174565b610989611299565b6109f9611174565b600555565b3360009081526006602052604081205460ff16610a5d5760405162461bcd60e51b815260206004820152601e60248201527f556e6f52653a2045786368616e67654167656e7420466f7262696464656e000060448201526064016106d4565b610a656112dc565b610a6d611307565b60006001600160a01b03851615610b4a576040516370a0823160e01b81523360048201526000906001600160a01b038716906370a0823190602401602060405180830381865afa158015610ac5573d6000803e3d6000fd5b505050506040513d601f19601f82011682018060405250810190610ae99190612081565b11610b2c5760405162461bcd60e51b8152602060048201526013602482015272556e6f52653a207a65726f2062616c616e636560681b60448201526064016106d4565b610b3885333086611331565b610b438585856111a1565b9050610b57565b610b548484610e47565b90505b60008111610b995760405162461bcd60e51b815260206004820152600f60248201526e556e6f52653a206e6f20706169727360881b60448201526064016106d4565b6000606480600454606480610bae91906121c3565b610bb89190612229565b610bc290856121c3565b610bcc91906121da565b610bd691906121da565b90506000610c077f00000000000000000000000000000000000000000000000000000000000000008888888661146f565b935050505061082e6001600055565b3360009081526006602052604081205460ff16610c755760405162461bcd60e51b815260206004820152601e60248201527f556e6f52653a2045786368616e67654167656e7420466f7262696464656e000060448201526064016106d4565b610c7d6112dc565b610c85611307565b6040516370a0823160e01b81523360048201526000906001600160a01b038516906370a0823190602401602060405180830381865afa158015610ccc573d6000803e3d6000fd5b505050506040513d601f19601f82011682018060405250810190610cf09190612081565b11610d335760405162461bcd60e51b8152602060048201526013602482015272556e6f52653a207a65726f2062616c616e636560681b60448201526064016106d4565b6001600160a01b03831615610d4e57610d4e83333085611331565b6000610d5a848461059f565b905060008111610d9e5760405162461bcd60e51b815260206004820152600f60248201526e556e6f52653a206e6f20706169727360881b60448201526064016106d4565b6000606480600454606480610db391906121c3565b610dbd9190612229565b610dc790856121c3565b610dd191906121da565b610ddb91906121da565b90506000610e0b7f00000000000000000000000000000000000000000000000000000000000000008787856118a5565b93505050506106a06001600055565b600061082e7f000000000000000000000000000000000000000000000000000000000000000084846111a1565b60035460405163355188ab60e01b81526001600160a01b038481166004830152600092839291169063355188ab90602401602060405180830381865afa158015610e95573d6000803e3d6000fd5b505050506040513d601f19601f82011682018060405250810190610eb99190612081565b90506000846001600160a01b031663313ce5676040518163ffffffff1660e01b8152600401602060405180830381865afa158015610efb573d6000803e3d6000fd5b505050506040513d601f19601f82011682018060405250810190610f1f919061209a565b60ff16905081610f3082600a6121b7565b61069190866121c3565b610f42611174565b6001600160a01b038116610f685760405162461bcd60e51b81526004016106d4906121fc565b6001600160a01b03811660009081526006602052604090205460ff1615610fd15760405162461bcd60e51b815260206004820152601960248201527f556e6f52653a207768697465206c69737420616c72656164790000000000000060448201526064016106d4565b6001600160a01b038116600081815260066020526040808220805460ff191660011790555130917f8cd7b0b1a7316eb3e5d781d629cb8bf4e2fd9a8903bdd0f6b894c087d61b21f291a350565b611026611174565b6000811161106d5760405162461bcd60e51b8152602060048201526014602482015273556e6f52653a207a65726f20736c69707061676560601b60448201526064016106d4565b606481106110bd5760405162461bcd60e51b815260206004820152601d60248201527f556e6f52653a203130302520736c697070616765206f766572666c6f7700000060448201526064016106d4565b6110c86064826121c3565b60045560405181815230907f1b5c61e79b0735d33852817a0af9ed28b909c7c0a2a04abcc0c19bba6d6ba5649060200160405180910390a250565b61110b611174565b600280546001600160a01b0383166001600160a01b0319909116811790915561113c6001546001600160a01b031690565b6001600160a01b03167f38d16b8cac22d99fc7c124b9cd0de2d3fa1faef420bfe791d8c362d765e2270060405160405180910390a350565b6001546001600160a01b031633146109895760405163118cdaa760e01b81523360048201526024016106d4565b6003546040516318db3e8360e21b81526001600160a01b038581166004830152848116602483015260448201849052600092839291169063636cfa0c90606401602060405180830381865afa1580156111fe573d6000803e3d6000fd5b505050506040513d601f19601f820116820180604052508101906112229190612081565b95945050505050565b611233611b52565b6002805460ff60a01b191690557f5db9ee0a495bf2e6ff9c91a7834c1ba4fdd244a5e8aa4e537bd38aeae4b073aa335b6040516001600160a01b03909116815260200160405180910390a1565b600280546001600160a01b03191690556109de81611b7c565b6112a16112dc565b6002805460ff60a01b1916600160a01b1790557f62e78cea01bee320cd4e420270b5ea74000d11b0c9f74754ebdbfc544b05a2586112633390565b600254600160a01b900460ff16156109895760405163d93c066560e01b815260040160405180910390fd5b60026000540361132a57604051633ee5aeb560e01b815260040160405180910390fd5b6002600055565b604080516001600160a01b0385811660248301528481166044830152606480830185905283518084039091018152608490920183526020820180516001600160e01b03166323b872dd60e01b1790529151600092839290881691611395919061223c565b6000604051808303816000865af19150503d80600081146113d2576040519150601f19603f3d011682016040523d82523d6000602084013e6113d7565b606091505b5091509150818015611401575080511580611401575080806020019051810190611401919061226b565b6114675760405162461bcd60e51b815260206004820152603160248201527f5472616e7366657248656c7065723a3a7472616e7366657246726f6d3a207472604482015270185b9cd9995c919c9bdb4819985a5b1959607a1b60648201526084016106d4565b505050505050565b6000808690506000816001600160a01b031663c45a01556040518163ffffffff1660e01b8152600401602060405180830381865afa1580156114b5573d6000803e3d6000fd5b505050506040513d601f19601f820116820180604052508101906114d9919061228d565b6040516370a0823160e01b81523360048201529091506000906001600160a01b038816906370a0823190602401602060405180830381865afa158015611523573d6000803e3d6000fd5b505050506040513d601f19601f820116820180604052508101906115479190612081565b90506000836001600160a01b031663ad5c46486040518163ffffffff1660e01b8152600401602060405180830381865afa158015611589573d6000803e3d6000fd5b505050506040513d601f19601f820116820180604052508101906115ad919061228d565b90506001600160a01b038916156115cb5750876115cb818589611bce565b60405163e6a4390560e01b81526001600160a01b03828116600483015289811660248301526000919085169063e6a4390590604401602060405180830381865afa15801561161d573d6000803e3d6000fd5b505050506040513d601f19601f82011682018060405250810190611641919061228d565b6001600160a01b0316146117b4576040805160028082526060820183526000926020830190803683370190505090508181600081518110611684576116846122aa565b60200260200101906001600160a01b031690816001600160a01b03168152505088816001815181106116b8576116b86122aa565b6001600160a01b0392831660209182029290920101528a1661174b57846001600160a01b031663b6f9de9589898433600554426116f591906122c0565b6040518663ffffffff1660e01b81526004016117149493929190612318565b6000604051808303818588803b15801561172d57600080fd5b505af1158015611741573d6000803e3d6000fd5b50505050506117b2565b604051635c11d79560e01b81526001600160a01b03861690635c11d7959061177f908b908b9086903390429060040161234d565b600060405180830381600087803b15801561179957600080fd5b505af11580156117ad573d6000803e3d6000fd5b505050505b505b6040516370a0823160e01b81523360048201526000906001600160a01b038a16906370a0823190602401602060405180830381865afa1580156117fb573d6000803e3d6000fd5b505050506040513d601f19601f8201168201806040525081019061181f9190612081565b9050886001600160a01b03168a6001600160a01b03168c6001600160a01b03167fd30edfe8aafab67575a170d015da0337bcb39e5c9af1b2dfb9294fb75b344ac38b8b888761186e9190612229565b6040805193845260208401929092529082015260600160405180910390a46118968382612229565b9b9a5050505050505050505050565b6000808590506000816001600160a01b031663c45a01556040518163ffffffff1660e01b8152600401602060405180830381865afa1580156118eb573d6000803e3d6000fd5b505050506040513d601f19601f8201168201806040525081019061190f919061228d565b9050333161191e878488611cfd565b60405163e6a4390560e01b81526001600160a01b0388811660048301527f0000000000000000000000000000000000000000000000000000000000000000811660248301526000919084169063e6a4390590604401602060405180830381865afa158015611990573d6000803e3d6000fd5b505050506040513d601f19601f820116820180604052508101906119b4919061228d565b6001600160a01b031614611ae05760408051600280825260608201835260009260208301908036833701905050905087816000815181106119f7576119f76122aa565b60200260200101906001600160a01b031690816001600160a01b0316815250507f000000000000000000000000000000000000000000000000000000000000000081600181518110611a4b57611a4b6122aa565b60200260200101906001600160a01b031690816001600160a01b031681525050836001600160a01b031663791ac9478888843360055442611a8c91906122c0565b6040518663ffffffff1660e01b8152600401611aac95949392919061234d565b600060405180830381600087803b158015611ac657600080fd5b505af1158015611ada573d6000803e3d6000fd5b50505050505b33316001600160a01b03888116908a167f1df84ee81df9963f5d40b2a3f717360c1f62daa6f21f69580398a8d570de644c8989611b1d8787612229565b6040805193845260208401929092529082015260600160405180910390a3611b458282612229565b9998505050505050505050565b600254600160a01b900460ff1661098957604051638dfc202b60e01b815260040160405180910390fd5b600180546001600160a01b038381166001600160a01b0319831681179093556040519116919082907f8be0079c531659141344cd1fd0a4f28419497f9722a3daafe3b4186f6b6457e090600090a35050565b604080516001600160a01b038481166024830152604480830185905283518084039091018152606490920183526020820180516001600160e01b031663095ea7b360e01b1790529151600092839290871691611c2a919061223c565b6000604051808303816000865af19150503d8060008114611c67576040519150601f19603f3d011682016040523d82523d6000602084013e611c6c565b606091505b5091509150818015611c96575080511580611c96575080806020019051810190611c96919061226b565b611cf65760405162461bcd60e51b815260206004820152602b60248201527f5472616e7366657248656c7065723a3a73616665417070726f76653a2061707060448201526a1c9bdd994819985a5b195960aa1b60648201526084016106d4565b5050505050565b604080516001600160a01b038416602482015260448082018490528251808303909101815260649091019091526020810180516001600160e01b031663095ea7b360e01b179052611d4e8482611db7565b611db157604080516001600160a01b038516602482015260006044808301919091528251808303909101815260649091019091526020810180516001600160e01b031663095ea7b360e01b179052611da7908590611e5a565b611db18482611e5a565b50505050565b6000806000846001600160a01b031684604051611dd4919061223c565b6000604051808303816000865af19150503d8060008114611e11576040519150601f19603f3d011682016040523d82523d6000602084013e611e16565b606091505b5091509150818015611e40575080511580611e40575080806020019051810190611e40919061226b565b801561069b5750505050506001600160a01b03163b151590565b6000611e6f6001600160a01b03841683611ec2565b90508051600014158015611e94575080806020019051810190611e92919061226b565b155b15611ebd57604051635274afe760e01b81526001600160a01b03841660048201526024016106d4565b505050565b606061082e8383600084600080856001600160a01b03168486604051611ee8919061223c565b60006040518083038185875af1925050503d8060008114611f25576040519150601f19603f3d011682016040523d82523d6000602084013e611f2a565b606091505b5091509150611f3a868383611f44565b9695505050505050565b606082611f5957611f5482611fa0565b61082e565b8151158015611f7057506001600160a01b0384163b155b15611f9957604051639996b31560e01b81526001600160a01b03851660048201526024016106d4565b508061082e565b805115611fb05780518082602001fd5b604051630a12f52160e11b815260040160405180910390fd5b6001600160a01b03811681146109de57600080fd5b60008060408385031215611ff157600080fd5b8235611ffc81611fc9565b946020939093013593505050565b60006020828403121561201c57600080fd5b813561082e81611fc9565b60008060006060848603121561203c57600080fd5b833561204781611fc9565b9250602084013561205781611fc9565b929592945050506040919091013590565b60006020828403121561207a57600080fd5b5035919050565b60006020828403121561209357600080fd5b5051919050565b6000602082840312156120ac57600080fd5b815160ff8116811461082e57600080fd5b634e487b7160e01b600052601160045260246000fd5b600181815b8085111561210e5781600019048211156120f4576120f46120bd565b8085161561210157918102915b93841c93908002906120d8565b509250929050565b600082612125575060016106a0565b81612132575060006106a0565b816001811461214857600281146121525761216e565b60019150506106a0565b60ff841115612163576121636120bd565b50506001821b6106a0565b5060208310610133831016604e8410600b8410161715612191575081810a6106a0565b61219b83836120d3565b80600019048211156121af576121af6120bd565b029392505050565b600061082e8383612116565b80820281158282048414176106a0576106a06120bd565b6000826121f757634e487b7160e01b600052601260045260246000fd5b500490565b602080825260139082015272556e6f52653a207a65726f206164647265737360681b604082015260600190565b818103818111156106a0576106a06120bd565b6000825160005b8181101561225d5760208186018101518583015201612243565b506000920191825250919050565b60006020828403121561227d57600080fd5b8151801515811461082e57600080fd5b60006020828403121561229f57600080fd5b815161082e81611fc9565b634e487b7160e01b600052603260045260246000fd5b808201808211156106a0576106a06120bd565b60008151808452602080850194506020840160005b8381101561230d5781516001600160a01b0316875295820195908201906001016122e8565b509495945050505050565b84815260806020820152600061233160808301866122d3565b6001600160a01b03949094166040830152506060015292915050565b85815284602082015260a06040820152600061236c60a08301866122d3565b6001600160a01b039490941660608301525060800152939250505056fea2646970667358221220f3b58208e9092c1456b3134c1f61c8ec8202da9d6513a93b16e943ca8e69794764736f6c63430008170033",
  "devdoc": {
    "errors": {
      "AddressEmptyCode(address)": [
        {
          "details": "There's no code at `target` (it is not a contract)."
        }
      ],
      "AddressInsufficientBalance(address)": [
        {
          "details": "The ETH balance of the account is not enough to perform the operation."
        }
      ],
      "EnforcedPause()": [
        {
          "details": "The operation failed because the contract is paused."
        }
      ],
      "ExpectedPause()": [
        {
          "details": "The operation failed because the contract is not paused."
        }
      ],
      "FailedInnerCall()": [
        {
          "details": "A call to an address target failed. The target may have reverted."
        }
      ],
      "OwnableInvalidOwner(address)": [
        {
          "details": "The owner is not a valid owner account. (eg. `address(0)`)"
        }
      ],
      "OwnableUnauthorizedAccount(address)": [
        {
          "details": "The caller account is not authorized to perform an operation."
        }
      ],
      "ReentrancyGuardReentrantCall()": [
        {
          "details": "Unauthorized reentrant call."
        }
      ],
      "SafeERC20FailedOperation(address)": [
        {
          "details": "An operation with an ERC20 token failed."
        }
      ]
    },
    "events": {
      "Paused(address)": {
        "details": "Emitted when the pause is triggered by `account`."
      },
      "Unpaused(address)": {
        "details": "Emitted when the pause is lifted by `account`."
      }
    },
    "kind": "dev",
    "methods": {
      "acceptOwnership()": {
        "details": "The new owner accepts the ownership transfer."
      },
      "addWhiteList(address)": {
        "details": "add address to whiteListed Address, can only be called by owner",
        "params": {
          "_whiteListAddress": "address to white list"
        }
      },
      "convertForETH(address,uint256)": {
        "details": "convert expected eth amount for _inputAmount of _token only whitlisted address can call this function"
      },
      "convertForToken(address,address,uint256)": {
        "details": "convert expected _token1 amount for _inputAmount of _token0 _desiredAmount should consider decimals based on _token1, only whitlisted address can call this function"
      },
      "getNeededTokenAmount(address,address,uint256)": {
        "details": "Get expected _token1 amount for _inputAmount of _token0 _desiredAmount should consider decimals based on _token1,"
      },
      "owner()": {
        "details": "Returns the address of the current owner."
      },
      "paused()": {
        "details": "Returns true if the contract is paused, and false otherwise."
      },
      "pendingOwner()": {
        "details": "Returns the address of the pending owner."
      },
      "removeWhiteList(address)": {
        "details": "remove address from whiteListed Address, can only be called by owner",
        "params": {
          "_whiteListAddress": "address to remove from white list"
        }
      },
      "renounceOwnership()": {
        "details": "Leaves the contract without owner. It will not be possible to call `onlyOwner` functions. Can only be called by the current owner. NOTE: Renouncing ownership will leave the contract without an owner, thereby disabling any functionality that is only available to the owner."
      },
      "setOraclePriceFeed(address)": {
        "details": "set oracle price feed, can only be called by owner"
      },
      "setSlippage(uint256)": {
        "details": "set slippage, can only be called by owner"
      },
      "transferOwnership(address)": {
        "details": "Starts the ownership transfer of the contract to a new account. Replaces the pending transfer if there is one. Can only be called by the current owner."
      }
    },
    "version": 1
  },
  "userdoc": {
    "kind": "user",
    "methods": {},
    "version": 1
  },
  "storageLayout": {
    "storage": [
      {
        "astId": 4285,
        "contract": "contracts/ExchangeAgent.sol:ExchangeAgent",
        "label": "_status",
        "offset": 0,
        "slot": "0",
        "type": "t_uint256"
      },
      {
        "astId": 1395,
        "contract": "contracts/ExchangeAgent.sol:ExchangeAgent",
        "label": "_owner",
        "offset": 0,
        "slot": "1",
        "type": "t_address"
      },
      {
        "astId": 1543,
        "contract": "contracts/ExchangeAgent.sol:ExchangeAgent",
        "label": "_pendingOwner",
        "offset": 0,
        "slot": "2",
        "type": "t_address"
      },
      {
        "astId": 4166,
        "contract": "contracts/ExchangeAgent.sol:ExchangeAgent",
        "label": "_paused",
        "offset": 20,
        "slot": "2",
        "type": "t_bool"
      },
      {
        "astId": 10279,
        "contract": "contracts/ExchangeAgent.sol:ExchangeAgent",
        "label": "oraclePriceFeed",
        "offset": 0,
        "slot": "3",
        "type": "t_address"
      },
      {
        "astId": 10281,
        "contract": "contracts/ExchangeAgent.sol:ExchangeAgent",
        "label": "slippage",
        "offset": 0,
        "slot": "4",
        "type": "t_uint256"
      },
      {
        "astId": 10286,
        "contract": "contracts/ExchangeAgent.sol:ExchangeAgent",
        "label": "swapDeadline",
        "offset": 0,
        "slot": "5",
        "type": "t_uint256"
      },
      {
        "astId": 10290,
        "contract": "contracts/ExchangeAgent.sol:ExchangeAgent",
        "label": "whiteList",
        "offset": 0,
        "slot": "6",
        "type": "t_mapping(t_address,t_bool)"
      }
    ],
    "types": {
      "t_address": {
        "encoding": "inplace",
        "label": "address",
        "numberOfBytes": "20"
      },
      "t_bool": {
        "encoding": "inplace",
        "label": "bool",
        "numberOfBytes": "1"
      },
      "t_mapping(t_address,t_bool)": {
        "encoding": "mapping",
        "key": "t_address",
        "label": "mapping(address => bool)",
        "numberOfBytes": "32",
        "value": "t_bool"
      },
      "t_uint256": {
        "encoding": "inplace",
        "label": "uint256",
        "numberOfBytes": "32"
      }
    }
  }
}