{
  "address": "0xcA59DF9cb9aB9dD89193D5e263f54587aEfDd316",
  "abi": [
    {
      "inputs": [],
      "name": "EnforcedPause",
      "type": "error"
    },
    {
      "inputs": [],
      "name": "ExpectedPause",
      "type": "error"
    },
    {
      "inputs": [],
      "name": "InvalidInitialization",
      "type": "error"
    },
    {
      "inputs": [],
      "name": "NotInitializing",
      "type": "error"
    },
    {
      "anonymous": false,
      "inputs": [
        {
          "indexed": false,
          "internalType": "address",
          "name": "defaultCurrency",
          "type": "address"
        }
      ],
      "name": "DefaultCurrencySet",
      "type": "event"
    },
    {
      "anonymous": false,
      "inputs": [
        {
          "indexed": false,
          "internalType": "bytes32",
          "name": "defaultIdentifier",
          "type": "bytes32"
        }
      ],
      "name": "DefaultIdentifierSet",
      "type": "event"
    },
    {
      "anonymous": false,
      "inputs": [
        {
          "indexed": false,
          "internalType": "uint64",
          "name": "version",
          "type": "uint64"
        }
      ],
      "name": "Initialized",
      "type": "event"
    },
    {
      "anonymous": false,
      "inputs": [
        {
          "indexed": true,
          "internalType": "uint256",
          "name": "policyId",
          "type": "uint256"
        },
        {
          "indexed": true,
          "internalType": "bytes32",
          "name": "assertionId",
          "type": "bytes32"
        }
      ],
      "name": "InsurancePayoutRequested",
      "type": "event"
    },
    {
      "anonymous": false,
      "inputs": [
        {
          "indexed": false,
          "internalType": "bytes32",
          "name": "ipfsLink",
          "type": "bytes32"
        }
      ],
      "name": "IpfsUrlSet",
      "type": "event"
    },
    {
      "anonymous": false,
      "inputs": [
        {
          "indexed": true,
          "internalType": "address",
          "name": "payout",
          "type": "address"
        },
        {
          "indexed": false,
          "internalType": "uint256",
          "name": "assertionAliveTime",
          "type": "uint256"
        }
      ],
      "name": "LogSetAssertionAliveTime",
      "type": "event"
    },
    {
      "anonymous": false,
      "inputs": [
        {
          "indexed": true,
          "internalType": "address",
          "name": "payout",
          "type": "address"
        },
        {
          "indexed": true,
          "internalType": "address",
          "name": "capitalAgent",
          "type": "address"
        }
      ],
      "name": "LogSetCapitalAgent",
      "type": "event"
    },
    {
      "anonymous": false,
      "inputs": [
        {
          "indexed": true,
          "internalType": "address",
          "name": "payout",
          "type": "address"
        },
        {
          "indexed": true,
          "internalType": "address",
          "name": "claimProccessor",
          "type": "address"
        }
      ],
      "name": "LogSetClaimProccessor",
      "type": "event"
    },
    {
      "anonymous": false,
      "inputs": [
        {
          "indexed": true,
          "internalType": "address",
          "name": "payout",
          "type": "address"
        },
        {
          "indexed": true,
          "internalType": "address",
          "name": "capitalAgent",
          "type": "address"
        }
      ],
      "name": "LogSetClaimsDao",
      "type": "event"
    },
    {
      "anonymous": false,
      "inputs": [
        {
          "indexed": true,
          "internalType": "address",
          "name": "payout",
          "type": "address"
        },
        {
          "indexed": true,
          "internalType": "address",
          "name": "escalatingManager",
          "type": "address"
        }
      ],
      "name": "LogSetEscalationManager",
      "type": "event"
    },
    {
      "anonymous": false,
      "inputs": [
        {
          "indexed": true,
          "internalType": "address",
          "name": "payout",
          "type": "address"
        },
        {
          "indexed": true,
          "internalType": "address",
          "name": "guardianCouncil",
          "type": "address"
        }
      ],
      "name": "LogSetGuardianCouncil",
      "type": "event"
    },
    {
      "anonymous": false,
      "inputs": [
        {
          "indexed": true,
          "internalType": "address",
          "name": "payout",
          "type": "address"
        },
        {
          "indexed": false,
          "internalType": "uint256",
          "name": "newLockTime",
          "type": "uint256"
        }
      ],
      "name": "LogSetLockTime",
      "type": "event"
    },
    {
      "anonymous": false,
      "inputs": [
        {
          "indexed": false,
          "internalType": "address",
          "name": "account",
          "type": "address"
        }
      ],
      "name": "Paused",
      "type": "event"
    },
    {
      "anonymous": false,
      "inputs": [
        {
          "indexed": true,
          "internalType": "address",
          "name": "owner",
          "type": "address"
        },
        {
          "indexed": false,
          "internalType": "bool",
          "name": "fail",
          "type": "bool"
        }
      ],
      "name": "PoolFailed",
      "type": "event"
    },
    {
      "anonymous": false,
      "inputs": [
        {
          "indexed": true,
          "internalType": "bytes32",
          "name": "assertionId",
          "type": "bytes32"
        },
        {
          "indexed": true,
          "internalType": "uint256",
          "name": "policyId",
          "type": "uint256"
        },
        {
          "indexed": false,
          "internalType": "uint256",
          "name": "insuranceAmount",
          "type": "uint256"
        }
      ],
      "name": "SettledUMAFailedAssertion",
      "type": "event"
    },
    {
      "anonymous": false,
      "inputs": [
        {
          "indexed": false,
          "internalType": "address",
          "name": "account",
          "type": "address"
        }
      ],
      "name": "Unpaused",
      "type": "event"
    },
    {
      "inputs": [
        {
          "internalType": "bytes32",
          "name": "",
          "type": "bytes32"
        }
      ],
      "name": "assertedPolicies",
      "outputs": [
        {
          "internalType": "uint256",
          "name": "insuranceAmount",
          "type": "uint256"
        },
        {
          "internalType": "uint256",
          "name": "policyId",
          "type": "uint256"
        },
        {
          "internalType": "address",
          "name": "payoutAddress",
          "type": "address"
        },
        {
          "internalType": "bool",
          "name": "settled",
          "type": "bool"
        }
      ],
      "stateMutability": "view",
      "type": "function"
    },
    {
      "inputs": [
        {
          "internalType": "bytes32",
          "name": "assertionId",
          "type": "bytes32"
        }
      ],
      "name": "assertionDisputedCallback",
      "outputs": [],
      "stateMutability": "nonpayable",
      "type": "function"
    },
    {
      "inputs": [
        {
          "internalType": "bytes32",
          "name": "_assertionId",
          "type": "bytes32"
        },
        {
          "internalType": "bool",
          "name": "_assertedTruthfully",
          "type": "bool"
        }
      ],
      "name": "assertionResolvedCallback",
      "outputs": [],
      "stateMutability": "nonpayable",
      "type": "function"
    },
    {
      "inputs": [],
      "name": "assertionliveTime",
      "outputs": [
        {
          "internalType": "uint256",
          "name": "",
          "type": "uint256"
        }
      ],
      "stateMutability": "view",
      "type": "function"
    },
    {
      "inputs": [],
      "name": "capitalAgent",
      "outputs": [
        {
          "internalType": "contract ICapitalAgent",
          "name": "",
          "type": "address"
        }
      ],
      "stateMutability": "view",
      "type": "function"
    },
    {
      "inputs": [],
      "name": "claimsDao",
      "outputs": [
        {
          "internalType": "address",
          "name": "",
          "type": "address"
        }
      ],
      "stateMutability": "view",
      "type": "function"
    },
    {
      "inputs": [],
      "name": "defaultCurrency",
      "outputs": [
        {
          "internalType": "contract IERC20",
          "name": "",
          "type": "address"
        }
      ],
      "stateMutability": "view",
      "type": "function"
    },
    {
      "inputs": [],
      "name": "defaultIdentifier",
      "outputs": [
        {
          "internalType": "bytes32",
          "name": "",
          "type": "bytes32"
        }
      ],
      "stateMutability": "view",
      "type": "function"
    },
    {
      "inputs": [],
      "name": "escalationManager",
      "outputs": [
        {
          "internalType": "address",
          "name": "",
          "type": "address"
        }
      ],
      "stateMutability": "view",
      "type": "function"
    },
    {
      "inputs": [
        {
          "internalType": "uint256",
          "name": "_policyId",
          "type": "uint256"
        },
        {
          "internalType": "uint256",
          "name": "_amount",
          "type": "uint256"
        },
        {
          "internalType": "address",
          "name": "_to",
          "type": "address"
        },
        {
          "internalType": "bytes32",
          "name": "_hyperlaneMessage",
          "type": "bytes32"
        }
      ],
      "name": "initRequest",
      "outputs": [
        {
          "internalType": "bytes32",
          "name": "assertionId",
          "type": "bytes32"
        }
      ],
      "stateMutability": "nonpayable",
      "type": "function"
    },
    {
      "inputs": [
        {
          "internalType": "contract ISingleSidedInsurancePool",
          "name": "_ssip",
          "type": "address"
        },
        {
          "internalType": "contract OptimisticOracleV3Interface",
          "name": "_optimisticOracleV3",
          "type": "address"
        },
        {
          "internalType": "contract IERC20",
          "name": "_defaultCurrency",
          "type": "address"
        },
        {
          "internalType": "address",
          "name": "_escalationManager",
          "type": "address"
        },
        {
          "internalType": "address",
          "name": "__guardianCouncil",
          "type": "address"
        },
        {
          "internalType": "address",
          "name": "_claimsDao",
          "type": "address"
        }
      ],
      "name": "initialize",
      "outputs": [],
      "stateMutability": "nonpayable",
      "type": "function"
    },
    {
      "inputs": [],
      "name": "ipfsUrl",
      "outputs": [
        {
          "internalType": "bytes32",
          "name": "",
          "type": "bytes32"
        }
      ],
      "stateMutability": "view",
      "type": "function"
    },
    {
      "inputs": [],
      "name": "isUMAFailed",
      "outputs": [
        {
          "internalType": "bool",
          "name": "",
          "type": "bool"
        }
      ],
      "stateMutability": "view",
      "type": "function"
    },
    {
      "inputs": [],
      "name": "lockTime",
      "outputs": [
        {
          "internalType": "uint256",
          "name": "",
          "type": "uint256"
        }
      ],
      "stateMutability": "view",
      "type": "function"
    },
    {
      "inputs": [],
      "name": "optimisticOracle",
      "outputs": [
        {
          "internalType": "contract OptimisticOracleV3Interface",
          "name": "",
          "type": "address"
        }
      ],
      "stateMutability": "view",
      "type": "function"
    },
    {
      "inputs": [],
      "name": "paused",
      "outputs": [
        {
          "internalType": "bool",
          "name": "",
          "type": "bool"
        }
      ],
      "stateMutability": "view",
      "type": "function"
    },
    {
      "inputs": [
        {
          "internalType": "address",
          "name": "",
          "type": "address"
        }
      ],
      "name": "roleLockTime",
      "outputs": [
        {
          "internalType": "uint256",
          "name": "",
          "type": "uint256"
        }
      ],
      "stateMutability": "view",
      "type": "function"
    },
    {
      "inputs": [
        {
          "internalType": "uint256",
          "name": "_assertionliveTime",
          "type": "uint256"
        }
      ],
      "name": "setAliveness",
      "outputs": [],
      "stateMutability": "nonpayable",
      "type": "function"
    },
    {
      "inputs": [
        {
          "internalType": "contract ICapitalAgent",
          "name": "_capitalAgent",
          "type": "address"
        }
      ],
      "name": "setCapitalAgent",
      "outputs": [],
      "stateMutability": "nonpayable",
      "type": "function"
    },
    {
      "inputs": [
        {
          "internalType": "address",
          "name": "_claimsDao",
          "type": "address"
        }
      ],
      "name": "setClaimsDao",
      "outputs": [],
      "stateMutability": "nonpayable",
      "type": "function"
    },
    {
      "inputs": [
        {
          "internalType": "address",
          "name": "_defaultCurrency",
          "type": "address"
        }
      ],
      "name": "setDefaultCurrency",
      "outputs": [],
      "stateMutability": "nonpayable",
      "type": "function"
    },
    {
      "inputs": [
        {
          "internalType": "bytes32",
          "name": "_defaultIdentifier",
          "type": "bytes32"
        }
      ],
      "name": "setDefaultIdentifier",
      "outputs": [],
      "stateMutability": "nonpayable",
      "type": "function"
    },
    {
      "inputs": [
        {
          "internalType": "address",
          "name": "_escalatingManager",
          "type": "address"
        }
      ],
      "name": "setEscalatingManager",
      "outputs": [],
      "stateMutability": "nonpayable",
      "type": "function"
    },
    {
      "inputs": [
        {
          "internalType": "bool",
          "name": "_failed",
          "type": "bool"
        }
      ],
      "name": "setFailed",
      "outputs": [],
      "stateMutability": "nonpayable",
      "type": "function"
    },
    {
      "inputs": [
        {
          "internalType": "address",
          "name": "guardianCouncil",
          "type": "address"
        }
      ],
      "name": "setGuardianCouncil",
      "outputs": [],
      "stateMutability": "nonpayable",
      "type": "function"
    },
    {
      "inputs": [
        {
          "internalType": "bytes32",
          "name": "_ipfsLink",
          "type": "bytes32"
        }
      ],
      "name": "setIpfsUrl",
      "outputs": [],
      "stateMutability": "nonpayable",
      "type": "function"
    },
    {
      "inputs": [
        {
          "internalType": "uint256",
          "name": "_lockTime",
          "type": "uint256"
        }
      ],
      "name": "setLockTime",
      "outputs": [],
      "stateMutability": "nonpayable",
      "type": "function"
    },
    {
      "inputs": [
        {
          "internalType": "bytes32",
          "name": "_assertionId",
          "type": "bytes32"
        }
      ],
      "name": "settleAssertionForUmaFailed",
      "outputs": [],
      "stateMutability": "nonpayable",
      "type": "function"
    },
    {
      "inputs": [],
      "name": "ssip",
      "outputs": [
        {
          "internalType": "contract ISingleSidedInsurancePool",
          "name": "",
          "type": "address"
        }
      ],
      "stateMutability": "view",
      "type": "function"
    },
    {
      "inputs": [],
      "name": "togglePause",
      "outputs": [],
      "stateMutability": "nonpayable",
      "type": "function"
    }
  ],
  "transactionHash": "0x27125c28e12f85691256d34c43e24be48dadf70cb519271e74f1075be092b35e",
  "args": [],
  "numDeployments": 1,
  "solcInputHash": "f640b8494781bf0375ed0351e653c49a",
  "bytecode": "0x608060405234801561001057600080fd5b50612497806100206000396000f3fe608060405234801561001057600080fd5b50600436106101da5760003560e01c80639300b5c211610104578063cc2a9a5b116100a2578063f0bb285b11610071578063f0bb285b146103e1578063f1b156b2146103f4578063f320b51f14610407578063f53713d51461047c57600080fd5b8063cc2a9a5b146103a1578063d448a4ec146103b4578063d509b017146103c5578063da9ec140146103ce57600080fd5b8063c2eb8eb9116100de578063c2eb8eb914610360578063c4ae316814610373578063c5b029891461037b578063cc035ff31461038e57600080fd5b80639300b5c214610327578063a7e924911461033a578063ae04d45d1461034d57600080fd5b8063421981601161017c57806363f2bee51161014b57806363f2bee5146102e557806366b24764146102f857806384295aa51461030b578063920389131461031457600080fd5b806342198160146102875780634250d9e61461029a5780635217f9db146102ad5780635c975abb146102cd57600080fd5b806316908fed116101b857806316908fed1461022d57806320402e1d146102365780632230292214610261578063406cca231461027457600080fd5b8063026dca35146101df5780630d668087146102015780630f14c8cf14610218575b600080fd5b600a546101ec9060ff1681565b60405190151581526020015b60405180910390f35b61020a600b5481565b6040519081526020016101f8565b61022b610226366004611ddf565b61048f565b005b61020a60065481565b600454610249906001600160a01b031681565b6040516001600160a01b0390911681526020016101f8565b600154610249906001600160a01b031681565b61022b610282366004611e11565b6104ec565b600354610249906001600160a01b031681565b61022b6102a8366004611e2e565b610576565b61020a6102bb366004611ddf565b600c6020526000908152604090205481565b6000805160206124428339815191525460ff166101ec565b600854610249906001600160a01b031681565b61022b610306366004611e2e565b6105b3565b61020a600e5481565b61022b610322366004611ddf565b61073e565b61022b610335366004611e2e565b6107c1565b61022b610348366004611ddf565b6107fe565b61022b61035b366004611e2e565b61089e565b61022b61036e366004611ddf565b61090c565b61022b61098f565b600754610249906001600160a01b031681565b61020a61039c366004611e47565b6109ef565b61022b6103af366004611e86565b610fdd565b61022b6103c2366004611e2e565b50565b61020a60055481565b61022b6103dc366004611ddf565b61115f565b600254610249906001600160a01b031681565b61022b610402366004611f08565b6111fd565b61044b610415366004611e2e565b6009602052600090815260409020805460018201546002909201549091906001600160a01b03811690600160a01b900460ff1684565b6040516101f8949392919093845260208401929092526001600160a01b031660408301521515606082015260800190565b61022b61048a366004611e2e565b611388565b610497611450565b600480546001600160a01b0319166001600160a01b0383169081179091556040519081527f2b6b32b41dd4783bd882e264e7213ce633bc5d4146bccdd64fe0ccb70fac84fa906020015b60405180910390a150565b6104f4611450565b336000908152600c602052604090205442101561052c5760405162461bcd60e51b815260040161052390611f38565b60405180910390fd5b600a805460ff191682151590811790915560405190815233907fe86205fd4b28bc975ade25d5bbd8096df537071d8536eb2fa726496c1e561d22906020015b60405180910390a250565b61057e611450565b600e8190556040518181527fcb356e7e9960496b4e3d9a925d5ae8c57ed79af99bb9981abf0d2a73fbfcaea0906020016104e1565b6008546001600160a01b031633146105dd5760405162461bcd60e51b815260040161052390611f7a565b6000818152600d602052604090205460ff166106465760405162461bcd60e51b815260206004820152602260248201527f525061796f75743a204964206e6f7420617070726f76656420746f207365746c6044820152616c6560f01b6064820152608401610523565b6000818152600960209081526040918290208251608081018452815480825260018301549382018490526002928301546001600160a01b03808216848801819052600160a01b90920460ff161515606085015293549551637f1873f360e11b815260048101959095526024850152604484015292169063fe30e7e690606401600060405180830381600087803b1580156106df57600080fd5b505af11580156106f3573d6000803e3d6000fd5b505050508060200151827f506d3408bb454df4283a038ada7df4a5e69f90f11ffd92ea0058b14a175219b1836000015160405161073291815260200190565b60405180910390a35050565b610746611450565b336000908152600c60205260409020544210156107755760405162461bcd60e51b815260040161052390611f38565b600780546001600160a01b0319166001600160a01b03831690811790915560405130907f45f734c792ccab188daebff0355896691246940a4daa87e512511b916ac7b16190600090a350565b6107c9611450565b60058190556040518181527f62dd35e84411e9f3dc83a46d623c999b7456c0e93b150c6e16ce6c3138df0d40906020016104e1565b610806611450565b336000908152600c60205260409020544210156108355760405162461bcd60e51b815260040161052390611f38565b600b546108429042611fd5565b6001600160a01b0382166000818152600c602052604080822093909355600880546001600160a01b031916831790559151909130917f7acaba86ee9cca70b2757e3a406f8f9cdcfc382daf69ba991f2b967d9cd8a5e19190a350565b6108a6611450565b336000908152600c60205260409020544210156108d55760405162461bcd60e51b815260040161052390611f38565b600b81905560405181815230907f2c2c43c64e937ae35257af782c222986dc5adb4f56dc0881594e79bf83658d8c9060200161056b565b610914611450565b336000908152600c60205260409020544210156109435760405162461bcd60e51b815260040161052390611f38565b600380546001600160a01b0319166001600160a01b03831690811790915560405130907fdf8e7a62b39a2ec070924d5c5dce9a1957d75476af59af5a7e7ce2ee48bc777490600090a350565b610997611450565b336000908152600c60205260409020544210156109c65760405162461bcd60e51b815260040161052390611f38565b6000805160206124428339815191525460ff166109e7576109e56114a2565b565b6109e56114ff565b60006109f9611545565b60035460408051631ff67df960e11b815290516000926001600160a01b031691633fecfbf2916004808301926060929190829003018187875af1158015610a44573d6000803e3d6000fd5b505050506040513d601f19601f82011682018060405250810190610a689190611fee565b505060035460405163be22041b60e01b8152600481018990529192506001600160a01b03169063be22041b90602401600060405180830381600087803b158015610ab157600080fd5b505af1158015610ac5573d6000803e3d6000fd5b50505050610ad4818787611576565b600a5460ff16610f0d576040516331a9108f60e11b81526004810187905233906001600160a01b03831690636352211e90602401602060405180830381865afa158015610b25573d6000803e3d6000fd5b505050506040513d601f19601f82011682018060405250810190610b499190612031565b6001600160a01b031614610b9f5760405162461bcd60e51b815260206004820152601d60248201527f556e6f52653a206e6f74206f776e6572206f6620706f6c6963792069640000006044820152606401610523565b60015460048054604051634360af3d60e01b81526001600160a01b03918216928101929092526000921690634360af3d90602401602060405180830381865afa158015610bf0573d6000803e3d6000fd5b505050506040513d601f19601f82011682018060405250810190610c14919061204e565b600454909150610c2f906001600160a01b031633308461190d565b6004805460015460405163095ea7b360e01b81526001600160a01b039182169381019390935260248301849052169063095ea7b3906044016020604051808303816000875af1158015610c86573d6000803e3d6000fd5b505050506040513d601f19601f82011682018060405250810190610caa9190612067565b506001546001600160a01b0316636457c979610cc586611a4b565b610cce8a611a8c565b610cd789611baf565b610ce08b611a8c565b610ceb600e54611a4b565b610cf442611a8c565b610cfd30611baf565b604051602001610d1397969594939291906120c4565b60408051601f1981840301815290829052600754600654600480546005546001600160e01b031960e089901b168752610d69968e9530956001600160a01b03918216959094909116928c9290916000910161223b565b6020604051808303816000875af1158015610d88573d6000803e3d6000fd5b505050506040513d601f19601f82011682018060405250810190610dac919061204e565b925060006009600085815260200190815260200160002060405180608001604052908160008201548152602001600182015481526020016002820160009054906101000a90046001600160a01b03166001600160a01b03166001600160a01b031681526020016002820160149054906101000a900460ff1615151515815250509050868160000181815250508581604001906001600160a01b031690816001600160a01b031681525050878160200181815250508060096000868152602001908152602001600020600082015181600001556020820151816001015560408201518160020160006101000a8154816001600160a01b0302191690836001600160a01b0316021790555060608201518160020160146101000a81548160ff02191690831515021790555090505083887f1a1feb7e2311cdd8c08d411741ddc6a84f54391c1927082e6e1c870fe136d13060405160405180910390a35050610fd4565b336000908152600c6020526040902054421015610f3c5760405162461bcd60e51b815260040161052390611f38565b6008546001600160a01b03163314610f665760405162461bcd60e51b815260040161052390611f7a565b600254604051637f1873f360e11b8152600481018890526001600160a01b038681166024830152604482018890529091169063fe30e7e690606401600060405180830381600087803b158015610fbb57600080fd5b505af1158015610fcf573d6000803e3d6000fd5b505050505b50949350505050565b7ff0c57e16840df040f15088dc2f81fe391c3923bec73e23a9662efc9c229c6a008054600160401b810460ff16159067ffffffffffffffff166000811580156110235750825b905060008267ffffffffffffffff1660011480156110405750303b155b90508115801561104e575080155b1561106c5760405163f92ee8a960e01b815260040160405180910390fd5b845467ffffffffffffffff19166001178555831561109657845460ff60401b1916600160401b1785555b600280546001600160a01b03199081166001600160a01b038e8116919091179092556001805482168d84161781556004805483168d85161790556007805483168c85161790556008805483168a851617905560008054909216928a16929092179055620d2f00600655600a805460ff19169091179055831561115257845460ff60401b19168555604051600181527fc7f505b2f371ae2175ee4913f4499e1f2633a7b5936321eed1cdaeb6115181d29060200160405180910390a15b5050505050505050505050565b611167611450565b336000908152600c60205260409020544210156111965760405162461bcd60e51b815260040161052390611f38565b600b546111a39042611fd5565b6001600160a01b0382166000818152600c60205260408082209390935580546001600160a01b031916821781559151909130917f1645a5093ae367f0673d83e719ce396b2b7340376b5eced61fc78e19a82a23a09190a350565b6001546001600160a01b031633146112575760405162461bcd60e51b815260206004820152601b60248201527f525061796f75743a20216f7074696d6973746963206f7261636c6500000000006044820152606401610523565b600082815260096020908152604091829020825160808101845281548152600182015492810192909252600201546001600160a01b03811692820192909252600160a01b90910460ff16151560608201528115611383578060600151156112bd57505050565b600a5460ff16156112e55750506000908152600d60205260409020805460ff19166001179055565b6000838152600960209081526040918290206002908101805460ff60a01b1916600160a01b17905554908301518383015184519351637f1873f360e11b815260048101929092526001600160a01b039081166024830152604482019390935291169063fe30e7e690606401600060405180830381600087803b15801561136a57600080fd5b505af115801561137e573d6000803e3d6000fd5b505050505b505050565b611390611450565b336000908152600c60205260409020544210156113bf5760405162461bcd60e51b815260040161052390611f38565b600081116114195760405162461bcd60e51b815260206004820152602160248201527f525061796f75743a207a65726f20617373657274696f6e206c6976652074696d6044820152606560f81b6064820152608401610523565b600681905560405181815230907f6d61c2e16ec51869e6d13ed016bb63815ca584310be5413d6c9e1926bffe76b79060200161056b565b6000546001600160a01b031633146109e55760405162461bcd60e51b81526020600482015260156024820152741494185e5bdd5d0e881d5b985d5d1a1bdc9a5cd959605a1b6044820152606401610523565b6114aa611545565b600080516020612442833981519152805460ff191660011781557f62e78cea01bee320cd4e420270b5ea74000d11b0c9f74754ebdbfc544b05a258335b6040516001600160a01b0390911681526020016104e1565b611507611c06565b600080516020612442833981519152805460ff191681557f5db9ee0a495bf2e6ff9c91a7834c1ba4fdd244a5e8aa4e537bd38aeae4b073aa336114e7565b6000805160206124428339815191525460ff16156109e55760405163d93c066560e01b815260040160405180910390fd5b60035460405163156d2c6960e21b81526001600160a01b0385811660048301526024820185905260009216906355b4b1a4906044016020604051808303816000875af11580156115ca573d6000803e3d6000fd5b505050506040513d601f19601f820116820180604052508101906115ee919061204e565b90506000806000866001600160a01b0316637a5402e9876040518263ffffffff1660e01b815260040161162391815260200190565b60a060405180830381865afa158015611640573d6000803e3d6000fd5b505050506040513d601f19601f8201168201806040525081019061166491906122c3565b94509450505092506000600360009054906101000a90046001600160a01b03166001600160a01b031663d9203b916040518163ffffffff1660e01b8152600401602060405180830381865afa1580156116c1573d6000803e3d6000fd5b505050506040513d601f19601f820116820180604052508101906116e59190612031565b60035460025460405162d7f52760e31b81526001600160a01b0391821660048201529293506000929116906306bfa93890602401608060405180830381865afa158015611736573d6000803e3d6000fd5b505050506040513d601f19601f8201168201806040525081019061175a919061231a565b50925050506000826001600160a01b03166311eac8556040518163ffffffff1660e01b8152600401602060405180830381865afa15801561179f573d6000803e3d6000fd5b505050506040513d601f19601f820116820180604052508101906117c39190612031565b604051631a44cdf360e11b81526001600160a01b0384811660048301528083166024830152604482018b90529192506000918516906334899be690606401602060405180830381865afa15801561181e573d6000803e3d6000fd5b505050506040513d601f19601f82011682018060405250810190611842919061204e565b90508661184f8983611fd5565b11156118ab5760405162461bcd60e51b815260206004820152602560248201527f556e6f52653a20616d6f756e74206578636565647320636f76657261676520616044820152641b5bdd5b9d60da1b6064820152608401610523565b8580156118b6575084155b6111525760405162461bcd60e51b815260206004820152602260248201527f556e6f52653a20706f6c6963792065787069726564206f72206e6f74206578696044820152611cdd60f21b6064820152608401610523565b604080516001600160a01b0385811660248301528481166044830152606480830185905283518084039091018152608490920183526020820180516001600160e01b03166323b872dd60e01b17905291516000928392908816916119719190612365565b6000604051808303816000865af19150503d80600081146119ae576040519150601f19603f3d011682016040523d82523d6000602084013e6119b3565b606091505b50915091508180156119dd5750805115806119dd5750808060200190518101906119dd9190612067565b611a435760405162461bcd60e51b815260206004820152603160248201527f5472616e7366657248656c7065723a3a7472616e7366657246726f6d3a207472604482015270185b9cd9995c919c9bdb4819985a5b1959607a1b6064820152608401610523565b505050505050565b6060611a5a608083901c611c36565b611a6383611c36565b6040805160208101939093528201526060015b6040516020818303038152906040529050919050565b606081600003611ab35750506040805180820190915260018152600360fc1b602082015290565b8160005b8115611add5780611ac781612381565b9150611ad69050600a836123b0565b9150611ab7565b60008167ffffffffffffffff811115611af857611af86123d2565b6040519080825280601f01601f191660200182016040528015611b22576020820181803683370190505b509050815b8515610fd457611b386001826123e8565b90506000611b47600a886123b0565b611b5290600a6123fb565b611b5c90886123e8565b611b67906030612412565b905060008160f81b905080848481518110611b8457611b8461242b565b60200101906001600160f81b031916908160001a905350611ba6600a896123b0565b97505050611b27565b6060611bc76001600160801b03602084901c16611c36565b611be28360601b6bffffffffffffffffffffffff1916611c36565b604051602001611a769291909182526001600160c01b031916602082015260280190565b6000805160206124428339815191525460ff166109e557604051638dfc202b60e01b815260040160405180910390fd5b6000808260001c9050806001600160801b0316905080600160401b02811777ffffffffffffffff0000000000000000ffffffffffffffff169050806401000000000281177bffffffff00000000ffffffff00000000ffffffff00000000ffffffff16905080620100000281177dffff0000ffff0000ffff0000ffff0000ffff0000ffff0000ffff0000ffff169050806101000281177eff00ff00ff00ff00ff00ff00ff00ff00ff00ff00ff00ff00ff00ff00ff00ff1690508060100281177f0f0f0f0f0f0f0f0f0f0f0f0f0f0f0f0f0f0f0f0f0f0f0f0f0f0f0f0f0f0f0f0f16905060006008827f08080808080808080808080808080808080808080808080808080808080808081681611d4c57611d4c61239a565b0460047f040404040404040404040404040404040404040404040404040404040404040484160460027f020202020202020202020202020202020202020202020202020202020202020285160417166027029091017f3030303030303030303030303030303030303030303030303030303030303030019392505050565b6001600160a01b03811681146103c257600080fd5b600060208284031215611df157600080fd5b8135611dfc81611dca565b9392505050565b80151581146103c257600080fd5b600060208284031215611e2357600080fd5b8135611dfc81611e03565b600060208284031215611e4057600080fd5b5035919050565b60008060008060808587031215611e5d57600080fd5b84359350602085013592506040850135611e7681611dca565b9396929550929360600135925050565b60008060008060008060c08789031215611e9f57600080fd5b8635611eaa81611dca565b95506020870135611eba81611dca565b94506040870135611eca81611dca565b93506060870135611eda81611dca565b92506080870135611eea81611dca565b915060a0870135611efa81611dca565b809150509295509295509295565b60008060408385031215611f1b57600080fd5b823591506020830135611f2d81611e03565b809150509250929050565b60208082526022908201527f525061796f75743a20726f6c65206c6f636b2074696d65206e6f742070617373604082015261195960f21b606082015260800190565b60208082526025908201527f525061796f75743a2063616e206f6e6c792063616c6c656420627920636c61696040820152646d7344616f60d81b606082015260800190565b634e487b7160e01b600052601160045260246000fd5b80820180821115611fe857611fe8611fbf565b92915050565b60008060006060848603121561200357600080fd5b835161200e81611dca565b60208501516040860151919450925061202681611e03565b809150509250925092565b60006020828403121561204357600080fd5b8151611dfc81611dca565b60006020828403121561206057600080fd5b5051919050565b60006020828403121561207957600080fd5b8151611dfc81611e03565b60005b8381101561209f578181015183820152602001612087565b50506000910152565b600081516120ba818560208601612084565b9290920192915050565b730a4cae2eacae6e840c2e6e6cae4e8cac8744060f60631b8152600088516120f3816014850160208d01612084565b6e0103337b9103837b634b1bca4b21d1608d1b6014918401918201528851612122816023840160208d01612084565b6d05840c2e6e6cae4e8cae4744060f60931b602392909101918201528751612151816031840160208c01612084565b6c01030b7321030b6b7bab73a1d1609d1b60319290910191820152865161217f81603e840160208b01612084565b73040eed2e8d040c2e6e6cae6e6dacadce8744060f60631b603e929091019182015261222d6122176122116121de6121d86121bd605287018c6120a8565b6e01030ba103a34b6b2b9ba30b6b81d1608d1b8152600f0190565b896120a8565b7f20616e642052657175657374417373657274657220636f6e74726163743a20308152600f60fb1b602082015260210190565b866120a8565b691034b9903b30b634b21760b11b8152600a0190565b9a9950505050505050505050565b610120815260008a518061012084015261225d81610140850160208f01612084565b6001600160a01b039a8b166020840152988a16604083015250958816606087015267ffffffffffffffff9490941660808601529190951660a084015260c083019490945260e0820193909352610100810192909252601f01601f19160161014001919050565b600080600080600060a086880312156122db57600080fd5b85519450602086015193506040860151925060608601516122fb81611e03565b608087015190925061230c81611e03565b809150509295509295909350565b6000806000806080858703121561233057600080fd5b8451935060208501519250604085015161234981611dca565b606086015190925061235a81611e03565b939692955090935050565b60008251612377818460208701612084565b9190910192915050565b60006001820161239357612393611fbf565b5060010190565b634e487b7160e01b600052601260045260246000fd5b6000826123cd57634e487b7160e01b600052601260045260246000fd5b500490565b634e487b7160e01b600052604160045260246000fd5b81810381811115611fe857611fe8611fbf565b8082028115828204841417611fe857611fe8611fbf565b60ff8181168382160190811115611fe857611fe8611fbf565b634e487b7160e01b600052603260045260246000fdfecd5ed15c6e187e77e9aee88184c21f4f2182ab5827cb3b7e07fbedcd63f03300a264697066735822122098dbd63514a9af9f5aef1b55639847cf8c6f9403005c5417f1b6f85aa8c641a864736f6c63430008170033",
  "devdoc": {
    "errors": {
      "EnforcedPause()": [
        {
          "details": "The operation failed because the contract is paused."
        }
      ],
      "ExpectedPause()": [
        {
          "details": "The operation failed because the contract is not paused."
        }
      ],
      "InvalidInitialization()": [
        {
          "details": "The contract is already initialized."
        }
      ],
      "NotInitializing()": [
        {
          "details": "The contract is not initializing."
        }
      ]
    },
    "events": {
      "Initialized(uint64)": {
        "details": "Triggered when the contract has been initialized or reinitialized."
      },
      "Paused(address)": {
        "details": "Emitted when the pause is triggered by `account`."
      },
      "Unpaused(address)": {
        "details": "Emitted when the pause is lifted by `account`."
      }
    },
    "kind": "dev",
    "methods": {
      "initRequest(uint256,uint256,address,bytes32)": {
        "params": {
          "_hyperlaneMessage": "Starting string texts for claim data prefix, eg. \"Request for claim is for\""
        }
      },
      "paused()": {
        "details": "Returns true if the contract is paused, and false otherwise."
      }
    },
    "version": 1
  },
  "userdoc": {
    "kind": "user",
    "methods": {},
    "version": 1
  },
  "storageLayout": {
    "storage": [
      {
        "astId": 30259,
        "contract": "contracts/uma/PayoutRequest.sol:PayoutRequest",
        "label": "_guardianCouncil",
        "offset": 0,
        "slot": "0",
        "type": "t_address"
      },
      {
        "astId": 30262,
        "contract": "contracts/uma/PayoutRequest.sol:PayoutRequest",
        "label": "optimisticOracle",
        "offset": 0,
        "slot": "1",
        "type": "t_contract(OptimisticOracleV3Interface)28673"
      },
      {
        "astId": 30265,
        "contract": "contracts/uma/PayoutRequest.sol:PayoutRequest",
        "label": "ssip",
        "offset": 0,
        "slot": "2",
        "type": "t_contract(ISingleSidedInsurancePool)27853"
      },
      {
        "astId": 30268,
        "contract": "contracts/uma/PayoutRequest.sol:PayoutRequest",
        "label": "capitalAgent",
        "offset": 0,
        "slot": "3",
        "type": "t_contract(ICapitalAgent)27091"
      },
      {
        "astId": 30271,
        "contract": "contracts/uma/PayoutRequest.sol:PayoutRequest",
        "label": "defaultCurrency",
        "offset": 0,
        "slot": "4",
        "type": "t_contract(IERC20)2350"
      },
      {
        "astId": 30273,
        "contract": "contracts/uma/PayoutRequest.sol:PayoutRequest",
        "label": "defaultIdentifier",
        "offset": 0,
        "slot": "5",
        "type": "t_bytes32"
      },
      {
        "astId": 30275,
        "contract": "contracts/uma/PayoutRequest.sol:PayoutRequest",
        "label": "assertionliveTime",
        "offset": 0,
        "slot": "6",
        "type": "t_uint256"
      },
      {
        "astId": 30277,
        "contract": "contracts/uma/PayoutRequest.sol:PayoutRequest",
        "label": "escalationManager",
        "offset": 0,
        "slot": "7",
        "type": "t_address"
      },
      {
        "astId": 30279,
        "contract": "contracts/uma/PayoutRequest.sol:PayoutRequest",
        "label": "claimsDao",
        "offset": 0,
        "slot": "8",
        "type": "t_address"
      },
      {
        "astId": 30284,
        "contract": "contracts/uma/PayoutRequest.sol:PayoutRequest",
        "label": "assertedPolicies",
        "offset": 0,
        "slot": "9",
        "type": "t_mapping(t_bytes32,t_struct(Policy)30257_storage)"
      },
      {
        "astId": 30286,
        "contract": "contracts/uma/PayoutRequest.sol:PayoutRequest",
        "label": "isUMAFailed",
        "offset": 0,
        "slot": "10",
        "type": "t_bool"
      },
      {
        "astId": 30288,
        "contract": "contracts/uma/PayoutRequest.sol:PayoutRequest",
        "label": "lockTime",
        "offset": 0,
        "slot": "11",
        "type": "t_uint256"
      },
      {
        "astId": 30292,
        "contract": "contracts/uma/PayoutRequest.sol:PayoutRequest",
        "label": "roleLockTime",
        "offset": 0,
        "slot": "12",
        "type": "t_mapping(t_address,t_uint256)"
      },
      {
        "astId": 30296,
        "contract": "contracts/uma/PayoutRequest.sol:PayoutRequest",
        "label": "settleAssertionUmaFailed",
        "offset": 0,
        "slot": "13",
        "type": "t_mapping(t_bytes32,t_bool)"
      },
      {
        "astId": 30298,
        "contract": "contracts/uma/PayoutRequest.sol:PayoutRequest",
        "label": "ipfsUrl",
        "offset": 0,
        "slot": "14",
        "type": "t_bytes32"
      }
    ],
    "types": {
      "t_address": {
        "encoding": "inplace",
        "label": "address",
        "numberOfBytes": "20"
      },
      "t_bool": {
        "encoding": "inplace",
        "label": "bool",
        "numberOfBytes": "1"
      },
      "t_bytes32": {
        "encoding": "inplace",
        "label": "bytes32",
        "numberOfBytes": "32"
      },
      "t_contract(ICapitalAgent)27091": {
        "encoding": "inplace",
        "label": "contract ICapitalAgent",
        "numberOfBytes": "20"
      },
      "t_contract(IERC20)2350": {
        "encoding": "inplace",
        "label": "contract IERC20",
        "numberOfBytes": "20"
      },
      "t_contract(ISingleSidedInsurancePool)27853": {
        "encoding": "inplace",
        "label": "contract ISingleSidedInsurancePool",
        "numberOfBytes": "20"
      },
      "t_contract(OptimisticOracleV3Interface)28673": {
        "encoding": "inplace",
        "label": "contract OptimisticOracleV3Interface",
        "numberOfBytes": "20"
      },
      "t_mapping(t_address,t_uint256)": {
        "encoding": "mapping",
        "key": "t_address",
        "label": "mapping(address => uint256)",
        "numberOfBytes": "32",
        "value": "t_uint256"
      },
      "t_mapping(t_bytes32,t_bool)": {
        "encoding": "mapping",
        "key": "t_bytes32",
        "label": "mapping(bytes32 => bool)",
        "numberOfBytes": "32",
        "value": "t_bool"
      },
      "t_mapping(t_bytes32,t_struct(Policy)30257_storage)": {
        "encoding": "mapping",
        "key": "t_bytes32",
        "label": "mapping(bytes32 => struct PayoutRequest.Policy)",
        "numberOfBytes": "32",
        "value": "t_struct(Policy)30257_storage"
      },
      "t_struct(Policy)30257_storage": {
        "encoding": "inplace",
        "label": "struct PayoutRequest.Policy",
        "members": [
          {
            "astId": 30250,
            "contract": "contracts/uma/PayoutRequest.sol:PayoutRequest",
            "label": "insuranceAmount",
            "offset": 0,
            "slot": "0",
            "type": "t_uint256"
          },
          {
            "astId": 30252,
            "contract": "contracts/uma/PayoutRequest.sol:PayoutRequest",
            "label": "policyId",
            "offset": 0,
            "slot": "1",
            "type": "t_uint256"
          },
          {
            "astId": 30254,
            "contract": "contracts/uma/PayoutRequest.sol:PayoutRequest",
            "label": "payoutAddress",
            "offset": 0,
            "slot": "2",
            "type": "t_address"
          },
          {
            "astId": 30256,
            "contract": "contracts/uma/PayoutRequest.sol:PayoutRequest",
            "label": "settled",
            "offset": 20,
            "slot": "2",
            "type": "t_bool"
          }
        ],
        "numberOfBytes": "96"
      },
      "t_uint256": {
        "encoding": "inplace",
        "label": "uint256",
        "numberOfBytes": "32"
      }
    }
  }
}