{
  "address": "0x6B456aAe97D912E9fDe5a8d03438eAB71037AE37",
  "abi": [
    {
      "inputs": [
        {
          "internalType": "address",
          "name": "_exchangeAgent",
          "type": "address"
        },
        {
          "internalType": "address",
          "name": "_multiSigWallet",
          "type": "address"
        },
        {
          "internalType": "address",
          "name": "_operator",
          "type": "address"
        }
      ],
      "stateMutability": "nonpayable",
      "type": "constructor"
    },
    {
      "anonymous": false,
      "inputs": [
        {
          "indexed": true,
          "internalType": "address",
          "name": "_ssip",
          "type": "address"
        },
        {
          "indexed": false,
          "internalType": "address",
          "name": "_currency",
          "type": "address"
        },
        {
          "indexed": false,
          "internalType": "uint256",
          "name": "_scr",
          "type": "uint256"
        }
      ],
      "name": "LogAddPool",
      "type": "event"
    },
    {
      "anonymous": false,
      "inputs": [
        {
          "indexed": true,
          "internalType": "address",
          "name": "_pool",
          "type": "address"
        }
      ],
      "name": "LogAddPoolWhiteList",
      "type": "event"
    },
    {
      "anonymous": false,
      "inputs": [
        {
          "indexed": true,
          "internalType": "address",
          "name": "_policy",
          "type": "address"
        },
        {
          "indexed": false,
          "internalType": "uint256",
          "name": "_policyTokenId",
          "type": "uint256"
        }
      ],
      "name": "LogMarkToClaimPolicy",
      "type": "event"
    },
    {
      "anonymous": false,
      "inputs": [
        {
          "indexed": true,
          "internalType": "address",
          "name": "_salesPolicy",
          "type": "address"
        }
      ],
      "name": "LogRemovePolicy",
      "type": "event"
    },
    {
      "anonymous": false,
      "inputs": [
        {
          "indexed": true,
          "internalType": "address",
          "name": "_ssip",
          "type": "address"
        }
      ],
      "name": "LogRemovePool",
      "type": "event"
    },
    {
      "anonymous": false,
      "inputs": [
        {
          "indexed": true,
          "internalType": "address",
          "name": "_pool",
          "type": "address"
        }
      ],
      "name": "LogRemovePoolWhiteList",
      "type": "event"
    },
    {
      "anonymous": false,
      "inputs": [
        {
          "indexed": true,
          "internalType": "address",
          "name": "_owner",
          "type": "address"
        },
        {
          "indexed": true,
          "internalType": "address",
          "name": "_capitalAgent",
          "type": "address"
        },
        {
          "indexed": false,
          "internalType": "address",
          "name": "_exchangeAgent",
          "type": "address"
        }
      ],
      "name": "LogSetExchangeAgent",
      "type": "event"
    },
    {
      "anonymous": false,
      "inputs": [
        {
          "indexed": true,
          "internalType": "address",
          "name": "_owner",
          "type": "address"
        },
        {
          "indexed": true,
          "internalType": "address",
          "name": "_capitalAgent",
          "type": "address"
        },
        {
          "indexed": false,
          "internalType": "uint256",
          "name": "_MCR",
          "type": "uint256"
        }
      ],
      "name": "LogSetMCR",
      "type": "event"
    },
    {
      "anonymous": false,
      "inputs": [
        {
          "indexed": true,
          "internalType": "address",
          "name": "_owner",
          "type": "address"
        },
        {
          "indexed": true,
          "internalType": "address",
          "name": "_capitalAgent",
          "type": "address"
        },
        {
          "indexed": false,
          "internalType": "uint256",
          "name": "_MLR",
          "type": "uint256"
        }
      ],
      "name": "LogSetMLR",
      "type": "event"
    },
    {
      "anonymous": false,
      "inputs": [
        {
          "indexed": true,
          "internalType": "address",
          "name": "_operator",
          "type": "address"
        }
      ],
      "name": "LogSetOperator",
      "type": "event"
    },
    {
      "anonymous": false,
      "inputs": [
        {
          "indexed": true,
          "internalType": "address",
          "name": "_salesPolicy",
          "type": "address"
        }
      ],
      "name": "LogSetPolicy",
      "type": "event"
    },
    {
      "anonymous": false,
      "inputs": [
        {
          "indexed": true,
          "internalType": "address",
          "name": "_owner",
          "type": "address"
        },
        {
          "indexed": true,
          "internalType": "address",
          "name": "_capitalAgent",
          "type": "address"
        },
        {
          "indexed": true,
          "internalType": "address",
          "name": "_pool",
          "type": "address"
        },
        {
          "indexed": false,
          "internalType": "uint256",
          "name": "_SCR",
          "type": "uint256"
        }
      ],
      "name": "LogSetSCR",
      "type": "event"
    },
    {
      "anonymous": false,
      "inputs": [
        {
          "indexed": true,
          "internalType": "address",
          "name": "_factory",
          "type": "address"
        }
      ],
      "name": "LogSetSalesPolicyFactory",
      "type": "event"
    },
    {
      "anonymous": false,
      "inputs": [
        {
          "indexed": true,
          "internalType": "address",
          "name": "_policy",
          "type": "address"
        },
        {
          "indexed": false,
          "internalType": "uint256",
          "name": "_amount",
          "type": "uint256"
        },
        {
          "indexed": false,
          "internalType": "uint256",
          "name": "_policyUtilized",
          "type": "uint256"
        },
        {
          "indexed": false,
          "internalType": "uint256",
          "name": "_totalUtilizedAmount",
          "type": "uint256"
        }
      ],
      "name": "LogUpdatePolicyCoverage",
      "type": "event"
    },
    {
      "anonymous": false,
      "inputs": [
        {
          "indexed": true,
          "internalType": "address",
          "name": "_policy",
          "type": "address"
        },
        {
          "indexed": false,
          "internalType": "uint256",
          "name": "_policyTokenId",
          "type": "uint256"
        }
      ],
      "name": "LogUpdatePolicyExpired",
      "type": "event"
    },
    {
      "anonymous": false,
      "inputs": [
        {
          "indexed": true,
          "internalType": "address",
          "name": "_ssip",
          "type": "address"
        },
        {
          "indexed": false,
          "internalType": "uint256",
          "name": "_poolCapital",
          "type": "uint256"
        },
        {
          "indexed": false,
          "internalType": "uint256",
          "name": "_totalCapital",
          "type": "uint256"
        }
      ],
      "name": "LogUpdatePoolCapital",
      "type": "event"
    },
    {
      "anonymous": false,
      "inputs": [
        {
          "indexed": true,
          "internalType": "address",
          "name": "previousOwner",
          "type": "address"
        },
        {
          "indexed": true,
          "internalType": "address",
          "name": "newOwner",
          "type": "address"
        }
      ],
      "name": "OwnershipTransferred",
      "type": "event"
    },
    {
      "inputs": [],
      "name": "CALC_PRECISION",
      "outputs": [
        {
          "internalType": "uint256",
          "name": "",
          "type": "uint256"
        }
      ],
      "stateMutability": "view",
      "type": "function"
    },
    {
      "inputs": [],
      "name": "MCR",
      "outputs": [
        {
          "internalType": "uint256",
          "name": "",
          "type": "uint256"
        }
      ],
      "stateMutability": "view",
      "type": "function"
    },
    {
      "inputs": [],
      "name": "MLR",
      "outputs": [
        {
          "internalType": "uint256",
          "name": "",
          "type": "uint256"
        }
      ],
      "stateMutability": "view",
      "type": "function"
    },
    {
      "inputs": [
        {
          "internalType": "uint256",
          "name": "_withdrawAmount",
          "type": "uint256"
        },
        {
          "internalType": "uint256",
          "name": "_policyId",
          "type": "uint256"
        },
        {
          "internalType": "bool",
          "name": "_isFinished",
          "type": "bool"
        }
      ],
      "name": "SSIPPolicyCaim",
      "outputs": [],
      "stateMutability": "nonpayable",
      "type": "function"
    },
    {
      "inputs": [
        {
          "internalType": "uint256",
          "name": "_stakingAmount",
          "type": "uint256"
        }
      ],
      "name": "SSIPStaking",
      "outputs": [],
      "stateMutability": "nonpayable",
      "type": "function"
    },
    {
      "inputs": [
        {
          "internalType": "uint256",
          "name": "_withdrawAmount",
          "type": "uint256"
        }
      ],
      "name": "SSIPWithdraw",
      "outputs": [],
      "stateMutability": "nonpayable",
      "type": "function"
    },
    {
      "inputs": [],
      "name": "USDC_TOKEN",
      "outputs": [
        {
          "internalType": "address",
          "name": "",
          "type": "address"
        }
      ],
      "stateMutability": "view",
      "type": "function"
    },
    {
      "inputs": [
        {
          "internalType": "address",
          "name": "_ssip",
          "type": "address"
        },
        {
          "internalType": "address",
          "name": "_currency",
          "type": "address"
        },
        {
          "internalType": "uint256",
          "name": "_scr",
          "type": "uint256"
        }
      ],
      "name": "addPool",
      "outputs": [],
      "stateMutability": "nonpayable",
      "type": "function"
    },
    {
      "inputs": [
        {
          "internalType": "address",
          "name": "_ssip",
          "type": "address"
        },
        {
          "internalType": "address",
          "name": "_currency",
          "type": "address"
        },
        {
          "internalType": "uint256",
          "name": "_scr",
          "type": "uint256"
        }
      ],
      "name": "addPoolByAdmin",
      "outputs": [],
      "stateMutability": "nonpayable",
      "type": "function"
    },
    {
      "inputs": [
        {
          "internalType": "address",
          "name": "_pool",
          "type": "address"
        }
      ],
      "name": "addPoolWhiteList",
      "outputs": [],
      "stateMutability": "nonpayable",
      "type": "function"
    },
    {
      "inputs": [
        {
          "internalType": "address",
          "name": "_pool",
          "type": "address"
        },
        {
          "internalType": "uint256",
          "name": "_withdrawAmount",
          "type": "uint256"
        }
      ],
      "name": "checkCapitalByMCR",
      "outputs": [
        {
          "internalType": "bool",
          "name": "",
          "type": "bool"
        }
      ],
      "stateMutability": "view",
      "type": "function"
    },
    {
      "inputs": [
        {
          "internalType": "uint256",
          "name": "_coverageAmount",
          "type": "uint256"
        }
      ],
      "name": "checkCoverageByMLR",
      "outputs": [
        {
          "internalType": "bool",
          "name": "",
          "type": "bool"
        }
      ],
      "stateMutability": "view",
      "type": "function"
    },
    {
      "inputs": [],
      "name": "exchangeAgent",
      "outputs": [
        {
          "internalType": "address",
          "name": "",
          "type": "address"
        }
      ],
      "stateMutability": "view",
      "type": "function"
    },
    {
      "inputs": [
        {
          "internalType": "uint256",
          "name": "_policyId",
          "type": "uint256"
        }
      ],
      "name": "markToClaimPolicy",
      "outputs": [],
      "stateMutability": "nonpayable",
      "type": "function"
    },
    {
      "inputs": [],
      "name": "operator",
      "outputs": [
        {
          "internalType": "address",
          "name": "",
          "type": "address"
        }
      ],
      "stateMutability": "view",
      "type": "function"
    },
    {
      "inputs": [],
      "name": "owner",
      "outputs": [
        {
          "internalType": "address",
          "name": "",
          "type": "address"
        }
      ],
      "stateMutability": "view",
      "type": "function"
    },
    {
      "inputs": [],
      "name": "policyInfo",
      "outputs": [
        {
          "internalType": "address",
          "name": "policy",
          "type": "address"
        },
        {
          "internalType": "uint256",
          "name": "utilizedAmount",
          "type": "uint256"
        },
        {
          "internalType": "bool",
          "name": "exist",
          "type": "bool"
        }
      ],
      "stateMutability": "view",
      "type": "function"
    },
    {
      "inputs": [
        {
          "internalType": "uint256",
          "name": "_coverageAmount",
          "type": "uint256"
        }
      ],
      "name": "policySale",
      "outputs": [],
      "stateMutability": "nonpayable",
      "type": "function"
    },
    {
      "inputs": [
        {
          "internalType": "address",
          "name": "",
          "type": "address"
        }
      ],
      "name": "poolInfo",
      "outputs": [
        {
          "internalType": "uint256",
          "name": "totalCapital",
          "type": "uint256"
        },
        {
          "internalType": "uint256",
          "name": "SCR",
          "type": "uint256"
        },
        {
          "internalType": "address",
          "name": "currency",
          "type": "address"
        },
        {
          "internalType": "bool",
          "name": "exist",
          "type": "bool"
        }
      ],
      "stateMutability": "view",
      "type": "function"
    },
    {
      "inputs": [
        {
          "internalType": "address",
          "name": "",
          "type": "address"
        }
      ],
      "name": "poolWhiteList",
      "outputs": [
        {
          "internalType": "bool",
          "name": "",
          "type": "bool"
        }
      ],
      "stateMutability": "view",
      "type": "function"
    },
    {
      "inputs": [],
      "name": "removePolicy",
      "outputs": [],
      "stateMutability": "nonpayable",
      "type": "function"
    },
    {
      "inputs": [
        {
          "internalType": "address",
          "name": "_ssip",
          "type": "address"
        }
      ],
      "name": "removePool",
      "outputs": [],
      "stateMutability": "nonpayable",
      "type": "function"
    },
    {
      "inputs": [
        {
          "internalType": "address",
          "name": "_pool",
          "type": "address"
        }
      ],
      "name": "removePoolWhiteList",
      "outputs": [],
      "stateMutability": "nonpayable",
      "type": "function"
    },
    {
      "inputs": [],
      "name": "renounceOwnership",
      "outputs": [],
      "stateMutability": "nonpayable",
      "type": "function"
    },
    {
      "inputs": [],
      "name": "salesPolicyFactory",
      "outputs": [
        {
          "internalType": "address",
          "name": "",
          "type": "address"
        }
      ],
      "stateMutability": "view",
      "type": "function"
    },
    {
      "inputs": [
        {
          "internalType": "address",
          "name": "_exchangeAgent",
          "type": "address"
        }
      ],
      "name": "setExchangeAgent",
      "outputs": [],
      "stateMutability": "nonpayable",
      "type": "function"
    },
    {
      "inputs": [
        {
          "internalType": "uint256",
          "name": "_MCR",
          "type": "uint256"
        }
      ],
      "name": "setMCR",
      "outputs": [],
      "stateMutability": "nonpayable",
      "type": "function"
    },
    {
      "inputs": [
        {
          "internalType": "uint256",
          "name": "_MLR",
          "type": "uint256"
        }
      ],
      "name": "setMLR",
      "outputs": [],
      "stateMutability": "nonpayable",
      "type": "function"
    },
    {
      "inputs": [
        {
          "internalType": "address",
          "name": "_operator",
          "type": "address"
        }
      ],
      "name": "setOperator",
      "outputs": [],
      "stateMutability": "nonpayable",
      "type": "function"
    },
    {
      "inputs": [
        {
          "internalType": "address",
          "name": "_policy",
          "type": "address"
        }
      ],
      "name": "setPolicy",
      "outputs": [],
      "stateMutability": "nonpayable",
      "type": "function"
    },
    {
      "inputs": [
        {
          "internalType": "address",
          "name": "_policy",
          "type": "address"
        }
      ],
      "name": "setPolicyByAdmin",
      "outputs": [],
      "stateMutability": "nonpayable",
      "type": "function"
    },
    {
      "inputs": [
        {
          "internalType": "uint256",
          "name": "_SCR",
          "type": "uint256"
        },
        {
          "internalType": "address",
          "name": "_pool",
          "type": "address"
        }
      ],
      "name": "setSCR",
      "outputs": [],
      "stateMutability": "nonpayable",
      "type": "function"
    },
    {
      "inputs": [
        {
          "internalType": "address",
          "name": "_factory",
          "type": "address"
        }
      ],
      "name": "setSalesPolicyFactory",
      "outputs": [],
      "stateMutability": "nonpayable",
      "type": "function"
    },
    {
      "inputs": [
        {
          "internalType": "address",
          "name": "_usdc",
          "type": "address"
        }
      ],
      "name": "setUSDC",
      "outputs": [],
      "stateMutability": "nonpayable",
      "type": "function"
    },
    {
      "inputs": [],
      "name": "totalCapitalStaked",
      "outputs": [
        {
          "internalType": "uint256",
          "name": "",
          "type": "uint256"
        }
      ],
      "stateMutability": "view",
      "type": "function"
    },
    {
      "inputs": [],
      "name": "totalUtilizedAmount",
      "outputs": [
        {
          "internalType": "uint256",
          "name": "",
          "type": "uint256"
        }
      ],
      "stateMutability": "view",
      "type": "function"
    },
    {
      "inputs": [
        {
          "internalType": "address",
          "name": "newOwner",
          "type": "address"
        }
      ],
      "name": "transferOwnership",
      "outputs": [],
      "stateMutability": "nonpayable",
      "type": "function"
    },
    {
      "inputs": [
        {
          "internalType": "uint256",
          "name": "_policyId",
          "type": "uint256"
        }
      ],
      "name": "updatePolicyStatus",
      "outputs": [],
      "stateMutability": "nonpayable",
      "type": "function"
    }
  ],
  "transactionHash": "0x9487babbfb5222cb9c2d9edfb348e4dcb0597c8b9f5e5a770bcc39e73671f67f",
  "args": [
    "0xe036608523D1C1B0b7220d26E787CCc60d69D494",
    "0x6E1ae7E0A77e51A9B0a1F58D57a023493FBfbe0c",
    "0x6E1ae7E0A77e51A9B0a1F58D57a023493FBfbe0c"
  ],
  "solcInputHash": "df16f6c70360905cdb5c9869a6778742",
  "bytecode": "0x6080604052670de0b6b3a7640000600e553480156200001d57600080fd5b5060405162002b4438038062002b448339810160408190526200004091620001f7565b60016000556200005962000053620000f8565b620000fc565b6001600160a01b0383166200008b5760405162461bcd60e51b81526004016200008290620002c8565b60405180910390fd5b6001600160a01b038216620000b45760405162461bcd60e51b8152600401620000829062000286565b600280546001600160a01b038086166001600160a01b0319928316179092556005805492841692909116919091179055620000ef826200014e565b5050506200033e565b3390565b600180546001600160a01b038381166001600160a01b0319831681179093556040519116919082907f8be0079c531659141344cd1fd0a4f28419497f9722a3daafe3b4186f6b6457e090600090a35050565b62000158620000f8565b6001600160a01b03166200016b620001cb565b6001600160a01b031614620001945760405162461bcd60e51b8152600401620000829062000309565b6001600160a01b038116620001bd5760405162461bcd60e51b8152600401620000829062000240565b620001c881620000fc565b50565b6001546001600160a01b031690565b80516001600160a01b0381168114620001f257600080fd5b919050565b6000806000606084860312156200020c578283fd5b6200021784620001da565b92506200022760208501620001da565b91506200023760408501620001da565b90509250925092565b60208082526026908201527f4f776e61626c653a206e6577206f776e657220697320746865207a65726f206160408201526564647265737360d01b606082015260800190565b60208082526022908201527f556e6f52653a207a65726f206d756c746973696777616c6c6574206164647265604082015261737360f01b606082015260800190565b60208082526021908201527f556e6f52653a207a65726f2065786368616e67654167656e74206164647265736040820152607360f81b606082015260800190565b6020808252818101527f4f776e61626c653a2063616c6c6572206973206e6f7420746865206f776e6572604082015260600190565b6127f6806200034e6000396000f3fe608060405234801561001057600080fd5b50600436106102925760003560e01c80638be5a39f11610160578063b3e089a2116100d8578063d8c5c8631161008c578063f2fde38b11610071578063f2fde38b146104fd578063fa56927414610510578063fb6cb8471461051857610292565b8063d8c5c863146104e2578063d9203b91146104f557610292565b8063c139b04f116100bd578063c139b04f146104b4578063c3ea3a28146104c7578063d4688a45146104da57610292565b8063b3e089a21461048e578063be22041b146104a157610292565b80639a7b5f111161012f578063a65888fb11610114578063a65888fb14610455578063a88d2f7a14610468578063b3ab15fb1461047b57610292565b80639a7b5f111461041f578063a0931af21461044257610292565b80638be5a39f146103e55780638da5cb5b146103f857806392ff38ec14610400578063974e4d851461040857610292565b8063570ca7351161020e578063794e5724116101c25780637e29d6c2116101a75780637e29d6c2146103b7578063869bd44a146103ca5780638bb70831146103dd57610292565b8063794e57241461039c5780637d4163d3146103a457610292565b806365cb3a83116101f357806365cb3a8314610379578063706c2d1b14610381578063715018a61461039457610292565b8063570ca7351461035e5780635b44d5761461036657610292565b806336760a1c116102655780633b7d09461161024a5780633b7d0946146103235780634a3a3d14146103365780634dc70bac1461034957610292565b806336760a1c146102fb578063385a128f1461031057610292565b80630d7575311461029757806318a00d8e146102ac5780631dfa426d146102bf57806325042fe9146102d2575b600080fd5b6102aa6102a5366004612028565b61052b565b005b6102aa6102ba366004611f7a565b610606565b6102aa6102cd366004611f7a565b6106f2565b6102e56102e0366004611f7a565b6107fa565b6040516102f29190612130565b60405180910390f35b61030361080f565b6040516102f291906120bc565b6102aa61031e366004611ff8565b61081e565b6102aa610331366004611f7a565b6108c6565b6102aa610344366004611f7a565b610a56565b610351610b69565b6040516102f291906126e9565b610303610b6f565b6102aa610374366004611ff8565b610b7e565b6102aa610c16565b6102aa61038f366004611f94565b610d04565b6102aa610e89565b610351610ed4565b6102aa6103b2366004611f7a565b610eda565b6102aa6103c5366004611f94565b610f54565b6102aa6103d8366004611ff8565b610f83565b610351610ff3565b6102aa6103f3366004611ff8565b610ff9565b610303611063565b610351611072565b610410611078565b6040516102f29392919061210d565b61043261042d366004611f7a565b611093565b6040516102f29493929190612700565b6102aa610450366004611ff8565b6110c9565b6102aa610463366004611f7a565b61116d565b6102aa610476366004611f7a565b611284565b6102aa610489366004611f7a565b611360565b6102aa61049c366004611f7a565b61143c565b6102aa6104af366004611ff8565b6114c5565b6102e56104c2366004611fcf565b611678565b6102e56104d5366004611ff8565b61168b565b61035161169e565b6102aa6104f0366004611ff8565b6116a4565b61030361174c565b6102aa61050b366004611f7a565b61175b565b6103036117cc565b6102aa610526366004612053565b6117db565b6005546001600160a01b0316331461055e5760405162461bcd60e51b8152600401610555906121a7565b60405180910390fd5b600260005414156105815760405162461bcd60e51b815260040161055590612646565b6002600055816105a35760405162461bcd60e51b815260040161055590612544565b6001600160a01b0381166000818152600660205260409081902060010184905551309033907fade0e16d2bd0d685eef1e5355dc835692faac192ef62225adb31cd0c0b99c8a8906105f59087906126e9565b60405180910390a450506001600055565b61060e61185e565b6001600160a01b031661061f611063565b6001600160a01b0316146106455760405162461bcd60e51b8152600401610555906124cd565b600260005414156106685760405162461bcd60e51b815260040161055590612646565b60026000556001600160a01b0381166106935760405162461bcd60e51b81526004016105559061223b565b600280546001600160a01b0319166001600160a01b038316179055604051309033907f28e0ff29ad991f2655c48b0b095a69abbf13aec6c8bc181dd526dbb3f8c9d0b9906106e29085906120bc565b60405180910390a3506001600055565b6106fa61185e565b6001600160a01b031661070b611063565b6001600160a01b0316146107315760405162461bcd60e51b8152600401610555906124cd565b600260005414156107545760405162461bcd60e51b815260040161055590612646565b60026000556001600160a01b03811661077f5760405162461bcd60e51b81526004016105559061223b565b604080516060810182526001600160a01b0383168082526000602083018190526001928401839052600880546001600160a01b031916831790556009819055600a805460ff191690931790925591517f8ba1947a8c64577d7adbd8cbc248c72b68738fe23afef984d842ba5ec5af5cfe9190a2506001600055565b600f6020526000908152604090205460ff1681565b6003546001600160a01b031681565b6005546001600160a01b031633146108485760405162461bcd60e51b8152600401610555906121a7565b6002600054141561086b5760405162461bcd60e51b815260040161055590612646565b60026000558061088d5760405162461bcd60e51b8152600401610555906122a9565b600c819055604051309033907fa55ee73f4232498ac4c250ffa77f4337343a213648a66147d8848f6660fa3fdf906106e29085906126e9565b6108ce61185e565b6001600160a01b03166108df611063565b6001600160a01b0316146109055760405162461bcd60e51b8152600401610555906124cd565b600260005414156109285760405162461bcd60e51b815260040161055590612646565b60026000556001600160a01b0381166109535760405162461bcd60e51b81526004016105559061223b565b6001600160a01b038116600090815260066020526040902060020154600160a01b900460ff166109955760405162461bcd60e51b81526004016105559061242a565b6001600160a01b038116600090815260066020526040902054156109dd576001600160a01b0381166000908152600660205260409020546007546109d99190612793565b6007555b6001600160a01b0381166000818152600660205260408082208281556001810183905560020180547fffffffffffffffffffffff000000000000000000000000000000000000000000169055517ff54e47602c09e6190ae0c9cba6074e2e211bf36944fd714fbb0bd78aba514cab9190a2506001600055565b610a5e61185e565b6001600160a01b0316610a6f611063565b6001600160a01b031614610a955760405162461bcd60e51b8152600401610555906124cd565b60026000541415610ab85760405162461bcd60e51b815260040161055590612646565b60026000556001600160a01b038116610ae35760405162461bcd60e51b81526004016105559061234e565b6001600160a01b0381166000908152600f602052604090205460ff16610b1b5760405162461bcd60e51b81526004016105559061213b565b6001600160a01b0381166000818152600f6020526040808220805460ff19169055517f4151e001c03bfed83a194d10eea2c0edf04f98e382c440c94a947a99d38d2c329190a2506001600055565b600e5481565b6005546001600160a01b031681565b60026000541415610ba15760405162461bcd60e51b815260040161055590612646565b600260008181553381526006602052604090200154600160a01b900460ff16610bdc5760405162461bcd60e51b81526004016105559061260f565b610be63382611862565b610c025760405162461bcd60e51b815260040161055590612461565b610c0e33826000611a34565b506001600055565b610c1e61185e565b6001600160a01b0316610c2f611063565b6001600160a01b031614610c555760405162461bcd60e51b8152600401610555906124cd565b60026000541415610c785760405162461bcd60e51b815260040161055590612646565b6002600055600a5460ff16610c9f5760405162461bcd60e51b81526004016105559061242a565b6000600b819055600880546001600160a01b03198116909155600a805460ff1916905560098290556040516001600160a01b039091169182917fffb315d96bed6cc0b00a9cc39d15fcbcab7d047fca09660a2d73569cfc75817c9190a2506001600055565b610d0c61185e565b6001600160a01b0316610d1d611063565b6001600160a01b031614610d435760405162461bcd60e51b8152600401610555906124cd565b6001600160a01b038316610d695760405162461bcd60e51b81526004016105559061223b565b6001600160a01b038316600090815260066020526040902060020154600160a01b900460ff1615610dac5760405162461bcd60e51b8152600401610555906123f3565b60408051608081018252600080825260208083018581526001600160a01b038088168587019081526001606087018181528b84168088526006909652958890209651875592519286019290925590516002909401805493511515600160a01b027fffffffffffffffffffffff00ffffffffffffffffffffffffffffffffffffffff959092166001600160a01b0319909416939093179390931692909217905590517f4135167fcda3c31ddaa41eecaaa00c3e3ba8aabf49d039cfad433be34bf659ab90610e7c90859085906120f4565b60405180910390a2505050565b610e9161185e565b6001600160a01b0316610ea2611063565b6001600160a01b031614610ec85760405162461bcd60e51b8152600401610555906124cd565b610ed26000611cb8565b565b600c5481565b60026000541415610efd5760405162461bcd60e51b815260040161055590612646565b60026000556003546001600160a01b0316610f2a5760405162461bcd60e51b815260040161055590612502565b6003546001600160a01b0316331461077f5760405162461bcd60e51b8152600401610555906125b2565b336000908152600f602052604090205460ff16610d435760405162461bcd60e51b8152600401610555906121a7565b610f8b61185e565b6001600160a01b0316610f9c611063565b6001600160a01b031614610fc25760405162461bcd60e51b8152600401610555906124cd565b60026000541415610fe55760405162461bcd60e51b815260040161055590612646565b6002600055610c0e81611d0a565b600d5481565b6002600054141561101c5760405162461bcd60e51b815260040161055590612646565b600260008181553381526006602052604090200154600160a01b900460ff166110575760405162461bcd60e51b81526004016105559061260f565b610c0e33826001611a34565b6001546001600160a01b031690565b60075481565b600854600954600a546001600160a01b039092169160ff1683565b6006602052600090815260409020805460018201546002909201549091906001600160a01b03811690600160a01b900460ff1684565b600260005414156110ec5760405162461bcd60e51b815260040161055590612646565b60026000556008546001600160a01b0316331461111b5760405162461bcd60e51b8152600401610555906126b4565b600a5460ff1661113d5760405162461bcd60e51b81526004016105559061257b565b61114681611e6f565b6111625760405162461bcd60e51b815260040161055590612172565b610c0e816001611ea4565b61117561185e565b6001600160a01b0316611186611063565b6001600160a01b0316146111ac5760405162461bcd60e51b8152600401610555906124cd565b600260005414156111cf5760405162461bcd60e51b815260040161055590612646565b60026000556001600160a01b0381166111fa5760405162461bcd60e51b81526004016105559061234e565b6001600160a01b0381166000908152600f602052604090205460ff16156112335760405162461bcd60e51b815260040161055590612317565b6001600160a01b0381166000818152600f6020526040808220805460ff19166001179055517f398e8e2ed05e6be725398a28e81fdf023a447b92941bd666e68ce2091b82bcc79190a2506001600055565b61128c61185e565b6001600160a01b031661129d611063565b6001600160a01b0316146112c35760405162461bcd60e51b8152600401610555906124cd565b600260005414156112e65760405162461bcd60e51b815260040161055590612646565b60026000556001600160a01b0381166113115760405162461bcd60e51b815260040161055590612496565b600380546001600160a01b0319166001600160a01b0383169081179091556040517f6507596e94e343212d1c22479359f82fffb65f099deb3ebcae9eb33c3d06de9e90600090a2506001600055565b61136861185e565b6001600160a01b0316611379611063565b6001600160a01b03161461139f5760405162461bcd60e51b8152600401610555906124cd565b600260005414156113c25760405162461bcd60e51b815260040161055590612646565b60026000556001600160a01b0381166113ed5760405162461bcd60e51b815260040161055590612385565b600580546001600160a01b0319166001600160a01b0383169081179091556040517f08c5d29613b4e7468e893fe5f104f5a3ea6e28298f00fbbab9dc9394578c89de90600090a2506001600055565b61144461185e565b6001600160a01b0316611455611063565b6001600160a01b03161461147b5760405162461bcd60e51b8152600401610555906124cd565b6002600054141561149e5760405162461bcd60e51b815260040161055590612646565b600480546001600160a01b0319166001600160a01b03929092169190911790556001600055565b600260005414156114e85760405162461bcd60e51b815260040161055590612646565b60026000556008546001600160a01b03166115155760405162461bcd60e51b815260040161055590612272565b600854604051637a5402e960e01b8152600091829182916001600160a01b031690637a5402e99061154a9087906004016126e9565b60606040518083038186803b15801561156257600080fd5b505afa158015611576573d6000803e3d6000fd5b505050506040513d601f19601f8201168201806040525081019061159a919061208f565b9194509250905060006115ad828461273c565b42108015915061166c576115c2846000611ea4565b6008546040516352eaf0a160e11b81526001600160a01b039091169063a5d5e142906115f29088906004016126e9565b600060405180830381600087803b15801561160c57600080fd5b505af1158015611620573d6000803e3d6000fd5b50506008546040516001600160a01b0390911692507faf1c77a8196c946ab8e645210cd1e2685b4fb758ddfd474fd918298854dea6fc91506116639088906126e9565b60405180910390a25b50506001600055505050565b60006116848383611862565b9392505050565b600061169682611e6f565b90505b919050565b600b5481565b6005546001600160a01b031633146116ce5760405162461bcd60e51b8152600401610555906121a7565b600260005414156116f15760405162461bcd60e51b815260040161055590612646565b6002600055806117135760405162461bcd60e51b8152600401610555906123bc565b600d819055604051309033907fb2f30bd42a6b499419a01b9b79e7b98934167f5a8a8c389ce446e20a8e5df765906106e29085906126e9565b6002546001600160a01b031681565b61176361185e565b6001600160a01b0316611774611063565b6001600160a01b03161461179a5760405162461bcd60e51b8152600401610555906124cd565b6001600160a01b0381166117c05760405162461bcd60e51b8152600401610555906121de565b6117c981611cb8565b50565b6004546001600160a01b031681565b600260005414156117fe5760405162461bcd60e51b815260040161055590612646565b600260008181553381526006602052604090200154600160a01b900460ff166118395760405162461bcd60e51b81526004016105559061260f565b61184533846000611a34565b80156118545761185482611d0a565b5050600160005550565b3390565b6001600160a01b038083166000908152600660205260408120600201546004549192908116918391168214156118995750826119bc565b6001600160a01b038216611932576002546004805460405163ba560ed960e01b81526001600160a01b039384169363ba560ed9936118dd93909116918991016120f4565b60206040518083038186803b1580156118f557600080fd5b505afa158015611909573d6000803e3d6000fd5b505050506040513d601f19601f8201168201806040525081019061192d9190612010565b6119b9565b60025460048054604051631a44cdf360e11b81526001600160a01b03938416936334899be6936119699388939216918a91016120d0565b60206040518083038186803b15801561198157600080fd5b505afa158015611995573d6000803e3d6000fd5b505050506040513d601f19601f820116820180604052508101906119b99190612010565b90505b6000600e54600c546007546119d19190612774565b6119db9190612754565b826007546119e99190612793565b6001600160a01b0388166000908152600660205260408120600181015490549390921015935091611a1b908590612793565b10159050818015611a295750805b979650505050505050565b6001600160a01b038084166000908152600660205260408120600201546004549083169216821415611a67575082611b8a565b6001600160a01b038216611b00576002546004805460405163ba560ed960e01b81526001600160a01b039384169363ba560ed993611aab93909116918991016120f4565b60206040518083038186803b158015611ac357600080fd5b505afa158015611ad7573d6000803e3d6000fd5b505050506040513d601f19601f82011682018060405250810190611afb9190612010565b611b87565b60025460048054604051631a44cdf360e11b81526001600160a01b03938416936334899be693611b379388939216918a91016120d0565b60206040518083038186803b158015611b4f57600080fd5b505afa158015611b63573d6000803e3d6000fd5b505050506040513d601f19601f82011682018060405250810190611b879190612010565b90505b82611bc7576001600160a01b038516600090815260066020526040902054811115611bc75760405162461bcd60e51b81526004016105559061267d565b82611bf5576001600160a01b038516600090815260066020526040902054611bf0908290612793565b611c19565b6001600160a01b038516600090815260066020526040902054611c1990829061273c565b6001600160a01b03861660009081526006602052604090205582611c4a5780600754611c459190612793565b611c58565b80600754611c58919061273c565b60078190556001600160a01b0386166000818152600660205260409081902054905191927f4c54f63d510ce2f2f9bf99bf203458cb67aa75fae97ccab560a1654eba9dbf2492611ca99291906126f2565b60405180910390a25050505050565b600180546001600160a01b038381166001600160a01b0319831681179093556040519116919082907f8be0079c531659141344cd1fd0a4f28419497f9722a3daafe3b4186f6b6457e090600090a35050565b6008546001600160a01b0316611d325760405162461bcd60e51b815260040161055590612272565b600854604051637a5402e960e01b81526000916001600160a01b031690637a5402e990611d639085906004016126e9565b60606040518083038186803b158015611d7b57600080fd5b505afa158015611d8f573d6000803e3d6000fd5b505050506040513d601f19601f82011682018060405250810190611db3919061208f565b50509050611dc2816000611ea4565b6008546040516319d9b48f60e11b81526001600160a01b03909116906333b3691e90611df29085906004016126e9565b600060405180830381600087803b158015611e0c57600080fd5b505af1158015611e20573d6000803e3d6000fd5b50506008546040516001600160a01b0390911692507f56b46e5b13fdb3c0b1989f448e91b2ad68cf0c8e8ddd87f996720708ae3a15699150611e639085906126e9565b60405180910390a25050565b6000600e54600d54600754611e849190612774565b611e8e9190612754565b82600b54611e9c919061273c565b111592915050565b80611ecb57600954821115611ecb5760405162461bcd60e51b8152600401610555906122e0565b80611ee357600954611ede908390612793565b611ef1565b600954611ef190839061273c565b60095580611f0c5781600b54611f079190612793565b611f1a565b81600b54611f1a919061273c565b600b8190556008546009546040516001600160a01b03909216927facece99dd8b86cb96519fb17caded4d103b35a8261463d0d11f80a411460730092611e639287929091612726565b80356001600160a01b038116811461169957600080fd5b600060208284031215611f8b578081fd5b61168482611f63565b600080600060608486031215611fa8578182fd5b611fb184611f63565b9250611fbf60208501611f63565b9150604084013590509250925092565b60008060408385031215611fe1578182fd5b611fea83611f63565b946020939093013593505050565b600060208284031215612009578081fd5b5035919050565b600060208284031215612021578081fd5b5051919050565b6000806040838503121561203a578182fd5b8235915061204a60208401611f63565b90509250929050565b600080600060608486031215612067578283fd5b833592506020840135915060408401358015158114612084578182fd5b809150509250925092565b6000806000606084860312156120a3578283fd5b8351925060208401519150604084015190509250925092565b6001600160a01b0391909116815260200190565b6001600160a01b039384168152919092166020820152604081019190915260600190565b6001600160a01b03929092168252602082015260400190565b6001600160a01b0393909316835260208301919091521515604082015260600190565b901515815260200190565b60208082526014908201527f556e6f52653a206e6f207768697465206c697374000000000000000000000000604082015260600190565b6020808252818101527f556e6f52653a206d6178696d756d206c65766572616765206f766572666c6f77604082015260600190565b6020808252601e908201527f556e6f52653a204361706974616c204167656e7420466f7262696464656e0000604082015260600190565b60208082526026908201527f4f776e61626c653a206e6577206f776e657220697320746865207a65726f206160408201527f6464726573730000000000000000000000000000000000000000000000000000606082015260800190565b60208082526013908201527f556e6f52653a207a65726f206164647265737300000000000000000000000000604082015260600190565b6020808252601b908201527f556e6f52653a206e6f2065786973742073616c6573506f6c6963790000000000604082015260600190565b6020808252600f908201527f556e6f52653a207a65726f206d63720000000000000000000000000000000000604082015260600190565b6020808252601f908201527f556e6f52653a20706f6c69637920636f766572616765206f766572666c6f7700604082015260600190565b60208082526019908201527f556e6f52653a207768697465206c69737420616c726561647900000000000000604082015260600190565b60208082526018908201527f556e6f52653a207a65726f20706f6f6c20616464726573730000000000000000604082015260600190565b6020808252601c908201527f556e6f52653a207a65726f206f70657261746f72206164647265737300000000604082015260600190565b6020808252600f908201527f556e6f52653a207a65726f206d6c720000000000000000000000000000000000604082015260600190565b60208082526019908201527f556e6f52653a20616c726561647920657869737420706f6f6c00000000000000604082015260600190565b60208082526013908201527f556e6f52653a206e6f206578697420706f6f6c00000000000000000000000000604082015260600190565b6020808252818101527f556e6f52653a206d696e696d756d206361706974616c20756e646572666c6f77604082015260600190565b6020808252601b908201527f556e6f52653a207a65726f20666163746f727920616464726573730000000000604082015260600190565b6020808252818101527f4f776e61626c653a2063616c6c6572206973206e6f7420746865206f776e6572604082015260600190565b60208082526022908201527f556e6f52653a206e6f742073657420666163746f727920616464726573732079604082015261195d60f21b606082015260800190565b6020808252600f908201527f556e6f52653a207a65726f207363720000000000000000000000000000000000604082015260600190565b60208082526016908201527f556e6f52653a206e6f20657869737420706f6c69637900000000000000000000604082015260600190565b60208082526027908201527f556e6f52653a206f6e6c792073616c6573506f6c696379466163746f7279206360408201527f616e2063616c6c00000000000000000000000000000000000000000000000000606082015260800190565b60208082526014908201527f556e6f52653a206e6f2065786973742073736970000000000000000000000000604082015260600190565b6020808252601f908201527f5265656e7472616e637947756172643a207265656e7472616e742063616c6c00604082015260600190565b6020808252601c908201527f556e6f52653a20706f6f6c206361706974616c206f766572666c6f7700000000604082015260600190565b6020808252818101527f556e6f52653a206f6e6c792073616c6573506f6c6963792063616e2063616c6c604082015260600190565b90815260200190565b918252602082015260400190565b93845260208401929092526001600160a01b031660408301521515606082015260800190565b9283526020830191909152604082015260600190565b6000821982111561274f5761274f6127aa565b500190565b60008261276f57634e487b7160e01b81526012600452602481fd5b500490565b600081600019048311821515161561278e5761278e6127aa565b500290565b6000828210156127a5576127a56127aa565b500390565b634e487b7160e01b600052601160045260246000fdfea2646970667358221220d5533b0a46d7f90033c62f99015c013f041d2675d00dcda94ffbc4ba09985cc564736f6c63430008000033",
  "devdoc": {
    "kind": "dev",
    "methods": {
      "owner()": {
        "details": "Returns the address of the current owner."
      },
      "renounceOwnership()": {
        "details": "Leaves the contract without owner. It will not be possible to call `onlyOwner` functions anymore. Can only be called by the current owner. NOTE: Renouncing ownership will leave the contract without an owner, thereby removing any functionality that is only available to the owner."
      },
      "transferOwnership(address)": {
        "details": "Transfers ownership of the contract to a new account (`newOwner`). Can only be called by the current owner."
      }
    },
    "version": 1
  },
  "userdoc": {
    "kind": "user",
    "methods": {},
    "version": 1
  },
  "storageLayout": {
    "storage": [
      {
        "astId": 114,
        "contract": "contracts/CapitalAgent.sol:CapitalAgent",
        "label": "_status",
        "offset": 0,
        "slot": "0",
        "type": "t_uint256"
      },
      {
        "astId": 7,
        "contract": "contracts/CapitalAgent.sol:CapitalAgent",
        "label": "_owner",
        "offset": 0,
        "slot": "1",
        "type": "t_address"
      },
      {
        "astId": 2418,
        "contract": "contracts/CapitalAgent.sol:CapitalAgent",
        "label": "exchangeAgent",
        "offset": 0,
        "slot": "2",
        "type": "t_address"
      },
      {
        "astId": 2420,
        "contract": "contracts/CapitalAgent.sol:CapitalAgent",
        "label": "salesPolicyFactory",
        "offset": 0,
        "slot": "3",
        "type": "t_address"
      },
      {
        "astId": 2422,
        "contract": "contracts/CapitalAgent.sol:CapitalAgent",
        "label": "USDC_TOKEN",
        "offset": 0,
        "slot": "4",
        "type": "t_address"
      },
      {
        "astId": 2424,
        "contract": "contracts/CapitalAgent.sol:CapitalAgent",
        "label": "operator",
        "offset": 0,
        "slot": "5",
        "type": "t_address"
      },
      {
        "astId": 2445,
        "contract": "contracts/CapitalAgent.sol:CapitalAgent",
        "label": "poolInfo",
        "offset": 0,
        "slot": "6",
        "type": "t_mapping(t_address,t_struct(PoolInfo)2433_storage)"
      },
      {
        "astId": 2447,
        "contract": "contracts/CapitalAgent.sol:CapitalAgent",
        "label": "totalCapitalStaked",
        "offset": 0,
        "slot": "7",
        "type": "t_uint256"
      },
      {
        "astId": 2450,
        "contract": "contracts/CapitalAgent.sol:CapitalAgent",
        "label": "policyInfo",
        "offset": 0,
        "slot": "8",
        "type": "t_struct(PolicyInfo)2440_storage"
      },
      {
        "astId": 2452,
        "contract": "contracts/CapitalAgent.sol:CapitalAgent",
        "label": "totalUtilizedAmount",
        "offset": 0,
        "slot": "11",
        "type": "t_uint256"
      },
      {
        "astId": 2454,
        "contract": "contracts/CapitalAgent.sol:CapitalAgent",
        "label": "MCR",
        "offset": 0,
        "slot": "12",
        "type": "t_uint256"
      },
      {
        "astId": 2456,
        "contract": "contracts/CapitalAgent.sol:CapitalAgent",
        "label": "MLR",
        "offset": 0,
        "slot": "13",
        "type": "t_uint256"
      },
      {
        "astId": 2459,
        "contract": "contracts/CapitalAgent.sol:CapitalAgent",
        "label": "CALC_PRECISION",
        "offset": 0,
        "slot": "14",
        "type": "t_uint256"
      },
      {
        "astId": 2463,
        "contract": "contracts/CapitalAgent.sol:CapitalAgent",
        "label": "poolWhiteList",
        "offset": 0,
        "slot": "15",
        "type": "t_mapping(t_address,t_bool)"
      }
    ],
    "types": {
      "t_address": {
        "encoding": "inplace",
        "label": "address",
        "numberOfBytes": "20"
      },
      "t_bool": {
        "encoding": "inplace",
        "label": "bool",
        "numberOfBytes": "1"
      },
      "t_mapping(t_address,t_bool)": {
        "encoding": "mapping",
        "key": "t_address",
        "label": "mapping(address => bool)",
        "numberOfBytes": "32",
        "value": "t_bool"
      },
      "t_mapping(t_address,t_struct(PoolInfo)2433_storage)": {
        "encoding": "mapping",
        "key": "t_address",
        "label": "mapping(address => struct CapitalAgent.PoolInfo)",
        "numberOfBytes": "32",
        "value": "t_struct(PoolInfo)2433_storage"
      },
      "t_struct(PolicyInfo)2440_storage": {
        "encoding": "inplace",
        "label": "struct CapitalAgent.PolicyInfo",
        "members": [
          {
            "astId": 2435,
            "contract": "contracts/CapitalAgent.sol:CapitalAgent",
            "label": "policy",
            "offset": 0,
            "slot": "0",
            "type": "t_address"
          },
          {
            "astId": 2437,
            "contract": "contracts/CapitalAgent.sol:CapitalAgent",
            "label": "utilizedAmount",
            "offset": 0,
            "slot": "1",
            "type": "t_uint256"
          },
          {
            "astId": 2439,
            "contract": "contracts/CapitalAgent.sol:CapitalAgent",
            "label": "exist",
            "offset": 0,
            "slot": "2",
            "type": "t_bool"
          }
        ],
        "numberOfBytes": "96"
      },
      "t_struct(PoolInfo)2433_storage": {
        "encoding": "inplace",
        "label": "struct CapitalAgent.PoolInfo",
        "members": [
          {
            "astId": 2426,
            "contract": "contracts/CapitalAgent.sol:CapitalAgent",
            "label": "totalCapital",
            "offset": 0,
            "slot": "0",
            "type": "t_uint256"
          },
          {
            "astId": 2428,
            "contract": "contracts/CapitalAgent.sol:CapitalAgent",
            "label": "SCR",
            "offset": 0,
            "slot": "1",
            "type": "t_uint256"
          },
          {
            "astId": 2430,
            "contract": "contracts/CapitalAgent.sol:CapitalAgent",
            "label": "currency",
            "offset": 0,
            "slot": "2",
            "type": "t_address"
          },
          {
            "astId": 2432,
            "contract": "contracts/CapitalAgent.sol:CapitalAgent",
            "label": "exist",
            "offset": 20,
            "slot": "2",
            "type": "t_bool"
          }
        ],
        "numberOfBytes": "96"
      },
      "t_uint256": {
        "encoding": "inplace",
        "label": "uint256",
        "numberOfBytes": "32"
      }
    }
  }
}