{
  "address": "0xe036608523D1C1B0b7220d26E787CCc60d69D494",
  "abi": [
    {
      "inputs": [],
      "stateMutability": "nonpayable",
      "type": "constructor"
    },
    {
      "anonymous": false,
      "inputs": [
        {
          "indexed": true,
          "internalType": "address",
          "name": "_dexAddress",
          "type": "address"
        },
        {
          "indexed": true,
          "internalType": "address",
          "name": "_convertToken",
          "type": "address"
        },
        {
          "indexed": false,
          "internalType": "uint256",
          "name": "_convertAmount",
          "type": "uint256"
        },
        {
          "indexed": false,
          "internalType": "uint256",
          "name": "_desiredAmount",
          "type": "uint256"
        },
        {
          "indexed": false,
          "internalType": "uint256",
          "name": "_convertedAmount",
          "type": "uint256"
        }
      ],
      "name": "ConvertedTokenToETH",
      "type": "event"
    },
    {
      "anonymous": false,
      "inputs": [
        {
          "indexed": true,
          "internalType": "address",
          "name": "_dexAddress",
          "type": "address"
        },
        {
          "indexed": true,
          "internalType": "address",
          "name": "_convertToken",
          "type": "address"
        },
        {
          "indexed": true,
          "internalType": "address",
          "name": "_convertedToken",
          "type": "address"
        },
        {
          "indexed": false,
          "internalType": "uint256",
          "name": "_convertAmount",
          "type": "uint256"
        },
        {
          "indexed": false,
          "internalType": "uint256",
          "name": "_desiredAmount",
          "type": "uint256"
        },
        {
          "indexed": false,
          "internalType": "uint256",
          "name": "_convertedAmount",
          "type": "uint256"
        }
      ],
      "name": "ConvertedTokenToToken",
      "type": "event"
    },
    {
      "anonymous": false,
      "inputs": [
        {
          "indexed": true,
          "internalType": "address",
          "name": "_exchangeAgent",
          "type": "address"
        },
        {
          "indexed": true,
          "internalType": "address",
          "name": "_whiteListAddress",
          "type": "address"
        }
      ],
      "name": "LogAddWhiteList",
      "type": "event"
    },
    {
      "anonymous": false,
      "inputs": [
        {
          "indexed": true,
          "internalType": "address",
          "name": "_exchangeAgent",
          "type": "address"
        },
        {
          "indexed": true,
          "internalType": "address",
          "name": "_whiteListAddress",
          "type": "address"
        }
      ],
      "name": "LogRemoveWhiteList",
      "type": "event"
    },
    {
      "anonymous": false,
      "inputs": [
        {
          "indexed": true,
          "internalType": "address",
          "name": "_exchangeAgent",
          "type": "address"
        },
        {
          "indexed": true,
          "internalType": "address",
          "name": "_oraclePriceFeed",
          "type": "address"
        }
      ],
      "name": "LogSetOraclePriceFeed",
      "type": "event"
    },
    {
      "anonymous": false,
      "inputs": [
        {
          "indexed": true,
          "internalType": "address",
          "name": "_exchangeAgent",
          "type": "address"
        },
        {
          "indexed": false,
          "internalType": "uint256",
          "name": "_slippage",
          "type": "uint256"
        }
      ],
      "name": "LogSetSlippage",
      "type": "event"
    },
    {
      "anonymous": false,
      "inputs": [
        {
          "indexed": true,
          "internalType": "address",
          "name": "previousOwner",
          "type": "address"
        },
        {
          "indexed": true,
          "internalType": "address",
          "name": "newOwner",
          "type": "address"
        }
      ],
      "name": "OwnershipTransferred",
      "type": "event"
    },
    {
      "inputs": [],
      "name": "UNISWAP_FACTORY",
      "outputs": [
        {
          "internalType": "address",
          "name": "",
          "type": "address"
        }
      ],
      "stateMutability": "view",
      "type": "function"
    },
    {
      "inputs": [],
      "name": "UNISWAP_ROUTER",
      "outputs": [
        {
          "internalType": "address",
          "name": "",
          "type": "address"
        }
      ],
      "stateMutability": "view",
      "type": "function"
    },
    {
      "inputs": [],
      "name": "USDC_TOKEN",
      "outputs": [
        {
          "internalType": "address",
          "name": "",
          "type": "address"
        }
      ],
      "stateMutability": "view",
      "type": "function"
    },
    {
      "inputs": [],
      "name": "WETH",
      "outputs": [
        {
          "internalType": "address",
          "name": "",
          "type": "address"
        }
      ],
      "stateMutability": "view",
      "type": "function"
    },
    {
      "inputs": [
        {
          "internalType": "address",
          "name": "_whiteListAddress",
          "type": "address"
        }
      ],
      "name": "addWhiteList",
      "outputs": [],
      "stateMutability": "nonpayable",
      "type": "function"
    },
    {
      "inputs": [
        {
          "internalType": "address",
          "name": "_token",
          "type": "address"
        },
        {
          "internalType": "uint256",
          "name": "_convertAmount",
          "type": "uint256"
        }
      ],
      "name": "convertForETH",
      "outputs": [
        {
          "internalType": "uint256",
          "name": "",
          "type": "uint256"
        }
      ],
      "stateMutability": "nonpayable",
      "type": "function"
    },
    {
      "inputs": [
        {
          "internalType": "address",
          "name": "_token0",
          "type": "address"
        },
        {
          "internalType": "address",
          "name": "_token1",
          "type": "address"
        },
        {
          "internalType": "uint256",
          "name": "_token0Amount",
          "type": "uint256"
        }
      ],
      "name": "convertForToken",
      "outputs": [
        {
          "internalType": "uint256",
          "name": "",
          "type": "uint256"
        }
      ],
      "stateMutability": "nonpayable",
      "type": "function"
    },
    {
      "inputs": [
        {
          "internalType": "address",
          "name": "_token",
          "type": "address"
        },
        {
          "internalType": "uint256",
          "name": "_tokenAmount",
          "type": "uint256"
        }
      ],
      "name": "getETHAmountForToken",
      "outputs": [
        {
          "internalType": "uint256",
          "name": "",
          "type": "uint256"
        }
      ],
      "stateMutability": "view",
      "type": "function"
    },
    {
      "inputs": [
        {
          "internalType": "uint256",
          "name": "_usdtAmount",
          "type": "uint256"
        }
      ],
      "name": "getETHAmountForUSDC",
      "outputs": [
        {
          "internalType": "uint256",
          "name": "",
          "type": "uint256"
        }
      ],
      "stateMutability": "view",
      "type": "function"
    },
    {
      "inputs": [
        {
          "internalType": "address",
          "name": "_token0",
          "type": "address"
        },
        {
          "internalType": "address",
          "name": "_token1",
          "type": "address"
        },
        {
          "internalType": "uint256",
          "name": "_token0Amount",
          "type": "uint256"
        }
      ],
      "name": "getNeededTokenAmount",
      "outputs": [
        {
          "internalType": "uint256",
          "name": "",
          "type": "uint256"
        }
      ],
      "stateMutability": "view",
      "type": "function"
    },
    {
      "inputs": [
        {
          "internalType": "address",
          "name": "_token",
          "type": "address"
        },
        {
          "internalType": "uint256",
          "name": "_ethAmount",
          "type": "uint256"
        }
      ],
      "name": "getTokenAmountForETH",
      "outputs": [
        {
          "internalType": "uint256",
          "name": "",
          "type": "uint256"
        }
      ],
      "stateMutability": "view",
      "type": "function"
    },
    {
      "inputs": [
        {
          "internalType": "address",
          "name": "_token",
          "type": "address"
        },
        {
          "internalType": "uint256",
          "name": "_usdtAmount",
          "type": "uint256"
        }
      ],
      "name": "getTokenAmountForUSDC",
      "outputs": [
        {
          "internalType": "uint256",
          "name": "",
          "type": "uint256"
        }
      ],
      "stateMutability": "view",
      "type": "function"
    },
    {
      "inputs": [],
      "name": "oraclePriceFeed",
      "outputs": [
        {
          "internalType": "address",
          "name": "",
          "type": "address"
        }
      ],
      "stateMutability": "view",
      "type": "function"
    },
    {
      "inputs": [],
      "name": "owner",
      "outputs": [
        {
          "internalType": "address",
          "name": "",
          "type": "address"
        }
      ],
      "stateMutability": "view",
      "type": "function"
    },
    {
      "inputs": [
        {
          "internalType": "address",
          "name": "_whiteListAddress",
          "type": "address"
        }
      ],
      "name": "removeWhiteList",
      "outputs": [],
      "stateMutability": "nonpayable",
      "type": "function"
    },
    {
      "inputs": [],
      "name": "renounceOwnership",
      "outputs": [],
      "stateMutability": "nonpayable",
      "type": "function"
    },
    {
      "inputs": [
        {
          "internalType": "address",
          "name": "_oraclePriceFeed",
          "type": "address"
        }
      ],
      "name": "setOraclePriceFeed",
      "outputs": [],
      "stateMutability": "nonpayable",
      "type": "function"
    },
    {
      "inputs": [
        {
          "internalType": "uint256",
          "name": "_slippage",
          "type": "uint256"
        }
      ],
      "name": "setSlippage",
      "outputs": [],
      "stateMutability": "nonpayable",
      "type": "function"
    },
    {
      "inputs": [
        {
          "internalType": "address",
          "name": "_usdc",
          "type": "address"
        }
      ],
      "name": "setUSDC",
      "outputs": [],
      "stateMutability": "nonpayable",
      "type": "function"
    },
    {
      "inputs": [
        {
          "internalType": "address",
          "name": "_factory",
          "type": "address"
        },
        {
          "internalType": "address",
          "name": "_router",
          "type": "address"
        },
        {
          "internalType": "address",
          "name": "_weth",
          "type": "address"
        }
      ],
      "name": "setUniswap",
      "outputs": [],
      "stateMutability": "nonpayable",
      "type": "function"
    },
    {
      "inputs": [],
      "name": "slippage",
      "outputs": [
        {
          "internalType": "uint256",
          "name": "",
          "type": "uint256"
        }
      ],
      "stateMutability": "view",
      "type": "function"
    },
    {
      "inputs": [
        {
          "internalType": "address",
          "name": "newOwner",
          "type": "address"
        }
      ],
      "name": "transferOwnership",
      "outputs": [],
      "stateMutability": "nonpayable",
      "type": "function"
    },
    {
      "inputs": [
        {
          "internalType": "address",
          "name": "",
          "type": "address"
        }
      ],
      "name": "whiteList",
      "outputs": [
        {
          "internalType": "bool",
          "name": "",
          "type": "bool"
        }
      ],
      "stateMutability": "view",
      "type": "function"
    },
    {
      "stateMutability": "payable",
      "type": "receive"
    }
  ],
  "transactionHash": "0x314875264e45990fecccdd9f28511e36054e18af57d3af5862935cda681bb7e7",
  "args": [],
  "solcInputHash": "df16f6c70360905cdb5c9869a6778742",
  "bytecode": "0x60806040523480156200001157600080fd5b5060016000556200002b620000256200005c565b62000060565b336000908152600860205260409020805460ff191660011790556200005360646005620000b2565b600755620000de565b3390565b600180546001600160a01b038381166001600160a01b0319831681179093556040519116919082907f8be0079c531659141344cd1fd0a4f28419497f9722a3daafe3b4186f6b6457e090600090a35050565b6000816000190483118215151615620000d957634e487b7160e01b81526011600452602481fd5b500290565b6122c180620000ee6000396000f3fe6080604052600436106101845760003560e01c806393badc41116100d6578063c74c0fac1161007f578063f0fa55a911610059578063f0fa55a9146103f5578063f2fde38b14610415578063fa569274146104355761018b565b8063c74c0fac146103ab578063d8264920146103c0578063e7cd4a04146103d55761018b565b8063ad5c4648116100b0578063ad5c464814610356578063b3e089a21461036b578063ba560ed91461038b5761018b565b806393badc41146102f65780639a55396814610316578063a9a12d43146103365761018b565b80633e032a3b11610138578063715018a611610112578063715018a6146102aa57806375d38071146102bf5780638da5cb5b146102e15761018b565b80633e032a3b14610255578063429159611461026a578063531a22111461028a5761018b565b80632042e5c2116101695780632042e5c2146101e857806334899be614610208578063372c12b1146102285761018b565b8063102e3259146101905780631eb5b699146101c65761018b565b3661018b57005b600080fd5b34801561019c57600080fd5b506101b06101ab366004611b77565b61044a565b6040516101bd9190612066565b60405180910390f35b3480156101d257600080fd5b506101e66101e1366004611ab5565b610571565b005b3480156101f457600080fd5b506101e6610203366004611ab5565b610631565b34801561021457600080fd5b506101b0610223366004611b37565b610718565b34801561023457600080fd5b50610248610243366004611ab5565b61072f565b6040516101bd9190611cfa565b34801561026157600080fd5b506101b0610744565b34801561027657600080fd5b506101e6610285366004611aed565b61074a565b34801561029657600080fd5b506101b06102a5366004611bc2565b6107c8565b3480156102b657600080fd5b506101e6610906565b3480156102cb57600080fd5b506102d4610951565b6040516101bd9190611c8f565b3480156102ed57600080fd5b506102d4610960565b34801561030257600080fd5b506101b0610311366004611b37565b61096f565b34801561032257600080fd5b506101b0610331366004611b77565b610b2a565b34801561034257600080fd5b506101b0610351366004611b77565b610ccf565b34801561036257600080fd5b506102d4610ce9565b34801561037757600080fd5b506101e6610386366004611ab5565b610cf8565b34801561039757600080fd5b506101b06103a6366004611b77565b610d59565b3480156103b757600080fd5b506102d4610e6e565b3480156103cc57600080fd5b506102d4610e7d565b3480156103e157600080fd5b506101e66103f0366004611ab5565b610e8c565b34801561040157600080fd5b506101e6610410366004611bc2565b610f77565b34801561042157600080fd5b506101e6610430366004611ab5565b611041565b34801561044157600080fd5b506102d46110b2565b60065460405163355188ab60e01b815260009182916001600160a01b039091169063355188ab9061047f908790600401611c8f565b60206040518083038186803b15801561049757600080fd5b505afa1580156104ab573d6000803e3d6000fd5b505050506040513d601f19601f820116820180604052508101906104cf9190611bda565b90506000846001600160a01b031663313ce5676040518163ffffffff1660e01b815260040160206040518083038186803b15801561050c57600080fd5b505afa158015610520573d6000803e3d6000fd5b505050506040513d601f19601f820116820180604052508101906105449190611bf2565b60ff16905061055481600a61215c565b61055e838661222a565b61056891906120f6565b95945050505050565b6105796110c1565b6001600160a01b031661058a610960565b6001600160a01b0316146105b95760405162461bcd60e51b81526004016105b090611ef8565b60405180910390fd5b6001600160a01b0381166105df5760405162461bcd60e51b81526004016105b090611d99565b600680546001600160a01b0319166001600160a01b03838116919091179182905560405191169030907f76d908faefb2e5bb2e5551cce5530e7d157dd5ddafe26554d2320c5cc065009f90600090a350565b6106396110c1565b6001600160a01b031661064a610960565b6001600160a01b0316146106705760405162461bcd60e51b81526004016105b090611ef8565b6001600160a01b0381166106965760405162461bcd60e51b81526004016105b090611d99565b6001600160a01b03811660009081526008602052604090205460ff166106ce5760405162461bcd60e51b81526004016105b090611dd0565b6001600160a01b038116600081815260086020526040808220805460ff191690555130917f2f467772ef0a5478314f3bc2b37d4b2ad29b65f052b2cedc8e2972dda033529291a350565b60006107258484846110c5565b90505b9392505050565b60086020526000908152604090205460ff1681565b60075481565b6107526110c1565b6001600160a01b0316610763610960565b6001600160a01b0316146107895760405162461bcd60e51b81526004016105b090611ef8565b600380546001600160a01b039485166001600160a01b031991821617909155600480549385169382169390931790925560058054919093169116179055565b60065460025460405163355188ab60e01b815260009283926001600160a01b039182169263355188ab92610800921690600401611c8f565b60206040518083038186803b15801561081857600080fd5b505afa15801561082c573d6000803e3d6000fd5b505050506040513d601f19601f820116820180604052508101906108509190611bda565b90506000600260009054906101000a90046001600160a01b03166001600160a01b031663313ce5676040518163ffffffff1660e01b815260040160206040518083038186803b1580156108a257600080fd5b505afa1580156108b6573d6000803e3d6000fd5b505050506040513d601f19601f820116820180604052508101906108da9190611bf2565b60ff1690506108ea81600a61215c565b6108f4838661222a565b6108fe91906120f6565b949350505050565b61090e6110c1565b6001600160a01b031661091f610960565b6001600160a01b0316146109455760405162461bcd60e51b81526004016105b090611ef8565b61094f600061114e565b565b6006546001600160a01b031681565b6001546001600160a01b031690565b3360009081526008602052604081205460ff1661099e5760405162461bcd60e51b81526004016105b090611f8a565b600260005414156109c15760405162461bcd60e51b81526004016105b09061202f565b600260009081556001600160a01b03851615610a91576040516370a0823160e01b81526000906001600160a01b038716906370a0823190610a06903390600401611c8f565b60206040518083038186803b158015610a1e57600080fd5b505afa158015610a32573d6000803e3d6000fd5b505050506040513d601f19601f82011682018060405250810190610a569190611bda565b11610a735760405162461bcd60e51b81526004016105b090611d05565b610a7f853330866111a0565b610a8a8585856110c5565b9050610a9e565b610a9b8484610d59565b90505b60008111610abe5760405162461bcd60e51b81526004016105b090611ff8565b6000606480600754606480610ad3919061222a565b610add9190612249565b610ae7908561222a565b610af191906120f6565b610afb91906120f6565b600454909150600090610b1a906001600160a01b0316888888866112a5565b6001600055979650505050505050565b3360009081526008602052604081205460ff16610b595760405162461bcd60e51b81526004016105b090611f8a565b60026000541415610b7c5760405162461bcd60e51b81526004016105b09061202f565b600260009081556040516370a0823160e01b81526001600160a01b038516906370a0823190610baf903390600401611c8f565b60206040518083038186803b158015610bc757600080fd5b505afa158015610bdb573d6000803e3d6000fd5b505050506040513d601f19601f82011682018060405250810190610bff9190611bda565b11610c1c5760405162461bcd60e51b81526004016105b090611d05565b6001600160a01b03831615610c3757610c37833330856111a0565b6000610c43848461044a565b905060008111610c655760405162461bcd60e51b81526004016105b090611ff8565b6000606480600754606480610c7a919061222a565b610c849190612249565b610c8e908561222a565b610c9891906120f6565b610ca291906120f6565b600454909150600090610cc0906001600160a01b0316878785611733565b60016000559695505050505050565b600254600090610728906001600160a01b031684846110c5565b6005546001600160a01b031681565b610d006110c1565b6001600160a01b0316610d11610960565b6001600160a01b031614610d375760405162461bcd60e51b81526004016105b090611ef8565b600280546001600160a01b0319166001600160a01b0392909216919091179055565b60065460405163355188ab60e01b815260009182916001600160a01b039091169063355188ab90610d8e908790600401611c8f565b60206040518083038186803b158015610da657600080fd5b505afa158015610dba573d6000803e3d6000fd5b505050506040513d601f19601f82011682018060405250810190610dde9190611bda565b90506000846001600160a01b031663313ce5676040518163ffffffff1660e01b815260040160206040518083038186803b158015610e1b57600080fd5b505afa158015610e2f573d6000803e3d6000fd5b505050506040513d601f19601f82011682018060405250810190610e539190611bf2565b60ff16905081610e6482600a61215c565b61055e908661222a565b6003546001600160a01b031681565b6004546001600160a01b031681565b610e946110c1565b6001600160a01b0316610ea5610960565b6001600160a01b031614610ecb5760405162461bcd60e51b81526004016105b090611ef8565b6001600160a01b038116610ef15760405162461bcd60e51b81526004016105b090611d99565b6001600160a01b03811660009081526008602052604090205460ff1615610f2a5760405162461bcd60e51b81526004016105b090611e8a565b6001600160a01b038116600081815260086020526040808220805460ff191660011790555130917f8cd7b0b1a7316eb3e5d781d629cb8bf4e2fd9a8903bdd0f6b894c087d61b21f291a350565b610f7f6110c1565b6001600160a01b0316610f90610960565b6001600160a01b031614610fb65760405162461bcd60e51b81526004016105b090611ef8565b60008111610fd65760405162461bcd60e51b81526004016105b090611ec1565b60648110610ff65760405162461bcd60e51b81526004016105b090611fc1565b61100160648261222a565b60075560405130907f1b5c61e79b0735d33852817a0af9ed28b909c7c0a2a04abcc0c19bba6d6ba56490611036908490612066565b60405180910390a250565b6110496110c1565b6001600160a01b031661105a610960565b6001600160a01b0316146110805760405162461bcd60e51b81526004016105b090611ef8565b6001600160a01b0381166110a65760405162461bcd60e51b81526004016105b090611d3c565b6110af8161114e565b50565b6002546001600160a01b031681565b3390565b6006546040516318db3e8360e21b815260009182916001600160a01b039091169063636cfa0c906110fe90889088908890600401611cbd565b60206040518083038186803b15801561111657600080fd5b505afa15801561112a573d6000803e3d6000fd5b505050506040513d601f19601f820116820180604052508101906105689190611bda565b600180546001600160a01b038381166001600160a01b0319831681179093556040519116919082907f8be0079c531659141344cd1fd0a4f28419497f9722a3daafe3b4186f6b6457e090600090a35050565b600080856001600160a01b03166323b872dd8686866040516024016111c793929190611cbd565b6040516020818303038152906040529060e01b6020820180517bffffffffffffffffffffffffffffffffffffffffffffffffffffffff83818316178352505050506040516112159190611c56565b6000604051808303816000865af19150503d8060008114611252576040519150601f19603f3d011682016040523d82523d6000602084013e611257565b606091505b50915091508180156112815750805115806112815750808060200190518101906112819190611ba2565b61129d5760405162461bcd60e51b81526004016105b090611e2d565b505050505050565b6000808690506000816001600160a01b031663c45a01556040518163ffffffff1660e01b815260040160206040518083038186803b1580156112e657600080fd5b505afa1580156112fa573d6000803e3d6000fd5b505050506040513d601f19601f8201168201806040525081019061131e9190611ad1565b90506000866001600160a01b03166370a08231336040518263ffffffff1660e01b815260040161134e9190611c8f565b60206040518083038186803b15801561136657600080fd5b505afa15801561137a573d6000803e3d6000fd5b505050506040513d601f19601f8201168201806040525081019061139e9190611bda565b90506000836001600160a01b031663ad5c46486040518163ffffffff1660e01b815260040160206040518083038186803b1580156113db57600080fd5b505afa1580156113ef573d6000803e3d6000fd5b505050506040513d601f19601f820116820180604052508101906114139190611ad1565b90506001600160a01b038916156114315750876114318185896119b3565b60405163e6a4390560e01b81526000906001600160a01b0385169063e6a43905906114629085908d90600401611ca3565b60206040518083038186803b15801561147a57600080fd5b505afa15801561148e573d6000803e3d6000fd5b505050506040513d601f19601f820116820180604052508101906114b29190611ad1565b6001600160a01b03161461163557604080516002808252606082018352600092602083019080368337019050509050818160008151811061150357634e487b7160e01b600052603260045260246000fd5b60200260200101906001600160a01b031690816001600160a01b031681525050888160018151811061154557634e487b7160e01b600052603260045260246000fd5b6001600160a01b0392831660209182029290920101528a166115cc5760405163b6f9de9560e01b81526001600160a01b0386169063b6f9de95908a90611595908b9086903390429060040161206f565b6000604051808303818588803b1580156115ae57600080fd5b505af11580156115c2573d6000803e3d6000fd5b5050505050611633565b604051635c11d79560e01b81526001600160a01b03861690635c11d79590611600908b908b908690339042906004016120a4565b600060405180830381600087803b15801561161a57600080fd5b505af115801561162e573d6000803e3d6000fd5b505050505b505b6040516370a0823160e01b81526000906001600160a01b038a16906370a0823190611664903390600401611c8f565b60206040518083038186803b15801561167c57600080fd5b505afa158015611690573d6000803e3d6000fd5b505050506040513d601f19601f820116820180604052508101906116b49190611bda565b9050886001600160a01b03168a6001600160a01b03168c6001600160a01b03167fd30edfe8aafab67575a170d015da0337bcb39e5c9af1b2dfb9294fb75b344ac38b8b88876117039190612249565b604051611712939291906120e0565b60405180910390a46117248382612249565b9b9a5050505050505050505050565b6000808590506000816001600160a01b031663c45a01556040518163ffffffff1660e01b815260040160206040518083038186803b15801561177457600080fd5b505afa158015611788573d6000803e3d6000fd5b505050506040513d601f19601f820116820180604052508101906117ac9190611ad1565b905033316117bb8784886119b3565b60055460405163e6a4390560e01b81526000916001600160a01b038581169263e6a43905926117f1928d92911690600401611ca3565b60206040518083038186803b15801561180957600080fd5b505afa15801561181d573d6000803e3d6000fd5b505050506040513d601f19601f820116820180604052508101906118419190611ad1565b6001600160a01b03161461194857604080516002808252606082018352600092602083019080368337019050509050878160008151811061189257634e487b7160e01b600052603260045260246000fd5b6001600160a01b0392831660209182029290920101526005548251911690829060019081106118d157634e487b7160e01b600052603260045260246000fd5b6001600160a01b03928316602091820292909201015260405163791ac94760e01b81529085169063791ac94790611914908a908a908690339042906004016120a4565b600060405180830381600087803b15801561192e57600080fd5b505af1158015611942573d6000803e3d6000fd5b50505050505b33316001600160a01b03888116908a167f1df84ee81df9963f5d40b2a3f717360c1f62daa6f21f69580398a8d570de644c89896119858787612249565b604051611994939291906120e0565b60405180910390a36119a68282612249565b9998505050505050505050565b600080846001600160a01b031663095ea7b385856040516024016119d8929190611ce1565b6040516020818303038152906040529060e01b6020820180517bffffffffffffffffffffffffffffffffffffffffffffffffffffffff8381831617835250505050604051611a269190611c56565b6000604051808303816000865af19150503d8060008114611a63576040519150601f19603f3d011682016040523d82523d6000602084013e611a68565b606091505b5091509150818015611a92575080511580611a92575080806020019051810190611a929190611ba2565b611aae5760405162461bcd60e51b81526004016105b090611f2d565b5050505050565b600060208284031215611ac6578081fd5b813561072881612276565b600060208284031215611ae2578081fd5b815161072881612276565b600080600060608486031215611b01578182fd5b8335611b0c81612276565b92506020840135611b1c81612276565b91506040840135611b2c81612276565b809150509250925092565b600080600060608486031215611b4b578283fd5b8335611b5681612276565b92506020840135611b6681612276565b929592945050506040919091013590565b60008060408385031215611b89578182fd5b8235611b9481612276565b946020939093013593505050565b600060208284031215611bb3578081fd5b81518015158114610728578182fd5b600060208284031215611bd3578081fd5b5035919050565b600060208284031215611beb578081fd5b5051919050565b600060208284031215611c03578081fd5b815160ff81168114610728578182fd5b6000815180845260208085019450808401835b83811015611c4b5781516001600160a01b031687529582019590820190600101611c26565b509495945050505050565b60008251815b81811015611c765760208186018101518583015201611c5c565b81811115611c845782828501525b509190910192915050565b6001600160a01b0391909116815260200190565b6001600160a01b0392831681529116602082015260400190565b6001600160a01b039384168152919092166020820152604081019190915260600190565b6001600160a01b03929092168252602082015260400190565b901515815260200190565b60208082526013908201527f556e6f52653a207a65726f2062616c616e636500000000000000000000000000604082015260600190565b60208082526026908201527f4f776e61626c653a206e6577206f776e657220697320746865207a65726f206160408201527f6464726573730000000000000000000000000000000000000000000000000000606082015260800190565b60208082526013908201527f556e6f52653a207a65726f206164647265737300000000000000000000000000604082015260600190565b6020808252602c908201527f556e6f52653a207768697465206c6973742072656d6f766564206f7220756e6160408201527f6464656420616c72656164790000000000000000000000000000000000000000606082015260800190565b60208082526031908201527f5472616e7366657248656c7065723a3a7472616e7366657246726f6d3a20747260408201527f616e7366657246726f6d206661696c6564000000000000000000000000000000606082015260800190565b60208082526019908201527f556e6f52653a207768697465206c69737420616c726561647900000000000000604082015260600190565b60208082526014908201527f556e6f52653a207a65726f20736c697070616765000000000000000000000000604082015260600190565b6020808252818101527f4f776e61626c653a2063616c6c6572206973206e6f7420746865206f776e6572604082015260600190565b6020808252602b908201527f5472616e7366657248656c7065723a3a73616665417070726f76653a2061707060408201527f726f7665206661696c6564000000000000000000000000000000000000000000606082015260800190565b6020808252601e908201527f556e6f52653a2045786368616e67654167656e7420466f7262696464656e0000604082015260600190565b6020808252601d908201527f556e6f52653a203130302520736c697070616765206f766572666c6f77000000604082015260600190565b6020808252600f908201527f556e6f52653a206e6f2070616972730000000000000000000000000000000000604082015260600190565b6020808252601f908201527f5265656e7472616e637947756172643a207265656e7472616e742063616c6c00604082015260600190565b90815260200190565b6000858252608060208301526120886080830186611c13565b6001600160a01b03949094166040830152506060015292915050565b600086825285602083015260a060408301526120c360a0830186611c13565b6001600160a01b0394909416606083015250608001529392505050565b9283526020830191909152604082015260600190565b60008261211157634e487b7160e01b81526012600452602481fd5b500490565b80825b60018086116121285750612153565b81870482111561213a5761213a612260565b8086161561214757918102915b9490941c938002612119565b94509492505050565b6000610728600019848460008261217557506001610728565b8161218257506000610728565b816001811461219857600281146121a2576121cf565b6001915050610728565b60ff8411156121b3576121b3612260565b6001841b9150848211156121c9576121c9612260565b50610728565b5060208310610133831016604e8410600b8410161715612202575081810a838111156121fd576121fd612260565b610728565b61220f8484846001612116565b80860482111561222157612221612260565b02949350505050565b600081600019048311821515161561224457612244612260565b500290565b60008282101561225b5761225b612260565b500390565b634e487b7160e01b600052601160045260246000fd5b6001600160a01b03811681146110af57600080fdfea2646970667358221220376a00dd52b1cd763e13f1b9a8f9757e3c4998a0ba833173ee199ad7e7c0e65864736f6c63430008000033",
  "devdoc": {
    "kind": "dev",
    "methods": {
      "owner()": {
        "details": "Returns the address of the current owner."
      },
      "renounceOwnership()": {
        "details": "Leaves the contract without owner. It will not be possible to call `onlyOwner` functions anymore. Can only be called by the current owner. NOTE: Renouncing ownership will leave the contract without an owner, thereby removing any functionality that is only available to the owner."
      },
      "transferOwnership(address)": {
        "details": "Transfers ownership of the contract to a new account (`newOwner`). Can only be called by the current owner."
      }
    },
    "version": 1
  },
  "userdoc": {
    "kind": "user",
    "methods": {},
    "version": 1
  },
  "storageLayout": {
    "storage": [
      {
        "astId": 114,
        "contract": "contracts/ExchangeAgent.sol:ExchangeAgent",
        "label": "_status",
        "offset": 0,
        "slot": "0",
        "type": "t_uint256"
      },
      {
        "astId": 7,
        "contract": "contracts/ExchangeAgent.sol:ExchangeAgent",
        "label": "_owner",
        "offset": 0,
        "slot": "1",
        "type": "t_address"
      },
      {
        "astId": 4026,
        "contract": "contracts/ExchangeAgent.sol:ExchangeAgent",
        "label": "USDC_TOKEN",
        "offset": 0,
        "slot": "2",
        "type": "t_address"
      },
      {
        "astId": 4028,
        "contract": "contracts/ExchangeAgent.sol:ExchangeAgent",
        "label": "UNISWAP_FACTORY",
        "offset": 0,
        "slot": "3",
        "type": "t_address"
      },
      {
        "astId": 4030,
        "contract": "contracts/ExchangeAgent.sol:ExchangeAgent",
        "label": "UNISWAP_ROUTER",
        "offset": 0,
        "slot": "4",
        "type": "t_address"
      },
      {
        "astId": 4032,
        "contract": "contracts/ExchangeAgent.sol:ExchangeAgent",
        "label": "WETH",
        "offset": 0,
        "slot": "5",
        "type": "t_address"
      },
      {
        "astId": 4034,
        "contract": "contracts/ExchangeAgent.sol:ExchangeAgent",
        "label": "oraclePriceFeed",
        "offset": 0,
        "slot": "6",
        "type": "t_address"
      },
      {
        "astId": 4036,
        "contract": "contracts/ExchangeAgent.sol:ExchangeAgent",
        "label": "slippage",
        "offset": 0,
        "slot": "7",
        "type": "t_uint256"
      },
      {
        "astId": 4043,
        "contract": "contracts/ExchangeAgent.sol:ExchangeAgent",
        "label": "whiteList",
        "offset": 0,
        "slot": "8",
        "type": "t_mapping(t_address,t_bool)"
      }
    ],
    "types": {
      "t_address": {
        "encoding": "inplace",
        "label": "address",
        "numberOfBytes": "20"
      },
      "t_bool": {
        "encoding": "inplace",
        "label": "bool",
        "numberOfBytes": "1"
      },
      "t_mapping(t_address,t_bool)": {
        "encoding": "mapping",
        "key": "t_address",
        "label": "mapping(address => bool)",
        "numberOfBytes": "32",
        "value": "t_bool"
      },
      "t_uint256": {
        "encoding": "inplace",
        "label": "uint256",
        "numberOfBytes": "32"
      }
    }
  }
}