{
  "address": "0x7cDBa68B8e3dfb8b6b0f66eC01e616848488EF45",
  "abi": [
    {
      "inputs": [
        {
          "internalType": "address",
          "name": "_exchangeAgent",
          "type": "address"
        },
        {
          "internalType": "address",
          "name": "_premiumPool",
          "type": "address"
        },
        {
          "internalType": "address",
          "name": "_capitalAgent",
          "type": "address"
        },
        {
          "internalType": "address",
          "name": "_multiSigWallet",
          "type": "address"
        }
      ],
      "stateMutability": "nonpayable",
      "type": "constructor"
    },
    {
      "anonymous": false,
      "inputs": [
        {
          "indexed": false,
          "internalType": "uint16",
          "name": "_protocolId",
          "type": "uint16"
        },
        {
          "indexed": true,
          "internalType": "address",
          "name": "_protocol",
          "type": "address"
        }
      ],
      "name": "LogSetBlackListProtocol",
      "type": "event"
    },
    {
      "anonymous": false,
      "inputs": [
        {
          "indexed": true,
          "internalType": "address",
          "name": "_premiumPool",
          "type": "address"
        }
      ],
      "name": "LogSetPremiumPool",
      "type": "event"
    },
    {
      "anonymous": false,
      "inputs": [
        {
          "indexed": false,
          "internalType": "bool",
          "name": "_status",
          "type": "bool"
        }
      ],
      "name": "LogUpdateCheckIfProtocolInWhitelistArray",
      "type": "event"
    },
    {
      "anonymous": false,
      "inputs": [
        {
          "indexed": true,
          "internalType": "address",
          "name": "previousOwner",
          "type": "address"
        },
        {
          "indexed": true,
          "internalType": "address",
          "name": "newOwner",
          "type": "address"
        }
      ],
      "name": "OwnershipTransferred",
      "type": "event"
    },
    {
      "anonymous": false,
      "inputs": [
        {
          "indexed": false,
          "internalType": "uint16",
          "name": "_protocolIdx",
          "type": "uint16"
        },
        {
          "indexed": false,
          "internalType": "address",
          "name": "_protocol",
          "type": "address"
        }
      ],
      "name": "ProtocolCreated",
      "type": "event"
    },
    {
      "inputs": [],
      "name": "USDC_TOKEN",
      "outputs": [
        {
          "internalType": "address",
          "name": "",
          "type": "address"
        }
      ],
      "stateMutability": "view",
      "type": "function"
    },
    {
      "inputs": [
        {
          "internalType": "address",
          "name": "_protocolAddress",
          "type": "address"
        }
      ],
      "name": "addProtocol",
      "outputs": [],
      "stateMutability": "nonpayable",
      "type": "function"
    },
    {
      "inputs": [],
      "name": "allProtocolsLength",
      "outputs": [
        {
          "internalType": "uint256",
          "name": "",
          "type": "uint256"
        }
      ],
      "stateMutability": "view",
      "type": "function"
    },
    {
      "inputs": [
        {
          "internalType": "address",
          "name": "_premiumCurrency",
          "type": "address"
        }
      ],
      "name": "approvePremiumInPolicy",
      "outputs": [],
      "stateMutability": "nonpayable",
      "type": "function"
    },
    {
      "inputs": [],
      "name": "capitalAgent",
      "outputs": [
        {
          "internalType": "address",
          "name": "",
          "type": "address"
        }
      ],
      "stateMutability": "view",
      "type": "function"
    },
    {
      "inputs": [],
      "name": "checkIfProtocolInWhitelistArray",
      "outputs": [
        {
          "internalType": "bool",
          "name": "",
          "type": "bool"
        }
      ],
      "stateMutability": "view",
      "type": "function"
    },
    {
      "inputs": [],
      "name": "exchangeAgent",
      "outputs": [
        {
          "internalType": "address",
          "name": "",
          "type": "address"
        }
      ],
      "stateMutability": "view",
      "type": "function"
    },
    {
      "inputs": [
        {
          "internalType": "uint16",
          "name": "",
          "type": "uint16"
        }
      ],
      "name": "getProtocol",
      "outputs": [
        {
          "internalType": "address",
          "name": "protocolAddress",
          "type": "address"
        },
        {
          "internalType": "bool",
          "name": "isBlackList",
          "type": "bool"
        }
      ],
      "stateMutability": "view",
      "type": "function"
    },
    {
      "inputs": [
        {
          "internalType": "uint16",
          "name": "_protocolIdx",
          "type": "uint16"
        }
      ],
      "name": "getProtocolData",
      "outputs": [
        {
          "internalType": "address",
          "name": "protocolAddress",
          "type": "address"
        },
        {
          "internalType": "bool",
          "name": "isBlackList",
          "type": "bool"
        }
      ],
      "stateMutability": "view",
      "type": "function"
    },
    {
      "inputs": [
        {
          "internalType": "address",
          "name": "",
          "type": "address"
        }
      ],
      "name": "getProtocolId",
      "outputs": [
        {
          "internalType": "uint16",
          "name": "",
          "type": "uint16"
        }
      ],
      "stateMutability": "view",
      "type": "function"
    },
    {
      "inputs": [
        {
          "internalType": "address",
          "name": "_exchangeAgent",
          "type": "address"
        },
        {
          "internalType": "address",
          "name": "_premiumPool",
          "type": "address"
        },
        {
          "internalType": "address",
          "name": "_capitalAgent",
          "type": "address"
        }
      ],
      "name": "newSalesPolicy",
      "outputs": [
        {
          "internalType": "address",
          "name": "",
          "type": "address"
        }
      ],
      "stateMutability": "nonpayable",
      "type": "function"
    },
    {
      "inputs": [],
      "name": "owner",
      "outputs": [
        {
          "internalType": "address",
          "name": "",
          "type": "address"
        }
      ],
      "stateMutability": "view",
      "type": "function"
    },
    {
      "inputs": [],
      "name": "premiumPool",
      "outputs": [
        {
          "internalType": "address",
          "name": "",
          "type": "address"
        }
      ],
      "stateMutability": "view",
      "type": "function"
    },
    {
      "inputs": [],
      "name": "renounceOwnership",
      "outputs": [],
      "stateMutability": "nonpayable",
      "type": "function"
    },
    {
      "inputs": [],
      "name": "salesPolicy",
      "outputs": [
        {
          "internalType": "address",
          "name": "",
          "type": "address"
        }
      ],
      "stateMutability": "view",
      "type": "function"
    },
    {
      "inputs": [
        {
          "internalType": "address",
          "name": "_protocol",
          "type": "address"
        }
      ],
      "name": "setBlackListProtocolByAddress",
      "outputs": [],
      "stateMutability": "nonpayable",
      "type": "function"
    },
    {
      "inputs": [
        {
          "internalType": "uint16",
          "name": "_protocolId",
          "type": "uint16"
        }
      ],
      "name": "setBlackListProtocolById",
      "outputs": [],
      "stateMutability": "nonpayable",
      "type": "function"
    },
    {
      "inputs": [
        {
          "internalType": "uint256",
          "name": "_maxDeadline",
          "type": "uint256"
        }
      ],
      "name": "setBuyPolicyMaxDeadlineInPolicy",
      "outputs": [],
      "stateMutability": "nonpayable",
      "type": "function"
    },
    {
      "inputs": [
        {
          "internalType": "address",
          "name": "_capitalAgent",
          "type": "address"
        }
      ],
      "name": "setCapitalAgentInPolicy",
      "outputs": [],
      "stateMutability": "nonpayable",
      "type": "function"
    },
    {
      "inputs": [
        {
          "internalType": "address",
          "name": "_exchangeAgent",
          "type": "address"
        }
      ],
      "name": "setExchangeAgentInPolicy",
      "outputs": [],
      "stateMutability": "nonpayable",
      "type": "function"
    },
    {
      "inputs": [
        {
          "internalType": "address",
          "name": "_premiumPool",
          "type": "address"
        }
      ],
      "name": "setPremiumPool",
      "outputs": [],
      "stateMutability": "nonpayable",
      "type": "function"
    },
    {
      "inputs": [
        {
          "internalType": "address",
          "name": "_premiumPool",
          "type": "address"
        }
      ],
      "name": "setPremiumPoolInPolicy",
      "outputs": [],
      "stateMutability": "nonpayable",
      "type": "function"
    },
    {
      "inputs": [
        {
          "internalType": "string",
          "name": "_uri",
          "type": "string"
        }
      ],
      "name": "setProtocolURIInPolicy",
      "outputs": [],
      "stateMutability": "nonpayable",
      "type": "function"
    },
    {
      "inputs": [
        {
          "internalType": "address",
          "name": "_signer",
          "type": "address"
        }
      ],
      "name": "setSignerInPolicy",
      "outputs": [],
      "stateMutability": "nonpayable",
      "type": "function"
    },
    {
      "inputs": [
        {
          "internalType": "address",
          "name": "_usdc",
          "type": "address"
        }
      ],
      "name": "setUSDCInPolicy",
      "outputs": [],
      "stateMutability": "nonpayable",
      "type": "function"
    },
    {
      "inputs": [
        {
          "internalType": "address",
          "name": "newOwner",
          "type": "address"
        }
      ],
      "name": "transferOwnership",
      "outputs": [],
      "stateMutability": "nonpayable",
      "type": "function"
    },
    {
      "inputs": [
        {
          "internalType": "bool",
          "name": "_status",
          "type": "bool"
        }
      ],
      "name": "updateCheckIfProtocolInWhitelistArray",
      "outputs": [],
      "stateMutability": "nonpayable",
      "type": "function"
    }
  ],
  "transactionHash": "0xc4e476ea915575836d6efd7d789937f41c061e655f20a1df6d64c78725fd1e24",
  "args": [
    "0xe036608523D1C1B0b7220d26E787CCc60d69D494",
    "0x2dcB2ED309967bd3040e623826ED801eDF5c341D",
    "0x6B456aAe97D912E9fDe5a8d03438eAB71037AE37",
    "0x6E1ae7E0A77e51A9B0a1F58D57a023493FBfbe0c"
  ],
  "solcInputHash": "df16f6c70360905cdb5c9869a6778742",
  "bytecode": "0x60806040523480156200001157600080fd5b5060405162005de338038062005de383398101604081905262000034916200024b565b60016000556200004d620000476200014c565b62000150565b6001600160a01b0384166200007f5760405162461bcd60e51b815260040162000076906200039b565b60405180910390fd5b6001600160a01b038316620000a85760405162461bcd60e51b8152600401620000769062000322565b6001600160a01b038216620000d15760405162461bcd60e51b81526004016200007690620002a7565b6001600160a01b038116620000fa5760405162461bcd60e51b8152600401620000769062000359565b600280546001600160a01b038086166001600160a01b0319928316179092556003805487841690831617905560048054928516929091169190911790556200014281620001a2565b5050505062000411565b3390565b600180546001600160a01b038381166001600160a01b0319831681179093556040519116919082907f8be0079c531659141344cd1fd0a4f28419497f9722a3daafe3b4186f6b6457e090600090a35050565b620001ac6200014c565b6001600160a01b0316620001bf6200021f565b6001600160a01b031614620001e85760405162461bcd60e51b81526004016200007690620003dc565b6001600160a01b038116620002115760405162461bcd60e51b81526004016200007690620002dc565b6200021c8162000150565b50565b6001546001600160a01b031690565b80516001600160a01b03811681146200024657600080fd5b919050565b6000806000806080858703121562000261578384fd5b6200026c856200022e565b93506200027c602086016200022e565b92506200028c604086016200022e565b91506200029c606086016200022e565b905092959194509250565b6020808252818101527f556e6f52653a207a65726f206361706974616c4167656e742061646472657373604082015260600190565b60208082526026908201527f4f776e61626c653a206e6577206f776e657220697320746865207a65726f206160408201526564647265737360d01b606082015260800190565b6020808252601f908201527f556e6f52653a207a65726f207072656d69756d506f6f6c206164647265737300604082015260600190565b60208082526022908201527f556e6f52653a207a65726f206d756c746973696777616c6c6574206164647265604082015261737360f01b606082015260800190565b60208082526021908201527f556e6f52653a207a65726f2065786368616e67654167656e74206164647265736040820152607360f81b606082015260800190565b6020808252818101527f4f776e61626c653a2063616c6c6572206973206e6f7420746865206f776e6572604082015260600190565b6159c280620004216000396000f3fe60806040523480156200001157600080fd5b5060043610620001e45760003560e01c8063b381ff821162000111578063d2c7c2a411620000a5578063df0e4a61116200007b578063df0e4a6114620003e9578063dfca97811462000400578063f2fde38b1462000417578063fa569274146200042e57620001e4565b8063d2c7c2a414620003b1578063d9203b9114620003c8578063dc962e4514620003d257620001e4565b8063bcd54f0c11620000e7578063bcd54f0c1462000362578063c3c3b55b1462000379578063c5870a4b1462000383578063d191097e146200039a57620001e4565b8063b381ff82146200030b578063b64a775e1462000324578063bbd9d8e1146200033b57620001e4565b8063715018a611620001895780638da5cb5b116200015f5780638da5cb5b14620002bc578063924589c514620002c6578063aeba91d014620002dd578063b31b9fee14620002f457620001e4565b8063715018a61462000284578063771d4c28146200028e5780638bc798dc14620002a557620001e4565b80634219816011620001bf57806342198160146200023b5780634ba69faa14620002545780636c18443d146200025e57620001e4565b806302f3318d14620001e95780631bcc24721462000202578063222a5df61462000219575b600080fd5b62000200620001fa366004620010b3565b62000438565b005b6200020062000213366004620010b3565b62000519565b62000223620005d2565b60405162000232919062001284565b60405180910390f35b62000245620005e2565b6040516200023291906200122a565b62000245620005f1565b620002756200026f366004620010b3565b62000600565b6040516200023291906200141c565b6200020062000616565b620002006200029f366004620010b3565b6200066a565b62000200620002b6366004620010b3565b620007b2565b6200024562000853565b62000200620002d7366004620011ed565b62000862565b62000200620002ee366004620010b3565b62000918565b6200024562000305366004620010d7565b620009db565b6200031562000b20565b60405162000232919062001448565b6200020062000335366004620010b3565b62000b33565b620003526200034c366004620011ed565b62000bd4565b6040516200023292919062001269565b620002006200037336600462001142565b62000c00565b6200024562000c78565b6200020062000394366004620010b3565b62000c87565b62000200620003ab36600462001211565b62000d28565b62000352620003c2366004620011ed565b62000dc3565b6200024562000dea565b62000200620003e336600462001120565b62000df9565b62000200620003fa366004620010b3565b62000e93565b6200020062000411366004620010b3565b62000f22565b6200020062000428366004620010b3565b62000f9a565b6200024562001017565b6200044262001026565b6001600160a01b03166200045562000853565b6001600160a01b031614620004875760405162461bcd60e51b81526004016200047e9062001379565b60405180910390fd5b6001600160a01b038116620004b05760405162461bcd60e51b81526004016200047e9062001342565b600554604051630de6123960e11b81526001600160a01b0390911690631bcc247290620004e29084906004016200122a565b600060405180830381600087803b158015620004fd57600080fd5b505af115801562000512573d6000803e3d6000fd5b5050505050565b6200052362001026565b6001600160a01b03166200053662000853565b6001600160a01b0316146200055f5760405162461bcd60e51b81526004016200047e9062001379565b6001600160a01b038116620005885760405162461bcd60e51b81526004016200047e9062001342565b600280546001600160a01b0319166001600160a01b0383169081179091556040517faa0150507cbcab99f33127173fcbdd580e5710d253406b99952e1feda3cdcc0e90600090a250565b600154600160a01b900460ff1681565b6004546001600160a01b031681565b6002546001600160a01b031681565b60076020526000908152604090205461ffff1681565b6200062062001026565b6001600160a01b03166200063362000853565b6001600160a01b0316146200065c5760405162461bcd60e51b81526004016200047e9062001379565b6200066860006200102a565b565b6200067462001026565b6001600160a01b03166200068762000853565b6001600160a01b031614620006b05760405162461bcd60e51b81526004016200047e9062001379565b60026000541415620006d65760405162461bcd60e51b81526004016200047e90620013e5565b6002600055620006e760086200107c565b6000620006f5600862001085565b6040805180820182526001600160a01b038581168083526000602080850182815261ffff8816808452600683528784209651875492516001600160a01b031990931696169590951760ff60a01b1916600160a01b9115159190910217909455908152600790925290829020805461ffff19169091179055519091507fc3971223019c1361f0a91605997c54932599b5f815f2f7d49e183fbc2101402990620007a190839085906200142b565b60405180910390a150506001600055565b620007bc62001026565b6001600160a01b0316620007cf62000853565b6001600160a01b031614620007f85760405162461bcd60e51b81526004016200047e9062001379565b6001600160a01b038116620008215760405162461bcd60e51b81526004016200047e9062001342565b600554604051636c19e78360e01b81526001600160a01b0390911690636c19e78390620004e29084906004016200122a565b6001546001600160a01b031690565b6200086c62001026565b6001600160a01b03166200087f62000853565b6001600160a01b031614620008a85760405162461bcd60e51b81526004016200047e9062001379565b61ffff811660009081526006602052604090819020805460ff60a01b1916600160a01b179081905590516001600160a01b03909116907f599cca7c0d636819ca3833dcdbcd266536199c19522d35eb59e13d07f1041770906200090d9084906200141c565b60405180910390a250565b6200092262001026565b6001600160a01b03166200093562000853565b6001600160a01b0316146200095e5760405162461bcd60e51b81526004016200047e9062001379565b6001600160a01b03811660008181526007602090815260408083205461ffff16808452600690925291829020805460ff60a01b1916600160a01b17905590519091907f599cca7c0d636819ca3833dcdbcd266536199c19522d35eb59e13d07f104177090620009cf9084906200141c565b60405180910390a25050565b6000620009e762001026565b6001600160a01b0316620009fa62000853565b6001600160a01b03161462000a235760405162461bcd60e51b81526004016200047e9062001379565b6002600054141562000a495760405162461bcd60e51b81526004016200047e90620013e5565b600260008190555060003085858560405162000a65906200108d565b62000a7494939291906200123e565b604051809103906000f08015801562000a91573d6000803e3d6000fd5b50600580546001600160a01b0319166001600160a01b038381169190911790915560048054604051637d4163d360e01b815293945090911691637d4163d39162000ade918591016200122a565b600060405180830381600087803b15801562000af957600080fd5b505af115801562000b0e573d6000803e3d6000fd5b50506001600055509095945050505050565b600062000b2e600862001085565b905090565b62000b3d62001026565b6001600160a01b031662000b5062000853565b6001600160a01b03161462000b795760405162461bcd60e51b81526004016200047e9062001379565b6001600160a01b03811662000ba25760405162461bcd60e51b81526004016200047e9062001342565b600554604051630c5006c760e11b81526001600160a01b03909116906318a00d8e90620004e29084906004016200122a565b61ffff166000908152600660205260409020546001600160a01b03811691600160a01b90910460ff1690565b62000c0a62001026565b6001600160a01b031662000c1d62000853565b6001600160a01b03161462000c465760405162461bcd60e51b81526004016200047e9062001379565b6005546040516313b41ce760e31b81526001600160a01b0390911690639da0e73890620004e29084906004016200128f565b6005546001600160a01b031681565b62000c9162001026565b6001600160a01b031662000ca462000853565b6001600160a01b03161462000ccd5760405162461bcd60e51b81526004016200047e9062001379565b6001600160a01b03811662000cf65760405162461bcd60e51b81526004016200047e9062001342565b60055460405163c2eb8eb960e01b81526001600160a01b039091169063c2eb8eb990620004e29084906004016200122a565b62000d3262001026565b6001600160a01b031662000d4562000853565b6001600160a01b03161462000d6e5760405162461bcd60e51b81526004016200047e9062001379565b6000811162000d915760405162461bcd60e51b81526004016200047e90620013ae565b60055460405163fda2071d60e01b81526001600160a01b039091169063fda2071d90620004e290849060040162001448565b6006602052600090815260409020546001600160a01b03811690600160a01b900460ff1682565b6003546001600160a01b031681565b62000e0362001026565b6001600160a01b031662000e1662000853565b6001600160a01b03161462000e3f5760405162461bcd60e51b81526004016200047e9062001379565b6001805460ff60a01b1916600160a01b831515021790556040517f8488d1fbbfabc3e41bea48b6d06c5139182eccbd9942a27a1142748120d028589062000e8890839062001284565b60405180910390a150565b62000e9d62001026565b6001600160a01b031662000eb062000853565b6001600160a01b03161462000ed95760405162461bcd60e51b81526004016200047e9062001379565b600980546001600160a01b0319166001600160a01b03838116919091179091556005546040516359f044d160e11b815291169063b3e089a290620004e29084906004016200122a565b62000f2c62001026565b6001600160a01b031662000f3f62000853565b6001600160a01b03161462000f685760405162461bcd60e51b81526004016200047e9062001379565b6005546040516321ecf70160e01b81526001600160a01b03909116906321ecf70190620004e29084906004016200122a565b62000fa462001026565b6001600160a01b031662000fb762000853565b6001600160a01b03161462000fe05760405162461bcd60e51b81526004016200047e9062001379565b6001600160a01b038116620010095760405162461bcd60e51b81526004016200047e90620012e5565b62001014816200102a565b50565b6009546001600160a01b031681565b3390565b600180546001600160a01b038381166001600160a01b0319831681179093556040519116919082907f8be0079c531659141344cd1fd0a4f28419497f9722a3daafe3b4186f6b6457e090600090a35050565b80546001019055565b80545b919050565b614525806200146883390190565b80356001600160a01b03811681146200108857600080fd5b600060208284031215620010c5578081fd5b620010d0826200109b565b9392505050565b600080600060608486031215620010ec578182fd5b620010f7846200109b565b925062001107602085016200109b565b915062001117604085016200109b565b90509250925092565b60006020828403121562001132578081fd5b81358015158114620010d0578182fd5b6000602080838503121562001155578182fd5b823567ffffffffffffffff808211156200116d578384fd5b818501915085601f83011262001181578384fd5b81358181111562001196576200119662001451565b604051601f8201601f1916810185018381118282101715620011bc57620011bc62001451565b6040528181528382018501881015620011d3578586fd5b818585018683013790810190930193909352509392505050565b600060208284031215620011ff578081fd5b813561ffff81168114620010d0578182fd5b60006020828403121562001223578081fd5b5035919050565b6001600160a01b0391909116815260200190565b6001600160a01b03948516815292841660208401529083166040830152909116606082015260800190565b6001600160a01b039290921682521515602082015260400190565b901515815260200190565b6000602080835283518082850152825b81811015620012bd578581018301518582016040015282016200129f565b81811115620012cf5783604083870101525b50601f01601f1916929092016040019392505050565b60208082526026908201527f4f776e61626c653a206e6577206f776e657220697320746865207a65726f206160408201527f6464726573730000000000000000000000000000000000000000000000000000606082015260800190565b60208082526013908201527f556e6f52653a207a65726f206164647265737300000000000000000000000000604082015260600190565b6020808252818101527f4f776e61626c653a2063616c6c6572206973206e6f7420746865206f776e6572604082015260600190565b60208082526018908201527f556e6f52653a207a65726f206d617820646561646c696e650000000000000000604082015260600190565b6020808252601f908201527f5265656e7472616e637947756172643a207265656e7472616e742063616c6c00604082015260600190565b61ffff91909116815260200190565b61ffff9290921682526001600160a01b0316602082015260400190565b90815260200190565b634e487b7160e01b600052604160045260246000fdfe60a06040526000196012553480156200001757600080fd5b5060405162004525380380620045258339810160408190526200003a9162000357565b6040518060400160405280601081526020016f506f6c69637920696e737572616e636560801b8152506040518060400160405280601081526020016f506f6c69637920696e737572616e636560801b8152506040518060400160405280601881526020017f427579506f6c6963794d6574615472616e73616374696f6e0000000000000000815250604051806040016040528060018152602001603160f81b81525081816040518060800160405280604f8152602001620044d6604f9139805190602001208280519060200120828051906020012030620001206200029060201b60201c565b60405162000136959493929190602001620003b3565b60408051601f19818403018152919052805160209182012060005586516200016a9550600294509087019250905062000294565b5080516200018090600390602084019062000294565b50506001600855506001600160a01b038416620001ba5760405162461bcd60e51b8152600401620001b1906200044b565b60405180910390fd5b6001600160a01b038316620001e35760405162461bcd60e51b8152600401620001b19062000482565b6001600160a01b0382166200020c5760405162461bcd60e51b8152600401620001b19062000414565b6001600160a01b038116620002355760405162461bcd60e51b8152600401620001b190620003df565b60609390931b6001600160601b031916608052600a80546001600160a01b03199081166001600160a01b0394851617909155600c8054821694841694909417909355600b8054909316911617905562093a8060095562000500565b4690565b828054620002a290620004c3565b90600052602060002090601f016020900481019282620002c6576000855562000311565b82601f10620002e157805160ff191683800117855562000311565b8280016001018555821562000311579182015b8281111562000311578251825591602001919060010190620002f4565b506200031f92915062000323565b5090565b5b808211156200031f576000815560010162000324565b80516001600160a01b03811681146200035257600080fd5b919050565b600080600080608085870312156200036d578384fd5b62000378856200033a565b935062000388602086016200033a565b925062000398604086016200033a565b9150620003a8606086016200033a565b905092959194509250565b948552602085019390935260408401919091526001600160a01b03166060830152608082015260a00190565b6020808252818101527f556e6f52653a207a65726f206361706974616c4167656e742061646472657373604082015260600190565b6020808252601f908201527f556e6f52653a207a65726f207072656d69756d506f6f6c206164647265737300604082015260600190565b6020808252601b908201527f556e6f52653a207a65726f20666163746f727920616464726573730000000000604082015260600190565b60208082526021908201527f556e6f52653a207a65726f2065786368616e67654167656e74206164647265736040820152607360f81b606082015260800190565b600281046001821680620004d857607f821691505b60208210811415620004fa57634e487b7160e01b600052602260045260246000fd5b50919050565b60805160601c613f6a6200056c60003960008181610a0101528181610acc01528181610b97015281816112c0015281816113fc015281816116a001528181611759015281816118240152818161191f01528181612156015281816122ce01526123790152613f6a6000f3fe6080604052600436106102385760003560e01c80636352211e11610138578063b88d4fde116100b0578063d341960b1161007f578063e985e9c511610064578063e985e9c514610633578063fa56927414610653578063fda2071d146106685761023f565b8063d341960b14610609578063de4e42011461061e5761023f565b8063b88d4fde14610594578063c2eb8eb9146105b4578063c45a0155146105d4578063c87b56dd146105e95761023f565b806395d89b4111610107578063a22cb465116100ec578063a22cb46514610534578063a5d5e14214610554578063b3e089a2146105745761023f565b806395d89b41146104ff5780639da0e738146105145761023f565b80636352211e146104705780636c19e7831461049057806370a08231146104b05780637a5402e9146104d05761023f565b8063238ac933116101cb57806333b3691e1161019a578063421981601161017f578063421981601461042657806342842e0e1461043b5780634ba69faa1461045b5761023f565b806333b3691e146103f357806335f336f3146104135761023f565b8063238ac9331461035e57806323b872dd146103735780632b07fce3146103935780632d0335ab146103c65761023f565b80630c53c51c116102075780630c53c51c146102eb57806318a00d8e146102fe5780631bcc24721461031e57806321ecf7011461033e5761023f565b806301ffc9a71461024457806306fdde031461027a578063081812fc1461029c578063095ea7b3146102c95761023f565b3661023f57005b600080fd5b34801561025057600080fd5b5061026461025f366004612f5d565b610688565b60405161027191906132c5565b60405180910390f35b34801561028657600080fd5b5061028f6106d0565b6040516102719190613312565b3480156102a857600080fd5b506102bc6102b7366004612ffd565b610763565b60405161027191906131d2565b3480156102d557600080fd5b506102e96102e4366004612e24565b6107af565b005b61028f6102f9366004612db2565b610847565b34801561030a57600080fd5b506102e9610319366004612c59565b6109ff565b34801561032a57600080fd5b506102e9610339366004612c59565b610aca565b34801561034a57600080fd5b506102e9610359366004612c59565b610b95565b34801561036a57600080fd5b506102bc610ca4565b34801561037f57600080fd5b506102e961038e366004612cad565b610cb3565b34801561039f57600080fd5b506103b36103ae366004612ffd565b610ceb565b6040516102719796959493929190613d0f565b3480156103d257600080fd5b506103e66103e1366004612c59565b610d3d565b6040516102719190613cf0565b3480156103ff57600080fd5b506102e961040e366004612ffd565b610d58565b6102e9610421366004612e4f565b610ec1565b34801561043257600080fd5b506102bc611250565b34801561044757600080fd5b506102e9610456366004612cad565b61125f565b34801561046757600080fd5b506102bc61127a565b34801561047c57600080fd5b506102bc61048b366004612ffd565b611289565b34801561049c57600080fd5b506102e96104ab366004612c59565b6112be565b3480156104bc57600080fd5b506103e66104cb366004612c59565b611389565b3480156104dc57600080fd5b506104f06104eb366004612ffd565b6113cd565b60405161027193929190613cf9565b34801561050b57600080fd5b5061028f6113eb565b34801561052057600080fd5b506102e961052f366004612f95565b6113fa565b34801561054057600080fd5b506102e961054f366004612d57565b6114aa565b34801561056057600080fd5b506102e961056f366004612ffd565b611578565b34801561058057600080fd5b506102e961058f366004612c59565b61169e565b3480156105a057600080fd5b506102e96105af366004612ced565b611718565b3480156105c057600080fd5b506102e96105cf366004612c59565b611757565b3480156105e057600080fd5b506102bc611822565b3480156105f557600080fd5b5061028f610604366004612ffd565b611846565b34801561061557600080fd5b506103e66118c9565b34801561062a57600080fd5b506103e66118da565b34801561063f57600080fd5b5061026461064e366004612c75565b6118e0565b34801561065f57600080fd5b506102bc61190e565b34801561067457600080fd5b506102e9610683366004612ffd565b61191d565b60006001600160e01b031982166380ac58cd60e01b14806106b957506001600160e01b03198216635b5e139f60e01b145b806106c857506106c8826119cc565b90505b919050565b6060600280546106df90613e09565b80601f016020809104026020016040519081016040528092919081815260200182805461070b90613e09565b80156107585780601f1061072d57610100808354040283529160200191610758565b820191906000526020600020905b81548152906001019060200180831161073b57829003601f168201915b505050505090505b90565b600061076e826119e5565b6107935760405162461bcd60e51b815260040161078a906138d2565b60405180910390fd5b506000908152600660205260409020546001600160a01b031690565b60006107ba82611289565b9050806001600160a01b0316836001600160a01b031614156107ee5760405162461bcd60e51b815260040161078a90613ae4565b806001600160a01b0316610800611a02565b6001600160a01b0316148061081c575061081c8161064e611a02565b6108385760405162461bcd60e51b815260040161078a906136e1565b6108428383611a06565b505050565b6060600061085486611a74565b90506000356001600160e01b031990811690821614156108865760405162461bcd60e51b815260040161078a90613427565b604080516060810182526001600160a01b038916600081815260016020908152908490205483528201529081018790526108c38882888888611a90565b6108df5760405162461bcd60e51b815260040161078a9061397b565b6001600160a01b03881660009081526001602081905260409091205461090491613d9a565b6001600160a01b0389166000908152600160209081526040808320939093559151909182913091610939918c918e91016130a7565b60408051601f19818403018152908290526109539161308b565b6000604051808303816000865af19150503d8060008114610990576040519150601f19603f3d011682016040523d82523d6000602084013e610995565b606091505b5091509150816109b75760405162461bcd60e51b815260040161078a906133b9565b7f5845892132946850460bff5a0083f71031bc5bf9aadcd40f1de79423eac9b10b8a338b6040516109ea939291906131e6565b60405180910390a19998505050505050505050565b7f00000000000000000000000000000000000000000000000000000000000000006001600160a01b0316610a31611b3c565b6001600160a01b031614610a575760405162461bcd60e51b815260040161078a9061389b565b6001600160a01b038116610a7d5760405162461bcd60e51b815260040161078a90613382565b600a80546001600160a01b0319166001600160a01b0383169081179091556040513091907f5ca4aeaf5ab178bf08d3e1eb491b9a13a2de5b100038437cf5ed0e361fff8f3790600090a350565b7f00000000000000000000000000000000000000000000000000000000000000006001600160a01b0316610afc611b3c565b6001600160a01b031614610b225760405162461bcd60e51b815260040161078a9061389b565b6001600160a01b038116610b485760405162461bcd60e51b815260040161078a90613382565b600b80546001600160a01b0319166001600160a01b0383169081179091556040513091907fb6f78fe449cc310adeef201f18b6afe9569041a997be6b619607692854999c8190600090a350565b7f00000000000000000000000000000000000000000000000000000000000000006001600160a01b0316610bc7611b3c565b6001600160a01b031614610bed5760405162461bcd60e51b815260040161078a9061389b565b6001600160a01b038116610c135760405162461bcd60e51b815260040161078a90613382565b600b546001600160a01b0316610c3b5760405162461bcd60e51b815260040161078a90613a19565b600b54601254610c589183916001600160a01b0390911690611b98565b600b546040516001600160a01b038084169230927fc571353a8852cd132c515d367a4fa7c21e9c38baf9c7e9818f59d40b2b156b7c92610c999216906131d2565b60405180910390a350565b600d546001600160a01b031681565b610cc4610cbe611a02565b82611c9a565b610ce05760405162461bcd60e51b815260040161078a90613b82565b610842838383611d1f565b601160205260009081526040902080546001820154600283015460038401546004909401549293919290916001600160a01b03908116919081169060ff600160a01b8204811691600160a81b90041687565b6001600160a01b031660009081526001602052604090205490565b60026008541415610d7b5760405162461bcd60e51b815260040161078a90613caa565b6002600855600c546001600160a01b0316610d94611b3c565b6001600160a01b031614610dba5760405162461bcd60e51b815260040161078a9061389b565b600081815260116020526040902060040154600160a01b900460ff16610df25760405162461bcd60e51b815260040161078a90613484565b600081815260116020526040902060040154600160a81b900460ff1615610e2b5760405162461bcd60e51b815260040161078a90613627565b600081815260116020526040902060040180547fffffffffffffffffffffff00ffffffffffffffffffffffffffffffffffffffff169055610e6b81611e4c565b807f048ce8e17c5255ee6428918540ffd64ab271d402ec9f5cdc6976d66043b174ab6011600084815260200190815260200160002060020154604051610eb19190613cf0565b60405180910390a2506001600855565b60026008541415610ee45760405162461bcd60e51b815260040161078a90613caa565b6002600855885180610f085760405162461bcd60e51b815260040161078a90613a50565b88518114610f285760405162461bcd60e51b815260040161078a90613b25565b87518114610f485760405162461bcd60e51b815260040161078a90613c4d565b6000610f5b888c8b8d8b8b8b8b8b611ef3565b90506001600160a01b03811615801590610f825750600d546001600160a01b038281169116145b610f9e5760405162461bcd60e51b815260040161078a9061373e565b428711158015610fb85750600954610fb68842613dc6565b105b610fd45760405162461bcd60e51b815260040161078a906136aa565b60006001600160a01b03871661111657600a5460405163531a221160e01b81526001600160a01b039091169063531a221190611014908c90600401613cf0565b60206040518083038186803b15801561102c57600080fd5b505afa158015611040573d6000803e3d6000fd5b505050506040513d601f19601f820116820180604052508101906110649190613015565b9050803410156110865760405162461bcd60e51b815260040161078a90613c16565b803411156110a8576110a8611099611b3c565b6110a38334613dc6565b611fb7565b600b60009054906101000a90046001600160a01b03166001600160a01b031663bc181416826040518263ffffffff1660e01b81526004016000604051808303818588803b1580156110f857600080fd5b505af115801561110c573d6000803e3d6000fd5b505050505061122e565b600e546001600160a01b038881169116141561113257886111b4565b600a5460405163a9a12d4360e01b81526001600160a01b039091169063a9a12d4390611164908a908d906004016132ac565b60206040518083038186803b15801561117c57600080fd5b505afa158015611190573d6000803e3d6000fd5b505050506040513d601f19601f820116820180604052508101906111b49190613015565b90506111c9876111c2611b3c565b3084612044565b600b54604051638c8ac76d60e01b81526001600160a01b0390911690638c8ac76d906111fb908a9085906004016132ac565b600060405180830381600087803b15801561121557600080fd5b505af1158015611229573d6000803e3d6000fd5b505050505b61123c8d8d8d8d858c612149565b505060016008555050505050505050505050565b600c546001600160a01b031681565b61084283838360405180602001604052806000815250611718565b600b546001600160a01b031681565b6000818152600460205260408120546001600160a01b0316806106c85760405162461bcd60e51b815260040161078a906137d2565b7f00000000000000000000000000000000000000000000000000000000000000006001600160a01b03166112f0611b3c565b6001600160a01b0316146113165760405162461bcd60e51b815260040161078a9061389b565b6001600160a01b03811661133c5760405162461bcd60e51b815260040161078a90613382565b600d80546001600160a01b0319166001600160a01b0383169081179091556040513091907f8e2c76c578fb1494886741ea1b707ab0b9b0f8001354273d5b491bd68299720e90600090a350565b60006001600160a01b0382166113b15760405162461bcd60e51b815260040161078a90613775565b506001600160a01b031660009081526005602052604090205490565b60009081526011602052604090206002810154600182015491549092565b6060600380546106df90613e09565b7f00000000000000000000000000000000000000000000000000000000000000006001600160a01b031661142c611b3c565b6001600160a01b0316146114525760405162461bcd60e51b815260040161078a9061389b565b805161146590600f906020840190612a5e565b50306001600160a01b03167f970aa99b4d9e40ecd777dc926534019dbf26bef2c6021c90c036984b5a9e0fde8260405161149f9190613312565b60405180910390a250565b6114b2611a02565b6001600160a01b0316826001600160a01b031614156114e35760405162461bcd60e51b815260040161078a906135b9565b80600760006114f0611a02565b6001600160a01b03908116825260208083019390935260409182016000908120918716808252919093529120805460ff191692151592909217909155611534611a02565b6001600160a01b03167f17307eab39ab6107e8899845ad3d59bd9653f200f220920489ca2b5937696c318360405161156c91906132c5565b60405180910390a35050565b6002600854141561159b5760405162461bcd60e51b815260040161078a90613caa565b6002600855600c546001600160a01b03166115b4611b3c565b6001600160a01b0316146115da5760405162461bcd60e51b815260040161078a9061389b565b600081815260116020526040902060040154600160a01b900460ff166116125760405162461bcd60e51b815260040161078a90613484565b600081815260116020526040902060040180547fffffffffffffffffffff00ffffffffffffffffffffffffffffffffffffffffff16600160a81b17905561165881611e4c565b807f184fb82e16552a73263d53d4dcb23c8300d042a0578b8633d30680ac2f09f0766011600084815260200190815260200160002060020154604051610eb19190613cf0565b7f00000000000000000000000000000000000000000000000000000000000000006001600160a01b03166116d0611b3c565b6001600160a01b0316146116f65760405162461bcd60e51b815260040161078a9061389b565b600e80546001600160a01b0319166001600160a01b0392909216919091179055565b611729611723611a02565b83611c9a565b6117455760405162461bcd60e51b815260040161078a90613b82565b6117518484848461265c565b50505050565b7f00000000000000000000000000000000000000000000000000000000000000006001600160a01b0316611789611b3c565b6001600160a01b0316146117af5760405162461bcd60e51b815260040161078a9061389b565b6001600160a01b0381166117d55760405162461bcd60e51b815260040161078a90613382565b600c80546001600160a01b0319166001600160a01b0383169081179091556040513091907f8dadc789ed91201272dd8c71737c6f84bb2d72bca3f5ec01601694cda82868c090600090a350565b7f000000000000000000000000000000000000000000000000000000000000000081565b6060611851826119e5565b61186d5760405162461bcd60e51b815260040161078a906139bc565b600061187761268f565b9050600081511161189757604051806020016040528060008152506118c2565b806118a18461269e565b6040516020016118b29291906130de565b6040516020818303038152906040525b9392505050565b60006118d560106127d1565b905090565b60095481565b6001600160a01b03918216600090815260076020908152604080832093909416825291909152205460ff1690565b600e546001600160a01b031681565b7f00000000000000000000000000000000000000000000000000000000000000006001600160a01b031661194f611b3c565b6001600160a01b0316146119755760405162461bcd60e51b815260040161078a9061389b565b600081116119955760405162461bcd60e51b815260040161078a9061382f565b600981905560405130907fef0e0784016a6db87327a652697e3f4ff408f7e7951378b26c113979017f7f029061149f908490613cf0565b6001600160e01b031981166301ffc9a760e01b14919050565b6000908152600460205260409020546001600160a01b0316151590565b3390565b600081815260066020526040902080546001600160a01b0319166001600160a01b0384169081179091558190611a3b82611289565b6001600160a01b03167f8c5be1e5ebec7d5bd14f71427d1e84f3dd0314c0f7b2291e5b200ac8c7c3b92560405160405180910390a45050565b6000815160001415611a88575060006106cb565b506020015190565b6000806001611aa6611aa1886127d5565b612833565b84878760405160008152602001604052604051611ac694939291906132f4565b6020604051602081039080840390855afa158015611ae8573d6000803e3d6000fd5b5050604051601f1901519150506001600160a01b038116611b1b5760405162461bcd60e51b815260040161078a906135f0565b866001600160a01b0316816001600160a01b03161491505095945050505050565b600033301415611b9357600080368080601f0160208091040260200160405190810160405280939291908181526020018383808284376000920191909152505050503601516001600160a01b031691506107609050565b503390565b600080846001600160a01b031663095ea7b38585604051602401611bbd9291906132ac565b6040516020818303038152906040529060e01b6020820180517bffffffffffffffffffffffffffffffffffffffffffffffffffffffff8381831617835250505050604051611c0b919061308b565b6000604051808303816000865af19150503d8060008114611c48576040519150601f19603f3d011682016040523d82523d6000602084013e611c4d565b606091505b5091509150818015611c77575080511580611c77575080806020019051810190611c779190612f41565b611c935760405162461bcd60e51b815260040161078a90613a87565b5050505050565b6000611ca5826119e5565b611cc15760405162461bcd60e51b815260040161078a9061365e565b6000611ccc83611289565b9050806001600160a01b0316846001600160a01b03161480611d075750836001600160a01b0316611cfc84610763565b6001600160a01b0316145b80611d175750611d1781856118e0565b949350505050565b826001600160a01b0316611d3282611289565b6001600160a01b031614611d585760405162461bcd60e51b815260040161078a9061391e565b6001600160a01b038216611d7e5760405162461bcd60e51b815260040161078a90613575565b611d89838383610842565b611d94600082611a06565b6001600160a01b0383166000908152600560205260408120805460019290611dbd908490613dc6565b90915550506001600160a01b0382166000908152600560205260408120805460019290611deb908490613d9a565b909155505060008181526004602052604080822080546001600160a01b0319166001600160a01b0386811691821790925591518493918716917fddf252ad1be2c89b69c2b068fc378daa952ba7f163c4a11628f55a4df523b3ef91a4505050565b6000611e5782611289565b9050611e6581600084610842565b611e70600083611a06565b6001600160a01b0381166000908152600560205260408120805460019290611e99908490613dc6565b909155505060008281526004602052604080822080546001600160a01b0319169055518391906001600160a01b038416907fddf252ad1be2c89b69c2b068fc378daa952ba7f163c4a11628f55a4df523b3ef908390a45050565b6000808a8a8a8a8a8a604051602001611f1196959493929190613159565b604051602081830303815290604052805190602001209050600081604051602001611f3c919061310d565b604051602081830303815290604052805190602001209050600060018286898960405160008152602001604052604051611f7994939291906132f4565b6020604051602081039080840390855afa158015611f9b573d6000803e3d6000fd5b5050604051601f1901519e9d5050505050505050505050505050565b604080516000808252602082019092526001600160a01b038416908390604051611fe1919061308b565b60006040518083038185875af1925050503d806000811461201e576040519150601f19603f3d011682016040523d82523d6000602084013e612023565b606091505b50509050806108425760405162461bcd60e51b815260040161078a90613518565b600080856001600160a01b03166323b872dd86868660405160240161206b9392919061321b565b6040516020818303038152906040529060e01b6020820180517bffffffffffffffffffffffffffffffffffffffffffffffffffffffff83818316178352505050506040516120b9919061308b565b6000604051808303816000865af19150503d80600081146120f6576040519150601f19603f3d011682016040523d82523d6000602084013e6120fb565b606091505b50915091508180156121255750805115806121255750808060200190518101906121259190612f41565b6121415760405162461bcd60e51b815260040161078a906134bb565b505050505050565b60008060008060008060007f00000000000000000000000000000000000000000000000000000000000000006001600160a01b031663222a5df66040518163ffffffff1660e01b815260040160206040518083038186803b1580156121ad57600080fd5b505afa1580156121c1573d6000803e3d6000fd5b505050506040513d601f19601f820116820180604052508101906121e59190612f41565b905060005b8c518110156125e3576121fd60106127d1565b96508b818151811061221f57634e487b7160e01b600052603260045260246000fd5b602002602001015195508a818151811061224957634e487b7160e01b600052603260045260246000fd5b602002602001015194508c818151811061227357634e487b7160e01b600052603260045260246000fd5b602002602001015193508d818151811061229d57634e487b7160e01b600052603260045260246000fd5b6020026020010151925060008a90506000831561241257604051636c18443d60e01b81526000906001600160a01b037f00000000000000000000000000000000000000000000000000000000000000001690636c18443d90612303908a906004016131d2565b60206040518083038186803b15801561231b57600080fd5b505afa15801561232f573d6000803e3d6000fd5b505050506040513d601f19601f820116820180604052508101906123539190612fdb565b905061ffff81161561240c5760405163bbd9d8e160e01b81526000906001600160a01b037f0000000000000000000000000000000000000000000000000000000000000000169063bbd9d8e1906123ae908590600401613ce1565b604080518083038186803b1580156123c557600080fd5b505afa1580156123d9573d6000803e3d6000fd5b505050506040513d601f19601f820116820180604052508101906123fd9190612d84565b9150508061240a57600192505b505b50612416565b5060015b806124335760405162461bcd60e51b815260040161078a90613bdf565b6040518060e00160405280428152602001888152602001898152602001876001600160a01b031681526020018c6001600160a01b0316815260200160011515815260200160001515815250601160008b815260200190815260200160002060008201518160000155602082015181600101556040820151816002015560608201518160030160006101000a8154816001600160a01b0302191690836001600160a01b0316021790555060808201518160040160006101000a8154816001600160a01b0302191690836001600160a01b0316021790555060a08201518160040160146101000a81548160ff02191690831515021790555060c08201518160040160156101000a81548160ff02191690831515021790555090505061255d612557611b3c565b8a61284f565b612567888b613d9a565b995088856001600160a01b031661257c611b3c565b6001600160a01b03167f15c2b464a5dd92b73eb56515f6c99c04fbeec68d56dda66903c8a136d53e27f18e8a8d8d896040516125bc95949392919061327b565b60405180910390a46125ce601061292e565b505080806125db90613e44565b9150506121ea565b50861561264d57600c546040516350498d7960e11b81526001600160a01b039091169063a0931af29061261a908a90600401613cf0565b600060405180830381600087803b15801561263457600080fd5b505af1158015612648573d6000803e3d6000fd5b505050505b50505050505050505050505050565b612667848484611d1f565b61267384848484612937565b6117515760405162461bcd60e51b815260040161078a90613325565b6060600f80546106df90613e09565b6060816126c357506040805180820190915260018152600360fc1b60208201526106cb565b8160005b81156126ed57806126d781613e44565b91506126e69050600a83613db2565b91506126c7565b60008167ffffffffffffffff81111561271657634e487b7160e01b600052604160045260246000fd5b6040519080825280601f01601f191660200182016040528015612740576020820181803683370190505b5090505b8415611d1757612755600183613dc6565b9150612762600a86613e5f565b61276d906030613d9a565b60f81b81838151811061279057634e487b7160e01b600052603260045260246000fd5b60200101907effffffffffffffffffffffffffffffffffffffffffffffffffffffffffffff1916908160001a9053506127ca600a86613db2565b9450612744565b5490565b6000604051806080016040528060438152602001613ef2604391398051602091820120835184830151604080870151805190860120905161281695016132d0565b604051602081830303815290604052805190602001209050919050565b600061283d612a52565b8260405160200161281692919061313e565b6001600160a01b0382166128755760405162461bcd60e51b815260040161078a90613866565b61287e816119e5565b1561289b5760405162461bcd60e51b815260040161078a906133f0565b6128a760008383610842565b6001600160a01b03821660009081526005602052604081208054600192906128d0908490613d9a565b909155505060008181526004602052604080822080546001600160a01b0319166001600160a01b03861690811790915590518392907fddf252ad1be2c89b69c2b068fc378daa952ba7f163c4a11628f55a4df523b3ef908290a45050565b80546001019055565b600061294b846001600160a01b0316612a58565b15612a4757836001600160a01b031663150b7a02612967611a02565b8786866040518563ffffffff1660e01b8152600401612989949392919061323f565b602060405180830381600087803b1580156129a357600080fd5b505af19250505080156129d3575060408051601f3d908101601f191682019092526129d091810190612f79565b60015b612a2d573d808015612a01576040519150601f19603f3d011682016040523d82523d6000602084013e612a06565b606091505b508051612a255760405162461bcd60e51b815260040161078a90613325565b805181602001fd5b6001600160e01b031916630a85bd0160e11b149050611d17565b506001949350505050565b60005490565b3b151590565b828054612a6a90613e09565b90600052602060002090601f016020900481019282612a8c5760008555612ad2565b82601f10612aa557805160ff1916838001178555612ad2565b82800160010185558215612ad2579182015b82811115612ad2578251825591602001919060010190612ab7565b50612ade929150612ae2565b5090565b5b80821115612ade5760008155600101612ae3565b600067ffffffffffffffff831115612b1157612b11613e9f565b612b24601f8401601f1916602001613d4c565b9050828152838383011115612b3857600080fd5b828260208301376000602084830101529392505050565b80356106cb81613eb5565b600082601f830112612b6a578081fd5b81356020612b7f612b7a83613d76565b613d4c565b8281528181019085830183850287018401881015612b9b578586fd5b855b85811015612bc2578135612bb081613eb5565b84529284019290840190600101612b9d565b5090979650505050505050565b600082601f830112612bdf578081fd5b81356020612bef612b7a83613d76565b8281528181019085830183850287018401881015612c0b578586fd5b855b85811015612bc257813584529284019290840190600101612c0d565b600082601f830112612c39578081fd5b6118c283833560208501612af7565b803560ff811681146106cb57600080fd5b600060208284031215612c6a578081fd5b81356118c281613eb5565b60008060408385031215612c87578081fd5b8235612c9281613eb5565b91506020830135612ca281613eb5565b809150509250929050565b600080600060608486031215612cc1578081fd5b8335612ccc81613eb5565b92506020840135612cdc81613eb5565b929592945050506040919091013590565b60008060008060808587031215612d02578081fd5b8435612d0d81613eb5565b93506020850135612d1d81613eb5565b925060408501359150606085013567ffffffffffffffff811115612d3f578182fd5b612d4b87828801612c29565b91505092959194509250565b60008060408385031215612d69578182fd5b8235612d7481613eb5565b91506020830135612ca281613ecd565b60008060408385031215612d96578182fd5b8251612da181613eb5565b6020840151909250612ca281613ecd565b600080600080600060a08688031215612dc9578283fd5b8535612dd481613eb5565b9450602086013567ffffffffffffffff811115612def578384fd5b612dfb88828901612c29565b9450506040860135925060608601359150612e1860808701612c48565b90509295509295909350565b60008060408385031215612e36578182fd5b8235612e4181613eb5565b946020939093013593505050565b6000806000806000806000806000806101408b8d031215612e6e578788fd5b8a3567ffffffffffffffff80821115612e8557898afd5b612e918e838f01612b5a565b9b5060208d0135915080821115612ea657898afd5b612eb28e838f01612b5a565b9a5060408d0135915080821115612ec757898afd5b612ed38e838f01612bcf565b995060608d0135915080821115612ee8578687fd5b50612ef58d828e01612bcf565b97505060808b0135955060a08b01359450612f1260c08c01612b4f565b935060e08b013592506101008b01359150612f306101208c01612c48565b90509295989b9194979a5092959850565b600060208284031215612f52578081fd5b81516118c281613ecd565b600060208284031215612f6e578081fd5b81356118c281613edb565b600060208284031215612f8a578081fd5b81516118c281613edb565b600060208284031215612fa6578081fd5b813567ffffffffffffffff811115612fbc578182fd5b8201601f81018413612fcc578182fd5b611d1784823560208401612af7565b600060208284031215612fec578081fd5b815161ffff811681146118c2578182fd5b60006020828403121561300e578081fd5b5035919050565b600060208284031215613026578081fd5b5051919050565b600081516020808401835b8381101561305457815187529582019590820190600101613038565b509495945050505050565b60008151808452613077816020860160208601613ddd565b601f01601f19169290920160200192915050565b6000825161309d818460208701613ddd565b9190910192915050565b600083516130b9818460208801613ddd565b60609390931b6bffffffffffffffffffffffff19169190920190815260140192915050565b600083516130f0818460208801613ddd565b835190830190613104818360208801613ddd565b01949350505050565b7f19457468657265756d205369676e6564204d6573736167653a0a3332000000008152601c810191909152603c0190565b61190160f01b81526002810192909252602282015260420190565b600087825260208083018851828a01845b8281101561318f5781516001600160a01b03168452928401929084019060010161316a565b5050506131a561319f828a61302d565b8861302d565b9586525060609390931b6bffffffffffffffffffffffff1916928401929092525050603401949350505050565b6001600160a01b0391909116815260200190565b60006001600160a01b03808616835280851660208401525060606040830152613212606083018461305f565b95945050505050565b6001600160a01b039384168152919092166020820152604081019190915260600190565b60006001600160a01b03808716835280861660208401525083604083015260806060830152613271608083018461305f565b9695505050505050565b6001600160a01b03958616815293909416602084015260408301919091526060820152608081019190915260a00190565b6001600160a01b03929092168252602082015260400190565b901515815260200190565b93845260208401929092526001600160a01b03166040830152606082015260800190565b93845260ff9290921660208401526040830152606082015260800190565b6000602082526118c2602083018461305f565b60208082526032908201527f4552433732313a207472616e7366657220746f206e6f6e20455243373231526560408201527f63656976657220696d706c656d656e7465720000000000000000000000000000606082015260800190565b60208082526013908201527f556e6f52653a207a65726f206164647265737300000000000000000000000000604082015260600190565b6020808252601c908201527f46756e6374696f6e2063616c6c206e6f74207375636365737366756c00000000604082015260600190565b6020808252601c908201527f4552433732313a20746f6b656e20616c7265616479206d696e74656400000000604082015260600190565b6020808252603d908201527f66756e6374696f6e5369676e61747572652063616e206e6f74206265206f662060408201527f657865637574654d6574615472616e73616374696f6e206d6574686f64000000606082015260800190565b6020808252601e908201527f556e6f52653a206d61726b656420746f20636c61696d20616c72656164790000604082015260600190565b60208082526031908201527f5472616e7366657248656c7065723a3a7472616e7366657246726f6d3a20747260408201527f616e7366657246726f6d206661696c6564000000000000000000000000000000606082015260800190565b60208082526034908201527f5472616e7366657248656c7065723a3a736166655472616e736665724554483a60408201527f20455448207472616e73666572206661696c6564000000000000000000000000606082015260800190565b60208082526024908201527f4552433732313a207472616e7366657220746f20746865207a65726f206164646040820152637265737360e01b606082015260800190565b60208082526019908201527f4552433732313a20617070726f766520746f2063616c6c657200000000000000604082015260600190565b60208082526011908201527f496e76616c6964207369676e6174757265000000000000000000000000000000604082015260600190565b60208082526015908201527f556e6f52653a20706f6c69637920657870697265640000000000000000000000604082015260600190565b6020808252602c908201527f4552433732313a206f70657261746f7220717565727920666f72206e6f6e657860408201526b34b9ba32b73a103a37b5b2b760a11b606082015260800190565b60208082526018908201527f556e6f52653a207369676e617475726520657870697265640000000000000000604082015260600190565b60208082526038908201527f4552433732313a20617070726f76652063616c6c6572206973206e6f74206f7760408201527f6e6572206e6f7220617070726f76656420666f7220616c6c0000000000000000606082015260800190565b60208082526015908201527f556e6f52653a20696e76616c6964207369676e65720000000000000000000000604082015260600190565b6020808252602a908201527f4552433732313a2062616c616e636520717565727920666f7220746865207a6560408201527f726f206164647265737300000000000000000000000000000000000000000000606082015260800190565b60208082526029908201527f4552433732313a206f776e657220717565727920666f72206e6f6e657869737460408201527f656e7420746f6b656e0000000000000000000000000000000000000000000000606082015260800190565b6020808252601a908201527f556e6f52653a207a65726f206d6178207369676e656454696d65000000000000604082015260600190565b6020808252818101527f4552433732313a206d696e7420746f20746865207a65726f2061646472657373604082015260600190565b6020808252601c908201527f556e6f52653a2053616c6573506f6c69637920466f7262696464656e00000000604082015260600190565b6020808252602c908201527f4552433732313a20617070726f76656420717565727920666f72206e6f6e657860408201526b34b9ba32b73a103a37b5b2b760a11b606082015260800190565b60208082526029908201527f4552433732313a207472616e73666572206f6620746f6b656e2074686174206960408201527f73206e6f74206f776e0000000000000000000000000000000000000000000000606082015260800190565b60208082526021908201527f5369676e657220616e64207369676e617475726520646f206e6f74206d6174636040820152600d60fb1b606082015260800190565b6020808252602f908201527f4552433732314d657461646174613a2055524920717565727920666f72206e6f60408201527f6e6578697374656e7420746f6b656e0000000000000000000000000000000000606082015260800190565b6020808252601e908201527f556e6f52653a206e6f742064656669656e64207072656d69756d506f6f6c0000604082015260600190565b60208082526010908201527f556e6f52653a206e6f20706f6c69637900000000000000000000000000000000604082015260600190565b6020808252602b908201527f5472616e7366657248656c7065723a3a73616665417070726f76653a2061707060408201527f726f7665206661696c6564000000000000000000000000000000000000000000606082015260800190565b60208082526021908201527f4552433732313a20617070726f76616c20746f2063757272656e74206f776e656040820152603960f91b606082015260800190565b6020808252602f908201527f556e6f52653a206e6f206d617463682070726f746f636f6c496473207769746860408201527f20636f766572616765416d6f756e740000000000000000000000000000000000606082015260800190565b60208082526031908201527f4552433732313a207472616e736665722063616c6c6572206973206e6f74206f60408201527f776e6572206e6f7220617070726f766564000000000000000000000000000000606082015260800190565b60208082526019908201527f556e6f52653a20756e617661696c61626c6520706f6c69637900000000000000604082015260600190565b60208082526018908201527f556e6f52653a20696e73756666696369656e7420706169640000000000000000604082015260600190565b60208082526031908201527f556e6f52653a206e6f206d617463682070726f746f636f6c496473207769746860408201527f20636f7665726167654475726174696f6e000000000000000000000000000000606082015260800190565b6020808252601f908201527f5265656e7472616e637947756172643a207265656e7472616e742063616c6c00604082015260600190565b61ffff91909116815260200190565b90815260200190565b9283526020830191909152604082015260600190565b968752602087019590955260408601939093526001600160a01b039182166060860152166080840152151560a0830152151560c082015260e00190565b60405181810167ffffffffffffffff81118282101715613d6e57613d6e613e9f565b604052919050565b600067ffffffffffffffff821115613d9057613d90613e9f565b5060209081020190565b60008219821115613dad57613dad613e73565b500190565b600082613dc157613dc1613e89565b500490565b600082821015613dd857613dd8613e73565b500390565b60005b83811015613df8578181015183820152602001613de0565b838111156117515750506000910152565b600281046001821680613e1d57607f821691505b60208210811415613e3e57634e487b7160e01b600052602260045260246000fd5b50919050565b6000600019821415613e5857613e58613e73565b5060010190565b600082613e6e57613e6e613e89565b500690565b634e487b7160e01b600052601160045260246000fd5b634e487b7160e01b600052601260045260246000fd5b634e487b7160e01b600052604160045260246000fd5b6001600160a01b0381168114613eca57600080fd5b50565b8015158114613eca57600080fd5b6001600160e01b031981168114613eca57600080fdfe4d6574615472616e73616374696f6e2875696e74323536206e6f6e63652c616464726573732066726f6d2c62797465732066756e6374696f6e5369676e617475726529a26469706673582212209ca45d322f9a501990ccb34b69a70362cbb164ee42a6a8e92d4781b0dd1df3cb64736f6c63430008000033454950373132446f6d61696e28737472696e67206e616d652c737472696e672076657273696f6e2c6164647265737320766572696679696e67436f6e74726163742c627974657333322073616c7429a264697066735822122032feb6b53e56c6ad1d74387460039c15b35a887740c193274ab36ccf4951713a64736f6c63430008000033",
  "devdoc": {
    "kind": "dev",
    "methods": {
      "owner()": {
        "details": "Returns the address of the current owner."
      },
      "renounceOwnership()": {
        "details": "Leaves the contract without owner. It will not be possible to call `onlyOwner` functions anymore. Can only be called by the current owner. NOTE: Renouncing ownership will leave the contract without an owner, thereby removing any functionality that is only available to the owner."
      },
      "transferOwnership(address)": {
        "details": "Transfers ownership of the contract to a new account (`newOwner`). Can only be called by the current owner."
      }
    },
    "version": 1
  },
  "userdoc": {
    "kind": "user",
    "methods": {},
    "version": 1
  },
  "storageLayout": {
    "storage": [
      {
        "astId": 114,
        "contract": "contracts/factories/SalesPolicyFactory.sol:SalesPolicyFactory",
        "label": "_status",
        "offset": 0,
        "slot": "0",
        "type": "t_uint256"
      },
      {
        "astId": 7,
        "contract": "contracts/factories/SalesPolicyFactory.sol:SalesPolicyFactory",
        "label": "_owner",
        "offset": 0,
        "slot": "1",
        "type": "t_address"
      },
      {
        "astId": 15078,
        "contract": "contracts/factories/SalesPolicyFactory.sol:SalesPolicyFactory",
        "label": "checkIfProtocolInWhitelistArray",
        "offset": 20,
        "slot": "1",
        "type": "t_bool"
      },
      {
        "astId": 15080,
        "contract": "contracts/factories/SalesPolicyFactory.sol:SalesPolicyFactory",
        "label": "premiumPool",
        "offset": 0,
        "slot": "2",
        "type": "t_address"
      },
      {
        "astId": 15082,
        "contract": "contracts/factories/SalesPolicyFactory.sol:SalesPolicyFactory",
        "label": "exchangeAgent",
        "offset": 0,
        "slot": "3",
        "type": "t_address"
      },
      {
        "astId": 15084,
        "contract": "contracts/factories/SalesPolicyFactory.sol:SalesPolicyFactory",
        "label": "capitalAgent",
        "offset": 0,
        "slot": "4",
        "type": "t_address"
      },
      {
        "astId": 15086,
        "contract": "contracts/factories/SalesPolicyFactory.sol:SalesPolicyFactory",
        "label": "salesPolicy",
        "offset": 0,
        "slot": "5",
        "type": "t_address"
      },
      {
        "astId": 15091,
        "contract": "contracts/factories/SalesPolicyFactory.sol:SalesPolicyFactory",
        "label": "getProtocol",
        "offset": 0,
        "slot": "6",
        "type": "t_mapping(t_uint16,t_struct(Protocol)15075_storage)"
      },
      {
        "astId": 15096,
        "contract": "contracts/factories/SalesPolicyFactory.sol:SalesPolicyFactory",
        "label": "getProtocolId",
        "offset": 0,
        "slot": "7",
        "type": "t_mapping(t_address,t_uint16)"
      },
      {
        "astId": 15099,
        "contract": "contracts/factories/SalesPolicyFactory.sol:SalesPolicyFactory",
        "label": "protocolIds",
        "offset": 0,
        "slot": "8",
        "type": "t_struct(Counter)2094_storage"
      },
      {
        "astId": 15101,
        "contract": "contracts/factories/SalesPolicyFactory.sol:SalesPolicyFactory",
        "label": "USDC_TOKEN",
        "offset": 0,
        "slot": "9",
        "type": "t_address"
      }
    ],
    "types": {
      "t_address": {
        "encoding": "inplace",
        "label": "address",
        "numberOfBytes": "20"
      },
      "t_bool": {
        "encoding": "inplace",
        "label": "bool",
        "numberOfBytes": "1"
      },
      "t_mapping(t_address,t_uint16)": {
        "encoding": "mapping",
        "key": "t_address",
        "label": "mapping(address => uint16)",
        "numberOfBytes": "32",
        "value": "t_uint16"
      },
      "t_mapping(t_uint16,t_struct(Protocol)15075_storage)": {
        "encoding": "mapping",
        "key": "t_uint16",
        "label": "mapping(uint16 => struct SalesPolicyFactory.Protocol)",
        "numberOfBytes": "32",
        "value": "t_struct(Protocol)15075_storage"
      },
      "t_struct(Counter)2094_storage": {
        "encoding": "inplace",
        "label": "struct Counters.Counter",
        "members": [
          {
            "astId": 2093,
            "contract": "contracts/factories/SalesPolicyFactory.sol:SalesPolicyFactory",
            "label": "_value",
            "offset": 0,
            "slot": "0",
            "type": "t_uint256"
          }
        ],
        "numberOfBytes": "32"
      },
      "t_struct(Protocol)15075_storage": {
        "encoding": "inplace",
        "label": "struct SalesPolicyFactory.Protocol",
        "members": [
          {
            "astId": 15072,
            "contract": "contracts/factories/SalesPolicyFactory.sol:SalesPolicyFactory",
            "label": "protocolAddress",
            "offset": 0,
            "slot": "0",
            "type": "t_address"
          },
          {
            "astId": 15074,
            "contract": "contracts/factories/SalesPolicyFactory.sol:SalesPolicyFactory",
            "label": "isBlackList",
            "offset": 20,
            "slot": "0",
            "type": "t_bool"
          }
        ],
        "numberOfBytes": "32"
      },
      "t_uint16": {
        "encoding": "inplace",
        "label": "uint16",
        "numberOfBytes": "2"
      },
      "t_uint256": {
        "encoding": "inplace",
        "label": "uint256",
        "numberOfBytes": "32"
      }
    }
  }
}