{
  "address": "0xb2B62606f3f855C03C1baeed7ae3B3a91B64633B",
  "abi": [
    {
      "inputs": [
        {
          "internalType": "address",
          "name": "_exchangeAgent",
          "type": "address"
        },
        {
          "internalType": "address",
          "name": "_USDC_TOKEN",
          "type": "address"
        },
        {
          "internalType": "address",
          "name": "_multiSigWallet",
          "type": "address"
        },
        {
          "internalType": "address",
          "name": "_operator",
          "type": "address"
        }
      ],
      "stateMutability": "nonpayable",
      "type": "constructor"
    },
    {
      "anonymous": false,
      "inputs": [
        {
          "indexed": true,
          "internalType": "address",
          "name": "_ssip",
          "type": "address"
        },
        {
          "indexed": false,
          "internalType": "address",
          "name": "_currency",
          "type": "address"
        },
        {
          "indexed": false,
          "internalType": "uint256",
          "name": "_scr",
          "type": "uint256"
        }
      ],
      "name": "LogAddPool",
      "type": "event"
    },
    {
      "anonymous": false,
      "inputs": [
        {
          "indexed": true,
          "internalType": "address",
          "name": "_pool",
          "type": "address"
        }
      ],
      "name": "LogAddPoolWhiteList",
      "type": "event"
    },
    {
      "anonymous": false,
      "inputs": [
        {
          "indexed": true,
          "internalType": "address",
          "name": "_policy",
          "type": "address"
        },
        {
          "indexed": false,
          "internalType": "uint256",
          "name": "_policyTokenId",
          "type": "uint256"
        }
      ],
      "name": "LogMarkToClaimPolicy",
      "type": "event"
    },
    {
      "anonymous": false,
      "inputs": [
        {
          "indexed": true,
          "internalType": "address",
          "name": "_salesPolicy",
          "type": "address"
        }
      ],
      "name": "LogRemovePolicy",
      "type": "event"
    },
    {
      "anonymous": false,
      "inputs": [
        {
          "indexed": true,
          "internalType": "address",
          "name": "_ssip",
          "type": "address"
        }
      ],
      "name": "LogRemovePool",
      "type": "event"
    },
    {
      "anonymous": false,
      "inputs": [
        {
          "indexed": true,
          "internalType": "address",
          "name": "_pool",
          "type": "address"
        }
      ],
      "name": "LogRemovePoolWhiteList",
      "type": "event"
    },
    {
      "anonymous": false,
      "inputs": [
        {
          "indexed": true,
          "internalType": "address",
          "name": "_owner",
          "type": "address"
        },
        {
          "indexed": true,
          "internalType": "address",
          "name": "_capitalAgent",
          "type": "address"
        },
        {
          "indexed": false,
          "internalType": "address",
          "name": "_exchangeAgent",
          "type": "address"
        }
      ],
      "name": "LogSetExchangeAgent",
      "type": "event"
    },
    {
      "anonymous": false,
      "inputs": [
        {
          "indexed": true,
          "internalType": "address",
          "name": "_owner",
          "type": "address"
        },
        {
          "indexed": true,
          "internalType": "address",
          "name": "_capitalAgent",
          "type": "address"
        },
        {
          "indexed": false,
          "internalType": "uint256",
          "name": "_MCR",
          "type": "uint256"
        }
      ],
      "name": "LogSetMCR",
      "type": "event"
    },
    {
      "anonymous": false,
      "inputs": [
        {
          "indexed": true,
          "internalType": "address",
          "name": "_owner",
          "type": "address"
        },
        {
          "indexed": true,
          "internalType": "address",
          "name": "_capitalAgent",
          "type": "address"
        },
        {
          "indexed": false,
          "internalType": "uint256",
          "name": "_MLR",
          "type": "uint256"
        }
      ],
      "name": "LogSetMLR",
      "type": "event"
    },
    {
      "anonymous": false,
      "inputs": [
        {
          "indexed": true,
          "internalType": "address",
          "name": "_operator",
          "type": "address"
        }
      ],
      "name": "LogSetOperator",
      "type": "event"
    },
    {
      "anonymous": false,
      "inputs": [
        {
          "indexed": true,
          "internalType": "address",
          "name": "_salesPolicy",
          "type": "address"
        }
      ],
      "name": "LogSetPolicy",
      "type": "event"
    },
    {
      "anonymous": false,
      "inputs": [
        {
          "indexed": true,
          "internalType": "address",
          "name": "_owner",
          "type": "address"
        },
        {
          "indexed": true,
          "internalType": "address",
          "name": "_capitalAgent",
          "type": "address"
        },
        {
          "indexed": true,
          "internalType": "address",
          "name": "_pool",
          "type": "address"
        },
        {
          "indexed": false,
          "internalType": "uint256",
          "name": "_SCR",
          "type": "uint256"
        }
      ],
      "name": "LogSetSCR",
      "type": "event"
    },
    {
      "anonymous": false,
      "inputs": [
        {
          "indexed": true,
          "internalType": "address",
          "name": "_factory",
          "type": "address"
        }
      ],
      "name": "LogSetSalesPolicyFactory",
      "type": "event"
    },
    {
      "anonymous": false,
      "inputs": [
        {
          "indexed": true,
          "internalType": "address",
          "name": "_policy",
          "type": "address"
        },
        {
          "indexed": false,
          "internalType": "uint256",
          "name": "_amount",
          "type": "uint256"
        },
        {
          "indexed": false,
          "internalType": "uint256",
          "name": "_policyUtilized",
          "type": "uint256"
        },
        {
          "indexed": false,
          "internalType": "uint256",
          "name": "_totalUtilizedAmount",
          "type": "uint256"
        }
      ],
      "name": "LogUpdatePolicyCoverage",
      "type": "event"
    },
    {
      "anonymous": false,
      "inputs": [
        {
          "indexed": true,
          "internalType": "address",
          "name": "_policy",
          "type": "address"
        },
        {
          "indexed": false,
          "internalType": "uint256",
          "name": "_policyTokenId",
          "type": "uint256"
        }
      ],
      "name": "LogUpdatePolicyExpired",
      "type": "event"
    },
    {
      "anonymous": false,
      "inputs": [
        {
          "indexed": true,
          "internalType": "address",
          "name": "_ssip",
          "type": "address"
        },
        {
          "indexed": false,
          "internalType": "uint256",
          "name": "_poolCapital",
          "type": "uint256"
        },
        {
          "indexed": false,
          "internalType": "uint256",
          "name": "_totalCapital",
          "type": "uint256"
        }
      ],
      "name": "LogUpdatePoolCapital",
      "type": "event"
    },
    {
      "anonymous": false,
      "inputs": [
        {
          "indexed": true,
          "internalType": "address",
          "name": "previousOwner",
          "type": "address"
        },
        {
          "indexed": true,
          "internalType": "address",
          "name": "newOwner",
          "type": "address"
        }
      ],
      "name": "OwnershipTransferred",
      "type": "event"
    },
    {
      "inputs": [],
      "name": "CALC_PRECISION",
      "outputs": [
        {
          "internalType": "uint256",
          "name": "",
          "type": "uint256"
        }
      ],
      "stateMutability": "view",
      "type": "function"
    },
    {
      "inputs": [],
      "name": "MCR",
      "outputs": [
        {
          "internalType": "uint256",
          "name": "",
          "type": "uint256"
        }
      ],
      "stateMutability": "view",
      "type": "function"
    },
    {
      "inputs": [],
      "name": "MLR",
      "outputs": [
        {
          "internalType": "uint256",
          "name": "",
          "type": "uint256"
        }
      ],
      "stateMutability": "view",
      "type": "function"
    },
    {
      "inputs": [
        {
          "internalType": "uint256",
          "name": "_withdrawAmount",
          "type": "uint256"
        },
        {
          "internalType": "uint256",
          "name": "_policyId",
          "type": "uint256"
        },
        {
          "internalType": "bool",
          "name": "_isFinished",
          "type": "bool"
        }
      ],
      "name": "SSIPPolicyCaim",
      "outputs": [],
      "stateMutability": "nonpayable",
      "type": "function"
    },
    {
      "inputs": [
        {
          "internalType": "uint256",
          "name": "_stakingAmount",
          "type": "uint256"
        }
      ],
      "name": "SSIPStaking",
      "outputs": [],
      "stateMutability": "nonpayable",
      "type": "function"
    },
    {
      "inputs": [
        {
          "internalType": "uint256",
          "name": "_withdrawAmount",
          "type": "uint256"
        }
      ],
      "name": "SSIPWithdraw",
      "outputs": [],
      "stateMutability": "nonpayable",
      "type": "function"
    },
    {
      "inputs": [],
      "name": "USDC_TOKEN",
      "outputs": [
        {
          "internalType": "address",
          "name": "",
          "type": "address"
        }
      ],
      "stateMutability": "view",
      "type": "function"
    },
    {
      "inputs": [
        {
          "internalType": "address",
          "name": "_ssip",
          "type": "address"
        },
        {
          "internalType": "address",
          "name": "_currency",
          "type": "address"
        },
        {
          "internalType": "uint256",
          "name": "_scr",
          "type": "uint256"
        }
      ],
      "name": "addPool",
      "outputs": [],
      "stateMutability": "nonpayable",
      "type": "function"
    },
    {
      "inputs": [
        {
          "internalType": "address",
          "name": "_ssip",
          "type": "address"
        },
        {
          "internalType": "address",
          "name": "_currency",
          "type": "address"
        },
        {
          "internalType": "uint256",
          "name": "_scr",
          "type": "uint256"
        },
        {
          "internalType": "uint256",
          "name": "_initCapital",
          "type": "uint256"
        }
      ],
      "name": "addPoolByAdmin",
      "outputs": [],
      "stateMutability": "nonpayable",
      "type": "function"
    },
    {
      "inputs": [
        {
          "internalType": "address",
          "name": "_pool",
          "type": "address"
        }
      ],
      "name": "addPoolWhiteList",
      "outputs": [],
      "stateMutability": "nonpayable",
      "type": "function"
    },
    {
      "inputs": [
        {
          "internalType": "address",
          "name": "_pool",
          "type": "address"
        },
        {
          "internalType": "uint256",
          "name": "_withdrawAmount",
          "type": "uint256"
        }
      ],
      "name": "checkCapitalByMCR",
      "outputs": [
        {
          "internalType": "bool",
          "name": "",
          "type": "bool"
        }
      ],
      "stateMutability": "view",
      "type": "function"
    },
    {
      "inputs": [
        {
          "internalType": "uint256",
          "name": "_coverageAmount",
          "type": "uint256"
        }
      ],
      "name": "checkCoverageByMLR",
      "outputs": [
        {
          "internalType": "bool",
          "name": "",
          "type": "bool"
        }
      ],
      "stateMutability": "view",
      "type": "function"
    },
    {
      "inputs": [],
      "name": "exchangeAgent",
      "outputs": [
        {
          "internalType": "address",
          "name": "",
          "type": "address"
        }
      ],
      "stateMutability": "view",
      "type": "function"
    },
    {
      "inputs": [
        {
          "internalType": "uint256",
          "name": "_policyId",
          "type": "uint256"
        }
      ],
      "name": "markToClaimPolicy",
      "outputs": [],
      "stateMutability": "nonpayable",
      "type": "function"
    },
    {
      "inputs": [],
      "name": "operator",
      "outputs": [
        {
          "internalType": "address",
          "name": "",
          "type": "address"
        }
      ],
      "stateMutability": "view",
      "type": "function"
    },
    {
      "inputs": [],
      "name": "owner",
      "outputs": [
        {
          "internalType": "address",
          "name": "",
          "type": "address"
        }
      ],
      "stateMutability": "view",
      "type": "function"
    },
    {
      "inputs": [],
      "name": "policyInfo",
      "outputs": [
        {
          "internalType": "address",
          "name": "policy",
          "type": "address"
        },
        {
          "internalType": "uint256",
          "name": "utilizedAmount",
          "type": "uint256"
        },
        {
          "internalType": "bool",
          "name": "exist",
          "type": "bool"
        }
      ],
      "stateMutability": "view",
      "type": "function"
    },
    {
      "inputs": [
        {
          "internalType": "uint256",
          "name": "_coverageAmount",
          "type": "uint256"
        }
      ],
      "name": "policySale",
      "outputs": [],
      "stateMutability": "nonpayable",
      "type": "function"
    },
    {
      "inputs": [
        {
          "internalType": "address",
          "name": "",
          "type": "address"
        }
      ],
      "name": "poolInfo",
      "outputs": [
        {
          "internalType": "uint256",
          "name": "totalCapital",
          "type": "uint256"
        },
        {
          "internalType": "uint256",
          "name": "SCR",
          "type": "uint256"
        },
        {
          "internalType": "address",
          "name": "currency",
          "type": "address"
        },
        {
          "internalType": "bool",
          "name": "exist",
          "type": "bool"
        }
      ],
      "stateMutability": "view",
      "type": "function"
    },
    {
      "inputs": [
        {
          "internalType": "address",
          "name": "",
          "type": "address"
        }
      ],
      "name": "poolWhiteList",
      "outputs": [
        {
          "internalType": "bool",
          "name": "",
          "type": "bool"
        }
      ],
      "stateMutability": "view",
      "type": "function"
    },
    {
      "inputs": [],
      "name": "removePolicy",
      "outputs": [],
      "stateMutability": "nonpayable",
      "type": "function"
    },
    {
      "inputs": [
        {
          "internalType": "address",
          "name": "_ssip",
          "type": "address"
        }
      ],
      "name": "removePool",
      "outputs": [],
      "stateMutability": "nonpayable",
      "type": "function"
    },
    {
      "inputs": [
        {
          "internalType": "address",
          "name": "_pool",
          "type": "address"
        }
      ],
      "name": "removePoolWhiteList",
      "outputs": [],
      "stateMutability": "nonpayable",
      "type": "function"
    },
    {
      "inputs": [],
      "name": "renounceOwnership",
      "outputs": [],
      "stateMutability": "nonpayable",
      "type": "function"
    },
    {
      "inputs": [],
      "name": "salesPolicyFactory",
      "outputs": [
        {
          "internalType": "address",
          "name": "",
          "type": "address"
        }
      ],
      "stateMutability": "view",
      "type": "function"
    },
    {
      "inputs": [
        {
          "internalType": "address",
          "name": "_exchangeAgent",
          "type": "address"
        }
      ],
      "name": "setExchangeAgent",
      "outputs": [],
      "stateMutability": "nonpayable",
      "type": "function"
    },
    {
      "inputs": [
        {
          "internalType": "uint256",
          "name": "_MCR",
          "type": "uint256"
        }
      ],
      "name": "setMCR",
      "outputs": [],
      "stateMutability": "nonpayable",
      "type": "function"
    },
    {
      "inputs": [
        {
          "internalType": "uint256",
          "name": "_MLR",
          "type": "uint256"
        }
      ],
      "name": "setMLR",
      "outputs": [],
      "stateMutability": "nonpayable",
      "type": "function"
    },
    {
      "inputs": [
        {
          "internalType": "address",
          "name": "_operator",
          "type": "address"
        }
      ],
      "name": "setOperator",
      "outputs": [],
      "stateMutability": "nonpayable",
      "type": "function"
    },
    {
      "inputs": [
        {
          "internalType": "address",
          "name": "_policy",
          "type": "address"
        }
      ],
      "name": "setPolicy",
      "outputs": [],
      "stateMutability": "nonpayable",
      "type": "function"
    },
    {
      "inputs": [
        {
          "internalType": "address",
          "name": "_policy",
          "type": "address"
        }
      ],
      "name": "setPolicyByAdmin",
      "outputs": [],
      "stateMutability": "nonpayable",
      "type": "function"
    },
    {
      "inputs": [
        {
          "internalType": "uint256",
          "name": "_SCR",
          "type": "uint256"
        },
        {
          "internalType": "address",
          "name": "_pool",
          "type": "address"
        }
      ],
      "name": "setSCR",
      "outputs": [],
      "stateMutability": "nonpayable",
      "type": "function"
    },
    {
      "inputs": [
        {
          "internalType": "address",
          "name": "_factory",
          "type": "address"
        }
      ],
      "name": "setSalesPolicyFactory",
      "outputs": [],
      "stateMutability": "nonpayable",
      "type": "function"
    },
    {
      "inputs": [],
      "name": "totalCapitalStaked",
      "outputs": [
        {
          "internalType": "uint256",
          "name": "",
          "type": "uint256"
        }
      ],
      "stateMutability": "view",
      "type": "function"
    },
    {
      "inputs": [],
      "name": "totalUtilizedAmount",
      "outputs": [
        {
          "internalType": "uint256",
          "name": "",
          "type": "uint256"
        }
      ],
      "stateMutability": "view",
      "type": "function"
    },
    {
      "inputs": [
        {
          "internalType": "address",
          "name": "newOwner",
          "type": "address"
        }
      ],
      "name": "transferOwnership",
      "outputs": [],
      "stateMutability": "nonpayable",
      "type": "function"
    },
    {
      "inputs": [
        {
          "internalType": "uint256",
          "name": "_policyId",
          "type": "uint256"
        }
      ],
      "name": "updatePolicyStatus",
      "outputs": [],
      "stateMutability": "nonpayable",
      "type": "function"
    }
  ],
  "transactionHash": "0xe1ec7db629b6ddbff937a3765ab7c9ee90b29bf095698d36db717bba3bedddc5",
  "args": [
    "0x282193B0f3CF5AE0942cA439f1E302900465b4e9",
    "0x188bf631F2272B61Dd61119fbD264aeC7b6C57D5",
    "0x5569BDF4e02cec3fE459796e3d0e741616029fA4",
    "0x5569BDF4e02cec3fE459796e3d0e741616029fA4"
  ],
  "solcInputHash": "d54e8bf4f2a38c5dd8149a924df1425d",
  "bytecode": "0x6080604052670de0b6b3a7640000600e553480156200001d57600080fd5b5060405162002d8d38038062002d8d83398101604081905262000040916200022e565b600160005562000059620000536200012f565b62000133565b6001600160a01b0384166200008b5760405162461bcd60e51b8152600401620000829062000349565b60405180910390fd5b6001600160a01b038316620000b45760405162461bcd60e51b8152600401620000829062000312565b6001600160a01b038216620000dd5760405162461bcd60e51b81526004016200008290620002d0565b600280546001600160a01b038087166001600160a01b031992831617909255600480548684169083161790556005805492841692909116919091179055620001258262000185565b50505050620003bf565b3390565b600180546001600160a01b038381166001600160a01b0319831681179093556040519116919082907f8be0079c531659141344cd1fd0a4f28419497f9722a3daafe3b4186f6b6457e090600090a35050565b6200018f6200012f565b6001600160a01b0316620001a262000202565b6001600160a01b031614620001cb5760405162461bcd60e51b815260040162000082906200038a565b6001600160a01b038116620001f45760405162461bcd60e51b815260040162000082906200028a565b620001ff8162000133565b50565b6001546001600160a01b031690565b80516001600160a01b03811681146200022957600080fd5b919050565b6000806000806080858703121562000244578384fd5b6200024f8562000211565b93506200025f6020860162000211565b92506200026f6040860162000211565b91506200027f6060860162000211565b905092959194509250565b60208082526026908201527f4f776e61626c653a206e6577206f776e657220697320746865207a65726f206160408201526564647265737360d01b606082015260800190565b60208082526022908201527f556e6f52653a207a65726f206d756c746973696777616c6c6574206164647265604082015261737360f01b606082015260800190565b60208082526018908201527f556e6f52653a207a65726f205553444320616464726573730000000000000000604082015260600190565b60208082526021908201527f556e6f52653a207a65726f2065786368616e67654167656e74206164647265736040820152607360f81b606082015260800190565b6020808252818101527f4f776e61626c653a2063616c6c6572206973206e6f7420746865206f776e6572604082015260600190565b6129be80620003cf6000396000f3fe608060405234801561001057600080fd5b50600436106102775760003560e01c80638be5a39f11610160578063b3ab15fb116100d8578063d8c5c8631161008c578063f2fde38b11610071578063f2fde38b146104cf578063fa569274146104e2578063fb6cb847146104ea57610277565b8063d8c5c863146104b4578063d9203b91146104c757610277565b8063c139b04f116100bd578063c139b04f14610486578063c3ea3a2814610499578063d4688a45146104ac57610277565b8063b3ab15fb14610460578063be22041b1461047357610277565b80639a7b5f111161012f578063a65888fb11610114578063a65888fb14610427578063a88d2f7a1461043a578063acd68d8f1461044d57610277565b80639a7b5f11146103f1578063a0931af21461041457610277565b80638be5a39f146103b75780638da5cb5b146103ca57806392ff38ec146103d2578063974e4d85146103da57610277565b8063570ca735116101f3578063794e5724116101c25780637e29d6c2116101a75780637e29d6c214610389578063869bd44a1461039c5780638bb70831146103af57610277565b8063794e57241461036e5780637d4163d31461037657610277565b8063570ca735146103435780635b44d5761461034b57806365cb3a831461035e578063715018a61461036657610277565b806336760a1c1161024a5780633b7d09461161022f5780633b7d0946146103085780634a3a3d141461031b5780634dc70bac1461032e57610277565b806336760a1c146102e0578063385a128f146102f557610277565b80630d7575311461027c57806318a00d8e146102915780631dfa426d146102a457806325042fe9146102b7575b600080fd5b61028f61028a3660046121d5565b6104fd565b005b61028f61029f3660046120e6565b6105d8565b61028f6102b23660046120e6565b6106c4565b6102ca6102c53660046120e6565b6107cc565b6040516102d791906122dd565b60405180910390f35b6102e86107e1565b6040516102d79190612269565b61028f6103033660046121a5565b6107f0565b61028f6103163660046120e6565b610898565b61028f6103293660046120e6565b610b30565b610336610c43565b6040516102d79190612896565b6102e8610c49565b61028f6103593660046121a5565b610c58565b61028f610ce8565b61028f610dd6565b610336610e21565b61028f6103843660046120e6565b610e27565b61028f610397366004612100565b610ea1565b61028f6103aa3660046121a5565b61102e565b61033661109e565b61028f6103c53660046121a5565b6110a4565b6102e861110e565b61033661111d565b6103e2611229565b6040516102d7939291906122ba565b6104046103ff3660046120e6565b611244565b6040516102d794939291906128ad565b61028f6104223660046121a5565b61127a565b61028f6104353660046120e6565b61131e565b61028f6104483660046120e6565b611435565b61028f61045b36600461213b565b611511565b61028f61046e3660046120e6565b6116b0565b61028f6104813660046121a5565b61178c565b6102ca61049436600461217c565b61193f565b6102ca6104a73660046121a5565b611954565b610336611967565b61028f6104c23660046121a5565b61196d565b6102e8611a15565b61028f6104dd3660046120e6565b611a24565b6102e8611a95565b61028f6104f8366004612200565b611aa4565b6005546001600160a01b031633146105305760405162461bcd60e51b815260040161052790612354565b60405180910390fd5b600260005414156105535760405162461bcd60e51b8152600401610527906127f3565b6002600055816105755760405162461bcd60e51b8152600401610527906126f1565b6001600160a01b0381166000818152600660205260409081902060010184905551309033907fade0e16d2bd0d685eef1e5355dc835692faac192ef62225adb31cd0c0b99c8a8906105c7908790612896565b60405180910390a450506001600055565b6105e0611b27565b6001600160a01b03166105f161110e565b6001600160a01b0316146106175760405162461bcd60e51b81526004016105279061267a565b6002600054141561063a5760405162461bcd60e51b8152600401610527906127f3565b60026000556001600160a01b0381166106655760405162461bcd60e51b8152600401610527906123e8565b600280546001600160a01b0319166001600160a01b038316179055604051309033907f28e0ff29ad991f2655c48b0b095a69abbf13aec6c8bc181dd526dbb3f8c9d0b9906106b4908590612269565b60405180910390a3506001600055565b6106cc611b27565b6001600160a01b03166106dd61110e565b6001600160a01b0316146107035760405162461bcd60e51b81526004016105279061267a565b600260005414156107265760405162461bcd60e51b8152600401610527906127f3565b60026000556001600160a01b0381166107515760405162461bcd60e51b8152600401610527906123e8565b604080516060810182526001600160a01b0383168082526000602083018190526001928401839052600880546001600160a01b031916831790556009819055600a805460ff191690931790925591517f8ba1947a8c64577d7adbd8cbc248c72b68738fe23afef984d842ba5ec5af5cfe9190a2506001600055565b600f6020526000908152604090205460ff1681565b6003546001600160a01b031681565b6005546001600160a01b0316331461081a5760405162461bcd60e51b815260040161052790612354565b6002600054141561083d5760405162461bcd60e51b8152600401610527906127f3565b60026000558061085f5760405162461bcd60e51b815260040161052790612456565b600c819055604051309033907fa55ee73f4232498ac4c250ffa77f4337343a213648a66147d8848f6660fa3fdf906106b4908590612896565b6108a0611b27565b6001600160a01b03166108b161110e565b6001600160a01b0316146108d75760405162461bcd60e51b81526004016105279061267a565b600260005414156108fa5760405162461bcd60e51b8152600401610527906127f3565b60026000556001600160a01b0381166109255760405162461bcd60e51b8152600401610527906123e8565b6001600160a01b038116600090815260066020526040902060020154600160a01b900460ff166109675760405162461bcd60e51b8152600401610527906125d7565b6001600160a01b03811660009081526006602052604081208181556001810182905560020180547fffffffffffffffffffffff0000000000000000000000000000000000000000001690555b600754811015610af257816001600160a01b0316600782815481106109e857634e487b7160e01b600052603260045260246000fd5b6000918252602090912001546001600160a01b03161415610ae05760078054610a1390600190612940565b81548110610a3157634e487b7160e01b600052603260045260246000fd5b600091825260209091200154600780546001600160a01b039092169183908110610a6b57634e487b7160e01b600052603260045260246000fd5b9060005260206000200160006101000a8154816001600160a01b0302191690836001600160a01b031602179055506007805480610ab857634e487b7160e01b600052603160045260246000fd5b600082815260209020810160001990810180546001600160a01b031916905501905550610b28565b80610aea81612957565b9150506109b3565b506040516001600160a01b038216907ff54e47602c09e6190ae0c9cba6074e2e211bf36944fd714fbb0bd78aba514cab90600090a25b506001600055565b610b38611b27565b6001600160a01b0316610b4961110e565b6001600160a01b031614610b6f5760405162461bcd60e51b81526004016105279061267a565b60026000541415610b925760405162461bcd60e51b8152600401610527906127f3565b60026000556001600160a01b038116610bbd5760405162461bcd60e51b8152600401610527906124fb565b6001600160a01b0381166000908152600f602052604090205460ff16610bf55760405162461bcd60e51b8152600401610527906122e8565b6001600160a01b0381166000818152600f6020526040808220805460ff19169055517f4151e001c03bfed83a194d10eea2c0edf04f98e382c440c94a947a99d38d2c329190a2506001600055565b600e5481565b6005546001600160a01b031681565b60026000541415610c7b5760405162461bcd60e51b8152600401610527906127f3565b600260008181553381526006602052604090200154600160a01b900460ff16610cb65760405162461bcd60e51b8152600401610527906127bc565b610cc03382611b2b565b610cdc5760405162461bcd60e51b81526004016105279061260e565b610b2833826000611bfc565b610cf0611b27565b6001600160a01b0316610d0161110e565b6001600160a01b031614610d275760405162461bcd60e51b81526004016105279061267a565b60026000541415610d4a5760405162461bcd60e51b8152600401610527906127f3565b6002600055600a5460ff16610d715760405162461bcd60e51b8152600401610527906125d7565b6000600b819055600880546001600160a01b03198116909155600a805460ff1916905560098290556040516001600160a01b039091169182917fffb315d96bed6cc0b00a9cc39d15fcbcab7d047fca09660a2d73569cfc75817c9190a2506001600055565b610dde611b27565b6001600160a01b0316610def61110e565b6001600160a01b031614610e155760405162461bcd60e51b81526004016105279061267a565b610e1f6000611cdf565b565b600c5481565b60026000541415610e4a5760405162461bcd60e51b8152600401610527906127f3565b60026000556003546001600160a01b0316610e775760405162461bcd60e51b8152600401610527906126af565b6003546001600160a01b031633146107515760405162461bcd60e51b81526004016105279061275f565b336000908152600f602052604090205460ff16610ed05760405162461bcd60e51b815260040161052790612354565b6001600160a01b038316610ef65760405162461bcd60e51b8152600401610527906123e8565b6001600160a01b038316600090815260066020526040902060020154600160a01b900460ff1615610f395760405162461bcd60e51b8152600401610527906125a0565b60408051608081018252600080825260208083018581526001600160a01b038088168587019081526001606087018181528b841680885260069096528887209751885593518782015590516002909601805493511515600160a01b0260ff60a01b19979093166001600160a01b03199485161796909616919091179094556007805494850181559092527fa66cc928b5edb82af9bd49922954155ab7b0942694bea4ce44661d9a8736c68890920180549091168217905590517f4135167fcda3c31ddaa41eecaaa00c3e3ba8aabf49d039cfad433be34bf659ab9061102190859085906122a1565b60405180910390a2505050565b611036611b27565b6001600160a01b031661104761110e565b6001600160a01b03161461106d5760405162461bcd60e51b81526004016105279061267a565b600260005414156110905760405162461bcd60e51b8152600401610527906127f3565b6002600055610b2881611d31565b600d5481565b600260005414156110c75760405162461bcd60e51b8152600401610527906127f3565b600260008181553381526006602052604090200154600160a01b900460ff166111025760405162461bcd60e51b8152600401610527906127bc565b610b2833826001611bfc565b6001546001600160a01b031690565b60008060005b600754811015611223576000600660006007848154811061115457634e487b7160e01b600052603260045260246000fd5b9060005260206000200160009054906101000a90046001600160a01b03166001600160a01b03166001600160a01b0316815260200190815260200160002060020160009054906101000a90046001600160a01b0316905060006112008260066000600787815481106111d657634e487b7160e01b600052603260045260246000fd5b60009182526020808320909101546001600160a01b03168352820192909252604001902054611e96565b905061120c81856128e9565b93505050808061121b90612957565b915050611123565b50905090565b600854600954600a546001600160a01b039092169160ff1683565b6006602052600090815260409020805460018201546002909201549091906001600160a01b03811690600160a01b900460ff1684565b6002600054141561129d5760405162461bcd60e51b8152600401610527906127f3565b60026000556008546001600160a01b031633146112cc5760405162461bcd60e51b815260040161052790612861565b600a5460ff166112ee5760405162461bcd60e51b815260040161052790612728565b6112f781611fd6565b6113135760405162461bcd60e51b81526004016105279061231f565b610b28816001612010565b611326611b27565b6001600160a01b031661133761110e565b6001600160a01b03161461135d5760405162461bcd60e51b81526004016105279061267a565b600260005414156113805760405162461bcd60e51b8152600401610527906127f3565b60026000556001600160a01b0381166113ab5760405162461bcd60e51b8152600401610527906124fb565b6001600160a01b0381166000908152600f602052604090205460ff16156113e45760405162461bcd60e51b8152600401610527906124c4565b6001600160a01b0381166000818152600f6020526040808220805460ff19166001179055517f398e8e2ed05e6be725398a28e81fdf023a447b92941bd666e68ce2091b82bcc79190a2506001600055565b61143d611b27565b6001600160a01b031661144e61110e565b6001600160a01b0316146114745760405162461bcd60e51b81526004016105279061267a565b600260005414156114975760405162461bcd60e51b8152600401610527906127f3565b60026000556001600160a01b0381166114c25760405162461bcd60e51b815260040161052790612643565b600380546001600160a01b0319166001600160a01b0383169081179091556040517f6507596e94e343212d1c22479359f82fffb65f099deb3ebcae9eb33c3d06de9e90600090a2506001600055565b611519611b27565b6001600160a01b031661152a61110e565b6001600160a01b0316146115505760405162461bcd60e51b81526004016105279061267a565b6001600160a01b0384166115765760405162461bcd60e51b8152600401610527906123e8565b6001600160a01b038416600090815260066020526040902060020154600160a01b900460ff16156115b95760405162461bcd60e51b8152600401610527906125a0565b6040805160808101825282815260208082018581526001600160a01b038088168486019081526001606086018181528b8416600081815260069097528887209751885594518783015591516002909601805492511515600160a01b0260ff60a01b19979094166001600160a01b03199384161796909616929092179094556007805491820181559092527fa66cc928b5edb82af9bd49922954155ab7b0942694bea4ce44661d9a8736c6889091018054909216811790915590517f4135167fcda3c31ddaa41eecaaa00c3e3ba8aabf49d039cfad433be34bf659ab906116a290869086906122a1565b60405180910390a250505050565b6116b8611b27565b6001600160a01b03166116c961110e565b6001600160a01b0316146116ef5760405162461bcd60e51b81526004016105279061267a565b600260005414156117125760405162461bcd60e51b8152600401610527906127f3565b60026000556001600160a01b03811661173d5760405162461bcd60e51b815260040161052790612532565b600580546001600160a01b0319166001600160a01b0383169081179091556040517f08c5d29613b4e7468e893fe5f104f5a3ea6e28298f00fbbab9dc9394578c89de90600090a2506001600055565b600260005414156117af5760405162461bcd60e51b8152600401610527906127f3565b60026000556008546001600160a01b03166117dc5760405162461bcd60e51b81526004016105279061241f565b600854604051637a5402e960e01b8152600091829182916001600160a01b031690637a5402e990611811908790600401612896565b60606040518083038186803b15801561182957600080fd5b505afa15801561183d573d6000803e3d6000fd5b505050506040513d601f19601f82011682018060405250810190611861919061223c565b91945092509050600061187482846128e9565b42108015915061193357611889846000612010565b6008546040516352eaf0a160e11b81526001600160a01b039091169063a5d5e142906118b9908890600401612896565b600060405180830381600087803b1580156118d357600080fd5b505af11580156118e7573d6000803e3d6000fd5b50506008546040516001600160a01b0390911692507faf1c77a8196c946ab8e645210cd1e2685b4fb758ddfd474fd918298854dea6fc915061192a908890612896565b60405180910390a25b50506001600055505050565b600061194b8383611b2b565b90505b92915050565b600061195f82611fd6565b90505b919050565b600b5481565b6005546001600160a01b031633146119975760405162461bcd60e51b815260040161052790612354565b600260005414156119ba5760405162461bcd60e51b8152600401610527906127f3565b6002600055806119dc5760405162461bcd60e51b815260040161052790612569565b600d819055604051309033907fb2f30bd42a6b499419a01b9b79e7b98934167f5a8a8c389ce446e20a8e5df765906106b4908590612896565b6002546001600160a01b031681565b611a2c611b27565b6001600160a01b0316611a3d61110e565b6001600160a01b031614611a635760405162461bcd60e51b81526004016105279061267a565b6001600160a01b038116611a895760405162461bcd60e51b81526004016105279061238b565b611a9281611cdf565b50565b6004546001600160a01b031681565b60026000541415611ac75760405162461bcd60e51b8152600401610527906127f3565b600260008181553381526006602052604090200154600160a01b900460ff16611b025760405162461bcd60e51b8152600401610527906127bc565b611b0e33846000611bfc565b8015611b1d57611b1d82611d31565b5050600160005550565b3390565b6001600160a01b0380831660009081526006602052604081206002015490911681611b568285611e96565b6001600160a01b03861660009081526006602052604081205491925090611b7e908490611e96565b90506000611b8a61111d565b90506000600e54600c5483611b9f9190612921565b611ba99190612901565b611bb38584612940565b6001600160a01b038a166000908152600660205260408120600101549290911015925090611be18686612940565b10159050818015611bef5750805b9998505050505050505050565b80611c39576001600160a01b038316600090815260066020526040902054821115611c395760405162461bcd60e51b81526004016105279061282a565b80611c67576001600160a01b038316600090815260066020526040902054611c62908390612940565b611c8b565b6001600160a01b038316600090815260066020526040902054611c8b9083906128e9565b6001600160a01b0384166000818152600660205260409020829055907f4c54f63d510ce2f2f9bf99bf203458cb67aa75fae97ccab560a1654eba9dbf2490611cd161111d565b60405161102192919061289f565b600180546001600160a01b038381166001600160a01b0319831681179093556040519116919082907f8be0079c531659141344cd1fd0a4f28419497f9722a3daafe3b4186f6b6457e090600090a35050565b6008546001600160a01b0316611d595760405162461bcd60e51b81526004016105279061241f565b600854604051637a5402e960e01b81526000916001600160a01b031690637a5402e990611d8a908590600401612896565b60606040518083038186803b158015611da257600080fd5b505afa158015611db6573d6000803e3d6000fd5b505050506040513d601f19601f82011682018060405250810190611dda919061223c565b50509050611de9816000612010565b6008546040516319d9b48f60e11b81526001600160a01b03909116906333b3691e90611e19908590600401612896565b600060405180830381600087803b158015611e3357600080fd5b505af1158015611e47573d6000803e3d6000fd5b50506008546040516001600160a01b0390911692507f56b46e5b13fdb3c0b1989f448e91b2ad68cf0c8e8ddd87f996720708ae3a15699150611e8a908590612896565b60405180910390a25050565b6004546000906001600160a01b0384811691161415611eb657508061194e565b6001600160a01b038316611f4f576002546004805460405163ba560ed960e01b81526001600160a01b039384169363ba560ed993611efa93909116918791016122a1565b60206040518083038186803b158015611f1257600080fd5b505afa158015611f26573d6000803e3d6000fd5b505050506040513d601f19601f82011682018060405250810190611f4a91906121bd565b61194b565b60025460048054604051631a44cdf360e11b81526001600160a01b03938416936334899be693611f8693899392169188910161227d565b60206040518083038186803b158015611f9e57600080fd5b505afa158015611fb2573d6000803e3d6000fd5b505050506040513d601f19601f8201168201806040525081019061194b91906121bd565b6000600e54600d54611fe661111d565b611ff09190612921565b611ffa9190612901565b82600b5461200891906128e9565b111592915050565b80612037576009548211156120375760405162461bcd60e51b81526004016105279061248d565b8061204f5760095461204a908390612940565b61205d565b60095461205d9083906128e9565b600955806120785781600b546120739190612940565b612086565b81600b5461208691906128e9565b600b8190556008546009546040516001600160a01b03909216927facece99dd8b86cb96519fb17caded4d103b35a8261463d0d11f80a411460730092611e8a92879290916128d3565b80356001600160a01b038116811461196257600080fd5b6000602082840312156120f7578081fd5b61194b826120cf565b600080600060608486031215612114578182fd5b61211d846120cf565b925061212b602085016120cf565b9150604084013590509250925092565b60008060008060808587031215612150578081fd5b612159856120cf565b9350612167602086016120cf565b93969395505050506040820135916060013590565b6000806040838503121561218e578182fd5b612197836120cf565b946020939093013593505050565b6000602082840312156121b6578081fd5b5035919050565b6000602082840312156121ce578081fd5b5051919050565b600080604083850312156121e7578182fd5b823591506121f7602084016120cf565b90509250929050565b600080600060608486031215612214578283fd5b833592506020840135915060408401358015158114612231578182fd5b809150509250925092565b600080600060608486031215612250578283fd5b8351925060208401519150604084015190509250925092565b6001600160a01b0391909116815260200190565b6001600160a01b039384168152919092166020820152604081019190915260600190565b6001600160a01b03929092168252602082015260400190565b6001600160a01b0393909316835260208301919091521515604082015260600190565b901515815260200190565b60208082526014908201527f556e6f52653a206e6f207768697465206c697374000000000000000000000000604082015260600190565b6020808252818101527f556e6f52653a206d6178696d756d206c65766572616765206f766572666c6f77604082015260600190565b6020808252601e908201527f556e6f52653a204361706974616c204167656e7420466f7262696464656e0000604082015260600190565b60208082526026908201527f4f776e61626c653a206e6577206f776e657220697320746865207a65726f206160408201527f6464726573730000000000000000000000000000000000000000000000000000606082015260800190565b60208082526013908201527f556e6f52653a207a65726f206164647265737300000000000000000000000000604082015260600190565b6020808252601b908201527f556e6f52653a206e6f2065786973742073616c6573506f6c6963790000000000604082015260600190565b6020808252600f908201527f556e6f52653a207a65726f206d63720000000000000000000000000000000000604082015260600190565b6020808252601f908201527f556e6f52653a20706f6c69637920636f766572616765206f766572666c6f7700604082015260600190565b60208082526019908201527f556e6f52653a207768697465206c69737420616c726561647900000000000000604082015260600190565b60208082526018908201527f556e6f52653a207a65726f20706f6f6c20616464726573730000000000000000604082015260600190565b6020808252601c908201527f556e6f52653a207a65726f206f70657261746f72206164647265737300000000604082015260600190565b6020808252600f908201527f556e6f52653a207a65726f206d6c720000000000000000000000000000000000604082015260600190565b60208082526019908201527f556e6f52653a20616c726561647920657869737420706f6f6c00000000000000604082015260600190565b60208082526013908201527f556e6f52653a206e6f206578697420706f6f6c00000000000000000000000000604082015260600190565b6020808252818101527f556e6f52653a206d696e696d756d206361706974616c20756e646572666c6f77604082015260600190565b6020808252601b908201527f556e6f52653a207a65726f20666163746f727920616464726573730000000000604082015260600190565b6020808252818101527f4f776e61626c653a2063616c6c6572206973206e6f7420746865206f776e6572604082015260600190565b60208082526022908201527f556e6f52653a206e6f742073657420666163746f727920616464726573732079604082015261195d60f21b606082015260800190565b6020808252600f908201527f556e6f52653a207a65726f207363720000000000000000000000000000000000604082015260600190565b60208082526016908201527f556e6f52653a206e6f20657869737420706f6c69637900000000000000000000604082015260600190565b60208082526027908201527f556e6f52653a206f6e6c792073616c6573506f6c696379466163746f7279206360408201527f616e2063616c6c00000000000000000000000000000000000000000000000000606082015260800190565b60208082526014908201527f556e6f52653a206e6f2065786973742073736970000000000000000000000000604082015260600190565b6020808252601f908201527f5265656e7472616e637947756172643a207265656e7472616e742063616c6c00604082015260600190565b6020808252601c908201527f556e6f52653a20706f6f6c206361706974616c206f766572666c6f7700000000604082015260600190565b6020808252818101527f556e6f52653a206f6e6c792073616c6573506f6c6963792063616e2063616c6c604082015260600190565b90815260200190565b918252602082015260400190565b93845260208401929092526001600160a01b031660408301521515606082015260800190565b9283526020830191909152604082015260600190565b600082198211156128fc576128fc612972565b500190565b60008261291c57634e487b7160e01b81526012600452602481fd5b500490565b600081600019048311821515161561293b5761293b612972565b500290565b60008282101561295257612952612972565b500390565b600060001982141561296b5761296b612972565b5060010190565b634e487b7160e01b600052601160045260246000fdfea26469706673582212208b6470d6ca7563aabdef430035dd0772a38ea45295996b36108f31fb684eaef864736f6c63430008000033",
  "devdoc": {
    "kind": "dev",
    "methods": {
      "owner()": {
        "details": "Returns the address of the current owner."
      },
      "renounceOwnership()": {
        "details": "Leaves the contract without owner. It will not be possible to call `onlyOwner` functions anymore. Can only be called by the current owner. NOTE: Renouncing ownership will leave the contract without an owner, thereby removing any functionality that is only available to the owner."
      },
      "transferOwnership(address)": {
        "details": "Transfers ownership of the contract to a new account (`newOwner`). Can only be called by the current owner."
      }
    },
    "version": 1
  },
  "userdoc": {
    "kind": "user",
    "methods": {},
    "version": 1
  },
  "storageLayout": {
    "storage": [
      {
        "astId": 114,
        "contract": "contracts/CapitalAgent.sol:CapitalAgent",
        "label": "_status",
        "offset": 0,
        "slot": "0",
        "type": "t_uint256"
      },
      {
        "astId": 7,
        "contract": "contracts/CapitalAgent.sol:CapitalAgent",
        "label": "_owner",
        "offset": 0,
        "slot": "1",
        "type": "t_address"
      },
      {
        "astId": 2418,
        "contract": "contracts/CapitalAgent.sol:CapitalAgent",
        "label": "exchangeAgent",
        "offset": 0,
        "slot": "2",
        "type": "t_address"
      },
      {
        "astId": 2420,
        "contract": "contracts/CapitalAgent.sol:CapitalAgent",
        "label": "salesPolicyFactory",
        "offset": 0,
        "slot": "3",
        "type": "t_address"
      },
      {
        "astId": 2422,
        "contract": "contracts/CapitalAgent.sol:CapitalAgent",
        "label": "USDC_TOKEN",
        "offset": 0,
        "slot": "4",
        "type": "t_address"
      },
      {
        "astId": 2424,
        "contract": "contracts/CapitalAgent.sol:CapitalAgent",
        "label": "operator",
        "offset": 0,
        "slot": "5",
        "type": "t_address"
      },
      {
        "astId": 2445,
        "contract": "contracts/CapitalAgent.sol:CapitalAgent",
        "label": "poolInfo",
        "offset": 0,
        "slot": "6",
        "type": "t_mapping(t_address,t_struct(PoolInfo)2433_storage)"
      },
      {
        "astId": 2448,
        "contract": "contracts/CapitalAgent.sol:CapitalAgent",
        "label": "poolList",
        "offset": 0,
        "slot": "7",
        "type": "t_array(t_address)dyn_storage"
      },
      {
        "astId": 2451,
        "contract": "contracts/CapitalAgent.sol:CapitalAgent",
        "label": "policyInfo",
        "offset": 0,
        "slot": "8",
        "type": "t_struct(PolicyInfo)2440_storage"
      },
      {
        "astId": 2453,
        "contract": "contracts/CapitalAgent.sol:CapitalAgent",
        "label": "totalUtilizedAmount",
        "offset": 0,
        "slot": "11",
        "type": "t_uint256"
      },
      {
        "astId": 2455,
        "contract": "contracts/CapitalAgent.sol:CapitalAgent",
        "label": "MCR",
        "offset": 0,
        "slot": "12",
        "type": "t_uint256"
      },
      {
        "astId": 2457,
        "contract": "contracts/CapitalAgent.sol:CapitalAgent",
        "label": "MLR",
        "offset": 0,
        "slot": "13",
        "type": "t_uint256"
      },
      {
        "astId": 2460,
        "contract": "contracts/CapitalAgent.sol:CapitalAgent",
        "label": "CALC_PRECISION",
        "offset": 0,
        "slot": "14",
        "type": "t_uint256"
      },
      {
        "astId": 2464,
        "contract": "contracts/CapitalAgent.sol:CapitalAgent",
        "label": "poolWhiteList",
        "offset": 0,
        "slot": "15",
        "type": "t_mapping(t_address,t_bool)"
      }
    ],
    "types": {
      "t_address": {
        "encoding": "inplace",
        "label": "address",
        "numberOfBytes": "20"
      },
      "t_array(t_address)dyn_storage": {
        "base": "t_address",
        "encoding": "dynamic_array",
        "label": "address[]",
        "numberOfBytes": "32"
      },
      "t_bool": {
        "encoding": "inplace",
        "label": "bool",
        "numberOfBytes": "1"
      },
      "t_mapping(t_address,t_bool)": {
        "encoding": "mapping",
        "key": "t_address",
        "label": "mapping(address => bool)",
        "numberOfBytes": "32",
        "value": "t_bool"
      },
      "t_mapping(t_address,t_struct(PoolInfo)2433_storage)": {
        "encoding": "mapping",
        "key": "t_address",
        "label": "mapping(address => struct CapitalAgent.PoolInfo)",
        "numberOfBytes": "32",
        "value": "t_struct(PoolInfo)2433_storage"
      },
      "t_struct(PolicyInfo)2440_storage": {
        "encoding": "inplace",
        "label": "struct CapitalAgent.PolicyInfo",
        "members": [
          {
            "astId": 2435,
            "contract": "contracts/CapitalAgent.sol:CapitalAgent",
            "label": "policy",
            "offset": 0,
            "slot": "0",
            "type": "t_address"
          },
          {
            "astId": 2437,
            "contract": "contracts/CapitalAgent.sol:CapitalAgent",
            "label": "utilizedAmount",
            "offset": 0,
            "slot": "1",
            "type": "t_uint256"
          },
          {
            "astId": 2439,
            "contract": "contracts/CapitalAgent.sol:CapitalAgent",
            "label": "exist",
            "offset": 0,
            "slot": "2",
            "type": "t_bool"
          }
        ],
        "numberOfBytes": "96"
      },
      "t_struct(PoolInfo)2433_storage": {
        "encoding": "inplace",
        "label": "struct CapitalAgent.PoolInfo",
        "members": [
          {
            "astId": 2426,
            "contract": "contracts/CapitalAgent.sol:CapitalAgent",
            "label": "totalCapital",
            "offset": 0,
            "slot": "0",
            "type": "t_uint256"
          },
          {
            "astId": 2428,
            "contract": "contracts/CapitalAgent.sol:CapitalAgent",
            "label": "SCR",
            "offset": 0,
            "slot": "1",
            "type": "t_uint256"
          },
          {
            "astId": 2430,
            "contract": "contracts/CapitalAgent.sol:CapitalAgent",
            "label": "currency",
            "offset": 0,
            "slot": "2",
            "type": "t_address"
          },
          {
            "astId": 2432,
            "contract": "contracts/CapitalAgent.sol:CapitalAgent",
            "label": "exist",
            "offset": 20,
            "slot": "2",
            "type": "t_bool"
          }
        ],
        "numberOfBytes": "96"
      },
      "t_uint256": {
        "encoding": "inplace",
        "label": "uint256",
        "numberOfBytes": "32"
      }
    }
  }
}