{
  "address": "0xC606C1c1d3d2aB9c16d911C6eA20C3A4B8d26149",
  "abi": [
    {
      "inputs": [
        {
          "internalType": "address",
          "name": "_exchangeAgent",
          "type": "address"
        },
        {
          "internalType": "address",
          "name": "_USDC_TOKEN",
          "type": "address"
        },
        {
          "internalType": "address",
          "name": "_multiSigWallet",
          "type": "address"
        },
        {
          "internalType": "address",
          "name": "_operator",
          "type": "address"
        }
      ],
      "stateMutability": "nonpayable",
      "type": "constructor"
    },
    {
      "anonymous": false,
      "inputs": [
        {
          "indexed": true,
          "internalType": "address",
          "name": "_ssip",
          "type": "address"
        },
        {
          "indexed": false,
          "internalType": "address",
          "name": "_currency",
          "type": "address"
        },
        {
          "indexed": false,
          "internalType": "uint256",
          "name": "_scr",
          "type": "uint256"
        }
      ],
      "name": "LogAddPool",
      "type": "event"
    },
    {
      "anonymous": false,
      "inputs": [
        {
          "indexed": true,
          "internalType": "address",
          "name": "_pool",
          "type": "address"
        }
      ],
      "name": "LogAddPoolWhiteList",
      "type": "event"
    },
    {
      "anonymous": false,
      "inputs": [
        {
          "indexed": true,
          "internalType": "address",
          "name": "_policy",
          "type": "address"
        },
        {
          "indexed": false,
          "internalType": "uint256",
          "name": "_policyTokenId",
          "type": "uint256"
        }
      ],
      "name": "LogMarkToClaimPolicy",
      "type": "event"
    },
    {
      "anonymous": false,
      "inputs": [
        {
          "indexed": true,
          "internalType": "address",
          "name": "_salesPolicy",
          "type": "address"
        }
      ],
      "name": "LogRemovePolicy",
      "type": "event"
    },
    {
      "anonymous": false,
      "inputs": [
        {
          "indexed": true,
          "internalType": "address",
          "name": "_ssip",
          "type": "address"
        }
      ],
      "name": "LogRemovePool",
      "type": "event"
    },
    {
      "anonymous": false,
      "inputs": [
        {
          "indexed": true,
          "internalType": "address",
          "name": "_pool",
          "type": "address"
        }
      ],
      "name": "LogRemovePoolWhiteList",
      "type": "event"
    },
    {
      "anonymous": false,
      "inputs": [
        {
          "indexed": true,
          "internalType": "address",
          "name": "_owner",
          "type": "address"
        },
        {
          "indexed": true,
          "internalType": "address",
          "name": "_capitalAgent",
          "type": "address"
        },
        {
          "indexed": false,
          "internalType": "address",
          "name": "_exchangeAgent",
          "type": "address"
        }
      ],
      "name": "LogSetExchangeAgent",
      "type": "event"
    },
    {
      "anonymous": false,
      "inputs": [
        {
          "indexed": true,
          "internalType": "address",
          "name": "_owner",
          "type": "address"
        },
        {
          "indexed": true,
          "internalType": "address",
          "name": "_capitalAgent",
          "type": "address"
        },
        {
          "indexed": false,
          "internalType": "uint256",
          "name": "_MCR",
          "type": "uint256"
        }
      ],
      "name": "LogSetMCR",
      "type": "event"
    },
    {
      "anonymous": false,
      "inputs": [
        {
          "indexed": true,
          "internalType": "address",
          "name": "_owner",
          "type": "address"
        },
        {
          "indexed": true,
          "internalType": "address",
          "name": "_capitalAgent",
          "type": "address"
        },
        {
          "indexed": false,
          "internalType": "uint256",
          "name": "_MLR",
          "type": "uint256"
        }
      ],
      "name": "LogSetMLR",
      "type": "event"
    },
    {
      "anonymous": false,
      "inputs": [
        {
          "indexed": true,
          "internalType": "address",
          "name": "_operator",
          "type": "address"
        }
      ],
      "name": "LogSetOperator",
      "type": "event"
    },
    {
      "anonymous": false,
      "inputs": [
        {
          "indexed": true,
          "internalType": "address",
          "name": "_salesPolicy",
          "type": "address"
        }
      ],
      "name": "LogSetPolicy",
      "type": "event"
    },
    {
      "anonymous": false,
      "inputs": [
        {
          "indexed": true,
          "internalType": "address",
          "name": "_owner",
          "type": "address"
        },
        {
          "indexed": true,
          "internalType": "address",
          "name": "_capitalAgent",
          "type": "address"
        },
        {
          "indexed": true,
          "internalType": "address",
          "name": "_pool",
          "type": "address"
        },
        {
          "indexed": false,
          "internalType": "uint256",
          "name": "_SCR",
          "type": "uint256"
        }
      ],
      "name": "LogSetSCR",
      "type": "event"
    },
    {
      "anonymous": false,
      "inputs": [
        {
          "indexed": true,
          "internalType": "address",
          "name": "_factory",
          "type": "address"
        }
      ],
      "name": "LogSetSalesPolicyFactory",
      "type": "event"
    },
    {
      "anonymous": false,
      "inputs": [
        {
          "indexed": true,
          "internalType": "address",
          "name": "_policy",
          "type": "address"
        },
        {
          "indexed": false,
          "internalType": "uint256",
          "name": "_amount",
          "type": "uint256"
        },
        {
          "indexed": false,
          "internalType": "uint256",
          "name": "_policyUtilized",
          "type": "uint256"
        },
        {
          "indexed": false,
          "internalType": "uint256",
          "name": "_totalUtilizedAmount",
          "type": "uint256"
        }
      ],
      "name": "LogUpdatePolicyCoverage",
      "type": "event"
    },
    {
      "anonymous": false,
      "inputs": [
        {
          "indexed": true,
          "internalType": "address",
          "name": "_policy",
          "type": "address"
        },
        {
          "indexed": false,
          "internalType": "uint256",
          "name": "_policyTokenId",
          "type": "uint256"
        }
      ],
      "name": "LogUpdatePolicyExpired",
      "type": "event"
    },
    {
      "anonymous": false,
      "inputs": [
        {
          "indexed": true,
          "internalType": "address",
          "name": "_ssip",
          "type": "address"
        },
        {
          "indexed": false,
          "internalType": "uint256",
          "name": "_poolCapital",
          "type": "uint256"
        },
        {
          "indexed": false,
          "internalType": "uint256",
          "name": "_totalCapital",
          "type": "uint256"
        }
      ],
      "name": "LogUpdatePoolCapital",
      "type": "event"
    },
    {
      "anonymous": false,
      "inputs": [
        {
          "indexed": true,
          "internalType": "address",
          "name": "previousOwner",
          "type": "address"
        },
        {
          "indexed": true,
          "internalType": "address",
          "name": "newOwner",
          "type": "address"
        }
      ],
      "name": "OwnershipTransferred",
      "type": "event"
    },
    {
      "inputs": [],
      "name": "CALC_PRECISION",
      "outputs": [
        {
          "internalType": "uint256",
          "name": "",
          "type": "uint256"
        }
      ],
      "stateMutability": "view",
      "type": "function"
    },
    {
      "inputs": [],
      "name": "MCR",
      "outputs": [
        {
          "internalType": "uint256",
          "name": "",
          "type": "uint256"
        }
      ],
      "stateMutability": "view",
      "type": "function"
    },
    {
      "inputs": [],
      "name": "MLR",
      "outputs": [
        {
          "internalType": "uint256",
          "name": "",
          "type": "uint256"
        }
      ],
      "stateMutability": "view",
      "type": "function"
    },
    {
      "inputs": [
        {
          "internalType": "uint256",
          "name": "_withdrawAmount",
          "type": "uint256"
        },
        {
          "internalType": "uint256",
          "name": "_policyId",
          "type": "uint256"
        },
        {
          "internalType": "bool",
          "name": "_isFinished",
          "type": "bool"
        }
      ],
      "name": "SSIPPolicyCaim",
      "outputs": [],
      "stateMutability": "nonpayable",
      "type": "function"
    },
    {
      "inputs": [
        {
          "internalType": "uint256",
          "name": "_stakingAmount",
          "type": "uint256"
        }
      ],
      "name": "SSIPStaking",
      "outputs": [],
      "stateMutability": "nonpayable",
      "type": "function"
    },
    {
      "inputs": [
        {
          "internalType": "uint256",
          "name": "_withdrawAmount",
          "type": "uint256"
        }
      ],
      "name": "SSIPWithdraw",
      "outputs": [],
      "stateMutability": "nonpayable",
      "type": "function"
    },
    {
      "inputs": [],
      "name": "USDC_TOKEN",
      "outputs": [
        {
          "internalType": "address",
          "name": "",
          "type": "address"
        }
      ],
      "stateMutability": "view",
      "type": "function"
    },
    {
      "inputs": [
        {
          "internalType": "address",
          "name": "_ssip",
          "type": "address"
        },
        {
          "internalType": "address",
          "name": "_currency",
          "type": "address"
        },
        {
          "internalType": "uint256",
          "name": "_scr",
          "type": "uint256"
        }
      ],
      "name": "addPool",
      "outputs": [],
      "stateMutability": "nonpayable",
      "type": "function"
    },
    {
      "inputs": [
        {
          "internalType": "address",
          "name": "_ssip",
          "type": "address"
        },
        {
          "internalType": "address",
          "name": "_currency",
          "type": "address"
        },
        {
          "internalType": "uint256",
          "name": "_scr",
          "type": "uint256"
        }
      ],
      "name": "addPoolByAdmin",
      "outputs": [],
      "stateMutability": "nonpayable",
      "type": "function"
    },
    {
      "inputs": [
        {
          "internalType": "address",
          "name": "_pool",
          "type": "address"
        }
      ],
      "name": "addPoolWhiteList",
      "outputs": [],
      "stateMutability": "nonpayable",
      "type": "function"
    },
    {
      "inputs": [
        {
          "internalType": "address",
          "name": "_pool",
          "type": "address"
        },
        {
          "internalType": "uint256",
          "name": "_withdrawAmount",
          "type": "uint256"
        }
      ],
      "name": "checkCapitalByMCR",
      "outputs": [
        {
          "internalType": "bool",
          "name": "",
          "type": "bool"
        }
      ],
      "stateMutability": "view",
      "type": "function"
    },
    {
      "inputs": [
        {
          "internalType": "uint256",
          "name": "_coverageAmount",
          "type": "uint256"
        }
      ],
      "name": "checkCoverageByMLR",
      "outputs": [
        {
          "internalType": "bool",
          "name": "",
          "type": "bool"
        }
      ],
      "stateMutability": "view",
      "type": "function"
    },
    {
      "inputs": [],
      "name": "exchangeAgent",
      "outputs": [
        {
          "internalType": "address",
          "name": "",
          "type": "address"
        }
      ],
      "stateMutability": "view",
      "type": "function"
    },
    {
      "inputs": [
        {
          "internalType": "uint256",
          "name": "_policyId",
          "type": "uint256"
        }
      ],
      "name": "markToClaimPolicy",
      "outputs": [],
      "stateMutability": "nonpayable",
      "type": "function"
    },
    {
      "inputs": [],
      "name": "operator",
      "outputs": [
        {
          "internalType": "address",
          "name": "",
          "type": "address"
        }
      ],
      "stateMutability": "view",
      "type": "function"
    },
    {
      "inputs": [],
      "name": "owner",
      "outputs": [
        {
          "internalType": "address",
          "name": "",
          "type": "address"
        }
      ],
      "stateMutability": "view",
      "type": "function"
    },
    {
      "inputs": [],
      "name": "policyInfo",
      "outputs": [
        {
          "internalType": "address",
          "name": "policy",
          "type": "address"
        },
        {
          "internalType": "uint256",
          "name": "utilizedAmount",
          "type": "uint256"
        },
        {
          "internalType": "bool",
          "name": "exist",
          "type": "bool"
        }
      ],
      "stateMutability": "view",
      "type": "function"
    },
    {
      "inputs": [
        {
          "internalType": "uint256",
          "name": "_coverageAmount",
          "type": "uint256"
        }
      ],
      "name": "policySale",
      "outputs": [],
      "stateMutability": "nonpayable",
      "type": "function"
    },
    {
      "inputs": [
        {
          "internalType": "address",
          "name": "",
          "type": "address"
        }
      ],
      "name": "poolInfo",
      "outputs": [
        {
          "internalType": "uint256",
          "name": "totalCapital",
          "type": "uint256"
        },
        {
          "internalType": "uint256",
          "name": "SCR",
          "type": "uint256"
        },
        {
          "internalType": "address",
          "name": "currency",
          "type": "address"
        },
        {
          "internalType": "bool",
          "name": "exist",
          "type": "bool"
        }
      ],
      "stateMutability": "view",
      "type": "function"
    },
    {
      "inputs": [
        {
          "internalType": "address",
          "name": "",
          "type": "address"
        }
      ],
      "name": "poolWhiteList",
      "outputs": [
        {
          "internalType": "bool",
          "name": "",
          "type": "bool"
        }
      ],
      "stateMutability": "view",
      "type": "function"
    },
    {
      "inputs": [],
      "name": "removePolicy",
      "outputs": [],
      "stateMutability": "nonpayable",
      "type": "function"
    },
    {
      "inputs": [
        {
          "internalType": "address",
          "name": "_ssip",
          "type": "address"
        }
      ],
      "name": "removePool",
      "outputs": [],
      "stateMutability": "nonpayable",
      "type": "function"
    },
    {
      "inputs": [
        {
          "internalType": "address",
          "name": "_pool",
          "type": "address"
        }
      ],
      "name": "removePoolWhiteList",
      "outputs": [],
      "stateMutability": "nonpayable",
      "type": "function"
    },
    {
      "inputs": [],
      "name": "renounceOwnership",
      "outputs": [],
      "stateMutability": "nonpayable",
      "type": "function"
    },
    {
      "inputs": [],
      "name": "salesPolicyFactory",
      "outputs": [
        {
          "internalType": "address",
          "name": "",
          "type": "address"
        }
      ],
      "stateMutability": "view",
      "type": "function"
    },
    {
      "inputs": [
        {
          "internalType": "address",
          "name": "_exchangeAgent",
          "type": "address"
        }
      ],
      "name": "setExchangeAgent",
      "outputs": [],
      "stateMutability": "nonpayable",
      "type": "function"
    },
    {
      "inputs": [
        {
          "internalType": "uint256",
          "name": "_MCR",
          "type": "uint256"
        }
      ],
      "name": "setMCR",
      "outputs": [],
      "stateMutability": "nonpayable",
      "type": "function"
    },
    {
      "inputs": [
        {
          "internalType": "uint256",
          "name": "_MLR",
          "type": "uint256"
        }
      ],
      "name": "setMLR",
      "outputs": [],
      "stateMutability": "nonpayable",
      "type": "function"
    },
    {
      "inputs": [
        {
          "internalType": "address",
          "name": "_operator",
          "type": "address"
        }
      ],
      "name": "setOperator",
      "outputs": [],
      "stateMutability": "nonpayable",
      "type": "function"
    },
    {
      "inputs": [
        {
          "internalType": "address",
          "name": "_policy",
          "type": "address"
        }
      ],
      "name": "setPolicy",
      "outputs": [],
      "stateMutability": "nonpayable",
      "type": "function"
    },
    {
      "inputs": [
        {
          "internalType": "address",
          "name": "_policy",
          "type": "address"
        }
      ],
      "name": "setPolicyByAdmin",
      "outputs": [],
      "stateMutability": "nonpayable",
      "type": "function"
    },
    {
      "inputs": [
        {
          "internalType": "uint256",
          "name": "_SCR",
          "type": "uint256"
        },
        {
          "internalType": "address",
          "name": "_pool",
          "type": "address"
        }
      ],
      "name": "setSCR",
      "outputs": [],
      "stateMutability": "nonpayable",
      "type": "function"
    },
    {
      "inputs": [
        {
          "internalType": "address",
          "name": "_factory",
          "type": "address"
        }
      ],
      "name": "setSalesPolicyFactory",
      "outputs": [],
      "stateMutability": "nonpayable",
      "type": "function"
    },
    {
      "inputs": [],
      "name": "totalCapitalInUSDC",
      "outputs": [
        {
          "internalType": "uint256",
          "name": "",
          "type": "uint256"
        }
      ],
      "stateMutability": "view",
      "type": "function"
    },
    {
      "inputs": [],
      "name": "totalUtilizedAmount",
      "outputs": [
        {
          "internalType": "uint256",
          "name": "",
          "type": "uint256"
        }
      ],
      "stateMutability": "view",
      "type": "function"
    },
    {
      "inputs": [
        {
          "internalType": "address",
          "name": "newOwner",
          "type": "address"
        }
      ],
      "name": "transferOwnership",
      "outputs": [],
      "stateMutability": "nonpayable",
      "type": "function"
    },
    {
      "inputs": [
        {
          "internalType": "uint256",
          "name": "_policyId",
          "type": "uint256"
        }
      ],
      "name": "updatePolicyStatus",
      "outputs": [],
      "stateMutability": "nonpayable",
      "type": "function"
    }
  ],
  "transactionHash": "0x707fedb1822f7f813154ee71673d564366fff1b0ee75cf1713d220d895fa5ad8",
  "args": [
    "0x282193B0f3CF5AE0942cA439f1E302900465b4e9",
    "0x188bf631F2272B61Dd61119fbD264aeC7b6C57D5",
    "0x5569BDF4e02cec3fE459796e3d0e741616029fA4",
    "0x5569BDF4e02cec3fE459796e3d0e741616029fA4"
  ],
  "solcInputHash": "81a789fec1fbbda0ae7e1525ae30538a",
  "bytecode": "0x6080604052670de0b6b3a7640000600e553480156200001d57600080fd5b5060405162002c0738038062002c0783398101604081905262000040916200022e565b600160005562000059620000536200012f565b62000133565b6001600160a01b0384166200008b5760405162461bcd60e51b8152600401620000829062000349565b60405180910390fd5b6001600160a01b038316620000b45760405162461bcd60e51b8152600401620000829062000312565b6001600160a01b038216620000dd5760405162461bcd60e51b81526004016200008290620002d0565b600280546001600160a01b038087166001600160a01b031992831617909255600480548684169083161790556005805492841692909116919091179055620001258262000185565b50505050620003bf565b3390565b600180546001600160a01b038381166001600160a01b0319831681179093556040519116919082907f8be0079c531659141344cd1fd0a4f28419497f9722a3daafe3b4186f6b6457e090600090a35050565b6200018f6200012f565b6001600160a01b0316620001a262000202565b6001600160a01b031614620001cb5760405162461bcd60e51b815260040162000082906200038a565b6001600160a01b038116620001f45760405162461bcd60e51b815260040162000082906200028a565b620001ff8162000133565b50565b6001546001600160a01b031690565b80516001600160a01b03811681146200022957600080fd5b919050565b6000806000806080858703121562000244578384fd5b6200024f8562000211565b93506200025f6020860162000211565b92506200026f6040860162000211565b91506200027f6060860162000211565b905092959194509250565b60208082526026908201527f4f776e61626c653a206e6577206f776e657220697320746865207a65726f206160408201526564647265737360d01b606082015260800190565b60208082526022908201527f556e6f52653a207a65726f206d756c746973696777616c6c6574206164647265604082015261737360f01b606082015260800190565b60208082526018908201527f556e6f52653a207a65726f205553444320616464726573730000000000000000604082015260600190565b60208082526021908201527f556e6f52653a207a65726f2065786368616e67654167656e74206164647265736040820152607360f81b606082015260800190565b6020808252818101527f4f776e61626c653a2063616c6c6572206973206e6f7420746865206f776e6572604082015260600190565b61283880620003cf6000396000f3fe608060405234801561001057600080fd5b50600436106102775760003560e01c8063869bd44a11610160578063b3ab15fb116100d8578063d8c5c8631161008c578063f2fde38b11610071578063f2fde38b146104cf578063fa569274146104e2578063fb6cb847146104ea57610277565b8063d8c5c863146104b4578063d9203b91146104c757610277565b8063c139b04f116100bd578063c139b04f14610486578063c3ea3a2814610499578063d4688a45146104ac57610277565b8063b3ab15fb14610460578063be22041b1461047357610277565b8063974e4d851161012f578063a0931af211610114578063a0931af214610427578063a65888fb1461043a578063a88d2f7a1461044d57610277565b8063974e4d85146103ed5780639a7b5f111461040457610277565b8063869bd44a146103b75780638bb70831146103ca5780638be5a39f146103d25780638da5cb5b146103e557610277565b80634dc70bac116101f3578063706c2d1b116101c2578063794e5724116101a7578063794e5724146103895780637d4163d3146103915780637e29d6c2146103a457610277565b8063706c2d1b1461036e578063715018a61461038157610277565b80634dc70bac14610343578063570ca7351461034b5780635b44d5761461035357806365cb3a831461036657610277565b80633021e96b1161024a578063385a128f1161022f578063385a128f1461030a5780633b7d09461461031d5780634a3a3d141461033057610277565b80633021e96b146102e057806336760a1c146102f557610277565b80630d7575311461027c57806318a00d8e146102915780631dfa426d146102a457806325042fe9146102b7575b600080fd5b61028f61028a36600461204f565b6104fd565b005b61028f61029f366004611fa1565b6105d8565b61028f6102b2366004611fa1565b6106c4565b6102ca6102c5366004611fa1565b6107cc565b6040516102d79190612157565b60405180910390f35b6102e86107e1565b6040516102d79190612710565b6102fd6108ed565b6040516102d791906120e3565b61028f61031836600461201f565b6108fc565b61028f61032b366004611fa1565b6109a4565b61028f61033e366004611fa1565b610c3c565b6102e8610d4f565b6102fd610d55565b61028f61036136600461201f565b610d64565b61028f610df4565b61028f61037c366004611fbb565b610ee2565b61028f61109a565b6102e86110e5565b61028f61039f366004611fa1565b6110eb565b61028f6103b2366004611fbb565b611165565b61028f6103c536600461201f565b611194565b6102e8611204565b61028f6103e036600461201f565b61120a565b6102fd611274565b6103f5611283565b6040516102d793929190612134565b610417610412366004611fa1565b61129e565b6040516102d79493929190612727565b61028f61043536600461201f565b6112d4565b61028f610448366004611fa1565b611378565b61028f61045b366004611fa1565b61148f565b61028f61046e366004611fa1565b61156b565b61028f61048136600461201f565b611647565b6102ca610494366004611ff6565b6117fa565b6102ca6104a736600461201f565b61180f565b6102e8611822565b61028f6104c236600461201f565b611828565b6102fd6118d0565b61028f6104dd366004611fa1565b6118df565b6102fd611950565b61028f6104f836600461207a565b61195f565b6005546001600160a01b031633146105305760405162461bcd60e51b8152600401610527906121ce565b60405180910390fd5b600260005414156105535760405162461bcd60e51b81526004016105279061266d565b6002600055816105755760405162461bcd60e51b81526004016105279061256b565b6001600160a01b0381166000818152600660205260409081902060010184905551309033907fade0e16d2bd0d685eef1e5355dc835692faac192ef62225adb31cd0c0b99c8a8906105c7908790612710565b60405180910390a450506001600055565b6105e06119e2565b6001600160a01b03166105f1611274565b6001600160a01b0316146106175760405162461bcd60e51b8152600401610527906124f4565b6002600054141561063a5760405162461bcd60e51b81526004016105279061266d565b60026000556001600160a01b0381166106655760405162461bcd60e51b815260040161052790612262565b600280546001600160a01b0319166001600160a01b038316179055604051309033907f28e0ff29ad991f2655c48b0b095a69abbf13aec6c8bc181dd526dbb3f8c9d0b9906106b49085906120e3565b60405180910390a3506001600055565b6106cc6119e2565b6001600160a01b03166106dd611274565b6001600160a01b0316146107035760405162461bcd60e51b8152600401610527906124f4565b600260005414156107265760405162461bcd60e51b81526004016105279061266d565b60026000556001600160a01b0381166107515760405162461bcd60e51b815260040161052790612262565b604080516060810182526001600160a01b0383168082526000602083018190526001928401839052600880546001600160a01b031916831790556009819055600a805460ff191690931790925591517f8ba1947a8c64577d7adbd8cbc248c72b68738fe23afef984d842ba5ec5af5cfe9190a2506001600055565b600f6020526000908152604090205460ff1681565b60008060005b6007548110156108e7576000600660006007848154811061081857634e487b7160e01b600052603260045260246000fd5b9060005260206000200160009054906101000a90046001600160a01b03166001600160a01b03166001600160a01b0316815260200190815260200160002060020160009054906101000a90046001600160a01b0316905060006108c482600660006007878154811061089a57634e487b7160e01b600052603260045260246000fd5b60009182526020808320909101546001600160a01b031683528201929092526040019020546119e6565b90506108d08185612763565b9350505080806108df906127d1565b9150506107e7565b50905090565b6003546001600160a01b031681565b6005546001600160a01b031633146109265760405162461bcd60e51b8152600401610527906121ce565b600260005414156109495760405162461bcd60e51b81526004016105279061266d565b60026000558061096b5760405162461bcd60e51b8152600401610527906122d0565b600c819055604051309033907fa55ee73f4232498ac4c250ffa77f4337343a213648a66147d8848f6660fa3fdf906106b4908590612710565b6109ac6119e2565b6001600160a01b03166109bd611274565b6001600160a01b0316146109e35760405162461bcd60e51b8152600401610527906124f4565b60026000541415610a065760405162461bcd60e51b81526004016105279061266d565b60026000556001600160a01b038116610a315760405162461bcd60e51b815260040161052790612262565b6001600160a01b038116600090815260066020526040902060020154600160a01b900460ff16610a735760405162461bcd60e51b815260040161052790612451565b6001600160a01b03811660009081526006602052604081208181556001810182905560020180547fffffffffffffffffffffff0000000000000000000000000000000000000000001690555b600754811015610bfe57816001600160a01b031660078281548110610af457634e487b7160e01b600052603260045260246000fd5b6000918252602090912001546001600160a01b03161415610bec5760078054610b1f906001906127ba565b81548110610b3d57634e487b7160e01b600052603260045260246000fd5b600091825260209091200154600780546001600160a01b039092169183908110610b7757634e487b7160e01b600052603260045260246000fd5b9060005260206000200160006101000a8154816001600160a01b0302191690836001600160a01b031602179055506007805480610bc457634e487b7160e01b600052603160045260246000fd5b600082815260209020810160001990810180546001600160a01b031916905501905550610c34565b80610bf6816127d1565b915050610abf565b506040516001600160a01b038216907ff54e47602c09e6190ae0c9cba6074e2e211bf36944fd714fbb0bd78aba514cab90600090a25b506001600055565b610c446119e2565b6001600160a01b0316610c55611274565b6001600160a01b031614610c7b5760405162461bcd60e51b8152600401610527906124f4565b60026000541415610c9e5760405162461bcd60e51b81526004016105279061266d565b60026000556001600160a01b038116610cc95760405162461bcd60e51b815260040161052790612375565b6001600160a01b0381166000908152600f602052604090205460ff16610d015760405162461bcd60e51b815260040161052790612162565b6001600160a01b0381166000818152600f6020526040808220805460ff19169055517f4151e001c03bfed83a194d10eea2c0edf04f98e382c440c94a947a99d38d2c329190a2506001600055565b600e5481565b6005546001600160a01b031681565b60026000541415610d875760405162461bcd60e51b81526004016105279061266d565b600260008181553381526006602052604090200154600160a01b900460ff16610dc25760405162461bcd60e51b815260040161052790612636565b610dcc3382611b26565b610de85760405162461bcd60e51b815260040161052790612488565b610c3433826000611bf7565b610dfc6119e2565b6001600160a01b0316610e0d611274565b6001600160a01b031614610e335760405162461bcd60e51b8152600401610527906124f4565b60026000541415610e565760405162461bcd60e51b81526004016105279061266d565b6002600055600a5460ff16610e7d5760405162461bcd60e51b815260040161052790612451565b6000600b819055600880546001600160a01b03198116909155600a805460ff1916905560098290556040516001600160a01b039091169182917fffb315d96bed6cc0b00a9cc39d15fcbcab7d047fca09660a2d73569cfc75817c9190a2506001600055565b610eea6119e2565b6001600160a01b0316610efb611274565b6001600160a01b031614610f215760405162461bcd60e51b8152600401610527906124f4565b6001600160a01b038316610f475760405162461bcd60e51b815260040161052790612262565b6001600160a01b038316600090815260066020526040902060020154600160a01b900460ff1615610f8a5760405162461bcd60e51b81526004016105279061241a565b60408051608081018252600080825260208083018581526001600160a01b038088168587019081526001606087018181528b841680885260069096528887209751885593518782015590516002909601805493511515600160a01b027fffffffffffffffffffffff00ffffffffffffffffffffffffffffffffffffffff979093166001600160a01b03199485161796909616919091179094556007805494850181559092527fa66cc928b5edb82af9bd49922954155ab7b0942694bea4ce44661d9a8736c68890920180549091168217905590517f4135167fcda3c31ddaa41eecaaa00c3e3ba8aabf49d039cfad433be34bf659ab9061108d908590859061211b565b60405180910390a2505050565b6110a26119e2565b6001600160a01b03166110b3611274565b6001600160a01b0316146110d95760405162461bcd60e51b8152600401610527906124f4565b6110e36000611cda565b565b600c5481565b6002600054141561110e5760405162461bcd60e51b81526004016105279061266d565b60026000556003546001600160a01b031661113b5760405162461bcd60e51b815260040161052790612529565b6003546001600160a01b031633146107515760405162461bcd60e51b8152600401610527906125d9565b336000908152600f602052604090205460ff16610f215760405162461bcd60e51b8152600401610527906121ce565b61119c6119e2565b6001600160a01b03166111ad611274565b6001600160a01b0316146111d35760405162461bcd60e51b8152600401610527906124f4565b600260005414156111f65760405162461bcd60e51b81526004016105279061266d565b6002600055610c3481611d2c565b600d5481565b6002600054141561122d5760405162461bcd60e51b81526004016105279061266d565b600260008181553381526006602052604090200154600160a01b900460ff166112685760405162461bcd60e51b815260040161052790612636565b610c3433826001611bf7565b6001546001600160a01b031690565b600854600954600a546001600160a01b039092169160ff1683565b6006602052600090815260409020805460018201546002909201549091906001600160a01b03811690600160a01b900460ff1684565b600260005414156112f75760405162461bcd60e51b81526004016105279061266d565b60026000556008546001600160a01b031633146113265760405162461bcd60e51b8152600401610527906126db565b600a5460ff166113485760405162461bcd60e51b8152600401610527906125a2565b61135181611e91565b61136d5760405162461bcd60e51b815260040161052790612199565b610c34816001611ecb565b6113806119e2565b6001600160a01b0316611391611274565b6001600160a01b0316146113b75760405162461bcd60e51b8152600401610527906124f4565b600260005414156113da5760405162461bcd60e51b81526004016105279061266d565b60026000556001600160a01b0381166114055760405162461bcd60e51b815260040161052790612375565b6001600160a01b0381166000908152600f602052604090205460ff161561143e5760405162461bcd60e51b81526004016105279061233e565b6001600160a01b0381166000818152600f6020526040808220805460ff19166001179055517f398e8e2ed05e6be725398a28e81fdf023a447b92941bd666e68ce2091b82bcc79190a2506001600055565b6114976119e2565b6001600160a01b03166114a8611274565b6001600160a01b0316146114ce5760405162461bcd60e51b8152600401610527906124f4565b600260005414156114f15760405162461bcd60e51b81526004016105279061266d565b60026000556001600160a01b03811661151c5760405162461bcd60e51b8152600401610527906124bd565b600380546001600160a01b0319166001600160a01b0383169081179091556040517f6507596e94e343212d1c22479359f82fffb65f099deb3ebcae9eb33c3d06de9e90600090a2506001600055565b6115736119e2565b6001600160a01b0316611584611274565b6001600160a01b0316146115aa5760405162461bcd60e51b8152600401610527906124f4565b600260005414156115cd5760405162461bcd60e51b81526004016105279061266d565b60026000556001600160a01b0381166115f85760405162461bcd60e51b8152600401610527906123ac565b600580546001600160a01b0319166001600160a01b0383169081179091556040517f08c5d29613b4e7468e893fe5f104f5a3ea6e28298f00fbbab9dc9394578c89de90600090a2506001600055565b6002600054141561166a5760405162461bcd60e51b81526004016105279061266d565b60026000556008546001600160a01b03166116975760405162461bcd60e51b815260040161052790612299565b600854604051637a5402e960e01b8152600091829182916001600160a01b031690637a5402e9906116cc908790600401612710565b60606040518083038186803b1580156116e457600080fd5b505afa1580156116f8573d6000803e3d6000fd5b505050506040513d601f19601f8201168201806040525081019061171c91906120b6565b91945092509050600061172f8284612763565b4210801591506117ee57611744846000611ecb565b6008546040516352eaf0a160e11b81526001600160a01b039091169063a5d5e14290611774908890600401612710565b600060405180830381600087803b15801561178e57600080fd5b505af11580156117a2573d6000803e3d6000fd5b50506008546040516001600160a01b0390911692507faf1c77a8196c946ab8e645210cd1e2685b4fb758ddfd474fd918298854dea6fc91506117e5908890612710565b60405180910390a25b50506001600055505050565b60006118068383611b26565b90505b92915050565b600061181a82611e91565b90505b919050565b600b5481565b6005546001600160a01b031633146118525760405162461bcd60e51b8152600401610527906121ce565b600260005414156118755760405162461bcd60e51b81526004016105279061266d565b6002600055806118975760405162461bcd60e51b8152600401610527906123e3565b600d819055604051309033907fb2f30bd42a6b499419a01b9b79e7b98934167f5a8a8c389ce446e20a8e5df765906106b4908590612710565b6002546001600160a01b031681565b6118e76119e2565b6001600160a01b03166118f8611274565b6001600160a01b03161461191e5760405162461bcd60e51b8152600401610527906124f4565b6001600160a01b0381166119445760405162461bcd60e51b815260040161052790612205565b61194d81611cda565b50565b6004546001600160a01b031681565b600260005414156119825760405162461bcd60e51b81526004016105279061266d565b600260008181553381526006602052604090200154600160a01b900460ff166119bd5760405162461bcd60e51b815260040161052790612636565b6119c933846000611bf7565b80156119d8576119d882611d2c565b5050600160005550565b3390565b6004546000906001600160a01b0384811691161415611a06575080611809565b6001600160a01b038316611a9f576002546004805460405163ba560ed960e01b81526001600160a01b039384169363ba560ed993611a4a939091169187910161211b565b60206040518083038186803b158015611a6257600080fd5b505afa158015611a76573d6000803e3d6000fd5b505050506040513d601f19601f82011682018060405250810190611a9a9190612037565b611806565b60025460048054604051631a44cdf360e11b81526001600160a01b03938416936334899be693611ad69389939216918891016120f7565b60206040518083038186803b158015611aee57600080fd5b505afa158015611b02573d6000803e3d6000fd5b505050506040513d601f19601f820116820180604052508101906118069190612037565b6001600160a01b0380831660009081526006602052604081206002015490911681611b5182856119e6565b6001600160a01b03861660009081526006602052604081205491925090611b799084906119e6565b90506000611b856107e1565b90506000600e54600c5483611b9a919061279b565b611ba4919061277b565b611bae85846127ba565b6001600160a01b038a166000908152600660205260408120600101549290911015925090611bdc86866127ba565b10159050818015611bea5750805b9998505050505050505050565b80611c34576001600160a01b038316600090815260066020526040902054821115611c345760405162461bcd60e51b8152600401610527906126a4565b80611c62576001600160a01b038316600090815260066020526040902054611c5d9083906127ba565b611c86565b6001600160a01b038316600090815260066020526040902054611c86908390612763565b6001600160a01b0384166000818152600660205260409020829055907f4c54f63d510ce2f2f9bf99bf203458cb67aa75fae97ccab560a1654eba9dbf2490611ccc6107e1565b60405161108d929190612719565b600180546001600160a01b038381166001600160a01b0319831681179093556040519116919082907f8be0079c531659141344cd1fd0a4f28419497f9722a3daafe3b4186f6b6457e090600090a35050565b6008546001600160a01b0316611d545760405162461bcd60e51b815260040161052790612299565b600854604051637a5402e960e01b81526000916001600160a01b031690637a5402e990611d85908590600401612710565b60606040518083038186803b158015611d9d57600080fd5b505afa158015611db1573d6000803e3d6000fd5b505050506040513d601f19601f82011682018060405250810190611dd591906120b6565b50509050611de4816000611ecb565b6008546040516319d9b48f60e11b81526001600160a01b03909116906333b3691e90611e14908590600401612710565b600060405180830381600087803b158015611e2e57600080fd5b505af1158015611e42573d6000803e3d6000fd5b50506008546040516001600160a01b0390911692507f56b46e5b13fdb3c0b1989f448e91b2ad68cf0c8e8ddd87f996720708ae3a15699150611e85908590612710565b60405180910390a25050565b6000600e54600d54611ea16107e1565b611eab919061279b565b611eb5919061277b565b82600b54611ec39190612763565b111592915050565b80611ef257600954821115611ef25760405162461bcd60e51b815260040161052790612307565b80611f0a57600954611f059083906127ba565b611f18565b600954611f18908390612763565b60095580611f335781600b54611f2e91906127ba565b611f41565b81600b54611f419190612763565b600b8190556008546009546040516001600160a01b03909216927facece99dd8b86cb96519fb17caded4d103b35a8261463d0d11f80a411460730092611e85928792909161274d565b80356001600160a01b038116811461181d57600080fd5b600060208284031215611fb2578081fd5b61180682611f8a565b600080600060608486031215611fcf578182fd5b611fd884611f8a565b9250611fe660208501611f8a565b9150604084013590509250925092565b60008060408385031215612008578182fd5b61201183611f8a565b946020939093013593505050565b600060208284031215612030578081fd5b5035919050565b600060208284031215612048578081fd5b5051919050565b60008060408385031215612061578182fd5b8235915061207160208401611f8a565b90509250929050565b60008060006060848603121561208e578283fd5b8335925060208401359150604084013580151581146120ab578182fd5b809150509250925092565b6000806000606084860312156120ca578283fd5b8351925060208401519150604084015190509250925092565b6001600160a01b0391909116815260200190565b6001600160a01b039384168152919092166020820152604081019190915260600190565b6001600160a01b03929092168252602082015260400190565b6001600160a01b0393909316835260208301919091521515604082015260600190565b901515815260200190565b60208082526014908201527f556e6f52653a206e6f207768697465206c697374000000000000000000000000604082015260600190565b6020808252818101527f556e6f52653a206d6178696d756d206c65766572616765206f766572666c6f77604082015260600190565b6020808252601e908201527f556e6f52653a204361706974616c204167656e7420466f7262696464656e0000604082015260600190565b60208082526026908201527f4f776e61626c653a206e6577206f776e657220697320746865207a65726f206160408201527f6464726573730000000000000000000000000000000000000000000000000000606082015260800190565b60208082526013908201527f556e6f52653a207a65726f206164647265737300000000000000000000000000604082015260600190565b6020808252601b908201527f556e6f52653a206e6f2065786973742073616c6573506f6c6963790000000000604082015260600190565b6020808252600f908201527f556e6f52653a207a65726f206d63720000000000000000000000000000000000604082015260600190565b6020808252601f908201527f556e6f52653a20706f6c69637920636f766572616765206f766572666c6f7700604082015260600190565b60208082526019908201527f556e6f52653a207768697465206c69737420616c726561647900000000000000604082015260600190565b60208082526018908201527f556e6f52653a207a65726f20706f6f6c20616464726573730000000000000000604082015260600190565b6020808252601c908201527f556e6f52653a207a65726f206f70657261746f72206164647265737300000000604082015260600190565b6020808252600f908201527f556e6f52653a207a65726f206d6c720000000000000000000000000000000000604082015260600190565b60208082526019908201527f556e6f52653a20616c726561647920657869737420706f6f6c00000000000000604082015260600190565b60208082526013908201527f556e6f52653a206e6f206578697420706f6f6c00000000000000000000000000604082015260600190565b6020808252818101527f556e6f52653a206d696e696d756d206361706974616c20756e646572666c6f77604082015260600190565b6020808252601b908201527f556e6f52653a207a65726f20666163746f727920616464726573730000000000604082015260600190565b6020808252818101527f4f776e61626c653a2063616c6c6572206973206e6f7420746865206f776e6572604082015260600190565b60208082526022908201527f556e6f52653a206e6f742073657420666163746f727920616464726573732079604082015261195d60f21b606082015260800190565b6020808252600f908201527f556e6f52653a207a65726f207363720000000000000000000000000000000000604082015260600190565b60208082526016908201527f556e6f52653a206e6f20657869737420706f6c69637900000000000000000000604082015260600190565b60208082526027908201527f556e6f52653a206f6e6c792073616c6573506f6c696379466163746f7279206360408201527f616e2063616c6c00000000000000000000000000000000000000000000000000606082015260800190565b60208082526014908201527f556e6f52653a206e6f2065786973742073736970000000000000000000000000604082015260600190565b6020808252601f908201527f5265656e7472616e637947756172643a207265656e7472616e742063616c6c00604082015260600190565b6020808252601c908201527f556e6f52653a20706f6f6c206361706974616c206f766572666c6f7700000000604082015260600190565b6020808252818101527f556e6f52653a206f6e6c792073616c6573506f6c6963792063616e2063616c6c604082015260600190565b90815260200190565b918252602082015260400190565b93845260208401929092526001600160a01b031660408301521515606082015260800190565b9283526020830191909152604082015260600190565b60008219821115612776576127766127ec565b500190565b60008261279657634e487b7160e01b81526012600452602481fd5b500490565b60008160001904831182151516156127b5576127b56127ec565b500290565b6000828210156127cc576127cc6127ec565b500390565b60006000198214156127e5576127e56127ec565b5060010190565b634e487b7160e01b600052601160045260246000fdfea2646970667358221220aa414bb5ecacd5f25dbdd20082039aa6b876f25d3b78554c9c8946c96407a7d864736f6c63430008000033",
  "devdoc": {
    "kind": "dev",
    "methods": {
      "owner()": {
        "details": "Returns the address of the current owner."
      },
      "renounceOwnership()": {
        "details": "Leaves the contract without owner. It will not be possible to call `onlyOwner` functions anymore. Can only be called by the current owner. NOTE: Renouncing ownership will leave the contract without an owner, thereby removing any functionality that is only available to the owner."
      },
      "transferOwnership(address)": {
        "details": "Transfers ownership of the contract to a new account (`newOwner`). Can only be called by the current owner."
      }
    },
    "version": 1
  },
  "userdoc": {
    "kind": "user",
    "methods": {},
    "version": 1
  },
  "storageLayout": {
    "storage": [
      {
        "astId": 114,
        "contract": "contracts/CapitalAgent.sol:CapitalAgent",
        "label": "_status",
        "offset": 0,
        "slot": "0",
        "type": "t_uint256"
      },
      {
        "astId": 7,
        "contract": "contracts/CapitalAgent.sol:CapitalAgent",
        "label": "_owner",
        "offset": 0,
        "slot": "1",
        "type": "t_address"
      },
      {
        "astId": 2418,
        "contract": "contracts/CapitalAgent.sol:CapitalAgent",
        "label": "exchangeAgent",
        "offset": 0,
        "slot": "2",
        "type": "t_address"
      },
      {
        "astId": 2420,
        "contract": "contracts/CapitalAgent.sol:CapitalAgent",
        "label": "salesPolicyFactory",
        "offset": 0,
        "slot": "3",
        "type": "t_address"
      },
      {
        "astId": 2422,
        "contract": "contracts/CapitalAgent.sol:CapitalAgent",
        "label": "USDC_TOKEN",
        "offset": 0,
        "slot": "4",
        "type": "t_address"
      },
      {
        "astId": 2424,
        "contract": "contracts/CapitalAgent.sol:CapitalAgent",
        "label": "operator",
        "offset": 0,
        "slot": "5",
        "type": "t_address"
      },
      {
        "astId": 2445,
        "contract": "contracts/CapitalAgent.sol:CapitalAgent",
        "label": "poolInfo",
        "offset": 0,
        "slot": "6",
        "type": "t_mapping(t_address,t_struct(PoolInfo)2433_storage)"
      },
      {
        "astId": 2448,
        "contract": "contracts/CapitalAgent.sol:CapitalAgent",
        "label": "poolList",
        "offset": 0,
        "slot": "7",
        "type": "t_array(t_address)dyn_storage"
      },
      {
        "astId": 2451,
        "contract": "contracts/CapitalAgent.sol:CapitalAgent",
        "label": "policyInfo",
        "offset": 0,
        "slot": "8",
        "type": "t_struct(PolicyInfo)2440_storage"
      },
      {
        "astId": 2453,
        "contract": "contracts/CapitalAgent.sol:CapitalAgent",
        "label": "totalUtilizedAmount",
        "offset": 0,
        "slot": "11",
        "type": "t_uint256"
      },
      {
        "astId": 2455,
        "contract": "contracts/CapitalAgent.sol:CapitalAgent",
        "label": "MCR",
        "offset": 0,
        "slot": "12",
        "type": "t_uint256"
      },
      {
        "astId": 2457,
        "contract": "contracts/CapitalAgent.sol:CapitalAgent",
        "label": "MLR",
        "offset": 0,
        "slot": "13",
        "type": "t_uint256"
      },
      {
        "astId": 2460,
        "contract": "contracts/CapitalAgent.sol:CapitalAgent",
        "label": "CALC_PRECISION",
        "offset": 0,
        "slot": "14",
        "type": "t_uint256"
      },
      {
        "astId": 2464,
        "contract": "contracts/CapitalAgent.sol:CapitalAgent",
        "label": "poolWhiteList",
        "offset": 0,
        "slot": "15",
        "type": "t_mapping(t_address,t_bool)"
      }
    ],
    "types": {
      "t_address": {
        "encoding": "inplace",
        "label": "address",
        "numberOfBytes": "20"
      },
      "t_array(t_address)dyn_storage": {
        "base": "t_address",
        "encoding": "dynamic_array",
        "label": "address[]",
        "numberOfBytes": "32"
      },
      "t_bool": {
        "encoding": "inplace",
        "label": "bool",
        "numberOfBytes": "1"
      },
      "t_mapping(t_address,t_bool)": {
        "encoding": "mapping",
        "key": "t_address",
        "label": "mapping(address => bool)",
        "numberOfBytes": "32",
        "value": "t_bool"
      },
      "t_mapping(t_address,t_struct(PoolInfo)2433_storage)": {
        "encoding": "mapping",
        "key": "t_address",
        "label": "mapping(address => struct CapitalAgent.PoolInfo)",
        "numberOfBytes": "32",
        "value": "t_struct(PoolInfo)2433_storage"
      },
      "t_struct(PolicyInfo)2440_storage": {
        "encoding": "inplace",
        "label": "struct CapitalAgent.PolicyInfo",
        "members": [
          {
            "astId": 2435,
            "contract": "contracts/CapitalAgent.sol:CapitalAgent",
            "label": "policy",
            "offset": 0,
            "slot": "0",
            "type": "t_address"
          },
          {
            "astId": 2437,
            "contract": "contracts/CapitalAgent.sol:CapitalAgent",
            "label": "utilizedAmount",
            "offset": 0,
            "slot": "1",
            "type": "t_uint256"
          },
          {
            "astId": 2439,
            "contract": "contracts/CapitalAgent.sol:CapitalAgent",
            "label": "exist",
            "offset": 0,
            "slot": "2",
            "type": "t_bool"
          }
        ],
        "numberOfBytes": "96"
      },
      "t_struct(PoolInfo)2433_storage": {
        "encoding": "inplace",
        "label": "struct CapitalAgent.PoolInfo",
        "members": [
          {
            "astId": 2426,
            "contract": "contracts/CapitalAgent.sol:CapitalAgent",
            "label": "totalCapital",
            "offset": 0,
            "slot": "0",
            "type": "t_uint256"
          },
          {
            "astId": 2428,
            "contract": "contracts/CapitalAgent.sol:CapitalAgent",
            "label": "SCR",
            "offset": 0,
            "slot": "1",
            "type": "t_uint256"
          },
          {
            "astId": 2430,
            "contract": "contracts/CapitalAgent.sol:CapitalAgent",
            "label": "currency",
            "offset": 0,
            "slot": "2",
            "type": "t_address"
          },
          {
            "astId": 2432,
            "contract": "contracts/CapitalAgent.sol:CapitalAgent",
            "label": "exist",
            "offset": 20,
            "slot": "2",
            "type": "t_bool"
          }
        ],
        "numberOfBytes": "96"
      },
      "t_uint256": {
        "encoding": "inplace",
        "label": "uint256",
        "numberOfBytes": "32"
      }
    }
  }
}