{
  "address": "0x2bdF62d50078C1d8E348D34dEC5213F5DfEB4C9c",
  "abi": [
    {
      "inputs": [],
      "name": "AccessControlBadConfirmation",
      "type": "error"
    },
    {
      "inputs": [
        {
          "internalType": "address",
          "name": "account",
          "type": "address"
        },
        {
          "internalType": "bytes32",
          "name": "neededRole",
          "type": "bytes32"
        }
      ],
      "name": "AccessControlUnauthorizedAccount",
      "type": "error"
    },
    {
      "inputs": [],
      "name": "InvalidInitialization",
      "type": "error"
    },
    {
      "inputs": [],
      "name": "NotInitializing",
      "type": "error"
    },
    {
      "inputs": [],
      "name": "ReentrancyGuardReentrantCall",
      "type": "error"
    },
    {
      "anonymous": false,
      "inputs": [
        {
          "indexed": false,
          "internalType": "uint64",
          "name": "version",
          "type": "uint64"
        }
      ],
      "name": "Initialized",
      "type": "event"
    },
    {
      "anonymous": false,
      "inputs": [
        {
          "indexed": true,
          "internalType": "address",
          "name": "_ssip",
          "type": "address"
        },
        {
          "indexed": false,
          "internalType": "address",
          "name": "_currency",
          "type": "address"
        },
        {
          "indexed": false,
          "internalType": "uint256",
          "name": "_scr",
          "type": "uint256"
        }
      ],
      "name": "LogAddPool",
      "type": "event"
    },
    {
      "anonymous": false,
      "inputs": [
        {
          "indexed": true,
          "internalType": "address",
          "name": "_pool",
          "type": "address"
        }
      ],
      "name": "LogAddPoolWhiteList",
      "type": "event"
    },
    {
      "anonymous": false,
      "inputs": [
        {
          "indexed": true,
          "internalType": "address",
          "name": "_policy",
          "type": "address"
        },
        {
          "indexed": false,
          "internalType": "uint256",
          "name": "_policyTokenId",
          "type": "uint256"
        }
      ],
      "name": "LogMarkToClaimPolicy",
      "type": "event"
    },
    {
      "anonymous": false,
      "inputs": [
        {
          "indexed": true,
          "internalType": "address",
          "name": "_salesPolicy",
          "type": "address"
        }
      ],
      "name": "LogRemovePolicy",
      "type": "event"
    },
    {
      "anonymous": false,
      "inputs": [
        {
          "indexed": true,
          "internalType": "address",
          "name": "_ssip",
          "type": "address"
        }
      ],
      "name": "LogRemovePool",
      "type": "event"
    },
    {
      "anonymous": false,
      "inputs": [
        {
          "indexed": true,
          "internalType": "address",
          "name": "_pool",
          "type": "address"
        }
      ],
      "name": "LogRemovePoolWhiteList",
      "type": "event"
    },
    {
      "anonymous": false,
      "inputs": [
        {
          "indexed": true,
          "internalType": "address",
          "name": "_owner",
          "type": "address"
        },
        {
          "indexed": true,
          "internalType": "address",
          "name": "_capitalAgent",
          "type": "address"
        },
        {
          "indexed": false,
          "internalType": "address",
          "name": "_exchangeAgent",
          "type": "address"
        }
      ],
      "name": "LogSetExchangeAgent",
      "type": "event"
    },
    {
      "anonymous": false,
      "inputs": [
        {
          "indexed": true,
          "internalType": "address",
          "name": "_owner",
          "type": "address"
        },
        {
          "indexed": true,
          "internalType": "address",
          "name": "_capitalAgent",
          "type": "address"
        },
        {
          "indexed": false,
          "internalType": "uint256",
          "name": "_MCR",
          "type": "uint256"
        }
      ],
      "name": "LogSetMCR",
      "type": "event"
    },
    {
      "anonymous": false,
      "inputs": [
        {
          "indexed": true,
          "internalType": "address",
          "name": "_owner",
          "type": "address"
        },
        {
          "indexed": true,
          "internalType": "address",
          "name": "_capitalAgent",
          "type": "address"
        },
        {
          "indexed": false,
          "internalType": "uint256",
          "name": "_MLR",
          "type": "uint256"
        }
      ],
      "name": "LogSetMLR",
      "type": "event"
    },
    {
      "anonymous": false,
      "inputs": [
        {
          "indexed": true,
          "internalType": "address",
          "name": "_operator",
          "type": "address"
        }
      ],
      "name": "LogSetOperator",
      "type": "event"
    },
    {
      "anonymous": false,
      "inputs": [
        {
          "indexed": true,
          "internalType": "address",
          "name": "_salesPolicy",
          "type": "address"
        }
      ],
      "name": "LogSetPolicy",
      "type": "event"
    },
    {
      "anonymous": false,
      "inputs": [
        {
          "indexed": true,
          "internalType": "address",
          "name": "_owner",
          "type": "address"
        },
        {
          "indexed": true,
          "internalType": "address",
          "name": "_capitalAgent",
          "type": "address"
        },
        {
          "indexed": true,
          "internalType": "address",
          "name": "_pool",
          "type": "address"
        },
        {
          "indexed": false,
          "internalType": "uint256",
          "name": "_SCR",
          "type": "uint256"
        }
      ],
      "name": "LogSetSCR",
      "type": "event"
    },
    {
      "anonymous": false,
      "inputs": [
        {
          "indexed": true,
          "internalType": "address",
          "name": "_factory",
          "type": "address"
        }
      ],
      "name": "LogSetSalesPolicyFactory",
      "type": "event"
    },
    {
      "anonymous": false,
      "inputs": [
        {
          "indexed": true,
          "internalType": "address",
          "name": "_usdcToken",
          "type": "address"
        }
      ],
      "name": "LogSetUSDC",
      "type": "event"
    },
    {
      "anonymous": false,
      "inputs": [
        {
          "indexed": true,
          "internalType": "address",
          "name": "_policy",
          "type": "address"
        },
        {
          "indexed": false,
          "internalType": "uint256",
          "name": "_amount",
          "type": "uint256"
        },
        {
          "indexed": false,
          "internalType": "uint256",
          "name": "_policyUtilized",
          "type": "uint256"
        },
        {
          "indexed": false,
          "internalType": "uint256",
          "name": "_totalUtilizedAmount",
          "type": "uint256"
        }
      ],
      "name": "LogUpdatePolicyCoverage",
      "type": "event"
    },
    {
      "anonymous": false,
      "inputs": [
        {
          "indexed": true,
          "internalType": "address",
          "name": "_policy",
          "type": "address"
        },
        {
          "indexed": false,
          "internalType": "uint256",
          "name": "_policyTokenId",
          "type": "uint256"
        }
      ],
      "name": "LogUpdatePolicyExpired",
      "type": "event"
    },
    {
      "anonymous": false,
      "inputs": [
        {
          "indexed": true,
          "internalType": "address",
          "name": "_ssip",
          "type": "address"
        },
        {
          "indexed": false,
          "internalType": "uint256",
          "name": "_poolCapital",
          "type": "uint256"
        },
        {
          "indexed": false,
          "internalType": "uint256",
          "name": "_totalCapital",
          "type": "uint256"
        }
      ],
      "name": "LogUpdatePoolCapital",
      "type": "event"
    },
    {
      "anonymous": false,
      "inputs": [
        {
          "indexed": true,
          "internalType": "bytes32",
          "name": "role",
          "type": "bytes32"
        },
        {
          "indexed": true,
          "internalType": "bytes32",
          "name": "previousAdminRole",
          "type": "bytes32"
        },
        {
          "indexed": true,
          "internalType": "bytes32",
          "name": "newAdminRole",
          "type": "bytes32"
        }
      ],
      "name": "RoleAdminChanged",
      "type": "event"
    },
    {
      "anonymous": false,
      "inputs": [
        {
          "indexed": true,
          "internalType": "bytes32",
          "name": "role",
          "type": "bytes32"
        },
        {
          "indexed": true,
          "internalType": "address",
          "name": "account",
          "type": "address"
        },
        {
          "indexed": true,
          "internalType": "address",
          "name": "sender",
          "type": "address"
        }
      ],
      "name": "RoleGranted",
      "type": "event"
    },
    {
      "anonymous": false,
      "inputs": [
        {
          "indexed": true,
          "internalType": "bytes32",
          "name": "role",
          "type": "bytes32"
        },
        {
          "indexed": true,
          "internalType": "address",
          "name": "account",
          "type": "address"
        },
        {
          "indexed": true,
          "internalType": "address",
          "name": "sender",
          "type": "address"
        }
      ],
      "name": "RoleRevoked",
      "type": "event"
    },
    {
      "inputs": [],
      "name": "ADMIN_ROLE",
      "outputs": [
        {
          "internalType": "bytes32",
          "name": "",
          "type": "bytes32"
        }
      ],
      "stateMutability": "view",
      "type": "function"
    },
    {
      "inputs": [],
      "name": "CALC_PRECISION",
      "outputs": [
        {
          "internalType": "uint256",
          "name": "",
          "type": "uint256"
        }
      ],
      "stateMutability": "view",
      "type": "function"
    },
    {
      "inputs": [],
      "name": "DEFAULT_ADMIN_ROLE",
      "outputs": [
        {
          "internalType": "bytes32",
          "name": "",
          "type": "bytes32"
        }
      ],
      "stateMutability": "view",
      "type": "function"
    },
    {
      "inputs": [],
      "name": "MCR",
      "outputs": [
        {
          "internalType": "uint256",
          "name": "",
          "type": "uint256"
        }
      ],
      "stateMutability": "view",
      "type": "function"
    },
    {
      "inputs": [],
      "name": "MLR",
      "outputs": [
        {
          "internalType": "uint256",
          "name": "",
          "type": "uint256"
        }
      ],
      "stateMutability": "view",
      "type": "function"
    },
    {
      "inputs": [
        {
          "internalType": "uint256",
          "name": "_withdrawAmount",
          "type": "uint256"
        },
        {
          "internalType": "uint256",
          "name": "_policyId",
          "type": "uint256"
        },
        {
          "internalType": "bool",
          "name": "_isFinished",
          "type": "bool"
        }
      ],
      "name": "SSIPPolicyCaim",
      "outputs": [],
      "stateMutability": "nonpayable",
      "type": "function"
    },
    {
      "inputs": [
        {
          "internalType": "uint256",
          "name": "_stakingAmount",
          "type": "uint256"
        }
      ],
      "name": "SSIPStaking",
      "outputs": [],
      "stateMutability": "nonpayable",
      "type": "function"
    },
    {
      "inputs": [
        {
          "internalType": "uint256",
          "name": "_withdrawAmount",
          "type": "uint256"
        }
      ],
      "name": "SSIPWithdraw",
      "outputs": [],
      "stateMutability": "nonpayable",
      "type": "function"
    },
    {
      "inputs": [
        {
          "internalType": "address",
          "name": "_ssip",
          "type": "address"
        },
        {
          "internalType": "address",
          "name": "_currency",
          "type": "address"
        },
        {
          "internalType": "uint256",
          "name": "_scr",
          "type": "uint256"
        }
      ],
      "name": "addPool",
      "outputs": [],
      "stateMutability": "nonpayable",
      "type": "function"
    },
    {
      "inputs": [
        {
          "internalType": "address",
          "name": "_ssip",
          "type": "address"
        },
        {
          "internalType": "address",
          "name": "_currency",
          "type": "address"
        },
        {
          "internalType": "uint256",
          "name": "_scr",
          "type": "uint256"
        }
      ],
      "name": "addPoolByAdmin",
      "outputs": [],
      "stateMutability": "nonpayable",
      "type": "function"
    },
    {
      "inputs": [
        {
          "internalType": "address",
          "name": "_pool",
          "type": "address"
        }
      ],
      "name": "addPoolWhiteList",
      "outputs": [],
      "stateMutability": "nonpayable",
      "type": "function"
    },
    {
      "inputs": [
        {
          "internalType": "address",
          "name": "_pool",
          "type": "address"
        },
        {
          "internalType": "uint256",
          "name": "_withdrawAmount",
          "type": "uint256"
        }
      ],
      "name": "checkCapitalByMCR",
      "outputs": [
        {
          "internalType": "bool",
          "name": "",
          "type": "bool"
        }
      ],
      "stateMutability": "view",
      "type": "function"
    },
    {
      "inputs": [
        {
          "internalType": "uint256",
          "name": "_coverageAmount",
          "type": "uint256"
        }
      ],
      "name": "checkCoverageByMLR",
      "outputs": [
        {
          "internalType": "bool",
          "name": "",
          "type": "bool"
        }
      ],
      "stateMutability": "view",
      "type": "function"
    },
    {
      "inputs": [],
      "name": "exchangeAgent",
      "outputs": [
        {
          "internalType": "address",
          "name": "",
          "type": "address"
        }
      ],
      "stateMutability": "view",
      "type": "function"
    },
    {
      "inputs": [],
      "name": "getPolicyInfo",
      "outputs": [
        {
          "internalType": "address",
          "name": "",
          "type": "address"
        },
        {
          "internalType": "uint256",
          "name": "",
          "type": "uint256"
        },
        {
          "internalType": "bool",
          "name": "",
          "type": "bool"
        }
      ],
      "stateMutability": "view",
      "type": "function"
    },
    {
      "inputs": [
        {
          "internalType": "bytes32",
          "name": "role",
          "type": "bytes32"
        }
      ],
      "name": "getRoleAdmin",
      "outputs": [
        {
          "internalType": "bytes32",
          "name": "",
          "type": "bytes32"
        }
      ],
      "stateMutability": "view",
      "type": "function"
    },
    {
      "inputs": [
        {
          "internalType": "bytes32",
          "name": "role",
          "type": "bytes32"
        },
        {
          "internalType": "address",
          "name": "account",
          "type": "address"
        }
      ],
      "name": "grantRole",
      "outputs": [],
      "stateMutability": "nonpayable",
      "type": "function"
    },
    {
      "inputs": [
        {
          "internalType": "bytes32",
          "name": "role",
          "type": "bytes32"
        },
        {
          "internalType": "address",
          "name": "account",
          "type": "address"
        }
      ],
      "name": "hasRole",
      "outputs": [
        {
          "internalType": "bool",
          "name": "",
          "type": "bool"
        }
      ],
      "stateMutability": "view",
      "type": "function"
    },
    {
      "inputs": [
        {
          "internalType": "address",
          "name": "_exchangeAgent",
          "type": "address"
        },
        {
          "internalType": "address",
          "name": "_USDC_TOKEN",
          "type": "address"
        },
        {
          "internalType": "address",
          "name": "_multiSigWallet",
          "type": "address"
        },
        {
          "internalType": "address",
          "name": "_operator",
          "type": "address"
        }
      ],
      "name": "initialize",
      "outputs": [],
      "stateMutability": "nonpayable",
      "type": "function"
    },
    {
      "inputs": [
        {
          "internalType": "uint256",
          "name": "_policyId",
          "type": "uint256"
        }
      ],
      "name": "markToClaimPolicy",
      "outputs": [],
      "stateMutability": "nonpayable",
      "type": "function"
    },
    {
      "inputs": [],
      "name": "operator",
      "outputs": [
        {
          "internalType": "address",
          "name": "",
          "type": "address"
        }
      ],
      "stateMutability": "view",
      "type": "function"
    },
    {
      "inputs": [],
      "name": "policyInfo",
      "outputs": [
        {
          "internalType": "address",
          "name": "policy",
          "type": "address"
        },
        {
          "internalType": "uint256",
          "name": "utilizedAmount",
          "type": "uint256"
        },
        {
          "internalType": "bool",
          "name": "exist",
          "type": "bool"
        }
      ],
      "stateMutability": "view",
      "type": "function"
    },
    {
      "inputs": [
        {
          "internalType": "uint256",
          "name": "_coverageAmount",
          "type": "uint256"
        }
      ],
      "name": "policySale",
      "outputs": [],
      "stateMutability": "nonpayable",
      "type": "function"
    },
    {
      "inputs": [
        {
          "internalType": "address",
          "name": "",
          "type": "address"
        }
      ],
      "name": "poolInfo",
      "outputs": [
        {
          "internalType": "uint256",
          "name": "totalCapital",
          "type": "uint256"
        },
        {
          "internalType": "uint256",
          "name": "SCR",
          "type": "uint256"
        },
        {
          "internalType": "address",
          "name": "currency",
          "type": "address"
        },
        {
          "internalType": "bool",
          "name": "exist",
          "type": "bool"
        }
      ],
      "stateMutability": "view",
      "type": "function"
    },
    {
      "inputs": [
        {
          "internalType": "address",
          "name": "",
          "type": "address"
        }
      ],
      "name": "poolWhiteList",
      "outputs": [
        {
          "internalType": "bool",
          "name": "",
          "type": "bool"
        }
      ],
      "stateMutability": "view",
      "type": "function"
    },
    {
      "inputs": [],
      "name": "removePolicy",
      "outputs": [],
      "stateMutability": "nonpayable",
      "type": "function"
    },
    {
      "inputs": [
        {
          "internalType": "address",
          "name": "_ssip",
          "type": "address"
        }
      ],
      "name": "removePool",
      "outputs": [],
      "stateMutability": "nonpayable",
      "type": "function"
    },
    {
      "inputs": [
        {
          "internalType": "address",
          "name": "_pool",
          "type": "address"
        }
      ],
      "name": "removePoolWhiteList",
      "outputs": [],
      "stateMutability": "nonpayable",
      "type": "function"
    },
    {
      "inputs": [
        {
          "internalType": "bytes32",
          "name": "role",
          "type": "bytes32"
        },
        {
          "internalType": "address",
          "name": "callerConfirmation",
          "type": "address"
        }
      ],
      "name": "renounceRole",
      "outputs": [],
      "stateMutability": "nonpayable",
      "type": "function"
    },
    {
      "inputs": [
        {
          "internalType": "bytes32",
          "name": "role",
          "type": "bytes32"
        },
        {
          "internalType": "address",
          "name": "account",
          "type": "address"
        }
      ],
      "name": "revokeRole",
      "outputs": [],
      "stateMutability": "nonpayable",
      "type": "function"
    },
    {
      "inputs": [],
      "name": "salesPolicyFactory",
      "outputs": [
        {
          "internalType": "address",
          "name": "",
          "type": "address"
        }
      ],
      "stateMutability": "view",
      "type": "function"
    },
    {
      "inputs": [
        {
          "internalType": "address",
          "name": "_exchangeAgent",
          "type": "address"
        }
      ],
      "name": "setExchangeAgent",
      "outputs": [],
      "stateMutability": "nonpayable",
      "type": "function"
    },
    {
      "inputs": [
        {
          "internalType": "uint256",
          "name": "_MCR",
          "type": "uint256"
        }
      ],
      "name": "setMCR",
      "outputs": [],
      "stateMutability": "nonpayable",
      "type": "function"
    },
    {
      "inputs": [
        {
          "internalType": "uint256",
          "name": "_MLR",
          "type": "uint256"
        }
      ],
      "name": "setMLR",
      "outputs": [],
      "stateMutability": "nonpayable",
      "type": "function"
    },
    {
      "inputs": [
        {
          "internalType": "address",
          "name": "_operator",
          "type": "address"
        }
      ],
      "name": "setOperator",
      "outputs": [],
      "stateMutability": "nonpayable",
      "type": "function"
    },
    {
      "inputs": [
        {
          "internalType": "address",
          "name": "_policy",
          "type": "address"
        }
      ],
      "name": "setPolicy",
      "outputs": [],
      "stateMutability": "nonpayable",
      "type": "function"
    },
    {
      "inputs": [
        {
          "internalType": "address",
          "name": "_policy",
          "type": "address"
        }
      ],
      "name": "setPolicyByAdmin",
      "outputs": [],
      "stateMutability": "nonpayable",
      "type": "function"
    },
    {
      "inputs": [
        {
          "internalType": "uint256",
          "name": "_SCR",
          "type": "uint256"
        },
        {
          "internalType": "address",
          "name": "_pool",
          "type": "address"
        }
      ],
      "name": "setSCR",
      "outputs": [],
      "stateMutability": "nonpayable",
      "type": "function"
    },
    {
      "inputs": [
        {
          "internalType": "address",
          "name": "_factory",
          "type": "address"
        }
      ],
      "name": "setSalesPolicyFactory",
      "outputs": [],
      "stateMutability": "nonpayable",
      "type": "function"
    },
    {
      "inputs": [
        {
          "internalType": "address",
          "name": "_usdcToken",
          "type": "address"
        }
      ],
      "name": "setUSDCToken",
      "outputs": [],
      "stateMutability": "nonpayable",
      "type": "function"
    },
    {
      "inputs": [
        {
          "internalType": "bytes4",
          "name": "interfaceId",
          "type": "bytes4"
        }
      ],
      "name": "supportsInterface",
      "outputs": [
        {
          "internalType": "bool",
          "name": "",
          "type": "bool"
        }
      ],
      "stateMutability": "view",
      "type": "function"
    },
    {
      "inputs": [],
      "name": "totalCapitalStaked",
      "outputs": [
        {
          "internalType": "uint256",
          "name": "",
          "type": "uint256"
        }
      ],
      "stateMutability": "view",
      "type": "function"
    },
    {
      "inputs": [],
      "name": "totalUtilizedAmount",
      "outputs": [
        {
          "internalType": "uint256",
          "name": "",
          "type": "uint256"
        }
      ],
      "stateMutability": "view",
      "type": "function"
    },
    {
      "inputs": [
        {
          "internalType": "uint256",
          "name": "_policyId",
          "type": "uint256"
        }
      ],
      "name": "updatePolicyStatus",
      "outputs": [],
      "stateMutability": "nonpayable",
      "type": "function"
    },
    {
      "inputs": [],
      "name": "usdcToken",
      "outputs": [
        {
          "internalType": "address",
          "name": "",
          "type": "address"
        }
      ],
      "stateMutability": "view",
      "type": "function"
    }
  ],
  "transactionHash": "0xc7572b7aa64314002e090b4b7030b681b5d977736fcb97cc856f7b49cf343ea2",
  "args": [],
  "numDeployments": 1,
  "solcInputHash": "621561f935af56c4087b4976f6e7da97",
  "bytecode": "0x608060405234801561001057600080fd5b50613417806100206000396000f3fe608060405234801561001057600080fd5b50600436106102ff5760003560e01c80637d4163d31161019c578063a65888fb116100ee578063d4688a4511610097578063d9203b9111610071578063d9203b911461076d578063f8c8765e14610780578063fb6cb8471461079357600080fd5b8063d4688a451461073e578063d547741f14610747578063d8c5c8631461075a57600080fd5b8063be22041b116100c8578063be22041b14610705578063c139b04f14610718578063c3ea3a281461072b57600080fd5b8063a65888fb146106cc578063a88d2f7a146106df578063b3ab15fb146106f257600080fd5b806391d14854116101505780639a7b5f111161012a5780639a7b5f111461063c578063a0931af2146106b1578063a217fddf146106c457600080fd5b806391d14854146105be57806392ff38ec14610616578063974e4d851461061e57600080fd5b8063869bd44a11610181578063869bd44a1461058f5780638bb70831146105a25780638be5a39f146105ab57600080fd5b80637d4163d3146105695780637e29d6c21461057c57600080fd5b8063385a128f11610255578063570ca73511610209578063706c2d1b116101e3578063706c2d1b1461052657806375b238fc14610539578063794e57241461056057600080fd5b8063570ca735146104f85780635b44d5761461050b57806365cb3a831461051e57600080fd5b80633fecfbf21161023a5780633fecfbf2146104775780634a3a3d14146104d65780634dc70bac146104e957600080fd5b8063385a128f146104515780633b7d09461461046457600080fd5b80631dfa426d116102b75780632f2ff15d116102915780632f2ff15d1461041857806336568abe1461042b57806336760a1c1461043e57600080fd5b80631dfa426d14610392578063248a9ca3146103a557806325042fe9146103f557600080fd5b80630f5a9d01116102e85780630f5a9d011461034157806311eac8551461035457806318a00d8e1461037f57600080fd5b806301ffc9a7146103045780630d7575311461032c575b600080fd5b610317610312366004613127565b6107a6565b60405190151581526020015b60405180910390f35b61033f61033a366004613185565b61083f565b005b61033f61034f3660046131b1565b61097f565b600254610367906001600160a01b031681565b6040516001600160a01b039091168152602001610323565b61033f61038d3660046131b1565b610a77565b61033f6103a03660046131b1565b610b7d565b6103e76103b33660046131cc565b60009081527f02dd7bc7dec4dceedda775e58dd541e08a116c6c53815c0bd028192f7b626800602052604090206001015490565b604051908152602001610323565b6103176104033660046131b1565b600e6020526000908152604090205460ff1681565b61033f610426366004613185565b610ca1565b61033f610439366004613185565b610ceb565b600154610367906001600160a01b031681565b61033f61045f3660046131cc565b610d3c565b61033f6104723660046131b1565b610e57565b6104af604080516060810182526008546001600160a01b031680825260095460208301819052600a5460ff1615159290930182905292565b604080516001600160a01b0390941684526020840192909252151590820152606001610323565b61033f6104e43660046131b1565b61100a565b6103e7670de0b6b3a764000081565b600354610367906001600160a01b031681565b61033f6105193660046131cc565b611113565b61033f61120f565b61033f6105343660046131e5565b61131a565b6103e77fa49807205ce4d355092ef5a8a18f56e8913cf4a201fbe287825b095693c2177581565b6103e7600c5481565b61033f6105773660046131b1565b611561565b61033f61058a3660046131e5565b6116d8565b61033f61059d3660046131cc565b611952565b6103e7600d5481565b61033f6105b93660046131cc565b6119b6565b6103176105cc366004613185565b60009182527f02dd7bc7dec4dceedda775e58dd541e08a116c6c53815c0bd028192f7b626800602090815260408084206001600160a01b0393909316845291905290205460ff1690565b6103e7611a33565b600854600954600a546104af926001600160a01b0316919060ff1683565b61068061064a3660046131b1565b6004602052600090815260409020805460018201546002909201549091906001600160a01b03811690600160a01b900460ff1684565b604051610323949392919093845260208401929092526001600160a01b031660408301521515606082015260800190565b61033f6106bf3660046131cc565b611a42565b6103e7600081565b61033f6106da3660046131b1565b611b56565b61033f6106ed3660046131b1565b611cb9565b61033f6107003660046131b1565b611db1565b61033f6107133660046131cc565b611ea9565b610317610726366004613221565b6120a6565b6103176107393660046131cc565b6120b9565b6103e7600b5481565b61033f610755366004613185565b6120c4565b61033f6107683660046131cc565b612108565b600054610367906001600160a01b031681565b61033f61078e36600461324b565b6121f3565b61033f6107a13660046132ad565b612531565b60007fffffffff0000000000000000000000000000000000000000000000000000000082167f7965db0b00000000000000000000000000000000000000000000000000000000148061083957507f01ffc9a7000000000000000000000000000000000000000000000000000000007fffffffff000000000000000000000000000000000000000000000000000000008316145b92915050565b6003546001600160a01b0316331461089e5760405162461bcd60e51b815260206004820152601e60248201527f556e6f52653a204361706974616c204167656e7420466f7262696464656e000060448201526064015b60405180910390fd5b6108a66125e6565b600082116108f65760405162461bcd60e51b815260206004820152600f60248201527f556e6f52653a207a65726f2073637200000000000000000000000000000000006044820152606401610895565b6001600160a01b0381166000818152600460205260409081902060010184905551309033907fade0e16d2bd0d685eef1e5355dc835692faac192ef62225adb31cd0c0b99c8a89061094a9087815260200190565b60405180910390a461097b60017f9b779b17422d0df92223018b32b4d1fa46e071723d6817e2486d003becc55f0055565b5050565b7fa49807205ce4d355092ef5a8a18f56e8913cf4a201fbe287825b095693c217756109a98161268d565b6109b16125e6565b6001600160a01b038216610a075760405162461bcd60e51b815260206004820152601860248201527f556e6f52653a207a65726f2075736463206164647265737300000000000000006044820152606401610895565b600280546001600160a01b0319166001600160a01b0384169081179091556040517f103c5bd4d1fbed26f9d95c639ecfb64bbece2b8f7d599a45f9aaab41c3e9ded090600090a261097b60017f9b779b17422d0df92223018b32b4d1fa46e071723d6817e2486d003becc55f0055565b7fa49807205ce4d355092ef5a8a18f56e8913cf4a201fbe287825b095693c21775610aa18161268d565b610aa96125e6565b6001600160a01b038216610aff5760405162461bcd60e51b815260206004820152601360248201527f556e6f52653a207a65726f2061646472657373000000000000000000000000006044820152606401610895565b600080546001600160a01b0319166001600160a01b038416908117909155604051908152309033907f28e0ff29ad991f2655c48b0b095a69abbf13aec6c8bc181dd526dbb3f8c9d0b99060200160405180910390a361097b60017f9b779b17422d0df92223018b32b4d1fa46e071723d6817e2486d003becc55f0055565b7fa49807205ce4d355092ef5a8a18f56e8913cf4a201fbe287825b095693c21775610ba78161268d565b610baf6125e6565b6001600160a01b038216610c055760405162461bcd60e51b815260206004820152601360248201527f556e6f52653a207a65726f2061646472657373000000000000000000000000006044820152606401610895565b604080516060810182526001600160a01b0384168082526000602083018190526001928401839052600880546001600160a01b031916831790556009819055600a805460ff191690931790925591517f8ba1947a8c64577d7adbd8cbc248c72b68738fe23afef984d842ba5ec5af5cfe9190a261097b60017f9b779b17422d0df92223018b32b4d1fa46e071723d6817e2486d003becc55f0055565b60008281527f02dd7bc7dec4dceedda775e58dd541e08a116c6c53815c0bd028192f7b6268006020526040902060010154610cdb8161268d565b610ce58383612697565b50505050565b6001600160a01b0381163314610d2d576040517f6697b23200000000000000000000000000000000000000000000000000000000815260040160405180910390fd5b610d378282612766565b505050565b6003546001600160a01b03163314610d965760405162461bcd60e51b815260206004820152601e60248201527f556e6f52653a204361706974616c204167656e7420466f7262696464656e00006044820152606401610895565b610d9e6125e6565b60008111610dee5760405162461bcd60e51b815260206004820152600f60248201527f556e6f52653a207a65726f206d637200000000000000000000000000000000006044820152606401610895565b600c819055604051818152309033907fa55ee73f4232498ac4c250ffa77f4337343a213648a66147d8848f6660fa3fdf906020015b60405180910390a3610e5460017f9b779b17422d0df92223018b32b4d1fa46e071723d6817e2486d003becc55f0055565b50565b7fa49807205ce4d355092ef5a8a18f56e8913cf4a201fbe287825b095693c21775610e818161268d565b610e896125e6565b6001600160a01b038216600090815260046020526040902060020154600160a01b900460ff16610efb5760405162461bcd60e51b815260206004820152601360248201527f556e6f52653a206e6f206578697420706f6f6c000000000000000000000000006044820152606401610895565b6001600160a01b03821660009081526004602052604090205415610f70576001600160a01b0380831660009081526004602090815260408083206002810154905494168084526007909252909120549091610f55916132fc565b6001600160a01b039091166000908152600760205260409020555b6001600160a01b0382166000818152600460205260408082208281556001810183905560020180547fffffffffffffffffffffff000000000000000000000000000000000000000000169055517ff54e47602c09e6190ae0c9cba6074e2e211bf36944fd714fbb0bd78aba514cab9190a261097b60017f9b779b17422d0df92223018b32b4d1fa46e071723d6817e2486d003becc55f0055565b7fa49807205ce4d355092ef5a8a18f56e8913cf4a201fbe287825b095693c217756110348161268d565b61103c6125e6565b6001600160a01b0382166000908152600e602052604090205460ff166110a45760405162461bcd60e51b815260206004820152601460248201527f556e6f52653a206e6f207768697465206c6973740000000000000000000000006044820152606401610895565b6001600160a01b0382166000818152600e6020526040808220805460ff19169055517f4151e001c03bfed83a194d10eea2c0edf04f98e382c440c94a947a99d38d2c329190a261097b60017f9b779b17422d0df92223018b32b4d1fa46e071723d6817e2486d003becc55f0055565b61111b6125e6565b33600090815260046020526040902060020154600160a01b900460ff166111845760405162461bcd60e51b815260206004820152601460248201527f556e6f52653a206e6f20657869737420737369700000000000000000000000006044820152606401610895565b61118e338261280c565b6111da5760405162461bcd60e51b815260206004820181905260248201527f556e6f52653a206d696e696d756d206361706974616c20756e646572666c6f776044820152606401610895565b6111e6338260006128f9565b610e5460017f9b779b17422d0df92223018b32b4d1fa46e071723d6817e2486d003becc55f0055565b7fa49807205ce4d355092ef5a8a18f56e8913cf4a201fbe287825b095693c217756112398161268d565b6112416125e6565b600a5460ff166112935760405162461bcd60e51b815260206004820152601360248201527f556e6f52653a206e6f206578697420706f6f6c000000000000000000000000006044820152606401610895565b6000600b819055600880546001600160a01b03198116909155600a805460ff1916905560098290556040516001600160a01b039091169182917fffb315d96bed6cc0b00a9cc39d15fcbcab7d047fca09660a2d73569cfc75817c9190a250610e5460017f9b779b17422d0df92223018b32b4d1fa46e071723d6817e2486d003becc55f0055565b7fa49807205ce4d355092ef5a8a18f56e8913cf4a201fbe287825b095693c217756113448161268d565b6001600160a01b03841661139a5760405162461bcd60e51b815260206004820152601360248201527f556e6f52653a207a65726f2061646472657373000000000000000000000000006044820152606401610895565b6001600160a01b038416600090815260046020526040902060020154600160a01b900460ff161561140d5760405162461bcd60e51b815260206004820152601960248201527f556e6f52653a20616c726561647920657869737420706f6f6c000000000000006044820152606401610895565b6001600160a01b03831660009081526006602052604081205460ff1615159003611497576001600160a01b0383166000818152600660205260408120805460ff191660019081179091556005805491820181559091527f036b6384b5eca791c62761152d0c79bb0604c104a5fb6f4eb0703f3154bb3db00180546001600160a01b03191690911790555b60408051608081018252600080825260208083018681526001600160a01b038881168587018181526001606088018181528d851680895260048852978a902098518955945190880155516002909601805493511515600160a01b027fffffffffffffffffffffff000000000000000000000000000000000000000000909416969092169590951791909117905583519283528201859052917f4135167fcda3c31ddaa41eecaaa00c3e3ba8aabf49d039cfad433be34bf659ab91015b60405180910390a250505050565b6115696125e6565b600a5460ff16156115bc5760405162461bcd60e51b815260206004820152601460248201527f556e6f52653a20506f6c696379206578697374730000000000000000000000006044820152606401610895565b6001546001600160a01b0316331461163c5760405162461bcd60e51b815260206004820152602760248201527f556e6f52653a206f6e6c792073616c6573506f6c696379466163746f7279206360448201527f616e2063616c6c000000000000000000000000000000000000000000000000006064820152608401610895565b604080516060810182526001600160a01b0383168082526000602083018190526001928401839052600880546001600160a01b031916831790556009819055600a805460ff191690931790925591517f8ba1947a8c64577d7adbd8cbc248c72b68738fe23afef984d842ba5ec5af5cfe9190a2610e5460017f9b779b17422d0df92223018b32b4d1fa46e071723d6817e2486d003becc55f0055565b336000908152600e602052604090205460ff166117375760405162461bcd60e51b815260206004820152601e60248201527f556e6f52653a204361706974616c204167656e7420466f7262696464656e00006044820152606401610895565b6001600160a01b03831661178d5760405162461bcd60e51b815260206004820152601360248201527f556e6f52653a207a65726f2061646472657373000000000000000000000000006044820152606401610895565b6001600160a01b038316600090815260046020526040902060020154600160a01b900460ff16156118005760405162461bcd60e51b815260206004820152601960248201527f556e6f52653a20616c726561647920657869737420706f6f6c000000000000006044820152606401610895565b6001600160a01b03821660009081526006602052604081205460ff161515900361188a576001600160a01b0382166000818152600660205260408120805460ff191660019081179091556005805491820181559091527f036b6384b5eca791c62761152d0c79bb0604c104a5fb6f4eb0703f3154bb3db00180546001600160a01b03191690911790555b60408051608081018252600080825260208083018581526001600160a01b038781168587018181526001606088018181528c851680895260048852978a902098518955945190880155516002909601805493511515600160a01b027fffffffffffffffffffffff000000000000000000000000000000000000000000909416969092169590951791909117905583519283528201849052917f4135167fcda3c31ddaa41eecaaa00c3e3ba8aabf49d039cfad433be34bf659ab910160405180910390a2505050565b7fa49807205ce4d355092ef5a8a18f56e8913cf4a201fbe287825b095693c2177561197c8161268d565b6119846125e6565b61198d82612aa8565b61097b60017f9b779b17422d0df92223018b32b4d1fa46e071723d6817e2486d003becc55f0055565b6119be6125e6565b33600090815260046020526040902060020154600160a01b900460ff16611a275760405162461bcd60e51b815260206004820152601460248201527f556e6f52653a206e6f20657869737420737369700000000000000000000000006044820152606401610895565b6111e6338260016128f9565b6000611a3d612c56565b905090565b611a4a6125e6565b6008546001600160a01b03163314611aa45760405162461bcd60e51b815260206004820181905260248201527f556e6f52653a206f6e6c792073616c6573506f6c6963792063616e2063616c6c6044820152606401610895565b600a5460ff16611af65760405162461bcd60e51b815260206004820152601660248201527f556e6f52653a206e6f20657869737420706f6c696379000000000000000000006044820152606401610895565b611aff81612cc9565b611b4b5760405162461bcd60e51b815260206004820181905260248201527f556e6f52653a206d6178696d756d206c65766572616765206f766572666c6f776044820152606401610895565b6111e6816001612d0e565b7fa49807205ce4d355092ef5a8a18f56e8913cf4a201fbe287825b095693c21775611b808161268d565b611b886125e6565b6001600160a01b038216611bde5760405162461bcd60e51b815260206004820152601860248201527f556e6f52653a207a65726f20706f6f6c206164647265737300000000000000006044820152606401610895565b6001600160a01b0382166000908152600e602052604090205460ff1615611c475760405162461bcd60e51b815260206004820152601960248201527f556e6f52653a207768697465206c69737420616c7265616479000000000000006044820152606401610895565b6001600160a01b0382166000818152600e6020526040808220805460ff19166001179055517f398e8e2ed05e6be725398a28e81fdf023a447b92941bd666e68ce2091b82bcc79190a261097b60017f9b779b17422d0df92223018b32b4d1fa46e071723d6817e2486d003becc55f0055565b7fa49807205ce4d355092ef5a8a18f56e8913cf4a201fbe287825b095693c21775611ce38161268d565b611ceb6125e6565b6001600160a01b038216611d415760405162461bcd60e51b815260206004820152601b60248201527f556e6f52653a207a65726f20666163746f7279206164647265737300000000006044820152606401610895565b600180546001600160a01b0319166001600160a01b0384169081179091556040517f6507596e94e343212d1c22479359f82fffb65f099deb3ebcae9eb33c3d06de9e90600090a261097b60017f9b779b17422d0df92223018b32b4d1fa46e071723d6817e2486d003becc55f0055565b7fa49807205ce4d355092ef5a8a18f56e8913cf4a201fbe287825b095693c21775611ddb8161268d565b611de36125e6565b6001600160a01b038216611e395760405162461bcd60e51b815260206004820152601c60248201527f556e6f52653a207a65726f206f70657261746f722061646472657373000000006044820152606401610895565b600380546001600160a01b0319166001600160a01b0384169081179091556040517f08c5d29613b4e7468e893fe5f104f5a3ea6e28298f00fbbab9dc9394578c89de90600090a261097b60017f9b779b17422d0df92223018b32b4d1fa46e071723d6817e2486d003becc55f0055565b611eb16125e6565b6008546001600160a01b0316611f095760405162461bcd60e51b815260206004820152601b60248201527f556e6f52653a206e6f2065786973742073616c6573506f6c69637900000000006044820152606401610895565b6008546040517f7a5402e900000000000000000000000000000000000000000000000000000000815260048101839052600091829182916001600160a01b031690637a5402e99060240160a060405180830381865afa158015611f70573d6000803e3d6000fd5b505050506040513d601f19601f82011682018060405250810190611f94919061330f565b505092509250925060008183611faa9190613366565b42108015915061207957611fbf846000612d0e565b6008546040517fa5d5e142000000000000000000000000000000000000000000000000000000008152600481018790526001600160a01b039091169063a5d5e14290602401600060405180830381600087803b15801561201e57600080fd5b505af1158015612032573d6000803e3d6000fd5b50506008546040518881526001600160a01b0390911692507faf1c77a8196c946ab8e645210cd1e2685b4fb758ddfd474fd918298854dea6fc915060200160405180910390a25b50505050610e5460017f9b779b17422d0df92223018b32b4d1fa46e071723d6817e2486d003becc55f0055565b60006120b2838361280c565b9392505050565b600061083982612cc9565b60008281527f02dd7bc7dec4dceedda775e58dd541e08a116c6c53815c0bd028192f7b62680060205260409020600101546120fe8161268d565b610ce58383612766565b6003546001600160a01b031633146121625760405162461bcd60e51b815260206004820152601e60248201527f556e6f52653a204361706974616c204167656e7420466f7262696464656e00006044820152606401610895565b61216a6125e6565b600081116121ba5760405162461bcd60e51b815260206004820152600f60248201527f556e6f52653a207a65726f206d6c7200000000000000000000000000000000006044820152606401610895565b600d819055604051818152309033907fb2f30bd42a6b499419a01b9b79e7b98934167f5a8a8c389ce446e20a8e5df76590602001610e23565b7ff0c57e16840df040f15088dc2f81fe391c3923bec73e23a9662efc9c229c6a00805468010000000000000000810460ff16159067ffffffffffffffff1660008115801561223e5750825b905060008267ffffffffffffffff16600114801561225b5750303b155b905081158015612269575080155b156122a0576040517ff92ee8a900000000000000000000000000000000000000000000000000000000815260040160405180910390fd5b84547fffffffffffffffffffffffffffffffffffffffffffffffff000000000000000016600117855583156122eb57845468ff00000000000000001916680100000000000000001785555b6001600160a01b0389166123675760405162461bcd60e51b815260206004820152602160248201527f556e6f52653a207a65726f2065786368616e67654167656e742061646472657360448201527f73000000000000000000000000000000000000000000000000000000000000006064820152608401610895565b6001600160a01b0388166123bd5760405162461bcd60e51b815260206004820152601860248201527f556e6f52653a207a65726f2055534443206164647265737300000000000000006044820152606401610895565b6001600160a01b0387166124395760405162461bcd60e51b815260206004820152602260248201527f556e6f52653a207a65726f206d756c746973696777616c6c657420616464726560448201527f73730000000000000000000000000000000000000000000000000000000000006064820152608401610895565b600080546001600160a01b03808c166001600160a01b031992831617909255600280548b8416908316179055600380549289169290911691909117905561247e612e08565b612486612e1a565b6124b07fa49807205ce4d355092ef5a8a18f56e8913cf4a201fbe287825b095693c2177588612697565b506124db7fa49807205ce4d355092ef5a8a18f56e8913cf4a201fbe287825b095693c2177580612e22565b831561252657845468ff000000000000000019168555604051600181527fc7f505b2f371ae2175ee4913f4499e1f2633a7b5936321eed1cdaeb6115181d29060200160405180910390a15b505050505050505050565b6125396125e6565b33600090815260046020526040902060020154600160a01b900460ff166125a25760405162461bcd60e51b815260206004820152601460248201527f556e6f52653a206e6f20657869737420737369700000000000000000000000006044820152606401610895565b6125ae338460006128f9565b80156125bd576125bd82612aa8565b610d3760017f9b779b17422d0df92223018b32b4d1fa46e071723d6817e2486d003becc55f0055565b7f9b779b17422d0df92223018b32b4d1fa46e071723d6817e2486d003becc55f0080547ffffffffffffffffffffffffffffffffffffffffffffffffffffffffffffffffe01612661576040517f3ee5aeb500000000000000000000000000000000000000000000000000000000815260040160405180910390fd5b60029055565b60017f9b779b17422d0df92223018b32b4d1fa46e071723d6817e2486d003becc55f0055565b610e548133612ec6565b60008281527f02dd7bc7dec4dceedda775e58dd541e08a116c6c53815c0bd028192f7b626800602081815260408084206001600160a01b038616855290915282205460ff1661275c576000848152602082815260408083206001600160a01b03871684529091529020805460ff191660011790556127123390565b6001600160a01b0316836001600160a01b0316857f2f8788117e7eff1d82e926ec794901d17c78024a50270940304540a733656f0d60405160405180910390a46001915050610839565b6000915050610839565b60008281527f02dd7bc7dec4dceedda775e58dd541e08a116c6c53815c0bd028192f7b626800602081815260408084206001600160a01b038616855290915282205460ff161561275c576000848152602082815260408083206001600160a01b0387168085529252808320805460ff1916905551339287917ff6391f5c32d9c69d2a47ea670b442974b53935d1edc7fd64eb21e047a839171b9190a46001915050610839565b6001600160a01b03808316600090815260046020526040812060020154909116818080612837612c56565b6001600160a01b0385166000908152600760205260409020549093506128699085906128649089906132fc565b612f53565b6001600160a01b0388166000908152600460205260409020549092506128969085906128649089906132fc565b90506000670de0b6b3a7640000600c54856128b19190613379565b6128bb9190613390565b6001600160a01b03891660009081526004602052604090206001015490841080159250908310159082906128ec5750805b9998505050505050505050565b80612966576001600160a01b0383166000908152600460205260409020548211156129665760405162461bcd60e51b815260206004820152601c60248201527f556e6f52653a20706f6f6c206361706974616c206f766572666c6f77000000006044820152606401610895565b6001600160a01b0380841660009081526004602052604090206002015416816129b2576001600160a01b0384166000908152600460205260409020546129ad9084906132fc565b6129d6565b6001600160a01b0384166000908152600460205260409020546129d6908490613366565b6001600160a01b03851660009081526004602052604090205581612a1d576001600160a01b038116600090815260076020526040902054612a189084906132fc565b612a41565b6001600160a01b038116600090815260076020526040902054612a41908490613366565b6001600160a01b038281166000818152600760208181526040808420879055948a1680845260048252858420549490935290815283519283528201939093527f4c54f63d510ce2f2f9bf99bf203458cb67aa75fae97ccab560a1654eba9dbf249101611553565b6008546001600160a01b0316612b005760405162461bcd60e51b815260206004820152601b60248201527f556e6f52653a206e6f2065786973742073616c6573506f6c69637900000000006044820152606401610895565b6008546040517f7a5402e9000000000000000000000000000000000000000000000000000000008152600481018390526000916001600160a01b031690637a5402e99060240160a060405180830381865afa158015612b63573d6000803e3d6000fd5b505050506040513d601f19601f82011682018060405250810190612b87919061330f565b505050509050612b98816000612d0e565b6008546040517f33b3691e000000000000000000000000000000000000000000000000000000008152600481018490526001600160a01b03909116906333b3691e90602401600060405180830381600087803b158015612bf757600080fd5b505af1158015612c0b573d6000803e3d6000fd5b50506008546040518581526001600160a01b0390911692507f56b46e5b13fdb3c0b1989f448e91b2ad68cf0c8e8ddd87f996720708ae3a156991506020015b60405180910390a25050565b60008060005b600554811015612cc357600060058281548110612c7b57612c7b6133b2565b60009182526020808320909101546001600160a01b03168083526007909152604090912054909150612cae908290612f53565b612cb89084613366565b925050600101612c5c565b50919050565b600080612cd4612c56565b9050670de0b6b3a7640000600d5482612ced9190613379565b612cf79190613390565b83600b54612d059190613366565b11159392505050565b80612d6557600954821115612d655760405162461bcd60e51b815260206004820152601f60248201527f556e6f52653a20706f6c69637920636f766572616765206f766572666c6f77006044820152606401610895565b80612d7d57600954612d789083906132fc565b612d8b565b600954612d8b908390613366565b60095580612da65781600b54612da191906132fc565b612db4565b81600b54612db49190613366565b600b8190556008546009546040805186815260208101929092528101929092526001600160a01b0316907facece99dd8b86cb96519fb17caded4d103b35a8261463d0d11f80a411460730090606001612c4a565b612e106130b8565b612e1861311f565b565b612e186130b8565b7f02dd7bc7dec4dceedda775e58dd541e08a116c6c53815c0bd028192f7b6268006000612e7d8460009081527f02dd7bc7dec4dceedda775e58dd541e08a116c6c53815c0bd028192f7b626800602052604090206001015490565b600085815260208490526040808220600101869055519192508491839187917fbd79b86ffe0ab8e8776151514217cd7cacd52c909f66475c3af44e129f0b00ff9190a450505050565b60008281527f02dd7bc7dec4dceedda775e58dd541e08a116c6c53815c0bd028192f7b626800602090815260408083206001600160a01b038516845290915290205460ff1661097b576040517fe2517d3f0000000000000000000000000000000000000000000000000000000081526001600160a01b038216600482015260248101839052604401610895565b60025460009081906001600160a01b0390811690851603612f755750816120b2565b6001600160a01b038416613018576000546002546040517fba560ed90000000000000000000000000000000000000000000000000000000081526001600160a01b0391821660048201526024810186905291169063ba560ed990604401602060405180830381865afa158015612fef573d6000803e3d6000fd5b505050506040513d601f19601f8201168201806040525081019061301391906133c8565b6130b0565b6000546002546040517f34899be60000000000000000000000000000000000000000000000000000000081526001600160a01b0387811660048301529182166024820152604481018690529116906334899be690606401602060405180830381865afa15801561308c573d6000803e3d6000fd5b505050506040513d601f19601f820116820180604052508101906130b091906133c8565b949350505050565b7ff0c57e16840df040f15088dc2f81fe391c3923bec73e23a9662efc9c229c6a005468010000000000000000900460ff16612e18576040517fd7e6bcf800000000000000000000000000000000000000000000000000000000815260040160405180910390fd5b6126676130b8565b60006020828403121561313957600080fd5b81357fffffffff00000000000000000000000000000000000000000000000000000000811681146120b257600080fd5b80356001600160a01b038116811461318057600080fd5b919050565b6000806040838503121561319857600080fd5b823591506131a860208401613169565b90509250929050565b6000602082840312156131c357600080fd5b6120b282613169565b6000602082840312156131de57600080fd5b5035919050565b6000806000606084860312156131fa57600080fd5b61320384613169565b925061321160208501613169565b9150604084013590509250925092565b6000806040838503121561323457600080fd5b61323d83613169565b946020939093013593505050565b6000806000806080858703121561326157600080fd5b61326a85613169565b935061327860208601613169565b925061328660408601613169565b915061329460608601613169565b905092959194509250565b8015158114610e5457600080fd5b6000806000606084860312156132c257600080fd5b833592506020840135915060408401356132db8161329f565b809150509250925092565b634e487b7160e01b600052601160045260246000fd5b81810381811115610839576108396132e6565b600080600080600060a0868803121561332757600080fd5b85519450602086015193506040860151925060608601516133478161329f565b60808701519092506133588161329f565b809150509295509295909350565b80820180821115610839576108396132e6565b8082028115828204841417610839576108396132e6565b6000826133ad57634e487b7160e01b600052601260045260246000fd5b500490565b634e487b7160e01b600052603260045260246000fd5b6000602082840312156133da57600080fd5b505191905056fea264697066735822122037c138c1114462dfe9251ec0eb851d03508424da84ae0fda0ab5a80f4b3883d964736f6c63430008170033",
  "devdoc": {
    "details": "update and manage all pools capital and policy utlized amount, whenever user stake and withdraw from the pool and buy policy from salesPolicy notifies to capital agent to update pool capital and policy coverage*",
    "errors": {
      "AccessControlBadConfirmation()": [
        {
          "details": "The caller of a function is not the expected one. NOTE: Don't confuse with {AccessControlUnauthorizedAccount}."
        }
      ],
      "AccessControlUnauthorizedAccount(address,bytes32)": [
        {
          "details": "The `account` is missing a role."
        }
      ],
      "InvalidInitialization()": [
        {
          "details": "The contract is already initialized."
        }
      ],
      "NotInitializing()": [
        {
          "details": "The contract is not initializing."
        }
      ],
      "ReentrancyGuardReentrantCall()": [
        {
          "details": "Unauthorized reentrant call."
        }
      ]
    },
    "events": {
      "Initialized(uint64)": {
        "details": "Triggered when the contract has been initialized or reinitialized."
      },
      "RoleAdminChanged(bytes32,bytes32,bytes32)": {
        "details": "Emitted when `newAdminRole` is set as ``role``'s admin role, replacing `previousAdminRole` `DEFAULT_ADMIN_ROLE` is the starting admin for all roles, despite {RoleAdminChanged} not being emitted signaling this."
      },
      "RoleGranted(bytes32,address,address)": {
        "details": "Emitted when `account` is granted `role`. `sender` is the account that originated the contract call, an admin role bearer except when using {AccessControl-_setupRole}."
      },
      "RoleRevoked(bytes32,address,address)": {
        "details": "Emitted when `account` is revoked `role`. `sender` is the account that originated the contract call:   - if using `revokeRole`, it is the admin role bearer   - if using `renounceRole`, it is the role bearer (i.e. `account`)"
      }
    },
    "kind": "dev",
    "methods": {
      "SSIPPolicyCaim(uint256,uint256,bool)": {
        "details": "update pool(caller) capital from capital agent, decrease capital of pool by _withdrawAmount, if user claim policy from pool ",
        "params": {
          "_withdrawAmount": "amount to withdraw*"
        }
      },
      "SSIPStaking(uint256)": {
        "details": "update pool(caller) capital from capital agent, increase capital of pool by _stakingAmount, if user stake in pool",
        "params": {
          "_stakingAmount": "amount to deposit*"
        }
      },
      "SSIPWithdraw(uint256)": {
        "details": "update pool(caller) capital from capital agent, decrease capital of pool by _withdrawAmount, if user withdraw from pool remaning pool capital and total capital staked from same currency should be greater pool SCR and MCR respectively",
        "params": {
          "_withdrawAmount": "amount to withdraw*"
        }
      },
      "addPool(address,address,uint256)": {
        "details": "add pool into capitalAgent to stake capital, can only be call by whitelisted pools",
        "params": {
          "_currency": "pool lp currency address",
          "_scr": "pool scr value(minimum capital should maintain in capital agent)*",
          "_ssip": "address of pool to add"
        }
      },
      "addPoolByAdmin(address,address,uint256)": {
        "details": "add pool into capitalAgent to stake capital, can only be call by admin role",
        "params": {
          "_currency": "pool lp currency address",
          "_scr": "pool scr value(minimum capital should maintain in capital agent)*",
          "_ssip": "address of pool to add"
        }
      },
      "addPoolWhiteList(address)": {
        "details": "whitelist pool address, can only be call by admin role",
        "params": {
          "_pool": "address of pool to whitelist*"
        }
      },
      "checkCapitalByMCR(address,uint256)": {
        "details": "return if pool can withdraw this amount, remaning pool capital and total capital staked from same currency should be greater pool SCR and MCR respectively",
        "params": {
          "_pool": "address of pool",
          "_withdrawAmount": "withdraw amount*"
        }
      },
      "checkCoverageByMLR(uint256)": {
        "details": "return if user can buy policy from this coverage amount,  total utlized amount plus coverage should be less than MLR of total capital staked",
        "params": {
          "_coverageAmount": "coverage amount*"
        }
      },
      "getRoleAdmin(bytes32)": {
        "details": "Returns the admin role that controls `role`. See {grantRole} and {revokeRole}. To change a role's admin, use {_setRoleAdmin}."
      },
      "grantRole(bytes32,address)": {
        "details": "Grants `role` to `account`. If `account` had not been already granted `role`, emits a {RoleGranted} event. Requirements: - the caller must have ``role``'s admin role. May emit a {RoleGranted} event."
      },
      "hasRole(bytes32,address)": {
        "details": "Returns `true` if `account` has been granted `role`."
      },
      "markToClaimPolicy(uint256)": {
        "details": "update policy status to not exist, can only be called by admin role",
        "params": {
          "_policyId": "policy id to update status*"
        }
      },
      "policySale(uint256)": {
        "details": "update policy coverage if user buy policy from SalesPolicy, only sales policy can call this function",
        "params": {
          "_coverageAmount": "coverage amount*"
        }
      },
      "removePolicy()": {
        "details": "remove sales policy from capital agent, can only be call by admin role*"
      },
      "removePool(address)": {
        "details": "remove pool from capitalAgent, can only be call by admin role",
        "params": {
          "_ssip": "address of pool to remove*"
        }
      },
      "removePoolWhiteList(address)": {
        "details": "remove whitelisted pool, can only be call by admin role",
        "params": {
          "_pool": "address of pool to remove from whitelist*"
        }
      },
      "renounceRole(bytes32,address)": {
        "details": "Revokes `role` from the calling account. Roles are often managed via {grantRole} and {revokeRole}: this function's purpose is to provide a mechanism for accounts to lose their privileges if they are compromised (such as when a trusted device is misplaced). If the calling account had been revoked `role`, emits a {RoleRevoked} event. Requirements: - the caller must be `callerConfirmation`. May emit a {RoleRevoked} event."
      },
      "revokeRole(bytes32,address)": {
        "details": "Revokes `role` from `account`. If `account` had been granted `role`, emits a {RoleRevoked} event. Requirements: - the caller must have ``role``'s admin role. May emit a {RoleRevoked} event."
      },
      "setExchangeAgent(address)": {
        "details": "set new exchange agent address, can only be called by admin role",
        "params": {
          "_exchangeAgent": "new exchange agent address*"
        }
      },
      "setMCR(uint256)": {
        "details": "set new MCR, can only be called by operator",
        "params": {
          "_MCR": "new value to update*"
        }
      },
      "setMLR(uint256)": {
        "details": "set new MLR, can only be called by operator",
        "params": {
          "_MLR": "new value to update*"
        }
      },
      "setOperator(address)": {
        "details": "set operator, can only be call by admin role",
        "params": {
          "_operator": "new operator address*"
        }
      },
      "setPolicy(address)": {
        "details": "set sales policy, can only be call by SalesPolicyFactory",
        "params": {
          "_policy": "address of new SalesPolicy*"
        }
      },
      "setPolicyByAdmin(address)": {
        "details": "set sales policy, can only be call by admin role",
        "params": {
          "_policy": "address of new SalesPolicy*"
        }
      },
      "setSCR(uint256,address)": {
        "details": "set new SCR of pool, can only be called by operator",
        "params": {
          "_SCR": "new value to update",
          "_pool": "address of pool*"
        }
      },
      "setSalesPolicyFactory(address)": {
        "details": "set sales policy factory, can only be call by admin role",
        "params": {
          "_factory": "new sales policy factory address*"
        }
      },
      "setUSDCToken(address)": {
        "details": "set usdc token, can only be call by admin role",
        "params": {
          "_usdcToken": "new usdc token address*"
        }
      },
      "supportsInterface(bytes4)": {
        "details": "See {IERC165-supportsInterface}."
      },
      "totalCapitalStaked()": {
        "details": "return total capital in usdc staked in capital agent by pools *"
      },
      "updatePolicyStatus(uint256)": {
        "details": "update policy status, if expired update policy coverage and notify to sales policy",
        "params": {
          "_policyId": "policy id to update status*"
        }
      }
    },
    "version": 1
  },
  "userdoc": {
    "kind": "user",
    "methods": {},
    "version": 1
  },
  "storageLayout": {
    "storage": [
      {
        "astId": 2401,
        "contract": "contracts/CapitalAgent.sol:CapitalAgent",
        "label": "exchangeAgent",
        "offset": 0,
        "slot": "0",
        "type": "t_address"
      },
      {
        "astId": 2403,
        "contract": "contracts/CapitalAgent.sol:CapitalAgent",
        "label": "salesPolicyFactory",
        "offset": 0,
        "slot": "1",
        "type": "t_address"
      },
      {
        "astId": 2405,
        "contract": "contracts/CapitalAgent.sol:CapitalAgent",
        "label": "usdcToken",
        "offset": 0,
        "slot": "2",
        "type": "t_address"
      },
      {
        "astId": 2407,
        "contract": "contracts/CapitalAgent.sol:CapitalAgent",
        "label": "operator",
        "offset": 0,
        "slot": "3",
        "type": "t_address"
      },
      {
        "astId": 2428,
        "contract": "contracts/CapitalAgent.sol:CapitalAgent",
        "label": "poolInfo",
        "offset": 0,
        "slot": "4",
        "type": "t_mapping(t_address,t_struct(PoolInfo)2416_storage)"
      },
      {
        "astId": 2431,
        "contract": "contracts/CapitalAgent.sol:CapitalAgent",
        "label": "currencyList",
        "offset": 0,
        "slot": "5",
        "type": "t_array(t_address)dyn_storage"
      },
      {
        "astId": 2435,
        "contract": "contracts/CapitalAgent.sol:CapitalAgent",
        "label": "existedCurrencies",
        "offset": 0,
        "slot": "6",
        "type": "t_mapping(t_address,t_bool)"
      },
      {
        "astId": 2439,
        "contract": "contracts/CapitalAgent.sol:CapitalAgent",
        "label": "totalCapitalStakedByCurrency",
        "offset": 0,
        "slot": "7",
        "type": "t_mapping(t_address,t_uint256)"
      },
      {
        "astId": 2442,
        "contract": "contracts/CapitalAgent.sol:CapitalAgent",
        "label": "policyInfo",
        "offset": 0,
        "slot": "8",
        "type": "t_struct(PolicyInfo)2423_storage"
      },
      {
        "astId": 2444,
        "contract": "contracts/CapitalAgent.sol:CapitalAgent",
        "label": "totalUtilizedAmount",
        "offset": 0,
        "slot": "11",
        "type": "t_uint256"
      },
      {
        "astId": 2446,
        "contract": "contracts/CapitalAgent.sol:CapitalAgent",
        "label": "MCR",
        "offset": 0,
        "slot": "12",
        "type": "t_uint256"
      },
      {
        "astId": 2448,
        "contract": "contracts/CapitalAgent.sol:CapitalAgent",
        "label": "MLR",
        "offset": 0,
        "slot": "13",
        "type": "t_uint256"
      },
      {
        "astId": 2455,
        "contract": "contracts/CapitalAgent.sol:CapitalAgent",
        "label": "poolWhiteList",
        "offset": 0,
        "slot": "14",
        "type": "t_mapping(t_address,t_bool)"
      }
    ],
    "types": {
      "t_address": {
        "encoding": "inplace",
        "label": "address",
        "numberOfBytes": "20"
      },
      "t_array(t_address)dyn_storage": {
        "base": "t_address",
        "encoding": "dynamic_array",
        "label": "address[]",
        "numberOfBytes": "32"
      },
      "t_bool": {
        "encoding": "inplace",
        "label": "bool",
        "numberOfBytes": "1"
      },
      "t_mapping(t_address,t_bool)": {
        "encoding": "mapping",
        "key": "t_address",
        "label": "mapping(address => bool)",
        "numberOfBytes": "32",
        "value": "t_bool"
      },
      "t_mapping(t_address,t_struct(PoolInfo)2416_storage)": {
        "encoding": "mapping",
        "key": "t_address",
        "label": "mapping(address => struct CapitalAgent.PoolInfo)",
        "numberOfBytes": "32",
        "value": "t_struct(PoolInfo)2416_storage"
      },
      "t_mapping(t_address,t_uint256)": {
        "encoding": "mapping",
        "key": "t_address",
        "label": "mapping(address => uint256)",
        "numberOfBytes": "32",
        "value": "t_uint256"
      },
      "t_struct(PolicyInfo)2423_storage": {
        "encoding": "inplace",
        "label": "struct CapitalAgent.PolicyInfo",
        "members": [
          {
            "astId": 2418,
            "contract": "contracts/CapitalAgent.sol:CapitalAgent",
            "label": "policy",
            "offset": 0,
            "slot": "0",
            "type": "t_address"
          },
          {
            "astId": 2420,
            "contract": "contracts/CapitalAgent.sol:CapitalAgent",
            "label": "utilizedAmount",
            "offset": 0,
            "slot": "1",
            "type": "t_uint256"
          },
          {
            "astId": 2422,
            "contract": "contracts/CapitalAgent.sol:CapitalAgent",
            "label": "exist",
            "offset": 0,
            "slot": "2",
            "type": "t_bool"
          }
        ],
        "numberOfBytes": "96"
      },
      "t_struct(PoolInfo)2416_storage": {
        "encoding": "inplace",
        "label": "struct CapitalAgent.PoolInfo",
        "members": [
          {
            "astId": 2409,
            "contract": "contracts/CapitalAgent.sol:CapitalAgent",
            "label": "totalCapital",
            "offset": 0,
            "slot": "0",
            "type": "t_uint256"
          },
          {
            "astId": 2411,
            "contract": "contracts/CapitalAgent.sol:CapitalAgent",
            "label": "SCR",
            "offset": 0,
            "slot": "1",
            "type": "t_uint256"
          },
          {
            "astId": 2413,
            "contract": "contracts/CapitalAgent.sol:CapitalAgent",
            "label": "currency",
            "offset": 0,
            "slot": "2",
            "type": "t_address"
          },
          {
            "astId": 2415,
            "contract": "contracts/CapitalAgent.sol:CapitalAgent",
            "label": "exist",
            "offset": 20,
            "slot": "2",
            "type": "t_bool"
          }
        ],
        "numberOfBytes": "96"
      },
      "t_uint256": {
        "encoding": "inplace",
        "label": "uint256",
        "numberOfBytes": "32"
      }
    }
  }
}