{
  "address": "0xba5B0e9B52d9F5D2f5cE175AB77aC0806d6FB61D",
  "abi": [
    {
      "inputs": [
        {
          "internalType": "address",
          "name": "_usdcToken",
          "type": "address"
        },
        {
          "internalType": "address",
          "name": "_WETH",
          "type": "address"
        },
        {
          "internalType": "address",
          "name": "_oraclePriceFeed",
          "type": "address"
        },
        {
          "internalType": "address",
          "name": "_uniswapRouter",
          "type": "address"
        },
        {
          "internalType": "address",
          "name": "_uniswapFactory",
          "type": "address"
        },
        {
          "internalType": "address",
          "name": "_multiSigWallet",
          "type": "address"
        },
        {
          "internalType": "uint256",
          "name": "_swapDeadline",
          "type": "uint256"
        }
      ],
      "stateMutability": "nonpayable",
      "type": "constructor"
    },
    {
      "inputs": [
        {
          "internalType": "address",
          "name": "target",
          "type": "address"
        }
      ],
      "name": "AddressEmptyCode",
      "type": "error"
    },
    {
      "inputs": [
        {
          "internalType": "address",
          "name": "account",
          "type": "address"
        }
      ],
      "name": "AddressInsufficientBalance",
      "type": "error"
    },
    {
      "inputs": [],
      "name": "EnforcedPause",
      "type": "error"
    },
    {
      "inputs": [],
      "name": "ExpectedPause",
      "type": "error"
    },
    {
      "inputs": [],
      "name": "FailedInnerCall",
      "type": "error"
    },
    {
      "inputs": [
        {
          "internalType": "address",
          "name": "owner",
          "type": "address"
        }
      ],
      "name": "OwnableInvalidOwner",
      "type": "error"
    },
    {
      "inputs": [
        {
          "internalType": "address",
          "name": "account",
          "type": "address"
        }
      ],
      "name": "OwnableUnauthorizedAccount",
      "type": "error"
    },
    {
      "inputs": [],
      "name": "ReentrancyGuardReentrantCall",
      "type": "error"
    },
    {
      "inputs": [
        {
          "internalType": "address",
          "name": "token",
          "type": "address"
        }
      ],
      "name": "SafeERC20FailedOperation",
      "type": "error"
    },
    {
      "anonymous": false,
      "inputs": [
        {
          "indexed": true,
          "internalType": "address",
          "name": "_dexAddress",
          "type": "address"
        },
        {
          "indexed": true,
          "internalType": "address",
          "name": "_convertToken",
          "type": "address"
        },
        {
          "indexed": false,
          "internalType": "uint256",
          "name": "_convertAmount",
          "type": "uint256"
        },
        {
          "indexed": false,
          "internalType": "uint256",
          "name": "_desiredAmount",
          "type": "uint256"
        },
        {
          "indexed": false,
          "internalType": "uint256",
          "name": "_convertedAmount",
          "type": "uint256"
        }
      ],
      "name": "ConvertedTokenToETH",
      "type": "event"
    },
    {
      "anonymous": false,
      "inputs": [
        {
          "indexed": true,
          "internalType": "address",
          "name": "_dexAddress",
          "type": "address"
        },
        {
          "indexed": true,
          "internalType": "address",
          "name": "_convertToken",
          "type": "address"
        },
        {
          "indexed": true,
          "internalType": "address",
          "name": "_convertedToken",
          "type": "address"
        },
        {
          "indexed": false,
          "internalType": "uint256",
          "name": "_convertAmount",
          "type": "uint256"
        },
        {
          "indexed": false,
          "internalType": "uint256",
          "name": "_desiredAmount",
          "type": "uint256"
        },
        {
          "indexed": false,
          "internalType": "uint256",
          "name": "_convertedAmount",
          "type": "uint256"
        }
      ],
      "name": "ConvertedTokenToToken",
      "type": "event"
    },
    {
      "anonymous": false,
      "inputs": [
        {
          "indexed": true,
          "internalType": "address",
          "name": "_exchangeAgent",
          "type": "address"
        },
        {
          "indexed": true,
          "internalType": "address",
          "name": "_whiteListAddress",
          "type": "address"
        }
      ],
      "name": "LogAddWhiteList",
      "type": "event"
    },
    {
      "anonymous": false,
      "inputs": [
        {
          "indexed": true,
          "internalType": "address",
          "name": "_exchangeAgent",
          "type": "address"
        },
        {
          "indexed": true,
          "internalType": "address",
          "name": "_whiteListAddress",
          "type": "address"
        }
      ],
      "name": "LogRemoveWhiteList",
      "type": "event"
    },
    {
      "anonymous": false,
      "inputs": [
        {
          "indexed": true,
          "internalType": "address",
          "name": "_exchangeAgent",
          "type": "address"
        },
        {
          "indexed": true,
          "internalType": "address",
          "name": "_oraclePriceFeed",
          "type": "address"
        }
      ],
      "name": "LogSetOraclePriceFeed",
      "type": "event"
    },
    {
      "anonymous": false,
      "inputs": [
        {
          "indexed": true,
          "internalType": "address",
          "name": "_exchangeAgent",
          "type": "address"
        },
        {
          "indexed": false,
          "internalType": "uint256",
          "name": "_slippage",
          "type": "uint256"
        }
      ],
      "name": "LogSetSlippage",
      "type": "event"
    },
    {
      "anonymous": false,
      "inputs": [
        {
          "indexed": true,
          "internalType": "address",
          "name": "previousOwner",
          "type": "address"
        },
        {
          "indexed": true,
          "internalType": "address",
          "name": "newOwner",
          "type": "address"
        }
      ],
      "name": "OwnershipTransferStarted",
      "type": "event"
    },
    {
      "anonymous": false,
      "inputs": [
        {
          "indexed": true,
          "internalType": "address",
          "name": "previousOwner",
          "type": "address"
        },
        {
          "indexed": true,
          "internalType": "address",
          "name": "newOwner",
          "type": "address"
        }
      ],
      "name": "OwnershipTransferred",
      "type": "event"
    },
    {
      "anonymous": false,
      "inputs": [
        {
          "indexed": false,
          "internalType": "address",
          "name": "account",
          "type": "address"
        }
      ],
      "name": "Paused",
      "type": "event"
    },
    {
      "anonymous": false,
      "inputs": [
        {
          "indexed": false,
          "internalType": "address",
          "name": "account",
          "type": "address"
        }
      ],
      "name": "Unpaused",
      "type": "event"
    },
    {
      "inputs": [],
      "name": "UNISWAP_FACTORY",
      "outputs": [
        {
          "internalType": "address",
          "name": "",
          "type": "address"
        }
      ],
      "stateMutability": "view",
      "type": "function"
    },
    {
      "inputs": [],
      "name": "UNISWAP_ROUTER",
      "outputs": [
        {
          "internalType": "address",
          "name": "",
          "type": "address"
        }
      ],
      "stateMutability": "view",
      "type": "function"
    },
    {
      "inputs": [],
      "name": "WETH",
      "outputs": [
        {
          "internalType": "address",
          "name": "",
          "type": "address"
        }
      ],
      "stateMutability": "view",
      "type": "function"
    },
    {
      "inputs": [],
      "name": "acceptOwnership",
      "outputs": [],
      "stateMutability": "nonpayable",
      "type": "function"
    },
    {
      "inputs": [
        {
          "internalType": "address",
          "name": "_whiteListAddress",
          "type": "address"
        }
      ],
      "name": "addWhiteList",
      "outputs": [],
      "stateMutability": "nonpayable",
      "type": "function"
    },
    {
      "inputs": [
        {
          "internalType": "address",
          "name": "_token",
          "type": "address"
        },
        {
          "internalType": "uint256",
          "name": "_convertAmount",
          "type": "uint256"
        }
      ],
      "name": "convertForETH",
      "outputs": [
        {
          "internalType": "uint256",
          "name": "",
          "type": "uint256"
        }
      ],
      "stateMutability": "nonpayable",
      "type": "function"
    },
    {
      "inputs": [
        {
          "internalType": "address",
          "name": "_token0",
          "type": "address"
        },
        {
          "internalType": "address",
          "name": "_token1",
          "type": "address"
        },
        {
          "internalType": "uint256",
          "name": "_token0Amount",
          "type": "uint256"
        }
      ],
      "name": "convertForToken",
      "outputs": [
        {
          "internalType": "uint256",
          "name": "",
          "type": "uint256"
        }
      ],
      "stateMutability": "nonpayable",
      "type": "function"
    },
    {
      "inputs": [
        {
          "internalType": "address",
          "name": "_token",
          "type": "address"
        },
        {
          "internalType": "uint256",
          "name": "_tokenAmount",
          "type": "uint256"
        }
      ],
      "name": "getETHAmountForToken",
      "outputs": [
        {
          "internalType": "uint256",
          "name": "",
          "type": "uint256"
        }
      ],
      "stateMutability": "view",
      "type": "function"
    },
    {
      "inputs": [
        {
          "internalType": "uint256",
          "name": "_usdtAmount",
          "type": "uint256"
        }
      ],
      "name": "getETHAmountForUSDC",
      "outputs": [
        {
          "internalType": "uint256",
          "name": "",
          "type": "uint256"
        }
      ],
      "stateMutability": "view",
      "type": "function"
    },
    {
      "inputs": [
        {
          "internalType": "address",
          "name": "_token0",
          "type": "address"
        },
        {
          "internalType": "address",
          "name": "_token1",
          "type": "address"
        },
        {
          "internalType": "uint256",
          "name": "_token0Amount",
          "type": "uint256"
        }
      ],
      "name": "getNeededTokenAmount",
      "outputs": [
        {
          "internalType": "uint256",
          "name": "",
          "type": "uint256"
        }
      ],
      "stateMutability": "view",
      "type": "function"
    },
    {
      "inputs": [
        {
          "internalType": "address",
          "name": "_token",
          "type": "address"
        },
        {
          "internalType": "uint256",
          "name": "_ethAmount",
          "type": "uint256"
        }
      ],
      "name": "getTokenAmountForETH",
      "outputs": [
        {
          "internalType": "uint256",
          "name": "",
          "type": "uint256"
        }
      ],
      "stateMutability": "view",
      "type": "function"
    },
    {
      "inputs": [
        {
          "internalType": "address",
          "name": "_token",
          "type": "address"
        },
        {
          "internalType": "uint256",
          "name": "_usdtAmount",
          "type": "uint256"
        }
      ],
      "name": "getTokenAmountForUSDC",
      "outputs": [
        {
          "internalType": "uint256",
          "name": "",
          "type": "uint256"
        }
      ],
      "stateMutability": "view",
      "type": "function"
    },
    {
      "inputs": [],
      "name": "killPool",
      "outputs": [],
      "stateMutability": "nonpayable",
      "type": "function"
    },
    {
      "inputs": [],
      "name": "oraclePriceFeed",
      "outputs": [
        {
          "internalType": "address",
          "name": "",
          "type": "address"
        }
      ],
      "stateMutability": "view",
      "type": "function"
    },
    {
      "inputs": [],
      "name": "owner",
      "outputs": [
        {
          "internalType": "address",
          "name": "",
          "type": "address"
        }
      ],
      "stateMutability": "view",
      "type": "function"
    },
    {
      "inputs": [],
      "name": "paused",
      "outputs": [
        {
          "internalType": "bool",
          "name": "",
          "type": "bool"
        }
      ],
      "stateMutability": "view",
      "type": "function"
    },
    {
      "inputs": [],
      "name": "pendingOwner",
      "outputs": [
        {
          "internalType": "address",
          "name": "",
          "type": "address"
        }
      ],
      "stateMutability": "view",
      "type": "function"
    },
    {
      "inputs": [
        {
          "internalType": "address",
          "name": "_whiteListAddress",
          "type": "address"
        }
      ],
      "name": "removeWhiteList",
      "outputs": [],
      "stateMutability": "nonpayable",
      "type": "function"
    },
    {
      "inputs": [],
      "name": "renounceOwnership",
      "outputs": [],
      "stateMutability": "nonpayable",
      "type": "function"
    },
    {
      "inputs": [],
      "name": "revivePool",
      "outputs": [],
      "stateMutability": "nonpayable",
      "type": "function"
    },
    {
      "inputs": [
        {
          "internalType": "address",
          "name": "_oraclePriceFeed",
          "type": "address"
        }
      ],
      "name": "setOraclePriceFeed",
      "outputs": [],
      "stateMutability": "nonpayable",
      "type": "function"
    },
    {
      "inputs": [
        {
          "internalType": "uint256",
          "name": "_slippage",
          "type": "uint256"
        }
      ],
      "name": "setSlippage",
      "outputs": [],
      "stateMutability": "nonpayable",
      "type": "function"
    },
    {
      "inputs": [
        {
          "internalType": "uint256",
          "name": "_swapDeadline",
          "type": "uint256"
        }
      ],
      "name": "setSwapDeadline",
      "outputs": [],
      "stateMutability": "nonpayable",
      "type": "function"
    },
    {
      "inputs": [],
      "name": "slippage",
      "outputs": [
        {
          "internalType": "uint256",
          "name": "",
          "type": "uint256"
        }
      ],
      "stateMutability": "view",
      "type": "function"
    },
    {
      "inputs": [],
      "name": "swapDeadline",
      "outputs": [
        {
          "internalType": "uint256",
          "name": "",
          "type": "uint256"
        }
      ],
      "stateMutability": "view",
      "type": "function"
    },
    {
      "inputs": [
        {
          "internalType": "address",
          "name": "newOwner",
          "type": "address"
        }
      ],
      "name": "transferOwnership",
      "outputs": [],
      "stateMutability": "nonpayable",
      "type": "function"
    },
    {
      "inputs": [],
      "name": "usdcToken",
      "outputs": [
        {
          "internalType": "address",
          "name": "",
          "type": "address"
        }
      ],
      "stateMutability": "view",
      "type": "function"
    },
    {
      "inputs": [
        {
          "internalType": "address",
          "name": "",
          "type": "address"
        }
      ],
      "name": "whiteList",
      "outputs": [
        {
          "internalType": "bool",
          "name": "",
          "type": "bool"
        }
      ],
      "stateMutability": "view",
      "type": "function"
    },
    {
      "stateMutability": "payable",
      "type": "receive"
    }
  ],
  "transactionHash": "0x2d74b748ca6dccb021a75d44561c9576ec6e3d6a956e644112b8fa06484fa35c",
  "args": [
    "0x892528707DF43773782F2564FbCd5Dc7441B86EB",
    "0x2A416168ceA12820E288d36f77C1b7f936F4e228",
    "0xeD90D194b42E752E5B50Be286ff791f31Fd95967",
    "0x7a250d5630B4cF539739dF2C5dAcb4c659F2488D",
    "0x5C69bEe701ef814a2B6a3EDD4B1652CB9cc5aA6f",
    "0xedFFe0a06914c9D6083B4B099e5b935E9E84c9a5",
    "60000000000000000000"
  ],
  "numDeployments": 1,
  "solcInputHash": "621561f935af56c4087b4976f6e7da97",
  "bytecode": "0x6101006040523480156200001257600080fd5b5060405162002b0738038062002b0783398101604081905262000035916200035b565b6001600055816001600160a01b0381166200006b57604051631e4fbdf760e01b8152600060048201526024015b60405180910390fd5b6200007681620002ce565b506002805460ff60a01b191690556001600160a01b038716620000dc5760405162461bcd60e51b815260206004820152601860248201527f556e6f52653a207a65726f205553444320616464726573730000000000000000604482015260640162000062565b6001600160a01b0384166200013e5760405162461bcd60e51b815260206004820152602160248201527f556e6f52653a207a65726f20756e6973776170526f75746572206164647265736044820152607360f81b606482015260840162000062565b6001600160a01b038316620001a15760405162461bcd60e51b815260206004820152602260248201527f556e6f52653a207a65726f20756e6973776170466163746f7279206164647265604482015261737360f01b606482015260840162000062565b6001600160a01b038616620001f95760405162461bcd60e51b815260206004820152601860248201527f556e6f52653a207a65726f205745544820616464726573730000000000000000604482015260640162000062565b6001600160a01b0382166200025c5760405162461bcd60e51b815260206004820152602260248201527f556e6f52653a207a65726f206d756c746973696777616c6c6574206164647265604482015261737360f01b606482015260840162000062565b6001600160a01b0387811660805283811660a05284811660c05286811660e052600380546001600160a01b031916918716919091179055336000908152600660205260409020805460ff19166001179055620002bb60646005620003e7565b6004556005555062000413945050505050565b600280546001600160a01b0319169055620002e981620002ec565b50565b600180546001600160a01b038381166001600160a01b0319831681179093556040519116919082907f8be0079c531659141344cd1fd0a4f28419497f9722a3daafe3b4186f6b6457e090600090a35050565b80516001600160a01b03811681146200035657600080fd5b919050565b600080600080600080600060e0888a0312156200037757600080fd5b62000382886200033e565b965062000392602089016200033e565b9550620003a2604089016200033e565b9450620003b2606089016200033e565b9350620003c2608089016200033e565b9250620003d260a089016200033e565b915060c0880151905092959891949750929550565b80820281158282048414176200040d57634e487b7160e01b600052601160045260246000fd5b92915050565b60805160a05160c05160e0516126896200047e6000396000818161047701528181611b720152611c4e0152600081816104ff01528181610c8a0152610ea7015260006104cb01526000818161020c015281816108c9015281816109470152610ee401526126896000f3fe6080604052600436106101bb5760003560e01c80638da5cb5b116100ec578063ba560ed91161008a578063e30c397811610064578063e30c397814610521578063e7cd4a041461053f578063f0fa55a91461055f578063f2fde38b1461057f57600080fd5b8063ba560ed914610499578063c74c0fac146104b9578063d8264920146104ed57600080fd5b8063942dbff4116100c6578063942dbff41461040f5780639a55396814610425578063a9a12d4314610445578063ad5c46481461046557600080fd5b80638da5cb5b146103b157806393ad9f17146103cf57806393badc41146103ef57600080fd5b8063531a221111610159578063715018a611610133578063715018a61461035257806375d380711461036757806379ba5097146103875780637a39b8d81461039c57600080fd5b8063531a2211146102fe5780635c975abb1461031e578063677554151461033d57600080fd5b80632042e5c2116101955780632042e5c21461026857806334899be614610288578063372c12b1146102a85780633e032a3b146102e857600080fd5b8063102e3259146101c757806311eac855146101fa5780631eb5b6991461024657600080fd5b366101c257005b600080fd5b3480156101d357600080fd5b506101e76101e23660046122d5565b61059f565b6040519081526020015b60405180910390f35b34801561020657600080fd5b5061022e7f000000000000000000000000000000000000000000000000000000000000000081565b6040516001600160a01b0390911681526020016101f1565b34801561025257600080fd5b50610266610261366004612301565b6106a6565b005b34801561027457600080fd5b50610266610283366004612301565b610762565b34801561029457600080fd5b506101e76102a336600461231e565b610898565b3480156102b457600080fd5b506102d86102c3366004612301565b60066020526000908152604090205460ff1681565b60405190151581526020016101f1565b3480156102f457600080fd5b506101e760045481565b34801561030a57600080fd5b506101e761031936600461235f565b6108af565b34801561032a57600080fd5b50600254600160a01b900460ff166102d8565b34801561034957600080fd5b506102666109f3565b34801561035e57600080fd5b50610266610a05565b34801561037357600080fd5b5060035461022e906001600160a01b031681565b34801561039357600080fd5b50610266610a17565b3480156103a857600080fd5b50610266610a74565b3480156103bd57600080fd5b506001546001600160a01b031661022e565b3480156103db57600080fd5b506102666103ea36600461235f565b610a84565b3480156103fb57600080fd5b506101e761040a36600461231e565b610a91565b34801561041b57600080fd5b506101e760055481565b34801561043157600080fd5b506101e76104403660046122d5565b610cc1565b34801561045157600080fd5b506101e76104603660046122d5565b610edd565b34801561047157600080fd5b5061022e7f000000000000000000000000000000000000000000000000000000000000000081565b3480156104a557600080fd5b506101e76104b43660046122d5565b610f0a565b3480156104c557600080fd5b5061022e7f000000000000000000000000000000000000000000000000000000000000000081565b3480156104f957600080fd5b5061022e7f000000000000000000000000000000000000000000000000000000000000000081565b34801561052d57600080fd5b506002546001600160a01b031661022e565b34801561054b57600080fd5b5061026661055a366004612301565b610ffd565b34801561056b57600080fd5b5061026661057a36600461235f565b611111565b34801561058b57600080fd5b5061026661059a366004612301565b6111ff565b60035460405163355188ab60e01b81526001600160a01b038481166004830152600092839291169063355188ab90602401602060405180830381865afa1580156105ed573d6000803e3d6000fd5b505050506040513d601f19601f820116820180604052508101906106119190612378565b90506000846001600160a01b031663313ce5676040518163ffffffff1660e01b8152600401602060405180830381865afa158015610653573d6000803e3d6000fd5b505050506040513d601f19601f820116820180604052508101906106779190612391565b60ff16905061068781600a6124ae565b61069183866124ba565b61069b91906124d1565b925050505b92915050565b6106ae61127d565b6001600160a01b0381166107095760405162461bcd60e51b815260206004820152601360248201527f556e6f52653a207a65726f20616464726573730000000000000000000000000060448201526064015b60405180910390fd5b6003805473ffffffffffffffffffffffffffffffffffffffff19166001600160a01b03831690811790915560405130907f76d908faefb2e5bb2e5551cce5530e7d157dd5ddafe26554d2320c5cc065009f90600090a350565b61076a61127d565b6001600160a01b0381166107c05760405162461bcd60e51b815260206004820152601360248201527f556e6f52653a207a65726f2061646472657373000000000000000000000000006044820152606401610700565b6001600160a01b03811660009081526006602052604090205460ff1661084e5760405162461bcd60e51b815260206004820152602c60248201527f556e6f52653a207768697465206c6973742072656d6f766564206f7220756e6160448201527f6464656420616c726561647900000000000000000000000000000000000000006064820152608401610700565b6001600160a01b038116600081815260066020526040808220805460ff191690555130917f2f467772ef0a5478314f3bc2b37d4b2ad29b65f052b2cedc8e2972dda033529291a350565b60006108a58484846112c3565b90505b9392505050565b60035460405163355188ab60e01b81526001600160a01b037f000000000000000000000000000000000000000000000000000000000000000081166004830152600092839291169063355188ab90602401602060405180830381865afa15801561091d573d6000803e3d6000fd5b505050506040513d601f19601f820116820180604052508101906109419190612378565b905060007f00000000000000000000000000000000000000000000000000000000000000006001600160a01b031663313ce5676040518163ffffffff1660e01b8152600401602060405180830381865afa1580156109a3573d6000803e3d6000fd5b505050506040513d601f19601f820116820180604052508101906109c79190612391565b60ff1690506109d781600a6124ae565b6109e183866124ba565b6109eb91906124d1565b949350505050565b6109fb61127d565b610a03611366565b565b610a0d61127d565b610a0360006113d6565b60025433906001600160a01b03168114610a68576040517f118cdaa70000000000000000000000000000000000000000000000000000000081526001600160a01b0382166004820152602401610700565b610a71816113d6565b50565b610a7c61127d565b610a036113fc565b610a8c61127d565b600555565b3360009081526006602052604081205460ff16610af05760405162461bcd60e51b815260206004820152601e60248201527f556e6f52653a2045786368616e67654167656e7420466f7262696464656e00006044820152606401610700565b610af861145a565b610b0061149e565b60006001600160a01b03851615610be7576040516370a0823160e01b81523360048201526000906001600160a01b038716906370a0823190602401602060405180830381865afa158015610b58573d6000803e3d6000fd5b505050506040513d601f19601f82011682018060405250810190610b7c9190612378565b11610bc95760405162461bcd60e51b815260206004820152601360248201527f556e6f52653a207a65726f2062616c616e6365000000000000000000000000006044820152606401610700565b610bd5853330866114e1565b610be08585856112c3565b9050610bf4565b610bf18484610f0a565b90505b60008111610c445760405162461bcd60e51b815260206004820152600f60248201527f556e6f52653a206e6f20706169727300000000000000000000000000000000006044820152606401610700565b6000606480600454606480610c5991906124ba565b610c6391906124f3565b610c6d90856124ba565b610c7791906124d1565b610c8191906124d1565b90506000610cb27f000000000000000000000000000000000000000000000000000000000000000088888886611659565b93505050506108a86001600055565b3360009081526006602052604081205460ff16610d205760405162461bcd60e51b815260206004820152601e60248201527f556e6f52653a2045786368616e67654167656e7420466f7262696464656e00006044820152606401610700565b610d2861145a565b610d3061149e565b6040516370a0823160e01b81523360048201526000906001600160a01b038516906370a0823190602401602060405180830381865afa158015610d77573d6000803e3d6000fd5b505050506040513d601f19601f82011682018060405250810190610d9b9190612378565b11610de85760405162461bcd60e51b815260206004820152601360248201527f556e6f52653a207a65726f2062616c616e6365000000000000000000000000006044820152606401610700565b6001600160a01b03831615610e0357610e03833330856114e1565b6000610e0f848461059f565b905060008111610e615760405162461bcd60e51b815260206004820152600f60248201527f556e6f52653a206e6f20706169727300000000000000000000000000000000006044820152606401610700565b6000606480600454606480610e7691906124ba565b610e8091906124f3565b610e8a90856124ba565b610e9491906124d1565b610e9e91906124d1565b90506000610ece7f0000000000000000000000000000000000000000000000000000000000000000878785611ac1565b93505050506106a06001600055565b60006108a87f000000000000000000000000000000000000000000000000000000000000000084846112c3565b60035460405163355188ab60e01b81526001600160a01b038481166004830152600092839291169063355188ab90602401602060405180830381865afa158015610f58573d6000803e3d6000fd5b505050506040513d601f19601f82011682018060405250810190610f7c9190612378565b90506000846001600160a01b031663313ce5676040518163ffffffff1660e01b8152600401602060405180830381865afa158015610fbe573d6000803e3d6000fd5b505050506040513d601f19601f82011682018060405250810190610fe29190612391565b60ff16905081610ff382600a6124ae565b61069190866124ba565b61100561127d565b6001600160a01b03811661105b5760405162461bcd60e51b815260206004820152601360248201527f556e6f52653a207a65726f2061646472657373000000000000000000000000006044820152606401610700565b6001600160a01b03811660009081526006602052604090205460ff16156110c45760405162461bcd60e51b815260206004820152601960248201527f556e6f52653a207768697465206c69737420616c7265616479000000000000006044820152606401610700565b6001600160a01b038116600081815260066020526040808220805460ff191660011790555130917f8cd7b0b1a7316eb3e5d781d629cb8bf4e2fd9a8903bdd0f6b894c087d61b21f291a350565b61111961127d565b600081116111695760405162461bcd60e51b815260206004820152601460248201527f556e6f52653a207a65726f20736c6970706167650000000000000000000000006044820152606401610700565b606481106111b95760405162461bcd60e51b815260206004820152601d60248201527f556e6f52653a203130302520736c697070616765206f766572666c6f770000006044820152606401610700565b6111c46064826124ba565b60045560405181815230907f1b5c61e79b0735d33852817a0af9ed28b909c7c0a2a04abcc0c19bba6d6ba5649060200160405180910390a250565b61120761127d565b600280546001600160a01b03831673ffffffffffffffffffffffffffffffffffffffff1990911681179091556112456001546001600160a01b031690565b6001600160a01b03167f38d16b8cac22d99fc7c124b9cd0de2d3fa1faef420bfe791d8c362d765e2270060405160405180910390a350565b6001546001600160a01b03163314610a03576040517f118cdaa7000000000000000000000000000000000000000000000000000000008152336004820152602401610700565b6003546040517f636cfa0c0000000000000000000000000000000000000000000000000000000081526001600160a01b038581166004830152848116602483015260448201849052600092839291169063636cfa0c90606401602060405180830381865afa158015611339573d6000803e3d6000fd5b505050506040513d601f19601f8201168201806040525081019061135d9190612378565b95945050505050565b61136e611d87565b600280547fffffffffffffffffffffff00ffffffffffffffffffffffffffffffffffffffff1690557f5db9ee0a495bf2e6ff9c91a7834c1ba4fdd244a5e8aa4e537bd38aeae4b073aa335b6040516001600160a01b03909116815260200160405180910390a1565b6002805473ffffffffffffffffffffffffffffffffffffffff19169055610a7181611dca565b61140461145a565b600280547fffffffffffffffffffffff00ffffffffffffffffffffffffffffffffffffffff16600160a01b1790557f62e78cea01bee320cd4e420270b5ea74000d11b0c9f74754ebdbfc544b05a2586113b93390565b600254600160a01b900460ff1615610a03576040517fd93c066500000000000000000000000000000000000000000000000000000000815260040160405180910390fd5b6002600054036114da576040517f3ee5aeb500000000000000000000000000000000000000000000000000000000815260040160405180910390fd5b6002600055565b604080516001600160a01b0385811660248301528481166044830152606480830185905283518084039091018152608490920183526020820180517bffffffffffffffffffffffffffffffffffffffffffffffffffffffff167f23b872dd0000000000000000000000000000000000000000000000000000000017905291516000928392908816916115739190612506565b6000604051808303816000865af19150503d80600081146115b0576040519150601f19603f3d011682016040523d82523d6000602084013e6115b5565b606091505b50915091508180156115df5750805115806115df5750808060200190518101906115df9190612535565b6116515760405162461bcd60e51b815260206004820152603160248201527f5472616e7366657248656c7065723a3a7472616e7366657246726f6d3a20747260448201527f616e7366657246726f6d206661696c65640000000000000000000000000000006064820152608401610700565b505050505050565b6000808690506000816001600160a01b031663c45a01556040518163ffffffff1660e01b8152600401602060405180830381865afa15801561169f573d6000803e3d6000fd5b505050506040513d601f19601f820116820180604052508101906116c39190612557565b6040516370a0823160e01b81523360048201529091506000906001600160a01b038816906370a0823190602401602060405180830381865afa15801561170d573d6000803e3d6000fd5b505050506040513d601f19601f820116820180604052508101906117319190612378565b90506000836001600160a01b031663ad5c46486040518163ffffffff1660e01b8152600401602060405180830381865afa158015611773573d6000803e3d6000fd5b505050506040513d601f19601f820116820180604052508101906117979190612557565b90506001600160a01b038916156117b55750876117b5818589611e29565b6040517fe6a439050000000000000000000000000000000000000000000000000000000081526001600160a01b03828116600483015289811660248301526000919085169063e6a4390590604401602060405180830381865afa158015611820573d6000803e3d6000fd5b505050506040513d601f19601f820116820180604052508101906118449190612557565b6001600160a01b0316146119d057604080516002808252606082018352600092602083019080368337019050509050818160008151811061188757611887612574565b60200260200101906001600160a01b031690816001600160a01b03168152505088816001815181106118bb576118bb612574565b6001600160a01b0392831660209182029290920101528a1661194e57846001600160a01b031663b6f9de9589898433600554426118f8919061258a565b6040518663ffffffff1660e01b815260040161191794939291906125e2565b6000604051808303818588803b15801561193057600080fd5b505af1158015611944573d6000803e3d6000fd5b50505050506119ce565b6040517f5c11d7950000000000000000000000000000000000000000000000000000000081526001600160a01b03861690635c11d7959061199b908b908b90869033904290600401612617565b600060405180830381600087803b1580156119b557600080fd5b505af11580156119c9573d6000803e3d6000fd5b505050505b505b6040516370a0823160e01b81523360048201526000906001600160a01b038a16906370a0823190602401602060405180830381865afa158015611a17573d6000803e3d6000fd5b505050506040513d601f19601f82011682018060405250810190611a3b9190612378565b9050886001600160a01b03168a6001600160a01b03168c6001600160a01b03167fd30edfe8aafab67575a170d015da0337bcb39e5c9af1b2dfb9294fb75b344ac38b8b8887611a8a91906124f3565b6040805193845260208401929092529082015260600160405180910390a4611ab283826124f3565b9b9a5050505050505050505050565b6000808590506000816001600160a01b031663c45a01556040518163ffffffff1660e01b8152600401602060405180830381865afa158015611b07573d6000803e3d6000fd5b505050506040513d601f19601f82011682018060405250810190611b2b9190612557565b90503331611b3a878488611f7f565b6040517fe6a439050000000000000000000000000000000000000000000000000000000081526001600160a01b0388811660048301527f0000000000000000000000000000000000000000000000000000000000000000811660248301526000919084169063e6a4390590604401602060405180830381865afa158015611bc5573d6000803e3d6000fd5b505050506040513d601f19601f82011682018060405250810190611be99190612557565b6001600160a01b031614611d15576040805160028082526060820183526000926020830190803683370190505090508781600081518110611c2c57611c2c612574565b60200260200101906001600160a01b031690816001600160a01b0316815250507f000000000000000000000000000000000000000000000000000000000000000081600181518110611c8057611c80612574565b60200260200101906001600160a01b031690816001600160a01b031681525050836001600160a01b031663791ac9478888843360055442611cc1919061258a565b6040518663ffffffff1660e01b8152600401611ce1959493929190612617565b600060405180830381600087803b158015611cfb57600080fd5b505af1158015611d0f573d6000803e3d6000fd5b50505050505b33316001600160a01b03888116908a167f1df84ee81df9963f5d40b2a3f717360c1f62daa6f21f69580398a8d570de644c8989611d5287876124f3565b6040805193845260208401929092529082015260600160405180910390a3611d7a82826124f3565b9998505050505050505050565b600254600160a01b900460ff16610a03576040517f8dfc202b00000000000000000000000000000000000000000000000000000000815260040160405180910390fd5b600180546001600160a01b0383811673ffffffffffffffffffffffffffffffffffffffff19831681179093556040519116919082907f8be0079c531659141344cd1fd0a4f28419497f9722a3daafe3b4186f6b6457e090600090a35050565b604080516001600160a01b038481166024830152604480830185905283518084039091018152606490920183526020820180517bffffffffffffffffffffffffffffffffffffffffffffffffffffffff1663095ea7b360e01b1790529151600092839290871691611e9a9190612506565b6000604051808303816000865af19150503d8060008114611ed7576040519150601f19603f3d011682016040523d82523d6000602084013e611edc565b606091505b5091509150818015611f06575080511580611f06575080806020019051810190611f069190612535565b611f785760405162461bcd60e51b815260206004820152602b60248201527f5472616e7366657248656c7065723a3a73616665417070726f76653a2061707060448201527f726f7665206661696c65640000000000000000000000000000000000000000006064820152608401610700565b5050505050565b604080516001600160a01b038416602482015260448082018490528251808303909101815260649091019091526020810180517bffffffffffffffffffffffffffffffffffffffffffffffffffffffff1663095ea7b360e01b179052611fe58482612063565b61205d57604080516001600160a01b038516602482015260006044808301919091528251808303909101815260649091019091526020810180517bffffffffffffffffffffffffffffffffffffffffffffffffffffffff1663095ea7b360e01b179052612053908590612106565b61205d8482612106565b50505050565b6000806000846001600160a01b0316846040516120809190612506565b6000604051808303816000865af19150503d80600081146120bd576040519150601f19603f3d011682016040523d82523d6000602084013e6120c2565b606091505b50915091508180156120ec5750805115806120ec5750808060200190518101906120ec9190612535565b801561069b5750505050506001600160a01b03163b151590565b600061211b6001600160a01b03841683612187565b9050805160001415801561214057508080602001905181019061213e9190612535565b155b15612182576040517f5274afe70000000000000000000000000000000000000000000000000000000081526001600160a01b0384166004820152602401610700565b505050565b60606108a88383600084600080856001600160a01b031684866040516121ad9190612506565b60006040518083038185875af1925050503d80600081146121ea576040519150601f19603f3d011682016040523d82523d6000602084013e6121ef565b606091505b50915091506121ff868383612209565b9695505050505050565b60608261221e576122198261227e565b6108a8565b815115801561223557506001600160a01b0384163b155b15612277576040517f9996b3150000000000000000000000000000000000000000000000000000000081526001600160a01b0385166004820152602401610700565b50806108a8565b80511561228e5780518082602001fd5b6040517f1425ea4200000000000000000000000000000000000000000000000000000000815260040160405180910390fd5b6001600160a01b0381168114610a7157600080fd5b600080604083850312156122e857600080fd5b82356122f3816122c0565b946020939093013593505050565b60006020828403121561231357600080fd5b81356108a8816122c0565b60008060006060848603121561233357600080fd5b833561233e816122c0565b9250602084013561234e816122c0565b929592945050506040919091013590565b60006020828403121561237157600080fd5b5035919050565b60006020828403121561238a57600080fd5b5051919050565b6000602082840312156123a357600080fd5b815160ff811681146108a857600080fd5b634e487b7160e01b600052601160045260246000fd5b600181815b808511156124055781600019048211156123eb576123eb6123b4565b808516156123f857918102915b93841c93908002906123cf565b509250929050565b60008261241c575060016106a0565b81612429575060006106a0565b816001811461243f576002811461244957612465565b60019150506106a0565b60ff84111561245a5761245a6123b4565b50506001821b6106a0565b5060208310610133831016604e8410600b8410161715612488575081810a6106a0565b61249283836123ca565b80600019048211156124a6576124a66123b4565b029392505050565b60006108a8838361240d565b80820281158282048414176106a0576106a06123b4565b6000826124ee57634e487b7160e01b600052601260045260246000fd5b500490565b818103818111156106a0576106a06123b4565b6000825160005b81811015612527576020818601810151858301520161250d565b506000920191825250919050565b60006020828403121561254757600080fd5b815180151581146108a857600080fd5b60006020828403121561256957600080fd5b81516108a8816122c0565b634e487b7160e01b600052603260045260246000fd5b808201808211156106a0576106a06123b4565b60008151808452602080850194506020840160005b838110156125d75781516001600160a01b0316875295820195908201906001016125b2565b509495945050505050565b8481526080602082015260006125fb608083018661259d565b6001600160a01b03949094166040830152506060015292915050565b85815284602082015260a06040820152600061263660a083018661259d565b6001600160a01b039490941660608301525060800152939250505056fea2646970667358221220b7d303a179b83339517612f1666361911507febe3598e9ce1b61536ad857a4bb64736f6c63430008170033",
  "devdoc": {
    "errors": {
      "AddressEmptyCode(address)": [
        {
          "details": "There's no code at `target` (it is not a contract)."
        }
      ],
      "AddressInsufficientBalance(address)": [
        {
          "details": "The ETH balance of the account is not enough to perform the operation."
        }
      ],
      "EnforcedPause()": [
        {
          "details": "The operation failed because the contract is paused."
        }
      ],
      "ExpectedPause()": [
        {
          "details": "The operation failed because the contract is not paused."
        }
      ],
      "FailedInnerCall()": [
        {
          "details": "A call to an address target failed. The target may have reverted."
        }
      ],
      "OwnableInvalidOwner(address)": [
        {
          "details": "The owner is not a valid owner account. (eg. `address(0)`)"
        }
      ],
      "OwnableUnauthorizedAccount(address)": [
        {
          "details": "The caller account is not authorized to perform an operation."
        }
      ],
      "ReentrancyGuardReentrantCall()": [
        {
          "details": "Unauthorized reentrant call."
        }
      ],
      "SafeERC20FailedOperation(address)": [
        {
          "details": "An operation with an ERC20 token failed."
        }
      ]
    },
    "events": {
      "Paused(address)": {
        "details": "Emitted when the pause is triggered by `account`."
      },
      "Unpaused(address)": {
        "details": "Emitted when the pause is lifted by `account`."
      }
    },
    "kind": "dev",
    "methods": {
      "acceptOwnership()": {
        "details": "The new owner accepts the ownership transfer."
      },
      "addWhiteList(address)": {
        "details": "add address to whiteListed Address, can only be called by owner",
        "params": {
          "_whiteListAddress": "address to white list"
        }
      },
      "convertForETH(address,uint256)": {
        "details": "convert expected eth amount for _inputAmount of _token only whitlisted address can call this function"
      },
      "convertForToken(address,address,uint256)": {
        "details": "convert expected _token1 amount for _inputAmount of _token0 _desiredAmount should consider decimals based on _token1, only whitlisted address can call this function"
      },
      "getNeededTokenAmount(address,address,uint256)": {
        "details": "Get expected _token1 amount for _inputAmount of _token0 _desiredAmount should consider decimals based on _token1,"
      },
      "owner()": {
        "details": "Returns the address of the current owner."
      },
      "paused()": {
        "details": "Returns true if the contract is paused, and false otherwise."
      },
      "pendingOwner()": {
        "details": "Returns the address of the pending owner."
      },
      "removeWhiteList(address)": {
        "details": "remove address from whiteListed Address, can only be called by owner",
        "params": {
          "_whiteListAddress": "address to remove from white list"
        }
      },
      "renounceOwnership()": {
        "details": "Leaves the contract without owner. It will not be possible to call `onlyOwner` functions. Can only be called by the current owner. NOTE: Renouncing ownership will leave the contract without an owner, thereby disabling any functionality that is only available to the owner."
      },
      "setOraclePriceFeed(address)": {
        "details": "set oracle price feed, can only be called by owner"
      },
      "setSlippage(uint256)": {
        "details": "set slippage, can only be called by owner"
      },
      "transferOwnership(address)": {
        "details": "Starts the ownership transfer of the contract to a new account. Replaces the pending transfer if there is one. Can only be called by the current owner."
      }
    },
    "version": 1
  },
  "userdoc": {
    "kind": "user",
    "methods": {},
    "version": 1
  },
  "storageLayout": {
    "storage": [
      {
        "astId": 2285,
        "contract": "contracts/ExchangeAgent.sol:ExchangeAgent",
        "label": "_status",
        "offset": 0,
        "slot": "0",
        "type": "t_uint256"
      },
      {
        "astId": 1219,
        "contract": "contracts/ExchangeAgent.sol:ExchangeAgent",
        "label": "_owner",
        "offset": 0,
        "slot": "1",
        "type": "t_address"
      },
      {
        "astId": 1367,
        "contract": "contracts/ExchangeAgent.sol:ExchangeAgent",
        "label": "_pendingOwner",
        "offset": 0,
        "slot": "2",
        "type": "t_address"
      },
      {
        "astId": 2166,
        "contract": "contracts/ExchangeAgent.sol:ExchangeAgent",
        "label": "_paused",
        "offset": 20,
        "slot": "2",
        "type": "t_bool"
      },
      {
        "astId": 3956,
        "contract": "contracts/ExchangeAgent.sol:ExchangeAgent",
        "label": "oraclePriceFeed",
        "offset": 0,
        "slot": "3",
        "type": "t_address"
      },
      {
        "astId": 3958,
        "contract": "contracts/ExchangeAgent.sol:ExchangeAgent",
        "label": "slippage",
        "offset": 0,
        "slot": "4",
        "type": "t_uint256"
      },
      {
        "astId": 3963,
        "contract": "contracts/ExchangeAgent.sol:ExchangeAgent",
        "label": "swapDeadline",
        "offset": 0,
        "slot": "5",
        "type": "t_uint256"
      },
      {
        "astId": 3967,
        "contract": "contracts/ExchangeAgent.sol:ExchangeAgent",
        "label": "whiteList",
        "offset": 0,
        "slot": "6",
        "type": "t_mapping(t_address,t_bool)"
      }
    ],
    "types": {
      "t_address": {
        "encoding": "inplace",
        "label": "address",
        "numberOfBytes": "20"
      },
      "t_bool": {
        "encoding": "inplace",
        "label": "bool",
        "numberOfBytes": "1"
      },
      "t_mapping(t_address,t_bool)": {
        "encoding": "mapping",
        "key": "t_address",
        "label": "mapping(address => bool)",
        "numberOfBytes": "32",
        "value": "t_bool"
      },
      "t_uint256": {
        "encoding": "inplace",
        "label": "uint256",
        "numberOfBytes": "32"
      }
    }
  }
}