{
  "address": "0x199c66ab7273Fa711F5CCe0fbd92f3Ff4a1f2939",
  "abi": [
    {
      "inputs": [],
      "stateMutability": "nonpayable",
      "type": "constructor"
    },
    {
      "anonymous": false,
      "inputs": [
        {
          "indexed": true,
          "internalType": "address",
          "name": "owner",
          "type": "address"
        },
        {
          "indexed": true,
          "internalType": "address",
          "name": "spender",
          "type": "address"
        },
        {
          "indexed": false,
          "internalType": "uint256",
          "name": "value",
          "type": "uint256"
        }
      ],
      "name": "Approval",
      "type": "event"
    },
    {
      "anonymous": false,
      "inputs": [
        {
          "indexed": true,
          "internalType": "address",
          "name": "previousOwner",
          "type": "address"
        },
        {
          "indexed": true,
          "internalType": "address",
          "name": "newOwner",
          "type": "address"
        }
      ],
      "name": "OwnershipTransferred",
      "type": "event"
    },
    {
      "anonymous": false,
      "inputs": [
        {
          "indexed": true,
          "internalType": "address",
          "name": "from",
          "type": "address"
        },
        {
          "indexed": true,
          "internalType": "address",
          "name": "to",
          "type": "address"
        },
        {
          "indexed": false,
          "internalType": "uint256",
          "name": "value",
          "type": "uint256"
        }
      ],
      "name": "Transfer",
      "type": "event"
    },
    {
      "inputs": [
        {
          "internalType": "address",
          "name": "owner",
          "type": "address"
        },
        {
          "internalType": "address",
          "name": "spender",
          "type": "address"
        }
      ],
      "name": "allowance",
      "outputs": [
        {
          "internalType": "uint256",
          "name": "",
          "type": "uint256"
        }
      ],
      "stateMutability": "view",
      "type": "function"
    },
    {
      "inputs": [
        {
          "internalType": "address",
          "name": "spender",
          "type": "address"
        },
        {
          "internalType": "uint256",
          "name": "amount",
          "type": "uint256"
        }
      ],
      "name": "approve",
      "outputs": [
        {
          "internalType": "bool",
          "name": "",
          "type": "bool"
        }
      ],
      "stateMutability": "nonpayable",
      "type": "function"
    },
    {
      "inputs": [
        {
          "internalType": "address",
          "name": "account",
          "type": "address"
        }
      ],
      "name": "balanceOf",
      "outputs": [
        {
          "internalType": "uint256",
          "name": "",
          "type": "uint256"
        }
      ],
      "stateMutability": "view",
      "type": "function"
    },
    {
      "inputs": [],
      "name": "decimals",
      "outputs": [
        {
          "internalType": "uint8",
          "name": "",
          "type": "uint8"
        }
      ],
      "stateMutability": "view",
      "type": "function"
    },
    {
      "inputs": [
        {
          "internalType": "address",
          "name": "spender",
          "type": "address"
        },
        {
          "internalType": "uint256",
          "name": "subtractedValue",
          "type": "uint256"
        }
      ],
      "name": "decreaseAllowance",
      "outputs": [
        {
          "internalType": "bool",
          "name": "",
          "type": "bool"
        }
      ],
      "stateMutability": "nonpayable",
      "type": "function"
    },
    {
      "inputs": [],
      "name": "faucetLimit",
      "outputs": [
        {
          "internalType": "uint256",
          "name": "",
          "type": "uint256"
        }
      ],
      "stateMutability": "view",
      "type": "function"
    },
    {
      "inputs": [
        {
          "internalType": "uint256",
          "name": "_amount",
          "type": "uint256"
        }
      ],
      "name": "faucetToken",
      "outputs": [],
      "stateMutability": "nonpayable",
      "type": "function"
    },
    {
      "inputs": [
        {
          "internalType": "address",
          "name": "spender",
          "type": "address"
        },
        {
          "internalType": "uint256",
          "name": "addedValue",
          "type": "uint256"
        }
      ],
      "name": "increaseAllowance",
      "outputs": [
        {
          "internalType": "bool",
          "name": "",
          "type": "bool"
        }
      ],
      "stateMutability": "nonpayable",
      "type": "function"
    },
    {
      "inputs": [],
      "name": "name",
      "outputs": [
        {
          "internalType": "string",
          "name": "",
          "type": "string"
        }
      ],
      "stateMutability": "view",
      "type": "function"
    },
    {
      "inputs": [],
      "name": "owner",
      "outputs": [
        {
          "internalType": "address",
          "name": "",
          "type": "address"
        }
      ],
      "stateMutability": "view",
      "type": "function"
    },
    {
      "inputs": [],
      "name": "renounceOwnership",
      "outputs": [],
      "stateMutability": "nonpayable",
      "type": "function"
    },
    {
      "inputs": [],
      "name": "symbol",
      "outputs": [
        {
          "internalType": "string",
          "name": "",
          "type": "string"
        }
      ],
      "stateMutability": "view",
      "type": "function"
    },
    {
      "inputs": [],
      "name": "totalSupply",
      "outputs": [
        {
          "internalType": "uint256",
          "name": "",
          "type": "uint256"
        }
      ],
      "stateMutability": "view",
      "type": "function"
    },
    {
      "inputs": [
        {
          "internalType": "address",
          "name": "recipient",
          "type": "address"
        },
        {
          "internalType": "uint256",
          "name": "amount",
          "type": "uint256"
        }
      ],
      "name": "transfer",
      "outputs": [
        {
          "internalType": "bool",
          "name": "",
          "type": "bool"
        }
      ],
      "stateMutability": "nonpayable",
      "type": "function"
    },
    {
      "inputs": [
        {
          "internalType": "address",
          "name": "sender",
          "type": "address"
        },
        {
          "internalType": "address",
          "name": "recipient",
          "type": "address"
        },
        {
          "internalType": "uint256",
          "name": "amount",
          "type": "uint256"
        }
      ],
      "name": "transferFrom",
      "outputs": [
        {
          "internalType": "bool",
          "name": "",
          "type": "bool"
        }
      ],
      "stateMutability": "nonpayable",
      "type": "function"
    },
    {
      "inputs": [
        {
          "internalType": "address",
          "name": "newOwner",
          "type": "address"
        }
      ],
      "name": "transferOwnership",
      "outputs": [],
      "stateMutability": "nonpayable",
      "type": "function"
    }
  ],
  "transactionHash": "0x33c37d9b786f2449833550ad92be18ccd3dbf7908883e9582b3dc93aeda04f47",
  "args": [],
  "solcInputHash": "d54e8bf4f2a38c5dd8149a924df1425d",
  "bytecode": "0x60806040526b204fce5e3e250261100000006006553480156200002157600080fd5b5060405180604001604052806005815260200164486f72646560d81b81525060405180604001604052806005815260200164484f52444560d81b8152506200007862000072620000c060201b60201c565b620000c4565b81516200008d906004906020850190620001fb565b508051620000a3906005906020840190620001fb565b505050620000ba336006546200011460201b60201c565b62000343565b3390565b600080546001600160a01b038381166001600160a01b0319831681178455604051919092169283917f8be0079c531659141344cd1fd0a4f28419497f9722a3daafe3b4186f6b6457e09190a35050565b6001600160a01b038216620001465760405162461bcd60e51b81526004016200013d90620002a1565b60405180910390fd5b6200015460008383620001f6565b8060036000828254620001689190620002e1565b90915550506001600160a01b0382166000908152600160205260408120805483929062000197908490620002e1565b90915550506040516001600160a01b038316906000907fddf252ad1be2c89b69c2b068fc378daa952ba7f163c4a11628f55a4df523b3ef90620001dc908590620002d8565b60405180910390a3620001f260008383620001f6565b5050565b505050565b828054620002099062000306565b90600052602060002090601f0160209004810192826200022d576000855562000278565b82601f106200024857805160ff191683800117855562000278565b8280016001018555821562000278579182015b82811115620002785782518255916020019190600101906200025b565b50620002869291506200028a565b5090565b5b808211156200028657600081556001016200028b565b6020808252601f908201527f45524332303a206d696e7420746f20746865207a65726f206164647265737300604082015260600190565b90815260200190565b600082198211156200030157634e487b7160e01b81526011600452602481fd5b500190565b6002810460018216806200031b57607f821691505b602082108114156200033d57634e487b7160e01b600052602260045260246000fd5b50919050565b610e6c80620003536000396000f3fe608060405234801561001057600080fd5b50600436106101005760003560e01c8063715018a611610097578063a457c2d711610066578063a457c2d7146101e8578063a9059cbb146101fb578063dd62ed3e1461020e578063f2fde38b1461022157610100565b8063715018a6146101ae5780637f846d46146101b85780638da5cb5b146101cb57806395d89b41146101e057610100565b8063313ce567116100d3578063313ce5671461016b57806339509351146101805780636544e4391461019357806370a082311461019b57610100565b806306fdde0314610105578063095ea7b31461012357806318160ddd1461014357806323b872dd14610158575b600080fd5b61010d610234565b60405161011a9190610a30565b60405180910390f35b6101366101313660046109d0565b6102c6565b60405161011a9190610a25565b61014b6102e3565b60405161011a9190610dc0565b610136610166366004610995565b6102e9565b610173610382565b60405161011a9190610dc9565b61013661018e3660046109d0565b610387565b61014b6103db565b61014b6101a9366004610942565b6103eb565b6101b661040a565b005b6101b66101c63660046109f9565b610455565b6101d36104cc565b60405161011a9190610a11565b61010d6104db565b6101366101f63660046109d0565b6104ea565b6101366102093660046109d0565b610563565b61014b61021c366004610963565b610577565b6101b661022f366004610942565b6105a2565b60606004805461024390610dfb565b80601f016020809104026020016040519081016040528092919081815260200182805461026f90610dfb565b80156102bc5780601f10610291576101008083540402835291602001916102bc565b820191906000526020600020905b81548152906001019060200180831161029f57829003601f168201915b5050505050905090565b60006102da6102d3610610565b8484610614565b50600192915050565b60035490565b60006102f68484846106c8565b6001600160a01b038416600090815260026020526040812081610317610610565b6001600160a01b03166001600160a01b03168152602001908152602001600020549050828110156103635760405162461bcd60e51b815260040161035a90610bf9565b60405180910390fd5b6103778561036f610610565b858403610614565b506001949350505050565b601290565b60006102da610394610610565b8484600260006103a2610610565b6001600160a01b03908116825260208083019390935260409182016000908120918b16815292529020546103d69190610dd7565b610614565b6b019d971e4fe8401e7400000081565b6001600160a01b0381166000908152600160205260409020545b919050565b610412610610565b6001600160a01b03166104236104cc565b6001600160a01b0316146104495760405162461bcd60e51b815260040161035a90610c56565b61045360006107f2565b565b61045d6104cc565b6001600160a01b0316336001600160a01b031614806104a35750336000908152600760205260409020546b019d971e4fe8401e74000000906104a0908390610dd7565b11155b6104bf5760405162461bcd60e51b815260040161035a90610bc2565b6104c9338261085a565b50565b6000546001600160a01b031690565b60606005805461024390610dfb565b600080600260006104f9610610565b6001600160a01b03908116825260208083019390935260409182016000908120918816815292529020549050828110156105455760405162461bcd60e51b815260040161035a90610d2c565b610559610550610610565b85858403610614565b5060019392505050565b60006102da610570610610565b84846106c8565b6001600160a01b03918216600090815260026020908152604080832093909416825291909152205490565b6105aa610610565b6001600160a01b03166105bb6104cc565b6001600160a01b0316146105e15760405162461bcd60e51b815260040161035a90610c56565b6001600160a01b0381166106075760405162461bcd60e51b815260040161035a90610ac6565b6104c9816107f2565b3390565b6001600160a01b03831661063a5760405162461bcd60e51b815260040161035a90610ce8565b6001600160a01b0382166106605760405162461bcd60e51b815260040161035a90610b23565b6001600160a01b0380841660008181526002602090815260408083209487168084529490915290819020849055517f8c5be1e5ebec7d5bd14f71427d1e84f3dd0314c0f7b2291e5b200ac8c7c3b925906106bb908590610dc0565b60405180910390a3505050565b6001600160a01b0383166106ee5760405162461bcd60e51b815260040161035a90610c8b565b6001600160a01b0382166107145760405162461bcd60e51b815260040161035a90610a83565b61071f838383610926565b6001600160a01b038316600090815260016020526040902054818110156107585760405162461bcd60e51b815260040161035a90610b65565b6001600160a01b0380851660009081526001602052604080822085850390559185168152908120805484929061078f908490610dd7565b92505081905550826001600160a01b0316846001600160a01b03167fddf252ad1be2c89b69c2b068fc378daa952ba7f163c4a11628f55a4df523b3ef846040516107d99190610dc0565b60405180910390a36107ec848484610926565b50505050565b600080546001600160a01b038381167fffffffffffffffffffffffff0000000000000000000000000000000000000000831681178455604051919092169283917f8be0079c531659141344cd1fd0a4f28419497f9722a3daafe3b4186f6b6457e09190a35050565b6001600160a01b0382166108805760405162461bcd60e51b815260040161035a90610d89565b61088c60008383610926565b806003600082825461089e9190610dd7565b90915550506001600160a01b038216600090815260016020526040812080548392906108cb908490610dd7565b90915550506040516001600160a01b038316906000907fddf252ad1be2c89b69c2b068fc378daa952ba7f163c4a11628f55a4df523b3ef9061090e908590610dc0565b60405180910390a361092260008383610926565b5050565b505050565b80356001600160a01b038116811461040557600080fd5b600060208284031215610953578081fd5b61095c8261092b565b9392505050565b60008060408385031215610975578081fd5b61097e8361092b565b915061098c6020840161092b565b90509250929050565b6000806000606084860312156109a9578081fd5b6109b28461092b565b92506109c06020850161092b565b9150604084013590509250925092565b600080604083850312156109e2578182fd5b6109eb8361092b565b946020939093013593505050565b600060208284031215610a0a578081fd5b5035919050565b6001600160a01b0391909116815260200190565b901515815260200190565b6000602080835283518082850152825b81811015610a5c57858101830151858201604001528201610a40565b81811115610a6d5783604083870101525b50601f01601f1916929092016040019392505050565b60208082526023908201527f45524332303a207472616e7366657220746f20746865207a65726f206164647260408201526265737360e81b606082015260800190565b60208082526026908201527f4f776e61626c653a206e6577206f776e657220697320746865207a65726f206160408201527f6464726573730000000000000000000000000000000000000000000000000000606082015260800190565b60208082526022908201527f45524332303a20617070726f766520746f20746865207a65726f206164647265604082015261737360f01b606082015260800190565b60208082526026908201527f45524332303a207472616e7366657220616d6f756e742065786365656473206260408201527f616c616e63650000000000000000000000000000000000000000000000000000606082015260800190565b6020808252601d908201527f556e6f3a2046617563657420616d6f756e74206c696d69746174696f6e000000604082015260600190565b60208082526028908201527f45524332303a207472616e7366657220616d6f756e742065786365656473206160408201527f6c6c6f77616e6365000000000000000000000000000000000000000000000000606082015260800190565b6020808252818101527f4f776e61626c653a2063616c6c6572206973206e6f7420746865206f776e6572604082015260600190565b60208082526025908201527f45524332303a207472616e736665722066726f6d20746865207a65726f20616460408201527f6472657373000000000000000000000000000000000000000000000000000000606082015260800190565b60208082526024908201527f45524332303a20617070726f76652066726f6d20746865207a65726f206164646040820152637265737360e01b606082015260800190565b60208082526025908201527f45524332303a2064656372656173656420616c6c6f77616e63652062656c6f7760408201527f207a65726f000000000000000000000000000000000000000000000000000000606082015260800190565b6020808252601f908201527f45524332303a206d696e7420746f20746865207a65726f206164647265737300604082015260600190565b90815260200190565b60ff91909116815260200190565b60008219821115610df657634e487b7160e01b81526011600452602481fd5b500190565b600281046001821680610e0f57607f821691505b60208210811415610e3057634e487b7160e01b600052602260045260246000fd5b5091905056fea2646970667358221220441c3690d63ee62ee7b7a0acc3fb48bf3253929c8cc6d4f2034cf4640268dd2564736f6c63430008000033",
  "devdoc": {
    "kind": "dev",
    "methods": {
      "allowance(address,address)": {
        "details": "See {IERC20-allowance}."
      },
      "approve(address,uint256)": {
        "details": "See {IERC20-approve}. Requirements: - `spender` cannot be the zero address."
      },
      "balanceOf(address)": {
        "details": "See {IERC20-balanceOf}."
      },
      "decimals()": {
        "details": "Returns the number of decimals used to get its user representation. For example, if `decimals` equals `2`, a balance of `505` tokens should be displayed to a user as `5.05` (`505 / 10 ** 2`). Tokens usually opt for a value of 18, imitating the relationship between Ether and Wei. This is the value {ERC20} uses, unless this function is overridden; NOTE: This information is only used for _display_ purposes: it in no way affects any of the arithmetic of the contract, including {IERC20-balanceOf} and {IERC20-transfer}."
      },
      "decreaseAllowance(address,uint256)": {
        "details": "Atomically decreases the allowance granted to `spender` by the caller. This is an alternative to {approve} that can be used as a mitigation for problems described in {IERC20-approve}. Emits an {Approval} event indicating the updated allowance. Requirements: - `spender` cannot be the zero address. - `spender` must have allowance for the caller of at least `subtractedValue`."
      },
      "increaseAllowance(address,uint256)": {
        "details": "Atomically increases the allowance granted to `spender` by the caller. This is an alternative to {approve} that can be used as a mitigation for problems described in {IERC20-approve}. Emits an {Approval} event indicating the updated allowance. Requirements: - `spender` cannot be the zero address."
      },
      "name()": {
        "details": "Returns the name of the token."
      },
      "owner()": {
        "details": "Returns the address of the current owner."
      },
      "renounceOwnership()": {
        "details": "Leaves the contract without owner. It will not be possible to call `onlyOwner` functions anymore. Can only be called by the current owner. NOTE: Renouncing ownership will leave the contract without an owner, thereby removing any functionality that is only available to the owner."
      },
      "symbol()": {
        "details": "Returns the symbol of the token, usually a shorter version of the name."
      },
      "totalSupply()": {
        "details": "See {IERC20-totalSupply}."
      },
      "transfer(address,uint256)": {
        "details": "See {IERC20-transfer}. Requirements: - `recipient` cannot be the zero address. - the caller must have a balance of at least `amount`."
      },
      "transferFrom(address,address,uint256)": {
        "details": "See {IERC20-transferFrom}. Emits an {Approval} event indicating the updated allowance. This is not required by the EIP. See the note at the beginning of {ERC20}. Requirements: - `sender` and `recipient` cannot be the zero address. - `sender` must have a balance of at least `amount`. - the caller must have allowance for ``sender``'s tokens of at least `amount`."
      },
      "transferOwnership(address)": {
        "details": "Transfers ownership of the contract to a new account (`newOwner`). Can only be called by the current owner."
      }
    },
    "version": 1
  },
  "userdoc": {
    "kind": "user",
    "methods": {},
    "notice": "This smart contract",
    "version": 1
  },
  "storageLayout": {
    "storage": [
      {
        "astId": 7,
        "contract": "contracts/Mocks/MockHORDE.sol:MockHORDE",
        "label": "_owner",
        "offset": 0,
        "slot": "0",
        "type": "t_address"
      },
      {
        "astId": 159,
        "contract": "contracts/Mocks/MockHORDE.sol:MockHORDE",
        "label": "_balances",
        "offset": 0,
        "slot": "1",
        "type": "t_mapping(t_address,t_uint256)"
      },
      {
        "astId": 165,
        "contract": "contracts/Mocks/MockHORDE.sol:MockHORDE",
        "label": "_allowances",
        "offset": 0,
        "slot": "2",
        "type": "t_mapping(t_address,t_mapping(t_address,t_uint256))"
      },
      {
        "astId": 167,
        "contract": "contracts/Mocks/MockHORDE.sol:MockHORDE",
        "label": "_totalSupply",
        "offset": 0,
        "slot": "3",
        "type": "t_uint256"
      },
      {
        "astId": 169,
        "contract": "contracts/Mocks/MockHORDE.sol:MockHORDE",
        "label": "_name",
        "offset": 0,
        "slot": "4",
        "type": "t_string_storage"
      },
      {
        "astId": 171,
        "contract": "contracts/Mocks/MockHORDE.sol:MockHORDE",
        "label": "_symbol",
        "offset": 0,
        "slot": "5",
        "type": "t_string_storage"
      },
      {
        "astId": 5163,
        "contract": "contracts/Mocks/MockHORDE.sol:MockHORDE",
        "label": "INITIAL_SUPPLY",
        "offset": 0,
        "slot": "6",
        "type": "t_uint256"
      },
      {
        "astId": 5167,
        "contract": "contracts/Mocks/MockHORDE.sol:MockHORDE",
        "label": "_faucets",
        "offset": 0,
        "slot": "7",
        "type": "t_mapping(t_address,t_uint256)"
      }
    ],
    "types": {
      "t_address": {
        "encoding": "inplace",
        "label": "address",
        "numberOfBytes": "20"
      },
      "t_mapping(t_address,t_mapping(t_address,t_uint256))": {
        "encoding": "mapping",
        "key": "t_address",
        "label": "mapping(address => mapping(address => uint256))",
        "numberOfBytes": "32",
        "value": "t_mapping(t_address,t_uint256)"
      },
      "t_mapping(t_address,t_uint256)": {
        "encoding": "mapping",
        "key": "t_address",
        "label": "mapping(address => uint256)",
        "numberOfBytes": "32",
        "value": "t_uint256"
      },
      "t_string_storage": {
        "encoding": "bytes",
        "label": "string",
        "numberOfBytes": "32"
      },
      "t_uint256": {
        "encoding": "inplace",
        "label": "uint256",
        "numberOfBytes": "32"
      }
    }
  }
}