{
  "address": "0x402003901C87c73D85d8FCf4B98228d1B79faDca",
  "abi": [
    {
      "inputs": [
        {
          "internalType": "address",
          "name": "_claimAssessor",
          "type": "address"
        },
        {
          "internalType": "address",
          "name": "_capitalAgent",
          "type": "address"
        },
        {
          "internalType": "address",
          "name": "_multiSigWallet",
          "type": "address"
        }
      ],
      "stateMutability": "nonpayable",
      "type": "constructor"
    },
    {
      "anonymous": false,
      "inputs": [
        {
          "indexed": true,
          "internalType": "address",
          "name": "_user",
          "type": "address"
        },
        {
          "indexed": true,
          "internalType": "address",
          "name": "_receiver",
          "type": "address"
        },
        {
          "indexed": false,
          "internalType": "uint256",
          "name": "_amount",
          "type": "uint256"
        }
      ],
      "name": "Harvest",
      "type": "event"
    },
    {
      "anonymous": false,
      "inputs": [
        {
          "indexed": true,
          "internalType": "address",
          "name": "_staker",
          "type": "address"
        },
        {
          "indexed": true,
          "internalType": "address",
          "name": "_pool",
          "type": "address"
        },
        {
          "indexed": false,
          "internalType": "uint256",
          "name": "_requestAmount",
          "type": "uint256"
        }
      ],
      "name": "LeftPool",
      "type": "event"
    },
    {
      "anonymous": false,
      "inputs": [
        {
          "indexed": true,
          "internalType": "address",
          "name": "_user",
          "type": "address"
        },
        {
          "indexed": false,
          "internalType": "uint256",
          "name": "_cancelAmount",
          "type": "uint256"
        },
        {
          "indexed": false,
          "internalType": "uint256",
          "name": "_cancelAmountInUno",
          "type": "uint256"
        }
      ],
      "name": "LogCancelWithdrawRequest",
      "type": "event"
    },
    {
      "anonymous": false,
      "inputs": [
        {
          "indexed": true,
          "internalType": "address",
          "name": "_SSIP",
          "type": "address"
        },
        {
          "indexed": true,
          "internalType": "address",
          "name": "_rewarder",
          "type": "address"
        },
        {
          "indexed": false,
          "internalType": "address",
          "name": "_currency",
          "type": "address"
        }
      ],
      "name": "LogCreateRewarder",
      "type": "event"
    },
    {
      "anonymous": false,
      "inputs": [
        {
          "indexed": true,
          "internalType": "address",
          "name": "_SSIP",
          "type": "address"
        },
        {
          "indexed": true,
          "internalType": "address",
          "name": "_syntheticSSIP",
          "type": "address"
        },
        {
          "indexed": true,
          "internalType": "address",
          "name": "_lpToken",
          "type": "address"
        }
      ],
      "name": "LogCreateSyntheticSSIP",
      "type": "event"
    },
    {
      "anonymous": false,
      "inputs": [
        {
          "indexed": true,
          "internalType": "address",
          "name": "_user",
          "type": "address"
        },
        {
          "indexed": true,
          "internalType": "address",
          "name": "_riskPool",
          "type": "address"
        },
        {
          "indexed": false,
          "internalType": "uint256",
          "name": "_withdrawLpAmount",
          "type": "uint256"
        },
        {
          "indexed": false,
          "internalType": "uint256",
          "name": "_withdrawUnoAmount",
          "type": "uint256"
        }
      ],
      "name": "LogLeaveFromPendingSSIP",
      "type": "event"
    },
    {
      "anonymous": false,
      "inputs": [
        {
          "indexed": true,
          "internalType": "address",
          "name": "_from",
          "type": "address"
        },
        {
          "indexed": true,
          "internalType": "address",
          "name": "_to",
          "type": "address"
        },
        {
          "indexed": false,
          "internalType": "uint256",
          "name": "_amount",
          "type": "uint256"
        }
      ],
      "name": "LogLpTransferInSSIP",
      "type": "event"
    },
    {
      "anonymous": false,
      "inputs": [
        {
          "indexed": true,
          "internalType": "address",
          "name": "_user",
          "type": "address"
        },
        {
          "indexed": true,
          "internalType": "address",
          "name": "_migrateTo",
          "type": "address"
        },
        {
          "indexed": false,
          "internalType": "uint256",
          "name": "_migratedAmount",
          "type": "uint256"
        }
      ],
      "name": "LogMigrate",
      "type": "event"
    },
    {
      "anonymous": false,
      "inputs": [
        {
          "indexed": true,
          "internalType": "address",
          "name": "_SSIP",
          "type": "address"
        },
        {
          "indexed": true,
          "internalType": "address",
          "name": "_capitalAgent",
          "type": "address"
        }
      ],
      "name": "LogSetCapitalAgent",
      "type": "event"
    },
    {
      "anonymous": false,
      "inputs": [
        {
          "indexed": true,
          "internalType": "address",
          "name": "_SSIP",
          "type": "address"
        },
        {
          "indexed": true,
          "internalType": "address",
          "name": "_claimAssessor",
          "type": "address"
        }
      ],
      "name": "LogSetClaimAssessor",
      "type": "event"
    },
    {
      "anonymous": false,
      "inputs": [
        {
          "indexed": true,
          "internalType": "address",
          "name": "_SSIP",
          "type": "address"
        },
        {
          "indexed": false,
          "internalType": "uint256",
          "name": "_lockTime",
          "type": "uint256"
        }
      ],
      "name": "LogSetLockTime",
      "type": "event"
    },
    {
      "anonymous": false,
      "inputs": [
        {
          "indexed": true,
          "internalType": "address",
          "name": "_SSIP",
          "type": "address"
        },
        {
          "indexed": true,
          "internalType": "address",
          "name": "_migrateTo",
          "type": "address"
        }
      ],
      "name": "LogSetMigrateTo",
      "type": "event"
    },
    {
      "anonymous": false,
      "inputs": [
        {
          "indexed": true,
          "internalType": "address",
          "name": "_SSIP",
          "type": "address"
        },
        {
          "indexed": false,
          "internalType": "uint256",
          "name": "_minLPCapital",
          "type": "uint256"
        }
      ],
      "name": "LogSetMinLPCapital",
      "type": "event"
    },
    {
      "anonymous": false,
      "inputs": [
        {
          "indexed": true,
          "internalType": "address",
          "name": "_SSIP",
          "type": "address"
        },
        {
          "indexed": false,
          "internalType": "uint256",
          "name": "_rewardPerBlock",
          "type": "uint256"
        }
      ],
      "name": "LogSetRewardMultiplier",
      "type": "event"
    },
    {
      "anonymous": false,
      "inputs": [
        {
          "indexed": true,
          "internalType": "address",
          "name": "_SSIP",
          "type": "address"
        },
        {
          "indexed": false,
          "internalType": "uint256",
          "name": "_startTime",
          "type": "uint256"
        }
      ],
      "name": "LogSetStakingStartTime",
      "type": "event"
    },
    {
      "anonymous": false,
      "inputs": [
        {
          "indexed": false,
          "internalType": "uint128",
          "name": "_lastRewardBlock",
          "type": "uint128"
        },
        {
          "indexed": false,
          "internalType": "uint256",
          "name": "_lpSupply",
          "type": "uint256"
        },
        {
          "indexed": false,
          "internalType": "uint256",
          "name": "_accUnoPerShare",
          "type": "uint256"
        }
      ],
      "name": "LogUpdatePool",
      "type": "event"
    },
    {
      "anonymous": false,
      "inputs": [
        {
          "indexed": true,
          "internalType": "address",
          "name": "previousOwner",
          "type": "address"
        },
        {
          "indexed": true,
          "internalType": "address",
          "name": "newOwner",
          "type": "address"
        }
      ],
      "name": "OwnershipTransferred",
      "type": "event"
    },
    {
      "anonymous": false,
      "inputs": [
        {
          "indexed": true,
          "internalType": "address",
          "name": "_user",
          "type": "address"
        },
        {
          "indexed": false,
          "internalType": "uint256",
          "name": "_claimAmount",
          "type": "uint256"
        }
      ],
      "name": "PolicyClaim",
      "type": "event"
    },
    {
      "anonymous": false,
      "inputs": [
        {
          "indexed": true,
          "internalType": "address",
          "name": "_SSIP",
          "type": "address"
        },
        {
          "indexed": true,
          "internalType": "address",
          "name": "_pool",
          "type": "address"
        }
      ],
      "name": "RiskPoolCreated",
      "type": "event"
    },
    {
      "anonymous": false,
      "inputs": [
        {
          "indexed": true,
          "internalType": "address",
          "name": "_staker",
          "type": "address"
        },
        {
          "indexed": true,
          "internalType": "address",
          "name": "_pool",
          "type": "address"
        },
        {
          "indexed": false,
          "internalType": "uint256",
          "name": "_amount",
          "type": "uint256"
        }
      ],
      "name": "StakedInPool",
      "type": "event"
    },
    {
      "inputs": [],
      "name": "ACC_UNO_PRECISION",
      "outputs": [
        {
          "internalType": "uint256",
          "name": "",
          "type": "uint256"
        }
      ],
      "stateMutability": "view",
      "type": "function"
    },
    {
      "inputs": [],
      "name": "LOCK_TIME",
      "outputs": [
        {
          "internalType": "uint256",
          "name": "",
          "type": "uint256"
        }
      ],
      "stateMutability": "view",
      "type": "function"
    },
    {
      "inputs": [],
      "name": "STAKING_START_TIME",
      "outputs": [
        {
          "internalType": "uint256",
          "name": "",
          "type": "uint256"
        }
      ],
      "stateMutability": "view",
      "type": "function"
    },
    {
      "inputs": [],
      "name": "cancelWithdrawRequest",
      "outputs": [],
      "stateMutability": "nonpayable",
      "type": "function"
    },
    {
      "inputs": [],
      "name": "capitalAgent",
      "outputs": [
        {
          "internalType": "address",
          "name": "",
          "type": "address"
        }
      ],
      "stateMutability": "view",
      "type": "function"
    },
    {
      "inputs": [],
      "name": "claimAssessor",
      "outputs": [
        {
          "internalType": "address",
          "name": "",
          "type": "address"
        }
      ],
      "stateMutability": "view",
      "type": "function"
    },
    {
      "inputs": [
        {
          "internalType": "address",
          "name": "_operator",
          "type": "address"
        },
        {
          "internalType": "address",
          "name": "_factory",
          "type": "address"
        },
        {
          "internalType": "address",
          "name": "_currency",
          "type": "address"
        }
      ],
      "name": "createRewarder",
      "outputs": [],
      "stateMutability": "nonpayable",
      "type": "function"
    },
    {
      "inputs": [
        {
          "internalType": "string",
          "name": "_name",
          "type": "string"
        },
        {
          "internalType": "string",
          "name": "_symbol",
          "type": "string"
        },
        {
          "internalType": "address",
          "name": "_factory",
          "type": "address"
        },
        {
          "internalType": "address",
          "name": "_currency",
          "type": "address"
        },
        {
          "internalType": "uint256",
          "name": "_rewardMultiplier",
          "type": "uint256"
        },
        {
          "internalType": "uint256",
          "name": "_SCR",
          "type": "uint256"
        }
      ],
      "name": "createRiskPool",
      "outputs": [],
      "stateMutability": "nonpayable",
      "type": "function"
    },
    {
      "inputs": [
        {
          "internalType": "address",
          "name": "_multiSigWallet",
          "type": "address"
        },
        {
          "internalType": "address",
          "name": "_factory",
          "type": "address"
        }
      ],
      "name": "createSyntheticSSIP",
      "outputs": [],
      "stateMutability": "nonpayable",
      "type": "function"
    },
    {
      "inputs": [
        {
          "internalType": "address",
          "name": "_behalf",
          "type": "address"
        },
        {
          "internalType": "uint256",
          "name": "_amount",
          "type": "uint256"
        }
      ],
      "name": "enterInPool",
      "outputs": [],
      "stateMutability": "payable",
      "type": "function"
    },
    {
      "inputs": [
        {
          "internalType": "address",
          "name": "_to",
          "type": "address"
        }
      ],
      "name": "getStakedAmountPerUser",
      "outputs": [
        {
          "internalType": "uint256",
          "name": "unoAmount",
          "type": "uint256"
        },
        {
          "internalType": "uint256",
          "name": "lpAmount",
          "type": "uint256"
        }
      ],
      "stateMutability": "view",
      "type": "function"
    },
    {
      "inputs": [],
      "name": "getTotalWithdrawPendingAmount",
      "outputs": [
        {
          "internalType": "uint256",
          "name": "",
          "type": "uint256"
        }
      ],
      "stateMutability": "view",
      "type": "function"
    },
    {
      "inputs": [
        {
          "internalType": "address",
          "name": "_user",
          "type": "address"
        }
      ],
      "name": "getWithdrawRequestPerUser",
      "outputs": [
        {
          "internalType": "uint256",
          "name": "pendingAmount",
          "type": "uint256"
        },
        {
          "internalType": "uint256",
          "name": "pendingAmountInUno",
          "type": "uint256"
        },
        {
          "internalType": "uint256",
          "name": "originUnoAmount",
          "type": "uint256"
        },
        {
          "internalType": "uint256",
          "name": "requestTime",
          "type": "uint256"
        }
      ],
      "stateMutability": "view",
      "type": "function"
    },
    {
      "inputs": [
        {
          "internalType": "address",
          "name": "_to",
          "type": "address"
        }
      ],
      "name": "harvest",
      "outputs": [],
      "stateMutability": "nonpayable",
      "type": "function"
    },
    {
      "inputs": [],
      "name": "leaveFromPending",
      "outputs": [],
      "stateMutability": "nonpayable",
      "type": "function"
    },
    {
      "inputs": [
        {
          "internalType": "uint256",
          "name": "_amount",
          "type": "uint256"
        }
      ],
      "name": "leaveFromPoolInPending",
      "outputs": [],
      "stateMutability": "nonpayable",
      "type": "function"
    },
    {
      "inputs": [
        {
          "internalType": "address",
          "name": "_from",
          "type": "address"
        },
        {
          "internalType": "address",
          "name": "_to",
          "type": "address"
        },
        {
          "internalType": "uint256",
          "name": "_amount",
          "type": "uint256"
        }
      ],
      "name": "lpTransfer",
      "outputs": [],
      "stateMutability": "nonpayable",
      "type": "function"
    },
    {
      "inputs": [],
      "name": "migrate",
      "outputs": [],
      "stateMutability": "nonpayable",
      "type": "function"
    },
    {
      "inputs": [],
      "name": "migrateTo",
      "outputs": [
        {
          "internalType": "address",
          "name": "",
          "type": "address"
        }
      ],
      "stateMutability": "view",
      "type": "function"
    },
    {
      "inputs": [],
      "name": "owner",
      "outputs": [
        {
          "internalType": "address",
          "name": "",
          "type": "address"
        }
      ],
      "stateMutability": "view",
      "type": "function"
    },
    {
      "inputs": [
        {
          "internalType": "address",
          "name": "_to",
          "type": "address"
        }
      ],
      "name": "pendingUno",
      "outputs": [
        {
          "internalType": "uint256",
          "name": "pending",
          "type": "uint256"
        }
      ],
      "stateMutability": "view",
      "type": "function"
    },
    {
      "inputs": [
        {
          "internalType": "address",
          "name": "_to",
          "type": "address"
        },
        {
          "internalType": "uint256",
          "name": "_amount",
          "type": "uint256"
        },
        {
          "internalType": "uint256",
          "name": "_policyId",
          "type": "uint256"
        },
        {
          "internalType": "bool",
          "name": "_isFinished",
          "type": "bool"
        }
      ],
      "name": "policyClaim",
      "outputs": [],
      "stateMutability": "nonpayable",
      "type": "function"
    },
    {
      "inputs": [],
      "name": "poolInfo",
      "outputs": [
        {
          "internalType": "uint128",
          "name": "lastRewardBlock",
          "type": "uint128"
        },
        {
          "internalType": "uint128",
          "name": "accUnoPerShare",
          "type": "uint128"
        },
        {
          "internalType": "uint256",
          "name": "unoMultiplierPerBlock",
          "type": "uint256"
        }
      ],
      "stateMutability": "view",
      "type": "function"
    },
    {
      "inputs": [],
      "name": "renounceOwnership",
      "outputs": [],
      "stateMutability": "nonpayable",
      "type": "function"
    },
    {
      "inputs": [],
      "name": "rewarder",
      "outputs": [
        {
          "internalType": "address",
          "name": "",
          "type": "address"
        }
      ],
      "stateMutability": "view",
      "type": "function"
    },
    {
      "inputs": [],
      "name": "riskPool",
      "outputs": [
        {
          "internalType": "address",
          "name": "",
          "type": "address"
        }
      ],
      "stateMutability": "view",
      "type": "function"
    },
    {
      "inputs": [
        {
          "internalType": "address",
          "name": "_capitalAgent",
          "type": "address"
        }
      ],
      "name": "setCapitalAgent",
      "outputs": [],
      "stateMutability": "nonpayable",
      "type": "function"
    },
    {
      "inputs": [
        {
          "internalType": "address",
          "name": "_claimAssessor",
          "type": "address"
        }
      ],
      "name": "setClaimAssessor",
      "outputs": [],
      "stateMutability": "nonpayable",
      "type": "function"
    },
    {
      "inputs": [
        {
          "internalType": "uint256",
          "name": "_lockTime",
          "type": "uint256"
        }
      ],
      "name": "setLockTime",
      "outputs": [],
      "stateMutability": "nonpayable",
      "type": "function"
    },
    {
      "inputs": [
        {
          "internalType": "address",
          "name": "_migrateTo",
          "type": "address"
        }
      ],
      "name": "setMigrateTo",
      "outputs": [],
      "stateMutability": "nonpayable",
      "type": "function"
    },
    {
      "inputs": [
        {
          "internalType": "uint256",
          "name": "_minLPCapital",
          "type": "uint256"
        }
      ],
      "name": "setMinLPCapital",
      "outputs": [],
      "stateMutability": "nonpayable",
      "type": "function"
    },
    {
      "inputs": [
        {
          "internalType": "uint256",
          "name": "_rewardMultiplier",
          "type": "uint256"
        }
      ],
      "name": "setRewardMultiplier",
      "outputs": [],
      "stateMutability": "nonpayable",
      "type": "function"
    },
    {
      "inputs": [
        {
          "internalType": "uint256",
          "name": "_startTime",
          "type": "uint256"
        }
      ],
      "name": "setStakingStartTime",
      "outputs": [],
      "stateMutability": "nonpayable",
      "type": "function"
    },
    {
      "inputs": [],
      "name": "syntheticSSIP",
      "outputs": [
        {
          "internalType": "address",
          "name": "",
          "type": "address"
        }
      ],
      "stateMutability": "view",
      "type": "function"
    },
    {
      "inputs": [
        {
          "internalType": "address",
          "name": "newOwner",
          "type": "address"
        }
      ],
      "name": "transferOwnership",
      "outputs": [],
      "stateMutability": "nonpayable",
      "type": "function"
    },
    {
      "inputs": [],
      "name": "updatePool",
      "outputs": [],
      "stateMutability": "nonpayable",
      "type": "function"
    },
    {
      "inputs": [
        {
          "internalType": "address",
          "name": "",
          "type": "address"
        }
      ],
      "name": "userInfo",
      "outputs": [
        {
          "internalType": "uint256",
          "name": "lastWithdrawTime",
          "type": "uint256"
        },
        {
          "internalType": "uint256",
          "name": "rewardDebt",
          "type": "uint256"
        },
        {
          "internalType": "uint256",
          "name": "amount",
          "type": "uint256"
        }
      ],
      "stateMutability": "view",
      "type": "function"
    }
  ],
  "transactionHash": "0xa5e5b8ac54cf74f44fe0000044d797e03403efdfae4adbd865d12ea6f2c24b8b",
  "args": [
    "0x5569BDF4e02cec3fE459796e3d0e741616029fA4",
    "0x0000000000000000000000000000000000000000",
    "0x5569BDF4e02cec3fE459796e3d0e741616029fA4"
  ],
  "solcInputHash": "89e3648c4116245b0f6c17de8c12c8f8",
  "bytecode": "0x6080604052620d2f006006553480156200001857600080fd5b5060405162003d0838038062003d088339810160408190526200003b91620001f2565b6001600055620000546200004e620000f3565b620000f7565b6001600160a01b038316620000865760405162461bcd60e51b81526004016200007d90620002f8565b60405180910390fd5b6001600160a01b038116620000af5760405162461bcd60e51b81526004016200007d9062000281565b600280546001600160a01b038086166001600160a01b0319928316179092556004805492851692909116919091179055620000ea8162000149565b50505062000339565b3390565b600180546001600160a01b038381166001600160a01b0319831681179093556040519116919082907f8be0079c531659141344cd1fd0a4f28419497f9722a3daafe3b4186f6b6457e090600090a35050565b62000153620000f3565b6001600160a01b031662000166620001c6565b6001600160a01b0316146200018f5760405162461bcd60e51b81526004016200007d90620002c3565b6001600160a01b038116620001b85760405162461bcd60e51b81526004016200007d906200023b565b620001c381620000f7565b50565b6001546001600160a01b031690565b80516001600160a01b0381168114620001ed57600080fd5b919050565b60008060006060848603121562000207578283fd5b6200021284620001d5565b92506200022260208501620001d5565b91506200023260408501620001d5565b90509250925092565b60208082526026908201527f4f776e61626c653a206e6577206f776e657220697320746865207a65726f206160408201526564647265737360d01b606082015260800190565b60208082526022908201527f556e6f52653a207a65726f206d756c746973696777616c6c6574206164647265604082015261737360f01b606082015260800190565b6020808252818101527f4f776e61626c653a2063616c6c6572206973206e6f7420746865206f776e6572604082015260600190565b60208082526021908201527f556e6f52653a207a65726f20636c61696d4173736573736f72206164647265736040820152607360f81b606082015260800190565b6139bf80620003496000396000f3fe60806040526004361061026a5760003560e01c806393b6b86c11610153578063c4e5dacf116100cb578063dcc3e06e1161007f578063e19e716811610064578063e19e71681461065e578063e3161ddd14610673578063f2fde38b146106885761026a565b8063dcc3e06e14610629578063e08c5de11461063e5761026a565b8063c6e89915116100b0578063c6e89915146105ea578063cd87c83c146105ff578063dba6f962146106145761026a565b8063c4e5dacf146105c2578063c524e479146105d75761026a565b8063af16d6e011610122578063bc8f882811610107578063bc8f88281461056d578063c2eb8eb914610582578063c3dcfcf1146105a25761026a565b8063af16d6e01461051f578063ba6194571461053f5761026a565b806393b6b86c146104b557806398c6e760146104d5578063a3bdd632146104ea578063ae04d45d146104ff5761026a565b80635d90bad9116101e65780638395206c116101b55780638da5cb5b1161019a5780638da5cb5b1461045b5780638fd3ab80146104705780639336f406146104855761026a565b80638395206c1461042657806389919b71146104465761026a565b80635d90bad9146103b1578063715018a6146103d1578063736ec05c146103e6578063780d115e146104065761026a565b80631959a0021161023d578063413d9c3a11610222578063413d9c3a14610349578063421981601461036b5780635a2f3d091461038d5761026a565b80631959a002146102f15780631b600ca2146103295761026a565b80630bd075a11461026f5780630e5c011e146102915780630e9ae420146102b1578063157f71ed146102d1575b600080fd5b34801561027b57600080fd5b5061028f61028a366004613007565b6106a8565b005b34801561029d57600080fd5b5061028f6102ac366004612dd2565b610752565b3480156102bd57600080fd5b5061028f6102cc366004612e93565b6107ad565b3480156102dd57600080fd5b5061028f6102ec366004612dd2565b610aa5565b3480156102fd57600080fd5b5061031161030c366004612dd2565b610b56565b60405161032093929190613886565b60405180910390f35b34801561033557600080fd5b5061028f610344366004612e11565b610b77565b34801561035557600080fd5b5061035e610d33565b6040516103209190613857565b34801561037757600080fd5b50610380610d39565b60405161032091906130ea565b34801561039957600080fd5b506103a2610d48565b60405161032093929190613810565b3480156103bd57600080fd5b5061028f6103cc366004613007565b610d66565b3480156103dd57600080fd5b5061028f610de5565b3480156103f257600080fd5b5061028f610401366004612dd2565b610e30565b34801561041257600080fd5b5061028f610421366004612efe565b610ee1565b34801561043257600080fd5b5061028f610441366004613007565b6110d3565b34801561045257600080fd5b5061035e6113ed565b34801561046757600080fd5b506103806113f9565b34801561047c57600080fd5b5061028f611408565b34801561049157600080fd5b506104a56104a0366004612dd2565b61164f565b604051610320949392919061389c565b3480156104c157600080fd5b5061028f6104d0366004613007565b61178d565b3480156104e157600080fd5b50610380611887565b3480156104f657600080fd5b5061035e611896565b34801561050b57600080fd5b5061028f61051a366004613007565b611918565b34801561052b57600080fd5b5061028f61053a366004612e49565b6119ae565b34801561054b57600080fd5b5061055f61055a366004612dd2565b611b48565b604051610320929190613878565b34801561057957600080fd5b5061028f611c03565b34801561058e57600080fd5b5061028f61059d366004612dd2565b611f13565b3480156105ae57600080fd5b5061028f6105bd366004612f63565b611fc4565b3480156105ce57600080fd5b5061038061218c565b61028f6105e5366004612ed3565b61219b565b3480156105f657600080fd5b5061038061256e565b34801561060b57600080fd5b5061038061257d565b34801561062057600080fd5b5061035e61258c565b34801561063557600080fd5b50610380612592565b34801561064a57600080fd5b5061035e610659366004612dd2565b6125a1565b34801561066a57600080fd5b5061028f61270b565b34801561067f57600080fd5b5061028f612806565b34801561069457600080fd5b5061028f6106a3366004612dd2565b61299b565b6106b0612a0c565b6001600160a01b03166106c16113f9565b6001600160a01b0316146106f05760405162461bcd60e51b81526004016106e790613627565b60405180910390fd5b600081116107105760405162461bcd60e51b81526004016106e790613471565b600c81905560405130907fbd1dd13c6a5b4a28ebd27fdcb8fdd01aba6bbb9f67599306248f465bcdf9817f90610747908490613857565b60405180910390a250565b6007544210156107745760405162461bcd60e51b81526004016106e790613736565b600260005414156107975760405162461bcd60e51b81526004016106e79061376d565b60026000556107a581612a10565b506001600055565b600260005414156107d05760405162461bcd60e51b81526004016106e79061376d565b60026000556009546001600160a01b031633146107ff5760405162461bcd60e51b81526004016106e7906137db565b6005546001600160a01b0384811691161480159061082b57506005546001600160a01b03838116911614155b15610a9b5761083983612a10565b6001600160a01b038084166000908152600a6020526040808220600201546009549151631665744b60e11b815290939190911690632ccae896906108819088906004016130ea565b60606040518083038186803b15801561089957600080fd5b505afa1580156108ad573d6000803e3d6000fd5b505050506040513d601f19601f820116820180604052508101906108d1919061305a565b505090508281836108e29190613939565b10156109005760405162461bcd60e51b81526004016106e7906133ce565b600b54600090670de0b6b3a76400009061092a90600160801b90046001600160801b03168561391a565b61093491906138fa565b600b54909150670de0b6b3a76400009061095e90600160801b90046001600160801b03168661391a565b61096891906138fa565b6109729082613939565b6001600160a01b0387166000908152600a60205260409020600101556109988484613939565b6001600160a01b0387166000908152600a6020526040902060020155600b54670de0b6b3a7640000906109db90600160801b90046001600160801b03168661391a565b6109e591906138fa565b6001600160a01b0386166000908152600a6020526040902060010154610a0b91906138e2565b6001600160a01b0386166000908152600a60205260409020600181019190915560020154610a3a9085906138e2565b6001600160a01b038087166000818152600a602052604090819020600201939093559151908816907fabc254a3e8b16a8605ce22e693a6e493e375434011c1a7ff082d09e2a84ad12190610a8f908890613857565b60405180910390a35050505b5050600160005550565b610aad612a0c565b6001600160a01b0316610abe6113f9565b6001600160a01b031614610ae45760405162461bcd60e51b81526004016106e790613627565b6001600160a01b038116610b0a5760405162461bcd60e51b81526004016106e79061326f565b600280546001600160a01b0319166001600160a01b03831690811790915560405130907f073f9d6137d7fa6d64859eb388090b7e90a768c36e707e4404e1fa6485b5c91e90600090a350565b600a6020526000908152604090208054600182015460029092015490919083565b610b7f612a0c565b6001600160a01b0316610b906113f9565b6001600160a01b031614610bb65760405162461bcd60e51b81526004016106e790613627565b60026000541415610bd95760405162461bcd60e51b81526004016106e79061376d565b60026000556001600160a01b038216610c045760405162461bcd60e51b81526004016106e79061354d565b6001600160a01b038116610c2a5760405162461bcd60e51b81526004016106e7906132a6565b6009546001600160a01b0316610c525760405162461bcd60e51b81526004016106e790613516565b600954604051631a8a8b3b60e11b81526001600160a01b0380841692633515167692610c8492879216906004016130fe565b602060405180830381600087803b158015610c9e57600080fd5b505af1158015610cb2573d6000803e3d6000fd5b505050506040513d601f19601f82011682018060405250810190610cd69190612df5565b600580546001600160a01b0319166001600160a01b03928316179081905560095460405190831692919091169030907e1129b9865226cebad4acf884618ae0607fff06758062b050509602db7065f090600090a450506001600055565b60065481565b6004546001600160a01b031681565b600b54600c546001600160801b0380831692600160801b9004169083565b610d6e612a0c565b6001600160a01b0316610d7f6113f9565b6001600160a01b031614610da55760405162461bcd60e51b81526004016106e790613627565b610daf42826138e2565b600781905560405130917fa8aa08cc14eef7b97ab4cd52f37082e23f7526bccc98cf91e6a1d412494b9051916107479190613857565b610ded612a0c565b6001600160a01b0316610dfe6113f9565b6001600160a01b031614610e245760405162461bcd60e51b81526004016106e790613627565b610e2e6000612ba2565b565b610e38612a0c565b6001600160a01b0316610e496113f9565b6001600160a01b031614610e6f5760405162461bcd60e51b81526004016106e790613627565b6001600160a01b038116610e955760405162461bcd60e51b81526004016106e79061326f565b600380546001600160a01b0319166001600160a01b03831690811790915560405130907f877238238dbd7134e89b00809ea73fabb50da117ace807a6b31c733bbf55d36990600090a350565b6002546001600160a01b03163314610f0b5760405162461bcd60e51b81526004016106e790613693565b600754421015610f2d5760405162461bcd60e51b81526004016106e790613736565b60026000541415610f505760405162461bcd60e51b81526004016106e79061376d565b60026000556001600160a01b038416610f7b5760405162461bcd60e51b81526004016106e79061326f565b60008311610f9b5760405162461bcd60e51b81526004016106e7906134df565b60095460405163172500a160e11b81526000916001600160a01b031690632e4a014290610fce9088908890600401613183565b602060405180830381600087803b158015610fe857600080fd5b505af1158015610ffc573d6000803e3d6000fd5b505050506040513d601f19601f82011682018060405250810190611020919061301f565b6004805460405163fb6cb84760e01b81529293506001600160a01b03169163fb6cb847916110549185918891889101613860565b600060405180830381600087803b15801561106e57600080fd5b505af1158015611082573d6000803e3d6000fd5b50505050846001600160a01b03167f6420c9536b9a539410a930b1fd8d115dc296d8b71426dcc0ab64f2f736b7d59f826040516110bf9190613857565b60405180910390a250506001600055505050565b6007544210156110f55760405162461bcd60e51b81526004016106e790613736565b600260005414156111185760405162461bcd60e51b81526004016106e79061376d565b600260005561112633612a10565b6004805460405163c139b04f60e01b81526001600160a01b039091169163c139b04f91611157913091869101613183565b60206040518083038186803b15801561116f57600080fd5b505afa158015611183573d6000803e3d6000fd5b505050506040513d601f19601f820116820180604052508101906111a79190612f47565b6111c35760405162461bcd60e51b81526004016106e790613584565b336000908152600a60209081526040808320600201546009548251627a9fd960e91b815292519194936001600160a01b039091169263f53fb2009260048083019392829003018186803b15801561121957600080fd5b505afa15801561122d573d6000803e3d6000fd5b505050506040513d601f19601f82011682018060405250810190611251919061301f565b600954604051631665744b60e11b81529192506000916001600160a01b0390911690632ccae896906112879033906004016130ea565b60606040518083038186803b15801561129f57600080fd5b505afa1580156112b3573d6000803e3d6000fd5b505050506040513d601f19601f820116820180604052508101906112d7919061305a565b505090508184670de0b6b3a76400006112f0919061391a565b6112fa91906138fa565b6113048285613939565b10156113225760405162461bcd60e51b81526004016106e7906132dd565b6009546040516323de6d9560e11b81526001600160a01b03909116906347bcdb2a906113549033908890600401613183565b600060405180830381600087803b15801561136e57600080fd5b505af1158015611382573d6000803e3d6000fd5b5050336000818152600a60205260409081902042905560095490516001600160a01b0390911693509091507f940a14c75c418e7230a2e65567722d2dda5a6713cf71b369bd0fa219fdc1ac5e906113da908890613857565b60405180910390a3505060016000555050565b670de0b6b3a764000081565b6001546001600160a01b031690565b6002600054141561142b5760405162461bcd60e51b81526004016106e79061376d565b60026000556003546001600160a01b03166114585760405162461bcd60e51b81526004016106e79061326f565b61146133612a10565b600654336000908152600a60205260408120549091906114819042613939565b600954600354604051633613302f60e01b81529390921193506000926001600160a01b0391821692633613302f926114c392339290911690879060040161313b565b602060405180830381600087803b1580156114dd57600080fd5b505af11580156114f1573d6000803e3d6000fd5b505050506040513d601f19601f82011682018060405250810190611515919061301f565b6004805460405163fb6cb84760e01b81529293506001600160a01b03169163fb6cb8479161154a918591600091829101613860565b600060405180830381600087803b15801561156457600080fd5b505af1158015611578573d6000803e3d6000fd5b505060035460405163ed59344b60e01b81526001600160a01b03909116925063ed59344b91506115ae903390859060040161319c565b600060405180830381600087803b1580156115c857600080fd5b505af11580156115dc573d6000803e3d6000fd5b5050336000818152600a6020526040808220600281018390556001019190915560035490516001600160a01b0390911693509091507ff0fee1f70845d356d6a3e0baa0944ce846437b6469ea89416dad2cd7067919a49061163e908590613857565b60405180910390a350506001600055565b6000806000806000600960009054906101000a90046001600160a01b03166001600160a01b031663f53fb2006040518163ffffffff1660e01b815260040160206040518083038186803b1580156116a557600080fd5b505afa1580156116b9573d6000803e3d6000fd5b505050506040513d601f19601f820116820180604052508101906116dd919061301f565b600954604051631665744b60e11b81529192506001600160a01b031690632ccae8969061170e9089906004016130ea565b60606040518083038186803b15801561172657600080fd5b505afa15801561173a573d6000803e3d6000fd5b505050506040513d601f19601f8201168201806040525081019061175e919061305a565b9196509093509150670de0b6b3a7640000611779828761391a565b61178391906138fa565b9350509193509193565b611795612a0c565b6001600160a01b03166117a66113f9565b6001600160a01b0316146117cc5760405162461bcd60e51b81526004016106e790613627565b600081116117ec5760405162461bcd60e51b81526004016106e7906137a4565b6009546040516324edae1b60e21b81526001600160a01b03909116906393b6b86c9061181c908490600401613857565b600060405180830381600087803b15801561183657600080fd5b505af115801561184a573d6000803e3d6000fd5b50505050306001600160a01b03167f353ac2778fe09bc60cf3070bb11d548faf4037e4217a06977c16463087474aab826040516107479190613857565b6003546001600160a01b031681565b6009546040805163e95aa8d360e01b815290516000926001600160a01b03169163e95aa8d3916004808301926020929190829003018186803b1580156118db57600080fd5b505afa1580156118ef573d6000803e3d6000fd5b505050506040513d601f19601f82011682018060405250810190611913919061301f565b905090565b611920612a0c565b6001600160a01b03166119316113f9565b6001600160a01b0316146119575760405162461bcd60e51b81526004016106e790613627565b600081116119775760405162461bcd60e51b81526004016106e7906135b9565b600681905560405130907f2c2c43c64e937ae35257af782c222986dc5adb4f56dc0881594e79bf83658d8c90610747908490613857565b6119b6612a0c565b6001600160a01b03166119c76113f9565b6001600160a01b0316146119ed5760405162461bcd60e51b81526004016106e790613627565b60026000541415611a105760405162461bcd60e51b81526004016106e79061376d565b60026000556001600160a01b038216611a3b5760405162461bcd60e51b81526004016106e7906136ca565b6001600160a01b038316611a615760405162461bcd60e51b81526004016106e7906134a8565b6040516369ee745160e01b81526001600160a01b038316906369ee745190611a9190869085903090600401613118565b602060405180830381600087803b158015611aab57600080fd5b505af1158015611abf573d6000803e3d6000fd5b505050506040513d601f19601f82011682018060405250810190611ae39190612df5565b600880546001600160a01b0319166001600160a01b03928316179081905560405191169030907f6c409a36847a0a3870deae25f656f4300d45957d2643fc27faab145e19cfcf1b90611b369085906130ea565b60405180910390a35050600160005550565b6001600160a01b038082166000908152600a60209081526040808320600201546009548251627a9fd960e91b81529251949591948694919092169263f53fb2009260048083019392829003018186803b158015611ba457600080fd5b505afa158015611bb8573d6000803e3d6000fd5b505050506040513d601f19601f82011682018060405250810190611bdc919061301f565b9050670de0b6b3a7640000611bf1828461391a565b611bfb91906138fa565b925050915091565b600754421015611c255760405162461bcd60e51b81526004016106e790613736565b60026000541415611c485760405162461bcd60e51b81526004016106e79061376d565b60026000908155600654338252600a602052604090912054611c6a9042613939565b1015611c885760405162461bcd60e51b81526004016106e79061343a565b611c9133612a10565b336000818152600a6020526040808220600201546009549151631665744b60e11b815290936001600160a01b0390921691632ccae89691611cd591906004016130ea565b60606040518083038186803b158015611ced57600080fd5b505afa158015611d01573d6000803e3d6000fd5b505050506040513d601f19601f82011682018060405250810190611d25919061305a565b5050600b54909150600090670de0b6b3a764000090611d5490600160801b90046001600160801b03168561391a565b611d5e91906138fa565b600b54909150670de0b6b3a764000090611d8890600160801b90046001600160801b03168461391a565b611d9291906138fa565b611d9c9082613939565b336000818152600a602052604080822060010193909355600954925163b20ecd1560e01b8152909283926001600160a01b039091169163b20ecd1591611de4916004016130ea565b6040805180830381600087803b158015611dfd57600080fd5b505af1158015611e11573d6000803e3d6000fd5b505050506040513d601f19601f82011682018060405250810190611e359190613037565b9092509050611e448286613939565b336000908152600a60205260409081902060020191909155600480549151632da26abb60e11b81526001600160a01b0390921691635b44d57691611e8a91859101613857565b600060405180830381600087803b158015611ea457600080fd5b505af1158015611eb8573d6000803e3d6000fd5b50506009546040516001600160a01b0390911692503391507fced2424eb51507abd1611ac0d9893e5bc6b6d0a0596b53f86d24d31fc75a5d6090611eff9086908690613878565b60405180910390a350506001600055505050565b611f1b612a0c565b6001600160a01b0316611f2c6113f9565b6001600160a01b031614611f525760405162461bcd60e51b81526004016106e790613627565b6001600160a01b038116611f785760405162461bcd60e51b81526004016106e79061326f565b600480546001600160a01b0319166001600160a01b03831690811790915560405130907fdf8e7a62b39a2ec070924d5c5dce9a1957d75476af59af5a7e7ce2ee48bc777490600090a350565b611fcc612a0c565b6001600160a01b0316611fdd6113f9565b6001600160a01b0316146120035760405162461bcd60e51b81526004016106e790613627565b600260005414156120265760405162461bcd60e51b81526004016106e79061376d565b60026000556009546001600160a01b0316156120545760405162461bcd60e51b81526004016106e790613405565b6001600160a01b03841661207a5760405162461bcd60e51b81526004016106e7906135f0565b604051630d98e31f60e01b81526001600160a01b03851690630d98e31f906120b0908b908b908b908b9030908b906004016131c4565b602060405180830381600087803b1580156120ca57600080fd5b505af11580156120de573d6000803e3d6000fd5b505050506040513d601f19601f820116820180604052508101906121029190612df5565b600980546001600160a01b0319166001600160a01b039283161790819055600b80546fffffffffffffffffffffffffffffffff1916436001600160801b0390811691909117169055600c84905560405191169030907f184d7691bf4a73930a21086fa1bdf0ee3075421531a60730288325fd5838021790600090a350506001600055505050505050565b6009546001600160a01b031681565b6007544210156121bd5760405162461bcd60e51b81526004016106e790613736565b600260005414156121e05760405162461bcd60e51b81526004016106e79061376d565b6002600055806122025760405162461bcd60e51b81526004016106e79061365c565b61220a612806565b6009546040805163e5a6b10f60e01b815290516000926001600160a01b03169163e5a6b10f916004808301926020929190829003018186803b15801561224f57600080fd5b505afa158015612263573d6000803e3d6000fd5b505050506040513d601f19601f820116820180604052508101906122879190612df5565b90506000600960009054906101000a90046001600160a01b03166001600160a01b031663f53fb2006040518163ffffffff1660e01b815260040160206040518083038186803b1580156122d957600080fd5b505afa1580156122ed573d6000803e3d6000fd5b505050506040513d601f19601f82011682018060405250810190612311919061301f565b90506001600160a01b03821661237757823410156123415760405162461bcd60e51b81526004016106e7906136ff565b8234111561235c5761235c336123578534613939565b612bf4565b600954612372906001600160a01b031684612bf4565b612391565b60095461239190839033906001600160a01b031686612c86565b600954604051637e348b7d60e01b81526001600160a01b0390911690637e348b7d906123c39087908790600401613183565b600060405180830381600087803b1580156123dd57600080fd5b505af11580156123f1573d6000803e3d6000fd5b5050600b54670de0b6b3a76400009250839150600160801b90046001600160801b031661241e868461391a565b612428919061391a565b61243291906138fa565b61243c91906138fa565b6001600160a01b0385166000908152600a6020526040812060010180549091906124679084906138e2565b9091555081905061248084670de0b6b3a764000061391a565b61248a91906138fa565b6001600160a01b0385166000908152600a60205260409020600201546124b091906138e2565b6001600160a01b038086166000908152600a60205260409081902060020192909255600480549251638be5a39f60e01b81529290911691638be5a39f916124f991879101613857565b600060405180830381600087803b15801561251357600080fd5b505af1158015612527573d6000803e3d6000fd5b50506009546040516001600160a01b03918216935090871691507fd3dba7b5565b16b7749db7d1938410a636e3c7a6ea46ed8ce7e259e19f2f3b9f906113da908790613857565b6002546001600160a01b031681565b6005546001600160a01b031681565b60075481565b6008546001600160a01b031681565b600080600960009054906101000a90046001600160a01b03166001600160a01b03166318160ddd6040518163ffffffff1660e01b815260040160206040518083038186803b1580156125f257600080fd5b505afa158015612606573d6000803e3d6000fd5b505050506040513d601f19601f8201168201806040525081019061262a919061301f565b600b549091506001600160801b03600160801b8204811691164311801561265057508115155b156126af57600b5460009061266e906001600160801b031643613939565b600c54909150600090612681908361391a565b905083612696670de0b6b3a76400008361391a565b6126a091906138fa565b6126aa90846138b7565b925050505b6001600160a01b0384166000908152600a602052604090206002810154600190910154670de0b6b3a76400006126ee6001600160801b0385168461391a565b6126f891906138fa565b6127029190613939565b95945050505050565b6002600054141561272e5760405162461bcd60e51b81526004016106e79061376d565b600260009081556009546040516306e6829960e51b815282916001600160a01b03169063dcd05320906127659033906004016130ea565b6040805180830381600087803b15801561277e57600080fd5b505af1158015612792573d6000803e3d6000fd5b505050506040513d601f19601f820116820180604052508101906127b69190613037565b91509150336001600160a01b03167f09c6481cb228ea7f61ceb67c8e708038eb74bbb68cfcc54a9cfca199087ecfb783836040516127f5929190613878565b60405180910390a250506001600055565b600b546001600160801b0316431115610e2e57600954604080516318160ddd60e01b815290516000926001600160a01b0316916318160ddd916004808301926020929190829003018186803b15801561285e57600080fd5b505afa158015612872573d6000803e3d6000fd5b505050506040513d601f19601f82011682018060405250810190612896919061301f565b9050801561292657600b546000906128b7906001600160801b031643613939565b600c549091506000906128ca908361391a565b9050826128df670de0b6b3a76400008361391a565b6128e991906138fa565b600b546129069190600160801b90046001600160801b03166138b7565b600b80546001600160801b03928316600160801b02921691909117905550505b600b80546fffffffffffffffffffffffffffffffff1916436001600160801b0390811691909117918290556040517f982b813c7d00a9ffce9441ba40f429b2e4a35068d75532f496d0c63585c2fa689261299092818116928692600160801b900490911690613834565b60405180910390a150565b6129a3612a0c565b6001600160a01b03166129b46113f9565b6001600160a01b0316146129da5760405162461bcd60e51b81526004016106e790613627565b6001600160a01b038116612a005760405162461bcd60e51b81526004016106e790613212565b612a0981612ba2565b50565b3390565b612a18612806565b6001600160a01b0381166000908152600a6020526040812060020154600b54909190670de0b6b3a764000090612a5e90600160801b90046001600160801b03168461391a565b612a6891906138fa565b6001600160a01b0384166000908152600a602052604081206001015491925090612a929083613939565b336000908152600a60205260408120600101849055600854919250906001600160a01b031615801590612ac457508115155b15612b505760085460405163186e465160e31b81526001600160a01b039091169063c372328890612afb9088908690600401613183565b602060405180830381600087803b158015612b1557600080fd5b505af1158015612b29573d6000803e3d6000fd5b505050506040513d601f19601f82011682018060405250810190612b4d919061301f565b90505b846001600160a01b0316336001600160a01b03167fa0306f61d3fafe13787b78e276cb6b644382854a66cb46daae14227d3ec2679783604051612b939190613857565b60405180910390a35050505050565b600180546001600160a01b038381166001600160a01b0319831681179093556040519116919082907f8be0079c531659141344cd1fd0a4f28419497f9722a3daafe3b4186f6b6457e090600090a35050565b604080516000808252602082019092526001600160a01b038416908390604051612c1e91906130b1565b60006040518083038185875af1925050503d8060008114612c5b576040519150601f19603f3d011682016040523d82523d6000602084013e612c60565b606091505b5050905080612c815760405162461bcd60e51b81526004016106e790613371565b505050565b600080856001600160a01b03166323b872dd868686604051602401612cad9392919061315f565b6040516020818303038152906040529060e01b6020820180517bffffffffffffffffffffffffffffffffffffffffffffffffffffffff8381831617835250505050604051612cfb91906130b1565b6000604051808303816000865af19150503d8060008114612d38576040519150601f19603f3d011682016040523d82523d6000602084013e612d3d565b606091505b5091509150818015612d67575080511580612d67575080806020019051810190612d679190612f47565b612d835760405162461bcd60e51b81526004016106e790613314565b505050505050565b60008083601f840112612d9c578182fd5b50813567ffffffffffffffff811115612db3578182fd5b602083019150836020828501011115612dcb57600080fd5b9250929050565b600060208284031215612de3578081fd5b8135612dee81613966565b9392505050565b600060208284031215612e06578081fd5b8151612dee81613966565b60008060408385031215612e23578081fd5b8235612e2e81613966565b91506020830135612e3e81613966565b809150509250929050565b600080600060608486031215612e5d578081fd5b8335612e6881613966565b92506020840135612e7881613966565b91506040840135612e8881613966565b809150509250925092565b600080600060608486031215612ea7578283fd5b8335612eb281613966565b92506020840135612ec281613966565b929592945050506040919091013590565b60008060408385031215612ee5578182fd5b8235612ef081613966565b946020939093013593505050565b60008060008060808587031215612f13578081fd5b8435612f1e81613966565b935060208501359250604085013591506060850135612f3c8161397b565b939692955090935050565b600060208284031215612f58578081fd5b8151612dee8161397b565b60008060008060008060008060c0898b031215612f7e578384fd5b883567ffffffffffffffff80821115612f95578586fd5b612fa18c838d01612d8b565b909a50985060208b0135915080821115612fb9578586fd5b50612fc68b828c01612d8b565b9097509550506040890135612fda81613966565b93506060890135612fea81613966565b979a969950949793969295929450505060808201359160a0013590565b600060208284031215613018578081fd5b5035919050565b600060208284031215613030578081fd5b5051919050565b60008060408385031215613049578182fd5b505080516020909101519092909150565b60008060006060848603121561306e578283fd5b8351925060208401519150604084015190509250925092565b60008284528282602086013780602084860101526020601f19601f85011685010190509392505050565b60008251815b818110156130d157602081860181015185830152016130b7565b818111156130df5782828501525b509190910192915050565b6001600160a01b0391909116815260200190565b6001600160a01b0392831681529116602082015260400190565b6001600160a01b0393841681529183166020830152909116604082015260600190565b6001600160a01b039384168152919092166020820152901515604082015260600190565b6001600160a01b039384168152919092166020820152604081019190915260600190565b6001600160a01b03929092168252602082015260400190565b6001600160a01b03929092168252602082015260606040820181905260009082015260800190565b6000608082526131d860808301888a613087565b82810360208401526131eb818789613087565b9150506001600160a01b038085166040840152808416606084015250979650505050505050565b60208082526026908201527f4f776e61626c653a206e6577206f776e657220697320746865207a65726f206160408201527f6464726573730000000000000000000000000000000000000000000000000000606082015260800190565b60208082526013908201527f556e6f52653a207a65726f206164647265737300000000000000000000000000604082015260600190565b6020808252601a908201527f556e6f52653a7a65726f20666163746f72792061646472657373000000000000604082015260600190565b6020808252601f908201527f556e6f52653a20776974686472617720616d6f756e74206f766572666c6f7700604082015260600190565b60208082526031908201527f5472616e7366657248656c7065723a3a7472616e7366657246726f6d3a20747260408201527f616e7366657246726f6d206661696c6564000000000000000000000000000000606082015260800190565b60208082526034908201527f5472616e7366657248656c7065723a3a736166655472616e736665724554483a60408201527f20455448207472616e73666572206661696c6564000000000000000000000000606082015260800190565b60208082526017908201527f556e6f52653a2062616c616e6365206f766572666c6f77000000000000000000604082015260600190565b6020808252818101527f556e6f52653a207269736b20706f6f6c206372656174656420616c7265616479604082015260600190565b60208082526012908201527f556e6f52653a204c6f636b65642074696d650000000000000000000000000000604082015260600190565b60208082526011908201527f556e6f52653a207a65726f2076616c7565000000000000000000000000000000604082015260600190565b6020808252601c908201527f556e6f52653a207a65726f206f70657261746f72206164647265737300000000604082015260600190565b60208082526012908201527f556e6f52653a207a65726f20616d6f756e740000000000000000000000000000604082015260600190565b6020808252601b908201527f556e6f52653a7a65726f204c5020746f6b656e20616464726573730000000000604082015260600190565b60208082526019908201527f556e6f52653a207a65726f206f776e6572206164647265737300000000000000604082015260600190565b6020808252818101527f556e6f52653a206d696e696d756d206361706974616c20756e646572666c6f77604082015260600190565b6020808252601f908201527f556e6f52653a206e6f7420616c6c6f77207a65726f206c6f636b2074696d6500604082015260600190565b6020808252601b908201527f556e6f52653a207a65726f20666163746f727920616464726573730000000000604082015260600190565b6020808252818101527f4f776e61626c653a2063616c6c6572206973206e6f7420746865206f776e6572604082015260600190565b60208082526011908201527f556e6f52653a205a45524f2056616c7565000000000000000000000000000000604082015260600190565b60208082526010908201527f556e6f52653a20466f7262696464656e00000000000000000000000000000000604082015260600190565b6020808252818101527f556e6f52653a20726577617264657220666163746f7279206e6f206578697374604082015260600190565b60208082526018908201527f556e6f52653a20696e73756666696369656e7420706169640000000000000000604082015260600190565b60208082526019908201527f556e6f52653a206e6f7420617661696c61626c652074696d6500000000000000604082015260600190565b6020808252601f908201527f5265656e7472616e637947756172643a207265656e7472616e742063616c6c00604082015260600190565b6020808252601b908201527f556e6f52653a206e6f7420616c6c6f77207a65726f2076616c75650000000000604082015260600190565b6020808252818101527f556e6f52653a206e6f7420616c6c6f77206f7468657273207472616e73666572604082015260600190565b6001600160801b039384168152919092166020820152604081019190915260600190565b6001600160801b0393841681526020810192909252909116604082015260600190565b90815260200190565b92835260208301919091521515604082015260600190565b918252602082015260400190565b9283526020830191909152604082015260600190565b93845260208401929092526040830152606082015260800190565b60006001600160801b038083168185168083038211156138d9576138d9613950565b01949350505050565b600082198211156138f5576138f5613950565b500190565b60008261391557634e487b7160e01b81526012600452602481fd5b500490565b600081600019048311821515161561393457613934613950565b500290565b60008282101561394b5761394b613950565b500390565b634e487b7160e01b600052601160045260246000fd5b6001600160a01b0381168114612a0957600080fd5b8015158114612a0957600080fdfea2646970667358221220860469f476fb1656a2b7d6c1536f0817ac1128698646089741fe088004e4dbb564736f6c63430008000033",
  "devdoc": {
    "kind": "dev",
    "methods": {
      "createRiskPool(string,string,address,address,uint256,uint256)": {
        "details": "create Risk pool with UNO from SSIP owner"
      },
      "getTotalWithdrawPendingAmount()": {
        "details": "get total withdraw request amount in pending for the risk pool in UNO"
      },
      "getWithdrawRequestPerUser(address)": {
        "details": "get withdraw request amount in pending per user in UNO"
      },
      "leaveFromPending()": {
        "details": "user can submit claim again and receive his funds into his wallet after 10 days since last WR."
      },
      "leaveFromPoolInPending(uint256)": {
        "details": "WR will be in pending for 10 days at least"
      },
      "owner()": {
        "details": "Returns the address of the current owner."
      },
      "renounceOwnership()": {
        "details": "Leaves the contract without owner. It will not be possible to call `onlyOwner` functions anymore. Can only be called by the current owner. NOTE: Renouncing ownership will leave the contract without an owner, thereby removing any functionality that is only available to the owner."
      },
      "transferOwnership(address)": {
        "details": "Transfers ownership of the contract to a new account (`newOwner`). Can only be called by the current owner."
      }
    },
    "version": 1
  },
  "userdoc": {
    "kind": "user",
    "methods": {},
    "version": 1
  },
  "storageLayout": {
    "storage": [
      {
        "astId": 114,
        "contract": "contracts/SingleSidedInsurancePool.sol:SingleSidedInsurancePool",
        "label": "_status",
        "offset": 0,
        "slot": "0",
        "type": "t_uint256"
      },
      {
        "astId": 7,
        "contract": "contracts/SingleSidedInsurancePool.sol:SingleSidedInsurancePool",
        "label": "_owner",
        "offset": 0,
        "slot": "1",
        "type": "t_address"
      },
      {
        "astId": 9767,
        "contract": "contracts/SingleSidedInsurancePool.sol:SingleSidedInsurancePool",
        "label": "claimAssessor",
        "offset": 0,
        "slot": "2",
        "type": "t_address"
      },
      {
        "astId": 9769,
        "contract": "contracts/SingleSidedInsurancePool.sol:SingleSidedInsurancePool",
        "label": "migrateTo",
        "offset": 0,
        "slot": "3",
        "type": "t_address"
      },
      {
        "astId": 9771,
        "contract": "contracts/SingleSidedInsurancePool.sol:SingleSidedInsurancePool",
        "label": "capitalAgent",
        "offset": 0,
        "slot": "4",
        "type": "t_address"
      },
      {
        "astId": 9773,
        "contract": "contracts/SingleSidedInsurancePool.sol:SingleSidedInsurancePool",
        "label": "syntheticSSIP",
        "offset": 0,
        "slot": "5",
        "type": "t_address"
      },
      {
        "astId": 9776,
        "contract": "contracts/SingleSidedInsurancePool.sol:SingleSidedInsurancePool",
        "label": "LOCK_TIME",
        "offset": 0,
        "slot": "6",
        "type": "t_uint256"
      },
      {
        "astId": 9781,
        "contract": "contracts/SingleSidedInsurancePool.sol:SingleSidedInsurancePool",
        "label": "STAKING_START_TIME",
        "offset": 0,
        "slot": "7",
        "type": "t_uint256"
      },
      {
        "astId": 9783,
        "contract": "contracts/SingleSidedInsurancePool.sol:SingleSidedInsurancePool",
        "label": "rewarder",
        "offset": 0,
        "slot": "8",
        "type": "t_address"
      },
      {
        "astId": 9786,
        "contract": "contracts/SingleSidedInsurancePool.sol:SingleSidedInsurancePool",
        "label": "riskPool",
        "offset": 0,
        "slot": "9",
        "type": "t_address"
      },
      {
        "astId": 9805,
        "contract": "contracts/SingleSidedInsurancePool.sol:SingleSidedInsurancePool",
        "label": "userInfo",
        "offset": 0,
        "slot": "10",
        "type": "t_mapping(t_address,t_struct(UserInfo)9800_storage)"
      },
      {
        "astId": 9808,
        "contract": "contracts/SingleSidedInsurancePool.sol:SingleSidedInsurancePool",
        "label": "poolInfo",
        "offset": 0,
        "slot": "11",
        "type": "t_struct(PoolInfo)9793_storage"
      }
    ],
    "types": {
      "t_address": {
        "encoding": "inplace",
        "label": "address",
        "numberOfBytes": "20"
      },
      "t_mapping(t_address,t_struct(UserInfo)9800_storage)": {
        "encoding": "mapping",
        "key": "t_address",
        "label": "mapping(address => struct SingleSidedInsurancePool.UserInfo)",
        "numberOfBytes": "32",
        "value": "t_struct(UserInfo)9800_storage"
      },
      "t_struct(PoolInfo)9793_storage": {
        "encoding": "inplace",
        "label": "struct SingleSidedInsurancePool.PoolInfo",
        "members": [
          {
            "astId": 9788,
            "contract": "contracts/SingleSidedInsurancePool.sol:SingleSidedInsurancePool",
            "label": "lastRewardBlock",
            "offset": 0,
            "slot": "0",
            "type": "t_uint128"
          },
          {
            "astId": 9790,
            "contract": "contracts/SingleSidedInsurancePool.sol:SingleSidedInsurancePool",
            "label": "accUnoPerShare",
            "offset": 16,
            "slot": "0",
            "type": "t_uint128"
          },
          {
            "astId": 9792,
            "contract": "contracts/SingleSidedInsurancePool.sol:SingleSidedInsurancePool",
            "label": "unoMultiplierPerBlock",
            "offset": 0,
            "slot": "1",
            "type": "t_uint256"
          }
        ],
        "numberOfBytes": "64"
      },
      "t_struct(UserInfo)9800_storage": {
        "encoding": "inplace",
        "label": "struct SingleSidedInsurancePool.UserInfo",
        "members": [
          {
            "astId": 9795,
            "contract": "contracts/SingleSidedInsurancePool.sol:SingleSidedInsurancePool",
            "label": "lastWithdrawTime",
            "offset": 0,
            "slot": "0",
            "type": "t_uint256"
          },
          {
            "astId": 9797,
            "contract": "contracts/SingleSidedInsurancePool.sol:SingleSidedInsurancePool",
            "label": "rewardDebt",
            "offset": 0,
            "slot": "1",
            "type": "t_uint256"
          },
          {
            "astId": 9799,
            "contract": "contracts/SingleSidedInsurancePool.sol:SingleSidedInsurancePool",
            "label": "amount",
            "offset": 0,
            "slot": "2",
            "type": "t_uint256"
          }
        ],
        "numberOfBytes": "96"
      },
      "t_uint128": {
        "encoding": "inplace",
        "label": "uint128",
        "numberOfBytes": "16"
      },
      "t_uint256": {
        "encoding": "inplace",
        "label": "uint256",
        "numberOfBytes": "32"
      }
    }
  }
}