{
  "address": "0x64741A6b0143596F31e462c6cD802A2A7eacaAc3",
  "abi": [
    {
      "inputs": [
        {
          "internalType": "address",
          "name": "_exchangeAgent",
          "type": "address"
        },
        {
          "internalType": "address",
          "name": "_UNO_TOKEN",
          "type": "address"
        },
        {
          "internalType": "address",
          "name": "_USDC_TOKEN",
          "type": "address"
        },
        {
          "internalType": "address",
          "name": "_multiSigWallet",
          "type": "address"
        },
        {
          "internalType": "address",
          "name": "_operator",
          "type": "address"
        }
      ],
      "stateMutability": "nonpayable",
      "type": "constructor"
    },
    {
      "anonymous": false,
      "inputs": [
        {
          "indexed": true,
          "internalType": "address",
          "name": "_ssip",
          "type": "address"
        },
        {
          "indexed": false,
          "internalType": "address",
          "name": "_currency",
          "type": "address"
        },
        {
          "indexed": false,
          "internalType": "uint256",
          "name": "_scr",
          "type": "uint256"
        }
      ],
      "name": "LogAddPool",
      "type": "event"
    },
    {
      "anonymous": false,
      "inputs": [
        {
          "indexed": true,
          "internalType": "address",
          "name": "_pool",
          "type": "address"
        }
      ],
      "name": "LogAddPoolWhiteList",
      "type": "event"
    },
    {
      "anonymous": false,
      "inputs": [
        {
          "indexed": true,
          "internalType": "address",
          "name": "_policy",
          "type": "address"
        },
        {
          "indexed": false,
          "internalType": "uint256",
          "name": "_policyTokenId",
          "type": "uint256"
        }
      ],
      "name": "LogMarkToClaimPolicy",
      "type": "event"
    },
    {
      "anonymous": false,
      "inputs": [
        {
          "indexed": true,
          "internalType": "address",
          "name": "_salesPolicy",
          "type": "address"
        }
      ],
      "name": "LogRemovePolicy",
      "type": "event"
    },
    {
      "anonymous": false,
      "inputs": [
        {
          "indexed": true,
          "internalType": "address",
          "name": "_ssip",
          "type": "address"
        }
      ],
      "name": "LogRemovePool",
      "type": "event"
    },
    {
      "anonymous": false,
      "inputs": [
        {
          "indexed": true,
          "internalType": "address",
          "name": "_pool",
          "type": "address"
        }
      ],
      "name": "LogRemovePoolWhiteList",
      "type": "event"
    },
    {
      "anonymous": false,
      "inputs": [
        {
          "indexed": true,
          "internalType": "address",
          "name": "_owner",
          "type": "address"
        },
        {
          "indexed": true,
          "internalType": "address",
          "name": "_capitalAgent",
          "type": "address"
        },
        {
          "indexed": false,
          "internalType": "address",
          "name": "_exchangeAgent",
          "type": "address"
        }
      ],
      "name": "LogSetExchangeAgent",
      "type": "event"
    },
    {
      "anonymous": false,
      "inputs": [
        {
          "indexed": true,
          "internalType": "address",
          "name": "_owner",
          "type": "address"
        },
        {
          "indexed": true,
          "internalType": "address",
          "name": "_capitalAgent",
          "type": "address"
        },
        {
          "indexed": false,
          "internalType": "uint256",
          "name": "_MCR",
          "type": "uint256"
        }
      ],
      "name": "LogSetMCR",
      "type": "event"
    },
    {
      "anonymous": false,
      "inputs": [
        {
          "indexed": true,
          "internalType": "address",
          "name": "_owner",
          "type": "address"
        },
        {
          "indexed": true,
          "internalType": "address",
          "name": "_capitalAgent",
          "type": "address"
        },
        {
          "indexed": false,
          "internalType": "uint256",
          "name": "_MLR",
          "type": "uint256"
        }
      ],
      "name": "LogSetMLR",
      "type": "event"
    },
    {
      "anonymous": false,
      "inputs": [
        {
          "indexed": true,
          "internalType": "address",
          "name": "_operator",
          "type": "address"
        }
      ],
      "name": "LogSetOperator",
      "type": "event"
    },
    {
      "anonymous": false,
      "inputs": [
        {
          "indexed": true,
          "internalType": "address",
          "name": "_salesPolicy",
          "type": "address"
        }
      ],
      "name": "LogSetPolicy",
      "type": "event"
    },
    {
      "anonymous": false,
      "inputs": [
        {
          "indexed": true,
          "internalType": "address",
          "name": "_owner",
          "type": "address"
        },
        {
          "indexed": true,
          "internalType": "address",
          "name": "_capitalAgent",
          "type": "address"
        },
        {
          "indexed": true,
          "internalType": "address",
          "name": "_pool",
          "type": "address"
        },
        {
          "indexed": false,
          "internalType": "uint256",
          "name": "_SCR",
          "type": "uint256"
        }
      ],
      "name": "LogSetSCR",
      "type": "event"
    },
    {
      "anonymous": false,
      "inputs": [
        {
          "indexed": true,
          "internalType": "address",
          "name": "_factory",
          "type": "address"
        }
      ],
      "name": "LogSetSalesPolicyFactory",
      "type": "event"
    },
    {
      "anonymous": false,
      "inputs": [
        {
          "indexed": true,
          "internalType": "address",
          "name": "_policy",
          "type": "address"
        },
        {
          "indexed": false,
          "internalType": "uint256",
          "name": "_amount",
          "type": "uint256"
        },
        {
          "indexed": false,
          "internalType": "uint256",
          "name": "_policyUtilized",
          "type": "uint256"
        },
        {
          "indexed": false,
          "internalType": "uint256",
          "name": "_totalUtilizedAmount",
          "type": "uint256"
        }
      ],
      "name": "LogUpdatePolicyCoverage",
      "type": "event"
    },
    {
      "anonymous": false,
      "inputs": [
        {
          "indexed": true,
          "internalType": "address",
          "name": "_policy",
          "type": "address"
        },
        {
          "indexed": false,
          "internalType": "uint256",
          "name": "_policyTokenId",
          "type": "uint256"
        }
      ],
      "name": "LogUpdatePolicyExpired",
      "type": "event"
    },
    {
      "anonymous": false,
      "inputs": [
        {
          "indexed": true,
          "internalType": "address",
          "name": "_ssip",
          "type": "address"
        },
        {
          "indexed": false,
          "internalType": "uint256",
          "name": "_poolCapital",
          "type": "uint256"
        },
        {
          "indexed": false,
          "internalType": "uint256",
          "name": "_totalCapital",
          "type": "uint256"
        }
      ],
      "name": "LogUpdatePoolCapital",
      "type": "event"
    },
    {
      "anonymous": false,
      "inputs": [
        {
          "indexed": true,
          "internalType": "address",
          "name": "previousOwner",
          "type": "address"
        },
        {
          "indexed": true,
          "internalType": "address",
          "name": "newOwner",
          "type": "address"
        }
      ],
      "name": "OwnershipTransferred",
      "type": "event"
    },
    {
      "inputs": [],
      "name": "CALC_PRECISION",
      "outputs": [
        {
          "internalType": "uint256",
          "name": "",
          "type": "uint256"
        }
      ],
      "stateMutability": "view",
      "type": "function"
    },
    {
      "inputs": [],
      "name": "MCR",
      "outputs": [
        {
          "internalType": "uint256",
          "name": "",
          "type": "uint256"
        }
      ],
      "stateMutability": "view",
      "type": "function"
    },
    {
      "inputs": [],
      "name": "MLR",
      "outputs": [
        {
          "internalType": "uint256",
          "name": "",
          "type": "uint256"
        }
      ],
      "stateMutability": "view",
      "type": "function"
    },
    {
      "inputs": [
        {
          "internalType": "uint256",
          "name": "_withdrawAmount",
          "type": "uint256"
        }
      ],
      "name": "SSIPPolicyCaim",
      "outputs": [],
      "stateMutability": "nonpayable",
      "type": "function"
    },
    {
      "inputs": [
        {
          "internalType": "uint256",
          "name": "_stakingAmount",
          "type": "uint256"
        }
      ],
      "name": "SSIPStaking",
      "outputs": [],
      "stateMutability": "nonpayable",
      "type": "function"
    },
    {
      "inputs": [
        {
          "internalType": "uint256",
          "name": "_withdrawAmount",
          "type": "uint256"
        }
      ],
      "name": "SSIPWithdraw",
      "outputs": [],
      "stateMutability": "nonpayable",
      "type": "function"
    },
    {
      "inputs": [],
      "name": "UNO_TOKEN",
      "outputs": [
        {
          "internalType": "address",
          "name": "",
          "type": "address"
        }
      ],
      "stateMutability": "view",
      "type": "function"
    },
    {
      "inputs": [],
      "name": "USDC_TOKEN",
      "outputs": [
        {
          "internalType": "address",
          "name": "",
          "type": "address"
        }
      ],
      "stateMutability": "view",
      "type": "function"
    },
    {
      "inputs": [
        {
          "internalType": "address",
          "name": "_ssip",
          "type": "address"
        },
        {
          "internalType": "address",
          "name": "_currency",
          "type": "address"
        },
        {
          "internalType": "uint256",
          "name": "_scr",
          "type": "uint256"
        }
      ],
      "name": "addPool",
      "outputs": [],
      "stateMutability": "nonpayable",
      "type": "function"
    },
    {
      "inputs": [
        {
          "internalType": "address",
          "name": "_ssip",
          "type": "address"
        },
        {
          "internalType": "address",
          "name": "_currency",
          "type": "address"
        },
        {
          "internalType": "uint256",
          "name": "_scr",
          "type": "uint256"
        }
      ],
      "name": "addPoolByAdmin",
      "outputs": [],
      "stateMutability": "nonpayable",
      "type": "function"
    },
    {
      "inputs": [
        {
          "internalType": "address",
          "name": "_pool",
          "type": "address"
        }
      ],
      "name": "addPoolWhiteList",
      "outputs": [],
      "stateMutability": "nonpayable",
      "type": "function"
    },
    {
      "inputs": [
        {
          "internalType": "address",
          "name": "_pool",
          "type": "address"
        },
        {
          "internalType": "uint256",
          "name": "_withdrawAmount",
          "type": "uint256"
        }
      ],
      "name": "checkCapitalByMCR",
      "outputs": [
        {
          "internalType": "bool",
          "name": "",
          "type": "bool"
        }
      ],
      "stateMutability": "view",
      "type": "function"
    },
    {
      "inputs": [
        {
          "internalType": "uint256",
          "name": "_coverageAmount",
          "type": "uint256"
        }
      ],
      "name": "checkCoverageByMLR",
      "outputs": [
        {
          "internalType": "bool",
          "name": "",
          "type": "bool"
        }
      ],
      "stateMutability": "view",
      "type": "function"
    },
    {
      "inputs": [],
      "name": "exchangeAgent",
      "outputs": [
        {
          "internalType": "address",
          "name": "",
          "type": "address"
        }
      ],
      "stateMutability": "view",
      "type": "function"
    },
    {
      "inputs": [
        {
          "internalType": "uint256",
          "name": "_policyId",
          "type": "uint256"
        }
      ],
      "name": "markToClaimPolicy",
      "outputs": [],
      "stateMutability": "nonpayable",
      "type": "function"
    },
    {
      "inputs": [],
      "name": "operator",
      "outputs": [
        {
          "internalType": "address",
          "name": "",
          "type": "address"
        }
      ],
      "stateMutability": "view",
      "type": "function"
    },
    {
      "inputs": [],
      "name": "owner",
      "outputs": [
        {
          "internalType": "address",
          "name": "",
          "type": "address"
        }
      ],
      "stateMutability": "view",
      "type": "function"
    },
    {
      "inputs": [],
      "name": "policyInfo",
      "outputs": [
        {
          "internalType": "address",
          "name": "policy",
          "type": "address"
        },
        {
          "internalType": "uint256",
          "name": "utilizedAmount",
          "type": "uint256"
        },
        {
          "internalType": "bool",
          "name": "exist",
          "type": "bool"
        }
      ],
      "stateMutability": "view",
      "type": "function"
    },
    {
      "inputs": [
        {
          "internalType": "uint256",
          "name": "_coverageAmount",
          "type": "uint256"
        }
      ],
      "name": "policySale",
      "outputs": [],
      "stateMutability": "nonpayable",
      "type": "function"
    },
    {
      "inputs": [
        {
          "internalType": "address",
          "name": "",
          "type": "address"
        }
      ],
      "name": "poolInfo",
      "outputs": [
        {
          "internalType": "uint256",
          "name": "totalCapital",
          "type": "uint256"
        },
        {
          "internalType": "uint256",
          "name": "SCR",
          "type": "uint256"
        },
        {
          "internalType": "address",
          "name": "currency",
          "type": "address"
        },
        {
          "internalType": "bool",
          "name": "exist",
          "type": "bool"
        }
      ],
      "stateMutability": "view",
      "type": "function"
    },
    {
      "inputs": [
        {
          "internalType": "address",
          "name": "",
          "type": "address"
        }
      ],
      "name": "poolWhiteList",
      "outputs": [
        {
          "internalType": "bool",
          "name": "",
          "type": "bool"
        }
      ],
      "stateMutability": "view",
      "type": "function"
    },
    {
      "inputs": [],
      "name": "removePolicy",
      "outputs": [],
      "stateMutability": "nonpayable",
      "type": "function"
    },
    {
      "inputs": [
        {
          "internalType": "address",
          "name": "_ssip",
          "type": "address"
        }
      ],
      "name": "removePool",
      "outputs": [],
      "stateMutability": "nonpayable",
      "type": "function"
    },
    {
      "inputs": [
        {
          "internalType": "address",
          "name": "_pool",
          "type": "address"
        }
      ],
      "name": "removePoolWhiteList",
      "outputs": [],
      "stateMutability": "nonpayable",
      "type": "function"
    },
    {
      "inputs": [],
      "name": "renounceOwnership",
      "outputs": [],
      "stateMutability": "nonpayable",
      "type": "function"
    },
    {
      "inputs": [],
      "name": "salesPolicyFactory",
      "outputs": [
        {
          "internalType": "address",
          "name": "",
          "type": "address"
        }
      ],
      "stateMutability": "view",
      "type": "function"
    },
    {
      "inputs": [
        {
          "internalType": "address",
          "name": "_exchangeAgent",
          "type": "address"
        }
      ],
      "name": "setExchangeAgent",
      "outputs": [],
      "stateMutability": "nonpayable",
      "type": "function"
    },
    {
      "inputs": [
        {
          "internalType": "uint256",
          "name": "_MCR",
          "type": "uint256"
        }
      ],
      "name": "setMCR",
      "outputs": [],
      "stateMutability": "nonpayable",
      "type": "function"
    },
    {
      "inputs": [
        {
          "internalType": "uint256",
          "name": "_MLR",
          "type": "uint256"
        }
      ],
      "name": "setMLR",
      "outputs": [],
      "stateMutability": "nonpayable",
      "type": "function"
    },
    {
      "inputs": [
        {
          "internalType": "address",
          "name": "_operator",
          "type": "address"
        }
      ],
      "name": "setOperator",
      "outputs": [],
      "stateMutability": "nonpayable",
      "type": "function"
    },
    {
      "inputs": [
        {
          "internalType": "address",
          "name": "_policy",
          "type": "address"
        }
      ],
      "name": "setPolicy",
      "outputs": [],
      "stateMutability": "nonpayable",
      "type": "function"
    },
    {
      "inputs": [
        {
          "internalType": "address",
          "name": "_policy",
          "type": "address"
        }
      ],
      "name": "setPolicyByAdmin",
      "outputs": [],
      "stateMutability": "nonpayable",
      "type": "function"
    },
    {
      "inputs": [
        {
          "internalType": "uint256",
          "name": "_SCR",
          "type": "uint256"
        },
        {
          "internalType": "address",
          "name": "_pool",
          "type": "address"
        }
      ],
      "name": "setSCR",
      "outputs": [],
      "stateMutability": "nonpayable",
      "type": "function"
    },
    {
      "inputs": [
        {
          "internalType": "address",
          "name": "_factory",
          "type": "address"
        }
      ],
      "name": "setSalesPolicyFactory",
      "outputs": [],
      "stateMutability": "nonpayable",
      "type": "function"
    },
    {
      "inputs": [],
      "name": "totalCapitalStaked",
      "outputs": [
        {
          "internalType": "uint256",
          "name": "",
          "type": "uint256"
        }
      ],
      "stateMutability": "view",
      "type": "function"
    },
    {
      "inputs": [],
      "name": "totalUtilizedAmount",
      "outputs": [
        {
          "internalType": "uint256",
          "name": "",
          "type": "uint256"
        }
      ],
      "stateMutability": "view",
      "type": "function"
    },
    {
      "inputs": [
        {
          "internalType": "address",
          "name": "newOwner",
          "type": "address"
        }
      ],
      "name": "transferOwnership",
      "outputs": [],
      "stateMutability": "nonpayable",
      "type": "function"
    },
    {
      "inputs": [
        {
          "internalType": "uint256",
          "name": "_policyId",
          "type": "uint256"
        }
      ],
      "name": "updatePolicyStatus",
      "outputs": [],
      "stateMutability": "nonpayable",
      "type": "function"
    }
  ],
  "transactionHash": "0x9a34191ee2094738bcdc30aff391d6f7e49def976181d15b89f001ab7252dbad",
  "args": [
    "0x34Bb884F2B45F614067Df55AD58c0DDdaeff9408",
    "0x53fb43BaE4C13d6AFAD37fB37c3fC49f3Af433F5",
    "0x40c035016AD732b6cFce34c3F881040B6C6cf71E",
    "0x5569BDF4e02cec3fE459796e3d0e741616029fA4",
    "0x5569BDF4e02cec3fE459796e3d0e741616029fA4"
  ],
  "solcInputHash": "9c1f8d85bdcf670030c1ce66de03e023",
  "bytecode": "0x6080604052670de0b6b3a7640000600f553480156200001d57600080fd5b5060405162002b8238038062002b82833981016040819052620000409162000265565b6001600055620000596200005362000166565b6200016a565b6001600160a01b0385166200008b5760405162461bcd60e51b8152600401620000829062000393565b60405180910390fd5b6001600160a01b038416620000b45760405162461bcd60e51b8152600401620000829062000409565b6001600160a01b038316620000dd5760405162461bcd60e51b815260040162000082906200035c565b6001600160a01b038216620001065760405162461bcd60e51b815260040162000082906200031a565b600280546001600160a01b038088166001600160a01b031992831617909255600480548784169083161790556005805486841690831617905560068054928416929091169190911790556200015b82620001bc565b505050505062000440565b3390565b600180546001600160a01b038381166001600160a01b0319831681179093556040519116919082907f8be0079c531659141344cd1fd0a4f28419497f9722a3daafe3b4186f6b6457e090600090a35050565b620001c662000166565b6001600160a01b0316620001d962000239565b6001600160a01b031614620002025760405162461bcd60e51b81526004016200008290620003d4565b6001600160a01b0381166200022b5760405162461bcd60e51b81526004016200008290620002d4565b62000236816200016a565b50565b6001546001600160a01b031690565b80516001600160a01b03811681146200026057600080fd5b919050565b600080600080600060a086880312156200027d578081fd5b620002888662000248565b9450620002986020870162000248565b9350620002a86040870162000248565b9250620002b86060870162000248565b9150620002c86080870162000248565b90509295509295909350565b60208082526026908201527f4f776e61626c653a206e6577206f776e657220697320746865207a65726f206160408201526564647265737360d01b606082015260800190565b60208082526022908201527f556e6f52653a207a65726f206d756c746973696777616c6c6574206164647265604082015261737360f01b606082015260800190565b60208082526018908201527f556e6f52653a207a65726f205553444320616464726573730000000000000000604082015260600190565b60208082526021908201527f556e6f52653a207a65726f2065786368616e67654167656e74206164647265736040820152607360f81b606082015260800190565b6020808252818101527f4f776e61626c653a2063616c6c6572206973206e6f7420746865206f776e6572604082015260600190565b60208082526017908201527f556e6f52653a207a65726f20554e4f2061646472657373000000000000000000604082015260600190565b61273280620004506000396000f3fe608060405234801561001057600080fd5b50600436106102925760003560e01c80638bb7083111610160578063b3ab15fb116100d8578063d4688a451161008c578063d9203b9111610071578063d9203b91146104fd578063f2fde38b14610505578063fa5692741461051857610292565b8063d4688a45146104e2578063d8c5c863146104ea57610292565b8063be22041b116100bd578063be22041b146104a9578063c139b04f146104bc578063c3ea3a28146104cf57610292565b8063b3ab15fb14610483578063b3d7f7281461049657610292565b8063974e4d851161012f578063a0931af211610114578063a0931af21461044a578063a65888fb1461045d578063a88d2f7a1461047057610292565b8063974e4d85146104105780639a7b5f111461042757610292565b80638bb70831146103e55780638be5a39f146103ed5780638da5cb5b1461040057806392ff38ec1461040857610292565b80634dc70bac1161020e578063715018a6116101c25780637d4163d3116101a75780637d4163d3146103ac5780637e29d6c2146103bf578063869bd44a146103d257610292565b8063715018a61461039c578063794e5724146103a457610292565b80635b44d576116101f35780635b44d5761461036e57806365cb3a8314610381578063706c2d1b1461038957610292565b80634dc70bac14610351578063570ca7351461036657610292565b806325042fe911610265578063385a128f1161024a578063385a128f146103185780633b7d09461461032b5780634a3a3d141461033e57610292565b806325042fe9146102f057806336760a1c1461031057610292565b80630d757531146102975780630f97b97b146102ac57806318a00d8e146102ca5780631dfa426d146102dd575b600080fd5b6102aa6102a5366004611fa0565b610520565b005b6102b46105fb565b6040516102c19190611ff8565b60405180910390f35b6102aa6102d8366004611ef2565b61060a565b6102aa6102eb366004611ef2565b6106f6565b6103036102fe366004611ef2565b6107fe565b6040516102c1919061206c565b6102b4610813565b6102aa610326366004611f70565b610822565b6102aa610339366004611ef2565b6108ca565b6102aa61034c366004611ef2565b610a5a565b610359610b6d565b6040516102c19190612625565b6102b4610b73565b6102aa61037c366004611f70565b610b82565b6102aa610c1a565b6102aa610397366004611f0c565b610d1e565b6102aa610ea3565b610359610eee565b6102aa6103ba366004611ef2565b610ef4565b6102aa6103cd366004611f0c565b610f6e565b6102aa6103e0366004611f70565b610f9d565b61035961116e565b6102aa6103fb366004611f70565b611174565b6102b46111de565b6103596111ed565b6104186111f3565b6040516102c193929190612049565b61043a610435366004611ef2565b61120e565b6040516102c1949392919061263c565b6102aa610458366004611f70565b611244565b6102aa61046b366004611ef2565b6112e8565b6102aa61047e366004611ef2565b6113ff565b6102aa610491366004611ef2565b6114db565b6102aa6104a4366004611f70565b6115b7565b6102aa6104b7366004611f70565b611615565b6103036104ca366004611f47565b6117c8565b6103036104dd366004611f70565b6117db565b6103596117ee565b6102aa6104f8366004611f70565b6117f4565b6102b461189c565b6102aa610513366004611ef2565b6118ab565b6102b461191c565b6006546001600160a01b031633146105535760405162461bcd60e51b815260040161054a906120e3565b60405180910390fd5b600260005414156105765760405162461bcd60e51b815260040161054a90612582565b6002600055816105985760405162461bcd60e51b815260040161054a90612480565b6001600160a01b0381166000818152600760205260409081902060010184905551309033907fade0e16d2bd0d685eef1e5355dc835692faac192ef62225adb31cd0c0b99c8a8906105ea908790612625565b60405180910390a450506001600055565b6004546001600160a01b031681565b61061261192b565b6001600160a01b03166106236111de565b6001600160a01b0316146106495760405162461bcd60e51b815260040161054a90612409565b6002600054141561066c5760405162461bcd60e51b815260040161054a90612582565b60026000556001600160a01b0381166106975760405162461bcd60e51b815260040161054a90612177565b600280546001600160a01b0319166001600160a01b038316179055604051309033907f28e0ff29ad991f2655c48b0b095a69abbf13aec6c8bc181dd526dbb3f8c9d0b9906106e6908590611ff8565b60405180910390a3506001600055565b6106fe61192b565b6001600160a01b031661070f6111de565b6001600160a01b0316146107355760405162461bcd60e51b815260040161054a90612409565b600260005414156107585760405162461bcd60e51b815260040161054a90612582565b60026000556001600160a01b0381166107835760405162461bcd60e51b815260040161054a90612177565b604080516060810182526001600160a01b0383168082526000602083018190526001928401839052600980546001600160a01b03191683179055600a819055600b805460ff191690931790925591517f8ba1947a8c64577d7adbd8cbc248c72b68738fe23afef984d842ba5ec5af5cfe9190a2506001600055565b60106020526000908152604090205460ff1681565b6003546001600160a01b031681565b6006546001600160a01b0316331461084c5760405162461bcd60e51b815260040161054a906120e3565b6002600054141561086f5760405162461bcd60e51b815260040161054a90612582565b6002600055806108915760405162461bcd60e51b815260040161054a906121e5565b600d819055604051309033907fa55ee73f4232498ac4c250ffa77f4337343a213648a66147d8848f6660fa3fdf906106e6908590612625565b6108d261192b565b6001600160a01b03166108e36111de565b6001600160a01b0316146109095760405162461bcd60e51b815260040161054a90612409565b6002600054141561092c5760405162461bcd60e51b815260040161054a90612582565b60026000556001600160a01b0381166109575760405162461bcd60e51b815260040161054a90612177565b6001600160a01b038116600090815260076020526040902060020154600160a01b900460ff166109995760405162461bcd60e51b815260040161054a90612366565b6001600160a01b038116600090815260076020526040902054156109e1576001600160a01b0381166000908152600760205260409020546008546109dd91906126cf565b6008555b6001600160a01b0381166000818152600760205260408082208281556001810183905560020180547fffffffffffffffffffffff000000000000000000000000000000000000000000169055517ff54e47602c09e6190ae0c9cba6074e2e211bf36944fd714fbb0bd78aba514cab9190a2506001600055565b610a6261192b565b6001600160a01b0316610a736111de565b6001600160a01b031614610a995760405162461bcd60e51b815260040161054a90612409565b60026000541415610abc5760405162461bcd60e51b815260040161054a90612582565b60026000556001600160a01b038116610ae75760405162461bcd60e51b815260040161054a9061228a565b6001600160a01b03811660009081526010602052604090205460ff16610b1f5760405162461bcd60e51b815260040161054a90612077565b6001600160a01b038116600081815260106020526040808220805460ff19169055517f4151e001c03bfed83a194d10eea2c0edf04f98e382c440c94a947a99d38d2c329190a2506001600055565b600f5481565b6006546001600160a01b031681565b60026000541415610ba55760405162461bcd60e51b815260040161054a90612582565b600260008181553381526007602052604090200154600160a01b900460ff16610be05760405162461bcd60e51b815260040161054a9061254b565b610bea338261192f565b610c065760405162461bcd60e51b815260040161054a9061239d565b610c1233826000611b03565b506001600055565b610c2261192b565b6001600160a01b0316610c336111de565b6001600160a01b031614610c595760405162461bcd60e51b815260040161054a90612409565b60026000541415610c7c5760405162461bcd60e51b815260040161054a90612582565b6002600055600b5460ff16610ca35760405162461bcd60e51b815260040161054a90612366565b600a5415610cbf57600a54600c54610cbb91906126cf565b6008555b600980546001600160a01b03198116909155600b805460ff191690556000600a8190556040516001600160a01b039092169182917fffb315d96bed6cc0b00a9cc39d15fcbcab7d047fca09660a2d73569cfc75817c91a2506001600055565b610d2661192b565b6001600160a01b0316610d376111de565b6001600160a01b031614610d5d5760405162461bcd60e51b815260040161054a90612409565b6001600160a01b038316610d835760405162461bcd60e51b815260040161054a90612177565b6001600160a01b038316600090815260076020526040902060020154600160a01b900460ff1615610dc65760405162461bcd60e51b815260040161054a9061232f565b60408051608081018252600080825260208083018581526001600160a01b038088168587019081526001606087018181528b84168088526007909652958890209651875592519286019290925590516002909401805493511515600160a01b027fffffffffffffffffffffff00ffffffffffffffffffffffffffffffffffffffff959092166001600160a01b0319909416939093179390931692909217905590517f4135167fcda3c31ddaa41eecaaa00c3e3ba8aabf49d039cfad433be34bf659ab90610e969085908590612030565b60405180910390a2505050565b610eab61192b565b6001600160a01b0316610ebc6111de565b6001600160a01b031614610ee25760405162461bcd60e51b815260040161054a90612409565b610eec6000611d89565b565b600d5481565b60026000541415610f175760405162461bcd60e51b815260040161054a90612582565b60026000556003546001600160a01b0316610f445760405162461bcd60e51b815260040161054a9061243e565b6003546001600160a01b031633146107835760405162461bcd60e51b815260040161054a906124ee565b3360009081526010602052604090205460ff16610d5d5760405162461bcd60e51b815260040161054a906120e3565b610fa561192b565b6001600160a01b0316610fb66111de565b6001600160a01b031614610fdc5760405162461bcd60e51b815260040161054a90612409565b60026000541415610fff5760405162461bcd60e51b815260040161054a90612582565b60026000556009546001600160a01b031661102c5760405162461bcd60e51b815260040161054a906121ae565b600954604051637a5402e960e01b81526000916001600160a01b031690637a5402e99061105d908590600401612625565b60606040518083038186803b15801561107557600080fd5b505afa158015611089573d6000803e3d6000fd5b505050506040513d601f19601f820116820180604052508101906110ad9190611fcb565b505090506110bc816000611ddb565b6009546040516319d9b48f60e11b81526001600160a01b03909116906333b3691e906110ec908590600401612625565b600060405180830381600087803b15801561110657600080fd5b505af115801561111a573d6000803e3d6000fd5b50506009546040516001600160a01b0390911692507f56b46e5b13fdb3c0b1989f448e91b2ad68cf0c8e8ddd87f996720708ae3a1569915061115d908590612625565b60405180910390a250506001600055565b600e5481565b600260005414156111975760405162461bcd60e51b815260040161054a90612582565b600260008181553381526007602052604090200154600160a01b900460ff166111d25760405162461bcd60e51b815260040161054a9061254b565b610c1233826001611b03565b6001546001600160a01b031690565b60085481565b600954600a54600b546001600160a01b039092169160ff1683565b6007602052600090815260409020805460018201546002909201549091906001600160a01b03811690600160a01b900460ff1684565b600260005414156112675760405162461bcd60e51b815260040161054a90612582565b60026000556009546001600160a01b031633146112965760405162461bcd60e51b815260040161054a906125f0565b600b5460ff166112b85760405162461bcd60e51b815260040161054a906124b7565b6112c181611ea6565b6112dd5760405162461bcd60e51b815260040161054a906120ae565b610c12816001611ddb565b6112f061192b565b6001600160a01b03166113016111de565b6001600160a01b0316146113275760405162461bcd60e51b815260040161054a90612409565b6002600054141561134a5760405162461bcd60e51b815260040161054a90612582565b60026000556001600160a01b0381166113755760405162461bcd60e51b815260040161054a9061228a565b6001600160a01b03811660009081526010602052604090205460ff16156113ae5760405162461bcd60e51b815260040161054a90612253565b6001600160a01b038116600081815260106020526040808220805460ff19166001179055517f398e8e2ed05e6be725398a28e81fdf023a447b92941bd666e68ce2091b82bcc79190a2506001600055565b61140761192b565b6001600160a01b03166114186111de565b6001600160a01b03161461143e5760405162461bcd60e51b815260040161054a90612409565b600260005414156114615760405162461bcd60e51b815260040161054a90612582565b60026000556001600160a01b03811661148c5760405162461bcd60e51b815260040161054a906123d2565b600380546001600160a01b0319166001600160a01b0383169081179091556040517f6507596e94e343212d1c22479359f82fffb65f099deb3ebcae9eb33c3d06de9e90600090a2506001600055565b6114e361192b565b6001600160a01b03166114f46111de565b6001600160a01b03161461151a5760405162461bcd60e51b815260040161054a90612409565b6002600054141561153d5760405162461bcd60e51b815260040161054a90612582565b60026000556001600160a01b0381166115685760405162461bcd60e51b815260040161054a906122c1565b600680546001600160a01b0319166001600160a01b0383169081179091556040517f08c5d29613b4e7468e893fe5f104f5a3ea6e28298f00fbbab9dc9394578c89de90600090a2506001600055565b600260005414156115da5760405162461bcd60e51b815260040161054a90612582565b600260008181553381526007602052604090200154600160a01b900460ff16610c065760405162461bcd60e51b815260040161054a9061254b565b600260005414156116385760405162461bcd60e51b815260040161054a90612582565b60026000556009546001600160a01b03166116655760405162461bcd60e51b815260040161054a906121ae565b600954604051637a5402e960e01b8152600091829182916001600160a01b031690637a5402e99061169a908790600401612625565b60606040518083038186803b1580156116b257600080fd5b505afa1580156116c6573d6000803e3d6000fd5b505050506040513d601f19601f820116820180604052508101906116ea9190611fcb565b9194509250905060006116fd8284612678565b4210801591506117bc57611712846000611ddb565b6009546040516352eaf0a160e11b81526001600160a01b039091169063a5d5e14290611742908890600401612625565b600060405180830381600087803b15801561175c57600080fd5b505af1158015611770573d6000803e3d6000fd5b50506009546040516001600160a01b0390911692507faf1c77a8196c946ab8e645210cd1e2685b4fb758ddfd474fd918298854dea6fc91506117b3908890612625565b60405180910390a25b50506001600055505050565b60006117d4838361192f565b9392505050565b60006117e682611ea6565b90505b919050565b600c5481565b6006546001600160a01b0316331461181e5760405162461bcd60e51b815260040161054a906120e3565b600260005414156118415760405162461bcd60e51b815260040161054a90612582565b6002600055806118635760405162461bcd60e51b815260040161054a906122f8565b600e819055604051309033907fb2f30bd42a6b499419a01b9b79e7b98934167f5a8a8c389ce446e20a8e5df765906106e6908590612625565b6002546001600160a01b031681565b6118b361192b565b6001600160a01b03166118c46111de565b6001600160a01b0316146118ea5760405162461bcd60e51b815260040161054a90612409565b6001600160a01b0381166119105760405162461bcd60e51b815260040161054a9061211a565b61191981611d89565b50565b6005546001600160a01b031681565b3390565b6001600160a01b03808316600090815260076020526040812060020154600554919290811691839116821415611966575082611a8b565b6001600160a01b0382166119ff5760025460055460405163ba560ed960e01b81526001600160a01b039283169263ba560ed9926119aa929116908890600401612030565b60206040518083038186803b1580156119c257600080fd5b505afa1580156119d6573d6000803e3d6000fd5b505050506040513d601f19601f820116820180604052508101906119fa9190611f88565b611a88565b600254600554604051631a44cdf360e11b81526001600160a01b03928316926334899be692611a3892879290911690899060040161200c565b60206040518083038186803b158015611a5057600080fd5b505afa158015611a64573d6000803e3d6000fd5b505050506040513d601f19601f82011682018060405250810190611a889190611f88565b90505b6000600f54600d54600854611aa091906126b0565b611aaa9190612690565b82600854611ab891906126cf565b6001600160a01b0388166000908152600760205260408120600181015490549390921015935091611aea9085906126cf565b10159050818015611af85750805b979650505050505050565b6001600160a01b038084166000908152600760205260408120600201546005549083169216821415611b36575082611c5b565b6001600160a01b038216611bcf5760025460055460405163ba560ed960e01b81526001600160a01b039283169263ba560ed992611b7a929116908890600401612030565b60206040518083038186803b158015611b9257600080fd5b505afa158015611ba6573d6000803e3d6000fd5b505050506040513d601f19601f82011682018060405250810190611bca9190611f88565b611c58565b600254600554604051631a44cdf360e11b81526001600160a01b03928316926334899be692611c0892879290911690899060040161200c565b60206040518083038186803b158015611c2057600080fd5b505afa158015611c34573d6000803e3d6000fd5b505050506040513d601f19601f82011682018060405250810190611c589190611f88565b90505b82611c98576001600160a01b038516600090815260076020526040902054811115611c985760405162461bcd60e51b815260040161054a906125b9565b82611cc6576001600160a01b038516600090815260076020526040902054611cc19082906126cf565b611cea565b6001600160a01b038516600090815260076020526040902054611cea908290612678565b6001600160a01b03861660009081526007602052604090205582611d1b5780600854611d1691906126cf565b611d29565b80600854611d299190612678565b60088190556001600160a01b0386166000818152600760205260409081902054905191927f4c54f63d510ce2f2f9bf99bf203458cb67aa75fae97ccab560a1654eba9dbf2492611d7a92919061262e565b60405180910390a25050505050565b600180546001600160a01b038381166001600160a01b0319831681179093556040519116919082907f8be0079c531659141344cd1fd0a4f28419497f9722a3daafe3b4186f6b6457e090600090a35050565b80611e0257600a54821115611e025760405162461bcd60e51b815260040161054a9061221c565b80611e1a57600a54611e159083906126cf565b611e28565b600a54611e28908390612678565b600a5580611e435781600c54611e3e91906126cf565b611e51565b81600c54611e519190612678565b600c819055600954600a546040516001600160a01b03909216927facece99dd8b86cb96519fb17caded4d103b35a8261463d0d11f80a411460730092611e9a9287929091612662565b60405180910390a25050565b6000600f54600e54600854611ebb91906126b0565b611ec59190612690565b82600c54611ed39190612678565b111592915050565b80356001600160a01b03811681146117e957600080fd5b600060208284031215611f03578081fd5b6117d482611edb565b600080600060608486031215611f20578182fd5b611f2984611edb565b9250611f3760208501611edb565b9150604084013590509250925092565b60008060408385031215611f59578182fd5b611f6283611edb565b946020939093013593505050565b600060208284031215611f81578081fd5b5035919050565b600060208284031215611f99578081fd5b5051919050565b60008060408385031215611fb2578182fd5b82359150611fc260208401611edb565b90509250929050565b600080600060608486031215611fdf578283fd5b8351925060208401519150604084015190509250925092565b6001600160a01b0391909116815260200190565b6001600160a01b039384168152919092166020820152604081019190915260600190565b6001600160a01b03929092168252602082015260400190565b6001600160a01b0393909316835260208301919091521515604082015260600190565b901515815260200190565b60208082526014908201527f556e6f52653a206e6f207768697465206c697374000000000000000000000000604082015260600190565b6020808252818101527f556e6f52653a206d6178696d756d206c65766572616765206f766572666c6f77604082015260600190565b6020808252601e908201527f556e6f52653a204361706974616c204167656e7420466f7262696464656e0000604082015260600190565b60208082526026908201527f4f776e61626c653a206e6577206f776e657220697320746865207a65726f206160408201527f6464726573730000000000000000000000000000000000000000000000000000606082015260800190565b60208082526013908201527f556e6f52653a207a65726f206164647265737300000000000000000000000000604082015260600190565b6020808252601b908201527f556e6f52653a206e6f2065786973742073616c6573506f6c6963790000000000604082015260600190565b6020808252600f908201527f556e6f52653a207a65726f206d63720000000000000000000000000000000000604082015260600190565b6020808252601f908201527f556e6f52653a20706f6c69637920636f766572616765206f766572666c6f7700604082015260600190565b60208082526019908201527f556e6f52653a207768697465206c69737420616c726561647900000000000000604082015260600190565b60208082526018908201527f556e6f52653a207a65726f20706f6f6c20616464726573730000000000000000604082015260600190565b6020808252601c908201527f556e6f52653a207a65726f206f70657261746f72206164647265737300000000604082015260600190565b6020808252600f908201527f556e6f52653a207a65726f206d6c720000000000000000000000000000000000604082015260600190565b60208082526019908201527f556e6f52653a20616c726561647920657869737420706f6f6c00000000000000604082015260600190565b60208082526013908201527f556e6f52653a206e6f206578697420706f6f6c00000000000000000000000000604082015260600190565b6020808252818101527f556e6f52653a206d696e696d756d206361706974616c20756e646572666c6f77604082015260600190565b6020808252601b908201527f556e6f52653a207a65726f20666163746f727920616464726573730000000000604082015260600190565b6020808252818101527f4f776e61626c653a2063616c6c6572206973206e6f7420746865206f776e6572604082015260600190565b60208082526022908201527f556e6f52653a206e6f742073657420666163746f727920616464726573732079604082015261195d60f21b606082015260800190565b6020808252600f908201527f556e6f52653a207a65726f207363720000000000000000000000000000000000604082015260600190565b60208082526016908201527f556e6f52653a206e6f20657869737420706f6c69637900000000000000000000604082015260600190565b60208082526027908201527f556e6f52653a206f6e6c792073616c6573506f6c696379466163746f7279206360408201527f616e2063616c6c00000000000000000000000000000000000000000000000000606082015260800190565b60208082526014908201527f556e6f52653a206e6f2065786973742073736970000000000000000000000000604082015260600190565b6020808252601f908201527f5265656e7472616e637947756172643a207265656e7472616e742063616c6c00604082015260600190565b6020808252601c908201527f556e6f52653a20706f6f6c206361706974616c206f766572666c6f7700000000604082015260600190565b6020808252818101527f556e6f52653a206f6e6c792073616c6573506f6c6963792063616e2063616c6c604082015260600190565b90815260200190565b918252602082015260400190565b93845260208401929092526001600160a01b031660408301521515606082015260800190565b9283526020830191909152604082015260600190565b6000821982111561268b5761268b6126e6565b500190565b6000826126ab57634e487b7160e01b81526012600452602481fd5b500490565b60008160001904831182151516156126ca576126ca6126e6565b500290565b6000828210156126e1576126e16126e6565b500390565b634e487b7160e01b600052601160045260246000fdfea26469706673582212209d9e693944681cc2e0bd973ab2b4f84e08a62c6e5f75490a8f4fcadf24c0e12e64736f6c63430008000033",
  "devdoc": {
    "kind": "dev",
    "methods": {
      "owner()": {
        "details": "Returns the address of the current owner."
      },
      "renounceOwnership()": {
        "details": "Leaves the contract without owner. It will not be possible to call `onlyOwner` functions anymore. Can only be called by the current owner. NOTE: Renouncing ownership will leave the contract without an owner, thereby removing any functionality that is only available to the owner."
      },
      "transferOwnership(address)": {
        "details": "Transfers ownership of the contract to a new account (`newOwner`). Can only be called by the current owner."
      }
    },
    "version": 1
  },
  "userdoc": {
    "kind": "user",
    "methods": {},
    "version": 1
  },
  "storageLayout": {
    "storage": [
      {
        "astId": 114,
        "contract": "contracts/CapitalAgent.sol:CapitalAgent",
        "label": "_status",
        "offset": 0,
        "slot": "0",
        "type": "t_uint256"
      },
      {
        "astId": 7,
        "contract": "contracts/CapitalAgent.sol:CapitalAgent",
        "label": "_owner",
        "offset": 0,
        "slot": "1",
        "type": "t_address"
      },
      {
        "astId": 2418,
        "contract": "contracts/CapitalAgent.sol:CapitalAgent",
        "label": "exchangeAgent",
        "offset": 0,
        "slot": "2",
        "type": "t_address"
      },
      {
        "astId": 2420,
        "contract": "contracts/CapitalAgent.sol:CapitalAgent",
        "label": "salesPolicyFactory",
        "offset": 0,
        "slot": "3",
        "type": "t_address"
      },
      {
        "astId": 2422,
        "contract": "contracts/CapitalAgent.sol:CapitalAgent",
        "label": "UNO_TOKEN",
        "offset": 0,
        "slot": "4",
        "type": "t_address"
      },
      {
        "astId": 2424,
        "contract": "contracts/CapitalAgent.sol:CapitalAgent",
        "label": "USDC_TOKEN",
        "offset": 0,
        "slot": "5",
        "type": "t_address"
      },
      {
        "astId": 2426,
        "contract": "contracts/CapitalAgent.sol:CapitalAgent",
        "label": "operator",
        "offset": 0,
        "slot": "6",
        "type": "t_address"
      },
      {
        "astId": 2447,
        "contract": "contracts/CapitalAgent.sol:CapitalAgent",
        "label": "poolInfo",
        "offset": 0,
        "slot": "7",
        "type": "t_mapping(t_address,t_struct(PoolInfo)2435_storage)"
      },
      {
        "astId": 2449,
        "contract": "contracts/CapitalAgent.sol:CapitalAgent",
        "label": "totalCapitalStaked",
        "offset": 0,
        "slot": "8",
        "type": "t_uint256"
      },
      {
        "astId": 2452,
        "contract": "contracts/CapitalAgent.sol:CapitalAgent",
        "label": "policyInfo",
        "offset": 0,
        "slot": "9",
        "type": "t_struct(PolicyInfo)2442_storage"
      },
      {
        "astId": 2454,
        "contract": "contracts/CapitalAgent.sol:CapitalAgent",
        "label": "totalUtilizedAmount",
        "offset": 0,
        "slot": "12",
        "type": "t_uint256"
      },
      {
        "astId": 2456,
        "contract": "contracts/CapitalAgent.sol:CapitalAgent",
        "label": "MCR",
        "offset": 0,
        "slot": "13",
        "type": "t_uint256"
      },
      {
        "astId": 2458,
        "contract": "contracts/CapitalAgent.sol:CapitalAgent",
        "label": "MLR",
        "offset": 0,
        "slot": "14",
        "type": "t_uint256"
      },
      {
        "astId": 2461,
        "contract": "contracts/CapitalAgent.sol:CapitalAgent",
        "label": "CALC_PRECISION",
        "offset": 0,
        "slot": "15",
        "type": "t_uint256"
      },
      {
        "astId": 2465,
        "contract": "contracts/CapitalAgent.sol:CapitalAgent",
        "label": "poolWhiteList",
        "offset": 0,
        "slot": "16",
        "type": "t_mapping(t_address,t_bool)"
      }
    ],
    "types": {
      "t_address": {
        "encoding": "inplace",
        "label": "address",
        "numberOfBytes": "20"
      },
      "t_bool": {
        "encoding": "inplace",
        "label": "bool",
        "numberOfBytes": "1"
      },
      "t_mapping(t_address,t_bool)": {
        "encoding": "mapping",
        "key": "t_address",
        "label": "mapping(address => bool)",
        "numberOfBytes": "32",
        "value": "t_bool"
      },
      "t_mapping(t_address,t_struct(PoolInfo)2435_storage)": {
        "encoding": "mapping",
        "key": "t_address",
        "label": "mapping(address => struct CapitalAgent.PoolInfo)",
        "numberOfBytes": "32",
        "value": "t_struct(PoolInfo)2435_storage"
      },
      "t_struct(PolicyInfo)2442_storage": {
        "encoding": "inplace",
        "label": "struct CapitalAgent.PolicyInfo",
        "members": [
          {
            "astId": 2437,
            "contract": "contracts/CapitalAgent.sol:CapitalAgent",
            "label": "policy",
            "offset": 0,
            "slot": "0",
            "type": "t_address"
          },
          {
            "astId": 2439,
            "contract": "contracts/CapitalAgent.sol:CapitalAgent",
            "label": "utilizedAmount",
            "offset": 0,
            "slot": "1",
            "type": "t_uint256"
          },
          {
            "astId": 2441,
            "contract": "contracts/CapitalAgent.sol:CapitalAgent",
            "label": "exist",
            "offset": 0,
            "slot": "2",
            "type": "t_bool"
          }
        ],
        "numberOfBytes": "96"
      },
      "t_struct(PoolInfo)2435_storage": {
        "encoding": "inplace",
        "label": "struct CapitalAgent.PoolInfo",
        "members": [
          {
            "astId": 2428,
            "contract": "contracts/CapitalAgent.sol:CapitalAgent",
            "label": "totalCapital",
            "offset": 0,
            "slot": "0",
            "type": "t_uint256"
          },
          {
            "astId": 2430,
            "contract": "contracts/CapitalAgent.sol:CapitalAgent",
            "label": "SCR",
            "offset": 0,
            "slot": "1",
            "type": "t_uint256"
          },
          {
            "astId": 2432,
            "contract": "contracts/CapitalAgent.sol:CapitalAgent",
            "label": "currency",
            "offset": 0,
            "slot": "2",
            "type": "t_address"
          },
          {
            "astId": 2434,
            "contract": "contracts/CapitalAgent.sol:CapitalAgent",
            "label": "exist",
            "offset": 20,
            "slot": "2",
            "type": "t_bool"
          }
        ],
        "numberOfBytes": "96"
      },
      "t_uint256": {
        "encoding": "inplace",
        "label": "uint256",
        "numberOfBytes": "32"
      }
    }
  }
}