{
  "address": "0x6b16284828F6AC22597890b0Fdab434D93a4048c",
  "abi": [
    {
      "inputs": [
        {
          "internalType": "address",
          "name": "_exchangeAgent",
          "type": "address"
        },
        {
          "internalType": "address",
          "name": "_UNO_TOKEN",
          "type": "address"
        },
        {
          "internalType": "address",
          "name": "_USDC_TOKEN",
          "type": "address"
        },
        {
          "internalType": "address",
          "name": "_multiSigWallet",
          "type": "address"
        },
        {
          "internalType": "address",
          "name": "_operator",
          "type": "address"
        }
      ],
      "stateMutability": "nonpayable",
      "type": "constructor"
    },
    {
      "anonymous": false,
      "inputs": [
        {
          "indexed": true,
          "internalType": "address",
          "name": "_ssip",
          "type": "address"
        }
      ],
      "name": "LogAddPool",
      "type": "event"
    },
    {
      "anonymous": false,
      "inputs": [
        {
          "indexed": true,
          "internalType": "address",
          "name": "_pool",
          "type": "address"
        }
      ],
      "name": "LogAddPoolWhiteList",
      "type": "event"
    },
    {
      "anonymous": false,
      "inputs": [
        {
          "indexed": true,
          "internalType": "address",
          "name": "_policy",
          "type": "address"
        },
        {
          "indexed": false,
          "internalType": "uint256",
          "name": "_policyTokenId",
          "type": "uint256"
        }
      ],
      "name": "LogMarkToClaimPolicy",
      "type": "event"
    },
    {
      "anonymous": false,
      "inputs": [
        {
          "indexed": true,
          "internalType": "address",
          "name": "_salesPolicy",
          "type": "address"
        }
      ],
      "name": "LogRemovePolicy",
      "type": "event"
    },
    {
      "anonymous": false,
      "inputs": [
        {
          "indexed": true,
          "internalType": "address",
          "name": "_ssip",
          "type": "address"
        }
      ],
      "name": "LogRemovePool",
      "type": "event"
    },
    {
      "anonymous": false,
      "inputs": [
        {
          "indexed": true,
          "internalType": "address",
          "name": "_pool",
          "type": "address"
        }
      ],
      "name": "LogRemovePoolWhiteList",
      "type": "event"
    },
    {
      "anonymous": false,
      "inputs": [
        {
          "indexed": true,
          "internalType": "address",
          "name": "_owner",
          "type": "address"
        },
        {
          "indexed": true,
          "internalType": "address",
          "name": "_capitalAgent",
          "type": "address"
        },
        {
          "indexed": false,
          "internalType": "address",
          "name": "_exchangeAgent",
          "type": "address"
        }
      ],
      "name": "LogSetExchangeAgent",
      "type": "event"
    },
    {
      "anonymous": false,
      "inputs": [
        {
          "indexed": true,
          "internalType": "address",
          "name": "_owner",
          "type": "address"
        },
        {
          "indexed": true,
          "internalType": "address",
          "name": "_capitalAgent",
          "type": "address"
        },
        {
          "indexed": false,
          "internalType": "uint256",
          "name": "_MCR",
          "type": "uint256"
        }
      ],
      "name": "LogSetMCR",
      "type": "event"
    },
    {
      "anonymous": false,
      "inputs": [
        {
          "indexed": true,
          "internalType": "address",
          "name": "_owner",
          "type": "address"
        },
        {
          "indexed": true,
          "internalType": "address",
          "name": "_capitalAgent",
          "type": "address"
        },
        {
          "indexed": false,
          "internalType": "uint256",
          "name": "_MLR",
          "type": "uint256"
        }
      ],
      "name": "LogSetMLR",
      "type": "event"
    },
    {
      "anonymous": false,
      "inputs": [
        {
          "indexed": true,
          "internalType": "address",
          "name": "_operator",
          "type": "address"
        }
      ],
      "name": "LogSetOperator",
      "type": "event"
    },
    {
      "anonymous": false,
      "inputs": [
        {
          "indexed": true,
          "internalType": "address",
          "name": "_salesPolicy",
          "type": "address"
        }
      ],
      "name": "LogSetPolicy",
      "type": "event"
    },
    {
      "anonymous": false,
      "inputs": [
        {
          "indexed": true,
          "internalType": "address",
          "name": "_factory",
          "type": "address"
        }
      ],
      "name": "LogSetSalesPolicyFactory",
      "type": "event"
    },
    {
      "anonymous": false,
      "inputs": [
        {
          "indexed": true,
          "internalType": "address",
          "name": "_policy",
          "type": "address"
        },
        {
          "indexed": false,
          "internalType": "uint256",
          "name": "_amount",
          "type": "uint256"
        },
        {
          "indexed": false,
          "internalType": "uint256",
          "name": "_policyUtilized",
          "type": "uint256"
        },
        {
          "indexed": false,
          "internalType": "uint256",
          "name": "_totalUtilizedAmount",
          "type": "uint256"
        }
      ],
      "name": "LogUpdatePolicyCoverage",
      "type": "event"
    },
    {
      "anonymous": false,
      "inputs": [
        {
          "indexed": true,
          "internalType": "address",
          "name": "_policy",
          "type": "address"
        },
        {
          "indexed": false,
          "internalType": "uint256",
          "name": "_policyTokenId",
          "type": "uint256"
        }
      ],
      "name": "LogUpdatePolicyExpired",
      "type": "event"
    },
    {
      "anonymous": false,
      "inputs": [
        {
          "indexed": true,
          "internalType": "address",
          "name": "_ssip",
          "type": "address"
        },
        {
          "indexed": false,
          "internalType": "uint256",
          "name": "_poolCapital",
          "type": "uint256"
        },
        {
          "indexed": false,
          "internalType": "uint256",
          "name": "_totalCapital",
          "type": "uint256"
        }
      ],
      "name": "LogUpdatePoolCapital",
      "type": "event"
    },
    {
      "anonymous": false,
      "inputs": [
        {
          "indexed": true,
          "internalType": "address",
          "name": "previousOwner",
          "type": "address"
        },
        {
          "indexed": true,
          "internalType": "address",
          "name": "newOwner",
          "type": "address"
        }
      ],
      "name": "OwnershipTransferred",
      "type": "event"
    },
    {
      "inputs": [],
      "name": "CALC_PRECISION",
      "outputs": [
        {
          "internalType": "uint256",
          "name": "",
          "type": "uint256"
        }
      ],
      "stateMutability": "view",
      "type": "function"
    },
    {
      "inputs": [],
      "name": "MCR",
      "outputs": [
        {
          "internalType": "uint256",
          "name": "",
          "type": "uint256"
        }
      ],
      "stateMutability": "view",
      "type": "function"
    },
    {
      "inputs": [],
      "name": "MLR",
      "outputs": [
        {
          "internalType": "uint256",
          "name": "",
          "type": "uint256"
        }
      ],
      "stateMutability": "view",
      "type": "function"
    },
    {
      "inputs": [
        {
          "internalType": "uint256",
          "name": "_withdrawAmount",
          "type": "uint256"
        }
      ],
      "name": "SSIPPolicyCaim",
      "outputs": [],
      "stateMutability": "nonpayable",
      "type": "function"
    },
    {
      "inputs": [
        {
          "internalType": "uint256",
          "name": "_stakingAmount",
          "type": "uint256"
        }
      ],
      "name": "SSIPStaking",
      "outputs": [],
      "stateMutability": "nonpayable",
      "type": "function"
    },
    {
      "inputs": [
        {
          "internalType": "uint256",
          "name": "_withdrawAmount",
          "type": "uint256"
        }
      ],
      "name": "SSIPWithdraw",
      "outputs": [],
      "stateMutability": "nonpayable",
      "type": "function"
    },
    {
      "inputs": [],
      "name": "UNO_TOKEN",
      "outputs": [
        {
          "internalType": "address",
          "name": "",
          "type": "address"
        }
      ],
      "stateMutability": "view",
      "type": "function"
    },
    {
      "inputs": [],
      "name": "USDC_TOKEN",
      "outputs": [
        {
          "internalType": "address",
          "name": "",
          "type": "address"
        }
      ],
      "stateMutability": "view",
      "type": "function"
    },
    {
      "inputs": [
        {
          "internalType": "address",
          "name": "_ssip",
          "type": "address"
        },
        {
          "internalType": "address",
          "name": "_currency",
          "type": "address"
        }
      ],
      "name": "addPool",
      "outputs": [],
      "stateMutability": "nonpayable",
      "type": "function"
    },
    {
      "inputs": [
        {
          "internalType": "address",
          "name": "_ssip",
          "type": "address"
        },
        {
          "internalType": "address",
          "name": "_currency",
          "type": "address"
        }
      ],
      "name": "addPoolByAdmin",
      "outputs": [],
      "stateMutability": "nonpayable",
      "type": "function"
    },
    {
      "inputs": [
        {
          "internalType": "address",
          "name": "_pool",
          "type": "address"
        }
      ],
      "name": "addPoolWhiteList",
      "outputs": [],
      "stateMutability": "nonpayable",
      "type": "function"
    },
    {
      "inputs": [
        {
          "internalType": "address",
          "name": "_pool",
          "type": "address"
        },
        {
          "internalType": "uint256",
          "name": "_withdrawAmount",
          "type": "uint256"
        }
      ],
      "name": "checkCapitalByMCR",
      "outputs": [
        {
          "internalType": "bool",
          "name": "",
          "type": "bool"
        }
      ],
      "stateMutability": "view",
      "type": "function"
    },
    {
      "inputs": [
        {
          "internalType": "uint256",
          "name": "_coverageAmount",
          "type": "uint256"
        }
      ],
      "name": "checkCoverageByMLR",
      "outputs": [
        {
          "internalType": "bool",
          "name": "",
          "type": "bool"
        }
      ],
      "stateMutability": "view",
      "type": "function"
    },
    {
      "inputs": [],
      "name": "exchangeAgent",
      "outputs": [
        {
          "internalType": "address",
          "name": "",
          "type": "address"
        }
      ],
      "stateMutability": "view",
      "type": "function"
    },
    {
      "inputs": [
        {
          "internalType": "uint256",
          "name": "_policyId",
          "type": "uint256"
        }
      ],
      "name": "markToClaimPolicy",
      "outputs": [],
      "stateMutability": "nonpayable",
      "type": "function"
    },
    {
      "inputs": [],
      "name": "operator",
      "outputs": [
        {
          "internalType": "address",
          "name": "",
          "type": "address"
        }
      ],
      "stateMutability": "view",
      "type": "function"
    },
    {
      "inputs": [],
      "name": "owner",
      "outputs": [
        {
          "internalType": "address",
          "name": "",
          "type": "address"
        }
      ],
      "stateMutability": "view",
      "type": "function"
    },
    {
      "inputs": [],
      "name": "policyInfo",
      "outputs": [
        {
          "internalType": "address",
          "name": "policy",
          "type": "address"
        },
        {
          "internalType": "uint256",
          "name": "utilizedAmount",
          "type": "uint256"
        },
        {
          "internalType": "bool",
          "name": "exist",
          "type": "bool"
        }
      ],
      "stateMutability": "view",
      "type": "function"
    },
    {
      "inputs": [
        {
          "internalType": "uint256",
          "name": "_coverageAmount",
          "type": "uint256"
        }
      ],
      "name": "policySale",
      "outputs": [],
      "stateMutability": "nonpayable",
      "type": "function"
    },
    {
      "inputs": [
        {
          "internalType": "address",
          "name": "",
          "type": "address"
        }
      ],
      "name": "poolInfo",
      "outputs": [
        {
          "internalType": "uint256",
          "name": "totalCapital",
          "type": "uint256"
        },
        {
          "internalType": "address",
          "name": "currency",
          "type": "address"
        },
        {
          "internalType": "bool",
          "name": "exist",
          "type": "bool"
        }
      ],
      "stateMutability": "view",
      "type": "function"
    },
    {
      "inputs": [
        {
          "internalType": "address",
          "name": "",
          "type": "address"
        }
      ],
      "name": "poolWhiteList",
      "outputs": [
        {
          "internalType": "bool",
          "name": "",
          "type": "bool"
        }
      ],
      "stateMutability": "view",
      "type": "function"
    },
    {
      "inputs": [],
      "name": "removePolicy",
      "outputs": [],
      "stateMutability": "nonpayable",
      "type": "function"
    },
    {
      "inputs": [
        {
          "internalType": "address",
          "name": "_ssip",
          "type": "address"
        }
      ],
      "name": "removePool",
      "outputs": [],
      "stateMutability": "nonpayable",
      "type": "function"
    },
    {
      "inputs": [
        {
          "internalType": "address",
          "name": "_pool",
          "type": "address"
        }
      ],
      "name": "removePoolWhiteList",
      "outputs": [],
      "stateMutability": "nonpayable",
      "type": "function"
    },
    {
      "inputs": [],
      "name": "renounceOwnership",
      "outputs": [],
      "stateMutability": "nonpayable",
      "type": "function"
    },
    {
      "inputs": [],
      "name": "salesPolicyFactory",
      "outputs": [
        {
          "internalType": "address",
          "name": "",
          "type": "address"
        }
      ],
      "stateMutability": "view",
      "type": "function"
    },
    {
      "inputs": [
        {
          "internalType": "address",
          "name": "_exchangeAgent",
          "type": "address"
        }
      ],
      "name": "setExchangeAgent",
      "outputs": [],
      "stateMutability": "nonpayable",
      "type": "function"
    },
    {
      "inputs": [
        {
          "internalType": "uint256",
          "name": "_MCR",
          "type": "uint256"
        }
      ],
      "name": "setMCR",
      "outputs": [],
      "stateMutability": "nonpayable",
      "type": "function"
    },
    {
      "inputs": [
        {
          "internalType": "uint256",
          "name": "_MLR",
          "type": "uint256"
        }
      ],
      "name": "setMLR",
      "outputs": [],
      "stateMutability": "nonpayable",
      "type": "function"
    },
    {
      "inputs": [
        {
          "internalType": "address",
          "name": "_operator",
          "type": "address"
        }
      ],
      "name": "setOperator",
      "outputs": [],
      "stateMutability": "nonpayable",
      "type": "function"
    },
    {
      "inputs": [
        {
          "internalType": "address",
          "name": "_policy",
          "type": "address"
        }
      ],
      "name": "setPolicy",
      "outputs": [],
      "stateMutability": "nonpayable",
      "type": "function"
    },
    {
      "inputs": [
        {
          "internalType": "address",
          "name": "_policy",
          "type": "address"
        }
      ],
      "name": "setPolicyByAdmin",
      "outputs": [],
      "stateMutability": "nonpayable",
      "type": "function"
    },
    {
      "inputs": [
        {
          "internalType": "address",
          "name": "_factory",
          "type": "address"
        }
      ],
      "name": "setSalesPolicyFactory",
      "outputs": [],
      "stateMutability": "nonpayable",
      "type": "function"
    },
    {
      "inputs": [],
      "name": "totalCapitalStaked",
      "outputs": [
        {
          "internalType": "uint256",
          "name": "",
          "type": "uint256"
        }
      ],
      "stateMutability": "view",
      "type": "function"
    },
    {
      "inputs": [],
      "name": "totalUtilizedAmount",
      "outputs": [
        {
          "internalType": "uint256",
          "name": "",
          "type": "uint256"
        }
      ],
      "stateMutability": "view",
      "type": "function"
    },
    {
      "inputs": [
        {
          "internalType": "address",
          "name": "newOwner",
          "type": "address"
        }
      ],
      "name": "transferOwnership",
      "outputs": [],
      "stateMutability": "nonpayable",
      "type": "function"
    },
    {
      "inputs": [
        {
          "internalType": "uint256",
          "name": "_policyId",
          "type": "uint256"
        }
      ],
      "name": "updatePolicyStatus",
      "outputs": [],
      "stateMutability": "nonpayable",
      "type": "function"
    }
  ],
  "transactionHash": "0xaae0de1ccfcd0703a20992b7e6cb6552631b20aa1a730414e0fe8d5d084cd617",
  "args": [
    "0x34Bb884F2B45F614067Df55AD58c0DDdaeff9408",
    "0x53fb43BaE4C13d6AFAD37fB37c3fC49f3Af433F5",
    "0x40c035016AD732b6cFce34c3F881040B6C6cf71E",
    "0x53819C211EC8FFD5885C301EfAa75E420b3c5Fbe",
    "0x5569BDF4e02cec3fE459796e3d0e741616029fA4"
  ],
  "solcInputHash": "f90f522f58a98379fa78a375edb9fda4",
  "bytecode": "0x6080604052670de0b6b3a7640000600f553480156200001d57600080fd5b506040516200299d3803806200299d833981016040819052620000409162000265565b6001600055620000596200005362000166565b6200016a565b6001600160a01b0385166200008b5760405162461bcd60e51b8152600401620000829062000393565b60405180910390fd5b6001600160a01b038416620000b45760405162461bcd60e51b8152600401620000829062000409565b6001600160a01b038316620000dd5760405162461bcd60e51b815260040162000082906200035c565b6001600160a01b038216620001065760405162461bcd60e51b815260040162000082906200031a565b600280546001600160a01b038088166001600160a01b031992831617909255600480548784169083161790556005805486841690831617905560068054928416929091169190911790556200015b82620001bc565b505050505062000440565b3390565b600180546001600160a01b038381166001600160a01b0319831681179093556040519116919082907f8be0079c531659141344cd1fd0a4f28419497f9722a3daafe3b4186f6b6457e090600090a35050565b620001c662000166565b6001600160a01b0316620001d962000239565b6001600160a01b031614620002025760405162461bcd60e51b81526004016200008290620003d4565b6001600160a01b0381166200022b5760405162461bcd60e51b81526004016200008290620002d4565b62000236816200016a565b50565b6001546001600160a01b031690565b80516001600160a01b03811681146200026057600080fd5b919050565b600080600080600060a086880312156200027d578081fd5b620002888662000248565b9450620002986020870162000248565b9350620002a86040870162000248565b9250620002b86060870162000248565b9150620002c86080870162000248565b90509295509295909350565b60208082526026908201527f4f776e61626c653a206e6577206f776e657220697320746865207a65726f206160408201526564647265737360d01b606082015260800190565b60208082526022908201527f556e6f52653a207a65726f206d756c746973696777616c6c6574206164647265604082015261737360f01b606082015260800190565b60208082526018908201527f556e6f52653a207a65726f205553444320616464726573730000000000000000604082015260600190565b60208082526021908201527f556e6f52653a207a65726f2065786368616e67654167656e74206164647265736040820152607360f81b606082015260800190565b6020808252818101527f4f776e61626c653a2063616c6c6572206973206e6f7420746865206f776e6572604082015260600190565b60208082526017908201527f556e6f52653a207a65726f20554e4f2061646472657373000000000000000000604082015260600190565b61254d80620004506000396000f3fe608060405234801561001057600080fd5b50600436106102775760003560e01c80638c06dda611610160578063b3d7f728116100d8578063d8c5c8631161008c578063eb511dd411610071578063eb511dd4146104c3578063f2fde38b146104d6578063fa569274146104e957610277565b8063d8c5c863146104a8578063d9203b91146104bb57610277565b8063c139b04f116100bd578063c139b04f1461047a578063c3ea3a281461048d578063d4688a45146104a057610277565b8063b3d7f72814610454578063be22041b1461046757610277565b80639a7b5f111161012f578063a65888fb11610114578063a65888fb1461041b578063a88d2f7a1461042e578063b3ab15fb1461044157610277565b80639a7b5f11146103e6578063a0931af21461040857610277565b80638c06dda6146103ac5780638da5cb5b146103bf57806392ff38ec146103c7578063974e4d85146103cf57610277565b8063570ca735116101f3578063794e5724116101c2578063869bd44a116101a7578063869bd44a1461037e5780638bb70831146103915780638be5a39f1461039957610277565b8063794e5724146103635780637d4163d31461036b57610277565b8063570ca735146103385780635b44d5761461034057806365cb3a8314610353578063715018a61461035b57610277565b806336760a1c1161024a5780633b7d09461161022f5780633b7d0946146102fd5780634a3a3d14146103105780634dc70bac1461032357610277565b806336760a1c146102e2578063385a128f146102ea57610277565b80630f97b97b1461027c57806318a00d8e1461029a5780631dfa426d146102af57806325042fe9146102c2575b600080fd5b6102846104f1565b6040516102919190611e4f565b60405180910390f35b6102ad6102a8366004611d7d565b610500565b005b6102ad6102bd366004611d7d565b6105f5565b6102d56102d0366004611d7d565b6106fd565b6040516102919190611ec3565b610284610712565b6102ad6102f8366004611df2565b610721565b6102ad61030b366004611d7d565b6107c9565b6102ad61031e366004611d7d565b610952565b61032b610a65565b6040516102919190612445565b610284610a6b565b6102ad61034e366004611df2565b610a7a565b6102ad610b14565b6102ad610c18565b61032b610c63565b6102ad610379366004611d7d565b610c69565b6102ad61038c366004611df2565b610ce3565b61032b610eb4565b6102ad6103a7366004611df2565b610eba565b6102ad6103ba366004611d97565b610f26565b610284611082565b61032b611091565b6103d7611097565b60405161029193929190611ea0565b6103f96103f4366004611d7d565b6110b2565b6040516102919392919061244e565b6102ad610416366004611df2565b6110e0565b6102ad610429366004611d7d565b611184565b6102ad61043c366004611d7d565b61129b565b6102ad61044f366004611d7d565b611377565b6102ad610462366004611df2565b611453565b6102ad610475366004611df2565b6114b3565b6102d5610488366004611dc9565b611666565b6102d561049b366004611df2565b611679565b61032b61168c565b6102ad6104b6366004611df2565b611692565b61028461173a565b6102ad6104d1366004611d97565b611749565b6102ad6104e4366004611d7d565b611778565b6102846117e9565b6004546001600160a01b031681565b6105086117f8565b6001600160a01b0316610519611082565b6001600160a01b0316146105485760405162461bcd60e51b815260040161053f90612260565b60405180910390fd5b6002600054141561056b5760405162461bcd60e51b815260040161053f906123a2565b60026000556001600160a01b0381166105965760405162461bcd60e51b815260040161053f90611fce565b600280546001600160a01b0319166001600160a01b038316179055604051309033907f28e0ff29ad991f2655c48b0b095a69abbf13aec6c8bc181dd526dbb3f8c9d0b9906105e5908590611e4f565b60405180910390a3506001600055565b6105fd6117f8565b6001600160a01b031661060e611082565b6001600160a01b0316146106345760405162461bcd60e51b815260040161053f90612260565b600260005414156106575760405162461bcd60e51b815260040161053f906123a2565b60026000556001600160a01b0381166106825760405162461bcd60e51b815260040161053f90611fce565b604080516060810182526001600160a01b0383168082526000602083018190526001928401839052600980546001600160a01b03191683179055600a819055600b805460ff191690931790925591517f8ba1947a8c64577d7adbd8cbc248c72b68738fe23afef984d842ba5ec5af5cfe9190a2506001600055565b60106020526000908152604090205460ff1681565b6003546001600160a01b031681565b6006546001600160a01b0316331461074b5760405162461bcd60e51b815260040161053f90611f3a565b6002600054141561076e5760405162461bcd60e51b815260040161053f906123a2565b6002600055806107905760405162461bcd60e51b815260040161053f9061203c565b600d819055604051309033907fa55ee73f4232498ac4c250ffa77f4337343a213648a66147d8848f6660fa3fdf906105e5908590612445565b6107d16117f8565b6001600160a01b03166107e2611082565b6001600160a01b0316146108085760405162461bcd60e51b815260040161053f90612260565b6002600054141561082b5760405162461bcd60e51b815260040161053f906123a2565b60026000556001600160a01b0381166108565760405162461bcd60e51b815260040161053f90611fce565b6001600160a01b038116600090815260076020526040902060010154600160a01b900460ff166108985760405162461bcd60e51b815260040161053f906121bd565b6001600160a01b038116600090815260076020526040902054156108e0576001600160a01b0381166000908152600760205260409020546008546108dc91906124ea565b6008555b6001600160a01b03811660008181526007602052604080822082815560010180547fffffffffffffffffffffff000000000000000000000000000000000000000000169055517ff54e47602c09e6190ae0c9cba6074e2e211bf36944fd714fbb0bd78aba514cab9190a2506001600055565b61095a6117f8565b6001600160a01b031661096b611082565b6001600160a01b0316146109915760405162461bcd60e51b815260040161053f90612260565b600260005414156109b45760405162461bcd60e51b815260040161053f906123a2565b60026000556001600160a01b0381166109df5760405162461bcd60e51b815260040161053f906120e1565b6001600160a01b03811660009081526010602052604090205460ff16610a175760405162461bcd60e51b815260040161053f90611ece565b6001600160a01b038116600081815260106020526040808220805460ff19169055517f4151e001c03bfed83a194d10eea2c0edf04f98e382c440c94a947a99d38d2c329190a2506001600055565b600f5481565b6006546001600160a01b031681565b60026000541415610a9d5760405162461bcd60e51b815260040161053f906123a2565b6002600090815533815260076020526040902060010154600160a01b900460ff16610ada5760405162461bcd60e51b815260040161053f9061236b565b610ae433826117fc565b610b005760405162461bcd60e51b815260040161053f906121f4565b610b0c3382600061198e565b506001600055565b610b1c6117f8565b6001600160a01b0316610b2d611082565b6001600160a01b031614610b535760405162461bcd60e51b815260040161053f90612260565b60026000541415610b765760405162461bcd60e51b815260040161053f906123a2565b6002600055600b5460ff16610b9d5760405162461bcd60e51b815260040161053f906121bd565b600a5415610bb957600a54600c54610bb591906124ea565b6008555b600980546001600160a01b03198116909155600b805460ff191690556000600a8190556040516001600160a01b039092169182917fffb315d96bed6cc0b00a9cc39d15fcbcab7d047fca09660a2d73569cfc75817c91a2506001600055565b610c206117f8565b6001600160a01b0316610c31611082565b6001600160a01b031614610c575760405162461bcd60e51b815260040161053f90612260565b610c616000611c14565b565b600d5481565b60026000541415610c8c5760405162461bcd60e51b815260040161053f906123a2565b60026000556003546001600160a01b0316610cb95760405162461bcd60e51b815260040161053f90612295565b6003546001600160a01b031633146106825760405162461bcd60e51b815260040161053f9061230e565b610ceb6117f8565b6001600160a01b0316610cfc611082565b6001600160a01b031614610d225760405162461bcd60e51b815260040161053f90612260565b60026000541415610d455760405162461bcd60e51b815260040161053f906123a2565b60026000556009546001600160a01b0316610d725760405162461bcd60e51b815260040161053f90612005565b600954604051637a5402e960e01b81526000916001600160a01b031690637a5402e990610da3908590600401612445565b60606040518083038186803b158015610dbb57600080fd5b505afa158015610dcf573d6000803e3d6000fd5b505050506040513d601f19601f82011682018060405250810190610df39190611e22565b50509050610e02816000611c66565b6009546040516319d9b48f60e11b81526001600160a01b03909116906333b3691e90610e32908590600401612445565b600060405180830381600087803b158015610e4c57600080fd5b505af1158015610e60573d6000803e3d6000fd5b50506009546040516001600160a01b0390911692507f56b46e5b13fdb3c0b1989f448e91b2ad68cf0c8e8ddd87f996720708ae3a15699150610ea3908590612445565b60405180910390a250506001600055565b600e5481565b60026000541415610edd5760405162461bcd60e51b815260040161053f906123a2565b6002600090815533815260076020526040902060010154600160a01b900460ff16610f1a5760405162461bcd60e51b815260040161053f9061236b565b610b0c3382600161198e565b610f2e6117f8565b6001600160a01b0316610f3f611082565b6001600160a01b031614610f655760405162461bcd60e51b815260040161053f90612260565b6001600160a01b038216610f8b5760405162461bcd60e51b815260040161053f90611fce565b6001600160a01b038216600090815260076020526040902060010154600160a01b900460ff1615610fce5760405162461bcd60e51b815260040161053f90612186565b6040805160608101825260008082526001600160a01b038481166020808501918252600185870181815289851680875260079093528786209651875592519501805492516001600160a01b031990931695909316949094177fffffffffffffffffffffff00ffffffffffffffffffffffffffffffffffffffff16600160a01b91151591909102179055915190917f0efea706f79fea31d38bda2770598b35fe0bf3c0332f91d3fb62bf987f3b2e3391a25050565b6001546001600160a01b031690565b60085481565b600954600a54600b546001600160a01b039092169160ff1683565b600760205260009081526040902080546001909101546001600160a01b03811690600160a01b900460ff1683565b600260005414156111035760405162461bcd60e51b815260040161053f906123a2565b60026000556009546001600160a01b031633146111325760405162461bcd60e51b815260040161053f90612410565b600b5460ff166111545760405162461bcd60e51b815260040161053f906122d7565b61115d81611d31565b6111795760405162461bcd60e51b815260040161053f90611f05565b610b0c816001611c66565b61118c6117f8565b6001600160a01b031661119d611082565b6001600160a01b0316146111c35760405162461bcd60e51b815260040161053f90612260565b600260005414156111e65760405162461bcd60e51b815260040161053f906123a2565b60026000556001600160a01b0381166112115760405162461bcd60e51b815260040161053f906120e1565b6001600160a01b03811660009081526010602052604090205460ff161561124a5760405162461bcd60e51b815260040161053f906120aa565b6001600160a01b038116600081815260106020526040808220805460ff19166001179055517f398e8e2ed05e6be725398a28e81fdf023a447b92941bd666e68ce2091b82bcc79190a2506001600055565b6112a36117f8565b6001600160a01b03166112b4611082565b6001600160a01b0316146112da5760405162461bcd60e51b815260040161053f90612260565b600260005414156112fd5760405162461bcd60e51b815260040161053f906123a2565b60026000556001600160a01b0381166113285760405162461bcd60e51b815260040161053f90612229565b600380546001600160a01b0319166001600160a01b0383169081179091556040517f6507596e94e343212d1c22479359f82fffb65f099deb3ebcae9eb33c3d06de9e90600090a2506001600055565b61137f6117f8565b6001600160a01b0316611390611082565b6001600160a01b0316146113b65760405162461bcd60e51b815260040161053f90612260565b600260005414156113d95760405162461bcd60e51b815260040161053f906123a2565b60026000556001600160a01b0381166114045760405162461bcd60e51b815260040161053f90612118565b600680546001600160a01b0319166001600160a01b0383169081179091556040517f08c5d29613b4e7468e893fe5f104f5a3ea6e28298f00fbbab9dc9394578c89de90600090a2506001600055565b600260005414156114765760405162461bcd60e51b815260040161053f906123a2565b6002600090815533815260076020526040902060010154600160a01b900460ff16610b005760405162461bcd60e51b815260040161053f9061236b565b600260005414156114d65760405162461bcd60e51b815260040161053f906123a2565b60026000556009546001600160a01b03166115035760405162461bcd60e51b815260040161053f90612005565b600954604051637a5402e960e01b8152600091829182916001600160a01b031690637a5402e990611538908790600401612445565b60606040518083038186803b15801561155057600080fd5b505afa158015611564573d6000803e3d6000fd5b505050506040513d601f19601f820116820180604052508101906115889190611e22565b91945092509050600061159b8284612493565b42108015915061165a576115b0846000611c66565b6009546040516352eaf0a160e11b81526001600160a01b039091169063a5d5e142906115e0908890600401612445565b600060405180830381600087803b1580156115fa57600080fd5b505af115801561160e573d6000803e3d6000fd5b50506009546040516001600160a01b0390911692507faf1c77a8196c946ab8e645210cd1e2685b4fb758ddfd474fd918298854dea6fc9150611651908890612445565b60405180910390a25b50506001600055505050565b600061167283836117fc565b9392505050565b600061168482611d31565b90505b919050565b600c5481565b6006546001600160a01b031633146116bc5760405162461bcd60e51b815260040161053f90611f3a565b600260005414156116df5760405162461bcd60e51b815260040161053f906123a2565b6002600055806117015760405162461bcd60e51b815260040161053f9061214f565b600e819055604051309033907fb2f30bd42a6b499419a01b9b79e7b98934167f5a8a8c389ce446e20a8e5df765906105e5908590612445565b6002546001600160a01b031681565b3360009081526010602052604090205460ff16610f655760405162461bcd60e51b815260040161053f90611f3a565b6117806117f8565b6001600160a01b0316611791611082565b6001600160a01b0316146117b75760405162461bcd60e51b815260040161053f90612260565b6001600160a01b0381166117dd5760405162461bcd60e51b815260040161053f90611f71565b6117e681611c14565b50565b6005546001600160a01b031681565b3390565b6001600160a01b03808316600090815260076020526040812060010154600554919290811691839116821415611833575082611958565b6001600160a01b0382166118cc5760025460055460405163ba560ed960e01b81526001600160a01b039283169263ba560ed992611877929116908890600401611e87565b60206040518083038186803b15801561188f57600080fd5b505afa1580156118a3573d6000803e3d6000fd5b505050506040513d601f19601f820116820180604052508101906118c79190611e0a565b611955565b600254600554604051631a44cdf360e11b81526001600160a01b03928316926334899be692611905928792909116908990600401611e63565b60206040518083038186803b15801561191d57600080fd5b505afa158015611931573d6000803e3d6000fd5b505050506040513d601f19601f820116820180604052508101906119559190611e0a565b90505b600f54600d5460085461196b91906124cb565b61197591906124ab565b8160085461198391906124ea565b101595945050505050565b6001600160a01b0380841660009081526007602052604081206001015460055490831692168214156119c1575082611ae6565b6001600160a01b038216611a5a5760025460055460405163ba560ed960e01b81526001600160a01b039283169263ba560ed992611a05929116908890600401611e87565b60206040518083038186803b158015611a1d57600080fd5b505afa158015611a31573d6000803e3d6000fd5b505050506040513d601f19601f82011682018060405250810190611a559190611e0a565b611ae3565b600254600554604051631a44cdf360e11b81526001600160a01b03928316926334899be692611a93928792909116908990600401611e63565b60206040518083038186803b158015611aab57600080fd5b505afa158015611abf573d6000803e3d6000fd5b505050506040513d601f19601f82011682018060405250810190611ae39190611e0a565b90505b82611b23576001600160a01b038516600090815260076020526040902054811115611b235760405162461bcd60e51b815260040161053f906123d9565b82611b51576001600160a01b038516600090815260076020526040902054611b4c9082906124ea565b611b75565b6001600160a01b038516600090815260076020526040902054611b75908290612493565b6001600160a01b03861660009081526007602052604090205582611ba65780600854611ba191906124ea565b611bb4565b80600854611bb49190612493565b60088190556001600160a01b0386166000818152600760205260409081902054905191927f4c54f63d510ce2f2f9bf99bf203458cb67aa75fae97ccab560a1654eba9dbf2492611c0592919061246f565b60405180910390a25050505050565b600180546001600160a01b038381166001600160a01b0319831681179093556040519116919082907f8be0079c531659141344cd1fd0a4f28419497f9722a3daafe3b4186f6b6457e090600090a35050565b80611c8d57600a54821115611c8d5760405162461bcd60e51b815260040161053f90612073565b80611ca557600a54611ca09083906124ea565b611cb3565b600a54611cb3908390612493565b600a5580611cce5781600c54611cc991906124ea565b611cdc565b81600c54611cdc9190612493565b600c819055600954600a546040516001600160a01b03909216927facece99dd8b86cb96519fb17caded4d103b35a8261463d0d11f80a411460730092611d25928792909161247d565b60405180910390a25050565b6000600f54600e54600854611d4691906124cb565b611d5091906124ab565b82600c54611d5e9190612493565b111592915050565b80356001600160a01b038116811461168757600080fd5b600060208284031215611d8e578081fd5b61167282611d66565b60008060408385031215611da9578081fd5b611db283611d66565b9150611dc060208401611d66565b90509250929050565b60008060408385031215611ddb578182fd5b611de483611d66565b946020939093013593505050565b600060208284031215611e03578081fd5b5035919050565b600060208284031215611e1b578081fd5b5051919050565b600080600060608486031215611e36578081fd5b8351925060208401519150604084015190509250925092565b6001600160a01b0391909116815260200190565b6001600160a01b039384168152919092166020820152604081019190915260600190565b6001600160a01b03929092168252602082015260400190565b6001600160a01b0393909316835260208301919091521515604082015260600190565b901515815260200190565b60208082526014908201527f556e6f52653a206e6f207768697465206c697374000000000000000000000000604082015260600190565b6020808252818101527f556e6f52653a206d6178696d756d206c65766572616765206f766572666c6f77604082015260600190565b6020808252601e908201527f556e6f52653a204361706974616c204167656e7420466f7262696464656e0000604082015260600190565b60208082526026908201527f4f776e61626c653a206e6577206f776e657220697320746865207a65726f206160408201527f6464726573730000000000000000000000000000000000000000000000000000606082015260800190565b60208082526013908201527f556e6f52653a207a65726f206164647265737300000000000000000000000000604082015260600190565b6020808252601b908201527f556e6f52653a206e6f2065786973742073616c6573506f6c6963790000000000604082015260600190565b6020808252600f908201527f556e6f52653a207a65726f206d63720000000000000000000000000000000000604082015260600190565b6020808252601f908201527f556e6f52653a20706f6c69637920636f766572616765206f766572666c6f7700604082015260600190565b60208082526019908201527f556e6f52653a207768697465206c69737420616c726561647900000000000000604082015260600190565b60208082526018908201527f556e6f52653a207a65726f20706f6f6c20616464726573730000000000000000604082015260600190565b6020808252601c908201527f556e6f52653a207a65726f206f70657261746f72206164647265737300000000604082015260600190565b6020808252600f908201527f556e6f52653a207a65726f206d6c720000000000000000000000000000000000604082015260600190565b60208082526019908201527f556e6f52653a20616c726561647920657869737420706f6f6c00000000000000604082015260600190565b60208082526013908201527f556e6f52653a206e6f206578697420706f6f6c00000000000000000000000000604082015260600190565b6020808252818101527f556e6f52653a206d696e696d756d206361706974616c20756e646572666c6f77604082015260600190565b6020808252601b908201527f556e6f52653a207a65726f20666163746f727920616464726573730000000000604082015260600190565b6020808252818101527f4f776e61626c653a2063616c6c6572206973206e6f7420746865206f776e6572604082015260600190565b60208082526022908201527f556e6f52653a206e6f742073657420666163746f727920616464726573732079604082015261195d60f21b606082015260800190565b60208082526016908201527f556e6f52653a206e6f20657869737420706f6c69637900000000000000000000604082015260600190565b60208082526027908201527f556e6f52653a206f6e6c792073616c6573506f6c696379466163746f7279206360408201527f616e2063616c6c00000000000000000000000000000000000000000000000000606082015260800190565b60208082526014908201527f556e6f52653a206e6f2065786973742073736970000000000000000000000000604082015260600190565b6020808252601f908201527f5265656e7472616e637947756172643a207265656e7472616e742063616c6c00604082015260600190565b6020808252601c908201527f556e6f52653a20706f6f6c206361706974616c206f766572666c6f7700000000604082015260600190565b6020808252818101527f556e6f52653a206f6e6c792073616c6573506f6c6963792063616e2063616c6c604082015260600190565b90815260200190565b9283526001600160a01b039190911660208301521515604082015260600190565b918252602082015260400190565b9283526020830191909152604082015260600190565b600082198211156124a6576124a6612501565b500190565b6000826124c657634e487b7160e01b81526012600452602481fd5b500490565b60008160001904831182151516156124e5576124e5612501565b500290565b6000828210156124fc576124fc612501565b500390565b634e487b7160e01b600052601160045260246000fdfea264697066735822122055fce69748e237577fff319c7e1dff697e28dcace177021933cb9acfe0c2662064736f6c63430008000033",
  "devdoc": {
    "kind": "dev",
    "methods": {
      "owner()": {
        "details": "Returns the address of the current owner."
      },
      "renounceOwnership()": {
        "details": "Leaves the contract without owner. It will not be possible to call `onlyOwner` functions anymore. Can only be called by the current owner. NOTE: Renouncing ownership will leave the contract without an owner, thereby removing any functionality that is only available to the owner."
      },
      "transferOwnership(address)": {
        "details": "Transfers ownership of the contract to a new account (`newOwner`). Can only be called by the current owner."
      }
    },
    "version": 1
  },
  "userdoc": {
    "kind": "user",
    "methods": {},
    "version": 1
  },
  "storageLayout": {
    "storage": [
      {
        "astId": 114,
        "contract": "contracts/CapitalAgent.sol:CapitalAgent",
        "label": "_status",
        "offset": 0,
        "slot": "0",
        "type": "t_uint256"
      },
      {
        "astId": 7,
        "contract": "contracts/CapitalAgent.sol:CapitalAgent",
        "label": "_owner",
        "offset": 0,
        "slot": "1",
        "type": "t_address"
      },
      {
        "astId": 2418,
        "contract": "contracts/CapitalAgent.sol:CapitalAgent",
        "label": "exchangeAgent",
        "offset": 0,
        "slot": "2",
        "type": "t_address"
      },
      {
        "astId": 2420,
        "contract": "contracts/CapitalAgent.sol:CapitalAgent",
        "label": "salesPolicyFactory",
        "offset": 0,
        "slot": "3",
        "type": "t_address"
      },
      {
        "astId": 2422,
        "contract": "contracts/CapitalAgent.sol:CapitalAgent",
        "label": "UNO_TOKEN",
        "offset": 0,
        "slot": "4",
        "type": "t_address"
      },
      {
        "astId": 2424,
        "contract": "contracts/CapitalAgent.sol:CapitalAgent",
        "label": "USDC_TOKEN",
        "offset": 0,
        "slot": "5",
        "type": "t_address"
      },
      {
        "astId": 2426,
        "contract": "contracts/CapitalAgent.sol:CapitalAgent",
        "label": "operator",
        "offset": 0,
        "slot": "6",
        "type": "t_address"
      },
      {
        "astId": 2445,
        "contract": "contracts/CapitalAgent.sol:CapitalAgent",
        "label": "poolInfo",
        "offset": 0,
        "slot": "7",
        "type": "t_mapping(t_address,t_struct(PoolInfo)2433_storage)"
      },
      {
        "astId": 2447,
        "contract": "contracts/CapitalAgent.sol:CapitalAgent",
        "label": "totalCapitalStaked",
        "offset": 0,
        "slot": "8",
        "type": "t_uint256"
      },
      {
        "astId": 2450,
        "contract": "contracts/CapitalAgent.sol:CapitalAgent",
        "label": "policyInfo",
        "offset": 0,
        "slot": "9",
        "type": "t_struct(PolicyInfo)2440_storage"
      },
      {
        "astId": 2452,
        "contract": "contracts/CapitalAgent.sol:CapitalAgent",
        "label": "totalUtilizedAmount",
        "offset": 0,
        "slot": "12",
        "type": "t_uint256"
      },
      {
        "astId": 2454,
        "contract": "contracts/CapitalAgent.sol:CapitalAgent",
        "label": "MCR",
        "offset": 0,
        "slot": "13",
        "type": "t_uint256"
      },
      {
        "astId": 2456,
        "contract": "contracts/CapitalAgent.sol:CapitalAgent",
        "label": "MLR",
        "offset": 0,
        "slot": "14",
        "type": "t_uint256"
      },
      {
        "astId": 2459,
        "contract": "contracts/CapitalAgent.sol:CapitalAgent",
        "label": "CALC_PRECISION",
        "offset": 0,
        "slot": "15",
        "type": "t_uint256"
      },
      {
        "astId": 2463,
        "contract": "contracts/CapitalAgent.sol:CapitalAgent",
        "label": "poolWhiteList",
        "offset": 0,
        "slot": "16",
        "type": "t_mapping(t_address,t_bool)"
      }
    ],
    "types": {
      "t_address": {
        "encoding": "inplace",
        "label": "address",
        "numberOfBytes": "20"
      },
      "t_bool": {
        "encoding": "inplace",
        "label": "bool",
        "numberOfBytes": "1"
      },
      "t_mapping(t_address,t_bool)": {
        "encoding": "mapping",
        "key": "t_address",
        "label": "mapping(address => bool)",
        "numberOfBytes": "32",
        "value": "t_bool"
      },
      "t_mapping(t_address,t_struct(PoolInfo)2433_storage)": {
        "encoding": "mapping",
        "key": "t_address",
        "label": "mapping(address => struct CapitalAgent.PoolInfo)",
        "numberOfBytes": "32",
        "value": "t_struct(PoolInfo)2433_storage"
      },
      "t_struct(PolicyInfo)2440_storage": {
        "encoding": "inplace",
        "label": "struct CapitalAgent.PolicyInfo",
        "members": [
          {
            "astId": 2435,
            "contract": "contracts/CapitalAgent.sol:CapitalAgent",
            "label": "policy",
            "offset": 0,
            "slot": "0",
            "type": "t_address"
          },
          {
            "astId": 2437,
            "contract": "contracts/CapitalAgent.sol:CapitalAgent",
            "label": "utilizedAmount",
            "offset": 0,
            "slot": "1",
            "type": "t_uint256"
          },
          {
            "astId": 2439,
            "contract": "contracts/CapitalAgent.sol:CapitalAgent",
            "label": "exist",
            "offset": 0,
            "slot": "2",
            "type": "t_bool"
          }
        ],
        "numberOfBytes": "96"
      },
      "t_struct(PoolInfo)2433_storage": {
        "encoding": "inplace",
        "label": "struct CapitalAgent.PoolInfo",
        "members": [
          {
            "astId": 2428,
            "contract": "contracts/CapitalAgent.sol:CapitalAgent",
            "label": "totalCapital",
            "offset": 0,
            "slot": "0",
            "type": "t_uint256"
          },
          {
            "astId": 2430,
            "contract": "contracts/CapitalAgent.sol:CapitalAgent",
            "label": "currency",
            "offset": 0,
            "slot": "1",
            "type": "t_address"
          },
          {
            "astId": 2432,
            "contract": "contracts/CapitalAgent.sol:CapitalAgent",
            "label": "exist",
            "offset": 20,
            "slot": "1",
            "type": "t_bool"
          }
        ],
        "numberOfBytes": "64"
      },
      "t_uint256": {
        "encoding": "inplace",
        "label": "uint256",
        "numberOfBytes": "32"
      }
    }
  }
}