{
  "address": "0x6371c237bDeD3Aa2352c48617A8624436104AfA2",
  "abi": [
    {
      "inputs": [
        {
          "internalType": "address",
          "name": "_exchangeAgent",
          "type": "address"
        },
        {
          "internalType": "address",
          "name": "_UNO_TOKEN",
          "type": "address"
        },
        {
          "internalType": "address",
          "name": "_USDT_TOKEN",
          "type": "address"
        }
      ],
      "stateMutability": "nonpayable",
      "type": "constructor"
    },
    {
      "anonymous": false,
      "inputs": [
        {
          "indexed": true,
          "internalType": "address",
          "name": "_salesPolicy",
          "type": "address"
        }
      ],
      "name": "LogAddPolicy",
      "type": "event"
    },
    {
      "anonymous": false,
      "inputs": [
        {
          "indexed": true,
          "internalType": "address",
          "name": "_ssip",
          "type": "address"
        }
      ],
      "name": "LogAddPool",
      "type": "event"
    },
    {
      "anonymous": false,
      "inputs": [
        {
          "indexed": true,
          "internalType": "address",
          "name": "_policy",
          "type": "address"
        },
        {
          "indexed": false,
          "internalType": "uint256",
          "name": "_policyTokenId",
          "type": "uint256"
        }
      ],
      "name": "LogMarkToClaimPolicy",
      "type": "event"
    },
    {
      "anonymous": false,
      "inputs": [
        {
          "indexed": true,
          "internalType": "address",
          "name": "_policy",
          "type": "address"
        },
        {
          "indexed": false,
          "internalType": "uint256",
          "name": "_amount",
          "type": "uint256"
        },
        {
          "indexed": false,
          "internalType": "uint256",
          "name": "_policyUtilized",
          "type": "uint256"
        },
        {
          "indexed": false,
          "internalType": "uint256",
          "name": "_totalUtilizedAmount",
          "type": "uint256"
        }
      ],
      "name": "LogUpdatePolicyCoverage",
      "type": "event"
    },
    {
      "anonymous": false,
      "inputs": [
        {
          "indexed": true,
          "internalType": "address",
          "name": "_policy",
          "type": "address"
        },
        {
          "indexed": false,
          "internalType": "uint256",
          "name": "_policyTokenId",
          "type": "uint256"
        }
      ],
      "name": "LogUpdatePolicyExpired",
      "type": "event"
    },
    {
      "anonymous": false,
      "inputs": [
        {
          "indexed": true,
          "internalType": "address",
          "name": "_ssip",
          "type": "address"
        },
        {
          "indexed": false,
          "internalType": "uint256",
          "name": "_poolCapital",
          "type": "uint256"
        },
        {
          "indexed": false,
          "internalType": "uint256",
          "name": "_totalCapital",
          "type": "uint256"
        }
      ],
      "name": "LogUpdatePoolCapital",
      "type": "event"
    },
    {
      "inputs": [],
      "name": "CALC_PRECISION",
      "outputs": [
        {
          "internalType": "uint256",
          "name": "",
          "type": "uint256"
        }
      ],
      "stateMutability": "view",
      "type": "function"
    },
    {
      "inputs": [],
      "name": "MCR",
      "outputs": [
        {
          "internalType": "uint256",
          "name": "",
          "type": "uint256"
        }
      ],
      "stateMutability": "view",
      "type": "function"
    },
    {
      "inputs": [],
      "name": "MLR",
      "outputs": [
        {
          "internalType": "uint256",
          "name": "",
          "type": "uint256"
        }
      ],
      "stateMutability": "view",
      "type": "function"
    },
    {
      "inputs": [
        {
          "internalType": "uint256",
          "name": "_stakingAmount",
          "type": "uint256"
        }
      ],
      "name": "SSIPStaking",
      "outputs": [],
      "stateMutability": "nonpayable",
      "type": "function"
    },
    {
      "inputs": [
        {
          "internalType": "uint256",
          "name": "_withdrawAmount",
          "type": "uint256"
        }
      ],
      "name": "SSIPWithdraw",
      "outputs": [],
      "stateMutability": "nonpayable",
      "type": "function"
    },
    {
      "inputs": [],
      "name": "UNO_TOKEN",
      "outputs": [
        {
          "internalType": "address",
          "name": "",
          "type": "address"
        }
      ],
      "stateMutability": "view",
      "type": "function"
    },
    {
      "inputs": [],
      "name": "USDT_TOKEN",
      "outputs": [
        {
          "internalType": "address",
          "name": "",
          "type": "address"
        }
      ],
      "stateMutability": "view",
      "type": "function"
    },
    {
      "inputs": [
        {
          "internalType": "address",
          "name": "_policy",
          "type": "address"
        }
      ],
      "name": "addPolicy",
      "outputs": [],
      "stateMutability": "nonpayable",
      "type": "function"
    },
    {
      "inputs": [
        {
          "internalType": "address",
          "name": "_ssip",
          "type": "address"
        }
      ],
      "name": "addPool",
      "outputs": [],
      "stateMutability": "nonpayable",
      "type": "function"
    },
    {
      "inputs": [
        {
          "internalType": "uint256",
          "name": "_withdrawAmount",
          "type": "uint256"
        }
      ],
      "name": "checkCapitalByMCR",
      "outputs": [
        {
          "internalType": "bool",
          "name": "",
          "type": "bool"
        }
      ],
      "stateMutability": "view",
      "type": "function"
    },
    {
      "inputs": [],
      "name": "exchangeAgent",
      "outputs": [
        {
          "internalType": "address",
          "name": "",
          "type": "address"
        }
      ],
      "stateMutability": "view",
      "type": "function"
    },
    {
      "inputs": [
        {
          "internalType": "address",
          "name": "_policy",
          "type": "address"
        },
        {
          "internalType": "uint256",
          "name": "_policyId",
          "type": "uint256"
        }
      ],
      "name": "markToClaimPolicy",
      "outputs": [],
      "stateMutability": "nonpayable",
      "type": "function"
    },
    {
      "inputs": [],
      "name": "owner",
      "outputs": [
        {
          "internalType": "address",
          "name": "",
          "type": "address"
        }
      ],
      "stateMutability": "view",
      "type": "function"
    },
    {
      "inputs": [
        {
          "internalType": "address",
          "name": "",
          "type": "address"
        }
      ],
      "name": "policyInfo",
      "outputs": [
        {
          "internalType": "uint256",
          "name": "utilizedAmount",
          "type": "uint256"
        },
        {
          "internalType": "bool",
          "name": "exist",
          "type": "bool"
        }
      ],
      "stateMutability": "view",
      "type": "function"
    },
    {
      "inputs": [
        {
          "internalType": "uint256",
          "name": "",
          "type": "uint256"
        }
      ],
      "name": "policyList",
      "outputs": [
        {
          "internalType": "address",
          "name": "",
          "type": "address"
        }
      ],
      "stateMutability": "view",
      "type": "function"
    },
    {
      "inputs": [
        {
          "internalType": "uint256",
          "name": "_coverageAmount",
          "type": "uint256"
        }
      ],
      "name": "policySale",
      "outputs": [],
      "stateMutability": "nonpayable",
      "type": "function"
    },
    {
      "inputs": [
        {
          "internalType": "address",
          "name": "",
          "type": "address"
        }
      ],
      "name": "poolInfo",
      "outputs": [
        {
          "internalType": "uint256",
          "name": "totalCapital",
          "type": "uint256"
        },
        {
          "internalType": "bool",
          "name": "exist",
          "type": "bool"
        }
      ],
      "stateMutability": "view",
      "type": "function"
    },
    {
      "inputs": [
        {
          "internalType": "uint256",
          "name": "",
          "type": "uint256"
        }
      ],
      "name": "poolList",
      "outputs": [
        {
          "internalType": "address",
          "name": "",
          "type": "address"
        }
      ],
      "stateMutability": "view",
      "type": "function"
    },
    {
      "inputs": [
        {
          "internalType": "address",
          "name": "_exchangeAgent",
          "type": "address"
        }
      ],
      "name": "setExchangeAgent",
      "outputs": [],
      "stateMutability": "nonpayable",
      "type": "function"
    },
    {
      "inputs": [
        {
          "internalType": "uint256",
          "name": "_MCR",
          "type": "uint256"
        }
      ],
      "name": "setMCR",
      "outputs": [],
      "stateMutability": "nonpayable",
      "type": "function"
    },
    {
      "inputs": [
        {
          "internalType": "uint256",
          "name": "_MLR",
          "type": "uint256"
        }
      ],
      "name": "setMLR",
      "outputs": [],
      "stateMutability": "nonpayable",
      "type": "function"
    },
    {
      "inputs": [],
      "name": "totalCapitalStaked",
      "outputs": [
        {
          "internalType": "uint256",
          "name": "",
          "type": "uint256"
        }
      ],
      "stateMutability": "view",
      "type": "function"
    },
    {
      "inputs": [],
      "name": "totalUtilizedAmount",
      "outputs": [
        {
          "internalType": "uint256",
          "name": "",
          "type": "uint256"
        }
      ],
      "stateMutability": "view",
      "type": "function"
    },
    {
      "inputs": [
        {
          "internalType": "address",
          "name": "_policyAddr",
          "type": "address"
        },
        {
          "internalType": "uint256",
          "name": "_policyId",
          "type": "uint256"
        }
      ],
      "name": "updatePolicyStatus",
      "outputs": [],
      "stateMutability": "nonpayable",
      "type": "function"
    },
    {
      "stateMutability": "payable",
      "type": "receive"
    }
  ],
  "transactionHash": "0x387b66bdfd2016cddcecbc0a80385e865273b3e0d336ab6b10956661b4fc1910",
  "args": [
    "0xA51A923E3719b460C2F4889407522CAADE2763b1",
    "0x53fb43BaE4C13d6AFAD37fB37c3fC49f3Af433F5",
    "0x40c035016AD732b6cFce34c3F881040B6C6cf71E"
  ],
  "solcInputHash": "8b4d273543ae78586be14fde7d603ae7",
  "bytecode": "0x6080604052670de0b6b3a7640000600f553480156200001d57600080fd5b5060405162001691380380620016918339810160408190526200004091620000b0565b6001600081905580546001600160a01b03199081163317909155600280546001600160a01b03958616908316179055600380549385169382169390931790925560048054919093169116179055620000f9565b80516001600160a01b0381168114620000ab57600080fd5b919050565b600080600060608486031215620000c5578283fd5b620000d08462000093565b9250620000e06020850162000093565b9150620000f06040850162000093565b90509250925092565b61158880620001096000396000f3fe60806040526004361061018f5760003560e01c80638be5a39f116100d6578063be304cf01161007f578063d914cd4b11610059578063d914cd4b14610423578063d9203b9114610443578063f3ae60271461045857610196565b8063be304cf0146103c1578063d4688a45146103ee578063d8c5c8631461040357610196565b80639a7b5f11116100b05780639a7b5f1114610353578063a0931af214610381578063b84ef081146103a157610196565b80638be5a39f146103095780638da5cb5b1461032957806392ff38ec1461033e57610196565b806356704ace11610138578063794e572411610112578063794e5724146102bf57806386e4c2ad146102d45780638bb70831146102f457610196565b806356704ace1461026a5780635b44d5761461028a57806377b330c9146102aa57610196565b8063385a128f11610169578063385a128f146102085780634dc70bac146102285780634fdc9ea91461024a57610196565b80630f97b97b1461019b57806318a00d8e146101c65780632a48235b146101e857610196565b3661019657005b600080fd5b3480156101a757600080fd5b506101b0610478565b6040516101bd91906111be565b60405180910390f35b3480156101d257600080fd5b506101e66101e136600461110f565b610487565b005b3480156101f457600080fd5b506101b0610203366004611159565b61052f565b34801561021457600080fd5b506101e6610223366004611159565b610559565b34801561023457600080fd5b5061023d6105d2565b6040516101bd9190611491565b34801561025657600080fd5b506101b0610265366004611159565b6105d8565b34801561027657600080fd5b506101e6610285366004611130565b6105e8565b34801561029657600080fd5b506101e66102a5366004611159565b610769565b3480156102b657600080fd5b506101b06107fb565b3480156102cb57600080fd5b5061023d61080a565b3480156102e057600080fd5b506101e66102ef366004611130565b610810565b34801561030057600080fd5b5061023d61099a565b34801561031557600080fd5b506101e6610324366004611159565b6109a0565b34801561033557600080fd5b506101b0610a05565b34801561034a57600080fd5b5061023d610a14565b34801561035f57600080fd5b5061037361036e36600461110f565b610a1a565b6040516101bd92919061149a565b34801561038d57600080fd5b506101e661039c366004611159565b610a36565b3480156103ad57600080fd5b506101e66103bc36600461110f565b610ac0565b3480156103cd57600080fd5b506103e16103dc366004611159565b610beb565b6040516101bd91906111f6565b3480156103fa57600080fd5b5061023d610bfe565b34801561040f57600080fd5b506101e661041e366004611159565b610c04565b34801561042f57600080fd5b506101e661043e36600461110f565b610c7d565b34801561044f57600080fd5b506101b0610d7c565b34801561046457600080fd5b5061037361047336600461110f565b610d8b565b6003546001600160a01b031681565b6001546001600160a01b031633146104ba5760405162461bcd60e51b81526004016104b190611236565b60405180910390fd5b600260005414156104dd5760405162461bcd60e51b81526004016104b1906113ec565b60026000556001600160a01b0381166105085760405162461bcd60e51b81526004016104b19061126d565b600280546001600160a01b0319166001600160a01b03929092169190911790556001600055565b6006818154811061053f57600080fd5b6000918252602090912001546001600160a01b0316905081565b6001546001600160a01b031633146105835760405162461bcd60e51b81526004016104b190611236565b600260005414156105a65760405162461bcd60e51b81526004016104b1906113ec565b6002600055806105c85760405162461bcd60e51b81526004016104b1906112a4565b600d556001600055565b600f5481565b600a818154811061053f57600080fd5b6002600054141561060b5760405162461bcd60e51b81526004016104b1906113ec565b60026000908155604051637a5402e960e01b8152819081906001600160a01b03861690637a5402e990610642908790600401611491565b60806040518083038186803b15801561065a57600080fd5b505afa15801561066e573d6000803e3d6000fd5b505050506040513d601f19601f820116820180604052508101906106929190611189565b509194509250905060006106a682846114ce565b42108015915061075c576106bc86856000610da7565b6040516352eaf0a160e11b81526001600160a01b0387169063a5d5e142906106e8908890600401611491565b600060405180830381600087803b15801561070257600080fd5b505af1158015610716573d6000803e3d6000fd5b50505050856001600160a01b03167faf1c77a8196c946ab8e645210cd1e2685b4fb758ddfd474fd918298854dea6fc866040516107539190611491565b60405180910390a25b5050600160005550505050565b6002600054141561078c5760405162461bcd60e51b81526004016104b1906113ec565b600260009081553381526005602052604090206001015460ff166107c25760405162461bcd60e51b81526004016104b1906113b5565b6107cb81610ed5565b6107e75760405162461bcd60e51b81526004016104b190611349565b6107f333826000610f0a565b506001600055565b6004546001600160a01b031681565b600d5481565b6001546001600160a01b0316331461083a5760405162461bcd60e51b81526004016104b190611236565b6002600054141561085d5760405162461bcd60e51b81526004016104b1906113ec565b60026000908155604051637a5402e960e01b81526001600160a01b03841690637a5402e990610890908590600401611491565b60806040518083038186803b1580156108a857600080fd5b505afa1580156108bc573d6000803e3d6000fd5b505050506040513d601f19601f820116820180604052508101906108e09190611189565b50505090506108f183826000610da7565b6040516319d9b48f60e11b81526001600160a01b038416906333b3691e9061091d908590600401611491565b600060405180830381600087803b15801561093757600080fd5b505af115801561094b573d6000803e3d6000fd5b50505050826001600160a01b03167f56b46e5b13fdb3c0b1989f448e91b2ad68cf0c8e8ddd87f996720708ae3a1569836040516109889190611491565b60405180910390a25050600160005550565b600e5481565b600260005414156109c35760405162461bcd60e51b81526004016104b1906113ec565b600260009081553381526005602052604090206001015460ff166109f95760405162461bcd60e51b81526004016104b1906113b5565b6107f333826001610f0a565b6001546001600160a01b031681565b60085481565b6005602052600090815260409020805460019091015460ff1682565b60026000541415610a595760405162461bcd60e51b81526004016104b1906113ec565b600260009081553381526009602052604090206001015460ff16610a8f5760405162461bcd60e51b81526004016104b19061137e565b610a9881611029565b610ab45760405162461bcd60e51b81526004016104b190611201565b6107f333826001610da7565b60026000541415610ae35760405162461bcd60e51b81526004016104b1906113ec565b600260009081556001600160a01b03821681526009602052604090206001015460ff1615610b235760405162461bcd60e51b81526004016104b19061145a565b600a805460018082019092557fc65a7bb8d6351c1cf70c95a316cc6a92839c986682d98bc35f958f4883f9d2a80180546001600160a01b0319166001600160a01b0384169081179091556040805180820182526000808252602080830186815294825260099052919091209051815590519101805460ff1916911515919091179055610baf600b6110ef565b6040516001600160a01b038216907f0789738a8762772f9c60cff4d99f9abd7acfc972d634b64eeb4c98370cce70ee90600090a2506001600055565b6000610bf682610ed5565b90505b919050565b600c5481565b6001546001600160a01b03163314610c2e5760405162461bcd60e51b81526004016104b190611236565b60026000541415610c515760405162461bcd60e51b81526004016104b1906113ec565b600260005580610c735760405162461bcd60e51b81526004016104b1906112a4565b600e556001600055565b6001600160a01b03811660009081526005602052604090206001015460ff1615610cb95760405162461bcd60e51b81526004016104b190611312565b6006805460018082019092557ff652222313e28459528d920b65115c16c04f3efc82aaedc97be59f3f377c0d3f0180546001600160a01b0319166001600160a01b0384169081179091556040805180820182526000808252602080830186815294825260059052919091209051815590519101805460ff1916911515919091179055610d4560076110ef565b6040516001600160a01b038216907f0efea706f79fea31d38bda2770598b35fe0bf3c0332f91d3fb62bf987f3b2e3390600090a250565b6002546001600160a01b031681565b6009602052600090815260409020805460019091015460ff1682565b80610de4576001600160a01b038316600090815260096020526040902054821115610de45760405162461bcd60e51b81526004016104b1906112db565b80610e12576001600160a01b038316600090815260096020526040902054610e0d908390611525565b610e36565b6001600160a01b038316600090815260096020526040902054610e369083906114ce565b6001600160a01b03841660009081526009602052604090205580610e675781600c54610e629190611525565b610e75565b81600c54610e7591906114ce565b600c8190556001600160a01b0384166000818152600960205260409081902054905191927facece99dd8b86cb96519fb17caded4d103b35a8261463d0d11f80a411460730092610ec892879290916114b8565b60405180910390a2505050565b6000600f54600d54600854610eea9190611506565b610ef491906114e6565b82600854610f029190611525565b101592915050565b80610f47576001600160a01b038316600090815260056020526040902054821115610f475760405162461bcd60e51b81526004016104b190611423565b80610f75576001600160a01b038316600090815260056020526040902054610f70908390611525565b610f99565b6001600160a01b038316600090815260056020526040902054610f999083906114ce565b6001600160a01b03841660009081526005602052604090205580610fca5781600854610fc59190611525565b610fd8565b81600854610fd891906114ce565b60088190556001600160a01b0384166000818152600560205260409081902054905191927f4c54f63d510ce2f2f9bf99bf203458cb67aa75fae97ccab560a1654eba9dbf2492610ec89291906114aa565b60025460035460048054600854604051631a44cdf360e11b815260009586956001600160a01b03918216956334899be69561106b9592841694931692016111d2565b60206040518083038186803b15801561108357600080fd5b505afa158015611097573d6000803e3d6000fd5b505050506040513d601f19601f820116820180604052508101906110bb9190611171565b9050600f54600e54826110ce9190611506565b6110d891906114e6565b83600c546110e691906114ce565b11159392505050565b80546001019055565b80356001600160a01b0381168114610bf957600080fd5b600060208284031215611120578081fd5b611129826110f8565b9392505050565b60008060408385031215611142578081fd5b61114b836110f8565b946020939093013593505050565b60006020828403121561116a578081fd5b5035919050565b600060208284031215611182578081fd5b5051919050565b6000806000806080858703121561119e578182fd5b505082516020840151604085015160609095015191969095509092509050565b6001600160a01b0391909116815260200190565b6001600160a01b039384168152919092166020820152604081019190915260600190565b901515815260200190565b6020808252818101527f556e6f52653a206d6178696d756d206c65766572616765206f766572666c6f77604082015260600190565b6020808252601e908201527f556e6f52653a204361706974616c204167656e7420466f7262696464656e0000604082015260600190565b60208082526013908201527f556e6f52653a207a65726f206164647265737300000000000000000000000000604082015260600190565b6020808252600f908201527f556e6f52653a207a65726f206d63720000000000000000000000000000000000604082015260600190565b6020808252601f908201527f556e6f52653a20706f6c69637920636f766572616765206f766572666c6f7700604082015260600190565b60208082526019908201527f556e6f52653a20616c726561647920657869737420706f6f6c00000000000000604082015260600190565b6020808252818101527f556e6f52653a206d696e696d756d206361706974616c20756e646572666c6f77604082015260600190565b60208082526016908201527f556e6f52653a206e6f20657869737420706f6c69637900000000000000000000604082015260600190565b60208082526014908201527f556e6f52653a206e6f2065786973742073736970000000000000000000000000604082015260600190565b6020808252601f908201527f5265656e7472616e637947756172643a207265656e7472616e742063616c6c00604082015260600190565b6020808252601c908201527f556e6f52653a20706f6f6c206361706974616c206f766572666c6f7700000000604082015260600190565b6020808252601b908201527f556e6f52653a20616c726561647920657869737420706f6c6963790000000000604082015260600190565b90815260200190565b9182521515602082015260400190565b918252602082015260400190565b9283526020830191909152604082015260600190565b600082198211156114e1576114e161153c565b500190565b60008261150157634e487b7160e01b81526012600452602481fd5b500490565b60008160001904831182151516156115205761152061153c565b500290565b6000828210156115375761153761153c565b500390565b634e487b7160e01b600052601160045260246000fdfea26469706673582212205e8ef1cfc13ef4a8fc18e66f110b93760e0fcc87ee1e9e663d27a36dd90c009964736f6c63430008000033",
  "devdoc": {
    "kind": "dev",
    "methods": {},
    "version": 1
  },
  "userdoc": {
    "kind": "user",
    "methods": {},
    "version": 1
  },
  "storageLayout": {
    "storage": [
      {
        "astId": 114,
        "contract": "contracts/CapitalAgent.sol:CapitalAgent",
        "label": "_status",
        "offset": 0,
        "slot": "0",
        "type": "t_uint256"
      },
      {
        "astId": 2421,
        "contract": "contracts/CapitalAgent.sol:CapitalAgent",
        "label": "owner",
        "offset": 0,
        "slot": "1",
        "type": "t_address"
      },
      {
        "astId": 2423,
        "contract": "contracts/CapitalAgent.sol:CapitalAgent",
        "label": "exchangeAgent",
        "offset": 0,
        "slot": "2",
        "type": "t_address"
      },
      {
        "astId": 2425,
        "contract": "contracts/CapitalAgent.sol:CapitalAgent",
        "label": "UNO_TOKEN",
        "offset": 0,
        "slot": "3",
        "type": "t_address"
      },
      {
        "astId": 2427,
        "contract": "contracts/CapitalAgent.sol:CapitalAgent",
        "label": "USDT_TOKEN",
        "offset": 0,
        "slot": "4",
        "type": "t_address"
      },
      {
        "astId": 2442,
        "contract": "contracts/CapitalAgent.sol:CapitalAgent",
        "label": "poolInfo",
        "offset": 0,
        "slot": "5",
        "type": "t_mapping(t_address,t_struct(PoolInfo)2432_storage)"
      },
      {
        "astId": 2445,
        "contract": "contracts/CapitalAgent.sol:CapitalAgent",
        "label": "poolList",
        "offset": 0,
        "slot": "6",
        "type": "t_array(t_address)dyn_storage"
      },
      {
        "astId": 2448,
        "contract": "contracts/CapitalAgent.sol:CapitalAgent",
        "label": "poolIds",
        "offset": 0,
        "slot": "7",
        "type": "t_struct(Counter)2094_storage"
      },
      {
        "astId": 2450,
        "contract": "contracts/CapitalAgent.sol:CapitalAgent",
        "label": "totalCapitalStaked",
        "offset": 0,
        "slot": "8",
        "type": "t_uint256"
      },
      {
        "astId": 2455,
        "contract": "contracts/CapitalAgent.sol:CapitalAgent",
        "label": "policyInfo",
        "offset": 0,
        "slot": "9",
        "type": "t_mapping(t_address,t_struct(PolicyInfo)2437_storage)"
      },
      {
        "astId": 2458,
        "contract": "contracts/CapitalAgent.sol:CapitalAgent",
        "label": "policyList",
        "offset": 0,
        "slot": "10",
        "type": "t_array(t_address)dyn_storage"
      },
      {
        "astId": 2461,
        "contract": "contracts/CapitalAgent.sol:CapitalAgent",
        "label": "policyIds",
        "offset": 0,
        "slot": "11",
        "type": "t_struct(Counter)2094_storage"
      },
      {
        "astId": 2463,
        "contract": "contracts/CapitalAgent.sol:CapitalAgent",
        "label": "totalUtilizedAmount",
        "offset": 0,
        "slot": "12",
        "type": "t_uint256"
      },
      {
        "astId": 2465,
        "contract": "contracts/CapitalAgent.sol:CapitalAgent",
        "label": "MCR",
        "offset": 0,
        "slot": "13",
        "type": "t_uint256"
      },
      {
        "astId": 2467,
        "contract": "contracts/CapitalAgent.sol:CapitalAgent",
        "label": "MLR",
        "offset": 0,
        "slot": "14",
        "type": "t_uint256"
      },
      {
        "astId": 2470,
        "contract": "contracts/CapitalAgent.sol:CapitalAgent",
        "label": "CALC_PRECISION",
        "offset": 0,
        "slot": "15",
        "type": "t_uint256"
      }
    ],
    "types": {
      "t_address": {
        "encoding": "inplace",
        "label": "address",
        "numberOfBytes": "20"
      },
      "t_array(t_address)dyn_storage": {
        "base": "t_address",
        "encoding": "dynamic_array",
        "label": "address[]",
        "numberOfBytes": "32"
      },
      "t_bool": {
        "encoding": "inplace",
        "label": "bool",
        "numberOfBytes": "1"
      },
      "t_mapping(t_address,t_struct(PolicyInfo)2437_storage)": {
        "encoding": "mapping",
        "key": "t_address",
        "label": "mapping(address => struct CapitalAgent.PolicyInfo)",
        "numberOfBytes": "32",
        "value": "t_struct(PolicyInfo)2437_storage"
      },
      "t_mapping(t_address,t_struct(PoolInfo)2432_storage)": {
        "encoding": "mapping",
        "key": "t_address",
        "label": "mapping(address => struct CapitalAgent.PoolInfo)",
        "numberOfBytes": "32",
        "value": "t_struct(PoolInfo)2432_storage"
      },
      "t_struct(Counter)2094_storage": {
        "encoding": "inplace",
        "label": "struct Counters.Counter",
        "members": [
          {
            "astId": 2093,
            "contract": "contracts/CapitalAgent.sol:CapitalAgent",
            "label": "_value",
            "offset": 0,
            "slot": "0",
            "type": "t_uint256"
          }
        ],
        "numberOfBytes": "32"
      },
      "t_struct(PolicyInfo)2437_storage": {
        "encoding": "inplace",
        "label": "struct CapitalAgent.PolicyInfo",
        "members": [
          {
            "astId": 2434,
            "contract": "contracts/CapitalAgent.sol:CapitalAgent",
            "label": "utilizedAmount",
            "offset": 0,
            "slot": "0",
            "type": "t_uint256"
          },
          {
            "astId": 2436,
            "contract": "contracts/CapitalAgent.sol:CapitalAgent",
            "label": "exist",
            "offset": 0,
            "slot": "1",
            "type": "t_bool"
          }
        ],
        "numberOfBytes": "64"
      },
      "t_struct(PoolInfo)2432_storage": {
        "encoding": "inplace",
        "label": "struct CapitalAgent.PoolInfo",
        "members": [
          {
            "astId": 2429,
            "contract": "contracts/CapitalAgent.sol:CapitalAgent",
            "label": "totalCapital",
            "offset": 0,
            "slot": "0",
            "type": "t_uint256"
          },
          {
            "astId": 2431,
            "contract": "contracts/CapitalAgent.sol:CapitalAgent",
            "label": "exist",
            "offset": 0,
            "slot": "1",
            "type": "t_bool"
          }
        ],
        "numberOfBytes": "64"
      },
      "t_uint256": {
        "encoding": "inplace",
        "label": "uint256",
        "numberOfBytes": "32"
      }
    }
  }
}