{
  "address": "0x254D75e01617455BC25258036e642Fb82bbfd0c9",
  "abi": [
    {
      "inputs": [
        {
          "internalType": "address",
          "name": "_exchangeAgent",
          "type": "address"
        },
        {
          "internalType": "address",
          "name": "_UNO_TOKEN",
          "type": "address"
        },
        {
          "internalType": "address",
          "name": "_USDC_TOKEN",
          "type": "address"
        }
      ],
      "stateMutability": "nonpayable",
      "type": "constructor"
    },
    {
      "anonymous": false,
      "inputs": [
        {
          "indexed": true,
          "internalType": "address",
          "name": "_ssip",
          "type": "address"
        }
      ],
      "name": "LogAddPool",
      "type": "event"
    },
    {
      "anonymous": false,
      "inputs": [
        {
          "indexed": true,
          "internalType": "address",
          "name": "_pool",
          "type": "address"
        }
      ],
      "name": "LogAddPoolWhiteList",
      "type": "event"
    },
    {
      "anonymous": false,
      "inputs": [
        {
          "indexed": true,
          "internalType": "address",
          "name": "_policy",
          "type": "address"
        },
        {
          "indexed": false,
          "internalType": "uint256",
          "name": "_policyTokenId",
          "type": "uint256"
        }
      ],
      "name": "LogMarkToClaimPolicy",
      "type": "event"
    },
    {
      "anonymous": false,
      "inputs": [
        {
          "indexed": true,
          "internalType": "address",
          "name": "_salesPolicy",
          "type": "address"
        }
      ],
      "name": "LogRemovePolicy",
      "type": "event"
    },
    {
      "anonymous": false,
      "inputs": [
        {
          "indexed": true,
          "internalType": "address",
          "name": "_ssip",
          "type": "address"
        }
      ],
      "name": "LogRemovePool",
      "type": "event"
    },
    {
      "anonymous": false,
      "inputs": [
        {
          "indexed": true,
          "internalType": "address",
          "name": "_pool",
          "type": "address"
        }
      ],
      "name": "LogRemovePoolWhiteList",
      "type": "event"
    },
    {
      "anonymous": false,
      "inputs": [
        {
          "indexed": true,
          "internalType": "address",
          "name": "_owner",
          "type": "address"
        },
        {
          "indexed": true,
          "internalType": "address",
          "name": "_capitalAgent",
          "type": "address"
        },
        {
          "indexed": false,
          "internalType": "address",
          "name": "_exchangeAgent",
          "type": "address"
        }
      ],
      "name": "LogSetExchangeAgent",
      "type": "event"
    },
    {
      "anonymous": false,
      "inputs": [
        {
          "indexed": true,
          "internalType": "address",
          "name": "_owner",
          "type": "address"
        },
        {
          "indexed": true,
          "internalType": "address",
          "name": "_capitalAgent",
          "type": "address"
        },
        {
          "indexed": false,
          "internalType": "uint256",
          "name": "_MCR",
          "type": "uint256"
        }
      ],
      "name": "LogSetMCR",
      "type": "event"
    },
    {
      "anonymous": false,
      "inputs": [
        {
          "indexed": true,
          "internalType": "address",
          "name": "_owner",
          "type": "address"
        },
        {
          "indexed": true,
          "internalType": "address",
          "name": "_capitalAgent",
          "type": "address"
        },
        {
          "indexed": false,
          "internalType": "uint256",
          "name": "_MLR",
          "type": "uint256"
        }
      ],
      "name": "LogSetMLR",
      "type": "event"
    },
    {
      "anonymous": false,
      "inputs": [
        {
          "indexed": true,
          "internalType": "address",
          "name": "_salesPolicy",
          "type": "address"
        }
      ],
      "name": "LogSetPolicy",
      "type": "event"
    },
    {
      "anonymous": false,
      "inputs": [
        {
          "indexed": true,
          "internalType": "address",
          "name": "_factory",
          "type": "address"
        }
      ],
      "name": "LogSetSalesPolicyFactory",
      "type": "event"
    },
    {
      "anonymous": false,
      "inputs": [
        {
          "indexed": true,
          "internalType": "address",
          "name": "_policy",
          "type": "address"
        },
        {
          "indexed": false,
          "internalType": "uint256",
          "name": "_amount",
          "type": "uint256"
        },
        {
          "indexed": false,
          "internalType": "uint256",
          "name": "_policyUtilized",
          "type": "uint256"
        },
        {
          "indexed": false,
          "internalType": "uint256",
          "name": "_totalUtilizedAmount",
          "type": "uint256"
        }
      ],
      "name": "LogUpdatePolicyCoverage",
      "type": "event"
    },
    {
      "anonymous": false,
      "inputs": [
        {
          "indexed": true,
          "internalType": "address",
          "name": "_policy",
          "type": "address"
        },
        {
          "indexed": false,
          "internalType": "uint256",
          "name": "_policyTokenId",
          "type": "uint256"
        }
      ],
      "name": "LogUpdatePolicyExpired",
      "type": "event"
    },
    {
      "anonymous": false,
      "inputs": [
        {
          "indexed": true,
          "internalType": "address",
          "name": "_ssip",
          "type": "address"
        },
        {
          "indexed": false,
          "internalType": "uint256",
          "name": "_poolCapital",
          "type": "uint256"
        },
        {
          "indexed": false,
          "internalType": "uint256",
          "name": "_totalCapital",
          "type": "uint256"
        }
      ],
      "name": "LogUpdatePoolCapital",
      "type": "event"
    },
    {
      "inputs": [],
      "name": "CALC_PRECISION",
      "outputs": [
        {
          "internalType": "uint256",
          "name": "",
          "type": "uint256"
        }
      ],
      "stateMutability": "view",
      "type": "function"
    },
    {
      "inputs": [],
      "name": "MCR",
      "outputs": [
        {
          "internalType": "uint256",
          "name": "",
          "type": "uint256"
        }
      ],
      "stateMutability": "view",
      "type": "function"
    },
    {
      "inputs": [],
      "name": "MLR",
      "outputs": [
        {
          "internalType": "uint256",
          "name": "",
          "type": "uint256"
        }
      ],
      "stateMutability": "view",
      "type": "function"
    },
    {
      "inputs": [
        {
          "internalType": "uint256",
          "name": "_withdrawAmount",
          "type": "uint256"
        }
      ],
      "name": "SSIPPolicyCaim",
      "outputs": [],
      "stateMutability": "nonpayable",
      "type": "function"
    },
    {
      "inputs": [
        {
          "internalType": "uint256",
          "name": "_stakingAmount",
          "type": "uint256"
        }
      ],
      "name": "SSIPStaking",
      "outputs": [],
      "stateMutability": "nonpayable",
      "type": "function"
    },
    {
      "inputs": [
        {
          "internalType": "uint256",
          "name": "_withdrawAmount",
          "type": "uint256"
        }
      ],
      "name": "SSIPWithdraw",
      "outputs": [],
      "stateMutability": "nonpayable",
      "type": "function"
    },
    {
      "inputs": [],
      "name": "UNO_TOKEN",
      "outputs": [
        {
          "internalType": "address",
          "name": "",
          "type": "address"
        }
      ],
      "stateMutability": "view",
      "type": "function"
    },
    {
      "inputs": [],
      "name": "USDC_TOKEN",
      "outputs": [
        {
          "internalType": "address",
          "name": "",
          "type": "address"
        }
      ],
      "stateMutability": "view",
      "type": "function"
    },
    {
      "inputs": [
        {
          "internalType": "address",
          "name": "_ssip",
          "type": "address"
        }
      ],
      "name": "addPool",
      "outputs": [],
      "stateMutability": "nonpayable",
      "type": "function"
    },
    {
      "inputs": [
        {
          "internalType": "address",
          "name": "_pool",
          "type": "address"
        }
      ],
      "name": "addPoolWhiteList",
      "outputs": [],
      "stateMutability": "nonpayable",
      "type": "function"
    },
    {
      "inputs": [
        {
          "internalType": "uint256",
          "name": "_withdrawAmount",
          "type": "uint256"
        }
      ],
      "name": "checkCapitalByMCR",
      "outputs": [
        {
          "internalType": "bool",
          "name": "",
          "type": "bool"
        }
      ],
      "stateMutability": "view",
      "type": "function"
    },
    {
      "inputs": [
        {
          "internalType": "uint256",
          "name": "_coverageAmount",
          "type": "uint256"
        }
      ],
      "name": "checkCoverageByMLR",
      "outputs": [
        {
          "internalType": "bool",
          "name": "",
          "type": "bool"
        }
      ],
      "stateMutability": "view",
      "type": "function"
    },
    {
      "inputs": [],
      "name": "exchangeAgent",
      "outputs": [
        {
          "internalType": "address",
          "name": "",
          "type": "address"
        }
      ],
      "stateMutability": "view",
      "type": "function"
    },
    {
      "inputs": [
        {
          "internalType": "uint256",
          "name": "_policyId",
          "type": "uint256"
        }
      ],
      "name": "markToClaimPolicy",
      "outputs": [],
      "stateMutability": "nonpayable",
      "type": "function"
    },
    {
      "inputs": [],
      "name": "owner",
      "outputs": [
        {
          "internalType": "address",
          "name": "",
          "type": "address"
        }
      ],
      "stateMutability": "view",
      "type": "function"
    },
    {
      "inputs": [],
      "name": "policyInfo",
      "outputs": [
        {
          "internalType": "address",
          "name": "policy",
          "type": "address"
        },
        {
          "internalType": "uint256",
          "name": "utilizedAmount",
          "type": "uint256"
        },
        {
          "internalType": "bool",
          "name": "exist",
          "type": "bool"
        }
      ],
      "stateMutability": "view",
      "type": "function"
    },
    {
      "inputs": [
        {
          "internalType": "uint256",
          "name": "_coverageAmount",
          "type": "uint256"
        }
      ],
      "name": "policySale",
      "outputs": [],
      "stateMutability": "nonpayable",
      "type": "function"
    },
    {
      "inputs": [
        {
          "internalType": "address",
          "name": "",
          "type": "address"
        }
      ],
      "name": "poolInfo",
      "outputs": [
        {
          "internalType": "uint256",
          "name": "totalCapital",
          "type": "uint256"
        },
        {
          "internalType": "bool",
          "name": "exist",
          "type": "bool"
        }
      ],
      "stateMutability": "view",
      "type": "function"
    },
    {
      "inputs": [
        {
          "internalType": "address",
          "name": "",
          "type": "address"
        }
      ],
      "name": "poolWhiteList",
      "outputs": [
        {
          "internalType": "bool",
          "name": "",
          "type": "bool"
        }
      ],
      "stateMutability": "view",
      "type": "function"
    },
    {
      "inputs": [],
      "name": "removePolicy",
      "outputs": [],
      "stateMutability": "nonpayable",
      "type": "function"
    },
    {
      "inputs": [
        {
          "internalType": "address",
          "name": "_ssip",
          "type": "address"
        }
      ],
      "name": "removePool",
      "outputs": [],
      "stateMutability": "nonpayable",
      "type": "function"
    },
    {
      "inputs": [
        {
          "internalType": "address",
          "name": "_pool",
          "type": "address"
        }
      ],
      "name": "removePoolWhiteList",
      "outputs": [],
      "stateMutability": "nonpayable",
      "type": "function"
    },
    {
      "inputs": [],
      "name": "salesPolicyFactory",
      "outputs": [
        {
          "internalType": "address",
          "name": "",
          "type": "address"
        }
      ],
      "stateMutability": "view",
      "type": "function"
    },
    {
      "inputs": [
        {
          "internalType": "address",
          "name": "_exchangeAgent",
          "type": "address"
        }
      ],
      "name": "setExchangeAgent",
      "outputs": [],
      "stateMutability": "nonpayable",
      "type": "function"
    },
    {
      "inputs": [
        {
          "internalType": "uint256",
          "name": "_MCR",
          "type": "uint256"
        }
      ],
      "name": "setMCR",
      "outputs": [],
      "stateMutability": "nonpayable",
      "type": "function"
    },
    {
      "inputs": [
        {
          "internalType": "uint256",
          "name": "_MLR",
          "type": "uint256"
        }
      ],
      "name": "setMLR",
      "outputs": [],
      "stateMutability": "nonpayable",
      "type": "function"
    },
    {
      "inputs": [
        {
          "internalType": "address",
          "name": "_policy",
          "type": "address"
        }
      ],
      "name": "setPolicy",
      "outputs": [],
      "stateMutability": "nonpayable",
      "type": "function"
    },
    {
      "inputs": [
        {
          "internalType": "address",
          "name": "_factory",
          "type": "address"
        }
      ],
      "name": "setSalesPolicyFactory",
      "outputs": [],
      "stateMutability": "nonpayable",
      "type": "function"
    },
    {
      "inputs": [],
      "name": "totalCapitalStaked",
      "outputs": [
        {
          "internalType": "uint256",
          "name": "",
          "type": "uint256"
        }
      ],
      "stateMutability": "view",
      "type": "function"
    },
    {
      "inputs": [],
      "name": "totalUtilizedAmount",
      "outputs": [
        {
          "internalType": "uint256",
          "name": "",
          "type": "uint256"
        }
      ],
      "stateMutability": "view",
      "type": "function"
    },
    {
      "inputs": [
        {
          "internalType": "uint256",
          "name": "_policyId",
          "type": "uint256"
        }
      ],
      "name": "updatePolicyStatus",
      "outputs": [],
      "stateMutability": "nonpayable",
      "type": "function"
    }
  ],
  "transactionHash": "0xd48ecc2f546964b690afecdbccda16ea12fa835eb9541858f7fc0f19a0bc3a7b",
  "args": [
    "0x1E545CbA6E77CBfcBd0a7CAD9F2D8E0051F347D4",
    "0x53fb43BaE4C13d6AFAD37fB37c3fC49f3Af433F5",
    "0x40c035016AD732b6cFce34c3F881040B6C6cf71E"
  ],
  "solcInputHash": "bf649fb54ad93792de572409f0dce774",
  "bytecode": "0x6080604052670de0b6b3a7640000600e553480156200001d57600080fd5b5060405162001f2738038062001f27833981016040819052620000409162000134565b60016000556001600160a01b038316620000775760405162461bcd60e51b81526004016200006e90620001b4565b60405180910390fd5b6001600160a01b038216620000a05760405162461bcd60e51b81526004016200006e90620001f5565b6001600160a01b038116620000c95760405162461bcd60e51b81526004016200006e906200017d565b600180546001600160a01b03199081163317909155600280546001600160a01b039586169083161790556004805493851693821693909317909255600580549190931691161790556200022c565b80516001600160a01b03811681146200012f57600080fd5b919050565b60008060006060848603121562000149578283fd5b620001548462000117565b9250620001646020850162000117565b9150620001746040850162000117565b90509250925092565b60208082526018908201527f556e6f52653a207a65726f205553444320616464726573730000000000000000604082015260600190565b60208082526021908201527f556e6f52653a207a65726f2065786368616e67654167656e74206164647265736040820152607360f81b606082015260800190565b60208082526017908201527f556e6f52653a207a65726f20554e4f2061646472657373000000000000000000604082015260600190565b611ceb806200023c6000396000f3fe608060405234801561001057600080fd5b50600436106101e55760003560e01c80638da5cb5b1161010f578063be22041b116100a2578063d8c5c86311610071578063d8c5c863146103cc578063d914cd4b146103df578063d9203b91146103f2578063fa569274146103fa576101e5565b8063be22041b1461038b578063be304cf01461039e578063c3ea3a28146103b1578063d4688a45146103c4576101e5565b8063a0931af2116100de578063a0931af21461033f578063a65888fb14610352578063a88d2f7a14610365578063b3d7f72814610378576101e5565b80638da5cb5b146102f757806392ff38ec146102ff578063974e4d85146103075780639a7b5f111461031e576101e5565b80634dc70bac116101875780637d4163d3116101565780637d4163d3146102b6578063869bd44a146102c95780638bb70831146102dc5780638be5a39f146102e4576101e5565b80634dc70bac1461027e5780635b44d5761461029357806365cb3a83146102a6578063794e5724146102ae576101e5565b806336760a1c116101c357806336760a1c1461023d578063385a128f146102455780633b7d0946146102585780634a3a3d141461026b576101e5565b80630f97b97b146101ea57806318a00d8e1461020857806325042fe91461021d575b600080fd5b6101f2610402565b6040516101ff91906116e0565b60405180910390f35b61021b610216366004611655565b610411565b005b61023061022b366004611655565b6104f1565b6040516101ff919061173b565b6101f2610506565b61021b610253366004611683565b610515565b61021b610266366004611655565b6105bd565b61021b610279366004611655565b61070c565b61028661080a565b6040516101ff9190611bf4565b61021b6102a1366004611683565b610810565b61021b6108a2565b610286610991565b61021b6102c4366004611655565b610997565b61021b6102d7366004611683565b610a8c565b610286610c48565b61021b6102f2366004611683565b610c4e565b6101f2610cb3565b610286610cc2565b61030f610cc8565b6040516101ff93929190611718565b61033161032c366004611655565b610ce3565b6040516101ff929190611bfd565b61021b61034d366004611683565b610cff565b61021b610360366004611655565b610da3565b61021b610373366004611655565b610ea5565b61021b610386366004611683565b610f6c565b61021b610399366004611683565b610fc5565b6102306103ac366004611683565b611178565b6102306103bf366004611683565b611189565b610286611194565b61021b6103da366004611683565b61119a565b61021b6103ed366004611655565b611242565b6101f2611343565b6101f2611352565b6004546001600160a01b031681565b6001546001600160a01b031633146104445760405162461bcd60e51b815260040161043b906117b2565b60405180910390fd5b600260005414156104675760405162461bcd60e51b815260040161043b90611b51565b60026000556001600160a01b0381166104925760405162461bcd60e51b815260040161043b906117e9565b600280546001600160a01b0319166001600160a01b038316179055604051309033907f28e0ff29ad991f2655c48b0b095a69abbf13aec6c8bc181dd526dbb3f8c9d0b9906104e19085906116e0565b60405180910390a3506001600055565b600f6020526000908152604090205460ff1681565b6003546001600160a01b031681565b6001546001600160a01b0316331461053f5760405162461bcd60e51b815260040161043b906117b2565b600260005414156105625760405162461bcd60e51b815260040161043b90611b51565b6002600055806105845760405162461bcd60e51b815260040161043b90611857565b600c819055604051309033907fa55ee73f4232498ac4c250ffa77f4337343a213648a66147d8848f6660fa3fdf906104e1908590611bf4565b6001546001600160a01b031633146105e75760405162461bcd60e51b815260040161043b906117b2565b6002600054141561060a5760405162461bcd60e51b815260040161043b90611b51565b60026000556001600160a01b0381166106355760405162461bcd60e51b815260040161043b906117e9565b6001600160a01b03811660009081526006602052604090206001015460ff166106705760405162461bcd60e51b815260040161043b906119a1565b6001600160a01b038116600090815260066020526040902054156106b8576001600160a01b0381166000908152600660205260409020546007546106b49190611c88565b6007555b6001600160a01b038116600081815260066020526040808220828155600101805460ff19169055517ff54e47602c09e6190ae0c9cba6074e2e211bf36944fd714fbb0bd78aba514cab9190a2506001600055565b6001546001600160a01b031633146107365760405162461bcd60e51b815260040161043b906117b2565b600260005414156107595760405162461bcd60e51b815260040161043b90611b51565b60026000556001600160a01b0381166107845760405162461bcd60e51b815260040161043b906118fc565b6001600160a01b0381166000908152600f602052604090205460ff166107bc5760405162461bcd60e51b815260040161043b90611746565b6001600160a01b0381166000818152600f6020526040808220805460ff19169055517f4151e001c03bfed83a194d10eea2c0edf04f98e382c440c94a947a99d38d2c329190a2506001600055565b600e5481565b600260005414156108335760405162461bcd60e51b815260040161043b90611b51565b600260009081553381526006602052604090206001015460ff166108695760405162461bcd60e51b815260040161043b90611b1a565b61087281611361565b61088e5760405162461bcd60e51b815260040161043b906119d8565b61089a33826000611396565b506001600055565b6001546001600160a01b031633146108cc5760405162461bcd60e51b815260040161043b906117b2565b600260005414156108ef5760405162461bcd60e51b815260040161043b90611b51565b6002600055600a5460ff166109165760405162461bcd60e51b815260040161043b906119a1565b6009541561093257600954600b5461092e9190611c88565b6007555b600880546001600160a01b03198116909155600a805460ff19169055600060098190556040516001600160a01b039092169182917fffb315d96bed6cc0b00a9cc39d15fcbcab7d047fca09660a2d73569cfc75817c91a2506001600055565b600c5481565b600260005414156109ba5760405162461bcd60e51b815260040161043b90611b51565b60026000556003546001600160a01b03166109e75760405162461bcd60e51b815260040161043b90611a44565b6003546001600160a01b03163314610a115760405162461bcd60e51b815260040161043b90611abd565b604080516060810182526001600160a01b0383168082526000602083018190526001928401839052600880546001600160a01b031916831790556009819055600a805460ff191690931790925591517f8ba1947a8c64577d7adbd8cbc248c72b68738fe23afef984d842ba5ec5af5cfe9190a2506001600055565b6001546001600160a01b03163314610ab65760405162461bcd60e51b815260040161043b906117b2565b60026000541415610ad95760405162461bcd60e51b815260040161043b90611b51565b60026000556008546001600160a01b0316610b065760405162461bcd60e51b815260040161043b90611820565b600854604051637a5402e960e01b81526000916001600160a01b031690637a5402e990610b37908590600401611bf4565b60606040518083038186803b158015610b4f57600080fd5b505afa158015610b63573d6000803e3d6000fd5b505050506040513d601f19601f82011682018060405250810190610b8791906116b3565b50509050610b968160006114c2565b6008546040516319d9b48f60e11b81526001600160a01b03909116906333b3691e90610bc6908590600401611bf4565b600060405180830381600087803b158015610be057600080fd5b505af1158015610bf4573d6000803e3d6000fd5b50506008546040516001600160a01b0390911692507f56b46e5b13fdb3c0b1989f448e91b2ad68cf0c8e8ddd87f996720708ae3a15699150610c37908590611bf4565b60405180910390a250506001600055565b600d5481565b60026000541415610c715760405162461bcd60e51b815260040161043b90611b51565b600260009081553381526006602052604090206001015460ff16610ca75760405162461bcd60e51b815260040161043b90611b1a565b61089a33826001611396565b6001546001600160a01b031681565b60075481565b600854600954600a546001600160a01b039092169160ff1683565b6006602052600090815260409020805460019091015460ff1682565b60026000541415610d225760405162461bcd60e51b815260040161043b90611b51565b60026000556008546001600160a01b03163314610d515760405162461bcd60e51b815260040161043b90611bbf565b600a5460ff16610d735760405162461bcd60e51b815260040161043b90611a86565b610d7c8161158d565b610d985760405162461bcd60e51b815260040161043b9061177d565b61089a8160016114c2565b6001546001600160a01b03163314610dcd5760405162461bcd60e51b815260040161043b906117b2565b60026000541415610df05760405162461bcd60e51b815260040161043b90611b51565b60026000556001600160a01b038116610e1b5760405162461bcd60e51b815260040161043b906118fc565b6001600160a01b0381166000908152600f602052604090205460ff1615610e545760405162461bcd60e51b815260040161043b906118c5565b6001600160a01b0381166000818152600f6020526040808220805460ff19166001179055517f398e8e2ed05e6be725398a28e81fdf023a447b92941bd666e68ce2091b82bcc79190a2506001600055565b6001546001600160a01b03163314610ecf5760405162461bcd60e51b815260040161043b906117b2565b60026000541415610ef25760405162461bcd60e51b815260040161043b90611b51565b60026000556001600160a01b038116610f1d5760405162461bcd60e51b815260040161043b90611a0d565b600380546001600160a01b0319166001600160a01b0383169081179091556040517f6507596e94e343212d1c22479359f82fffb65f099deb3ebcae9eb33c3d06de9e90600090a2506001600055565b60026000541415610f8f5760405162461bcd60e51b815260040161043b90611b51565b600260009081553381526006602052604090206001015460ff1661088e5760405162461bcd60e51b815260040161043b90611b1a565b60026000541415610fe85760405162461bcd60e51b815260040161043b90611b51565b60026000556008546001600160a01b03166110155760405162461bcd60e51b815260040161043b90611820565b600854604051637a5402e960e01b8152600091829182916001600160a01b031690637a5402e99061104a908790600401611bf4565b60606040518083038186803b15801561106257600080fd5b505afa158015611076573d6000803e3d6000fd5b505050506040513d601f19601f8201168201806040525081019061109a91906116b3565b9194509250905060006110ad8284611c31565b42108015915061116c576110c28460006114c2565b6008546040516352eaf0a160e11b81526001600160a01b039091169063a5d5e142906110f2908890600401611bf4565b600060405180830381600087803b15801561110c57600080fd5b505af1158015611120573d6000803e3d6000fd5b50506008546040516001600160a01b0390911692507faf1c77a8196c946ab8e645210cd1e2685b4fb758ddfd474fd918298854dea6fc9150611163908890611bf4565b60405180910390a25b50506001600055505050565b600061118382611361565b92915050565b60006111838261158d565b600b5481565b6001546001600160a01b031633146111c45760405162461bcd60e51b815260040161043b906117b2565b600260005414156111e75760405162461bcd60e51b815260040161043b90611b51565b6002600055806112095760405162461bcd60e51b815260040161043b90611933565b600d819055604051309033907fb2f30bd42a6b499419a01b9b79e7b98934167f5a8a8c389ce446e20a8e5df765906104e1908590611bf4565b336000908152600f602052604090205460ff166112715760405162461bcd60e51b815260040161043b906117b2565b6001600160a01b0381166112975760405162461bcd60e51b815260040161043b906117e9565b6001600160a01b03811660009081526006602052604090206001015460ff16156112d35760405162461bcd60e51b815260040161043b9061196a565b6040805180820182526000808252600160208084018281526001600160a01b0387168085526006909252858420945185555193909101805460ff191693151593909317909255915190917f0efea706f79fea31d38bda2770598b35fe0bf3c0332f91d3fb62bf987f3b2e3391a250565b6002546001600160a01b031681565b6005546001600160a01b031681565b6000600e54600c546007546113769190611c69565b6113809190611c49565b8260075461138e9190611c88565b101592915050565b806113d3576001600160a01b0383166000908152600660205260409020548211156113d35760405162461bcd60e51b815260040161043b90611b88565b80611401576001600160a01b0383166000908152600660205260409020546113fc908390611c88565b611425565b6001600160a01b038316600090815260066020526040902054611425908390611c31565b6001600160a01b0384166000908152600660205260409020558061145657816007546114519190611c88565b611464565b816007546114649190611c31565b60078190556001600160a01b0384166000818152600660205260409081902054905191927f4c54f63d510ce2f2f9bf99bf203458cb67aa75fae97ccab560a1654eba9dbf24926114b5929190611c0d565b60405180910390a2505050565b806114e9576009548211156114e95760405162461bcd60e51b815260040161043b9061188e565b80611501576009546114fc908390611c88565b61150f565b60095461150f908390611c31565b6009558061152a5781600b546115259190611c88565b611538565b81600b546115389190611c31565b600b8190556008546009546040516001600160a01b03909216927facece99dd8b86cb96519fb17caded4d103b35a8261463d0d11f80a4114607300926115819287929091611c1b565b60405180910390a25050565b60025460048054600554600754604051631a44cdf360e11b815260009586956001600160a01b03918216956334899be6956115d195918416949316929091016116f4565b60206040518083038186803b1580156115e957600080fd5b505afa1580156115fd573d6000803e3d6000fd5b505050506040513d601f19601f82011682018060405250810190611621919061169b565b9050600e54600d54826116349190611c69565b61163e9190611c49565b83600b5461164c9190611c31565b11159392505050565b600060208284031215611666578081fd5b81356001600160a01b038116811461167c578182fd5b9392505050565b600060208284031215611694578081fd5b5035919050565b6000602082840312156116ac578081fd5b5051919050565b6000806000606084860312156116c7578182fd5b8351925060208401519150604084015190509250925092565b6001600160a01b0391909116815260200190565b6001600160a01b039384168152919092166020820152604081019190915260600190565b6001600160a01b0393909316835260208301919091521515604082015260600190565b901515815260200190565b60208082526014908201527f556e6f52653a206e6f207768697465206c697374000000000000000000000000604082015260600190565b6020808252818101527f556e6f52653a206d6178696d756d206c65766572616765206f766572666c6f77604082015260600190565b6020808252601e908201527f556e6f52653a204361706974616c204167656e7420466f7262696464656e0000604082015260600190565b60208082526013908201527f556e6f52653a207a65726f206164647265737300000000000000000000000000604082015260600190565b6020808252601b908201527f556e6f52653a206e6f2065786973742073616c6573506f6c6963790000000000604082015260600190565b6020808252600f908201527f556e6f52653a207a65726f206d63720000000000000000000000000000000000604082015260600190565b6020808252601f908201527f556e6f52653a20706f6c69637920636f766572616765206f766572666c6f7700604082015260600190565b60208082526019908201527f556e6f52653a207768697465206c69737420616c726561647900000000000000604082015260600190565b60208082526018908201527f556e6f52653a207a65726f20706f6f6c20616464726573730000000000000000604082015260600190565b6020808252600f908201527f556e6f52653a207a65726f206d6c720000000000000000000000000000000000604082015260600190565b60208082526019908201527f556e6f52653a20616c726561647920657869737420706f6f6c00000000000000604082015260600190565b60208082526013908201527f556e6f52653a206e6f206578697420706f6f6c00000000000000000000000000604082015260600190565b6020808252818101527f556e6f52653a206d696e696d756d206361706974616c20756e646572666c6f77604082015260600190565b6020808252601b908201527f556e6f52653a207a65726f20666163746f727920616464726573730000000000604082015260600190565b60208082526022908201527f556e6f52653a206e6f742073657420666163746f727920616464726573732079604082015261195d60f21b606082015260800190565b60208082526016908201527f556e6f52653a206e6f20657869737420706f6c69637900000000000000000000604082015260600190565b60208082526027908201527f556e6f52653a206f6e6c792073616c6573506f6c696379466163746f7279206360408201527f616e2063616c6c00000000000000000000000000000000000000000000000000606082015260800190565b60208082526014908201527f556e6f52653a206e6f2065786973742073736970000000000000000000000000604082015260600190565b6020808252601f908201527f5265656e7472616e637947756172643a207265656e7472616e742063616c6c00604082015260600190565b6020808252601c908201527f556e6f52653a20706f6f6c206361706974616c206f766572666c6f7700000000604082015260600190565b6020808252818101527f556e6f52653a206f6e6c792073616c6573506f6c6963792063616e2063616c6c604082015260600190565b90815260200190565b9182521515602082015260400190565b918252602082015260400190565b9283526020830191909152604082015260600190565b60008219821115611c4457611c44611c9f565b500190565b600082611c6457634e487b7160e01b81526012600452602481fd5b500490565b6000816000190483118215151615611c8357611c83611c9f565b500290565b600082821015611c9a57611c9a611c9f565b500390565b634e487b7160e01b600052601160045260246000fdfea2646970667358221220db8472292d57ed3a1c4f48ac52df7b8f64a292c83002715ee51b2443ab8be60a64736f6c63430008000033",
  "devdoc": {
    "kind": "dev",
    "methods": {},
    "version": 1
  },
  "userdoc": {
    "kind": "user",
    "methods": {},
    "version": 1
  },
  "storageLayout": {
    "storage": [
      {
        "astId": 114,
        "contract": "contracts/CapitalAgent.sol:CapitalAgent",
        "label": "_status",
        "offset": 0,
        "slot": "0",
        "type": "t_uint256"
      },
      {
        "astId": 2416,
        "contract": "contracts/CapitalAgent.sol:CapitalAgent",
        "label": "owner",
        "offset": 0,
        "slot": "1",
        "type": "t_address"
      },
      {
        "astId": 2418,
        "contract": "contracts/CapitalAgent.sol:CapitalAgent",
        "label": "exchangeAgent",
        "offset": 0,
        "slot": "2",
        "type": "t_address"
      },
      {
        "astId": 2420,
        "contract": "contracts/CapitalAgent.sol:CapitalAgent",
        "label": "salesPolicyFactory",
        "offset": 0,
        "slot": "3",
        "type": "t_address"
      },
      {
        "astId": 2422,
        "contract": "contracts/CapitalAgent.sol:CapitalAgent",
        "label": "UNO_TOKEN",
        "offset": 0,
        "slot": "4",
        "type": "t_address"
      },
      {
        "astId": 2424,
        "contract": "contracts/CapitalAgent.sol:CapitalAgent",
        "label": "USDC_TOKEN",
        "offset": 0,
        "slot": "5",
        "type": "t_address"
      },
      {
        "astId": 2441,
        "contract": "contracts/CapitalAgent.sol:CapitalAgent",
        "label": "poolInfo",
        "offset": 0,
        "slot": "6",
        "type": "t_mapping(t_address,t_struct(PoolInfo)2429_storage)"
      },
      {
        "astId": 2443,
        "contract": "contracts/CapitalAgent.sol:CapitalAgent",
        "label": "totalCapitalStaked",
        "offset": 0,
        "slot": "7",
        "type": "t_uint256"
      },
      {
        "astId": 2446,
        "contract": "contracts/CapitalAgent.sol:CapitalAgent",
        "label": "policyInfo",
        "offset": 0,
        "slot": "8",
        "type": "t_struct(PolicyInfo)2436_storage"
      },
      {
        "astId": 2448,
        "contract": "contracts/CapitalAgent.sol:CapitalAgent",
        "label": "totalUtilizedAmount",
        "offset": 0,
        "slot": "11",
        "type": "t_uint256"
      },
      {
        "astId": 2450,
        "contract": "contracts/CapitalAgent.sol:CapitalAgent",
        "label": "MCR",
        "offset": 0,
        "slot": "12",
        "type": "t_uint256"
      },
      {
        "astId": 2452,
        "contract": "contracts/CapitalAgent.sol:CapitalAgent",
        "label": "MLR",
        "offset": 0,
        "slot": "13",
        "type": "t_uint256"
      },
      {
        "astId": 2455,
        "contract": "contracts/CapitalAgent.sol:CapitalAgent",
        "label": "CALC_PRECISION",
        "offset": 0,
        "slot": "14",
        "type": "t_uint256"
      },
      {
        "astId": 2459,
        "contract": "contracts/CapitalAgent.sol:CapitalAgent",
        "label": "poolWhiteList",
        "offset": 0,
        "slot": "15",
        "type": "t_mapping(t_address,t_bool)"
      }
    ],
    "types": {
      "t_address": {
        "encoding": "inplace",
        "label": "address",
        "numberOfBytes": "20"
      },
      "t_bool": {
        "encoding": "inplace",
        "label": "bool",
        "numberOfBytes": "1"
      },
      "t_mapping(t_address,t_bool)": {
        "encoding": "mapping",
        "key": "t_address",
        "label": "mapping(address => bool)",
        "numberOfBytes": "32",
        "value": "t_bool"
      },
      "t_mapping(t_address,t_struct(PoolInfo)2429_storage)": {
        "encoding": "mapping",
        "key": "t_address",
        "label": "mapping(address => struct CapitalAgent.PoolInfo)",
        "numberOfBytes": "32",
        "value": "t_struct(PoolInfo)2429_storage"
      },
      "t_struct(PolicyInfo)2436_storage": {
        "encoding": "inplace",
        "label": "struct CapitalAgent.PolicyInfo",
        "members": [
          {
            "astId": 2431,
            "contract": "contracts/CapitalAgent.sol:CapitalAgent",
            "label": "policy",
            "offset": 0,
            "slot": "0",
            "type": "t_address"
          },
          {
            "astId": 2433,
            "contract": "contracts/CapitalAgent.sol:CapitalAgent",
            "label": "utilizedAmount",
            "offset": 0,
            "slot": "1",
            "type": "t_uint256"
          },
          {
            "astId": 2435,
            "contract": "contracts/CapitalAgent.sol:CapitalAgent",
            "label": "exist",
            "offset": 0,
            "slot": "2",
            "type": "t_bool"
          }
        ],
        "numberOfBytes": "96"
      },
      "t_struct(PoolInfo)2429_storage": {
        "encoding": "inplace",
        "label": "struct CapitalAgent.PoolInfo",
        "members": [
          {
            "astId": 2426,
            "contract": "contracts/CapitalAgent.sol:CapitalAgent",
            "label": "totalCapital",
            "offset": 0,
            "slot": "0",
            "type": "t_uint256"
          },
          {
            "astId": 2428,
            "contract": "contracts/CapitalAgent.sol:CapitalAgent",
            "label": "exist",
            "offset": 0,
            "slot": "1",
            "type": "t_bool"
          }
        ],
        "numberOfBytes": "64"
      },
      "t_uint256": {
        "encoding": "inplace",
        "label": "uint256",
        "numberOfBytes": "32"
      }
    }
  }
}