{
  "address": "0x4024C2A563D06456BA7f9cc61F2b12FC44c3F9f2",
  "abi": [
    {
      "inputs": [
        {
          "internalType": "address",
          "name": "_exchangeAgent",
          "type": "address"
        },
        {
          "internalType": "address",
          "name": "_UNO_TOKEN",
          "type": "address"
        },
        {
          "internalType": "address",
          "name": "_USDC_TOKEN",
          "type": "address"
        },
        {
          "internalType": "address",
          "name": "_multiSigWallet",
          "type": "address"
        }
      ],
      "stateMutability": "nonpayable",
      "type": "constructor"
    },
    {
      "anonymous": false,
      "inputs": [
        {
          "indexed": true,
          "internalType": "address",
          "name": "_ssip",
          "type": "address"
        }
      ],
      "name": "LogAddPool",
      "type": "event"
    },
    {
      "anonymous": false,
      "inputs": [
        {
          "indexed": true,
          "internalType": "address",
          "name": "_pool",
          "type": "address"
        }
      ],
      "name": "LogAddPoolWhiteList",
      "type": "event"
    },
    {
      "anonymous": false,
      "inputs": [
        {
          "indexed": true,
          "internalType": "address",
          "name": "_policy",
          "type": "address"
        },
        {
          "indexed": false,
          "internalType": "uint256",
          "name": "_policyTokenId",
          "type": "uint256"
        }
      ],
      "name": "LogMarkToClaimPolicy",
      "type": "event"
    },
    {
      "anonymous": false,
      "inputs": [
        {
          "indexed": true,
          "internalType": "address",
          "name": "_salesPolicy",
          "type": "address"
        }
      ],
      "name": "LogRemovePolicy",
      "type": "event"
    },
    {
      "anonymous": false,
      "inputs": [
        {
          "indexed": true,
          "internalType": "address",
          "name": "_ssip",
          "type": "address"
        }
      ],
      "name": "LogRemovePool",
      "type": "event"
    },
    {
      "anonymous": false,
      "inputs": [
        {
          "indexed": true,
          "internalType": "address",
          "name": "_pool",
          "type": "address"
        }
      ],
      "name": "LogRemovePoolWhiteList",
      "type": "event"
    },
    {
      "anonymous": false,
      "inputs": [
        {
          "indexed": true,
          "internalType": "address",
          "name": "_owner",
          "type": "address"
        },
        {
          "indexed": true,
          "internalType": "address",
          "name": "_capitalAgent",
          "type": "address"
        },
        {
          "indexed": false,
          "internalType": "address",
          "name": "_exchangeAgent",
          "type": "address"
        }
      ],
      "name": "LogSetExchangeAgent",
      "type": "event"
    },
    {
      "anonymous": false,
      "inputs": [
        {
          "indexed": true,
          "internalType": "address",
          "name": "_owner",
          "type": "address"
        },
        {
          "indexed": true,
          "internalType": "address",
          "name": "_capitalAgent",
          "type": "address"
        },
        {
          "indexed": false,
          "internalType": "uint256",
          "name": "_MCR",
          "type": "uint256"
        }
      ],
      "name": "LogSetMCR",
      "type": "event"
    },
    {
      "anonymous": false,
      "inputs": [
        {
          "indexed": true,
          "internalType": "address",
          "name": "_owner",
          "type": "address"
        },
        {
          "indexed": true,
          "internalType": "address",
          "name": "_capitalAgent",
          "type": "address"
        },
        {
          "indexed": false,
          "internalType": "uint256",
          "name": "_MLR",
          "type": "uint256"
        }
      ],
      "name": "LogSetMLR",
      "type": "event"
    },
    {
      "anonymous": false,
      "inputs": [
        {
          "indexed": true,
          "internalType": "address",
          "name": "_salesPolicy",
          "type": "address"
        }
      ],
      "name": "LogSetPolicy",
      "type": "event"
    },
    {
      "anonymous": false,
      "inputs": [
        {
          "indexed": true,
          "internalType": "address",
          "name": "_factory",
          "type": "address"
        }
      ],
      "name": "LogSetSalesPolicyFactory",
      "type": "event"
    },
    {
      "anonymous": false,
      "inputs": [
        {
          "indexed": true,
          "internalType": "address",
          "name": "_policy",
          "type": "address"
        },
        {
          "indexed": false,
          "internalType": "uint256",
          "name": "_amount",
          "type": "uint256"
        },
        {
          "indexed": false,
          "internalType": "uint256",
          "name": "_policyUtilized",
          "type": "uint256"
        },
        {
          "indexed": false,
          "internalType": "uint256",
          "name": "_totalUtilizedAmount",
          "type": "uint256"
        }
      ],
      "name": "LogUpdatePolicyCoverage",
      "type": "event"
    },
    {
      "anonymous": false,
      "inputs": [
        {
          "indexed": true,
          "internalType": "address",
          "name": "_policy",
          "type": "address"
        },
        {
          "indexed": false,
          "internalType": "uint256",
          "name": "_policyTokenId",
          "type": "uint256"
        }
      ],
      "name": "LogUpdatePolicyExpired",
      "type": "event"
    },
    {
      "anonymous": false,
      "inputs": [
        {
          "indexed": true,
          "internalType": "address",
          "name": "_ssip",
          "type": "address"
        },
        {
          "indexed": false,
          "internalType": "uint256",
          "name": "_poolCapital",
          "type": "uint256"
        },
        {
          "indexed": false,
          "internalType": "uint256",
          "name": "_totalCapital",
          "type": "uint256"
        }
      ],
      "name": "LogUpdatePoolCapital",
      "type": "event"
    },
    {
      "anonymous": false,
      "inputs": [
        {
          "indexed": true,
          "internalType": "address",
          "name": "previousOwner",
          "type": "address"
        },
        {
          "indexed": true,
          "internalType": "address",
          "name": "newOwner",
          "type": "address"
        }
      ],
      "name": "OwnershipTransferred",
      "type": "event"
    },
    {
      "inputs": [],
      "name": "CALC_PRECISION",
      "outputs": [
        {
          "internalType": "uint256",
          "name": "",
          "type": "uint256"
        }
      ],
      "stateMutability": "view",
      "type": "function"
    },
    {
      "inputs": [],
      "name": "MCR",
      "outputs": [
        {
          "internalType": "uint256",
          "name": "",
          "type": "uint256"
        }
      ],
      "stateMutability": "view",
      "type": "function"
    },
    {
      "inputs": [],
      "name": "MLR",
      "outputs": [
        {
          "internalType": "uint256",
          "name": "",
          "type": "uint256"
        }
      ],
      "stateMutability": "view",
      "type": "function"
    },
    {
      "inputs": [
        {
          "internalType": "uint256",
          "name": "_withdrawAmount",
          "type": "uint256"
        }
      ],
      "name": "SSIPPolicyCaim",
      "outputs": [],
      "stateMutability": "nonpayable",
      "type": "function"
    },
    {
      "inputs": [
        {
          "internalType": "uint256",
          "name": "_stakingAmount",
          "type": "uint256"
        }
      ],
      "name": "SSIPStaking",
      "outputs": [],
      "stateMutability": "nonpayable",
      "type": "function"
    },
    {
      "inputs": [
        {
          "internalType": "uint256",
          "name": "_withdrawAmount",
          "type": "uint256"
        }
      ],
      "name": "SSIPWithdraw",
      "outputs": [],
      "stateMutability": "nonpayable",
      "type": "function"
    },
    {
      "inputs": [],
      "name": "UNO_TOKEN",
      "outputs": [
        {
          "internalType": "address",
          "name": "",
          "type": "address"
        }
      ],
      "stateMutability": "view",
      "type": "function"
    },
    {
      "inputs": [],
      "name": "USDC_TOKEN",
      "outputs": [
        {
          "internalType": "address",
          "name": "",
          "type": "address"
        }
      ],
      "stateMutability": "view",
      "type": "function"
    },
    {
      "inputs": [
        {
          "internalType": "address",
          "name": "_ssip",
          "type": "address"
        }
      ],
      "name": "addPool",
      "outputs": [],
      "stateMutability": "nonpayable",
      "type": "function"
    },
    {
      "inputs": [
        {
          "internalType": "address",
          "name": "_pool",
          "type": "address"
        }
      ],
      "name": "addPoolWhiteList",
      "outputs": [],
      "stateMutability": "nonpayable",
      "type": "function"
    },
    {
      "inputs": [
        {
          "internalType": "uint256",
          "name": "_withdrawAmount",
          "type": "uint256"
        }
      ],
      "name": "checkCapitalByMCR",
      "outputs": [
        {
          "internalType": "bool",
          "name": "",
          "type": "bool"
        }
      ],
      "stateMutability": "view",
      "type": "function"
    },
    {
      "inputs": [
        {
          "internalType": "uint256",
          "name": "_coverageAmount",
          "type": "uint256"
        }
      ],
      "name": "checkCoverageByMLR",
      "outputs": [
        {
          "internalType": "bool",
          "name": "",
          "type": "bool"
        }
      ],
      "stateMutability": "view",
      "type": "function"
    },
    {
      "inputs": [],
      "name": "exchangeAgent",
      "outputs": [
        {
          "internalType": "address",
          "name": "",
          "type": "address"
        }
      ],
      "stateMutability": "view",
      "type": "function"
    },
    {
      "inputs": [
        {
          "internalType": "uint256",
          "name": "_policyId",
          "type": "uint256"
        }
      ],
      "name": "markToClaimPolicy",
      "outputs": [],
      "stateMutability": "nonpayable",
      "type": "function"
    },
    {
      "inputs": [],
      "name": "owner",
      "outputs": [
        {
          "internalType": "address",
          "name": "",
          "type": "address"
        }
      ],
      "stateMutability": "view",
      "type": "function"
    },
    {
      "inputs": [],
      "name": "policyInfo",
      "outputs": [
        {
          "internalType": "address",
          "name": "policy",
          "type": "address"
        },
        {
          "internalType": "uint256",
          "name": "utilizedAmount",
          "type": "uint256"
        },
        {
          "internalType": "bool",
          "name": "exist",
          "type": "bool"
        }
      ],
      "stateMutability": "view",
      "type": "function"
    },
    {
      "inputs": [
        {
          "internalType": "uint256",
          "name": "_coverageAmount",
          "type": "uint256"
        }
      ],
      "name": "policySale",
      "outputs": [],
      "stateMutability": "nonpayable",
      "type": "function"
    },
    {
      "inputs": [
        {
          "internalType": "address",
          "name": "",
          "type": "address"
        }
      ],
      "name": "poolInfo",
      "outputs": [
        {
          "internalType": "uint256",
          "name": "totalCapital",
          "type": "uint256"
        },
        {
          "internalType": "bool",
          "name": "exist",
          "type": "bool"
        }
      ],
      "stateMutability": "view",
      "type": "function"
    },
    {
      "inputs": [
        {
          "internalType": "address",
          "name": "",
          "type": "address"
        }
      ],
      "name": "poolWhiteList",
      "outputs": [
        {
          "internalType": "bool",
          "name": "",
          "type": "bool"
        }
      ],
      "stateMutability": "view",
      "type": "function"
    },
    {
      "inputs": [],
      "name": "removePolicy",
      "outputs": [],
      "stateMutability": "nonpayable",
      "type": "function"
    },
    {
      "inputs": [
        {
          "internalType": "address",
          "name": "_ssip",
          "type": "address"
        }
      ],
      "name": "removePool",
      "outputs": [],
      "stateMutability": "nonpayable",
      "type": "function"
    },
    {
      "inputs": [
        {
          "internalType": "address",
          "name": "_pool",
          "type": "address"
        }
      ],
      "name": "removePoolWhiteList",
      "outputs": [],
      "stateMutability": "nonpayable",
      "type": "function"
    },
    {
      "inputs": [],
      "name": "renounceOwnership",
      "outputs": [],
      "stateMutability": "nonpayable",
      "type": "function"
    },
    {
      "inputs": [],
      "name": "salesPolicyFactory",
      "outputs": [
        {
          "internalType": "address",
          "name": "",
          "type": "address"
        }
      ],
      "stateMutability": "view",
      "type": "function"
    },
    {
      "inputs": [
        {
          "internalType": "address",
          "name": "_exchangeAgent",
          "type": "address"
        }
      ],
      "name": "setExchangeAgent",
      "outputs": [],
      "stateMutability": "nonpayable",
      "type": "function"
    },
    {
      "inputs": [
        {
          "internalType": "uint256",
          "name": "_MCR",
          "type": "uint256"
        }
      ],
      "name": "setMCR",
      "outputs": [],
      "stateMutability": "nonpayable",
      "type": "function"
    },
    {
      "inputs": [
        {
          "internalType": "uint256",
          "name": "_MLR",
          "type": "uint256"
        }
      ],
      "name": "setMLR",
      "outputs": [],
      "stateMutability": "nonpayable",
      "type": "function"
    },
    {
      "inputs": [
        {
          "internalType": "address",
          "name": "_policy",
          "type": "address"
        }
      ],
      "name": "setPolicy",
      "outputs": [],
      "stateMutability": "nonpayable",
      "type": "function"
    },
    {
      "inputs": [
        {
          "internalType": "address",
          "name": "_factory",
          "type": "address"
        }
      ],
      "name": "setSalesPolicyFactory",
      "outputs": [],
      "stateMutability": "nonpayable",
      "type": "function"
    },
    {
      "inputs": [],
      "name": "totalCapitalStaked",
      "outputs": [
        {
          "internalType": "uint256",
          "name": "",
          "type": "uint256"
        }
      ],
      "stateMutability": "view",
      "type": "function"
    },
    {
      "inputs": [],
      "name": "totalUtilizedAmount",
      "outputs": [
        {
          "internalType": "uint256",
          "name": "",
          "type": "uint256"
        }
      ],
      "stateMutability": "view",
      "type": "function"
    },
    {
      "inputs": [
        {
          "internalType": "address",
          "name": "newOwner",
          "type": "address"
        }
      ],
      "name": "transferOwnership",
      "outputs": [],
      "stateMutability": "nonpayable",
      "type": "function"
    },
    {
      "inputs": [
        {
          "internalType": "uint256",
          "name": "_policyId",
          "type": "uint256"
        }
      ],
      "name": "updatePolicyStatus",
      "outputs": [],
      "stateMutability": "nonpayable",
      "type": "function"
    }
  ],
  "transactionHash": "0x405ac0c7f3440ab4d177d0794ad33c581615d0dbf739489ef7642c1751bad1bf",
  "args": [
    "0xcf98D8AE6EF3eeff4826162571190cD9802dCf2D",
    "0x53fb43BaE4C13d6AFAD37fB37c3fC49f3Af433F5",
    "0x40c035016AD732b6cFce34c3F881040B6C6cf71E",
    "0xfadD5ddd92fa216C08C096958Efec97179F6fC58"
  ],
  "solcInputHash": "9c34ee606f87ff608005a3853a8c7b58",
  "bytecode": "0x6080604052670de0b6b3a7640000600e553480156200001d57600080fd5b50604051620023bc380380620023bc833981016040819052620000409162000257565b6001600055620000596200005362000158565b6200015c565b6001600160a01b0384166200008b5760405162461bcd60e51b8152600401620000829062000372565b60405180910390fd5b6001600160a01b038316620000b45760405162461bcd60e51b81526004016200008290620003e8565b6001600160a01b038216620000dd5760405162461bcd60e51b815260040162000082906200033b565b6001600160a01b038116620001065760405162461bcd60e51b81526004016200008290620002f9565b600280546001600160a01b038087166001600160a01b0319928316179092556004805486841690831617905560058054928516929091169190911790556200014e81620001ae565b505050506200041f565b3390565b600180546001600160a01b038381166001600160a01b0319831681179093556040519116919082907f8be0079c531659141344cd1fd0a4f28419497f9722a3daafe3b4186f6b6457e090600090a35050565b620001b862000158565b6001600160a01b0316620001cb6200022b565b6001600160a01b031614620001f45760405162461bcd60e51b81526004016200008290620003b3565b6001600160a01b0381166200021d5760405162461bcd60e51b81526004016200008290620002b3565b62000228816200015c565b50565b6001546001600160a01b031690565b80516001600160a01b03811681146200025257600080fd5b919050565b600080600080608085870312156200026d578384fd5b62000278856200023a565b935062000288602086016200023a565b925062000298604086016200023a565b9150620002a8606086016200023a565b905092959194509250565b60208082526026908201527f4f776e61626c653a206e6577206f776e657220697320746865207a65726f206160408201526564647265737360d01b606082015260800190565b60208082526022908201527f556e6f52653a207a65726f206d756c746973696777616c6c6574206164647265604082015261737360f01b606082015260800190565b60208082526018908201527f556e6f52653a207a65726f205553444320616464726573730000000000000000604082015260600190565b60208082526021908201527f556e6f52653a207a65726f2065786368616e67654167656e74206164647265736040820152607360f81b606082015260800190565b6020808252818101527f4f776e61626c653a2063616c6c6572206973206e6f7420746865206f776e6572604082015260600190565b60208082526017908201527f556e6f52653a207a65726f20554e4f2061646472657373000000000000000000604082015260600190565b611f8d806200042f6000396000f3fe608060405234801561001057600080fd5b506004361061020b5760003560e01c80638da5cb5b1161012a578063be22041b116100bd578063d8c5c8631161008c578063d9203b9111610071578063d9203b9114610420578063f2fde38b14610428578063fa5692741461043b5761020b565b8063d8c5c863146103fa578063d914cd4b1461040d5761020b565b8063be22041b146103b9578063be304cf0146103cc578063c3ea3a28146103df578063d4688a45146103f25761020b565b8063a0931af2116100f9578063a0931af21461036d578063a65888fb14610380578063a88d2f7a14610393578063b3d7f728146103a65761020b565b80638da5cb5b1461032557806392ff38ec1461032d578063974e4d85146103355780639a7b5f111461034c5761020b565b80635b44d576116101a25780637d4163d3116101715780637d4163d3146102e4578063869bd44a146102f75780638bb708311461030a5780638be5a39f146103125761020b565b80635b44d576146102b957806365cb3a83146102cc578063715018a6146102d4578063794e5724146102dc5761020b565b8063385a128f116101de578063385a128f1461026b5780633b7d09461461027e5780634a3a3d14146102915780634dc70bac146102a45761020b565b80630f97b97b1461021057806318a00d8e1461022e57806325042fe91461024357806336760a1c14610263575b600080fd5b610218610443565b60405161022591906118f0565b60405180910390f35b61024161023c366004611865565b610452565b005b610256610251366004611865565b610547565b604051610225919061194b565b61021861055c565b610241610279366004611893565b61056b565b61024161028c366004611865565b610628565b61024161029f366004611865565b61078c565b6102ac61089f565b6040516102259190611e96565b6102416102c7366004611893565b6108a5565b610241610937565b610241610a3b565b6102ac610a86565b6102416102f2366004611865565b610a8c565b610241610305366004611893565b610b81565b6102ac610d52565b610241610320366004611893565b610d58565b610218610dbd565b6102ac610dcc565b61033d610dd2565b60405161022593929190611928565b61035f61035a366004611865565b610ded565b604051610225929190611e9f565b61024161037b366004611893565b610e09565b61024161038e366004611865565b610ead565b6102416103a1366004611865565b610fc4565b6102416103b4366004611893565b6110a0565b6102416103c7366004611893565b6110f9565b6102566103da366004611893565b6112ac565b6102566103ed366004611893565b6112bd565b6102ac6112c8565b610241610408366004611893565b6112ce565b61024161041b366004611865565b61138b565b61021861148c565b610241610436366004611865565b61149b565b61021861150c565b6004546001600160a01b031681565b61045a61151b565b6001600160a01b031661046b610dbd565b6001600160a01b03161461049a5760405162461bcd60e51b815260040161049190611cb1565b60405180910390fd5b600260005414156104bd5760405162461bcd60e51b815260040161049190611df3565b60026000556001600160a01b0381166104e85760405162461bcd60e51b815260040161049190611a56565b600280546001600160a01b0319166001600160a01b038316179055604051309033907f28e0ff29ad991f2655c48b0b095a69abbf13aec6c8bc181dd526dbb3f8c9d0b9906105379085906118f0565b60405180910390a3506001600055565b600f6020526000908152604090205460ff1681565b6003546001600160a01b031681565b61057361151b565b6001600160a01b0316610584610dbd565b6001600160a01b0316146105aa5760405162461bcd60e51b815260040161049190611cb1565b600260005414156105cd5760405162461bcd60e51b815260040161049190611df3565b6002600055806105ef5760405162461bcd60e51b815260040161049190611ac4565b600c819055604051309033907fa55ee73f4232498ac4c250ffa77f4337343a213648a66147d8848f6660fa3fdf90610537908590611e96565b61063061151b565b6001600160a01b0316610641610dbd565b6001600160a01b0316146106675760405162461bcd60e51b815260040161049190611cb1565b6002600054141561068a5760405162461bcd60e51b815260040161049190611df3565b60026000556001600160a01b0381166106b55760405162461bcd60e51b815260040161049190611a56565b6001600160a01b03811660009081526006602052604090206001015460ff166106f05760405162461bcd60e51b815260040161049190611c0e565b6001600160a01b03811660009081526006602052604090205415610738576001600160a01b0381166000908152600660205260409020546007546107349190611f2a565b6007555b6001600160a01b038116600081815260066020526040808220828155600101805460ff19169055517ff54e47602c09e6190ae0c9cba6074e2e211bf36944fd714fbb0bd78aba514cab9190a2506001600055565b61079461151b565b6001600160a01b03166107a5610dbd565b6001600160a01b0316146107cb5760405162461bcd60e51b815260040161049190611cb1565b600260005414156107ee5760405162461bcd60e51b815260040161049190611df3565b60026000556001600160a01b0381166108195760405162461bcd60e51b815260040161049190611b69565b6001600160a01b0381166000908152600f602052604090205460ff166108515760405162461bcd60e51b815260040161049190611956565b6001600160a01b0381166000818152600f6020526040808220805460ff19169055517f4151e001c03bfed83a194d10eea2c0edf04f98e382c440c94a947a99d38d2c329190a2506001600055565b600e5481565b600260005414156108c85760405162461bcd60e51b815260040161049190611df3565b600260009081553381526006602052604090206001015460ff166108fe5760405162461bcd60e51b815260040161049190611dbc565b6109078161151f565b6109235760405162461bcd60e51b815260040161049190611c45565b61092f33826000611554565b506001600055565b61093f61151b565b6001600160a01b0316610950610dbd565b6001600160a01b0316146109765760405162461bcd60e51b815260040161049190611cb1565b600260005414156109995760405162461bcd60e51b815260040161049190611df3565b6002600055600a5460ff166109c05760405162461bcd60e51b815260040161049190611c0e565b600954156109dc57600954600b546109d89190611f2a565b6007555b600880546001600160a01b03198116909155600a805460ff19169055600060098190556040516001600160a01b039092169182917fffb315d96bed6cc0b00a9cc39d15fcbcab7d047fca09660a2d73569cfc75817c91a2506001600055565b610a4361151b565b6001600160a01b0316610a54610dbd565b6001600160a01b031614610a7a5760405162461bcd60e51b815260040161049190611cb1565b610a846000611680565b565b600c5481565b60026000541415610aaf5760405162461bcd60e51b815260040161049190611df3565b60026000556003546001600160a01b0316610adc5760405162461bcd60e51b815260040161049190611ce6565b6003546001600160a01b03163314610b065760405162461bcd60e51b815260040161049190611d5f565b604080516060810182526001600160a01b0383168082526000602083018190526001928401839052600880546001600160a01b031916831790556009819055600a805460ff191690931790925591517f8ba1947a8c64577d7adbd8cbc248c72b68738fe23afef984d842ba5ec5af5cfe9190a2506001600055565b610b8961151b565b6001600160a01b0316610b9a610dbd565b6001600160a01b031614610bc05760405162461bcd60e51b815260040161049190611cb1565b60026000541415610be35760405162461bcd60e51b815260040161049190611df3565b60026000556008546001600160a01b0316610c105760405162461bcd60e51b815260040161049190611a8d565b600854604051637a5402e960e01b81526000916001600160a01b031690637a5402e990610c41908590600401611e96565b60606040518083038186803b158015610c5957600080fd5b505afa158015610c6d573d6000803e3d6000fd5b505050506040513d601f19601f82011682018060405250810190610c9191906118c3565b50509050610ca08160006116d2565b6008546040516319d9b48f60e11b81526001600160a01b03909116906333b3691e90610cd0908590600401611e96565b600060405180830381600087803b158015610cea57600080fd5b505af1158015610cfe573d6000803e3d6000fd5b50506008546040516001600160a01b0390911692507f56b46e5b13fdb3c0b1989f448e91b2ad68cf0c8e8ddd87f996720708ae3a15699150610d41908590611e96565b60405180910390a250506001600055565b600d5481565b60026000541415610d7b5760405162461bcd60e51b815260040161049190611df3565b600260009081553381526006602052604090206001015460ff16610db15760405162461bcd60e51b815260040161049190611dbc565b61092f33826001611554565b6001546001600160a01b031690565b60075481565b600854600954600a546001600160a01b039092169160ff1683565b6006602052600090815260409020805460019091015460ff1682565b60026000541415610e2c5760405162461bcd60e51b815260040161049190611df3565b60026000556008546001600160a01b03163314610e5b5760405162461bcd60e51b815260040161049190611e61565b600a5460ff16610e7d5760405162461bcd60e51b815260040161049190611d28565b610e868161179d565b610ea25760405162461bcd60e51b81526004016104919061198d565b61092f8160016116d2565b610eb561151b565b6001600160a01b0316610ec6610dbd565b6001600160a01b031614610eec5760405162461bcd60e51b815260040161049190611cb1565b60026000541415610f0f5760405162461bcd60e51b815260040161049190611df3565b60026000556001600160a01b038116610f3a5760405162461bcd60e51b815260040161049190611b69565b6001600160a01b0381166000908152600f602052604090205460ff1615610f735760405162461bcd60e51b815260040161049190611b32565b6001600160a01b0381166000818152600f6020526040808220805460ff19166001179055517f398e8e2ed05e6be725398a28e81fdf023a447b92941bd666e68ce2091b82bcc79190a2506001600055565b610fcc61151b565b6001600160a01b0316610fdd610dbd565b6001600160a01b0316146110035760405162461bcd60e51b815260040161049190611cb1565b600260005414156110265760405162461bcd60e51b815260040161049190611df3565b60026000556001600160a01b0381166110515760405162461bcd60e51b815260040161049190611c7a565b600380546001600160a01b0319166001600160a01b0383169081179091556040517f6507596e94e343212d1c22479359f82fffb65f099deb3ebcae9eb33c3d06de9e90600090a2506001600055565b600260005414156110c35760405162461bcd60e51b815260040161049190611df3565b600260009081553381526006602052604090206001015460ff166109235760405162461bcd60e51b815260040161049190611dbc565b6002600054141561111c5760405162461bcd60e51b815260040161049190611df3565b60026000556008546001600160a01b03166111495760405162461bcd60e51b815260040161049190611a8d565b600854604051637a5402e960e01b8152600091829182916001600160a01b031690637a5402e99061117e908790600401611e96565b60606040518083038186803b15801561119657600080fd5b505afa1580156111aa573d6000803e3d6000fd5b505050506040513d601f19601f820116820180604052508101906111ce91906118c3565b9194509250905060006111e18284611ed3565b4210801591506112a0576111f68460006116d2565b6008546040516352eaf0a160e11b81526001600160a01b039091169063a5d5e14290611226908890600401611e96565b600060405180830381600087803b15801561124057600080fd5b505af1158015611254573d6000803e3d6000fd5b50506008546040516001600160a01b0390911692507faf1c77a8196c946ab8e645210cd1e2685b4fb758ddfd474fd918298854dea6fc9150611297908890611e96565b60405180910390a25b50506001600055505050565b60006112b78261151f565b92915050565b60006112b78261179d565b600b5481565b6112d661151b565b6001600160a01b03166112e7610dbd565b6001600160a01b03161461130d5760405162461bcd60e51b815260040161049190611cb1565b600260005414156113305760405162461bcd60e51b815260040161049190611df3565b6002600055806113525760405162461bcd60e51b815260040161049190611ba0565b600d819055604051309033907fb2f30bd42a6b499419a01b9b79e7b98934167f5a8a8c389ce446e20a8e5df76590610537908590611e96565b336000908152600f602052604090205460ff166113ba5760405162461bcd60e51b8152600401610491906119c2565b6001600160a01b0381166113e05760405162461bcd60e51b815260040161049190611a56565b6001600160a01b03811660009081526006602052604090206001015460ff161561141c5760405162461bcd60e51b815260040161049190611bd7565b6040805180820182526000808252600160208084018281526001600160a01b0387168085526006909252858420945185555193909101805460ff191693151593909317909255915190917f0efea706f79fea31d38bda2770598b35fe0bf3c0332f91d3fb62bf987f3b2e3391a250565b6002546001600160a01b031681565b6114a361151b565b6001600160a01b03166114b4610dbd565b6001600160a01b0316146114da5760405162461bcd60e51b815260040161049190611cb1565b6001600160a01b0381166115005760405162461bcd60e51b8152600401610491906119f9565b61150981611680565b50565b6005546001600160a01b031681565b3390565b6000600e54600c546007546115349190611f0b565b61153e9190611eeb565b8260075461154c9190611f2a565b101592915050565b80611591576001600160a01b0383166000908152600660205260409020548211156115915760405162461bcd60e51b815260040161049190611e2a565b806115bf576001600160a01b0383166000908152600660205260409020546115ba908390611f2a565b6115e3565b6001600160a01b0383166000908152600660205260409020546115e3908390611ed3565b6001600160a01b03841660009081526006602052604090205580611614578160075461160f9190611f2a565b611622565b816007546116229190611ed3565b60078190556001600160a01b0384166000818152600660205260409081902054905191927f4c54f63d510ce2f2f9bf99bf203458cb67aa75fae97ccab560a1654eba9dbf2492611673929190611eaf565b60405180910390a2505050565b600180546001600160a01b038381166001600160a01b0319831681179093556040519116919082907f8be0079c531659141344cd1fd0a4f28419497f9722a3daafe3b4186f6b6457e090600090a35050565b806116f9576009548211156116f95760405162461bcd60e51b815260040161049190611afb565b806117115760095461170c908390611f2a565b61171f565b60095461171f908390611ed3565b6009558061173a5781600b546117359190611f2a565b611748565b81600b546117489190611ed3565b600b8190556008546009546040516001600160a01b03909216927facece99dd8b86cb96519fb17caded4d103b35a8261463d0d11f80a4114607300926117919287929091611ebd565b60405180910390a25050565b60025460048054600554600754604051631a44cdf360e11b815260009586956001600160a01b03918216956334899be6956117e19591841694931692909101611904565b60206040518083038186803b1580156117f957600080fd5b505afa15801561180d573d6000803e3d6000fd5b505050506040513d601f19601f8201168201806040525081019061183191906118ab565b9050600e54600d54826118449190611f0b565b61184e9190611eeb565b83600b5461185c9190611ed3565b11159392505050565b600060208284031215611876578081fd5b81356001600160a01b038116811461188c578182fd5b9392505050565b6000602082840312156118a4578081fd5b5035919050565b6000602082840312156118bc578081fd5b5051919050565b6000806000606084860312156118d7578182fd5b8351925060208401519150604084015190509250925092565b6001600160a01b0391909116815260200190565b6001600160a01b039384168152919092166020820152604081019190915260600190565b6001600160a01b0393909316835260208301919091521515604082015260600190565b901515815260200190565b60208082526014908201527f556e6f52653a206e6f207768697465206c697374000000000000000000000000604082015260600190565b6020808252818101527f556e6f52653a206d6178696d756d206c65766572616765206f766572666c6f77604082015260600190565b6020808252601e908201527f556e6f52653a204361706974616c204167656e7420466f7262696464656e0000604082015260600190565b60208082526026908201527f4f776e61626c653a206e6577206f776e657220697320746865207a65726f206160408201527f6464726573730000000000000000000000000000000000000000000000000000606082015260800190565b60208082526013908201527f556e6f52653a207a65726f206164647265737300000000000000000000000000604082015260600190565b6020808252601b908201527f556e6f52653a206e6f2065786973742073616c6573506f6c6963790000000000604082015260600190565b6020808252600f908201527f556e6f52653a207a65726f206d63720000000000000000000000000000000000604082015260600190565b6020808252601f908201527f556e6f52653a20706f6c69637920636f766572616765206f766572666c6f7700604082015260600190565b60208082526019908201527f556e6f52653a207768697465206c69737420616c726561647900000000000000604082015260600190565b60208082526018908201527f556e6f52653a207a65726f20706f6f6c20616464726573730000000000000000604082015260600190565b6020808252600f908201527f556e6f52653a207a65726f206d6c720000000000000000000000000000000000604082015260600190565b60208082526019908201527f556e6f52653a20616c726561647920657869737420706f6f6c00000000000000604082015260600190565b60208082526013908201527f556e6f52653a206e6f206578697420706f6f6c00000000000000000000000000604082015260600190565b6020808252818101527f556e6f52653a206d696e696d756d206361706974616c20756e646572666c6f77604082015260600190565b6020808252601b908201527f556e6f52653a207a65726f20666163746f727920616464726573730000000000604082015260600190565b6020808252818101527f4f776e61626c653a2063616c6c6572206973206e6f7420746865206f776e6572604082015260600190565b60208082526022908201527f556e6f52653a206e6f742073657420666163746f727920616464726573732079604082015261195d60f21b606082015260800190565b60208082526016908201527f556e6f52653a206e6f20657869737420706f6c69637900000000000000000000604082015260600190565b60208082526027908201527f556e6f52653a206f6e6c792073616c6573506f6c696379466163746f7279206360408201527f616e2063616c6c00000000000000000000000000000000000000000000000000606082015260800190565b60208082526014908201527f556e6f52653a206e6f2065786973742073736970000000000000000000000000604082015260600190565b6020808252601f908201527f5265656e7472616e637947756172643a207265656e7472616e742063616c6c00604082015260600190565b6020808252601c908201527f556e6f52653a20706f6f6c206361706974616c206f766572666c6f7700000000604082015260600190565b6020808252818101527f556e6f52653a206f6e6c792073616c6573506f6c6963792063616e2063616c6c604082015260600190565b90815260200190565b9182521515602082015260400190565b918252602082015260400190565b9283526020830191909152604082015260600190565b60008219821115611ee657611ee6611f41565b500190565b600082611f0657634e487b7160e01b81526012600452602481fd5b500490565b6000816000190483118215151615611f2557611f25611f41565b500290565b600082821015611f3c57611f3c611f41565b500390565b634e487b7160e01b600052601160045260246000fdfea264697066735822122090a01d7e8936c719c3c4d3898ec1abae7a60352d65aacce200e4c332ad3dc45f64736f6c63430008000033",
  "devdoc": {
    "kind": "dev",
    "methods": {
      "owner()": {
        "details": "Returns the address of the current owner."
      },
      "renounceOwnership()": {
        "details": "Leaves the contract without owner. It will not be possible to call `onlyOwner` functions anymore. Can only be called by the current owner. NOTE: Renouncing ownership will leave the contract without an owner, thereby removing any functionality that is only available to the owner."
      },
      "transferOwnership(address)": {
        "details": "Transfers ownership of the contract to a new account (`newOwner`). Can only be called by the current owner."
      }
    },
    "version": 1
  },
  "userdoc": {
    "kind": "user",
    "methods": {},
    "version": 1
  },
  "storageLayout": {
    "storage": [
      {
        "astId": 114,
        "contract": "contracts/CapitalAgent.sol:CapitalAgent",
        "label": "_status",
        "offset": 0,
        "slot": "0",
        "type": "t_uint256"
      },
      {
        "astId": 7,
        "contract": "contracts/CapitalAgent.sol:CapitalAgent",
        "label": "_owner",
        "offset": 0,
        "slot": "1",
        "type": "t_address"
      },
      {
        "astId": 2419,
        "contract": "contracts/CapitalAgent.sol:CapitalAgent",
        "label": "exchangeAgent",
        "offset": 0,
        "slot": "2",
        "type": "t_address"
      },
      {
        "astId": 2421,
        "contract": "contracts/CapitalAgent.sol:CapitalAgent",
        "label": "salesPolicyFactory",
        "offset": 0,
        "slot": "3",
        "type": "t_address"
      },
      {
        "astId": 2423,
        "contract": "contracts/CapitalAgent.sol:CapitalAgent",
        "label": "UNO_TOKEN",
        "offset": 0,
        "slot": "4",
        "type": "t_address"
      },
      {
        "astId": 2425,
        "contract": "contracts/CapitalAgent.sol:CapitalAgent",
        "label": "USDC_TOKEN",
        "offset": 0,
        "slot": "5",
        "type": "t_address"
      },
      {
        "astId": 2442,
        "contract": "contracts/CapitalAgent.sol:CapitalAgent",
        "label": "poolInfo",
        "offset": 0,
        "slot": "6",
        "type": "t_mapping(t_address,t_struct(PoolInfo)2430_storage)"
      },
      {
        "astId": 2444,
        "contract": "contracts/CapitalAgent.sol:CapitalAgent",
        "label": "totalCapitalStaked",
        "offset": 0,
        "slot": "7",
        "type": "t_uint256"
      },
      {
        "astId": 2447,
        "contract": "contracts/CapitalAgent.sol:CapitalAgent",
        "label": "policyInfo",
        "offset": 0,
        "slot": "8",
        "type": "t_struct(PolicyInfo)2437_storage"
      },
      {
        "astId": 2449,
        "contract": "contracts/CapitalAgent.sol:CapitalAgent",
        "label": "totalUtilizedAmount",
        "offset": 0,
        "slot": "11",
        "type": "t_uint256"
      },
      {
        "astId": 2451,
        "contract": "contracts/CapitalAgent.sol:CapitalAgent",
        "label": "MCR",
        "offset": 0,
        "slot": "12",
        "type": "t_uint256"
      },
      {
        "astId": 2453,
        "contract": "contracts/CapitalAgent.sol:CapitalAgent",
        "label": "MLR",
        "offset": 0,
        "slot": "13",
        "type": "t_uint256"
      },
      {
        "astId": 2456,
        "contract": "contracts/CapitalAgent.sol:CapitalAgent",
        "label": "CALC_PRECISION",
        "offset": 0,
        "slot": "14",
        "type": "t_uint256"
      },
      {
        "astId": 2460,
        "contract": "contracts/CapitalAgent.sol:CapitalAgent",
        "label": "poolWhiteList",
        "offset": 0,
        "slot": "15",
        "type": "t_mapping(t_address,t_bool)"
      }
    ],
    "types": {
      "t_address": {
        "encoding": "inplace",
        "label": "address",
        "numberOfBytes": "20"
      },
      "t_bool": {
        "encoding": "inplace",
        "label": "bool",
        "numberOfBytes": "1"
      },
      "t_mapping(t_address,t_bool)": {
        "encoding": "mapping",
        "key": "t_address",
        "label": "mapping(address => bool)",
        "numberOfBytes": "32",
        "value": "t_bool"
      },
      "t_mapping(t_address,t_struct(PoolInfo)2430_storage)": {
        "encoding": "mapping",
        "key": "t_address",
        "label": "mapping(address => struct CapitalAgent.PoolInfo)",
        "numberOfBytes": "32",
        "value": "t_struct(PoolInfo)2430_storage"
      },
      "t_struct(PolicyInfo)2437_storage": {
        "encoding": "inplace",
        "label": "struct CapitalAgent.PolicyInfo",
        "members": [
          {
            "astId": 2432,
            "contract": "contracts/CapitalAgent.sol:CapitalAgent",
            "label": "policy",
            "offset": 0,
            "slot": "0",
            "type": "t_address"
          },
          {
            "astId": 2434,
            "contract": "contracts/CapitalAgent.sol:CapitalAgent",
            "label": "utilizedAmount",
            "offset": 0,
            "slot": "1",
            "type": "t_uint256"
          },
          {
            "astId": 2436,
            "contract": "contracts/CapitalAgent.sol:CapitalAgent",
            "label": "exist",
            "offset": 0,
            "slot": "2",
            "type": "t_bool"
          }
        ],
        "numberOfBytes": "96"
      },
      "t_struct(PoolInfo)2430_storage": {
        "encoding": "inplace",
        "label": "struct CapitalAgent.PoolInfo",
        "members": [
          {
            "astId": 2427,
            "contract": "contracts/CapitalAgent.sol:CapitalAgent",
            "label": "totalCapital",
            "offset": 0,
            "slot": "0",
            "type": "t_uint256"
          },
          {
            "astId": 2429,
            "contract": "contracts/CapitalAgent.sol:CapitalAgent",
            "label": "exist",
            "offset": 0,
            "slot": "1",
            "type": "t_bool"
          }
        ],
        "numberOfBytes": "64"
      },
      "t_uint256": {
        "encoding": "inplace",
        "label": "uint256",
        "numberOfBytes": "32"
      }
    }
  }
}