{
  "address": "0xe3EB3D23824d7838d5B35020CC582675C5Cb2D32",
  "abi": [
    {
      "inputs": [
        {
          "internalType": "address",
          "name": "_usdcToken",
          "type": "address"
        },
        {
          "internalType": "address",
          "name": "_WETH",
          "type": "address"
        },
        {
          "internalType": "address",
          "name": "_twapOraclePriceFeedFactory",
          "type": "address"
        },
        {
          "internalType": "address",
          "name": "_uniswapRouter",
          "type": "address"
        },
        {
          "internalType": "address",
          "name": "_uniswapFactory",
          "type": "address"
        }
      ],
      "stateMutability": "nonpayable",
      "type": "constructor"
    },
    {
      "anonymous": false,
      "inputs": [
        {
          "indexed": true,
          "internalType": "address",
          "name": "_dexAddress",
          "type": "address"
        },
        {
          "indexed": true,
          "internalType": "address",
          "name": "_convertToken",
          "type": "address"
        },
        {
          "indexed": false,
          "internalType": "uint256",
          "name": "_convertAmount",
          "type": "uint256"
        },
        {
          "indexed": false,
          "internalType": "uint256",
          "name": "_desiredAmount",
          "type": "uint256"
        },
        {
          "indexed": false,
          "internalType": "uint256",
          "name": "_convertedAmount",
          "type": "uint256"
        }
      ],
      "name": "ConvertedTokenToETH",
      "type": "event"
    },
    {
      "anonymous": false,
      "inputs": [
        {
          "indexed": true,
          "internalType": "address",
          "name": "_dexAddress",
          "type": "address"
        },
        {
          "indexed": true,
          "internalType": "address",
          "name": "_convertToken",
          "type": "address"
        },
        {
          "indexed": true,
          "internalType": "address",
          "name": "_convertedToken",
          "type": "address"
        },
        {
          "indexed": false,
          "internalType": "uint256",
          "name": "_convertAmount",
          "type": "uint256"
        },
        {
          "indexed": false,
          "internalType": "uint256",
          "name": "_desiredAmount",
          "type": "uint256"
        },
        {
          "indexed": false,
          "internalType": "uint256",
          "name": "_convertedAmount",
          "type": "uint256"
        }
      ],
      "name": "ConvertedTokenToToken",
      "type": "event"
    },
    {
      "anonymous": false,
      "inputs": [
        {
          "indexed": true,
          "internalType": "address",
          "name": "_exchangeAgent",
          "type": "address"
        },
        {
          "indexed": true,
          "internalType": "address",
          "name": "_whiteListAddress",
          "type": "address"
        }
      ],
      "name": "LogAddWhiteList",
      "type": "event"
    },
    {
      "anonymous": false,
      "inputs": [
        {
          "indexed": true,
          "internalType": "address",
          "name": "_exchangeAgent",
          "type": "address"
        },
        {
          "indexed": true,
          "internalType": "address",
          "name": "_whiteListAddress",
          "type": "address"
        }
      ],
      "name": "LogRemoveWhiteList",
      "type": "event"
    },
    {
      "anonymous": false,
      "inputs": [
        {
          "indexed": true,
          "internalType": "address",
          "name": "_exchangeAgent",
          "type": "address"
        },
        {
          "indexed": false,
          "internalType": "uint256",
          "name": "_slippage",
          "type": "uint256"
        }
      ],
      "name": "LogSetSlippage",
      "type": "event"
    },
    {
      "inputs": [],
      "name": "TWAP_ORACLE_PRICE_FEED_FACTORY",
      "outputs": [
        {
          "internalType": "address",
          "name": "",
          "type": "address"
        }
      ],
      "stateMutability": "view",
      "type": "function"
    },
    {
      "inputs": [],
      "name": "UNISWAP_FACTORY",
      "outputs": [
        {
          "internalType": "address",
          "name": "",
          "type": "address"
        }
      ],
      "stateMutability": "view",
      "type": "function"
    },
    {
      "inputs": [],
      "name": "UNISWAP_ROUTER",
      "outputs": [
        {
          "internalType": "address",
          "name": "",
          "type": "address"
        }
      ],
      "stateMutability": "view",
      "type": "function"
    },
    {
      "inputs": [],
      "name": "USDC_TOKEN",
      "outputs": [
        {
          "internalType": "address",
          "name": "",
          "type": "address"
        }
      ],
      "stateMutability": "view",
      "type": "function"
    },
    {
      "inputs": [],
      "name": "WETH",
      "outputs": [
        {
          "internalType": "address",
          "name": "",
          "type": "address"
        }
      ],
      "stateMutability": "view",
      "type": "function"
    },
    {
      "inputs": [
        {
          "internalType": "address",
          "name": "_whiteListAddress",
          "type": "address"
        }
      ],
      "name": "addWhiteList",
      "outputs": [],
      "stateMutability": "nonpayable",
      "type": "function"
    },
    {
      "inputs": [
        {
          "internalType": "address",
          "name": "_token",
          "type": "address"
        },
        {
          "internalType": "uint256",
          "name": "_convertAmount",
          "type": "uint256"
        }
      ],
      "name": "convertForETH",
      "outputs": [
        {
          "internalType": "uint256",
          "name": "",
          "type": "uint256"
        }
      ],
      "stateMutability": "nonpayable",
      "type": "function"
    },
    {
      "inputs": [
        {
          "internalType": "address",
          "name": "_token0",
          "type": "address"
        },
        {
          "internalType": "address",
          "name": "_token1",
          "type": "address"
        },
        {
          "internalType": "uint256",
          "name": "_token0Amount",
          "type": "uint256"
        }
      ],
      "name": "convertForToken",
      "outputs": [
        {
          "internalType": "uint256",
          "name": "",
          "type": "uint256"
        }
      ],
      "stateMutability": "nonpayable",
      "type": "function"
    },
    {
      "inputs": [
        {
          "internalType": "address",
          "name": "_token",
          "type": "address"
        },
        {
          "internalType": "uint256",
          "name": "_tokenAmount",
          "type": "uint256"
        }
      ],
      "name": "getETHAmountForToken",
      "outputs": [
        {
          "internalType": "uint256",
          "name": "",
          "type": "uint256"
        }
      ],
      "stateMutability": "view",
      "type": "function"
    },
    {
      "inputs": [
        {
          "internalType": "uint256",
          "name": "_usdtAmount",
          "type": "uint256"
        }
      ],
      "name": "getETHAmountForUSDC",
      "outputs": [
        {
          "internalType": "uint256",
          "name": "",
          "type": "uint256"
        }
      ],
      "stateMutability": "view",
      "type": "function"
    },
    {
      "inputs": [
        {
          "internalType": "address",
          "name": "_token0",
          "type": "address"
        },
        {
          "internalType": "address",
          "name": "_token1",
          "type": "address"
        },
        {
          "internalType": "uint256",
          "name": "_token0Amount",
          "type": "uint256"
        }
      ],
      "name": "getNeededTokenAmount",
      "outputs": [
        {
          "internalType": "uint256",
          "name": "",
          "type": "uint256"
        }
      ],
      "stateMutability": "view",
      "type": "function"
    },
    {
      "inputs": [
        {
          "internalType": "address",
          "name": "_token",
          "type": "address"
        },
        {
          "internalType": "uint256",
          "name": "_usdtAmount",
          "type": "uint256"
        }
      ],
      "name": "getTokenAmountForUSDC",
      "outputs": [
        {
          "internalType": "uint256",
          "name": "",
          "type": "uint256"
        }
      ],
      "stateMutability": "view",
      "type": "function"
    },
    {
      "inputs": [],
      "name": "owner",
      "outputs": [
        {
          "internalType": "address",
          "name": "",
          "type": "address"
        }
      ],
      "stateMutability": "view",
      "type": "function"
    },
    {
      "inputs": [
        {
          "internalType": "address",
          "name": "_whiteListAddress",
          "type": "address"
        }
      ],
      "name": "removeWhiteList",
      "outputs": [],
      "stateMutability": "nonpayable",
      "type": "function"
    },
    {
      "inputs": [
        {
          "internalType": "uint256",
          "name": "_slippage",
          "type": "uint256"
        }
      ],
      "name": "setSlippage",
      "outputs": [],
      "stateMutability": "nonpayable",
      "type": "function"
    },
    {
      "inputs": [],
      "name": "slippage",
      "outputs": [
        {
          "internalType": "uint256",
          "name": "",
          "type": "uint256"
        }
      ],
      "stateMutability": "view",
      "type": "function"
    },
    {
      "inputs": [
        {
          "internalType": "address",
          "name": "",
          "type": "address"
        }
      ],
      "name": "whiteList",
      "outputs": [
        {
          "internalType": "bool",
          "name": "",
          "type": "bool"
        }
      ],
      "stateMutability": "view",
      "type": "function"
    },
    {
      "stateMutability": "payable",
      "type": "receive"
    }
  ],
  "transactionHash": "0x9521f6934085bdf7de771ab54e6403365136bdd52b67323aeeea66ff11eb13bc",
  "args": [
    "0x40c035016AD732b6cFce34c3F881040B6C6cf71E",
    "0xc778417e063141139fce010982780140aa0cd5ab",
    "0x6fa8a7E5c13E4094fD4Fa288ba59544791E4c9d3",
    "0x7a250d5630B4cF539739dF2C5dAcb4c659F2488D",
    "0x5C69bEe701ef814a2B6a3EDD4B1652CB9cc5aA6f"
  ],
  "solcInputHash": "83a1e06e18c2c188d1ba5cc7d2484859",
  "bytecode": "0x6101206040523480156200001257600080fd5b5060405162002045380380620020458339810160408190526200003591620001ab565b60016000556001600160a01b0385166200006c5760405162461bcd60e51b81526004016200006390620002e0565b60405180910390fd5b6001600160a01b038316620000955760405162461bcd60e51b8152600401620000639062000251565b6001600160a01b038216620000be5760405162461bcd60e51b815260040162000063906200029f565b6001600160a01b038116620000e75760405162461bcd60e51b8152600401620000639062000317565b6001600160a01b038416620001105760405162461bcd60e51b815260040162000063906200021a565b6001600160601b0319606086811b821660805282811b821660a05284811b821660c05283811b821660e05285901b1661010052600380546001600160a01b031916339081179091556000908152600260205260409020805460ff191660011790556200017f6064600562000359565b60015550620003859350505050565b80516001600160a01b0381168114620001a657600080fd5b919050565b600080600080600060a08688031215620001c3578081fd5b620001ce866200018e565b9450620001de602087016200018e565b9350620001ee604087016200018e565b9250620001fe606087016200018e565b91506200020e608087016200018e565b90509295509295909350565b60208082526018908201527f556e6f52653a207a65726f205745544820616464726573730000000000000000604082015260600190565b6020808252602e908201527f556e6f52653a207a65726f20747761704f7261636c655072696365466565644660408201526d6163746f7279206164647265737360901b606082015260800190565b60208082526021908201527f556e6f52653a207a65726f20756e6973776170526f75746572206164647265736040820152607360f81b606082015260800190565b60208082526018908201527f556e6f52653a207a65726f205553444320616464726573730000000000000000604082015260600190565b60208082526022908201527f556e6f52653a207a65726f20756e6973776170466163746f7279206164647265604082015261737360f01b606082015260800190565b60008160001904831182151516156200038057634e487b7160e01b81526011600452602481fd5b500290565b60805160601c60a05160601c60c05160601c60e05160601c6101005160601c611c186200042d6000396000818161031b0152818161047a015281816105ff015281816107db015281816108cd0152818161130c01526113f701526000818161068e0152818161086801526109150152600081816104b60152610bc90152600081816108f10152610aeb015260008181610459015281816108a50152610ac40152611c186000f3fe6080604052600436106101025760003560e01c806393badc4111610095578063c74c0fac11610064578063c74c0fac14610294578063d8264920146102a9578063e7cd4a04146102be578063f0fa55a9146102de578063fa569274146102fe57610109565b806393badc411461021f5780639a5539681461023f578063a9a12d431461025f578063ad5c46481461027f57610109565b80633e032a3b116100d15780633e032a3b146101b3578063531a2211146101c85780638da5cb5b146101e857806390600a311461020a57610109565b8063102e32591461010e5780632042e5c21461014457806334899be614610166578063372c12b11461018657610109565b3661010957005b600080fd5b34801561011a57600080fd5b5061012e61012936600461167e565b610313565b60405161013b9190611ace565b60405180910390f35b34801561015057600080fd5b5061016461015f366004611606565b610347565b005b34801561017257600080fd5b5061012e61018136600461163e565b610422565b34801561019257600080fd5b506101a66101a1366004611606565b610437565b60405161013b91906117e0565b3480156101bf57600080fd5b5061012e61044c565b3480156101d457600080fd5b5061012e6101e33660046116c9565b610452565b3480156101f457600080fd5b506101fd6104a5565b60405161013b9190611775565b34801561021657600080fd5b506101fd6104b4565b34801561022b57600080fd5b5061012e61023a36600461163e565b6104d8565b34801561024b57600080fd5b5061012e61025a36600461167e565b6106c6565b34801561026b57600080fd5b5061012e61027a36600461167e565b61089e565b34801561028b57600080fd5b506101fd6108cb565b3480156102a057600080fd5b506101fd6108ef565b3480156102b557600080fd5b506101fd610913565b3480156102ca57600080fd5b506101646102d9366004611606565b610937565b3480156102ea57600080fd5b506101646102f93660046116c9565b610a0d565b34801561030a57600080fd5b506101fd610ac2565b6000610340837f000000000000000000000000000000000000000000000000000000000000000084610ae6565b9392505050565b6003546001600160a01b0316331461037a5760405162461bcd60e51b8152600401610371906119f2565b60405180910390fd5b6001600160a01b0381166103a05760405162461bcd60e51b815260040161037190611822565b6001600160a01b03811660009081526002602052604090205460ff166103d85760405162461bcd60e51b815260040161037190611859565b6001600160a01b038116600081815260026020526040808220805460ff191690555130917f2f467772ef0a5478314f3bc2b37d4b2ad29b65f052b2cedc8e2972dda033529291a350565b600061042f848484610ae6565b949350505050565b60026020526000908152604090205460ff1681565b60015481565b600061049f7f00000000000000000000000000000000000000000000000000000000000000007f000000000000000000000000000000000000000000000000000000000000000084610ae6565b92915050565b6003546001600160a01b031681565b7f000000000000000000000000000000000000000000000000000000000000000081565b3360009081526002602052604081205460ff166105075760405162461bcd60e51b8152600401610371906119f2565b6002600054141561052a5760405162461bcd60e51b815260040161037190611a97565b600260009081556001600160a01b038516156105fa576040516370a0823160e01b81526000906001600160a01b038716906370a082319061056f903390600401611775565b60206040518083038186803b15801561058757600080fd5b505afa15801561059b573d6000803e3d6000fd5b505050506040513d601f19601f820116820180604052508101906105bf91906116e1565b116105dc5760405162461bcd60e51b8152600401610371906117eb565b6105e885333086610cdd565b6105f3858585610ae6565b9050610628565b6106257f00000000000000000000000000000000000000000000000000000000000000008585610ae6565b90505b600081116106485760405162461bcd60e51b815260040161037190611a60565b600060648060015460648061065d9190611b7e565b6106679190611b9d565b6106719085611b7e565b61067b9190611b5e565b6106859190611b5e565b905060006106b67f000000000000000000000000000000000000000000000000000000000000000088888886610dcd565b6001600055979650505050505050565b3360009081526002602052604081205460ff166106f55760405162461bcd60e51b8152600401610371906119f2565b600260005414156107185760405162461bcd60e51b815260040161037190611a97565b600260009081556040516370a0823160e01b81526001600160a01b038516906370a082319061074b903390600401611775565b60206040518083038186803b15801561076357600080fd5b505afa158015610777573d6000803e3d6000fd5b505050506040513d601f19601f8201168201806040525081019061079b91906116e1565b116107b85760405162461bcd60e51b8152600401610371906117eb565b6001600160a01b038316156107d3576107d383333085610cdd565b6000610800847f000000000000000000000000000000000000000000000000000000000000000085610ae6565b9050600081116108225760405162461bcd60e51b815260040161037190611a60565b60006064806001546064806108379190611b7e565b6108419190611b9d565b61084b9085611b7e565b6108559190611b5e565b61085f9190611b5e565b9050600061088f7f000000000000000000000000000000000000000000000000000000000000000087878561125b565b60016000559695505050505050565b60006103407f00000000000000000000000000000000000000000000000000000000000000008484610ae6565b7f000000000000000000000000000000000000000000000000000000000000000081565b7f000000000000000000000000000000000000000000000000000000000000000081565b7f000000000000000000000000000000000000000000000000000000000000000081565b6003546001600160a01b031633146109615760405162461bcd60e51b8152600401610371906119f2565b6001600160a01b0381166109875760405162461bcd60e51b815260040161037190611822565b6001600160a01b03811660009081526002602052604090205460ff16156109c05760405162461bcd60e51b815260040161037190611902565b6001600160a01b038116600081815260026020526040808220805460ff191660011790555130917f8cd7b0b1a7316eb3e5d781d629cb8bf4e2fd9a8903bdd0f6b894c087d61b21f291a350565b6003546001600160a01b03163314610a375760405162461bcd60e51b8152600401610371906119f2565b60008111610a575760405162461bcd60e51b815260040161037190611939565b60648110610a775760405162461bcd60e51b815260040161037190611a29565b610a82606482611b7e565b60015560405130907f1b5c61e79b0735d33852817a0af9ed28b909c7c0a2a04abcc0c19bba6d6ba56490610ab7908490611ace565b60405180910390a250565b7f000000000000000000000000000000000000000000000000000000000000000081565b6000807f00000000000000000000000000000000000000000000000000000000000000006001600160a01b031663e6a4390586866040518363ffffffff1660e01b8152600401610b37929190611789565b60206040518083038186803b158015610b4f57600080fd5b505afa158015610b63573d6000803e3d6000fd5b505050506040513d601f19601f82011682018060405250810190610b879190611622565b90506001600160a01b038116610baf5760405162461bcd60e51b815260040161037190611970565b604051632de7797560e11b81526000906001600160a01b037f00000000000000000000000000000000000000000000000000000000000000001690635bcef2ea90610c009089908990600401611789565b60206040518083038186803b158015610c1857600080fd5b505afa158015610c2c573d6000803e3d6000fd5b505050506040513d601f19601f82011682018060405250810190610c509190611622565b90506000816001600160a01b0316633ddac95388876040518363ffffffff1660e01b8152600401610c829291906117c7565b60206040518083038186803b158015610c9a57600080fd5b505afa158015610cae573d6000803e3d6000fd5b505050506040513d601f19601f82011682018060405250810190610cd291906116e1565b979650505050505050565b600080856001600160a01b03166323b872dd868686604051602401610d04939291906117a3565b6040516020818303038152906040529060e01b6020820180516001600160e01b038381831617835250505050604051610d3d919061173c565b6000604051808303816000865af19150503d8060008114610d7a576040519150601f19603f3d011682016040523d82523d6000602084013e610d7f565b606091505b5091509150818015610da9575080511580610da9575080806020019051810190610da991906116a9565b610dc55760405162461bcd60e51b8152600401610371906118a5565b505050505050565b6000808690506000816001600160a01b031663c45a01556040518163ffffffff1660e01b815260040160206040518083038186803b158015610e0e57600080fd5b505afa158015610e22573d6000803e3d6000fd5b505050506040513d601f19601f82011682018060405250810190610e469190611622565b90506000866001600160a01b03166370a08231336040518263ffffffff1660e01b8152600401610e769190611775565b60206040518083038186803b158015610e8e57600080fd5b505afa158015610ea2573d6000803e3d6000fd5b505050506040513d601f19601f82011682018060405250810190610ec691906116e1565b90506000836001600160a01b031663ad5c46486040518163ffffffff1660e01b815260040160206040518083038186803b158015610f0357600080fd5b505afa158015610f17573d6000803e3d6000fd5b505050506040513d601f19601f82011682018060405250810190610f3b9190611622565b90506001600160a01b03891615610f59575087610f59818589611519565b60405163e6a4390560e01b81526000906001600160a01b0385169063e6a4390590610f8a9085908d90600401611789565b60206040518083038186803b158015610fa257600080fd5b505afa158015610fb6573d6000803e3d6000fd5b505050506040513d601f19601f82011682018060405250810190610fda9190611622565b6001600160a01b03161461115d57604080516002808252606082018352600092602083019080368337019050509050818160008151811061102b57634e487b7160e01b600052603260045260246000fd5b60200260200101906001600160a01b031690816001600160a01b031681525050888160018151811061106d57634e487b7160e01b600052603260045260246000fd5b6001600160a01b0392831660209182029290920101528a166110f45760405163b6f9de9560e01b81526001600160a01b0386169063b6f9de95908a906110bd908b90869033904290600401611ad7565b6000604051808303818588803b1580156110d657600080fd5b505af11580156110ea573d6000803e3d6000fd5b505050505061115b565b604051635c11d79560e01b81526001600160a01b03861690635c11d79590611128908b908b90869033904290600401611b0c565b600060405180830381600087803b15801561114257600080fd5b505af1158015611156573d6000803e3d6000fd5b505050505b505b6040516370a0823160e01b81526000906001600160a01b038a16906370a082319061118c903390600401611775565b60206040518083038186803b1580156111a457600080fd5b505afa1580156111b8573d6000803e3d6000fd5b505050506040513d601f19601f820116820180604052508101906111dc91906116e1565b9050886001600160a01b03168a6001600160a01b03168c6001600160a01b03167fd30edfe8aafab67575a170d015da0337bcb39e5c9af1b2dfb9294fb75b344ac38b8b888761122b9190611b9d565b60405161123a93929190611b48565b60405180910390a461124c8382611b9d565b9b9a5050505050505050505050565b6000808590506000816001600160a01b031663c45a01556040518163ffffffff1660e01b815260040160206040518083038186803b15801561129c57600080fd5b505afa1580156112b0573d6000803e3d6000fd5b505050506040513d601f19601f820116820180604052508101906112d49190611622565b905033316112e3878488611519565b60405163e6a4390560e01b81526000906001600160a01b0384169063e6a4390590611334908b907f000000000000000000000000000000000000000000000000000000000000000090600401611789565b60206040518083038186803b15801561134c57600080fd5b505afa158015611360573d6000803e3d6000fd5b505050506040513d601f19601f820116820180604052508101906113849190611622565b6001600160a01b0316146114ae5760408051600280825260608201835260009260208301908036833701905050905087816000815181106113d557634e487b7160e01b600052603260045260246000fd5b60200260200101906001600160a01b031690816001600160a01b0316815250507f00000000000000000000000000000000000000000000000000000000000000008160018151811061143757634e487b7160e01b600052603260045260246000fd5b6001600160a01b03928316602091820292909201015260405163791ac94760e01b81529085169063791ac9479061147a908a908a90869033904290600401611b0c565b600060405180830381600087803b15801561149457600080fd5b505af11580156114a8573d6000803e3d6000fd5b50505050505b33316001600160a01b03888116908a167f1df84ee81df9963f5d40b2a3f717360c1f62daa6f21f69580398a8d570de644c89896114eb8787611b9d565b6040516114fa93929190611b48565b60405180910390a361150c8282611b9d565b9998505050505050505050565b600080846001600160a01b031663095ea7b3858560405160240161153e9291906117c7565b6040516020818303038152906040529060e01b6020820180516001600160e01b038381831617835250505050604051611577919061173c565b6000604051808303816000865af19150503d80600081146115b4576040519150601f19603f3d011682016040523d82523d6000602084013e6115b9565b606091505b50915091508180156115e35750805115806115e35750808060200190518101906115e391906116a9565b6115ff5760405162461bcd60e51b8152600401610371906119a7565b5050505050565b600060208284031215611617578081fd5b813561034081611bca565b600060208284031215611633578081fd5b815161034081611bca565b600080600060608486031215611652578182fd5b833561165d81611bca565b9250602084013561166d81611bca565b929592945050506040919091013590565b60008060408385031215611690578182fd5b823561169b81611bca565b946020939093013593505050565b6000602082840312156116ba578081fd5b81518015158114610340578182fd5b6000602082840312156116da578081fd5b5035919050565b6000602082840312156116f2578081fd5b5051919050565b6000815180845260208085019450808401835b838110156117315781516001600160a01b03168752958201959082019060010161170c565b509495945050505050565b60008251815b8181101561175c5760208186018101518583015201611742565b8181111561176a5782828501525b509190910192915050565b6001600160a01b0391909116815260200190565b6001600160a01b0392831681529116602082015260400190565b6001600160a01b039384168152919092166020820152604081019190915260600190565b6001600160a01b03929092168252602082015260400190565b901515815260200190565b60208082526013908201527f556e6f52653a207a65726f2062616c616e636500000000000000000000000000604082015260600190565b60208082526013908201527f556e6f52653a207a65726f206164647265737300000000000000000000000000604082015260600190565b6020808252602c908201527f556e6f52653a207768697465206c6973742072656d6f766564206f7220756e6160408201526b6464656420616c726561647960a01b606082015260800190565b60208082526031908201527f5472616e7366657248656c7065723a3a7472616e7366657246726f6d3a20747260408201527f616e7366657246726f6d206661696c6564000000000000000000000000000000606082015260800190565b60208082526019908201527f556e6f52653a207768697465206c69737420616c726561647900000000000000604082015260600190565b60208082526014908201527f556e6f52653a207a65726f20736c697070616765000000000000000000000000604082015260600190565b6020808252600f908201527f54686572652773206e6f20706169720000000000000000000000000000000000604082015260600190565b6020808252602b908201527f5472616e7366657248656c7065723a3a73616665417070726f76653a2061707060408201526a1c9bdd994819985a5b195960aa1b606082015260800190565b6020808252601e908201527f556e6f52653a2045786368616e67654167656e7420466f7262696464656e0000604082015260600190565b6020808252601d908201527f556e6f52653a203130302520736c697070616765206f766572666c6f77000000604082015260600190565b6020808252600f908201527f556e6f52653a206e6f2070616972730000000000000000000000000000000000604082015260600190565b6020808252601f908201527f5265656e7472616e637947756172643a207265656e7472616e742063616c6c00604082015260600190565b90815260200190565b600085825260806020830152611af060808301866116f9565b6001600160a01b03949094166040830152506060015292915050565b600086825285602083015260a06040830152611b2b60a08301866116f9565b6001600160a01b0394909416606083015250608001529392505050565b9283526020830191909152604082015260600190565b600082611b7957634e487b7160e01b81526012600452602481fd5b500490565b6000816000190483118215151615611b9857611b98611bb4565b500290565b600082821015611baf57611baf611bb4565b500390565b634e487b7160e01b600052601160045260246000fd5b6001600160a01b0381168114611bdf57600080fd5b5056fea264697066735822122097413c8fb74acbe9937954d827fd7bd11255ad969b1871a9d1465f13cd57a11464736f6c63430008000033",
  "devdoc": {
    "kind": "dev",
    "methods": {},
    "version": 1
  },
  "userdoc": {
    "kind": "user",
    "methods": {},
    "version": 1
  },
  "storageLayout": {
    "storage": [
      {
        "astId": 114,
        "contract": "contracts/ExchangeAgent.sol:ExchangeAgent",
        "label": "_status",
        "offset": 0,
        "slot": "0",
        "type": "t_uint256"
      },
      {
        "astId": 3741,
        "contract": "contracts/ExchangeAgent.sol:ExchangeAgent",
        "label": "slippage",
        "offset": 0,
        "slot": "1",
        "type": "t_uint256"
      },
      {
        "astId": 3748,
        "contract": "contracts/ExchangeAgent.sol:ExchangeAgent",
        "label": "whiteList",
        "offset": 0,
        "slot": "2",
        "type": "t_mapping(t_address,t_bool)"
      },
      {
        "astId": 3750,
        "contract": "contracts/ExchangeAgent.sol:ExchangeAgent",
        "label": "owner",
        "offset": 0,
        "slot": "3",
        "type": "t_address"
      }
    ],
    "types": {
      "t_address": {
        "encoding": "inplace",
        "label": "address",
        "numberOfBytes": "20"
      },
      "t_bool": {
        "encoding": "inplace",
        "label": "bool",
        "numberOfBytes": "1"
      },
      "t_mapping(t_address,t_bool)": {
        "encoding": "mapping",
        "key": "t_address",
        "label": "mapping(address => bool)",
        "numberOfBytes": "32",
        "value": "t_bool"
      },
      "t_uint256": {
        "encoding": "inplace",
        "label": "uint256",
        "numberOfBytes": "32"
      }
    }
  }
}