{
  "address": "0xcf98D8AE6EF3eeff4826162571190cD9802dCf2D",
  "abi": [
    {
      "inputs": [
        {
          "internalType": "address",
          "name": "_usdcToken",
          "type": "address"
        },
        {
          "internalType": "address",
          "name": "_WETH",
          "type": "address"
        },
        {
          "internalType": "address",
          "name": "_twapOraclePriceFeedFactory",
          "type": "address"
        },
        {
          "internalType": "address",
          "name": "_uniswapRouter",
          "type": "address"
        },
        {
          "internalType": "address",
          "name": "_uniswapFactory",
          "type": "address"
        },
        {
          "internalType": "address",
          "name": "_multiSigWallet",
          "type": "address"
        }
      ],
      "stateMutability": "nonpayable",
      "type": "constructor"
    },
    {
      "anonymous": false,
      "inputs": [
        {
          "indexed": true,
          "internalType": "address",
          "name": "_dexAddress",
          "type": "address"
        },
        {
          "indexed": true,
          "internalType": "address",
          "name": "_convertToken",
          "type": "address"
        },
        {
          "indexed": false,
          "internalType": "uint256",
          "name": "_convertAmount",
          "type": "uint256"
        },
        {
          "indexed": false,
          "internalType": "uint256",
          "name": "_desiredAmount",
          "type": "uint256"
        },
        {
          "indexed": false,
          "internalType": "uint256",
          "name": "_convertedAmount",
          "type": "uint256"
        }
      ],
      "name": "ConvertedTokenToETH",
      "type": "event"
    },
    {
      "anonymous": false,
      "inputs": [
        {
          "indexed": true,
          "internalType": "address",
          "name": "_dexAddress",
          "type": "address"
        },
        {
          "indexed": true,
          "internalType": "address",
          "name": "_convertToken",
          "type": "address"
        },
        {
          "indexed": true,
          "internalType": "address",
          "name": "_convertedToken",
          "type": "address"
        },
        {
          "indexed": false,
          "internalType": "uint256",
          "name": "_convertAmount",
          "type": "uint256"
        },
        {
          "indexed": false,
          "internalType": "uint256",
          "name": "_desiredAmount",
          "type": "uint256"
        },
        {
          "indexed": false,
          "internalType": "uint256",
          "name": "_convertedAmount",
          "type": "uint256"
        }
      ],
      "name": "ConvertedTokenToToken",
      "type": "event"
    },
    {
      "anonymous": false,
      "inputs": [
        {
          "indexed": true,
          "internalType": "address",
          "name": "_exchangeAgent",
          "type": "address"
        },
        {
          "indexed": true,
          "internalType": "address",
          "name": "_whiteListAddress",
          "type": "address"
        }
      ],
      "name": "LogAddWhiteList",
      "type": "event"
    },
    {
      "anonymous": false,
      "inputs": [
        {
          "indexed": true,
          "internalType": "address",
          "name": "_exchangeAgent",
          "type": "address"
        },
        {
          "indexed": true,
          "internalType": "address",
          "name": "_whiteListAddress",
          "type": "address"
        }
      ],
      "name": "LogRemoveWhiteList",
      "type": "event"
    },
    {
      "anonymous": false,
      "inputs": [
        {
          "indexed": true,
          "internalType": "address",
          "name": "_exchangeAgent",
          "type": "address"
        },
        {
          "indexed": false,
          "internalType": "uint256",
          "name": "_slippage",
          "type": "uint256"
        }
      ],
      "name": "LogSetSlippage",
      "type": "event"
    },
    {
      "anonymous": false,
      "inputs": [
        {
          "indexed": true,
          "internalType": "address",
          "name": "previousOwner",
          "type": "address"
        },
        {
          "indexed": true,
          "internalType": "address",
          "name": "newOwner",
          "type": "address"
        }
      ],
      "name": "OwnershipTransferred",
      "type": "event"
    },
    {
      "inputs": [],
      "name": "TWAP_ORACLE_PRICE_FEED_FACTORY",
      "outputs": [
        {
          "internalType": "address",
          "name": "",
          "type": "address"
        }
      ],
      "stateMutability": "view",
      "type": "function"
    },
    {
      "inputs": [],
      "name": "UNISWAP_FACTORY",
      "outputs": [
        {
          "internalType": "address",
          "name": "",
          "type": "address"
        }
      ],
      "stateMutability": "view",
      "type": "function"
    },
    {
      "inputs": [],
      "name": "UNISWAP_ROUTER",
      "outputs": [
        {
          "internalType": "address",
          "name": "",
          "type": "address"
        }
      ],
      "stateMutability": "view",
      "type": "function"
    },
    {
      "inputs": [],
      "name": "USDC_TOKEN",
      "outputs": [
        {
          "internalType": "address",
          "name": "",
          "type": "address"
        }
      ],
      "stateMutability": "view",
      "type": "function"
    },
    {
      "inputs": [],
      "name": "WETH",
      "outputs": [
        {
          "internalType": "address",
          "name": "",
          "type": "address"
        }
      ],
      "stateMutability": "view",
      "type": "function"
    },
    {
      "inputs": [
        {
          "internalType": "address",
          "name": "_whiteListAddress",
          "type": "address"
        }
      ],
      "name": "addWhiteList",
      "outputs": [],
      "stateMutability": "nonpayable",
      "type": "function"
    },
    {
      "inputs": [
        {
          "internalType": "address",
          "name": "_token",
          "type": "address"
        },
        {
          "internalType": "uint256",
          "name": "_convertAmount",
          "type": "uint256"
        }
      ],
      "name": "convertForETH",
      "outputs": [
        {
          "internalType": "uint256",
          "name": "",
          "type": "uint256"
        }
      ],
      "stateMutability": "nonpayable",
      "type": "function"
    },
    {
      "inputs": [
        {
          "internalType": "address",
          "name": "_token0",
          "type": "address"
        },
        {
          "internalType": "address",
          "name": "_token1",
          "type": "address"
        },
        {
          "internalType": "uint256",
          "name": "_token0Amount",
          "type": "uint256"
        }
      ],
      "name": "convertForToken",
      "outputs": [
        {
          "internalType": "uint256",
          "name": "",
          "type": "uint256"
        }
      ],
      "stateMutability": "nonpayable",
      "type": "function"
    },
    {
      "inputs": [
        {
          "internalType": "address",
          "name": "_token",
          "type": "address"
        },
        {
          "internalType": "uint256",
          "name": "_tokenAmount",
          "type": "uint256"
        }
      ],
      "name": "getETHAmountForToken",
      "outputs": [
        {
          "internalType": "uint256",
          "name": "",
          "type": "uint256"
        }
      ],
      "stateMutability": "view",
      "type": "function"
    },
    {
      "inputs": [
        {
          "internalType": "uint256",
          "name": "_usdtAmount",
          "type": "uint256"
        }
      ],
      "name": "getETHAmountForUSDC",
      "outputs": [
        {
          "internalType": "uint256",
          "name": "",
          "type": "uint256"
        }
      ],
      "stateMutability": "view",
      "type": "function"
    },
    {
      "inputs": [
        {
          "internalType": "address",
          "name": "_token0",
          "type": "address"
        },
        {
          "internalType": "address",
          "name": "_token1",
          "type": "address"
        },
        {
          "internalType": "uint256",
          "name": "_token0Amount",
          "type": "uint256"
        }
      ],
      "name": "getNeededTokenAmount",
      "outputs": [
        {
          "internalType": "uint256",
          "name": "",
          "type": "uint256"
        }
      ],
      "stateMutability": "view",
      "type": "function"
    },
    {
      "inputs": [
        {
          "internalType": "address",
          "name": "_token",
          "type": "address"
        },
        {
          "internalType": "uint256",
          "name": "_usdtAmount",
          "type": "uint256"
        }
      ],
      "name": "getTokenAmountForUSDC",
      "outputs": [
        {
          "internalType": "uint256",
          "name": "",
          "type": "uint256"
        }
      ],
      "stateMutability": "view",
      "type": "function"
    },
    {
      "inputs": [],
      "name": "owner",
      "outputs": [
        {
          "internalType": "address",
          "name": "",
          "type": "address"
        }
      ],
      "stateMutability": "view",
      "type": "function"
    },
    {
      "inputs": [
        {
          "internalType": "address",
          "name": "_whiteListAddress",
          "type": "address"
        }
      ],
      "name": "removeWhiteList",
      "outputs": [],
      "stateMutability": "nonpayable",
      "type": "function"
    },
    {
      "inputs": [],
      "name": "renounceOwnership",
      "outputs": [],
      "stateMutability": "nonpayable",
      "type": "function"
    },
    {
      "inputs": [
        {
          "internalType": "uint256",
          "name": "_slippage",
          "type": "uint256"
        }
      ],
      "name": "setSlippage",
      "outputs": [],
      "stateMutability": "nonpayable",
      "type": "function"
    },
    {
      "inputs": [],
      "name": "slippage",
      "outputs": [
        {
          "internalType": "uint256",
          "name": "",
          "type": "uint256"
        }
      ],
      "stateMutability": "view",
      "type": "function"
    },
    {
      "inputs": [
        {
          "internalType": "address",
          "name": "newOwner",
          "type": "address"
        }
      ],
      "name": "transferOwnership",
      "outputs": [],
      "stateMutability": "nonpayable",
      "type": "function"
    },
    {
      "inputs": [
        {
          "internalType": "address",
          "name": "",
          "type": "address"
        }
      ],
      "name": "whiteList",
      "outputs": [
        {
          "internalType": "bool",
          "name": "",
          "type": "bool"
        }
      ],
      "stateMutability": "view",
      "type": "function"
    },
    {
      "stateMutability": "payable",
      "type": "receive"
    }
  ],
  "transactionHash": "0x4e3d586fa1875e99d5372dc429168e3e81c06f0710e8c63887c58cf633756477",
  "args": [
    "0x40c035016AD732b6cFce34c3F881040B6C6cf71E",
    "0xc778417e063141139fce010982780140aa0cd5ab",
    "0x6fa8a7E5c13E4094fD4Fa288ba59544791E4c9d3",
    "0x7a250d5630B4cF539739dF2C5dAcb4c659F2488D",
    "0x5C69bEe701ef814a2B6a3EDD4B1652CB9cc5aA6f",
    "0xfadD5ddd92fa216C08C096958Efec97179F6fC58"
  ],
  "solcInputHash": "9c34ee606f87ff608005a3853a8c7b58",
  "bytecode": "0x6101206040523480156200001257600080fd5b50604051620024e9380380620024e98339810160408190526200003591620002c1565b60016000556200004e62000048620001c2565b620001c6565b6001600160a01b038616620000805760405162461bcd60e51b815260040162000077906200048f565b60405180910390fd5b6001600160a01b038416620000a95760405162461bcd60e51b81526004016200007790620003be565b6001600160a01b038316620000d25760405162461bcd60e51b815260040162000077906200040c565b6001600160a01b038216620000fb5760405162461bcd60e51b81526004016200007790620004fb565b6001600160a01b038516620001245760405162461bcd60e51b8152600401620000779062000341565b6001600160a01b0381166200014d5760405162461bcd60e51b815260040162000077906200044d565b6001600160601b0319606087811b821660805283811b821660a05285811b821660c05284811b821660e05286901b1661010052336000908152600360205260409020805460ff19166001179055620001a8606460056200053d565b600255620001b68162000218565b50505050505062000569565b3390565b600180546001600160a01b038381166001600160a01b0319831681179093556040519116919082907f8be0079c531659141344cd1fd0a4f28419497f9722a3daafe3b4186f6b6457e090600090a35050565b62000222620001c2565b6001600160a01b03166200023562000295565b6001600160a01b0316146200025e5760405162461bcd60e51b81526004016200007790620004c6565b6001600160a01b038116620002875760405162461bcd60e51b8152600401620000779062000378565b6200029281620001c6565b50565b6001546001600160a01b031690565b80516001600160a01b0381168114620002bc57600080fd5b919050565b60008060008060008060c08789031215620002da578182fd5b620002e587620002a4565b9550620002f560208801620002a4565b94506200030560408801620002a4565b93506200031560608801620002a4565b92506200032560808801620002a4565b91506200033560a08801620002a4565b90509295509295509295565b60208082526018908201527f556e6f52653a207a65726f205745544820616464726573730000000000000000604082015260600190565b60208082526026908201527f4f776e61626c653a206e6577206f776e657220697320746865207a65726f206160408201526564647265737360d01b606082015260800190565b6020808252602e908201527f556e6f52653a207a65726f20747761704f7261636c655072696365466565644660408201526d6163746f7279206164647265737360901b606082015260800190565b60208082526021908201527f556e6f52653a207a65726f20756e6973776170526f75746572206164647265736040820152607360f81b606082015260800190565b60208082526022908201527f556e6f52653a207a65726f206d756c746973696777616c6c6574206164647265604082015261737360f01b606082015260800190565b60208082526018908201527f556e6f52653a207a65726f205553444320616464726573730000000000000000604082015260600190565b6020808252818101527f4f776e61626c653a2063616c6c6572206973206e6f7420746865206f776e6572604082015260600190565b60208082526022908201527f556e6f52653a207a65726f20756e6973776170466163746f7279206164647265604082015261737360f01b606082015260800190565b60008160001904831182151516156200056457634e487b7160e01b81526011600452602481fd5b500290565b60805160601c60a05160601c60c05160601c60e05160601c6101005160601c611ed862000611600039600081816103960152818161050a015281816106da015281816108b6015281816109a80152818161150501526115f00152600081816107690152818161094301526109f00152600081816105910152610d3f0152600081816109cc0152610c610152600081816104e9015281816109800152610c3a0152611ed86000f3fe6080604052600436106101485760003560e01c806393badc41116100c0578063d826492011610074578063f0fa55a911610059578063f0fa55a914610339578063f2fde38b14610359578063fa569274146103795761014f565b8063d826492014610304578063e7cd4a04146103195761014f565b8063a9a12d43116100a5578063a9a12d43146102ba578063ad5c4648146102da578063c74c0fac146102ef5761014f565b806393badc411461027a5780639a5539681461029a5761014f565b80633e032a3b11610117578063715018a6116100fc578063715018a61461022e5780638da5cb5b1461024357806390600a31146102655761014f565b80633e032a3b146101f9578063531a22111461020e5761014f565b8063102e3259146101545780632042e5c21461018a57806334899be6146101ac578063372c12b1146101cc5761014f565b3661014f57005b600080fd5b34801561016057600080fd5b5061017461016f36600461188c565b61038e565b6040516101819190611d91565b60405180910390f35b34801561019657600080fd5b506101aa6101a5366004611814565b6103c2565b005b3480156101b857600080fd5b506101746101c736600461184c565b6104b2565b3480156101d857600080fd5b506101ec6101e7366004611814565b6104c7565b60405161018191906119ee565b34801561020557600080fd5b506101746104dc565b34801561021a57600080fd5b506101746102293660046118d7565b6104e2565b34801561023a57600080fd5b506101aa610535565b34801561024f57600080fd5b50610258610580565b6040516101819190611983565b34801561027157600080fd5b5061025861058f565b34801561028657600080fd5b5061017461029536600461184c565b6105b3565b3480156102a657600080fd5b506101746102b536600461188c565b6107a1565b3480156102c657600080fd5b506101746102d536600461188c565b610979565b3480156102e657600080fd5b506102586109a6565b3480156102fb57600080fd5b506102586109ca565b34801561031057600080fd5b506102586109ee565b34801561032557600080fd5b506101aa610334366004611814565b610a12565b34801561034557600080fd5b506101aa6103543660046118d7565b610afd565b34801561036557600080fd5b506101aa610374366004611814565b610bc7565b34801561038557600080fd5b50610258610c38565b60006103bb837f000000000000000000000000000000000000000000000000000000000000000084610c5c565b9392505050565b6103ca610e53565b6001600160a01b03166103db610580565b6001600160a01b03161461040a5760405162461bcd60e51b815260040161040190611c23565b60405180910390fd5b6001600160a01b0381166104305760405162461bcd60e51b815260040161040190611a8d565b6001600160a01b03811660009081526003602052604090205460ff166104685760405162461bcd60e51b815260040161040190611ac4565b6001600160a01b038116600081815260036020526040808220805460ff191690555130917f2f467772ef0a5478314f3bc2b37d4b2ad29b65f052b2cedc8e2972dda033529291a350565b60006104bf848484610c5c565b949350505050565b60036020526000908152604090205460ff1681565b60025481565b600061052f7f00000000000000000000000000000000000000000000000000000000000000007f000000000000000000000000000000000000000000000000000000000000000084610c5c565b92915050565b61053d610e53565b6001600160a01b031661054e610580565b6001600160a01b0316146105745760405162461bcd60e51b815260040161040190611c23565b61057e6000610e57565b565b6001546001600160a01b031690565b7f000000000000000000000000000000000000000000000000000000000000000081565b3360009081526003602052604081205460ff166105e25760405162461bcd60e51b815260040161040190611cb5565b600260005414156106055760405162461bcd60e51b815260040161040190611d5a565b600260009081556001600160a01b038516156106d5576040516370a0823160e01b81526000906001600160a01b038716906370a082319061064a903390600401611983565b60206040518083038186803b15801561066257600080fd5b505afa158015610676573d6000803e3d6000fd5b505050506040513d601f19601f8201168201806040525081019061069a91906118ef565b116106b75760405162461bcd60e51b8152600401610401906119f9565b6106c385333086610ec1565b6106ce858585610c5c565b9050610703565b6107007f00000000000000000000000000000000000000000000000000000000000000008585610c5c565b90505b600081116107235760405162461bcd60e51b815260040161040190611d23565b60006064806002546064806107389190611e41565b6107429190611e60565b61074c9085611e41565b6107569190611e21565b6107609190611e21565b905060006107917f000000000000000000000000000000000000000000000000000000000000000088888886610fc6565b6001600055979650505050505050565b3360009081526003602052604081205460ff166107d05760405162461bcd60e51b815260040161040190611cb5565b600260005414156107f35760405162461bcd60e51b815260040161040190611d5a565b600260009081556040516370a0823160e01b81526001600160a01b038516906370a0823190610826903390600401611983565b60206040518083038186803b15801561083e57600080fd5b505afa158015610852573d6000803e3d6000fd5b505050506040513d601f19601f8201168201806040525081019061087691906118ef565b116108935760405162461bcd60e51b8152600401610401906119f9565b6001600160a01b038316156108ae576108ae83333085610ec1565b60006108db847f000000000000000000000000000000000000000000000000000000000000000085610c5c565b9050600081116108fd5760405162461bcd60e51b815260040161040190611d23565b60006064806002546064806109129190611e41565b61091c9190611e60565b6109269085611e41565b6109309190611e21565b61093a9190611e21565b9050600061096a7f0000000000000000000000000000000000000000000000000000000000000000878785611454565b60016000559695505050505050565b60006103bb7f00000000000000000000000000000000000000000000000000000000000000008484610c5c565b7f000000000000000000000000000000000000000000000000000000000000000081565b7f000000000000000000000000000000000000000000000000000000000000000081565b7f000000000000000000000000000000000000000000000000000000000000000081565b610a1a610e53565b6001600160a01b0316610a2b610580565b6001600160a01b031614610a515760405162461bcd60e51b815260040161040190611c23565b6001600160a01b038116610a775760405162461bcd60e51b815260040161040190611a8d565b6001600160a01b03811660009081526003602052604090205460ff1615610ab05760405162461bcd60e51b815260040161040190611b7e565b6001600160a01b038116600081815260036020526040808220805460ff191660011790555130917f8cd7b0b1a7316eb3e5d781d629cb8bf4e2fd9a8903bdd0f6b894c087d61b21f291a350565b610b05610e53565b6001600160a01b0316610b16610580565b6001600160a01b031614610b3c5760405162461bcd60e51b815260040161040190611c23565b60008111610b5c5760405162461bcd60e51b815260040161040190611bb5565b60648110610b7c5760405162461bcd60e51b815260040161040190611cec565b610b87606482611e41565b60025560405130907f1b5c61e79b0735d33852817a0af9ed28b909c7c0a2a04abcc0c19bba6d6ba56490610bbc908490611d91565b60405180910390a250565b610bcf610e53565b6001600160a01b0316610be0610580565b6001600160a01b031614610c065760405162461bcd60e51b815260040161040190611c23565b6001600160a01b038116610c2c5760405162461bcd60e51b815260040161040190611a30565b610c3581610e57565b50565b7f000000000000000000000000000000000000000000000000000000000000000081565b6000807f00000000000000000000000000000000000000000000000000000000000000006001600160a01b031663e6a4390586866040518363ffffffff1660e01b8152600401610cad929190611997565b60206040518083038186803b158015610cc557600080fd5b505afa158015610cd9573d6000803e3d6000fd5b505050506040513d601f19601f82011682018060405250810190610cfd9190611830565b90506001600160a01b038116610d255760405162461bcd60e51b815260040161040190611bec565b604051632de7797560e11b81526000906001600160a01b037f00000000000000000000000000000000000000000000000000000000000000001690635bcef2ea90610d769089908990600401611997565b60206040518083038186803b158015610d8e57600080fd5b505afa158015610da2573d6000803e3d6000fd5b505050506040513d601f19601f82011682018060405250810190610dc69190611830565b90506000816001600160a01b0316633ddac95388876040518363ffffffff1660e01b8152600401610df89291906119d5565b60206040518083038186803b158015610e1057600080fd5b505afa158015610e24573d6000803e3d6000fd5b505050506040513d601f19601f82011682018060405250810190610e4891906118ef565b979650505050505050565b3390565b600180546001600160a01b038381167fffffffffffffffffffffffff0000000000000000000000000000000000000000831681179093556040519116919082907f8be0079c531659141344cd1fd0a4f28419497f9722a3daafe3b4186f6b6457e090600090a35050565b600080856001600160a01b03166323b872dd868686604051602401610ee8939291906119b1565b6040516020818303038152906040529060e01b6020820180517bffffffffffffffffffffffffffffffffffffffffffffffffffffffff8381831617835250505050604051610f36919061194a565b6000604051808303816000865af19150503d8060008114610f73576040519150601f19603f3d011682016040523d82523d6000602084013e610f78565b606091505b5091509150818015610fa2575080511580610fa2575080806020019051810190610fa291906118b7565b610fbe5760405162461bcd60e51b815260040161040190611b21565b505050505050565b6000808690506000816001600160a01b031663c45a01556040518163ffffffff1660e01b815260040160206040518083038186803b15801561100757600080fd5b505afa15801561101b573d6000803e3d6000fd5b505050506040513d601f19601f8201168201806040525081019061103f9190611830565b90506000866001600160a01b03166370a08231336040518263ffffffff1660e01b815260040161106f9190611983565b60206040518083038186803b15801561108757600080fd5b505afa15801561109b573d6000803e3d6000fd5b505050506040513d601f19601f820116820180604052508101906110bf91906118ef565b90506000836001600160a01b031663ad5c46486040518163ffffffff1660e01b815260040160206040518083038186803b1580156110fc57600080fd5b505afa158015611110573d6000803e3d6000fd5b505050506040513d601f19601f820116820180604052508101906111349190611830565b90506001600160a01b03891615611152575087611152818589611712565b60405163e6a4390560e01b81526000906001600160a01b0385169063e6a43905906111839085908d90600401611997565b60206040518083038186803b15801561119b57600080fd5b505afa1580156111af573d6000803e3d6000fd5b505050506040513d601f19601f820116820180604052508101906111d39190611830565b6001600160a01b03161461135657604080516002808252606082018352600092602083019080368337019050509050818160008151811061122457634e487b7160e01b600052603260045260246000fd5b60200260200101906001600160a01b031690816001600160a01b031681525050888160018151811061126657634e487b7160e01b600052603260045260246000fd5b6001600160a01b0392831660209182029290920101528a166112ed5760405163b6f9de9560e01b81526001600160a01b0386169063b6f9de95908a906112b6908b90869033904290600401611d9a565b6000604051808303818588803b1580156112cf57600080fd5b505af11580156112e3573d6000803e3d6000fd5b5050505050611354565b604051635c11d79560e01b81526001600160a01b03861690635c11d79590611321908b908b90869033904290600401611dcf565b600060405180830381600087803b15801561133b57600080fd5b505af115801561134f573d6000803e3d6000fd5b505050505b505b6040516370a0823160e01b81526000906001600160a01b038a16906370a0823190611385903390600401611983565b60206040518083038186803b15801561139d57600080fd5b505afa1580156113b1573d6000803e3d6000fd5b505050506040513d601f19601f820116820180604052508101906113d591906118ef565b9050886001600160a01b03168a6001600160a01b03168c6001600160a01b03167fd30edfe8aafab67575a170d015da0337bcb39e5c9af1b2dfb9294fb75b344ac38b8b88876114249190611e60565b60405161143393929190611e0b565b60405180910390a46114458382611e60565b9b9a5050505050505050505050565b6000808590506000816001600160a01b031663c45a01556040518163ffffffff1660e01b815260040160206040518083038186803b15801561149557600080fd5b505afa1580156114a9573d6000803e3d6000fd5b505050506040513d601f19601f820116820180604052508101906114cd9190611830565b905033316114dc878488611712565b60405163e6a4390560e01b81526000906001600160a01b0384169063e6a439059061152d908b907f000000000000000000000000000000000000000000000000000000000000000090600401611997565b60206040518083038186803b15801561154557600080fd5b505afa158015611559573d6000803e3d6000fd5b505050506040513d601f19601f8201168201806040525081019061157d9190611830565b6001600160a01b0316146116a75760408051600280825260608201835260009260208301908036833701905050905087816000815181106115ce57634e487b7160e01b600052603260045260246000fd5b60200260200101906001600160a01b031690816001600160a01b0316815250507f00000000000000000000000000000000000000000000000000000000000000008160018151811061163057634e487b7160e01b600052603260045260246000fd5b6001600160a01b03928316602091820292909201015260405163791ac94760e01b81529085169063791ac94790611673908a908a90869033904290600401611dcf565b600060405180830381600087803b15801561168d57600080fd5b505af11580156116a1573d6000803e3d6000fd5b50505050505b33316001600160a01b03888116908a167f1df84ee81df9963f5d40b2a3f717360c1f62daa6f21f69580398a8d570de644c89896116e48787611e60565b6040516116f393929190611e0b565b60405180910390a36117058282611e60565b9998505050505050505050565b600080846001600160a01b031663095ea7b385856040516024016117379291906119d5565b6040516020818303038152906040529060e01b6020820180517bffffffffffffffffffffffffffffffffffffffffffffffffffffffff8381831617835250505050604051611785919061194a565b6000604051808303816000865af19150503d80600081146117c2576040519150601f19603f3d011682016040523d82523d6000602084013e6117c7565b606091505b50915091508180156117f15750805115806117f15750808060200190518101906117f191906118b7565b61180d5760405162461bcd60e51b815260040161040190611c58565b5050505050565b600060208284031215611825578081fd5b81356103bb81611e8d565b600060208284031215611841578081fd5b81516103bb81611e8d565b600080600060608486031215611860578182fd5b833561186b81611e8d565b9250602084013561187b81611e8d565b929592945050506040919091013590565b6000806040838503121561189e578182fd5b82356118a981611e8d565b946020939093013593505050565b6000602082840312156118c8578081fd5b815180151581146103bb578182fd5b6000602082840312156118e8578081fd5b5035919050565b600060208284031215611900578081fd5b5051919050565b6000815180845260208085019450808401835b8381101561193f5781516001600160a01b03168752958201959082019060010161191a565b509495945050505050565b60008251815b8181101561196a5760208186018101518583015201611950565b818111156119785782828501525b509190910192915050565b6001600160a01b0391909116815260200190565b6001600160a01b0392831681529116602082015260400190565b6001600160a01b039384168152919092166020820152604081019190915260600190565b6001600160a01b03929092168252602082015260400190565b901515815260200190565b60208082526013908201527f556e6f52653a207a65726f2062616c616e636500000000000000000000000000604082015260600190565b60208082526026908201527f4f776e61626c653a206e6577206f776e657220697320746865207a65726f206160408201527f6464726573730000000000000000000000000000000000000000000000000000606082015260800190565b60208082526013908201527f556e6f52653a207a65726f206164647265737300000000000000000000000000604082015260600190565b6020808252602c908201527f556e6f52653a207768697465206c6973742072656d6f766564206f7220756e6160408201527f6464656420616c72656164790000000000000000000000000000000000000000606082015260800190565b60208082526031908201527f5472616e7366657248656c7065723a3a7472616e7366657246726f6d3a20747260408201527f616e7366657246726f6d206661696c6564000000000000000000000000000000606082015260800190565b60208082526019908201527f556e6f52653a207768697465206c69737420616c726561647900000000000000604082015260600190565b60208082526014908201527f556e6f52653a207a65726f20736c697070616765000000000000000000000000604082015260600190565b6020808252600f908201527f54686572652773206e6f20706169720000000000000000000000000000000000604082015260600190565b6020808252818101527f4f776e61626c653a2063616c6c6572206973206e6f7420746865206f776e6572604082015260600190565b6020808252602b908201527f5472616e7366657248656c7065723a3a73616665417070726f76653a2061707060408201527f726f7665206661696c6564000000000000000000000000000000000000000000606082015260800190565b6020808252601e908201527f556e6f52653a2045786368616e67654167656e7420466f7262696464656e0000604082015260600190565b6020808252601d908201527f556e6f52653a203130302520736c697070616765206f766572666c6f77000000604082015260600190565b6020808252600f908201527f556e6f52653a206e6f2070616972730000000000000000000000000000000000604082015260600190565b6020808252601f908201527f5265656e7472616e637947756172643a207265656e7472616e742063616c6c00604082015260600190565b90815260200190565b600085825260806020830152611db36080830186611907565b6001600160a01b03949094166040830152506060015292915050565b600086825285602083015260a06040830152611dee60a0830186611907565b6001600160a01b0394909416606083015250608001529392505050565b9283526020830191909152604082015260600190565b600082611e3c57634e487b7160e01b81526012600452602481fd5b500490565b6000816000190483118215151615611e5b57611e5b611e77565b500290565b600082821015611e7257611e72611e77565b500390565b634e487b7160e01b600052601160045260246000fd5b6001600160a01b0381168114610c3557600080fdfea26469706673582212200a6a309c03151fe7c076643893fb5bc6882586104a3e7fa6ddc57492c9fb39ec64736f6c63430008000033",
  "devdoc": {
    "kind": "dev",
    "methods": {
      "owner()": {
        "details": "Returns the address of the current owner."
      },
      "renounceOwnership()": {
        "details": "Leaves the contract without owner. It will not be possible to call `onlyOwner` functions anymore. Can only be called by the current owner. NOTE: Renouncing ownership will leave the contract without an owner, thereby removing any functionality that is only available to the owner."
      },
      "transferOwnership(address)": {
        "details": "Transfers ownership of the contract to a new account (`newOwner`). Can only be called by the current owner."
      }
    },
    "version": 1
  },
  "userdoc": {
    "kind": "user",
    "methods": {},
    "version": 1
  },
  "storageLayout": {
    "storage": [
      {
        "astId": 114,
        "contract": "contracts/ExchangeAgent.sol:ExchangeAgent",
        "label": "_status",
        "offset": 0,
        "slot": "0",
        "type": "t_uint256"
      },
      {
        "astId": 7,
        "contract": "contracts/ExchangeAgent.sol:ExchangeAgent",
        "label": "_owner",
        "offset": 0,
        "slot": "1",
        "type": "t_address"
      },
      {
        "astId": 3744,
        "contract": "contracts/ExchangeAgent.sol:ExchangeAgent",
        "label": "slippage",
        "offset": 0,
        "slot": "2",
        "type": "t_uint256"
      },
      {
        "astId": 3751,
        "contract": "contracts/ExchangeAgent.sol:ExchangeAgent",
        "label": "whiteList",
        "offset": 0,
        "slot": "3",
        "type": "t_mapping(t_address,t_bool)"
      }
    ],
    "types": {
      "t_address": {
        "encoding": "inplace",
        "label": "address",
        "numberOfBytes": "20"
      },
      "t_bool": {
        "encoding": "inplace",
        "label": "bool",
        "numberOfBytes": "1"
      },
      "t_mapping(t_address,t_bool)": {
        "encoding": "mapping",
        "key": "t_address",
        "label": "mapping(address => bool)",
        "numberOfBytes": "32",
        "value": "t_bool"
      },
      "t_uint256": {
        "encoding": "inplace",
        "label": "uint256",
        "numberOfBytes": "32"
      }
    }
  }
}