{
  "address": "0x1E545CbA6E77CBfcBd0a7CAD9F2D8E0051F347D4",
  "abi": [
    {
      "inputs": [
        {
          "internalType": "address",
          "name": "_usdcToken",
          "type": "address"
        },
        {
          "internalType": "address",
          "name": "_WETH",
          "type": "address"
        },
        {
          "internalType": "address",
          "name": "_twapOraclePriceFeedFactory",
          "type": "address"
        },
        {
          "internalType": "address",
          "name": "_uniswapRouter",
          "type": "address"
        },
        {
          "internalType": "address",
          "name": "_uniswapFactory",
          "type": "address"
        }
      ],
      "stateMutability": "nonpayable",
      "type": "constructor"
    },
    {
      "anonymous": false,
      "inputs": [
        {
          "indexed": true,
          "internalType": "address",
          "name": "_dexAddress",
          "type": "address"
        },
        {
          "indexed": true,
          "internalType": "address",
          "name": "_convertToken",
          "type": "address"
        },
        {
          "indexed": false,
          "internalType": "uint256",
          "name": "_convertAmount",
          "type": "uint256"
        },
        {
          "indexed": false,
          "internalType": "uint256",
          "name": "_desiredAmount",
          "type": "uint256"
        },
        {
          "indexed": false,
          "internalType": "uint256",
          "name": "_convertedAmount",
          "type": "uint256"
        }
      ],
      "name": "ConvertedTokenToETH",
      "type": "event"
    },
    {
      "anonymous": false,
      "inputs": [
        {
          "indexed": true,
          "internalType": "address",
          "name": "_dexAddress",
          "type": "address"
        },
        {
          "indexed": true,
          "internalType": "address",
          "name": "_convertToken",
          "type": "address"
        },
        {
          "indexed": true,
          "internalType": "address",
          "name": "_convertedToken",
          "type": "address"
        },
        {
          "indexed": false,
          "internalType": "uint256",
          "name": "_convertAmount",
          "type": "uint256"
        },
        {
          "indexed": false,
          "internalType": "uint256",
          "name": "_desiredAmount",
          "type": "uint256"
        },
        {
          "indexed": false,
          "internalType": "uint256",
          "name": "_convertedAmount",
          "type": "uint256"
        }
      ],
      "name": "ConvertedTokenToToken",
      "type": "event"
    },
    {
      "anonymous": false,
      "inputs": [
        {
          "indexed": true,
          "internalType": "address",
          "name": "_exchangeAgent",
          "type": "address"
        },
        {
          "indexed": true,
          "internalType": "address",
          "name": "_whiteListAddress",
          "type": "address"
        }
      ],
      "name": "LogAddWhiteList",
      "type": "event"
    },
    {
      "anonymous": false,
      "inputs": [
        {
          "indexed": true,
          "internalType": "address",
          "name": "_exchangeAgent",
          "type": "address"
        },
        {
          "indexed": true,
          "internalType": "address",
          "name": "_whiteListAddress",
          "type": "address"
        }
      ],
      "name": "LogRemoveWhiteList",
      "type": "event"
    },
    {
      "anonymous": false,
      "inputs": [
        {
          "indexed": true,
          "internalType": "address",
          "name": "_exchangeAgent",
          "type": "address"
        },
        {
          "indexed": false,
          "internalType": "uint256",
          "name": "_slippage",
          "type": "uint256"
        }
      ],
      "name": "LogSetSlippage",
      "type": "event"
    },
    {
      "inputs": [],
      "name": "TWAP_ORACLE_PRICE_FEED_FACTORY",
      "outputs": [
        {
          "internalType": "address",
          "name": "",
          "type": "address"
        }
      ],
      "stateMutability": "view",
      "type": "function"
    },
    {
      "inputs": [],
      "name": "UNISWAP_FACTORY",
      "outputs": [
        {
          "internalType": "address",
          "name": "",
          "type": "address"
        }
      ],
      "stateMutability": "view",
      "type": "function"
    },
    {
      "inputs": [],
      "name": "UNISWAP_ROUTER",
      "outputs": [
        {
          "internalType": "address",
          "name": "",
          "type": "address"
        }
      ],
      "stateMutability": "view",
      "type": "function"
    },
    {
      "inputs": [],
      "name": "USDC_TOKEN",
      "outputs": [
        {
          "internalType": "address",
          "name": "",
          "type": "address"
        }
      ],
      "stateMutability": "view",
      "type": "function"
    },
    {
      "inputs": [],
      "name": "WETH",
      "outputs": [
        {
          "internalType": "address",
          "name": "",
          "type": "address"
        }
      ],
      "stateMutability": "view",
      "type": "function"
    },
    {
      "inputs": [
        {
          "internalType": "address",
          "name": "_whiteListAddress",
          "type": "address"
        }
      ],
      "name": "addWhiteList",
      "outputs": [],
      "stateMutability": "nonpayable",
      "type": "function"
    },
    {
      "inputs": [
        {
          "internalType": "address",
          "name": "_token",
          "type": "address"
        },
        {
          "internalType": "uint256",
          "name": "_convertAmount",
          "type": "uint256"
        }
      ],
      "name": "convertForETH",
      "outputs": [
        {
          "internalType": "uint256",
          "name": "",
          "type": "uint256"
        }
      ],
      "stateMutability": "nonpayable",
      "type": "function"
    },
    {
      "inputs": [
        {
          "internalType": "address",
          "name": "_token0",
          "type": "address"
        },
        {
          "internalType": "address",
          "name": "_token1",
          "type": "address"
        },
        {
          "internalType": "uint256",
          "name": "_token0Amount",
          "type": "uint256"
        }
      ],
      "name": "convertForToken",
      "outputs": [
        {
          "internalType": "uint256",
          "name": "",
          "type": "uint256"
        }
      ],
      "stateMutability": "nonpayable",
      "type": "function"
    },
    {
      "inputs": [
        {
          "internalType": "address",
          "name": "_token",
          "type": "address"
        },
        {
          "internalType": "uint256",
          "name": "_tokenAmount",
          "type": "uint256"
        }
      ],
      "name": "getETHAmountForToken",
      "outputs": [
        {
          "internalType": "uint256",
          "name": "",
          "type": "uint256"
        }
      ],
      "stateMutability": "view",
      "type": "function"
    },
    {
      "inputs": [
        {
          "internalType": "uint256",
          "name": "_usdtAmount",
          "type": "uint256"
        }
      ],
      "name": "getETHAmountForUSDC",
      "outputs": [
        {
          "internalType": "uint256",
          "name": "",
          "type": "uint256"
        }
      ],
      "stateMutability": "view",
      "type": "function"
    },
    {
      "inputs": [
        {
          "internalType": "address",
          "name": "_token0",
          "type": "address"
        },
        {
          "internalType": "address",
          "name": "_token1",
          "type": "address"
        },
        {
          "internalType": "uint256",
          "name": "_token0Amount",
          "type": "uint256"
        }
      ],
      "name": "getNeededTokenAmount",
      "outputs": [
        {
          "internalType": "uint256",
          "name": "",
          "type": "uint256"
        }
      ],
      "stateMutability": "view",
      "type": "function"
    },
    {
      "inputs": [
        {
          "internalType": "address",
          "name": "_token",
          "type": "address"
        },
        {
          "internalType": "uint256",
          "name": "_usdtAmount",
          "type": "uint256"
        }
      ],
      "name": "getTokenAmountForUSDC",
      "outputs": [
        {
          "internalType": "uint256",
          "name": "",
          "type": "uint256"
        }
      ],
      "stateMutability": "view",
      "type": "function"
    },
    {
      "inputs": [],
      "name": "owner",
      "outputs": [
        {
          "internalType": "address",
          "name": "",
          "type": "address"
        }
      ],
      "stateMutability": "view",
      "type": "function"
    },
    {
      "inputs": [
        {
          "internalType": "address",
          "name": "_whiteListAddress",
          "type": "address"
        }
      ],
      "name": "removeWhiteList",
      "outputs": [],
      "stateMutability": "nonpayable",
      "type": "function"
    },
    {
      "inputs": [
        {
          "internalType": "uint256",
          "name": "_slippage",
          "type": "uint256"
        }
      ],
      "name": "setSlippage",
      "outputs": [],
      "stateMutability": "nonpayable",
      "type": "function"
    },
    {
      "inputs": [],
      "name": "slippage",
      "outputs": [
        {
          "internalType": "uint256",
          "name": "",
          "type": "uint256"
        }
      ],
      "stateMutability": "view",
      "type": "function"
    },
    {
      "inputs": [
        {
          "internalType": "address",
          "name": "",
          "type": "address"
        }
      ],
      "name": "whiteList",
      "outputs": [
        {
          "internalType": "bool",
          "name": "",
          "type": "bool"
        }
      ],
      "stateMutability": "view",
      "type": "function"
    },
    {
      "stateMutability": "payable",
      "type": "receive"
    }
  ],
  "transactionHash": "0xfa4dc175fa9fa17ae2d6c481fbf2b9b0f6d0e93d2ce9be1576d6e81e3457f468",
  "args": [
    "0x40c035016AD732b6cFce34c3F881040B6C6cf71E",
    "0xc778417e063141139fce010982780140aa0cd5ab",
    "0x6fa8a7E5c13E4094fD4Fa288ba59544791E4c9d3",
    "0x7a250d5630B4cF539739dF2C5dAcb4c659F2488D",
    "0x5C69bEe701ef814a2B6a3EDD4B1652CB9cc5aA6f"
  ],
  "solcInputHash": "bf649fb54ad93792de572409f0dce774",
  "bytecode": "0x6101206040523480156200001257600080fd5b50604051620020a2380380620020a28339810160408190526200003591620001ab565b60016000556001600160a01b0385166200006c5760405162461bcd60e51b81526004016200006390620002e0565b60405180910390fd5b6001600160a01b038316620000955760405162461bcd60e51b8152600401620000639062000251565b6001600160a01b038216620000be5760405162461bcd60e51b815260040162000063906200029f565b6001600160a01b038116620000e75760405162461bcd60e51b8152600401620000639062000317565b6001600160a01b038416620001105760405162461bcd60e51b815260040162000063906200021a565b6001600160601b0319606086811b821660805282811b821660a05284811b821660c05283811b821660e05285901b1661010052600380546001600160a01b031916339081179091556000908152600260205260409020805460ff191660011790556200017f6064600562000359565b60015550620003859350505050565b80516001600160a01b0381168114620001a657600080fd5b919050565b600080600080600060a08688031215620001c3578081fd5b620001ce866200018e565b9450620001de602087016200018e565b9350620001ee604087016200018e565b9250620001fe606087016200018e565b91506200020e608087016200018e565b90509295509295909350565b60208082526018908201527f556e6f52653a207a65726f205745544820616464726573730000000000000000604082015260600190565b6020808252602e908201527f556e6f52653a207a65726f20747761704f7261636c655072696365466565644660408201526d6163746f7279206164647265737360901b606082015260800190565b60208082526021908201527f556e6f52653a207a65726f20756e6973776170526f75746572206164647265736040820152607360f81b606082015260800190565b60208082526018908201527f556e6f52653a207a65726f205553444320616464726573730000000000000000604082015260600190565b60208082526022908201527f556e6f52653a207a65726f20756e6973776170466163746f7279206164647265604082015261737360f01b606082015260800190565b60008160001904831182151516156200038057634e487b7160e01b81526011600452602481fd5b500290565b60805160601c60a05160601c60c05160601c60e05160601c6101005160601c611c756200042d6000396000818161032b0152818161048a0152818161060f015281816107eb015281816108dd01528181611331015261141c01526000818161069e0152818161087801526109250152600081816104c60152610bd90152600081816109010152610afb015260008181610469015281816108b50152610ad40152611c756000f3fe6080604052600436106101125760003560e01c806393badc41116100a5578063c74c0fac11610074578063e7cd4a0411610059578063e7cd4a04146102ce578063f0fa55a9146102ee578063fa5692741461030e57610119565b8063c74c0fac146102a4578063d8264920146102b957610119565b806393badc411461022f5780639a5539681461024f578063a9a12d431461026f578063ad5c46481461028f57610119565b80633e032a3b116100e15780633e032a3b146101c3578063531a2211146101d85780638da5cb5b146101f857806390600a311461021a57610119565b8063102e32591461011e5780632042e5c21461015457806334899be614610176578063372c12b11461019657610119565b3661011957005b600080fd5b34801561012a57600080fd5b5061013e6101393660046116b8565b610323565b60405161014b9190611b2b565b60405180910390f35b34801561016057600080fd5b5061017461016f366004611640565b610357565b005b34801561018257600080fd5b5061013e610191366004611678565b610432565b3480156101a257600080fd5b506101b66101b1366004611640565b610447565b60405161014b919061181a565b3480156101cf57600080fd5b5061013e61045c565b3480156101e457600080fd5b5061013e6101f3366004611703565b610462565b34801561020457600080fd5b5061020d6104b5565b60405161014b91906117af565b34801561022657600080fd5b5061020d6104c4565b34801561023b57600080fd5b5061013e61024a366004611678565b6104e8565b34801561025b57600080fd5b5061013e61026a3660046116b8565b6106d6565b34801561027b57600080fd5b5061013e61028a3660046116b8565b6108ae565b34801561029b57600080fd5b5061020d6108db565b3480156102b057600080fd5b5061020d6108ff565b3480156102c557600080fd5b5061020d610923565b3480156102da57600080fd5b506101746102e9366004611640565b610947565b3480156102fa57600080fd5b50610174610309366004611703565b610a1d565b34801561031a57600080fd5b5061020d610ad2565b6000610350837f000000000000000000000000000000000000000000000000000000000000000084610af6565b9392505050565b6003546001600160a01b0316331461038a5760405162461bcd60e51b815260040161038190611a4f565b60405180910390fd5b6001600160a01b0381166103b05760405162461bcd60e51b81526004016103819061185c565b6001600160a01b03811660009081526002602052604090205460ff166103e85760405162461bcd60e51b815260040161038190611893565b6001600160a01b038116600081815260026020526040808220805460ff191690555130917f2f467772ef0a5478314f3bc2b37d4b2ad29b65f052b2cedc8e2972dda033529291a350565b600061043f848484610af6565b949350505050565b60026020526000908152604090205460ff1681565b60015481565b60006104af7f00000000000000000000000000000000000000000000000000000000000000007f000000000000000000000000000000000000000000000000000000000000000084610af6565b92915050565b6003546001600160a01b031681565b7f000000000000000000000000000000000000000000000000000000000000000081565b3360009081526002602052604081205460ff166105175760405162461bcd60e51b815260040161038190611a4f565b6002600054141561053a5760405162461bcd60e51b815260040161038190611af4565b600260009081556001600160a01b0385161561060a576040516370a0823160e01b81526000906001600160a01b038716906370a082319061057f9033906004016117af565b60206040518083038186803b15801561059757600080fd5b505afa1580156105ab573d6000803e3d6000fd5b505050506040513d601f19601f820116820180604052508101906105cf919061171b565b116105ec5760405162461bcd60e51b815260040161038190611825565b6105f885333086610ced565b610603858585610af6565b9050610638565b6106357f00000000000000000000000000000000000000000000000000000000000000008585610af6565b90505b600081116106585760405162461bcd60e51b815260040161038190611abd565b600060648060015460648061066d9190611bdb565b6106779190611bfa565b6106819085611bdb565b61068b9190611bbb565b6106959190611bbb565b905060006106c67f000000000000000000000000000000000000000000000000000000000000000088888886610df2565b6001600055979650505050505050565b3360009081526002602052604081205460ff166107055760405162461bcd60e51b815260040161038190611a4f565b600260005414156107285760405162461bcd60e51b815260040161038190611af4565b600260009081556040516370a0823160e01b81526001600160a01b038516906370a082319061075b9033906004016117af565b60206040518083038186803b15801561077357600080fd5b505afa158015610787573d6000803e3d6000fd5b505050506040513d601f19601f820116820180604052508101906107ab919061171b565b116107c85760405162461bcd60e51b815260040161038190611825565b6001600160a01b038316156107e3576107e383333085610ced565b6000610810847f000000000000000000000000000000000000000000000000000000000000000085610af6565b9050600081116108325760405162461bcd60e51b815260040161038190611abd565b60006064806001546064806108479190611bdb565b6108519190611bfa565b61085b9085611bdb565b6108659190611bbb565b61086f9190611bbb565b9050600061089f7f0000000000000000000000000000000000000000000000000000000000000000878785611280565b60016000559695505050505050565b60006103507f00000000000000000000000000000000000000000000000000000000000000008484610af6565b7f000000000000000000000000000000000000000000000000000000000000000081565b7f000000000000000000000000000000000000000000000000000000000000000081565b7f000000000000000000000000000000000000000000000000000000000000000081565b6003546001600160a01b031633146109715760405162461bcd60e51b815260040161038190611a4f565b6001600160a01b0381166109975760405162461bcd60e51b81526004016103819061185c565b6001600160a01b03811660009081526002602052604090205460ff16156109d05760405162461bcd60e51b81526004016103819061194d565b6001600160a01b038116600081815260026020526040808220805460ff191660011790555130917f8cd7b0b1a7316eb3e5d781d629cb8bf4e2fd9a8903bdd0f6b894c087d61b21f291a350565b6003546001600160a01b03163314610a475760405162461bcd60e51b815260040161038190611a4f565b60008111610a675760405162461bcd60e51b815260040161038190611984565b60648110610a875760405162461bcd60e51b815260040161038190611a86565b610a92606482611bdb565b60015560405130907f1b5c61e79b0735d33852817a0af9ed28b909c7c0a2a04abcc0c19bba6d6ba56490610ac7908490611b2b565b60405180910390a250565b7f000000000000000000000000000000000000000000000000000000000000000081565b6000807f00000000000000000000000000000000000000000000000000000000000000006001600160a01b031663e6a4390586866040518363ffffffff1660e01b8152600401610b479291906117c3565b60206040518083038186803b158015610b5f57600080fd5b505afa158015610b73573d6000803e3d6000fd5b505050506040513d601f19601f82011682018060405250810190610b97919061165c565b90506001600160a01b038116610bbf5760405162461bcd60e51b8152600401610381906119bb565b604051632de7797560e11b81526000906001600160a01b037f00000000000000000000000000000000000000000000000000000000000000001690635bcef2ea90610c1090899089906004016117c3565b60206040518083038186803b158015610c2857600080fd5b505afa158015610c3c573d6000803e3d6000fd5b505050506040513d601f19601f82011682018060405250810190610c60919061165c565b90506000816001600160a01b0316633ddac95388876040518363ffffffff1660e01b8152600401610c92929190611801565b60206040518083038186803b158015610caa57600080fd5b505afa158015610cbe573d6000803e3d6000fd5b505050506040513d601f19601f82011682018060405250810190610ce2919061171b565b979650505050505050565b600080856001600160a01b03166323b872dd868686604051602401610d14939291906117dd565b6040516020818303038152906040529060e01b6020820180517bffffffffffffffffffffffffffffffffffffffffffffffffffffffff8381831617835250505050604051610d629190611776565b6000604051808303816000865af19150503d8060008114610d9f576040519150601f19603f3d011682016040523d82523d6000602084013e610da4565b606091505b5091509150818015610dce575080511580610dce575080806020019051810190610dce91906116e3565b610dea5760405162461bcd60e51b8152600401610381906118f0565b505050505050565b6000808690506000816001600160a01b031663c45a01556040518163ffffffff1660e01b815260040160206040518083038186803b158015610e3357600080fd5b505afa158015610e47573d6000803e3d6000fd5b505050506040513d601f19601f82011682018060405250810190610e6b919061165c565b90506000866001600160a01b03166370a08231336040518263ffffffff1660e01b8152600401610e9b91906117af565b60206040518083038186803b158015610eb357600080fd5b505afa158015610ec7573d6000803e3d6000fd5b505050506040513d601f19601f82011682018060405250810190610eeb919061171b565b90506000836001600160a01b031663ad5c46486040518163ffffffff1660e01b815260040160206040518083038186803b158015610f2857600080fd5b505afa158015610f3c573d6000803e3d6000fd5b505050506040513d601f19601f82011682018060405250810190610f60919061165c565b90506001600160a01b03891615610f7e575087610f7e81858961153e565b60405163e6a4390560e01b81526000906001600160a01b0385169063e6a4390590610faf9085908d906004016117c3565b60206040518083038186803b158015610fc757600080fd5b505afa158015610fdb573d6000803e3d6000fd5b505050506040513d601f19601f82011682018060405250810190610fff919061165c565b6001600160a01b03161461118257604080516002808252606082018352600092602083019080368337019050509050818160008151811061105057634e487b7160e01b600052603260045260246000fd5b60200260200101906001600160a01b031690816001600160a01b031681525050888160018151811061109257634e487b7160e01b600052603260045260246000fd5b6001600160a01b0392831660209182029290920101528a166111195760405163b6f9de9560e01b81526001600160a01b0386169063b6f9de95908a906110e2908b90869033904290600401611b34565b6000604051808303818588803b1580156110fb57600080fd5b505af115801561110f573d6000803e3d6000fd5b5050505050611180565b604051635c11d79560e01b81526001600160a01b03861690635c11d7959061114d908b908b90869033904290600401611b69565b600060405180830381600087803b15801561116757600080fd5b505af115801561117b573d6000803e3d6000fd5b505050505b505b6040516370a0823160e01b81526000906001600160a01b038a16906370a08231906111b19033906004016117af565b60206040518083038186803b1580156111c957600080fd5b505afa1580156111dd573d6000803e3d6000fd5b505050506040513d601f19601f82011682018060405250810190611201919061171b565b9050886001600160a01b03168a6001600160a01b03168c6001600160a01b03167fd30edfe8aafab67575a170d015da0337bcb39e5c9af1b2dfb9294fb75b344ac38b8b88876112509190611bfa565b60405161125f93929190611ba5565b60405180910390a46112718382611bfa565b9b9a5050505050505050505050565b6000808590506000816001600160a01b031663c45a01556040518163ffffffff1660e01b815260040160206040518083038186803b1580156112c157600080fd5b505afa1580156112d5573d6000803e3d6000fd5b505050506040513d601f19601f820116820180604052508101906112f9919061165c565b9050333161130887848861153e565b60405163e6a4390560e01b81526000906001600160a01b0384169063e6a4390590611359908b907f0000000000000000000000000000000000000000000000000000000000000000906004016117c3565b60206040518083038186803b15801561137157600080fd5b505afa158015611385573d6000803e3d6000fd5b505050506040513d601f19601f820116820180604052508101906113a9919061165c565b6001600160a01b0316146114d35760408051600280825260608201835260009260208301908036833701905050905087816000815181106113fa57634e487b7160e01b600052603260045260246000fd5b60200260200101906001600160a01b031690816001600160a01b0316815250507f00000000000000000000000000000000000000000000000000000000000000008160018151811061145c57634e487b7160e01b600052603260045260246000fd5b6001600160a01b03928316602091820292909201015260405163791ac94760e01b81529085169063791ac9479061149f908a908a90869033904290600401611b69565b600060405180830381600087803b1580156114b957600080fd5b505af11580156114cd573d6000803e3d6000fd5b50505050505b33316001600160a01b03888116908a167f1df84ee81df9963f5d40b2a3f717360c1f62daa6f21f69580398a8d570de644c89896115108787611bfa565b60405161151f93929190611ba5565b60405180910390a36115318282611bfa565b9998505050505050505050565b600080846001600160a01b031663095ea7b38585604051602401611563929190611801565b6040516020818303038152906040529060e01b6020820180517bffffffffffffffffffffffffffffffffffffffffffffffffffffffff83818316178352505050506040516115b19190611776565b6000604051808303816000865af19150503d80600081146115ee576040519150601f19603f3d011682016040523d82523d6000602084013e6115f3565b606091505b509150915081801561161d57508051158061161d57508080602001905181019061161d91906116e3565b6116395760405162461bcd60e51b8152600401610381906119f2565b5050505050565b600060208284031215611651578081fd5b813561035081611c27565b60006020828403121561166d578081fd5b815161035081611c27565b60008060006060848603121561168c578182fd5b833561169781611c27565b925060208401356116a781611c27565b929592945050506040919091013590565b600080604083850312156116ca578182fd5b82356116d581611c27565b946020939093013593505050565b6000602082840312156116f4578081fd5b81518015158114610350578182fd5b600060208284031215611714578081fd5b5035919050565b60006020828403121561172c578081fd5b5051919050565b6000815180845260208085019450808401835b8381101561176b5781516001600160a01b031687529582019590820190600101611746565b509495945050505050565b60008251815b81811015611796576020818601810151858301520161177c565b818111156117a45782828501525b509190910192915050565b6001600160a01b0391909116815260200190565b6001600160a01b0392831681529116602082015260400190565b6001600160a01b039384168152919092166020820152604081019190915260600190565b6001600160a01b03929092168252602082015260400190565b901515815260200190565b60208082526013908201527f556e6f52653a207a65726f2062616c616e636500000000000000000000000000604082015260600190565b60208082526013908201527f556e6f52653a207a65726f206164647265737300000000000000000000000000604082015260600190565b6020808252602c908201527f556e6f52653a207768697465206c6973742072656d6f766564206f7220756e6160408201527f6464656420616c72656164790000000000000000000000000000000000000000606082015260800190565b60208082526031908201527f5472616e7366657248656c7065723a3a7472616e7366657246726f6d3a20747260408201527f616e7366657246726f6d206661696c6564000000000000000000000000000000606082015260800190565b60208082526019908201527f556e6f52653a207768697465206c69737420616c726561647900000000000000604082015260600190565b60208082526014908201527f556e6f52653a207a65726f20736c697070616765000000000000000000000000604082015260600190565b6020808252600f908201527f54686572652773206e6f20706169720000000000000000000000000000000000604082015260600190565b6020808252602b908201527f5472616e7366657248656c7065723a3a73616665417070726f76653a2061707060408201527f726f7665206661696c6564000000000000000000000000000000000000000000606082015260800190565b6020808252601e908201527f556e6f52653a2045786368616e67654167656e7420466f7262696464656e0000604082015260600190565b6020808252601d908201527f556e6f52653a203130302520736c697070616765206f766572666c6f77000000604082015260600190565b6020808252600f908201527f556e6f52653a206e6f2070616972730000000000000000000000000000000000604082015260600190565b6020808252601f908201527f5265656e7472616e637947756172643a207265656e7472616e742063616c6c00604082015260600190565b90815260200190565b600085825260806020830152611b4d6080830186611733565b6001600160a01b03949094166040830152506060015292915050565b600086825285602083015260a06040830152611b8860a0830186611733565b6001600160a01b0394909416606083015250608001529392505050565b9283526020830191909152604082015260600190565b600082611bd657634e487b7160e01b81526012600452602481fd5b500490565b6000816000190483118215151615611bf557611bf5611c11565b500290565b600082821015611c0c57611c0c611c11565b500390565b634e487b7160e01b600052601160045260246000fd5b6001600160a01b0381168114611c3c57600080fd5b5056fea26469706673582212207fb14d5485c53732bdaa4bbc955d5959cccbfb0d34f568222eda9344f2562bfb64736f6c63430008000033",
  "devdoc": {
    "kind": "dev",
    "methods": {},
    "version": 1
  },
  "userdoc": {
    "kind": "user",
    "methods": {},
    "version": 1
  },
  "storageLayout": {
    "storage": [
      {
        "astId": 114,
        "contract": "contracts/ExchangeAgent.sol:ExchangeAgent",
        "label": "_status",
        "offset": 0,
        "slot": "0",
        "type": "t_uint256"
      },
      {
        "astId": 3741,
        "contract": "contracts/ExchangeAgent.sol:ExchangeAgent",
        "label": "slippage",
        "offset": 0,
        "slot": "1",
        "type": "t_uint256"
      },
      {
        "astId": 3748,
        "contract": "contracts/ExchangeAgent.sol:ExchangeAgent",
        "label": "whiteList",
        "offset": 0,
        "slot": "2",
        "type": "t_mapping(t_address,t_bool)"
      },
      {
        "astId": 3750,
        "contract": "contracts/ExchangeAgent.sol:ExchangeAgent",
        "label": "owner",
        "offset": 0,
        "slot": "3",
        "type": "t_address"
      }
    ],
    "types": {
      "t_address": {
        "encoding": "inplace",
        "label": "address",
        "numberOfBytes": "20"
      },
      "t_bool": {
        "encoding": "inplace",
        "label": "bool",
        "numberOfBytes": "1"
      },
      "t_mapping(t_address,t_bool)": {
        "encoding": "mapping",
        "key": "t_address",
        "label": "mapping(address => bool)",
        "numberOfBytes": "32",
        "value": "t_bool"
      },
      "t_uint256": {
        "encoding": "inplace",
        "label": "uint256",
        "numberOfBytes": "32"
      }
    }
  }
}