{
  "address": "0x5b82ea1611F07910276CE161B7ea717f971439d1",
  "abi": [
    {
      "inputs": [],
      "stateMutability": "nonpayable",
      "type": "constructor"
    },
    {
      "anonymous": false,
      "inputs": [
        {
          "indexed": true,
          "internalType": "address",
          "name": "owner",
          "type": "address"
        },
        {
          "indexed": true,
          "internalType": "address",
          "name": "spender",
          "type": "address"
        },
        {
          "indexed": false,
          "internalType": "uint256",
          "name": "value",
          "type": "uint256"
        }
      ],
      "name": "Approval",
      "type": "event"
    },
    {
      "anonymous": false,
      "inputs": [
        {
          "indexed": true,
          "internalType": "address",
          "name": "previousOwner",
          "type": "address"
        },
        {
          "indexed": true,
          "internalType": "address",
          "name": "newOwner",
          "type": "address"
        }
      ],
      "name": "OwnershipTransferred",
      "type": "event"
    },
    {
      "anonymous": false,
      "inputs": [
        {
          "indexed": true,
          "internalType": "address",
          "name": "from",
          "type": "address"
        },
        {
          "indexed": true,
          "internalType": "address",
          "name": "to",
          "type": "address"
        },
        {
          "indexed": false,
          "internalType": "uint256",
          "name": "value",
          "type": "uint256"
        }
      ],
      "name": "Transfer",
      "type": "event"
    },
    {
      "inputs": [
        {
          "internalType": "address",
          "name": "owner",
          "type": "address"
        },
        {
          "internalType": "address",
          "name": "spender",
          "type": "address"
        }
      ],
      "name": "allowance",
      "outputs": [
        {
          "internalType": "uint256",
          "name": "",
          "type": "uint256"
        }
      ],
      "stateMutability": "view",
      "type": "function"
    },
    {
      "inputs": [
        {
          "internalType": "address",
          "name": "spender",
          "type": "address"
        },
        {
          "internalType": "uint256",
          "name": "amount",
          "type": "uint256"
        }
      ],
      "name": "approve",
      "outputs": [
        {
          "internalType": "bool",
          "name": "",
          "type": "bool"
        }
      ],
      "stateMutability": "nonpayable",
      "type": "function"
    },
    {
      "inputs": [
        {
          "internalType": "address",
          "name": "account",
          "type": "address"
        }
      ],
      "name": "balanceOf",
      "outputs": [
        {
          "internalType": "uint256",
          "name": "",
          "type": "uint256"
        }
      ],
      "stateMutability": "view",
      "type": "function"
    },
    {
      "inputs": [],
      "name": "decimals",
      "outputs": [
        {
          "internalType": "uint8",
          "name": "",
          "type": "uint8"
        }
      ],
      "stateMutability": "view",
      "type": "function"
    },
    {
      "inputs": [
        {
          "internalType": "address",
          "name": "spender",
          "type": "address"
        },
        {
          "internalType": "uint256",
          "name": "subtractedValue",
          "type": "uint256"
        }
      ],
      "name": "decreaseAllowance",
      "outputs": [
        {
          "internalType": "bool",
          "name": "",
          "type": "bool"
        }
      ],
      "stateMutability": "nonpayable",
      "type": "function"
    },
    {
      "inputs": [],
      "name": "faucetLimit",
      "outputs": [
        {
          "internalType": "uint256",
          "name": "",
          "type": "uint256"
        }
      ],
      "stateMutability": "view",
      "type": "function"
    },
    {
      "inputs": [
        {
          "internalType": "uint256",
          "name": "_amount",
          "type": "uint256"
        }
      ],
      "name": "faucetToken",
      "outputs": [],
      "stateMutability": "nonpayable",
      "type": "function"
    },
    {
      "inputs": [
        {
          "internalType": "address",
          "name": "spender",
          "type": "address"
        },
        {
          "internalType": "uint256",
          "name": "addedValue",
          "type": "uint256"
        }
      ],
      "name": "increaseAllowance",
      "outputs": [
        {
          "internalType": "bool",
          "name": "",
          "type": "bool"
        }
      ],
      "stateMutability": "nonpayable",
      "type": "function"
    },
    {
      "inputs": [],
      "name": "name",
      "outputs": [
        {
          "internalType": "string",
          "name": "",
          "type": "string"
        }
      ],
      "stateMutability": "view",
      "type": "function"
    },
    {
      "inputs": [],
      "name": "owner",
      "outputs": [
        {
          "internalType": "address",
          "name": "",
          "type": "address"
        }
      ],
      "stateMutability": "view",
      "type": "function"
    },
    {
      "inputs": [],
      "name": "renounceOwnership",
      "outputs": [],
      "stateMutability": "nonpayable",
      "type": "function"
    },
    {
      "inputs": [],
      "name": "symbol",
      "outputs": [
        {
          "internalType": "string",
          "name": "",
          "type": "string"
        }
      ],
      "stateMutability": "view",
      "type": "function"
    },
    {
      "inputs": [],
      "name": "totalSupply",
      "outputs": [
        {
          "internalType": "uint256",
          "name": "",
          "type": "uint256"
        }
      ],
      "stateMutability": "view",
      "type": "function"
    },
    {
      "inputs": [
        {
          "internalType": "address",
          "name": "recipient",
          "type": "address"
        },
        {
          "internalType": "uint256",
          "name": "amount",
          "type": "uint256"
        }
      ],
      "name": "transfer",
      "outputs": [
        {
          "internalType": "bool",
          "name": "",
          "type": "bool"
        }
      ],
      "stateMutability": "nonpayable",
      "type": "function"
    },
    {
      "inputs": [
        {
          "internalType": "address",
          "name": "sender",
          "type": "address"
        },
        {
          "internalType": "address",
          "name": "recipient",
          "type": "address"
        },
        {
          "internalType": "uint256",
          "name": "amount",
          "type": "uint256"
        }
      ],
      "name": "transferFrom",
      "outputs": [
        {
          "internalType": "bool",
          "name": "",
          "type": "bool"
        }
      ],
      "stateMutability": "nonpayable",
      "type": "function"
    },
    {
      "inputs": [
        {
          "internalType": "address",
          "name": "newOwner",
          "type": "address"
        }
      ],
      "name": "transferOwnership",
      "outputs": [],
      "stateMutability": "nonpayable",
      "type": "function"
    }
  ],
  "transactionHash": "0x6d38817dfdfd83a154b20c577dd36f1ee30e08d399c10c05e56a6130d94ca50f",
  "args": [],
  "solcInputHash": "f59e29766b1a5f59df54b1dedf38311a",
  "bytecode": "0x60806040526b204fce5e3e250261100000006006553480156200002157600080fd5b50604051806040016040528060048152602001635553444360e01b815250604051806040016040528060048152602001635553444360e01b8152506200007662000070620000be60201b60201c565b620000c2565b81516200008b906004906020850190620001f9565b508051620000a1906005906020840190620001f9565b505050620000b8336006546200011260201b60201c565b62000341565b3390565b600080546001600160a01b038381166001600160a01b0319831681178455604051919092169283917f8be0079c531659141344cd1fd0a4f28419497f9722a3daafe3b4186f6b6457e09190a35050565b6001600160a01b038216620001445760405162461bcd60e51b81526004016200013b906200029f565b60405180910390fd5b6200015260008383620001f4565b8060036000828254620001669190620002df565b90915550506001600160a01b0382166000908152600160205260408120805483929062000195908490620002df565b90915550506040516001600160a01b038316906000907fddf252ad1be2c89b69c2b068fc378daa952ba7f163c4a11628f55a4df523b3ef90620001da908590620002d6565b60405180910390a3620001f060008383620001f4565b5050565b505050565b828054620002079062000304565b90600052602060002090601f0160209004810192826200022b576000855562000276565b82601f106200024657805160ff191683800117855562000276565b8280016001018555821562000276579182015b828111156200027657825182559160200191906001019062000259565b506200028492915062000288565b5090565b5b8082111562000284576000815560010162000289565b6020808252601f908201527f45524332303a206d696e7420746f20746865207a65726f206164647265737300604082015260600190565b90815260200190565b60008219821115620002ff57634e487b7160e01b81526011600452602481fd5b500190565b6002810460018216806200031957607f821691505b602082108114156200033b57634e487b7160e01b600052602260045260246000fd5b50919050565b610e6880620003516000396000f3fe608060405234801561001057600080fd5b50600436106101005760003560e01c8063715018a611610097578063a457c2d711610066578063a457c2d7146101e8578063a9059cbb146101fb578063dd62ed3e1461020e578063f2fde38b1461022157610100565b8063715018a6146101ae5780637f846d46146101b85780638da5cb5b146101cb57806395d89b41146101e057610100565b8063313ce567116100d3578063313ce5671461016b57806339509351146101805780636544e4391461019357806370a082311461019b57610100565b806306fdde0314610105578063095ea7b31461012357806318160ddd1461014357806323b872dd14610158575b600080fd5b61010d610234565b60405161011a9190610a2c565b60405180910390f35b6101366101313660046109cc565b6102c6565b60405161011a9190610a21565b61014b6102e3565b60405161011a9190610dbc565b610136610166366004610991565b6102e9565b610173610382565b60405161011a9190610dc5565b61013661018e3660046109cc565b610387565b61014b6103db565b61014b6101a936600461093e565b6103e9565b6101b6610408565b005b6101b66101c63660046109f5565b610453565b6101d36104c8565b60405161011a9190610a0d565b61010d6104d7565b6101366101f63660046109cc565b6104e6565b6101366102093660046109cc565b61055f565b61014b61021c36600461095f565b610573565b6101b661022f36600461093e565b61059e565b60606004805461024390610df7565b80601f016020809104026020016040519081016040528092919081815260200182805461026f90610df7565b80156102bc5780601f10610291576101008083540402835291602001916102bc565b820191906000526020600020905b81548152906001019060200180831161029f57829003601f168201915b5050505050905090565b60006102da6102d361060c565b8484610610565b50600192915050565b60035490565b60006102f68484846106c4565b6001600160a01b03841660009081526002602052604081208161031761060c565b6001600160a01b03166001600160a01b03168152602001908152602001600020549050828110156103635760405162461bcd60e51b815260040161035a90610bf5565b60405180910390fd5b6103778561036f61060c565b858403610610565b506001949350505050565b601290565b60006102da61039461060c565b8484600260006103a261060c565b6001600160a01b03908116825260208083019390935260409182016000908120918b16815292529020546103d69190610dd3565b610610565b6969e10de76676d080000081565b6001600160a01b0381166000908152600160205260409020545b919050565b61041061060c565b6001600160a01b03166104216104c8565b6001600160a01b0316146104475760405162461bcd60e51b815260040161035a90610c52565b61045160006107ee565b565b61045b6104c8565b6001600160a01b0316336001600160a01b0316148061049f5750336000908152600760205260409020546969e10de76676d08000009061049c908390610dd3565b11155b6104bb5760405162461bcd60e51b815260040161035a90610bbe565b6104c53382610856565b50565b6000546001600160a01b031690565b60606005805461024390610df7565b600080600260006104f561060c565b6001600160a01b03908116825260208083019390935260409182016000908120918816815292529020549050828110156105415760405162461bcd60e51b815260040161035a90610d28565b61055561054c61060c565b85858403610610565b5060019392505050565b60006102da61056c61060c565b84846106c4565b6001600160a01b03918216600090815260026020908152604080832093909416825291909152205490565b6105a661060c565b6001600160a01b03166105b76104c8565b6001600160a01b0316146105dd5760405162461bcd60e51b815260040161035a90610c52565b6001600160a01b0381166106035760405162461bcd60e51b815260040161035a90610ac2565b6104c5816107ee565b3390565b6001600160a01b0383166106365760405162461bcd60e51b815260040161035a90610ce4565b6001600160a01b03821661065c5760405162461bcd60e51b815260040161035a90610b1f565b6001600160a01b0380841660008181526002602090815260408083209487168084529490915290819020849055517f8c5be1e5ebec7d5bd14f71427d1e84f3dd0314c0f7b2291e5b200ac8c7c3b925906106b7908590610dbc565b60405180910390a3505050565b6001600160a01b0383166106ea5760405162461bcd60e51b815260040161035a90610c87565b6001600160a01b0382166107105760405162461bcd60e51b815260040161035a90610a7f565b61071b838383610922565b6001600160a01b038316600090815260016020526040902054818110156107545760405162461bcd60e51b815260040161035a90610b61565b6001600160a01b0380851660009081526001602052604080822085850390559185168152908120805484929061078b908490610dd3565b92505081905550826001600160a01b0316846001600160a01b03167fddf252ad1be2c89b69c2b068fc378daa952ba7f163c4a11628f55a4df523b3ef846040516107d59190610dbc565b60405180910390a36107e8848484610922565b50505050565b600080546001600160a01b038381167fffffffffffffffffffffffff0000000000000000000000000000000000000000831681178455604051919092169283917f8be0079c531659141344cd1fd0a4f28419497f9722a3daafe3b4186f6b6457e09190a35050565b6001600160a01b03821661087c5760405162461bcd60e51b815260040161035a90610d85565b61088860008383610922565b806003600082825461089a9190610dd3565b90915550506001600160a01b038216600090815260016020526040812080548392906108c7908490610dd3565b90915550506040516001600160a01b038316906000907fddf252ad1be2c89b69c2b068fc378daa952ba7f163c4a11628f55a4df523b3ef9061090a908590610dbc565b60405180910390a361091e60008383610922565b5050565b505050565b80356001600160a01b038116811461040357600080fd5b60006020828403121561094f578081fd5b61095882610927565b9392505050565b60008060408385031215610971578081fd5b61097a83610927565b915061098860208401610927565b90509250929050565b6000806000606084860312156109a5578081fd5b6109ae84610927565b92506109bc60208501610927565b9150604084013590509250925092565b600080604083850312156109de578182fd5b6109e783610927565b946020939093013593505050565b600060208284031215610a06578081fd5b5035919050565b6001600160a01b0391909116815260200190565b901515815260200190565b6000602080835283518082850152825b81811015610a5857858101830151858201604001528201610a3c565b81811115610a695783604083870101525b50601f01601f1916929092016040019392505050565b60208082526023908201527f45524332303a207472616e7366657220746f20746865207a65726f206164647260408201526265737360e81b606082015260800190565b60208082526026908201527f4f776e61626c653a206e6577206f776e657220697320746865207a65726f206160408201527f6464726573730000000000000000000000000000000000000000000000000000606082015260800190565b60208082526022908201527f45524332303a20617070726f766520746f20746865207a65726f206164647265604082015261737360f01b606082015260800190565b60208082526026908201527f45524332303a207472616e7366657220616d6f756e742065786365656473206260408201527f616c616e63650000000000000000000000000000000000000000000000000000606082015260800190565b6020808252601d908201527f556e6f3a2046617563657420616d6f756e74206c696d69746174696f6e000000604082015260600190565b60208082526028908201527f45524332303a207472616e7366657220616d6f756e742065786365656473206160408201527f6c6c6f77616e6365000000000000000000000000000000000000000000000000606082015260800190565b6020808252818101527f4f776e61626c653a2063616c6c6572206973206e6f7420746865206f776e6572604082015260600190565b60208082526025908201527f45524332303a207472616e736665722066726f6d20746865207a65726f20616460408201527f6472657373000000000000000000000000000000000000000000000000000000606082015260800190565b60208082526024908201527f45524332303a20617070726f76652066726f6d20746865207a65726f206164646040820152637265737360e01b606082015260800190565b60208082526025908201527f45524332303a2064656372656173656420616c6c6f77616e63652062656c6f7760408201527f207a65726f000000000000000000000000000000000000000000000000000000606082015260800190565b6020808252601f908201527f45524332303a206d696e7420746f20746865207a65726f206164647265737300604082015260600190565b90815260200190565b60ff91909116815260200190565b60008219821115610df257634e487b7160e01b81526011600452602481fd5b500190565b600281046001821680610e0b57607f821691505b60208210811415610e2c57634e487b7160e01b600052602260045260246000fd5b5091905056fea26469706673582212209d49f73e4a1e30c46150e21bcc540b6b538d76884a3c953f6fbf919258be832b64736f6c63430008000033",
  "devdoc": {
    "kind": "dev",
    "methods": {
      "allowance(address,address)": {
        "details": "See {IERC20-allowance}."
      },
      "approve(address,uint256)": {
        "details": "See {IERC20-approve}. Requirements: - `spender` cannot be the zero address."
      },
      "balanceOf(address)": {
        "details": "See {IERC20-balanceOf}."
      },
      "decimals()": {
        "details": "Returns the number of decimals used to get its user representation. For example, if `decimals` equals `2`, a balance of `505` tokens should be displayed to a user as `5.05` (`505 / 10 ** 2`). Tokens usually opt for a value of 18, imitating the relationship between Ether and Wei. This is the value {ERC20} uses, unless this function is overridden; NOTE: This information is only used for _display_ purposes: it in no way affects any of the arithmetic of the contract, including {IERC20-balanceOf} and {IERC20-transfer}."
      },
      "decreaseAllowance(address,uint256)": {
        "details": "Atomically decreases the allowance granted to `spender` by the caller. This is an alternative to {approve} that can be used as a mitigation for problems described in {IERC20-approve}. Emits an {Approval} event indicating the updated allowance. Requirements: - `spender` cannot be the zero address. - `spender` must have allowance for the caller of at least `subtractedValue`."
      },
      "increaseAllowance(address,uint256)": {
        "details": "Atomically increases the allowance granted to `spender` by the caller. This is an alternative to {approve} that can be used as a mitigation for problems described in {IERC20-approve}. Emits an {Approval} event indicating the updated allowance. Requirements: - `spender` cannot be the zero address."
      },
      "name()": {
        "details": "Returns the name of the token."
      },
      "owner()": {
        "details": "Returns the address of the current owner."
      },
      "renounceOwnership()": {
        "details": "Leaves the contract without owner. It will not be possible to call `onlyOwner` functions anymore. Can only be called by the current owner. NOTE: Renouncing ownership will leave the contract without an owner, thereby removing any functionality that is only available to the owner."
      },
      "symbol()": {
        "details": "Returns the symbol of the token, usually a shorter version of the name."
      },
      "totalSupply()": {
        "details": "See {IERC20-totalSupply}."
      },
      "transfer(address,uint256)": {
        "details": "See {IERC20-transfer}. Requirements: - `recipient` cannot be the zero address. - the caller must have a balance of at least `amount`."
      },
      "transferFrom(address,address,uint256)": {
        "details": "See {IERC20-transferFrom}. Emits an {Approval} event indicating the updated allowance. This is not required by the EIP. See the note at the beginning of {ERC20}. Requirements: - `sender` and `recipient` cannot be the zero address. - `sender` must have a balance of at least `amount`. - the caller must have allowance for ``sender``'s tokens of at least `amount`."
      },
      "transferOwnership(address)": {
        "details": "Transfers ownership of the contract to a new account (`newOwner`). Can only be called by the current owner."
      }
    },
    "version": 1
  },
  "userdoc": {
    "kind": "user",
    "methods": {},
    "notice": "This smart contract",
    "version": 1
  },
  "storageLayout": {
    "storage": [
      {
        "astId": 7,
        "contract": "contracts/Mocks/MockUSDC.sol:MockUSDC",
        "label": "_owner",
        "offset": 0,
        "slot": "0",
        "type": "t_address"
      },
      {
        "astId": 159,
        "contract": "contracts/Mocks/MockUSDC.sol:MockUSDC",
        "label": "_balances",
        "offset": 0,
        "slot": "1",
        "type": "t_mapping(t_address,t_uint256)"
      },
      {
        "astId": 165,
        "contract": "contracts/Mocks/MockUSDC.sol:MockUSDC",
        "label": "_allowances",
        "offset": 0,
        "slot": "2",
        "type": "t_mapping(t_address,t_mapping(t_address,t_uint256))"
      },
      {
        "astId": 167,
        "contract": "contracts/Mocks/MockUSDC.sol:MockUSDC",
        "label": "_totalSupply",
        "offset": 0,
        "slot": "3",
        "type": "t_uint256"
      },
      {
        "astId": 169,
        "contract": "contracts/Mocks/MockUSDC.sol:MockUSDC",
        "label": "_name",
        "offset": 0,
        "slot": "4",
        "type": "t_string_storage"
      },
      {
        "astId": 171,
        "contract": "contracts/Mocks/MockUSDC.sol:MockUSDC",
        "label": "_symbol",
        "offset": 0,
        "slot": "5",
        "type": "t_string_storage"
      },
      {
        "astId": 5125,
        "contract": "contracts/Mocks/MockUSDC.sol:MockUSDC",
        "label": "INITIAL_SUPPLY",
        "offset": 0,
        "slot": "6",
        "type": "t_uint256"
      },
      {
        "astId": 5129,
        "contract": "contracts/Mocks/MockUSDC.sol:MockUSDC",
        "label": "_faucets",
        "offset": 0,
        "slot": "7",
        "type": "t_mapping(t_address,t_uint256)"
      }
    ],
    "types": {
      "t_address": {
        "encoding": "inplace",
        "label": "address",
        "numberOfBytes": "20"
      },
      "t_mapping(t_address,t_mapping(t_address,t_uint256))": {
        "encoding": "mapping",
        "key": "t_address",
        "label": "mapping(address => mapping(address => uint256))",
        "numberOfBytes": "32",
        "value": "t_mapping(t_address,t_uint256)"
      },
      "t_mapping(t_address,t_uint256)": {
        "encoding": "mapping",
        "key": "t_address",
        "label": "mapping(address => uint256)",
        "numberOfBytes": "32",
        "value": "t_uint256"
      },
      "t_string_storage": {
        "encoding": "bytes",
        "label": "string",
        "numberOfBytes": "32"
      },
      "t_uint256": {
        "encoding": "inplace",
        "label": "uint256",
        "numberOfBytes": "32"
      }
    }
  }
}