{
  "address": "0xd8F33445276e4fF385e53Efe04c280d846f9e28F",
  "abi": [
    {
      "inputs": [
        {
          "internalType": "address",
          "name": "_exchangeAgent",
          "type": "address"
        },
        {
          "internalType": "address",
          "name": "_unoToken",
          "type": "address"
        },
        {
          "internalType": "address",
          "name": "_usdcToken",
          "type": "address"
        },
        {
          "internalType": "address",
          "name": "_multiSigWallet",
          "type": "address"
        }
      ],
      "stateMutability": "nonpayable",
      "type": "constructor"
    },
    {
      "anonymous": false,
      "inputs": [
        {
          "indexed": true,
          "internalType": "address",
          "name": "_premiumPool",
          "type": "address"
        },
        {
          "indexed": true,
          "internalType": "address",
          "name": "_currency",
          "type": "address"
        }
      ],
      "name": "LogAddCurrency",
      "type": "event"
    },
    {
      "anonymous": false,
      "inputs": [
        {
          "indexed": true,
          "internalType": "address",
          "name": "_premiumPool",
          "type": "address"
        },
        {
          "indexed": true,
          "internalType": "address",
          "name": "_whiteListAddress",
          "type": "address"
        }
      ],
      "name": "LogAddWhiteList",
      "type": "event"
    },
    {
      "anonymous": false,
      "inputs": [
        {
          "indexed": true,
          "internalType": "address",
          "name": "_operator",
          "type": "address"
        },
        {
          "indexed": true,
          "internalType": "address",
          "name": "_premiumPool",
          "type": "address"
        },
        {
          "indexed": false,
          "internalType": "uint256",
          "name": "_unoAmount",
          "type": "uint256"
        }
      ],
      "name": "LogBuyBackAndBurn",
      "type": "event"
    },
    {
      "anonymous": false,
      "inputs": [
        {
          "indexed": true,
          "internalType": "address",
          "name": "_from",
          "type": "address"
        },
        {
          "indexed": false,
          "internalType": "address",
          "name": "_premiumCurrency",
          "type": "address"
        },
        {
          "indexed": false,
          "internalType": "uint256",
          "name": "_premiumAmount",
          "type": "uint256"
        }
      ],
      "name": "LogCollectPremium",
      "type": "event"
    },
    {
      "anonymous": false,
      "inputs": [
        {
          "indexed": true,
          "internalType": "address",
          "name": "_rewarder",
          "type": "address"
        },
        {
          "indexed": true,
          "internalType": "address",
          "name": "_currency",
          "type": "address"
        },
        {
          "indexed": false,
          "internalType": "uint256",
          "name": "_amountDeposited",
          "type": "uint256"
        }
      ],
      "name": "LogDepositToSyntheticSSIPRewarder",
      "type": "event"
    },
    {
      "anonymous": false,
      "inputs": [
        {
          "indexed": true,
          "internalType": "address",
          "name": "_rewarder",
          "type": "address"
        },
        {
          "indexed": false,
          "internalType": "uint256",
          "name": "_ethAmountDeposited",
          "type": "uint256"
        }
      ],
      "name": "LogDepositToSyntheticSSRPRewarder",
      "type": "event"
    },
    {
      "anonymous": false,
      "inputs": [
        {
          "indexed": true,
          "internalType": "address",
          "name": "_premiumPool",
          "type": "address"
        },
        {
          "indexed": true,
          "internalType": "address",
          "name": "_currency",
          "type": "address"
        },
        {
          "indexed": true,
          "internalType": "address",
          "name": "_to",
          "type": "address"
        }
      ],
      "name": "LogMaxApproveCurrency",
      "type": "event"
    },
    {
      "anonymous": false,
      "inputs": [
        {
          "indexed": true,
          "internalType": "address",
          "name": "_premiumPool",
          "type": "address"
        },
        {
          "indexed": true,
          "internalType": "address",
          "name": "_currency",
          "type": "address"
        },
        {
          "indexed": true,
          "internalType": "address",
          "name": "_to",
          "type": "address"
        }
      ],
      "name": "LogMaxDestroyCurrencyAllowance",
      "type": "event"
    },
    {
      "anonymous": false,
      "inputs": [
        {
          "indexed": true,
          "internalType": "address",
          "name": "_premiumPool",
          "type": "address"
        },
        {
          "indexed": true,
          "internalType": "address",
          "name": "_currency",
          "type": "address"
        }
      ],
      "name": "LogRemoveCurrency",
      "type": "event"
    },
    {
      "anonymous": false,
      "inputs": [
        {
          "indexed": true,
          "internalType": "address",
          "name": "_premiumPool",
          "type": "address"
        },
        {
          "indexed": true,
          "internalType": "address",
          "name": "_whiteListAddress",
          "type": "address"
        }
      ],
      "name": "LogRemoveWhiteList",
      "type": "event"
    },
    {
      "anonymous": false,
      "inputs": [
        {
          "indexed": true,
          "internalType": "address",
          "name": "previousOwner",
          "type": "address"
        },
        {
          "indexed": true,
          "internalType": "address",
          "name": "newOwner",
          "type": "address"
        }
      ],
      "name": "OwnershipTransferred",
      "type": "event"
    },
    {
      "anonymous": false,
      "inputs": [
        {
          "indexed": true,
          "internalType": "address",
          "name": "_currency",
          "type": "address"
        },
        {
          "indexed": true,
          "internalType": "address",
          "name": "_to",
          "type": "address"
        },
        {
          "indexed": false,
          "internalType": "uint256",
          "name": "_amount",
          "type": "uint256"
        }
      ],
      "name": "PremiumWithdraw",
      "type": "event"
    },
    {
      "inputs": [],
      "name": "BACK_BURN_PREMIUM_ETH",
      "outputs": [
        {
          "internalType": "uint256",
          "name": "",
          "type": "uint256"
        }
      ],
      "stateMutability": "view",
      "type": "function"
    },
    {
      "inputs": [
        {
          "internalType": "address",
          "name": "",
          "type": "address"
        }
      ],
      "name": "BACK_BURN_UNO_PREMIUM",
      "outputs": [
        {
          "internalType": "uint256",
          "name": "",
          "type": "uint256"
        }
      ],
      "stateMutability": "view",
      "type": "function"
    },
    {
      "inputs": [
        {
          "internalType": "address",
          "name": "",
          "type": "address"
        }
      ],
      "name": "SSIP_PREMIUM",
      "outputs": [
        {
          "internalType": "uint256",
          "name": "",
          "type": "uint256"
        }
      ],
      "stateMutability": "view",
      "type": "function"
    },
    {
      "inputs": [],
      "name": "SSIP_PREMIUM_ETH",
      "outputs": [
        {
          "internalType": "uint256",
          "name": "",
          "type": "uint256"
        }
      ],
      "stateMutability": "view",
      "type": "function"
    },
    {
      "inputs": [
        {
          "internalType": "address",
          "name": "",
          "type": "address"
        }
      ],
      "name": "SSRP_PREMIUM",
      "outputs": [
        {
          "internalType": "uint256",
          "name": "",
          "type": "uint256"
        }
      ],
      "stateMutability": "view",
      "type": "function"
    },
    {
      "inputs": [],
      "name": "SSRP_PREMIUM_ETH",
      "outputs": [
        {
          "internalType": "uint256",
          "name": "",
          "type": "uint256"
        }
      ],
      "stateMutability": "view",
      "type": "function"
    },
    {
      "inputs": [],
      "name": "UNO_TOKEN",
      "outputs": [
        {
          "internalType": "address",
          "name": "",
          "type": "address"
        }
      ],
      "stateMutability": "view",
      "type": "function"
    },
    {
      "inputs": [],
      "name": "USDC_TOKEN",
      "outputs": [
        {
          "internalType": "address",
          "name": "",
          "type": "address"
        }
      ],
      "stateMutability": "view",
      "type": "function"
    },
    {
      "inputs": [
        {
          "internalType": "address",
          "name": "_currency",
          "type": "address"
        }
      ],
      "name": "addCurrency",
      "outputs": [],
      "stateMutability": "nonpayable",
      "type": "function"
    },
    {
      "inputs": [
        {
          "internalType": "address",
          "name": "_whiteListAddress",
          "type": "address"
        }
      ],
      "name": "addWhiteList",
      "outputs": [],
      "stateMutability": "nonpayable",
      "type": "function"
    },
    {
      "inputs": [
        {
          "internalType": "address",
          "name": "",
          "type": "address"
        }
      ],
      "name": "availableCurrencies",
      "outputs": [
        {
          "internalType": "bool",
          "name": "",
          "type": "bool"
        }
      ],
      "stateMutability": "view",
      "type": "function"
    },
    {
      "inputs": [
        {
          "internalType": "uint256",
          "name": "",
          "type": "uint256"
        }
      ],
      "name": "availableCurrencyList",
      "outputs": [
        {
          "internalType": "address",
          "name": "",
          "type": "address"
        }
      ],
      "stateMutability": "view",
      "type": "function"
    },
    {
      "inputs": [],
      "name": "burnAddress",
      "outputs": [
        {
          "internalType": "address",
          "name": "",
          "type": "address"
        }
      ],
      "stateMutability": "view",
      "type": "function"
    },
    {
      "inputs": [],
      "name": "buyBackAndBurn",
      "outputs": [],
      "stateMutability": "nonpayable",
      "type": "function"
    },
    {
      "inputs": [
        {
          "internalType": "address",
          "name": "_premiumCurrency",
          "type": "address"
        },
        {
          "internalType": "uint256",
          "name": "_premiumAmount",
          "type": "uint256"
        }
      ],
      "name": "collectPremium",
      "outputs": [],
      "stateMutability": "nonpayable",
      "type": "function"
    },
    {
      "inputs": [],
      "name": "collectPremiumInETH",
      "outputs": [],
      "stateMutability": "payable",
      "type": "function"
    },
    {
      "inputs": [
        {
          "internalType": "address",
          "name": "_currency",
          "type": "address"
        },
        {
          "internalType": "address",
          "name": "_rewarder",
          "type": "address"
        }
      ],
      "name": "depositToSyntheticSSIPRewarder",
      "outputs": [],
      "stateMutability": "payable",
      "type": "function"
    },
    {
      "inputs": [
        {
          "internalType": "address",
          "name": "_rewarder",
          "type": "address"
        }
      ],
      "name": "depositToSyntheticSSRPRewarder",
      "outputs": [],
      "stateMutability": "payable",
      "type": "function"
    },
    {
      "inputs": [
        {
          "internalType": "address",
          "name": "_currency",
          "type": "address"
        },
        {
          "internalType": "address",
          "name": "_to",
          "type": "address"
        }
      ],
      "name": "destroyCurrencyAllowance",
      "outputs": [],
      "stateMutability": "nonpayable",
      "type": "function"
    },
    {
      "inputs": [],
      "name": "exchangeAgent",
      "outputs": [
        {
          "internalType": "address",
          "name": "",
          "type": "address"
        }
      ],
      "stateMutability": "view",
      "type": "function"
    },
    {
      "inputs": [
        {
          "internalType": "address",
          "name": "_currency",
          "type": "address"
        },
        {
          "internalType": "address",
          "name": "_to",
          "type": "address"
        }
      ],
      "name": "maxApproveCurrency",
      "outputs": [],
      "stateMutability": "nonpayable",
      "type": "function"
    },
    {
      "inputs": [],
      "name": "owner",
      "outputs": [
        {
          "internalType": "address",
          "name": "",
          "type": "address"
        }
      ],
      "stateMutability": "view",
      "type": "function"
    },
    {
      "inputs": [
        {
          "internalType": "address",
          "name": "_currency",
          "type": "address"
        }
      ],
      "name": "removeCurrency",
      "outputs": [],
      "stateMutability": "nonpayable",
      "type": "function"
    },
    {
      "inputs": [
        {
          "internalType": "address",
          "name": "_whiteListAddress",
          "type": "address"
        }
      ],
      "name": "removeWhiteList",
      "outputs": [],
      "stateMutability": "nonpayable",
      "type": "function"
    },
    {
      "inputs": [],
      "name": "renounceOwnership",
      "outputs": [],
      "stateMutability": "nonpayable",
      "type": "function"
    },
    {
      "inputs": [
        {
          "internalType": "address",
          "name": "newOwner",
          "type": "address"
        }
      ],
      "name": "transferOwnership",
      "outputs": [],
      "stateMutability": "nonpayable",
      "type": "function"
    },
    {
      "inputs": [
        {
          "internalType": "address",
          "name": "",
          "type": "address"
        }
      ],
      "name": "whiteList",
      "outputs": [
        {
          "internalType": "bool",
          "name": "",
          "type": "bool"
        }
      ],
      "stateMutability": "view",
      "type": "function"
    },
    {
      "inputs": [
        {
          "internalType": "address",
          "name": "_currency",
          "type": "address"
        },
        {
          "internalType": "address",
          "name": "_to",
          "type": "address"
        },
        {
          "internalType": "uint256",
          "name": "_amount",
          "type": "uint256"
        }
      ],
      "name": "withdrawPremium",
      "outputs": [],
      "stateMutability": "nonpayable",
      "type": "function"
    },
    {
      "stateMutability": "payable",
      "type": "receive"
    }
  ],
  "transactionHash": "0xc0ae9859f6801ab50004541960d0d7b210a1256e3b996cd7773a5a9d742afb51",
  "args": [
    "0xcf98D8AE6EF3eeff4826162571190cD9802dCf2D",
    "0x53fb43BaE4C13d6AFAD37fB37c3fC49f3Af433F5",
    "0x40c035016AD732b6cFce34c3F881040B6C6cf71E",
    "0xfadD5ddd92fa216C08C096958Efec97179F6fC58"
  ],
  "solcInputHash": "9c34ee606f87ff608005a3853a8c7b58",
  "bytecode": "0x6080604052600019600e553480156200001757600080fd5b5060405162002c5438038062002c548339810160408190526200003a916200026b565b6001600055620000536200004d6200016c565b62000170565b6001600160a01b038416620000855760405162461bcd60e51b81526004016200007c9062000386565b60405180910390fd5b6001600160a01b038316620000ae5760405162461bcd60e51b81526004016200007c90620003fc565b6001600160a01b038216620000d75760405162461bcd60e51b81526004016200007c906200034f565b6001600160a01b038116620001005760405162461bcd60e51b81526004016200007c906200030d565b600280546001600160a01b038087166001600160a01b031992831617909255600380548684169083161790556004805492851692909116919091179055336000908152600760205260409020805460ff191660011790556200016281620001c2565b5050505062000433565b3390565b600180546001600160a01b038381166001600160a01b0319831681179093556040519116919082907f8be0079c531659141344cd1fd0a4f28419497f9722a3daafe3b4186f6b6457e090600090a35050565b620001cc6200016c565b6001600160a01b0316620001df6200023f565b6001600160a01b031614620002085760405162461bcd60e51b81526004016200007c90620003c7565b6001600160a01b038116620002315760405162461bcd60e51b81526004016200007c90620002c7565b6200023c8162000170565b50565b6001546001600160a01b031690565b80516001600160a01b03811681146200026657600080fd5b919050565b6000806000806080858703121562000281578384fd5b6200028c856200024e565b93506200029c602086016200024e565b9250620002ac604086016200024e565b9150620002bc606086016200024e565b905092959194509250565b60208082526026908201527f4f776e61626c653a206e6577206f776e657220697320746865207a65726f206160408201526564647265737360d01b606082015260800190565b60208082526022908201527f556e6f52653a207a65726f206d756c746973696777616c6c6574206164647265604082015261737360f01b606082015260800190565b60208082526018908201527f556e6f52653a207a65726f205553444320616464726573730000000000000000604082015260600190565b60208082526021908201527f556e6f52653a207a65726f2065786368616e67654167656e74206164647265736040820152607360f81b606082015260800190565b6020808252818101527f4f776e61626c653a2063616c6c6572206973206e6f7420746865206f776e6572604082015260600190565b60208082526017908201527f556e6f52653a207a65726f20554e4f2061646472657373000000000000000000604082015260600190565b61281180620004436000396000f3fe6080604052600436106101bb5760003560e01c80638c8ac76d116100ec578063d84e305a1161008a578063e980a96a11610064578063e980a96a1461047e578063f2fde38b14610491578063f88822c4146104b1578063fa569274146104c4576101c2565b8063d84e305a14610429578063d9203b9114610449578063e7cd4a041461045e576101c2565b8063bc181416116100c6578063bc181416146103cc578063c4ddd57c146103d4578063c5d3a107146103f4578063c970e99f14610414576101c2565b80638c8ac76d146103775780638da5cb5b1461039757806397274e6e146103ac576101c2565b8063493721f51161015957806370d5ae051161013357806370d5ae051461030d578063715018a614610322578063729ae6b0146103375780638ab234b614610357576101c2565b8063493721f5146102b857806354ea1d7d146102cd5780635bb48a00146102ed576101c2565b8063140742371161019557806314074237146102345780631af42c0f146102495780632042e5c214610276578063372c12b114610298576101c2565b8063095002b8146101c75780630cf84e0b146101f25780630f97b97b14610212576101c2565b366101c257005b600080fd5b3480156101d357600080fd5b506101dc6104d9565b6040516101e99190612733565b60405180910390f35b3480156101fe57600080fd5b506101dc61020d3660046120f4565b6104df565b34801561021e57600080fd5b506102276104f1565b6040516101e99190612234565b34801561024057600080fd5b506101dc610500565b34801561025557600080fd5b506102696102643660046120f4565b610506565b6040516101e9919061229f565b34801561028257600080fd5b506102966102913660046120f4565b61051b565b005b3480156102a457600080fd5b506102696102b33660046120f4565b61060b565b3480156102c457600080fd5b506101dc610620565b3480156102d957600080fd5b506102966102e8366004612115565b610626565b3480156102f957600080fd5b506102276103083660046121cb565b610766565b34801561031957600080fd5b50610227610790565b34801561032e57600080fd5b50610296610796565b34801561034357600080fd5b506101dc6103523660046120f4565b6107e1565b34801561036357600080fd5b506102966103723660046120f4565b6107f3565b34801561038357600080fd5b50610296610392366004612182565b610926565b3480156103a357600080fd5b50610227610ba2565b3480156103b857600080fd5b506102966103c7366004612115565b610bb1565b610296610cee565b3480156103e057600080fd5b506101dc6103ef3660046120f4565b610e0d565b34801561040057600080fd5b5061029661040f3660046120f4565b610e1f565b34801561042057600080fd5b50610296611050565b34801561043557600080fd5b50610296610444366004612147565b6113b1565b34801561045557600080fd5b5061022761156a565b34801561046a57600080fd5b506102966104793660046120f4565b611579565b61029661048c366004612115565b611664565b34801561049d57600080fd5b506102966104ac3660046120f4565b61183e565b6102966104bf3660046120f4565b6118ac565b3480156104d057600080fd5b50610227611d11565b600d5481565b600a6020526000908152604090205481565b6003546001600160a01b031681565b600b5481565b60056020526000908152604090205460ff1681565b610523611d20565b6001600160a01b0316610534610ba2565b6001600160a01b0316146105635760405162461bcd60e51b815260040161055a9061259f565b60405180910390fd5b6001600160a01b0381166105895760405162461bcd60e51b815260040161055a90612307565b6001600160a01b03811660009081526007602052604090205460ff166105c15760405162461bcd60e51b815260040161055a9061233e565b6001600160a01b038116600081815260076020526040808220805460ff191690555130917f2f467772ef0a5478314f3bc2b37d4b2ad29b65f052b2cedc8e2972dda033529291a350565b60076020526000908152604090205460ff1681565b600c5481565b61062e611d20565b6001600160a01b031661063f610ba2565b6001600160a01b0316146106655760405162461bcd60e51b815260040161055a9061259f565b600260005414156106885760405162461bcd60e51b815260040161055a906126fc565b6002600055600e54604051636eb1769f60e11b81526001600160a01b0384169063dd62ed3e906106be9030908690600401612248565b60206040518083038186803b1580156106d657600080fd5b505afa1580156106ea573d6000803e3d6000fd5b505050506040513d601f19601f8201168201806040525081019061070e91906121e3565b101561075d576107218282600e54611d24565b6040516001600160a01b03808316919084169030907f43121c61393a372aa50e4d3b0ec4003cce2d54e92ae7799836389597d5ead98d90600090a45b50506001600055565b6006818154811061077657600080fd5b6000918252602090912001546001600160a01b0316905081565b61dead81565b61079e611d20565b6001600160a01b03166107af610ba2565b6001600160a01b0316146107d55760405162461bcd60e51b815260040161055a9061259f565b6107df6000611e11565b565b60096020526000908152604090205481565b6107fb611d20565b6001600160a01b031661080c610ba2565b6001600160a01b0316146108325760405162461bcd60e51b815260040161055a9061259f565b6001600160a01b03811660009081526005602052604090205460ff161561086b5760405162461bcd60e51b815260040161055a906124c3565b6001600160a01b038082166000818152600560205260408120805460ff191660019081179091556006805491820181559091527ff652222313e28459528d920b65115c16c04f3efc82aaedc97be59f3f377c0d3f01805473ffffffffffffffffffffffffffffffffffffffff191690911790556002546108ed91839116610626565b6040516001600160a01b0382169030907fc2def0bb3cfcff0462d9a69faa99e2ddeb1bf6b642d12a1fe3ed6653944fecd590600090a350565b600260005414156109495760405162461bcd60e51b815260040161055a906126fc565b600260009081556001600160a01b038316815260056020526040902054829060ff166109875760405162461bcd60e51b815260040161055a906123f8565b3360009081526007602052604090205460ff166109b65760405162461bcd60e51b815260040161055a90612668565b6040516370a0823160e01b815282906001600160a01b038516906370a08231906109e4903390600401612234565b60206040518083038186803b1580156109fc57600080fd5b505afa158015610a10573d6000803e3d6000fd5b505050506040513d601f19601f82011682018060405250810190610a3491906121e3565b1015610a525760405162461bcd60e51b815260040161055a906124fa565b610a5e83333085611e70565b6000612710610a6f846103e8612774565b610a799190612754565b90506000612710610a8c85611b58612774565b610a969190612754565b6001600160a01b038616600090815260086020526040902054909150610abd90839061273c565b6001600160a01b038616600090815260086020908152604080832093909355600990522054610aed90829061273c565b6001600160a01b03861660009081526009602052604090205580610b118386612793565b610b1b9190612793565b6001600160a01b0386166000908152600a6020526040902054610b3e919061273c565b6001600160a01b0386166000908152600a602052604090819020919091555133907f411101aad886ab4351e7c392d06f013b37a7c6c00b7f964bca364da03df0e7d590610b8e9088908890612286565b60405180910390a250506001600055505050565b6001546001600160a01b031690565b610bb9611d20565b6001600160a01b0316610bca610ba2565b6001600160a01b031614610bf05760405162461bcd60e51b815260040161055a9061259f565b60026000541415610c135760405162461bcd60e51b815260040161055a906126fc565b60026000908155604051636eb1769f60e11b81526001600160a01b0384169063dd62ed3e90610c489030908690600401612248565b60206040518083038186803b158015610c6057600080fd5b505afa158015610c74573d6000803e3d6000fd5b505050506040513d601f19601f82011682018060405250810190610c9891906121e3565b111561075d57610caa82826000611d24565b6040516001600160a01b03808316919084169030907fefc983aa790fe837a31d17855afa75e3d276afef0959edcd4edd1a5e09905ee590600090a450506001600055565b60026000541415610d115760405162461bcd60e51b815260040161055a906126fc565b600260009081553381526007602052604090205460ff16610d445760405162461bcd60e51b815260040161055a90612668565b346000612710610d56836103e8612774565b610d609190612754565b90506000612710610d7384611b58612774565b610d7d9190612754565b905081600b54610d8d919061273c565b600b55600c54610d9e90829061273c565b600c5580610dac8385612793565b610db69190612793565b600d54610dc3919061273c565b600d5560405133907f411101aad886ab4351e7c392d06f013b37a7c6c00b7f964bca364da03df0e7d590610dfb906000908790612286565b60405180910390a25050600160005550565b60086020526000908152604090205481565b610e27611d20565b6001600160a01b0316610e38610ba2565b6001600160a01b031614610e5e5760405162461bcd60e51b815260040161055a9061259f565b6001600160a01b03811660009081526005602052604090205460ff16610e965760405162461bcd60e51b815260040161055a906125d4565b6001600160a01b0381166000908152600560205260408120805460ff19169055600680549190610ec7600184612793565b81548110610ee557634e487b7160e01b600052603260045260246000fd5b60009182526020822001546001600160a01b031691505b828110156110135760068181548110610f2557634e487b7160e01b600052603260045260246000fd5b6000918252602090912001546001600160a01b0385811691161415611001578160068281548110610f6657634e487b7160e01b600052603260045260246000fd5b9060005260206000200160006101000a8154816001600160a01b0302191690836001600160a01b031602179055506006805480610fb357634e487b7160e01b600052603160045260246000fd5b6000828152602090208101600019908101805473ffffffffffffffffffffffffffffffffffffffff19169055019055600254610ff99085906001600160a01b0316610bb1565b50505061104d565b8061100b816127aa565b915050610efc565b506040516001600160a01b0384169030907f39198a02f988846be034bb915c4f3e43a226a15d6f29cf21918e838b1a5f878490600090a350505b50565b611058611d20565b6001600160a01b0316611069610ba2565b6001600160a01b03161461108f5760405162461bcd60e51b815260040161055a9061259f565b600d546000901561115357600254600d546110b3916001600160a01b031690611f60565b600254600354600d546040516393badc4160e01b81526001600160a01b03938416936393badc41936110ef936000939290911691600401612262565b602060405180830381600087803b15801561110957600080fd5b505af115801561111d573d6000803e3d6000fd5b505050506040513d601f19601f8201168201806040525081019061114191906121e3565b61114b908261273c565b6000600d5590505b60005b600654811015611352576000600a60006006848154811061118757634e487b7160e01b600052603260045260246000fd5b60009182526020808320909101546001600160a01b03168352820192909252604001902054111561134057600254600680546000926001600160a01b0316916393badc4191859081106111ea57634e487b7160e01b600052603260045260246000fd5b6000918252602082200154600354600680546001600160a01b03938416949290931692600a9291908990811061123057634e487b7160e01b600052603260045260246000fd5b60009182526020808320909101546001600160a01b0316835282019290925260409081019091205490517fffffffff0000000000000000000000000000000000000000000000000000000060e086901b16815261129293929190600401612262565b602060405180830381600087803b1580156112ac57600080fd5b505af11580156112c0573d6000803e3d6000fd5b505050506040513d601f19601f820116820180604052508101906112e491906121e3565b90506112f0818461273c565b92506000600a60006006858154811061131957634e487b7160e01b600052603260045260246000fd5b60009182526020808320909101546001600160a01b03168352820192909252604001902055505b8061134a816127aa565b915050611156565b50801561137257600354611372906001600160a01b031661dead83611ff2565b604051309033907f94032d93ea01eeeccc1b1f03a7eddaf352c7cd85e246c6fc01afed0ddf6b5c1d906113a6908590612733565b60405180910390a350565b6113b9611d20565b6001600160a01b03166113ca610ba2565b6001600160a01b0316146113f05760405162461bcd60e51b815260040161055a9061259f565b6001600160a01b0382166114165760405162461bcd60e51b815260040161055a90612307565b600081116114365760405162461bcd60e51b815260040161055a90612531565b6001600160a01b03831661147357804710156114645760405162461bcd60e51b815260040161055a90612568565b61146e8282611f60565b61151a565b6040516370a0823160e01b815281906001600160a01b038516906370a08231906114a1903090600401612234565b60206040518083038186803b1580156114b957600080fd5b505afa1580156114cd573d6000803e3d6000fd5b505050506040513d601f19601f820116820180604052508101906114f191906121e3565b101561150f5760405162461bcd60e51b815260040161055a90612568565b61151a838383611ff2565b816001600160a01b0316836001600160a01b03167f8d18a25569e967883ac0402e6991b4ac87616370a1c2ce59726abce4ef45bdb88360405161155d9190612733565b60405180910390a3505050565b6002546001600160a01b031681565b611581611d20565b6001600160a01b0316611592610ba2565b6001600160a01b0316146115b85760405162461bcd60e51b815260040161055a9061259f565b6001600160a01b0381166115de5760405162461bcd60e51b815260040161055a90612307565b6001600160a01b03811660009081526007602052604090205460ff16156116175760405162461bcd60e51b815260040161055a9061248c565b6001600160a01b038116600081815260076020526040808220805460ff191660011790555130917f8cd7b0b1a7316eb3e5d781d629cb8bf4e2fd9a8903bdd0f6b894c087d61b21f291a350565b61166c611d20565b6001600160a01b031661167d610ba2565b6001600160a01b0316146116a35760405162461bcd60e51b815260040161055a9061259f565b600260005414156116c65760405162461bcd60e51b815260040161055a906126fc565b60026000556001600160a01b0381166116f15760405162461bcd60e51b815260040161055a90612307565b6001600160a01b03821615801561170a57506000600c54115b156117755761171b81600c54611f60565b6000600c81905550816001600160a01b0316816001600160a01b03167f370cbb08cddf346c35e924a503aa223dcc1b75a993d7c23a602d2e4bc0802c10600c546040516117689190612733565b60405180910390a361075d565b6001600160a01b03821660009081526005602052604090205460ff1680156117b457506001600160a01b03821660009081526009602052604090205415155b1561075d576001600160a01b0382166000908152600960205260409020546117df9083908390611ff2565b6001600160a01b038083166000818152600960205260408082208290555191928416917f370cbb08cddf346c35e924a503aa223dcc1b75a993d7c23a602d2e4bc0802c109161182d91612733565b60405180910390a350506001600055565b611846611d20565b6001600160a01b0316611857610ba2565b6001600160a01b03161461187d5760405162461bcd60e51b815260040161055a9061259f565b6001600160a01b0381166118a35760405162461bcd60e51b815260040161055a906122aa565b61104d81611e11565b6118b4611d20565b6001600160a01b03166118c5610ba2565b6001600160a01b0316146118eb5760405162461bcd60e51b815260040161055a9061259f565b6002600054141561190e5760405162461bcd60e51b815260040161055a906126fc565b60026000556001600160a01b0381166119395760405162461bcd60e51b815260040161055a90612307565b600b5460009015611a0257600254600b5461195d916001600160a01b031690611f60565b60025460048054600b546040516393badc4160e01b81526000946001600160a01b03908116946393badc419461199b94889491909316929101612262565b602060405180830381600087803b1580156119b557600080fd5b505af11580156119c9573d6000803e3d6000fd5b505050506040513d601f19601f820116820180604052508101906119ed91906121e3565b90506119f9818361273c565b6000600b559150505b60005b600654811015611ca95760006008600060068481548110611a3657634e487b7160e01b600052603260045260246000fd5b60009182526020808320909101546001600160a01b031683528201929092526040019020541115611c9757600454600680546001600160a01b039092169183908110611a9257634e487b7160e01b600052603260045260246000fd5b6000918252602090912001546001600160a01b03161415611b08576008600060068381548110611ad257634e487b7160e01b600052603260045260246000fd5b60009182526020808320909101546001600160a01b03168352820192909252604001902054611b01908361273c565b9150611c4a565b600254600680546000926001600160a01b0316916393badc419185908110611b4057634e487b7160e01b600052603260045260246000fd5b6000918252602082200154600454600680546001600160a01b03938416949290931692600892919089908110611b8657634e487b7160e01b600052603260045260246000fd5b60009182526020808320909101546001600160a01b0316835282019290925260409081019091205490517fffffffff0000000000000000000000000000000000000000000000000000000060e086901b168152611be893929190600401612262565b602060405180830381600087803b158015611c0257600080fd5b505af1158015611c16573d6000803e3d6000fd5b505050506040513d601f19601f82011682018060405250810190611c3a91906121e3565b9050611c46818461273c565b9250505b60006008600060068481548110611c7157634e487b7160e01b600052603260045260246000fd5b60009182526020808320909101546001600160a01b031683528201929092526040019020555b80611ca1816127aa565b915050611a05565b50801561075d57600454611cc7906001600160a01b03168383611ff2565b816001600160a01b03167f9a380c5d696c8e394928ff8981a11ee388a14e2f7e16d373d73486cf3c48625482604051611d009190612733565b60405180910390a250506001600055565b6004546001600160a01b031681565b3390565b600080846001600160a01b031663095ea7b38585604051602401611d49929190612286565b6040516020818303038152906040529060e01b6020820180516001600160e01b038381831617835250505050604051611d8291906121fb565b6000604051808303816000865af19150503d8060008114611dbf576040519150601f19603f3d011682016040523d82523d6000602084013e611dc4565b606091505b5091509150818015611dee575080511580611dee575080806020019051810190611dee91906121ab565b611e0a5760405162461bcd60e51b815260040161055a9061260b565b5050505050565b600180546001600160a01b0383811673ffffffffffffffffffffffffffffffffffffffff19831681179093556040519116919082907f8be0079c531659141344cd1fd0a4f28419497f9722a3daafe3b4186f6b6457e090600090a35050565b600080856001600160a01b03166323b872dd868686604051602401611e9793929190612262565b6040516020818303038152906040529060e01b6020820180516001600160e01b038381831617835250505050604051611ed091906121fb565b6000604051808303816000865af19150503d8060008114611f0d576040519150601f19603f3d011682016040523d82523d6000602084013e611f12565b606091505b5091509150818015611f3c575080511580611f3c575080806020019051810190611f3c91906121ab565b611f585760405162461bcd60e51b815260040161055a9061239b565b505050505050565b604080516000808252602082019092526001600160a01b038416908390604051611f8a91906121fb565b60006040518083038185875af1925050503d8060008114611fc7576040519150601f19603f3d011682016040523d82523d6000602084013e611fcc565b606091505b5050905080611fed5760405162461bcd60e51b815260040161055a9061242f565b505050565b600080846001600160a01b031663a9059cbb8585604051602401612017929190612286565b6040516020818303038152906040529060e01b6020820180516001600160e01b03838183161783525050505060405161205091906121fb565b6000604051808303816000865af19150503d806000811461208d576040519150601f19603f3d011682016040523d82523d6000602084013e612092565b606091505b50915091508180156120bc5750805115806120bc5750808060200190518101906120bc91906121ab565b611e0a5760405162461bcd60e51b815260040161055a9061269f565b80356001600160a01b03811681146120ef57600080fd5b919050565b600060208284031215612105578081fd5b61210e826120d8565b9392505050565b60008060408385031215612127578081fd5b612130836120d8565b915061213e602084016120d8565b90509250929050565b60008060006060848603121561215b578081fd5b612164846120d8565b9250612172602085016120d8565b9150604084013590509250925092565b60008060408385031215612194578182fd5b61219d836120d8565b946020939093013593505050565b6000602082840312156121bc578081fd5b8151801515811461210e578182fd5b6000602082840312156121dc578081fd5b5035919050565b6000602082840312156121f4578081fd5b5051919050565b60008251815b8181101561221b5760208186018101518583015201612201565b818111156122295782828501525b509190910192915050565b6001600160a01b0391909116815260200190565b6001600160a01b0392831681529116602082015260400190565b6001600160a01b039384168152919092166020820152604081019190915260600190565b6001600160a01b03929092168252602082015260400190565b901515815260200190565b60208082526026908201527f4f776e61626c653a206e6577206f776e657220697320746865207a65726f206160408201527f6464726573730000000000000000000000000000000000000000000000000000606082015260800190565b60208082526013908201527f556e6f52653a207a65726f206164647265737300000000000000000000000000604082015260600190565b6020808252602c908201527f556e6f52653a207768697465206c6973742072656d6f766564206f7220756e6160408201527f6464656420616c72656164790000000000000000000000000000000000000000606082015260800190565b60208082526031908201527f5472616e7366657248656c7065723a3a7472616e7366657246726f6d3a20747260408201527f616e7366657246726f6d206661696c6564000000000000000000000000000000606082015260800190565b6020808252601b908201527f556e6f52653a206e6f7420616c6c6f7765642063757272656e63790000000000604082015260600190565b60208082526034908201527f5472616e7366657248656c7065723a3a736166655472616e736665724554483a60408201527f20455448207472616e73666572206661696c6564000000000000000000000000606082015260800190565b60208082526019908201527f556e6f52653a207768697465206c69737420616c726561647900000000000000604082015260600190565b60208082526011908201527f416c726561647920617661696c61626c65000000000000000000000000000000604082015260600190565b6020808252601f908201527f556e6f52653a207072656d69756d2062616c616e6365206f766572666c6f7700604082015260600190565b60208082526012908201527f556e6f52653a207a65726f20616d6f756e740000000000000000000000000000604082015260600190565b6020808252601b908201527f556e6f52653a20496e73756666696369656e74205072656d69756d0000000000604082015260600190565b6020808252818101527f4f776e61626c653a2063616c6c6572206973206e6f7420746865206f776e6572604082015260600190565b60208082526011908201527f4e6f7420617661696c61626c6520796574000000000000000000000000000000604082015260600190565b6020808252602b908201527f5472616e7366657248656c7065723a3a73616665417070726f76653a2061707060408201527f726f7665206661696c6564000000000000000000000000000000000000000000606082015260800190565b6020808252601d908201527f556e6f52653a206e6f74207768697465206c6973742061646472657373000000604082015260600190565b6020808252602d908201527f5472616e7366657248656c7065723a3a736166655472616e736665723a20747260408201527f616e73666572206661696c656400000000000000000000000000000000000000606082015260800190565b6020808252601f908201527f5265656e7472616e637947756172643a207265656e7472616e742063616c6c00604082015260600190565b90815260200190565b6000821982111561274f5761274f6127c5565b500190565b60008261276f57634e487b7160e01b81526012600452602481fd5b500490565b600081600019048311821515161561278e5761278e6127c5565b500290565b6000828210156127a5576127a56127c5565b500390565b60006000198214156127be576127be6127c5565b5060010190565b634e487b7160e01b600052601160045260246000fdfea264697066735822122056618ca5a874480efaadc9e0ccab7cd967c23198e67fc791d3687a239b18398c64736f6c63430008000033",
  "devdoc": {
    "kind": "dev",
    "methods": {
      "owner()": {
        "details": "Returns the address of the current owner."
      },
      "renounceOwnership()": {
        "details": "Leaves the contract without owner. It will not be possible to call `onlyOwner` functions anymore. Can only be called by the current owner. NOTE: Renouncing ownership will leave the contract without an owner, thereby removing any functionality that is only available to the owner."
      },
      "transferOwnership(address)": {
        "details": "Transfers ownership of the contract to a new account (`newOwner`). Can only be called by the current owner."
      }
    },
    "version": 1
  },
  "userdoc": {
    "kind": "user",
    "methods": {},
    "version": 1
  },
  "storageLayout": {
    "storage": [
      {
        "astId": 114,
        "contract": "contracts/PremiumPool.sol:PremiumPool",
        "label": "_status",
        "offset": 0,
        "slot": "0",
        "type": "t_uint256"
      },
      {
        "astId": 7,
        "contract": "contracts/PremiumPool.sol:PremiumPool",
        "label": "_owner",
        "offset": 0,
        "slot": "1",
        "type": "t_address"
      },
      {
        "astId": 4891,
        "contract": "contracts/PremiumPool.sol:PremiumPool",
        "label": "exchangeAgent",
        "offset": 0,
        "slot": "2",
        "type": "t_address"
      },
      {
        "astId": 4893,
        "contract": "contracts/PremiumPool.sol:PremiumPool",
        "label": "UNO_TOKEN",
        "offset": 0,
        "slot": "3",
        "type": "t_address"
      },
      {
        "astId": 4895,
        "contract": "contracts/PremiumPool.sol:PremiumPool",
        "label": "USDC_TOKEN",
        "offset": 0,
        "slot": "4",
        "type": "t_address"
      },
      {
        "astId": 4899,
        "contract": "contracts/PremiumPool.sol:PremiumPool",
        "label": "availableCurrencies",
        "offset": 0,
        "slot": "5",
        "type": "t_mapping(t_address,t_bool)"
      },
      {
        "astId": 4902,
        "contract": "contracts/PremiumPool.sol:PremiumPool",
        "label": "availableCurrencyList",
        "offset": 0,
        "slot": "6",
        "type": "t_array(t_address)dyn_storage"
      },
      {
        "astId": 4906,
        "contract": "contracts/PremiumPool.sol:PremiumPool",
        "label": "whiteList",
        "offset": 0,
        "slot": "7",
        "type": "t_mapping(t_address,t_bool)"
      },
      {
        "astId": 4913,
        "contract": "contracts/PremiumPool.sol:PremiumPool",
        "label": "SSRP_PREMIUM",
        "offset": 0,
        "slot": "8",
        "type": "t_mapping(t_address,t_uint256)"
      },
      {
        "astId": 4917,
        "contract": "contracts/PremiumPool.sol:PremiumPool",
        "label": "SSIP_PREMIUM",
        "offset": 0,
        "slot": "9",
        "type": "t_mapping(t_address,t_uint256)"
      },
      {
        "astId": 4921,
        "contract": "contracts/PremiumPool.sol:PremiumPool",
        "label": "BACK_BURN_UNO_PREMIUM",
        "offset": 0,
        "slot": "10",
        "type": "t_mapping(t_address,t_uint256)"
      },
      {
        "astId": 4923,
        "contract": "contracts/PremiumPool.sol:PremiumPool",
        "label": "SSRP_PREMIUM_ETH",
        "offset": 0,
        "slot": "11",
        "type": "t_uint256"
      },
      {
        "astId": 4925,
        "contract": "contracts/PremiumPool.sol:PremiumPool",
        "label": "SSIP_PREMIUM_ETH",
        "offset": 0,
        "slot": "12",
        "type": "t_uint256"
      },
      {
        "astId": 4927,
        "contract": "contracts/PremiumPool.sol:PremiumPool",
        "label": "BACK_BURN_PREMIUM_ETH",
        "offset": 0,
        "slot": "13",
        "type": "t_uint256"
      },
      {
        "astId": 4934,
        "contract": "contracts/PremiumPool.sol:PremiumPool",
        "label": "MAX_INTEGER",
        "offset": 0,
        "slot": "14",
        "type": "t_uint256"
      }
    ],
    "types": {
      "t_address": {
        "encoding": "inplace",
        "label": "address",
        "numberOfBytes": "20"
      },
      "t_array(t_address)dyn_storage": {
        "base": "t_address",
        "encoding": "dynamic_array",
        "label": "address[]",
        "numberOfBytes": "32"
      },
      "t_bool": {
        "encoding": "inplace",
        "label": "bool",
        "numberOfBytes": "1"
      },
      "t_mapping(t_address,t_bool)": {
        "encoding": "mapping",
        "key": "t_address",
        "label": "mapping(address => bool)",
        "numberOfBytes": "32",
        "value": "t_bool"
      },
      "t_mapping(t_address,t_uint256)": {
        "encoding": "mapping",
        "key": "t_address",
        "label": "mapping(address => uint256)",
        "numberOfBytes": "32",
        "value": "t_uint256"
      },
      "t_uint256": {
        "encoding": "inplace",
        "label": "uint256",
        "numberOfBytes": "32"
      }
    }
  }
}