{
  "address": "0xB6a08545CE53cCEAA209e1c539DC7A4Cc907Cbf5",
  "abi": [
    {
      "inputs": [
        {
          "internalType": "address",
          "name": "_exchangeAgent",
          "type": "address"
        },
        {
          "internalType": "address",
          "name": "_unoToken",
          "type": "address"
        },
        {
          "internalType": "address",
          "name": "_usdtToken",
          "type": "address"
        }
      ],
      "stateMutability": "nonpayable",
      "type": "constructor"
    },
    {
      "anonymous": false,
      "inputs": [
        {
          "indexed": true,
          "internalType": "address",
          "name": "_operator",
          "type": "address"
        },
        {
          "indexed": true,
          "internalType": "address",
          "name": "_premiumPool",
          "type": "address"
        },
        {
          "indexed": false,
          "internalType": "uint256",
          "name": "_unoAmount",
          "type": "uint256"
        }
      ],
      "name": "LogBuyBackAndBurn",
      "type": "event"
    },
    {
      "anonymous": false,
      "inputs": [
        {
          "indexed": true,
          "internalType": "address",
          "name": "_from",
          "type": "address"
        },
        {
          "indexed": false,
          "internalType": "address",
          "name": "_premiumCurrency",
          "type": "address"
        },
        {
          "indexed": false,
          "internalType": "uint256",
          "name": "_premiumAmount",
          "type": "uint256"
        }
      ],
      "name": "LogCollectPremium",
      "type": "event"
    },
    {
      "anonymous": false,
      "inputs": [
        {
          "indexed": true,
          "internalType": "address",
          "name": "_rewarder",
          "type": "address"
        },
        {
          "indexed": true,
          "internalType": "address",
          "name": "_currency",
          "type": "address"
        },
        {
          "indexed": false,
          "internalType": "uint256",
          "name": "_amountDeposited",
          "type": "uint256"
        }
      ],
      "name": "LogDepositToSyntheticSSIPRewarder",
      "type": "event"
    },
    {
      "anonymous": false,
      "inputs": [
        {
          "indexed": true,
          "internalType": "address",
          "name": "_rewarder",
          "type": "address"
        },
        {
          "indexed": false,
          "internalType": "uint256",
          "name": "_ethAmountDeposited",
          "type": "uint256"
        }
      ],
      "name": "LogDepositToSyntheticSSRPRewarder",
      "type": "event"
    },
    {
      "anonymous": false,
      "inputs": [
        {
          "indexed": true,
          "internalType": "address",
          "name": "_currency",
          "type": "address"
        },
        {
          "indexed": true,
          "internalType": "address",
          "name": "_to",
          "type": "address"
        },
        {
          "indexed": false,
          "internalType": "uint256",
          "name": "_amount",
          "type": "uint256"
        }
      ],
      "name": "PremiumWithdraw",
      "type": "event"
    },
    {
      "inputs": [],
      "name": "BACK_BURN_PREMIUM_ETH",
      "outputs": [
        {
          "internalType": "uint256",
          "name": "",
          "type": "uint256"
        }
      ],
      "stateMutability": "view",
      "type": "function"
    },
    {
      "inputs": [
        {
          "internalType": "address",
          "name": "",
          "type": "address"
        }
      ],
      "name": "BACK_BURN_UNO_PREMIUM",
      "outputs": [
        {
          "internalType": "uint256",
          "name": "",
          "type": "uint256"
        }
      ],
      "stateMutability": "view",
      "type": "function"
    },
    {
      "inputs": [
        {
          "internalType": "address",
          "name": "",
          "type": "address"
        }
      ],
      "name": "SSIP_PREMIUM",
      "outputs": [
        {
          "internalType": "uint256",
          "name": "",
          "type": "uint256"
        }
      ],
      "stateMutability": "view",
      "type": "function"
    },
    {
      "inputs": [],
      "name": "SSIP_PREMIUM_ETH",
      "outputs": [
        {
          "internalType": "uint256",
          "name": "",
          "type": "uint256"
        }
      ],
      "stateMutability": "view",
      "type": "function"
    },
    {
      "inputs": [
        {
          "internalType": "address",
          "name": "",
          "type": "address"
        }
      ],
      "name": "SSRP_PREMIUM",
      "outputs": [
        {
          "internalType": "uint256",
          "name": "",
          "type": "uint256"
        }
      ],
      "stateMutability": "view",
      "type": "function"
    },
    {
      "inputs": [],
      "name": "SSRP_PREMIUM_ETH",
      "outputs": [
        {
          "internalType": "uint256",
          "name": "",
          "type": "uint256"
        }
      ],
      "stateMutability": "view",
      "type": "function"
    },
    {
      "inputs": [],
      "name": "UNO_TOKEN",
      "outputs": [
        {
          "internalType": "address",
          "name": "",
          "type": "address"
        }
      ],
      "stateMutability": "view",
      "type": "function"
    },
    {
      "inputs": [],
      "name": "USDT_TOKEN",
      "outputs": [
        {
          "internalType": "address",
          "name": "",
          "type": "address"
        }
      ],
      "stateMutability": "view",
      "type": "function"
    },
    {
      "inputs": [
        {
          "internalType": "address",
          "name": "_currency",
          "type": "address"
        }
      ],
      "name": "addCurrency",
      "outputs": [],
      "stateMutability": "nonpayable",
      "type": "function"
    },
    {
      "inputs": [
        {
          "internalType": "address",
          "name": "",
          "type": "address"
        }
      ],
      "name": "availableCurrencies",
      "outputs": [
        {
          "internalType": "bool",
          "name": "",
          "type": "bool"
        }
      ],
      "stateMutability": "view",
      "type": "function"
    },
    {
      "inputs": [
        {
          "internalType": "uint256",
          "name": "",
          "type": "uint256"
        }
      ],
      "name": "availableCurrencyList",
      "outputs": [
        {
          "internalType": "address",
          "name": "",
          "type": "address"
        }
      ],
      "stateMutability": "view",
      "type": "function"
    },
    {
      "inputs": [],
      "name": "burnAddress",
      "outputs": [
        {
          "internalType": "address",
          "name": "",
          "type": "address"
        }
      ],
      "stateMutability": "view",
      "type": "function"
    },
    {
      "inputs": [],
      "name": "buyBackAndBurn",
      "outputs": [],
      "stateMutability": "nonpayable",
      "type": "function"
    },
    {
      "inputs": [
        {
          "internalType": "address",
          "name": "_premiumCurrency",
          "type": "address"
        },
        {
          "internalType": "uint256",
          "name": "_premiumAmount",
          "type": "uint256"
        }
      ],
      "name": "collectPremium",
      "outputs": [],
      "stateMutability": "nonpayable",
      "type": "function"
    },
    {
      "inputs": [
        {
          "internalType": "uint256",
          "name": "_premiumAmount",
          "type": "uint256"
        }
      ],
      "name": "collectPremiumInETH",
      "outputs": [],
      "stateMutability": "payable",
      "type": "function"
    },
    {
      "inputs": [
        {
          "internalType": "address",
          "name": "_currency",
          "type": "address"
        },
        {
          "internalType": "address",
          "name": "_rewarder",
          "type": "address"
        }
      ],
      "name": "depositToSyntheticSSIPRewarder",
      "outputs": [],
      "stateMutability": "payable",
      "type": "function"
    },
    {
      "inputs": [
        {
          "internalType": "address",
          "name": "_rewarder",
          "type": "address"
        }
      ],
      "name": "depositToSyntheticSSRPRewarder",
      "outputs": [],
      "stateMutability": "payable",
      "type": "function"
    },
    {
      "inputs": [
        {
          "internalType": "address",
          "name": "_currency",
          "type": "address"
        },
        {
          "internalType": "address",
          "name": "_to",
          "type": "address"
        }
      ],
      "name": "destroyCurrencyAllowance",
      "outputs": [],
      "stateMutability": "nonpayable",
      "type": "function"
    },
    {
      "inputs": [],
      "name": "exchangeAgent",
      "outputs": [
        {
          "internalType": "address",
          "name": "",
          "type": "address"
        }
      ],
      "stateMutability": "view",
      "type": "function"
    },
    {
      "inputs": [
        {
          "internalType": "address",
          "name": "_currency",
          "type": "address"
        },
        {
          "internalType": "address",
          "name": "_to",
          "type": "address"
        }
      ],
      "name": "maxApproveCurrency",
      "outputs": [],
      "stateMutability": "nonpayable",
      "type": "function"
    },
    {
      "inputs": [],
      "name": "owner",
      "outputs": [
        {
          "internalType": "address",
          "name": "",
          "type": "address"
        }
      ],
      "stateMutability": "view",
      "type": "function"
    },
    {
      "inputs": [
        {
          "internalType": "address",
          "name": "_currency",
          "type": "address"
        }
      ],
      "name": "removeCurrency",
      "outputs": [],
      "stateMutability": "nonpayable",
      "type": "function"
    },
    {
      "inputs": [
        {
          "internalType": "address",
          "name": "_currency",
          "type": "address"
        },
        {
          "internalType": "address",
          "name": "_to",
          "type": "address"
        },
        {
          "internalType": "uint256",
          "name": "_amount",
          "type": "uint256"
        }
      ],
      "name": "withdrawPremium",
      "outputs": [],
      "stateMutability": "nonpayable",
      "type": "function"
    },
    {
      "stateMutability": "payable",
      "type": "receive"
    }
  ],
  "transactionHash": "0xf34283f1fb17a3bdfe3c2562e778b4202d04593c48514af2fad484668772ae15",
  "args": [
    "0xA51A923E3719b460C2F4889407522CAADE2763b1",
    "0x53fb43BaE4C13d6AFAD37fB37c3fC49f3Af433F5",
    "0x40c035016AD732b6cFce34c3F881040B6C6cf71E"
  ],
  "solcInputHash": "8b4d273543ae78586be14fde7d603ae7",
  "bytecode": "0x6080604052600019600d553480156200001757600080fd5b50604051620021c4380380620021c48339810160408190526200003a91620000aa565b60016000819055600280546001600160a01b039586166001600160a01b031991821617909155815481163317909155600380549385169382169390931790925560048054919093169116179055620000f3565b80516001600160a01b0381168114620000a557600080fd5b919050565b600080600060608486031215620000bf578283fd5b620000ca846200008d565b9250620000da602085016200008d565b9150620000ea604085016200008d565b90509250925092565b6120c180620001036000396000f3fe6080604052600436106101745760003560e01c80638ab234b6116100d6578063c970e99f1161007f578063d9203b9111610059578063d9203b91146103cd578063e980a96a146103e2578063f88822c4146103f55761017b565b8063c970e99f14610385578063d830c7151461039a578063d84e305a146103ad5761017b565b806397274e6e116100b057806397274e6e14610325578063c4ddd57c14610345578063c5d3a107146103655761017b565b80638ab234b6146102d05780638c8ac76d146102f05780638da5cb5b146103105761017b565b8063493721f51161013857806370d5ae051161011257806370d5ae0514610286578063729ae6b01461029b57806377b330c9146102bb5761017b565b8063493721f51461022f57806354ea1d7d146102445780635bb48a00146102665761017b565b8063095002b8146101805780630cf84e0b146101ab5780630f97b97b146101cb57806314074237146101ed5780631af42c0f146102025761017b565b3661017b57005b600080fd5b34801561018c57600080fd5b50610195610408565b6040516101a29190611fe3565b60405180910390f35b3480156101b757600080fd5b506101956101c6366004611aec565b61040e565b3480156101d757600080fd5b506101e0610420565b6040516101a29190611c2c565b3480156101f957600080fd5b5061019561042f565b34801561020e57600080fd5b5061022261021d366004611aec565b610435565b6040516101a29190611c97565b34801561023b57600080fd5b5061019561044a565b34801561025057600080fd5b5061026461025f366004611b0d565b610450565b005b34801561027257600080fd5b506101e0610281366004611bc3565b610548565b34801561029257600080fd5b506101e0610572565b3480156102a757600080fd5b506101956102b6366004611aec565b610578565b3480156102c757600080fd5b506101e061058a565b3480156102dc57600080fd5b506102646102eb366004611aec565b610599565b3480156102fc57600080fd5b5061026461030b366004611b7a565b610681565b34801561031c57600080fd5b506101e06108d2565b34801561033157600080fd5b50610264610340366004611b0d565b6108e1565b34801561035157600080fd5b50610195610360366004611aec565b6109c5565b34801561037157600080fd5b50610264610380366004611aec565b6109d7565b34801561039157600080fd5b50610264610bbc565b6102646103a8366004611bc3565b610ef0565b3480156103b957600080fd5b506102646103c8366004611b3f565b610fd8565b3480156103d957600080fd5b506101e061117c565b6102646103f0366004611b0d565b61118b565b610264610403366004611aec565b611350565b600c5481565b60096020526000908152604090205481565b6003546001600160a01b031681565b600a5481565b60056020526000908152604090205460ff1681565b600b5481565b6001546001600160a01b031633146104835760405162461bcd60e51b815260040161047a90611e38565b60405180910390fd5b600260005414156104a65760405162461bcd60e51b815260040161047a90611fac565b6002600055600d54604051636eb1769f60e11b81526001600160a01b0384169063dd62ed3e906104dc9030908690600401611c40565b60206040518083038186803b1580156104f457600080fd5b505afa158015610508573d6000803e3d6000fd5b505050506040513d601f19601f8201168201806040525081019061052c9190611bdb565b101561053f5761053f8282600d5461177b565b50506001600055565b6006818154811061055857600080fd5b6000918252602090912001546001600160a01b0316905081565b61dead81565b60086020526000908152604090205481565b6004546001600160a01b031681565b6001546001600160a01b031633146105c35760405162461bcd60e51b815260040161047a90611e38565b6001600160a01b03811660009081526005602052604090205460ff16156105fc5760405162461bcd60e51b815260040161047a90611dca565b6001600160a01b038082166000818152600560205260408120805460ff191660019081179091556006805491820181559091527ff652222313e28459528d920b65115c16c04f3efc82aaedc97be59f3f377c0d3f01805473ffffffffffffffffffffffffffffffffffffffff1916909117905560025461067e91839116610450565b50565b600260005414156106a45760405162461bcd60e51b815260040161047a90611fac565b600260009081556001600160a01b038316815260056020526040902054829060ff166106e25760405162461bcd60e51b815260040161047a90611d36565b6040516370a0823160e01b815282906001600160a01b038516906370a0823190610710903390600401611c2c565b60206040518083038186803b15801561072857600080fd5b505afa15801561073c573d6000803e3d6000fd5b505050506040513d601f19601f820116820180604052508101906107609190611bdb565b101561077e5760405162461bcd60e51b815260040161047a90611e01565b61078a83333085611868565b612710610799836103e8612024565b6107a39190612004565b6001600160a01b0384166000908152600760205260409020546107c69190611fec565b6001600160a01b0384166000908152600760205260409020556127106107ee83611b58612024565b6107f89190612004565b6001600160a01b03841660009081526008602052604090205461081b9190611fec565b6001600160a01b038416600090815260086020526040902055612710610843836107d0612024565b61084d9190612004565b6001600160a01b0384166000908152600960205260409020546108709190611fec565b6001600160a01b03841660009081526009602052604090819020919091555133907f411101aad886ab4351e7c392d06f013b37a7c6c00b7f964bca364da03df0e7d5906108c09086908690611c7e565b60405180910390a25050600160005550565b6001546001600160a01b031681565b6001546001600160a01b0316331461090b5760405162461bcd60e51b815260040161047a90611e38565b6002600054141561092e5760405162461bcd60e51b815260040161047a90611fac565b60026000908155604051636eb1769f60e11b81526001600160a01b0384169063dd62ed3e906109639030908690600401611c40565b60206040518083038186803b15801561097b57600080fd5b505afa15801561098f573d6000803e3d6000fd5b505050506040513d601f19601f820116820180604052508101906109b39190611bdb565b111561053f5761053f8282600061177b565b60076020526000908152604090205481565b6001546001600160a01b03163314610a015760405162461bcd60e51b815260040161047a90611e38565b6001600160a01b03811660009081526005602052604090205460ff16610a395760405162461bcd60e51b815260040161047a90611edd565b6001600160a01b0381166000908152600560205260408120805460ff19169055600680549190610a6a600184612043565b81548110610a8857634e487b7160e01b600052603260045260246000fd5b60009182526020822001546001600160a01b031691505b82811015610bb65760068181548110610ac857634e487b7160e01b600052603260045260246000fd5b6000918252602090912001546001600160a01b0385811691161415610ba4578160068281548110610b0957634e487b7160e01b600052603260045260246000fd5b9060005260206000200160006101000a8154816001600160a01b0302191690836001600160a01b031602179055506006805480610b5657634e487b7160e01b600052603160045260246000fd5b6000828152602090208101600019908101805473ffffffffffffffffffffffffffffffffffffffff19169055019055600254610b9c9085906001600160a01b03166108e1565b50505061067e565b80610bae8161205a565b915050610a9f565b50505050565b6001546001600160a01b03163314610be65760405162461bcd60e51b815260040161047a90611e38565b600c5460009015610caa57600254600c54610c0a916001600160a01b031690611958565b600254600354600c546040516393badc4160e01b81526001600160a01b03938416936393badc4193610c46936000939290911691600401611c5a565b602060405180830381600087803b158015610c6057600080fd5b505af1158015610c74573d6000803e3d6000fd5b505050506040513d601f19601f82011682018060405250810190610c989190611bdb565b610ca29082611fec565b6000600c5590505b60005b600654811015610e915760006009600060068481548110610cde57634e487b7160e01b600052603260045260246000fd5b60009182526020808320909101546001600160a01b031683528201929092526040019020541115610e7f57600254600680546000926001600160a01b0316916393badc419185908110610d4157634e487b7160e01b600052603260045260246000fd5b6000918252602082200154600354600680546001600160a01b03938416949290931692600992919089908110610d8757634e487b7160e01b600052603260045260246000fd5b60009182526020808320909101546001600160a01b0316835282019290925260409081019091205490516001600160e01b031960e086901b168152610dd193929190600401611c5a565b602060405180830381600087803b158015610deb57600080fd5b505af1158015610dff573d6000803e3d6000fd5b505050506040513d601f19601f82011682018060405250810190610e239190611bdb565b9050610e2f8184611fec565b925060006009600060068581548110610e5857634e487b7160e01b600052603260045260246000fd5b60009182526020808320909101546001600160a01b03168352820192909252604001902055505b80610e898161205a565b915050610cad565b508015610eb157600354610eb1906001600160a01b031661dead836119ea565b604051309033907f94032d93ea01eeeccc1b1f03a7eddaf352c7cd85e246c6fc01afed0ddf6b5c1d90610ee5908590611fe3565b60405180910390a350565b60026000541415610f135760405162461bcd60e51b815260040161047a90611fac565b6002600055612710610f27826103e8612024565b610f319190612004565b600a54610f3e9190611fec565b600a55612710610f5082611b58612024565b610f5a9190612004565b600b54610f679190611fec565b600b55612710610f79826107d0612024565b610f839190612004565b600c54610f909190611fec565b600c5560405133907f411101aad886ab4351e7c392d06f013b37a7c6c00b7f964bca364da03df0e7d590610fc8906000908590611c7e565b60405180910390a2506001600055565b6001546001600160a01b031633146110025760405162461bcd60e51b815260040161047a90611e38565b6001600160a01b0382166110285760405162461bcd60e51b815260040161047a90611ca2565b600081116110485760405162461bcd60e51b815260040161047a90611e6f565b6001600160a01b03831661108557804710156110765760405162461bcd60e51b815260040161047a90611ea6565b6110808282611958565b61112c565b6040516370a0823160e01b815281906001600160a01b038516906370a08231906110b3903090600401611c2c565b60206040518083038186803b1580156110cb57600080fd5b505afa1580156110df573d6000803e3d6000fd5b505050506040513d601f19601f820116820180604052508101906111039190611bdb565b10156111215760405162461bcd60e51b815260040161047a90611ea6565b61112c8383836119ea565b816001600160a01b0316836001600160a01b03167f8d18a25569e967883ac0402e6991b4ac87616370a1c2ce59726abce4ef45bdb88360405161116f9190611fe3565b60405180910390a3505050565b6002546001600160a01b031681565b6001546001600160a01b031633146111b55760405162461bcd60e51b815260040161047a90611e38565b600260005414156111d85760405162461bcd60e51b815260040161047a90611fac565b60026000556001600160a01b0381166112035760405162461bcd60e51b815260040161047a90611ca2565b6001600160a01b03821615801561121c57506000600b54115b156112875761122d81600b54611958565b6000600b81905550816001600160a01b0316816001600160a01b03167f370cbb08cddf346c35e924a503aa223dcc1b75a993d7c23a602d2e4bc0802c10600b5460405161127a9190611fe3565b60405180910390a361053f565b6001600160a01b03821660009081526005602052604090205460ff1680156112c657506001600160a01b03821660009081526008602052604090205415155b1561053f576001600160a01b0382166000908152600860205260409020546112f190839083906119ea565b6001600160a01b038083166000818152600860205260408082208290555191928416917f370cbb08cddf346c35e924a503aa223dcc1b75a993d7c23a602d2e4bc0802c109161133f91611fe3565b60405180910390a350506001600055565b6001546001600160a01b0316331461137a5760405162461bcd60e51b815260040161047a90611e38565b6002600054141561139d5760405162461bcd60e51b815260040161047a90611fac565b60026000556001600160a01b0381166113c85760405162461bcd60e51b815260040161047a90611ca2565b600a546000901561149157600254600a546113ec916001600160a01b031690611958565b60025460048054600a546040516393badc4160e01b81526000946001600160a01b03908116946393badc419461142a94889491909316929101611c5a565b602060405180830381600087803b15801561144457600080fd5b505af1158015611458573d6000803e3d6000fd5b505050506040513d601f19601f8201168201806040525081019061147c9190611bdb565b90506114888183611fec565b6000600a559150505b60005b60065481101561172057600060076000600684815481106114c557634e487b7160e01b600052603260045260246000fd5b60009182526020808320909101546001600160a01b03168352820192909252604001902054111561170e57600454600680546001600160a01b03909216918390811061152157634e487b7160e01b600052603260045260246000fd5b6000918252602090912001546001600160a01b0316141561159757600760006006838154811061156157634e487b7160e01b600052603260045260246000fd5b60009182526020808320909101546001600160a01b031683528201929092526040019020546115909083611fec565b91506116c1565b600254600680546000926001600160a01b0316916393badc4191859081106115cf57634e487b7160e01b600052603260045260246000fd5b6000918252602082200154600454600680546001600160a01b0393841694929093169260079291908990811061161557634e487b7160e01b600052603260045260246000fd5b60009182526020808320909101546001600160a01b0316835282019290925260409081019091205490516001600160e01b031960e086901b16815261165f93929190600401611c5a565b602060405180830381600087803b15801561167957600080fd5b505af115801561168d573d6000803e3d6000fd5b505050506040513d601f19601f820116820180604052508101906116b19190611bdb565b90506116bd8184611fec565b9250505b600060076000600684815481106116e857634e487b7160e01b600052603260045260246000fd5b60009182526020808320909101546001600160a01b031683528201929092526040019020555b806117188161205a565b915050611494565b50801561053f576117318282611958565b816001600160a01b03167f9a380c5d696c8e394928ff8981a11ee388a14e2f7e16d373d73486cf3c4862548260405161176a9190611fe3565b60405180910390a250506001600055565b600080846001600160a01b031663095ea7b385856040516024016117a0929190611c7e565b6040516020818303038152906040529060e01b6020820180516001600160e01b0383818316178352505050506040516117d99190611bf3565b6000604051808303816000865af19150503d8060008114611816576040519150601f19603f3d011682016040523d82523d6000602084013e61181b565b606091505b50915091508180156118455750805115806118455750808060200190518101906118459190611ba3565b6118615760405162461bcd60e51b815260040161047a90611f14565b5050505050565b600080856001600160a01b03166323b872dd86868660405160240161188f93929190611c5a565b6040516020818303038152906040529060e01b6020820180516001600160e01b0383818316178352505050506040516118c89190611bf3565b6000604051808303816000865af19150503d8060008114611905576040519150601f19603f3d011682016040523d82523d6000602084013e61190a565b606091505b50915091508180156119345750805115806119345750808060200190518101906119349190611ba3565b6119505760405162461bcd60e51b815260040161047a90611cd9565b505050505050565b604080516000808252602082019092526001600160a01b0384169083906040516119829190611bf3565b60006040518083038185875af1925050503d80600081146119bf576040519150601f19603f3d011682016040523d82523d6000602084013e6119c4565b606091505b50509050806119e55760405162461bcd60e51b815260040161047a90611d6d565b505050565b600080846001600160a01b031663a9059cbb8585604051602401611a0f929190611c7e565b6040516020818303038152906040529060e01b6020820180516001600160e01b038381831617835250505050604051611a489190611bf3565b6000604051808303816000865af19150503d8060008114611a85576040519150601f19603f3d011682016040523d82523d6000602084013e611a8a565b606091505b5091509150818015611ab4575080511580611ab4575080806020019051810190611ab49190611ba3565b6118615760405162461bcd60e51b815260040161047a90611f5f565b80356001600160a01b0381168114611ae757600080fd5b919050565b600060208284031215611afd578081fd5b611b0682611ad0565b9392505050565b60008060408385031215611b1f578081fd5b611b2883611ad0565b9150611b3660208401611ad0565b90509250929050565b600080600060608486031215611b53578081fd5b611b5c84611ad0565b9250611b6a60208501611ad0565b9150604084013590509250925092565b60008060408385031215611b8c578182fd5b611b9583611ad0565b946020939093013593505050565b600060208284031215611bb4578081fd5b81518015158114611b06578182fd5b600060208284031215611bd4578081fd5b5035919050565b600060208284031215611bec578081fd5b5051919050565b60008251815b81811015611c135760208186018101518583015201611bf9565b81811115611c215782828501525b509190910192915050565b6001600160a01b0391909116815260200190565b6001600160a01b0392831681529116602082015260400190565b6001600160a01b039384168152919092166020820152604081019190915260600190565b6001600160a01b03929092168252602082015260400190565b901515815260200190565b60208082526013908201527f556e6f52653a207a65726f206164647265737300000000000000000000000000604082015260600190565b60208082526031908201527f5472616e7366657248656c7065723a3a7472616e7366657246726f6d3a20747260408201527f616e7366657246726f6d206661696c6564000000000000000000000000000000606082015260800190565b6020808252601b908201527f556e6f52653a206e6f7420616c6c6f7765642063757272656e63790000000000604082015260600190565b60208082526034908201527f5472616e7366657248656c7065723a3a736166655472616e736665724554483a60408201527f20455448207472616e73666572206661696c6564000000000000000000000000606082015260800190565b60208082526011908201527f416c726561647920617661696c61626c65000000000000000000000000000000604082015260600190565b6020808252601f908201527f556e6f52653a207072656d69756d2062616c616e6365206f766572666c6f7700604082015260600190565b6020808252601c908201527f556e6f52653a205072656d69756d506f6f6c20466f7262696464656e00000000604082015260600190565b60208082526012908201527f556e6f52653a207a65726f20616d6f756e740000000000000000000000000000604082015260600190565b6020808252601b908201527f556e6f52653a20496e73756666696369656e74205072656d69756d0000000000604082015260600190565b60208082526011908201527f4e6f7420617661696c61626c6520796574000000000000000000000000000000604082015260600190565b6020808252602b908201527f5472616e7366657248656c7065723a3a73616665417070726f76653a2061707060408201526a1c9bdd994819985a5b195960aa1b606082015260800190565b6020808252602d908201527f5472616e7366657248656c7065723a3a736166655472616e736665723a20747260408201526c185b9cd9995c8819985a5b1959609a1b606082015260800190565b6020808252601f908201527f5265656e7472616e637947756172643a207265656e7472616e742063616c6c00604082015260600190565b90815260200190565b60008219821115611fff57611fff612075565b500190565b60008261201f57634e487b7160e01b81526012600452602481fd5b500490565b600081600019048311821515161561203e5761203e612075565b500290565b60008282101561205557612055612075565b500390565b600060001982141561206e5761206e612075565b5060010190565b634e487b7160e01b600052601160045260246000fdfea2646970667358221220eca997576900c27542f0b23c83bfc09e22bbbb0d96ea8afde3f194b10a30f93164736f6c63430008000033",
  "devdoc": {
    "kind": "dev",
    "methods": {},
    "version": 1
  },
  "userdoc": {
    "kind": "user",
    "methods": {},
    "version": 1
  },
  "storageLayout": {
    "storage": [
      {
        "astId": 114,
        "contract": "contracts/PremiumPool.sol:PremiumPool",
        "label": "_status",
        "offset": 0,
        "slot": "0",
        "type": "t_uint256"
      },
      {
        "astId": 4400,
        "contract": "contracts/PremiumPool.sol:PremiumPool",
        "label": "owner",
        "offset": 0,
        "slot": "1",
        "type": "t_address"
      },
      {
        "astId": 4402,
        "contract": "contracts/PremiumPool.sol:PremiumPool",
        "label": "exchangeAgent",
        "offset": 0,
        "slot": "2",
        "type": "t_address"
      },
      {
        "astId": 4404,
        "contract": "contracts/PremiumPool.sol:PremiumPool",
        "label": "UNO_TOKEN",
        "offset": 0,
        "slot": "3",
        "type": "t_address"
      },
      {
        "astId": 4406,
        "contract": "contracts/PremiumPool.sol:PremiumPool",
        "label": "USDT_TOKEN",
        "offset": 0,
        "slot": "4",
        "type": "t_address"
      },
      {
        "astId": 4410,
        "contract": "contracts/PremiumPool.sol:PremiumPool",
        "label": "availableCurrencies",
        "offset": 0,
        "slot": "5",
        "type": "t_mapping(t_address,t_bool)"
      },
      {
        "astId": 4413,
        "contract": "contracts/PremiumPool.sol:PremiumPool",
        "label": "availableCurrencyList",
        "offset": 0,
        "slot": "6",
        "type": "t_array(t_address)dyn_storage"
      },
      {
        "astId": 4420,
        "contract": "contracts/PremiumPool.sol:PremiumPool",
        "label": "SSRP_PREMIUM",
        "offset": 0,
        "slot": "7",
        "type": "t_mapping(t_address,t_uint256)"
      },
      {
        "astId": 4424,
        "contract": "contracts/PremiumPool.sol:PremiumPool",
        "label": "SSIP_PREMIUM",
        "offset": 0,
        "slot": "8",
        "type": "t_mapping(t_address,t_uint256)"
      },
      {
        "astId": 4428,
        "contract": "contracts/PremiumPool.sol:PremiumPool",
        "label": "BACK_BURN_UNO_PREMIUM",
        "offset": 0,
        "slot": "9",
        "type": "t_mapping(t_address,t_uint256)"
      },
      {
        "astId": 4430,
        "contract": "contracts/PremiumPool.sol:PremiumPool",
        "label": "SSRP_PREMIUM_ETH",
        "offset": 0,
        "slot": "10",
        "type": "t_uint256"
      },
      {
        "astId": 4432,
        "contract": "contracts/PremiumPool.sol:PremiumPool",
        "label": "SSIP_PREMIUM_ETH",
        "offset": 0,
        "slot": "11",
        "type": "t_uint256"
      },
      {
        "astId": 4434,
        "contract": "contracts/PremiumPool.sol:PremiumPool",
        "label": "BACK_BURN_PREMIUM_ETH",
        "offset": 0,
        "slot": "12",
        "type": "t_uint256"
      },
      {
        "astId": 4441,
        "contract": "contracts/PremiumPool.sol:PremiumPool",
        "label": "MAX_INTEGER",
        "offset": 0,
        "slot": "13",
        "type": "t_uint256"
      }
    ],
    "types": {
      "t_address": {
        "encoding": "inplace",
        "label": "address",
        "numberOfBytes": "20"
      },
      "t_array(t_address)dyn_storage": {
        "base": "t_address",
        "encoding": "dynamic_array",
        "label": "address[]",
        "numberOfBytes": "32"
      },
      "t_bool": {
        "encoding": "inplace",
        "label": "bool",
        "numberOfBytes": "1"
      },
      "t_mapping(t_address,t_bool)": {
        "encoding": "mapping",
        "key": "t_address",
        "label": "mapping(address => bool)",
        "numberOfBytes": "32",
        "value": "t_bool"
      },
      "t_mapping(t_address,t_uint256)": {
        "encoding": "mapping",
        "key": "t_address",
        "label": "mapping(address => uint256)",
        "numberOfBytes": "32",
        "value": "t_uint256"
      },
      "t_uint256": {
        "encoding": "inplace",
        "label": "uint256",
        "numberOfBytes": "32"
      }
    }
  }
}