{
  "address": "0x3fCDBcbBb567d7A326b133439A938cC052FAdf1c",
  "abi": [
    {
      "inputs": [
        {
          "internalType": "address",
          "name": "_exchangeAgent",
          "type": "address"
        },
        {
          "internalType": "address",
          "name": "_unoToken",
          "type": "address"
        },
        {
          "internalType": "address",
          "name": "_usdcToken",
          "type": "address"
        }
      ],
      "stateMutability": "nonpayable",
      "type": "constructor"
    },
    {
      "anonymous": false,
      "inputs": [
        {
          "indexed": true,
          "internalType": "address",
          "name": "_operator",
          "type": "address"
        },
        {
          "indexed": true,
          "internalType": "address",
          "name": "_premiumPool",
          "type": "address"
        },
        {
          "indexed": false,
          "internalType": "uint256",
          "name": "_unoAmount",
          "type": "uint256"
        }
      ],
      "name": "LogBuyBackAndBurn",
      "type": "event"
    },
    {
      "anonymous": false,
      "inputs": [
        {
          "indexed": true,
          "internalType": "address",
          "name": "_from",
          "type": "address"
        },
        {
          "indexed": false,
          "internalType": "address",
          "name": "_premiumCurrency",
          "type": "address"
        },
        {
          "indexed": false,
          "internalType": "uint256",
          "name": "_premiumAmount",
          "type": "uint256"
        }
      ],
      "name": "LogCollectPremium",
      "type": "event"
    },
    {
      "anonymous": false,
      "inputs": [
        {
          "indexed": true,
          "internalType": "address",
          "name": "_rewarder",
          "type": "address"
        },
        {
          "indexed": true,
          "internalType": "address",
          "name": "_currency",
          "type": "address"
        },
        {
          "indexed": false,
          "internalType": "uint256",
          "name": "_amountDeposited",
          "type": "uint256"
        }
      ],
      "name": "LogDepositToSyntheticSSIPRewarder",
      "type": "event"
    },
    {
      "anonymous": false,
      "inputs": [
        {
          "indexed": true,
          "internalType": "address",
          "name": "_rewarder",
          "type": "address"
        },
        {
          "indexed": false,
          "internalType": "uint256",
          "name": "_ethAmountDeposited",
          "type": "uint256"
        }
      ],
      "name": "LogDepositToSyntheticSSRPRewarder",
      "type": "event"
    },
    {
      "anonymous": false,
      "inputs": [
        {
          "indexed": true,
          "internalType": "address",
          "name": "_currency",
          "type": "address"
        },
        {
          "indexed": true,
          "internalType": "address",
          "name": "_to",
          "type": "address"
        },
        {
          "indexed": false,
          "internalType": "uint256",
          "name": "_amount",
          "type": "uint256"
        }
      ],
      "name": "PremiumWithdraw",
      "type": "event"
    },
    {
      "inputs": [],
      "name": "BACK_BURN_PREMIUM_ETH",
      "outputs": [
        {
          "internalType": "uint256",
          "name": "",
          "type": "uint256"
        }
      ],
      "stateMutability": "view",
      "type": "function"
    },
    {
      "inputs": [
        {
          "internalType": "address",
          "name": "",
          "type": "address"
        }
      ],
      "name": "BACK_BURN_UNO_PREMIUM",
      "outputs": [
        {
          "internalType": "uint256",
          "name": "",
          "type": "uint256"
        }
      ],
      "stateMutability": "view",
      "type": "function"
    },
    {
      "inputs": [
        {
          "internalType": "address",
          "name": "",
          "type": "address"
        }
      ],
      "name": "SSIP_PREMIUM",
      "outputs": [
        {
          "internalType": "uint256",
          "name": "",
          "type": "uint256"
        }
      ],
      "stateMutability": "view",
      "type": "function"
    },
    {
      "inputs": [],
      "name": "SSIP_PREMIUM_ETH",
      "outputs": [
        {
          "internalType": "uint256",
          "name": "",
          "type": "uint256"
        }
      ],
      "stateMutability": "view",
      "type": "function"
    },
    {
      "inputs": [
        {
          "internalType": "address",
          "name": "",
          "type": "address"
        }
      ],
      "name": "SSRP_PREMIUM",
      "outputs": [
        {
          "internalType": "uint256",
          "name": "",
          "type": "uint256"
        }
      ],
      "stateMutability": "view",
      "type": "function"
    },
    {
      "inputs": [],
      "name": "SSRP_PREMIUM_ETH",
      "outputs": [
        {
          "internalType": "uint256",
          "name": "",
          "type": "uint256"
        }
      ],
      "stateMutability": "view",
      "type": "function"
    },
    {
      "inputs": [],
      "name": "UNO_TOKEN",
      "outputs": [
        {
          "internalType": "address",
          "name": "",
          "type": "address"
        }
      ],
      "stateMutability": "view",
      "type": "function"
    },
    {
      "inputs": [],
      "name": "USDC_TOKEN",
      "outputs": [
        {
          "internalType": "address",
          "name": "",
          "type": "address"
        }
      ],
      "stateMutability": "view",
      "type": "function"
    },
    {
      "inputs": [
        {
          "internalType": "address",
          "name": "_currency",
          "type": "address"
        }
      ],
      "name": "addCurrency",
      "outputs": [],
      "stateMutability": "nonpayable",
      "type": "function"
    },
    {
      "inputs": [
        {
          "internalType": "address",
          "name": "",
          "type": "address"
        }
      ],
      "name": "availableCurrencies",
      "outputs": [
        {
          "internalType": "bool",
          "name": "",
          "type": "bool"
        }
      ],
      "stateMutability": "view",
      "type": "function"
    },
    {
      "inputs": [
        {
          "internalType": "uint256",
          "name": "",
          "type": "uint256"
        }
      ],
      "name": "availableCurrencyList",
      "outputs": [
        {
          "internalType": "address",
          "name": "",
          "type": "address"
        }
      ],
      "stateMutability": "view",
      "type": "function"
    },
    {
      "inputs": [],
      "name": "burnAddress",
      "outputs": [
        {
          "internalType": "address",
          "name": "",
          "type": "address"
        }
      ],
      "stateMutability": "view",
      "type": "function"
    },
    {
      "inputs": [],
      "name": "buyBackAndBurn",
      "outputs": [],
      "stateMutability": "nonpayable",
      "type": "function"
    },
    {
      "inputs": [
        {
          "internalType": "address",
          "name": "_premiumCurrency",
          "type": "address"
        },
        {
          "internalType": "uint256",
          "name": "_premiumAmount",
          "type": "uint256"
        }
      ],
      "name": "collectPremium",
      "outputs": [],
      "stateMutability": "nonpayable",
      "type": "function"
    },
    {
      "inputs": [
        {
          "internalType": "uint256",
          "name": "_premiumAmount",
          "type": "uint256"
        }
      ],
      "name": "collectPremiumInETH",
      "outputs": [],
      "stateMutability": "payable",
      "type": "function"
    },
    {
      "inputs": [
        {
          "internalType": "address",
          "name": "_currency",
          "type": "address"
        },
        {
          "internalType": "address",
          "name": "_rewarder",
          "type": "address"
        }
      ],
      "name": "depositToSyntheticSSIPRewarder",
      "outputs": [],
      "stateMutability": "payable",
      "type": "function"
    },
    {
      "inputs": [
        {
          "internalType": "address",
          "name": "_rewarder",
          "type": "address"
        }
      ],
      "name": "depositToSyntheticSSRPRewarder",
      "outputs": [],
      "stateMutability": "payable",
      "type": "function"
    },
    {
      "inputs": [
        {
          "internalType": "address",
          "name": "_currency",
          "type": "address"
        },
        {
          "internalType": "address",
          "name": "_to",
          "type": "address"
        }
      ],
      "name": "destroyCurrencyAllowance",
      "outputs": [],
      "stateMutability": "nonpayable",
      "type": "function"
    },
    {
      "inputs": [],
      "name": "exchangeAgent",
      "outputs": [
        {
          "internalType": "address",
          "name": "",
          "type": "address"
        }
      ],
      "stateMutability": "view",
      "type": "function"
    },
    {
      "inputs": [
        {
          "internalType": "address",
          "name": "_currency",
          "type": "address"
        },
        {
          "internalType": "address",
          "name": "_to",
          "type": "address"
        }
      ],
      "name": "maxApproveCurrency",
      "outputs": [],
      "stateMutability": "nonpayable",
      "type": "function"
    },
    {
      "inputs": [],
      "name": "owner",
      "outputs": [
        {
          "internalType": "address",
          "name": "",
          "type": "address"
        }
      ],
      "stateMutability": "view",
      "type": "function"
    },
    {
      "inputs": [
        {
          "internalType": "address",
          "name": "_currency",
          "type": "address"
        }
      ],
      "name": "removeCurrency",
      "outputs": [],
      "stateMutability": "nonpayable",
      "type": "function"
    },
    {
      "inputs": [
        {
          "internalType": "address",
          "name": "_currency",
          "type": "address"
        },
        {
          "internalType": "address",
          "name": "_to",
          "type": "address"
        },
        {
          "internalType": "uint256",
          "name": "_amount",
          "type": "uint256"
        }
      ],
      "name": "withdrawPremium",
      "outputs": [],
      "stateMutability": "nonpayable",
      "type": "function"
    },
    {
      "stateMutability": "payable",
      "type": "receive"
    }
  ],
  "transactionHash": "0xcc82d3e2be380819d6c5f371477daf8bbd4c7cd01fdb9b35526e90b2f561a798",
  "args": [
    "0xf97Eb2a102Ba485020c9d2EA0ac4BAAC19092Ee9",
    "0x53fb43BaE4C13d6AFAD37fB37c3fC49f3Af433F5",
    "0x40c035016AD732b6cFce34c3F881040B6C6cf71E"
  ],
  "solcInputHash": "850ee7ecdab72c01fbce930f264cd00b",
  "bytecode": "0x6080604052600019600d553480156200001757600080fd5b50604051620021d1380380620021d18339810160408190526200003a91620000aa565b60016000819055600280546001600160a01b039586166001600160a01b031991821617909155815481163317909155600380549385169382169390931790925560048054919093169116179055620000f3565b80516001600160a01b0381168114620000a557600080fd5b919050565b600080600060608486031215620000bf578283fd5b620000ca846200008d565b9250620000da602085016200008d565b9150620000ea604085016200008d565b90509250925092565b6120ce80620001036000396000f3fe6080604052600436106101745760003560e01c80638c8ac76d116100d6578063d830c7151161007f578063e980a96a11610059578063e980a96a146103cd578063f88822c4146103e0578063fa569274146103f35761017b565b8063d830c71514610385578063d84e305a14610398578063d9203b91146103b85761017b565b8063c4ddd57c116100b0578063c4ddd57c14610330578063c5d3a10714610350578063c970e99f146103705761017b565b80638c8ac76d146102db5780638da5cb5b146102fb57806397274e6e146103105761017b565b8063493721f51161013857806370d5ae051161011257806370d5ae0514610286578063729ae6b01461029b5780638ab234b6146102bb5761017b565b8063493721f51461022f57806354ea1d7d146102445780635bb48a00146102665761017b565b8063095002b8146101805780630cf84e0b146101ab5780630f97b97b146101cb57806314074237146101ed5780631af42c0f146102025761017b565b3661017b57005b600080fd5b34801561018c57600080fd5b50610195610408565b6040516101a29190611ff0565b60405180910390f35b3480156101b757600080fd5b506101956101c6366004611af9565b61040e565b3480156101d757600080fd5b506101e0610420565b6040516101a29190611c39565b3480156101f957600080fd5b5061019561042f565b34801561020e57600080fd5b5061022261021d366004611af9565b610435565b6040516101a29190611ca4565b34801561023b57600080fd5b5061019561044a565b34801561025057600080fd5b5061026461025f366004611b1a565b610450565b005b34801561027257600080fd5b506101e0610281366004611bd0565b610548565b34801561029257600080fd5b506101e0610572565b3480156102a757600080fd5b506101956102b6366004611af9565b610578565b3480156102c757600080fd5b506102646102d6366004611af9565b61058a565b3480156102e757600080fd5b506102646102f6366004611b87565b610672565b34801561030757600080fd5b506101e06108c3565b34801561031c57600080fd5b5061026461032b366004611b1a565b6108d2565b34801561033c57600080fd5b5061019561034b366004611af9565b6109b6565b34801561035c57600080fd5b5061026461036b366004611af9565b6109c8565b34801561037c57600080fd5b50610264610bad565b610264610393366004611bd0565b610ee1565b3480156103a457600080fd5b506102646103b3366004611b4c565b610fc9565b3480156103c457600080fd5b506101e061116d565b6102646103db366004611b1a565b61117c565b6102646103ee366004611af9565b611341565b3480156103ff57600080fd5b506101e0611779565b600c5481565b60096020526000908152604090205481565b6003546001600160a01b031681565b600a5481565b60056020526000908152604090205460ff1681565b600b5481565b6001546001600160a01b031633146104835760405162461bcd60e51b815260040161047a90611e45565b60405180910390fd5b600260005414156104a65760405162461bcd60e51b815260040161047a90611fb9565b6002600055600d54604051636eb1769f60e11b81526001600160a01b0384169063dd62ed3e906104dc9030908690600401611c4d565b60206040518083038186803b1580156104f457600080fd5b505afa158015610508573d6000803e3d6000fd5b505050506040513d601f19601f8201168201806040525081019061052c9190611be8565b101561053f5761053f8282600d54611788565b50506001600055565b6006818154811061055857600080fd5b6000918252602090912001546001600160a01b0316905081565b61dead81565b60086020526000908152604090205481565b6001546001600160a01b031633146105b45760405162461bcd60e51b815260040161047a90611e45565b6001600160a01b03811660009081526005602052604090205460ff16156105ed5760405162461bcd60e51b815260040161047a90611dd7565b6001600160a01b038082166000818152600560205260408120805460ff191660019081179091556006805491820181559091527ff652222313e28459528d920b65115c16c04f3efc82aaedc97be59f3f377c0d3f01805473ffffffffffffffffffffffffffffffffffffffff1916909117905560025461066f91839116610450565b50565b600260005414156106955760405162461bcd60e51b815260040161047a90611fb9565b600260009081556001600160a01b038316815260056020526040902054829060ff166106d35760405162461bcd60e51b815260040161047a90611d43565b6040516370a0823160e01b815282906001600160a01b038516906370a0823190610701903390600401611c39565b60206040518083038186803b15801561071957600080fd5b505afa15801561072d573d6000803e3d6000fd5b505050506040513d601f19601f820116820180604052508101906107519190611be8565b101561076f5760405162461bcd60e51b815260040161047a90611e0e565b61077b83333085611875565b61271061078a836103e8612031565b6107949190612011565b6001600160a01b0384166000908152600760205260409020546107b79190611ff9565b6001600160a01b0384166000908152600760205260409020556127106107df83611b58612031565b6107e99190612011565b6001600160a01b03841660009081526008602052604090205461080c9190611ff9565b6001600160a01b038416600090815260086020526040902055612710610834836107d0612031565b61083e9190612011565b6001600160a01b0384166000908152600960205260409020546108619190611ff9565b6001600160a01b03841660009081526009602052604090819020919091555133907f411101aad886ab4351e7c392d06f013b37a7c6c00b7f964bca364da03df0e7d5906108b19086908690611c8b565b60405180910390a25050600160005550565b6001546001600160a01b031681565b6001546001600160a01b031633146108fc5760405162461bcd60e51b815260040161047a90611e45565b6002600054141561091f5760405162461bcd60e51b815260040161047a90611fb9565b60026000908155604051636eb1769f60e11b81526001600160a01b0384169063dd62ed3e906109549030908690600401611c4d565b60206040518083038186803b15801561096c57600080fd5b505afa158015610980573d6000803e3d6000fd5b505050506040513d601f19601f820116820180604052508101906109a49190611be8565b111561053f5761053f82826000611788565b60076020526000908152604090205481565b6001546001600160a01b031633146109f25760405162461bcd60e51b815260040161047a90611e45565b6001600160a01b03811660009081526005602052604090205460ff16610a2a5760405162461bcd60e51b815260040161047a90611eea565b6001600160a01b0381166000908152600560205260408120805460ff19169055600680549190610a5b600184612050565b81548110610a7957634e487b7160e01b600052603260045260246000fd5b60009182526020822001546001600160a01b031691505b82811015610ba75760068181548110610ab957634e487b7160e01b600052603260045260246000fd5b6000918252602090912001546001600160a01b0385811691161415610b95578160068281548110610afa57634e487b7160e01b600052603260045260246000fd5b9060005260206000200160006101000a8154816001600160a01b0302191690836001600160a01b031602179055506006805480610b4757634e487b7160e01b600052603160045260246000fd5b6000828152602090208101600019908101805473ffffffffffffffffffffffffffffffffffffffff19169055019055600254610b8d9085906001600160a01b03166108d2565b50505061066f565b80610b9f81612067565b915050610a90565b50505050565b6001546001600160a01b03163314610bd75760405162461bcd60e51b815260040161047a90611e45565b600c5460009015610c9b57600254600c54610bfb916001600160a01b031690611965565b600254600354600c546040516393badc4160e01b81526001600160a01b03938416936393badc4193610c37936000939290911691600401611c67565b602060405180830381600087803b158015610c5157600080fd5b505af1158015610c65573d6000803e3d6000fd5b505050506040513d601f19601f82011682018060405250810190610c899190611be8565b610c939082611ff9565b6000600c5590505b60005b600654811015610e825760006009600060068481548110610ccf57634e487b7160e01b600052603260045260246000fd5b60009182526020808320909101546001600160a01b031683528201929092526040019020541115610e7057600254600680546000926001600160a01b0316916393badc419185908110610d3257634e487b7160e01b600052603260045260246000fd5b6000918252602082200154600354600680546001600160a01b03938416949290931692600992919089908110610d7857634e487b7160e01b600052603260045260246000fd5b60009182526020808320909101546001600160a01b0316835282019290925260409081019091205490516001600160e01b031960e086901b168152610dc293929190600401611c67565b602060405180830381600087803b158015610ddc57600080fd5b505af1158015610df0573d6000803e3d6000fd5b505050506040513d601f19601f82011682018060405250810190610e149190611be8565b9050610e208184611ff9565b925060006009600060068581548110610e4957634e487b7160e01b600052603260045260246000fd5b60009182526020808320909101546001600160a01b03168352820192909252604001902055505b80610e7a81612067565b915050610c9e565b508015610ea257600354610ea2906001600160a01b031661dead836119f7565b604051309033907f94032d93ea01eeeccc1b1f03a7eddaf352c7cd85e246c6fc01afed0ddf6b5c1d90610ed6908590611ff0565b60405180910390a350565b60026000541415610f045760405162461bcd60e51b815260040161047a90611fb9565b6002600055612710610f18826103e8612031565b610f229190612011565b600a54610f2f9190611ff9565b600a55612710610f4182611b58612031565b610f4b9190612011565b600b54610f589190611ff9565b600b55612710610f6a826107d0612031565b610f749190612011565b600c54610f819190611ff9565b600c5560405133907f411101aad886ab4351e7c392d06f013b37a7c6c00b7f964bca364da03df0e7d590610fb9906000908590611c8b565b60405180910390a2506001600055565b6001546001600160a01b03163314610ff35760405162461bcd60e51b815260040161047a90611e45565b6001600160a01b0382166110195760405162461bcd60e51b815260040161047a90611caf565b600081116110395760405162461bcd60e51b815260040161047a90611e7c565b6001600160a01b03831661107657804710156110675760405162461bcd60e51b815260040161047a90611eb3565b6110718282611965565b61111d565b6040516370a0823160e01b815281906001600160a01b038516906370a08231906110a4903090600401611c39565b60206040518083038186803b1580156110bc57600080fd5b505afa1580156110d0573d6000803e3d6000fd5b505050506040513d601f19601f820116820180604052508101906110f49190611be8565b10156111125760405162461bcd60e51b815260040161047a90611eb3565b61111d8383836119f7565b816001600160a01b0316836001600160a01b03167f8d18a25569e967883ac0402e6991b4ac87616370a1c2ce59726abce4ef45bdb8836040516111609190611ff0565b60405180910390a3505050565b6002546001600160a01b031681565b6001546001600160a01b031633146111a65760405162461bcd60e51b815260040161047a90611e45565b600260005414156111c95760405162461bcd60e51b815260040161047a90611fb9565b60026000556001600160a01b0381166111f45760405162461bcd60e51b815260040161047a90611caf565b6001600160a01b03821615801561120d57506000600b54115b156112785761121e81600b54611965565b6000600b81905550816001600160a01b0316816001600160a01b03167f370cbb08cddf346c35e924a503aa223dcc1b75a993d7c23a602d2e4bc0802c10600b5460405161126b9190611ff0565b60405180910390a361053f565b6001600160a01b03821660009081526005602052604090205460ff1680156112b757506001600160a01b03821660009081526008602052604090205415155b1561053f576001600160a01b0382166000908152600860205260409020546112e290839083906119f7565b6001600160a01b038083166000818152600860205260408082208290555191928416917f370cbb08cddf346c35e924a503aa223dcc1b75a993d7c23a602d2e4bc0802c109161133091611ff0565b60405180910390a350506001600055565b6001546001600160a01b0316331461136b5760405162461bcd60e51b815260040161047a90611e45565b6002600054141561138e5760405162461bcd60e51b815260040161047a90611fb9565b60026000556001600160a01b0381166113b95760405162461bcd60e51b815260040161047a90611caf565b600a546000901561148257600254600a546113dd916001600160a01b031690611965565b60025460048054600a546040516393badc4160e01b81526000946001600160a01b03908116946393badc419461141b94889491909316929101611c67565b602060405180830381600087803b15801561143557600080fd5b505af1158015611449573d6000803e3d6000fd5b505050506040513d601f19601f8201168201806040525081019061146d9190611be8565b90506114798183611ff9565b6000600a559150505b60005b60065481101561171157600060076000600684815481106114b657634e487b7160e01b600052603260045260246000fd5b60009182526020808320909101546001600160a01b0316835282019290925260400190205411156116ff57600454600680546001600160a01b03909216918390811061151257634e487b7160e01b600052603260045260246000fd5b6000918252602090912001546001600160a01b0316141561158857600760006006838154811061155257634e487b7160e01b600052603260045260246000fd5b60009182526020808320909101546001600160a01b031683528201929092526040019020546115819083611ff9565b91506116b2565b600254600680546000926001600160a01b0316916393badc4191859081106115c057634e487b7160e01b600052603260045260246000fd5b6000918252602082200154600454600680546001600160a01b0393841694929093169260079291908990811061160657634e487b7160e01b600052603260045260246000fd5b60009182526020808320909101546001600160a01b0316835282019290925260409081019091205490516001600160e01b031960e086901b16815261165093929190600401611c67565b602060405180830381600087803b15801561166a57600080fd5b505af115801561167e573d6000803e3d6000fd5b505050506040513d601f19601f820116820180604052508101906116a29190611be8565b90506116ae8184611ff9565b9250505b600060076000600684815481106116d957634e487b7160e01b600052603260045260246000fd5b60009182526020808320909101546001600160a01b031683528201929092526040019020555b8061170981612067565b915050611485565b50801561053f5760045461172f906001600160a01b031683836119f7565b816001600160a01b03167f9a380c5d696c8e394928ff8981a11ee388a14e2f7e16d373d73486cf3c486254826040516117689190611ff0565b60405180910390a250506001600055565b6004546001600160a01b031681565b600080846001600160a01b031663095ea7b385856040516024016117ad929190611c8b565b6040516020818303038152906040529060e01b6020820180516001600160e01b0383818316178352505050506040516117e69190611c00565b6000604051808303816000865af19150503d8060008114611823576040519150601f19603f3d011682016040523d82523d6000602084013e611828565b606091505b50915091508180156118525750805115806118525750808060200190518101906118529190611bb0565b61186e5760405162461bcd60e51b815260040161047a90611f21565b5050505050565b600080856001600160a01b03166323b872dd86868660405160240161189c93929190611c67565b6040516020818303038152906040529060e01b6020820180516001600160e01b0383818316178352505050506040516118d59190611c00565b6000604051808303816000865af19150503d8060008114611912576040519150601f19603f3d011682016040523d82523d6000602084013e611917565b606091505b50915091508180156119415750805115806119415750808060200190518101906119419190611bb0565b61195d5760405162461bcd60e51b815260040161047a90611ce6565b505050505050565b604080516000808252602082019092526001600160a01b03841690839060405161198f9190611c00565b60006040518083038185875af1925050503d80600081146119cc576040519150601f19603f3d011682016040523d82523d6000602084013e6119d1565b606091505b50509050806119f25760405162461bcd60e51b815260040161047a90611d7a565b505050565b600080846001600160a01b031663a9059cbb8585604051602401611a1c929190611c8b565b6040516020818303038152906040529060e01b6020820180516001600160e01b038381831617835250505050604051611a559190611c00565b6000604051808303816000865af19150503d8060008114611a92576040519150601f19603f3d011682016040523d82523d6000602084013e611a97565b606091505b5091509150818015611ac1575080511580611ac1575080806020019051810190611ac19190611bb0565b61186e5760405162461bcd60e51b815260040161047a90611f6c565b80356001600160a01b0381168114611af457600080fd5b919050565b600060208284031215611b0a578081fd5b611b1382611add565b9392505050565b60008060408385031215611b2c578081fd5b611b3583611add565b9150611b4360208401611add565b90509250929050565b600080600060608486031215611b60578081fd5b611b6984611add565b9250611b7760208501611add565b9150604084013590509250925092565b60008060408385031215611b99578182fd5b611ba283611add565b946020939093013593505050565b600060208284031215611bc1578081fd5b81518015158114611b13578182fd5b600060208284031215611be1578081fd5b5035919050565b600060208284031215611bf9578081fd5b5051919050565b60008251815b81811015611c205760208186018101518583015201611c06565b81811115611c2e5782828501525b509190910192915050565b6001600160a01b0391909116815260200190565b6001600160a01b0392831681529116602082015260400190565b6001600160a01b039384168152919092166020820152604081019190915260600190565b6001600160a01b03929092168252602082015260400190565b901515815260200190565b60208082526013908201527f556e6f52653a207a65726f206164647265737300000000000000000000000000604082015260600190565b60208082526031908201527f5472616e7366657248656c7065723a3a7472616e7366657246726f6d3a20747260408201527f616e7366657246726f6d206661696c6564000000000000000000000000000000606082015260800190565b6020808252601b908201527f556e6f52653a206e6f7420616c6c6f7765642063757272656e63790000000000604082015260600190565b60208082526034908201527f5472616e7366657248656c7065723a3a736166655472616e736665724554483a60408201527f20455448207472616e73666572206661696c6564000000000000000000000000606082015260800190565b60208082526011908201527f416c726561647920617661696c61626c65000000000000000000000000000000604082015260600190565b6020808252601f908201527f556e6f52653a207072656d69756d2062616c616e6365206f766572666c6f7700604082015260600190565b6020808252601c908201527f556e6f52653a205072656d69756d506f6f6c20466f7262696464656e00000000604082015260600190565b60208082526012908201527f556e6f52653a207a65726f20616d6f756e740000000000000000000000000000604082015260600190565b6020808252601b908201527f556e6f52653a20496e73756666696369656e74205072656d69756d0000000000604082015260600190565b60208082526011908201527f4e6f7420617661696c61626c6520796574000000000000000000000000000000604082015260600190565b6020808252602b908201527f5472616e7366657248656c7065723a3a73616665417070726f76653a2061707060408201526a1c9bdd994819985a5b195960aa1b606082015260800190565b6020808252602d908201527f5472616e7366657248656c7065723a3a736166655472616e736665723a20747260408201526c185b9cd9995c8819985a5b1959609a1b606082015260800190565b6020808252601f908201527f5265656e7472616e637947756172643a207265656e7472616e742063616c6c00604082015260600190565b90815260200190565b6000821982111561200c5761200c612082565b500190565b60008261202c57634e487b7160e01b81526012600452602481fd5b500490565b600081600019048311821515161561204b5761204b612082565b500290565b60008282101561206257612062612082565b500390565b600060001982141561207b5761207b612082565b5060010190565b634e487b7160e01b600052601160045260246000fdfea2646970667358221220b7fd3efc4060186c8c34b1d96bb5a50da6154b859d6417d964d71d9355ee3db164736f6c63430008000033",
  "devdoc": {
    "kind": "dev",
    "methods": {},
    "version": 1
  },
  "userdoc": {
    "kind": "user",
    "methods": {},
    "version": 1
  },
  "storageLayout": {
    "storage": [
      {
        "astId": 114,
        "contract": "contracts/PremiumPool.sol:PremiumPool",
        "label": "_status",
        "offset": 0,
        "slot": "0",
        "type": "t_uint256"
      },
      {
        "astId": 4416,
        "contract": "contracts/PremiumPool.sol:PremiumPool",
        "label": "owner",
        "offset": 0,
        "slot": "1",
        "type": "t_address"
      },
      {
        "astId": 4418,
        "contract": "contracts/PremiumPool.sol:PremiumPool",
        "label": "exchangeAgent",
        "offset": 0,
        "slot": "2",
        "type": "t_address"
      },
      {
        "astId": 4420,
        "contract": "contracts/PremiumPool.sol:PremiumPool",
        "label": "UNO_TOKEN",
        "offset": 0,
        "slot": "3",
        "type": "t_address"
      },
      {
        "astId": 4422,
        "contract": "contracts/PremiumPool.sol:PremiumPool",
        "label": "USDC_TOKEN",
        "offset": 0,
        "slot": "4",
        "type": "t_address"
      },
      {
        "astId": 4426,
        "contract": "contracts/PremiumPool.sol:PremiumPool",
        "label": "availableCurrencies",
        "offset": 0,
        "slot": "5",
        "type": "t_mapping(t_address,t_bool)"
      },
      {
        "astId": 4429,
        "contract": "contracts/PremiumPool.sol:PremiumPool",
        "label": "availableCurrencyList",
        "offset": 0,
        "slot": "6",
        "type": "t_array(t_address)dyn_storage"
      },
      {
        "astId": 4436,
        "contract": "contracts/PremiumPool.sol:PremiumPool",
        "label": "SSRP_PREMIUM",
        "offset": 0,
        "slot": "7",
        "type": "t_mapping(t_address,t_uint256)"
      },
      {
        "astId": 4440,
        "contract": "contracts/PremiumPool.sol:PremiumPool",
        "label": "SSIP_PREMIUM",
        "offset": 0,
        "slot": "8",
        "type": "t_mapping(t_address,t_uint256)"
      },
      {
        "astId": 4444,
        "contract": "contracts/PremiumPool.sol:PremiumPool",
        "label": "BACK_BURN_UNO_PREMIUM",
        "offset": 0,
        "slot": "9",
        "type": "t_mapping(t_address,t_uint256)"
      },
      {
        "astId": 4446,
        "contract": "contracts/PremiumPool.sol:PremiumPool",
        "label": "SSRP_PREMIUM_ETH",
        "offset": 0,
        "slot": "10",
        "type": "t_uint256"
      },
      {
        "astId": 4448,
        "contract": "contracts/PremiumPool.sol:PremiumPool",
        "label": "SSIP_PREMIUM_ETH",
        "offset": 0,
        "slot": "11",
        "type": "t_uint256"
      },
      {
        "astId": 4450,
        "contract": "contracts/PremiumPool.sol:PremiumPool",
        "label": "BACK_BURN_PREMIUM_ETH",
        "offset": 0,
        "slot": "12",
        "type": "t_uint256"
      },
      {
        "astId": 4457,
        "contract": "contracts/PremiumPool.sol:PremiumPool",
        "label": "MAX_INTEGER",
        "offset": 0,
        "slot": "13",
        "type": "t_uint256"
      }
    ],
    "types": {
      "t_address": {
        "encoding": "inplace",
        "label": "address",
        "numberOfBytes": "20"
      },
      "t_array(t_address)dyn_storage": {
        "base": "t_address",
        "encoding": "dynamic_array",
        "label": "address[]",
        "numberOfBytes": "32"
      },
      "t_bool": {
        "encoding": "inplace",
        "label": "bool",
        "numberOfBytes": "1"
      },
      "t_mapping(t_address,t_bool)": {
        "encoding": "mapping",
        "key": "t_address",
        "label": "mapping(address => bool)",
        "numberOfBytes": "32",
        "value": "t_bool"
      },
      "t_mapping(t_address,t_uint256)": {
        "encoding": "mapping",
        "key": "t_address",
        "label": "mapping(address => uint256)",
        "numberOfBytes": "32",
        "value": "t_uint256"
      },
      "t_uint256": {
        "encoding": "inplace",
        "label": "uint256",
        "numberOfBytes": "32"
      }
    }
  }
}