{
  "address": "0x566D59b2333df7272BF6CA04aE81045C41828F16",
  "abi": [
    {
      "inputs": [],
      "stateMutability": "nonpayable",
      "type": "constructor"
    },
    {
      "inputs": [
        {
          "internalType": "address",
          "name": "_operator",
          "type": "address"
        },
        {
          "internalType": "address",
          "name": "_currency",
          "type": "address"
        },
        {
          "internalType": "address",
          "name": "_pool",
          "type": "address"
        }
      ],
      "name": "newRewarder",
      "outputs": [
        {
          "internalType": "address",
          "name": "",
          "type": "address"
        }
      ],
      "stateMutability": "nonpayable",
      "type": "function"
    }
  ],
  "transactionHash": "0x426ceedfa51bc1c87b75a44d2c45bcccbc6dbd66d6d32b060f73a520c41c5bb2",
  "args": [],
  "solcInputHash": "0f1a1de4869a7ca7c46284791cbcf7a7",
  "bytecode": "0x608060405234801561001057600080fd5b506111ca806100206000396000f3fe608060405234801561001057600080fd5b506004361061002b5760003560e01c806369ee745114610030575b600080fd5b61004361003e3660046100d3565b610059565b6040516100509190610115565b60405180910390f35b60008084848460405161006b9061009d565b61007793929190610136565b604051809103906000f080158015610093573d6000803e3d6000fd5b5095945050505050565b61102e8061016783390190565b803573ffffffffffffffffffffffffffffffffffffffff811681146100ce57600080fd5b919050565b6000806000606084860312156100e7578283fd5b6100f0846100aa565b92506100fe602085016100aa565b915061010c604085016100aa565b90509250925092565b73ffffffffffffffffffffffffffffffffffffffff91909116815260200190565b73ffffffffffffffffffffffffffffffffffffffff9384168152918316602083015290911660408201526060019056fe60c06040523480156200001157600080fd5b506040516200102e3803806200102e8339810160408190526200003491620000f1565b60016000556001600160a01b0383166200006b5760405162461bcd60e51b8152600401620000629062000171565b60405180910390fd5b6001600160a01b038116620000945760405162461bcd60e51b815260040162000062906200013a565b606091821b6001600160601b0319908116608052911b1660a052600180546001600160a01b0319166001600160a01b0392909216919091179055620001a8565b80516001600160a01b0381168114620000ec57600080fd5b919050565b60008060006060848603121562000106578283fd5b6200011184620000d4565b92506200012160208501620000d4565b91506200013160408501620000d4565b90509250925092565b60208082526018908201527f556e6f52653a207a65726f20706f6f6c20616464726573730000000000000000604082015260600190565b6020808252601c908201527f556e6f52653a207a65726f206f70657261746f72206164647265737300000000604082015260600190565b60805160601c60a05160601c610df16200023d6000396000818161012e015261016c0152600081816101da01528181610250015281816102f80152818161032601528181610456015281816104ca0152818161054d015281816105a3015281816106320152818161068f015281816106e4015281816107890152818161081501528181610837015261090d0152610df16000f3fe6080604052600436106100695760003560e01c8063e5a6b10f11610043578063e5a6b10f146100d5578063f2fde38b146100ea578063f3fef3a31461010c57610070565b806316f0115b14610075578063570ca735146100a0578063c3723288146100b557610070565b3661007057005b600080fd5b34801561008157600080fd5b5061008a61012c565b6040516100979190610bb4565b60405180910390f35b3480156100ac57600080fd5b5061008a610150565b6100c86100c3366004610b1a565b61015f565b6040516100979190610db2565b3480156100e157600080fd5b5061008a610324565b3480156100f657600080fd5b5061010a610105366004610af9565b610348565b005b34801561011857600080fd5b5061010a610127366004610b1a565b610404565b7f000000000000000000000000000000000000000000000000000000000000000081565b6001546001600160a01b031681565b6000336001600160a01b037f000000000000000000000000000000000000000000000000000000000000000016146101b25760405162461bcd60e51b81526004016101a990610be1565b60405180910390fd5b6001600160a01b0383166101d85760405162461bcd60e51b81526004016101a990610d7b565b7f00000000000000000000000000000000000000000000000000000000000000006001600160a01b031661023757814710156102265760405162461bcd60e51b81526004016101a990610c9b565b6102308383610949565b508061031e565b6040516370a0823160e01b815282906001600160a01b037f000000000000000000000000000000000000000000000000000000000000000016906370a0823190610285903090600401610bb4565b60206040518083038186803b15801561029d57600080fd5b505afa1580156102b1573d6000803e3d6000fd5b505050506040513d601f19601f820116820180604052508101906102d59190610b63565b10156102f35760405162461bcd60e51b81526004016101a990610c9b565b6102307f000000000000000000000000000000000000000000000000000000000000000084846109db565b92915050565b7f000000000000000000000000000000000000000000000000000000000000000081565b6001546001600160a01b031633146103725760405162461bcd60e51b81526004016101a990610cdd565b6001600160a01b0381166103985760405162461bcd60e51b81526004016101a990610d7b565b600180546001600160a01b038381167fffffffffffffffffffffffff00000000000000000000000000000000000000008316811790935560405191169190829030907f47c976e5452318b6b1a69e30851ef22b5fe752d4fabe5271b89c52c3d03a884d90600090a45050565b6001546001600160a01b0316331461042e5760405162461bcd60e51b81526004016101a990610cdd565b6001600160a01b0382166104545760405162461bcd60e51b81526004016101a990610d7b565b7f00000000000000000000000000000000000000000000000000000000000000006001600160a01b031661058a57804710610505576104938282610949565b816001600160a01b0316306001600160a01b03167fd29d3d001850cedc5d5d3cad05ac52962e3f2e0aa84aeb99f813d515eb9750967f0000000000000000000000000000000000000000000000000000000000000000846040516104f8929190610bc8565b60405180910390a3610585565b471561058557476105168347610949565b826001600160a01b0316306001600160a01b03167fd29d3d001850cedc5d5d3cad05ac52962e3f2e0aa84aeb99f813d515eb9750967f00000000000000000000000000000000000000000000000000000000000000008460405161057b929190610bc8565b60405180910390a3505b610945565b6040516370a0823160e01b815281906001600160a01b037f000000000000000000000000000000000000000000000000000000000000000016906370a08231906105d8903090600401610bb4565b60206040518083038186803b1580156105f057600080fd5b505afa158015610604573d6000803e3d6000fd5b505050506040513d601f19601f820116820180604052508101906106289190610b63565b106106ca576106587f000000000000000000000000000000000000000000000000000000000000000083836109db565b816001600160a01b0316306001600160a01b03167fd29d3d001850cedc5d5d3cad05ac52962e3f2e0aa84aeb99f813d515eb9750967f0000000000000000000000000000000000000000000000000000000000000000846040516106bd929190610bc8565b60405180910390a3610945565b6040516370a0823160e01b81526000906001600160a01b037f000000000000000000000000000000000000000000000000000000000000000016906370a0823190610719903090600401610bb4565b60206040518083038186803b15801561073157600080fd5b505afa158015610745573d6000803e3d6000fd5b505050506040513d601f19601f820116820180604052508101906107699190610b63565b1115610945576040516370a0823160e01b81526000906001600160a01b037f000000000000000000000000000000000000000000000000000000000000000016906370a08231906107be903090600401610bb4565b60206040518083038186803b1580156107d657600080fd5b505afa1580156107ea573d6000803e3d6000fd5b505050506040513d601f19601f8201168201806040525081019061080e9190610b63565b90506108d67f0000000000000000000000000000000000000000000000000000000000000000847f00000000000000000000000000000000000000000000000000000000000000006001600160a01b03166370a08231306040518263ffffffff1660e01b81526004016108819190610bb4565b60206040518083038186803b15801561089957600080fd5b505afa1580156108ad573d6000803e3d6000fd5b505050506040513d601f19601f820116820180604052508101906108d19190610b63565b6109db565b826001600160a01b0316306001600160a01b03167fd29d3d001850cedc5d5d3cad05ac52962e3f2e0aa84aeb99f813d515eb9750967f00000000000000000000000000000000000000000000000000000000000000008460405161093b929190610bc8565b60405180910390a3505b5050565b604080516000808252602082019092526001600160a01b0384169083906040516109739190610b7b565b60006040518083038185875af1925050503d80600081146109b0576040519150601f19603f3d011682016040523d82523d6000602084013e6109b5565b606091505b50509050806109d65760405162461bcd60e51b81526004016101a990610c3e565b505050565b600080846001600160a01b031663a9059cbb8585604051602401610a00929190610bc8565b6040516020818303038152906040529060e01b6020820180517bffffffffffffffffffffffffffffffffffffffffffffffffffffffff8381831617835250505050604051610a4e9190610b7b565b6000604051808303816000865af19150503d8060008114610a8b576040519150601f19603f3d011682016040523d82523d6000602084013e610a90565b606091505b5091509150818015610aba575080511580610aba575080806020019051810190610aba9190610b43565b610ad65760405162461bcd60e51b81526004016101a990610d1e565b5050505050565b80356001600160a01b0381168114610af457600080fd5b919050565b600060208284031215610b0a578081fd5b610b1382610add565b9392505050565b60008060408385031215610b2c578081fd5b610b3583610add565b946020939093013593505050565b600060208284031215610b54578081fd5b81518015158114610b13578182fd5b600060208284031215610b74578081fd5b5051919050565b60008251815b81811015610b9b5760208186018101518583015201610b81565b81811115610ba95782828501525b509190910192915050565b6001600160a01b0391909116815260200190565b6001600160a01b03929092168252602082015260400190565b60208082526032908201527f4f6e6c792053535250206f72205353495020636f6e74726163742063616e206360408201527f616c6c20746869732066756e6374696f6e2e0000000000000000000000000000606082015260800190565b60208082526034908201527f5472616e7366657248656c7065723a3a736166655472616e736665724554483a60408201527f20455448207472616e73666572206661696c6564000000000000000000000000606082015260800190565b60208082526022908201527f556e6f52653a20696e73756666696369656e74207265776172642062616c616e604082015261636560f01b606082015260800190565b60208082526021908201527f4f6e6c79206f70657261746f722063616c6c20746869732066756e6374696f6e6040820152601760f91b606082015260800190565b6020808252602d908201527f5472616e7366657248656c7065723a3a736166655472616e736665723a20747260408201527f616e73666572206661696c656400000000000000000000000000000000000000606082015260800190565b6020808252601a908201527f556e6f52653a207a65726f206164647265737320726577617264000000000000604082015260600190565b9081526020019056fea26469706673582212208a6a51fad39d5f270cfad1f6630ec76e5dc2cfe7f7fe2b9fc126b395a2c27a9464736f6c63430008000033a2646970667358221220097a8d55c083f83c154bee6f0a71cace0dd9e0f1766f3d32e07837192f42d34e64736f6c63430008000033",
  "devdoc": {
    "kind": "dev",
    "methods": {},
    "version": 1
  },
  "userdoc": {
    "kind": "user",
    "methods": {},
    "version": 1
  },
  "storageLayout": {
    "storage": [],
    "types": null
  }
}