{
  "address": "0x5100Ab58B8e776A1045f5b48b1423Eb80e220f4D",
  "abi": [
    {
      "inputs": [],
      "stateMutability": "nonpayable",
      "type": "constructor"
    },
    {
      "inputs": [
        {
          "internalType": "string",
          "name": "_name",
          "type": "string"
        },
        {
          "internalType": "string",
          "name": "_symbol",
          "type": "string"
        },
        {
          "internalType": "address",
          "name": "_cohort",
          "type": "address"
        },
        {
          "internalType": "address",
          "name": "_currency",
          "type": "address"
        }
      ],
      "name": "newRiskPool",
      "outputs": [
        {
          "internalType": "address",
          "name": "",
          "type": "address"
        }
      ],
      "stateMutability": "nonpayable",
      "type": "function"
    }
  ],
  "transactionHash": "0x59d4490545de21269f5314cea4a5edc8f5c00fbda29ffa399be798987ae4c297",
  "args": [],
  "solcInputHash": "83a1e06e18c2c188d1ba5cc7d2484859",
  "bytecode": "0x608060405234801561001057600080fd5b50612ad3806100206000396000f3fe608060405234801561001057600080fd5b506004361061002b5760003560e01c80630d98e31f14610030575b600080fd5b61004361003e366004610116565b610059565b60405161005091906101cd565b60405180910390f35b60008087878787878760405161006e906100a6565b61007d969594939291906101e1565b604051809103906000f080158015610099573d6000803e3d6000fd5b5098975050505050505050565b61286e8061023083390190565b80356001600160a01b03811681146100ca57600080fd5b919050565b60008083601f8401126100e0578182fd5b50813567ffffffffffffffff8111156100f7578182fd5b60208301915083602082850101111561010f57600080fd5b9250929050565b6000806000806000806080878903121561012e578182fd5b863567ffffffffffffffff80821115610145578384fd5b6101518a838b016100cf565b90985096506020890135915080821115610169578384fd5b5061017689828a016100cf565b90955093506101899050604088016100b3565b9150610197606088016100b3565b90509295509295509295565b60008284528282602086013780602084860101526020601f19601f85011685010190509392505050565b6001600160a01b0391909116815260200190565b6000608082526101f560808301888a6101a3565b82810360208401526102088187896101a3565b9150506001600160a01b03808516604084015280841660608401525097965050505050505056fe608060405268056bc75e2d63100000600a553480156200001e57600080fd5b506040516200286e3803806200286e833981016040819052620000419162000276565b6001600160a01b038216620000735760405162461bcd60e51b81526004016200006a9062000339565b60405180910390fd5b6001600160a01b0381166200009c5760405162461bcd60e51b81526004016200006a9062000302565b8351620000b190600590602087019062000108565b508251620000c790600690602086019062000108565b50600780546001600160a01b039384166001600160a01b031991821617909155600880549290931691161790555050670de0b6b3a7640000600955620003c3565b828054620001169062000370565b90600052602060002090601f0160209004810192826200013a576000855562000185565b82601f106200015557805160ff191683800117855562000185565b8280016001018555821562000185579182015b828111156200018557825182559160200191906001019062000168565b506200019392915062000197565b5090565b5b8082111562000193576000815560010162000198565b80516001600160a01b0381168114620001c657600080fd5b919050565b600082601f830112620001dc578081fd5b81516001600160401b0380821115620001f957620001f9620003ad565b6040516020601f8401601f1916820181018381118382101715620002215762000221620003ad565b604052838252858401810187101562000238578485fd5b8492505b838310156200025b57858301810151828401820152918201916200023c565b838311156200026c57848185840101525b5095945050505050565b600080600080608085870312156200028c578384fd5b84516001600160401b0380821115620002a3578586fd5b620002b188838901620001cb565b95506020870151915080821115620002c7578485fd5b50620002d687828801620001cb565b935050620002e760408601620001ae565b9150620002f760608601620001ae565b905092959194509250565b6020808252601c908201527f556e6f52653a207a65726f2063757272656e6379206164647265737300000000604082015260600190565b60208082526018908201527f556e6f52653a207a65726f20706f6f6c20616464726573730000000000000000604082015260600190565b6002810460018216806200038557607f821691505b60208210811415620003a757634e487b7160e01b600052602260045260246000fd5b50919050565b634e487b7160e01b600052604160045260246000fd5b61249b80620003d36000396000f3fe608060405234801561001057600080fd5b50600436106101985760003560e01c80637e348b7d116100e3578063d7e3655a1161008c578063e5a6b10f11610066578063e5a6b10f14610353578063e95aa8d31461035b578063f53fb2001461036357610198565b8063d7e3655a14610325578063dcd053201461032d578063dd62ed3e1461034057610198565b8063a457c2d7116100bd578063a457c2d7146102de578063a9059cbb146102f1578063b20ecd151461030457610198565b80637e348b7d146102b057806393b6b86c146102c357806395d89b41146102d657610198565b80632e4a014211610145578063395093511161011f578063395093511461027557806347bcdb2a1461028857806370a082311461029d57610198565b80632e4a01421461023a578063313ce5671461024d5780633613302f1461026257610198565b806318160ddd1161017657806318160ddd146101f057806323b872dd146102055780632ccae8961461021857610198565b806306fdde031461019d578063095ea7b3146101bb57806311ca7399146101db575b600080fd5b6101a561036b565b6040516101b29190611cda565b60405180910390f35b6101ce6101c9366004611bed565b6103f9565b6040516101b29190611ccf565b6101e3610416565b6040516101b29190611c7e565b6101f8610425565b6040516101b29190612303565b6101ce610213366004611bb2565b61042b565b61022b610226366004611b19565b61055c565b6040516101b29392919061231a565b6101f8610248366004611bed565b6105c7565b610255610867565b6040516101b29190612330565b6101f8610270366004611b6c565b61086c565b6101ce610283366004611bed565b610af9565b61029b610296366004611bed565b610b48565b005b6101f86102ab366004611b19565b610c20565b61029b6102be366004611bed565b610c3f565b61029b6102d1366004611c32565b610c97565b6101a5610ce6565b6101ce6102ec366004611bed565b610cf3565b6101ce6102ff366004611bed565b610d6e565b610317610312366004611b19565b610e36565b6040516101b292919061230c565b6101f8611110565b61031761033b366004611b19565b611116565b6101f861034e366004611b3a565b61121c565b6101e3611247565b6101f8611256565b6101f861128a565b6005805461037890612403565b80601f01602080910402602001604051908101604052809291908181526020018280546103a490612403565b80156103f15780601f106103c6576101008083540402835291602001916103f1565b820191906000526020600020905b8154815290600101906020018083116103d457829003601f168201915b505050505081565b600061040d610406611290565b8484611294565b50600192915050565b6007546001600160a01b031681565b60045490565b6001600160a01b03831660009081526002602052604081205482906001600160801b031661045886610c20565b61046291906123c0565b10156104895760405162461bcd60e51b8152600401610480906120bd565b60405180910390fd5b610494848484611348565b6001600160a01b0384166000908152600160209081526040808320338452909152902054828110156104d85760405162461bcd60e51b815260040161048090611fef565b6104ec85336104e786856123c0565b611294565b6007546040516274d72160e51b81526001600160a01b0390911690630e9ae4209061051f90889088908890600401611c92565b600060405180830381600087803b15801561053957600080fd5b505af115801561054d573d6000803e3d6000fd5b50600198975050505050505050565b600754600090819081906001600160a01b0316331461058d5760405162461bcd60e51b8152600401610480906121e2565b5050506001600160a01b0316600090815260026020526040902080546001909101546001600160801b0380831693600160801b9093041691565b6007546000906001600160a01b031633146105f45760405162461bcd60e51b8152600401610480906121e2565b6008546040516370a0823160e01b81526000916001600160a01b0316906370a0823190610625903090600401611c7e565b60206040518083038186803b15801561063d57600080fd5b505afa158015610651573d6000803e3d6000fd5b505050506040513d601f19601f820116820180604052508101906106759190611c4a565b90506000610681610425565b1161069e5760405162461bcd60e51b815260040161048090611d50565b600a5481116106bf5760405162461bcd60e51b815260040161048090611d87565b82600a54826106ce91906123c0565b1115610734576008546106eb906001600160a01b0316858561147b565b829150836001600160a01b03167f3eff38a5593bd626ebea5fa8096047f41bed92d9c75cf4a4050216aea6def362846040516107279190612303565b60405180910390a26107b7565b600854600a54610759916001600160a01b031690869061075490856123c0565b61147b565b600a5461076690826123c0565b9150836001600160a01b03167f3eff38a5593bd626ebea5fa8096047f41bed92d9c75cf4a4050216aea6def362600a54836107a191906123c0565b6040516107ae9190612303565b60405180910390a25b6008546040516370a0823160e01b81526001600160a01b03909116906370a08231906107e7903090600401611c7e565b60206040518083038186803b1580156107ff57600080fd5b505afa158015610813573d6000803e3d6000fd5b505050506040513d601f19601f820116820180604052508101906108379190611c4a565b9050610841610425565b61085382670de0b6b3a76400006123a1565b61085d9190612381565b6009555092915050565b601290565b6007546000906001600160a01b031633146108995760405162461bcd60e51b8152600401610480906121e2565b6001600160a01b0383166108bf5760405162461bcd60e51b815260040161048090611e4f565b8180156108ec57506001600160a01b0384166000908152600260205260409020546001600160801b031615155b15610a1f576009546001600160a01b0385166000908152600260205260408120549091670de0b6b3a76400009161092c91906001600160801b03166123a1565b6109369190612381565b6008546040516370a0823160e01b81529192506000916001600160a01b03909116906370a082319061096c903090600401611c7e565b60206040518083038186803b15801561098457600080fd5b505afa158015610998573d6000803e3d6000fd5b505050506040513d601f19601f820116820180604052508101906109bc9190611c4a565b9050600a54816109cc91906123c0565b8210156109ef576008546109ea906001600160a01b0316878461147b565b610a0f565b600854600a54610a0f916001600160a01b031690889061075490856123c0565b610a188661157d565b5050610a4f565b6001600160a01b0384166000908152600260205260409020546001600160801b031615610a4f57610a4f84611622565b6000670de0b6b3a7640000600954610a6687610c20565b610a7091906123a1565b610a7a9190612381565b600854909150610a94906001600160a01b0316858361147b565b610aa685610aa187610c20565b61167e565b836001600160a01b0316856001600160a01b03167fb644c280a27f46639994a63e4feb334394bfd8ca28bb6b0cda104f57d541981983604051610ae99190612303565b60405180910390a3949350505050565b600061040d610b06611290565b848460016000610b14611290565b6001600160a01b03908116825260208083019390935260409182016000908120918b16815292529020546104e79190612369565b6007546001600160a01b03163314610b725760405162461bcd60e51b8152600401610480906121e2565b6000610b7c610425565b11610b995760405162461bcd60e51b815260040161048090611fa8565b600954600090610bb183670de0b6b3a76400006123a1565b610bbb9190612381565b9050610bc683610c20565b6001600160a01b038416600090815260026020526040902054610bf2906001600160801b031683612369565b1115610c105760405162461bcd60e51b81526004016104809061215e565b610c1b838284611778565b505050565b6001600160a01b0381166000908152602081905260409020545b919050565b6007546001600160a01b03163314610c695760405162461bcd60e51b8152600401610480906121e2565b610c938260095483670de0b6b3a7640000610c8491906123a1565b610c8e9190612381565b611953565b5050565b6007546001600160a01b03163314610cc15760405162461bcd60e51b8152600401610480906121e2565b60008111610ce15760405162461bcd60e51b815260040161048090612295565b600a55565b6006805461037890612403565b60008060016000610d02611290565b6001600160a01b0390811682526020808301939093526040918201600090812091881681529252902054905082811015610d4e5760405162461bcd60e51b815260040161048090612250565b610d64610d59611290565b856104e786856123c0565b5060019392505050565b33600081815260026020526040812054909183916001600160801b031690610d9590610c20565b610d9f91906123c0565b1015610dbd5760405162461bcd60e51b8152600401610480906120bd565b610dc8338484611348565b6007546040516274d72160e51b81526001600160a01b0390911690630e9ae42090610dfb90339087908790600401611c92565b600060405180830381600087803b158015610e1557600080fd5b505af1158015610e29573d6000803e3d6000fd5b5060019695505050505050565b60075460009081906001600160a01b03163314610e655760405162461bcd60e51b8152600401610480906121e2565b6008546040516370a0823160e01b81526000916001600160a01b0316906370a0823190610e96903090600401611c7e565b60206040518083038186803b158015610eae57600080fd5b505afa158015610ec2573d6000803e3d6000fd5b505050506040513d601f19601f82011682018060405250810190610ee69190611c4a565b6001600160a01b0385166000908152600260205260409020549091506001600160801b031681610f285760405162461bcd60e51b815260040161048090612219565b80610f3286610c20565b1015610f505760405162461bcd60e51b81526004016104809061215e565b6000670de0b6b3a764000060095483610f6991906123a1565b610f739190612381565b905080600a5484610f8491906123c0565b1115610ff957610f938661157d565b600854610faa906001600160a01b0316878361147b565b856001600160a01b03167f535c1088af46a351970267b3e201e5a9b53e365fec02e4fe54e6eb22496f1ea08383604051610fe592919061230c565b60405180910390a2909350915061110b9050565b61102f86600954600a548661100e91906123c0565b61102090670de0b6b3a76400006123a1565b61102a9190612381565b611a1b565b600854600a5461104f916001600160a01b031690889061075490876123c0565b856001600160a01b03167f535c1088af46a351970267b3e201e5a9b53e365fec02e4fe54e6eb22496f1ea0600954600a548661108b91906123c0565b61109d90670de0b6b3a76400006123a1565b6110a79190612381565b600a546110b490876123c0565b6040516110c292919061230c565b60405180910390a2600954600a546110da90856123c0565b6110ec90670de0b6b3a76400006123a1565b6110f69190612381565b600a5461110390856123c0565b945094505050505b915091565b600a5481565b60075460009081906001600160a01b031633146111455760405162461bcd60e51b8152600401610480906121e2565b6001600160a01b0383166000908152600260205260409020546001600160801b0316806111845760405162461bcd60e51b815260040161048090611f3a565b61118d84611622565b836001600160a01b03167f09c6481cb228ea7f61ceb67c8e708038eb74bbb68cfcc54a9cfca199087ecfb782670de0b6b3a7640000600954856111d091906123a1565b6111da9190612381565b6040516111e892919061230c565b60405180910390a280670de0b6b3a76400006009548361120891906123a1565b6112129190612381565b9250925050915091565b6001600160a01b03918216600090815260016020908152604080832093909416825291909152205490565b6008546001600160a01b031681565b6007546000906001600160a01b031633146112835760405162461bcd60e51b8152600401610480906121e2565b5060035490565b60095481565b3390565b6001600160a01b0383166112ba5760405162461bcd60e51b81526004016104809061211a565b6001600160a01b0382166112e05760405162461bcd60e51b815260040161048090611e0d565b6001600160a01b0380841660008181526001602090815260408083209487168084529490915290819020849055517f8c5be1e5ebec7d5bd14f71427d1e84f3dd0314c0f7b2291e5b200ac8c7c3b9259061133b908590612303565b60405180910390a3505050565b6001600160a01b03831661136e5760405162461bcd60e51b815260040161048090612078565b6001600160a01b0382166113945760405162461bcd60e51b815260040161048090611d0d565b61139f838383610c1b565b6001600160a01b038316600090815260208190526040902054818110156113d85760405162461bcd60e51b815260040161048090611ebd565b6113e282826123c0565b6001600160a01b038086166000908152602081905260408082209390935590851681529081208054849290611418908490612369565b92505081905550826001600160a01b0316846001600160a01b03167fddf252ad1be2c89b69c2b068fc378daa952ba7f163c4a11628f55a4df523b3ef846040516114629190612303565b60405180910390a3611475848484610c1b565b50505050565b600080846001600160a01b031663a9059cbb85856040516024016114a0929190611cb6565b6040516020818303038152906040529060e01b6020820180517bffffffffffffffffffffffffffffffffffffffffffffffffffffffff83818316178352505050506040516114ee9190611c62565b6000604051808303816000865af19150503d806000811461152b576040519150601f19603f3d011682016040523d82523d6000602084013e611530565b606091505b509150915081801561155a57508051158061155a57508080602001905181019061155a9190611c16565b6115765760405162461bcd60e51b815260040161048090612195565b5050505050565b6001600160a01b0381166000908152600260205260409020546001600160801b03166115bb5760405162461bcd60e51b815260040161048090611e86565b6001600160a01b038116600090815260026020526040812054600380546001600160801b039092169283926115f19084906123c0565b909155506116019050828261167e565b506001600160a01b0316600090815260026020526040812081815560010155565b6001600160a01b038116600090815260026020526040812054600380546001600160801b039092169283926116589084906123c0565b9091555050506001600160a01b0316600090815260026020526040812081815560010155565b6001600160a01b0382166116a45760405162461bcd60e51b815260040161048090612037565b6116b082600083610c1b565b6001600160a01b038216600090815260208190526040902054818110156116e95760405162461bcd60e51b815260040161048090611dcb565b6116f382826123c0565b6001600160a01b038416600090815260208190526040812091909155600480548492906117219084906123c0565b90915550506040516000906001600160a01b038516907fddf252ad1be2c89b69c2b068fc378daa952ba7f163c4a11628f55a4df523b3ef90611764908690612303565b60405180910390a3610c1b83600084610c1b565b8161178284610c20565b10156117a05760405162461bcd60e51b815260040161048090611f03565b6001600160a01b0383166000908152600260205260409020546001600160801b03161580156117f557506001600160a01b038316600090815260026020526040902054600160801b90046001600160801b0316155b1561187457604080516060810182526001600160801b03848116825242811660208084019182528385018681526001600160a01b038916600090815260029092529490209251835491516fffffffffffffffffffffffffffffffff19909216908316178216600160801b91909216021781559051600190910155611937565b6001600160a01b038316600090815260026020526040812080548492906118a59084906001600160801b031661233e565b92506101000a8154816001600160801b0302191690836001600160801b031602179055508060026000856001600160a01b03166001600160a01b0316815260200190815260200160002060010160008282546119019190612369565b90915550506001600160a01b038316600090815260026020526040902080546001600160801b03428116600160801b0291161790555b81600360008282546119499190612369565b9091555050505050565b6001600160a01b0382166119795760405162461bcd60e51b8152600401610480906122cc565b61198560008383610c1b565b80600460008282546119979190612369565b90915550506001600160a01b038216600090815260208190526040812080548392906119c4908490612369565b90915550506040516001600160a01b038316906000907fddf252ad1be2c89b69c2b068fc378daa952ba7f163c4a11628f55a4df523b3ef90611a07908590612303565b60405180910390a3610c9360008383610c1b565b6001600160a01b0382166000908152600260205260409020546001600160801b0316611a595760405162461bcd60e51b815260040161048090611e86565b6001600160a01b0382166000908152600260205260409020546001600160801b0316811115611a9a5760405162461bcd60e51b815260040161048090611f71565b6001600160a01b038216600090815260026020526040812054600380546001600160801b03909216928392611ad09084906123c0565b90915550611ae09050838361167e565b50506001600160a01b0316600090815260026020526040812081815560010155565b80356001600160a01b0381168114610c3a57600080fd5b600060208284031215611b2a578081fd5b611b3382611b02565b9392505050565b60008060408385031215611b4c578081fd5b611b5583611b02565b9150611b6360208401611b02565b90509250929050565b600080600060608486031215611b80578081fd5b611b8984611b02565b9250611b9760208501611b02565b91506040840135611ba781612454565b809150509250925092565b600080600060608486031215611bc6578283fd5b611bcf84611b02565b9250611bdd60208501611b02565b9150604084013590509250925092565b60008060408385031215611bff578182fd5b611c0883611b02565b946020939093013593505050565b600060208284031215611c27578081fd5b8151611b3381612454565b600060208284031215611c43578081fd5b5035919050565b600060208284031215611c5b578081fd5b5051919050565b60008251611c748184602087016123d7565b9190910192915050565b6001600160a01b0391909116815260200190565b6001600160a01b039384168152919092166020820152604081019190915260600190565b6001600160a01b03929092168252602082015260400190565b901515815260200190565b6000602082528251806020840152611cf98160408501602087016123d7565b601f01601f19169190910160400192915050565b60208082526023908201527f45524332303a207472616e7366657220746f20746865207a65726f206164647260408201526265737360e81b606082015260800190565b60208082526016908201527f556e6f52653a207a65726f206c702062616c616e636500000000000000000000604082015260600190565b60208082526024908201527f556e6f52653a206d696e696d756d20554e4f206361706974616c20756e646572604082015263666c6f7760e01b606082015260800190565b60208082526022908201527f45524332303a206275726e20616d6f756e7420657863656564732062616c616e604082015261636560f01b606082015260800190565b60208082526022908201527f45524332303a20617070726f766520746f20746865207a65726f206164647265604082015261737360f01b606082015260800190565b60208082526013908201527f556e6f52653a207a65726f206164647265737300000000000000000000000000604082015260600190565b60208082526018908201527f556e6f52653a207a65726f20636c61696d20616d6f756e740000000000000000604082015260600190565b60208082526026908201527f45524332303a207472616e7366657220616d6f756e7420657863656564732062604082015265616c616e636560d01b606082015260800190565b60208082526017908201527f556e6f52653a2062616c616e6365206f766572666c6f77000000000000000000604082015260600190565b60208082526012908201527f556e6f52653a207a65726f20616d6f756e740000000000000000000000000000604082015260600190565b6020808252601e908201527f556e6f52653a2070656e64696e6720616d6f756e74206f766572666c6f770000604082015260600190565b60208082526027908201527f556e6f52653a2054686572652773206e6f2072656d61696e696e6720696e20746040820152661a19481c1bdbdb60ca1b606082015260800190565b60208082526028908201527f45524332303a207472616e7366657220616d6f756e74206578636565647320616040820152676c6c6f77616e636560c01b606082015260800190565b60208082526021908201527f45524332303a206275726e2066726f6d20746865207a65726f206164647265736040820152607360f81b606082015260800190565b60208082526025908201527f45524332303a207472616e736665722066726f6d20746865207a65726f206164604082015264647265737360d81b606082015260800190565b60208082526034908201527f45524332303a207472616e7366657220616d6f756e742065786365656473206260408201527f616c616e6365206f722070656e64696e67205752000000000000000000000000606082015260800190565b60208082526024908201527f45524332303a20617070726f76652066726f6d20746865207a65726f206164646040820152637265737360e01b606082015260800190565b6020808252601a908201527f556e6f52653a206c702062616c616e6365206f766572666c6f77000000000000604082015260600190565b6020808252602d908201527f5472616e7366657248656c7065723a3a736166655472616e736665723a20747260408201526c185b9cd9995c8819985a5b1959609a1b606082015260800190565b60208082526019908201527f556e6f52653a205269736b506f6f6c20466f7262696464656e00000000000000604082015260600190565b60208082526017908201527f556e6f52653a207a65726f20756e6f2062616c616e6365000000000000000000604082015260600190565b60208082526025908201527f45524332303a2064656372656173656420616c6c6f77616e63652062656c6f77604082015264207a65726f60d81b606082015260800190565b6020808252601b908201527f556e6f52653a206e6f7420616c6c6f77207a65726f2076616c75650000000000604082015260600190565b6020808252601f908201527f45524332303a206d696e7420746f20746865207a65726f206164647265737300604082015260600190565b90815260200190565b918252602082015260400190565b9283526020830191909152604082015260600190565b60ff91909116815260200190565b60006001600160801b038083168185168083038211156123605761236061243e565b01949350505050565b6000821982111561237c5761237c61243e565b500190565b60008261239c57634e487b7160e01b81526012600452602481fd5b500490565b60008160001904831182151516156123bb576123bb61243e565b500290565b6000828210156123d2576123d261243e565b500390565b60005b838110156123f25781810151838201526020016123da565b838111156114755750506000910152565b60028104600182168061241757607f821691505b6020821081141561243857634e487b7160e01b600052602260045260246000fd5b50919050565b634e487b7160e01b600052601160045260246000fd5b801515811461246257600080fd5b5056fea2646970667358221220d680ab8d1bdc4a7faf88222164535beec1e6bcf23007b4b191bb64c202625bbd64736f6c63430008000033a2646970667358221220520c21a808afd1324ed0181f478f9dc5958f81a592c2913930d84ad0187f9f7a64736f6c63430008000033",
  "devdoc": {
    "kind": "dev",
    "methods": {},
    "version": 1
  },
  "userdoc": {
    "kind": "user",
    "methods": {},
    "version": 1
  },
  "storageLayout": {
    "storage": [],
    "types": null
  }
}