{
  "address": "0xd9070bbFbCf10bF6628D265757FfE4FEC89553Ce",
  "abi": [
    {
      "inputs": [
        {
          "internalType": "address",
          "name": "_owner",
          "type": "address"
        },
        {
          "internalType": "address",
          "name": "_usdt_token",
          "type": "address"
        },
        {
          "internalType": "address",
          "name": "_uno_token",
          "type": "address"
        },
        {
          "internalType": "address",
          "name": "_exchangeAgent",
          "type": "address"
        },
        {
          "internalType": "address",
          "name": "_premiumPool",
          "type": "address"
        },
        {
          "internalType": "address",
          "name": "_capitalAgent",
          "type": "address"
        }
      ],
      "stateMutability": "nonpayable",
      "type": "constructor"
    },
    {
      "anonymous": false,
      "inputs": [
        {
          "indexed": true,
          "internalType": "address",
          "name": "_premiumPool",
          "type": "address"
        }
      ],
      "name": "LogSetPremiumPool",
      "type": "event"
    },
    {
      "anonymous": false,
      "inputs": [
        {
          "indexed": false,
          "internalType": "uint16",
          "name": "_protocolIdx",
          "type": "uint16"
        },
        {
          "indexed": false,
          "internalType": "uint256",
          "name": "_mcr",
          "type": "uint256"
        }
      ],
      "name": "LogSetProtocolMCR",
      "type": "event"
    },
    {
      "anonymous": false,
      "inputs": [
        {
          "indexed": true,
          "internalType": "address",
          "name": "_salesPolicy",
          "type": "address"
        },
        {
          "indexed": false,
          "internalType": "uint16",
          "name": "_protocolIdx",
          "type": "uint16"
        }
      ],
      "name": "ProtocolCreated",
      "type": "event"
    },
    {
      "inputs": [],
      "name": "UNO_TOKEN",
      "outputs": [
        {
          "internalType": "address",
          "name": "",
          "type": "address"
        }
      ],
      "stateMutability": "view",
      "type": "function"
    },
    {
      "inputs": [],
      "name": "USDT_TOKEN",
      "outputs": [
        {
          "internalType": "address",
          "name": "",
          "type": "address"
        }
      ],
      "stateMutability": "view",
      "type": "function"
    },
    {
      "inputs": [
        {
          "internalType": "string",
          "name": "_name",
          "type": "string"
        },
        {
          "internalType": "string",
          "name": "_productType",
          "type": "string"
        },
        {
          "internalType": "string",
          "name": "_premiumDescription",
          "type": "string"
        },
        {
          "internalType": "uint256",
          "name": "_coverDuration",
          "type": "uint256"
        },
        {
          "internalType": "address",
          "name": "_protocolAddress",
          "type": "address"
        },
        {
          "internalType": "address",
          "name": "_protocolCurrency",
          "type": "address"
        }
      ],
      "name": "addProtocol",
      "outputs": [],
      "stateMutability": "nonpayable",
      "type": "function"
    },
    {
      "inputs": [],
      "name": "allProtocolsLength",
      "outputs": [
        {
          "internalType": "uint256",
          "name": "",
          "type": "uint256"
        }
      ],
      "stateMutability": "view",
      "type": "function"
    },
    {
      "inputs": [
        {
          "internalType": "uint16",
          "name": "_protocolIdx",
          "type": "uint16"
        },
        {
          "internalType": "address",
          "name": "_premiumCurrency",
          "type": "address"
        }
      ],
      "name": "approvePremiumInPolicy",
      "outputs": [],
      "stateMutability": "nonpayable",
      "type": "function"
    },
    {
      "inputs": [],
      "name": "capitalAgent",
      "outputs": [
        {
          "internalType": "address",
          "name": "",
          "type": "address"
        }
      ],
      "stateMutability": "view",
      "type": "function"
    },
    {
      "inputs": [],
      "name": "exchangeAgent",
      "outputs": [
        {
          "internalType": "address",
          "name": "",
          "type": "address"
        }
      ],
      "stateMutability": "view",
      "type": "function"
    },
    {
      "inputs": [
        {
          "internalType": "uint16",
          "name": "",
          "type": "uint16"
        }
      ],
      "name": "getProtocol",
      "outputs": [
        {
          "internalType": "uint256",
          "name": "coverDuration",
          "type": "uint256"
        },
        {
          "internalType": "uint256",
          "name": "mcr",
          "type": "uint256"
        },
        {
          "internalType": "address",
          "name": "protocolAddress",
          "type": "address"
        },
        {
          "internalType": "address",
          "name": "protocolCurrency",
          "type": "address"
        },
        {
          "internalType": "string",
          "name": "name",
          "type": "string"
        },
        {
          "internalType": "string",
          "name": "productType",
          "type": "string"
        },
        {
          "internalType": "string",
          "name": "premiumDescription",
          "type": "string"
        },
        {
          "internalType": "address",
          "name": "salesPolicy",
          "type": "address"
        },
        {
          "internalType": "bool",
          "name": "exist",
          "type": "bool"
        }
      ],
      "stateMutability": "view",
      "type": "function"
    },
    {
      "inputs": [
        {
          "internalType": "uint16",
          "name": "_protocolIdx",
          "type": "uint16"
        }
      ],
      "name": "getProtocolData",
      "outputs": [
        {
          "internalType": "string",
          "name": "protocolName",
          "type": "string"
        },
        {
          "internalType": "string",
          "name": "productType",
          "type": "string"
        },
        {
          "internalType": "address",
          "name": "protocolAddress",
          "type": "address"
        }
      ],
      "stateMutability": "view",
      "type": "function"
    },
    {
      "inputs": [],
      "name": "owner",
      "outputs": [
        {
          "internalType": "address",
          "name": "",
          "type": "address"
        }
      ],
      "stateMutability": "view",
      "type": "function"
    },
    {
      "inputs": [],
      "name": "premiumPool",
      "outputs": [
        {
          "internalType": "address",
          "name": "",
          "type": "address"
        }
      ],
      "stateMutability": "view",
      "type": "function"
    },
    {
      "inputs": [
        {
          "internalType": "uint16",
          "name": "_protocolIdx",
          "type": "uint16"
        },
        {
          "internalType": "uint256",
          "name": "_maxDeadline",
          "type": "uint256"
        }
      ],
      "name": "setBuyPolicyMaxDeadlineInPolicy",
      "outputs": [],
      "stateMutability": "nonpayable",
      "type": "function"
    },
    {
      "inputs": [
        {
          "internalType": "uint16",
          "name": "_protocolIdx",
          "type": "uint16"
        },
        {
          "internalType": "address",
          "name": "_exchangeAgent",
          "type": "address"
        }
      ],
      "name": "setExchangeAgentInPolicy",
      "outputs": [],
      "stateMutability": "nonpayable",
      "type": "function"
    },
    {
      "inputs": [
        {
          "internalType": "address",
          "name": "_premiumPool",
          "type": "address"
        }
      ],
      "name": "setPremiumPool",
      "outputs": [],
      "stateMutability": "nonpayable",
      "type": "function"
    },
    {
      "inputs": [
        {
          "internalType": "uint16",
          "name": "_protocolIdx",
          "type": "uint16"
        },
        {
          "internalType": "address",
          "name": "_premiumPool",
          "type": "address"
        }
      ],
      "name": "setPremiumPoolInPolicy",
      "outputs": [],
      "stateMutability": "nonpayable",
      "type": "function"
    },
    {
      "inputs": [
        {
          "internalType": "uint16",
          "name": "_protocolIdx",
          "type": "uint16"
        },
        {
          "internalType": "uint256",
          "name": "_mcr",
          "type": "uint256"
        }
      ],
      "name": "setProtocolMCR",
      "outputs": [],
      "stateMutability": "nonpayable",
      "type": "function"
    },
    {
      "inputs": [
        {
          "internalType": "uint16",
          "name": "_protocolIdx",
          "type": "uint16"
        },
        {
          "internalType": "string",
          "name": "_uri",
          "type": "string"
        }
      ],
      "name": "setProtocolURIInPolicy",
      "outputs": [],
      "stateMutability": "nonpayable",
      "type": "function"
    },
    {
      "inputs": [
        {
          "internalType": "uint16",
          "name": "_protocolIdx",
          "type": "uint16"
        },
        {
          "internalType": "address",
          "name": "_signer",
          "type": "address"
        }
      ],
      "name": "setSignerInPolicy",
      "outputs": [],
      "stateMutability": "nonpayable",
      "type": "function"
    }
  ],
  "transactionHash": "0x94783f9b65031aa5524eb9d67fbe8b409177e31ecbdd546731e54caaad212c68",
  "args": [
    "0x5569BDF4e02cec3fE459796e3d0e741616029fA4",
    "0x40c035016AD732b6cFce34c3F881040B6C6cf71E",
    "0x53fb43BaE4C13d6AFAD37fB37c3fC49f3Af433F5",
    "0xf97Eb2a102Ba485020c9d2EA0ac4BAAC19092Ee9",
    "0x3fCDBcbBb567d7A326b133439A938cC052FAdf1c",
    "0x2D1ADb7A6ED75B23E1C5Dfa8E74462DC39753459"
  ],
  "solcInputHash": "e0541ecd9c6d2d8f9d7ff5550f71ff1d",
  "bytecode": "0x60806040523480156200001157600080fd5b506040516200540c3803806200540c8339810160408190526200003491620000cb565b60016000819055600780546001600160a01b03199081166001600160a01b03988916179091556008805482169688169690961790955560028054861697871697909717909655855484169185169190911790945560038054831691841691909117905560048054909116929091169190911790556200014b565b80516001600160a01b0381168114620000c657600080fd5b919050565b60008060008060008060c08789031215620000e4578182fd5b620000ef87620000ae565b9550620000ff60208801620000ae565b94506200010f60408801620000ae565b93506200011f60608801620000ae565b92506200012f60808801620000ae565b91506200013f60a08801620000ae565b90509295509295509295565b6152b1806200015b6000396000f3fe60806040523480156200001157600080fd5b5060043610620001305760003560e01c80638da5cb5b11620000b1578063bbd9d8e1116200007b578063bbd9d8e1146200023b578063d2c7c2a41462000263578063d9203b911462000291578063db5b7c98146200029b578063edb13bbb14620002b25762000130565b80638da5cb5b14620001ea578063ab17ef8214620001f4578063b2e6d91f146200020b578063b381ff8214620002225762000130565b80634219816011620000ff57806342198160146200019e5780634762dfae14620001a85780634ba69faa14620001bf578063721b70c814620001c957806377b330c914620001e05762000130565b80630ea3b56314620001355780630f97b97b146200014e5780631bcc2472146200017057806320f721cd1462000187575b600080fd5b6200014c62000146366004620012c1565b620002c9565b005b620001586200037e565b6040516200016791906200133b565b60405180910390f35b6200014c62000181366004620010bc565b6200038d565b6200014c62000198366004620012c1565b6200042d565b62000158620004ff565b6200014c620001b9366004620011ca565b6200050e565b62000158620005ad565b6200014c620001da36600462001201565b620005bc565b6200015862000632565b6200015862000641565b6200014c62000205366004620010e0565b62000650565b6200014c6200021c366004620011ca565b620009ad565b6200022c62000a4c565b60405162000167919062001546565b620002526200024c366004620011ad565b62000a5f565b6040516200016793929190620013cd565b6200027a62000274366004620011ad565b62000bc9565b60405162000167999897969594939291906200154f565b6200015862000ddf565b6200014c620002ac366004620011ca565b62000dee565b6200014c620002c3366004620011ca565b62000e8d565b6002546001600160a01b03163314620002ff5760405162461bcd60e51b8152600401620002f6906200147e565b60405180910390fd5b60008111620003225760405162461bcd60e51b8152600401620002f69062001447565b61ffff8216600090815260056020526040908190206001810183905590517fce9bfac800790847f5a11bfe3df969c5563f99ea96e4544a235410640627154d9062000371908590859062001532565b60405180910390a1505050565b6008546001600160a01b031681565b6002546001600160a01b03163314620003ba5760405162461bcd60e51b8152600401620002f6906200147e565b6001600160a01b038116620003e35760405162461bcd60e51b8152600401620002f69062001410565b600180546001600160a01b0319166001600160a01b0383169081179091556040517faa0150507cbcab99f33127173fcbdd580e5710d253406b99952e1feda3cdcc0e90600090a250565b6002546001600160a01b031633146200045a5760405162461bcd60e51b8152600401620002f6906200147e565b600081116200047d5760405162461bcd60e51b8152600401620002f690620014b5565b61ffff82166000908152600560205260409081902060070154905163fda2071d60e01b81526001600160a01b0390911690819063fda2071d90620004c690859060040162001546565b600060405180830381600087803b158015620004e157600080fd5b505af1158015620004f6573d6000803e3d6000fd5b50505050505050565b6004546001600160a01b031681565b6002546001600160a01b031633146200053b5760405162461bcd60e51b8152600401620002f6906200147e565b6001600160a01b038116620005645760405162461bcd60e51b8152600401620002f69062001410565b61ffff821660009081526005602052604090819020600701549051630c5006c760e11b81526001600160a01b039091169081906318a00d8e90620004c69085906004016200133b565b6001546001600160a01b031681565b6002546001600160a01b03163314620005e95760405162461bcd60e51b8152600401620002f6906200147e565b61ffff8216600090815260056020526040908190206007015490516313b41ce760e31b81526001600160a01b03909116908190639da0e73890620004c6908590600401620013b8565b6007546001600160a01b031681565b6002546001600160a01b031681565b6002546001600160a01b031633146200067d5760405162461bcd60e51b8152600401620002f6906200147e565b60026000541415620006a35760405162461bcd60e51b8152600401620002f690620014ec565b60026000908155620006b6600662000f03565b60035460015460045460408051602081019091526000808252949550869493620006f49387936001600160a01b039283169391831692169062000f0b565b6004805460405163b84ef08160e01b81529293506001600160a01b03169163b84ef0819162000726918591016200133b565b600060405180830381600087803b1580156200074157600080fd5b505af115801562000756573d6000803e3d6000fd5b5050505060405180610120016040528087815260200160018152602001866001600160a01b03168152602001836001600160a01b031681526020018d8d8080601f016020809104026020016040519081016040528093929190818152602001838380828437600092019190915250505090825250604080516020601f8e018190048102820181019092528c815291810191908d908d9081908401838280828437600092019190915250505090825250604080516020601f8c018190048102820181019092528a815291810191908b908b908190840183828082843760009201829052509385525050506001600160a01b038085166020808501919091526001604094850181905261ffff891684526005825292849020855181558582015193810193909355928401516002830180549183166001600160a01b03199283161790556060850151600384018054919093169116179055608083015180519192620008c89260048501929091019062000f93565b5060a08201518051620008e691600584019160209091019062000f93565b5060c082015180516200090491600684019160209091019062000f93565b5060e082015160079091018054610100909301511515600160a01b0260ff60a01b196001600160a01b039093166001600160a01b0319909416939093179190911691909117905562000957600662000f8a565b806001600160a01b03167fbcf8a46c68576cc4e52eb8fbc678b3ce3adbeadb33126980d791f827ccff41118460405162000992919062001523565b60405180910390a25050600160005550505050505050505050565b6002546001600160a01b03163314620009da5760405162461bcd60e51b8152600401620002f6906200147e565b6001600160a01b03811662000a035760405162461bcd60e51b8152600401620002f69062001410565b61ffff821660009081526005602052604090819020600701549051636c19e78360e01b81526001600160a01b03909116908190636c19e78390620004c69085906004016200133b565b600062000a5a600662000f03565b905090565b61ffff81166000908152600560208190526040822060028101546004820180546060958695909492939201916001600160a01b031690839062000aa290620015d3565b80601f016020809104026020016040519081016040528092919081815260200182805462000ad090620015d3565b801562000b215780601f1062000af55761010080835404028352916020019162000b21565b820191906000526020600020905b81548152906001019060200180831162000b0357829003601f168201915b5050505050925081805462000b3690620015d3565b80601f016020809104026020016040519081016040528092919081815260200182805462000b6490620015d3565b801562000bb55780601f1062000b895761010080835404028352916020019162000bb5565b820191906000526020600020905b81548152906001019060200180831162000b9757829003601f168201915b505050505091509250925092509193909250565b60056020526000908152604090208054600182015460028301546003840154600485018054949593946001600160a01b0393841694929093169262000c0e90620015d3565b80601f016020809104026020016040519081016040528092919081815260200182805462000c3c90620015d3565b801562000c8d5780601f1062000c615761010080835404028352916020019162000c8d565b820191906000526020600020905b81548152906001019060200180831162000c6f57829003601f168201915b50505050509080600501805462000ca490620015d3565b80601f016020809104026020016040519081016040528092919081815260200182805462000cd290620015d3565b801562000d235780601f1062000cf75761010080835404028352916020019162000d23565b820191906000526020600020905b81548152906001019060200180831162000d0557829003601f168201915b50505050509080600601805462000d3a90620015d3565b80601f016020809104026020016040519081016040528092919081815260200182805462000d6890620015d3565b801562000db95780601f1062000d8d5761010080835404028352916020019162000db9565b820191906000526020600020905b81548152906001019060200180831162000d9b57829003601f168201915b505050600790930154919250506001600160a01b0381169060ff600160a01b9091041689565b6003546001600160a01b031681565b6002546001600160a01b0316331462000e1b5760405162461bcd60e51b8152600401620002f6906200147e565b6001600160a01b03811662000e445760405162461bcd60e51b8152600401620002f69062001410565b61ffff821660009081526005602052604090819020600701549051630de6123960e11b81526001600160a01b03909116908190631bcc247290620004c69085906004016200133b565b6002546001600160a01b0316331462000eba5760405162461bcd60e51b8152600401620002f6906200147e565b61ffff8216600090815260056020526040908190206007015490516321ecf70160e01b81526001600160a01b039091169081906321ecf70190620004c69085906004016200133b565b80545b919050565b60008030868686600860009054906101000a90046001600160a01b0316600760009054906101000a90046001600160a01b0316888d60405162000f4e9062001022565b62000f619897969594939291906200134f565b604051809103906000f08015801562000f7e573d6000803e3d6000fd5b50979650505050505050565b80546001019055565b82805462000fa190620015d3565b90600052602060002090601f01602090048101928262000fc5576000855562001010565b82601f1062000fe057805160ff191683800117855562001010565b8280016001018555821562001010579182015b828111156200101057825182559160200191906001019062000ff3565b506200101e92915062001030565b5090565b613c55806200162783390190565b5b808211156200101e576000815560010162001031565b80356001600160a01b038116811462000f0657600080fd5b60008083601f84011262001071578081fd5b50813567ffffffffffffffff81111562001089578182fd5b602083019150836020828501011115620010a257600080fd5b9250929050565b803561ffff8116811462000f0657600080fd5b600060208284031215620010ce578081fd5b620010d98262001047565b9392505050565b600080600080600080600080600060c08a8c031215620010fe578485fd5b893567ffffffffffffffff8082111562001116578687fd5b620011248d838e016200105f565b909b50995060208c01359150808211156200113d578687fd5b6200114b8d838e016200105f565b909950975060408c013591508082111562001164578687fd5b50620011738c828d016200105f565b90965094505060608a013592506200118e60808b0162001047565b91506200119e60a08b0162001047565b90509295985092959850929598565b600060208284031215620011bf578081fd5b620010d982620010a9565b60008060408385031215620011dd578182fd5b620011e883620010a9565b9150620011f86020840162001047565b90509250929050565b6000806040838503121562001214578182fd5b6200121f83620010a9565b915060208084013567ffffffffffffffff808211156200123d578384fd5b818601915086601f83011262001251578384fd5b81358181111562001266576200126662001610565b604051601f8201601f19168101850183811182821017156200128c576200128c62001610565b6040528181528382018501891015620012a3578586fd5b81858501868301378585838301015280955050505050509250929050565b60008060408385031215620012d4578182fd5b620012df83620010a9565b946020939093013593505050565b60008151808452815b818110156200131457602081850181015186830182015201620012f6565b81811115620013265782602083870101525b50601f01601f19169290920160200192915050565b6001600160a01b0391909116815260200190565b60006101006001600160a01b03808c168452808b166020850152808a1660408501528089166060850152808816608085015280871660a0850152508060c08401526200139e81840186620012ed565b91505061ffff831660e08301529998505050505050505050565b600060208252620010d96020830184620012ed565b600060608252620013e26060830186620012ed565b8281036020840152620013f68186620012ed565b9150506001600160a01b0383166040830152949350505050565b60208082526013908201527f556e6f52653a207a65726f206164647265737300000000000000000000000000604082015260600190565b6020808252600f908201527f556e6f52653a207a65726f206d63720000000000000000000000000000000000604082015260600190565b60208082526010908201527f556e6f52653a20466f7262696464656e00000000000000000000000000000000604082015260600190565b60208082526018908201527f556e6f52653a207a65726f206d617820646561646c696e650000000000000000604082015260600190565b6020808252601f908201527f5265656e7472616e637947756172643a207265656e7472616e742063616c6c00604082015260600190565b61ffff91909116815260200190565b61ffff929092168252602082015260400190565b90815260200190565b60006101208b83528a60208401526001600160a01b03808b166040850152808a166060850152816080850152620015898285018a620012ed565b915083820360a08501526200159f8289620012ed565b915083820360c0850152620015b58288620012ed565b951660e0840152505090151561010090910152979650505050505050565b600281046001821680620015e857607f821691505b602082108114156200160a57634e487b7160e01b600052602260045260246000fd5b50919050565b634e487b7160e01b600052604160045260246000fdfe60e06040526000196011553480156200001757600080fd5b5060405162003c5538038062003c558339810160408190526200003a916200030c565b6040518060400160405280601081526020016f506f6c69637920696e737572616e636560801b8152506040518060400160405280601081526020016f506f6c69637920696e737572616e636560801b8152506040518060400160405280601881526020017f427579506f6c6963794d6574615472616e73616374696f6e0000000000000000815250604051806040016040528060018152602001603160f81b81525081816040518060800160405280604f815260200162003c06604f9139805190602001208280519060200120828051906020012030620001206200023260201b60201c565b6040516200013695949392919060200162000461565b60408051601f19818403018152919052805160209182012060005586516200016a9550600294509087019250905062000236565b5080516200018090600390602084019062000236565b5050600160085550606088811b6001600160601b0319908116608052600a805461ffff191661ffff85161762010000600160b01b031916620100006001600160a01b038c81169190910291909117909155600c80546001600160a01b03199081168a84161790915587841b831660a0529286901b90911660c052600b805490921690881617905562093a8060095581516200022390600e90602085019062000236565b505050505050505050620004e0565b4690565b82805462000244906200048d565b90600052602060002090601f016020900481019282620002685760008555620002b3565b82601f106200028357805160ff1916838001178555620002b3565b82800160010185558215620002b3579182015b82811115620002b357825182559160200191906001019062000296565b50620002c1929150620002c5565b5090565b5b80821115620002c15760008155600101620002c6565b80516001600160a01b0381168114620002f457600080fd5b919050565b805161ffff81168114620002f457600080fd5b600080600080600080600080610100898b03121562000329578384fd5b6200033489620002dc565b9750602062000345818b01620002dc565b97506200035560408b01620002dc565b96506200036560608b01620002dc565b95506200037560808b01620002dc565b94506200038560a08b01620002dc565b60c08b01519094506001600160401b0380821115620003a2578485fd5b818c0191508c601f830112620003b6578485fd5b815181811115620003cb57620003cb620004ca565b604051601f8201601f1916810185018381118282101715620003f157620003f1620004ca565b60405281815283820185018f101562000408578687fd5b8692505b818310156200042b57838301850151818401860152918401916200040c565b818311156200043c57868583830101525b80965050505050506200045260e08a01620002f9565b90509295985092959890939650565b948552602085019390935260408401919091526001600160a01b03166060830152608082015260a00190565b600281046001821680620004a257607f821691505b60208210811415620004c457634e487b7160e01b600052602260045260246000fd5b50919050565b634e487b7160e01b600052604160045260246000fd5b60805160601c60a05160601c60c05160601c6136b86200054e6000396000818161151301526118ff015260005050600081816109d501528181610ac901528181610b9e01528181610e6901528181610fb901528181611203015281816112d8015261192301526136b86000f3fe6080604052600436106102085760003560e01c80636352211e11610118578063c2eb8eb9116100a0578063d341960b1161006f578063d341960b146105dd578063de4e4201146105f2578063e985e9c514610607578063fa56927414610627578063fda2071d1461063c5761020f565b8063c2eb8eb914610575578063c45a015514610595578063c4cf5370146105aa578063c87b56dd146105bd5761020f565b806395d89b41116100e757806395d89b41146104e05780639da0e738146104f5578063a22cb46514610515578063a5d5e14214610535578063b88d4fde146105555761020f565b80636352211e146104505780636c19e7831461047057806370a08231146104905780637a5402e9146104b05761020f565b8063238ac9331161019b57806333b3691e1161016a57806333b3691e146103c457806342198160146103e457806342842e0e146103f95780634ba69faa146104195780634d8dbb3c1461042e5761020f565b8063238ac9331461032e57806323b872dd146103435780632b07fce3146103635780632d0335ab146103975761020f565b80630c53c51c116101d75780630c53c51c146102bb57806318a00d8e146102ce5780631bcc2472146102ee57806321ecf7011461030e5761020f565b806301ffc9a71461021457806306fdde031461024a578063081812fc1461026c578063095ea7b3146102995761020f565b3661020f57005b600080fd5b34801561022057600080fd5b5061023461022f366004612854565b61065c565b6040516102419190612b94565b60405180910390f35b34801561025657600080fd5b5061025f6106a4565b6040516102419190612be1565b34801561027857600080fd5b5061028c6102873660046128d2565b610737565b6040516102419190612a9f565b3480156102a557600080fd5b506102b96102b436600461280f565b610783565b005b61025f6102c936600461279f565b61081b565b3480156102da57600080fd5b506102b96102e936600461267c565b6109d3565b3480156102fa57600080fd5b506102b961030936600461267c565b610ac7565b34801561031a57600080fd5b506102b961032936600461267c565b610b9c565b34801561033a57600080fd5b5061028c610cac565b34801561034f57600080fd5b506102b961035e3660046126c8565b610cbb565b34801561036f57600080fd5b5061038361037e3660046128d2565b610cf3565b6040516102419897969594939291906134ba565b3480156103a357600080fd5b506103b76103b236600461267c565b610d47565b6040516102419190613484565b3480156103d057600080fd5b506102b96103df3660046128d2565b610d62565b3480156103f057600080fd5b5061028c610def565b34801561040557600080fd5b506102b96104143660046126c8565b610dfe565b34801561042557600080fd5b5061028c610e19565b34801561043a57600080fd5b50610443610e28565b604051610241919061343b565b34801561045c57600080fd5b5061028c61046b3660046128d2565b610e32565b34801561047c57600080fd5b506102b961048b36600461267c565b610e67565b34801561049c57600080fd5b506103b76104ab36600461267c565b610f3c565b3480156104bc57600080fd5b506104d06104cb3660046128d2565b610f80565b604051610241949392919061349f565b3480156104ec57600080fd5b5061025f610fa8565b34801561050157600080fd5b506102b961051036600461288c565b610fb7565b34801561052157600080fd5b506102b9610530366004612769565b611068565b34801561054157600080fd5b506102b96105503660046128d2565b611136565b34801561056157600080fd5b506102b9610570366004612703565b6111c2565b34801561058157600080fd5b506102b961059036600461267c565b611201565b3480156105a157600080fd5b5061028c6112d6565b6102b96105b8366004612902565b6112fa565b3480156105c957600080fd5b5061025f6105d83660046128d2565b611835565b3480156105e957600080fd5b506103b76118b8565b3480156105fe57600080fd5b506103b76118c9565b34801561061357600080fd5b50610234610622366004612696565b6118cf565b34801561063357600080fd5b5061028c6118fd565b34801561064857600080fd5b506102b96106573660046128d2565b611921565b60006001600160e01b031982166380ac58cd60e01b148061068d57506001600160e01b03198216635b5e139f60e01b145b8061069c575061069c826119da565b90505b919050565b6060600280546106b39061356c565b80601f01602080910402602001604051908101604052809291908181526020018280546106df9061356c565b801561072c5780601f106107015761010080835404028352916020019161072c565b820191906000526020600020905b81548152906001019060200180831161070f57829003601f168201915b505050505090505b90565b6000610742826119f3565b6107675760405162461bcd60e51b815260040161075e9061317a565b60405180910390fd5b506000908152600660205260409020546001600160a01b031690565b600061078e82610e32565b9050806001600160a01b0316836001600160a01b031614156107c25760405162461bcd60e51b815260040161075e9061332f565b806001600160a01b03166107d4611a10565b6001600160a01b031614806107f057506107f081610622611a10565b61080c5760405162461bcd60e51b815260040161075e90612fb0565b6108168383611a14565b505050565b6060600061082886611a82565b90506000356001600160e01b0319908116908216141561085a5760405162461bcd60e51b815260040161075e90612d2d565b604080516060810182526001600160a01b038916600081815260016020908152908490205483528201529081018790526108978882888888611a9e565b6108b35760405162461bcd60e51b815260040161075e9061320f565b6001600160a01b0388166000908152600160208190526040909120546108d8916134fd565b6001600160a01b038916600090815260016020908152604080832093909355915190918291309161090d918c918e91016129b6565b60408051601f19818403018152908290526109279161299a565b6000604051808303816000865af19150503d8060008114610964576040519150601f19603f3d011682016040523d82523d6000602084013e610969565b606091505b50915091508161098b5760405162461bcd60e51b815260040161075e90612cbf565b7f5845892132946850460bff5a0083f71031bc5bf9aadcd40f1de79423eac9b10b8a338b6040516109be93929190612ab3565b60405180910390a19998505050505050505050565b7f00000000000000000000000000000000000000000000000000000000000000006001600160a01b0316610a05611b4a565b6001600160a01b031614610a2b5760405162461bcd60e51b815260040161075e90613143565b6001600160a01b038116610a515760405162461bcd60e51b815260040161075e90612c88565b600a805475ffffffffffffffffffffffffffffffffffffffff00001916620100006001600160a01b038416908102919091179182905560405130927fc3177381220e3683a27c54985d092dbe1cb47c9120f3053c10284834dfda5f1b91610abc9161ffff169061343b565b60405180910390a350565b7f00000000000000000000000000000000000000000000000000000000000000006001600160a01b0316610af9611b4a565b6001600160a01b031614610b1f5760405162461bcd60e51b815260040161075e90613143565b6001600160a01b038116610b455760405162461bcd60e51b815260040161075e90612c88565b600b80546001600160a01b0319166001600160a01b038316908117909155600a546040513092917f94128e4300bfd33abb55528d41b5b229e819cf4f2abedfc04ff18c8abab199c491610abc9161ffff169061343b565b7f00000000000000000000000000000000000000000000000000000000000000006001600160a01b0316610bce611b4a565b6001600160a01b031614610bf45760405162461bcd60e51b815260040161075e90613143565b6001600160a01b038116610c1a5760405162461bcd60e51b815260040161075e90612c88565b600b546001600160a01b0316610c425760405162461bcd60e51b815260040161075e906132ad565b600b54601154610c5f9183916001600160a01b0390911690611ba6565b600a54600b546040516001600160a01b038481169330937f722454f4bb0415a0cbc72420f236cd42ec5e56259afafb401deaa9c284c02d5393610abc9361ffff909316929091169061344a565b600d546001600160a01b031681565b610ccc610cc6611a10565b82611c93565b610ce85760405162461bcd60e51b815260040161075e90613370565b610816838383611d18565b60106020526000908152604090208054600182015460028301546003840154600485015460059095015493949293919290916001600160a01b0381169060ff600160a01b8204811691600160a81b90041688565b6001600160a01b031660009081526001602052604090205490565b60026008541415610d855760405162461bcd60e51b815260040161075e90613404565b6002600855600081815260106020526040902060050154600160a01b900460ff16610dc25760405162461bcd60e51b815260040161075e90612d8a565b6000818152601060205260409020600501805460ff60a01b19169055610de781611e45565b506001600855565b600c546001600160a01b031681565b610816838383604051806020016040528060008152506111c2565b600b546001600160a01b031681565b600a5461ffff1681565b6000818152600460205260408120546001600160a01b03168061069c5760405162461bcd60e51b815260040161075e9061308e565b7f00000000000000000000000000000000000000000000000000000000000000006001600160a01b0316610e99611b4a565b6001600160a01b031614610ebf5760405162461bcd60e51b815260040161075e90613143565b6001600160a01b038116610ee55760405162461bcd60e51b815260040161075e90612c88565b600d80546001600160a01b0319166001600160a01b038316908117909155600a546040513092917fd9763970fede39242cdd022989dc223021c84e3a2466a675e86ade06ee2c361a91610abc9161ffff169061343b565b60006001600160a01b038216610f645760405162461bcd60e51b815260040161075e90613044565b506001600160a01b031660009081526005602052604090205490565b6000908152601060205260409020600281015460018201548254600390930154919390929190565b6060600380546106b39061356c565b7f00000000000000000000000000000000000000000000000000000000000000006001600160a01b0316610fe9611b4a565b6001600160a01b03161461100f5760405162461bcd60e51b815260040161075e90613143565b805161102290600e90602084019061252c565b50600a5460405130917f23ff632ee616fb8c7e8f7e3cbd753181800ea4c090ac021dd7a68f79b7acbd219161105d9161ffff16908590613467565b60405180910390a250565b611070611a10565b6001600160a01b0316826001600160a01b031614156110a15760405162461bcd60e51b815260040161075e90612ebf565b80600760006110ae611a10565b6001600160a01b03908116825260208083019390935260409182016000908120918716808252919093529120805460ff1916921515929092179091556110f2611a10565b6001600160a01b03167f17307eab39ab6107e8899845ad3d59bd9653f200f220920489ca2b5937696c318360405161112a9190612b94565b60405180910390a35050565b600260085414156111595760405162461bcd60e51b815260040161075e90613404565b6002600855600081815260106020526040902060050154600160a01b900460ff16156111975760405162461bcd60e51b815260040161075e90612bf4565b6000818152601060205260409020600501805460ff60a81b1916600160a81b179055610de781611e45565b6111d36111cd611a10565b83611c93565b6111ef5760405162461bcd60e51b815260040161075e90613370565b6111fb84848484611eec565b50505050565b7f00000000000000000000000000000000000000000000000000000000000000006001600160a01b0316611233611b4a565b6001600160a01b0316146112595760405162461bcd60e51b815260040161075e90613143565b6001600160a01b03811661127f5760405162461bcd60e51b815260040161075e90612c88565b600c80546001600160a01b0319166001600160a01b038316908117909155600a546040513092917fc3177381220e3683a27c54985d092dbe1cb47c9120f3053c10284834dfda5f1b91610abc9161ffff169061343b565b7f000000000000000000000000000000000000000000000000000000000000000081565b6002600854141561131d5760405162461bcd60e51b815260040161075e90613404565b6002600855600061133487898b8989898989611f1f565b90506001600160a01b0381161580159061135b5750600d546001600160a01b038281169116145b6113775760405162461bcd60e51b815260040161075e9061300d565b428611158015611391575060095461138f8742613529565b105b6113ad5760405162461bcd60e51b815260040161075e90612f79565b60006113b9600f611fe0565b905060006001600160a01b03871661151157600a5460405163531a221160e01b8152620100009091046001600160a01b03169063531a221190611400908c90600401613484565b60206040518083038186803b15801561141857600080fd5b505afa15801561142c573d6000803e3d6000fd5b505050506040513d601f19601f8201168201806040525081019061145091906128ea565b9050803410156114725760405162461bcd60e51b815260040161075e906133cd565b8034111561149457611494611485611b4a565b61148f8334613529565b611fe4565b600b546114aa906001600160a01b031682611fe4565b600b5460405163d830c71560e01b81526001600160a01b039091169063d830c715906114da908490600401613484565b600060405180830381600087803b1580156114f457600080fd5b505af1158015611508573d6000803e3d6000fd5b50505050611692565b7f00000000000000000000000000000000000000000000000000000000000000006001600160a01b0316876001600160a01b03161461161857600a5460405163a9a12d4360e01b8152620100009091046001600160a01b03169063a9a12d4390611581908a908d90600401612b48565b60206040518083038186803b15801561159957600080fd5b505afa1580156115ad573d6000803e3d6000fd5b505050506040513d601f19601f820116820180604052508101906115d191906128ea565b90506115e6876115df611b4a565b3084612071565b600b54604051638c8ac76d60e01b81526001600160a01b0390911690638c8ac76d906114da908a908590600401612b48565b508761162d87611626611b4a565b308c612071565b600b54604051638c8ac76d60e01b81526001600160a01b0390911690638c8ac76d9061165f908a908d90600401612b48565b600060405180830381600087803b15801561167957600080fd5b505af115801561168d573d6000803e3d6000fd5b505050505b604080516101008101825242815260208082018d81528284018f8152606084018e8152608085018781526001600160a01b03808f1660a08801908152600160c08901818152600060e08b018181528e82526010909a529a909a20985189559551958801959095559251600287015590516003860155516004850155905160059093018054945192511515600160a81b0260ff60a81b19931515600160a01b0260ff60a01b19959093166001600160a01b031990961695909517939093161716919091179055611768611762611b4a565b83612161565b600c546040516350498d7960e11b81526001600160a01b039091169063a0931af290611798908e90600401613484565b600060405180830381600087803b1580156117b257600080fd5b505af11580156117c6573d6000803e3d6000fd5b505050506117d4600f612240565b600a54829061ffff167f74ce76e2ace91f83f8188aaa1002ebcab81a9668c13e09d5c89f9a6647bfebdd611806611b4a565b8e8d8c8760405161181b959493929190612b61565b60405180910390a350506001600855505050505050505050565b6060611840826119f3565b61185c5760405162461bcd60e51b815260040161075e90613250565b6000611866612249565b9050600081511161188657604051806020016040528060008152506118b1565b8061189084612258565b6040516020016118a19291906129ed565b6040516020818303038152906040525b9392505050565b60006118c4600f611fe0565b905090565b60095481565b6001600160a01b03918216600090815260076020908152604080832093909416825291909152205460ff1690565b7f000000000000000000000000000000000000000000000000000000000000000081565b7f00000000000000000000000000000000000000000000000000000000000000006001600160a01b0316611953611b4a565b6001600160a01b0316146119795760405162461bcd60e51b815260040161075e90613143565b600081116119995760405162461bcd60e51b815260040161075e906130d7565b6009819055600a5460405130917f317b924d7be379083195d8458727e3bbbe596f3c7229ee96f2ad885fd7e0f4419161105d91859161ffff9091169061348d565b6001600160e01b031981166301ffc9a760e01b14919050565b6000908152600460205260409020546001600160a01b0316151590565b3390565b600081815260066020526040902080546001600160a01b0319166001600160a01b0384169081179091558190611a4982610e32565b6001600160a01b03167f8c5be1e5ebec7d5bd14f71427d1e84f3dd0314c0f7b2291e5b200ac8c7c3b92560405160405180910390a45050565b6000815160001415611a965750600061069f565b506020015190565b6000806001611ab4611aaf8861238b565b6123e9565b84878760405160008152602001604052604051611ad49493929190612bc3565b6020604051602081039080840390855afa158015611af6573d6000803e3d6000fd5b5050604051601f1901519150506001600160a01b038116611b295760405162461bcd60e51b815260040161075e90612ef6565b866001600160a01b0316816001600160a01b03161491505095945050505050565b600033301415611ba157600080368080601f0160208091040260200160405190810160405280939291908181526020018383808284376000920191909152505050503601516001600160a01b031691506107349050565b503390565b600080846001600160a01b031663095ea7b38585604051602401611bcb929190612b48565b6040516020818303038152906040529060e01b6020820180516001600160e01b038381831617835250505050604051611c04919061299a565b6000604051808303816000865af19150503d8060008114611c41576040519150601f19603f3d011682016040523d82523d6000602084013e611c46565b606091505b5091509150818015611c70575080511580611c70575080806020019051810190611c709190612838565b611c8c5760405162461bcd60e51b815260040161075e906132e4565b5050505050565b6000611c9e826119f3565b611cba5760405162461bcd60e51b815260040161075e90612f2d565b6000611cc583610e32565b9050806001600160a01b0316846001600160a01b03161480611d005750836001600160a01b0316611cf584610737565b6001600160a01b0316145b80611d105750611d1081856118cf565b949350505050565b826001600160a01b0316611d2b82610e32565b6001600160a01b031614611d515760405162461bcd60e51b815260040161075e906131c6565b6001600160a01b038216611d775760405162461bcd60e51b815260040161075e90612e7b565b611d82838383610816565b611d8d600082611a14565b6001600160a01b0383166000908152600560205260408120805460019290611db6908490613529565b90915550506001600160a01b0382166000908152600560205260408120805460019290611de49084906134fd565b909155505060008181526004602052604080822080546001600160a01b0319166001600160a01b0386811691821790925591518493918716917fddf252ad1be2c89b69c2b068fc378daa952ba7f163c4a11628f55a4df523b3ef91a4505050565b6000611e5082610e32565b9050611e5e81600084610816565b611e69600083611a14565b6001600160a01b0381166000908152600560205260408120805460019290611e92908490613529565b909155505060008281526004602052604080822080546001600160a01b0319169055518391906001600160a01b038416907fddf252ad1be2c89b69c2b068fc378daa952ba7f163c4a11628f55a4df523b3ef908390a45050565b611ef7848484611d18565b611f0384848484612405565b6111fb5760405162461bcd60e51b815260040161075e90612c2b565b6000808989898989604051602001611f3b959493929190612a68565b604051602081830303815290604052805190602001209050600081604051602001611f669190612a1c565b604051602081830303815290604052805190602001209050600060018286898960405160008152602001604052604051611fa39493929190612bc3565b6020604051602081039080840390855afa158015611fc5573d6000803e3d6000fd5b5050604051601f1901519d9c50505050505050505050505050565b5490565b604080516000808252602082019092526001600160a01b03841690839060405161200e919061299a565b60006040518083038185875af1925050503d806000811461204b576040519150601f19603f3d011682016040523d82523d6000602084013e612050565b606091505b50509050806108165760405162461bcd60e51b815260040161075e90612e1e565b600080856001600160a01b03166323b872dd86868660405160240161209893929190612ae8565b6040516020818303038152906040529060e01b6020820180516001600160e01b0383818316178352505050506040516120d1919061299a565b6000604051808303816000865af19150503d806000811461210e576040519150601f19603f3d011682016040523d82523d6000602084013e612113565b606091505b509150915081801561213d57508051158061213d57508080602001905181019061213d9190612838565b6121595760405162461bcd60e51b815260040161075e90612dc1565b505050505050565b6001600160a01b0382166121875760405162461bcd60e51b815260040161075e9061310e565b612190816119f3565b156121ad5760405162461bcd60e51b815260040161075e90612cf6565b6121b960008383610816565b6001600160a01b03821660009081526005602052604081208054600192906121e29084906134fd565b909155505060008181526004602052604080822080546001600160a01b0319166001600160a01b03861690811790915590518392907fddf252ad1be2c89b69c2b068fc378daa952ba7f163c4a11628f55a4df523b3ef908290a45050565b80546001019055565b6060600e80546106b39061356c565b60608161227d57506040805180820190915260018152600360fc1b602082015261069f565b8160005b81156122a75780612291816135a7565b91506122a09050600a83613515565b9150612281565b60008167ffffffffffffffff8111156122d057634e487b7160e01b600052604160045260246000fd5b6040519080825280601f01601f1916602001820160405280156122fa576020820181803683370190505b5090505b8415611d105761230f600183613529565b915061231c600a866135c2565b6123279060306134fd565b60f81b81838151811061234a57634e487b7160e01b600052603260045260246000fd5b60200101907effffffffffffffffffffffffffffffffffffffffffffffffffffffffffffff1916908160001a905350612384600a86613515565b94506122fe565b600060405180608001604052806043815260200161364060439139805160209182012083518483015160408087015180519086012090516123cc9501612b9f565b604051602081830303815290604052805190602001209050919050565b60006123f3612520565b826040516020016123cc929190612a4d565b6000612419846001600160a01b0316612526565b1561251557836001600160a01b031663150b7a02612435611a10565b8786866040518563ffffffff1660e01b81526004016124579493929190612b0c565b602060405180830381600087803b15801561247157600080fd5b505af19250505080156124a1575060408051601f3d908101601f1916820190925261249e91810190612870565b60015b6124fb573d8080156124cf576040519150601f19603f3d011682016040523d82523d6000602084013e6124d4565b606091505b5080516124f35760405162461bcd60e51b815260040161075e90612c2b565b805181602001fd5b6001600160e01b031916630a85bd0160e11b149050611d10565b506001949350505050565b60005490565b3b151590565b8280546125389061356c565b90600052602060002090601f01602090048101928261255a57600085556125a0565b82601f1061257357805160ff19168380011785556125a0565b828001600101855582156125a0579182015b828111156125a0578251825591602001919060010190612585565b506125ac9291506125b0565b5090565b5b808211156125ac57600081556001016125b1565b600067ffffffffffffffff808411156125e0576125e0613602565b604051601f8501601f19168101602001828111828210171561260457612604613602565b60405284815291508183850186101561261c57600080fd5b8484602083013760006020868301015250509392505050565b80356001600160a01b038116811461069f57600080fd5b600082601f83011261265c578081fd5b6118b1838335602085016125c5565b803560ff8116811461069f57600080fd5b60006020828403121561268d578081fd5b6118b182612635565b600080604083850312156126a8578081fd5b6126b183612635565b91506126bf60208401612635565b90509250929050565b6000806000606084860312156126dc578081fd5b6126e584612635565b92506126f360208501612635565b9150604084013590509250925092565b60008060008060808587031215612718578081fd5b61272185612635565b935061272f60208601612635565b925060408501359150606085013567ffffffffffffffff811115612751578182fd5b61275d8782880161264c565b91505092959194509250565b6000806040838503121561277b578182fd5b61278483612635565b9150602083013561279481613618565b809150509250929050565b600080600080600060a086880312156127b6578081fd5b6127bf86612635565b9450602086013567ffffffffffffffff8111156127da578182fd5b6127e68882890161264c565b94505060408601359250606086013591506128036080870161266b565b90509295509295909350565b60008060408385031215612821578182fd5b61282a83612635565b946020939093013593505050565b600060208284031215612849578081fd5b81516118b181613618565b600060208284031215612865578081fd5b81356118b181613629565b600060208284031215612881578081fd5b81516118b181613629565b60006020828403121561289d578081fd5b813567ffffffffffffffff8111156128b3578182fd5b8201601f810184136128c3578182fd5b611d10848235602084016125c5565b6000602082840312156128e3578081fd5b5035919050565b6000602082840312156128fb578081fd5b5051919050565b600080600080600080600080610100898b03121561291e578586fd5b8835975060208901359650604089013595506060890135945061294360808a01612635565b935060a0890135925060c0890135915061295f60e08a0161266b565b90509295985092959890939650565b60008151808452612986816020860160208601613540565b601f01601f19169290920160200192915050565b600082516129ac818460208701613540565b9190910192915050565b600083516129c8818460208801613540565b60609390931b6bffffffffffffffffffffffff19169190920190815260140192915050565b600083516129ff818460208801613540565b835190830190612a13818360208801613540565b01949350505050565b7f19457468657265756d205369676e6564204d6573736167653a0a3332000000008152601c810191909152603c0190565b61190160f01b81526002810192909252602282015260420190565b948552602085019390935260408401919091526060808401919091521b6bffffffffffffffffffffffff1916608082015260940190565b6001600160a01b0391909116815260200190565b60006001600160a01b03808616835280851660208401525060606040830152612adf606083018461296e565b95945050505050565b6001600160a01b039384168152919092166020820152604081019190915260600190565b60006001600160a01b03808716835280861660208401525083604083015260806060830152612b3e608083018461296e565b9695505050505050565b6001600160a01b03929092168252602082015260400190565b6001600160a01b039586168152602081019490945260408401929092529092166060820152608081019190915260a00190565b901515815260200190565b93845260208401929092526001600160a01b03166040830152606082015260800190565b93845260ff9290921660208401526040830152606082015260800190565b6000602082526118b1602083018461296e565b60208082526016908201527f556e6f52653a206578706972656420616c726561647900000000000000000000604082015260600190565b60208082526032908201527f4552433732313a207472616e7366657220746f206e6f6e20455243373231526560408201527f63656976657220696d706c656d656e7465720000000000000000000000000000606082015260800190565b60208082526013908201527f556e6f52653a207a65726f206164647265737300000000000000000000000000604082015260600190565b6020808252601c908201527f46756e6374696f6e2063616c6c206e6f74207375636365737366756c00000000604082015260600190565b6020808252601c908201527f4552433732313a20746f6b656e20616c7265616479206d696e74656400000000604082015260600190565b6020808252603d908201527f66756e6374696f6e5369676e61747572652063616e206e6f74206265206f662060408201527f657865637574654d6574615472616e73616374696f6e206d6574686f64000000606082015260800190565b6020808252601e908201527f556e6f52653a206d61726b656420746f20636c61696d20616c72656164790000604082015260600190565b60208082526031908201527f5472616e7366657248656c7065723a3a7472616e7366657246726f6d3a20747260408201527f616e7366657246726f6d206661696c6564000000000000000000000000000000606082015260800190565b60208082526034908201527f5472616e7366657248656c7065723a3a736166655472616e736665724554483a60408201527f20455448207472616e73666572206661696c6564000000000000000000000000606082015260800190565b60208082526024908201527f4552433732313a207472616e7366657220746f20746865207a65726f206164646040820152637265737360e01b606082015260800190565b60208082526019908201527f4552433732313a20617070726f766520746f2063616c6c657200000000000000604082015260600190565b60208082526011908201527f496e76616c6964207369676e6174757265000000000000000000000000000000604082015260600190565b6020808252602c908201527f4552433732313a206f70657261746f7220717565727920666f72206e6f6e657860408201526b34b9ba32b73a103a37b5b2b760a11b606082015260800190565b60208082526018908201527f556e6f52653a207369676e617475726520657870697265640000000000000000604082015260600190565b60208082526038908201527f4552433732313a20617070726f76652063616c6c6572206973206e6f74206f7760408201527f6e6572206e6f7220617070726f76656420666f7220616c6c0000000000000000606082015260800190565b60208082526015908201527f556e6f52653a20696e76616c6964207369676e65720000000000000000000000604082015260600190565b6020808252602a908201527f4552433732313a2062616c616e636520717565727920666f7220746865207a65604082015269726f206164647265737360b01b606082015260800190565b60208082526029908201527f4552433732313a206f776e657220717565727920666f72206e6f6e657869737460408201526832b73a103a37b5b2b760b91b606082015260800190565b6020808252601a908201527f556e6f52653a207a65726f206d6178207369676e656454696d65000000000000604082015260600190565b6020808252818101527f4552433732313a206d696e7420746f20746865207a65726f2061646472657373604082015260600190565b6020808252601c908201527f556e6f52653a2053616c6573506f6c69637920466f7262696464656e00000000604082015260600190565b6020808252602c908201527f4552433732313a20617070726f76656420717565727920666f72206e6f6e657860408201526b34b9ba32b73a103a37b5b2b760a11b606082015260800190565b60208082526029908201527f4552433732313a207472616e73666572206f6620746f6b656e2074686174206960408201526839903737ba1037bbb760b91b606082015260800190565b60208082526021908201527f5369676e657220616e64207369676e617475726520646f206e6f74206d6174636040820152600d60fb1b606082015260800190565b6020808252602f908201527f4552433732314d657461646174613a2055524920717565727920666f72206e6f60408201527f6e6578697374656e7420746f6b656e0000000000000000000000000000000000606082015260800190565b6020808252601e908201527f556e6f52653a206e6f742064656669656e64207072656d69756d506f6f6c0000604082015260600190565b6020808252602b908201527f5472616e7366657248656c7065723a3a73616665417070726f76653a2061707060408201526a1c9bdd994819985a5b195960aa1b606082015260800190565b60208082526021908201527f4552433732313a20617070726f76616c20746f2063757272656e74206f776e656040820152603960f91b606082015260800190565b60208082526031908201527f4552433732313a207472616e736665722063616c6c6572206973206e6f74206f60408201527f776e6572206e6f7220617070726f766564000000000000000000000000000000606082015260800190565b60208082526018908201527f556e6f52653a20696e73756666696369656e7420706169640000000000000000604082015260600190565b6020808252601f908201527f5265656e7472616e637947756172643a207265656e7472616e742063616c6c00604082015260600190565b61ffff91909116815260200190565b61ffff9290921682526001600160a01b0316602082015260400190565b600061ffff8416825260406020830152611d10604083018461296e565b90815260200190565b91825261ffff16602082015260400190565b93845260208401929092526040830152606082015260800190565b97885260208801969096526040870194909452606086019290925260808501526001600160a01b031660a0840152151560c0830152151560e08201526101000190565b60008219821115613510576135106135d6565b500190565b600082613524576135246135ec565b500490565b60008282101561353b5761353b6135d6565b500390565b60005b8381101561355b578181015183820152602001613543565b838111156111fb5750506000910152565b60028104600182168061358057607f821691505b602082108114156135a157634e487b7160e01b600052602260045260246000fd5b50919050565b60006000198214156135bb576135bb6135d6565b5060010190565b6000826135d1576135d16135ec565b500690565b634e487b7160e01b600052601160045260246000fd5b634e487b7160e01b600052601260045260246000fd5b634e487b7160e01b600052604160045260246000fd5b801515811461362657600080fd5b50565b6001600160e01b03198116811461362657600080fdfe4d6574615472616e73616374696f6e2875696e74323536206e6f6e63652c616464726573732066726f6d2c62797465732066756e6374696f6e5369676e617475726529a2646970667358221220b3d769ff4eb67c3eb5e193a7368738cb47b410203394021ab8a2a6883424ba4864736f6c63430008000033454950373132446f6d61696e28737472696e67206e616d652c737472696e672076657273696f6e2c6164647265737320766572696679696e67436f6e74726163742c627974657333322073616c7429a264697066735822122088f1de2305897aa6d31856edb90048c0b5ce54f2a90d83efe9783edc8ebf4b5d64736f6c63430008000033",
  "devdoc": {
    "kind": "dev",
    "methods": {},
    "version": 1
  },
  "userdoc": {
    "kind": "user",
    "methods": {},
    "version": 1
  },
  "storageLayout": {
    "storage": [
      {
        "astId": 114,
        "contract": "contracts/factories/SalesPolicyFactory.sol:SalesPolicyFactory",
        "label": "_status",
        "offset": 0,
        "slot": "0",
        "type": "t_uint256"
      },
      {
        "astId": 12864,
        "contract": "contracts/factories/SalesPolicyFactory.sol:SalesPolicyFactory",
        "label": "premiumPool",
        "offset": 0,
        "slot": "1",
        "type": "t_address"
      },
      {
        "astId": 12866,
        "contract": "contracts/factories/SalesPolicyFactory.sol:SalesPolicyFactory",
        "label": "owner",
        "offset": 0,
        "slot": "2",
        "type": "t_address"
      },
      {
        "astId": 12868,
        "contract": "contracts/factories/SalesPolicyFactory.sol:SalesPolicyFactory",
        "label": "exchangeAgent",
        "offset": 0,
        "slot": "3",
        "type": "t_address"
      },
      {
        "astId": 12870,
        "contract": "contracts/factories/SalesPolicyFactory.sol:SalesPolicyFactory",
        "label": "capitalAgent",
        "offset": 0,
        "slot": "4",
        "type": "t_address"
      },
      {
        "astId": 12875,
        "contract": "contracts/factories/SalesPolicyFactory.sol:SalesPolicyFactory",
        "label": "getProtocol",
        "offset": 0,
        "slot": "5",
        "type": "t_mapping(t_uint16,t_struct(Protocol)12862_storage)"
      },
      {
        "astId": 12878,
        "contract": "contracts/factories/SalesPolicyFactory.sol:SalesPolicyFactory",
        "label": "protocolIds",
        "offset": 0,
        "slot": "6",
        "type": "t_struct(Counter)2094_storage"
      },
      {
        "astId": 12880,
        "contract": "contracts/factories/SalesPolicyFactory.sol:SalesPolicyFactory",
        "label": "USDT_TOKEN",
        "offset": 0,
        "slot": "7",
        "type": "t_address"
      },
      {
        "astId": 12882,
        "contract": "contracts/factories/SalesPolicyFactory.sol:SalesPolicyFactory",
        "label": "UNO_TOKEN",
        "offset": 0,
        "slot": "8",
        "type": "t_address"
      }
    ],
    "types": {
      "t_address": {
        "encoding": "inplace",
        "label": "address",
        "numberOfBytes": "20"
      },
      "t_bool": {
        "encoding": "inplace",
        "label": "bool",
        "numberOfBytes": "1"
      },
      "t_mapping(t_uint16,t_struct(Protocol)12862_storage)": {
        "encoding": "mapping",
        "key": "t_uint16",
        "label": "mapping(uint16 => struct SalesPolicyFactory.Protocol)",
        "numberOfBytes": "32",
        "value": "t_struct(Protocol)12862_storage"
      },
      "t_string_storage": {
        "encoding": "bytes",
        "label": "string",
        "numberOfBytes": "32"
      },
      "t_struct(Counter)2094_storage": {
        "encoding": "inplace",
        "label": "struct Counters.Counter",
        "members": [
          {
            "astId": 2093,
            "contract": "contracts/factories/SalesPolicyFactory.sol:SalesPolicyFactory",
            "label": "_value",
            "offset": 0,
            "slot": "0",
            "type": "t_uint256"
          }
        ],
        "numberOfBytes": "32"
      },
      "t_struct(Protocol)12862_storage": {
        "encoding": "inplace",
        "label": "struct SalesPolicyFactory.Protocol",
        "members": [
          {
            "astId": 12845,
            "contract": "contracts/factories/SalesPolicyFactory.sol:SalesPolicyFactory",
            "label": "coverDuration",
            "offset": 0,
            "slot": "0",
            "type": "t_uint256"
          },
          {
            "astId": 12847,
            "contract": "contracts/factories/SalesPolicyFactory.sol:SalesPolicyFactory",
            "label": "mcr",
            "offset": 0,
            "slot": "1",
            "type": "t_uint256"
          },
          {
            "astId": 12849,
            "contract": "contracts/factories/SalesPolicyFactory.sol:SalesPolicyFactory",
            "label": "protocolAddress",
            "offset": 0,
            "slot": "2",
            "type": "t_address"
          },
          {
            "astId": 12851,
            "contract": "contracts/factories/SalesPolicyFactory.sol:SalesPolicyFactory",
            "label": "protocolCurrency",
            "offset": 0,
            "slot": "3",
            "type": "t_address"
          },
          {
            "astId": 12853,
            "contract": "contracts/factories/SalesPolicyFactory.sol:SalesPolicyFactory",
            "label": "name",
            "offset": 0,
            "slot": "4",
            "type": "t_string_storage"
          },
          {
            "astId": 12855,
            "contract": "contracts/factories/SalesPolicyFactory.sol:SalesPolicyFactory",
            "label": "productType",
            "offset": 0,
            "slot": "5",
            "type": "t_string_storage"
          },
          {
            "astId": 12857,
            "contract": "contracts/factories/SalesPolicyFactory.sol:SalesPolicyFactory",
            "label": "premiumDescription",
            "offset": 0,
            "slot": "6",
            "type": "t_string_storage"
          },
          {
            "astId": 12859,
            "contract": "contracts/factories/SalesPolicyFactory.sol:SalesPolicyFactory",
            "label": "salesPolicy",
            "offset": 0,
            "slot": "7",
            "type": "t_address"
          },
          {
            "astId": 12861,
            "contract": "contracts/factories/SalesPolicyFactory.sol:SalesPolicyFactory",
            "label": "exist",
            "offset": 20,
            "slot": "7",
            "type": "t_bool"
          }
        ],
        "numberOfBytes": "256"
      },
      "t_uint16": {
        "encoding": "inplace",
        "label": "uint16",
        "numberOfBytes": "2"
      },
      "t_uint256": {
        "encoding": "inplace",
        "label": "uint256",
        "numberOfBytes": "32"
      }
    }
  }
}