{
  "address": "0x8494A012CD4C303be172c476d84a670fc56fdb2f",
  "abi": [
    {
      "inputs": [
        {
          "internalType": "address",
          "name": "_owner",
          "type": "address"
        },
        {
          "internalType": "address",
          "name": "_usdcToken",
          "type": "address"
        },
        {
          "internalType": "address",
          "name": "_exchangeAgent",
          "type": "address"
        },
        {
          "internalType": "address",
          "name": "_premiumPool",
          "type": "address"
        },
        {
          "internalType": "address",
          "name": "_capitalAgent",
          "type": "address"
        }
      ],
      "stateMutability": "nonpayable",
      "type": "constructor"
    },
    {
      "anonymous": false,
      "inputs": [
        {
          "indexed": true,
          "internalType": "address",
          "name": "_premiumPool",
          "type": "address"
        }
      ],
      "name": "LogSetPremiumPool",
      "type": "event"
    },
    {
      "anonymous": false,
      "inputs": [
        {
          "indexed": false,
          "internalType": "uint16",
          "name": "_protocolIdx",
          "type": "uint16"
        },
        {
          "indexed": false,
          "internalType": "uint256",
          "name": "_mcr",
          "type": "uint256"
        }
      ],
      "name": "LogSetProtocolMCR",
      "type": "event"
    },
    {
      "anonymous": false,
      "inputs": [
        {
          "indexed": false,
          "internalType": "uint16",
          "name": "_protocolIdx",
          "type": "uint16"
        }
      ],
      "name": "ProtocolCreated",
      "type": "event"
    },
    {
      "inputs": [],
      "name": "USDC_TOKEN",
      "outputs": [
        {
          "internalType": "address",
          "name": "",
          "type": "address"
        }
      ],
      "stateMutability": "view",
      "type": "function"
    },
    {
      "inputs": [
        {
          "internalType": "string",
          "name": "_name",
          "type": "string"
        },
        {
          "internalType": "string",
          "name": "_productType",
          "type": "string"
        },
        {
          "internalType": "string",
          "name": "_premiumDescription",
          "type": "string"
        },
        {
          "internalType": "uint256",
          "name": "_coverDuration",
          "type": "uint256"
        },
        {
          "internalType": "address",
          "name": "_protocolAddress",
          "type": "address"
        },
        {
          "internalType": "address",
          "name": "_protocolCurrency",
          "type": "address"
        }
      ],
      "name": "addProtocol",
      "outputs": [],
      "stateMutability": "nonpayable",
      "type": "function"
    },
    {
      "inputs": [],
      "name": "allProtocolsLength",
      "outputs": [
        {
          "internalType": "uint256",
          "name": "",
          "type": "uint256"
        }
      ],
      "stateMutability": "view",
      "type": "function"
    },
    {
      "inputs": [
        {
          "internalType": "address",
          "name": "_premiumCurrency",
          "type": "address"
        }
      ],
      "name": "approvePremiumInPolicy",
      "outputs": [],
      "stateMutability": "nonpayable",
      "type": "function"
    },
    {
      "inputs": [],
      "name": "capitalAgent",
      "outputs": [
        {
          "internalType": "address",
          "name": "",
          "type": "address"
        }
      ],
      "stateMutability": "view",
      "type": "function"
    },
    {
      "inputs": [],
      "name": "exchangeAgent",
      "outputs": [
        {
          "internalType": "address",
          "name": "",
          "type": "address"
        }
      ],
      "stateMutability": "view",
      "type": "function"
    },
    {
      "inputs": [
        {
          "internalType": "uint16",
          "name": "",
          "type": "uint16"
        }
      ],
      "name": "getProtocol",
      "outputs": [
        {
          "internalType": "uint256",
          "name": "coverDuration",
          "type": "uint256"
        },
        {
          "internalType": "uint256",
          "name": "mcr",
          "type": "uint256"
        },
        {
          "internalType": "address",
          "name": "protocolAddress",
          "type": "address"
        },
        {
          "internalType": "address",
          "name": "protocolCurrency",
          "type": "address"
        },
        {
          "internalType": "string",
          "name": "name",
          "type": "string"
        },
        {
          "internalType": "string",
          "name": "productType",
          "type": "string"
        },
        {
          "internalType": "string",
          "name": "premiumDescription",
          "type": "string"
        },
        {
          "internalType": "bool",
          "name": "exist",
          "type": "bool"
        }
      ],
      "stateMutability": "view",
      "type": "function"
    },
    {
      "inputs": [
        {
          "internalType": "uint16",
          "name": "_protocolIdx",
          "type": "uint16"
        }
      ],
      "name": "getProtocolData",
      "outputs": [
        {
          "internalType": "string",
          "name": "protocolName",
          "type": "string"
        },
        {
          "internalType": "string",
          "name": "productType",
          "type": "string"
        },
        {
          "internalType": "address",
          "name": "protocolAddress",
          "type": "address"
        }
      ],
      "stateMutability": "view",
      "type": "function"
    },
    {
      "inputs": [
        {
          "internalType": "address",
          "name": "_exchangeAgent",
          "type": "address"
        },
        {
          "internalType": "address",
          "name": "_premiumPool",
          "type": "address"
        },
        {
          "internalType": "address",
          "name": "_capitalAgent",
          "type": "address"
        }
      ],
      "name": "newSalesPolicy",
      "outputs": [
        {
          "internalType": "address",
          "name": "",
          "type": "address"
        }
      ],
      "stateMutability": "nonpayable",
      "type": "function"
    },
    {
      "inputs": [],
      "name": "owner",
      "outputs": [
        {
          "internalType": "address",
          "name": "",
          "type": "address"
        }
      ],
      "stateMutability": "view",
      "type": "function"
    },
    {
      "inputs": [],
      "name": "premiumPool",
      "outputs": [
        {
          "internalType": "address",
          "name": "",
          "type": "address"
        }
      ],
      "stateMutability": "view",
      "type": "function"
    },
    {
      "inputs": [],
      "name": "salesPolicy",
      "outputs": [
        {
          "internalType": "address",
          "name": "",
          "type": "address"
        }
      ],
      "stateMutability": "view",
      "type": "function"
    },
    {
      "inputs": [
        {
          "internalType": "uint256",
          "name": "_maxDeadline",
          "type": "uint256"
        }
      ],
      "name": "setBuyPolicyMaxDeadlineInPolicy",
      "outputs": [],
      "stateMutability": "nonpayable",
      "type": "function"
    },
    {
      "inputs": [
        {
          "internalType": "address",
          "name": "_exchangeAgent",
          "type": "address"
        }
      ],
      "name": "setExchangeAgentInPolicy",
      "outputs": [],
      "stateMutability": "nonpayable",
      "type": "function"
    },
    {
      "inputs": [
        {
          "internalType": "address",
          "name": "_premiumPool",
          "type": "address"
        }
      ],
      "name": "setPremiumPool",
      "outputs": [],
      "stateMutability": "nonpayable",
      "type": "function"
    },
    {
      "inputs": [
        {
          "internalType": "address",
          "name": "_premiumPool",
          "type": "address"
        }
      ],
      "name": "setPremiumPoolInPolicy",
      "outputs": [],
      "stateMutability": "nonpayable",
      "type": "function"
    },
    {
      "inputs": [
        {
          "internalType": "uint16",
          "name": "_protocolIdx",
          "type": "uint16"
        },
        {
          "internalType": "uint256",
          "name": "_mcr",
          "type": "uint256"
        }
      ],
      "name": "setProtocolMCR",
      "outputs": [],
      "stateMutability": "nonpayable",
      "type": "function"
    },
    {
      "inputs": [
        {
          "internalType": "string",
          "name": "_uri",
          "type": "string"
        }
      ],
      "name": "setProtocolURIInPolicy",
      "outputs": [],
      "stateMutability": "nonpayable",
      "type": "function"
    },
    {
      "inputs": [
        {
          "internalType": "address",
          "name": "_signer",
          "type": "address"
        }
      ],
      "name": "setSignerInPolicy",
      "outputs": [],
      "stateMutability": "nonpayable",
      "type": "function"
    }
  ],
  "transactionHash": "0x891a1801cefb730b00c1de59b2ebca1055c17410de3cdddebf60854b1b309499",
  "args": [
    "0x5569BDF4e02cec3fE459796e3d0e741616029fA4",
    "0x40c035016AD732b6cFce34c3F881040B6C6cf71E",
    "0xe3EB3D23824d7838d5B35020CC582675C5Cb2D32",
    "0x23DAbF8BF05e5003528Ac8A36b9De0473413fc88",
    "0x621082C39FeeDF285E16Af121DC29CF85743fDAa"
  ],
  "solcInputHash": "83a1e06e18c2c188d1ba5cc7d2484859",
  "bytecode": "0x60806040523480156200001157600080fd5b506040516200593b3803806200593b83398101604081905262000034916200018d565b60016000556001600160a01b0385166200006b5760405162461bcd60e51b815260040162000062906200029f565b60405180910390fd5b6001600160a01b038416620000945760405162461bcd60e51b8152600401620000629062000268565b6001600160a01b038316620000bd5760405162461bcd60e51b81526004016200006290620002d6565b6001600160a01b038216620000e65760405162461bcd60e51b8152600401620000629062000231565b6001600160a01b0381166200010f5760405162461bcd60e51b81526004016200006290620001fc565b600880546001600160a01b03199081166001600160a01b039687161790915560028054821696861696909617909555600180548616928516929092179091556003805485169284169290921790915560048054909316911617905562000317565b80516001600160a01b03811681146200018857600080fd5b919050565b600080600080600060a08688031215620001a5578081fd5b620001b08662000170565b9450620001c06020870162000170565b9350620001d06040870162000170565b9250620001e06060870162000170565b9150620001f06080870162000170565b90509295509295909350565b6020808252818101527f556e6f52653a207a65726f206361706974616c4167656e742061646472657373604082015260600190565b6020808252601f908201527f556e6f52653a207a65726f207072656d69756d506f6f6c206164647265737300604082015260600190565b60208082526018908201527f556e6f52653a207a65726f205553444320616464726573730000000000000000604082015260600190565b60208082526019908201527f556e6f52653a207a65726f206f776e6572206164647265737300000000000000604082015260600190565b60208082526021908201527f556e6f52653a207a65726f2065786368616e67654167656e74206164647265736040820152607360f81b606082015260800190565b61561480620003276000396000f3fe60806040523480156200001157600080fd5b50600436106200013c5760003560e01c8063b381ff8211620000bd578063d191097e116200007b578063d191097e146200027c578063d2c7c2a41462000293578063d9203b9114620002c0578063dfca978114620002ca578063fa56927414620002e1576200013c565b8063b381ff821462000203578063b64a775e146200021c578063bbd9d8e11462000233578063bcd54f0c146200025b578063c3c3b55b1462000272576200013c565b80634ba69faa116200010b5780634ba69faa14620001aa5780638bc798dc14620001b45780638da5cb5b14620001cb578063ab17ef8214620001d5578063b31b9fee14620001ec576200013c565b806302f3318d14620001415780630ea3b563146200015a5780631bcc24721462000171578063421981601462000188575b600080fd5b620001586200015236600462001022565b620002eb565b005b620001586200016b36600462001224565b620003b3565b620001586200018236600462001022565b6200045f565b62000192620004ff565b604051620001a19190620012b7565b60405180910390f35b620001926200050e565b62000158620001c536600462001022565b6200051d565b62000192620005a5565b62000158620001e63660046200108f565b620005b4565b62000192620001fd36600462001046565b62000834565b6200020d62000972565b604051620001a191906200148b565b620001586200022d36600462001022565b62000985565b6200024a6200024436600462001207565b62000a0d565b604051620001a19392919062001312565b620001586200026c3660046200115c565b62000b78565b6200019262000bd7565b620001586200028d36600462001250565b62000be6565b620002aa620002a436600462001207565b62000c68565b604051620001a198979695949392919062001494565b6200019262000e6b565b62000158620002db36600462001022565b62000e7a565b6200019262000ed9565b6002546001600160a01b03163314620003215760405162461bcd60e51b81526004016200031890620013c3565b60405180910390fd5b6001600160a01b0381166200034a5760405162461bcd60e51b8152600401620003189062001355565b600554604051630de6123960e11b81526001600160a01b0390911690631bcc2472906200037c908490600401620012b7565b600060405180830381600087803b1580156200039757600080fd5b505af1158015620003ac573d6000803e3d6000fd5b5050505050565b6002546001600160a01b03163314620003e05760405162461bcd60e51b81526004016200031890620013c3565b60008111620004035760405162461bcd60e51b815260040162000318906200138c565b61ffff8216600090815260066020526040908190206001810183905590517fce9bfac800790847f5a11bfe3df969c5563f99ea96e4544a235410640627154d9062000452908590859062001477565b60405180910390a1505050565b6002546001600160a01b031633146200048c5760405162461bcd60e51b81526004016200031890620013c3565b6001600160a01b038116620004b55760405162461bcd60e51b8152600401620003189062001355565b600180546001600160a01b0319166001600160a01b0383169081179091556040517faa0150507cbcab99f33127173fcbdd580e5710d253406b99952e1feda3cdcc0e90600090a250565b6004546001600160a01b031681565b6001546001600160a01b031681565b6002546001600160a01b031633146200054a5760405162461bcd60e51b81526004016200031890620013c3565b6001600160a01b038116620005735760405162461bcd60e51b8152600401620003189062001355565b600554604051636c19e78360e01b81526001600160a01b0390911690636c19e783906200037c908490600401620012b7565b6002546001600160a01b031681565b6002546001600160a01b03163314620005e15760405162461bcd60e51b81526004016200031890620013c3565b60026000541415620006075760405162461bcd60e51b8152600401620003189062001431565b600260009081556200061a600762000ee8565b9050600082905060405180610100016040528086815260200160018152602001856001600160a01b03168152602001826001600160a01b031681526020018c8c8080601f016020809104026020016040519081016040528093929190818152602001838380828437600092019190915250505090825250604080516020601f8d018190048102820181019092528b815291810191908c908c9081908401838280828437600092019190915250505090825250604080516020601f8b0181900481028201810190925289815291810191908a908a9081908401838280828437600092018290525093855250506001602093840181905261ffff8716835260068452604092839020855181558585015191810191909155918401516002830180546001600160a01b039283166001600160a01b031991821617909155606086015160038501805491909316911617905550608083015180519192620007869260048501929091019062000ef9565b5060a08201518051620007a491600584019160209091019062000ef9565b5060c08201518051620007c291600684019160209091019062000ef9565b5060e091909101516007918201805460ff1916911515919091179055620007e99062000ef0565b7f72bad1508ad72fc57385ebb6fe856b8a7d6a16afc50e9660ce3761f355468a82826040516200081a919062001468565b60405180910390a150506001600055505050505050505050565b6002546000906001600160a01b03163314620008645760405162461bcd60e51b81526004016200031890620013c3565b600260005414156200088a5760405162461bcd60e51b8152600401620003189062001431565b6002600090815560085460405130918791879187916001600160a01b0390911690620008b69062000f88565b620008c6959493929190620012cb565b604051809103906000f080158015620008e3573d6000803e3d6000fd5b50600580546001600160a01b0319166001600160a01b038381169190911790915560048054604051637d4163d360e01b815293945090911691637d4163d3916200093091859101620012b7565b600060405180830381600087803b1580156200094b57600080fd5b505af115801562000960573d6000803e3d6000fd5b50506001600055509095945050505050565b600062000980600762000ee8565b905090565b6002546001600160a01b03163314620009b25760405162461bcd60e51b81526004016200031890620013c3565b6001600160a01b038116620009db5760405162461bcd60e51b8152600401620003189062001355565b600554604051630c5006c760e11b81526001600160a01b03909116906318a00d8e906200037c908490600401620012b7565b61ffff811660009081526006602052604081206002810154600482018054606094859490936005909101916001600160a01b0390911690839062000a519062001513565b80601f016020809104026020016040519081016040528092919081815260200182805462000a7f9062001513565b801562000ad05780601f1062000aa45761010080835404028352916020019162000ad0565b820191906000526020600020905b81548152906001019060200180831162000ab257829003601f168201915b5050505050925081805462000ae59062001513565b80601f016020809104026020016040519081016040528092919081815260200182805462000b139062001513565b801562000b645780601f1062000b385761010080835404028352916020019162000b64565b820191906000526020600020905b81548152906001019060200180831162000b4657829003601f168201915b505050505091509250925092509193909250565b6002546001600160a01b0316331462000ba55760405162461bcd60e51b81526004016200031890620013c3565b6005546040516313b41ce760e31b81526001600160a01b0390911690639da0e738906200037c908490600401620012fd565b6005546001600160a01b031681565b6002546001600160a01b0316331462000c135760405162461bcd60e51b81526004016200031890620013c3565b6000811162000c365760405162461bcd60e51b81526004016200031890620013fa565b60055460405163fda2071d60e01b81526001600160a01b039091169063fda2071d906200037c9084906004016200148b565b60066020526000908152604090208054600182015460028301546003840154600485018054949593946001600160a01b0393841694929093169262000cad9062001513565b80601f016020809104026020016040519081016040528092919081815260200182805462000cdb9062001513565b801562000d2c5780601f1062000d005761010080835404028352916020019162000d2c565b820191906000526020600020905b81548152906001019060200180831162000d0e57829003601f168201915b50505050509080600501805462000d439062001513565b80601f016020809104026020016040519081016040528092919081815260200182805462000d719062001513565b801562000dc25780601f1062000d965761010080835404028352916020019162000dc2565b820191906000526020600020905b81548152906001019060200180831162000da457829003601f168201915b50505050509080600601805462000dd99062001513565b80601f016020809104026020016040519081016040528092919081815260200182805462000e079062001513565b801562000e585780601f1062000e2c5761010080835404028352916020019162000e58565b820191906000526020600020905b81548152906001019060200180831162000e3a57829003601f168201915b5050506007909301549192505060ff1688565b6003546001600160a01b031681565b6002546001600160a01b0316331462000ea75760405162461bcd60e51b81526004016200031890620013c3565b6005546040516321ecf70160e01b81526001600160a01b03909116906321ecf701906200037c908490600401620012b7565b6008546001600160a01b031681565b80545b919050565b80546001019055565b82805462000f079062001513565b90600052602060002090601f01602090048101928262000f2b576000855562000f76565b82601f1062000f4657805160ff191683800117855562000f76565b8280016001018555821562000f76579182015b8281111562000f7657825182559160200191906001019062000f59565b5062000f8492915062000f96565b5090565b614078806200156783390190565b5b8082111562000f84576000815560010162000f97565b80356001600160a01b038116811462000eeb57600080fd5b60008083601f84011262000fd7578081fd5b50813567ffffffffffffffff81111562000fef578182fd5b6020830191508360208285010111156200100857600080fd5b9250929050565b803561ffff8116811462000eeb57600080fd5b60006020828403121562001034578081fd5b6200103f8262000fad565b9392505050565b6000806000606084860312156200105b578182fd5b620010668462000fad565b9250620010766020850162000fad565b9150620010866040850162000fad565b90509250925092565b600080600080600080600080600060c08a8c031215620010ad578485fd5b893567ffffffffffffffff80821115620010c5578687fd5b620010d38d838e0162000fc5565b909b50995060208c0135915080821115620010ec578687fd5b620010fa8d838e0162000fc5565b909950975060408c013591508082111562001113578687fd5b50620011228c828d0162000fc5565b90965094505060608a013592506200113d60808b0162000fad565b91506200114d60a08b0162000fad565b90509295985092959850929598565b600060208083850312156200116f578182fd5b823567ffffffffffffffff8082111562001187578384fd5b818501915085601f8301126200119b578384fd5b813581811115620011b057620011b062001550565b604051601f8201601f1916810185018381118282101715620011d657620011d662001550565b6040528181528382018501881015620011ed578586fd5b818585018683013790810190930193909352509392505050565b60006020828403121562001219578081fd5b6200103f826200100f565b6000806040838503121562001237578182fd5b62001242836200100f565b946020939093013593505050565b60006020828403121562001262578081fd5b5035919050565b60008151808452815b81811015620012905760208185018101518683018201520162001272565b81811115620012a25782602083870101525b50601f01601f19169290920160200192915050565b6001600160a01b0391909116815260200190565b6001600160a01b0395861681529385166020850152918416604084015283166060830152909116608082015260a00190565b6000602082526200103f602083018462001269565b60006060825262001327606083018662001269565b82810360208401526200133b818662001269565b9150506001600160a01b0383166040830152949350505050565b60208082526013908201527f556e6f52653a207a65726f206164647265737300000000000000000000000000604082015260600190565b6020808252600f908201527f556e6f52653a207a65726f206d63720000000000000000000000000000000000604082015260600190565b60208082526010908201527f556e6f52653a20466f7262696464656e00000000000000000000000000000000604082015260600190565b60208082526018908201527f556e6f52653a207a65726f206d617820646561646c696e650000000000000000604082015260600190565b6020808252601f908201527f5265656e7472616e637947756172643a207265656e7472616e742063616c6c00604082015260600190565b61ffff91909116815260200190565b61ffff929092168252602082015260400190565b90815260200190565b60006101008a83528960208401526001600160a01b03808a166040850152808916606085015250806080840152620014cf8184018862001269565b905082810360a0840152620014e5818762001269565b905082810360c0840152620014fb818662001269565b91505082151560e08301529998505050505050505050565b6002810460018216806200152857607f821691505b602082108114156200154a57634e487b7160e01b600052602260045260246000fd5b50919050565b634e487b7160e01b600052604160045260246000fdfe60c06040526000196011553480156200001757600080fd5b5060405162004078380380620040788339810160408190526200003a9162000396565b6040518060400160405280601081526020016f506f6c69637920696e737572616e636560801b8152506040518060400160405280601081526020016f506f6c69637920696e737572616e636560801b8152506040518060400160405280601881526020017f427579506f6c6963794d6574615472616e73616374696f6e0000000000000000815250604051806040016040528060018152602001603160f81b81525081816040518060800160405280604f815260200162004029604f913980519060200120828051906020012082805190602001203062000120620002cf60201b60201c565b6040516200013695949392919060200162000405565b60408051601f19818403018152919052805160209182012060005586516200016a95506002945090870192509050620002d3565b50805162000180906003906020840190620002d3565b50506001600855506001600160a01b038516620001ba5760405162461bcd60e51b8152600401620001b190620004d4565b60405180910390fd5b6001600160a01b038416620001e35760405162461bcd60e51b8152600401620001b1906200050b565b6001600160a01b0383166200020c5760405162461bcd60e51b8152600401620001b19062000466565b6001600160a01b038216620002355760405162461bcd60e51b8152600401620001b19062000431565b6001600160a01b0381166200025e5760405162461bcd60e51b8152600401620001b1906200049d565b606094851b6001600160601b0319908116608052600a805462010000600160b01b031916620100006001600160a01b0397881602179055600c80546001600160a01b0319908116948716949094179055941b90931660a052600b8054909316911617905562093a8060095562000589565b4690565b828054620002e1906200054c565b90600052602060002090601f01602090048101928262000305576000855562000350565b82601f106200032057805160ff191683800117855562000350565b8280016001018555821562000350579182015b828111156200035057825182559160200191906001019062000333565b506200035e92915062000362565b5090565b5b808211156200035e576000815560010162000363565b80516001600160a01b03811681146200039157600080fd5b919050565b600080600080600060a08688031215620003ae578081fd5b620003b98662000379565b9450620003c96020870162000379565b9350620003d96040870162000379565b9250620003e96060870162000379565b9150620003f96080870162000379565b90509295509295909350565b948552602085019390935260408401919091526001600160a01b03166060830152608082015260a00190565b6020808252818101527f556e6f52653a207a65726f206361706974616c4167656e742061646472657373604082015260600190565b6020808252601f908201527f556e6f52653a207a65726f207072656d69756d506f6f6c206164647265737300604082015260600190565b60208082526018908201527f556e6f52653a207a65726f205553444320616464726573730000000000000000604082015260600190565b6020808252601b908201527f556e6f52653a207a65726f20666163746f727920616464726573730000000000604082015260600190565b60208082526021908201527f556e6f52653a207a65726f2065786368616e67654167656e74206164647265736040820152607360f81b606082015260800190565b6002810460018216806200056157607f821691505b602082108114156200058357634e487b7160e01b600052602260045260246000fd5b50919050565b60805160601c60a05160601c613a3c620005ed60003960008181610f4d01526117e50152600081816109d301528181610ac701528181610b9c01528181611256015281816113a001528181611624015281816116f901526118090152613a3c6000f3fe6080604052600436106102085760003560e01c80634d8dbb3c11610118578063b88d4fde116100a0578063d341960b1161006f578063d341960b146105db578063de4e4201146105f0578063e985e9c514610605578063fa56927414610625578063fda2071d1461063a5761020f565b8063b88d4fde14610566578063c2eb8eb914610586578063c45a0155146105a6578063c87b56dd146105bb5761020f565b80637a5402e9116100e75780637a5402e9146104c257806395d89b41146104f15780639da0e73814610506578063a22cb46514610526578063a5d5e142146105465761020f565b80634d8dbb3c146104405780636352211e146104625780636c19e7831461048257806370a08231146104a25761020f565b8063238ac9331161019b5780632d0335ab1161016a5780632d0335ab146103a957806333b3691e146103d657806342198160146103f657806342842e0e1461040b5780634ba69faa1461042b5761020f565b8063238ac9331461032e57806323b872dd1461034357806329a2731c146103635780632b07fce3146103765761020f565b80630c53c51c116101d75780630c53c51c146102bb57806318a00d8e146102ce5780631bcc2472146102ee57806321ecf7011461030e5761020f565b806301ffc9a71461021457806306fdde031461024a578063081812fc1461026c578063095ea7b3146102995761020f565b3661020f57005b600080fd5b34801561022057600080fd5b5061023461022f366004612aee565b61065a565b6040516102419190612e08565b60405180910390f35b34801561025657600080fd5b5061025f6106a2565b6040516102419190612e55565b34801561027857600080fd5b5061028c610287366004612b6c565b610735565b6040516102419190612d13565b3480156102a557600080fd5b506102b96102b43660046129dc565b610781565b005b61025f6102c936600461296c565b610819565b3480156102da57600080fd5b506102b96102e9366004612849565b6109d1565b3480156102fa57600080fd5b506102b9610309366004612849565b610ac5565b34801561031a57600080fd5b506102b9610329366004612849565b610b9a565b34801561033a57600080fd5b5061028c610caa565b34801561034f57600080fd5b506102b961035e366004612895565b610cb9565b6102b9610371366004612a05565b610cf1565b34801561038257600080fd5b50610396610391366004612b6c565b6110ac565b604051610241979695949392919061381a565b3480156103b557600080fd5b506103c96103c4366004612849565b6110fa565b60405161024191906137e9565b3480156103e257600080fd5b506102b96103f1366004612b6c565b611115565b34801561040257600080fd5b5061028c6111dc565b34801561041757600080fd5b506102b9610426366004612895565b6111eb565b34801561043757600080fd5b5061028c611206565b34801561044c57600080fd5b50610455611215565b60405161024191906137a0565b34801561046e57600080fd5b5061028c61047d366004612b6c565b61121f565b34801561048e57600080fd5b506102b961049d366004612849565b611254565b3480156104ae57600080fd5b506103c96104bd366004612849565b611329565b3480156104ce57600080fd5b506104e26104dd366004612b6c565b61136d565b60405161024193929190613804565b3480156104fd57600080fd5b5061025f61138f565b34801561051257600080fd5b506102b9610521366004612b26565b61139e565b34801561053257600080fd5b506102b9610541366004612936565b61144f565b34801561055257600080fd5b506102b9610561366004612b6c565b61151d565b34801561057257600080fd5b506102b96105813660046128d0565b6115e3565b34801561059257600080fd5b506102b96105a1366004612849565b611622565b3480156105b257600080fd5b5061028c6116f7565b3480156105c757600080fd5b5061025f6105d6366004612b6c565b61171b565b3480156105e757600080fd5b506103c961179e565b3480156105fc57600080fd5b506103c96117af565b34801561061157600080fd5b50610234610620366004612863565b6117b5565b34801561063157600080fd5b5061028c6117e3565b34801561064657600080fd5b506102b9610655366004612b6c565b611807565b60006001600160e01b031982166380ac58cd60e01b148061068b57506001600160e01b03198216635b5e139f60e01b145b8061069a575061069a826118c0565b90505b919050565b6060600280546106b1906138f0565b80601f01602080910402602001604051908101604052809291908181526020018280546106dd906138f0565b801561072a5780601f106106ff5761010080835404028352916020019161072a565b820191906000526020600020905b81548152906001019060200180831161070d57829003601f168201915b505050505090505b90565b6000610740826118d9565b6107655760405162461bcd60e51b815260040161075c906133ee565b60405180910390fd5b506000908152600660205260409020546001600160a01b031690565b600061078c8261121f565b9050806001600160a01b0316836001600160a01b031614156107c05760405162461bcd60e51b815260040161075c906135da565b806001600160a01b03166107d26118f6565b6001600160a01b031614806107ee57506107ee816106206118f6565b61080a5760405162461bcd60e51b815260040161075c90613224565b61081483836118fa565b505050565b6060600061082686611968565b90506000356001600160e01b031990811690821614156108585760405162461bcd60e51b815260040161075c90612fa1565b604080516060810182526001600160a01b038916600081815260016020908152908490205483528201529081018790526108958882888888611984565b6108b15760405162461bcd60e51b815260040161075c90613483565b6001600160a01b0388166000908152600160208190526040909120546108d691613881565b6001600160a01b038916600090815260016020908152604080832093909355915190918291309161090b918c918e9101612c16565b60408051601f198184030181529082905261092591612bfa565b6000604051808303816000865af19150503d8060008114610962576040519150601f19603f3d011682016040523d82523d6000602084013e610967565b606091505b5091509150816109895760405162461bcd60e51b815260040161075c90612f33565b7f5845892132946850460bff5a0083f71031bc5bf9aadcd40f1de79423eac9b10b8a338b6040516109bc93929190612d27565b60405180910390a19998505050505050505050565b7f00000000000000000000000000000000000000000000000000000000000000006001600160a01b0316610a03611a30565b6001600160a01b031614610a295760405162461bcd60e51b815260040161075c906133b7565b6001600160a01b038116610a4f5760405162461bcd60e51b815260040161075c90612efc565b600a805475ffffffffffffffffffffffffffffffffffffffff00001916620100006001600160a01b038416908102919091179182905560405130927fc3177381220e3683a27c54985d092dbe1cb47c9120f3053c10284834dfda5f1b91610aba9161ffff16906137a0565b60405180910390a350565b7f00000000000000000000000000000000000000000000000000000000000000006001600160a01b0316610af7611a30565b6001600160a01b031614610b1d5760405162461bcd60e51b815260040161075c906133b7565b6001600160a01b038116610b435760405162461bcd60e51b815260040161075c90612efc565b600b80546001600160a01b0319166001600160a01b038316908117909155600a546040513092917f94128e4300bfd33abb55528d41b5b229e819cf4f2abedfc04ff18c8abab199c491610aba9161ffff16906137a0565b7f00000000000000000000000000000000000000000000000000000000000000006001600160a01b0316610bcc611a30565b6001600160a01b031614610bf25760405162461bcd60e51b815260040161075c906133b7565b6001600160a01b038116610c185760405162461bcd60e51b815260040161075c90612efc565b600b546001600160a01b0316610c405760405162461bcd60e51b815260040161075c90613521565b600b54601154610c5d9183916001600160a01b0390911690611a8c565b600a54600b546040516001600160a01b038481169330937f722454f4bb0415a0cbc72420f236cd42ec5e56259afafb401deaa9c284c02d5393610aba9361ffff90931692909116906137af565b600d546001600160a01b031681565b610cca610cc46118f6565b82611b79565b610ce65760405162461bcd60e51b815260040161075c90613678565b610814838383611bfe565b60026008541415610d145760405162461bcd60e51b815260040161075c90613769565b6002600855885180610d385760405162461bcd60e51b815260040161075c90613558565b88518114610d585760405162461bcd60e51b815260040161075c9061361b565b87518114610d785760405162461bcd60e51b815260040161075c9061370c565b6000610d8b888c8b8d8b8b8b8b8b611d2b565b90506001600160a01b03811615801590610db25750600d546001600160a01b038281169116145b610dce5760405162461bcd60e51b815260040161075c90613281565b428711158015610de85750600954610de688426138ad565b105b610e045760405162461bcd60e51b815260040161075c906131ed565b60006001600160a01b038716610f4b57600a5460405163531a221160e01b8152620100009091046001600160a01b03169063531a221190610e49908c906004016137e9565b60206040518083038186803b158015610e6157600080fd5b505afa158015610e75573d6000803e3d6000fd5b505050506040513d601f19601f82011682018060405250810190610e999190612b84565b905080341015610ebb5760405162461bcd60e51b815260040161075c906136d5565b80341115610edd57610edd610ece611a30565b610ed883346138ad565b611def565b600b60009054906101000a90046001600160a01b03166001600160a01b031663bc181416826040518263ffffffff1660e01b81526004016000604051808303818588803b158015610f2d57600080fd5b505af1158015610f41573d6000803e3d6000fd5b505050505061108c565b7f00000000000000000000000000000000000000000000000000000000000000006001600160a01b0316876001600160a01b03161415610f8b5788611012565b600a5460405163a9a12d4360e01b8152620100009091046001600160a01b03169063a9a12d4390610fc2908a908d90600401612dbc565b60206040518083038186803b158015610fda57600080fd5b505afa158015610fee573d6000803e3d6000fd5b505050506040513d601f19601f820116820180604052508101906110129190612b84565b905061102787611020611a30565b3084611e7c565b600b54604051638c8ac76d60e01b81526001600160a01b0390911690638c8ac76d90611059908a908590600401612dbc565b600060405180830381600087803b15801561107357600080fd5b505af1158015611087573d6000803e3d6000fd5b505050505b6110998c8c8c848b611f6c565b5050600160085550505050505050505050565b60106020526000908152604090208054600182015460028301546003840154600490940154929391929091906001600160a01b0381169060ff600160a01b8204811691600160a81b90041687565b6001600160a01b031660009081526001602052604090205490565b600260085414156111385760405162461bcd60e51b815260040161075c90613769565b6002600855600c546001600160a01b0316611151611a30565b6001600160a01b0316146111775760405162461bcd60e51b815260040161075c906133b7565b600081815260106020526040902060040154600160a01b900460ff166111af5760405162461bcd60e51b815260040161075c90612ffe565b6000818152601060205260409020600401805460ff60a01b191690556111d4816121e6565b506001600855565b600c546001600160a01b031681565b610814838383604051806020016040528060008152506115e3565b600b546001600160a01b031681565b600a5461ffff1681565b6000818152600460205260408120546001600160a01b03168061069a5760405162461bcd60e51b815260040161075c90613302565b7f00000000000000000000000000000000000000000000000000000000000000006001600160a01b0316611286611a30565b6001600160a01b0316146112ac5760405162461bcd60e51b815260040161075c906133b7565b6001600160a01b0381166112d25760405162461bcd60e51b815260040161075c90612efc565b600d80546001600160a01b0319166001600160a01b038316908117909155600a546040513092917fd9763970fede39242cdd022989dc223021c84e3a2466a675e86ade06ee2c361a91610aba9161ffff16906137a0565b60006001600160a01b0382166113515760405162461bcd60e51b815260040161075c906132b8565b506001600160a01b031660009081526005602052604090205490565b6000908152601060205260409020600381015460028201546001909201549092565b6060600380546106b1906138f0565b7f00000000000000000000000000000000000000000000000000000000000000006001600160a01b03166113d0611a30565b6001600160a01b0316146113f65760405162461bcd60e51b815260040161075c906133b7565b805161140990600e90602084019061268f565b50600a5460405130917f23ff632ee616fb8c7e8f7e3cbd753181800ea4c090ac021dd7a68f79b7acbd21916114449161ffff169085906137cc565b60405180910390a250565b6114576118f6565b6001600160a01b0316826001600160a01b031614156114885760405162461bcd60e51b815260040161075c90613133565b80600760006114956118f6565b6001600160a01b03908116825260208083019390935260409182016000908120918716808252919093529120805460ff1916921515929092179091556114d96118f6565b6001600160a01b03167f17307eab39ab6107e8899845ad3d59bd9653f200f220920489ca2b5937696c31836040516115119190612e08565b60405180910390a35050565b600260085414156115405760405162461bcd60e51b815260040161075c90613769565b6002600855600c546001600160a01b0316611559611a30565b6001600160a01b03161461157f5760405162461bcd60e51b815260040161075c906133b7565b600081815260106020526040902060040154600160a01b900460ff16156115b85760405162461bcd60e51b815260040161075c90612e68565b6000818152601060205260409020600401805460ff60a81b1916600160a81b1790556111d4816121e6565b6115f46115ee6118f6565b83611b79565b6116105760405162461bcd60e51b815260040161075c90613678565b61161c8484848461228d565b50505050565b7f00000000000000000000000000000000000000000000000000000000000000006001600160a01b0316611654611a30565b6001600160a01b03161461167a5760405162461bcd60e51b815260040161075c906133b7565b6001600160a01b0381166116a05760405162461bcd60e51b815260040161075c90612efc565b600c80546001600160a01b0319166001600160a01b038316908117909155600a546040513092917fc3177381220e3683a27c54985d092dbe1cb47c9120f3053c10284834dfda5f1b91610aba9161ffff16906137a0565b7f000000000000000000000000000000000000000000000000000000000000000081565b6060611726826118d9565b6117425760405162461bcd60e51b815260040161075c906134c4565b600061174c6122c0565b9050600081511161176c5760405180602001604052806000815250611797565b80611776846122cf565b604051602001611787929190612c4d565b6040516020818303038152906040525b9392505050565b60006117aa600f612402565b905090565b60095481565b6001600160a01b03918216600090815260076020908152604080832093909416825291909152205460ff1690565b7f000000000000000000000000000000000000000000000000000000000000000081565b7f00000000000000000000000000000000000000000000000000000000000000006001600160a01b0316611839611a30565b6001600160a01b03161461185f5760405162461bcd60e51b815260040161075c906133b7565b6000811161187f5760405162461bcd60e51b815260040161075c9061334b565b6009819055600a5460405130917f317b924d7be379083195d8458727e3bbbe596f3c7229ee96f2ad885fd7e0f4419161144491859161ffff909116906137f2565b6001600160e01b031981166301ffc9a760e01b14919050565b6000908152600460205260409020546001600160a01b0316151590565b3390565b600081815260066020526040902080546001600160a01b0319166001600160a01b038416908117909155819061192f8261121f565b6001600160a01b03167f8c5be1e5ebec7d5bd14f71427d1e84f3dd0314c0f7b2291e5b200ac8c7c3b92560405160405180910390a45050565b600081516000141561197c5750600061069d565b506020015190565b600080600161199a61199588612406565b612464565b848787604051600081526020016040526040516119ba9493929190612e37565b6020604051602081039080840390855afa1580156119dc573d6000803e3d6000fd5b5050604051601f1901519150506001600160a01b038116611a0f5760405162461bcd60e51b815260040161075c9061316a565b866001600160a01b0316816001600160a01b03161491505095945050505050565b600033301415611a8757600080368080601f0160208091040260200160405190810160405280939291908181526020018383808284376000920191909152505050503601516001600160a01b031691506107329050565b503390565b600080846001600160a01b031663095ea7b38585604051602401611ab1929190612dbc565b6040516020818303038152906040529060e01b6020820180516001600160e01b038381831617835250505050604051611aea9190612bfa565b6000604051808303816000865af19150503d8060008114611b27576040519150601f19603f3d011682016040523d82523d6000602084013e611b2c565b606091505b5091509150818015611b56575080511580611b56575080806020019051810190611b569190612ad2565b611b725760405162461bcd60e51b815260040161075c9061358f565b5050505050565b6000611b84826118d9565b611ba05760405162461bcd60e51b815260040161075c906131a1565b6000611bab8361121f565b9050806001600160a01b0316846001600160a01b03161480611be65750836001600160a01b0316611bdb84610735565b6001600160a01b0316145b80611bf65750611bf681856117b5565b949350505050565b826001600160a01b0316611c118261121f565b6001600160a01b031614611c375760405162461bcd60e51b815260040161075c9061343a565b6001600160a01b038216611c5d5760405162461bcd60e51b815260040161075c906130ef565b611c68838383610814565b611c736000826118fa565b6001600160a01b0383166000908152600560205260408120805460019290611c9c9084906138ad565b90915550506001600160a01b0382166000908152600560205260408120805460019290611cca908490613881565b909155505060008181526004602052604080822080546001600160a01b0319166001600160a01b0386811691821790925591518493918716917fddf252ad1be2c89b69c2b068fc378daa952ba7f163c4a11628f55a4df523b3ef91a4505050565b6000808a8a8a8a8a8a604051602001611d4996959493929190612cc8565b604051602081830303815290604052805190602001209050600081604051602001611d749190612c7c565b604051602081830303815290604052805190602001209050600060018286898960405160008152602001604052604051611db19493929190612e37565b6020604051602081039080840390855afa158015611dd3573d6000803e3d6000fd5b5050604051601f1901519e9d5050505050505050505050505050565b604080516000808252602082019092526001600160a01b038416908390604051611e199190612bfa565b60006040518083038185875af1925050503d8060008114611e56576040519150601f19603f3d011682016040523d82523d6000602084013e611e5b565b606091505b50509050806108145760405162461bcd60e51b815260040161075c90613092565b600080856001600160a01b03166323b872dd868686604051602401611ea393929190612d5c565b6040516020818303038152906040529060e01b6020820180516001600160e01b038381831617835250505050604051611edc9190612bfa565b6000604051808303816000865af19150503d8060008114611f19576040519150601f19603f3d011682016040523d82523d6000602084013e611f1e565b606091505b5091509150818015611f48575080511580611f48575080806020019051810190611f489190612ad2565b611f645760405162461bcd60e51b815260040161075c90613035565b505050505050565b8451600080808080805b8681101561217657611f88600f612402565b94508a8181518110611faa57634e487b7160e01b600052603260045260246000fd5b60200260200101519350898181518110611fd457634e487b7160e01b600052603260045260246000fd5b602002602001015192508b8181518110611ffe57634e487b7160e01b600052603260045260246000fd5b602002602001015191506040518060e00160405280838152602001428152602001848152602001858152602001896001600160a01b0316815260200160011515815260200160001515815250601060008781526020019081526020016000206000820151816000015560208201518160010155604082015181600201556060820151816003015560808201518160040160006101000a8154816001600160a01b0302191690836001600160a01b0316021790555060a08201518160040160146101000a81548160ff02191690831515021790555060c08201518160040160156101000a81548160ff021916908315150217905550905050612106612100611a30565b86612480565b6121108487613881565b955084827f74ce76e2ace91f83f8188aaa1002ebcab81a9668c13e09d5c89f9a6647bfebdd61213d611a30565b87878d8f604051612152959493929190612dd5565b60405180910390a3612164600f61255f565b8061216e8161392b565b915050611f76565b50600c546040516350498d7960e11b81526001600160a01b039091169063a0931af2906121a79088906004016137e9565b600060405180830381600087803b1580156121c157600080fd5b505af11580156121d5573d6000803e3d6000fd5b505050505050505050505050505050565b60006121f18261121f565b90506121ff81600084610814565b61220a6000836118fa565b6001600160a01b03811660009081526005602052604081208054600192906122339084906138ad565b909155505060008281526004602052604080822080546001600160a01b0319169055518391906001600160a01b038416907fddf252ad1be2c89b69c2b068fc378daa952ba7f163c4a11628f55a4df523b3ef908390a45050565b612298848484611bfe565b6122a484848484612568565b61161c5760405162461bcd60e51b815260040161075c90612e9f565b6060600e80546106b1906138f0565b6060816122f457506040805180820190915260018152600360fc1b602082015261069d565b8160005b811561231e57806123088161392b565b91506123179050600a83613899565b91506122f8565b60008167ffffffffffffffff81111561234757634e487b7160e01b600052604160045260246000fd5b6040519080825280601f01601f191660200182016040528015612371576020820181803683370190505b5090505b8415611bf6576123866001836138ad565b9150612393600a86613946565b61239e906030613881565b60f81b8183815181106123c157634e487b7160e01b600052603260045260246000fd5b60200101907effffffffffffffffffffffffffffffffffffffffffffffffffffffffffffff1916908160001a9053506123fb600a86613899565b9450612375565b5490565b60006040518060800160405280604381526020016139c460439139805160209182012083518483015160408087015180519086012090516124479501612e13565b604051602081830303815290604052805190602001209050919050565b600061246e612683565b82604051602001612447929190612cad565b6001600160a01b0382166124a65760405162461bcd60e51b815260040161075c90613382565b6124af816118d9565b156124cc5760405162461bcd60e51b815260040161075c90612f6a565b6124d860008383610814565b6001600160a01b0382166000908152600560205260408120805460019290612501908490613881565b909155505060008181526004602052604080822080546001600160a01b0319166001600160a01b03861690811790915590518392907fddf252ad1be2c89b69c2b068fc378daa952ba7f163c4a11628f55a4df523b3ef908290a45050565b80546001019055565b600061257c846001600160a01b0316612689565b1561267857836001600160a01b031663150b7a026125986118f6565b8786866040518563ffffffff1660e01b81526004016125ba9493929190612d80565b602060405180830381600087803b1580156125d457600080fd5b505af1925050508015612604575060408051601f3d908101601f1916820190925261260191810190612b0a565b60015b61265e573d808015612632576040519150601f19603f3d011682016040523d82523d6000602084013e612637565b606091505b5080516126565760405162461bcd60e51b815260040161075c90612e9f565b805181602001fd5b6001600160e01b031916630a85bd0160e11b149050611bf6565b506001949350505050565b60005490565b3b151590565b82805461269b906138f0565b90600052602060002090601f0160209004810192826126bd5760008555612703565b82601f106126d657805160ff1916838001178555612703565b82800160010185558215612703579182015b828111156127035782518255916020019190600101906126e8565b5061270f929150612713565b5090565b5b8082111561270f5760008155600101612714565b600067ffffffffffffffff83111561274257612742613986565b612755601f8401601f1916602001613857565b905082815283838301111561276957600080fd5b828260208301376000602084830101529392505050565b80356001600160a01b038116811461069d57600080fd5b600082601f8301126127a7578081fd5b8135602067ffffffffffffffff8211156127c3576127c3613986565b8082026127d1828201613857565b8381528281019086840183880185018910156127eb578687fd5b8693505b8584101561280d5780358352600193909301929184019184016127ef565b50979650505050505050565b600082601f830112612829578081fd5b61179783833560208501612728565b803560ff8116811461069d57600080fd5b60006020828403121561285a578081fd5b61179782612780565b60008060408385031215612875578081fd5b61287e83612780565b915061288c60208401612780565b90509250929050565b6000806000606084860312156128a9578081fd5b6128b284612780565b92506128c060208501612780565b9150604084013590509250925092565b600080600080608085870312156128e5578081fd5b6128ee85612780565b93506128fc60208601612780565b925060408501359150606085013567ffffffffffffffff81111561291e578182fd5b61292a87828801612819565b91505092959194509250565b60008060408385031215612948578182fd5b61295183612780565b915060208301356129618161399c565b809150509250929050565b600080600080600060a08688031215612983578081fd5b61298c86612780565b9450602086013567ffffffffffffffff8111156129a7578182fd5b6129b388828901612819565b94505060408601359250606086013591506129d060808701612838565b90509295509295909350565b600080604083850312156129ee578182fd5b6129f783612780565b946020939093013593505050565b60008060008060008060008060006101208a8c031215612a23578384fd5b893567ffffffffffffffff80821115612a3a578586fd5b612a468d838e01612797565b9a5060208c0135915080821115612a5b578586fd5b612a678d838e01612797565b995060408c0135915080821115612a7c578586fd5b50612a898c828d01612797565b97505060608a0135955060808a01359450612aa660a08b01612780565b935060c08a0135925060e08a01359150612ac36101008b01612838565b90509295985092959850929598565b600060208284031215612ae3578081fd5b81516117978161399c565b600060208284031215612aff578081fd5b8135611797816139ad565b600060208284031215612b1b578081fd5b8151611797816139ad565b600060208284031215612b37578081fd5b813567ffffffffffffffff811115612b4d578182fd5b8201601f81018413612b5d578182fd5b611bf684823560208401612728565b600060208284031215612b7d578081fd5b5035919050565b600060208284031215612b95578081fd5b5051919050565b600081516020808401835b83811015612bc357815187529582019590820190600101612ba7565b509495945050505050565b60008151808452612be68160208601602086016138c4565b601f01601f19169290920160200192915050565b60008251612c0c8184602087016138c4565b9190910192915050565b60008351612c288184602088016138c4565b60609390931b6bffffffffffffffffffffffff19169190920190815260140192915050565b60008351612c5f8184602088016138c4565b835190830190612c738183602088016138c4565b01949350505050565b7f19457468657265756d205369676e6564204d6573736167653a0a3332000000008152601c810191909152603c0190565b61190160f01b81526002810192909252602282015260420190565b6000878252612cec612ce6612ce0602085018a612b9c565b88612b9c565b86612b9c565b938452505060601b6bffffffffffffffffffffffff19166020820152603401949350505050565b6001600160a01b0391909116815260200190565b60006001600160a01b03808616835280851660208401525060606040830152612d536060830184612bce565b95945050505050565b6001600160a01b039384168152919092166020820152604081019190915260600190565b60006001600160a01b03808716835280861660208401525083604083015260806060830152612db26080830184612bce565b9695505050505050565b6001600160a01b03929092168252602082015260400190565b6001600160a01b039586168152602081019490945260408401929092529092166060820152608081019190915260a00190565b901515815260200190565b93845260208401929092526001600160a01b03166040830152606082015260800190565b93845260ff9290921660208401526040830152606082015260800190565b6000602082526117976020830184612bce565b60208082526016908201527f556e6f52653a206578706972656420616c726561647900000000000000000000604082015260600190565b60208082526032908201527f4552433732313a207472616e7366657220746f206e6f6e20455243373231526560408201527f63656976657220696d706c656d656e7465720000000000000000000000000000606082015260800190565b60208082526013908201527f556e6f52653a207a65726f206164647265737300000000000000000000000000604082015260600190565b6020808252601c908201527f46756e6374696f6e2063616c6c206e6f74207375636365737366756c00000000604082015260600190565b6020808252601c908201527f4552433732313a20746f6b656e20616c7265616479206d696e74656400000000604082015260600190565b6020808252603d908201527f66756e6374696f6e5369676e61747572652063616e206e6f74206265206f662060408201527f657865637574654d6574615472616e73616374696f6e206d6574686f64000000606082015260800190565b6020808252601e908201527f556e6f52653a206d61726b656420746f20636c61696d20616c72656164790000604082015260600190565b60208082526031908201527f5472616e7366657248656c7065723a3a7472616e7366657246726f6d3a20747260408201527f616e7366657246726f6d206661696c6564000000000000000000000000000000606082015260800190565b60208082526034908201527f5472616e7366657248656c7065723a3a736166655472616e736665724554483a60408201527f20455448207472616e73666572206661696c6564000000000000000000000000606082015260800190565b60208082526024908201527f4552433732313a207472616e7366657220746f20746865207a65726f206164646040820152637265737360e01b606082015260800190565b60208082526019908201527f4552433732313a20617070726f766520746f2063616c6c657200000000000000604082015260600190565b60208082526011908201527f496e76616c6964207369676e6174757265000000000000000000000000000000604082015260600190565b6020808252602c908201527f4552433732313a206f70657261746f7220717565727920666f72206e6f6e657860408201526b34b9ba32b73a103a37b5b2b760a11b606082015260800190565b60208082526018908201527f556e6f52653a207369676e617475726520657870697265640000000000000000604082015260600190565b60208082526038908201527f4552433732313a20617070726f76652063616c6c6572206973206e6f74206f7760408201527f6e6572206e6f7220617070726f76656420666f7220616c6c0000000000000000606082015260800190565b60208082526015908201527f556e6f52653a20696e76616c6964207369676e65720000000000000000000000604082015260600190565b6020808252602a908201527f4552433732313a2062616c616e636520717565727920666f7220746865207a65604082015269726f206164647265737360b01b606082015260800190565b60208082526029908201527f4552433732313a206f776e657220717565727920666f72206e6f6e657869737460408201526832b73a103a37b5b2b760b91b606082015260800190565b6020808252601a908201527f556e6f52653a207a65726f206d6178207369676e656454696d65000000000000604082015260600190565b6020808252818101527f4552433732313a206d696e7420746f20746865207a65726f2061646472657373604082015260600190565b6020808252601c908201527f556e6f52653a2053616c6573506f6c69637920466f7262696464656e00000000604082015260600190565b6020808252602c908201527f4552433732313a20617070726f76656420717565727920666f72206e6f6e657860408201526b34b9ba32b73a103a37b5b2b760a11b606082015260800190565b60208082526029908201527f4552433732313a207472616e73666572206f6620746f6b656e2074686174206960408201526839903737ba1037bbb760b91b606082015260800190565b60208082526021908201527f5369676e657220616e64207369676e617475726520646f206e6f74206d6174636040820152600d60fb1b606082015260800190565b6020808252602f908201527f4552433732314d657461646174613a2055524920717565727920666f72206e6f60408201527f6e6578697374656e7420746f6b656e0000000000000000000000000000000000606082015260800190565b6020808252601e908201527f556e6f52653a206e6f742064656669656e64207072656d69756d506f6f6c0000604082015260600190565b60208082526010908201527f556e6f52653a206e6f20706f6c69637900000000000000000000000000000000604082015260600190565b6020808252602b908201527f5472616e7366657248656c7065723a3a73616665417070726f76653a2061707060408201526a1c9bdd994819985a5b195960aa1b606082015260800190565b60208082526021908201527f4552433732313a20617070726f76616c20746f2063757272656e74206f776e656040820152603960f91b606082015260800190565b6020808252602f908201527f556e6f52653a206e6f206d617463682070726f746f636f6c496473207769746860408201527f20636f766572616765416d6f756e740000000000000000000000000000000000606082015260800190565b60208082526031908201527f4552433732313a207472616e736665722063616c6c6572206973206e6f74206f60408201527f776e6572206e6f7220617070726f766564000000000000000000000000000000606082015260800190565b60208082526018908201527f556e6f52653a20696e73756666696369656e7420706169640000000000000000604082015260600190565b60208082526031908201527f556e6f52653a206e6f206d617463682070726f746f636f6c496473207769746860408201527f20636f7665726167654475726174696f6e000000000000000000000000000000606082015260800190565b6020808252601f908201527f5265656e7472616e637947756172643a207265656e7472616e742063616c6c00604082015260600190565b61ffff91909116815260200190565b61ffff9290921682526001600160a01b0316602082015260400190565b600061ffff8416825260406020830152611bf66040830184612bce565b90815260200190565b91825261ffff16602082015260400190565b9283526020830191909152604082015260600190565b9687526020870195909552604086019390935260608501919091526001600160a01b03166080840152151560a0830152151560c082015260e00190565b60405181810167ffffffffffffffff8111828210171561387957613879613986565b604052919050565b600082198211156138945761389461395a565b500190565b6000826138a8576138a8613970565b500490565b6000828210156138bf576138bf61395a565b500390565b60005b838110156138df5781810151838201526020016138c7565b8381111561161c5750506000910152565b60028104600182168061390457607f821691505b6020821081141561392557634e487b7160e01b600052602260045260246000fd5b50919050565b600060001982141561393f5761393f61395a565b5060010190565b60008261395557613955613970565b500690565b634e487b7160e01b600052601160045260246000fd5b634e487b7160e01b600052601260045260246000fd5b634e487b7160e01b600052604160045260246000fd5b80151581146139aa57600080fd5b50565b6001600160e01b0319811681146139aa57600080fdfe4d6574615472616e73616374696f6e2875696e74323536206e6f6e63652c616464726573732066726f6d2c62797465732066756e6374696f6e5369676e617475726529a2646970667358221220707c1cd8535a3cb7229bdb995dcb35be0a1ade103f30eb22e94204f454991ad764736f6c63430008000033454950373132446f6d61696e28737472696e67206e616d652c737472696e672076657273696f6e2c6164647265737320766572696679696e67436f6e74726163742c627974657333322073616c7429a2646970667358221220275861d2b0837f365c9d749d16c4f29d334142d35f314b6677bf70d0c7e6c62c64736f6c63430008000033",
  "devdoc": {
    "kind": "dev",
    "methods": {},
    "version": 1
  },
  "userdoc": {
    "kind": "user",
    "methods": {},
    "version": 1
  },
  "storageLayout": {
    "storage": [
      {
        "astId": 114,
        "contract": "contracts/factories/SalesPolicyFactory.sol:SalesPolicyFactory",
        "label": "_status",
        "offset": 0,
        "slot": "0",
        "type": "t_uint256"
      },
      {
        "astId": 14049,
        "contract": "contracts/factories/SalesPolicyFactory.sol:SalesPolicyFactory",
        "label": "premiumPool",
        "offset": 0,
        "slot": "1",
        "type": "t_address"
      },
      {
        "astId": 14051,
        "contract": "contracts/factories/SalesPolicyFactory.sol:SalesPolicyFactory",
        "label": "owner",
        "offset": 0,
        "slot": "2",
        "type": "t_address"
      },
      {
        "astId": 14053,
        "contract": "contracts/factories/SalesPolicyFactory.sol:SalesPolicyFactory",
        "label": "exchangeAgent",
        "offset": 0,
        "slot": "3",
        "type": "t_address"
      },
      {
        "astId": 14055,
        "contract": "contracts/factories/SalesPolicyFactory.sol:SalesPolicyFactory",
        "label": "capitalAgent",
        "offset": 0,
        "slot": "4",
        "type": "t_address"
      },
      {
        "astId": 14057,
        "contract": "contracts/factories/SalesPolicyFactory.sol:SalesPolicyFactory",
        "label": "salesPolicy",
        "offset": 0,
        "slot": "5",
        "type": "t_address"
      },
      {
        "astId": 14062,
        "contract": "contracts/factories/SalesPolicyFactory.sol:SalesPolicyFactory",
        "label": "getProtocol",
        "offset": 0,
        "slot": "6",
        "type": "t_mapping(t_uint16,t_struct(Protocol)14047_storage)"
      },
      {
        "astId": 14065,
        "contract": "contracts/factories/SalesPolicyFactory.sol:SalesPolicyFactory",
        "label": "protocolIds",
        "offset": 0,
        "slot": "7",
        "type": "t_struct(Counter)2094_storage"
      },
      {
        "astId": 14067,
        "contract": "contracts/factories/SalesPolicyFactory.sol:SalesPolicyFactory",
        "label": "USDC_TOKEN",
        "offset": 0,
        "slot": "8",
        "type": "t_address"
      }
    ],
    "types": {
      "t_address": {
        "encoding": "inplace",
        "label": "address",
        "numberOfBytes": "20"
      },
      "t_bool": {
        "encoding": "inplace",
        "label": "bool",
        "numberOfBytes": "1"
      },
      "t_mapping(t_uint16,t_struct(Protocol)14047_storage)": {
        "encoding": "mapping",
        "key": "t_uint16",
        "label": "mapping(uint16 => struct SalesPolicyFactory.Protocol)",
        "numberOfBytes": "32",
        "value": "t_struct(Protocol)14047_storage"
      },
      "t_string_storage": {
        "encoding": "bytes",
        "label": "string",
        "numberOfBytes": "32"
      },
      "t_struct(Counter)2094_storage": {
        "encoding": "inplace",
        "label": "struct Counters.Counter",
        "members": [
          {
            "astId": 2093,
            "contract": "contracts/factories/SalesPolicyFactory.sol:SalesPolicyFactory",
            "label": "_value",
            "offset": 0,
            "slot": "0",
            "type": "t_uint256"
          }
        ],
        "numberOfBytes": "32"
      },
      "t_struct(Protocol)14047_storage": {
        "encoding": "inplace",
        "label": "struct SalesPolicyFactory.Protocol",
        "members": [
          {
            "astId": 14032,
            "contract": "contracts/factories/SalesPolicyFactory.sol:SalesPolicyFactory",
            "label": "coverDuration",
            "offset": 0,
            "slot": "0",
            "type": "t_uint256"
          },
          {
            "astId": 14034,
            "contract": "contracts/factories/SalesPolicyFactory.sol:SalesPolicyFactory",
            "label": "mcr",
            "offset": 0,
            "slot": "1",
            "type": "t_uint256"
          },
          {
            "astId": 14036,
            "contract": "contracts/factories/SalesPolicyFactory.sol:SalesPolicyFactory",
            "label": "protocolAddress",
            "offset": 0,
            "slot": "2",
            "type": "t_address"
          },
          {
            "astId": 14038,
            "contract": "contracts/factories/SalesPolicyFactory.sol:SalesPolicyFactory",
            "label": "protocolCurrency",
            "offset": 0,
            "slot": "3",
            "type": "t_address"
          },
          {
            "astId": 14040,
            "contract": "contracts/factories/SalesPolicyFactory.sol:SalesPolicyFactory",
            "label": "name",
            "offset": 0,
            "slot": "4",
            "type": "t_string_storage"
          },
          {
            "astId": 14042,
            "contract": "contracts/factories/SalesPolicyFactory.sol:SalesPolicyFactory",
            "label": "productType",
            "offset": 0,
            "slot": "5",
            "type": "t_string_storage"
          },
          {
            "astId": 14044,
            "contract": "contracts/factories/SalesPolicyFactory.sol:SalesPolicyFactory",
            "label": "premiumDescription",
            "offset": 0,
            "slot": "6",
            "type": "t_string_storage"
          },
          {
            "astId": 14046,
            "contract": "contracts/factories/SalesPolicyFactory.sol:SalesPolicyFactory",
            "label": "exist",
            "offset": 0,
            "slot": "7",
            "type": "t_bool"
          }
        ],
        "numberOfBytes": "256"
      },
      "t_uint16": {
        "encoding": "inplace",
        "label": "uint16",
        "numberOfBytes": "2"
      },
      "t_uint256": {
        "encoding": "inplace",
        "label": "uint256",
        "numberOfBytes": "32"
      }
    }
  }
}