{
  "address": "0x5514695C1BF5D35D441B76e080Be56d0bb1cc0E9",
  "abi": [
    {
      "inputs": [
        {
          "internalType": "address",
          "name": "_usdcToken",
          "type": "address"
        },
        {
          "internalType": "address",
          "name": "_exchangeAgent",
          "type": "address"
        },
        {
          "internalType": "address",
          "name": "_premiumPool",
          "type": "address"
        },
        {
          "internalType": "address",
          "name": "_capitalAgent",
          "type": "address"
        },
        {
          "internalType": "address",
          "name": "_multiSigWallet",
          "type": "address"
        }
      ],
      "stateMutability": "nonpayable",
      "type": "constructor"
    },
    {
      "anonymous": false,
      "inputs": [
        {
          "indexed": false,
          "internalType": "uint16",
          "name": "_protocolId",
          "type": "uint16"
        },
        {
          "indexed": true,
          "internalType": "address",
          "name": "_protocol",
          "type": "address"
        }
      ],
      "name": "LogSetBlackListProtocol",
      "type": "event"
    },
    {
      "anonymous": false,
      "inputs": [
        {
          "indexed": true,
          "internalType": "address",
          "name": "_premiumPool",
          "type": "address"
        }
      ],
      "name": "LogSetPremiumPool",
      "type": "event"
    },
    {
      "anonymous": false,
      "inputs": [
        {
          "indexed": false,
          "internalType": "bool",
          "name": "_status",
          "type": "bool"
        }
      ],
      "name": "LogUpdateCheckIfProtocolInWhitelistArray",
      "type": "event"
    },
    {
      "anonymous": false,
      "inputs": [
        {
          "indexed": true,
          "internalType": "address",
          "name": "previousOwner",
          "type": "address"
        },
        {
          "indexed": true,
          "internalType": "address",
          "name": "newOwner",
          "type": "address"
        }
      ],
      "name": "OwnershipTransferred",
      "type": "event"
    },
    {
      "anonymous": false,
      "inputs": [
        {
          "indexed": false,
          "internalType": "uint16",
          "name": "_protocolIdx",
          "type": "uint16"
        }
      ],
      "name": "ProtocolCreated",
      "type": "event"
    },
    {
      "inputs": [],
      "name": "USDC_TOKEN",
      "outputs": [
        {
          "internalType": "address",
          "name": "",
          "type": "address"
        }
      ],
      "stateMutability": "view",
      "type": "function"
    },
    {
      "inputs": [
        {
          "internalType": "address",
          "name": "_protocolAddress",
          "type": "address"
        }
      ],
      "name": "addProtocol",
      "outputs": [],
      "stateMutability": "nonpayable",
      "type": "function"
    },
    {
      "inputs": [],
      "name": "allProtocolsLength",
      "outputs": [
        {
          "internalType": "uint256",
          "name": "",
          "type": "uint256"
        }
      ],
      "stateMutability": "view",
      "type": "function"
    },
    {
      "inputs": [
        {
          "internalType": "address",
          "name": "_premiumCurrency",
          "type": "address"
        }
      ],
      "name": "approvePremiumInPolicy",
      "outputs": [],
      "stateMutability": "nonpayable",
      "type": "function"
    },
    {
      "inputs": [],
      "name": "capitalAgent",
      "outputs": [
        {
          "internalType": "address",
          "name": "",
          "type": "address"
        }
      ],
      "stateMutability": "view",
      "type": "function"
    },
    {
      "inputs": [],
      "name": "checkIfProtocolInWhitelistArray",
      "outputs": [
        {
          "internalType": "bool",
          "name": "",
          "type": "bool"
        }
      ],
      "stateMutability": "view",
      "type": "function"
    },
    {
      "inputs": [],
      "name": "exchangeAgent",
      "outputs": [
        {
          "internalType": "address",
          "name": "",
          "type": "address"
        }
      ],
      "stateMutability": "view",
      "type": "function"
    },
    {
      "inputs": [
        {
          "internalType": "uint16",
          "name": "",
          "type": "uint16"
        }
      ],
      "name": "getProtocol",
      "outputs": [
        {
          "internalType": "address",
          "name": "protocolAddress",
          "type": "address"
        },
        {
          "internalType": "bool",
          "name": "isBlackList",
          "type": "bool"
        }
      ],
      "stateMutability": "view",
      "type": "function"
    },
    {
      "inputs": [
        {
          "internalType": "uint16",
          "name": "_protocolIdx",
          "type": "uint16"
        }
      ],
      "name": "getProtocolData",
      "outputs": [
        {
          "internalType": "address",
          "name": "protocolAddress",
          "type": "address"
        },
        {
          "internalType": "bool",
          "name": "isBlackList",
          "type": "bool"
        }
      ],
      "stateMutability": "view",
      "type": "function"
    },
    {
      "inputs": [
        {
          "internalType": "address",
          "name": "",
          "type": "address"
        }
      ],
      "name": "getProtocolId",
      "outputs": [
        {
          "internalType": "uint16",
          "name": "",
          "type": "uint16"
        }
      ],
      "stateMutability": "view",
      "type": "function"
    },
    {
      "inputs": [
        {
          "internalType": "address",
          "name": "_exchangeAgent",
          "type": "address"
        },
        {
          "internalType": "address",
          "name": "_premiumPool",
          "type": "address"
        },
        {
          "internalType": "address",
          "name": "_capitalAgent",
          "type": "address"
        }
      ],
      "name": "newSalesPolicy",
      "outputs": [
        {
          "internalType": "address",
          "name": "",
          "type": "address"
        }
      ],
      "stateMutability": "nonpayable",
      "type": "function"
    },
    {
      "inputs": [],
      "name": "owner",
      "outputs": [
        {
          "internalType": "address",
          "name": "",
          "type": "address"
        }
      ],
      "stateMutability": "view",
      "type": "function"
    },
    {
      "inputs": [],
      "name": "premiumPool",
      "outputs": [
        {
          "internalType": "address",
          "name": "",
          "type": "address"
        }
      ],
      "stateMutability": "view",
      "type": "function"
    },
    {
      "inputs": [],
      "name": "renounceOwnership",
      "outputs": [],
      "stateMutability": "nonpayable",
      "type": "function"
    },
    {
      "inputs": [],
      "name": "salesPolicy",
      "outputs": [
        {
          "internalType": "address",
          "name": "",
          "type": "address"
        }
      ],
      "stateMutability": "view",
      "type": "function"
    },
    {
      "inputs": [
        {
          "internalType": "address",
          "name": "_protocol",
          "type": "address"
        }
      ],
      "name": "setBlackListProtocolByAddress",
      "outputs": [],
      "stateMutability": "nonpayable",
      "type": "function"
    },
    {
      "inputs": [
        {
          "internalType": "uint16",
          "name": "_protocolId",
          "type": "uint16"
        }
      ],
      "name": "setBlackListProtocolById",
      "outputs": [],
      "stateMutability": "nonpayable",
      "type": "function"
    },
    {
      "inputs": [
        {
          "internalType": "uint256",
          "name": "_maxDeadline",
          "type": "uint256"
        }
      ],
      "name": "setBuyPolicyMaxDeadlineInPolicy",
      "outputs": [],
      "stateMutability": "nonpayable",
      "type": "function"
    },
    {
      "inputs": [
        {
          "internalType": "address",
          "name": "_capitalAgent",
          "type": "address"
        }
      ],
      "name": "setCapitalAgentInPolicy",
      "outputs": [],
      "stateMutability": "nonpayable",
      "type": "function"
    },
    {
      "inputs": [
        {
          "internalType": "address",
          "name": "_exchangeAgent",
          "type": "address"
        }
      ],
      "name": "setExchangeAgentInPolicy",
      "outputs": [],
      "stateMutability": "nonpayable",
      "type": "function"
    },
    {
      "inputs": [
        {
          "internalType": "address",
          "name": "_premiumPool",
          "type": "address"
        }
      ],
      "name": "setPremiumPool",
      "outputs": [],
      "stateMutability": "nonpayable",
      "type": "function"
    },
    {
      "inputs": [
        {
          "internalType": "address",
          "name": "_premiumPool",
          "type": "address"
        }
      ],
      "name": "setPremiumPoolInPolicy",
      "outputs": [],
      "stateMutability": "nonpayable",
      "type": "function"
    },
    {
      "inputs": [
        {
          "internalType": "string",
          "name": "_uri",
          "type": "string"
        }
      ],
      "name": "setProtocolURIInPolicy",
      "outputs": [],
      "stateMutability": "nonpayable",
      "type": "function"
    },
    {
      "inputs": [
        {
          "internalType": "address",
          "name": "_signer",
          "type": "address"
        }
      ],
      "name": "setSignerInPolicy",
      "outputs": [],
      "stateMutability": "nonpayable",
      "type": "function"
    },
    {
      "inputs": [
        {
          "internalType": "address",
          "name": "newOwner",
          "type": "address"
        }
      ],
      "name": "transferOwnership",
      "outputs": [],
      "stateMutability": "nonpayable",
      "type": "function"
    },
    {
      "inputs": [
        {
          "internalType": "bool",
          "name": "_status",
          "type": "bool"
        }
      ],
      "name": "updateCheckIfProtocolInWhitelistArray",
      "outputs": [],
      "stateMutability": "nonpayable",
      "type": "function"
    }
  ],
  "transactionHash": "0x288fd7e8a6ba39ba28da98a7cc4c149eab9f85ed5683cd89cf89de774bcc00cd",
  "args": [
    "0x40c035016AD732b6cFce34c3F881040B6C6cf71E",
    "0xcf98D8AE6EF3eeff4826162571190cD9802dCf2D",
    "0xd8F33445276e4fF385e53Efe04c280d846f9e28F",
    "0x4024C2A563D06456BA7f9cc61F2b12FC44c3F9f2",
    "0xfadD5ddd92fa216C08C096958Efec97179F6fC58"
  ],
  "solcInputHash": "9c34ee606f87ff608005a3853a8c7b58",
  "bytecode": "0x60806040523480156200001157600080fd5b5060405162005cfe38038062005cfe833981016040819052620000349162000282565b60016000556200004d6200004762000183565b62000187565b6001600160a01b0385166200007f5760405162461bcd60e51b81526004016200007690620003e5565b60405180910390fd5b6001600160a01b038416620000a85760405162461bcd60e51b815260040162000076906200041c565b6001600160a01b038316620000d15760405162461bcd60e51b815260040162000076906200036c565b6001600160a01b038216620000fa5760405162461bcd60e51b81526004016200007690620002f1565b6001600160a01b038116620001235760405162461bcd60e51b81526004016200007690620003a3565b600980546001600160a01b038088166001600160a01b031992831617909255600280548684169083161790556003805487841690831617905560048054928516929091169190911790556200017881620001d9565b505050505062000492565b3390565b600180546001600160a01b038381166001600160a01b0319831681179093556040519116919082907f8be0079c531659141344cd1fd0a4f28419497f9722a3daafe3b4186f6b6457e090600090a35050565b620001e362000183565b6001600160a01b0316620001f662000256565b6001600160a01b0316146200021f5760405162461bcd60e51b815260040162000076906200045d565b6001600160a01b038116620002485760405162461bcd60e51b8152600401620000769062000326565b620002538162000187565b50565b6001546001600160a01b031690565b80516001600160a01b03811681146200027d57600080fd5b919050565b600080600080600060a086880312156200029a578081fd5b620002a58662000265565b9450620002b56020870162000265565b9350620002c56040870162000265565b9250620002d56060870162000265565b9150620002e56080870162000265565b90509295509295909350565b6020808252818101527f556e6f52653a207a65726f206361706974616c4167656e742061646472657373604082015260600190565b60208082526026908201527f4f776e61626c653a206e6577206f776e657220697320746865207a65726f206160408201526564647265737360d01b606082015260800190565b6020808252601f908201527f556e6f52653a207a65726f207072656d69756d506f6f6c206164647265737300604082015260600190565b60208082526022908201527f556e6f52653a207a65726f206d756c746973696777616c6c6574206164647265604082015261737360f01b606082015260800190565b60208082526018908201527f556e6f52653a207a65726f205553444320616464726573730000000000000000604082015260600190565b60208082526021908201527f556e6f52653a207a65726f2065786368616e67654167656e74206164647265736040820152607360f81b606082015260800190565b6020808252818101527f4f776e61626c653a2063616c6c6572206973206e6f7420746865206f776e6572604082015260600190565b61585c80620004a26000396000f3fe60806040523480156200001157600080fd5b5060043610620001d85760003560e01c8063b381ff821162000105578063d191097e11620000a5578063dc962e45116200007b578063dc962e4514620003c6578063dfca978114620003dd578063f2fde38b14620003f4578063fa569274146200040b57620001d8565b8063d191097e146200038e578063d2c7c2a414620003a5578063d9203b9114620003bc57620001d8565b8063bcd54f0c11620000db578063bcd54f0c1462000356578063c3c3b55b146200036d578063c5870a4b146200037757620001d8565b8063b381ff8214620002ff578063b64a775e1462000318578063bbd9d8e1146200032f57620001d8565b8063715018a6116200017d5780638da5cb5b11620001535780638da5cb5b14620002b0578063924589c514620002ba578063aeba91d014620002d1578063b31b9fee14620002e857620001d8565b8063715018a61462000278578063771d4c2814620002825780638bc798dc146200029957620001d8565b80634219816011620001b357806342198160146200022f5780634ba69faa14620002485780636c18443d146200025257620001d8565b806302f3318d14620001dd5780631bcc247214620001f6578063222a5df6146200020d575b600080fd5b620001f4620001ee36600462001039565b62000415565b005b620001f46200020736600462001039565b620004f6565b62000217620005af565b60405162000226919062001211565b60405180910390f35b62000239620005bf565b604051620002269190620011b0565b62000239620005ce565b620002696200026336600462001039565b620005dd565b604051620002269190620013a9565b620001f4620005f3565b620001f46200029336600462001039565b62000647565b620001f4620002aa36600462001039565b6200078d565b620002396200082e565b620001f4620002cb36600462001173565b6200083d565b620001f4620002e236600462001039565b620008f3565b62000239620002f93660046200105d565b620009df565b6200030962000b35565b604051620002269190620013b8565b620001f46200032936600462001039565b62000b48565b620003466200034036600462001173565b62000be9565b60405162000226929190620011f6565b620001f462000367366004620010c8565b62000c15565b6200023962000c8d565b620001f46200038836600462001039565b62000c9c565b620001f46200039f36600462001197565b62000d3d565b62000346620003b636600462001173565b62000dd8565b6200023962000dff565b620001f4620003d7366004620010a6565b62000e0e565b620001f4620003ee36600462001039565b62000ea8565b620001f46200040536600462001039565b62000f20565b6200023962000f9d565b6200041f62000fac565b6001600160a01b0316620004326200082e565b6001600160a01b031614620004645760405162461bcd60e51b81526004016200045b9062001306565b60405180910390fd5b6001600160a01b0381166200048d5760405162461bcd60e51b81526004016200045b90620012cf565b600554604051630de6123960e11b81526001600160a01b0390911690631bcc247290620004bf908490600401620011b0565b600060405180830381600087803b158015620004da57600080fd5b505af1158015620004ef573d6000803e3d6000fd5b5050505050565b6200050062000fac565b6001600160a01b0316620005136200082e565b6001600160a01b0316146200053c5760405162461bcd60e51b81526004016200045b9062001306565b6001600160a01b038116620005655760405162461bcd60e51b81526004016200045b90620012cf565b600280546001600160a01b0319166001600160a01b0383169081179091556040517faa0150507cbcab99f33127173fcbdd580e5710d253406b99952e1feda3cdcc0e90600090a250565b600154600160a01b900460ff1681565b6004546001600160a01b031681565b6002546001600160a01b031681565b60076020526000908152604090205461ffff1681565b620005fd62000fac565b6001600160a01b0316620006106200082e565b6001600160a01b031614620006395760405162461bcd60e51b81526004016200045b9062001306565b62000645600062000fb0565b565b6200065162000fac565b6001600160a01b0316620006646200082e565b6001600160a01b0316146200068d5760405162461bcd60e51b81526004016200045b9062001306565b60026000541415620006b35760405162461bcd60e51b81526004016200045b9062001372565b6002600055620006c4600862001002565b6000620006d260086200100b565b6040805180820182526001600160a01b038581168083526000602080850182815261ffff8816808452600683528784209651875492516001600160a01b031990931696169590951760ff60a01b1916600160a01b9115159190910217909455908152600790925290829020805461ffff19169091179055519091507f72bad1508ad72fc57385ebb6fe856b8a7d6a16afc50e9660ce3761f355468a82906200077c908390620013a9565b60405180910390a150506001600055565b6200079762000fac565b6001600160a01b0316620007aa6200082e565b6001600160a01b031614620007d35760405162461bcd60e51b81526004016200045b9062001306565b6001600160a01b038116620007fc5760405162461bcd60e51b81526004016200045b90620012cf565b600554604051636c19e78360e01b81526001600160a01b0390911690636c19e78390620004bf908490600401620011b0565b6001546001600160a01b031690565b6200084762000fac565b6001600160a01b03166200085a6200082e565b6001600160a01b031614620008835760405162461bcd60e51b81526004016200045b9062001306565b61ffff811660009081526006602052604090819020805460ff60a01b1916600160a01b179081905590516001600160a01b03909116907f599cca7c0d636819ca3833dcdbcd266536199c19522d35eb59e13d07f104177090620008e8908490620013a9565b60405180910390a250565b620008fd62000fac565b6001600160a01b0316620009106200082e565b6001600160a01b031614620009395760405162461bcd60e51b81526004016200045b9062001306565b6001600160a01b038116620009625760405162461bcd60e51b81526004016200045b90620012cf565b6001600160a01b03811660008181526007602090815260408083205461ffff16808452600690925291829020805460ff60a01b1916600160a01b17905590519091907f599cca7c0d636819ca3833dcdbcd266536199c19522d35eb59e13d07f104177090620009d3908490620013a9565b60405180910390a25050565b6000620009eb62000fac565b6001600160a01b0316620009fe6200082e565b6001600160a01b03161462000a275760405162461bcd60e51b81526004016200045b9062001306565b6002600054141562000a4d5760405162461bcd60e51b81526004016200045b9062001372565b6002600090815560095460405130918791879187916001600160a01b039091169062000a799062001013565b62000a89959493929190620011c4565b604051809103906000f08015801562000aa6573d6000803e3d6000fd5b50600580546001600160a01b0319166001600160a01b038381169190911790915560048054604051637d4163d360e01b815293945090911691637d4163d39162000af391859101620011b0565b600060405180830381600087803b15801562000b0e57600080fd5b505af115801562000b23573d6000803e3d6000fd5b50506001600055509095945050505050565b600062000b4360086200100b565b905090565b62000b5262000fac565b6001600160a01b031662000b656200082e565b6001600160a01b03161462000b8e5760405162461bcd60e51b81526004016200045b9062001306565b6001600160a01b03811662000bb75760405162461bcd60e51b81526004016200045b90620012cf565b600554604051630c5006c760e11b81526001600160a01b03909116906318a00d8e90620004bf908490600401620011b0565b61ffff166000908152600660205260409020546001600160a01b03811691600160a01b90910460ff1690565b62000c1f62000fac565b6001600160a01b031662000c326200082e565b6001600160a01b03161462000c5b5760405162461bcd60e51b81526004016200045b9062001306565b6005546040516313b41ce760e31b81526001600160a01b0390911690639da0e73890620004bf9084906004016200121c565b6005546001600160a01b031681565b62000ca662000fac565b6001600160a01b031662000cb96200082e565b6001600160a01b03161462000ce25760405162461bcd60e51b81526004016200045b9062001306565b6001600160a01b03811662000d0b5760405162461bcd60e51b81526004016200045b90620012cf565b60055460405163c2eb8eb960e01b81526001600160a01b039091169063c2eb8eb990620004bf908490600401620011b0565b62000d4762000fac565b6001600160a01b031662000d5a6200082e565b6001600160a01b03161462000d835760405162461bcd60e51b81526004016200045b9062001306565b6000811162000da65760405162461bcd60e51b81526004016200045b906200133b565b60055460405163fda2071d60e01b81526001600160a01b039091169063fda2071d90620004bf908490600401620013b8565b6006602052600090815260409020546001600160a01b03811690600160a01b900460ff1682565b6003546001600160a01b031681565b62000e1862000fac565b6001600160a01b031662000e2b6200082e565b6001600160a01b03161462000e545760405162461bcd60e51b81526004016200045b9062001306565b6001805460ff60a01b1916600160a01b831515021790556040517f8488d1fbbfabc3e41bea48b6d06c5139182eccbd9942a27a1142748120d028589062000e9d90839062001211565b60405180910390a150565b62000eb262000fac565b6001600160a01b031662000ec56200082e565b6001600160a01b03161462000eee5760405162461bcd60e51b81526004016200045b9062001306565b6005546040516321ecf70160e01b81526001600160a01b03909116906321ecf70190620004bf908490600401620011b0565b62000f2a62000fac565b6001600160a01b031662000f3d6200082e565b6001600160a01b03161462000f665760405162461bcd60e51b81526004016200045b9062001306565b6001600160a01b03811662000f8f5760405162461bcd60e51b81526004016200045b9062001272565b62000f9a8162000fb0565b50565b6009546001600160a01b031681565b3390565b600180546001600160a01b038381166001600160a01b0319831681179093556040519116919082907f8be0079c531659141344cd1fd0a4f28419497f9722a3daafe3b4186f6b6457e090600090a35050565b80546001019055565b80545b919050565b61444f80620013d883390190565b80356001600160a01b03811681146200100e57600080fd5b6000602082840312156200104b578081fd5b620010568262001021565b9392505050565b60008060006060848603121562001072578182fd5b6200107d8462001021565b92506200108d6020850162001021565b91506200109d6040850162001021565b90509250925092565b600060208284031215620010b8578081fd5b8135801515811462001056578182fd5b60006020808385031215620010db578182fd5b823567ffffffffffffffff80821115620010f3578384fd5b818501915085601f83011262001107578384fd5b8135818111156200111c576200111c620013c1565b604051601f8201601f1916810185018381118282101715620011425762001142620013c1565b604052818152838201850188101562001159578586fd5b818585018683013790810190930193909352509392505050565b60006020828403121562001185578081fd5b813561ffff8116811462001056578182fd5b600060208284031215620011a9578081fd5b5035919050565b6001600160a01b0391909116815260200190565b6001600160a01b0395861681529385166020850152918416604084015283166060830152909116608082015260a00190565b6001600160a01b039290921682521515602082015260400190565b901515815260200190565b6000602080835283518082850152825b818110156200124a578581018301518582016040015282016200122c565b818111156200125c5783604083870101525b50601f01601f1916929092016040019392505050565b60208082526026908201527f4f776e61626c653a206e6577206f776e657220697320746865207a65726f206160408201527f6464726573730000000000000000000000000000000000000000000000000000606082015260800190565b60208082526013908201527f556e6f52653a207a65726f206164647265737300000000000000000000000000604082015260600190565b6020808252818101527f4f776e61626c653a2063616c6c6572206973206e6f7420746865206f776e6572604082015260600190565b60208082526018908201527f556e6f52653a207a65726f206d617820646561646c696e650000000000000000604082015260600190565b6020808252601f908201527f5265656e7472616e637947756172643a207265656e7472616e742063616c6c00604082015260600190565b61ffff91909116815260200190565b90815260200190565b634e487b7160e01b600052604160045260246000fdfe60c06040526000196011553480156200001757600080fd5b506040516200444f3803806200444f8339810160408190526200003a9162000389565b6040518060400160405280601081526020016f506f6c69637920696e737572616e636560801b8152506040518060400160405280601081526020016f506f6c69637920696e737572616e636560801b8152506040518060400160405280601881526020017f427579506f6c6963794d6574615472616e73616374696f6e0000000000000000815250604051806040016040528060018152602001603160f81b81525081816040518060800160405280604f815260200162004400604f913980519060200120828051906020012082805190602001203062000120620002c260201b60201c565b60405162000136959493929190602001620003f8565b60408051601f19818403018152919052805160209182012060005586516200016a95506002945090870192509050620002c6565b50805162000180906003906020840190620002c6565b50506001600855506001600160a01b038516620001ba5760405162461bcd60e51b8152600401620001b190620004c7565b60405180910390fd5b6001600160a01b038416620001e35760405162461bcd60e51b8152600401620001b190620004fe565b6001600160a01b0383166200020c5760405162461bcd60e51b8152600401620001b19062000459565b6001600160a01b038216620002355760405162461bcd60e51b8152600401620001b19062000424565b6001600160a01b0381166200025e5760405162461bcd60e51b8152600401620001b19062000490565b606094851b6001600160601b0319908116608052600a80546001600160a01b03199081166001600160a01b0397881617909155600c8054821694871694909417909355941b90931660a052600b8054909316911617905562093a806009556200057c565b4690565b828054620002d4906200053f565b90600052602060002090601f016020900481019282620002f8576000855562000343565b82601f106200031357805160ff191683800117855562000343565b8280016001018555821562000343579182015b828111156200034357825182559160200191906001019062000326565b506200035192915062000355565b5090565b5b8082111562000351576000815560010162000356565b80516001600160a01b03811681146200038457600080fd5b919050565b600080600080600060a08688031215620003a1578081fd5b620003ac866200036c565b9450620003bc602087016200036c565b9350620003cc604087016200036c565b9250620003dc606087016200036c565b9150620003ec608087016200036c565b90509295509295909350565b948552602085019390935260408401919091526001600160a01b03166060830152608082015260a00190565b6020808252818101527f556e6f52653a207a65726f206361706974616c4167656e742061646472657373604082015260600190565b6020808252601f908201527f556e6f52653a207a65726f207072656d69756d506f6f6c206164647265737300604082015260600190565b60208082526018908201527f556e6f52653a207a65726f205553444320616464726573730000000000000000604082015260600190565b6020808252601b908201527f556e6f52653a207a65726f20666163746f727920616464726573730000000000604082015260600190565b60208082526021908201527f556e6f52653a207a65726f2065786368616e67654167656e74206164647265736040820152607360f81b606082015260800190565b6002810460018216806200055457607f821691505b602082108114156200057657634e487b7160e01b600052602260045260246000fd5b50919050565b60805160601c60a05160601c613e0b620005f56000396000818161124e01526118450152600081816109c601528181610a9101528181610b5c01528181610ebd015281816113aa0152818161168e01528181611759015281816118690152818161209e015281816121ec01526122970152613e0b6000f3fe60806040526004361061021d5760003560e01c80636c19e7831161011d578063b88d4fde116100b0578063d341960b1161007f578063e985e9c511610064578063e985e9c5146105f8578063fa56927414610618578063fda2071d1461062d57610224565b8063d341960b146105ce578063de4e4201146105e357610224565b8063b88d4fde14610559578063c2eb8eb914610579578063c45a015514610599578063c87b56dd146105ae57610224565b806397e8e39c116100ec57806397e8e39c146104e65780639da0e738146104f9578063a22cb46514610519578063a5d5e1421461053957610224565b80636c19e7831461046257806370a08231146104825780637a5402e9146104a257806395d89b41146104d157610224565b8063238ac933116101b057806333b3691e1161017f57806342842e0e1161016457806342842e0e1461040d5780634ba69faa1461042d5780636352211e1461044257610224565b806333b3691e146103d857806342198160146103f857610224565b8063238ac9331461034357806323b872dd146103585780632b07fce3146103785780632d0335ab146103ab57610224565b80630c53c51c116101ec5780630c53c51c146102d057806318a00d8e146102e35780631bcc24721461030357806321ecf7011461032357610224565b806301ffc9a71461022957806306fdde031461025f578063081812fc14610281578063095ea7b3146102ae57610224565b3661022457005b600080fd5b34801561023557600080fd5b50610249610244366004612e33565b61064d565b604051610256919061319d565b60405180910390f35b34801561026b57600080fd5b50610274610695565b60405161025691906131ea565b34801561028d57600080fd5b506102a161029c366004612ed3565b610728565b60405161025691906130a8565b3480156102ba57600080fd5b506102ce6102c9366004612d1f565b610774565b005b6102746102de366004612cad565b61080c565b3480156102ef57600080fd5b506102ce6102fe366004612b54565b6109c4565b34801561030f57600080fd5b506102ce61031e366004612b54565b610a8f565b34801561032f57600080fd5b506102ce61033e366004612b54565b610b5a565b34801561034f57600080fd5b506102a1610c69565b34801561036457600080fd5b506102ce610373366004612ba8565b610c78565b34801561038457600080fd5b50610398610393366004612ed3565b610cb0565b6040516102569796959493929190613bb0565b3480156103b757600080fd5b506103cb6103c6366004612b54565b610d02565b6040516102569190613b91565b3480156103e457600080fd5b506102ce6103f3366004612ed3565b610d1d565b34801561040457600080fd5b506102a1610e4d565b34801561041957600080fd5b506102ce610428366004612ba8565b610e5c565b34801561043957600080fd5b506102a1610e77565b34801561044e57600080fd5b506102a161045d366004612ed3565b610e86565b34801561046e57600080fd5b506102ce61047d366004612b54565b610ebb565b34801561048e57600080fd5b506103cb61049d366004612b54565b610f86565b3480156104ae57600080fd5b506104c26104bd366004612ed3565b610fca565b60405161025693929190613b9a565b3480156104dd57600080fd5b50610274610fe8565b6102ce6104f4366004612d4a565b610ff7565b34801561050557600080fd5b506102ce610514366004612e6b565b6113a8565b34801561052557600080fd5b506102ce610534366004612c52565b611458565b34801561054557600080fd5b506102ce610554366004612ed3565b611526565b34801561056557600080fd5b506102ce610574366004612be8565b61164d565b34801561058557600080fd5b506102ce610594366004612b54565b61168c565b3480156105a557600080fd5b506102a1611757565b3480156105ba57600080fd5b506102746105c9366004612ed3565b61177b565b3480156105da57600080fd5b506103cb6117fe565b3480156105ef57600080fd5b506103cb61180f565b34801561060457600080fd5b50610249610613366004612b70565b611815565b34801561062457600080fd5b506102a1611843565b34801561063957600080fd5b506102ce610648366004612ed3565b611867565b60006001600160e01b031982166380ac58cd60e01b148061067e57506001600160e01b03198216635b5e139f60e01b145b8061068d575061068d82611916565b90505b919050565b6060600280546106a490613caa565b80601f01602080910402602001604051908101604052809291908181526020018280546106d090613caa565b801561071d5780601f106106f25761010080835404028352916020019161071d565b820191906000526020600020905b81548152906001019060200180831161070057829003601f168201915b505050505090505b90565b60006107338261192f565b6107585760405162461bcd60e51b815260040161074f906137aa565b60405180910390fd5b506000908152600660205260409020546001600160a01b031690565b600061077f82610e86565b9050806001600160a01b0316836001600160a01b031614156107b35760405162461bcd60e51b815260040161074f906139bc565b806001600160a01b03166107c561194c565b6001600160a01b031614806107e157506107e18161061361194c565b6107fd5760405162461bcd60e51b815260040161074f906135b9565b6108078383611950565b505050565b60606000610819866119be565b90506000356001600160e01b0319908116908216141561084b5760405162461bcd60e51b815260040161074f90613336565b604080516060810182526001600160a01b0389166000818152600160209081529084902054835282015290810187905261088888828888886119da565b6108a45760405162461bcd60e51b815260040161074f90613853565b6001600160a01b0388166000908152600160208190526040909120546108c991613c3b565b6001600160a01b03891660009081526001602090815260408083209390935591519091829130916108fe918c918e9101612f7d565b60408051601f198184030181529082905261091891612f61565b6000604051808303816000865af19150503d8060008114610955576040519150601f19603f3d011682016040523d82523d6000602084013e61095a565b606091505b50915091508161097c5760405162461bcd60e51b815260040161074f906132c8565b7f5845892132946850460bff5a0083f71031bc5bf9aadcd40f1de79423eac9b10b8a338b6040516109af939291906130bc565b60405180910390a19998505050505050505050565b7f00000000000000000000000000000000000000000000000000000000000000006001600160a01b03166109f6611a86565b6001600160a01b031614610a1c5760405162461bcd60e51b815260040161074f90613773565b6001600160a01b038116610a425760405162461bcd60e51b815260040161074f90613291565b600a80546001600160a01b0319166001600160a01b0383169081179091556040513091907f5ca4aeaf5ab178bf08d3e1eb491b9a13a2de5b100038437cf5ed0e361fff8f3790600090a350565b7f00000000000000000000000000000000000000000000000000000000000000006001600160a01b0316610ac1611a86565b6001600160a01b031614610ae75760405162461bcd60e51b815260040161074f90613773565b6001600160a01b038116610b0d5760405162461bcd60e51b815260040161074f90613291565b600b80546001600160a01b0319166001600160a01b0383169081179091556040513091907fb6f78fe449cc310adeef201f18b6afe9569041a997be6b619607692854999c8190600090a350565b7f00000000000000000000000000000000000000000000000000000000000000006001600160a01b0316610b8c611a86565b6001600160a01b031614610bb25760405162461bcd60e51b815260040161074f90613773565b6001600160a01b038116610bd85760405162461bcd60e51b815260040161074f90613291565b600b546001600160a01b0316610c005760405162461bcd60e51b815260040161074f906138f1565b600b54601154610c1d9183916001600160a01b0390911690611ae2565b600b546040516001600160a01b038084169230927fc571353a8852cd132c515d367a4fa7c21e9c38baf9c7e9818f59d40b2b156b7c92610c5e9216906130a8565b60405180910390a350565b600d546001600160a01b031681565b610c89610c8361194c565b82611be4565b610ca55760405162461bcd60e51b815260040161074f90613a5a565b610807838383611c69565b601060205260009081526040902080546001820154600283015460038401546004909401549293919290916001600160a01b03908116919081169060ff600160a01b8204811691600160a81b90041687565b6001600160a01b031660009081526001602052604090205490565b60026008541415610d405760405162461bcd60e51b815260040161074f90613b4b565b6002600855600c546001600160a01b0316610d59611a86565b6001600160a01b031614610d7f5760405162461bcd60e51b815260040161074f90613773565b600081815260106020526040902060040154600160a01b900460ff16610db75760405162461bcd60e51b815260040161074f90613393565b600081815260106020526040902060040180547fffffffffffffffffffffff00ffffffffffffffffffffffffffffffffffffffff169055610df781611d96565b807f048ce8e17c5255ee6428918540ffd64ab271d402ec9f5cdc6976d66043b174ab6010600084815260200190815260200160002060020154604051610e3d9190613b91565b60405180910390a2506001600855565b600c546001600160a01b031681565b6108078383836040518060200160405280600081525061164d565b600b546001600160a01b031681565b6000818152600460205260408120546001600160a01b03168061068d5760405162461bcd60e51b815260040161074f906136aa565b7f00000000000000000000000000000000000000000000000000000000000000006001600160a01b0316610eed611a86565b6001600160a01b031614610f135760405162461bcd60e51b815260040161074f90613773565b6001600160a01b038116610f395760405162461bcd60e51b815260040161074f90613291565b600d80546001600160a01b0319166001600160a01b0383169081179091556040513091907f8e2c76c578fb1494886741ea1b707ab0b9b0f8001354273d5b491bd68299720e90600090a350565b60006001600160a01b038216610fae5760405162461bcd60e51b815260040161074f9061364d565b506001600160a01b031660009081526005602052604090205490565b60009081526010602052604090206002810154600182015491549092565b6060600380546106a490613caa565b6002600854141561101a5760405162461bcd60e51b815260040161074f90613b4b565b600260085588518061103e5760405162461bcd60e51b815260040161074f90613928565b8851811461105e5760405162461bcd60e51b815260040161074f906139fd565b8751811461107e5760405162461bcd60e51b815260040161074f90613aee565b6000611091888c8b8d8b8b8b8b8b611e3d565b90506001600160a01b038116158015906110b85750600d546001600160a01b038281169116145b6110d45760405162461bcd60e51b815260040161074f90613616565b4287111580156110ee57506009546110ec8842613c67565b105b61110a5760405162461bcd60e51b815260040161074f90613582565b60006001600160a01b03871661124c57600a5460405163531a221160e01b81526001600160a01b039091169063531a22119061114a908c90600401613b91565b60206040518083038186803b15801561116257600080fd5b505afa158015611176573d6000803e3d6000fd5b505050506040513d601f19601f8201168201806040525081019061119a9190612eeb565b9050803410156111bc5760405162461bcd60e51b815260040161074f90613ab7565b803411156111de576111de6111cf611a86565b6111d98334613c67565b611f01565b600b60009054906101000a90046001600160a01b03166001600160a01b031663bc181416826040518263ffffffff1660e01b81526004016000604051808303818588803b15801561122e57600080fd5b505af1158015611242573d6000803e3d6000fd5b5050505050611388565b7f00000000000000000000000000000000000000000000000000000000000000006001600160a01b0316876001600160a01b0316141561128c578861130e565b600a5460405163a9a12d4360e01b81526001600160a01b039091169063a9a12d43906112be908a908d90600401613151565b60206040518083038186803b1580156112d657600080fd5b505afa1580156112ea573d6000803e3d6000fd5b505050506040513d601f19601f8201168201806040525081019061130e9190612eeb565b90506113238761131c611a86565b3084611f8e565b600b54604051638c8ac76d60e01b81526001600160a01b0390911690638c8ac76d90611355908a908590600401613151565b600060405180830381600087803b15801561136f57600080fd5b505af1158015611383573d6000803e3d6000fd5b505050505b6113958c8c8c848b612093565b5050600160085550505050505050505050565b7f00000000000000000000000000000000000000000000000000000000000000006001600160a01b03166113da611a86565b6001600160a01b0316146114005760405162461bcd60e51b815260040161074f90613773565b805161141390600e906020840190612959565b50306001600160a01b03167f970aa99b4d9e40ecd777dc926534019dbf26bef2c6021c90c036984b5a9e0fde8260405161144d91906131ea565b60405180910390a250565b61146061194c565b6001600160a01b0316826001600160a01b031614156114915760405162461bcd60e51b815260040161074f906134c8565b806007600061149e61194c565b6001600160a01b03908116825260208083019390935260409182016000908120918716808252919093529120805460ff1916921515929092179091556114e261194c565b6001600160a01b03167f17307eab39ab6107e8899845ad3d59bd9653f200f220920489ca2b5937696c318360405161151a919061319d565b60405180910390a35050565b600260085414156115495760405162461bcd60e51b815260040161074f90613b4b565b6002600855600c546001600160a01b0316611562611a86565b6001600160a01b0316146115885760405162461bcd60e51b815260040161074f90613773565b600081815260106020526040902060040154600160a01b900460ff16156115c15760405162461bcd60e51b815260040161074f906131fd565b600081815260106020526040902060040180547fffffffffffffffffffff00ffffffffffffffffffffffffffffffffffffffffff16600160a81b17905561160781611d96565b807f184fb82e16552a73263d53d4dcb23c8300d042a0578b8633d30680ac2f09f0766010600084815260200190815260200160002060020154604051610e3d9190613b91565b61165e61165861194c565b83611be4565b61167a5760405162461bcd60e51b815260040161074f90613a5a565b61168684848484612557565b50505050565b7f00000000000000000000000000000000000000000000000000000000000000006001600160a01b03166116be611a86565b6001600160a01b0316146116e45760405162461bcd60e51b815260040161074f90613773565b6001600160a01b03811661170a5760405162461bcd60e51b815260040161074f90613291565b600c80546001600160a01b0319166001600160a01b0383169081179091556040513091907f8dadc789ed91201272dd8c71737c6f84bb2d72bca3f5ec01601694cda82868c090600090a350565b7f000000000000000000000000000000000000000000000000000000000000000081565b60606117868261192f565b6117a25760405162461bcd60e51b815260040161074f90613894565b60006117ac61258a565b905060008151116117cc57604051806020016040528060008152506117f7565b806117d684612599565b6040516020016117e7929190612fb4565b6040516020818303038152906040525b9392505050565b600061180a600f6126cc565b905090565b60095481565b6001600160a01b03918216600090815260076020908152604080832093909416825291909152205460ff1690565b7f000000000000000000000000000000000000000000000000000000000000000081565b7f00000000000000000000000000000000000000000000000000000000000000006001600160a01b0316611899611a86565b6001600160a01b0316146118bf5760405162461bcd60e51b815260040161074f90613773565b600081116118df5760405162461bcd60e51b815260040161074f90613707565b600981905560405130907fef0e0784016a6db87327a652697e3f4ff408f7e7951378b26c113979017f7f029061144d908490613b91565b6001600160e01b031981166301ffc9a760e01b14919050565b6000908152600460205260409020546001600160a01b0316151590565b3390565b600081815260066020526040902080546001600160a01b0319166001600160a01b038416908117909155819061198582610e86565b6001600160a01b03167f8c5be1e5ebec7d5bd14f71427d1e84f3dd0314c0f7b2291e5b200ac8c7c3b92560405160405180910390a45050565b60008151600014156119d257506000610690565b506020015190565b60008060016119f06119eb886126d0565b61272e565b84878760405160008152602001604052604051611a1094939291906131cc565b6020604051602081039080840390855afa158015611a32573d6000803e3d6000fd5b5050604051601f1901519150506001600160a01b038116611a655760405162461bcd60e51b815260040161074f906134ff565b866001600160a01b0316816001600160a01b03161491505095945050505050565b600033301415611add57600080368080601f0160208091040260200160405190810160405280939291908181526020018383808284376000920191909152505050503601516001600160a01b031691506107259050565b503390565b600080846001600160a01b031663095ea7b38585604051602401611b07929190613151565b6040516020818303038152906040529060e01b6020820180517bffffffffffffffffffffffffffffffffffffffffffffffffffffffff8381831617835250505050604051611b559190612f61565b6000604051808303816000865af19150503d8060008114611b92576040519150601f19603f3d011682016040523d82523d6000602084013e611b97565b606091505b5091509150818015611bc1575080511580611bc1575080806020019051810190611bc19190612e17565b611bdd5760405162461bcd60e51b815260040161074f9061395f565b5050505050565b6000611bef8261192f565b611c0b5760405162461bcd60e51b815260040161074f90613536565b6000611c1683610e86565b9050806001600160a01b0316846001600160a01b03161480611c515750836001600160a01b0316611c4684610728565b6001600160a01b0316145b80611c615750611c618185611815565b949350505050565b826001600160a01b0316611c7c82610e86565b6001600160a01b031614611ca25760405162461bcd60e51b815260040161074f906137f6565b6001600160a01b038216611cc85760405162461bcd60e51b815260040161074f90613484565b611cd3838383610807565b611cde600082611950565b6001600160a01b0383166000908152600560205260408120805460019290611d07908490613c67565b90915550506001600160a01b0382166000908152600560205260408120805460019290611d35908490613c3b565b909155505060008181526004602052604080822080546001600160a01b0319166001600160a01b0386811691821790925591518493918716917fddf252ad1be2c89b69c2b068fc378daa952ba7f163c4a11628f55a4df523b3ef91a4505050565b6000611da182610e86565b9050611daf81600084610807565b611dba600083611950565b6001600160a01b0381166000908152600560205260408120805460019290611de3908490613c67565b909155505060008281526004602052604080822080546001600160a01b0319169055518391906001600160a01b038416907fddf252ad1be2c89b69c2b068fc378daa952ba7f163c4a11628f55a4df523b3ef908390a45050565b6000808a8a8a8a8a8a604051602001611e5b9695949392919061302f565b604051602081830303815290604052805190602001209050600081604051602001611e869190612fe3565b604051602081830303815290604052805190602001209050600060018286898960405160008152602001604052604051611ec394939291906131cc565b6020604051602081039080840390855afa158015611ee5573d6000803e3d6000fd5b5050604051601f1901519e9d5050505050505050505050505050565b604080516000808252602082019092526001600160a01b038416908390604051611f2b9190612f61565b60006040518083038185875af1925050503d8060008114611f68576040519150601f19603f3d011682016040523d82523d6000602084013e611f6d565b606091505b50509050806108075760405162461bcd60e51b815260040161074f90613427565b600080856001600160a01b03166323b872dd868686604051602401611fb5939291906130f1565b6040516020818303038152906040529060e01b6020820180517bffffffffffffffffffffffffffffffffffffffffffffffffffffffff83818316178352505050506040516120039190612f61565b6000604051808303816000865af19150503d8060008114612040576040519150601f19603f3d011682016040523d82523d6000602084013e612045565b606091505b509150915081801561206f57508051158061206f57508080602001905181019061206f9190612e17565b61208b5760405162461bcd60e51b815260040161074f906133ca565b505050505050565b6000806000806000807f00000000000000000000000000000000000000000000000000000000000000006001600160a01b031663222a5df66040518163ffffffff1660e01b815260040160206040518083038186803b1580156120f557600080fd5b505afa158015612109573d6000803e3d6000fd5b505050506040513d601f19601f8201168201806040525081019061212d9190612e17565b905060005b8b518110156124e057612145600f6126cc565b95508a818151811061216757634e487b7160e01b600052603260045260246000fd5b6020026020010151945089818151811061219157634e487b7160e01b600052603260045260246000fd5b602002602001015193508b81815181106121bb57634e487b7160e01b600052603260045260246000fd5b6020026020010151925060008990506000831561233057604051636c18443d60e01b81526000906001600160a01b037f00000000000000000000000000000000000000000000000000000000000000001690636c18443d906122219089906004016130a8565b60206040518083038186803b15801561223957600080fd5b505afa15801561224d573d6000803e3d6000fd5b505050506040513d601f19601f820116820180604052508101906122719190612eb1565b905061ffff81161561232a5760405163bbd9d8e160e01b81526000906001600160a01b037f0000000000000000000000000000000000000000000000000000000000000000169063bbd9d8e1906122cc908590600401613b82565b604080518083038186803b1580156122e357600080fd5b505afa1580156122f7573d6000803e3d6000fd5b505050506040513d601f19601f8201168201806040525081019061231b9190612c7f565b9150508061232857600192505b505b50612334565b5060015b80156124cb576040518060e00160405280428152602001878152602001888152602001866001600160a01b031681526020018b6001600160a01b0316815260200160011515815260200160001515815250601060008a815260200190815260200160002060008201518160000155602082015181600101556040820151816002015560608201518160030160006101000a8154816001600160a01b0302191690836001600160a01b0316021790555060808201518160040160006101000a8154816001600160a01b0302191690836001600160a01b0316021790555060a08201518160040160146101000a81548160ff02191690831515021790555060c08201518160040160156101000a81548160ff02191690831515021790555090505061246461245e611a86565b8961274a565b61246e878a613c3b565b985087856001600160a01b03167feb754a0f12967cb204288786f12295d2232893d80a1369d667da7939c16b2ac56124a4611a86565b8a8a8f886040516124b995949392919061316a565b60405180910390a36124cb600f612829565b505080806124d890613ce5565b915050612132565b50851561254a57600c546040516350498d7960e11b81526001600160a01b039091169063a0931af290612517908990600401613b91565b600060405180830381600087803b15801561253157600080fd5b505af1158015612545573d6000803e3d6000fd5b505050505b5050505050505050505050565b612562848484611c69565b61256e84848484612832565b6116865760405162461bcd60e51b815260040161074f90613234565b6060600e80546106a490613caa565b6060816125be57506040805180820190915260018152600360fc1b6020820152610690565b8160005b81156125e857806125d281613ce5565b91506125e19050600a83613c53565b91506125c2565b60008167ffffffffffffffff81111561261157634e487b7160e01b600052604160045260246000fd5b6040519080825280601f01601f19166020018201604052801561263b576020820181803683370190505b5090505b8415611c6157612650600183613c67565b915061265d600a86613d00565b612668906030613c3b565b60f81b81838151811061268b57634e487b7160e01b600052603260045260246000fd5b60200101907effffffffffffffffffffffffffffffffffffffffffffffffffffffffffffff1916908160001a9053506126c5600a86613c53565b945061263f565b5490565b6000604051806080016040528060438152602001613d93604391398051602091820120835184830151604080870151805190860120905161271195016131a8565b604051602081830303815290604052805190602001209050919050565b600061273861294d565b82604051602001612711929190613014565b6001600160a01b0382166127705760405162461bcd60e51b815260040161074f9061373e565b6127798161192f565b156127965760405162461bcd60e51b815260040161074f906132ff565b6127a260008383610807565b6001600160a01b03821660009081526005602052604081208054600192906127cb908490613c3b565b909155505060008181526004602052604080822080546001600160a01b0319166001600160a01b03861690811790915590518392907fddf252ad1be2c89b69c2b068fc378daa952ba7f163c4a11628f55a4df523b3ef908290a45050565b80546001019055565b6000612846846001600160a01b0316612953565b1561294257836001600160a01b031663150b7a0261286261194c565b8786866040518563ffffffff1660e01b81526004016128849493929190613115565b602060405180830381600087803b15801561289e57600080fd5b505af19250505080156128ce575060408051601f3d908101601f191682019092526128cb91810190612e4f565b60015b612928573d8080156128fc576040519150601f19603f3d011682016040523d82523d6000602084013e612901565b606091505b5080516129205760405162461bcd60e51b815260040161074f90613234565b805181602001fd5b6001600160e01b031916630a85bd0160e11b149050611c61565b506001949350505050565b60005490565b3b151590565b82805461296590613caa565b90600052602060002090601f01602090048101928261298757600085556129cd565b82601f106129a057805160ff19168380011785556129cd565b828001600101855582156129cd579182015b828111156129cd5782518255916020019190600101906129b2565b506129d99291506129dd565b5090565b5b808211156129d957600081556001016129de565b600067ffffffffffffffff831115612a0c57612a0c613d40565b612a1f601f8401601f1916602001613bed565b9050828152838383011115612a3357600080fd5b828260208301376000602084830101529392505050565b803561069081613d56565b600082601f830112612a65578081fd5b81356020612a7a612a7583613c17565b613bed565b8281528181019085830183850287018401881015612a96578586fd5b855b85811015612abd578135612aab81613d56565b84529284019290840190600101612a98565b5090979650505050505050565b600082601f830112612ada578081fd5b81356020612aea612a7583613c17565b8281528181019085830183850287018401881015612b06578586fd5b855b85811015612abd57813584529284019290840190600101612b08565b600082601f830112612b34578081fd5b6117f7838335602085016129f2565b803560ff8116811461069057600080fd5b600060208284031215612b65578081fd5b81356117f781613d56565b60008060408385031215612b82578081fd5b8235612b8d81613d56565b91506020830135612b9d81613d56565b809150509250929050565b600080600060608486031215612bbc578081fd5b8335612bc781613d56565b92506020840135612bd781613d56565b929592945050506040919091013590565b60008060008060808587031215612bfd578081fd5b8435612c0881613d56565b93506020850135612c1881613d56565b925060408501359150606085013567ffffffffffffffff811115612c3a578182fd5b612c4687828801612b24565b91505092959194509250565b60008060408385031215612c64578182fd5b8235612c6f81613d56565b91506020830135612b9d81613d6e565b60008060408385031215612c91578182fd5b8251612c9c81613d56565b6020840151909250612b9d81613d6e565b600080600080600060a08688031215612cc4578283fd5b8535612ccf81613d56565b9450602086013567ffffffffffffffff811115612cea578384fd5b612cf688828901612b24565b9450506040860135925060608601359150612d1360808701612b43565b90509295509295909350565b60008060408385031215612d31578182fd5b8235612d3c81613d56565b946020939093013593505050565b60008060008060008060008060006101208a8c031215612d68578687fd5b893567ffffffffffffffff80821115612d7f578889fd5b612d8b8d838e01612a55565b9a5060208c0135915080821115612da0578889fd5b612dac8d838e01612aca565b995060408c0135915080821115612dc1578889fd5b50612dce8c828d01612aca565b97505060608a0135955060808a01359450612deb60a08b01612a4a565b935060c08a0135925060e08a01359150612e086101008b01612b43565b90509295985092959850929598565b600060208284031215612e28578081fd5b81516117f781613d6e565b600060208284031215612e44578081fd5b81356117f781613d7c565b600060208284031215612e60578081fd5b81516117f781613d7c565b600060208284031215612e7c578081fd5b813567ffffffffffffffff811115612e92578182fd5b8201601f81018413612ea2578182fd5b611c61848235602084016129f2565b600060208284031215612ec2578081fd5b815161ffff811681146117f7578182fd5b600060208284031215612ee4578081fd5b5035919050565b600060208284031215612efc578081fd5b5051919050565b600081516020808401835b83811015612f2a57815187529582019590820190600101612f0e565b509495945050505050565b60008151808452612f4d816020860160208601613c7e565b601f01601f19169290920160200192915050565b60008251612f73818460208701613c7e565b9190910192915050565b60008351612f8f818460208801613c7e565b60609390931b6bffffffffffffffffffffffff19169190920190815260140192915050565b60008351612fc6818460208801613c7e565b835190830190612fda818360208801613c7e565b01949350505050565b7f19457468657265756d205369676e6564204d6573736167653a0a3332000000008152601c810191909152603c0190565b61190160f01b81526002810192909252602282015260420190565b600087825260208083018851828a01845b828110156130655781516001600160a01b031684529284019290840190600101613040565b50505061307b613075828a612f03565b88612f03565b9586525060609390931b6bffffffffffffffffffffffff1916928401929092525050603401949350505050565b6001600160a01b0391909116815260200190565b60006001600160a01b038086168352808516602084015250606060408301526130e86060830184612f35565b95945050505050565b6001600160a01b039384168152919092166020820152604081019190915260600190565b60006001600160a01b038087168352808616602084015250836040830152608060608301526131476080830184612f35565b9695505050505050565b6001600160a01b03929092168252602082015260400190565b6001600160a01b039586168152602081019490945260408401929092529092166060820152608081019190915260a00190565b901515815260200190565b93845260208401929092526001600160a01b03166040830152606082015260800190565b93845260ff9290921660208401526040830152606082015260800190565b6000602082526117f76020830184612f35565b60208082526016908201527f556e6f52653a206578706972656420616c726561647900000000000000000000604082015260600190565b60208082526032908201527f4552433732313a207472616e7366657220746f206e6f6e20455243373231526560408201527f63656976657220696d706c656d656e7465720000000000000000000000000000606082015260800190565b60208082526013908201527f556e6f52653a207a65726f206164647265737300000000000000000000000000604082015260600190565b6020808252601c908201527f46756e6374696f6e2063616c6c206e6f74207375636365737366756c00000000604082015260600190565b6020808252601c908201527f4552433732313a20746f6b656e20616c7265616479206d696e74656400000000604082015260600190565b6020808252603d908201527f66756e6374696f6e5369676e61747572652063616e206e6f74206265206f662060408201527f657865637574654d6574615472616e73616374696f6e206d6574686f64000000606082015260800190565b6020808252601e908201527f556e6f52653a206d61726b656420746f20636c61696d20616c72656164790000604082015260600190565b60208082526031908201527f5472616e7366657248656c7065723a3a7472616e7366657246726f6d3a20747260408201527f616e7366657246726f6d206661696c6564000000000000000000000000000000606082015260800190565b60208082526034908201527f5472616e7366657248656c7065723a3a736166655472616e736665724554483a60408201527f20455448207472616e73666572206661696c6564000000000000000000000000606082015260800190565b60208082526024908201527f4552433732313a207472616e7366657220746f20746865207a65726f206164646040820152637265737360e01b606082015260800190565b60208082526019908201527f4552433732313a20617070726f766520746f2063616c6c657200000000000000604082015260600190565b60208082526011908201527f496e76616c6964207369676e6174757265000000000000000000000000000000604082015260600190565b6020808252602c908201527f4552433732313a206f70657261746f7220717565727920666f72206e6f6e657860408201526b34b9ba32b73a103a37b5b2b760a11b606082015260800190565b60208082526018908201527f556e6f52653a207369676e617475726520657870697265640000000000000000604082015260600190565b60208082526038908201527f4552433732313a20617070726f76652063616c6c6572206973206e6f74206f7760408201527f6e6572206e6f7220617070726f76656420666f7220616c6c0000000000000000606082015260800190565b60208082526015908201527f556e6f52653a20696e76616c6964207369676e65720000000000000000000000604082015260600190565b6020808252602a908201527f4552433732313a2062616c616e636520717565727920666f7220746865207a6560408201527f726f206164647265737300000000000000000000000000000000000000000000606082015260800190565b60208082526029908201527f4552433732313a206f776e657220717565727920666f72206e6f6e657869737460408201527f656e7420746f6b656e0000000000000000000000000000000000000000000000606082015260800190565b6020808252601a908201527f556e6f52653a207a65726f206d6178207369676e656454696d65000000000000604082015260600190565b6020808252818101527f4552433732313a206d696e7420746f20746865207a65726f2061646472657373604082015260600190565b6020808252601c908201527f556e6f52653a2053616c6573506f6c69637920466f7262696464656e00000000604082015260600190565b6020808252602c908201527f4552433732313a20617070726f76656420717565727920666f72206e6f6e657860408201526b34b9ba32b73a103a37b5b2b760a11b606082015260800190565b60208082526029908201527f4552433732313a207472616e73666572206f6620746f6b656e2074686174206960408201527f73206e6f74206f776e0000000000000000000000000000000000000000000000606082015260800190565b60208082526021908201527f5369676e657220616e64207369676e617475726520646f206e6f74206d6174636040820152600d60fb1b606082015260800190565b6020808252602f908201527f4552433732314d657461646174613a2055524920717565727920666f72206e6f60408201527f6e6578697374656e7420746f6b656e0000000000000000000000000000000000606082015260800190565b6020808252601e908201527f556e6f52653a206e6f742064656669656e64207072656d69756d506f6f6c0000604082015260600190565b60208082526010908201527f556e6f52653a206e6f20706f6c69637900000000000000000000000000000000604082015260600190565b6020808252602b908201527f5472616e7366657248656c7065723a3a73616665417070726f76653a2061707060408201527f726f7665206661696c6564000000000000000000000000000000000000000000606082015260800190565b60208082526021908201527f4552433732313a20617070726f76616c20746f2063757272656e74206f776e656040820152603960f91b606082015260800190565b6020808252602f908201527f556e6f52653a206e6f206d617463682070726f746f636f6c496473207769746860408201527f20636f766572616765416d6f756e740000000000000000000000000000000000606082015260800190565b60208082526031908201527f4552433732313a207472616e736665722063616c6c6572206973206e6f74206f60408201527f776e6572206e6f7220617070726f766564000000000000000000000000000000606082015260800190565b60208082526018908201527f556e6f52653a20696e73756666696369656e7420706169640000000000000000604082015260600190565b60208082526031908201527f556e6f52653a206e6f206d617463682070726f746f636f6c496473207769746860408201527f20636f7665726167654475726174696f6e000000000000000000000000000000606082015260800190565b6020808252601f908201527f5265656e7472616e637947756172643a207265656e7472616e742063616c6c00604082015260600190565b61ffff91909116815260200190565b90815260200190565b9283526020830191909152604082015260600190565b968752602087019590955260408601939093526001600160a01b039182166060860152166080840152151560a0830152151560c082015260e00190565b60405181810167ffffffffffffffff81118282101715613c0f57613c0f613d40565b604052919050565b600067ffffffffffffffff821115613c3157613c31613d40565b5060209081020190565b60008219821115613c4e57613c4e613d14565b500190565b600082613c6257613c62613d2a565b500490565b600082821015613c7957613c79613d14565b500390565b60005b83811015613c99578181015183820152602001613c81565b838111156116865750506000910152565b600281046001821680613cbe57607f821691505b60208210811415613cdf57634e487b7160e01b600052602260045260246000fd5b50919050565b6000600019821415613cf957613cf9613d14565b5060010190565b600082613d0f57613d0f613d2a565b500690565b634e487b7160e01b600052601160045260246000fd5b634e487b7160e01b600052601260045260246000fd5b634e487b7160e01b600052604160045260246000fd5b6001600160a01b0381168114613d6b57600080fd5b50565b8015158114613d6b57600080fd5b6001600160e01b031981168114613d6b57600080fdfe4d6574615472616e73616374696f6e2875696e74323536206e6f6e63652c616464726573732066726f6d2c62797465732066756e6374696f6e5369676e617475726529a2646970667358221220be6abc332d7f46a1d3c953653050eecc939bab28430b9793eec93da7f8c358dd64736f6c63430008000033454950373132446f6d61696e28737472696e67206e616d652c737472696e672076657273696f6e2c6164647265737320766572696679696e67436f6e74726163742c627974657333322073616c7429a26469706673582212207296c7ab351fcce42fd9b48dcdb50beed1d1560661c36f2813d98878473c419a64736f6c63430008000033",
  "devdoc": {
    "kind": "dev",
    "methods": {
      "owner()": {
        "details": "Returns the address of the current owner."
      },
      "renounceOwnership()": {
        "details": "Leaves the contract without owner. It will not be possible to call `onlyOwner` functions anymore. Can only be called by the current owner. NOTE: Renouncing ownership will leave the contract without an owner, thereby removing any functionality that is only available to the owner."
      },
      "transferOwnership(address)": {
        "details": "Transfers ownership of the contract to a new account (`newOwner`). Can only be called by the current owner."
      }
    },
    "version": 1
  },
  "userdoc": {
    "kind": "user",
    "methods": {},
    "version": 1
  },
  "storageLayout": {
    "storage": [
      {
        "astId": 114,
        "contract": "contracts/factories/SalesPolicyFactory.sol:SalesPolicyFactory",
        "label": "_status",
        "offset": 0,
        "slot": "0",
        "type": "t_uint256"
      },
      {
        "astId": 7,
        "contract": "contracts/factories/SalesPolicyFactory.sol:SalesPolicyFactory",
        "label": "_owner",
        "offset": 0,
        "slot": "1",
        "type": "t_address"
      },
      {
        "astId": 14501,
        "contract": "contracts/factories/SalesPolicyFactory.sol:SalesPolicyFactory",
        "label": "checkIfProtocolInWhitelistArray",
        "offset": 20,
        "slot": "1",
        "type": "t_bool"
      },
      {
        "astId": 14503,
        "contract": "contracts/factories/SalesPolicyFactory.sol:SalesPolicyFactory",
        "label": "premiumPool",
        "offset": 0,
        "slot": "2",
        "type": "t_address"
      },
      {
        "astId": 14505,
        "contract": "contracts/factories/SalesPolicyFactory.sol:SalesPolicyFactory",
        "label": "exchangeAgent",
        "offset": 0,
        "slot": "3",
        "type": "t_address"
      },
      {
        "astId": 14507,
        "contract": "contracts/factories/SalesPolicyFactory.sol:SalesPolicyFactory",
        "label": "capitalAgent",
        "offset": 0,
        "slot": "4",
        "type": "t_address"
      },
      {
        "astId": 14509,
        "contract": "contracts/factories/SalesPolicyFactory.sol:SalesPolicyFactory",
        "label": "salesPolicy",
        "offset": 0,
        "slot": "5",
        "type": "t_address"
      },
      {
        "astId": 14514,
        "contract": "contracts/factories/SalesPolicyFactory.sol:SalesPolicyFactory",
        "label": "getProtocol",
        "offset": 0,
        "slot": "6",
        "type": "t_mapping(t_uint16,t_struct(Protocol)14498_storage)"
      },
      {
        "astId": 14519,
        "contract": "contracts/factories/SalesPolicyFactory.sol:SalesPolicyFactory",
        "label": "getProtocolId",
        "offset": 0,
        "slot": "7",
        "type": "t_mapping(t_address,t_uint16)"
      },
      {
        "astId": 14522,
        "contract": "contracts/factories/SalesPolicyFactory.sol:SalesPolicyFactory",
        "label": "protocolIds",
        "offset": 0,
        "slot": "8",
        "type": "t_struct(Counter)2094_storage"
      },
      {
        "astId": 14524,
        "contract": "contracts/factories/SalesPolicyFactory.sol:SalesPolicyFactory",
        "label": "USDC_TOKEN",
        "offset": 0,
        "slot": "9",
        "type": "t_address"
      }
    ],
    "types": {
      "t_address": {
        "encoding": "inplace",
        "label": "address",
        "numberOfBytes": "20"
      },
      "t_bool": {
        "encoding": "inplace",
        "label": "bool",
        "numberOfBytes": "1"
      },
      "t_mapping(t_address,t_uint16)": {
        "encoding": "mapping",
        "key": "t_address",
        "label": "mapping(address => uint16)",
        "numberOfBytes": "32",
        "value": "t_uint16"
      },
      "t_mapping(t_uint16,t_struct(Protocol)14498_storage)": {
        "encoding": "mapping",
        "key": "t_uint16",
        "label": "mapping(uint16 => struct SalesPolicyFactory.Protocol)",
        "numberOfBytes": "32",
        "value": "t_struct(Protocol)14498_storage"
      },
      "t_struct(Counter)2094_storage": {
        "encoding": "inplace",
        "label": "struct Counters.Counter",
        "members": [
          {
            "astId": 2093,
            "contract": "contracts/factories/SalesPolicyFactory.sol:SalesPolicyFactory",
            "label": "_value",
            "offset": 0,
            "slot": "0",
            "type": "t_uint256"
          }
        ],
        "numberOfBytes": "32"
      },
      "t_struct(Protocol)14498_storage": {
        "encoding": "inplace",
        "label": "struct SalesPolicyFactory.Protocol",
        "members": [
          {
            "astId": 14495,
            "contract": "contracts/factories/SalesPolicyFactory.sol:SalesPolicyFactory",
            "label": "protocolAddress",
            "offset": 0,
            "slot": "0",
            "type": "t_address"
          },
          {
            "astId": 14497,
            "contract": "contracts/factories/SalesPolicyFactory.sol:SalesPolicyFactory",
            "label": "isBlackList",
            "offset": 20,
            "slot": "0",
            "type": "t_bool"
          }
        ],
        "numberOfBytes": "32"
      },
      "t_uint16": {
        "encoding": "inplace",
        "label": "uint16",
        "numberOfBytes": "2"
      },
      "t_uint256": {
        "encoding": "inplace",
        "label": "uint256",
        "numberOfBytes": "32"
      }
    }
  }
}