{
  "address": "0x83a813A86C6ab0E7EA9Ec816254Ce5db563aEb4C",
  "abi": [
    {
      "inputs": [
        {
          "internalType": "address",
          "name": "_usdcToken",
          "type": "address"
        },
        {
          "internalType": "address",
          "name": "_exchangeAgent",
          "type": "address"
        },
        {
          "internalType": "address",
          "name": "_premiumPool",
          "type": "address"
        },
        {
          "internalType": "address",
          "name": "_capitalAgent",
          "type": "address"
        },
        {
          "internalType": "address",
          "name": "_multiSigWallet",
          "type": "address"
        }
      ],
      "stateMutability": "nonpayable",
      "type": "constructor"
    },
    {
      "anonymous": false,
      "inputs": [
        {
          "indexed": false,
          "internalType": "uint16",
          "name": "_protocolId",
          "type": "uint16"
        },
        {
          "indexed": false,
          "internalType": "bytes32",
          "name": "_protocol",
          "type": "bytes32"
        }
      ],
      "name": "LogSetBlackListProtocol",
      "type": "event"
    },
    {
      "anonymous": false,
      "inputs": [
        {
          "indexed": true,
          "internalType": "address",
          "name": "_premiumPool",
          "type": "address"
        }
      ],
      "name": "LogSetPremiumPool",
      "type": "event"
    },
    {
      "anonymous": false,
      "inputs": [
        {
          "indexed": false,
          "internalType": "bool",
          "name": "_status",
          "type": "bool"
        }
      ],
      "name": "LogUpdateCheckIfProtocolInWhitelistArray",
      "type": "event"
    },
    {
      "anonymous": false,
      "inputs": [
        {
          "indexed": true,
          "internalType": "address",
          "name": "previousOwner",
          "type": "address"
        },
        {
          "indexed": true,
          "internalType": "address",
          "name": "newOwner",
          "type": "address"
        }
      ],
      "name": "OwnershipTransferred",
      "type": "event"
    },
    {
      "anonymous": false,
      "inputs": [
        {
          "indexed": false,
          "internalType": "uint16",
          "name": "_protocolIdx",
          "type": "uint16"
        },
        {
          "indexed": false,
          "internalType": "bytes32",
          "name": "_protocol",
          "type": "bytes32"
        }
      ],
      "name": "ProtocolCreated",
      "type": "event"
    },
    {
      "inputs": [],
      "name": "USDC_TOKEN",
      "outputs": [
        {
          "internalType": "address",
          "name": "",
          "type": "address"
        }
      ],
      "stateMutability": "view",
      "type": "function"
    },
    {
      "inputs": [
        {
          "internalType": "bytes32",
          "name": "_protocolAddress",
          "type": "bytes32"
        }
      ],
      "name": "addProtocol",
      "outputs": [],
      "stateMutability": "nonpayable",
      "type": "function"
    },
    {
      "inputs": [],
      "name": "allProtocolsLength",
      "outputs": [
        {
          "internalType": "uint256",
          "name": "",
          "type": "uint256"
        }
      ],
      "stateMutability": "view",
      "type": "function"
    },
    {
      "inputs": [
        {
          "internalType": "address",
          "name": "_premiumCurrency",
          "type": "address"
        }
      ],
      "name": "approvePremiumInPolicy",
      "outputs": [],
      "stateMutability": "nonpayable",
      "type": "function"
    },
    {
      "inputs": [],
      "name": "capitalAgent",
      "outputs": [
        {
          "internalType": "address",
          "name": "",
          "type": "address"
        }
      ],
      "stateMutability": "view",
      "type": "function"
    },
    {
      "inputs": [],
      "name": "checkIfProtocolInWhitelistArray",
      "outputs": [
        {
          "internalType": "bool",
          "name": "",
          "type": "bool"
        }
      ],
      "stateMutability": "view",
      "type": "function"
    },
    {
      "inputs": [],
      "name": "exchangeAgent",
      "outputs": [
        {
          "internalType": "address",
          "name": "",
          "type": "address"
        }
      ],
      "stateMutability": "view",
      "type": "function"
    },
    {
      "inputs": [
        {
          "internalType": "uint16",
          "name": "",
          "type": "uint16"
        }
      ],
      "name": "getProtocol",
      "outputs": [
        {
          "internalType": "bytes32",
          "name": "protocolAddress",
          "type": "bytes32"
        },
        {
          "internalType": "bool",
          "name": "isBlackList",
          "type": "bool"
        }
      ],
      "stateMutability": "view",
      "type": "function"
    },
    {
      "inputs": [
        {
          "internalType": "uint16",
          "name": "_protocolIdx",
          "type": "uint16"
        }
      ],
      "name": "getProtocolData",
      "outputs": [
        {
          "internalType": "bytes32",
          "name": "protocolAddress",
          "type": "bytes32"
        },
        {
          "internalType": "bool",
          "name": "isBlackList",
          "type": "bool"
        }
      ],
      "stateMutability": "view",
      "type": "function"
    },
    {
      "inputs": [
        {
          "internalType": "bytes32",
          "name": "",
          "type": "bytes32"
        }
      ],
      "name": "getProtocolId",
      "outputs": [
        {
          "internalType": "uint16",
          "name": "",
          "type": "uint16"
        }
      ],
      "stateMutability": "view",
      "type": "function"
    },
    {
      "inputs": [
        {
          "internalType": "address",
          "name": "_exchangeAgent",
          "type": "address"
        },
        {
          "internalType": "address",
          "name": "_premiumPool",
          "type": "address"
        },
        {
          "internalType": "address",
          "name": "_capitalAgent",
          "type": "address"
        }
      ],
      "name": "newSalesPolicy",
      "outputs": [
        {
          "internalType": "address",
          "name": "",
          "type": "address"
        }
      ],
      "stateMutability": "nonpayable",
      "type": "function"
    },
    {
      "inputs": [],
      "name": "owner",
      "outputs": [
        {
          "internalType": "address",
          "name": "",
          "type": "address"
        }
      ],
      "stateMutability": "view",
      "type": "function"
    },
    {
      "inputs": [],
      "name": "premiumPool",
      "outputs": [
        {
          "internalType": "address",
          "name": "",
          "type": "address"
        }
      ],
      "stateMutability": "view",
      "type": "function"
    },
    {
      "inputs": [],
      "name": "renounceOwnership",
      "outputs": [],
      "stateMutability": "nonpayable",
      "type": "function"
    },
    {
      "inputs": [],
      "name": "salesPolicy",
      "outputs": [
        {
          "internalType": "address",
          "name": "",
          "type": "address"
        }
      ],
      "stateMutability": "view",
      "type": "function"
    },
    {
      "inputs": [
        {
          "internalType": "bytes32",
          "name": "_protocol",
          "type": "bytes32"
        }
      ],
      "name": "setBlackListProtocolByAddress",
      "outputs": [],
      "stateMutability": "nonpayable",
      "type": "function"
    },
    {
      "inputs": [
        {
          "internalType": "uint16",
          "name": "_protocolId",
          "type": "uint16"
        }
      ],
      "name": "setBlackListProtocolById",
      "outputs": [],
      "stateMutability": "nonpayable",
      "type": "function"
    },
    {
      "inputs": [
        {
          "internalType": "uint256",
          "name": "_maxDeadline",
          "type": "uint256"
        }
      ],
      "name": "setBuyPolicyMaxDeadlineInPolicy",
      "outputs": [],
      "stateMutability": "nonpayable",
      "type": "function"
    },
    {
      "inputs": [
        {
          "internalType": "address",
          "name": "_capitalAgent",
          "type": "address"
        }
      ],
      "name": "setCapitalAgentInPolicy",
      "outputs": [],
      "stateMutability": "nonpayable",
      "type": "function"
    },
    {
      "inputs": [
        {
          "internalType": "address",
          "name": "_exchangeAgent",
          "type": "address"
        }
      ],
      "name": "setExchangeAgentInPolicy",
      "outputs": [],
      "stateMutability": "nonpayable",
      "type": "function"
    },
    {
      "inputs": [
        {
          "internalType": "address",
          "name": "_premiumPool",
          "type": "address"
        }
      ],
      "name": "setPremiumPool",
      "outputs": [],
      "stateMutability": "nonpayable",
      "type": "function"
    },
    {
      "inputs": [
        {
          "internalType": "address",
          "name": "_premiumPool",
          "type": "address"
        }
      ],
      "name": "setPremiumPoolInPolicy",
      "outputs": [],
      "stateMutability": "nonpayable",
      "type": "function"
    },
    {
      "inputs": [
        {
          "internalType": "string",
          "name": "_uri",
          "type": "string"
        }
      ],
      "name": "setProtocolURIInPolicy",
      "outputs": [],
      "stateMutability": "nonpayable",
      "type": "function"
    },
    {
      "inputs": [
        {
          "internalType": "address",
          "name": "_signer",
          "type": "address"
        }
      ],
      "name": "setSignerInPolicy",
      "outputs": [],
      "stateMutability": "nonpayable",
      "type": "function"
    },
    {
      "inputs": [
        {
          "internalType": "address",
          "name": "newOwner",
          "type": "address"
        }
      ],
      "name": "transferOwnership",
      "outputs": [],
      "stateMutability": "nonpayable",
      "type": "function"
    },
    {
      "inputs": [
        {
          "internalType": "bool",
          "name": "_status",
          "type": "bool"
        }
      ],
      "name": "updateCheckIfProtocolInWhitelistArray",
      "outputs": [],
      "stateMutability": "nonpayable",
      "type": "function"
    }
  ],
  "transactionHash": "0xef4045fa9e86bd2502a803f176ef01a8ff213cd3706259c04f583c5de0d1a878",
  "args": [
    "0x40c035016AD732b6cFce34c3F881040B6C6cf71E",
    "0x34Bb884F2B45F614067Df55AD58c0DDdaeff9408",
    "0xb8a6CDD678091eeC8CB20EdDbC48b3Aa502FbF6d",
    "0x64741A6b0143596F31e462c6cD802A2A7eacaAc3",
    "0x5569BDF4e02cec3fE459796e3d0e741616029fA4"
  ],
  "solcInputHash": "e3f55eb4b8f006ad9dd58d5d553dbd20",
  "bytecode": "0x60806040523480156200001157600080fd5b5060405162005c5738038062005c57833981016040819052620000349162000282565b60016000556200004d6200004762000183565b62000187565b6001600160a01b0385166200007f5760405162461bcd60e51b81526004016200007690620003e5565b60405180910390fd5b6001600160a01b038416620000a85760405162461bcd60e51b815260040162000076906200041c565b6001600160a01b038316620000d15760405162461bcd60e51b815260040162000076906200036c565b6001600160a01b038216620000fa5760405162461bcd60e51b81526004016200007690620002f1565b6001600160a01b038116620001235760405162461bcd60e51b81526004016200007690620003a3565b600980546001600160a01b038088166001600160a01b031992831617909255600280548684169083161790556003805487841690831617905560048054928516929091169190911790556200017881620001d9565b505050505062000492565b3390565b600180546001600160a01b038381166001600160a01b0319831681179093556040519116919082907f8be0079c531659141344cd1fd0a4f28419497f9722a3daafe3b4186f6b6457e090600090a35050565b620001e362000183565b6001600160a01b0316620001f662000256565b6001600160a01b0316146200021f5760405162461bcd60e51b815260040162000076906200045d565b6001600160a01b038116620002485760405162461bcd60e51b8152600401620000769062000326565b620002538162000187565b50565b6001546001600160a01b031690565b80516001600160a01b03811681146200027d57600080fd5b919050565b600080600080600060a086880312156200029a578081fd5b620002a58662000265565b9450620002b56020870162000265565b9350620002c56040870162000265565b9250620002d56060870162000265565b9150620002e56080870162000265565b90509295509295909350565b6020808252818101527f556e6f52653a207a65726f206361706974616c4167656e742061646472657373604082015260600190565b60208082526026908201527f4f776e61626c653a206e6577206f776e657220697320746865207a65726f206160408201526564647265737360d01b606082015260800190565b6020808252601f908201527f556e6f52653a207a65726f207072656d69756d506f6f6c206164647265737300604082015260600190565b60208082526022908201527f556e6f52653a207a65726f206d756c746973696777616c6c6574206164647265604082015261737360f01b606082015260800190565b60208082526018908201527f556e6f52653a207a65726f205553444320616464726573730000000000000000604082015260600190565b60208082526021908201527f556e6f52653a207a65726f2065786368616e67654167656e74206164647265736040820152607360f81b606082015260800190565b6020808252818101527f4f776e61626c653a2063616c6c6572206973206e6f7420746865206f776e6572604082015260600190565b6157b580620004a26000396000f3fe60806040523480156200001157600080fd5b5060043610620001d85760003560e01c8063b64a775e1162000105578063d2c7c2a411620000a5578063df73d6d0116200007b578063df73d6d014620003c6578063dfca978114620003dd578063f2fde38b14620003f4578063fa569274146200040b57620001d8565b8063d2c7c2a4146200038e578063d9203b9114620003a5578063dc962e4514620003af57620001d8565b8063c3c3b55b11620000db578063c3c3b55b1462000356578063c5870a4b1462000360578063d191097e146200037757620001d8565b8063b64a775e1462000301578063bbd9d8e11462000318578063bcd54f0c146200033f57620001d8565b80634ba69faa116200017d5780638da5cb5b11620001535780638da5cb5b14620002b0578063924589c514620002ba578063b31b9fee14620002d1578063b381ff8214620002e857620001d8565b80634ba69faa1462000285578063715018a6146200028f5780638bc798dc146200029957620001d8565b80634219816011620001b357806342198160146200022f578063434e4350146200024857806347a4c679146200026e57620001d8565b806302f3318d14620001dd5780631bcc247214620001f6578063222a5df6146200020d575b600080fd5b620001f4620001ee36600462000ffb565b62000415565b005b620001f46200020736600462000ffb565b620004f6565b62000217620005bc565b604051620002269190620011b8565b60405180910390f35b62000239620005cc565b60405162000226919062001172565b6200025f620002593660046200108a565b620005db565b60405162000226919062001360565b620001f46200027f3660046200108a565b620005f1565b62000239620006a8565b620001f4620006b7565b620001f4620002aa36600462000ffb565b6200070b565b62000239620007ac565b620001f4620002cb3660046200114e565b620007bb565b62000239620002e23660046200101f565b62000864565b620002f2620009c7565b60405162000226919062001383565b620001f46200031236600462000ffb565b620009da565b6200032f620003293660046200114e565b62000a7b565b60405162000226929190620011c3565b620001f462000350366004620010a3565b62000a9e565b6200023962000b16565b620001f46200037136600462000ffb565b62000b25565b620001f4620003883660046200108a565b62000bc6565b6200032f6200039f3660046200114e565b62000c61565b6200023962000c7d565b620001f4620003c036600462001068565b62000c8c565b620001f4620003d73660046200108a565b62000d36565b620001f4620003ee36600462000ffb565b62000e5d565b620001f46200040536600462000ffb565b62000ed5565b6200023962000f52565b6200041f62000f61565b6001600160a01b031662000432620007ac565b6001600160a01b031614620004645760405162461bcd60e51b81526004016200045b90620012bd565b60405180910390fd5b6001600160a01b0381166200048d5760405162461bcd60e51b81526004016200045b9062001286565b600554604051630de6123960e11b81526001600160a01b0390911690631bcc247290620004bf90849060040162001172565b600060405180830381600087803b158015620004da57600080fd5b505af1158015620004ef573d6000803e3d6000fd5b5050505050565b6200050062000f61565b6001600160a01b031662000513620007ac565b6001600160a01b0316146200053c5760405162461bcd60e51b81526004016200045b90620012bd565b6001600160a01b038116620005655760405162461bcd60e51b81526004016200045b9062001286565b6002805473ffffffffffffffffffffffffffffffffffffffff19166001600160a01b0383169081179091556040517faa0150507cbcab99f33127173fcbdd580e5710d253406b99952e1feda3cdcc0e90600090a250565b600154600160a01b900460ff1681565b6004546001600160a01b031681565b60076020526000908152604090205461ffff1681565b620005fb62000f61565b6001600160a01b03166200060e620007ac565b6001600160a01b031614620006375760405162461bcd60e51b81526004016200045b90620012bd565b60008181526007602090815260408083205461ffff168084526006909252918290206001908101805460ff1916909117905590517f86e88bb442124d09beb437e7a61e5022275ff37456e76ac47abe90c295eabfee906200069c90839085906200136f565b60405180910390a15050565b6002546001600160a01b031681565b620006c162000f61565b6001600160a01b0316620006d4620007ac565b6001600160a01b031614620006fd5760405162461bcd60e51b81526004016200045b90620012bd565b62000709600062000f65565b565b6200071562000f61565b6001600160a01b031662000728620007ac565b6001600160a01b031614620007515760405162461bcd60e51b81526004016200045b90620012bd565b6001600160a01b0381166200077a5760405162461bcd60e51b81526004016200045b9062001286565b600554604051636c19e78360e01b81526001600160a01b0390911690636c19e78390620004bf90849060040162001172565b6001546001600160a01b031690565b620007c562000f61565b6001600160a01b0316620007d8620007ac565b6001600160a01b031614620008015760405162461bcd60e51b81526004016200045b90620012bd565b61ffff8116600090815260066020526040908190206001818101805460ff191690911790555490517f86e88bb442124d09beb437e7a61e5022275ff37456e76ac47abe90c295eabfee9162000859918491906200136f565b60405180910390a150565b60006200087062000f61565b6001600160a01b031662000883620007ac565b6001600160a01b031614620008ac5760405162461bcd60e51b81526004016200045b90620012bd565b60026000541415620008d25760405162461bcd60e51b81526004016200045b9062001329565b6002600090815560095460405130918791879187916001600160a01b0390911690620008fe9062000fd5565b6200090e95949392919062001186565b604051809103906000f0801580156200092b573d6000803e3d6000fd5b506005805473ffffffffffffffffffffffffffffffffffffffff19166001600160a01b038381169190911790915560048054604051637d4163d360e01b815293945090911691637d4163d391620009859185910162001172565b600060405180830381600087803b158015620009a057600080fd5b505af1158015620009b5573d6000803e3d6000fd5b50506001600055509095945050505050565b6000620009d5600862000fc4565b905090565b620009e462000f61565b6001600160a01b0316620009f7620007ac565b6001600160a01b03161462000a205760405162461bcd60e51b81526004016200045b90620012bd565b6001600160a01b03811662000a495760405162461bcd60e51b81526004016200045b9062001286565b600554604051630c5006c760e11b81526001600160a01b03909116906318a00d8e90620004bf90849060040162001172565b61ffff81166000908152600660205260409020805460019091015460ff16915091565b62000aa862000f61565b6001600160a01b031662000abb620007ac565b6001600160a01b03161462000ae45760405162461bcd60e51b81526004016200045b90620012bd565b6005546040516313b41ce760e31b81526001600160a01b0390911690639da0e73890620004bf908490600401620011d3565b6005546001600160a01b031681565b62000b2f62000f61565b6001600160a01b031662000b42620007ac565b6001600160a01b03161462000b6b5760405162461bcd60e51b81526004016200045b90620012bd565b6001600160a01b03811662000b945760405162461bcd60e51b81526004016200045b9062001286565b60055460405163c2eb8eb960e01b81526001600160a01b039091169063c2eb8eb990620004bf90849060040162001172565b62000bd062000f61565b6001600160a01b031662000be3620007ac565b6001600160a01b03161462000c0c5760405162461bcd60e51b81526004016200045b90620012bd565b6000811162000c2f5760405162461bcd60e51b81526004016200045b90620012f2565b60055460405163fda2071d60e01b81526001600160a01b039091169063fda2071d90620004bf90849060040162001383565b6006602052600090815260409020805460019091015460ff1682565b6003546001600160a01b031681565b62000c9662000f61565b6001600160a01b031662000ca9620007ac565b6001600160a01b03161462000cd25760405162461bcd60e51b81526004016200045b90620012bd565b600180547fffffffffffffffffffffff00ffffffffffffffffffffffffffffffffffffffff16600160a01b831515021790556040517f8488d1fbbfabc3e41bea48b6d06c5139182eccbd9942a27a1142748120d028589062000859908390620011b8565b62000d4062000f61565b6001600160a01b031662000d53620007ac565b6001600160a01b03161462000d7c5760405162461bcd60e51b81526004016200045b90620012bd565b6002600054141562000da25760405162461bcd60e51b81526004016200045b9062001329565b600260005562000db3600862000fcc565b600062000dc1600862000fc4565b6040805180820182528481526000602080830182815261ffff8616808452600683528584209451855590516001909401805460ff19169415159490941790935586825260079052829020805461ffff19169091179055519091507fa469474f62f78ed4915260ae4223cff45cc128e488fa7caf6352b5efc82cff399062000e4c90839085906200136f565b60405180910390a150506001600055565b62000e6762000f61565b6001600160a01b031662000e7a620007ac565b6001600160a01b03161462000ea35760405162461bcd60e51b81526004016200045b90620012bd565b6005546040516321ecf70160e01b81526001600160a01b03909116906321ecf70190620004bf90849060040162001172565b62000edf62000f61565b6001600160a01b031662000ef2620007ac565b6001600160a01b03161462000f1b5760405162461bcd60e51b81526004016200045b90620012bd565b6001600160a01b03811662000f445760405162461bcd60e51b81526004016200045b9062001229565b62000f4f8162000f65565b50565b6009546001600160a01b031681565b3390565b600180546001600160a01b0383811673ffffffffffffffffffffffffffffffffffffffff19831681179093556040519116919082907f8be0079c531659141344cd1fd0a4f28419497f9722a3daafe3b4186f6b6457e090600090a35050565b80545b919050565b80546001019055565b6143dd80620013a383390190565b80356001600160a01b038116811462000fc757600080fd5b6000602082840312156200100d578081fd5b620010188262000fe3565b9392505050565b60008060006060848603121562001034578182fd5b6200103f8462000fe3565b92506200104f6020850162000fe3565b91506200105f6040850162000fe3565b90509250925092565b6000602082840312156200107a578081fd5b8135801515811462001018578182fd5b6000602082840312156200109c578081fd5b5035919050565b60006020808385031215620010b6578182fd5b823567ffffffffffffffff80821115620010ce578384fd5b818501915085601f830112620010e2578384fd5b813581811115620010f757620010f76200138c565b604051601f8201601f19168101850183811182821017156200111d576200111d6200138c565b604052818152838201850188101562001134578586fd5b818585018683013790810190930193909352509392505050565b60006020828403121562001160578081fd5b813561ffff8116811462001018578182fd5b6001600160a01b0391909116815260200190565b6001600160a01b0395861681529385166020850152918416604084015283166060830152909116608082015260a00190565b901515815260200190565b9182521515602082015260400190565b6000602080835283518082850152825b818110156200120157858101830151858201604001528201620011e3565b81811115620012135783604083870101525b50601f01601f1916929092016040019392505050565b60208082526026908201527f4f776e61626c653a206e6577206f776e657220697320746865207a65726f206160408201527f6464726573730000000000000000000000000000000000000000000000000000606082015260800190565b60208082526013908201527f556e6f52653a207a65726f206164647265737300000000000000000000000000604082015260600190565b6020808252818101527f4f776e61626c653a2063616c6c6572206973206e6f7420746865206f776e6572604082015260600190565b60208082526018908201527f556e6f52653a207a65726f206d617820646561646c696e650000000000000000604082015260600190565b6020808252601f908201527f5265656e7472616e637947756172643a207265656e7472616e742063616c6c00604082015260600190565b61ffff91909116815260200190565b61ffff929092168252602082015260400190565b90815260200190565b634e487b7160e01b600052604160045260246000fdfe60c06040526000196011553480156200001757600080fd5b50604051620043dd380380620043dd8339810160408190526200003a9162000389565b6040518060400160405280601081526020016f506f6c69637920696e737572616e636560801b8152506040518060400160405280601081526020016f506f6c69637920696e737572616e636560801b8152506040518060400160405280601881526020017f427579506f6c6963794d6574615472616e73616374696f6e0000000000000000815250604051806040016040528060018152602001603160f81b81525081816040518060800160405280604f81526020016200438e604f913980519060200120828051906020012082805190602001203062000120620002c260201b60201c565b60405162000136959493929190602001620003f8565b60408051601f19818403018152919052805160209182012060005586516200016a95506002945090870192509050620002c6565b50805162000180906003906020840190620002c6565b50506001600855506001600160a01b038516620001ba5760405162461bcd60e51b8152600401620001b190620004c7565b60405180910390fd5b6001600160a01b038416620001e35760405162461bcd60e51b8152600401620001b190620004fe565b6001600160a01b0383166200020c5760405162461bcd60e51b8152600401620001b19062000459565b6001600160a01b038216620002355760405162461bcd60e51b8152600401620001b19062000424565b6001600160a01b0381166200025e5760405162461bcd60e51b8152600401620001b19062000490565b606094851b6001600160601b0319908116608052600a80546001600160a01b03199081166001600160a01b0397881617909155600c8054821694871694909417909355941b90931660a052600b8054909316911617905562093a806009556200057c565b4690565b828054620002d4906200053f565b90600052602060002090601f016020900481019282620002f8576000855562000343565b82601f106200031357805160ff191683800117855562000343565b8280016001018555821562000343579182015b828111156200034357825182559160200191906001019062000326565b506200035192915062000355565b5090565b5b8082111562000351576000815560010162000356565b80516001600160a01b03811681146200038457600080fd5b919050565b600080600080600060a08688031215620003a1578081fd5b620003ac866200036c565b9450620003bc602087016200036c565b9350620003cc604087016200036c565b9250620003dc606087016200036c565b9150620003ec608087016200036c565b90509295509295909350565b948552602085019390935260408401919091526001600160a01b03166060830152608082015260a00190565b6020808252818101527f556e6f52653a207a65726f206361706974616c4167656e742061646472657373604082015260600190565b6020808252601f908201527f556e6f52653a207a65726f207072656d69756d506f6f6c206164647265737300604082015260600190565b60208082526018908201527f556e6f52653a207a65726f205553444320616464726573730000000000000000604082015260600190565b6020808252601b908201527f556e6f52653a207a65726f20666163746f727920616464726573730000000000604082015260600190565b60208082526021908201527f556e6f52653a207a65726f2065786368616e67654167656e74206164647265736040820152607360f81b606082015260800190565b6002810460018216806200055457607f821691505b602082108114156200057657634e487b7160e01b600052602260045260246000fd5b50919050565b60805160601c60a05160601c613d99620005f5600039600081816112fa01526118410152600081816109c601528181610a9101528181610b5c01528181610eb901528181610ff50152818161168a01528181611755015281816118650152818161209a015281816121e801526122930152613d996000f3fe60806040526004361061021d5760003560e01c80636c19e7831161011d578063b88d4fde116100b0578063d341960b1161007f578063e985e9c511610064578063e985e9c5146105f8578063fa56927414610618578063fda2071d1461062d57610224565b8063d341960b146105ce578063de4e4201146105e357610224565b8063b88d4fde14610559578063c2eb8eb914610579578063c45a015514610599578063c87b56dd146105ae57610224565b80639da0e738116100ec5780639da0e738146104e65780639fd5b23a14610506578063a22cb46514610519578063a5d5e1421461053957610224565b80636c19e7831461046257806370a08231146104825780637a5402e9146104a257806395d89b41146104d157610224565b8063238ac933116101b057806333b3691e1161017f57806342842e0e1161016457806342842e0e1461040d5780634ba69faa1461042d5780636352211e1461044257610224565b806333b3691e146103d857806342198160146103f857610224565b8063238ac9331461034357806323b872dd146103585780632b07fce3146103785780632d0335ab146103ab57610224565b80630c53c51c116101ec5780630c53c51c146102d057806318a00d8e146102e35780631bcc24721461030357806321ecf7011461032357610224565b806301ffc9a71461022957806306fdde031461025f578063081812fc14610281578063095ea7b3146102ae57610224565b3661022457005b600080fd5b34801561023557600080fd5b50610249610244366004612da5565b61064d565b60405161025691906130d3565b60405180910390f35b34801561026b57600080fd5b50610274610695565b604051610256919061315f565b34801561028d57600080fd5b506102a161029c366004612e45565b610728565b6040516102569190613011565b3480156102ba57600080fd5b506102ce6102c9366004612c6f565b610774565b005b6102746102de366004612bff565b61080c565b3480156102ef57600080fd5b506102ce6102fe366004612adc565b6109c4565b34801561030f57600080fd5b506102ce61031e366004612adc565b610a8f565b34801561032f57600080fd5b506102ce61033e366004612adc565b610b5a565b34801561034f57600080fd5b506102a1610c69565b34801561036457600080fd5b506102ce610373366004612b28565b610c78565b34801561038457600080fd5b50610398610393366004612e45565b610cb0565b6040516102569796959493929190613b53565b3480156103b757600080fd5b506103cb6103c6366004612adc565b610cfe565b60405161025691906130de565b3480156103e457600080fd5b506102ce6103f3366004612e45565b610d19565b34801561040457600080fd5b506102a1610e49565b34801561041957600080fd5b506102ce610428366004612b28565b610e58565b34801561043957600080fd5b506102a1610e73565b34801561044e57600080fd5b506102a161045d366004612e45565b610e82565b34801561046e57600080fd5b506102ce61047d366004612adc565b610eb7565b34801561048e57600080fd5b506103cb61049d366004612adc565b610f82565b3480156104ae57600080fd5b506104c26104bd366004612e45565b610fc6565b60405161025693929190613b3d565b3480156104dd57600080fd5b50610274610fe4565b3480156104f257600080fd5b506102ce610501366004612ddd565b610ff3565b6102ce610514366004612c98565b6110a3565b34801561052557600080fd5b506102ce610534366004612bc9565b611454565b34801561054557600080fd5b506102ce610554366004612e45565b611522565b34801561056557600080fd5b506102ce610574366004612b63565b611649565b34801561058557600080fd5b506102ce610594366004612adc565b611688565b3480156105a557600080fd5b506102a1611753565b3480156105ba57600080fd5b506102746105c9366004612e45565b611777565b3480156105da57600080fd5b506103cb6117fa565b3480156105ef57600080fd5b506103cb61180b565b34801561060457600080fd5b50610249610613366004612af6565b611811565b34801561062457600080fd5b506102a161183f565b34801561063957600080fd5b506102ce610648366004612e45565b611863565b60006001600160e01b031982166380ac58cd60e01b148061067e57506001600160e01b03198216635b5e139f60e01b145b8061068d575061068d82611912565b90505b919050565b6060600280546106a490613c4d565b80601f01602080910402602001604051908101604052809291908181526020018280546106d090613c4d565b801561071d5780601f106106f25761010080835404028352916020019161071d565b820191906000526020600020905b81548152906001019060200180831161070057829003601f168201915b505050505090505b90565b60006107338261192b565b6107585760405162461bcd60e51b815260040161074f9061371f565b60405180910390fd5b506000908152600660205260409020546001600160a01b031690565b600061077f82610e82565b9050806001600160a01b0316836001600160a01b031614156107b35760405162461bcd60e51b815260040161074f90613931565b806001600160a01b03166107c5611948565b6001600160a01b031614806107e157506107e181610613611948565b6107fd5760405162461bcd60e51b815260040161074f9061352e565b610807838361194c565b505050565b60606000610819866119ba565b90506000356001600160e01b0319908116908216141561084b5760405162461bcd60e51b815260040161074f906132ab565b604080516060810182526001600160a01b0389166000818152600160209081529084902054835282015290810187905261088888828888886119d6565b6108a45760405162461bcd60e51b815260040161074f906137c8565b6001600160a01b0388166000908152600160208190526040909120546108c991613bde565b6001600160a01b03891660009081526001602090815260408083209390935591519091829130916108fe918c918e9101612eef565b60408051601f198184030181529082905261091891612ed3565b6000604051808303816000865af19150503d8060008114610955576040519150601f19603f3d011682016040523d82523d6000602084013e61095a565b606091505b50915091508161097c5760405162461bcd60e51b815260040161074f9061323d565b7f5845892132946850460bff5a0083f71031bc5bf9aadcd40f1de79423eac9b10b8a338b6040516109af93929190613025565b60405180910390a19998505050505050505050565b7f00000000000000000000000000000000000000000000000000000000000000006001600160a01b03166109f6611a82565b6001600160a01b031614610a1c5760405162461bcd60e51b815260040161074f906136e8565b6001600160a01b038116610a425760405162461bcd60e51b815260040161074f90613206565b600a80546001600160a01b0319166001600160a01b0383169081179091556040513091907f5ca4aeaf5ab178bf08d3e1eb491b9a13a2de5b100038437cf5ed0e361fff8f3790600090a350565b7f00000000000000000000000000000000000000000000000000000000000000006001600160a01b0316610ac1611a82565b6001600160a01b031614610ae75760405162461bcd60e51b815260040161074f906136e8565b6001600160a01b038116610b0d5760405162461bcd60e51b815260040161074f90613206565b600b80546001600160a01b0319166001600160a01b0383169081179091556040513091907fb6f78fe449cc310adeef201f18b6afe9569041a997be6b619607692854999c8190600090a350565b7f00000000000000000000000000000000000000000000000000000000000000006001600160a01b0316610b8c611a82565b6001600160a01b031614610bb25760405162461bcd60e51b815260040161074f906136e8565b6001600160a01b038116610bd85760405162461bcd60e51b815260040161074f90613206565b600b546001600160a01b0316610c005760405162461bcd60e51b815260040161074f90613866565b600b54601154610c1d9183916001600160a01b0390911690611ade565b600b546040516001600160a01b038084169230927fc571353a8852cd132c515d367a4fa7c21e9c38baf9c7e9818f59d40b2b156b7c92610c5e921690613011565b60405180910390a350565b600d546001600160a01b031681565b610c89610c83611948565b82611be0565b610ca55760405162461bcd60e51b815260040161074f906139cf565b610807838383611c65565b60106020526000908152604090208054600182015460028301546003840154600490940154929391929091906001600160a01b0381169060ff600160a01b8204811691600160a81b90041687565b6001600160a01b031660009081526001602052604090205490565b60026008541415610d3c5760405162461bcd60e51b815260040161074f90613af7565b6002600855600c546001600160a01b0316610d55611a82565b6001600160a01b031614610d7b5760405162461bcd60e51b815260040161074f906136e8565b600081815260106020526040902060040154600160a01b900460ff16610db35760405162461bcd60e51b815260040161074f90613308565b600081815260106020526040902060040180547fffffffffffffffffffffff00ffffffffffffffffffffffffffffffffffffffff169055610df381611d92565b807f048ce8e17c5255ee6428918540ffd64ab271d402ec9f5cdc6976d66043b174ab6010600084815260200190815260200160002060020154604051610e3991906130de565b60405180910390a2506001600855565b600c546001600160a01b031681565b61080783838360405180602001604052806000815250611649565b600b546001600160a01b031681565b6000818152600460205260408120546001600160a01b03168061068d5760405162461bcd60e51b815260040161074f9061361f565b7f00000000000000000000000000000000000000000000000000000000000000006001600160a01b0316610ee9611a82565b6001600160a01b031614610f0f5760405162461bcd60e51b815260040161074f906136e8565b6001600160a01b038116610f355760405162461bcd60e51b815260040161074f90613206565b600d80546001600160a01b0319166001600160a01b0383169081179091556040513091907f8e2c76c578fb1494886741ea1b707ab0b9b0f8001354273d5b491bd68299720e90600090a350565b60006001600160a01b038216610faa5760405162461bcd60e51b815260040161074f906135c2565b506001600160a01b031660009081526005602052604090205490565b60009081526010602052604090206002810154600182015491549092565b6060600380546106a490613c4d565b7f00000000000000000000000000000000000000000000000000000000000000006001600160a01b0316611025611a82565b6001600160a01b03161461104b5760405162461bcd60e51b815260040161074f906136e8565b805161105e90600e906020840190612938565b50306001600160a01b03167f970aa99b4d9e40ecd777dc926534019dbf26bef2c6021c90c036984b5a9e0fde82604051611098919061315f565b60405180910390a250565b600260085414156110c65760405162461bcd60e51b815260040161074f90613af7565b60026008558851806110ea5760405162461bcd60e51b815260040161074f9061389d565b8851811461110a5760405162461bcd60e51b815260040161074f90613972565b8751811461112a5760405162461bcd60e51b815260040161074f90613a9a565b600061113d888c8b8d8b8b8b8b8b611e39565b90506001600160a01b038116158015906111645750600d546001600160a01b038281169116145b6111805760405162461bcd60e51b815260040161074f9061358b565b42871115801561119a57506009546111988842613c0a565b105b6111b65760405162461bcd60e51b815260040161074f906134f7565b60006001600160a01b0387166112f857600a5460405163531a221160e01b81526001600160a01b039091169063531a2211906111f6908c906004016130de565b60206040518083038186803b15801561120e57600080fd5b505afa158015611222573d6000803e3d6000fd5b505050506040513d601f19601f820116820180604052508101906112469190612e5d565b9050803410156112685760405162461bcd60e51b815260040161074f90613a63565b8034111561128a5761128a61127b611a82565b6112858334613c0a565b611efd565b600b60009054906101000a90046001600160a01b03166001600160a01b031663bc181416826040518263ffffffff1660e01b81526004016000604051808303818588803b1580156112da57600080fd5b505af11580156112ee573d6000803e3d6000fd5b5050505050611434565b7f00000000000000000000000000000000000000000000000000000000000000006001600160a01b0316876001600160a01b0316141561133857886113ba565b600a5460405163a9a12d4360e01b81526001600160a01b039091169063a9a12d439061136a908a908d906004016130ba565b60206040518083038186803b15801561138257600080fd5b505afa158015611396573d6000803e3d6000fd5b505050506040513d601f19601f820116820180604052508101906113ba9190612e5d565b90506113cf876113c8611a82565b3084611f8a565b600b54604051638c8ac76d60e01b81526001600160a01b0390911690638c8ac76d90611401908a9085906004016130ba565b600060405180830381600087803b15801561141b57600080fd5b505af115801561142f573d6000803e3d6000fd5b505050505b6114418c8c8c848b61208f565b5050600160085550505050505050505050565b61145c611948565b6001600160a01b0316826001600160a01b0316141561148d5760405162461bcd60e51b815260040161074f9061343d565b806007600061149a611948565b6001600160a01b03908116825260208083019390935260409182016000908120918716808252919093529120805460ff1916921515929092179091556114de611948565b6001600160a01b03167f17307eab39ab6107e8899845ad3d59bd9653f200f220920489ca2b5937696c318360405161151691906130d3565b60405180910390a35050565b600260085414156115455760405162461bcd60e51b815260040161074f90613af7565b6002600855600c546001600160a01b031661155e611a82565b6001600160a01b0316146115845760405162461bcd60e51b815260040161074f906136e8565b600081815260106020526040902060040154600160a01b900460ff16156115bd5760405162461bcd60e51b815260040161074f90613172565b600081815260106020526040902060040180547fffffffffffffffffffff00ffffffffffffffffffffffffffffffffffffffffff16600160a81b17905561160381611d92565b807f184fb82e16552a73263d53d4dcb23c8300d042a0578b8633d30680ac2f09f0766010600084815260200190815260200160002060020154604051610e3991906130de565b61165a611654611948565b83611be0565b6116765760405162461bcd60e51b815260040161074f906139cf565b61168284848484612536565b50505050565b7f00000000000000000000000000000000000000000000000000000000000000006001600160a01b03166116ba611a82565b6001600160a01b0316146116e05760405162461bcd60e51b815260040161074f906136e8565b6001600160a01b0381166117065760405162461bcd60e51b815260040161074f90613206565b600c80546001600160a01b0319166001600160a01b0383169081179091556040513091907f8dadc789ed91201272dd8c71737c6f84bb2d72bca3f5ec01601694cda82868c090600090a350565b7f000000000000000000000000000000000000000000000000000000000000000081565b60606117828261192b565b61179e5760405162461bcd60e51b815260040161074f90613809565b60006117a8612569565b905060008151116117c857604051806020016040528060008152506117f3565b806117d284612578565b6040516020016117e3929190612f26565b6040516020818303038152906040525b9392505050565b6000611806600f6126ab565b905090565b60095481565b6001600160a01b03918216600090815260076020908152604080832093909416825291909152205460ff1690565b7f000000000000000000000000000000000000000000000000000000000000000081565b7f00000000000000000000000000000000000000000000000000000000000000006001600160a01b0316611895611a82565b6001600160a01b0316146118bb5760405162461bcd60e51b815260040161074f906136e8565b600081116118db5760405162461bcd60e51b815260040161074f9061367c565b600981905560405130907fef0e0784016a6db87327a652697e3f4ff408f7e7951378b26c113979017f7f02906110989084906130de565b6001600160e01b031981166301ffc9a760e01b14919050565b6000908152600460205260409020546001600160a01b0316151590565b3390565b600081815260066020526040902080546001600160a01b0319166001600160a01b038416908117909155819061198182610e82565b6001600160a01b03167f8c5be1e5ebec7d5bd14f71427d1e84f3dd0314c0f7b2291e5b200ac8c7c3b92560405160405180910390a45050565b60008151600014156119ce57506000610690565b506020015190565b60008060016119ec6119e7886126af565b61270d565b84878760405160008152602001604052604051611a0c9493929190613141565b6020604051602081039080840390855afa158015611a2e573d6000803e3d6000fd5b5050604051601f1901519150506001600160a01b038116611a615760405162461bcd60e51b815260040161074f90613474565b866001600160a01b0316816001600160a01b03161491505095945050505050565b600033301415611ad957600080368080601f0160208091040260200160405190810160405280939291908181526020018383808284376000920191909152505050503601516001600160a01b031691506107259050565b503390565b600080846001600160a01b031663095ea7b38585604051602401611b039291906130ba565b6040516020818303038152906040529060e01b6020820180517bffffffffffffffffffffffffffffffffffffffffffffffffffffffff8381831617835250505050604051611b519190612ed3565b6000604051808303816000865af19150503d8060008114611b8e576040519150601f19603f3d011682016040523d82523d6000602084013e611b93565b606091505b5091509150818015611bbd575080511580611bbd575080806020019051810190611bbd9190612d65565b611bd95760405162461bcd60e51b815260040161074f906138d4565b5050505050565b6000611beb8261192b565b611c075760405162461bcd60e51b815260040161074f906134ab565b6000611c1283610e82565b9050806001600160a01b0316846001600160a01b03161480611c4d5750836001600160a01b0316611c4284610728565b6001600160a01b0316145b80611c5d5750611c5d8185611811565b949350505050565b826001600160a01b0316611c7882610e82565b6001600160a01b031614611c9e5760405162461bcd60e51b815260040161074f9061376b565b6001600160a01b038216611cc45760405162461bcd60e51b815260040161074f906133f9565b611ccf838383610807565b611cda60008261194c565b6001600160a01b0383166000908152600560205260408120805460019290611d03908490613c0a565b90915550506001600160a01b0382166000908152600560205260408120805460019290611d31908490613bde565b909155505060008181526004602052604080822080546001600160a01b0319166001600160a01b0386811691821790925591518493918716917fddf252ad1be2c89b69c2b068fc378daa952ba7f163c4a11628f55a4df523b3ef91a4505050565b6000611d9d82610e82565b9050611dab81600084610807565b611db660008361194c565b6001600160a01b0381166000908152600560205260408120805460019290611ddf908490613c0a565b909155505060008281526004602052604080822080546001600160a01b0319169055518391906001600160a01b038416907fddf252ad1be2c89b69c2b068fc378daa952ba7f163c4a11628f55a4df523b3ef908390a45050565b6000808a8a8a8a8a8a604051602001611e5796959493929190612fa1565b604051602081830303815290604052805190602001209050600081604051602001611e829190612f55565b604051602081830303815290604052805190602001209050600060018286898960405160008152602001604052604051611ebf9493929190613141565b6020604051602081039080840390855afa158015611ee1573d6000803e3d6000fd5b5050604051601f1901519e9d5050505050505050505050505050565b604080516000808252602082019092526001600160a01b038416908390604051611f279190612ed3565b60006040518083038185875af1925050503d8060008114611f64576040519150601f19603f3d011682016040523d82523d6000602084013e611f69565b606091505b50509050806108075760405162461bcd60e51b815260040161074f9061339c565b600080856001600160a01b03166323b872dd868686604051602401611fb19392919061305a565b6040516020818303038152906040529060e01b6020820180517bffffffffffffffffffffffffffffffffffffffffffffffffffffffff8381831617835250505050604051611fff9190612ed3565b6000604051808303816000865af19150503d806000811461203c576040519150601f19603f3d011682016040523d82523d6000602084013e612041565b606091505b509150915081801561206b57508051158061206b57508080602001905181019061206b9190612d65565b6120875760405162461bcd60e51b815260040161074f9061333f565b505050505050565b6000806000806000807f00000000000000000000000000000000000000000000000000000000000000006001600160a01b031663222a5df66040518163ffffffff1660e01b815260040160206040518083038186803b1580156120f157600080fd5b505afa158015612105573d6000803e3d6000fd5b505050506040513d601f19601f820116820180604052508101906121299190612d65565b905060005b8b518110156124bf57612141600f6126ab565b95508a818151811061216357634e487b7160e01b600052603260045260246000fd5b6020026020010151945089818151811061218d57634e487b7160e01b600052603260045260246000fd5b602002602001015193508b81815181106121b757634e487b7160e01b600052603260045260246000fd5b6020026020010151925060008990506000831561232c57604051630434e43560e41b81526000906001600160a01b037f0000000000000000000000000000000000000000000000000000000000000000169063434e43509061221d9089906004016130de565b60206040518083038186803b15801561223557600080fd5b505afa158015612249573d6000803e3d6000fd5b505050506040513d601f19601f8201168201806040525081019061226d9190612e23565b905061ffff8116156123265760405163bbd9d8e160e01b81526000906001600160a01b037f0000000000000000000000000000000000000000000000000000000000000000169063bbd9d8e1906122c8908590600401613b2e565b604080518083038186803b1580156122df57600080fd5b505afa1580156122f3573d6000803e3d6000fd5b505050506040513d601f19601f820116820180604052508101906123179190612d81565b9150508061232457600192505b505b50612330565b5060015b8061234d5760405162461bcd60e51b815260040161074f90613a2c565b6040518060e001604052804281526020018781526020018881526020018681526020018b6001600160a01b0316815260200160011515815260200160001515815250601060008a81526020019081526020016000206000820151816000015560208201518160010155604082015181600201556060820151816003015560808201518160040160006101000a8154816001600160a01b0302191690836001600160a01b0316021790555060a08201518160040160146101000a81548160ff02191690831515021790555060c08201518160040160156101000a81548160ff02191690831515021790555090505061244b612445611a82565b89612729565b612455878a613bde565b9850877fef250688f54740465fd871250fc33a35fff7c8c14c637a6a3e20779aa5e7f84986612482611a82565b8a8a8f88604051612498969594939291906130e7565b60405180910390a26124aa600f612808565b505080806124b790613c88565b91505061212e565b50851561252957600c546040516350498d7960e11b81526001600160a01b039091169063a0931af2906124f69089906004016130de565b600060405180830381600087803b15801561251057600080fd5b505af1158015612524573d6000803e3d6000fd5b505050505b5050505050505050505050565b612541848484611c65565b61254d84848484612811565b6116825760405162461bcd60e51b815260040161074f906131a9565b6060600e80546106a490613c4d565b60608161259d57506040805180820190915260018152600360fc1b6020820152610690565b8160005b81156125c757806125b181613c88565b91506125c09050600a83613bf6565b91506125a1565b60008167ffffffffffffffff8111156125f057634e487b7160e01b600052604160045260246000fd5b6040519080825280601f01601f19166020018201604052801561261a576020820181803683370190505b5090505b8415611c5d5761262f600183613c0a565b915061263c600a86613ca3565b612647906030613bde565b60f81b81838151811061266a57634e487b7160e01b600052603260045260246000fd5b60200101907effffffffffffffffffffffffffffffffffffffffffffffffffffffffffffff1916908160001a9053506126a4600a86613bf6565b945061261e565b5490565b6000604051806080016040528060438152602001613d2160439139805160209182012083518483015160408087015180519086012090516126f0950161311d565b604051602081830303815290604052805190602001209050919050565b600061271761292c565b826040516020016126f0929190612f86565b6001600160a01b03821661274f5760405162461bcd60e51b815260040161074f906136b3565b6127588161192b565b156127755760405162461bcd60e51b815260040161074f90613274565b61278160008383610807565b6001600160a01b03821660009081526005602052604081208054600192906127aa908490613bde565b909155505060008181526004602052604080822080546001600160a01b0319166001600160a01b03861690811790915590518392907fddf252ad1be2c89b69c2b068fc378daa952ba7f163c4a11628f55a4df523b3ef908290a45050565b80546001019055565b6000612825846001600160a01b0316612932565b1561292157836001600160a01b031663150b7a02612841611948565b8786866040518563ffffffff1660e01b8152600401612863949392919061307e565b602060405180830381600087803b15801561287d57600080fd5b505af19250505080156128ad575060408051601f3d908101601f191682019092526128aa91810190612dc1565b60015b612907573d8080156128db576040519150601f19603f3d011682016040523d82523d6000602084013e6128e0565b606091505b5080516128ff5760405162461bcd60e51b815260040161074f906131a9565b805181602001fd5b6001600160e01b031916630a85bd0160e11b149050611c5d565b506001949350505050565b60005490565b3b151590565b82805461294490613c4d565b90600052602060002090601f01602090048101928261296657600085556129ac565b82601f1061297f57805160ff19168380011785556129ac565b828001600101855582156129ac579182015b828111156129ac578251825591602001919060010190612991565b506129b89291506129bc565b5090565b5b808211156129b857600081556001016129bd565b600067ffffffffffffffff8311156129eb576129eb613ce3565b6129fe601f8401601f1916602001613b90565b9050828152838383011115612a1257600080fd5b828260208301376000602084830101529392505050565b80356001600160a01b038116811461069057600080fd5b600082601f830112612a50578081fd5b81356020612a65612a6083613bba565b613b90565b8281528181019085830183850287018401881015612a81578586fd5b855b85811015612a9f57813584529284019290840190600101612a83565b5090979650505050505050565b600082601f830112612abc578081fd5b6117f3838335602085016129d1565b803560ff8116811461069057600080fd5b600060208284031215612aed578081fd5b6117f382612a29565b60008060408385031215612b08578081fd5b612b1183612a29565b9150612b1f60208401612a29565b90509250929050565b600080600060608486031215612b3c578081fd5b612b4584612a29565b9250612b5360208501612a29565b9150604084013590509250925092565b60008060008060808587031215612b78578081fd5b612b8185612a29565b9350612b8f60208601612a29565b925060408501359150606085013567ffffffffffffffff811115612bb1578182fd5b612bbd87828801612aac565b91505092959194509250565b60008060408385031215612bdb578182fd5b612be483612a29565b91506020830135612bf481613cf9565b809150509250929050565b600080600080600060a08688031215612c16578081fd5b612c1f86612a29565b9450602086013567ffffffffffffffff811115612c3a578182fd5b612c4688828901612aac565b9450506040860135925060608601359150612c6360808701612acb565b90509295509295909350565b60008060408385031215612c81578182fd5b612c8a83612a29565b946020939093013593505050565b60008060008060008060008060006101208a8c031215612cb6578687fd5b893567ffffffffffffffff80821115612ccd578889fd5b612cd98d838e01612a40565b9a5060208c0135915080821115612cee578889fd5b612cfa8d838e01612a40565b995060408c0135915080821115612d0f578889fd5b50612d1c8c828d01612a40565b97505060608a0135955060808a01359450612d3960a08b01612a29565b935060c08a0135925060e08a01359150612d566101008b01612acb565b90509295985092959850929598565b600060208284031215612d76578081fd5b81516117f381613cf9565b60008060408385031215612d93578182fd5b825191506020830151612bf481613cf9565b600060208284031215612db6578081fd5b81356117f381613d0a565b600060208284031215612dd2578081fd5b81516117f381613d0a565b600060208284031215612dee578081fd5b813567ffffffffffffffff811115612e04578182fd5b8201601f81018413612e14578182fd5b611c5d848235602084016129d1565b600060208284031215612e34578081fd5b815161ffff811681146117f3578182fd5b600060208284031215612e56578081fd5b5035919050565b600060208284031215612e6e578081fd5b5051919050565b600081516020808401835b83811015612e9c57815187529582019590820190600101612e80565b509495945050505050565b60008151808452612ebf816020860160208601613c21565b601f01601f19169290920160200192915050565b60008251612ee5818460208701613c21565b9190910192915050565b60008351612f01818460208801613c21565b60609390931b6bffffffffffffffffffffffff19169190920190815260140192915050565b60008351612f38818460208801613c21565b835190830190612f4c818360208801613c21565b01949350505050565b7f19457468657265756d205369676e6564204d6573736167653a0a3332000000008152601c810191909152603c0190565b61190160f01b81526002810192909252602282015260420190565b600087825260208083018851828a01845b82811015612fce57815184529284019290840190600101612fb2565b505050612fe4612fde828a612e75565b88612e75565b9586525060609390931b6bffffffffffffffffffffffff1916928401929092525050603401949350505050565b6001600160a01b0391909116815260200190565b60006001600160a01b038086168352808516602084015250606060408301526130516060830184612ea7565b95945050505050565b6001600160a01b039384168152919092166020820152604081019190915260600190565b60006001600160a01b038087168352808616602084015250836040830152608060608301526130b06080830184612ea7565b9695505050505050565b6001600160a01b03929092168252602082015260400190565b901515815260200190565b90815260200190565b9586526001600160a01b03948516602087015260408601939093526060850191909152909116608083015260a082015260c00190565b93845260208401929092526001600160a01b03166040830152606082015260800190565b93845260ff9290921660208401526040830152606082015260800190565b6000602082526117f36020830184612ea7565b60208082526016908201527f556e6f52653a206578706972656420616c726561647900000000000000000000604082015260600190565b60208082526032908201527f4552433732313a207472616e7366657220746f206e6f6e20455243373231526560408201527f63656976657220696d706c656d656e7465720000000000000000000000000000606082015260800190565b60208082526013908201527f556e6f52653a207a65726f206164647265737300000000000000000000000000604082015260600190565b6020808252601c908201527f46756e6374696f6e2063616c6c206e6f74207375636365737366756c00000000604082015260600190565b6020808252601c908201527f4552433732313a20746f6b656e20616c7265616479206d696e74656400000000604082015260600190565b6020808252603d908201527f66756e6374696f6e5369676e61747572652063616e206e6f74206265206f662060408201527f657865637574654d6574615472616e73616374696f6e206d6574686f64000000606082015260800190565b6020808252601e908201527f556e6f52653a206d61726b656420746f20636c61696d20616c72656164790000604082015260600190565b60208082526031908201527f5472616e7366657248656c7065723a3a7472616e7366657246726f6d3a20747260408201527f616e7366657246726f6d206661696c6564000000000000000000000000000000606082015260800190565b60208082526034908201527f5472616e7366657248656c7065723a3a736166655472616e736665724554483a60408201527f20455448207472616e73666572206661696c6564000000000000000000000000606082015260800190565b60208082526024908201527f4552433732313a207472616e7366657220746f20746865207a65726f206164646040820152637265737360e01b606082015260800190565b60208082526019908201527f4552433732313a20617070726f766520746f2063616c6c657200000000000000604082015260600190565b60208082526011908201527f496e76616c6964207369676e6174757265000000000000000000000000000000604082015260600190565b6020808252602c908201527f4552433732313a206f70657261746f7220717565727920666f72206e6f6e657860408201526b34b9ba32b73a103a37b5b2b760a11b606082015260800190565b60208082526018908201527f556e6f52653a207369676e617475726520657870697265640000000000000000604082015260600190565b60208082526038908201527f4552433732313a20617070726f76652063616c6c6572206973206e6f74206f7760408201527f6e6572206e6f7220617070726f76656420666f7220616c6c0000000000000000606082015260800190565b60208082526015908201527f556e6f52653a20696e76616c6964207369676e65720000000000000000000000604082015260600190565b6020808252602a908201527f4552433732313a2062616c616e636520717565727920666f7220746865207a6560408201527f726f206164647265737300000000000000000000000000000000000000000000606082015260800190565b60208082526029908201527f4552433732313a206f776e657220717565727920666f72206e6f6e657869737460408201527f656e7420746f6b656e0000000000000000000000000000000000000000000000606082015260800190565b6020808252601a908201527f556e6f52653a207a65726f206d6178207369676e656454696d65000000000000604082015260600190565b6020808252818101527f4552433732313a206d696e7420746f20746865207a65726f2061646472657373604082015260600190565b6020808252601c908201527f556e6f52653a2053616c6573506f6c69637920466f7262696464656e00000000604082015260600190565b6020808252602c908201527f4552433732313a20617070726f76656420717565727920666f72206e6f6e657860408201526b34b9ba32b73a103a37b5b2b760a11b606082015260800190565b60208082526029908201527f4552433732313a207472616e73666572206f6620746f6b656e2074686174206960408201527f73206e6f74206f776e0000000000000000000000000000000000000000000000606082015260800190565b60208082526021908201527f5369676e657220616e64207369676e617475726520646f206e6f74206d6174636040820152600d60fb1b606082015260800190565b6020808252602f908201527f4552433732314d657461646174613a2055524920717565727920666f72206e6f60408201527f6e6578697374656e7420746f6b656e0000000000000000000000000000000000606082015260800190565b6020808252601e908201527f556e6f52653a206e6f742064656669656e64207072656d69756d506f6f6c0000604082015260600190565b60208082526010908201527f556e6f52653a206e6f20706f6c69637900000000000000000000000000000000604082015260600190565b6020808252602b908201527f5472616e7366657248656c7065723a3a73616665417070726f76653a2061707060408201527f726f7665206661696c6564000000000000000000000000000000000000000000606082015260800190565b60208082526021908201527f4552433732313a20617070726f76616c20746f2063757272656e74206f776e656040820152603960f91b606082015260800190565b6020808252602f908201527f556e6f52653a206e6f206d617463682070726f746f636f6c496473207769746860408201527f20636f766572616765416d6f756e740000000000000000000000000000000000606082015260800190565b60208082526031908201527f4552433732313a207472616e736665722063616c6c6572206973206e6f74206f60408201527f776e6572206e6f7220617070726f766564000000000000000000000000000000606082015260800190565b60208082526019908201527f556e6f52653a20756e617661696c61626c6520706f6c69637900000000000000604082015260600190565b60208082526018908201527f556e6f52653a20696e73756666696369656e7420706169640000000000000000604082015260600190565b60208082526031908201527f556e6f52653a206e6f206d617463682070726f746f636f6c496473207769746860408201527f20636f7665726167654475726174696f6e000000000000000000000000000000606082015260800190565b6020808252601f908201527f5265656e7472616e637947756172643a207265656e7472616e742063616c6c00604082015260600190565b61ffff91909116815260200190565b9283526020830191909152604082015260600190565b9687526020870195909552604086019390935260608501919091526001600160a01b03166080840152151560a0830152151560c082015260e00190565b60405181810167ffffffffffffffff81118282101715613bb257613bb2613ce3565b604052919050565b600067ffffffffffffffff821115613bd457613bd4613ce3565b5060209081020190565b60008219821115613bf157613bf1613cb7565b500190565b600082613c0557613c05613ccd565b500490565b600082821015613c1c57613c1c613cb7565b500390565b60005b83811015613c3c578181015183820152602001613c24565b838111156116825750506000910152565b600281046001821680613c6157607f821691505b60208210811415613c8257634e487b7160e01b600052602260045260246000fd5b50919050565b6000600019821415613c9c57613c9c613cb7565b5060010190565b600082613cb257613cb2613ccd565b500690565b634e487b7160e01b600052601160045260246000fd5b634e487b7160e01b600052601260045260246000fd5b634e487b7160e01b600052604160045260246000fd5b8015158114613d0757600080fd5b50565b6001600160e01b031981168114613d0757600080fdfe4d6574615472616e73616374696f6e2875696e74323536206e6f6e63652c616464726573732066726f6d2c62797465732066756e6374696f6e5369676e617475726529a264697066735822122052da73354d3c60c93b71fc77fbcf554ed8353758a58996a1aaa63098e147110b64736f6c63430008000033454950373132446f6d61696e28737472696e67206e616d652c737472696e672076657273696f6e2c6164647265737320766572696679696e67436f6e74726163742c627974657333322073616c7429a26469706673582212206dcd203f8733cbdf2658d1d574c0f47be68babd1b1ea23ab4b9021ecd986ce2264736f6c63430008000033",
  "devdoc": {
    "kind": "dev",
    "methods": {
      "owner()": {
        "details": "Returns the address of the current owner."
      },
      "renounceOwnership()": {
        "details": "Leaves the contract without owner. It will not be possible to call `onlyOwner` functions anymore. Can only be called by the current owner. NOTE: Renouncing ownership will leave the contract without an owner, thereby removing any functionality that is only available to the owner."
      },
      "transferOwnership(address)": {
        "details": "Transfers ownership of the contract to a new account (`newOwner`). Can only be called by the current owner."
      }
    },
    "version": 1
  },
  "userdoc": {
    "kind": "user",
    "methods": {},
    "version": 1
  },
  "storageLayout": {
    "storage": [
      {
        "astId": 114,
        "contract": "contracts/factories/SalesPolicyFactory.sol:SalesPolicyFactory",
        "label": "_status",
        "offset": 0,
        "slot": "0",
        "type": "t_uint256"
      },
      {
        "astId": 7,
        "contract": "contracts/factories/SalesPolicyFactory.sol:SalesPolicyFactory",
        "label": "_owner",
        "offset": 0,
        "slot": "1",
        "type": "t_address"
      },
      {
        "astId": 18372,
        "contract": "contracts/factories/SalesPolicyFactory.sol:SalesPolicyFactory",
        "label": "checkIfProtocolInWhitelistArray",
        "offset": 20,
        "slot": "1",
        "type": "t_bool"
      },
      {
        "astId": 18374,
        "contract": "contracts/factories/SalesPolicyFactory.sol:SalesPolicyFactory",
        "label": "premiumPool",
        "offset": 0,
        "slot": "2",
        "type": "t_address"
      },
      {
        "astId": 18376,
        "contract": "contracts/factories/SalesPolicyFactory.sol:SalesPolicyFactory",
        "label": "exchangeAgent",
        "offset": 0,
        "slot": "3",
        "type": "t_address"
      },
      {
        "astId": 18378,
        "contract": "contracts/factories/SalesPolicyFactory.sol:SalesPolicyFactory",
        "label": "capitalAgent",
        "offset": 0,
        "slot": "4",
        "type": "t_address"
      },
      {
        "astId": 18380,
        "contract": "contracts/factories/SalesPolicyFactory.sol:SalesPolicyFactory",
        "label": "salesPolicy",
        "offset": 0,
        "slot": "5",
        "type": "t_address"
      },
      {
        "astId": 18385,
        "contract": "contracts/factories/SalesPolicyFactory.sol:SalesPolicyFactory",
        "label": "getProtocol",
        "offset": 0,
        "slot": "6",
        "type": "t_mapping(t_uint16,t_struct(Protocol)18369_storage)"
      },
      {
        "astId": 18390,
        "contract": "contracts/factories/SalesPolicyFactory.sol:SalesPolicyFactory",
        "label": "getProtocolId",
        "offset": 0,
        "slot": "7",
        "type": "t_mapping(t_bytes32,t_uint16)"
      },
      {
        "astId": 18393,
        "contract": "contracts/factories/SalesPolicyFactory.sol:SalesPolicyFactory",
        "label": "protocolIds",
        "offset": 0,
        "slot": "8",
        "type": "t_struct(Counter)2094_storage"
      },
      {
        "astId": 18395,
        "contract": "contracts/factories/SalesPolicyFactory.sol:SalesPolicyFactory",
        "label": "USDC_TOKEN",
        "offset": 0,
        "slot": "9",
        "type": "t_address"
      }
    ],
    "types": {
      "t_address": {
        "encoding": "inplace",
        "label": "address",
        "numberOfBytes": "20"
      },
      "t_bool": {
        "encoding": "inplace",
        "label": "bool",
        "numberOfBytes": "1"
      },
      "t_bytes32": {
        "encoding": "inplace",
        "label": "bytes32",
        "numberOfBytes": "32"
      },
      "t_mapping(t_bytes32,t_uint16)": {
        "encoding": "mapping",
        "key": "t_bytes32",
        "label": "mapping(bytes32 => uint16)",
        "numberOfBytes": "32",
        "value": "t_uint16"
      },
      "t_mapping(t_uint16,t_struct(Protocol)18369_storage)": {
        "encoding": "mapping",
        "key": "t_uint16",
        "label": "mapping(uint16 => struct SalesPolicyFactory.Protocol)",
        "numberOfBytes": "32",
        "value": "t_struct(Protocol)18369_storage"
      },
      "t_struct(Counter)2094_storage": {
        "encoding": "inplace",
        "label": "struct Counters.Counter",
        "members": [
          {
            "astId": 2093,
            "contract": "contracts/factories/SalesPolicyFactory.sol:SalesPolicyFactory",
            "label": "_value",
            "offset": 0,
            "slot": "0",
            "type": "t_uint256"
          }
        ],
        "numberOfBytes": "32"
      },
      "t_struct(Protocol)18369_storage": {
        "encoding": "inplace",
        "label": "struct SalesPolicyFactory.Protocol",
        "members": [
          {
            "astId": 18366,
            "contract": "contracts/factories/SalesPolicyFactory.sol:SalesPolicyFactory",
            "label": "protocolAddress",
            "offset": 0,
            "slot": "0",
            "type": "t_bytes32"
          },
          {
            "astId": 18368,
            "contract": "contracts/factories/SalesPolicyFactory.sol:SalesPolicyFactory",
            "label": "isBlackList",
            "offset": 0,
            "slot": "1",
            "type": "t_bool"
          }
        ],
        "numberOfBytes": "64"
      },
      "t_uint16": {
        "encoding": "inplace",
        "label": "uint16",
        "numberOfBytes": "2"
      },
      "t_uint256": {
        "encoding": "inplace",
        "label": "uint256",
        "numberOfBytes": "32"
      }
    }
  }
}