{
  "address": "0x4Aa3aEb01D5a0365971B01BA54E91A02192BfB34",
  "abi": [
    {
      "inputs": [
        {
          "internalType": "address",
          "name": "_owner",
          "type": "address"
        },
        {
          "internalType": "address",
          "name": "_usdt_token",
          "type": "address"
        },
        {
          "internalType": "address",
          "name": "_uno_token",
          "type": "address"
        },
        {
          "internalType": "address",
          "name": "_exchangeAgent",
          "type": "address"
        },
        {
          "internalType": "address",
          "name": "_premiumPool",
          "type": "address"
        },
        {
          "internalType": "address",
          "name": "_capitalAgent",
          "type": "address"
        }
      ],
      "stateMutability": "nonpayable",
      "type": "constructor"
    },
    {
      "anonymous": false,
      "inputs": [
        {
          "indexed": true,
          "internalType": "address",
          "name": "_premiumPool",
          "type": "address"
        }
      ],
      "name": "LogSetPremiumPool",
      "type": "event"
    },
    {
      "anonymous": false,
      "inputs": [
        {
          "indexed": false,
          "internalType": "uint16",
          "name": "_protocolIdx",
          "type": "uint16"
        },
        {
          "indexed": false,
          "internalType": "uint256",
          "name": "_mcr",
          "type": "uint256"
        }
      ],
      "name": "LogSetProtocolMCR",
      "type": "event"
    },
    {
      "anonymous": false,
      "inputs": [
        {
          "indexed": true,
          "internalType": "address",
          "name": "_salesPolicy",
          "type": "address"
        },
        {
          "indexed": false,
          "internalType": "uint16",
          "name": "_protocolIdx",
          "type": "uint16"
        }
      ],
      "name": "ProtocolCreated",
      "type": "event"
    },
    {
      "inputs": [],
      "name": "UNO_TOKEN",
      "outputs": [
        {
          "internalType": "address",
          "name": "",
          "type": "address"
        }
      ],
      "stateMutability": "view",
      "type": "function"
    },
    {
      "inputs": [],
      "name": "USDT_TOKEN",
      "outputs": [
        {
          "internalType": "address",
          "name": "",
          "type": "address"
        }
      ],
      "stateMutability": "view",
      "type": "function"
    },
    {
      "inputs": [
        {
          "internalType": "string",
          "name": "_name",
          "type": "string"
        },
        {
          "internalType": "string",
          "name": "_productType",
          "type": "string"
        },
        {
          "internalType": "string",
          "name": "_premiumDescription",
          "type": "string"
        },
        {
          "internalType": "uint256",
          "name": "_coverDuration",
          "type": "uint256"
        },
        {
          "internalType": "address",
          "name": "_protocolAddress",
          "type": "address"
        },
        {
          "internalType": "address",
          "name": "_protocolCurrency",
          "type": "address"
        }
      ],
      "name": "addProtocol",
      "outputs": [],
      "stateMutability": "nonpayable",
      "type": "function"
    },
    {
      "inputs": [],
      "name": "allProtocolsLength",
      "outputs": [
        {
          "internalType": "uint256",
          "name": "",
          "type": "uint256"
        }
      ],
      "stateMutability": "view",
      "type": "function"
    },
    {
      "inputs": [
        {
          "internalType": "uint16",
          "name": "_protocolIdx",
          "type": "uint16"
        },
        {
          "internalType": "address",
          "name": "_premiumCurrency",
          "type": "address"
        }
      ],
      "name": "approvePremiumInPolicy",
      "outputs": [],
      "stateMutability": "nonpayable",
      "type": "function"
    },
    {
      "inputs": [],
      "name": "capitalAgent",
      "outputs": [
        {
          "internalType": "address",
          "name": "",
          "type": "address"
        }
      ],
      "stateMutability": "view",
      "type": "function"
    },
    {
      "inputs": [],
      "name": "exchangeAgent",
      "outputs": [
        {
          "internalType": "address",
          "name": "",
          "type": "address"
        }
      ],
      "stateMutability": "view",
      "type": "function"
    },
    {
      "inputs": [
        {
          "internalType": "uint16",
          "name": "",
          "type": "uint16"
        }
      ],
      "name": "getProtocol",
      "outputs": [
        {
          "internalType": "uint256",
          "name": "coverDuration",
          "type": "uint256"
        },
        {
          "internalType": "uint256",
          "name": "mcr",
          "type": "uint256"
        },
        {
          "internalType": "address",
          "name": "protocolAddress",
          "type": "address"
        },
        {
          "internalType": "address",
          "name": "protocolCurrency",
          "type": "address"
        },
        {
          "internalType": "string",
          "name": "name",
          "type": "string"
        },
        {
          "internalType": "string",
          "name": "productType",
          "type": "string"
        },
        {
          "internalType": "string",
          "name": "premiumDescription",
          "type": "string"
        },
        {
          "internalType": "address",
          "name": "salesPolicy",
          "type": "address"
        },
        {
          "internalType": "bool",
          "name": "exist",
          "type": "bool"
        }
      ],
      "stateMutability": "view",
      "type": "function"
    },
    {
      "inputs": [
        {
          "internalType": "uint16",
          "name": "_protocolIdx",
          "type": "uint16"
        }
      ],
      "name": "getProtocolData",
      "outputs": [
        {
          "internalType": "string",
          "name": "protocolName",
          "type": "string"
        },
        {
          "internalType": "string",
          "name": "productType",
          "type": "string"
        },
        {
          "internalType": "address",
          "name": "protocolAddress",
          "type": "address"
        }
      ],
      "stateMutability": "view",
      "type": "function"
    },
    {
      "inputs": [],
      "name": "owner",
      "outputs": [
        {
          "internalType": "address",
          "name": "",
          "type": "address"
        }
      ],
      "stateMutability": "view",
      "type": "function"
    },
    {
      "inputs": [],
      "name": "premiumPool",
      "outputs": [
        {
          "internalType": "address",
          "name": "",
          "type": "address"
        }
      ],
      "stateMutability": "view",
      "type": "function"
    },
    {
      "inputs": [
        {
          "internalType": "uint16",
          "name": "_protocolIdx",
          "type": "uint16"
        },
        {
          "internalType": "uint256",
          "name": "_maxDeadline",
          "type": "uint256"
        }
      ],
      "name": "setBuyPolicyMaxDeadlineInPolicy",
      "outputs": [],
      "stateMutability": "nonpayable",
      "type": "function"
    },
    {
      "inputs": [
        {
          "internalType": "uint16",
          "name": "_protocolIdx",
          "type": "uint16"
        },
        {
          "internalType": "address",
          "name": "_exchangeAgent",
          "type": "address"
        }
      ],
      "name": "setExchangeAgentInPolicy",
      "outputs": [],
      "stateMutability": "nonpayable",
      "type": "function"
    },
    {
      "inputs": [
        {
          "internalType": "address",
          "name": "_premiumPool",
          "type": "address"
        }
      ],
      "name": "setPremiumPool",
      "outputs": [],
      "stateMutability": "nonpayable",
      "type": "function"
    },
    {
      "inputs": [
        {
          "internalType": "uint16",
          "name": "_protocolIdx",
          "type": "uint16"
        },
        {
          "internalType": "address",
          "name": "_premiumPool",
          "type": "address"
        }
      ],
      "name": "setPremiumPoolInPolicy",
      "outputs": [],
      "stateMutability": "nonpayable",
      "type": "function"
    },
    {
      "inputs": [
        {
          "internalType": "uint16",
          "name": "_protocolIdx",
          "type": "uint16"
        },
        {
          "internalType": "uint256",
          "name": "_mcr",
          "type": "uint256"
        }
      ],
      "name": "setProtocolMCR",
      "outputs": [],
      "stateMutability": "nonpayable",
      "type": "function"
    },
    {
      "inputs": [
        {
          "internalType": "uint16",
          "name": "_protocolIdx",
          "type": "uint16"
        },
        {
          "internalType": "string",
          "name": "_uri",
          "type": "string"
        }
      ],
      "name": "setProtocolURIInPolicy",
      "outputs": [],
      "stateMutability": "nonpayable",
      "type": "function"
    }
  ],
  "transactionHash": "0xaf8df8b0b0e11bb8b3d88faf8f689807575833e6ebd213146d3deebfda46b8d2",
  "args": [
    "0x5569BDF4e02cec3fE459796e3d0e741616029fA4",
    "0x40c035016AD732b6cFce34c3F881040B6C6cf71E",
    "0x53fb43BaE4C13d6AFAD37fB37c3fC49f3Af433F5",
    "0xf97Eb2a102Ba485020c9d2EA0ac4BAAC19092Ee9",
    "0x3fCDBcbBb567d7A326b133439A938cC052FAdf1c",
    "0x5371d874949DcdD3f2F6Cd0852a88140F77BfcEF"
  ],
  "solcInputHash": "850ee7ecdab72c01fbce930f264cd00b",
  "bytecode": "0x60806040523480156200001157600080fd5b506040516200502f3803806200502f8339810160408190526200003491620000cb565b60016000819055600780546001600160a01b03199081166001600160a01b03988916179091556008805482169688169690961790955560028054861697871697909717909655855484169185169190911790945560038054831691841691909117905560048054909116929091169190911790556200014b565b80516001600160a01b0381168114620000c657600080fd5b919050565b60008060008060008060c08789031215620000e4578182fd5b620000ef87620000ae565b9550620000ff60208801620000ae565b94506200010f60408801620000ae565b93506200011f60608801620000ae565b92506200012f60808801620000ae565b91506200013f60a08801620000ae565b90509295509295509295565b614ed4806200015b6000396000f3fe60806040523480156200001157600080fd5b5060043610620001245760003560e01c806377b330c911620000b1578063bbd9d8e1116200007b578063bbd9d8e11462000218578063d2c7c2a41462000240578063d9203b91146200026e578063db5b7c981462000278578063edb13bbb146200028f5762000124565b806377b330c914620001d45780638da5cb5b14620001de578063ab17ef8214620001e8578063b381ff8214620001ff5762000124565b80634219816011620000f35780634219816014620001925780634762dfae146200019c5780634ba69faa14620001b3578063721b70c814620001bd5762000124565b80630ea3b56314620001295780630f97b97b14620001425780631bcc2472146200016457806320f721cd146200017b575b600080fd5b620001406200013a366004620011ff565b620002a6565b005b6200014c6200035b565b6040516200015b919062001279565b60405180910390f35b620001406200017536600462000ffa565b6200036a565b620001406200018c366004620011ff565b6200040a565b6200014c620004dc565b62000140620001ad36600462001108565b620004eb565b6200014c6200058a565b62000140620001ce3660046200113f565b62000599565b6200014c6200060f565b6200014c6200061e565b62000140620001f93660046200101e565b6200062d565b620002096200098a565b6040516200015b919062001484565b6200022f62000229366004620010eb565b6200099d565b6040516200015b939291906200130b565b6200025762000251366004620010eb565b62000b07565b6040516200015b999897969594939291906200148d565b6200014c62000d1d565b620001406200028936600462001108565b62000d2c565b62000140620002a036600462001108565b62000dcb565b6002546001600160a01b03163314620002dc5760405162461bcd60e51b8152600401620002d390620013bc565b60405180910390fd5b60008111620002ff5760405162461bcd60e51b8152600401620002d39062001385565b61ffff8216600090815260056020526040908190206001810183905590517fce9bfac800790847f5a11bfe3df969c5563f99ea96e4544a235410640627154d906200034e908590859062001470565b60405180910390a1505050565b6008546001600160a01b031681565b6002546001600160a01b03163314620003975760405162461bcd60e51b8152600401620002d390620013bc565b6001600160a01b038116620003c05760405162461bcd60e51b8152600401620002d3906200134e565b600180546001600160a01b0319166001600160a01b0383169081179091556040517faa0150507cbcab99f33127173fcbdd580e5710d253406b99952e1feda3cdcc0e90600090a250565b6002546001600160a01b03163314620004375760405162461bcd60e51b8152600401620002d390620013bc565b600081116200045a5760405162461bcd60e51b8152600401620002d390620013f3565b61ffff82166000908152600560205260409081902060070154905163fda2071d60e01b81526001600160a01b0390911690819063fda2071d90620004a390859060040162001484565b600060405180830381600087803b158015620004be57600080fd5b505af1158015620004d3573d6000803e3d6000fd5b50505050505050565b6004546001600160a01b031681565b6002546001600160a01b03163314620005185760405162461bcd60e51b8152600401620002d390620013bc565b6001600160a01b038116620005415760405162461bcd60e51b8152600401620002d3906200134e565b61ffff821660009081526005602052604090819020600701549051630c5006c760e11b81526001600160a01b039091169081906318a00d8e90620004a390859060040162001279565b6001546001600160a01b031681565b6002546001600160a01b03163314620005c65760405162461bcd60e51b8152600401620002d390620013bc565b61ffff8216600090815260056020526040908190206007015490516313b41ce760e31b81526001600160a01b03909116908190639da0e73890620004a3908590600401620012f6565b6007546001600160a01b031681565b6002546001600160a01b031681565b6002546001600160a01b031633146200065a5760405162461bcd60e51b8152600401620002d390620013bc565b60026000541415620006805760405162461bcd60e51b8152600401620002d3906200142a565b6002600090815562000693600662000e41565b60035460015460045460408051602081019091526000808252949550869493620006d19387936001600160a01b039283169391831692169062000e49565b6004805460405163b84ef08160e01b81529293506001600160a01b03169163b84ef08191620007039185910162001279565b600060405180830381600087803b1580156200071e57600080fd5b505af115801562000733573d6000803e3d6000fd5b5050505060405180610120016040528087815260200160018152602001866001600160a01b03168152602001836001600160a01b031681526020018d8d8080601f016020809104026020016040519081016040528093929190818152602001838380828437600092019190915250505090825250604080516020601f8e018190048102820181019092528c815291810191908d908d9081908401838280828437600092019190915250505090825250604080516020601f8c018190048102820181019092528a815291810191908b908b908190840183828082843760009201829052509385525050506001600160a01b038085166020808501919091526001604094850181905261ffff891684526005825292849020855181558582015193810193909355928401516002830180549183166001600160a01b03199283161790556060850151600384018054919093169116179055608083015180519192620008a59260048501929091019062000ed1565b5060a08201518051620008c391600584019160209091019062000ed1565b5060c08201518051620008e191600684019160209091019062000ed1565b5060e082015160079091018054610100909301511515600160a01b0260ff60a01b196001600160a01b039093166001600160a01b0319909416939093179190911691909117905562000934600662000ec8565b806001600160a01b03167fbcf8a46c68576cc4e52eb8fbc678b3ce3adbeadb33126980d791f827ccff4111846040516200096f919062001461565b60405180910390a25050600160005550505050505050505050565b600062000998600662000e41565b905090565b61ffff81166000908152600560208190526040822060028101546004820180546060958695909492939201916001600160a01b0316908390620009e09062001511565b80601f016020809104026020016040519081016040528092919081815260200182805462000a0e9062001511565b801562000a5f5780601f1062000a335761010080835404028352916020019162000a5f565b820191906000526020600020905b81548152906001019060200180831162000a4157829003601f168201915b5050505050925081805462000a749062001511565b80601f016020809104026020016040519081016040528092919081815260200182805462000aa29062001511565b801562000af35780601f1062000ac75761010080835404028352916020019162000af3565b820191906000526020600020905b81548152906001019060200180831162000ad557829003601f168201915b505050505091509250925092509193909250565b60056020526000908152604090208054600182015460028301546003840154600485018054949593946001600160a01b0393841694929093169262000b4c9062001511565b80601f016020809104026020016040519081016040528092919081815260200182805462000b7a9062001511565b801562000bcb5780601f1062000b9f5761010080835404028352916020019162000bcb565b820191906000526020600020905b81548152906001019060200180831162000bad57829003601f168201915b50505050509080600501805462000be29062001511565b80601f016020809104026020016040519081016040528092919081815260200182805462000c109062001511565b801562000c615780601f1062000c355761010080835404028352916020019162000c61565b820191906000526020600020905b81548152906001019060200180831162000c4357829003601f168201915b50505050509080600601805462000c789062001511565b80601f016020809104026020016040519081016040528092919081815260200182805462000ca69062001511565b801562000cf75780601f1062000ccb5761010080835404028352916020019162000cf7565b820191906000526020600020905b81548152906001019060200180831162000cd957829003601f168201915b505050600790930154919250506001600160a01b0381169060ff600160a01b9091041689565b6003546001600160a01b031681565b6002546001600160a01b0316331462000d595760405162461bcd60e51b8152600401620002d390620013bc565b6001600160a01b03811662000d825760405162461bcd60e51b8152600401620002d3906200134e565b61ffff821660009081526005602052604090819020600701549051630de6123960e11b81526001600160a01b03909116908190631bcc247290620004a390859060040162001279565b6002546001600160a01b0316331462000df85760405162461bcd60e51b8152600401620002d390620013bc565b61ffff8216600090815260056020526040908190206007015490516321ecf70160e01b81526001600160a01b039091169081906321ecf70190620004a390859060040162001279565b80545b919050565b60008030868686600860009054906101000a90046001600160a01b0316600760009054906101000a90046001600160a01b0316888d60405162000e8c9062000f60565b62000e9f9897969594939291906200128d565b604051809103906000f08015801562000ebc573d6000803e3d6000fd5b50979650505050505050565b80546001019055565b82805462000edf9062001511565b90600052602060002090601f01602090048101928262000f03576000855562000f4e565b82601f1062000f1e57805160ff191683800117855562000f4e565b8280016001018555821562000f4e579182015b8281111562000f4e57825182559160200191906001019062000f31565b5062000f5c92915062000f6e565b5090565b61393a806200156583390190565b5b8082111562000f5c576000815560010162000f6f565b80356001600160a01b038116811462000e4457600080fd5b60008083601f84011262000faf578081fd5b50813567ffffffffffffffff81111562000fc7578182fd5b60208301915083602082850101111562000fe057600080fd5b9250929050565b803561ffff8116811462000e4457600080fd5b6000602082840312156200100c578081fd5b620010178262000f85565b9392505050565b600080600080600080600080600060c08a8c0312156200103c578485fd5b893567ffffffffffffffff8082111562001054578687fd5b620010628d838e0162000f9d565b909b50995060208c01359150808211156200107b578687fd5b620010898d838e0162000f9d565b909950975060408c0135915080821115620010a2578687fd5b50620010b18c828d0162000f9d565b90965094505060608a01359250620010cc60808b0162000f85565b9150620010dc60a08b0162000f85565b90509295985092959850929598565b600060208284031215620010fd578081fd5b620010178262000fe7565b600080604083850312156200111b578182fd5b620011268362000fe7565b9150620011366020840162000f85565b90509250929050565b6000806040838503121562001152578182fd5b6200115d8362000fe7565b915060208084013567ffffffffffffffff808211156200117b578384fd5b818601915086601f8301126200118f578384fd5b813581811115620011a457620011a46200154e565b604051601f8201601f1916810185018381118282101715620011ca57620011ca6200154e565b6040528181528382018501891015620011e1578586fd5b81858501868301378585838301015280955050505050509250929050565b6000806040838503121562001212578182fd5b6200121d8362000fe7565b946020939093013593505050565b60008151808452815b81811015620012525760208185018101518683018201520162001234565b81811115620012645782602083870101525b50601f01601f19169290920160200192915050565b6001600160a01b0391909116815260200190565b60006101006001600160a01b03808c168452808b166020850152808a1660408501528089166060850152808816608085015280871660a0850152508060c0840152620012dc818401866200122b565b91505061ffff831660e08301529998505050505050505050565b6000602082526200101760208301846200122b565b6000606082526200132060608301866200122b565b82810360208401526200133481866200122b565b9150506001600160a01b0383166040830152949350505050565b60208082526013908201527f556e6f52653a207a65726f206164647265737300000000000000000000000000604082015260600190565b6020808252600f908201527f556e6f52653a207a65726f206d63720000000000000000000000000000000000604082015260600190565b60208082526010908201527f556e6f52653a20466f7262696464656e00000000000000000000000000000000604082015260600190565b60208082526018908201527f556e6f52653a207a65726f206d617820646561646c696e650000000000000000604082015260600190565b6020808252601f908201527f5265656e7472616e637947756172643a207265656e7472616e742063616c6c00604082015260600190565b61ffff91909116815260200190565b61ffff929092168252602082015260400190565b90815260200190565b60006101208b83528a60208401526001600160a01b03808b166040850152808a166060850152816080850152620014c78285018a6200122b565b915083820360a0850152620014dd82896200122b565b915083820360c0850152620014f382886200122b565b951660e0840152505090151561010090910152979650505050505050565b6002810460018216806200152657607f821691505b602082108114156200154857634e487b7160e01b600052602260045260246000fd5b50919050565b634e487b7160e01b600052604160045260246000fdfe60e06040526000196010553480156200001757600080fd5b506040516200393a3803806200393a8339810160408190526200003a916200030c565b6040518060400160405280601081526020016f506f6c69637920696e737572616e636560801b8152506040518060400160405280601081526020016f506f6c69637920696e737572616e636560801b8152506040518060400160405280601881526020017f427579506f6c6963794d6574615472616e73616374696f6e0000000000000000815250604051806040016040528060018152602001603160f81b81525081816040518060800160405280604f8152602001620038eb604f9139805190602001208280519060200120828051906020012030620001206200023260201b60201c565b6040516200013695949392919060200162000461565b60408051601f19818403018152919052805160209182012060005586516200016a9550600294509087019250905062000236565b5080516200018090600390602084019062000236565b5050600160085550606088811b6001600160601b0319908116608052600a805461ffff191661ffff85161762010000600160b01b031916620100006001600160a01b038c81169190910291909117909155600c80546001600160a01b03199081168a84161790915587841b831660a0529286901b90911660c052600b805490921690881617905562093a8060095581516200022390600d90602085019062000236565b505050505050505050620004e0565b4690565b82805462000244906200048d565b90600052602060002090601f016020900481019282620002685760008555620002b3565b82601f106200028357805160ff1916838001178555620002b3565b82800160010185558215620002b3579182015b82811115620002b357825182559160200191906001019062000296565b50620002c1929150620002c5565b5090565b5b80821115620002c15760008155600101620002c6565b80516001600160a01b0381168114620002f457600080fd5b919050565b805161ffff81168114620002f457600080fd5b600080600080600080600080610100898b03121562000329578384fd5b6200033489620002dc565b9750602062000345818b01620002dc565b97506200035560408b01620002dc565b96506200036560608b01620002dc565b95506200037560808b01620002dc565b94506200038560a08b01620002dc565b60c08b01519094506001600160401b0380821115620003a2578485fd5b818c0191508c601f830112620003b6578485fd5b815181811115620003cb57620003cb620004ca565b604051601f8201601f1916810185018381118282101715620003f157620003f1620004ca565b60405281815283820185018f101562000408578687fd5b8692505b818310156200042b57838301850151818401860152918401916200040c565b818311156200043c57868583830101525b80965050505050506200045260e08a01620002f9565b90509295985092959890939650565b948552602085019390935260408401919091526001600160a01b03166060830152608082015260a00190565b600281046001821680620004a257607f821691505b60208210811415620004c457634e487b7160e01b600052602260045260246000fd5b50919050565b634e487b7160e01b600052604160045260246000fd5b60805160601c60a05160601c60c05160601c6133a46200054760003960008181610c4001526117770152600050506000818161098a01528181610f60015281816110350152818161136c015281816115b60152818161168b015261179b01526133a46000f3fe6080604052600436106101f25760003560e01c80634d8dbb3c1161010d578063b88d4fde116100a0578063d341960b1161006f578063d341960b14610592578063de4e4201146105a7578063e985e9c5146105bc578063fa569274146105dc578063fda2071d146105f1576101f9565b8063b88d4fde1461051d578063c2eb8eb91461053d578063c45a01551461055d578063c87b56dd14610572576101f9565b806395d89b41116100dc57806395d89b41146104a85780639da0e738146104bd578063a22cb465146104dd578063a5d5e142146104fd576101f9565b80634d8dbb3c146104165780636352211e1461043857806370a08231146104585780637a5402e914610478576101f9565b806321ecf7011161018557806333b3691e1161015457806333b3691e146103ac57806342198160146103cc57806342842e0e146103e15780634ba69faa14610401576101f9565b806321ecf7011461030b57806323b872dd1461032b5780632b07fce31461034b5780632d0335ab1461037f576101f9565b80630c53c51c116101c15780630c53c51c146102a557806318a00d8e146102b85780631a6315bf146102d85780631bcc2472146102eb576101f9565b806301ffc9a7146101fe57806306fdde0314610234578063081812fc14610256578063095ea7b314610283576101f9565b366101f957005b600080fd5b34801561020a57600080fd5b5061021e610219366004612603565b610611565b60405161022b91906128b7565b60405180910390f35b34801561024057600080fd5b50610249610659565b60405161022b9190612904565b34801561026257600080fd5b50610276610271366004612681565b6106ec565b60405161022b91906127c2565b34801561028f57600080fd5b506102a361029e3660046125be565b610738565b005b6102496102b3366004612545565b6107d0565b3480156102c457600080fd5b506102a36102d3366004612422565b610988565b6102a36102e63660046126b1565b610a7c565b3480156102f757600080fd5b506102a3610306366004612422565b610f5e565b34801561031757600080fd5b506102a3610326366004612422565b611033565b34801561033757600080fd5b506102a361034636600461246e565b611143565b34801561035757600080fd5b5061036b610366366004612681565b61117b565b60405161022b9897969594939291906131a6565b34801561038b57600080fd5b5061039f61039a366004612422565b6111cf565b60405161022b9190613170565b3480156103b857600080fd5b506102a36103c7366004612681565b6111ea565b3480156103d857600080fd5b50610276611277565b3480156103ed57600080fd5b506102a36103fc36600461246e565b611286565b34801561040d57600080fd5b506102766112a1565b34801561042257600080fd5b5061042b6112b0565b60405161022b9190613127565b34801561044457600080fd5b50610276610453366004612681565b6112ba565b34801561046457600080fd5b5061039f610473366004612422565b6112ef565b34801561048457600080fd5b50610498610493366004612681565b611333565b60405161022b949392919061318b565b3480156104b457600080fd5b5061024961135b565b3480156104c957600080fd5b506102a36104d836600461263b565b61136a565b3480156104e957600080fd5b506102a36104f836600461250f565b61141b565b34801561050957600080fd5b506102a3610518366004612681565b6114e9565b34801561052957600080fd5b506102a36105383660046124a9565b611575565b34801561054957600080fd5b506102a3610558366004612422565b6115b4565b34801561056957600080fd5b50610276611689565b34801561057e57600080fd5b5061024961058d366004612681565b6116ad565b34801561059e57600080fd5b5061039f611730565b3480156105b357600080fd5b5061039f611741565b3480156105c857600080fd5b5061021e6105d736600461243c565b611747565b3480156105e857600080fd5b50610276611775565b3480156105fd57600080fd5b506102a361060c366004612681565b611799565b60006001600160e01b031982166380ac58cd60e01b148061064257506001600160e01b03198216635b5e139f60e01b145b80610651575061065182611852565b90505b919050565b60606002805461066890613258565b80601f016020809104026020016040519081016040528092919081815260200182805461069490613258565b80156106e15780601f106106b6576101008083540402835291602001916106e1565b820191906000526020600020905b8154815290600101906020018083116106c457829003601f168201915b505050505090505b90565b60006106f78261186b565b61071c5760405162461bcd60e51b815260040161071390612e66565b60405180910390fd5b506000908152600660205260409020546001600160a01b031690565b6000610743826112ba565b9050806001600160a01b0316836001600160a01b031614156107775760405162461bcd60e51b81526004016107139061301b565b806001600160a01b0316610789611888565b6001600160a01b031614806107a557506107a5816105d7611888565b6107c15760405162461bcd60e51b815260040161071390612cd3565b6107cb838361188c565b505050565b606060006107dd866118fa565b90506000356001600160e01b0319908116908216141561080f5760405162461bcd60e51b815260040161071390612a50565b604080516060810182526001600160a01b0389166000818152600160209081529084902054835282015290810187905261084c8882888888611916565b6108685760405162461bcd60e51b815260040161071390612efb565b6001600160a01b03881660009081526001602081905260409091205461088d916131e9565b6001600160a01b03891660009081526001602090815260408083209390935591519091829130916108c2918c918e9101612741565b60408051601f19818403018152908290526108dc91612725565b6000604051808303816000865af19150503d8060008114610919576040519150601f19603f3d011682016040523d82523d6000602084013e61091e565b606091505b5091509150816109405760405162461bcd60e51b8152600401610713906129e2565b7f5845892132946850460bff5a0083f71031bc5bf9aadcd40f1de79423eac9b10b8a338b604051610973939291906127d6565b60405180910390a19998505050505050505050565b7f00000000000000000000000000000000000000000000000000000000000000006001600160a01b03166109ba6119c2565b6001600160a01b0316146109e05760405162461bcd60e51b815260040161071390612e2f565b6001600160a01b038116610a065760405162461bcd60e51b8152600401610713906129ab565b600a805475ffffffffffffffffffffffffffffffffffffffff00001916620100006001600160a01b038416908102919091179182905560405130927fc3177381220e3683a27c54985d092dbe1cb47c9120f3053c10284834dfda5f1b91610a719161ffff1690613127565b60405180910390a350565b60026008541415610a9f5760405162461bcd60e51b8152600401610713906130f0565b6002600855428211801590610abe5750600954610abc8342613215565b105b610ada5760405162461bcd60e51b815260040161071390612c9c565b6000610ae6600e611a1e565b905060006001600160a01b038316610c3e57600a5460405163531a221160e01b8152620100009091046001600160a01b03169063531a221190610b2d908890600401613170565b60206040518083038186803b158015610b4557600080fd5b505afa158015610b59573d6000803e3d6000fd5b505050506040513d601f19601f82011682018060405250810190610b7d9190612699565b905080341015610b9f5760405162461bcd60e51b8152600401610713906130b9565b80341115610bc157610bc1610bb26119c2565b610bbc8334613215565b611a22565b600b54610bd7906001600160a01b031682611a22565b600b5460405163d830c71560e01b81526001600160a01b039091169063d830c71590610c07908490600401613170565b600060405180830381600087803b158015610c2157600080fd5b505af1158015610c35573d6000803e3d6000fd5b50505050610dbf565b7f00000000000000000000000000000000000000000000000000000000000000006001600160a01b0316836001600160a01b031614610d4557600a5460405163a9a12d4360e01b8152620100009091046001600160a01b03169063a9a12d4390610cae908690899060040161286b565b60206040518083038186803b158015610cc657600080fd5b505afa158015610cda573d6000803e3d6000fd5b505050506040513d601f19601f82011682018060405250810190610cfe9190612699565b9050610d1383610d0c6119c2565b3084611aaf565b600b54604051638c8ac76d60e01b81526001600160a01b0390911690638c8ac76d90610c07908690859060040161286b565b5083610d5a83610d536119c2565b3088611aaf565b600b54604051638c8ac76d60e01b81526001600160a01b0390911690638c8ac76d90610d8c908690899060040161286b565b600060405180830381600087803b158015610da657600080fd5b505af1158015610dba573d6000803e3d6000fd5b505050505b604080516101008101825242815260208082018981528284018b8152606084018a8152608085018781526001600160a01b03808b1660a08801908152600160c08901818152600060e08b018181528e8252600f909a529a909a20985189559551958801959095559251600287015590516003860155516004850155905160059093018054945192511515600160a81b0260ff60a81b19931515600160a01b0260ff60a01b19959093166001600160a01b031990961695909517939093161716919091179055610e95610e8f6119c2565b83611b9f565b600c546040516350498d7960e11b81526001600160a01b039091169063a0931af290610ec5908a90600401613170565b600060405180830381600087803b158015610edf57600080fd5b505af1158015610ef3573d6000803e3d6000fd5b50505050610f01600e611c7e565b600a54829061ffff167f74ce76e2ace91f83f8188aaa1002ebcab81a9668c13e09d5c89f9a6647bfebdd610f336119c2565b8a898887604051610f48959493929190612884565b60405180910390a3505060016008555050505050565b7f00000000000000000000000000000000000000000000000000000000000000006001600160a01b0316610f906119c2565b6001600160a01b031614610fb65760405162461bcd60e51b815260040161071390612e2f565b6001600160a01b038116610fdc5760405162461bcd60e51b8152600401610713906129ab565b600b80546001600160a01b0319166001600160a01b038316908117909155600a546040513092917f94128e4300bfd33abb55528d41b5b229e819cf4f2abedfc04ff18c8abab199c491610a719161ffff1690613127565b7f00000000000000000000000000000000000000000000000000000000000000006001600160a01b03166110656119c2565b6001600160a01b03161461108b5760405162461bcd60e51b815260040161071390612e2f565b6001600160a01b0381166110b15760405162461bcd60e51b8152600401610713906129ab565b600b546001600160a01b03166110d95760405162461bcd60e51b815260040161071390612f99565b600b546010546110f69183916001600160a01b0390911690611c87565b600a54600b546040516001600160a01b038481169330937f722454f4bb0415a0cbc72420f236cd42ec5e56259afafb401deaa9c284c02d5393610a719361ffff9093169290911690613136565b61115461114e611888565b82611d74565b6111705760405162461bcd60e51b81526004016107139061305c565b6107cb838383611df9565b600f6020526000908152604090208054600182015460028301546003840154600485015460059095015493949293919290916001600160a01b0381169060ff600160a01b8204811691600160a81b90041688565b6001600160a01b031660009081526001602052604090205490565b6002600854141561120d5760405162461bcd60e51b8152600401610713906130f0565b60026008556000818152600f6020526040902060050154600160a01b900460ff1661124a5760405162461bcd60e51b815260040161071390612aad565b6000818152600f60205260409020600501805460ff60a01b1916905561126f81611f26565b506001600855565b600c546001600160a01b031681565b6107cb83838360405180602001604052806000815250611575565b600b546001600160a01b031681565b600a5461ffff1681565b6000818152600460205260408120546001600160a01b0316806106515760405162461bcd60e51b815260040161071390612d7a565b60006001600160a01b0382166113175760405162461bcd60e51b815260040161071390612d30565b506001600160a01b031660009081526005602052604090205490565b6000908152600f60205260409020600281015460018201548254600390930154919390929190565b60606003805461066890613258565b7f00000000000000000000000000000000000000000000000000000000000000006001600160a01b031661139c6119c2565b6001600160a01b0316146113c25760405162461bcd60e51b815260040161071390612e2f565b80516113d590600d9060208401906122e3565b50600a5460405130917f23ff632ee616fb8c7e8f7e3cbd753181800ea4c090ac021dd7a68f79b7acbd21916114109161ffff16908590613153565b60405180910390a250565b611423611888565b6001600160a01b0316826001600160a01b031614156114545760405162461bcd60e51b815260040161071390612be2565b8060076000611461611888565b6001600160a01b03908116825260208083019390935260409182016000908120918716808252919093529120805460ff1916921515929092179091556114a5611888565b6001600160a01b03167f17307eab39ab6107e8899845ad3d59bd9653f200f220920489ca2b5937696c31836040516114dd91906128b7565b60405180910390a35050565b6002600854141561150c5760405162461bcd60e51b8152600401610713906130f0565b60026008556000818152600f6020526040902060050154600160a01b900460ff161561154a5760405162461bcd60e51b815260040161071390612917565b6000818152600f60205260409020600501805460ff60a81b1916600160a81b17905561126f81611f26565b611586611580611888565b83611d74565b6115a25760405162461bcd60e51b81526004016107139061305c565b6115ae84848484611fcd565b50505050565b7f00000000000000000000000000000000000000000000000000000000000000006001600160a01b03166115e66119c2565b6001600160a01b03161461160c5760405162461bcd60e51b815260040161071390612e2f565b6001600160a01b0381166116325760405162461bcd60e51b8152600401610713906129ab565b600c80546001600160a01b0319166001600160a01b038316908117909155600a546040513092917fc3177381220e3683a27c54985d092dbe1cb47c9120f3053c10284834dfda5f1b91610a719161ffff1690613127565b7f000000000000000000000000000000000000000000000000000000000000000081565b60606116b88261186b565b6116d45760405162461bcd60e51b815260040161071390612f3c565b60006116de612000565b905060008151116116fe5760405180602001604052806000815250611729565b806117088461200f565b604051602001611719929190612778565b6040516020818303038152906040525b9392505050565b600061173c600e611a1e565b905090565b60095481565b6001600160a01b03918216600090815260076020908152604080832093909416825291909152205460ff1690565b7f000000000000000000000000000000000000000000000000000000000000000081565b7f00000000000000000000000000000000000000000000000000000000000000006001600160a01b03166117cb6119c2565b6001600160a01b0316146117f15760405162461bcd60e51b815260040161071390612e2f565b600081116118115760405162461bcd60e51b815260040161071390612dc3565b6009819055600a5460405130917f317b924d7be379083195d8458727e3bbbe596f3c7229ee96f2ad885fd7e0f4419161141091859161ffff90911690613179565b6001600160e01b031981166301ffc9a760e01b14919050565b6000908152600460205260409020546001600160a01b0316151590565b3390565b600081815260066020526040902080546001600160a01b0319166001600160a01b03841690811790915581906118c1826112ba565b6001600160a01b03167f8c5be1e5ebec7d5bd14f71427d1e84f3dd0314c0f7b2291e5b200ac8c7c3b92560405160405180910390a45050565b600081516000141561190e57506000610654565b506020015190565b600080600161192c61192788612142565b6121a0565b8487876040516000815260200160405260405161194c94939291906128e6565b6020604051602081039080840390855afa15801561196e573d6000803e3d6000fd5b5050604051601f1901519150506001600160a01b0381166119a15760405162461bcd60e51b815260040161071390612c19565b866001600160a01b0316816001600160a01b03161491505095945050505050565b600033301415611a1957600080368080601f0160208091040260200160405190810160405280939291908181526020018383808284376000920191909152505050503601516001600160a01b031691506106e99050565b503390565b5490565b604080516000808252602082019092526001600160a01b038416908390604051611a4c9190612725565b60006040518083038185875af1925050503d8060008114611a89576040519150601f19603f3d011682016040523d82523d6000602084013e611a8e565b606091505b50509050806107cb5760405162461bcd60e51b815260040161071390612b41565b600080856001600160a01b03166323b872dd868686604051602401611ad69392919061280b565b6040516020818303038152906040529060e01b6020820180516001600160e01b038381831617835250505050604051611b0f9190612725565b6000604051808303816000865af19150503d8060008114611b4c576040519150601f19603f3d011682016040523d82523d6000602084013e611b51565b606091505b5091509150818015611b7b575080511580611b7b575080806020019051810190611b7b91906125e7565b611b975760405162461bcd60e51b815260040161071390612ae4565b505050505050565b6001600160a01b038216611bc55760405162461bcd60e51b815260040161071390612dfa565b611bce8161186b565b15611beb5760405162461bcd60e51b815260040161071390612a19565b611bf7600083836107cb565b6001600160a01b0382166000908152600560205260408120805460019290611c209084906131e9565b909155505060008181526004602052604080822080546001600160a01b0319166001600160a01b03861690811790915590518392907fddf252ad1be2c89b69c2b068fc378daa952ba7f163c4a11628f55a4df523b3ef908290a45050565b80546001019055565b600080846001600160a01b031663095ea7b38585604051602401611cac92919061286b565b6040516020818303038152906040529060e01b6020820180516001600160e01b038381831617835250505050604051611ce59190612725565b6000604051808303816000865af19150503d8060008114611d22576040519150601f19603f3d011682016040523d82523d6000602084013e611d27565b606091505b5091509150818015611d51575080511580611d51575080806020019051810190611d5191906125e7565b611d6d5760405162461bcd60e51b815260040161071390612fd0565b5050505050565b6000611d7f8261186b565b611d9b5760405162461bcd60e51b815260040161071390612c50565b6000611da6836112ba565b9050806001600160a01b0316846001600160a01b03161480611de15750836001600160a01b0316611dd6846106ec565b6001600160a01b0316145b80611df15750611df18185611747565b949350505050565b826001600160a01b0316611e0c826112ba565b6001600160a01b031614611e325760405162461bcd60e51b815260040161071390612eb2565b6001600160a01b038216611e585760405162461bcd60e51b815260040161071390612b9e565b611e638383836107cb565b611e6e60008261188c565b6001600160a01b0383166000908152600560205260408120805460019290611e97908490613215565b90915550506001600160a01b0382166000908152600560205260408120805460019290611ec59084906131e9565b909155505060008181526004602052604080822080546001600160a01b0319166001600160a01b0386811691821790925591518493918716917fddf252ad1be2c89b69c2b068fc378daa952ba7f163c4a11628f55a4df523b3ef91a4505050565b6000611f31826112ba565b9050611f3f816000846107cb565b611f4a60008361188c565b6001600160a01b0381166000908152600560205260408120805460019290611f73908490613215565b909155505060008281526004602052604080822080546001600160a01b0319169055518391906001600160a01b038416907fddf252ad1be2c89b69c2b068fc378daa952ba7f163c4a11628f55a4df523b3ef908390a45050565b611fd8848484611df9565b611fe4848484846121bc565b6115ae5760405162461bcd60e51b81526004016107139061294e565b6060600d805461066890613258565b60608161203457506040805180820190915260018152600360fc1b6020820152610654565b8160005b811561205e578061204881613293565b91506120579050600a83613201565b9150612038565b60008167ffffffffffffffff81111561208757634e487b7160e01b600052604160045260246000fd5b6040519080825280601f01601f1916602001820160405280156120b1576020820181803683370190505b5090505b8415611df1576120c6600183613215565b91506120d3600a866132ae565b6120de9060306131e9565b60f81b81838151811061210157634e487b7160e01b600052603260045260246000fd5b60200101907effffffffffffffffffffffffffffffffffffffffffffffffffffffffffffff1916908160001a90535061213b600a86613201565b94506120b5565b600060405180608001604052806043815260200161332c604391398051602091820120835184830151604080870151805190860120905161218395016128c2565b604051602081830303815290604052805190602001209050919050565b60006121aa6122d7565b826040516020016121839291906127a7565b60006121d0846001600160a01b03166122dd565b156122cc57836001600160a01b031663150b7a026121ec611888565b8786866040518563ffffffff1660e01b815260040161220e949392919061282f565b602060405180830381600087803b15801561222857600080fd5b505af1925050508015612258575060408051601f3d908101601f191682019092526122559181019061261f565b60015b6122b2573d808015612286576040519150601f19603f3d011682016040523d82523d6000602084013e61228b565b606091505b5080516122aa5760405162461bcd60e51b81526004016107139061294e565b805181602001fd5b6001600160e01b031916630a85bd0160e11b149050611df1565b506001949350505050565b60005490565b3b151590565b8280546122ef90613258565b90600052602060002090601f0160209004810192826123115760008555612357565b82601f1061232a57805160ff1916838001178555612357565b82800160010185558215612357579182015b8281111561235757825182559160200191906001019061233c565b50612363929150612367565b5090565b5b808211156123635760008155600101612368565b600067ffffffffffffffff80841115612397576123976132ee565b604051601f8501601f1916810160200182811182821017156123bb576123bb6132ee565b6040528481529150818385018610156123d357600080fd5b8484602083013760006020868301015250509392505050565b80356001600160a01b038116811461065457600080fd5b600082601f830112612413578081fd5b6117298383356020850161237c565b600060208284031215612433578081fd5b611729826123ec565b6000806040838503121561244e578081fd5b612457836123ec565b9150612465602084016123ec565b90509250929050565b600080600060608486031215612482578081fd5b61248b846123ec565b9250612499602085016123ec565b9150604084013590509250925092565b600080600080608085870312156124be578081fd5b6124c7856123ec565b93506124d5602086016123ec565b925060408501359150606085013567ffffffffffffffff8111156124f7578182fd5b61250387828801612403565b91505092959194509250565b60008060408385031215612521578182fd5b61252a836123ec565b9150602083013561253a81613304565b809150509250929050565b600080600080600060a0868803121561255c578081fd5b612565866123ec565b9450602086013567ffffffffffffffff811115612580578182fd5b61258c88828901612403565b9450506040860135925060608601359150608086013560ff811681146125b0578182fd5b809150509295509295909350565b600080604083850312156125d0578182fd5b6125d9836123ec565b946020939093013593505050565b6000602082840312156125f8578081fd5b815161172981613304565b600060208284031215612614578081fd5b813561172981613315565b600060208284031215612630578081fd5b815161172981613315565b60006020828403121561264c578081fd5b813567ffffffffffffffff811115612662578182fd5b8201601f81018413612672578182fd5b611df18482356020840161237c565b600060208284031215612692578081fd5b5035919050565b6000602082840312156126aa578081fd5b5051919050565b600080600080600060a086880312156126c8578283fd5b853594506020860135935060408601359250606086013591506126ed608087016123ec565b90509295509295909350565b6000815180845261271181602086016020860161322c565b601f01601f19169290920160200192915050565b6000825161273781846020870161322c565b9190910192915050565b6000835161275381846020880161322c565b60609390931b6bffffffffffffffffffffffff19169190920190815260140192915050565b6000835161278a81846020880161322c565b83519083019061279e81836020880161322c565b01949350505050565b61190160f01b81526002810192909252602282015260420190565b6001600160a01b0391909116815260200190565b60006001600160a01b0380861683528085166020840152506060604083015261280260608301846126f9565b95945050505050565b6001600160a01b039384168152919092166020820152604081019190915260600190565b60006001600160a01b0380871683528086166020840152508360408301526080606083015261286160808301846126f9565b9695505050505050565b6001600160a01b03929092168252602082015260400190565b6001600160a01b039586168152602081019490945260408401929092529092166060820152608081019190915260a00190565b901515815260200190565b93845260208401929092526001600160a01b03166040830152606082015260800190565b93845260ff9290921660208401526040830152606082015260800190565b60006020825261172960208301846126f9565b60208082526016908201527f556e6f52653a206578706972656420616c726561647900000000000000000000604082015260600190565b60208082526032908201527f4552433732313a207472616e7366657220746f206e6f6e20455243373231526560408201527f63656976657220696d706c656d656e7465720000000000000000000000000000606082015260800190565b60208082526013908201527f556e6f52653a207a65726f206164647265737300000000000000000000000000604082015260600190565b6020808252601c908201527f46756e6374696f6e2063616c6c206e6f74207375636365737366756c00000000604082015260600190565b6020808252601c908201527f4552433732313a20746f6b656e20616c7265616479206d696e74656400000000604082015260600190565b6020808252603d908201527f66756e6374696f6e5369676e61747572652063616e206e6f74206265206f662060408201527f657865637574654d6574615472616e73616374696f6e206d6574686f64000000606082015260800190565b6020808252601e908201527f556e6f52653a206d61726b656420746f20636c61696d20616c72656164790000604082015260600190565b60208082526031908201527f5472616e7366657248656c7065723a3a7472616e7366657246726f6d3a20747260408201527f616e7366657246726f6d206661696c6564000000000000000000000000000000606082015260800190565b60208082526034908201527f5472616e7366657248656c7065723a3a736166655472616e736665724554483a60408201527f20455448207472616e73666572206661696c6564000000000000000000000000606082015260800190565b60208082526024908201527f4552433732313a207472616e7366657220746f20746865207a65726f206164646040820152637265737360e01b606082015260800190565b60208082526019908201527f4552433732313a20617070726f766520746f2063616c6c657200000000000000604082015260600190565b60208082526011908201527f496e76616c6964207369676e6174757265000000000000000000000000000000604082015260600190565b6020808252602c908201527f4552433732313a206f70657261746f7220717565727920666f72206e6f6e657860408201526b34b9ba32b73a103a37b5b2b760a11b606082015260800190565b60208082526018908201527f556e6f52653a207369676e617475726520657870697265640000000000000000604082015260600190565b60208082526038908201527f4552433732313a20617070726f76652063616c6c6572206973206e6f74206f7760408201527f6e6572206e6f7220617070726f76656420666f7220616c6c0000000000000000606082015260800190565b6020808252602a908201527f4552433732313a2062616c616e636520717565727920666f7220746865207a65604082015269726f206164647265737360b01b606082015260800190565b60208082526029908201527f4552433732313a206f776e657220717565727920666f72206e6f6e657869737460408201526832b73a103a37b5b2b760b91b606082015260800190565b6020808252601a908201527f556e6f52653a207a65726f206d6178207369676e656454696d65000000000000604082015260600190565b6020808252818101527f4552433732313a206d696e7420746f20746865207a65726f2061646472657373604082015260600190565b6020808252601c908201527f556e6f52653a2053616c6573506f6c69637920466f7262696464656e00000000604082015260600190565b6020808252602c908201527f4552433732313a20617070726f76656420717565727920666f72206e6f6e657860408201526b34b9ba32b73a103a37b5b2b760a11b606082015260800190565b60208082526029908201527f4552433732313a207472616e73666572206f6620746f6b656e2074686174206960408201526839903737ba1037bbb760b91b606082015260800190565b60208082526021908201527f5369676e657220616e64207369676e617475726520646f206e6f74206d6174636040820152600d60fb1b606082015260800190565b6020808252602f908201527f4552433732314d657461646174613a2055524920717565727920666f72206e6f60408201527f6e6578697374656e7420746f6b656e0000000000000000000000000000000000606082015260800190565b6020808252601e908201527f556e6f52653a206e6f742064656669656e64207072656d69756d506f6f6c0000604082015260600190565b6020808252602b908201527f5472616e7366657248656c7065723a3a73616665417070726f76653a2061707060408201526a1c9bdd994819985a5b195960aa1b606082015260800190565b60208082526021908201527f4552433732313a20617070726f76616c20746f2063757272656e74206f776e656040820152603960f91b606082015260800190565b60208082526031908201527f4552433732313a207472616e736665722063616c6c6572206973206e6f74206f60408201527f776e6572206e6f7220617070726f766564000000000000000000000000000000606082015260800190565b60208082526018908201527f556e6f52653a20696e73756666696369656e7420706169640000000000000000604082015260600190565b6020808252601f908201527f5265656e7472616e637947756172643a207265656e7472616e742063616c6c00604082015260600190565b61ffff91909116815260200190565b61ffff9290921682526001600160a01b0316602082015260400190565b600061ffff8416825260406020830152611df160408301846126f9565b90815260200190565b91825261ffff16602082015260400190565b93845260208401929092526040830152606082015260800190565b97885260208801969096526040870194909452606086019290925260808501526001600160a01b031660a0840152151560c0830152151560e08201526101000190565b600082198211156131fc576131fc6132c2565b500190565b600082613210576132106132d8565b500490565b600082821015613227576132276132c2565b500390565b60005b8381101561324757818101518382015260200161322f565b838111156115ae5750506000910152565b60028104600182168061326c57607f821691505b6020821081141561328d57634e487b7160e01b600052602260045260246000fd5b50919050565b60006000198214156132a7576132a76132c2565b5060010190565b6000826132bd576132bd6132d8565b500690565b634e487b7160e01b600052601160045260246000fd5b634e487b7160e01b600052601260045260246000fd5b634e487b7160e01b600052604160045260246000fd5b801515811461331257600080fd5b50565b6001600160e01b03198116811461331257600080fdfe4d6574615472616e73616374696f6e2875696e74323536206e6f6e63652c616464726573732066726f6d2c62797465732066756e6374696f6e5369676e617475726529a26469706673582212201ffc8060e4bbd221844d67776e2cbaac2336f5302edfe66bb1301d65ab175f8364736f6c63430008000033454950373132446f6d61696e28737472696e67206e616d652c737472696e672076657273696f6e2c6164647265737320766572696679696e67436f6e74726163742c627974657333322073616c7429a2646970667358221220c3cbb4ed8f104a95b32050bfd6bacdd3c40b9466fa9465fd09f2448d73af756b64736f6c63430008000033",
  "devdoc": {
    "kind": "dev",
    "methods": {},
    "version": 1
  },
  "userdoc": {
    "kind": "user",
    "methods": {},
    "version": 1
  },
  "storageLayout": {
    "storage": [
      {
        "astId": 114,
        "contract": "contracts/factories/SalesPolicyFactory.sol:SalesPolicyFactory",
        "label": "_status",
        "offset": 0,
        "slot": "0",
        "type": "t_uint256"
      },
      {
        "astId": 12682,
        "contract": "contracts/factories/SalesPolicyFactory.sol:SalesPolicyFactory",
        "label": "premiumPool",
        "offset": 0,
        "slot": "1",
        "type": "t_address"
      },
      {
        "astId": 12684,
        "contract": "contracts/factories/SalesPolicyFactory.sol:SalesPolicyFactory",
        "label": "owner",
        "offset": 0,
        "slot": "2",
        "type": "t_address"
      },
      {
        "astId": 12686,
        "contract": "contracts/factories/SalesPolicyFactory.sol:SalesPolicyFactory",
        "label": "exchangeAgent",
        "offset": 0,
        "slot": "3",
        "type": "t_address"
      },
      {
        "astId": 12688,
        "contract": "contracts/factories/SalesPolicyFactory.sol:SalesPolicyFactory",
        "label": "capitalAgent",
        "offset": 0,
        "slot": "4",
        "type": "t_address"
      },
      {
        "astId": 12693,
        "contract": "contracts/factories/SalesPolicyFactory.sol:SalesPolicyFactory",
        "label": "getProtocol",
        "offset": 0,
        "slot": "5",
        "type": "t_mapping(t_uint16,t_struct(Protocol)12680_storage)"
      },
      {
        "astId": 12696,
        "contract": "contracts/factories/SalesPolicyFactory.sol:SalesPolicyFactory",
        "label": "protocolIds",
        "offset": 0,
        "slot": "6",
        "type": "t_struct(Counter)2094_storage"
      },
      {
        "astId": 12698,
        "contract": "contracts/factories/SalesPolicyFactory.sol:SalesPolicyFactory",
        "label": "USDT_TOKEN",
        "offset": 0,
        "slot": "7",
        "type": "t_address"
      },
      {
        "astId": 12700,
        "contract": "contracts/factories/SalesPolicyFactory.sol:SalesPolicyFactory",
        "label": "UNO_TOKEN",
        "offset": 0,
        "slot": "8",
        "type": "t_address"
      }
    ],
    "types": {
      "t_address": {
        "encoding": "inplace",
        "label": "address",
        "numberOfBytes": "20"
      },
      "t_bool": {
        "encoding": "inplace",
        "label": "bool",
        "numberOfBytes": "1"
      },
      "t_mapping(t_uint16,t_struct(Protocol)12680_storage)": {
        "encoding": "mapping",
        "key": "t_uint16",
        "label": "mapping(uint16 => struct SalesPolicyFactory.Protocol)",
        "numberOfBytes": "32",
        "value": "t_struct(Protocol)12680_storage"
      },
      "t_string_storage": {
        "encoding": "bytes",
        "label": "string",
        "numberOfBytes": "32"
      },
      "t_struct(Counter)2094_storage": {
        "encoding": "inplace",
        "label": "struct Counters.Counter",
        "members": [
          {
            "astId": 2093,
            "contract": "contracts/factories/SalesPolicyFactory.sol:SalesPolicyFactory",
            "label": "_value",
            "offset": 0,
            "slot": "0",
            "type": "t_uint256"
          }
        ],
        "numberOfBytes": "32"
      },
      "t_struct(Protocol)12680_storage": {
        "encoding": "inplace",
        "label": "struct SalesPolicyFactory.Protocol",
        "members": [
          {
            "astId": 12663,
            "contract": "contracts/factories/SalesPolicyFactory.sol:SalesPolicyFactory",
            "label": "coverDuration",
            "offset": 0,
            "slot": "0",
            "type": "t_uint256"
          },
          {
            "astId": 12665,
            "contract": "contracts/factories/SalesPolicyFactory.sol:SalesPolicyFactory",
            "label": "mcr",
            "offset": 0,
            "slot": "1",
            "type": "t_uint256"
          },
          {
            "astId": 12667,
            "contract": "contracts/factories/SalesPolicyFactory.sol:SalesPolicyFactory",
            "label": "protocolAddress",
            "offset": 0,
            "slot": "2",
            "type": "t_address"
          },
          {
            "astId": 12669,
            "contract": "contracts/factories/SalesPolicyFactory.sol:SalesPolicyFactory",
            "label": "protocolCurrency",
            "offset": 0,
            "slot": "3",
            "type": "t_address"
          },
          {
            "astId": 12671,
            "contract": "contracts/factories/SalesPolicyFactory.sol:SalesPolicyFactory",
            "label": "name",
            "offset": 0,
            "slot": "4",
            "type": "t_string_storage"
          },
          {
            "astId": 12673,
            "contract": "contracts/factories/SalesPolicyFactory.sol:SalesPolicyFactory",
            "label": "productType",
            "offset": 0,
            "slot": "5",
            "type": "t_string_storage"
          },
          {
            "astId": 12675,
            "contract": "contracts/factories/SalesPolicyFactory.sol:SalesPolicyFactory",
            "label": "premiumDescription",
            "offset": 0,
            "slot": "6",
            "type": "t_string_storage"
          },
          {
            "astId": 12677,
            "contract": "contracts/factories/SalesPolicyFactory.sol:SalesPolicyFactory",
            "label": "salesPolicy",
            "offset": 0,
            "slot": "7",
            "type": "t_address"
          },
          {
            "astId": 12679,
            "contract": "contracts/factories/SalesPolicyFactory.sol:SalesPolicyFactory",
            "label": "exist",
            "offset": 20,
            "slot": "7",
            "type": "t_bool"
          }
        ],
        "numberOfBytes": "256"
      },
      "t_uint16": {
        "encoding": "inplace",
        "label": "uint16",
        "numberOfBytes": "2"
      },
      "t_uint256": {
        "encoding": "inplace",
        "label": "uint256",
        "numberOfBytes": "32"
      }
    }
  }
}