{
  "address": "0x61c4309d64213E744B424e724b918C7D66DC4718",
  "abi": [
    {
      "inputs": [
        {
          "internalType": "address",
          "name": "_owner",
          "type": "address"
        },
        {
          "internalType": "address",
          "name": "_usdcToken",
          "type": "address"
        },
        {
          "internalType": "address",
          "name": "_exchangeAgent",
          "type": "address"
        },
        {
          "internalType": "address",
          "name": "_premiumPool",
          "type": "address"
        },
        {
          "internalType": "address",
          "name": "_capitalAgent",
          "type": "address"
        }
      ],
      "stateMutability": "nonpayable",
      "type": "constructor"
    },
    {
      "anonymous": false,
      "inputs": [
        {
          "indexed": false,
          "internalType": "uint16",
          "name": "_protocolId",
          "type": "uint16"
        },
        {
          "indexed": true,
          "internalType": "address",
          "name": "_protocol",
          "type": "address"
        }
      ],
      "name": "LogSetBlackListProtocol",
      "type": "event"
    },
    {
      "anonymous": false,
      "inputs": [
        {
          "indexed": true,
          "internalType": "address",
          "name": "_premiumPool",
          "type": "address"
        }
      ],
      "name": "LogSetPremiumPool",
      "type": "event"
    },
    {
      "anonymous": false,
      "inputs": [
        {
          "indexed": false,
          "internalType": "bool",
          "name": "_status",
          "type": "bool"
        }
      ],
      "name": "LogUpdateCheckIfProtocolInWhitelistArray",
      "type": "event"
    },
    {
      "anonymous": false,
      "inputs": [
        {
          "indexed": false,
          "internalType": "uint16",
          "name": "_protocolIdx",
          "type": "uint16"
        }
      ],
      "name": "ProtocolCreated",
      "type": "event"
    },
    {
      "inputs": [],
      "name": "USDC_TOKEN",
      "outputs": [
        {
          "internalType": "address",
          "name": "",
          "type": "address"
        }
      ],
      "stateMutability": "view",
      "type": "function"
    },
    {
      "inputs": [
        {
          "internalType": "address",
          "name": "_protocolAddress",
          "type": "address"
        }
      ],
      "name": "addProtocol",
      "outputs": [],
      "stateMutability": "nonpayable",
      "type": "function"
    },
    {
      "inputs": [],
      "name": "allProtocolsLength",
      "outputs": [
        {
          "internalType": "uint256",
          "name": "",
          "type": "uint256"
        }
      ],
      "stateMutability": "view",
      "type": "function"
    },
    {
      "inputs": [
        {
          "internalType": "address",
          "name": "_premiumCurrency",
          "type": "address"
        }
      ],
      "name": "approvePremiumInPolicy",
      "outputs": [],
      "stateMutability": "nonpayable",
      "type": "function"
    },
    {
      "inputs": [],
      "name": "capitalAgent",
      "outputs": [
        {
          "internalType": "address",
          "name": "",
          "type": "address"
        }
      ],
      "stateMutability": "view",
      "type": "function"
    },
    {
      "inputs": [],
      "name": "checkIfProtocolInWhitelistArray",
      "outputs": [
        {
          "internalType": "bool",
          "name": "",
          "type": "bool"
        }
      ],
      "stateMutability": "view",
      "type": "function"
    },
    {
      "inputs": [],
      "name": "exchangeAgent",
      "outputs": [
        {
          "internalType": "address",
          "name": "",
          "type": "address"
        }
      ],
      "stateMutability": "view",
      "type": "function"
    },
    {
      "inputs": [
        {
          "internalType": "uint16",
          "name": "",
          "type": "uint16"
        }
      ],
      "name": "getProtocol",
      "outputs": [
        {
          "internalType": "address",
          "name": "protocolAddress",
          "type": "address"
        },
        {
          "internalType": "bool",
          "name": "isBlackList",
          "type": "bool"
        }
      ],
      "stateMutability": "view",
      "type": "function"
    },
    {
      "inputs": [
        {
          "internalType": "uint16",
          "name": "_protocolIdx",
          "type": "uint16"
        }
      ],
      "name": "getProtocolData",
      "outputs": [
        {
          "internalType": "address",
          "name": "protocolAddress",
          "type": "address"
        },
        {
          "internalType": "bool",
          "name": "isBlackList",
          "type": "bool"
        }
      ],
      "stateMutability": "view",
      "type": "function"
    },
    {
      "inputs": [
        {
          "internalType": "address",
          "name": "",
          "type": "address"
        }
      ],
      "name": "getProtocolId",
      "outputs": [
        {
          "internalType": "uint16",
          "name": "",
          "type": "uint16"
        }
      ],
      "stateMutability": "view",
      "type": "function"
    },
    {
      "inputs": [
        {
          "internalType": "address",
          "name": "_exchangeAgent",
          "type": "address"
        },
        {
          "internalType": "address",
          "name": "_premiumPool",
          "type": "address"
        },
        {
          "internalType": "address",
          "name": "_capitalAgent",
          "type": "address"
        }
      ],
      "name": "newSalesPolicy",
      "outputs": [
        {
          "internalType": "address",
          "name": "",
          "type": "address"
        }
      ],
      "stateMutability": "nonpayable",
      "type": "function"
    },
    {
      "inputs": [],
      "name": "owner",
      "outputs": [
        {
          "internalType": "address",
          "name": "",
          "type": "address"
        }
      ],
      "stateMutability": "view",
      "type": "function"
    },
    {
      "inputs": [],
      "name": "premiumPool",
      "outputs": [
        {
          "internalType": "address",
          "name": "",
          "type": "address"
        }
      ],
      "stateMutability": "view",
      "type": "function"
    },
    {
      "inputs": [],
      "name": "salesPolicy",
      "outputs": [
        {
          "internalType": "address",
          "name": "",
          "type": "address"
        }
      ],
      "stateMutability": "view",
      "type": "function"
    },
    {
      "inputs": [
        {
          "internalType": "address",
          "name": "_protocol",
          "type": "address"
        }
      ],
      "name": "setBlackListProtocolByAddress",
      "outputs": [],
      "stateMutability": "nonpayable",
      "type": "function"
    },
    {
      "inputs": [
        {
          "internalType": "uint16",
          "name": "_protocolId",
          "type": "uint16"
        }
      ],
      "name": "setBlackListProtocolById",
      "outputs": [],
      "stateMutability": "nonpayable",
      "type": "function"
    },
    {
      "inputs": [
        {
          "internalType": "uint256",
          "name": "_maxDeadline",
          "type": "uint256"
        }
      ],
      "name": "setBuyPolicyMaxDeadlineInPolicy",
      "outputs": [],
      "stateMutability": "nonpayable",
      "type": "function"
    },
    {
      "inputs": [
        {
          "internalType": "address",
          "name": "_exchangeAgent",
          "type": "address"
        }
      ],
      "name": "setExchangeAgentInPolicy",
      "outputs": [],
      "stateMutability": "nonpayable",
      "type": "function"
    },
    {
      "inputs": [
        {
          "internalType": "address",
          "name": "_premiumPool",
          "type": "address"
        }
      ],
      "name": "setPremiumPool",
      "outputs": [],
      "stateMutability": "nonpayable",
      "type": "function"
    },
    {
      "inputs": [
        {
          "internalType": "address",
          "name": "_premiumPool",
          "type": "address"
        }
      ],
      "name": "setPremiumPoolInPolicy",
      "outputs": [],
      "stateMutability": "nonpayable",
      "type": "function"
    },
    {
      "inputs": [
        {
          "internalType": "string",
          "name": "_uri",
          "type": "string"
        }
      ],
      "name": "setProtocolURIInPolicy",
      "outputs": [],
      "stateMutability": "nonpayable",
      "type": "function"
    },
    {
      "inputs": [
        {
          "internalType": "address",
          "name": "_signer",
          "type": "address"
        }
      ],
      "name": "setSignerInPolicy",
      "outputs": [],
      "stateMutability": "nonpayable",
      "type": "function"
    },
    {
      "inputs": [
        {
          "internalType": "bool",
          "name": "_status",
          "type": "bool"
        }
      ],
      "name": "updateCheckIfProtocolInWhitelistArray",
      "outputs": [],
      "stateMutability": "nonpayable",
      "type": "function"
    }
  ],
  "transactionHash": "0x46ec029ef7e81467ff26481bfe9c88667553eb9923ef601b34ce9af285c46c3b",
  "args": [
    "0x5569BDF4e02cec3fE459796e3d0e741616029fA4",
    "0x40c035016AD732b6cFce34c3F881040B6C6cf71E",
    "0x1E545CbA6E77CBfcBd0a7CAD9F2D8E0051F347D4",
    "0xf6F31ACB097B206c80cfcd1d0855f7170891bE4c",
    "0x254D75e01617455BC25258036e642Fb82bbfd0c9"
  ],
  "solcInputHash": "bf649fb54ad93792de572409f0dce774",
  "bytecode": "0x60806040523480156200001157600080fd5b50604051620058753803806200587583398101604081905262000034916200019d565b60016000556001600160a01b0385166200006b5760405162461bcd60e51b81526004016200006290620002af565b60405180910390fd5b6001600160a01b038416620000945760405162461bcd60e51b8152600401620000629062000278565b6001600160a01b038316620000bd5760405162461bcd60e51b81526004016200006290620002e6565b6001600160a01b038216620000e65760405162461bcd60e51b8152600401620000629062000241565b6001600160a01b0381166200010f5760405162461bcd60e51b815260040162000062906200020c565b600980546001600160a01b03199081166001600160a01b03968716179091556002805482169686169690961790955560018054610100600160a81b03191661010093861693909302929092179091556003805485169284169290921790915560048054909316911617905562000327565b80516001600160a01b03811681146200019857600080fd5b919050565b600080600080600060a08688031215620001b5578081fd5b620001c08662000180565b9450620001d06020870162000180565b9350620001e06040870162000180565b9250620001f06060870162000180565b9150620002006080870162000180565b90509295509295909350565b6020808252818101527f556e6f52653a207a65726f206361706974616c4167656e742061646472657373604082015260600190565b6020808252601f908201527f556e6f52653a207a65726f207072656d69756d506f6f6c206164647265737300604082015260600190565b60208082526018908201527f556e6f52653a207a65726f205553444320616464726573730000000000000000604082015260600190565b60208082526019908201527f556e6f52653a207a65726f206f776e6572206164647265737300000000000000604082015260600190565b60208082526021908201527f556e6f52653a207a65726f2065786368616e67654167656e74206164647265736040820152607360f81b606082015260800190565b61553e80620003376000396000f3fe60806040523480156200001157600080fd5b5060043610620001b45760003560e01c8063b31b9fee11620000f9578063d191097e1162000099578063dc962e45116200006f578063dc962e451462000381578063dfca97811462000398578063fa56927414620003af57620001b4565b8063d191097e1462000349578063d2c7c2a41462000360578063d9203b91146200037757620001b4565b8063bbd9d8e111620000cf578063bbd9d8e11462000301578063bcd54f0c1462000328578063c3c3b55b146200033f57620001b4565b8063b31b9fee14620002ba578063b381ff8214620002d1578063b64a775e14620002ea57620001b4565b80636c18443d11620001655780638da5cb5b116200013b5780638da5cb5b1462000282578063924589c5146200028c578063aeba91d014620002a357620001b4565b80636c18443d146200022e578063771d4c2814620002545780638bc798dc146200026b57620001b4565b8063222a5df6116200019b578063222a5df614620001e957806342198160146200020b5780634ba69faa146200022457620001b4565b806302f3318d14620001b95780631bcc247214620001d2575b600080fd5b620001d0620001ca36600462000d17565b620003b9565b005b620001d0620001e336600462000d17565b62000481565b620001f362000540565b60405162000202919062000eef565b60405180910390f35b6200021562000549565b60405162000202919062000e8e565b6200021562000558565b620002456200023f36600462000d17565b6200056c565b6040516200020291906200102c565b620001d06200026536600462000d17565b62000582565b620001d06200027c36600462000d17565b620006bb565b6200021562000743565b620001d06200029d36600462000e51565b62000752565b620001d0620002b436600462000d17565b620007ef565b62000215620002cb36600462000d3b565b620008c2565b620002db62000a0d565b6040516200020291906200103b565b620001d0620002fb36600462000d17565b62000a20565b620003186200031236600462000e51565b62000aa8565b6040516200020292919062000ed4565b620001d06200033936600462000da6565b62000ad4565b6200021562000b33565b620001d06200035a36600462000e75565b62000b42565b620003186200037136600462000e51565b62000bc4565b6200021562000beb565b620001d06200039236600462000d84565b62000bfa565b620001d0620003a936600462000d17565b62000c72565b6200021562000cd1565b6002546001600160a01b03163314620003ef5760405162461bcd60e51b8152600401620003e69062000f87565b60405180910390fd5b6001600160a01b038116620004185760405162461bcd60e51b8152600401620003e69062000f50565b600554604051630de6123960e11b81526001600160a01b0390911690631bcc2472906200044a90849060040162000e8e565b600060405180830381600087803b1580156200046557600080fd5b505af11580156200047a573d6000803e3d6000fd5b5050505050565b6002546001600160a01b03163314620004ae5760405162461bcd60e51b8152600401620003e69062000f87565b6001600160a01b038116620004d75760405162461bcd60e51b8152600401620003e69062000f50565b600180547fffffffffffffffffffffff0000000000000000000000000000000000000000ff166101006001600160a01b038416908102919091179091556040517faa0150507cbcab99f33127173fcbdd580e5710d253406b99952e1feda3cdcc0e90600090a250565b60015460ff1681565b6004546001600160a01b031681565b60015461010090046001600160a01b031681565b60076020526000908152604090205461ffff1681565b6002546001600160a01b03163314620005af5760405162461bcd60e51b8152600401620003e69062000f87565b60026000541415620005d55760405162461bcd60e51b8152600401620003e69062000ff5565b60026000908155620005e8600862000ce0565b6040805180820182526001600160a01b038581168083526000602080850182815261ffff88168084526006835287842096518754925173ffffffffffffffffffffffffffffffffffffffff1990931696169590951760ff60a01b1916600160a01b91151591909102179094559081526007909252919020805461ffff19169091179055905062000679600862000ce8565b7f72bad1508ad72fc57385ebb6fe856b8a7d6a16afc50e9660ce3761f355468a8281604051620006aa91906200102c565b60405180910390a150506001600055565b6002546001600160a01b03163314620006e85760405162461bcd60e51b8152600401620003e69062000f87565b6001600160a01b038116620007115760405162461bcd60e51b8152600401620003e69062000f50565b600554604051636c19e78360e01b81526001600160a01b0390911690636c19e783906200044a90849060040162000e8e565b6002546001600160a01b031681565b6002546001600160a01b031633146200077f5760405162461bcd60e51b8152600401620003e69062000f87565b61ffff811660009081526006602052604090819020805460ff60a01b1916600160a01b179081905590516001600160a01b03909116907f599cca7c0d636819ca3833dcdbcd266536199c19522d35eb59e13d07f104177090620007e49084906200102c565b60405180910390a250565b6002546001600160a01b031633146200081c5760405162461bcd60e51b8152600401620003e69062000f87565b6001600160a01b038116620008455760405162461bcd60e51b8152600401620003e69062000f50565b6001600160a01b03811660008181526007602090815260408083205461ffff16808452600690925291829020805460ff60a01b1916600160a01b17905590519091907f599cca7c0d636819ca3833dcdbcd266536199c19522d35eb59e13d07f104177090620008b69084906200102c565b60405180910390a25050565b6002546000906001600160a01b03163314620008f25760405162461bcd60e51b8152600401620003e69062000f87565b60026000541415620009185760405162461bcd60e51b8152600401620003e69062000ff5565b6002600090815560095460405130918791879187916001600160a01b0390911690620009449062000cf1565b6200095495949392919062000ea2565b604051809103906000f08015801562000971573d6000803e3d6000fd5b506005805473ffffffffffffffffffffffffffffffffffffffff19166001600160a01b038381169190911790915560048054604051637d4163d360e01b815293945090911691637d4163d391620009cb9185910162000e8e565b600060405180830381600087803b158015620009e657600080fd5b505af1158015620009fb573d6000803e3d6000fd5b50506001600055509095945050505050565b600062000a1b600862000ce0565b905090565b6002546001600160a01b0316331462000a4d5760405162461bcd60e51b8152600401620003e69062000f87565b6001600160a01b03811662000a765760405162461bcd60e51b8152600401620003e69062000f50565b600554604051630c5006c760e11b81526001600160a01b03909116906318a00d8e906200044a90849060040162000e8e565b61ffff166000908152600660205260409020546001600160a01b03811691600160a01b90910460ff1690565b6002546001600160a01b0316331462000b015760405162461bcd60e51b8152600401620003e69062000f87565b6005546040516313b41ce760e31b81526001600160a01b0390911690639da0e738906200044a90849060040162000efa565b6005546001600160a01b031681565b6002546001600160a01b0316331462000b6f5760405162461bcd60e51b8152600401620003e69062000f87565b6000811162000b925760405162461bcd60e51b8152600401620003e69062000fbe565b60055460405163fda2071d60e01b81526001600160a01b039091169063fda2071d906200044a9084906004016200103b565b6006602052600090815260409020546001600160a01b03811690600160a01b900460ff1682565b6003546001600160a01b031681565b6002546001600160a01b0316331462000c275760405162461bcd60e51b8152600401620003e69062000f87565b6001805460ff19168215151790556040517f8488d1fbbfabc3e41bea48b6d06c5139182eccbd9942a27a1142748120d028589062000c6790839062000eef565b60405180910390a150565b6002546001600160a01b0316331462000c9f5760405162461bcd60e51b8152600401620003e69062000f87565b6005546040516321ecf70160e01b81526001600160a01b03909116906321ecf701906200044a90849060040162000e8e565b6009546001600160a01b031681565b80545b919050565b80546001019055565b6144ae806200105b83390190565b80356001600160a01b038116811462000ce357600080fd5b60006020828403121562000d29578081fd5b62000d348262000cff565b9392505050565b60008060006060848603121562000d50578182fd5b62000d5b8462000cff565b925062000d6b6020850162000cff565b915062000d7b6040850162000cff565b90509250925092565b60006020828403121562000d96578081fd5b8135801515811462000d34578182fd5b6000602080838503121562000db9578182fd5b823567ffffffffffffffff8082111562000dd1578384fd5b818501915085601f83011262000de5578384fd5b81358181111562000dfa5762000dfa62001044565b604051601f8201601f191681018501838111828210171562000e205762000e2062001044565b604052818152838201850188101562000e37578586fd5b818585018683013790810190930193909352509392505050565b60006020828403121562000e63578081fd5b813561ffff8116811462000d34578182fd5b60006020828403121562000e87578081fd5b5035919050565b6001600160a01b0391909116815260200190565b6001600160a01b0395861681529385166020850152918416604084015283166060830152909116608082015260a00190565b6001600160a01b039290921682521515602082015260400190565b901515815260200190565b6000602080835283518082850152825b8181101562000f285785810183015185820160400152820162000f0a565b8181111562000f3a5783604083870101525b50601f01601f1916929092016040019392505050565b60208082526013908201527f556e6f52653a207a65726f206164647265737300000000000000000000000000604082015260600190565b60208082526010908201527f556e6f52653a20466f7262696464656e00000000000000000000000000000000604082015260600190565b60208082526018908201527f556e6f52653a207a65726f206d617820646561646c696e650000000000000000604082015260600190565b6020808252601f908201527f5265656e7472616e637947756172643a207265656e7472616e742063616c6c00604082015260600190565b61ffff91909116815260200190565b90815260200190565b634e487b7160e01b600052604160045260246000fdfe60c06040526000196011553480156200001757600080fd5b50604051620044ae380380620044ae8339810160408190526200003a9162000396565b6040518060400160405280601081526020016f506f6c69637920696e737572616e636560801b8152506040518060400160405280601081526020016f506f6c69637920696e737572616e636560801b8152506040518060400160405280601881526020017f427579506f6c6963794d6574615472616e73616374696f6e0000000000000000815250604051806040016040528060018152602001603160f81b81525081816040518060800160405280604f81526020016200445f604f913980519060200120828051906020012082805190602001203062000120620002cf60201b60201c565b6040516200013695949392919060200162000405565b60408051601f19818403018152919052805160209182012060005586516200016a95506002945090870192509050620002d3565b50805162000180906003906020840190620002d3565b50506001600855506001600160a01b038516620001ba5760405162461bcd60e51b8152600401620001b190620004d4565b60405180910390fd5b6001600160a01b038416620001e35760405162461bcd60e51b8152600401620001b1906200050b565b6001600160a01b0383166200020c5760405162461bcd60e51b8152600401620001b19062000466565b6001600160a01b038216620002355760405162461bcd60e51b8152600401620001b19062000431565b6001600160a01b0381166200025e5760405162461bcd60e51b8152600401620001b1906200049d565b606094851b6001600160601b0319908116608052600a805462010000600160b01b031916620100006001600160a01b0397881602179055600c80546001600160a01b0319908116948716949094179055941b90931660a052600b8054909316911617905562093a8060095562000589565b4690565b828054620002e1906200054c565b90600052602060002090601f01602090048101928262000305576000855562000350565b82601f106200032057805160ff191683800117855562000350565b8280016001018555821562000350579182015b828111156200035057825182559160200191906001019062000333565b506200035e92915062000362565b5090565b5b808211156200035e576000815560010162000363565b80516001600160a01b03811681146200039157600080fd5b919050565b600080600080600060a08688031215620003ae578081fd5b620003b98662000379565b9450620003c96020870162000379565b9350620003d96040870162000379565b9250620003e96060870162000379565b9150620003f96080870162000379565b90509295509295909350565b948552602085019390935260408401919091526001600160a01b03166060830152608082015260a00190565b6020808252818101527f556e6f52653a207a65726f206361706974616c4167656e742061646472657373604082015260600190565b6020808252601f908201527f556e6f52653a207a65726f207072656d69756d506f6f6c206164647265737300604082015260600190565b60208082526018908201527f556e6f52653a207a65726f205553444320616464726573730000000000000000604082015260600190565b6020808252601b908201527f556e6f52653a207a65726f20666163746f727920616464726573730000000000604082015260600190565b60208082526021908201527f556e6f52653a207a65726f2065786368616e67654167656e74206164647265736040820152607360f81b606082015260800190565b6002810460018216806200056157607f821691505b602082108114156200058357634e487b7160e01b600052602260045260246000fd5b50919050565b60805160601c60a05160601c613e5d62000602600039600081816112930152611854015260008181610a0301528181610b0001528181610bd501528181610ef3015281816113f4015281816116930152818161176801528181611878015281816120b70152818161220501526122900152613e5d6000f3fe6080604052600436106102385760003560e01c80636352211e11610138578063b88d4fde116100b0578063d341960b1161007f578063e985e9c511610064578063e985e9c514610635578063fa56927414610655578063fda2071d1461066a5761023f565b8063d341960b1461060b578063de4e4201146106205761023f565b8063b88d4fde14610596578063c2eb8eb9146105b6578063c45a0155146105d6578063c87b56dd146105eb5761023f565b806395d89b41116101075780639da0e738116100ec5780639da0e73814610536578063a22cb46514610556578063a5d5e142146105765761023f565b806395d89b411461050e57806397e8e39c146105235761023f565b80636352211e1461047f5780636c19e7831461049f57806370a08231146104bf5780637a5402e9146104df5761023f565b8063238ac933116101cb57806333b3691e1161019a57806342842e0e1161017f57806342842e0e146104285780634ba69faa146104485780634d8dbb3c1461045d5761023f565b806333b3691e146103f357806342198160146104135761023f565b8063238ac9331461035e57806323b872dd146103735780632b07fce3146103935780632d0335ab146103c65761023f565b80630c53c51c116102075780630c53c51c146102eb57806318a00d8e146102fe5780631bcc24721461031e57806321ecf7011461033e5761023f565b806301ffc9a71461024457806306fdde031461027a578063081812fc1461029c578063095ea7b3146102c95761023f565b3661023f57005b600080fd5b34801561025057600080fd5b5061026461025f366004612e39565b61068a565b60405161027191906131a3565b60405180910390f35b34801561028657600080fd5b5061028f6106d2565b60405161027191906131f0565b3480156102a857600080fd5b506102bc6102b7366004612ed9565b610765565b60405161027191906130ae565b3480156102d557600080fd5b506102e96102e4366004612d25565b6107b1565b005b61028f6102f9366004612cb3565b610849565b34801561030a57600080fd5b506102e9610319366004612b5a565b610a01565b34801561032a57600080fd5b506102e9610339366004612b5a565b610afe565b34801561034a57600080fd5b506102e9610359366004612b5a565b610bd3565b34801561036a57600080fd5b506102bc610ce3565b34801561037f57600080fd5b506102e961038e366004612bae565b610cf2565b34801561039f57600080fd5b506103b36103ae366004612ed9565b610d2a565b6040516102719796959493929190613c02565b3480156103d257600080fd5b506103e66103e1366004612b5a565b610d7c565b6040516102719190613bd1565b3480156103ff57600080fd5b506102e961040e366004612ed9565b610d97565b34801561041f57600080fd5b506102bc610e79565b34801561043457600080fd5b506102e9610443366004612bae565b610e88565b34801561045457600080fd5b506102bc610ea3565b34801561046957600080fd5b50610472610eb2565b6040516102719190613b88565b34801561048b57600080fd5b506102bc61049a366004612ed9565b610ebc565b3480156104ab57600080fd5b506102e96104ba366004612b5a565b610ef1565b3480156104cb57600080fd5b506103e66104da366004612b5a565b610fc6565b3480156104eb57600080fd5b506104ff6104fa366004612ed9565b61100a565b60405161027193929190613bec565b34801561051a57600080fd5b5061028f611028565b6102e9610531366004612d50565b611037565b34801561054257600080fd5b506102e9610551366004612e71565b6113f2565b34801561056257600080fd5b506102e9610571366004612c58565b6114a3565b34801561058257600080fd5b506102e9610591366004612ed9565b611571565b3480156105a257600080fd5b506102e96105b1366004612bee565b611652565b3480156105c257600080fd5b506102e96105d1366004612b5a565b611691565b3480156105e257600080fd5b506102bc611766565b3480156105f757600080fd5b5061028f610606366004612ed9565b61178a565b34801561061757600080fd5b506103e661180d565b34801561062c57600080fd5b506103e661181e565b34801561064157600080fd5b50610264610650366004612b76565b611824565b34801561066157600080fd5b506102bc611852565b34801561067657600080fd5b506102e9610685366004612ed9565b611876565b60006001600160e01b031982166380ac58cd60e01b14806106bb57506001600160e01b03198216635b5e139f60e01b145b806106ca57506106ca8261192f565b90505b919050565b6060600280546106e190613cfc565b80601f016020809104026020016040519081016040528092919081815260200182805461070d90613cfc565b801561075a5780601f1061072f5761010080835404028352916020019161075a565b820191906000526020600020905b81548152906001019060200180831161073d57829003601f168201915b505050505090505b90565b600061077082611948565b6107955760405162461bcd60e51b815260040161078c906137b0565b60405180910390fd5b506000908152600660205260409020546001600160a01b031690565b60006107bc82610ebc565b9050806001600160a01b0316836001600160a01b031614156107f05760405162461bcd60e51b815260040161078c906139c2565b806001600160a01b0316610802611965565b6001600160a01b0316148061081e575061081e81610650611965565b61083a5760405162461bcd60e51b815260040161078c906135bf565b6108448383611969565b505050565b60606000610856866119d7565b90506000356001600160e01b031990811690821614156108885760405162461bcd60e51b815260040161078c9061333c565b604080516060810182526001600160a01b038916600081815260016020908152908490205483528201529081018790526108c588828888886119f3565b6108e15760405162461bcd60e51b815260040161078c90613859565b6001600160a01b03881660009081526001602081905260409091205461090691613c8d565b6001600160a01b038916600090815260016020908152604080832093909355915190918291309161093b918c918e9101612f83565b60408051601f198184030181529082905261095591612f67565b6000604051808303816000865af19150503d8060008114610992576040519150601f19603f3d011682016040523d82523d6000602084013e610997565b606091505b5091509150816109b95760405162461bcd60e51b815260040161078c906132ce565b7f5845892132946850460bff5a0083f71031bc5bf9aadcd40f1de79423eac9b10b8a338b6040516109ec939291906130c2565b60405180910390a19998505050505050505050565b7f00000000000000000000000000000000000000000000000000000000000000006001600160a01b0316610a33611a9f565b6001600160a01b031614610a595760405162461bcd60e51b815260040161078c90613779565b6001600160a01b038116610a7f5760405162461bcd60e51b815260040161078c90613297565b600a80547fffffffffffffffffffff0000000000000000000000000000000000000000ffff16620100006001600160a01b038416908102919091179182905560405130927fc3177381220e3683a27c54985d092dbe1cb47c9120f3053c10284834dfda5f1b91610af39161ffff1690613b88565b60405180910390a350565b7f00000000000000000000000000000000000000000000000000000000000000006001600160a01b0316610b30611a9f565b6001600160a01b031614610b565760405162461bcd60e51b815260040161078c90613779565b6001600160a01b038116610b7c5760405162461bcd60e51b815260040161078c90613297565b600b80546001600160a01b0319166001600160a01b038316908117909155600a546040513092917f94128e4300bfd33abb55528d41b5b229e819cf4f2abedfc04ff18c8abab199c491610af39161ffff1690613b88565b7f00000000000000000000000000000000000000000000000000000000000000006001600160a01b0316610c05611a9f565b6001600160a01b031614610c2b5760405162461bcd60e51b815260040161078c90613779565b6001600160a01b038116610c515760405162461bcd60e51b815260040161078c90613297565b600b546001600160a01b0316610c795760405162461bcd60e51b815260040161078c906138f7565b600b54601154610c969183916001600160a01b0390911690611afb565b600a54600b546040516001600160a01b038481169330937f722454f4bb0415a0cbc72420f236cd42ec5e56259afafb401deaa9c284c02d5393610af39361ffff9093169290911690613b97565b600d546001600160a01b031681565b610d03610cfd611965565b82611bfd565b610d1f5760405162461bcd60e51b815260040161078c90613a60565b610844838383611c82565b601060205260009081526040902080546001820154600283015460038401546004909401549293919290916001600160a01b03908116919081169060ff600160a01b8204811691600160a81b90041687565b6001600160a01b031660009081526001602052604090205490565b60026008541415610dba5760405162461bcd60e51b815260040161078c90613b51565b6002600855600c546001600160a01b0316610dd3611a9f565b6001600160a01b031614610df95760405162461bcd60e51b815260040161078c90613779565b600081815260106020526040902060040154600160a01b900460ff16610e315760405162461bcd60e51b815260040161078c90613399565b600081815260106020526040902060040180547fffffffffffffffffffffff00ffffffffffffffffffffffffffffffffffffffff169055610e7181611daf565b506001600855565b600c546001600160a01b031681565b61084483838360405180602001604052806000815250611652565b600b546001600160a01b031681565b600a5461ffff1681565b6000818152600460205260408120546001600160a01b0316806106ca5760405162461bcd60e51b815260040161078c906136b0565b7f00000000000000000000000000000000000000000000000000000000000000006001600160a01b0316610f23611a9f565b6001600160a01b031614610f495760405162461bcd60e51b815260040161078c90613779565b6001600160a01b038116610f6f5760405162461bcd60e51b815260040161078c90613297565b600d80546001600160a01b0319166001600160a01b038316908117909155600a546040513092917fd9763970fede39242cdd022989dc223021c84e3a2466a675e86ade06ee2c361a91610af39161ffff1690613b88565b60006001600160a01b038216610fee5760405162461bcd60e51b815260040161078c90613653565b506001600160a01b031660009081526005602052604090205490565b60009081526010602052604090206002810154600182015491549092565b6060600380546106e190613cfc565b6002600854141561105a5760405162461bcd60e51b815260040161078c90613b51565b600260085588518061107e5760405162461bcd60e51b815260040161078c9061392e565b8851811461109e5760405162461bcd60e51b815260040161078c90613a03565b875181146110be5760405162461bcd60e51b815260040161078c90613af4565b60006110d1888c8b8d8b8b8b8b8b611e56565b90506001600160a01b038116158015906110f85750600d546001600160a01b038281169116145b6111145760405162461bcd60e51b815260040161078c9061361c565b42871115801561112e575060095461112c8842613cb9565b105b61114a5760405162461bcd60e51b815260040161078c90613588565b60006001600160a01b03871661129157600a5460405163531a221160e01b8152620100009091046001600160a01b03169063531a22119061118f908c90600401613bd1565b60206040518083038186803b1580156111a757600080fd5b505afa1580156111bb573d6000803e3d6000fd5b505050506040513d601f19601f820116820180604052508101906111df9190612ef1565b9050803410156112015760405162461bcd60e51b815260040161078c90613abd565b8034111561122357611223611214611a9f565b61121e8334613cb9565b611f1a565b600b60009054906101000a90046001600160a01b03166001600160a01b031663bc181416826040518263ffffffff1660e01b81526004016000604051808303818588803b15801561127357600080fd5b505af1158015611287573d6000803e3d6000fd5b50505050506113d2565b7f00000000000000000000000000000000000000000000000000000000000000006001600160a01b0316876001600160a01b031614156112d15788611358565b600a5460405163a9a12d4360e01b8152620100009091046001600160a01b03169063a9a12d4390611308908a908d90600401613157565b60206040518083038186803b15801561132057600080fd5b505afa158015611334573d6000803e3d6000fd5b505050506040513d601f19601f820116820180604052508101906113589190612ef1565b905061136d87611366611a9f565b3084611fa7565b600b54604051638c8ac76d60e01b81526001600160a01b0390911690638c8ac76d9061139f908a908590600401613157565b600060405180830381600087803b1580156113b957600080fd5b505af11580156113cd573d6000803e3d6000fd5b505050505b6113df8c8c8c848b6120ac565b5050600160085550505050505050505050565b7f00000000000000000000000000000000000000000000000000000000000000006001600160a01b0316611424611a9f565b6001600160a01b03161461144a5760405162461bcd60e51b815260040161078c90613779565b805161145d90600e90602084019061295f565b50600a5460405130917f23ff632ee616fb8c7e8f7e3cbd753181800ea4c090ac021dd7a68f79b7acbd21916114989161ffff16908590613bb4565b60405180910390a250565b6114ab611965565b6001600160a01b0316826001600160a01b031614156114dc5760405162461bcd60e51b815260040161078c906134ce565b80600760006114e9611965565b6001600160a01b03908116825260208083019390935260409182016000908120918716808252919093529120805460ff19169215159290921790915561152d611965565b6001600160a01b03167f17307eab39ab6107e8899845ad3d59bd9653f200f220920489ca2b5937696c318360405161156591906131a3565b60405180910390a35050565b600260085414156115945760405162461bcd60e51b815260040161078c90613b51565b6002600855600c546001600160a01b03166115ad611a9f565b6001600160a01b0316146115d35760405162461bcd60e51b815260040161078c90613779565b600081815260106020526040902060040154600160a01b900460ff161561160c5760405162461bcd60e51b815260040161078c90613203565b600081815260106020526040902060040180547fffffffffffffffffffff00ffffffffffffffffffffffffffffffffffffffffff16600160a81b179055610e7181611daf565b61166361165d611965565b83611bfd565b61167f5760405162461bcd60e51b815260040161078c90613a60565b61168b8484848461255d565b50505050565b7f00000000000000000000000000000000000000000000000000000000000000006001600160a01b03166116c3611a9f565b6001600160a01b0316146116e95760405162461bcd60e51b815260040161078c90613779565b6001600160a01b03811661170f5760405162461bcd60e51b815260040161078c90613297565b600c80546001600160a01b0319166001600160a01b038316908117909155600a546040513092917fc3177381220e3683a27c54985d092dbe1cb47c9120f3053c10284834dfda5f1b91610af39161ffff1690613b88565b7f000000000000000000000000000000000000000000000000000000000000000081565b606061179582611948565b6117b15760405162461bcd60e51b815260040161078c9061389a565b60006117bb612590565b905060008151116117db5760405180602001604052806000815250611806565b806117e58461259f565b6040516020016117f6929190612fba565b6040516020818303038152906040525b9392505050565b6000611819600f6126d2565b905090565b60095481565b6001600160a01b03918216600090815260076020908152604080832093909416825291909152205460ff1690565b7f000000000000000000000000000000000000000000000000000000000000000081565b7f00000000000000000000000000000000000000000000000000000000000000006001600160a01b03166118a8611a9f565b6001600160a01b0316146118ce5760405162461bcd60e51b815260040161078c90613779565b600081116118ee5760405162461bcd60e51b815260040161078c9061370d565b6009819055600a5460405130917f317b924d7be379083195d8458727e3bbbe596f3c7229ee96f2ad885fd7e0f4419161149891859161ffff90911690613bda565b6001600160e01b031981166301ffc9a760e01b14919050565b6000908152600460205260409020546001600160a01b0316151590565b3390565b600081815260066020526040902080546001600160a01b0319166001600160a01b038416908117909155819061199e82610ebc565b6001600160a01b03167f8c5be1e5ebec7d5bd14f71427d1e84f3dd0314c0f7b2291e5b200ac8c7c3b92560405160405180910390a45050565b60008151600014156119eb575060006106cd565b506020015190565b6000806001611a09611a04886126d6565b612734565b84878760405160008152602001604052604051611a2994939291906131d2565b6020604051602081039080840390855afa158015611a4b573d6000803e3d6000fd5b5050604051601f1901519150506001600160a01b038116611a7e5760405162461bcd60e51b815260040161078c90613505565b866001600160a01b0316816001600160a01b03161491505095945050505050565b600033301415611af657600080368080601f0160208091040260200160405190810160405280939291908181526020018383808284376000920191909152505050503601516001600160a01b031691506107629050565b503390565b600080846001600160a01b031663095ea7b38585604051602401611b20929190613157565b6040516020818303038152906040529060e01b6020820180517bffffffffffffffffffffffffffffffffffffffffffffffffffffffff8381831617835250505050604051611b6e9190612f67565b6000604051808303816000865af19150503d8060008114611bab576040519150601f19603f3d011682016040523d82523d6000602084013e611bb0565b606091505b5091509150818015611bda575080511580611bda575080806020019051810190611bda9190612e1d565b611bf65760405162461bcd60e51b815260040161078c90613965565b5050505050565b6000611c0882611948565b611c245760405162461bcd60e51b815260040161078c9061353c565b6000611c2f83610ebc565b9050806001600160a01b0316846001600160a01b03161480611c6a5750836001600160a01b0316611c5f84610765565b6001600160a01b0316145b80611c7a5750611c7a8185611824565b949350505050565b826001600160a01b0316611c9582610ebc565b6001600160a01b031614611cbb5760405162461bcd60e51b815260040161078c906137fc565b6001600160a01b038216611ce15760405162461bcd60e51b815260040161078c9061348a565b611cec838383610844565b611cf7600082611969565b6001600160a01b0383166000908152600560205260408120805460019290611d20908490613cb9565b90915550506001600160a01b0382166000908152600560205260408120805460019290611d4e908490613c8d565b909155505060008181526004602052604080822080546001600160a01b0319166001600160a01b0386811691821790925591518493918716917fddf252ad1be2c89b69c2b068fc378daa952ba7f163c4a11628f55a4df523b3ef91a4505050565b6000611dba82610ebc565b9050611dc881600084610844565b611dd3600083611969565b6001600160a01b0381166000908152600560205260408120805460019290611dfc908490613cb9565b909155505060008281526004602052604080822080546001600160a01b0319169055518391906001600160a01b038416907fddf252ad1be2c89b69c2b068fc378daa952ba7f163c4a11628f55a4df523b3ef908390a45050565b6000808a8a8a8a8a8a604051602001611e7496959493929190613035565b604051602081830303815290604052805190602001209050600081604051602001611e9f9190612fe9565b604051602081830303815290604052805190602001209050600060018286898960405160008152602001604052604051611edc94939291906131d2565b6020604051602081039080840390855afa158015611efe573d6000803e3d6000fd5b5050604051601f1901519e9d5050505050505050505050505050565b604080516000808252602082019092526001600160a01b038416908390604051611f449190612f67565b60006040518083038185875af1925050503d8060008114611f81576040519150601f19603f3d011682016040523d82523d6000602084013e611f86565b606091505b50509050806108445760405162461bcd60e51b815260040161078c9061342d565b600080856001600160a01b03166323b872dd868686604051602401611fce939291906130f7565b6040516020818303038152906040529060e01b6020820180517bffffffffffffffffffffffffffffffffffffffffffffffffffffffff838183161783525050505060405161201c9190612f67565b6000604051808303816000865af19150503d8060008114612059576040519150601f19603f3d011682016040523d82523d6000602084013e61205e565b606091505b50915091508180156120885750805115806120885750808060200190518101906120889190612e1d565b6120a45760405162461bcd60e51b815260040161078c906133d0565b505050505050565b6000806000806000807f00000000000000000000000000000000000000000000000000000000000000006001600160a01b031663222a5df66040518163ffffffff1660e01b815260040160206040518083038186803b15801561210e57600080fd5b505afa158015612122573d6000803e3d6000fd5b505050506040513d601f19601f820116820180604052508101906121469190612e1d565b905060005b8b518110156124ed5761215e600f6126d2565b95508a818151811061218057634e487b7160e01b600052603260045260246000fd5b602002602001015194508981815181106121aa57634e487b7160e01b600052603260045260246000fd5b602002602001015193508b81815181106121d457634e487b7160e01b600052603260045260246000fd5b6020026020010151925060008990506000831561233d57604051636c18443d60e01b81526000906001600160a01b037f00000000000000000000000000000000000000000000000000000000000000001690636c18443d9061223a9089906004016130ae565b60206040518083038186803b15801561225257600080fd5b505afa158015612266573d6000803e3d6000fd5b505050506040513d601f19601f8201168201806040525081019061228a9190612eb7565b905060007f00000000000000000000000000000000000000000000000000000000000000006001600160a01b031663bbd9d8e1836040518263ffffffff1660e01b81526004016122da9190613b88565b604080518083038186803b1580156122f157600080fd5b505afa158015612305573d6000803e3d6000fd5b505050506040513d601f19601f820116820180604052508101906123299190612c85565b9150508061233657600192505b5050612341565b5060015b80156124d8576040518060e00160405280428152602001878152602001888152602001866001600160a01b031681526020018b6001600160a01b0316815260200160011515815260200160001515815250601060008a815260200190815260200160002060008201518160000155602082015181600101556040820151816002015560608201518160030160006101000a8154816001600160a01b0302191690836001600160a01b0316021790555060808201518160040160006101000a8154816001600160a01b0302191690836001600160a01b0316021790555060a08201518160040160146101000a81548160ff02191690831515021790555060c08201518160040160156101000a81548160ff02191690831515021790555090505061247161246b611a9f565b89612750565b61247b878a613c8d565b985087856001600160a01b03167feb754a0f12967cb204288786f12295d2232893d80a1369d667da7939c16b2ac56124b1611a9f565b8a8a8f886040516124c6959493929190613170565b60405180910390a36124d8600f61282f565b505080806124e590613d37565b91505061214b565b50600c546040516350498d7960e11b81526001600160a01b039091169063a0931af29061251e908990600401613bd1565b600060405180830381600087803b15801561253857600080fd5b505af115801561254c573d6000803e3d6000fd5b505050505050505050505050505050565b612568848484611c82565b61257484848484612838565b61168b5760405162461bcd60e51b815260040161078c9061323a565b6060600e80546106e190613cfc565b6060816125c457506040805180820190915260018152600360fc1b60208201526106cd565b8160005b81156125ee57806125d881613d37565b91506125e79050600a83613ca5565b91506125c8565b60008167ffffffffffffffff81111561261757634e487b7160e01b600052604160045260246000fd5b6040519080825280601f01601f191660200182016040528015612641576020820181803683370190505b5090505b8415611c7a57612656600183613cb9565b9150612663600a86613d52565b61266e906030613c8d565b60f81b81838151811061269157634e487b7160e01b600052603260045260246000fd5b60200101907effffffffffffffffffffffffffffffffffffffffffffffffffffffffffffff1916908160001a9053506126cb600a86613ca5565b9450612645565b5490565b6000604051806080016040528060438152602001613de5604391398051602091820120835184830151604080870151805190860120905161271795016131ae565b604051602081830303815290604052805190602001209050919050565b600061273e612953565b8260405160200161271792919061301a565b6001600160a01b0382166127765760405162461bcd60e51b815260040161078c90613744565b61277f81611948565b1561279c5760405162461bcd60e51b815260040161078c90613305565b6127a860008383610844565b6001600160a01b03821660009081526005602052604081208054600192906127d1908490613c8d565b909155505060008181526004602052604080822080546001600160a01b0319166001600160a01b03861690811790915590518392907fddf252ad1be2c89b69c2b068fc378daa952ba7f163c4a11628f55a4df523b3ef908290a45050565b80546001019055565b600061284c846001600160a01b0316612959565b1561294857836001600160a01b031663150b7a02612868611965565b8786866040518563ffffffff1660e01b815260040161288a949392919061311b565b602060405180830381600087803b1580156128a457600080fd5b505af19250505080156128d4575060408051601f3d908101601f191682019092526128d191810190612e55565b60015b61292e573d808015612902576040519150601f19603f3d011682016040523d82523d6000602084013e612907565b606091505b5080516129265760405162461bcd60e51b815260040161078c9061323a565b805181602001fd5b6001600160e01b031916630a85bd0160e11b149050611c7a565b506001949350505050565b60005490565b3b151590565b82805461296b90613cfc565b90600052602060002090601f01602090048101928261298d57600085556129d3565b82601f106129a657805160ff19168380011785556129d3565b828001600101855582156129d3579182015b828111156129d35782518255916020019190600101906129b8565b506129df9291506129e3565b5090565b5b808211156129df57600081556001016129e4565b600067ffffffffffffffff831115612a1257612a12613d92565b612a25601f8401601f1916602001613c3f565b9050828152838383011115612a3957600080fd5b828260208301376000602084830101529392505050565b80356106cd81613da8565b600082601f830112612a6b578081fd5b81356020612a80612a7b83613c69565b613c3f565b8281528181019085830183850287018401881015612a9c578586fd5b855b85811015612ac3578135612ab181613da8565b84529284019290840190600101612a9e565b5090979650505050505050565b600082601f830112612ae0578081fd5b81356020612af0612a7b83613c69565b8281528181019085830183850287018401881015612b0c578586fd5b855b85811015612ac357813584529284019290840190600101612b0e565b600082601f830112612b3a578081fd5b611806838335602085016129f8565b803560ff811681146106cd57600080fd5b600060208284031215612b6b578081fd5b813561180681613da8565b60008060408385031215612b88578081fd5b8235612b9381613da8565b91506020830135612ba381613da8565b809150509250929050565b600080600060608486031215612bc2578081fd5b8335612bcd81613da8565b92506020840135612bdd81613da8565b929592945050506040919091013590565b60008060008060808587031215612c03578081fd5b8435612c0e81613da8565b93506020850135612c1e81613da8565b925060408501359150606085013567ffffffffffffffff811115612c40578182fd5b612c4c87828801612b2a565b91505092959194509250565b60008060408385031215612c6a578182fd5b8235612c7581613da8565b91506020830135612ba381613dc0565b60008060408385031215612c97578182fd5b8251612ca281613da8565b6020840151909250612ba381613dc0565b600080600080600060a08688031215612cca578283fd5b8535612cd581613da8565b9450602086013567ffffffffffffffff811115612cf0578384fd5b612cfc88828901612b2a565b9450506040860135925060608601359150612d1960808701612b49565b90509295509295909350565b60008060408385031215612d37578182fd5b8235612d4281613da8565b946020939093013593505050565b60008060008060008060008060006101208a8c031215612d6e578687fd5b893567ffffffffffffffff80821115612d85578889fd5b612d918d838e01612a5b565b9a5060208c0135915080821115612da6578889fd5b612db28d838e01612ad0565b995060408c0135915080821115612dc7578889fd5b50612dd48c828d01612ad0565b97505060608a0135955060808a01359450612df160a08b01612a50565b935060c08a0135925060e08a01359150612e0e6101008b01612b49565b90509295985092959850929598565b600060208284031215612e2e578081fd5b815161180681613dc0565b600060208284031215612e4a578081fd5b813561180681613dce565b600060208284031215612e66578081fd5b815161180681613dce565b600060208284031215612e82578081fd5b813567ffffffffffffffff811115612e98578182fd5b8201601f81018413612ea8578182fd5b611c7a848235602084016129f8565b600060208284031215612ec8578081fd5b815161ffff81168114611806578182fd5b600060208284031215612eea578081fd5b5035919050565b600060208284031215612f02578081fd5b5051919050565b600081516020808401835b83811015612f3057815187529582019590820190600101612f14565b509495945050505050565b60008151808452612f53816020860160208601613cd0565b601f01601f19169290920160200192915050565b60008251612f79818460208701613cd0565b9190910192915050565b60008351612f95818460208801613cd0565b60609390931b6bffffffffffffffffffffffff19169190920190815260140192915050565b60008351612fcc818460208801613cd0565b835190830190612fe0818360208801613cd0565b01949350505050565b7f19457468657265756d205369676e6564204d6573736167653a0a3332000000008152601c810191909152603c0190565b61190160f01b81526002810192909252602282015260420190565b600087825260208083018851828a01845b8281101561306b5781516001600160a01b031684529284019290840190600101613046565b50505061308161307b828a612f09565b88612f09565b9586525060609390931b6bffffffffffffffffffffffff1916928401929092525050603401949350505050565b6001600160a01b0391909116815260200190565b60006001600160a01b038086168352808516602084015250606060408301526130ee6060830184612f3b565b95945050505050565b6001600160a01b039384168152919092166020820152604081019190915260600190565b60006001600160a01b0380871683528086166020840152508360408301526080606083015261314d6080830184612f3b565b9695505050505050565b6001600160a01b03929092168252602082015260400190565b6001600160a01b039586168152602081019490945260408401929092529092166060820152608081019190915260a00190565b901515815260200190565b93845260208401929092526001600160a01b03166040830152606082015260800190565b93845260ff9290921660208401526040830152606082015260800190565b6000602082526118066020830184612f3b565b60208082526016908201527f556e6f52653a206578706972656420616c726561647900000000000000000000604082015260600190565b60208082526032908201527f4552433732313a207472616e7366657220746f206e6f6e20455243373231526560408201527f63656976657220696d706c656d656e7465720000000000000000000000000000606082015260800190565b60208082526013908201527f556e6f52653a207a65726f206164647265737300000000000000000000000000604082015260600190565b6020808252601c908201527f46756e6374696f6e2063616c6c206e6f74207375636365737366756c00000000604082015260600190565b6020808252601c908201527f4552433732313a20746f6b656e20616c7265616479206d696e74656400000000604082015260600190565b6020808252603d908201527f66756e6374696f6e5369676e61747572652063616e206e6f74206265206f662060408201527f657865637574654d6574615472616e73616374696f6e206d6574686f64000000606082015260800190565b6020808252601e908201527f556e6f52653a206d61726b656420746f20636c61696d20616c72656164790000604082015260600190565b60208082526031908201527f5472616e7366657248656c7065723a3a7472616e7366657246726f6d3a20747260408201527f616e7366657246726f6d206661696c6564000000000000000000000000000000606082015260800190565b60208082526034908201527f5472616e7366657248656c7065723a3a736166655472616e736665724554483a60408201527f20455448207472616e73666572206661696c6564000000000000000000000000606082015260800190565b60208082526024908201527f4552433732313a207472616e7366657220746f20746865207a65726f206164646040820152637265737360e01b606082015260800190565b60208082526019908201527f4552433732313a20617070726f766520746f2063616c6c657200000000000000604082015260600190565b60208082526011908201527f496e76616c6964207369676e6174757265000000000000000000000000000000604082015260600190565b6020808252602c908201527f4552433732313a206f70657261746f7220717565727920666f72206e6f6e657860408201526b34b9ba32b73a103a37b5b2b760a11b606082015260800190565b60208082526018908201527f556e6f52653a207369676e617475726520657870697265640000000000000000604082015260600190565b60208082526038908201527f4552433732313a20617070726f76652063616c6c6572206973206e6f74206f7760408201527f6e6572206e6f7220617070726f76656420666f7220616c6c0000000000000000606082015260800190565b60208082526015908201527f556e6f52653a20696e76616c6964207369676e65720000000000000000000000604082015260600190565b6020808252602a908201527f4552433732313a2062616c616e636520717565727920666f7220746865207a6560408201527f726f206164647265737300000000000000000000000000000000000000000000606082015260800190565b60208082526029908201527f4552433732313a206f776e657220717565727920666f72206e6f6e657869737460408201527f656e7420746f6b656e0000000000000000000000000000000000000000000000606082015260800190565b6020808252601a908201527f556e6f52653a207a65726f206d6178207369676e656454696d65000000000000604082015260600190565b6020808252818101527f4552433732313a206d696e7420746f20746865207a65726f2061646472657373604082015260600190565b6020808252601c908201527f556e6f52653a2053616c6573506f6c69637920466f7262696464656e00000000604082015260600190565b6020808252602c908201527f4552433732313a20617070726f76656420717565727920666f72206e6f6e657860408201526b34b9ba32b73a103a37b5b2b760a11b606082015260800190565b60208082526029908201527f4552433732313a207472616e73666572206f6620746f6b656e2074686174206960408201527f73206e6f74206f776e0000000000000000000000000000000000000000000000606082015260800190565b60208082526021908201527f5369676e657220616e64207369676e617475726520646f206e6f74206d6174636040820152600d60fb1b606082015260800190565b6020808252602f908201527f4552433732314d657461646174613a2055524920717565727920666f72206e6f60408201527f6e6578697374656e7420746f6b656e0000000000000000000000000000000000606082015260800190565b6020808252601e908201527f556e6f52653a206e6f742064656669656e64207072656d69756d506f6f6c0000604082015260600190565b60208082526010908201527f556e6f52653a206e6f20706f6c69637900000000000000000000000000000000604082015260600190565b6020808252602b908201527f5472616e7366657248656c7065723a3a73616665417070726f76653a2061707060408201527f726f7665206661696c6564000000000000000000000000000000000000000000606082015260800190565b60208082526021908201527f4552433732313a20617070726f76616c20746f2063757272656e74206f776e656040820152603960f91b606082015260800190565b6020808252602f908201527f556e6f52653a206e6f206d617463682070726f746f636f6c496473207769746860408201527f20636f766572616765416d6f756e740000000000000000000000000000000000606082015260800190565b60208082526031908201527f4552433732313a207472616e736665722063616c6c6572206973206e6f74206f60408201527f776e6572206e6f7220617070726f766564000000000000000000000000000000606082015260800190565b60208082526018908201527f556e6f52653a20696e73756666696369656e7420706169640000000000000000604082015260600190565b60208082526031908201527f556e6f52653a206e6f206d617463682070726f746f636f6c496473207769746860408201527f20636f7665726167654475726174696f6e000000000000000000000000000000606082015260800190565b6020808252601f908201527f5265656e7472616e637947756172643a207265656e7472616e742063616c6c00604082015260600190565b61ffff91909116815260200190565b61ffff9290921682526001600160a01b0316602082015260400190565b600061ffff8416825260406020830152611c7a6040830184612f3b565b90815260200190565b91825261ffff16602082015260400190565b9283526020830191909152604082015260600190565b968752602087019590955260408601939093526001600160a01b039182166060860152166080840152151560a0830152151560c082015260e00190565b60405181810167ffffffffffffffff81118282101715613c6157613c61613d92565b604052919050565b600067ffffffffffffffff821115613c8357613c83613d92565b5060209081020190565b60008219821115613ca057613ca0613d66565b500190565b600082613cb457613cb4613d7c565b500490565b600082821015613ccb57613ccb613d66565b500390565b60005b83811015613ceb578181015183820152602001613cd3565b8381111561168b5750506000910152565b600281046001821680613d1057607f821691505b60208210811415613d3157634e487b7160e01b600052602260045260246000fd5b50919050565b6000600019821415613d4b57613d4b613d66565b5060010190565b600082613d6157613d61613d7c565b500690565b634e487b7160e01b600052601160045260246000fd5b634e487b7160e01b600052601260045260246000fd5b634e487b7160e01b600052604160045260246000fd5b6001600160a01b0381168114613dbd57600080fd5b50565b8015158114613dbd57600080fd5b6001600160e01b031981168114613dbd57600080fdfe4d6574615472616e73616374696f6e2875696e74323536206e6f6e63652c616464726573732066726f6d2c62797465732066756e6374696f6e5369676e617475726529a26469706673582212204bd067685f05e11e669d16d63da103f0d73a9e3f04309911ed9b22640433dade64736f6c63430008000033454950373132446f6d61696e28737472696e67206e616d652c737472696e672076657273696f6e2c6164647265737320766572696679696e67436f6e74726163742c627974657333322073616c7429a2646970667358221220be56e473a76cce30fc76e6889df28a3cc03286cc1f48379b1e6bc5b9ca6b6ad064736f6c63430008000033",
  "devdoc": {
    "kind": "dev",
    "methods": {},
    "version": 1
  },
  "userdoc": {
    "kind": "user",
    "methods": {},
    "version": 1
  },
  "storageLayout": {
    "storage": [
      {
        "astId": 114,
        "contract": "contracts/factories/SalesPolicyFactory.sol:SalesPolicyFactory",
        "label": "_status",
        "offset": 0,
        "slot": "0",
        "type": "t_uint256"
      },
      {
        "astId": 14088,
        "contract": "contracts/factories/SalesPolicyFactory.sol:SalesPolicyFactory",
        "label": "checkIfProtocolInWhitelistArray",
        "offset": 0,
        "slot": "1",
        "type": "t_bool"
      },
      {
        "astId": 14090,
        "contract": "contracts/factories/SalesPolicyFactory.sol:SalesPolicyFactory",
        "label": "premiumPool",
        "offset": 1,
        "slot": "1",
        "type": "t_address"
      },
      {
        "astId": 14092,
        "contract": "contracts/factories/SalesPolicyFactory.sol:SalesPolicyFactory",
        "label": "owner",
        "offset": 0,
        "slot": "2",
        "type": "t_address"
      },
      {
        "astId": 14094,
        "contract": "contracts/factories/SalesPolicyFactory.sol:SalesPolicyFactory",
        "label": "exchangeAgent",
        "offset": 0,
        "slot": "3",
        "type": "t_address"
      },
      {
        "astId": 14096,
        "contract": "contracts/factories/SalesPolicyFactory.sol:SalesPolicyFactory",
        "label": "capitalAgent",
        "offset": 0,
        "slot": "4",
        "type": "t_address"
      },
      {
        "astId": 14098,
        "contract": "contracts/factories/SalesPolicyFactory.sol:SalesPolicyFactory",
        "label": "salesPolicy",
        "offset": 0,
        "slot": "5",
        "type": "t_address"
      },
      {
        "astId": 14103,
        "contract": "contracts/factories/SalesPolicyFactory.sol:SalesPolicyFactory",
        "label": "getProtocol",
        "offset": 0,
        "slot": "6",
        "type": "t_mapping(t_uint16,t_struct(Protocol)14085_storage)"
      },
      {
        "astId": 14108,
        "contract": "contracts/factories/SalesPolicyFactory.sol:SalesPolicyFactory",
        "label": "getProtocolId",
        "offset": 0,
        "slot": "7",
        "type": "t_mapping(t_address,t_uint16)"
      },
      {
        "astId": 14111,
        "contract": "contracts/factories/SalesPolicyFactory.sol:SalesPolicyFactory",
        "label": "protocolIds",
        "offset": 0,
        "slot": "8",
        "type": "t_struct(Counter)2094_storage"
      },
      {
        "astId": 14113,
        "contract": "contracts/factories/SalesPolicyFactory.sol:SalesPolicyFactory",
        "label": "USDC_TOKEN",
        "offset": 0,
        "slot": "9",
        "type": "t_address"
      }
    ],
    "types": {
      "t_address": {
        "encoding": "inplace",
        "label": "address",
        "numberOfBytes": "20"
      },
      "t_bool": {
        "encoding": "inplace",
        "label": "bool",
        "numberOfBytes": "1"
      },
      "t_mapping(t_address,t_uint16)": {
        "encoding": "mapping",
        "key": "t_address",
        "label": "mapping(address => uint16)",
        "numberOfBytes": "32",
        "value": "t_uint16"
      },
      "t_mapping(t_uint16,t_struct(Protocol)14085_storage)": {
        "encoding": "mapping",
        "key": "t_uint16",
        "label": "mapping(uint16 => struct SalesPolicyFactory.Protocol)",
        "numberOfBytes": "32",
        "value": "t_struct(Protocol)14085_storage"
      },
      "t_struct(Counter)2094_storage": {
        "encoding": "inplace",
        "label": "struct Counters.Counter",
        "members": [
          {
            "astId": 2093,
            "contract": "contracts/factories/SalesPolicyFactory.sol:SalesPolicyFactory",
            "label": "_value",
            "offset": 0,
            "slot": "0",
            "type": "t_uint256"
          }
        ],
        "numberOfBytes": "32"
      },
      "t_struct(Protocol)14085_storage": {
        "encoding": "inplace",
        "label": "struct SalesPolicyFactory.Protocol",
        "members": [
          {
            "astId": 14082,
            "contract": "contracts/factories/SalesPolicyFactory.sol:SalesPolicyFactory",
            "label": "protocolAddress",
            "offset": 0,
            "slot": "0",
            "type": "t_address"
          },
          {
            "astId": 14084,
            "contract": "contracts/factories/SalesPolicyFactory.sol:SalesPolicyFactory",
            "label": "isBlackList",
            "offset": 20,
            "slot": "0",
            "type": "t_bool"
          }
        ],
        "numberOfBytes": "32"
      },
      "t_uint16": {
        "encoding": "inplace",
        "label": "uint16",
        "numberOfBytes": "2"
      },
      "t_uint256": {
        "encoding": "inplace",
        "label": "uint256",
        "numberOfBytes": "32"
      }
    }
  }
}