{
  "address": "0x5A15cccA32c176471DD5394FE1F53907213a04cf",
  "abi": [
    {
      "inputs": [
        {
          "internalType": "address",
          "name": "_claimAssessor",
          "type": "address"
        },
        {
          "internalType": "address",
          "name": "_exchangeAgent",
          "type": "address"
        },
        {
          "internalType": "address",
          "name": "_capitalAgent",
          "type": "address"
        },
        {
          "internalType": "address",
          "name": "_multiSigWallet",
          "type": "address"
        }
      ],
      "stateMutability": "nonpayable",
      "type": "constructor"
    },
    {
      "anonymous": false,
      "inputs": [
        {
          "indexed": true,
          "internalType": "address",
          "name": "_user",
          "type": "address"
        },
        {
          "indexed": true,
          "internalType": "address",
          "name": "_receiver",
          "type": "address"
        },
        {
          "indexed": false,
          "internalType": "uint256",
          "name": "_amount",
          "type": "uint256"
        }
      ],
      "name": "Harvest",
      "type": "event"
    },
    {
      "anonymous": false,
      "inputs": [
        {
          "indexed": true,
          "internalType": "address",
          "name": "_staker",
          "type": "address"
        },
        {
          "indexed": true,
          "internalType": "address",
          "name": "_pool",
          "type": "address"
        },
        {
          "indexed": false,
          "internalType": "uint256",
          "name": "_requestAmount",
          "type": "uint256"
        }
      ],
      "name": "LeftPool",
      "type": "event"
    },
    {
      "anonymous": false,
      "inputs": [
        {
          "indexed": true,
          "internalType": "address",
          "name": "_user",
          "type": "address"
        },
        {
          "indexed": false,
          "internalType": "uint256",
          "name": "_cancelAmount",
          "type": "uint256"
        },
        {
          "indexed": false,
          "internalType": "uint256",
          "name": "_cancelAmountInUno",
          "type": "uint256"
        }
      ],
      "name": "LogCancelWithdrawRequest",
      "type": "event"
    },
    {
      "anonymous": false,
      "inputs": [
        {
          "indexed": true,
          "internalType": "address",
          "name": "_SSIP",
          "type": "address"
        },
        {
          "indexed": true,
          "internalType": "address",
          "name": "_rewarder",
          "type": "address"
        },
        {
          "indexed": false,
          "internalType": "address",
          "name": "_currency",
          "type": "address"
        }
      ],
      "name": "LogCreateRewarder",
      "type": "event"
    },
    {
      "anonymous": false,
      "inputs": [
        {
          "indexed": true,
          "internalType": "address",
          "name": "_SSIP",
          "type": "address"
        },
        {
          "indexed": true,
          "internalType": "address",
          "name": "_syntheticSSIP",
          "type": "address"
        },
        {
          "indexed": true,
          "internalType": "address",
          "name": "_lpToken",
          "type": "address"
        }
      ],
      "name": "LogCreateSyntheticSSIP",
      "type": "event"
    },
    {
      "anonymous": false,
      "inputs": [
        {
          "indexed": true,
          "internalType": "address",
          "name": "_user",
          "type": "address"
        },
        {
          "indexed": true,
          "internalType": "address",
          "name": "_riskPool",
          "type": "address"
        },
        {
          "indexed": false,
          "internalType": "uint256",
          "name": "_withdrawLpAmount",
          "type": "uint256"
        },
        {
          "indexed": false,
          "internalType": "uint256",
          "name": "_withdrawUnoAmount",
          "type": "uint256"
        }
      ],
      "name": "LogLeaveFromPendingSSIP",
      "type": "event"
    },
    {
      "anonymous": false,
      "inputs": [
        {
          "indexed": true,
          "internalType": "address",
          "name": "_from",
          "type": "address"
        },
        {
          "indexed": true,
          "internalType": "address",
          "name": "_to",
          "type": "address"
        },
        {
          "indexed": false,
          "internalType": "uint256",
          "name": "_amount",
          "type": "uint256"
        }
      ],
      "name": "LogLpTransferInSSIP",
      "type": "event"
    },
    {
      "anonymous": false,
      "inputs": [
        {
          "indexed": true,
          "internalType": "address",
          "name": "_user",
          "type": "address"
        },
        {
          "indexed": true,
          "internalType": "address",
          "name": "_migrateTo",
          "type": "address"
        },
        {
          "indexed": false,
          "internalType": "uint256",
          "name": "_migratedAmount",
          "type": "uint256"
        }
      ],
      "name": "LogMigrate",
      "type": "event"
    },
    {
      "anonymous": false,
      "inputs": [
        {
          "indexed": true,
          "internalType": "address",
          "name": "_SSIP",
          "type": "address"
        },
        {
          "indexed": true,
          "internalType": "address",
          "name": "_capitalAgent",
          "type": "address"
        }
      ],
      "name": "LogSetCapitalAgent",
      "type": "event"
    },
    {
      "anonymous": false,
      "inputs": [
        {
          "indexed": true,
          "internalType": "address",
          "name": "_SSIP",
          "type": "address"
        },
        {
          "indexed": true,
          "internalType": "address",
          "name": "_claimAssessor",
          "type": "address"
        }
      ],
      "name": "LogSetClaimAssessor",
      "type": "event"
    },
    {
      "anonymous": false,
      "inputs": [
        {
          "indexed": true,
          "internalType": "address",
          "name": "_exchangeAgent",
          "type": "address"
        }
      ],
      "name": "LogSetExchangeAgent",
      "type": "event"
    },
    {
      "anonymous": false,
      "inputs": [
        {
          "indexed": true,
          "internalType": "address",
          "name": "_SSIP",
          "type": "address"
        },
        {
          "indexed": false,
          "internalType": "uint256",
          "name": "_lockTime",
          "type": "uint256"
        }
      ],
      "name": "LogSetLockTime",
      "type": "event"
    },
    {
      "anonymous": false,
      "inputs": [
        {
          "indexed": true,
          "internalType": "address",
          "name": "_SSIP",
          "type": "address"
        },
        {
          "indexed": true,
          "internalType": "address",
          "name": "_migrateTo",
          "type": "address"
        }
      ],
      "name": "LogSetMigrateTo",
      "type": "event"
    },
    {
      "anonymous": false,
      "inputs": [
        {
          "indexed": true,
          "internalType": "address",
          "name": "_SSIP",
          "type": "address"
        },
        {
          "indexed": false,
          "internalType": "uint256",
          "name": "_minLPCapital",
          "type": "uint256"
        }
      ],
      "name": "LogSetMinLPCapital",
      "type": "event"
    },
    {
      "anonymous": false,
      "inputs": [
        {
          "indexed": true,
          "internalType": "address",
          "name": "_SSIP",
          "type": "address"
        },
        {
          "indexed": false,
          "internalType": "uint256",
          "name": "_rewardPerBlock",
          "type": "uint256"
        }
      ],
      "name": "LogSetRewardMultiplier",
      "type": "event"
    },
    {
      "anonymous": false,
      "inputs": [
        {
          "indexed": true,
          "internalType": "address",
          "name": "_SSIP",
          "type": "address"
        },
        {
          "indexed": false,
          "internalType": "uint256",
          "name": "_startTime",
          "type": "uint256"
        }
      ],
      "name": "LogSetStakingStartTime",
      "type": "event"
    },
    {
      "anonymous": false,
      "inputs": [
        {
          "indexed": false,
          "internalType": "uint128",
          "name": "_lastRewardBlock",
          "type": "uint128"
        },
        {
          "indexed": false,
          "internalType": "uint256",
          "name": "_lpSupply",
          "type": "uint256"
        },
        {
          "indexed": false,
          "internalType": "uint256",
          "name": "_accUnoPerShare",
          "type": "uint256"
        }
      ],
      "name": "LogUpdatePool",
      "type": "event"
    },
    {
      "anonymous": false,
      "inputs": [
        {
          "indexed": true,
          "internalType": "address",
          "name": "previousOwner",
          "type": "address"
        },
        {
          "indexed": true,
          "internalType": "address",
          "name": "newOwner",
          "type": "address"
        }
      ],
      "name": "OwnershipTransferred",
      "type": "event"
    },
    {
      "anonymous": false,
      "inputs": [
        {
          "indexed": true,
          "internalType": "address",
          "name": "_user",
          "type": "address"
        },
        {
          "indexed": false,
          "internalType": "uint256",
          "name": "_claimAmount",
          "type": "uint256"
        }
      ],
      "name": "PolicyClaim",
      "type": "event"
    },
    {
      "anonymous": false,
      "inputs": [
        {
          "indexed": true,
          "internalType": "address",
          "name": "_SSIP",
          "type": "address"
        },
        {
          "indexed": true,
          "internalType": "address",
          "name": "_pool",
          "type": "address"
        }
      ],
      "name": "RiskPoolCreated",
      "type": "event"
    },
    {
      "anonymous": false,
      "inputs": [
        {
          "indexed": true,
          "internalType": "address",
          "name": "_staker",
          "type": "address"
        },
        {
          "indexed": true,
          "internalType": "address",
          "name": "_pool",
          "type": "address"
        },
        {
          "indexed": false,
          "internalType": "uint256",
          "name": "_amount",
          "type": "uint256"
        }
      ],
      "name": "StakedInPool",
      "type": "event"
    },
    {
      "inputs": [],
      "name": "ACC_UNO_PRECISION",
      "outputs": [
        {
          "internalType": "uint256",
          "name": "",
          "type": "uint256"
        }
      ],
      "stateMutability": "view",
      "type": "function"
    },
    {
      "inputs": [],
      "name": "LOCK_TIME",
      "outputs": [
        {
          "internalType": "uint256",
          "name": "",
          "type": "uint256"
        }
      ],
      "stateMutability": "view",
      "type": "function"
    },
    {
      "inputs": [],
      "name": "STAKING_START_TIME",
      "outputs": [
        {
          "internalType": "uint256",
          "name": "",
          "type": "uint256"
        }
      ],
      "stateMutability": "view",
      "type": "function"
    },
    {
      "inputs": [],
      "name": "cancelWithdrawRequest",
      "outputs": [],
      "stateMutability": "nonpayable",
      "type": "function"
    },
    {
      "inputs": [],
      "name": "capitalAgent",
      "outputs": [
        {
          "internalType": "address",
          "name": "",
          "type": "address"
        }
      ],
      "stateMutability": "view",
      "type": "function"
    },
    {
      "inputs": [],
      "name": "claimAssessor",
      "outputs": [
        {
          "internalType": "address",
          "name": "",
          "type": "address"
        }
      ],
      "stateMutability": "view",
      "type": "function"
    },
    {
      "inputs": [
        {
          "internalType": "address",
          "name": "_operator",
          "type": "address"
        },
        {
          "internalType": "address",
          "name": "_factory",
          "type": "address"
        },
        {
          "internalType": "address",
          "name": "_currency",
          "type": "address"
        }
      ],
      "name": "createRewarder",
      "outputs": [],
      "stateMutability": "nonpayable",
      "type": "function"
    },
    {
      "inputs": [
        {
          "internalType": "string",
          "name": "_name",
          "type": "string"
        },
        {
          "internalType": "string",
          "name": "_symbol",
          "type": "string"
        },
        {
          "internalType": "address",
          "name": "_factory",
          "type": "address"
        },
        {
          "internalType": "address",
          "name": "_currency",
          "type": "address"
        },
        {
          "internalType": "uint256",
          "name": "_rewardMultiplier",
          "type": "uint256"
        }
      ],
      "name": "createRiskPool",
      "outputs": [],
      "stateMutability": "nonpayable",
      "type": "function"
    },
    {
      "inputs": [
        {
          "internalType": "address",
          "name": "_owner",
          "type": "address"
        },
        {
          "internalType": "address",
          "name": "_factory",
          "type": "address"
        }
      ],
      "name": "createSyntheticSSIP",
      "outputs": [],
      "stateMutability": "nonpayable",
      "type": "function"
    },
    {
      "inputs": [
        {
          "internalType": "uint256",
          "name": "_amount",
          "type": "uint256"
        }
      ],
      "name": "enterInPool",
      "outputs": [],
      "stateMutability": "nonpayable",
      "type": "function"
    },
    {
      "inputs": [
        {
          "internalType": "address",
          "name": "_to",
          "type": "address"
        }
      ],
      "name": "getStakedAmountPerUser",
      "outputs": [
        {
          "internalType": "uint256",
          "name": "unoAmount",
          "type": "uint256"
        },
        {
          "internalType": "uint256",
          "name": "lpAmount",
          "type": "uint256"
        }
      ],
      "stateMutability": "view",
      "type": "function"
    },
    {
      "inputs": [],
      "name": "getTotalWithdrawPendingAmount",
      "outputs": [
        {
          "internalType": "uint256",
          "name": "",
          "type": "uint256"
        }
      ],
      "stateMutability": "view",
      "type": "function"
    },
    {
      "inputs": [
        {
          "internalType": "address",
          "name": "_user",
          "type": "address"
        }
      ],
      "name": "getWithdrawRequestPerUser",
      "outputs": [
        {
          "internalType": "uint256",
          "name": "pendingAmount",
          "type": "uint256"
        },
        {
          "internalType": "uint256",
          "name": "pendingAmountInUno",
          "type": "uint256"
        },
        {
          "internalType": "uint256",
          "name": "originUnoAmount",
          "type": "uint256"
        },
        {
          "internalType": "uint256",
          "name": "requestTime",
          "type": "uint256"
        }
      ],
      "stateMutability": "view",
      "type": "function"
    },
    {
      "inputs": [
        {
          "internalType": "address",
          "name": "_to",
          "type": "address"
        }
      ],
      "name": "harvest",
      "outputs": [],
      "stateMutability": "nonpayable",
      "type": "function"
    },
    {
      "inputs": [],
      "name": "leaveFromPending",
      "outputs": [],
      "stateMutability": "nonpayable",
      "type": "function"
    },
    {
      "inputs": [
        {
          "internalType": "uint256",
          "name": "_amount",
          "type": "uint256"
        }
      ],
      "name": "leaveFromPoolInPending",
      "outputs": [],
      "stateMutability": "nonpayable",
      "type": "function"
    },
    {
      "inputs": [
        {
          "internalType": "address",
          "name": "_from",
          "type": "address"
        },
        {
          "internalType": "address",
          "name": "_to",
          "type": "address"
        },
        {
          "internalType": "uint256",
          "name": "_amount",
          "type": "uint256"
        }
      ],
      "name": "lpTransfer",
      "outputs": [],
      "stateMutability": "nonpayable",
      "type": "function"
    },
    {
      "inputs": [],
      "name": "migrate",
      "outputs": [],
      "stateMutability": "nonpayable",
      "type": "function"
    },
    {
      "inputs": [],
      "name": "migrateTo",
      "outputs": [
        {
          "internalType": "address",
          "name": "",
          "type": "address"
        }
      ],
      "stateMutability": "view",
      "type": "function"
    },
    {
      "inputs": [],
      "name": "owner",
      "outputs": [
        {
          "internalType": "address",
          "name": "",
          "type": "address"
        }
      ],
      "stateMutability": "view",
      "type": "function"
    },
    {
      "inputs": [
        {
          "internalType": "address",
          "name": "_to",
          "type": "address"
        }
      ],
      "name": "pendingUno",
      "outputs": [
        {
          "internalType": "uint256",
          "name": "pending",
          "type": "uint256"
        }
      ],
      "stateMutability": "view",
      "type": "function"
    },
    {
      "inputs": [
        {
          "internalType": "address",
          "name": "_to",
          "type": "address"
        },
        {
          "internalType": "uint256",
          "name": "_amount",
          "type": "uint256"
        }
      ],
      "name": "policyClaim",
      "outputs": [],
      "stateMutability": "nonpayable",
      "type": "function"
    },
    {
      "inputs": [],
      "name": "poolInfo",
      "outputs": [
        {
          "internalType": "uint128",
          "name": "lastRewardBlock",
          "type": "uint128"
        },
        {
          "internalType": "uint128",
          "name": "accUnoPerShare",
          "type": "uint128"
        },
        {
          "internalType": "uint256",
          "name": "unoMultiplierPerBlock",
          "type": "uint256"
        }
      ],
      "stateMutability": "view",
      "type": "function"
    },
    {
      "inputs": [],
      "name": "renounceOwnership",
      "outputs": [],
      "stateMutability": "nonpayable",
      "type": "function"
    },
    {
      "inputs": [],
      "name": "rewarder",
      "outputs": [
        {
          "internalType": "address",
          "name": "",
          "type": "address"
        }
      ],
      "stateMutability": "view",
      "type": "function"
    },
    {
      "inputs": [],
      "name": "riskPool",
      "outputs": [
        {
          "internalType": "address",
          "name": "",
          "type": "address"
        }
      ],
      "stateMutability": "view",
      "type": "function"
    },
    {
      "inputs": [
        {
          "internalType": "address",
          "name": "_capitalAgent",
          "type": "address"
        }
      ],
      "name": "setCapitalAgent",
      "outputs": [],
      "stateMutability": "nonpayable",
      "type": "function"
    },
    {
      "inputs": [
        {
          "internalType": "address",
          "name": "_claimAssessor",
          "type": "address"
        }
      ],
      "name": "setClaimAssessor",
      "outputs": [],
      "stateMutability": "nonpayable",
      "type": "function"
    },
    {
      "inputs": [
        {
          "internalType": "address",
          "name": "_exchangeAgent",
          "type": "address"
        }
      ],
      "name": "setExchangeAgent",
      "outputs": [],
      "stateMutability": "nonpayable",
      "type": "function"
    },
    {
      "inputs": [
        {
          "internalType": "uint256",
          "name": "_lockTime",
          "type": "uint256"
        }
      ],
      "name": "setLockTime",
      "outputs": [],
      "stateMutability": "nonpayable",
      "type": "function"
    },
    {
      "inputs": [
        {
          "internalType": "address",
          "name": "_migrateTo",
          "type": "address"
        }
      ],
      "name": "setMigrateTo",
      "outputs": [],
      "stateMutability": "nonpayable",
      "type": "function"
    },
    {
      "inputs": [
        {
          "internalType": "uint256",
          "name": "_minLPCapital",
          "type": "uint256"
        }
      ],
      "name": "setMinLPCapital",
      "outputs": [],
      "stateMutability": "nonpayable",
      "type": "function"
    },
    {
      "inputs": [
        {
          "internalType": "uint256",
          "name": "_rewardMultiplier",
          "type": "uint256"
        }
      ],
      "name": "setRewardMultiplier",
      "outputs": [],
      "stateMutability": "nonpayable",
      "type": "function"
    },
    {
      "inputs": [
        {
          "internalType": "uint256",
          "name": "_startTime",
          "type": "uint256"
        }
      ],
      "name": "setStakingStartTime",
      "outputs": [],
      "stateMutability": "nonpayable",
      "type": "function"
    },
    {
      "inputs": [],
      "name": "syntheticSSIP",
      "outputs": [
        {
          "internalType": "address",
          "name": "",
          "type": "address"
        }
      ],
      "stateMutability": "view",
      "type": "function"
    },
    {
      "inputs": [
        {
          "internalType": "address",
          "name": "newOwner",
          "type": "address"
        }
      ],
      "name": "transferOwnership",
      "outputs": [],
      "stateMutability": "nonpayable",
      "type": "function"
    },
    {
      "inputs": [],
      "name": "updatePool",
      "outputs": [],
      "stateMutability": "nonpayable",
      "type": "function"
    },
    {
      "inputs": [
        {
          "internalType": "address",
          "name": "",
          "type": "address"
        }
      ],
      "name": "userInfo",
      "outputs": [
        {
          "internalType": "uint256",
          "name": "lastWithdrawTime",
          "type": "uint256"
        },
        {
          "internalType": "uint256",
          "name": "rewardDebt",
          "type": "uint256"
        },
        {
          "internalType": "uint256",
          "name": "amount",
          "type": "uint256"
        }
      ],
      "stateMutability": "view",
      "type": "function"
    }
  ],
  "transactionHash": "0xb63928db0c0873efe5ec988a3ba5c99ca33e039f69555e68d1058293f5e3c21b",
  "args": [
    "0x5569BDF4e02cec3fE459796e3d0e741616029fA4",
    "0xcf98D8AE6EF3eeff4826162571190cD9802dCf2D",
    "0x4024C2A563D06456BA7f9cc61F2b12FC44c3F9f2",
    "0xfadD5ddd92fa216C08C096958Efec97179F6fC58"
  ],
  "solcInputHash": "9c34ee606f87ff608005a3853a8c7b58",
  "bytecode": "0x6080604052620d2f006007553480156200001857600080fd5b5060405162003c6738038062003c678339810160408190526200003b9162000252565b6001600055620000546200004e62000153565b62000157565b6001600160a01b038416620000865760405162461bcd60e51b81526004016200007d90620003e1565b60405180910390fd5b6001600160a01b038316620000af5760405162461bcd60e51b81526004016200007d906200036b565b6001600160a01b038216620000d85760405162461bcd60e51b81526004016200007d90620002ae565b6001600160a01b038116620001015760405162461bcd60e51b81526004016200007d9062000329565b600380546001600160a01b038086166001600160a01b0319928316179092556002805487841690831617905560058054928516929091169190911790556200014981620001a9565b5050505062000422565b3390565b600180546001600160a01b038381166001600160a01b0319831681179093556040519116919082907f8be0079c531659141344cd1fd0a4f28419497f9722a3daafe3b4186f6b6457e090600090a35050565b620001b362000153565b6001600160a01b0316620001c662000226565b6001600160a01b031614620001ef5760405162461bcd60e51b81526004016200007d90620003ac565b6001600160a01b038116620002185760405162461bcd60e51b81526004016200007d90620002e3565b620002238162000157565b50565b6001546001600160a01b031690565b80516001600160a01b03811681146200024d57600080fd5b919050565b6000806000806080858703121562000268578384fd5b620002738562000235565b9350620002836020860162000235565b9250620002936040860162000235565b9150620002a36060860162000235565b905092959194509250565b6020808252818101527f556e6f52653a207a65726f206361706974616c4167656e742061646472657373604082015260600190565b60208082526026908201527f4f776e61626c653a206e6577206f776e657220697320746865207a65726f206160408201526564647265737360d01b606082015260800190565b60208082526022908201527f556e6f52653a207a65726f206d756c746973696777616c6c6574206164647265604082015261737360f01b606082015260800190565b60208082526021908201527f556e6f52653a207a65726f2065786368616e67654167656e74206164647265736040820152607360f81b606082015260800190565b6020808252818101527f4f776e61626c653a2063616c6c6572206973206e6f7420746865206f776e6572604082015260600190565b60208082526021908201527f556e6f52653a207a65726f20636c61696d4173736573736f72206164647265736040820152607360f81b606082015260800190565b61383580620004326000396000f3fe608060405234801561001057600080fd5b50600436106102925760003560e01c80639336f40611610160578063c4e5dacf116100d8578063e08c5de11161008c578063e3161ddd11610071578063e3161ddd146104e1578063e3824a38146104e9578063f2fde38b146104fc57610292565b8063e08c5de1146104c6578063e19e7168146104d957610292565b8063cd87c83c116100bd578063cd87c83c146104ae578063dba6f962146104b6578063dcc3e06e146104be57610292565b8063c4e5dacf1461049e578063c6e89915146104a657610292565b8063ae04d45d1161012f578063ba61945711610114578063ba61945714610462578063bc8f882814610483578063c2eb8eb91461048b57610292565b8063ae04d45d1461043c578063af16d6e01461044f57610292565b80639336f406146103f657806393b6b86c1461041957806398c6e7601461042c578063a3bdd6321461043457610292565b8063421981601161020e5780638395206c116101c25780638ba04b17116101a75780638ba04b17146103d35780638da5cb5b146103e65780638fd3ab80146103ee57610292565b80638395206c146103b857806389919b71146103cb57610292565b80635d90bad9116101f35780635d90bad91461038a578063715018a61461039d578063736ec05c146103a557610292565b8063421981601461035e5780635a2f3d091461037357610292565b806318a00d8e116102655780631b600ca21161024a5780631b600ca2146103235780632e4a014214610336578063413d9c3a1461034957610292565b806318a00d8e146102e55780631959a002146102f857610292565b80630bd075a1146102975780630e5c011e146102ac5780630e9ae420146102bf578063157f71ed146102d2575b600080fd5b6102aa6102a5366004612f00565b61050f565b005b6102aa6102ba366004612d17565b6105b9565b6102aa6102cd366004612dd8565b610614565b6102aa6102e0366004612d17565b61090c565b6102aa6102f3366004612d17565b6109bd565b61030b610306366004612d17565b610a6c565b60405161031a9392919061370a565b60405180910390f35b6102aa610331366004612d56565b610a8d565b6102aa610344366004612e18565b610c49565b610351610e36565b60405161031a91906136f3565b610366610e3c565b60405161031a9190612fe3565b61037b610e4b565b60405161031a939291906136ac565b6102aa610398366004612f00565b610e69565b6102aa610ee8565b6102aa6103b3366004612d17565b610f33565b6102aa6103c6366004612f00565b610fe4565b6103516112ff565b6102aa6103e1366004612e63565b61130b565b61036661155b565b6102aa61156a565b610409610404366004612d17565b61183a565b60405161031a9493929190613720565b6102aa610427366004612f00565b611978565b610366611a72565b610351611a81565b6102aa61044a366004612f00565b611b03565b6102aa61045d366004612d8e565b611b99565b610475610470366004612d17565b611d59565b60405161031a9291906136fc565b6102aa611e14565b6102aa610499366004612d17565b612123565b6103666121d4565b6103666121e3565b6103666121f2565b610351612201565b610366612207565b6103516104d4366004612d17565b612216565b6102aa612380565b6102aa61247b565b6102aa6104f7366004612f00565b612610565b6102aa61050a366004612d17565b612972565b6105176129e3565b6001600160a01b031661052861155b565b6001600160a01b0316146105575760405162461bcd60e51b815260040161054e906134fa565b60405180910390fd5b600081116105775760405162461bcd60e51b815260040161054e90613344565b600d81905560405130907fbd1dd13c6a5b4a28ebd27fdcb8fdd01aba6bbb9f67599306248f465bcdf9817f906105ae9084906136f3565b60405180910390a250565b6008544210156105db5760405162461bcd60e51b815260040161054e906135d2565b600260005414156105fe5760405162461bcd60e51b815260040161054e90613609565b600260005561060c816129e7565b506001600055565b600260005414156106375760405162461bcd60e51b815260040161054e90613609565b6002600055600a546001600160a01b031633146106665760405162461bcd60e51b815260040161054e90613677565b6006546001600160a01b0384811691161480159061069257506006546001600160a01b03838116911614155b15610902576106a0836129e7565b6001600160a01b038084166000908152600b602052604080822060020154600a549151631665744b60e11b815290939190911690632ccae896906106e8908890600401612fe3565b60606040518083038186803b15801561070057600080fd5b505afa158015610714573d6000803e3d6000fd5b505050506040513d601f19601f820116820180604052508101906107389190612f53565b5050905082818361074991906137bd565b10156107675760405162461bcd60e51b815260040161054e906132a1565b600c54600090670de0b6b3a76400009061079190600160801b90046001600160801b03168561379e565b61079b919061377e565b600c54909150670de0b6b3a7640000906107c590600160801b90046001600160801b03168661379e565b6107cf919061377e565b6107d990826137bd565b6001600160a01b0387166000908152600b60205260409020600101556107ff84846137bd565b6001600160a01b0387166000908152600b6020526040902060020155600c54670de0b6b3a76400009061084290600160801b90046001600160801b03168661379e565b61084c919061377e565b6001600160a01b0386166000908152600b60205260409020600101546108729190613766565b6001600160a01b0386166000908152600b602052604090206001810191909155600201546108a1908590613766565b6001600160a01b038087166000818152600b602052604090819020600201939093559151908816907fabc254a3e8b16a8605ce22e693a6e493e375434011c1a7ff082d09e2a84ad121906108f69088906136f3565b60405180910390a35050505b5050600160005550565b6109146129e3565b6001600160a01b031661092561155b565b6001600160a01b03161461094b5760405162461bcd60e51b815260040161054e906134fa565b6001600160a01b0381166109715760405162461bcd60e51b815260040161054e9061319f565b600280546001600160a01b0319166001600160a01b03831690811790915560405130907f073f9d6137d7fa6d64859eb388090b7e90a768c36e707e4404e1fa6485b5c91e90600090a350565b6109c56129e3565b6001600160a01b03166109d661155b565b6001600160a01b0316146109fc5760405162461bcd60e51b815260040161054e906134fa565b6001600160a01b038116610a225760405162461bcd60e51b815260040161054e9061319f565b600380546001600160a01b0319166001600160a01b0383169081179091556040517fbdca3ec80f8567aeaf30c6168374c798baf11902e9b21c2b8ba3186ffd13012290600090a250565b600b6020526000908152604090208054600182015460029092015490919083565b610a956129e3565b6001600160a01b0316610aa661155b565b6001600160a01b031614610acc5760405162461bcd60e51b815260040161054e906134fa565b60026000541415610aef5760405162461bcd60e51b815260040161054e90613609565b60026000556001600160a01b038216610b1a5760405162461bcd60e51b815260040161054e90613420565b6001600160a01b038116610b405760405162461bcd60e51b815260040161054e906131d6565b600a546001600160a01b0316610b685760405162461bcd60e51b815260040161054e906133e9565b600a54604051631a8a8b3b60e11b81526001600160a01b0380841692633515167692610b9a9287921690600401612ff7565b602060405180830381600087803b158015610bb457600080fd5b505af1158015610bc8573d6000803e3d6000fd5b505050506040513d601f19601f82011682018060405250810190610bec9190612d3a565b600680546001600160a01b0319166001600160a01b039283161790819055600a5460405190831692919091169030907e1129b9865226cebad4acf884618ae0607fff06758062b050509602db7065f090600090a450506001600055565b6002546001600160a01b03163314610c735760405162461bcd60e51b815260040161054e90613566565b600854421015610c955760405162461bcd60e51b815260040161054e906135d2565b60026000541415610cb85760405162461bcd60e51b815260040161054e90613609565b60026000556001600160a01b038216610ce35760405162461bcd60e51b815260040161054e9061319f565b60008111610d035760405162461bcd60e51b815260040161054e906133b2565b600a5460405163172500a160e11b81526000916001600160a01b031690632e4a014290610d36908690869060040161307c565b602060405180830381600087803b158015610d5057600080fd5b505af1158015610d64573d6000803e3d6000fd5b505050506040513d601f19601f82011682018060405250810190610d889190612f18565b60055460405163167afee560e31b81529192506001600160a01b03169063b3d7f72890610db99084906004016136f3565b600060405180830381600087803b158015610dd357600080fd5b505af1158015610de7573d6000803e3d6000fd5b50505050826001600160a01b03167f6420c9536b9a539410a930b1fd8d115dc296d8b71426dcc0ab64f2f736b7d59f82604051610e2491906136f3565b60405180910390a25050600160005550565b60075481565b6005546001600160a01b031681565b600c54600d546001600160801b0380831692600160801b9004169083565b610e716129e3565b6001600160a01b0316610e8261155b565b6001600160a01b031614610ea85760405162461bcd60e51b815260040161054e906134fa565b610eb24282613766565b600881905560405130917fa8aa08cc14eef7b97ab4cd52f37082e23f7526bccc98cf91e6a1d412494b9051916105ae91906136f3565b610ef06129e3565b6001600160a01b0316610f0161155b565b6001600160a01b031614610f275760405162461bcd60e51b815260040161054e906134fa565b610f316000612b79565b565b610f3b6129e3565b6001600160a01b0316610f4c61155b565b6001600160a01b031614610f725760405162461bcd60e51b815260040161054e906134fa565b6001600160a01b038116610f985760405162461bcd60e51b815260040161054e9061319f565b600480546001600160a01b0319166001600160a01b03831690811790915560405130907f877238238dbd7134e89b00809ea73fabb50da117ace807a6b31c733bbf55d36990600090a350565b6008544210156110065760405162461bcd60e51b815260040161054e906135d2565b600260005414156110295760405162461bcd60e51b815260040161054e90613609565b6002600055611037336129e7565b600554604051630be304cf60e41b81526001600160a01b039091169063be304cf0906110679084906004016136f3565b60206040518083038186803b15801561107f57600080fd5b505afa158015611093573d6000803e3d6000fd5b505050506040513d601f19601f820116820180604052508101906110b79190612e43565b6110d35760405162461bcd60e51b815260040161054e90613457565b336000908152600b6020908152604080832060020154600a548251627a9fd960e91b815292519194936001600160a01b039091169263f53fb2009260048083019392829003018186803b15801561112957600080fd5b505afa15801561113d573d6000803e3d6000fd5b505050506040513d601f19601f820116820180604052508101906111619190612f18565b600a54604051631665744b60e11b81529192506000916001600160a01b0390911690632ccae89690611197903390600401612fe3565b60606040518083038186803b1580156111af57600080fd5b505afa1580156111c3573d6000803e3d6000fd5b505050506040513d601f19601f820116820180604052508101906111e79190612f53565b5050905083670de0b6b3a764000083838661120291906137bd565b61120c919061379e565b611216919061377e565b10156112345760405162461bcd60e51b815260040161054e9061320d565b600a546040516323de6d9560e11b81526001600160a01b03909116906347bcdb2a90611266903390889060040161307c565b600060405180830381600087803b15801561128057600080fd5b505af1158015611294573d6000803e3d6000fd5b5050336000818152600b602052604090819020429055600a5490516001600160a01b0390911693509091507f940a14c75c418e7230a2e65567722d2dda5a6713cf71b369bd0fa219fdc1ac5e906112ec9088906136f3565b60405180910390a3505060016000555050565b670de0b6b3a764000081565b6113136129e3565b6001600160a01b031661132461155b565b6001600160a01b03161461134a5760405162461bcd60e51b815260040161054e906134fa565b6002600054141561136d5760405162461bcd60e51b815260040161054e90613609565b6002600055600a546001600160a01b03161561139b5760405162461bcd60e51b815260040161054e906132d8565b6001600160a01b0383166113c15760405162461bcd60e51b815260040161054e906134c3565b6001600160a01b0382166113e75760405162461bcd60e51b815260040161054e9061310b565b604051630d98e31f60e01b81526001600160a01b03841690630d98e31f9061141d908a908a908a908a9030908a906004016130bd565b602060405180830381600087803b15801561143757600080fd5b505af115801561144b573d6000803e3d6000fd5b505050506040513d601f19601f8201168201806040525081019061146f9190612d3a565b600a80546001600160a01b0319166001600160a01b03928316179055600c80546fffffffffffffffffffffffffffffffff1916436001600160801b0390811691909117169055600d82905560055460405163d914cd4b60e01b815291169063d914cd4b906114e1903090600401612fe3565b600060405180830381600087803b1580156114fb57600080fd5b505af115801561150f573d6000803e3d6000fd5b5050600a546040516001600160a01b0390911692503091507f184d7691bf4a73930a21086fa1bdf0ee3075421531a60730288325fd5838021790600090a3505060016000555050505050565b6001546001600160a01b031690565b6002600054141561158d5760405162461bcd60e51b815260040161054e90613609565b60026000556004546001600160a01b03166115ba5760405162461bcd60e51b815260040161054e9061319f565b6115c3336129e7565b600a5460408051627a9fd960e91b815290516000926001600160a01b03169163f53fb200916004808301926020929190829003018186803b15801561160757600080fd5b505afa15801561161b573d6000803e3d6000fd5b505050506040513d601f19601f8201168201806040525081019061163f9190612f18565b336000908152600b60205260408120600281015460075491549394509261166690426137bd565b600a5460048054604051633613302f60e01b81529490931194506000936001600160a01b0392831693633613302f936116a89333939290911691889101613034565b602060405180830381600087803b1580156116c257600080fd5b505af11580156116d6573d6000803e3d6000fd5b505050506040513d601f19601f820116820180604052508101906116fa9190612f18565b6005549091506001600160a01b031663b3d7f728670de0b6b3a7640000611721878761379e565b61172b919061377e565b6040518263ffffffff1660e01b815260040161174791906136f3565b600060405180830381600087803b15801561176157600080fd5b505af1158015611775573d6000803e3d6000fd5b50506004805460405163ed59344b60e01b81526001600160a01b03909116935063ed59344b92506117aa913391889101613095565b600060405180830381600087803b1580156117c457600080fd5b505af11580156117d8573d6000803e3d6000fd5b5050336000818152600b6020526040808220600281018390556001019190915560045490516001600160a01b0390911693509091507ff0fee1f70845d356d6a3e0baa0944ce846437b6469ea89416dad2cd7067919a4906112ec9085906136f3565b6000806000806000600a60009054906101000a90046001600160a01b03166001600160a01b031663f53fb2006040518163ffffffff1660e01b815260040160206040518083038186803b15801561189057600080fd5b505afa1580156118a4573d6000803e3d6000fd5b505050506040513d601f19601f820116820180604052508101906118c89190612f18565b600a54604051631665744b60e11b81529192506001600160a01b031690632ccae896906118f9908990600401612fe3565b60606040518083038186803b15801561191157600080fd5b505afa158015611925573d6000803e3d6000fd5b505050506040513d601f19601f820116820180604052508101906119499190612f53565b9196509093509150670de0b6b3a7640000611964828761379e565b61196e919061377e565b9350509193509193565b6119806129e3565b6001600160a01b031661199161155b565b6001600160a01b0316146119b75760405162461bcd60e51b815260040161054e906134fa565b600081116119d75760405162461bcd60e51b815260040161054e90613640565b600a546040516324edae1b60e21b81526001600160a01b03909116906393b6b86c90611a079084906004016136f3565b600060405180830381600087803b158015611a2157600080fd5b505af1158015611a35573d6000803e3d6000fd5b50505050306001600160a01b03167f353ac2778fe09bc60cf3070bb11d548faf4037e4217a06977c16463087474aab826040516105ae91906136f3565b6004546001600160a01b031681565b600a546040805163e95aa8d360e01b815290516000926001600160a01b03169163e95aa8d3916004808301926020929190829003018186803b158015611ac657600080fd5b505afa158015611ada573d6000803e3d6000fd5b505050506040513d601f19601f82011682018060405250810190611afe9190612f18565b905090565b611b0b6129e3565b6001600160a01b0316611b1c61155b565b6001600160a01b031614611b425760405162461bcd60e51b815260040161054e906134fa565b60008111611b625760405162461bcd60e51b815260040161054e9061348c565b600781905560405130907f2c2c43c64e937ae35257af782c222986dc5adb4f56dc0881594e79bf83658d8c906105ae9084906136f3565b611ba16129e3565b6001600160a01b0316611bb261155b565b6001600160a01b031614611bd85760405162461bcd60e51b815260040161054e906134fa565b60026000541415611bfb5760405162461bcd60e51b815260040161054e90613609565b60026000556001600160a01b038216611c265760405162461bcd60e51b815260040161054e9061359d565b6001600160a01b038316611c4c5760405162461bcd60e51b815260040161054e9061337b565b6001600160a01b038116611c725760405162461bcd60e51b815260040161054e9061310b565b6040516369ee745160e01b81526001600160a01b038316906369ee745190611ca290869085903090600401613011565b602060405180830381600087803b158015611cbc57600080fd5b505af1158015611cd0573d6000803e3d6000fd5b505050506040513d601f19601f82011682018060405250810190611cf49190612d3a565b600980546001600160a01b0319166001600160a01b03928316179081905560405191169030907f6c409a36847a0a3870deae25f656f4300d45957d2643fc27faab145e19cfcf1b90611d47908590612fe3565b60405180910390a35050600160005550565b6001600160a01b038082166000908152600b6020908152604080832060020154600a548251627a9fd960e91b81529251949591948694919092169263f53fb2009260048083019392829003018186803b158015611db557600080fd5b505afa158015611dc9573d6000803e3d6000fd5b505050506040513d601f19601f82011682018060405250810190611ded9190612f18565b9050670de0b6b3a7640000611e02828461379e565b611e0c919061377e565b925050915091565b600854421015611e365760405162461bcd60e51b815260040161054e906135d2565b60026000541415611e595760405162461bcd60e51b815260040161054e90613609565b60026000908155600754338252600b602052604090912054611e7b90426137bd565b1015611e995760405162461bcd60e51b815260040161054e9061330d565b611ea2336129e7565b336000818152600b602052604080822060020154600a549151631665744b60e11b8152909383926001600160a01b031691632ccae89691611ee591600401612fe3565b60606040518083038186803b158015611efd57600080fd5b505afa158015611f11573d6000803e3d6000fd5b505050506040513d601f19601f82011682018060405250810190611f359190612f53565b600554604051632da26abb60e11b81529395509093506001600160a01b031691635b44d5769150611f6a9084906004016136f3565b600060405180830381600087803b158015611f8457600080fd5b505af1158015611f98573d6000803e3d6000fd5b5050600c5460009250670de0b6b3a76400009150611fc690600160801b90046001600160801b03168661379e565b611fd0919061377e565b600c54909150670de0b6b3a764000090611ffa90600160801b90046001600160801b03168561379e565b612004919061377e565b61200e90826137bd565b336000818152600b602052604080822060010193909355600a54925163b20ecd1560e01b8152909283926001600160a01b039091169163b20ecd159161205691600401612fe3565b6040805180830381600087803b15801561206f57600080fd5b505af1158015612083573d6000803e3d6000fd5b505050506040513d601f19601f820116820180604052508101906120a79190612f30565b90925090506120b682876137bd565b336000818152600b60205260409081902060020192909255600a5491516001600160a01b03909216917fced2424eb51507abd1611ac0d9893e5bc6b6d0a0596b53f86d24d31fc75a5d609061210e90869086906136fc565b60405180910390a35050600160005550505050565b61212b6129e3565b6001600160a01b031661213c61155b565b6001600160a01b0316146121625760405162461bcd60e51b815260040161054e906134fa565b6001600160a01b0381166121885760405162461bcd60e51b815260040161054e9061319f565b600580546001600160a01b0319166001600160a01b03831690811790915560405130907fdf8e7a62b39a2ec070924d5c5dce9a1957d75476af59af5a7e7ce2ee48bc777490600090a350565b600a546001600160a01b031681565b6002546001600160a01b031681565b6006546001600160a01b031681565b60085481565b6009546001600160a01b031681565b600080600a60009054906101000a90046001600160a01b03166001600160a01b03166318160ddd6040518163ffffffff1660e01b815260040160206040518083038186803b15801561226757600080fd5b505afa15801561227b573d6000803e3d6000fd5b505050506040513d601f19601f8201168201806040525081019061229f9190612f18565b600c549091506001600160801b03600160801b820481169116431180156122c557508115155b1561232457600c546000906122e3906001600160801b0316436137bd565b600d549091506000906122f6908361379e565b90508361230b670de0b6b3a76400008361379e565b612315919061377e565b61231f908461373b565b925050505b6001600160a01b0384166000908152600b602052604090206002810154600190910154670de0b6b3a76400006123636001600160801b0385168461379e565b61236d919061377e565b61237791906137bd565b95945050505050565b600260005414156123a35760405162461bcd60e51b815260040161054e90613609565b60026000908155600a546040516306e6829960e51b815282916001600160a01b03169063dcd05320906123da903390600401612fe3565b6040805180830381600087803b1580156123f357600080fd5b505af1158015612407573d6000803e3d6000fd5b505050506040513d601f19601f8201168201806040525081019061242b9190612f30565b91509150336001600160a01b03167f09c6481cb228ea7f61ceb67c8e708038eb74bbb68cfcc54a9cfca199087ecfb7838360405161246a9291906136fc565b60405180910390a250506001600055565b600c546001600160801b0316431115610f3157600a54604080516318160ddd60e01b815290516000926001600160a01b0316916318160ddd916004808301926020929190829003018186803b1580156124d357600080fd5b505afa1580156124e7573d6000803e3d6000fd5b505050506040513d601f19601f8201168201806040525081019061250b9190612f18565b9050801561259b57600c5460009061252c906001600160801b0316436137bd565b600d5490915060009061253f908361379e565b905082612554670de0b6b3a76400008361379e565b61255e919061377e565b600c5461257b9190600160801b90046001600160801b031661373b565b600c80546001600160801b03928316600160801b02921691909117905550505b600c80546fffffffffffffffffffffffffffffffff1916436001600160801b0390811691909117918290556040517f982b813c7d00a9ffce9441ba40f429b2e4a35068d75532f496d0c63585c2fa689261260592818116928692600160801b9004909116906136d0565b60405180910390a150565b6008544210156126325760405162461bcd60e51b815260040161054e906135d2565b600260005414156126555760405162461bcd60e51b815260040161054e90613609565b6002600055806126775760405162461bcd60e51b815260040161054e9061352f565b61267f61247b565b600a546040805163e5a6b10f60e01b815290516000926001600160a01b03169163e5a6b10f916004808301926020929190829003018186803b1580156126c457600080fd5b505afa1580156126d8573d6000803e3d6000fd5b505050506040513d601f19601f820116820180604052508101906126fc9190612d3a565b90506000600a60009054906101000a90046001600160a01b03166001600160a01b031663f53fb2006040518163ffffffff1660e01b815260040160206040518083038186803b15801561274e57600080fd5b505afa158015612762573d6000803e3d6000fd5b505050506040513d601f19601f820116820180604052508101906127869190612f18565b600a549091506127a390839033906001600160a01b031686612bcb565b600a54604051637e348b7d60e01b81526001600160a01b0390911690637e348b7d906127d5903390879060040161307c565b600060405180830381600087803b1580156127ef57600080fd5b505af1158015612803573d6000803e3d6000fd5b5050600c54670de0b6b3a76400009250839150600160801b90046001600160801b0316612830868461379e565b61283a919061379e565b612844919061377e565b61284e919061377e565b336000908152600b602052604090206001015461286b9190613766565b336000908152600b60205260409020600101558061289184670de0b6b3a764000061379e565b61289b919061377e565b336000908152600b60205260409020600201546128b89190613766565b336000908152600b602052604090819020600201919091556005549051638be5a39f60e01b81526001600160a01b0390911690638be5a39f906128ff9086906004016136f3565b600060405180830381600087803b15801561291957600080fd5b505af115801561292d573d6000803e3d6000fd5b5050600a546040516001600160a01b0390911692503391507fd3dba7b5565b16b7749db7d1938410a636e3c7a6ea46ed8ce7e259e19f2f3b9f90611d479087906136f3565b61297a6129e3565b6001600160a01b031661298b61155b565b6001600160a01b0316146129b15760405162461bcd60e51b815260040161054e906134fa565b6001600160a01b0381166129d75760405162461bcd60e51b815260040161054e90613142565b6129e081612b79565b50565b3390565b6129ef61247b565b6001600160a01b0381166000908152600b6020526040812060020154600c54909190670de0b6b3a764000090612a3590600160801b90046001600160801b03168461379e565b612a3f919061377e565b6001600160a01b0384166000908152600b602052604081206001015491925090612a6990836137bd565b336000908152600b60205260408120600101849055600954919250906001600160a01b031615801590612a9b57508115155b15612b275760095460405163186e465160e31b81526001600160a01b039091169063c372328890612ad2908890869060040161307c565b602060405180830381600087803b158015612aec57600080fd5b505af1158015612b00573d6000803e3d6000fd5b505050506040513d601f19601f82011682018060405250810190612b249190612f18565b90505b846001600160a01b0316336001600160a01b03167fa0306f61d3fafe13787b78e276cb6b644382854a66cb46daae14227d3ec2679783604051612b6a91906136f3565b60405180910390a35050505050565b600180546001600160a01b038381166001600160a01b0319831681179093556040519116919082907f8be0079c531659141344cd1fd0a4f28419497f9722a3daafe3b4186f6b6457e090600090a35050565b600080856001600160a01b03166323b872dd868686604051602401612bf293929190613058565b6040516020818303038152906040529060e01b6020820180517bffffffffffffffffffffffffffffffffffffffffffffffffffffffff8381831617835250505050604051612c409190612faa565b6000604051808303816000865af19150503d8060008114612c7d576040519150601f19603f3d011682016040523d82523d6000602084013e612c82565b606091505b5091509150818015612cac575080511580612cac575080806020019051810190612cac9190612e43565b612cc85760405162461bcd60e51b815260040161054e90613244565b505050505050565b60008083601f840112612ce1578182fd5b50813567ffffffffffffffff811115612cf8578182fd5b602083019150836020828501011115612d1057600080fd5b9250929050565b600060208284031215612d28578081fd5b8135612d33816137ea565b9392505050565b600060208284031215612d4b578081fd5b8151612d33816137ea565b60008060408385031215612d68578081fd5b8235612d73816137ea565b91506020830135612d83816137ea565b809150509250929050565b600080600060608486031215612da2578081fd5b8335612dad816137ea565b92506020840135612dbd816137ea565b91506040840135612dcd816137ea565b809150509250925092565b600080600060608486031215612dec578283fd5b8335612df7816137ea565b92506020840135612e07816137ea565b929592945050506040919091013590565b60008060408385031215612e2a578182fd5b8235612e35816137ea565b946020939093013593505050565b600060208284031215612e54578081fd5b81518015158114612d33578182fd5b600080600080600080600060a0888a031215612e7d578283fd5b873567ffffffffffffffff80821115612e94578485fd5b612ea08b838c01612cd0565b909950975060208a0135915080821115612eb8578485fd5b50612ec58a828b01612cd0565b9096509450506040880135612ed9816137ea565b92506060880135612ee9816137ea565b809250506080880135905092959891949750929550565b600060208284031215612f11578081fd5b5035919050565b600060208284031215612f29578081fd5b5051919050565b60008060408385031215612f42578182fd5b505080516020909101519092909150565b600080600060608486031215612f67578283fd5b8351925060208401519150604084015190509250925092565b60008284528282602086013780602084860101526020601f19601f85011685010190509392505050565b60008251815b81811015612fca5760208186018101518583015201612fb0565b81811115612fd85782828501525b509190910192915050565b6001600160a01b0391909116815260200190565b6001600160a01b0392831681529116602082015260400190565b6001600160a01b0393841681529183166020830152909116604082015260600190565b6001600160a01b039384168152919092166020820152901515604082015260600190565b6001600160a01b039384168152919092166020820152604081019190915260600190565b6001600160a01b03929092168252602082015260400190565b6001600160a01b03929092168252602082015260606040820181905260009082015260800190565b6000608082526130d160808301888a612f80565b82810360208401526130e4818789612f80565b9150506001600160a01b038085166040840152808416606084015250979650505050505050565b6020808252601c908201527f556e6f52653a207a65726f2063757272656e6379206164647265737300000000604082015260600190565b60208082526026908201527f4f776e61626c653a206e6577206f776e657220697320746865207a65726f206160408201527f6464726573730000000000000000000000000000000000000000000000000000606082015260800190565b60208082526013908201527f556e6f52653a207a65726f206164647265737300000000000000000000000000604082015260600190565b6020808252601a908201527f556e6f52653a7a65726f20666163746f72792061646472657373000000000000604082015260600190565b6020808252601f908201527f556e6f52653a20776974686472617720616d6f756e74206f766572666c6f7700604082015260600190565b60208082526031908201527f5472616e7366657248656c7065723a3a7472616e7366657246726f6d3a20747260408201527f616e7366657246726f6d206661696c6564000000000000000000000000000000606082015260800190565b60208082526017908201527f556e6f52653a2062616c616e6365206f766572666c6f77000000000000000000604082015260600190565b6020808252818101527f556e6f52653a207269736b20706f6f6c206372656174656420616c7265616479604082015260600190565b60208082526012908201527f556e6f52653a204c6f636b65642074696d650000000000000000000000000000604082015260600190565b60208082526011908201527f556e6f52653a207a65726f2076616c7565000000000000000000000000000000604082015260600190565b6020808252601c908201527f556e6f52653a207a65726f206f70657261746f72206164647265737300000000604082015260600190565b60208082526012908201527f556e6f52653a207a65726f20616d6f756e740000000000000000000000000000604082015260600190565b6020808252601b908201527f556e6f52653a7a65726f204c5020746f6b656e20616464726573730000000000604082015260600190565b60208082526019908201527f556e6f52653a207a65726f206f776e6572206164647265737300000000000000604082015260600190565b6020808252818101527f556e6f52653a206d696e696d756d206361706974616c20756e646572666c6f77604082015260600190565b6020808252601f908201527f556e6f52653a206e6f7420616c6c6f77207a65726f206c6f636b2074696d6500604082015260600190565b6020808252601b908201527f556e6f52653a207a65726f20666163746f727920616464726573730000000000604082015260600190565b6020808252818101527f4f776e61626c653a2063616c6c6572206973206e6f7420746865206f776e6572604082015260600190565b60208082526011908201527f556e6f52653a205a45524f2056616c7565000000000000000000000000000000604082015260600190565b60208082526010908201527f556e6f52653a20466f7262696464656e00000000000000000000000000000000604082015260600190565b6020808252818101527f556e6f52653a20726577617264657220666163746f7279206e6f206578697374604082015260600190565b60208082526019908201527f556e6f52653a206e6f7420617661696c61626c652074696d6500000000000000604082015260600190565b6020808252601f908201527f5265656e7472616e637947756172643a207265656e7472616e742063616c6c00604082015260600190565b6020808252601b908201527f556e6f52653a206e6f7420616c6c6f77207a65726f2076616c75650000000000604082015260600190565b6020808252818101527f556e6f52653a206e6f7420616c6c6f77206f7468657273207472616e73666572604082015260600190565b6001600160801b039384168152919092166020820152604081019190915260600190565b6001600160801b0393841681526020810192909252909116604082015260600190565b90815260200190565b918252602082015260400190565b9283526020830191909152604082015260600190565b93845260208401929092526040830152606082015260800190565b60006001600160801b0380831681851680830382111561375d5761375d6137d4565b01949350505050565b60008219821115613779576137796137d4565b500190565b60008261379957634e487b7160e01b81526012600452602481fd5b500490565b60008160001904831182151516156137b8576137b86137d4565b500290565b6000828210156137cf576137cf6137d4565b500390565b634e487b7160e01b600052601160045260246000fd5b6001600160a01b03811681146129e057600080fdfea26469706673582212208218d71367d74ed739bddf6988d874a3a3ad0c5fbc5dbd21eec7094b80e5503864736f6c63430008000033",
  "devdoc": {
    "kind": "dev",
    "methods": {
      "createRiskPool(string,string,address,address,uint256)": {
        "details": "create Risk pool with UNO from SSIP owner"
      },
      "getTotalWithdrawPendingAmount()": {
        "details": "get total withdraw request amount in pending for the risk pool in UNO"
      },
      "getWithdrawRequestPerUser(address)": {
        "details": "get withdraw request amount in pending per user in UNO"
      },
      "leaveFromPending()": {
        "details": "user can submit claim again and receive his funds into his wallet after 10 days since last WR."
      },
      "leaveFromPoolInPending(uint256)": {
        "details": "WR will be in pending for 10 days at least"
      },
      "owner()": {
        "details": "Returns the address of the current owner."
      },
      "renounceOwnership()": {
        "details": "Leaves the contract without owner. It will not be possible to call `onlyOwner` functions anymore. Can only be called by the current owner. NOTE: Renouncing ownership will leave the contract without an owner, thereby removing any functionality that is only available to the owner."
      },
      "transferOwnership(address)": {
        "details": "Transfers ownership of the contract to a new account (`newOwner`). Can only be called by the current owner."
      }
    },
    "version": 1
  },
  "userdoc": {
    "kind": "user",
    "methods": {},
    "version": 1
  },
  "storageLayout": {
    "storage": [
      {
        "astId": 114,
        "contract": "contracts/SingleSidedInsurancePool.sol:SingleSidedInsurancePool",
        "label": "_status",
        "offset": 0,
        "slot": "0",
        "type": "t_uint256"
      },
      {
        "astId": 7,
        "contract": "contracts/SingleSidedInsurancePool.sol:SingleSidedInsurancePool",
        "label": "_owner",
        "offset": 0,
        "slot": "1",
        "type": "t_address"
      },
      {
        "astId": 9120,
        "contract": "contracts/SingleSidedInsurancePool.sol:SingleSidedInsurancePool",
        "label": "claimAssessor",
        "offset": 0,
        "slot": "2",
        "type": "t_address"
      },
      {
        "astId": 9122,
        "contract": "contracts/SingleSidedInsurancePool.sol:SingleSidedInsurancePool",
        "label": "exchangeAgent",
        "offset": 0,
        "slot": "3",
        "type": "t_address"
      },
      {
        "astId": 9124,
        "contract": "contracts/SingleSidedInsurancePool.sol:SingleSidedInsurancePool",
        "label": "migrateTo",
        "offset": 0,
        "slot": "4",
        "type": "t_address"
      },
      {
        "astId": 9126,
        "contract": "contracts/SingleSidedInsurancePool.sol:SingleSidedInsurancePool",
        "label": "capitalAgent",
        "offset": 0,
        "slot": "5",
        "type": "t_address"
      },
      {
        "astId": 9128,
        "contract": "contracts/SingleSidedInsurancePool.sol:SingleSidedInsurancePool",
        "label": "syntheticSSIP",
        "offset": 0,
        "slot": "6",
        "type": "t_address"
      },
      {
        "astId": 9131,
        "contract": "contracts/SingleSidedInsurancePool.sol:SingleSidedInsurancePool",
        "label": "LOCK_TIME",
        "offset": 0,
        "slot": "7",
        "type": "t_uint256"
      },
      {
        "astId": 9136,
        "contract": "contracts/SingleSidedInsurancePool.sol:SingleSidedInsurancePool",
        "label": "STAKING_START_TIME",
        "offset": 0,
        "slot": "8",
        "type": "t_uint256"
      },
      {
        "astId": 9138,
        "contract": "contracts/SingleSidedInsurancePool.sol:SingleSidedInsurancePool",
        "label": "rewarder",
        "offset": 0,
        "slot": "9",
        "type": "t_address"
      },
      {
        "astId": 9141,
        "contract": "contracts/SingleSidedInsurancePool.sol:SingleSidedInsurancePool",
        "label": "riskPool",
        "offset": 0,
        "slot": "10",
        "type": "t_address"
      },
      {
        "astId": 9160,
        "contract": "contracts/SingleSidedInsurancePool.sol:SingleSidedInsurancePool",
        "label": "userInfo",
        "offset": 0,
        "slot": "11",
        "type": "t_mapping(t_address,t_struct(UserInfo)9155_storage)"
      },
      {
        "astId": 9163,
        "contract": "contracts/SingleSidedInsurancePool.sol:SingleSidedInsurancePool",
        "label": "poolInfo",
        "offset": 0,
        "slot": "12",
        "type": "t_struct(PoolInfo)9148_storage"
      }
    ],
    "types": {
      "t_address": {
        "encoding": "inplace",
        "label": "address",
        "numberOfBytes": "20"
      },
      "t_mapping(t_address,t_struct(UserInfo)9155_storage)": {
        "encoding": "mapping",
        "key": "t_address",
        "label": "mapping(address => struct SingleSidedInsurancePool.UserInfo)",
        "numberOfBytes": "32",
        "value": "t_struct(UserInfo)9155_storage"
      },
      "t_struct(PoolInfo)9148_storage": {
        "encoding": "inplace",
        "label": "struct SingleSidedInsurancePool.PoolInfo",
        "members": [
          {
            "astId": 9143,
            "contract": "contracts/SingleSidedInsurancePool.sol:SingleSidedInsurancePool",
            "label": "lastRewardBlock",
            "offset": 0,
            "slot": "0",
            "type": "t_uint128"
          },
          {
            "astId": 9145,
            "contract": "contracts/SingleSidedInsurancePool.sol:SingleSidedInsurancePool",
            "label": "accUnoPerShare",
            "offset": 16,
            "slot": "0",
            "type": "t_uint128"
          },
          {
            "astId": 9147,
            "contract": "contracts/SingleSidedInsurancePool.sol:SingleSidedInsurancePool",
            "label": "unoMultiplierPerBlock",
            "offset": 0,
            "slot": "1",
            "type": "t_uint256"
          }
        ],
        "numberOfBytes": "64"
      },
      "t_struct(UserInfo)9155_storage": {
        "encoding": "inplace",
        "label": "struct SingleSidedInsurancePool.UserInfo",
        "members": [
          {
            "astId": 9150,
            "contract": "contracts/SingleSidedInsurancePool.sol:SingleSidedInsurancePool",
            "label": "lastWithdrawTime",
            "offset": 0,
            "slot": "0",
            "type": "t_uint256"
          },
          {
            "astId": 9152,
            "contract": "contracts/SingleSidedInsurancePool.sol:SingleSidedInsurancePool",
            "label": "rewardDebt",
            "offset": 0,
            "slot": "1",
            "type": "t_uint256"
          },
          {
            "astId": 9154,
            "contract": "contracts/SingleSidedInsurancePool.sol:SingleSidedInsurancePool",
            "label": "amount",
            "offset": 0,
            "slot": "2",
            "type": "t_uint256"
          }
        ],
        "numberOfBytes": "96"
      },
      "t_uint128": {
        "encoding": "inplace",
        "label": "uint128",
        "numberOfBytes": "16"
      },
      "t_uint256": {
        "encoding": "inplace",
        "label": "uint256",
        "numberOfBytes": "32"
      }
    }
  }
}