{
  "address": "0xFbD7FB72EC079eC19dAfdC2cA294F8D3b83b3624",
  "abi": [
    {
      "inputs": [
        {
          "internalType": "address",
          "name": "_claimAssessor",
          "type": "address"
        },
        {
          "internalType": "address",
          "name": "_exchangeAgent",
          "type": "address"
        },
        {
          "internalType": "address",
          "name": "_capitalAgent",
          "type": "address"
        },
        {
          "internalType": "address",
          "name": "_multiSigWallet",
          "type": "address"
        }
      ],
      "stateMutability": "nonpayable",
      "type": "constructor"
    },
    {
      "anonymous": false,
      "inputs": [
        {
          "indexed": true,
          "internalType": "address",
          "name": "_user",
          "type": "address"
        },
        {
          "indexed": true,
          "internalType": "address",
          "name": "_receiver",
          "type": "address"
        },
        {
          "indexed": false,
          "internalType": "uint256",
          "name": "_amount",
          "type": "uint256"
        }
      ],
      "name": "Harvest",
      "type": "event"
    },
    {
      "anonymous": false,
      "inputs": [
        {
          "indexed": true,
          "internalType": "address",
          "name": "_staker",
          "type": "address"
        },
        {
          "indexed": true,
          "internalType": "address",
          "name": "_pool",
          "type": "address"
        },
        {
          "indexed": false,
          "internalType": "uint256",
          "name": "_requestAmount",
          "type": "uint256"
        }
      ],
      "name": "LeftPool",
      "type": "event"
    },
    {
      "anonymous": false,
      "inputs": [
        {
          "indexed": true,
          "internalType": "address",
          "name": "_user",
          "type": "address"
        },
        {
          "indexed": false,
          "internalType": "uint256",
          "name": "_cancelAmount",
          "type": "uint256"
        },
        {
          "indexed": false,
          "internalType": "uint256",
          "name": "_cancelAmountInUno",
          "type": "uint256"
        }
      ],
      "name": "LogCancelWithdrawRequest",
      "type": "event"
    },
    {
      "anonymous": false,
      "inputs": [
        {
          "indexed": true,
          "internalType": "address",
          "name": "_SSIP",
          "type": "address"
        },
        {
          "indexed": true,
          "internalType": "address",
          "name": "_rewarder",
          "type": "address"
        },
        {
          "indexed": false,
          "internalType": "address",
          "name": "_currency",
          "type": "address"
        }
      ],
      "name": "LogCreateRewarder",
      "type": "event"
    },
    {
      "anonymous": false,
      "inputs": [
        {
          "indexed": true,
          "internalType": "address",
          "name": "_SSIP",
          "type": "address"
        },
        {
          "indexed": true,
          "internalType": "address",
          "name": "_syntheticSSIP",
          "type": "address"
        },
        {
          "indexed": true,
          "internalType": "address",
          "name": "_lpToken",
          "type": "address"
        }
      ],
      "name": "LogCreateSyntheticSSIP",
      "type": "event"
    },
    {
      "anonymous": false,
      "inputs": [
        {
          "indexed": true,
          "internalType": "address",
          "name": "_user",
          "type": "address"
        },
        {
          "indexed": true,
          "internalType": "address",
          "name": "_riskPool",
          "type": "address"
        },
        {
          "indexed": false,
          "internalType": "uint256",
          "name": "_withdrawLpAmount",
          "type": "uint256"
        },
        {
          "indexed": false,
          "internalType": "uint256",
          "name": "_withdrawUnoAmount",
          "type": "uint256"
        }
      ],
      "name": "LogLeaveFromPendingSSIP",
      "type": "event"
    },
    {
      "anonymous": false,
      "inputs": [
        {
          "indexed": true,
          "internalType": "address",
          "name": "_from",
          "type": "address"
        },
        {
          "indexed": true,
          "internalType": "address",
          "name": "_to",
          "type": "address"
        },
        {
          "indexed": false,
          "internalType": "uint256",
          "name": "_amount",
          "type": "uint256"
        }
      ],
      "name": "LogLpTransferInSSIP",
      "type": "event"
    },
    {
      "anonymous": false,
      "inputs": [
        {
          "indexed": true,
          "internalType": "address",
          "name": "_user",
          "type": "address"
        },
        {
          "indexed": true,
          "internalType": "address",
          "name": "_migrateTo",
          "type": "address"
        },
        {
          "indexed": false,
          "internalType": "uint256",
          "name": "_migratedAmount",
          "type": "uint256"
        }
      ],
      "name": "LogMigrate",
      "type": "event"
    },
    {
      "anonymous": false,
      "inputs": [
        {
          "indexed": true,
          "internalType": "address",
          "name": "_SSIP",
          "type": "address"
        },
        {
          "indexed": true,
          "internalType": "address",
          "name": "_capitalAgent",
          "type": "address"
        }
      ],
      "name": "LogSetCapitalAgent",
      "type": "event"
    },
    {
      "anonymous": false,
      "inputs": [
        {
          "indexed": true,
          "internalType": "address",
          "name": "_SSIP",
          "type": "address"
        },
        {
          "indexed": true,
          "internalType": "address",
          "name": "_claimAssessor",
          "type": "address"
        }
      ],
      "name": "LogSetClaimAssessor",
      "type": "event"
    },
    {
      "anonymous": false,
      "inputs": [
        {
          "indexed": true,
          "internalType": "address",
          "name": "_exchangeAgent",
          "type": "address"
        }
      ],
      "name": "LogSetExchangeAgent",
      "type": "event"
    },
    {
      "anonymous": false,
      "inputs": [
        {
          "indexed": true,
          "internalType": "address",
          "name": "_SSIP",
          "type": "address"
        },
        {
          "indexed": false,
          "internalType": "uint256",
          "name": "_lockTime",
          "type": "uint256"
        }
      ],
      "name": "LogSetLockTime",
      "type": "event"
    },
    {
      "anonymous": false,
      "inputs": [
        {
          "indexed": true,
          "internalType": "address",
          "name": "_SSIP",
          "type": "address"
        },
        {
          "indexed": true,
          "internalType": "address",
          "name": "_migrateTo",
          "type": "address"
        }
      ],
      "name": "LogSetMigrateTo",
      "type": "event"
    },
    {
      "anonymous": false,
      "inputs": [
        {
          "indexed": true,
          "internalType": "address",
          "name": "_SSIP",
          "type": "address"
        },
        {
          "indexed": false,
          "internalType": "uint256",
          "name": "_minLPCapital",
          "type": "uint256"
        }
      ],
      "name": "LogSetMinLPCapital",
      "type": "event"
    },
    {
      "anonymous": false,
      "inputs": [
        {
          "indexed": true,
          "internalType": "address",
          "name": "_SSIP",
          "type": "address"
        },
        {
          "indexed": false,
          "internalType": "uint256",
          "name": "_rewardPerBlock",
          "type": "uint256"
        }
      ],
      "name": "LogSetRewardMultiplier",
      "type": "event"
    },
    {
      "anonymous": false,
      "inputs": [
        {
          "indexed": true,
          "internalType": "address",
          "name": "_SSIP",
          "type": "address"
        },
        {
          "indexed": false,
          "internalType": "uint256",
          "name": "_startTime",
          "type": "uint256"
        }
      ],
      "name": "LogSetStakingStartTime",
      "type": "event"
    },
    {
      "anonymous": false,
      "inputs": [
        {
          "indexed": false,
          "internalType": "uint128",
          "name": "_lastRewardBlock",
          "type": "uint128"
        },
        {
          "indexed": false,
          "internalType": "uint256",
          "name": "_lpSupply",
          "type": "uint256"
        },
        {
          "indexed": false,
          "internalType": "uint256",
          "name": "_accUnoPerShare",
          "type": "uint256"
        }
      ],
      "name": "LogUpdatePool",
      "type": "event"
    },
    {
      "anonymous": false,
      "inputs": [
        {
          "indexed": true,
          "internalType": "address",
          "name": "previousOwner",
          "type": "address"
        },
        {
          "indexed": true,
          "internalType": "address",
          "name": "newOwner",
          "type": "address"
        }
      ],
      "name": "OwnershipTransferred",
      "type": "event"
    },
    {
      "anonymous": false,
      "inputs": [
        {
          "indexed": true,
          "internalType": "address",
          "name": "_user",
          "type": "address"
        },
        {
          "indexed": false,
          "internalType": "uint256",
          "name": "_claimAmount",
          "type": "uint256"
        }
      ],
      "name": "PolicyClaim",
      "type": "event"
    },
    {
      "anonymous": false,
      "inputs": [
        {
          "indexed": true,
          "internalType": "address",
          "name": "_SSIP",
          "type": "address"
        },
        {
          "indexed": true,
          "internalType": "address",
          "name": "_pool",
          "type": "address"
        }
      ],
      "name": "RiskPoolCreated",
      "type": "event"
    },
    {
      "anonymous": false,
      "inputs": [
        {
          "indexed": true,
          "internalType": "address",
          "name": "_staker",
          "type": "address"
        },
        {
          "indexed": true,
          "internalType": "address",
          "name": "_pool",
          "type": "address"
        },
        {
          "indexed": false,
          "internalType": "uint256",
          "name": "_amount",
          "type": "uint256"
        }
      ],
      "name": "StakedInPool",
      "type": "event"
    },
    {
      "inputs": [],
      "name": "ACC_UNO_PRECISION",
      "outputs": [
        {
          "internalType": "uint256",
          "name": "",
          "type": "uint256"
        }
      ],
      "stateMutability": "view",
      "type": "function"
    },
    {
      "inputs": [],
      "name": "LOCK_TIME",
      "outputs": [
        {
          "internalType": "uint256",
          "name": "",
          "type": "uint256"
        }
      ],
      "stateMutability": "view",
      "type": "function"
    },
    {
      "inputs": [],
      "name": "STAKING_START_TIME",
      "outputs": [
        {
          "internalType": "uint256",
          "name": "",
          "type": "uint256"
        }
      ],
      "stateMutability": "view",
      "type": "function"
    },
    {
      "inputs": [],
      "name": "cancelWithdrawRequest",
      "outputs": [],
      "stateMutability": "nonpayable",
      "type": "function"
    },
    {
      "inputs": [],
      "name": "capitalAgent",
      "outputs": [
        {
          "internalType": "address",
          "name": "",
          "type": "address"
        }
      ],
      "stateMutability": "view",
      "type": "function"
    },
    {
      "inputs": [],
      "name": "claimAssessor",
      "outputs": [
        {
          "internalType": "address",
          "name": "",
          "type": "address"
        }
      ],
      "stateMutability": "view",
      "type": "function"
    },
    {
      "inputs": [
        {
          "internalType": "address",
          "name": "_operator",
          "type": "address"
        },
        {
          "internalType": "address",
          "name": "_factory",
          "type": "address"
        },
        {
          "internalType": "address",
          "name": "_currency",
          "type": "address"
        }
      ],
      "name": "createRewarder",
      "outputs": [],
      "stateMutability": "nonpayable",
      "type": "function"
    },
    {
      "inputs": [
        {
          "internalType": "string",
          "name": "_name",
          "type": "string"
        },
        {
          "internalType": "string",
          "name": "_symbol",
          "type": "string"
        },
        {
          "internalType": "address",
          "name": "_factory",
          "type": "address"
        },
        {
          "internalType": "address",
          "name": "_currency",
          "type": "address"
        },
        {
          "internalType": "uint256",
          "name": "_rewardMultiplier",
          "type": "uint256"
        },
        {
          "internalType": "uint256",
          "name": "_SCR",
          "type": "uint256"
        }
      ],
      "name": "createRiskPool",
      "outputs": [],
      "stateMutability": "nonpayable",
      "type": "function"
    },
    {
      "inputs": [
        {
          "internalType": "address",
          "name": "_multiSigWallet",
          "type": "address"
        },
        {
          "internalType": "address",
          "name": "_factory",
          "type": "address"
        }
      ],
      "name": "createSyntheticSSIP",
      "outputs": [],
      "stateMutability": "nonpayable",
      "type": "function"
    },
    {
      "inputs": [
        {
          "internalType": "uint256",
          "name": "_amount",
          "type": "uint256"
        }
      ],
      "name": "enterInPool",
      "outputs": [],
      "stateMutability": "payable",
      "type": "function"
    },
    {
      "inputs": [
        {
          "internalType": "address",
          "name": "_to",
          "type": "address"
        }
      ],
      "name": "getStakedAmountPerUser",
      "outputs": [
        {
          "internalType": "uint256",
          "name": "unoAmount",
          "type": "uint256"
        },
        {
          "internalType": "uint256",
          "name": "lpAmount",
          "type": "uint256"
        }
      ],
      "stateMutability": "view",
      "type": "function"
    },
    {
      "inputs": [],
      "name": "getTotalWithdrawPendingAmount",
      "outputs": [
        {
          "internalType": "uint256",
          "name": "",
          "type": "uint256"
        }
      ],
      "stateMutability": "view",
      "type": "function"
    },
    {
      "inputs": [
        {
          "internalType": "address",
          "name": "_user",
          "type": "address"
        }
      ],
      "name": "getWithdrawRequestPerUser",
      "outputs": [
        {
          "internalType": "uint256",
          "name": "pendingAmount",
          "type": "uint256"
        },
        {
          "internalType": "uint256",
          "name": "pendingAmountInUno",
          "type": "uint256"
        },
        {
          "internalType": "uint256",
          "name": "originUnoAmount",
          "type": "uint256"
        },
        {
          "internalType": "uint256",
          "name": "requestTime",
          "type": "uint256"
        }
      ],
      "stateMutability": "view",
      "type": "function"
    },
    {
      "inputs": [
        {
          "internalType": "address",
          "name": "_to",
          "type": "address"
        }
      ],
      "name": "harvest",
      "outputs": [],
      "stateMutability": "nonpayable",
      "type": "function"
    },
    {
      "inputs": [],
      "name": "leaveFromPending",
      "outputs": [],
      "stateMutability": "nonpayable",
      "type": "function"
    },
    {
      "inputs": [
        {
          "internalType": "uint256",
          "name": "_amount",
          "type": "uint256"
        }
      ],
      "name": "leaveFromPoolInPending",
      "outputs": [],
      "stateMutability": "nonpayable",
      "type": "function"
    },
    {
      "inputs": [
        {
          "internalType": "address",
          "name": "_from",
          "type": "address"
        },
        {
          "internalType": "address",
          "name": "_to",
          "type": "address"
        },
        {
          "internalType": "uint256",
          "name": "_amount",
          "type": "uint256"
        }
      ],
      "name": "lpTransfer",
      "outputs": [],
      "stateMutability": "nonpayable",
      "type": "function"
    },
    {
      "inputs": [],
      "name": "migrate",
      "outputs": [],
      "stateMutability": "nonpayable",
      "type": "function"
    },
    {
      "inputs": [],
      "name": "migrateTo",
      "outputs": [
        {
          "internalType": "address",
          "name": "",
          "type": "address"
        }
      ],
      "stateMutability": "view",
      "type": "function"
    },
    {
      "inputs": [],
      "name": "owner",
      "outputs": [
        {
          "internalType": "address",
          "name": "",
          "type": "address"
        }
      ],
      "stateMutability": "view",
      "type": "function"
    },
    {
      "inputs": [
        {
          "internalType": "address",
          "name": "_to",
          "type": "address"
        }
      ],
      "name": "pendingUno",
      "outputs": [
        {
          "internalType": "uint256",
          "name": "pending",
          "type": "uint256"
        }
      ],
      "stateMutability": "view",
      "type": "function"
    },
    {
      "inputs": [
        {
          "internalType": "address",
          "name": "_to",
          "type": "address"
        },
        {
          "internalType": "uint256",
          "name": "_amount",
          "type": "uint256"
        }
      ],
      "name": "policyClaim",
      "outputs": [],
      "stateMutability": "nonpayable",
      "type": "function"
    },
    {
      "inputs": [],
      "name": "poolInfo",
      "outputs": [
        {
          "internalType": "uint128",
          "name": "lastRewardBlock",
          "type": "uint128"
        },
        {
          "internalType": "uint128",
          "name": "accUnoPerShare",
          "type": "uint128"
        },
        {
          "internalType": "uint256",
          "name": "unoMultiplierPerBlock",
          "type": "uint256"
        }
      ],
      "stateMutability": "view",
      "type": "function"
    },
    {
      "inputs": [],
      "name": "renounceOwnership",
      "outputs": [],
      "stateMutability": "nonpayable",
      "type": "function"
    },
    {
      "inputs": [],
      "name": "rewarder",
      "outputs": [
        {
          "internalType": "address",
          "name": "",
          "type": "address"
        }
      ],
      "stateMutability": "view",
      "type": "function"
    },
    {
      "inputs": [],
      "name": "riskPool",
      "outputs": [
        {
          "internalType": "address",
          "name": "",
          "type": "address"
        }
      ],
      "stateMutability": "view",
      "type": "function"
    },
    {
      "inputs": [
        {
          "internalType": "address",
          "name": "_capitalAgent",
          "type": "address"
        }
      ],
      "name": "setCapitalAgent",
      "outputs": [],
      "stateMutability": "nonpayable",
      "type": "function"
    },
    {
      "inputs": [
        {
          "internalType": "address",
          "name": "_claimAssessor",
          "type": "address"
        }
      ],
      "name": "setClaimAssessor",
      "outputs": [],
      "stateMutability": "nonpayable",
      "type": "function"
    },
    {
      "inputs": [
        {
          "internalType": "address",
          "name": "_exchangeAgent",
          "type": "address"
        }
      ],
      "name": "setExchangeAgent",
      "outputs": [],
      "stateMutability": "nonpayable",
      "type": "function"
    },
    {
      "inputs": [
        {
          "internalType": "uint256",
          "name": "_lockTime",
          "type": "uint256"
        }
      ],
      "name": "setLockTime",
      "outputs": [],
      "stateMutability": "nonpayable",
      "type": "function"
    },
    {
      "inputs": [
        {
          "internalType": "address",
          "name": "_migrateTo",
          "type": "address"
        }
      ],
      "name": "setMigrateTo",
      "outputs": [],
      "stateMutability": "nonpayable",
      "type": "function"
    },
    {
      "inputs": [
        {
          "internalType": "uint256",
          "name": "_minLPCapital",
          "type": "uint256"
        }
      ],
      "name": "setMinLPCapital",
      "outputs": [],
      "stateMutability": "nonpayable",
      "type": "function"
    },
    {
      "inputs": [
        {
          "internalType": "uint256",
          "name": "_rewardMultiplier",
          "type": "uint256"
        }
      ],
      "name": "setRewardMultiplier",
      "outputs": [],
      "stateMutability": "nonpayable",
      "type": "function"
    },
    {
      "inputs": [
        {
          "internalType": "uint256",
          "name": "_startTime",
          "type": "uint256"
        }
      ],
      "name": "setStakingStartTime",
      "outputs": [],
      "stateMutability": "nonpayable",
      "type": "function"
    },
    {
      "inputs": [],
      "name": "syntheticSSIP",
      "outputs": [
        {
          "internalType": "address",
          "name": "",
          "type": "address"
        }
      ],
      "stateMutability": "view",
      "type": "function"
    },
    {
      "inputs": [
        {
          "internalType": "address",
          "name": "newOwner",
          "type": "address"
        }
      ],
      "name": "transferOwnership",
      "outputs": [],
      "stateMutability": "nonpayable",
      "type": "function"
    },
    {
      "inputs": [],
      "name": "updatePool",
      "outputs": [],
      "stateMutability": "nonpayable",
      "type": "function"
    },
    {
      "inputs": [
        {
          "internalType": "address",
          "name": "",
          "type": "address"
        }
      ],
      "name": "userInfo",
      "outputs": [
        {
          "internalType": "uint256",
          "name": "lastWithdrawTime",
          "type": "uint256"
        },
        {
          "internalType": "uint256",
          "name": "rewardDebt",
          "type": "uint256"
        },
        {
          "internalType": "uint256",
          "name": "amount",
          "type": "uint256"
        }
      ],
      "stateMutability": "view",
      "type": "function"
    }
  ],
  "transactionHash": "0xf4594382812be2905a03f4e3b666ff255e2c7f772fcd2d4804924af9624b3b77",
  "args": [
    "0x5569BDF4e02cec3fE459796e3d0e741616029fA4",
    "0x34Bb884F2B45F614067Df55AD58c0DDdaeff9408",
    "0x64741A6b0143596F31e462c6cD802A2A7eacaAc3",
    "0x5569BDF4e02cec3fE459796e3d0e741616029fA4"
  ],
  "solcInputHash": "9c1f8d85bdcf670030c1ce66de03e023",
  "bytecode": "0x6080604052620d2f006007553480156200001857600080fd5b5060405162003e3838038062003e388339810160408190526200003b91620001b6565b6001600055620000546200004e62000143565b62000147565b6001600160a01b038416620000865760405162461bcd60e51b81526004016200007d90620002ca565b60405180910390fd5b6001600160a01b038316620000af5760405162461bcd60e51b81526004016200007d9062000289565b6001600160a01b038216620000d85760405162461bcd60e51b81526004016200007d9062000212565b6001600160a01b038116620001015760405162461bcd60e51b81526004016200007d9062000247565b50600380546001600160a01b03199081166001600160a01b0394851617909155600280548216948416949094179093556005805490931691161790556200030b565b3390565b600180546001600160a01b038381166001600160a01b0319831681179093556040519116919082907f8be0079c531659141344cd1fd0a4f28419497f9722a3daafe3b4186f6b6457e090600090a35050565b80516001600160a01b0381168114620001b157600080fd5b919050565b60008060008060808587031215620001cc578384fd5b620001d78562000199565b9350620001e76020860162000199565b9250620001f76040860162000199565b9150620002076060860162000199565b905092959194509250565b6020808252818101527f556e6f52653a207a65726f206361706974616c4167656e742061646472657373604082015260600190565b60208082526022908201527f556e6f52653a207a65726f206d756c746973696777616c6c6574206164647265604082015261737360f01b606082015260800190565b60208082526021908201527f556e6f52653a207a65726f2065786368616e67654167656e74206164647265736040820152607360f81b606082015260800190565b60208082526021908201527f556e6f52653a207a65726f20636c61696d4173736573736f72206164647265736040820152607360f81b606082015260800190565b613b1d806200031b6000396000f3fe6080604052600436106102855760003560e01c806393b6b86c11610153578063c4e5dacf116100cb578063e08c5de11161007f578063e3161ddd11610064578063e3161ddd1461069b578063e3824a38146106b0578063f2fde38b146106c357610285565b8063e08c5de114610666578063e19e71681461068657610285565b8063cd87c83c116100b0578063cd87c83c14610627578063dba6f9621461063c578063dcc3e06e1461065157610285565b8063c4e5dacf146105fd578063c6e899151461061257610285565b8063af16d6e011610122578063bc8f882811610107578063bc8f8828146105a8578063c2eb8eb9146105bd578063c3dcfcf1146105dd57610285565b8063af16d6e01461055a578063ba6194571461057a57610285565b806393b6b86c146104f057806398c6e76014610510578063a3bdd63214610525578063ae04d45d1461053a57610285565b806342198160116102015780638395206c116101b55780638da5cb5b1161019a5780638da5cb5b146104965780638fd3ab80146104ab5780639336f406146104c057610285565b80638395206c1461046157806389919b711461048157610285565b80635d90bad9116101e65780635d90bad91461040c578063715018a61461042c578063736ec05c1461044157610285565b806342198160146103c65780635a2f3d09146103e857610285565b806318a00d8e116102585780631b600ca21161023d5780631b600ca2146103645780632e4a014214610384578063413d9c3a146103a457610285565b806318a00d8e1461030c5780631959a0021461032c57610285565b80630bd075a11461028a5780630e5c011e146102ac5780630e9ae420146102cc578063157f71ed146102ec575b600080fd5b34801561029657600080fd5b506102aa6102a536600461318b565b6106e3565b005b3480156102b857600080fd5b506102aa6102c7366004612f9b565b61078d565b3480156102d857600080fd5b506102aa6102e736600461305c565b6107e8565b3480156102f857600080fd5b506102aa610307366004612f9b565b610ae0565b34801561031857600080fd5b506102aa610327366004612f9b565b610b91565b34801561033857600080fd5b5061034c610347366004612f9b565b610c40565b60405161035b939291906139f2565b60405180910390f35b34801561037057600080fd5b506102aa61037f366004612fda565b610c61565b34801561039057600080fd5b506102aa61039f36600461309c565b610e1d565b3480156103b057600080fd5b506103b961100a565b60405161035b91906139db565b3480156103d257600080fd5b506103db611010565b60405161035b919061326e565b3480156103f457600080fd5b506103fd61101f565b60405161035b93929190613994565b34801561041857600080fd5b506102aa61042736600461318b565b61103d565b34801561043857600080fd5b506102aa6110bc565b34801561044d57600080fd5b506102aa61045c366004612f9b565b611107565b34801561046d57600080fd5b506102aa61047c36600461318b565b6111b8565b34801561048d57600080fd5b506103b96114d5565b3480156104a257600080fd5b506103db6114e1565b3480156104b757600080fd5b506102aa6114f0565b3480156104cc57600080fd5b506104e06104db366004612f9b565b6117c0565b60405161035b9493929190613a08565b3480156104fc57600080fd5b506102aa61050b36600461318b565b6118fe565b34801561051c57600080fd5b506103db6119f8565b34801561053157600080fd5b506103b9611a07565b34801561054657600080fd5b506102aa61055536600461318b565b611a89565b34801561056657600080fd5b506102aa610575366004613012565b611b1f565b34801561058657600080fd5b5061059a610595366004612f9b565b611cb9565b60405161035b9291906139e4565b3480156105b457600080fd5b506102aa611d74565b3480156105c957600080fd5b506102aa6105d8366004612f9b565b612083565b3480156105e957600080fd5b506102aa6105f83660046130e7565b612134565b34801561060957600080fd5b506103db612363565b34801561061e57600080fd5b506103db612372565b34801561063357600080fd5b506103db612381565b34801561064857600080fd5b506103b9612390565b34801561065d57600080fd5b506103db612396565b34801561067257600080fd5b506103b9610681366004612f9b565b6123a5565b34801561069257600080fd5b506102aa61250f565b3480156106a757600080fd5b506102aa61260a565b6102aa6106be36600461318b565b61279f565b3480156106cf57600080fd5b506102aa6106de366004612f9b565b612b64565b6106eb612bd5565b6001600160a01b03166106fc6114e1565b6001600160a01b03161461072b5760405162461bcd60e51b8152600401610722906137ab565b60405180910390fd5b6000811161074b5760405162461bcd60e51b8152600401610722906135f5565b600d81905560405130907fbd1dd13c6a5b4a28ebd27fdcb8fdd01aba6bbb9f67599306248f465bcdf9817f906107829084906139db565b60405180910390a250565b6008544210156107af5760405162461bcd60e51b8152600401610722906138ba565b600260005414156107d25760405162461bcd60e51b8152600401610722906138f1565b60026000556107e081612bd9565b506001600055565b6002600054141561080b5760405162461bcd60e51b8152600401610722906138f1565b6002600055600a546001600160a01b0316331461083a5760405162461bcd60e51b81526004016107229061395f565b6006546001600160a01b0384811691161480159061086657506006546001600160a01b03838116911614155b15610ad65761087483612bd9565b6001600160a01b038084166000908152600b602052604080822060020154600a549151631665744b60e11b815290939190911690632ccae896906108bc90889060040161326e565b60606040518083038186803b1580156108d457600080fd5b505afa1580156108e8573d6000803e3d6000fd5b505050506040513d601f19601f8201168201806040525081019061090c91906131de565b5050905082818361091d9190613aa5565b101561093b5760405162461bcd60e51b815260040161072290613552565b600c54600090670de0b6b3a76400009061096590600160801b90046001600160801b031685613a86565b61096f9190613a66565b600c54909150670de0b6b3a76400009061099990600160801b90046001600160801b031686613a86565b6109a39190613a66565b6109ad9082613aa5565b6001600160a01b0387166000908152600b60205260409020600101556109d38484613aa5565b6001600160a01b0387166000908152600b6020526040902060020155600c54670de0b6b3a764000090610a1690600160801b90046001600160801b031686613a86565b610a209190613a66565b6001600160a01b0386166000908152600b6020526040902060010154610a469190613a4e565b6001600160a01b0386166000908152600b60205260409020600181019190915560020154610a75908590613a4e565b6001600160a01b038087166000818152600b602052604090819020600201939093559151908816907fabc254a3e8b16a8605ce22e693a6e493e375434011c1a7ff082d09e2a84ad12190610aca9088906139db565b60405180910390a35050505b5050600160005550565b610ae8612bd5565b6001600160a01b0316610af96114e1565b6001600160a01b031614610b1f5760405162461bcd60e51b8152600401610722906137ab565b6001600160a01b038116610b455760405162461bcd60e51b8152600401610722906133f3565b600280546001600160a01b0319166001600160a01b03831690811790915560405130907f073f9d6137d7fa6d64859eb388090b7e90a768c36e707e4404e1fa6485b5c91e90600090a350565b610b99612bd5565b6001600160a01b0316610baa6114e1565b6001600160a01b031614610bd05760405162461bcd60e51b8152600401610722906137ab565b6001600160a01b038116610bf65760405162461bcd60e51b8152600401610722906133f3565b600380546001600160a01b0319166001600160a01b0383169081179091556040517fbdca3ec80f8567aeaf30c6168374c798baf11902e9b21c2b8ba3186ffd13012290600090a250565b600b6020526000908152604090208054600182015460029092015490919083565b610c69612bd5565b6001600160a01b0316610c7a6114e1565b6001600160a01b031614610ca05760405162461bcd60e51b8152600401610722906137ab565b60026000541415610cc35760405162461bcd60e51b8152600401610722906138f1565b60026000556001600160a01b038216610cee5760405162461bcd60e51b8152600401610722906136d1565b6001600160a01b038116610d145760405162461bcd60e51b81526004016107229061342a565b600a546001600160a01b0316610d3c5760405162461bcd60e51b81526004016107229061369a565b600a54604051631a8a8b3b60e11b81526001600160a01b0380841692633515167692610d6e9287921690600401613282565b602060405180830381600087803b158015610d8857600080fd5b505af1158015610d9c573d6000803e3d6000fd5b505050506040513d601f19601f82011682018060405250810190610dc09190612fbe565b600680546001600160a01b0319166001600160a01b039283161790819055600a5460405190831692919091169030907e1129b9865226cebad4acf884618ae0607fff06758062b050509602db7065f090600090a450506001600055565b6002546001600160a01b03163314610e475760405162461bcd60e51b815260040161072290613817565b600854421015610e695760405162461bcd60e51b8152600401610722906138ba565b60026000541415610e8c5760405162461bcd60e51b8152600401610722906138f1565b60026000556001600160a01b038216610eb75760405162461bcd60e51b8152600401610722906133f3565b60008111610ed75760405162461bcd60e51b815260040161072290613663565b600a5460405163172500a160e11b81526000916001600160a01b031690632e4a014290610f0a9086908690600401613307565b602060405180830381600087803b158015610f2457600080fd5b505af1158015610f38573d6000803e3d6000fd5b505050506040513d601f19601f82011682018060405250810190610f5c91906131a3565b60055460405163167afee560e31b81529192506001600160a01b03169063b3d7f72890610f8d9084906004016139db565b600060405180830381600087803b158015610fa757600080fd5b505af1158015610fbb573d6000803e3d6000fd5b50505050826001600160a01b03167f6420c9536b9a539410a930b1fd8d115dc296d8b71426dcc0ab64f2f736b7d59f82604051610ff891906139db565b60405180910390a25050600160005550565b60075481565b6005546001600160a01b031681565b600c54600d546001600160801b0380831692600160801b9004169083565b611045612bd5565b6001600160a01b03166110566114e1565b6001600160a01b03161461107c5760405162461bcd60e51b8152600401610722906137ab565b6110864282613a4e565b600881905560405130917fa8aa08cc14eef7b97ab4cd52f37082e23f7526bccc98cf91e6a1d412494b90519161078291906139db565b6110c4612bd5565b6001600160a01b03166110d56114e1565b6001600160a01b0316146110fb5760405162461bcd60e51b8152600401610722906137ab565b6111056000612d6b565b565b61110f612bd5565b6001600160a01b03166111206114e1565b6001600160a01b0316146111465760405162461bcd60e51b8152600401610722906137ab565b6001600160a01b03811661116c5760405162461bcd60e51b8152600401610722906133f3565b600480546001600160a01b0319166001600160a01b03831690811790915560405130907f877238238dbd7134e89b00809ea73fabb50da117ace807a6b31c733bbf55d36990600090a350565b6008544210156111da5760405162461bcd60e51b8152600401610722906138ba565b600260005414156111fd5760405162461bcd60e51b8152600401610722906138f1565b600260005561120b33612bd9565b60055460405163c139b04f60e01b81526001600160a01b039091169063c139b04f9061123d9030908590600401613307565b60206040518083038186803b15801561125557600080fd5b505afa158015611269573d6000803e3d6000fd5b505050506040513d601f19601f8201168201806040525081019061128d91906130c7565b6112a95760405162461bcd60e51b815260040161072290613708565b336000908152600b6020908152604080832060020154600a548251627a9fd960e91b815292519194936001600160a01b039091169263f53fb2009260048083019392829003018186803b1580156112ff57600080fd5b505afa158015611313573d6000803e3d6000fd5b505050506040513d601f19601f8201168201806040525081019061133791906131a3565b600a54604051631665744b60e11b81529192506000916001600160a01b0390911690632ccae8969061136d90339060040161326e565b60606040518083038186803b15801561138557600080fd5b505afa158015611399573d6000803e3d6000fd5b505050506040513d601f19601f820116820180604052508101906113bd91906131de565b5050905083670de0b6b3a76400008383866113d89190613aa5565b6113e29190613a86565b6113ec9190613a66565b101561140a5760405162461bcd60e51b815260040161072290613461565b600a546040516323de6d9560e11b81526001600160a01b03909116906347bcdb2a9061143c9033908890600401613307565b600060405180830381600087803b15801561145657600080fd5b505af115801561146a573d6000803e3d6000fd5b5050336000818152600b602052604090819020429055600a5490516001600160a01b0390911693509091507f940a14c75c418e7230a2e65567722d2dda5a6713cf71b369bd0fa219fdc1ac5e906114c29088906139db565b60405180910390a3505060016000555050565b670de0b6b3a764000081565b6001546001600160a01b031690565b600260005414156115135760405162461bcd60e51b8152600401610722906138f1565b60026000556004546001600160a01b03166115405760405162461bcd60e51b8152600401610722906133f3565b61154933612bd9565b600a5460408051627a9fd960e91b815290516000926001600160a01b03169163f53fb200916004808301926020929190829003018186803b15801561158d57600080fd5b505afa1580156115a1573d6000803e3d6000fd5b505050506040513d601f19601f820116820180604052508101906115c591906131a3565b336000908152600b6020526040812060028101546007549154939450926115ec9042613aa5565b600a5460048054604051633613302f60e01b81529490931194506000936001600160a01b0392831693633613302f9361162e93339392909116918891016132bf565b602060405180830381600087803b15801561164857600080fd5b505af115801561165c573d6000803e3d6000fd5b505050506040513d601f19601f8201168201806040525081019061168091906131a3565b6005549091506001600160a01b031663b3d7f728670de0b6b3a76400006116a78787613a86565b6116b19190613a66565b6040518263ffffffff1660e01b81526004016116cd91906139db565b600060405180830381600087803b1580156116e757600080fd5b505af11580156116fb573d6000803e3d6000fd5b50506004805460405163ed59344b60e01b81526001600160a01b03909116935063ed59344b9250611730913391889101613320565b600060405180830381600087803b15801561174a57600080fd5b505af115801561175e573d6000803e3d6000fd5b5050336000818152600b6020526040808220600281018390556001019190915560045490516001600160a01b0390911693509091507ff0fee1f70845d356d6a3e0baa0944ce846437b6469ea89416dad2cd7067919a4906114c29085906139db565b6000806000806000600a60009054906101000a90046001600160a01b03166001600160a01b031663f53fb2006040518163ffffffff1660e01b815260040160206040518083038186803b15801561181657600080fd5b505afa15801561182a573d6000803e3d6000fd5b505050506040513d601f19601f8201168201806040525081019061184e91906131a3565b600a54604051631665744b60e11b81529192506001600160a01b031690632ccae8969061187f90899060040161326e565b60606040518083038186803b15801561189757600080fd5b505afa1580156118ab573d6000803e3d6000fd5b505050506040513d601f19601f820116820180604052508101906118cf91906131de565b9196509093509150670de0b6b3a76400006118ea8287613a86565b6118f49190613a66565b9350509193509193565b611906612bd5565b6001600160a01b03166119176114e1565b6001600160a01b03161461193d5760405162461bcd60e51b8152600401610722906137ab565b6000811161195d5760405162461bcd60e51b815260040161072290613928565b600a546040516324edae1b60e21b81526001600160a01b03909116906393b6b86c9061198d9084906004016139db565b600060405180830381600087803b1580156119a757600080fd5b505af11580156119bb573d6000803e3d6000fd5b50505050306001600160a01b03167f353ac2778fe09bc60cf3070bb11d548faf4037e4217a06977c16463087474aab8260405161078291906139db565b6004546001600160a01b031681565b600a546040805163e95aa8d360e01b815290516000926001600160a01b03169163e95aa8d3916004808301926020929190829003018186803b158015611a4c57600080fd5b505afa158015611a60573d6000803e3d6000fd5b505050506040513d601f19601f82011682018060405250810190611a8491906131a3565b905090565b611a91612bd5565b6001600160a01b0316611aa26114e1565b6001600160a01b031614611ac85760405162461bcd60e51b8152600401610722906137ab565b60008111611ae85760405162461bcd60e51b81526004016107229061373d565b600781905560405130907f2c2c43c64e937ae35257af782c222986dc5adb4f56dc0881594e79bf83658d8c906107829084906139db565b611b27612bd5565b6001600160a01b0316611b386114e1565b6001600160a01b031614611b5e5760405162461bcd60e51b8152600401610722906137ab565b60026000541415611b815760405162461bcd60e51b8152600401610722906138f1565b60026000556001600160a01b038216611bac5760405162461bcd60e51b81526004016107229061384e565b6001600160a01b038316611bd25760405162461bcd60e51b81526004016107229061362c565b6040516369ee745160e01b81526001600160a01b038316906369ee745190611c029086908590309060040161329c565b602060405180830381600087803b158015611c1c57600080fd5b505af1158015611c30573d6000803e3d6000fd5b505050506040513d601f19601f82011682018060405250810190611c549190612fbe565b600980546001600160a01b0319166001600160a01b03928316179081905560405191169030907f6c409a36847a0a3870deae25f656f4300d45957d2643fc27faab145e19cfcf1b90611ca790859061326e565b60405180910390a35050600160005550565b6001600160a01b038082166000908152600b6020908152604080832060020154600a548251627a9fd960e91b81529251949591948694919092169263f53fb2009260048083019392829003018186803b158015611d1557600080fd5b505afa158015611d29573d6000803e3d6000fd5b505050506040513d601f19601f82011682018060405250810190611d4d91906131a3565b9050670de0b6b3a7640000611d628284613a86565b611d6c9190613a66565b925050915091565b600854421015611d965760405162461bcd60e51b8152600401610722906138ba565b60026000541415611db95760405162461bcd60e51b8152600401610722906138f1565b60026000908155600754338252600b602052604090912054611ddb9042613aa5565b1015611df95760405162461bcd60e51b8152600401610722906135be565b611e0233612bd9565b336000818152600b602052604080822060020154600a549151631665744b60e11b8152909383926001600160a01b031691632ccae89691611e459160040161326e565b60606040518083038186803b158015611e5d57600080fd5b505afa158015611e71573d6000803e3d6000fd5b505050506040513d601f19601f82011682018060405250810190611e9591906131de565b600554604051632da26abb60e11b81529395509093506001600160a01b031691635b44d5769150611eca9084906004016139db565b600060405180830381600087803b158015611ee457600080fd5b505af1158015611ef8573d6000803e3d6000fd5b5050600c5460009250670de0b6b3a76400009150611f2690600160801b90046001600160801b031686613a86565b611f309190613a66565b600c54909150670de0b6b3a764000090611f5a90600160801b90046001600160801b031685613a86565b611f649190613a66565b611f6e9082613aa5565b336000818152600b602052604080822060010193909355600a54925163b20ecd1560e01b8152909283926001600160a01b039091169163b20ecd1591611fb69160040161326e565b6040805180830381600087803b158015611fcf57600080fd5b505af1158015611fe3573d6000803e3d6000fd5b505050506040513d601f19601f8201168201806040525081019061200791906131bb565b90925090506120168287613aa5565b336000818152600b60205260409081902060020192909255600a5491516001600160a01b03909216917fced2424eb51507abd1611ac0d9893e5bc6b6d0a0596b53f86d24d31fc75a5d609061206e90869086906139e4565b60405180910390a35050600160005550505050565b61208b612bd5565b6001600160a01b031661209c6114e1565b6001600160a01b0316146120c25760405162461bcd60e51b8152600401610722906137ab565b6001600160a01b0381166120e85760405162461bcd60e51b8152600401610722906133f3565b600580546001600160a01b0319166001600160a01b03831690811790915560405130907fdf8e7a62b39a2ec070924d5c5dce9a1957d75476af59af5a7e7ce2ee48bc777490600090a350565b61213c612bd5565b6001600160a01b031661214d6114e1565b6001600160a01b0316146121735760405162461bcd60e51b8152600401610722906137ab565b600260005414156121965760405162461bcd60e51b8152600401610722906138f1565b6002600055600a546001600160a01b0316156121c45760405162461bcd60e51b815260040161072290613589565b6001600160a01b0384166121ea5760405162461bcd60e51b815260040161072290613774565b604051630d98e31f60e01b81526001600160a01b03851690630d98e31f90612220908b908b908b908b9030908b90600401613348565b602060405180830381600087803b15801561223a57600080fd5b505af115801561224e573d6000803e3d6000fd5b505050506040513d601f19601f820116820180604052508101906122729190612fbe565b600a80546001600160a01b0319166001600160a01b03928316179055600c80546fffffffffffffffffffffffffffffffff1916436001600160801b0390811691909117169055600d839055600554604051633f14eb6160e11b8152911690637e29d6c2906122e8903090879086906004016132e3565b600060405180830381600087803b15801561230257600080fd5b505af1158015612316573d6000803e3d6000fd5b5050600a546040516001600160a01b0390911692503091507f184d7691bf4a73930a21086fa1bdf0ee3075421531a60730288325fd5838021790600090a350506001600055505050505050565b600a546001600160a01b031681565b6002546001600160a01b031681565b6006546001600160a01b031681565b60085481565b6009546001600160a01b031681565b600080600a60009054906101000a90046001600160a01b03166001600160a01b03166318160ddd6040518163ffffffff1660e01b815260040160206040518083038186803b1580156123f657600080fd5b505afa15801561240a573d6000803e3d6000fd5b505050506040513d601f19601f8201168201806040525081019061242e91906131a3565b600c549091506001600160801b03600160801b8204811691164311801561245457508115155b156124b357600c54600090612472906001600160801b031643613aa5565b600d549091506000906124859083613a86565b90508361249a670de0b6b3a764000083613a86565b6124a49190613a66565b6124ae9084613a23565b925050505b6001600160a01b0384166000908152600b602052604090206002810154600190910154670de0b6b3a76400006124f26001600160801b03851684613a86565b6124fc9190613a66565b6125069190613aa5565b95945050505050565b600260005414156125325760405162461bcd60e51b8152600401610722906138f1565b60026000908155600a546040516306e6829960e51b815282916001600160a01b03169063dcd053209061256990339060040161326e565b6040805180830381600087803b15801561258257600080fd5b505af1158015612596573d6000803e3d6000fd5b505050506040513d601f19601f820116820180604052508101906125ba91906131bb565b91509150336001600160a01b03167f09c6481cb228ea7f61ceb67c8e708038eb74bbb68cfcc54a9cfca199087ecfb783836040516125f99291906139e4565b60405180910390a250506001600055565b600c546001600160801b031643111561110557600a54604080516318160ddd60e01b815290516000926001600160a01b0316916318160ddd916004808301926020929190829003018186803b15801561266257600080fd5b505afa158015612676573d6000803e3d6000fd5b505050506040513d601f19601f8201168201806040525081019061269a91906131a3565b9050801561272a57600c546000906126bb906001600160801b031643613aa5565b600d549091506000906126ce9083613a86565b9050826126e3670de0b6b3a764000083613a86565b6126ed9190613a66565b600c5461270a9190600160801b90046001600160801b0316613a23565b600c80546001600160801b03928316600160801b02921691909117905550505b600c80546fffffffffffffffffffffffffffffffff1916436001600160801b0390811691909117918290556040517f982b813c7d00a9ffce9441ba40f429b2e4a35068d75532f496d0c63585c2fa689261279492818116928692600160801b9004909116906139b8565b60405180910390a150565b6008544210156127c15760405162461bcd60e51b8152600401610722906138ba565b600260005414156127e45760405162461bcd60e51b8152600401610722906138f1565b6002600055806128065760405162461bcd60e51b8152600401610722906137e0565b61280e61260a565b600a546040805163e5a6b10f60e01b815290516000926001600160a01b03169163e5a6b10f916004808301926020929190829003018186803b15801561285357600080fd5b505afa158015612867573d6000803e3d6000fd5b505050506040513d601f19601f8201168201806040525081019061288b9190612fbe565b90506000600a60009054906101000a90046001600160a01b03166001600160a01b031663f53fb2006040518163ffffffff1660e01b815260040160206040518083038186803b1580156128dd57600080fd5b505afa1580156128f1573d6000803e3d6000fd5b505050506040513d601f19601f8201168201806040525081019061291591906131a3565b90506001600160a01b03821661297b57823410156129455760405162461bcd60e51b815260040161072290613883565b82341115612960576129603361295b8534613aa5565b612dbd565b600a54612976906001600160a01b031684612dbd565b612995565b600a5461299590839033906001600160a01b031686612e4f565b600a54604051637e348b7d60e01b81526001600160a01b0390911690637e348b7d906129c79033908790600401613307565b600060405180830381600087803b1580156129e157600080fd5b505af11580156129f5573d6000803e3d6000fd5b5050600c54670de0b6b3a76400009250839150600160801b90046001600160801b0316612a228684613a86565b612a2c9190613a86565b612a369190613a66565b612a409190613a66565b336000908152600b6020526040902060010154612a5d9190613a4e565b336000908152600b602052604090206001015580612a8384670de0b6b3a7640000613a86565b612a8d9190613a66565b336000908152600b6020526040902060020154612aaa9190613a4e565b336000908152600b602052604090819020600201919091556005549051638be5a39f60e01b81526001600160a01b0390911690638be5a39f90612af19086906004016139db565b600060405180830381600087803b158015612b0b57600080fd5b505af1158015612b1f573d6000803e3d6000fd5b5050600a546040516001600160a01b0390911692503391507fd3dba7b5565b16b7749db7d1938410a636e3c7a6ea46ed8ce7e259e19f2f3b9f90611ca79087906139db565b612b6c612bd5565b6001600160a01b0316612b7d6114e1565b6001600160a01b031614612ba35760405162461bcd60e51b8152600401610722906137ab565b6001600160a01b038116612bc95760405162461bcd60e51b815260040161072290613396565b612bd281612d6b565b50565b3390565b612be161260a565b6001600160a01b0381166000908152600b6020526040812060020154600c54909190670de0b6b3a764000090612c2790600160801b90046001600160801b031684613a86565b612c319190613a66565b6001600160a01b0384166000908152600b602052604081206001015491925090612c5b9083613aa5565b336000908152600b60205260408120600101849055600954919250906001600160a01b031615801590612c8d57508115155b15612d195760095460405163186e465160e31b81526001600160a01b039091169063c372328890612cc49088908690600401613307565b602060405180830381600087803b158015612cde57600080fd5b505af1158015612cf2573d6000803e3d6000fd5b505050506040513d601f19601f82011682018060405250810190612d1691906131a3565b90505b846001600160a01b0316336001600160a01b03167fa0306f61d3fafe13787b78e276cb6b644382854a66cb46daae14227d3ec2679783604051612d5c91906139db565b60405180910390a35050505050565b600180546001600160a01b038381166001600160a01b0319831681179093556040519116919082907f8be0079c531659141344cd1fd0a4f28419497f9722a3daafe3b4186f6b6457e090600090a35050565b604080516000808252602082019092526001600160a01b038416908390604051612de79190613235565b60006040518083038185875af1925050503d8060008114612e24576040519150601f19603f3d011682016040523d82523d6000602084013e612e29565b606091505b5050905080612e4a5760405162461bcd60e51b8152600401610722906134f5565b505050565b600080856001600160a01b03166323b872dd868686604051602401612e76939291906132e3565b6040516020818303038152906040529060e01b6020820180517bffffffffffffffffffffffffffffffffffffffffffffffffffffffff8381831617835250505050604051612ec49190613235565b6000604051808303816000865af19150503d8060008114612f01576040519150601f19603f3d011682016040523d82523d6000602084013e612f06565b606091505b5091509150818015612f30575080511580612f30575080806020019051810190612f3091906130c7565b612f4c5760405162461bcd60e51b815260040161072290613498565b505050505050565b60008083601f840112612f65578182fd5b50813567ffffffffffffffff811115612f7c578182fd5b602083019150836020828501011115612f9457600080fd5b9250929050565b600060208284031215612fac578081fd5b8135612fb781613ad2565b9392505050565b600060208284031215612fcf578081fd5b8151612fb781613ad2565b60008060408385031215612fec578081fd5b8235612ff781613ad2565b9150602083013561300781613ad2565b809150509250929050565b600080600060608486031215613026578081fd5b833561303181613ad2565b9250602084013561304181613ad2565b9150604084013561305181613ad2565b809150509250925092565b600080600060608486031215613070578283fd5b833561307b81613ad2565b9250602084013561308b81613ad2565b929592945050506040919091013590565b600080604083850312156130ae578182fd5b82356130b981613ad2565b946020939093013593505050565b6000602082840312156130d8578081fd5b81518015158114612fb7578182fd5b60008060008060008060008060c0898b031215613102578384fd5b883567ffffffffffffffff80821115613119578586fd5b6131258c838d01612f54565b909a50985060208b013591508082111561313d578586fd5b5061314a8b828c01612f54565b909750955050604089013561315e81613ad2565b9350606089013561316e81613ad2565b979a969950949793969295929450505060808201359160a0013590565b60006020828403121561319c578081fd5b5035919050565b6000602082840312156131b4578081fd5b5051919050565b600080604083850312156131cd578182fd5b505080516020909101519092909150565b6000806000606084860312156131f2578283fd5b8351925060208401519150604084015190509250925092565b60008284528282602086013780602084860101526020601f19601f85011685010190509392505050565b60008251815b81811015613255576020818601810151858301520161323b565b818111156132635782828501525b509190910192915050565b6001600160a01b0391909116815260200190565b6001600160a01b0392831681529116602082015260400190565b6001600160a01b0393841681529183166020830152909116604082015260600190565b6001600160a01b039384168152919092166020820152901515604082015260600190565b6001600160a01b039384168152919092166020820152604081019190915260600190565b6001600160a01b03929092168252602082015260400190565b6001600160a01b03929092168252602082015260606040820181905260009082015260800190565b60006080825261335c60808301888a61320b565b828103602084015261336f81878961320b565b9150506001600160a01b038085166040840152808416606084015250979650505050505050565b60208082526026908201527f4f776e61626c653a206e6577206f776e657220697320746865207a65726f206160408201527f6464726573730000000000000000000000000000000000000000000000000000606082015260800190565b60208082526013908201527f556e6f52653a207a65726f206164647265737300000000000000000000000000604082015260600190565b6020808252601a908201527f556e6f52653a7a65726f20666163746f72792061646472657373000000000000604082015260600190565b6020808252601f908201527f556e6f52653a20776974686472617720616d6f756e74206f766572666c6f7700604082015260600190565b60208082526031908201527f5472616e7366657248656c7065723a3a7472616e7366657246726f6d3a20747260408201527f616e7366657246726f6d206661696c6564000000000000000000000000000000606082015260800190565b60208082526034908201527f5472616e7366657248656c7065723a3a736166655472616e736665724554483a60408201527f20455448207472616e73666572206661696c6564000000000000000000000000606082015260800190565b60208082526017908201527f556e6f52653a2062616c616e6365206f766572666c6f77000000000000000000604082015260600190565b6020808252818101527f556e6f52653a207269736b20706f6f6c206372656174656420616c7265616479604082015260600190565b60208082526012908201527f556e6f52653a204c6f636b65642074696d650000000000000000000000000000604082015260600190565b60208082526011908201527f556e6f52653a207a65726f2076616c7565000000000000000000000000000000604082015260600190565b6020808252601c908201527f556e6f52653a207a65726f206f70657261746f72206164647265737300000000604082015260600190565b60208082526012908201527f556e6f52653a207a65726f20616d6f756e740000000000000000000000000000604082015260600190565b6020808252601b908201527f556e6f52653a7a65726f204c5020746f6b656e20616464726573730000000000604082015260600190565b60208082526019908201527f556e6f52653a207a65726f206f776e6572206164647265737300000000000000604082015260600190565b6020808252818101527f556e6f52653a206d696e696d756d206361706974616c20756e646572666c6f77604082015260600190565b6020808252601f908201527f556e6f52653a206e6f7420616c6c6f77207a65726f206c6f636b2074696d6500604082015260600190565b6020808252601b908201527f556e6f52653a207a65726f20666163746f727920616464726573730000000000604082015260600190565b6020808252818101527f4f776e61626c653a2063616c6c6572206973206e6f7420746865206f776e6572604082015260600190565b60208082526011908201527f556e6f52653a205a45524f2056616c7565000000000000000000000000000000604082015260600190565b60208082526010908201527f556e6f52653a20466f7262696464656e00000000000000000000000000000000604082015260600190565b6020808252818101527f556e6f52653a20726577617264657220666163746f7279206e6f206578697374604082015260600190565b60208082526018908201527f556e6f52653a20696e73756666696369656e7420706169640000000000000000604082015260600190565b60208082526019908201527f556e6f52653a206e6f7420617661696c61626c652074696d6500000000000000604082015260600190565b6020808252601f908201527f5265656e7472616e637947756172643a207265656e7472616e742063616c6c00604082015260600190565b6020808252601b908201527f556e6f52653a206e6f7420616c6c6f77207a65726f2076616c75650000000000604082015260600190565b6020808252818101527f556e6f52653a206e6f7420616c6c6f77206f7468657273207472616e73666572604082015260600190565b6001600160801b039384168152919092166020820152604081019190915260600190565b6001600160801b0393841681526020810192909252909116604082015260600190565b90815260200190565b918252602082015260400190565b9283526020830191909152604082015260600190565b93845260208401929092526040830152606082015260800190565b60006001600160801b03808316818516808303821115613a4557613a45613abc565b01949350505050565b60008219821115613a6157613a61613abc565b500190565b600082613a8157634e487b7160e01b81526012600452602481fd5b500490565b6000816000190483118215151615613aa057613aa0613abc565b500290565b600082821015613ab757613ab7613abc565b500390565b634e487b7160e01b600052601160045260246000fd5b6001600160a01b0381168114612bd257600080fdfea2646970667358221220a069afd4a2d7d665f441ea3311fd0be8f3c99e9d5ff9a5917fead200ae033c0864736f6c63430008000033",
  "devdoc": {
    "kind": "dev",
    "methods": {
      "createRiskPool(string,string,address,address,uint256,uint256)": {
        "details": "create Risk pool with UNO from SSIP owner"
      },
      "getTotalWithdrawPendingAmount()": {
        "details": "get total withdraw request amount in pending for the risk pool in UNO"
      },
      "getWithdrawRequestPerUser(address)": {
        "details": "get withdraw request amount in pending per user in UNO"
      },
      "leaveFromPending()": {
        "details": "user can submit claim again and receive his funds into his wallet after 10 days since last WR."
      },
      "leaveFromPoolInPending(uint256)": {
        "details": "WR will be in pending for 10 days at least"
      },
      "owner()": {
        "details": "Returns the address of the current owner."
      },
      "renounceOwnership()": {
        "details": "Leaves the contract without owner. It will not be possible to call `onlyOwner` functions anymore. Can only be called by the current owner. NOTE: Renouncing ownership will leave the contract without an owner, thereby removing any functionality that is only available to the owner."
      },
      "transferOwnership(address)": {
        "details": "Transfers ownership of the contract to a new account (`newOwner`). Can only be called by the current owner."
      }
    },
    "version": 1
  },
  "userdoc": {
    "kind": "user",
    "methods": {},
    "version": 1
  },
  "storageLayout": {
    "storage": [
      {
        "astId": 114,
        "contract": "contracts/SingleSidedInsurancePool(UNO).sol:SingleSidedInsurancePoolUNO",
        "label": "_status",
        "offset": 0,
        "slot": "0",
        "type": "t_uint256"
      },
      {
        "astId": 7,
        "contract": "contracts/SingleSidedInsurancePool(UNO).sol:SingleSidedInsurancePoolUNO",
        "label": "_owner",
        "offset": 0,
        "slot": "1",
        "type": "t_address"
      },
      {
        "astId": 9773,
        "contract": "contracts/SingleSidedInsurancePool(UNO).sol:SingleSidedInsurancePoolUNO",
        "label": "claimAssessor",
        "offset": 0,
        "slot": "2",
        "type": "t_address"
      },
      {
        "astId": 9775,
        "contract": "contracts/SingleSidedInsurancePool(UNO).sol:SingleSidedInsurancePoolUNO",
        "label": "exchangeAgent",
        "offset": 0,
        "slot": "3",
        "type": "t_address"
      },
      {
        "astId": 9777,
        "contract": "contracts/SingleSidedInsurancePool(UNO).sol:SingleSidedInsurancePoolUNO",
        "label": "migrateTo",
        "offset": 0,
        "slot": "4",
        "type": "t_address"
      },
      {
        "astId": 9779,
        "contract": "contracts/SingleSidedInsurancePool(UNO).sol:SingleSidedInsurancePoolUNO",
        "label": "capitalAgent",
        "offset": 0,
        "slot": "5",
        "type": "t_address"
      },
      {
        "astId": 9781,
        "contract": "contracts/SingleSidedInsurancePool(UNO).sol:SingleSidedInsurancePoolUNO",
        "label": "syntheticSSIP",
        "offset": 0,
        "slot": "6",
        "type": "t_address"
      },
      {
        "astId": 9784,
        "contract": "contracts/SingleSidedInsurancePool(UNO).sol:SingleSidedInsurancePoolUNO",
        "label": "LOCK_TIME",
        "offset": 0,
        "slot": "7",
        "type": "t_uint256"
      },
      {
        "astId": 9789,
        "contract": "contracts/SingleSidedInsurancePool(UNO).sol:SingleSidedInsurancePoolUNO",
        "label": "STAKING_START_TIME",
        "offset": 0,
        "slot": "8",
        "type": "t_uint256"
      },
      {
        "astId": 9791,
        "contract": "contracts/SingleSidedInsurancePool(UNO).sol:SingleSidedInsurancePoolUNO",
        "label": "rewarder",
        "offset": 0,
        "slot": "9",
        "type": "t_address"
      },
      {
        "astId": 9794,
        "contract": "contracts/SingleSidedInsurancePool(UNO).sol:SingleSidedInsurancePoolUNO",
        "label": "riskPool",
        "offset": 0,
        "slot": "10",
        "type": "t_address"
      },
      {
        "astId": 9813,
        "contract": "contracts/SingleSidedInsurancePool(UNO).sol:SingleSidedInsurancePoolUNO",
        "label": "userInfo",
        "offset": 0,
        "slot": "11",
        "type": "t_mapping(t_address,t_struct(UserInfo)9808_storage)"
      },
      {
        "astId": 9816,
        "contract": "contracts/SingleSidedInsurancePool(UNO).sol:SingleSidedInsurancePoolUNO",
        "label": "poolInfo",
        "offset": 0,
        "slot": "12",
        "type": "t_struct(PoolInfo)9801_storage"
      }
    ],
    "types": {
      "t_address": {
        "encoding": "inplace",
        "label": "address",
        "numberOfBytes": "20"
      },
      "t_mapping(t_address,t_struct(UserInfo)9808_storage)": {
        "encoding": "mapping",
        "key": "t_address",
        "label": "mapping(address => struct SingleSidedInsurancePoolUNO.UserInfo)",
        "numberOfBytes": "32",
        "value": "t_struct(UserInfo)9808_storage"
      },
      "t_struct(PoolInfo)9801_storage": {
        "encoding": "inplace",
        "label": "struct SingleSidedInsurancePoolUNO.PoolInfo",
        "members": [
          {
            "astId": 9796,
            "contract": "contracts/SingleSidedInsurancePool(UNO).sol:SingleSidedInsurancePoolUNO",
            "label": "lastRewardBlock",
            "offset": 0,
            "slot": "0",
            "type": "t_uint128"
          },
          {
            "astId": 9798,
            "contract": "contracts/SingleSidedInsurancePool(UNO).sol:SingleSidedInsurancePoolUNO",
            "label": "accUnoPerShare",
            "offset": 16,
            "slot": "0",
            "type": "t_uint128"
          },
          {
            "astId": 9800,
            "contract": "contracts/SingleSidedInsurancePool(UNO).sol:SingleSidedInsurancePoolUNO",
            "label": "unoMultiplierPerBlock",
            "offset": 0,
            "slot": "1",
            "type": "t_uint256"
          }
        ],
        "numberOfBytes": "64"
      },
      "t_struct(UserInfo)9808_storage": {
        "encoding": "inplace",
        "label": "struct SingleSidedInsurancePoolUNO.UserInfo",
        "members": [
          {
            "astId": 9803,
            "contract": "contracts/SingleSidedInsurancePool(UNO).sol:SingleSidedInsurancePoolUNO",
            "label": "lastWithdrawTime",
            "offset": 0,
            "slot": "0",
            "type": "t_uint256"
          },
          {
            "astId": 9805,
            "contract": "contracts/SingleSidedInsurancePool(UNO).sol:SingleSidedInsurancePoolUNO",
            "label": "rewardDebt",
            "offset": 0,
            "slot": "1",
            "type": "t_uint256"
          },
          {
            "astId": 9807,
            "contract": "contracts/SingleSidedInsurancePool(UNO).sol:SingleSidedInsurancePoolUNO",
            "label": "amount",
            "offset": 0,
            "slot": "2",
            "type": "t_uint256"
          }
        ],
        "numberOfBytes": "96"
      },
      "t_uint128": {
        "encoding": "inplace",
        "label": "uint128",
        "numberOfBytes": "16"
      },
      "t_uint256": {
        "encoding": "inplace",
        "label": "uint256",
        "numberOfBytes": "32"
      }
    }
  }
}