{
  "address": "0x9dfA34Ac43D62d5ec7DAf51842caf28A196D1614",
  "abi": [
    {
      "inputs": [
        {
          "internalType": "address",
          "name": "_owner",
          "type": "address"
        },
        {
          "internalType": "address",
          "name": "_claimAssessor",
          "type": "address"
        },
        {
          "internalType": "address",
          "name": "_exchangeAgent",
          "type": "address"
        },
        {
          "internalType": "address",
          "name": "_USDT_TOKEN",
          "type": "address"
        },
        {
          "internalType": "address",
          "name": "_capitalAgent",
          "type": "address"
        }
      ],
      "stateMutability": "nonpayable",
      "type": "constructor"
    },
    {
      "anonymous": false,
      "inputs": [
        {
          "indexed": true,
          "internalType": "address",
          "name": "_user",
          "type": "address"
        },
        {
          "indexed": true,
          "internalType": "address",
          "name": "_receiver",
          "type": "address"
        },
        {
          "indexed": false,
          "internalType": "uint256",
          "name": "_amount",
          "type": "uint256"
        }
      ],
      "name": "Harvest",
      "type": "event"
    },
    {
      "anonymous": false,
      "inputs": [
        {
          "indexed": true,
          "internalType": "address",
          "name": "_staker",
          "type": "address"
        },
        {
          "indexed": true,
          "internalType": "address",
          "name": "_pool",
          "type": "address"
        },
        {
          "indexed": false,
          "internalType": "uint256",
          "name": "_requestAmount",
          "type": "uint256"
        }
      ],
      "name": "LeftPool",
      "type": "event"
    },
    {
      "anonymous": false,
      "inputs": [
        {
          "indexed": true,
          "internalType": "address",
          "name": "_SSIP",
          "type": "address"
        },
        {
          "indexed": true,
          "internalType": "address",
          "name": "_rewarder",
          "type": "address"
        },
        {
          "indexed": false,
          "internalType": "address",
          "name": "_currency",
          "type": "address"
        }
      ],
      "name": "LogCreateRewarder",
      "type": "event"
    },
    {
      "anonymous": false,
      "inputs": [
        {
          "indexed": true,
          "internalType": "address",
          "name": "_SSIP",
          "type": "address"
        },
        {
          "indexed": true,
          "internalType": "address",
          "name": "_syntheticSSIP",
          "type": "address"
        },
        {
          "indexed": true,
          "internalType": "address",
          "name": "_lpToken",
          "type": "address"
        }
      ],
      "name": "LogCreateSyntheticSSIP",
      "type": "event"
    },
    {
      "anonymous": false,
      "inputs": [
        {
          "indexed": true,
          "internalType": "address",
          "name": "_user",
          "type": "address"
        },
        {
          "indexed": false,
          "internalType": "uint256",
          "name": "_withdrawLpAmount",
          "type": "uint256"
        },
        {
          "indexed": false,
          "internalType": "uint256",
          "name": "_withdrawUnoAmount",
          "type": "uint256"
        }
      ],
      "name": "LogLeaveFromPendingSSIP",
      "type": "event"
    },
    {
      "anonymous": false,
      "inputs": [
        {
          "indexed": true,
          "internalType": "address",
          "name": "_from",
          "type": "address"
        },
        {
          "indexed": true,
          "internalType": "address",
          "name": "_to",
          "type": "address"
        },
        {
          "indexed": false,
          "internalType": "uint256",
          "name": "_amount",
          "type": "uint256"
        }
      ],
      "name": "LogLpTransferInSSIP",
      "type": "event"
    },
    {
      "anonymous": false,
      "inputs": [
        {
          "indexed": true,
          "internalType": "address",
          "name": "_exchangeAgent",
          "type": "address"
        }
      ],
      "name": "LogSetExchangeAgent",
      "type": "event"
    },
    {
      "anonymous": false,
      "inputs": [
        {
          "indexed": false,
          "internalType": "uint128",
          "name": "_lastRewardBlock",
          "type": "uint128"
        },
        {
          "indexed": false,
          "internalType": "uint256",
          "name": "_lpSupply",
          "type": "uint256"
        },
        {
          "indexed": false,
          "internalType": "uint256",
          "name": "_accUnoPerShare",
          "type": "uint256"
        }
      ],
      "name": "LogUpdatePool",
      "type": "event"
    },
    {
      "anonymous": false,
      "inputs": [
        {
          "indexed": true,
          "internalType": "address",
          "name": "_user",
          "type": "address"
        },
        {
          "indexed": false,
          "internalType": "uint256",
          "name": "_claimAmount",
          "type": "uint256"
        }
      ],
      "name": "PolicyClaim",
      "type": "event"
    },
    {
      "anonymous": false,
      "inputs": [
        {
          "indexed": true,
          "internalType": "address",
          "name": "_SSIP",
          "type": "address"
        },
        {
          "indexed": true,
          "internalType": "address",
          "name": "_pool",
          "type": "address"
        }
      ],
      "name": "RiskPoolCreated",
      "type": "event"
    },
    {
      "anonymous": false,
      "inputs": [
        {
          "indexed": true,
          "internalType": "address",
          "name": "_staker",
          "type": "address"
        },
        {
          "indexed": true,
          "internalType": "address",
          "name": "_pool",
          "type": "address"
        },
        {
          "indexed": false,
          "internalType": "uint256",
          "name": "_amount",
          "type": "uint256"
        }
      ],
      "name": "StakedInPool",
      "type": "event"
    },
    {
      "inputs": [],
      "name": "ACC_UNO_PRECISION",
      "outputs": [
        {
          "internalType": "uint256",
          "name": "",
          "type": "uint256"
        }
      ],
      "stateMutability": "view",
      "type": "function"
    },
    {
      "inputs": [],
      "name": "LOCK_TIME",
      "outputs": [
        {
          "internalType": "uint256",
          "name": "",
          "type": "uint256"
        }
      ],
      "stateMutability": "view",
      "type": "function"
    },
    {
      "inputs": [],
      "name": "USDT_TOKEN",
      "outputs": [
        {
          "internalType": "address",
          "name": "",
          "type": "address"
        }
      ],
      "stateMutability": "view",
      "type": "function"
    },
    {
      "inputs": [],
      "name": "cancelWithdrawRequest",
      "outputs": [],
      "stateMutability": "nonpayable",
      "type": "function"
    },
    {
      "inputs": [],
      "name": "capitalAgent",
      "outputs": [
        {
          "internalType": "address",
          "name": "",
          "type": "address"
        }
      ],
      "stateMutability": "view",
      "type": "function"
    },
    {
      "inputs": [],
      "name": "claimAssessor",
      "outputs": [
        {
          "internalType": "address",
          "name": "",
          "type": "address"
        }
      ],
      "stateMutability": "view",
      "type": "function"
    },
    {
      "inputs": [
        {
          "internalType": "address",
          "name": "_operator",
          "type": "address"
        },
        {
          "internalType": "address",
          "name": "_factory",
          "type": "address"
        },
        {
          "internalType": "address",
          "name": "_currency",
          "type": "address"
        }
      ],
      "name": "createRewarder",
      "outputs": [],
      "stateMutability": "nonpayable",
      "type": "function"
    },
    {
      "inputs": [
        {
          "internalType": "string",
          "name": "_name",
          "type": "string"
        },
        {
          "internalType": "string",
          "name": "_symbol",
          "type": "string"
        },
        {
          "internalType": "address",
          "name": "_factory",
          "type": "address"
        },
        {
          "internalType": "address",
          "name": "_currency",
          "type": "address"
        },
        {
          "internalType": "uint256",
          "name": "_rewardMultiplier",
          "type": "uint256"
        }
      ],
      "name": "createRiskPool",
      "outputs": [],
      "stateMutability": "nonpayable",
      "type": "function"
    },
    {
      "inputs": [
        {
          "internalType": "address",
          "name": "_owner",
          "type": "address"
        },
        {
          "internalType": "address",
          "name": "_factory",
          "type": "address"
        }
      ],
      "name": "createSyntheticSSIP",
      "outputs": [],
      "stateMutability": "nonpayable",
      "type": "function"
    },
    {
      "inputs": [
        {
          "internalType": "uint256",
          "name": "_amount",
          "type": "uint256"
        }
      ],
      "name": "enterInPool",
      "outputs": [],
      "stateMutability": "nonpayable",
      "type": "function"
    },
    {
      "inputs": [
        {
          "internalType": "address",
          "name": "_to",
          "type": "address"
        }
      ],
      "name": "getStakedAmountPerUser",
      "outputs": [
        {
          "internalType": "uint256",
          "name": "unoAmount",
          "type": "uint256"
        },
        {
          "internalType": "uint256",
          "name": "lpAmount",
          "type": "uint256"
        }
      ],
      "stateMutability": "view",
      "type": "function"
    },
    {
      "inputs": [],
      "name": "getTotalWithdrawPendingAmount",
      "outputs": [
        {
          "internalType": "uint256",
          "name": "",
          "type": "uint256"
        }
      ],
      "stateMutability": "view",
      "type": "function"
    },
    {
      "inputs": [
        {
          "internalType": "address",
          "name": "_user",
          "type": "address"
        }
      ],
      "name": "getWithdrawRequestPerUser",
      "outputs": [
        {
          "internalType": "uint256",
          "name": "pendingAmount",
          "type": "uint256"
        },
        {
          "internalType": "uint256",
          "name": "pendingAmountInUno",
          "type": "uint256"
        },
        {
          "internalType": "uint256",
          "name": "originUnoAmount",
          "type": "uint256"
        },
        {
          "internalType": "uint256",
          "name": "requestTime",
          "type": "uint256"
        }
      ],
      "stateMutability": "view",
      "type": "function"
    },
    {
      "inputs": [
        {
          "internalType": "address",
          "name": "_to",
          "type": "address"
        }
      ],
      "name": "harvest",
      "outputs": [],
      "stateMutability": "nonpayable",
      "type": "function"
    },
    {
      "inputs": [],
      "name": "leaveFromPending",
      "outputs": [],
      "stateMutability": "nonpayable",
      "type": "function"
    },
    {
      "inputs": [
        {
          "internalType": "uint256",
          "name": "_amount",
          "type": "uint256"
        }
      ],
      "name": "leaveFromPoolInPending",
      "outputs": [],
      "stateMutability": "nonpayable",
      "type": "function"
    },
    {
      "inputs": [
        {
          "internalType": "address",
          "name": "_from",
          "type": "address"
        },
        {
          "internalType": "address",
          "name": "_to",
          "type": "address"
        },
        {
          "internalType": "uint256",
          "name": "_amount",
          "type": "uint256"
        }
      ],
      "name": "lpTransfer",
      "outputs": [],
      "stateMutability": "nonpayable",
      "type": "function"
    },
    {
      "inputs": [],
      "name": "migrate",
      "outputs": [],
      "stateMutability": "nonpayable",
      "type": "function"
    },
    {
      "inputs": [],
      "name": "migrateTo",
      "outputs": [
        {
          "internalType": "address",
          "name": "",
          "type": "address"
        }
      ],
      "stateMutability": "view",
      "type": "function"
    },
    {
      "inputs": [],
      "name": "owner",
      "outputs": [
        {
          "internalType": "address",
          "name": "",
          "type": "address"
        }
      ],
      "stateMutability": "view",
      "type": "function"
    },
    {
      "inputs": [
        {
          "internalType": "address",
          "name": "_to",
          "type": "address"
        }
      ],
      "name": "pendingUno",
      "outputs": [
        {
          "internalType": "uint256",
          "name": "pending",
          "type": "uint256"
        }
      ],
      "stateMutability": "view",
      "type": "function"
    },
    {
      "inputs": [
        {
          "internalType": "address",
          "name": "_to",
          "type": "address"
        },
        {
          "internalType": "uint256",
          "name": "_amount",
          "type": "uint256"
        }
      ],
      "name": "policyClaim",
      "outputs": [],
      "stateMutability": "nonpayable",
      "type": "function"
    },
    {
      "inputs": [],
      "name": "poolInfo",
      "outputs": [
        {
          "internalType": "uint128",
          "name": "lastRewardBlock",
          "type": "uint128"
        },
        {
          "internalType": "uint128",
          "name": "accUnoPerShare",
          "type": "uint128"
        },
        {
          "internalType": "uint256",
          "name": "unoMultiplierPerBlock",
          "type": "uint256"
        }
      ],
      "stateMutability": "view",
      "type": "function"
    },
    {
      "inputs": [],
      "name": "rewarder",
      "outputs": [
        {
          "internalType": "address",
          "name": "",
          "type": "address"
        }
      ],
      "stateMutability": "view",
      "type": "function"
    },
    {
      "inputs": [],
      "name": "riskPool",
      "outputs": [
        {
          "internalType": "address",
          "name": "",
          "type": "address"
        }
      ],
      "stateMutability": "view",
      "type": "function"
    },
    {
      "inputs": [
        {
          "internalType": "address",
          "name": "_capitalAgent",
          "type": "address"
        }
      ],
      "name": "setCapitalAgent",
      "outputs": [],
      "stateMutability": "nonpayable",
      "type": "function"
    },
    {
      "inputs": [
        {
          "internalType": "address",
          "name": "_claimAssessor",
          "type": "address"
        }
      ],
      "name": "setClaimAssessor",
      "outputs": [],
      "stateMutability": "nonpayable",
      "type": "function"
    },
    {
      "inputs": [
        {
          "internalType": "address",
          "name": "_exchangeAgent",
          "type": "address"
        }
      ],
      "name": "setExchangeAgent",
      "outputs": [],
      "stateMutability": "nonpayable",
      "type": "function"
    },
    {
      "inputs": [
        {
          "internalType": "uint256",
          "name": "_lockTime",
          "type": "uint256"
        }
      ],
      "name": "setLockTime",
      "outputs": [],
      "stateMutability": "nonpayable",
      "type": "function"
    },
    {
      "inputs": [
        {
          "internalType": "address",
          "name": "_migrateTo",
          "type": "address"
        }
      ],
      "name": "setMigrateTo",
      "outputs": [],
      "stateMutability": "nonpayable",
      "type": "function"
    },
    {
      "inputs": [
        {
          "internalType": "uint256",
          "name": "_minLPCapital",
          "type": "uint256"
        }
      ],
      "name": "setMinLPCapital",
      "outputs": [],
      "stateMutability": "nonpayable",
      "type": "function"
    },
    {
      "inputs": [
        {
          "internalType": "uint256",
          "name": "_rewardMultiplier",
          "type": "uint256"
        }
      ],
      "name": "setRewardMultiplier",
      "outputs": [],
      "stateMutability": "nonpayable",
      "type": "function"
    },
    {
      "inputs": [],
      "name": "syntheticSSIP",
      "outputs": [
        {
          "internalType": "address",
          "name": "",
          "type": "address"
        }
      ],
      "stateMutability": "view",
      "type": "function"
    },
    {
      "inputs": [],
      "name": "updatePool",
      "outputs": [],
      "stateMutability": "nonpayable",
      "type": "function"
    },
    {
      "inputs": [
        {
          "internalType": "address",
          "name": "",
          "type": "address"
        }
      ],
      "name": "userInfo",
      "outputs": [
        {
          "internalType": "uint256",
          "name": "lastWithdrawTime",
          "type": "uint256"
        },
        {
          "internalType": "uint256",
          "name": "rewardDebt",
          "type": "uint256"
        },
        {
          "internalType": "uint256",
          "name": "amount",
          "type": "uint256"
        }
      ],
      "stateMutability": "view",
      "type": "function"
    }
  ],
  "transactionHash": "0x909f3dc26e49df682803ce04bec42d904fd3440e4d6001af2fd0fc23fd00451d",
  "args": [
    "0x5569BDF4e02cec3fE459796e3d0e741616029fA4",
    "0x5569BDF4e02cec3fE459796e3d0e741616029fA4",
    "0xf97Eb2a102Ba485020c9d2EA0ac4BAAC19092Ee9",
    "0x40c035016AD732b6cFce34c3F881040B6C6cf71E",
    "0x5371d874949DcdD3f2F6Cd0852a88140F77BfcEF"
  ],
  "solcInputHash": "850ee7ecdab72c01fbce930f264cd00b",
  "bytecode": "0x6080604052620151806008553480156200001857600080fd5b50604051620031c3380380620031c38339810160408190526200003b91620000bf565b6001600081905580546001600160a01b03199081166001600160a01b0397881617909155600380548216948716949094179093556002805484169486169490941790935560058054831691851691909117905560068054909116919092161790556200012e565b80516001600160a01b0381168114620000ba57600080fd5b919050565b600080600080600060a08688031215620000d7578081fd5b620000e286620000a2565b9450620000f260208701620000a2565b93506200010260408701620000a2565b92506200011260608701620000a2565b91506200012260808701620000a2565b90509295509295909350565b613085806200013e6000396000f3fe608060405234801561001057600080fd5b50600436106102115760003560e01c80638fd3ab8011610125578063c2eb8eb9116100ad578063dcc3e06e1161007c578063dcc3e06e14610422578063e08c5de11461042a578063e19e71681461043d578063e3161ddd14610445578063e3824a381461044d57610211565b8063c2eb8eb9146103f7578063c4e5dacf1461040a578063c6e8991514610412578063cd87c83c1461041a57610211565b8063a3bdd632116100f4578063a3bdd632146103a0578063ae04d45d146103a8578063af16d6e0146103bb578063ba619457146103ce578063bc8f8828146103ef57610211565b80638fd3ab801461035a5780639336f4061461036257806393b6b86c1461038557806398c6e7601461039857610211565b8063413d9c3a116101a857806377b330c91161017757806377b330c91461031c5780638395206c1461032457806389919b71146103375780638ba04b171461033f5780638da5cb5b1461035257610211565b8063413d9c3a146102c857806342198160146102dd5780635a2f3d09146102f2578063736ec05c1461030957610211565b806318a00d8e116101e457806318a00d8e146102645780631959a002146102775780631b600ca2146102a25780632e4a0142146102b557610211565b80630bd075a1146102165780630e5c011e1461022b5780630e9ae4201461023e578063157f71ed14610251575b600080fd5b6102296102243660046128bb565b610460565b005b6102296102393660046126d2565b6104b8565b61022961024c366004612793565b6104f1565b61022961025f3660046126d2565b6107e9565b6102296102723660046126d2565b61085b565b61028a6102853660046126d2565b6108f5565b60405161029993929190612f57565b60405180910390f35b6102296102b0366004612711565b610916565b6102296102c33660046127d3565b610abd565b6102d0610c88565b6040516102999190612f40565b6102e5610c8e565b604051610299919061299e565b6102fa610c9d565b60405161029993929190612ef9565b6102296103173660046126d2565b610cbb565b6102e5610d2d565b6102296103323660046128bb565b610d3c565b6102d0611035565b61022961034d36600461281e565b611041565b6102e5611230565b61022961123f565b6103756103703660046126d2565b6114b0565b6040516102999493929190612f6d565b6102296103933660046128bb565b6115ee565b6102e561169d565b6102d06116ac565b6102296103b63660046128bb565b61172e565b6102296103c9366004612749565b61177d565b6103e16103dc3660046126d2565b6118dc565b604051610299929190612f49565b610229611997565b6102296104053660046126d2565b611c75565b6102e5611ce7565b6102e5611cf6565b6102e5611d05565b6102e5611d14565b6102d06104383660046126d2565b611d23565b610229611e8d565b610229611f1e565b61022961045b3660046128bb565b6120b4565b6001546001600160a01b031633146104935760405162461bcd60e51b815260040161048a90612dea565b60405180910390fd5b600081116104b35760405162461bcd60e51b815260040161048a90612c6b565b600d55565b600260005414156104db5760405162461bcd60e51b815260040161048a90612e56565b60026000556104e9816123f4565b506001600055565b600260005414156105145760405162461bcd60e51b815260040161048a90612e56565b6002600055600a546001600160a01b031633146105435760405162461bcd60e51b815260040161048a90612ec4565b6007546001600160a01b0384811691161480159061056f57506007546001600160a01b03838116911614155b156107df5761057d836123f4565b6001600160a01b038084166000908152600b602052604080822060020154600a549151631665744b60e11b815290939190911690632ccae896906105c590889060040161299e565b60606040518083038186803b1580156105dd57600080fd5b505afa1580156105f1573d6000803e3d6000fd5b505050506040513d601f19601f82011682018060405250810190610615919061290e565b50509050828183610626919061300a565b10156106445760405162461bcd60e51b815260040161048a90612bc8565b600c54600090670de0b6b3a76400009061066e90600160801b90046001600160801b031685612feb565b6106789190612fcb565b600c54909150670de0b6b3a7640000906106a290600160801b90046001600160801b031686612feb565b6106ac9190612fcb565b6106b6908261300a565b6001600160a01b0387166000908152600b60205260409020600101556106dc848461300a565b6001600160a01b0387166000908152600b6020526040902060020155600c54670de0b6b3a76400009061071f90600160801b90046001600160801b031686612feb565b6107299190612fcb565b6001600160a01b0386166000908152600b602052604090206001015461074f9190612fb3565b6001600160a01b0386166000908152600b6020526040902060018101919091556002015461077e908590612fb3565b6001600160a01b038087166000818152600b602052604090819020600201939093559151908816907fabc254a3e8b16a8605ce22e693a6e493e375434011c1a7ff082d09e2a84ad121906107d3908890612f40565b60405180910390a35050505b5050600160005550565b6001546001600160a01b031633146108135760405162461bcd60e51b815260040161048a90612dea565b6001600160a01b0381166108395760405162461bcd60e51b815260040161048a90612ac6565b600280546001600160a01b0319166001600160a01b0392909216919091179055565b6001546001600160a01b031633146108855760405162461bcd60e51b815260040161048a90612dea565b6001600160a01b0381166108ab5760405162461bcd60e51b815260040161048a90612ac6565b600380546001600160a01b0319166001600160a01b0383169081179091556040517fbdca3ec80f8567aeaf30c6168374c798baf11902e9b21c2b8ba3186ffd13012290600090a250565b600b6020526000908152604090208054600182015460029092015490919083565b6001546001600160a01b031633146109405760405162461bcd60e51b815260040161048a90612dea565b600260005414156109635760405162461bcd60e51b815260040161048a90612e56565b60026000556001600160a01b03821661098e5760405162461bcd60e51b815260040161048a90612d10565b6001600160a01b0381166109b45760405162461bcd60e51b815260040161048a90612afd565b600a546001600160a01b03166109dc5760405162461bcd60e51b815260040161048a90612cd9565b600a54604051631a8a8b3b60e11b81526001600160a01b0380841692633515167692610a0e92879216906004016129b2565b602060405180830381600087803b158015610a2857600080fd5b505af1158015610a3c573d6000803e3d6000fd5b505050506040513d601f19601f82011682018060405250810190610a6091906126f5565b600780546001600160a01b0319166001600160a01b039283161790819055600a5460405190831692919091169030907e1129b9865226cebad4acf884618ae0607fff06758062b050509602db7065f090600090a450506001600055565b6002546001600160a01b03163314610ae75760405162461bcd60e51b815260040161048a90612dea565b60026000541415610b0a5760405162461bcd60e51b815260040161048a90612e56565b60026000556001600160a01b038216610b355760405162461bcd60e51b815260040161048a90612ac6565b60008111610b555760405162461bcd60e51b815260040161048a90612ca2565b600a5460405163172500a160e11b81526000916001600160a01b031690632e4a014290610b889086908690600401612a37565b602060405180830381600087803b158015610ba257600080fd5b505af1158015610bb6573d6000803e3d6000fd5b505050506040513d601f19601f82011682018060405250810190610bda91906128d3565b60065460405163167afee560e31b81529192506001600160a01b03169063b3d7f72890610c0b908490600401612f40565b600060405180830381600087803b158015610c2557600080fd5b505af1158015610c39573d6000803e3d6000fd5b50505050826001600160a01b03167f6420c9536b9a539410a930b1fd8d115dc296d8b71426dcc0ab64f2f736b7d59f82604051610c769190612f40565b60405180910390a25050600160005550565b60085481565b6006546001600160a01b031681565b600c54600d546001600160801b0380831692600160801b9004169083565b6001546001600160a01b03163314610ce55760405162461bcd60e51b815260040161048a90612dea565b6001600160a01b038116610d0b5760405162461bcd60e51b815260040161048a90612ac6565b600480546001600160a01b0319166001600160a01b0392909216919091179055565b6005546001600160a01b031681565b60026000541415610d5f5760405162461bcd60e51b815260040161048a90612e56565b6002600055610d6d336123f4565b600654604051630be304cf60e41b81526001600160a01b039091169063be304cf090610d9d908490600401612f40565b60206040518083038186803b158015610db557600080fd5b505afa158015610dc9573d6000803e3d6000fd5b505050506040513d601f19601f82011682018060405250810190610ded91906127fe565b610e095760405162461bcd60e51b815260040161048a90612d47565b336000908152600b6020908152604080832060020154600a548251627a9fd960e91b815292519194936001600160a01b039091169263f53fb2009260048083019392829003018186803b158015610e5f57600080fd5b505afa158015610e73573d6000803e3d6000fd5b505050506040513d601f19601f82011682018060405250810190610e9791906128d3565b600a54604051631665744b60e11b81529192506000916001600160a01b0390911690632ccae89690610ecd90339060040161299e565b60606040518083038186803b158015610ee557600080fd5b505afa158015610ef9573d6000803e3d6000fd5b505050506040513d601f19601f82011682018060405250810190610f1d919061290e565b5050905083670de0b6b3a7640000838386610f38919061300a565b610f429190612feb565b610f4c9190612fcb565b1015610f6a5760405162461bcd60e51b815260040161048a90612b34565b600a546040516323de6d9560e11b81526001600160a01b03909116906347bcdb2a90610f9c9033908890600401612a37565b600060405180830381600087803b158015610fb657600080fd5b505af1158015610fca573d6000803e3d6000fd5b5050336000818152600b602052604090819020429055600a5490516001600160a01b0390911693509091507f940a14c75c418e7230a2e65567722d2dda5a6713cf71b369bd0fa219fdc1ac5e90611022908890612f40565b60405180910390a3505060016000555050565b670de0b6b3a764000081565b6001546001600160a01b0316331461106b5760405162461bcd60e51b815260040161048a90612dea565b6002600054141561108e5760405162461bcd60e51b815260040161048a90612e56565b6002600055600a546001600160a01b0316156110bc5760405162461bcd60e51b815260040161048a90612bff565b604051630d98e31f60e01b81526001600160a01b03841690630d98e31f906110f2908a908a908a908a9030908a90600401612a78565b602060405180830381600087803b15801561110c57600080fd5b505af1158015611120573d6000803e3d6000fd5b505050506040513d601f19601f8201168201806040525081019061114491906126f5565b600a80546001600160a01b0319166001600160a01b03928316179055600c80546fffffffffffffffffffffffffffffffff1916436001600160801b0390811691909117169055600d82905560065460405163d914cd4b60e01b815291169063d914cd4b906111b690309060040161299e565b600060405180830381600087803b1580156111d057600080fd5b505af11580156111e4573d6000803e3d6000fd5b5050600a546040516001600160a01b0390911692503091507f184d7691bf4a73930a21086fa1bdf0ee3075421531a60730288325fd5838021790600090a3505060016000555050505050565b6001546001600160a01b031681565b600260005414156112625760405162461bcd60e51b815260040161048a90612e56565b60026000556004546001600160a01b031661128f5760405162461bcd60e51b815260040161048a90612ac6565b611298336123f4565b600a5460408051627a9fd960e91b815290516000926001600160a01b03169163f53fb200916004808301926020929190829003018186803b1580156112dc57600080fd5b505afa1580156112f0573d6000803e3d6000fd5b505050506040513d601f19601f8201168201806040525081019061131491906128d3565b336000908152600b60205260408120600281015460085491549394509261133b904261300a565b600a5460048054604051633613302f60e01b81529490931194506001600160a01b0391821693633613302f936113789333939116918791016129ef565b600060405180830381600087803b15801561139257600080fd5b505af11580156113a6573d6000803e3d6000fd5b50506006546001600160a01b0316915063b3d7f7289050670de0b6b3a76400006113d08686612feb565b6113da9190612fcb565b6040518263ffffffff1660e01b81526004016113f69190612f40565b600060405180830381600087803b15801561141057600080fd5b505af1158015611424573d6000803e3d6000fd5b50506004805460405163ed59344b60e01b81526001600160a01b03909116935063ed59344b9250611459913391879101612a50565b600060405180830381600087803b15801561147357600080fd5b505af1158015611487573d6000803e3d6000fd5b5050336000908152600b6020526040812060028101829055600190810182905590555050505050565b6000806000806000600a60009054906101000a90046001600160a01b03166001600160a01b031663f53fb2006040518163ffffffff1660e01b815260040160206040518083038186803b15801561150657600080fd5b505afa15801561151a573d6000803e3d6000fd5b505050506040513d601f19601f8201168201806040525081019061153e91906128d3565b600a54604051631665744b60e11b81529192506001600160a01b031690632ccae8969061156f90899060040161299e565b60606040518083038186803b15801561158757600080fd5b505afa15801561159b573d6000803e3d6000fd5b505050506040513d601f19601f820116820180604052508101906115bf919061290e565b9196509093509150670de0b6b3a76400006115da8287612feb565b6115e49190612fcb565b9350509193509193565b6001546001600160a01b031633146116185760405162461bcd60e51b815260040161048a90612dea565b600081116116385760405162461bcd60e51b815260040161048a90612e8d565b600a546040516324edae1b60e21b81526001600160a01b03909116906393b6b86c90611668908490600401612f40565b600060405180830381600087803b15801561168257600080fd5b505af1158015611696573d6000803e3d6000fd5b5050505050565b6004546001600160a01b031681565b600a546040805163e95aa8d360e01b815290516000926001600160a01b03169163e95aa8d3916004808301926020929190829003018186803b1580156116f157600080fd5b505afa158015611705573d6000803e3d6000fd5b505050506040513d601f19601f8201168201806040525081019061172991906128d3565b905090565b6001546001600160a01b031633146117585760405162461bcd60e51b815260040161048a90612dea565b600081116117785760405162461bcd60e51b815260040161048a90612d7c565b600855565b6001546001600160a01b031633146117a75760405162461bcd60e51b815260040161048a90612dea565b600260005414156117ca5760405162461bcd60e51b815260040161048a90612e56565b60026000556001600160a01b0382166117f55760405162461bcd60e51b815260040161048a90612e21565b6040516369ee745160e01b81526001600160a01b038316906369ee745190611825908690859030906004016129cc565b602060405180830381600087803b15801561183f57600080fd5b505af1158015611853573d6000803e3d6000fd5b505050506040513d601f19601f8201168201806040525081019061187791906126f5565b600980546001600160a01b0319166001600160a01b03928316179081905560405191169030907f6c409a36847a0a3870deae25f656f4300d45957d2643fc27faab145e19cfcf1b906118ca90859061299e565b60405180910390a35050600160005550565b6001600160a01b038082166000908152600b6020908152604080832060020154600a548251627a9fd960e91b81529251949591948694919092169263f53fb2009260048083019392829003018186803b15801561193857600080fd5b505afa15801561194c573d6000803e3d6000fd5b505050506040513d601f19601f8201168201806040525081019061197091906128d3565b9050670de0b6b3a76400006119858284612feb565b61198f9190612fcb565b925050915091565b600260005414156119ba5760405162461bcd60e51b815260040161048a90612e56565b60026000908155600854338252600b6020526040909120546119dc904261300a565b10156119fa5760405162461bcd60e51b815260040161048a90612c34565b611a03336123f4565b336000818152600b602052604080822060020154600a549151631665744b60e11b8152909383926001600160a01b031691632ccae89691611a469160040161299e565b60606040518083038186803b158015611a5e57600080fd5b505afa158015611a72573d6000803e3d6000fd5b505050506040513d601f19601f82011682018060405250810190611a96919061290e565b600654604051632da26abb60e11b81529395509093506001600160a01b031691635b44d5769150611acb908490600401612f40565b600060405180830381600087803b158015611ae557600080fd5b505af1158015611af9573d6000803e3d6000fd5b5050600c5460009250670de0b6b3a76400009150611b2790600160801b90046001600160801b031686612feb565b611b319190612fcb565b600c54909150670de0b6b3a764000090611b5b90600160801b90046001600160801b031685612feb565b611b659190612fcb565b611b6f908261300a565b336000818152600b602052604080822060010193909355600a54925163b20ecd1560e01b8152909283926001600160a01b039091169163b20ecd1591611bb79160040161299e565b6040805180830381600087803b158015611bd057600080fd5b505af1158015611be4573d6000803e3d6000fd5b505050506040513d601f19601f82011682018060405250810190611c0891906128eb565b9092509050611c17828761300a565b336000818152600b6020526040908190206002019290925590517fb307c5ea066d3a6d37e8de2f87ccfe31b6a3852e4df8d60a6d70b93b2f8a2ed590611c609085908590612f49565b60405180910390a25050600160005550505050565b6001546001600160a01b03163314611c9f5760405162461bcd60e51b815260040161048a90612dea565b6001600160a01b038116611cc55760405162461bcd60e51b815260040161048a90612ac6565b600680546001600160a01b0319166001600160a01b0392909216919091179055565b600a546001600160a01b031681565b6002546001600160a01b031681565b6007546001600160a01b031681565b6009546001600160a01b031681565b600080600a60009054906101000a90046001600160a01b03166001600160a01b03166318160ddd6040518163ffffffff1660e01b815260040160206040518083038186803b158015611d7457600080fd5b505afa158015611d88573d6000803e3d6000fd5b505050506040513d601f19601f82011682018060405250810190611dac91906128d3565b600c549091506001600160801b03600160801b82048116911643118015611dd257508115155b15611e3157600c54600090611df0906001600160801b03164361300a565b600d54909150600090611e039083612feb565b905083611e18670de0b6b3a764000083612feb565b611e229190612fcb565b611e2c9084612f88565b925050505b6001600160a01b0384166000908152600b602052604090206002810154600190910154670de0b6b3a7640000611e706001600160801b03851684612feb565b611e7a9190612fcb565b611e84919061300a565b95945050505050565b60026000541415611eb05760405162461bcd60e51b815260040161048a90612e56565b6002600055600a546040516306e6829960e51b81526001600160a01b039091169063dcd0532090611ee590339060040161299e565b600060405180830381600087803b158015611eff57600080fd5b505af1158015611f13573d6000803e3d6000fd5b505060016000555050565b600c546001600160801b03164311156120b257600a54604080516318160ddd60e01b815290516000926001600160a01b0316916318160ddd916004808301926020929190829003018186803b158015611f7657600080fd5b505afa158015611f8a573d6000803e3d6000fd5b505050506040513d601f19601f82011682018060405250810190611fae91906128d3565b9050801561203e57600c54600090611fcf906001600160801b03164361300a565b600d54909150600090611fe29083612feb565b905082611ff7670de0b6b3a764000083612feb565b6120019190612fcb565b600c5461201e9190600160801b90046001600160801b0316612f88565b600c80546001600160801b03928316600160801b02921691909117905550505b600c80546fffffffffffffffffffffffffffffffff1916436001600160801b0390811691909117918290556040517f982b813c7d00a9ffce9441ba40f429b2e4a35068d75532f496d0c63585c2fa68926120a892818116928692600160801b900490911690612f1d565b60405180910390a1505b565b600260005414156120d75760405162461bcd60e51b815260040161048a90612e56565b6002600055806120f95760405162461bcd60e51b815260040161048a90612db3565b612101611f1e565b600a546040805163e5a6b10f60e01b815290516000926001600160a01b03169163e5a6b10f916004808301926020929190829003018186803b15801561214657600080fd5b505afa15801561215a573d6000803e3d6000fd5b505050506040513d601f19601f8201168201806040525081019061217e91906126f5565b90506000600a60009054906101000a90046001600160a01b03166001600160a01b031663f53fb2006040518163ffffffff1660e01b815260040160206040518083038186803b1580156121d057600080fd5b505afa1580156121e4573d6000803e3d6000fd5b505050506040513d601f19601f8201168201806040525081019061220891906128d3565b600a5490915061222590839033906001600160a01b031686612586565b600a54604051637e348b7d60e01b81526001600160a01b0390911690637e348b7d906122579033908790600401612a37565b600060405180830381600087803b15801561227157600080fd5b505af1158015612285573d6000803e3d6000fd5b5050600c54670de0b6b3a76400009250839150600160801b90046001600160801b03166122b28684612feb565b6122bc9190612feb565b6122c69190612fcb565b6122d09190612fcb565b336000908152600b60205260409020600101546122ed9190612fb3565b336000908152600b60205260409020600101558061231384670de0b6b3a7640000612feb565b61231d9190612fcb565b336000908152600b602052604090206002015461233a9190612fb3565b336000908152600b602052604090819020600201919091556006549051638be5a39f60e01b81526001600160a01b0390911690638be5a39f90612381908690600401612f40565b600060405180830381600087803b15801561239b57600080fd5b505af11580156123af573d6000803e3d6000fd5b5050600a546040516001600160a01b0390911692503391507fd3dba7b5565b16b7749db7d1938410a636e3c7a6ea46ed8ce7e259e19f2f3b9f906118ca908790612f40565b6123fc611f1e565b6001600160a01b0381166000908152600b6020526040812060020154600c54909190670de0b6b3a76400009061244290600160801b90046001600160801b031684612feb565b61244c9190612fcb565b6001600160a01b0384166000908152600b602052604081206001015491925090612476908361300a565b336000908152600b60205260408120600101849055600954919250906001600160a01b0316158015906124a857508115155b156125345760095460405163186e465160e31b81526001600160a01b039091169063c3723288906124df9088908690600401612a37565b602060405180830381600087803b1580156124f957600080fd5b505af115801561250d573d6000803e3d6000fd5b505050506040513d601f19601f8201168201806040525081019061253191906128d3565b90505b846001600160a01b0316336001600160a01b03167fa0306f61d3fafe13787b78e276cb6b644382854a66cb46daae14227d3ec26797836040516125779190612f40565b60405180910390a35050505050565b600080856001600160a01b03166323b872dd8686866040516024016125ad93929190612a13565b6040516020818303038152906040529060e01b6020820180517bffffffffffffffffffffffffffffffffffffffffffffffffffffffff83818316178352505050506040516125fb9190612965565b6000604051808303816000865af19150503d8060008114612638576040519150601f19603f3d011682016040523d82523d6000602084013e61263d565b606091505b509150915081801561266757508051158061266757508080602001905181019061266791906127fe565b6126835760405162461bcd60e51b815260040161048a90612b6b565b505050505050565b60008083601f84011261269c578182fd5b50813567ffffffffffffffff8111156126b3578182fd5b6020830191508360208285010111156126cb57600080fd5b9250929050565b6000602082840312156126e3578081fd5b81356126ee81613037565b9392505050565b600060208284031215612706578081fd5b81516126ee81613037565b60008060408385031215612723578081fd5b823561272e81613037565b9150602083013561273e81613037565b809150509250929050565b60008060006060848603121561275d578081fd5b833561276881613037565b9250602084013561277881613037565b9150604084013561278881613037565b809150509250925092565b6000806000606084860312156127a7578283fd5b83356127b281613037565b925060208401356127c281613037565b929592945050506040919091013590565b600080604083850312156127e5578182fd5b82356127f081613037565b946020939093013593505050565b60006020828403121561280f578081fd5b815180151581146126ee578182fd5b600080600080600080600060a0888a031215612838578283fd5b873567ffffffffffffffff8082111561284f578485fd5b61285b8b838c0161268b565b909950975060208a0135915080821115612873578485fd5b506128808a828b0161268b565b909650945050604088013561289481613037565b925060608801356128a481613037565b809250506080880135905092959891949750929550565b6000602082840312156128cc578081fd5b5035919050565b6000602082840312156128e4578081fd5b5051919050565b600080604083850312156128fd578182fd5b505080516020909101519092909150565b600080600060608486031215612922578283fd5b8351925060208401519150604084015190509250925092565b60008284528282602086013780602084860101526020601f19601f85011685010190509392505050565b60008251815b81811015612985576020818601810151858301520161296b565b818111156129935782828501525b509190910192915050565b6001600160a01b0391909116815260200190565b6001600160a01b0392831681529116602082015260400190565b6001600160a01b0393841681529183166020830152909116604082015260600190565b6001600160a01b039384168152919092166020820152901515604082015260600190565b6001600160a01b039384168152919092166020820152604081019190915260600190565b6001600160a01b03929092168252602082015260400190565b6001600160a01b03929092168252602082015260606040820181905260009082015260800190565b600060808252612a8c60808301888a61293b565b8281036020840152612a9f81878961293b565b9150506001600160a01b038085166040840152808416606084015250979650505050505050565b60208082526013908201527f556e6f52653a207a65726f206164647265737300000000000000000000000000604082015260600190565b6020808252601a908201527f556e6f52653a7a65726f20666163746f72792061646472657373000000000000604082015260600190565b6020808252601f908201527f556e6f52653a20776974686472617720616d6f756e74206f766572666c6f7700604082015260600190565b60208082526031908201527f5472616e7366657248656c7065723a3a7472616e7366657246726f6d3a20747260408201527f616e7366657246726f6d206661696c6564000000000000000000000000000000606082015260800190565b60208082526017908201527f556e6f52653a2062616c616e6365206f766572666c6f77000000000000000000604082015260600190565b6020808252818101527f556e6f52653a207269736b20706f6f6c206372656174656420616c7265616479604082015260600190565b60208082526012908201527f556e6f52653a204c6f636b65642074696d650000000000000000000000000000604082015260600190565b60208082526011908201527f556e6f52653a207a65726f2076616c7565000000000000000000000000000000604082015260600190565b60208082526012908201527f556e6f52653a207a65726f20616d6f756e740000000000000000000000000000604082015260600190565b6020808252601b908201527f556e6f52653a7a65726f204c5020746f6b656e20616464726573730000000000604082015260600190565b60208082526019908201527f556e6f52653a207a65726f206f776e6572206164647265737300000000000000604082015260600190565b6020808252818101527f556e6f52653a206d696e696d756d206361706974616c20756e646572666c6f77604082015260600190565b6020808252601f908201527f556e6f52653a206e6f7420616c6c6f77207a65726f206c6f636b2074696d6500604082015260600190565b60208082526011908201527f556e6f52653a205a45524f2056616c7565000000000000000000000000000000604082015260600190565b60208082526010908201527f556e6f52653a20466f7262696464656e00000000000000000000000000000000604082015260600190565b6020808252818101527f556e6f52653a20726577617264657220666163746f7279206e6f206578697374604082015260600190565b6020808252601f908201527f5265656e7472616e637947756172643a207265656e7472616e742063616c6c00604082015260600190565b6020808252601b908201527f556e6f52653a206e6f7420616c6c6f77207a65726f2076616c75650000000000604082015260600190565b6020808252818101527f556e6f52653a206e6f7420616c6c6f77206f7468657273207472616e73666572604082015260600190565b6001600160801b039384168152919092166020820152604081019190915260600190565b6001600160801b0393841681526020810192909252909116604082015260600190565b90815260200190565b918252602082015260400190565b9283526020830191909152604082015260600190565b93845260208401929092526040830152606082015260800190565b60006001600160801b03808316818516808303821115612faa57612faa613021565b01949350505050565b60008219821115612fc657612fc6613021565b500190565b600082612fe657634e487b7160e01b81526012600452602481fd5b500490565b600081600019048311821515161561300557613005613021565b500290565b60008282101561301c5761301c613021565b500390565b634e487b7160e01b600052601160045260246000fd5b6001600160a01b038116811461304c57600080fd5b5056fea2646970667358221220b986a9eaca14f0aec4206aaa716325b79502815e0ab797579dd7b67ae12e0a1a64736f6c63430008000033",
  "devdoc": {
    "kind": "dev",
    "methods": {
      "createRiskPool(string,string,address,address,uint256)": {
        "details": "create Risk pool with UNO from SSIP owner"
      },
      "getTotalWithdrawPendingAmount()": {
        "details": "get total withdraw request amount in pending for the risk pool in UNO"
      },
      "getWithdrawRequestPerUser(address)": {
        "details": "get withdraw request amount in pending per user in UNO"
      },
      "leaveFromPending()": {
        "details": "user can submit claim again and receive his funds into his wallet after 10 days since last WR."
      },
      "leaveFromPoolInPending(uint256)": {
        "details": "WR will be in pending for 10 days at least"
      }
    },
    "version": 1
  },
  "userdoc": {
    "kind": "user",
    "methods": {},
    "version": 1
  },
  "storageLayout": {
    "storage": [
      {
        "astId": 114,
        "contract": "contracts/SingleSidedInsurancePool.sol:SingleSidedInsurancePool",
        "label": "_status",
        "offset": 0,
        "slot": "0",
        "type": "t_uint256"
      },
      {
        "astId": 7928,
        "contract": "contracts/SingleSidedInsurancePool.sol:SingleSidedInsurancePool",
        "label": "owner",
        "offset": 0,
        "slot": "1",
        "type": "t_address"
      },
      {
        "astId": 7930,
        "contract": "contracts/SingleSidedInsurancePool.sol:SingleSidedInsurancePool",
        "label": "claimAssessor",
        "offset": 0,
        "slot": "2",
        "type": "t_address"
      },
      {
        "astId": 7932,
        "contract": "contracts/SingleSidedInsurancePool.sol:SingleSidedInsurancePool",
        "label": "exchangeAgent",
        "offset": 0,
        "slot": "3",
        "type": "t_address"
      },
      {
        "astId": 7934,
        "contract": "contracts/SingleSidedInsurancePool.sol:SingleSidedInsurancePool",
        "label": "migrateTo",
        "offset": 0,
        "slot": "4",
        "type": "t_address"
      },
      {
        "astId": 7936,
        "contract": "contracts/SingleSidedInsurancePool.sol:SingleSidedInsurancePool",
        "label": "USDT_TOKEN",
        "offset": 0,
        "slot": "5",
        "type": "t_address"
      },
      {
        "astId": 7938,
        "contract": "contracts/SingleSidedInsurancePool.sol:SingleSidedInsurancePool",
        "label": "capitalAgent",
        "offset": 0,
        "slot": "6",
        "type": "t_address"
      },
      {
        "astId": 7940,
        "contract": "contracts/SingleSidedInsurancePool.sol:SingleSidedInsurancePool",
        "label": "syntheticSSIP",
        "offset": 0,
        "slot": "7",
        "type": "t_address"
      },
      {
        "astId": 7943,
        "contract": "contracts/SingleSidedInsurancePool.sol:SingleSidedInsurancePool",
        "label": "LOCK_TIME",
        "offset": 0,
        "slot": "8",
        "type": "t_uint256"
      },
      {
        "astId": 7948,
        "contract": "contracts/SingleSidedInsurancePool.sol:SingleSidedInsurancePool",
        "label": "rewarder",
        "offset": 0,
        "slot": "9",
        "type": "t_address"
      },
      {
        "astId": 7951,
        "contract": "contracts/SingleSidedInsurancePool.sol:SingleSidedInsurancePool",
        "label": "riskPool",
        "offset": 0,
        "slot": "10",
        "type": "t_address"
      },
      {
        "astId": 7970,
        "contract": "contracts/SingleSidedInsurancePool.sol:SingleSidedInsurancePool",
        "label": "userInfo",
        "offset": 0,
        "slot": "11",
        "type": "t_mapping(t_address,t_struct(UserInfo)7965_storage)"
      },
      {
        "astId": 7973,
        "contract": "contracts/SingleSidedInsurancePool.sol:SingleSidedInsurancePool",
        "label": "poolInfo",
        "offset": 0,
        "slot": "12",
        "type": "t_struct(PoolInfo)7958_storage"
      }
    ],
    "types": {
      "t_address": {
        "encoding": "inplace",
        "label": "address",
        "numberOfBytes": "20"
      },
      "t_mapping(t_address,t_struct(UserInfo)7965_storage)": {
        "encoding": "mapping",
        "key": "t_address",
        "label": "mapping(address => struct SingleSidedInsurancePool.UserInfo)",
        "numberOfBytes": "32",
        "value": "t_struct(UserInfo)7965_storage"
      },
      "t_struct(PoolInfo)7958_storage": {
        "encoding": "inplace",
        "label": "struct SingleSidedInsurancePool.PoolInfo",
        "members": [
          {
            "astId": 7953,
            "contract": "contracts/SingleSidedInsurancePool.sol:SingleSidedInsurancePool",
            "label": "lastRewardBlock",
            "offset": 0,
            "slot": "0",
            "type": "t_uint128"
          },
          {
            "astId": 7955,
            "contract": "contracts/SingleSidedInsurancePool.sol:SingleSidedInsurancePool",
            "label": "accUnoPerShare",
            "offset": 16,
            "slot": "0",
            "type": "t_uint128"
          },
          {
            "astId": 7957,
            "contract": "contracts/SingleSidedInsurancePool.sol:SingleSidedInsurancePool",
            "label": "unoMultiplierPerBlock",
            "offset": 0,
            "slot": "1",
            "type": "t_uint256"
          }
        ],
        "numberOfBytes": "64"
      },
      "t_struct(UserInfo)7965_storage": {
        "encoding": "inplace",
        "label": "struct SingleSidedInsurancePool.UserInfo",
        "members": [
          {
            "astId": 7960,
            "contract": "contracts/SingleSidedInsurancePool.sol:SingleSidedInsurancePool",
            "label": "lastWithdrawTime",
            "offset": 0,
            "slot": "0",
            "type": "t_uint256"
          },
          {
            "astId": 7962,
            "contract": "contracts/SingleSidedInsurancePool.sol:SingleSidedInsurancePool",
            "label": "rewardDebt",
            "offset": 0,
            "slot": "1",
            "type": "t_uint256"
          },
          {
            "astId": 7964,
            "contract": "contracts/SingleSidedInsurancePool.sol:SingleSidedInsurancePool",
            "label": "amount",
            "offset": 0,
            "slot": "2",
            "type": "t_uint256"
          }
        ],
        "numberOfBytes": "96"
      },
      "t_uint128": {
        "encoding": "inplace",
        "label": "uint128",
        "numberOfBytes": "16"
      },
      "t_uint256": {
        "encoding": "inplace",
        "label": "uint256",
        "numberOfBytes": "32"
      }
    }
  }
}