{
  "address": "0xa4F355fc1dE69AD9718dC5b01ec7Fd7E78ac2248",
  "abi": [
    {
      "inputs": [
        {
          "internalType": "address",
          "name": "_owner",
          "type": "address"
        },
        {
          "internalType": "address",
          "name": "_claimAssessor",
          "type": "address"
        },
        {
          "internalType": "address",
          "name": "_exchangeAgent",
          "type": "address"
        },
        {
          "internalType": "address",
          "name": "_USDT_TOKEN",
          "type": "address"
        },
        {
          "internalType": "address",
          "name": "_capitalAgent",
          "type": "address"
        }
      ],
      "stateMutability": "nonpayable",
      "type": "constructor"
    },
    {
      "anonymous": false,
      "inputs": [
        {
          "indexed": true,
          "internalType": "address",
          "name": "_user",
          "type": "address"
        },
        {
          "indexed": true,
          "internalType": "address",
          "name": "_receiver",
          "type": "address"
        },
        {
          "indexed": false,
          "internalType": "uint256",
          "name": "_amount",
          "type": "uint256"
        }
      ],
      "name": "Harvest",
      "type": "event"
    },
    {
      "anonymous": false,
      "inputs": [
        {
          "indexed": true,
          "internalType": "address",
          "name": "_staker",
          "type": "address"
        },
        {
          "indexed": true,
          "internalType": "address",
          "name": "_pool",
          "type": "address"
        },
        {
          "indexed": false,
          "internalType": "uint256",
          "name": "_requestAmount",
          "type": "uint256"
        }
      ],
      "name": "LeftPool",
      "type": "event"
    },
    {
      "anonymous": false,
      "inputs": [
        {
          "indexed": true,
          "internalType": "address",
          "name": "_user",
          "type": "address"
        },
        {
          "indexed": false,
          "internalType": "uint256",
          "name": "_cancelAmount",
          "type": "uint256"
        },
        {
          "indexed": false,
          "internalType": "uint256",
          "name": "_cancelAmountInUno",
          "type": "uint256"
        }
      ],
      "name": "LogCancelWithdrawRequest",
      "type": "event"
    },
    {
      "anonymous": false,
      "inputs": [
        {
          "indexed": true,
          "internalType": "address",
          "name": "_SSIP",
          "type": "address"
        },
        {
          "indexed": true,
          "internalType": "address",
          "name": "_rewarder",
          "type": "address"
        },
        {
          "indexed": false,
          "internalType": "address",
          "name": "_currency",
          "type": "address"
        }
      ],
      "name": "LogCreateRewarder",
      "type": "event"
    },
    {
      "anonymous": false,
      "inputs": [
        {
          "indexed": true,
          "internalType": "address",
          "name": "_SSIP",
          "type": "address"
        },
        {
          "indexed": true,
          "internalType": "address",
          "name": "_syntheticSSIP",
          "type": "address"
        },
        {
          "indexed": true,
          "internalType": "address",
          "name": "_lpToken",
          "type": "address"
        }
      ],
      "name": "LogCreateSyntheticSSIP",
      "type": "event"
    },
    {
      "anonymous": false,
      "inputs": [
        {
          "indexed": true,
          "internalType": "address",
          "name": "_user",
          "type": "address"
        },
        {
          "indexed": false,
          "internalType": "uint256",
          "name": "_withdrawLpAmount",
          "type": "uint256"
        },
        {
          "indexed": false,
          "internalType": "uint256",
          "name": "_withdrawUnoAmount",
          "type": "uint256"
        }
      ],
      "name": "LogLeaveFromPendingSSIP",
      "type": "event"
    },
    {
      "anonymous": false,
      "inputs": [
        {
          "indexed": true,
          "internalType": "address",
          "name": "_from",
          "type": "address"
        },
        {
          "indexed": true,
          "internalType": "address",
          "name": "_to",
          "type": "address"
        },
        {
          "indexed": false,
          "internalType": "uint256",
          "name": "_amount",
          "type": "uint256"
        }
      ],
      "name": "LogLpTransferInSSIP",
      "type": "event"
    },
    {
      "anonymous": false,
      "inputs": [
        {
          "indexed": true,
          "internalType": "address",
          "name": "_exchangeAgent",
          "type": "address"
        }
      ],
      "name": "LogSetExchangeAgent",
      "type": "event"
    },
    {
      "anonymous": false,
      "inputs": [
        {
          "indexed": false,
          "internalType": "uint128",
          "name": "_lastRewardBlock",
          "type": "uint128"
        },
        {
          "indexed": false,
          "internalType": "uint256",
          "name": "_lpSupply",
          "type": "uint256"
        },
        {
          "indexed": false,
          "internalType": "uint256",
          "name": "_accUnoPerShare",
          "type": "uint256"
        }
      ],
      "name": "LogUpdatePool",
      "type": "event"
    },
    {
      "anonymous": false,
      "inputs": [
        {
          "indexed": true,
          "internalType": "address",
          "name": "_user",
          "type": "address"
        },
        {
          "indexed": false,
          "internalType": "uint256",
          "name": "_claimAmount",
          "type": "uint256"
        }
      ],
      "name": "PolicyClaim",
      "type": "event"
    },
    {
      "anonymous": false,
      "inputs": [
        {
          "indexed": true,
          "internalType": "address",
          "name": "_SSIP",
          "type": "address"
        },
        {
          "indexed": true,
          "internalType": "address",
          "name": "_pool",
          "type": "address"
        }
      ],
      "name": "RiskPoolCreated",
      "type": "event"
    },
    {
      "anonymous": false,
      "inputs": [
        {
          "indexed": true,
          "internalType": "address",
          "name": "_staker",
          "type": "address"
        },
        {
          "indexed": true,
          "internalType": "address",
          "name": "_pool",
          "type": "address"
        },
        {
          "indexed": false,
          "internalType": "uint256",
          "name": "_amount",
          "type": "uint256"
        }
      ],
      "name": "StakedInPool",
      "type": "event"
    },
    {
      "inputs": [],
      "name": "ACC_UNO_PRECISION",
      "outputs": [
        {
          "internalType": "uint256",
          "name": "",
          "type": "uint256"
        }
      ],
      "stateMutability": "view",
      "type": "function"
    },
    {
      "inputs": [],
      "name": "LOCK_TIME",
      "outputs": [
        {
          "internalType": "uint256",
          "name": "",
          "type": "uint256"
        }
      ],
      "stateMutability": "view",
      "type": "function"
    },
    {
      "inputs": [],
      "name": "USDT_TOKEN",
      "outputs": [
        {
          "internalType": "address",
          "name": "",
          "type": "address"
        }
      ],
      "stateMutability": "view",
      "type": "function"
    },
    {
      "inputs": [],
      "name": "cancelWithdrawRequest",
      "outputs": [],
      "stateMutability": "nonpayable",
      "type": "function"
    },
    {
      "inputs": [],
      "name": "capitalAgent",
      "outputs": [
        {
          "internalType": "address",
          "name": "",
          "type": "address"
        }
      ],
      "stateMutability": "view",
      "type": "function"
    },
    {
      "inputs": [],
      "name": "claimAssessor",
      "outputs": [
        {
          "internalType": "address",
          "name": "",
          "type": "address"
        }
      ],
      "stateMutability": "view",
      "type": "function"
    },
    {
      "inputs": [
        {
          "internalType": "address",
          "name": "_operator",
          "type": "address"
        },
        {
          "internalType": "address",
          "name": "_factory",
          "type": "address"
        },
        {
          "internalType": "address",
          "name": "_currency",
          "type": "address"
        }
      ],
      "name": "createRewarder",
      "outputs": [],
      "stateMutability": "nonpayable",
      "type": "function"
    },
    {
      "inputs": [
        {
          "internalType": "string",
          "name": "_name",
          "type": "string"
        },
        {
          "internalType": "string",
          "name": "_symbol",
          "type": "string"
        },
        {
          "internalType": "address",
          "name": "_factory",
          "type": "address"
        },
        {
          "internalType": "address",
          "name": "_currency",
          "type": "address"
        },
        {
          "internalType": "uint256",
          "name": "_rewardMultiplier",
          "type": "uint256"
        }
      ],
      "name": "createRiskPool",
      "outputs": [],
      "stateMutability": "nonpayable",
      "type": "function"
    },
    {
      "inputs": [
        {
          "internalType": "address",
          "name": "_owner",
          "type": "address"
        },
        {
          "internalType": "address",
          "name": "_factory",
          "type": "address"
        }
      ],
      "name": "createSyntheticSSIP",
      "outputs": [],
      "stateMutability": "nonpayable",
      "type": "function"
    },
    {
      "inputs": [
        {
          "internalType": "uint256",
          "name": "_amount",
          "type": "uint256"
        }
      ],
      "name": "enterInPool",
      "outputs": [],
      "stateMutability": "nonpayable",
      "type": "function"
    },
    {
      "inputs": [
        {
          "internalType": "address",
          "name": "_to",
          "type": "address"
        }
      ],
      "name": "getStakedAmountPerUser",
      "outputs": [
        {
          "internalType": "uint256",
          "name": "unoAmount",
          "type": "uint256"
        },
        {
          "internalType": "uint256",
          "name": "lpAmount",
          "type": "uint256"
        }
      ],
      "stateMutability": "view",
      "type": "function"
    },
    {
      "inputs": [],
      "name": "getTotalWithdrawPendingAmount",
      "outputs": [
        {
          "internalType": "uint256",
          "name": "",
          "type": "uint256"
        }
      ],
      "stateMutability": "view",
      "type": "function"
    },
    {
      "inputs": [
        {
          "internalType": "address",
          "name": "_user",
          "type": "address"
        }
      ],
      "name": "getWithdrawRequestPerUser",
      "outputs": [
        {
          "internalType": "uint256",
          "name": "pendingAmount",
          "type": "uint256"
        },
        {
          "internalType": "uint256",
          "name": "pendingAmountInUno",
          "type": "uint256"
        },
        {
          "internalType": "uint256",
          "name": "originUnoAmount",
          "type": "uint256"
        },
        {
          "internalType": "uint256",
          "name": "requestTime",
          "type": "uint256"
        }
      ],
      "stateMutability": "view",
      "type": "function"
    },
    {
      "inputs": [
        {
          "internalType": "address",
          "name": "_to",
          "type": "address"
        }
      ],
      "name": "harvest",
      "outputs": [],
      "stateMutability": "nonpayable",
      "type": "function"
    },
    {
      "inputs": [],
      "name": "leaveFromPending",
      "outputs": [],
      "stateMutability": "nonpayable",
      "type": "function"
    },
    {
      "inputs": [
        {
          "internalType": "uint256",
          "name": "_amount",
          "type": "uint256"
        }
      ],
      "name": "leaveFromPoolInPending",
      "outputs": [],
      "stateMutability": "nonpayable",
      "type": "function"
    },
    {
      "inputs": [
        {
          "internalType": "address",
          "name": "_from",
          "type": "address"
        },
        {
          "internalType": "address",
          "name": "_to",
          "type": "address"
        },
        {
          "internalType": "uint256",
          "name": "_amount",
          "type": "uint256"
        }
      ],
      "name": "lpTransfer",
      "outputs": [],
      "stateMutability": "nonpayable",
      "type": "function"
    },
    {
      "inputs": [],
      "name": "migrate",
      "outputs": [],
      "stateMutability": "nonpayable",
      "type": "function"
    },
    {
      "inputs": [],
      "name": "migrateTo",
      "outputs": [
        {
          "internalType": "address",
          "name": "",
          "type": "address"
        }
      ],
      "stateMutability": "view",
      "type": "function"
    },
    {
      "inputs": [],
      "name": "owner",
      "outputs": [
        {
          "internalType": "address",
          "name": "",
          "type": "address"
        }
      ],
      "stateMutability": "view",
      "type": "function"
    },
    {
      "inputs": [
        {
          "internalType": "address",
          "name": "_to",
          "type": "address"
        }
      ],
      "name": "pendingUno",
      "outputs": [
        {
          "internalType": "uint256",
          "name": "pending",
          "type": "uint256"
        }
      ],
      "stateMutability": "view",
      "type": "function"
    },
    {
      "inputs": [
        {
          "internalType": "address",
          "name": "_to",
          "type": "address"
        },
        {
          "internalType": "uint256",
          "name": "_amount",
          "type": "uint256"
        }
      ],
      "name": "policyClaim",
      "outputs": [],
      "stateMutability": "nonpayable",
      "type": "function"
    },
    {
      "inputs": [],
      "name": "poolInfo",
      "outputs": [
        {
          "internalType": "uint128",
          "name": "lastRewardBlock",
          "type": "uint128"
        },
        {
          "internalType": "uint128",
          "name": "accUnoPerShare",
          "type": "uint128"
        },
        {
          "internalType": "uint256",
          "name": "unoMultiplierPerBlock",
          "type": "uint256"
        }
      ],
      "stateMutability": "view",
      "type": "function"
    },
    {
      "inputs": [],
      "name": "rewarder",
      "outputs": [
        {
          "internalType": "address",
          "name": "",
          "type": "address"
        }
      ],
      "stateMutability": "view",
      "type": "function"
    },
    {
      "inputs": [],
      "name": "riskPool",
      "outputs": [
        {
          "internalType": "address",
          "name": "",
          "type": "address"
        }
      ],
      "stateMutability": "view",
      "type": "function"
    },
    {
      "inputs": [
        {
          "internalType": "address",
          "name": "_capitalAgent",
          "type": "address"
        }
      ],
      "name": "setCapitalAgent",
      "outputs": [],
      "stateMutability": "nonpayable",
      "type": "function"
    },
    {
      "inputs": [
        {
          "internalType": "address",
          "name": "_claimAssessor",
          "type": "address"
        }
      ],
      "name": "setClaimAssessor",
      "outputs": [],
      "stateMutability": "nonpayable",
      "type": "function"
    },
    {
      "inputs": [
        {
          "internalType": "address",
          "name": "_exchangeAgent",
          "type": "address"
        }
      ],
      "name": "setExchangeAgent",
      "outputs": [],
      "stateMutability": "nonpayable",
      "type": "function"
    },
    {
      "inputs": [
        {
          "internalType": "uint256",
          "name": "_lockTime",
          "type": "uint256"
        }
      ],
      "name": "setLockTime",
      "outputs": [],
      "stateMutability": "nonpayable",
      "type": "function"
    },
    {
      "inputs": [
        {
          "internalType": "address",
          "name": "_migrateTo",
          "type": "address"
        }
      ],
      "name": "setMigrateTo",
      "outputs": [],
      "stateMutability": "nonpayable",
      "type": "function"
    },
    {
      "inputs": [
        {
          "internalType": "uint256",
          "name": "_minLPCapital",
          "type": "uint256"
        }
      ],
      "name": "setMinLPCapital",
      "outputs": [],
      "stateMutability": "nonpayable",
      "type": "function"
    },
    {
      "inputs": [
        {
          "internalType": "uint256",
          "name": "_rewardMultiplier",
          "type": "uint256"
        }
      ],
      "name": "setRewardMultiplier",
      "outputs": [],
      "stateMutability": "nonpayable",
      "type": "function"
    },
    {
      "inputs": [],
      "name": "syntheticSSIP",
      "outputs": [
        {
          "internalType": "address",
          "name": "",
          "type": "address"
        }
      ],
      "stateMutability": "view",
      "type": "function"
    },
    {
      "inputs": [],
      "name": "updatePool",
      "outputs": [],
      "stateMutability": "nonpayable",
      "type": "function"
    },
    {
      "inputs": [
        {
          "internalType": "address",
          "name": "",
          "type": "address"
        }
      ],
      "name": "userInfo",
      "outputs": [
        {
          "internalType": "uint256",
          "name": "lastWithdrawTime",
          "type": "uint256"
        },
        {
          "internalType": "uint256",
          "name": "rewardDebt",
          "type": "uint256"
        },
        {
          "internalType": "uint256",
          "name": "amount",
          "type": "uint256"
        }
      ],
      "stateMutability": "view",
      "type": "function"
    }
  ],
  "transactionHash": "0x5f2773bc7d9a6ba1c31167108bc25c9224ae4dc2c38de3e3ebc440f179592ad9",
  "args": [
    "0x5569BDF4e02cec3fE459796e3d0e741616029fA4",
    "0x5569BDF4e02cec3fE459796e3d0e741616029fA4",
    "0xf97Eb2a102Ba485020c9d2EA0ac4BAAC19092Ee9",
    "0x40c035016AD732b6cFce34c3F881040B6C6cf71E",
    "0x2D1ADb7A6ED75B23E1C5Dfa8E74462DC39753459"
  ],
  "solcInputHash": "e0541ecd9c6d2d8f9d7ff5550f71ff1d",
  "bytecode": "0x6080604052620151806008553480156200001857600080fd5b506040516200322d3803806200322d8339810160408190526200003b91620000bf565b6001600081905580546001600160a01b03199081166001600160a01b0397881617909155600380548216948716949094179093556002805484169486169490941790935560058054831691851691909117905560068054909116919092161790556200012e565b80516001600160a01b0381168114620000ba57600080fd5b919050565b600080600080600060a08688031215620000d7578081fd5b620000e286620000a2565b9450620000f260208701620000a2565b93506200010260408701620000a2565b92506200011260608701620000a2565b91506200012260808701620000a2565b90509295509295909350565b6130ef806200013e6000396000f3fe608060405234801561001057600080fd5b50600436106102115760003560e01c80638fd3ab8011610125578063c2eb8eb9116100ad578063dcc3e06e1161007c578063dcc3e06e14610422578063e08c5de11461042a578063e19e71681461043d578063e3161ddd14610445578063e3824a381461044d57610211565b8063c2eb8eb9146103f7578063c4e5dacf1461040a578063c6e8991514610412578063cd87c83c1461041a57610211565b8063a3bdd632116100f4578063a3bdd632146103a0578063ae04d45d146103a8578063af16d6e0146103bb578063ba619457146103ce578063bc8f8828146103ef57610211565b80638fd3ab801461035a5780639336f4061461036257806393b6b86c1461038557806398c6e7601461039857610211565b8063413d9c3a116101a857806377b330c91161017757806377b330c91461031c5780638395206c1461032457806389919b71146103375780638ba04b171461033f5780638da5cb5b1461035257610211565b8063413d9c3a146102c857806342198160146102dd5780635a2f3d09146102f2578063736ec05c1461030957610211565b806318a00d8e116101e457806318a00d8e146102645780631959a002146102775780631b600ca2146102a25780632e4a0142146102b557610211565b80630bd075a1146102165780630e5c011e1461022b5780630e9ae4201461023e578063157f71ed14610251575b600080fd5b610229610224366004612925565b610460565b005b61022961023936600461273c565b6104b8565b61022961024c3660046127fd565b6104f1565b61022961025f36600461273c565b6107e9565b61022961027236600461273c565b61085b565b61028a61028536600461273c565b6108f5565b60405161029993929190612fc1565b60405180910390f35b6102296102b036600461277b565b610916565b6102296102c336600461283d565b610abd565b6102d0610c88565b6040516102999190612faa565b6102e5610c8e565b6040516102999190612a08565b6102fa610c9d565b60405161029993929190612f63565b61022961031736600461273c565b610cbb565b6102e5610d2d565b610229610332366004612925565b610d3c565b6102d0611035565b61022961034d366004612888565b611041565b6102e5611230565b61022961123f565b61037561037036600461273c565b6114b0565b6040516102999493929190612fd7565b610229610393366004612925565b6115ee565b6102e561169d565b6102d06116ac565b6102296103b6366004612925565b61172e565b6102296103c93660046127b3565b61177d565b6103e16103dc36600461273c565b6118dc565b604051610299929190612fb3565b610229611997565b61022961040536600461273c565b611c75565b6102e5611ce7565b6102e5611cf6565b6102e5611d05565b6102e5611d14565b6102d061043836600461273c565b611d23565b610229611e8d565b610229611f88565b61022961045b366004612925565b61211e565b6001546001600160a01b031633146104935760405162461bcd60e51b815260040161048a90612e54565b60405180910390fd5b600081116104b35760405162461bcd60e51b815260040161048a90612cd5565b600d55565b600260005414156104db5760405162461bcd60e51b815260040161048a90612ec0565b60026000556104e98161245e565b506001600055565b600260005414156105145760405162461bcd60e51b815260040161048a90612ec0565b6002600055600a546001600160a01b031633146105435760405162461bcd60e51b815260040161048a90612f2e565b6007546001600160a01b0384811691161480159061056f57506007546001600160a01b03838116911614155b156107df5761057d8361245e565b6001600160a01b038084166000908152600b602052604080822060020154600a549151631665744b60e11b815290939190911690632ccae896906105c5908890600401612a08565b60606040518083038186803b1580156105dd57600080fd5b505afa1580156105f1573d6000803e3d6000fd5b505050506040513d601f19601f820116820180604052508101906106159190612978565b505090508281836106269190613074565b10156106445760405162461bcd60e51b815260040161048a90612c32565b600c54600090670de0b6b3a76400009061066e90600160801b90046001600160801b031685613055565b6106789190613035565b600c54909150670de0b6b3a7640000906106a290600160801b90046001600160801b031686613055565b6106ac9190613035565b6106b69082613074565b6001600160a01b0387166000908152600b60205260409020600101556106dc8484613074565b6001600160a01b0387166000908152600b6020526040902060020155600c54670de0b6b3a76400009061071f90600160801b90046001600160801b031686613055565b6107299190613035565b6001600160a01b0386166000908152600b602052604090206001015461074f919061301d565b6001600160a01b0386166000908152600b6020526040902060018101919091556002015461077e90859061301d565b6001600160a01b038087166000818152600b602052604090819020600201939093559151908816907fabc254a3e8b16a8605ce22e693a6e493e375434011c1a7ff082d09e2a84ad121906107d3908890612faa565b60405180910390a35050505b5050600160005550565b6001546001600160a01b031633146108135760405162461bcd60e51b815260040161048a90612e54565b6001600160a01b0381166108395760405162461bcd60e51b815260040161048a90612b30565b600280546001600160a01b0319166001600160a01b0392909216919091179055565b6001546001600160a01b031633146108855760405162461bcd60e51b815260040161048a90612e54565b6001600160a01b0381166108ab5760405162461bcd60e51b815260040161048a90612b30565b600380546001600160a01b0319166001600160a01b0383169081179091556040517fbdca3ec80f8567aeaf30c6168374c798baf11902e9b21c2b8ba3186ffd13012290600090a250565b600b6020526000908152604090208054600182015460029092015490919083565b6001546001600160a01b031633146109405760405162461bcd60e51b815260040161048a90612e54565b600260005414156109635760405162461bcd60e51b815260040161048a90612ec0565b60026000556001600160a01b03821661098e5760405162461bcd60e51b815260040161048a90612d7a565b6001600160a01b0381166109b45760405162461bcd60e51b815260040161048a90612b67565b600a546001600160a01b03166109dc5760405162461bcd60e51b815260040161048a90612d43565b600a54604051631a8a8b3b60e11b81526001600160a01b0380841692633515167692610a0e9287921690600401612a1c565b602060405180830381600087803b158015610a2857600080fd5b505af1158015610a3c573d6000803e3d6000fd5b505050506040513d601f19601f82011682018060405250810190610a60919061275f565b600780546001600160a01b0319166001600160a01b039283161790819055600a5460405190831692919091169030907e1129b9865226cebad4acf884618ae0607fff06758062b050509602db7065f090600090a450506001600055565b6002546001600160a01b03163314610ae75760405162461bcd60e51b815260040161048a90612e54565b60026000541415610b0a5760405162461bcd60e51b815260040161048a90612ec0565b60026000556001600160a01b038216610b355760405162461bcd60e51b815260040161048a90612b30565b60008111610b555760405162461bcd60e51b815260040161048a90612d0c565b600a5460405163172500a160e11b81526000916001600160a01b031690632e4a014290610b889086908690600401612aa1565b602060405180830381600087803b158015610ba257600080fd5b505af1158015610bb6573d6000803e3d6000fd5b505050506040513d601f19601f82011682018060405250810190610bda919061293d565b60065460405163167afee560e31b81529192506001600160a01b03169063b3d7f72890610c0b908490600401612faa565b600060405180830381600087803b158015610c2557600080fd5b505af1158015610c39573d6000803e3d6000fd5b50505050826001600160a01b03167f6420c9536b9a539410a930b1fd8d115dc296d8b71426dcc0ab64f2f736b7d59f82604051610c769190612faa565b60405180910390a25050600160005550565b60085481565b6006546001600160a01b031681565b600c54600d546001600160801b0380831692600160801b9004169083565b6001546001600160a01b03163314610ce55760405162461bcd60e51b815260040161048a90612e54565b6001600160a01b038116610d0b5760405162461bcd60e51b815260040161048a90612b30565b600480546001600160a01b0319166001600160a01b0392909216919091179055565b6005546001600160a01b031681565b60026000541415610d5f5760405162461bcd60e51b815260040161048a90612ec0565b6002600055610d6d3361245e565b600654604051630be304cf60e41b81526001600160a01b039091169063be304cf090610d9d908490600401612faa565b60206040518083038186803b158015610db557600080fd5b505afa158015610dc9573d6000803e3d6000fd5b505050506040513d601f19601f82011682018060405250810190610ded9190612868565b610e095760405162461bcd60e51b815260040161048a90612db1565b336000908152600b6020908152604080832060020154600a548251627a9fd960e91b815292519194936001600160a01b039091169263f53fb2009260048083019392829003018186803b158015610e5f57600080fd5b505afa158015610e73573d6000803e3d6000fd5b505050506040513d601f19601f82011682018060405250810190610e97919061293d565b600a54604051631665744b60e11b81529192506000916001600160a01b0390911690632ccae89690610ecd903390600401612a08565b60606040518083038186803b158015610ee557600080fd5b505afa158015610ef9573d6000803e3d6000fd5b505050506040513d601f19601f82011682018060405250810190610f1d9190612978565b5050905083670de0b6b3a7640000838386610f389190613074565b610f429190613055565b610f4c9190613035565b1015610f6a5760405162461bcd60e51b815260040161048a90612b9e565b600a546040516323de6d9560e11b81526001600160a01b03909116906347bcdb2a90610f9c9033908890600401612aa1565b600060405180830381600087803b158015610fb657600080fd5b505af1158015610fca573d6000803e3d6000fd5b5050336000818152600b602052604090819020429055600a5490516001600160a01b0390911693509091507f940a14c75c418e7230a2e65567722d2dda5a6713cf71b369bd0fa219fdc1ac5e90611022908890612faa565b60405180910390a3505060016000555050565b670de0b6b3a764000081565b6001546001600160a01b0316331461106b5760405162461bcd60e51b815260040161048a90612e54565b6002600054141561108e5760405162461bcd60e51b815260040161048a90612ec0565b6002600055600a546001600160a01b0316156110bc5760405162461bcd60e51b815260040161048a90612c69565b604051630d98e31f60e01b81526001600160a01b03841690630d98e31f906110f2908a908a908a908a9030908a90600401612ae2565b602060405180830381600087803b15801561110c57600080fd5b505af1158015611120573d6000803e3d6000fd5b505050506040513d601f19601f82011682018060405250810190611144919061275f565b600a80546001600160a01b0319166001600160a01b03928316179055600c80546fffffffffffffffffffffffffffffffff1916436001600160801b0390811691909117169055600d82905560065460405163d914cd4b60e01b815291169063d914cd4b906111b6903090600401612a08565b600060405180830381600087803b1580156111d057600080fd5b505af11580156111e4573d6000803e3d6000fd5b5050600a546040516001600160a01b0390911692503091507f184d7691bf4a73930a21086fa1bdf0ee3075421531a60730288325fd5838021790600090a3505060016000555050505050565b6001546001600160a01b031681565b600260005414156112625760405162461bcd60e51b815260040161048a90612ec0565b60026000556004546001600160a01b031661128f5760405162461bcd60e51b815260040161048a90612b30565b6112983361245e565b600a5460408051627a9fd960e91b815290516000926001600160a01b03169163f53fb200916004808301926020929190829003018186803b1580156112dc57600080fd5b505afa1580156112f0573d6000803e3d6000fd5b505050506040513d601f19601f82011682018060405250810190611314919061293d565b336000908152600b60205260408120600281015460085491549394509261133b9042613074565b600a5460048054604051633613302f60e01b81529490931194506001600160a01b0391821693633613302f93611378933393911691879101612a59565b600060405180830381600087803b15801561139257600080fd5b505af11580156113a6573d6000803e3d6000fd5b50506006546001600160a01b0316915063b3d7f7289050670de0b6b3a76400006113d08686613055565b6113da9190613035565b6040518263ffffffff1660e01b81526004016113f69190612faa565b600060405180830381600087803b15801561141057600080fd5b505af1158015611424573d6000803e3d6000fd5b50506004805460405163ed59344b60e01b81526001600160a01b03909116935063ed59344b9250611459913391879101612aba565b600060405180830381600087803b15801561147357600080fd5b505af1158015611487573d6000803e3d6000fd5b5050336000908152600b6020526040812060028101829055600190810182905590555050505050565b6000806000806000600a60009054906101000a90046001600160a01b03166001600160a01b031663f53fb2006040518163ffffffff1660e01b815260040160206040518083038186803b15801561150657600080fd5b505afa15801561151a573d6000803e3d6000fd5b505050506040513d601f19601f8201168201806040525081019061153e919061293d565b600a54604051631665744b60e11b81529192506001600160a01b031690632ccae8969061156f908990600401612a08565b60606040518083038186803b15801561158757600080fd5b505afa15801561159b573d6000803e3d6000fd5b505050506040513d601f19601f820116820180604052508101906115bf9190612978565b9196509093509150670de0b6b3a76400006115da8287613055565b6115e49190613035565b9350509193509193565b6001546001600160a01b031633146116185760405162461bcd60e51b815260040161048a90612e54565b600081116116385760405162461bcd60e51b815260040161048a90612ef7565b600a546040516324edae1b60e21b81526001600160a01b03909116906393b6b86c90611668908490600401612faa565b600060405180830381600087803b15801561168257600080fd5b505af1158015611696573d6000803e3d6000fd5b5050505050565b6004546001600160a01b031681565b600a546040805163e95aa8d360e01b815290516000926001600160a01b03169163e95aa8d3916004808301926020929190829003018186803b1580156116f157600080fd5b505afa158015611705573d6000803e3d6000fd5b505050506040513d601f19601f82011682018060405250810190611729919061293d565b905090565b6001546001600160a01b031633146117585760405162461bcd60e51b815260040161048a90612e54565b600081116117785760405162461bcd60e51b815260040161048a90612de6565b600855565b6001546001600160a01b031633146117a75760405162461bcd60e51b815260040161048a90612e54565b600260005414156117ca5760405162461bcd60e51b815260040161048a90612ec0565b60026000556001600160a01b0382166117f55760405162461bcd60e51b815260040161048a90612e8b565b6040516369ee745160e01b81526001600160a01b038316906369ee74519061182590869085903090600401612a36565b602060405180830381600087803b15801561183f57600080fd5b505af1158015611853573d6000803e3d6000fd5b505050506040513d601f19601f82011682018060405250810190611877919061275f565b600980546001600160a01b0319166001600160a01b03928316179081905560405191169030907f6c409a36847a0a3870deae25f656f4300d45957d2643fc27faab145e19cfcf1b906118ca908590612a08565b60405180910390a35050600160005550565b6001600160a01b038082166000908152600b6020908152604080832060020154600a548251627a9fd960e91b81529251949591948694919092169263f53fb2009260048083019392829003018186803b15801561193857600080fd5b505afa15801561194c573d6000803e3d6000fd5b505050506040513d601f19601f82011682018060405250810190611970919061293d565b9050670de0b6b3a76400006119858284613055565b61198f9190613035565b925050915091565b600260005414156119ba5760405162461bcd60e51b815260040161048a90612ec0565b60026000908155600854338252600b6020526040909120546119dc9042613074565b10156119fa5760405162461bcd60e51b815260040161048a90612c9e565b611a033361245e565b336000818152600b602052604080822060020154600a549151631665744b60e11b8152909383926001600160a01b031691632ccae89691611a4691600401612a08565b60606040518083038186803b158015611a5e57600080fd5b505afa158015611a72573d6000803e3d6000fd5b505050506040513d601f19601f82011682018060405250810190611a969190612978565b600654604051632da26abb60e11b81529395509093506001600160a01b031691635b44d5769150611acb908490600401612faa565b600060405180830381600087803b158015611ae557600080fd5b505af1158015611af9573d6000803e3d6000fd5b5050600c5460009250670de0b6b3a76400009150611b2790600160801b90046001600160801b031686613055565b611b319190613035565b600c54909150670de0b6b3a764000090611b5b90600160801b90046001600160801b031685613055565b611b659190613035565b611b6f9082613074565b336000818152600b602052604080822060010193909355600a54925163b20ecd1560e01b8152909283926001600160a01b039091169163b20ecd1591611bb791600401612a08565b6040805180830381600087803b158015611bd057600080fd5b505af1158015611be4573d6000803e3d6000fd5b505050506040513d601f19601f82011682018060405250810190611c089190612955565b9092509050611c178287613074565b336000818152600b6020526040908190206002019290925590517fb307c5ea066d3a6d37e8de2f87ccfe31b6a3852e4df8d60a6d70b93b2f8a2ed590611c609085908590612fb3565b60405180910390a25050600160005550505050565b6001546001600160a01b03163314611c9f5760405162461bcd60e51b815260040161048a90612e54565b6001600160a01b038116611cc55760405162461bcd60e51b815260040161048a90612b30565b600680546001600160a01b0319166001600160a01b0392909216919091179055565b600a546001600160a01b031681565b6002546001600160a01b031681565b6007546001600160a01b031681565b6009546001600160a01b031681565b600080600a60009054906101000a90046001600160a01b03166001600160a01b03166318160ddd6040518163ffffffff1660e01b815260040160206040518083038186803b158015611d7457600080fd5b505afa158015611d88573d6000803e3d6000fd5b505050506040513d601f19601f82011682018060405250810190611dac919061293d565b600c549091506001600160801b03600160801b82048116911643118015611dd257508115155b15611e3157600c54600090611df0906001600160801b031643613074565b600d54909150600090611e039083613055565b905083611e18670de0b6b3a764000083613055565b611e229190613035565b611e2c9084612ff2565b925050505b6001600160a01b0384166000908152600b602052604090206002810154600190910154670de0b6b3a7640000611e706001600160801b03851684613055565b611e7a9190613035565b611e849190613074565b95945050505050565b60026000541415611eb05760405162461bcd60e51b815260040161048a90612ec0565b60026000908155600a546040516306e6829960e51b815282916001600160a01b03169063dcd0532090611ee7903390600401612a08565b6040805180830381600087803b158015611f0057600080fd5b505af1158015611f14573d6000803e3d6000fd5b505050506040513d601f19601f82011682018060405250810190611f389190612955565b91509150336001600160a01b03167f09c6481cb228ea7f61ceb67c8e708038eb74bbb68cfcc54a9cfca199087ecfb78383604051611f77929190612fb3565b60405180910390a250506001600055565b600c546001600160801b031643111561211c57600a54604080516318160ddd60e01b815290516000926001600160a01b0316916318160ddd916004808301926020929190829003018186803b158015611fe057600080fd5b505afa158015611ff4573d6000803e3d6000fd5b505050506040513d601f19601f82011682018060405250810190612018919061293d565b905080156120a857600c54600090612039906001600160801b031643613074565b600d5490915060009061204c9083613055565b905082612061670de0b6b3a764000083613055565b61206b9190613035565b600c546120889190600160801b90046001600160801b0316612ff2565b600c80546001600160801b03928316600160801b02921691909117905550505b600c80546fffffffffffffffffffffffffffffffff1916436001600160801b0390811691909117918290556040517f982b813c7d00a9ffce9441ba40f429b2e4a35068d75532f496d0c63585c2fa689261211292818116928692600160801b900490911690612f87565b60405180910390a1505b565b600260005414156121415760405162461bcd60e51b815260040161048a90612ec0565b6002600055806121635760405162461bcd60e51b815260040161048a90612e1d565b61216b611f88565b600a546040805163e5a6b10f60e01b815290516000926001600160a01b03169163e5a6b10f916004808301926020929190829003018186803b1580156121b057600080fd5b505afa1580156121c4573d6000803e3d6000fd5b505050506040513d601f19601f820116820180604052508101906121e8919061275f565b90506000600a60009054906101000a90046001600160a01b03166001600160a01b031663f53fb2006040518163ffffffff1660e01b815260040160206040518083038186803b15801561223a57600080fd5b505afa15801561224e573d6000803e3d6000fd5b505050506040513d601f19601f82011682018060405250810190612272919061293d565b600a5490915061228f90839033906001600160a01b0316866125f0565b600a54604051637e348b7d60e01b81526001600160a01b0390911690637e348b7d906122c19033908790600401612aa1565b600060405180830381600087803b1580156122db57600080fd5b505af11580156122ef573d6000803e3d6000fd5b5050600c54670de0b6b3a76400009250839150600160801b90046001600160801b031661231c8684613055565b6123269190613055565b6123309190613035565b61233a9190613035565b336000908152600b6020526040902060010154612357919061301d565b336000908152600b60205260409020600101558061237d84670de0b6b3a7640000613055565b6123879190613035565b336000908152600b60205260409020600201546123a4919061301d565b336000908152600b602052604090819020600201919091556006549051638be5a39f60e01b81526001600160a01b0390911690638be5a39f906123eb908690600401612faa565b600060405180830381600087803b15801561240557600080fd5b505af1158015612419573d6000803e3d6000fd5b5050600a546040516001600160a01b0390911692503391507fd3dba7b5565b16b7749db7d1938410a636e3c7a6ea46ed8ce7e259e19f2f3b9f906118ca908790612faa565b612466611f88565b6001600160a01b0381166000908152600b6020526040812060020154600c54909190670de0b6b3a7640000906124ac90600160801b90046001600160801b031684613055565b6124b69190613035565b6001600160a01b0384166000908152600b6020526040812060010154919250906124e09083613074565b336000908152600b60205260408120600101849055600954919250906001600160a01b03161580159061251257508115155b1561259e5760095460405163186e465160e31b81526001600160a01b039091169063c3723288906125499088908690600401612aa1565b602060405180830381600087803b15801561256357600080fd5b505af1158015612577573d6000803e3d6000fd5b505050506040513d601f19601f8201168201806040525081019061259b919061293d565b90505b846001600160a01b0316336001600160a01b03167fa0306f61d3fafe13787b78e276cb6b644382854a66cb46daae14227d3ec26797836040516125e19190612faa565b60405180910390a35050505050565b600080856001600160a01b03166323b872dd86868660405160240161261793929190612a7d565b6040516020818303038152906040529060e01b6020820180517bffffffffffffffffffffffffffffffffffffffffffffffffffffffff838183161783525050505060405161266591906129cf565b6000604051808303816000865af19150503d80600081146126a2576040519150601f19603f3d011682016040523d82523d6000602084013e6126a7565b606091505b50915091508180156126d15750805115806126d15750808060200190518101906126d19190612868565b6126ed5760405162461bcd60e51b815260040161048a90612bd5565b505050505050565b60008083601f840112612706578182fd5b50813567ffffffffffffffff81111561271d578182fd5b60208301915083602082850101111561273557600080fd5b9250929050565b60006020828403121561274d578081fd5b8135612758816130a1565b9392505050565b600060208284031215612770578081fd5b8151612758816130a1565b6000806040838503121561278d578081fd5b8235612798816130a1565b915060208301356127a8816130a1565b809150509250929050565b6000806000606084860312156127c7578081fd5b83356127d2816130a1565b925060208401356127e2816130a1565b915060408401356127f2816130a1565b809150509250925092565b600080600060608486031215612811578283fd5b833561281c816130a1565b9250602084013561282c816130a1565b929592945050506040919091013590565b6000806040838503121561284f578182fd5b823561285a816130a1565b946020939093013593505050565b600060208284031215612879578081fd5b81518015158114612758578182fd5b600080600080600080600060a0888a0312156128a2578283fd5b873567ffffffffffffffff808211156128b9578485fd5b6128c58b838c016126f5565b909950975060208a01359150808211156128dd578485fd5b506128ea8a828b016126f5565b90965094505060408801356128fe816130a1565b9250606088013561290e816130a1565b809250506080880135905092959891949750929550565b600060208284031215612936578081fd5b5035919050565b60006020828403121561294e578081fd5b5051919050565b60008060408385031215612967578182fd5b505080516020909101519092909150565b60008060006060848603121561298c578283fd5b8351925060208401519150604084015190509250925092565b60008284528282602086013780602084860101526020601f19601f85011685010190509392505050565b60008251815b818110156129ef57602081860181015185830152016129d5565b818111156129fd5782828501525b509190910192915050565b6001600160a01b0391909116815260200190565b6001600160a01b0392831681529116602082015260400190565b6001600160a01b0393841681529183166020830152909116604082015260600190565b6001600160a01b039384168152919092166020820152901515604082015260600190565b6001600160a01b039384168152919092166020820152604081019190915260600190565b6001600160a01b03929092168252602082015260400190565b6001600160a01b03929092168252602082015260606040820181905260009082015260800190565b600060808252612af660808301888a6129a5565b8281036020840152612b098187896129a5565b9150506001600160a01b038085166040840152808416606084015250979650505050505050565b60208082526013908201527f556e6f52653a207a65726f206164647265737300000000000000000000000000604082015260600190565b6020808252601a908201527f556e6f52653a7a65726f20666163746f72792061646472657373000000000000604082015260600190565b6020808252601f908201527f556e6f52653a20776974686472617720616d6f756e74206f766572666c6f7700604082015260600190565b60208082526031908201527f5472616e7366657248656c7065723a3a7472616e7366657246726f6d3a20747260408201527f616e7366657246726f6d206661696c6564000000000000000000000000000000606082015260800190565b60208082526017908201527f556e6f52653a2062616c616e6365206f766572666c6f77000000000000000000604082015260600190565b6020808252818101527f556e6f52653a207269736b20706f6f6c206372656174656420616c7265616479604082015260600190565b60208082526012908201527f556e6f52653a204c6f636b65642074696d650000000000000000000000000000604082015260600190565b60208082526011908201527f556e6f52653a207a65726f2076616c7565000000000000000000000000000000604082015260600190565b60208082526012908201527f556e6f52653a207a65726f20616d6f756e740000000000000000000000000000604082015260600190565b6020808252601b908201527f556e6f52653a7a65726f204c5020746f6b656e20616464726573730000000000604082015260600190565b60208082526019908201527f556e6f52653a207a65726f206f776e6572206164647265737300000000000000604082015260600190565b6020808252818101527f556e6f52653a206d696e696d756d206361706974616c20756e646572666c6f77604082015260600190565b6020808252601f908201527f556e6f52653a206e6f7420616c6c6f77207a65726f206c6f636b2074696d6500604082015260600190565b60208082526011908201527f556e6f52653a205a45524f2056616c7565000000000000000000000000000000604082015260600190565b60208082526010908201527f556e6f52653a20466f7262696464656e00000000000000000000000000000000604082015260600190565b6020808252818101527f556e6f52653a20726577617264657220666163746f7279206e6f206578697374604082015260600190565b6020808252601f908201527f5265656e7472616e637947756172643a207265656e7472616e742063616c6c00604082015260600190565b6020808252601b908201527f556e6f52653a206e6f7420616c6c6f77207a65726f2076616c75650000000000604082015260600190565b6020808252818101527f556e6f52653a206e6f7420616c6c6f77206f7468657273207472616e73666572604082015260600190565b6001600160801b039384168152919092166020820152604081019190915260600190565b6001600160801b0393841681526020810192909252909116604082015260600190565b90815260200190565b918252602082015260400190565b9283526020830191909152604082015260600190565b93845260208401929092526040830152606082015260800190565b60006001600160801b038083168185168083038211156130145761301461308b565b01949350505050565b600082198211156130305761303061308b565b500190565b60008261305057634e487b7160e01b81526012600452602481fd5b500490565b600081600019048311821515161561306f5761306f61308b565b500290565b6000828210156130865761308661308b565b500390565b634e487b7160e01b600052601160045260246000fd5b6001600160a01b03811681146130b657600080fd5b5056fea2646970667358221220ae70735556d0c09d0031ffd7b62627b1a2696ad404e4aaaf1abb52f722c0caaf64736f6c63430008000033",
  "devdoc": {
    "kind": "dev",
    "methods": {
      "createRiskPool(string,string,address,address,uint256)": {
        "details": "create Risk pool with UNO from SSIP owner"
      },
      "getTotalWithdrawPendingAmount()": {
        "details": "get total withdraw request amount in pending for the risk pool in UNO"
      },
      "getWithdrawRequestPerUser(address)": {
        "details": "get withdraw request amount in pending per user in UNO"
      },
      "leaveFromPending()": {
        "details": "user can submit claim again and receive his funds into his wallet after 10 days since last WR."
      },
      "leaveFromPoolInPending(uint256)": {
        "details": "WR will be in pending for 10 days at least"
      }
    },
    "version": 1
  },
  "userdoc": {
    "kind": "user",
    "methods": {},
    "version": 1
  },
  "storageLayout": {
    "storage": [
      {
        "astId": 114,
        "contract": "contracts/SingleSidedInsurancePool.sol:SingleSidedInsurancePool",
        "label": "_status",
        "offset": 0,
        "slot": "0",
        "type": "t_uint256"
      },
      {
        "astId": 8072,
        "contract": "contracts/SingleSidedInsurancePool.sol:SingleSidedInsurancePool",
        "label": "owner",
        "offset": 0,
        "slot": "1",
        "type": "t_address"
      },
      {
        "astId": 8074,
        "contract": "contracts/SingleSidedInsurancePool.sol:SingleSidedInsurancePool",
        "label": "claimAssessor",
        "offset": 0,
        "slot": "2",
        "type": "t_address"
      },
      {
        "astId": 8076,
        "contract": "contracts/SingleSidedInsurancePool.sol:SingleSidedInsurancePool",
        "label": "exchangeAgent",
        "offset": 0,
        "slot": "3",
        "type": "t_address"
      },
      {
        "astId": 8078,
        "contract": "contracts/SingleSidedInsurancePool.sol:SingleSidedInsurancePool",
        "label": "migrateTo",
        "offset": 0,
        "slot": "4",
        "type": "t_address"
      },
      {
        "astId": 8080,
        "contract": "contracts/SingleSidedInsurancePool.sol:SingleSidedInsurancePool",
        "label": "USDT_TOKEN",
        "offset": 0,
        "slot": "5",
        "type": "t_address"
      },
      {
        "astId": 8082,
        "contract": "contracts/SingleSidedInsurancePool.sol:SingleSidedInsurancePool",
        "label": "capitalAgent",
        "offset": 0,
        "slot": "6",
        "type": "t_address"
      },
      {
        "astId": 8084,
        "contract": "contracts/SingleSidedInsurancePool.sol:SingleSidedInsurancePool",
        "label": "syntheticSSIP",
        "offset": 0,
        "slot": "7",
        "type": "t_address"
      },
      {
        "astId": 8087,
        "contract": "contracts/SingleSidedInsurancePool.sol:SingleSidedInsurancePool",
        "label": "LOCK_TIME",
        "offset": 0,
        "slot": "8",
        "type": "t_uint256"
      },
      {
        "astId": 8092,
        "contract": "contracts/SingleSidedInsurancePool.sol:SingleSidedInsurancePool",
        "label": "rewarder",
        "offset": 0,
        "slot": "9",
        "type": "t_address"
      },
      {
        "astId": 8095,
        "contract": "contracts/SingleSidedInsurancePool.sol:SingleSidedInsurancePool",
        "label": "riskPool",
        "offset": 0,
        "slot": "10",
        "type": "t_address"
      },
      {
        "astId": 8114,
        "contract": "contracts/SingleSidedInsurancePool.sol:SingleSidedInsurancePool",
        "label": "userInfo",
        "offset": 0,
        "slot": "11",
        "type": "t_mapping(t_address,t_struct(UserInfo)8109_storage)"
      },
      {
        "astId": 8117,
        "contract": "contracts/SingleSidedInsurancePool.sol:SingleSidedInsurancePool",
        "label": "poolInfo",
        "offset": 0,
        "slot": "12",
        "type": "t_struct(PoolInfo)8102_storage"
      }
    ],
    "types": {
      "t_address": {
        "encoding": "inplace",
        "label": "address",
        "numberOfBytes": "20"
      },
      "t_mapping(t_address,t_struct(UserInfo)8109_storage)": {
        "encoding": "mapping",
        "key": "t_address",
        "label": "mapping(address => struct SingleSidedInsurancePool.UserInfo)",
        "numberOfBytes": "32",
        "value": "t_struct(UserInfo)8109_storage"
      },
      "t_struct(PoolInfo)8102_storage": {
        "encoding": "inplace",
        "label": "struct SingleSidedInsurancePool.PoolInfo",
        "members": [
          {
            "astId": 8097,
            "contract": "contracts/SingleSidedInsurancePool.sol:SingleSidedInsurancePool",
            "label": "lastRewardBlock",
            "offset": 0,
            "slot": "0",
            "type": "t_uint128"
          },
          {
            "astId": 8099,
            "contract": "contracts/SingleSidedInsurancePool.sol:SingleSidedInsurancePool",
            "label": "accUnoPerShare",
            "offset": 16,
            "slot": "0",
            "type": "t_uint128"
          },
          {
            "astId": 8101,
            "contract": "contracts/SingleSidedInsurancePool.sol:SingleSidedInsurancePool",
            "label": "unoMultiplierPerBlock",
            "offset": 0,
            "slot": "1",
            "type": "t_uint256"
          }
        ],
        "numberOfBytes": "64"
      },
      "t_struct(UserInfo)8109_storage": {
        "encoding": "inplace",
        "label": "struct SingleSidedInsurancePool.UserInfo",
        "members": [
          {
            "astId": 8104,
            "contract": "contracts/SingleSidedInsurancePool.sol:SingleSidedInsurancePool",
            "label": "lastWithdrawTime",
            "offset": 0,
            "slot": "0",
            "type": "t_uint256"
          },
          {
            "astId": 8106,
            "contract": "contracts/SingleSidedInsurancePool.sol:SingleSidedInsurancePool",
            "label": "rewardDebt",
            "offset": 0,
            "slot": "1",
            "type": "t_uint256"
          },
          {
            "astId": 8108,
            "contract": "contracts/SingleSidedInsurancePool.sol:SingleSidedInsurancePool",
            "label": "amount",
            "offset": 0,
            "slot": "2",
            "type": "t_uint256"
          }
        ],
        "numberOfBytes": "96"
      },
      "t_uint128": {
        "encoding": "inplace",
        "label": "uint128",
        "numberOfBytes": "16"
      },
      "t_uint256": {
        "encoding": "inplace",
        "label": "uint256",
        "numberOfBytes": "32"
      }
    }
  }
}