{
  "address": "0xaF40Fcbd1137Eb82ECdc78aFde9176545c9C6B19",
  "abi": [
    {
      "inputs": [
        {
          "internalType": "address",
          "name": "_owner",
          "type": "address"
        },
        {
          "internalType": "address",
          "name": "_claimAssessor",
          "type": "address"
        }
      ],
      "stateMutability": "nonpayable",
      "type": "constructor"
    },
    {
      "anonymous": false,
      "inputs": [
        {
          "indexed": true,
          "internalType": "address",
          "name": "_user",
          "type": "address"
        },
        {
          "indexed": true,
          "internalType": "address",
          "name": "_receiver",
          "type": "address"
        },
        {
          "indexed": false,
          "internalType": "uint256",
          "name": "_amount",
          "type": "uint256"
        }
      ],
      "name": "Harvest",
      "type": "event"
    },
    {
      "anonymous": false,
      "inputs": [
        {
          "indexed": true,
          "internalType": "address",
          "name": "_staker",
          "type": "address"
        },
        {
          "indexed": true,
          "internalType": "address",
          "name": "_pool",
          "type": "address"
        },
        {
          "indexed": false,
          "internalType": "uint256",
          "name": "_requestAmount",
          "type": "uint256"
        }
      ],
      "name": "LeftPool",
      "type": "event"
    },
    {
      "anonymous": false,
      "inputs": [
        {
          "indexed": true,
          "internalType": "address",
          "name": "_SSRP",
          "type": "address"
        },
        {
          "indexed": true,
          "internalType": "address",
          "name": "_rewarder",
          "type": "address"
        },
        {
          "indexed": false,
          "internalType": "address",
          "name": "_currency",
          "type": "address"
        }
      ],
      "name": "LogCreateRewarder",
      "type": "event"
    },
    {
      "anonymous": false,
      "inputs": [
        {
          "indexed": true,
          "internalType": "address",
          "name": "_SSRP",
          "type": "address"
        },
        {
          "indexed": true,
          "internalType": "address",
          "name": "_syntheticSSRP",
          "type": "address"
        },
        {
          "indexed": true,
          "internalType": "address",
          "name": "_lpToken",
          "type": "address"
        }
      ],
      "name": "LogCreateSyntheticSSRP",
      "type": "event"
    },
    {
      "anonymous": false,
      "inputs": [
        {
          "indexed": true,
          "internalType": "address",
          "name": "_user",
          "type": "address"
        },
        {
          "indexed": false,
          "internalType": "uint256",
          "name": "_withdrawLpAmount",
          "type": "uint256"
        },
        {
          "indexed": false,
          "internalType": "uint256",
          "name": "_withdrawUnoAmount",
          "type": "uint256"
        }
      ],
      "name": "LogLeaveFromPendingSSRP",
      "type": "event"
    },
    {
      "anonymous": false,
      "inputs": [
        {
          "indexed": true,
          "internalType": "address",
          "name": "_from",
          "type": "address"
        },
        {
          "indexed": true,
          "internalType": "address",
          "name": "_to",
          "type": "address"
        },
        {
          "indexed": false,
          "internalType": "uint256",
          "name": "_amount",
          "type": "uint256"
        }
      ],
      "name": "LogLpTransferInSSRP",
      "type": "event"
    },
    {
      "anonymous": false,
      "inputs": [
        {
          "indexed": false,
          "internalType": "uint128",
          "name": "_lastRewardBlock",
          "type": "uint128"
        },
        {
          "indexed": false,
          "internalType": "uint256",
          "name": "_lpSupply",
          "type": "uint256"
        },
        {
          "indexed": false,
          "internalType": "uint256",
          "name": "_accUnoPerShare",
          "type": "uint256"
        }
      ],
      "name": "LogUpdatePool",
      "type": "event"
    },
    {
      "anonymous": false,
      "inputs": [
        {
          "indexed": true,
          "internalType": "address",
          "name": "_user",
          "type": "address"
        },
        {
          "indexed": false,
          "internalType": "uint256",
          "name": "_claimAmount",
          "type": "uint256"
        }
      ],
      "name": "PolicyClaim",
      "type": "event"
    },
    {
      "anonymous": false,
      "inputs": [
        {
          "indexed": true,
          "internalType": "address",
          "name": "_SSRP",
          "type": "address"
        },
        {
          "indexed": true,
          "internalType": "address",
          "name": "_pool",
          "type": "address"
        }
      ],
      "name": "RiskPoolCreated",
      "type": "event"
    },
    {
      "anonymous": false,
      "inputs": [
        {
          "indexed": true,
          "internalType": "address",
          "name": "_staker",
          "type": "address"
        },
        {
          "indexed": true,
          "internalType": "address",
          "name": "_pool",
          "type": "address"
        },
        {
          "indexed": false,
          "internalType": "uint256",
          "name": "_amount",
          "type": "uint256"
        }
      ],
      "name": "StakedInPool",
      "type": "event"
    },
    {
      "inputs": [],
      "name": "ACC_UNO_PRECISION",
      "outputs": [
        {
          "internalType": "uint256",
          "name": "",
          "type": "uint256"
        }
      ],
      "stateMutability": "view",
      "type": "function"
    },
    {
      "inputs": [],
      "name": "LOCK_TIME",
      "outputs": [
        {
          "internalType": "uint256",
          "name": "",
          "type": "uint256"
        }
      ],
      "stateMutability": "view",
      "type": "function"
    },
    {
      "inputs": [],
      "name": "cancelWithdrawRequest",
      "outputs": [],
      "stateMutability": "nonpayable",
      "type": "function"
    },
    {
      "inputs": [],
      "name": "claimAssessor",
      "outputs": [
        {
          "internalType": "address",
          "name": "",
          "type": "address"
        }
      ],
      "stateMutability": "view",
      "type": "function"
    },
    {
      "inputs": [
        {
          "internalType": "address",
          "name": "_operator",
          "type": "address"
        },
        {
          "internalType": "address",
          "name": "_factory",
          "type": "address"
        },
        {
          "internalType": "address",
          "name": "_currency",
          "type": "address"
        }
      ],
      "name": "createRewarder",
      "outputs": [],
      "stateMutability": "nonpayable",
      "type": "function"
    },
    {
      "inputs": [
        {
          "internalType": "string",
          "name": "_name",
          "type": "string"
        },
        {
          "internalType": "string",
          "name": "_symbol",
          "type": "string"
        },
        {
          "internalType": "address",
          "name": "_factory",
          "type": "address"
        },
        {
          "internalType": "address",
          "name": "_currency",
          "type": "address"
        },
        {
          "internalType": "uint256",
          "name": "_rewardMultiplier",
          "type": "uint256"
        }
      ],
      "name": "createRiskPool",
      "outputs": [],
      "stateMutability": "nonpayable",
      "type": "function"
    },
    {
      "inputs": [
        {
          "internalType": "address",
          "name": "_owner",
          "type": "address"
        },
        {
          "internalType": "address",
          "name": "_factory",
          "type": "address"
        }
      ],
      "name": "createSyntheticSSRP",
      "outputs": [],
      "stateMutability": "nonpayable",
      "type": "function"
    },
    {
      "inputs": [
        {
          "internalType": "uint256",
          "name": "_amount",
          "type": "uint256"
        }
      ],
      "name": "enterInPool",
      "outputs": [],
      "stateMutability": "nonpayable",
      "type": "function"
    },
    {
      "inputs": [
        {
          "internalType": "address",
          "name": "_to",
          "type": "address"
        }
      ],
      "name": "getStakedAmountPerUser",
      "outputs": [
        {
          "internalType": "uint256",
          "name": "unoAmount",
          "type": "uint256"
        },
        {
          "internalType": "uint256",
          "name": "lpAmount",
          "type": "uint256"
        }
      ],
      "stateMutability": "view",
      "type": "function"
    },
    {
      "inputs": [],
      "name": "getTotalWithdrawPendingAmount",
      "outputs": [
        {
          "internalType": "uint256",
          "name": "",
          "type": "uint256"
        }
      ],
      "stateMutability": "view",
      "type": "function"
    },
    {
      "inputs": [
        {
          "internalType": "address",
          "name": "_user",
          "type": "address"
        }
      ],
      "name": "getWithdrawRequestPerUser",
      "outputs": [
        {
          "internalType": "uint256",
          "name": "pendingAmount",
          "type": "uint256"
        },
        {
          "internalType": "uint256",
          "name": "pendingAmountInUno",
          "type": "uint256"
        },
        {
          "internalType": "uint256",
          "name": "originUnoAmount",
          "type": "uint256"
        },
        {
          "internalType": "uint256",
          "name": "requestTime",
          "type": "uint256"
        }
      ],
      "stateMutability": "view",
      "type": "function"
    },
    {
      "inputs": [
        {
          "internalType": "address",
          "name": "_to",
          "type": "address"
        }
      ],
      "name": "harvest",
      "outputs": [],
      "stateMutability": "nonpayable",
      "type": "function"
    },
    {
      "inputs": [],
      "name": "leaveFromPending",
      "outputs": [],
      "stateMutability": "nonpayable",
      "type": "function"
    },
    {
      "inputs": [
        {
          "internalType": "uint256",
          "name": "_amount",
          "type": "uint256"
        }
      ],
      "name": "leaveFromPoolInPending",
      "outputs": [],
      "stateMutability": "nonpayable",
      "type": "function"
    },
    {
      "inputs": [
        {
          "internalType": "address",
          "name": "_from",
          "type": "address"
        },
        {
          "internalType": "address",
          "name": "_to",
          "type": "address"
        },
        {
          "internalType": "uint256",
          "name": "_amount",
          "type": "uint256"
        }
      ],
      "name": "lpTransfer",
      "outputs": [],
      "stateMutability": "nonpayable",
      "type": "function"
    },
    {
      "inputs": [],
      "name": "migrate",
      "outputs": [],
      "stateMutability": "nonpayable",
      "type": "function"
    },
    {
      "inputs": [],
      "name": "migrateTo",
      "outputs": [
        {
          "internalType": "address",
          "name": "",
          "type": "address"
        }
      ],
      "stateMutability": "view",
      "type": "function"
    },
    {
      "inputs": [],
      "name": "owner",
      "outputs": [
        {
          "internalType": "address",
          "name": "",
          "type": "address"
        }
      ],
      "stateMutability": "view",
      "type": "function"
    },
    {
      "inputs": [
        {
          "internalType": "address",
          "name": "_to",
          "type": "address"
        }
      ],
      "name": "pendingUno",
      "outputs": [
        {
          "internalType": "uint256",
          "name": "pending",
          "type": "uint256"
        }
      ],
      "stateMutability": "view",
      "type": "function"
    },
    {
      "inputs": [
        {
          "internalType": "address",
          "name": "_to",
          "type": "address"
        },
        {
          "internalType": "uint256",
          "name": "_amount",
          "type": "uint256"
        }
      ],
      "name": "policyClaim",
      "outputs": [],
      "stateMutability": "nonpayable",
      "type": "function"
    },
    {
      "inputs": [],
      "name": "poolInfo",
      "outputs": [
        {
          "internalType": "uint128",
          "name": "lastRewardBlock",
          "type": "uint128"
        },
        {
          "internalType": "uint128",
          "name": "accUnoPerShare",
          "type": "uint128"
        },
        {
          "internalType": "uint256",
          "name": "unoMultiplierPerBlock",
          "type": "uint256"
        }
      ],
      "stateMutability": "view",
      "type": "function"
    },
    {
      "inputs": [],
      "name": "rewarder",
      "outputs": [
        {
          "internalType": "address",
          "name": "",
          "type": "address"
        }
      ],
      "stateMutability": "view",
      "type": "function"
    },
    {
      "inputs": [],
      "name": "riskPool",
      "outputs": [
        {
          "internalType": "address",
          "name": "",
          "type": "address"
        }
      ],
      "stateMutability": "view",
      "type": "function"
    },
    {
      "inputs": [
        {
          "internalType": "address",
          "name": "_claimAssessor",
          "type": "address"
        }
      ],
      "name": "setClaimAssessor",
      "outputs": [],
      "stateMutability": "nonpayable",
      "type": "function"
    },
    {
      "inputs": [
        {
          "internalType": "uint256",
          "name": "_lockTime",
          "type": "uint256"
        }
      ],
      "name": "setLockTime",
      "outputs": [],
      "stateMutability": "nonpayable",
      "type": "function"
    },
    {
      "inputs": [
        {
          "internalType": "address",
          "name": "_migrateTo",
          "type": "address"
        }
      ],
      "name": "setMigrateTo",
      "outputs": [],
      "stateMutability": "nonpayable",
      "type": "function"
    },
    {
      "inputs": [
        {
          "internalType": "uint256",
          "name": "_minLPCapital",
          "type": "uint256"
        }
      ],
      "name": "setMinLPCapital",
      "outputs": [],
      "stateMutability": "nonpayable",
      "type": "function"
    },
    {
      "inputs": [
        {
          "internalType": "uint256",
          "name": "_rewardMultiplier",
          "type": "uint256"
        }
      ],
      "name": "setRewardMultiplier",
      "outputs": [],
      "stateMutability": "nonpayable",
      "type": "function"
    },
    {
      "inputs": [],
      "name": "syntheticSSRP",
      "outputs": [
        {
          "internalType": "address",
          "name": "",
          "type": "address"
        }
      ],
      "stateMutability": "view",
      "type": "function"
    },
    {
      "inputs": [],
      "name": "updatePool",
      "outputs": [],
      "stateMutability": "nonpayable",
      "type": "function"
    },
    {
      "inputs": [
        {
          "internalType": "address",
          "name": "",
          "type": "address"
        }
      ],
      "name": "userInfo",
      "outputs": [
        {
          "internalType": "uint256",
          "name": "lastWithdrawTime",
          "type": "uint256"
        },
        {
          "internalType": "uint256",
          "name": "rewardDebt",
          "type": "uint256"
        },
        {
          "internalType": "uint256",
          "name": "amount",
          "type": "uint256"
        }
      ],
      "stateMutability": "view",
      "type": "function"
    }
  ],
  "transactionHash": "0x57b880d815d26854df29a868deed8c4f01591c017288c0473e9e60ced205ba39",
  "args": [
    "0x5569BDF4e02cec3fE459796e3d0e741616029fA4",
    "0x5569BDF4e02cec3fE459796e3d0e741616029fA4"
  ],
  "solcInputHash": "8b4d273543ae78586be14fde7d603ae7",
  "bytecode": "0x6080604052620151806005553480156200001857600080fd5b5060405162002c1d38038062002c1d8339810160408190526200003b916200008f565b6001600081905580546001600160a01b039384166001600160a01b03199182161790915560028054929093169116179055620000c6565b80516001600160a01b03811681146200008a57600080fd5b919050565b60008060408385031215620000a2578182fd5b620000ad8362000072565b9150620000bd6020840162000072565b90509250929050565b612b4780620000d66000396000f3fe608060405234801561001057600080fd5b50600436106101e55760003560e01c80639336f4061161010f578063bc8f8828116100a2578063e08c5de111610071578063e08c5de1146103c8578063e19e7168146103db578063e3161ddd146103e3578063e3824a38146103eb576101e5565b8063bc8f8828146103a8578063c4e5dacf146103b0578063c6e89915146103b8578063dcc3e06e146103c0576101e5565b8063a3bdd632116100de578063a3bdd63214610359578063ae04d45d14610361578063af16d6e014610374578063ba61945714610387576101e5565b80639336f4061461030857806393b6b86c1461032b57806398c6e7601461033e5780639cdf6c2714610346576101e5565b80634c0323661161018757806389919b711161015657806389919b71146102dd5780638ba04b17146102e55780638da5cb5b146102f85780638fd3ab8014610300576101e5565b80634c0323661461028b5780635a2f3d09146102a0578063736ec05c146102b75780638395206c146102ca576101e5565b8063157f71ed116101c3578063157f71ed146102255780631959a002146102385780632e4a014214610263578063413d9c3a14610276576101e5565b80630bd075a1146101ea5780630e5c011e146101ff5780630e9ae42014610212575b600080fd5b6101fd6101f83660046123e9565b6103fe565b005b6101fd61020d366004612200565b610456565b6101fd6102203660046122c1565b61048f565b6101fd610233366004612200565b610787565b61024b610246366004612200565b6107f9565b60405161025a93929190612a19565b60405180910390f35b6101fd610271366004612301565b61081a565b61027e610984565b60405161025a9190612a02565b61029361098a565b60405161025a91906124cc565b6102a8610999565b60405161025a939291906129bb565b6101fd6102c5366004612200565b6109b7565b6101fd6102d83660046123e9565b610a29565b61027e610c86565b6101fd6102f336600461234c565b610c92565b610293610e1e565b6101fd610e2d565b61031b610316366004612200565b610fa5565b60405161025a9493929190612a2f565b6101fd6103393660046123e9565b6110e3565b610293611192565b6101fd61035436600461223f565b6111a1565b61027e611321565b6101fd61036f3660046123e9565b6113a3565b6101fd610382366004612277565b6113f2565b61039a610395366004612200565b611551565b60405161025a929190612a0b565b6101fd61160c565b610293611888565b610293611897565b6102936118a6565b61027e6103d6366004612200565b6118b5565b6101fd611a1f565b6101fd611ab0565b6101fd6103f93660046123e9565b611c46565b6001546001600160a01b031633146104315760405162461bcd60e51b8152600401610428906128ac565b60405180910390fd5b600081116104515760405162461bcd60e51b815260040161042890612799565b600a55565b600260005414156104795760405162461bcd60e51b815260040161042890612918565b600260005561048781611f22565b506001600055565b600260005414156104b25760405162461bcd60e51b815260040161042890612918565b60026000556007546001600160a01b031633146104e15760405162461bcd60e51b815260040161042890612986565b6004546001600160a01b0384811691161480159061050d57506004546001600160a01b03838116911614155b1561077d5761051b83611f22565b6001600160a01b03808416600090815260086020526040808220600201546007549151631665744b60e11b815290939190911690632ccae896906105639088906004016124cc565b60606040518083038186803b15801561057b57600080fd5b505afa15801561058f573d6000803e3d6000fd5b505050506040513d601f19601f820116820180604052508101906105b3919061243c565b505090508281836105c49190612acc565b10156105e25760405162461bcd60e51b8152600401610428906126f6565b600954600090670de0b6b3a76400009061060c90600160801b90046001600160801b031685612aad565b6106169190612a8d565b600954909150670de0b6b3a76400009061064090600160801b90046001600160801b031686612aad565b61064a9190612a8d565b6106549082612acc565b6001600160a01b03871660009081526008602052604090206001015561067a8484612acc565b6001600160a01b038716600090815260086020526040902060020155600954670de0b6b3a7640000906106bd90600160801b90046001600160801b031686612aad565b6106c79190612a8d565b6001600160a01b0386166000908152600860205260409020600101546106ed9190612a75565b6001600160a01b038616600090815260086020526040902060018101919091556002015461071c908590612a75565b6001600160a01b0380871660008181526008602052604090819020600201939093559151908816907fe97af49bf17de46bed3f953a242569bed68114f89f39c1afe4012bba1c5963d490610771908890612a02565b60405180910390a35050505b5050600160005550565b6001546001600160a01b031633146107b15760405162461bcd60e51b8152600401610428906128ac565b6001600160a01b0381166107d75760405162461bcd60e51b8152600401610428906125f4565b600280546001600160a01b0319166001600160a01b0392909216919091179055565b60086020526000908152604090208054600182015460029092015490919083565b6002546001600160a01b031633146108445760405162461bcd60e51b8152600401610428906128ac565b600260005414156108675760405162461bcd60e51b815260040161042890612918565b60026000556001600160a01b0382166108925760405162461bcd60e51b8152600401610428906125f4565b600081116108b25760405162461bcd60e51b8152600401610428906127d0565b60075460405163172500a160e11b81526000916001600160a01b031690632e4a0142906108e59086908690600401612565565b602060405180830381600087803b1580156108ff57600080fd5b505af1158015610913573d6000803e3d6000fd5b505050506040513d601f19601f820116820180604052508101906109379190612401565b9050826001600160a01b03167f6420c9536b9a539410a930b1fd8d115dc296d8b71426dcc0ab64f2f736b7d59f826040516109729190612a02565b60405180910390a25050600160005550565b60055481565b6004546001600160a01b031681565b600954600a546001600160801b0380831692600160801b9004169083565b6001546001600160a01b031633146109e15760405162461bcd60e51b8152600401610428906128ac565b6001600160a01b038116610a075760405162461bcd60e51b8152600401610428906125f4565b600380546001600160a01b0319166001600160a01b0392909216919091179055565b60026000541415610a4c5760405162461bcd60e51b815260040161042890612918565b6002600055610a5a33611f22565b336000908152600860209081526040808320600201546007548251627a9fd960e91b815292519194936001600160a01b039091169263f53fb2009260048083019392829003018186803b158015610ab057600080fd5b505afa158015610ac4573d6000803e3d6000fd5b505050506040513d601f19601f82011682018060405250810190610ae89190612401565b600754604051631665744b60e11b81529192506000916001600160a01b0390911690632ccae89690610b1e9033906004016124cc565b60606040518083038186803b158015610b3657600080fd5b505afa158015610b4a573d6000803e3d6000fd5b505050506040513d601f19601f82011682018060405250810190610b6e919061243c565b5050905083670de0b6b3a7640000838386610b899190612acc565b610b939190612aad565b610b9d9190612a8d565b1015610bbb5760405162461bcd60e51b815260040161042890612662565b6007546040516323de6d9560e11b81526001600160a01b03909116906347bcdb2a90610bed9033908890600401612565565b600060405180830381600087803b158015610c0757600080fd5b505af1158015610c1b573d6000803e3d6000fd5b5050336000818152600860205260409081902042905560075490516001600160a01b0390911693509091507f940a14c75c418e7230a2e65567722d2dda5a6713cf71b369bd0fa219fdc1ac5e90610c73908890612a02565b60405180910390a3505060016000555050565b670de0b6b3a764000081565b6001546001600160a01b03163314610cbc5760405162461bcd60e51b8152600401610428906128ac565b60026000541415610cdf5760405162461bcd60e51b815260040161042890612918565b60026000556007546001600160a01b031615610d0d5760405162461bcd60e51b81526004016104289061272d565b604051630d98e31f60e01b81526001600160a01b03841690630d98e31f90610d43908a908a908a908a9030908a906004016125a6565b602060405180830381600087803b158015610d5d57600080fd5b505af1158015610d71573d6000803e3d6000fd5b505050506040513d601f19601f82011682018060405250810190610d959190612223565b600780546001600160a01b0319166001600160a01b039283161790819055600980546fffffffffffffffffffffffffffffffff1916436001600160801b0390811691909117169055600a83905560405191169030907f184d7691bf4a73930a21086fa1bdf0ee3075421531a60730288325fd5838021790600090a3505060016000555050505050565b6001546001600160a01b031681565b60026000541415610e505760405162461bcd60e51b815260040161042890612918565b60026000556003546001600160a01b0316610e7d5760405162461bcd60e51b8152600401610428906125f4565b610e8633611f22565b3360009081526008602052604081206002810154600554915490929190610ead9042612acc565b600754600354604051633613302f60e01b81529390921193506001600160a01b0390811692633613302f92610eeb923392911690869060040161251d565b600060405180830381600087803b158015610f0557600080fd5b505af1158015610f19573d6000803e3d6000fd5b505060035460405163ed59344b60e01b81526001600160a01b03909116925063ed59344b9150610f4f903390869060040161257e565b600060405180830381600087803b158015610f6957600080fd5b505af1158015610f7d573d6000803e3d6000fd5b5050336000908152600860205260408120600281018290556001908101829055905550505050565b6000806000806000600760009054906101000a90046001600160a01b03166001600160a01b031663f53fb2006040518163ffffffff1660e01b815260040160206040518083038186803b158015610ffb57600080fd5b505afa15801561100f573d6000803e3d6000fd5b505050506040513d601f19601f820116820180604052508101906110339190612401565b600754604051631665744b60e11b81529192506001600160a01b031690632ccae896906110649089906004016124cc565b60606040518083038186803b15801561107c57600080fd5b505afa158015611090573d6000803e3d6000fd5b505050506040513d601f19601f820116820180604052508101906110b4919061243c565b9196509093509150670de0b6b3a76400006110cf8287612aad565b6110d99190612a8d565b9350509193509193565b6001546001600160a01b0316331461110d5760405162461bcd60e51b8152600401610428906128ac565b6000811161112d5760405162461bcd60e51b81526004016104289061294f565b6007546040516324edae1b60e21b81526001600160a01b03909116906393b6b86c9061115d908490600401612a02565b600060405180830381600087803b15801561117757600080fd5b505af115801561118b573d6000803e3d6000fd5b5050505050565b6003546001600160a01b031681565b6001546001600160a01b031633146111cb5760405162461bcd60e51b8152600401610428906128ac565b600260005414156111ee5760405162461bcd60e51b815260040161042890612918565b60026000556001600160a01b0382166112195760405162461bcd60e51b815260040161042890612807565b6001600160a01b03811661123f5760405162461bcd60e51b81526004016104289061262b565b6007546040516377b3d99760e01b81526001600160a01b03808416926377b3d9979261127192879216906004016124e0565b602060405180830381600087803b15801561128b57600080fd5b505af115801561129f573d6000803e3d6000fd5b505050506040513d601f19601f820116820180604052508101906112c39190612223565b600480546001600160a01b0319166001600160a01b03928316179081905560075460405190831692919091169030907f3d2362862a7867eb0f64552c1fa638b6adf3907a7defe349eab238f6a0b2d83190600090a450506001600055565b6007546040805163e95aa8d360e01b815290516000926001600160a01b03169163e95aa8d3916004808301926020929190829003018186803b15801561136657600080fd5b505afa15801561137a573d6000803e3d6000fd5b505050506040513d601f19601f8201168201806040525081019061139e9190612401565b905090565b6001546001600160a01b031633146113cd5760405162461bcd60e51b8152600401610428906128ac565b600081116113ed5760405162461bcd60e51b81526004016104289061283e565b600555565b6001546001600160a01b0316331461141c5760405162461bcd60e51b8152600401610428906128ac565b6002600054141561143f5760405162461bcd60e51b815260040161042890612918565b60026000556001600160a01b03821661146a5760405162461bcd60e51b8152600401610428906128e3565b6040516369ee745160e01b81526001600160a01b038316906369ee74519061149a908690859030906004016124fa565b602060405180830381600087803b1580156114b457600080fd5b505af11580156114c8573d6000803e3d6000fd5b505050506040513d601f19601f820116820180604052508101906114ec9190612223565b600680546001600160a01b0319166001600160a01b03928316179081905560405191169030907f6c409a36847a0a3870deae25f656f4300d45957d2643fc27faab145e19cfcf1b9061153f9085906124cc565b60405180910390a35050600160005550565b6001600160a01b038082166000908152600860209081526040808320600201546007548251627a9fd960e91b81529251949591948694919092169263f53fb2009260048083019392829003018186803b1580156115ad57600080fd5b505afa1580156115c1573d6000803e3d6000fd5b505050506040513d601f19601f820116820180604052508101906115e59190612401565b9050670de0b6b3a76400006115fa8284612aad565b6116049190612a8d565b925050915091565b6002600054141561162f5760405162461bcd60e51b815260040161042890612918565b6002600090815560055433825260086020526040909120546116519042612acc565b101561166f5760405162461bcd60e51b815260040161042890612762565b61167833611f22565b33600081815260086020526040808220600201546007549151631665744b60e11b815290936001600160a01b0390921691632ccae896916116bc91906004016124cc565b60606040518083038186803b1580156116d457600080fd5b505afa1580156116e8573d6000803e3d6000fd5b505050506040513d601f19601f8201168201806040525081019061170c919061243c565b5050600954909150600090670de0b6b3a76400009061173b90600160801b90046001600160801b031685612aad565b6117459190612a8d565b600954909150670de0b6b3a76400009061176f90600160801b90046001600160801b031684612aad565b6117799190612a8d565b6117839082612acc565b3360008181526008602052604080822060010193909355600754925163b20ecd1560e01b8152909283926001600160a01b039091169163b20ecd15916117cb916004016124cc565b6040805180830381600087803b1580156117e457600080fd5b505af11580156117f8573d6000803e3d6000fd5b505050506040513d601f19601f8201168201806040525081019061181c9190612419565b909250905061182b8286612acc565b33600081815260086020526040908190206002019290925590517f617c612e91653c86cd4538e3de94b98c8dd628b41e343380d1cf858f95c0674a906118749085908590612a0b565b60405180910390a250506001600055505050565b6007546001600160a01b031681565b6002546001600160a01b031681565b6006546001600160a01b031681565b600080600760009054906101000a90046001600160a01b03166001600160a01b03166318160ddd6040518163ffffffff1660e01b815260040160206040518083038186803b15801561190657600080fd5b505afa15801561191a573d6000803e3d6000fd5b505050506040513d601f19601f8201168201806040525081019061193e9190612401565b6009549091506001600160801b03600160801b8204811691164311801561196457508115155b156119c357600954600090611982906001600160801b031643612acc565b600a549091506000906119959083612aad565b9050836119aa670de0b6b3a764000083612aad565b6119b49190612a8d565b6119be9084612a4a565b925050505b6001600160a01b03841660009081526008602052604090206002810154600190910154670de0b6b3a7640000611a026001600160801b03851684612aad565b611a0c9190612a8d565b611a169190612acc565b95945050505050565b60026000541415611a425760405162461bcd60e51b815260040161042890612918565b60026000556007546040516306e6829960e51b81526001600160a01b039091169063dcd0532090611a779033906004016124cc565b600060405180830381600087803b158015611a9157600080fd5b505af1158015611aa5573d6000803e3d6000fd5b505060016000555050565b6009546001600160801b0316431115611c4457600754604080516318160ddd60e01b815290516000926001600160a01b0316916318160ddd916004808301926020929190829003018186803b158015611b0857600080fd5b505afa158015611b1c573d6000803e3d6000fd5b505050506040513d601f19601f82011682018060405250810190611b409190612401565b90508015611bd057600954600090611b61906001600160801b031643612acc565b600a54909150600090611b749083612aad565b905082611b89670de0b6b3a764000083612aad565b611b939190612a8d565b600954611bb09190600160801b90046001600160801b0316612a4a565b600980546001600160801b03928316600160801b02921691909117905550505b600980546fffffffffffffffffffffffffffffffff1916436001600160801b0390811691909117918290556040517f982b813c7d00a9ffce9441ba40f429b2e4a35068d75532f496d0c63585c2fa6892611c3a92818116928692600160801b9004909116906129df565b60405180910390a1505b565b60026000541415611c695760405162461bcd60e51b815260040161042890612918565b600260005580611c8b5760405162461bcd60e51b815260040161042890612875565b611c93611ab0565b6007546040805163e5a6b10f60e01b815290516000926001600160a01b03169163e5a6b10f916004808301926020929190829003018186803b158015611cd857600080fd5b505afa158015611cec573d6000803e3d6000fd5b505050506040513d601f19601f82011682018060405250810190611d109190612223565b90506000600760009054906101000a90046001600160a01b03166001600160a01b031663f53fb2006040518163ffffffff1660e01b815260040160206040518083038186803b158015611d6257600080fd5b505afa158015611d76573d6000803e3d6000fd5b505050506040513d601f19601f82011682018060405250810190611d9a9190612401565b600754909150611db790839033906001600160a01b0316866120b4565b600754604051637e348b7d60e01b81526001600160a01b0390911690637e348b7d90611de99033908790600401612565565b600060405180830381600087803b158015611e0357600080fd5b505af1158015611e17573d6000803e3d6000fd5b5050600954670de0b6b3a76400009250839150600160801b90046001600160801b0316611e448684612aad565b611e4e9190612aad565b611e589190612a8d565b611e629190612a8d565b33600090815260086020526040902060010154611e7f9190612a75565b3360009081526008602052604090206001015580611ea584670de0b6b3a7640000612aad565b611eaf9190612a8d565b33600090815260086020526040902060020154611ecc9190612a75565b33600081815260086020526040908190206002019290925560075491516001600160a01b03909216917fd3dba7b5565b16b7749db7d1938410a636e3c7a6ea46ed8ce7e259e19f2f3b9f9061153f908790612a02565b611f2a611ab0565b6001600160a01b038116600090815260086020526040812060020154600954909190670de0b6b3a764000090611f7090600160801b90046001600160801b031684612aad565b611f7a9190612a8d565b6001600160a01b03841660009081526008602052604081206001015491925090611fa49083612acc565b336000908152600860205260408120600101849055600654919250906001600160a01b031615801590611fd657508115155b156120625760065460405163186e465160e31b81526001600160a01b039091169063c37232889061200d9088908690600401612565565b602060405180830381600087803b15801561202757600080fd5b505af115801561203b573d6000803e3d6000fd5b505050506040513d601f19601f8201168201806040525081019061205f9190612401565b90505b846001600160a01b0316336001600160a01b03167fa0306f61d3fafe13787b78e276cb6b644382854a66cb46daae14227d3ec26797836040516120a59190612a02565b60405180910390a35050505050565b600080856001600160a01b03166323b872dd8686866040516024016120db93929190612541565b6040516020818303038152906040529060e01b6020820180517bffffffffffffffffffffffffffffffffffffffffffffffffffffffff83818316178352505050506040516121299190612493565b6000604051808303816000865af19150503d8060008114612166576040519150601f19603f3d011682016040523d82523d6000602084013e61216b565b606091505b5091509150818015612195575080511580612195575080806020019051810190612195919061232c565b6121b15760405162461bcd60e51b815260040161042890612699565b505050505050565b60008083601f8401126121ca578182fd5b50813567ffffffffffffffff8111156121e1578182fd5b6020830191508360208285010111156121f957600080fd5b9250929050565b600060208284031215612211578081fd5b813561221c81612af9565b9392505050565b600060208284031215612234578081fd5b815161221c81612af9565b60008060408385031215612251578081fd5b823561225c81612af9565b9150602083013561226c81612af9565b809150509250929050565b60008060006060848603121561228b578081fd5b833561229681612af9565b925060208401356122a681612af9565b915060408401356122b681612af9565b809150509250925092565b6000806000606084860312156122d5578283fd5b83356122e081612af9565b925060208401356122f081612af9565b929592945050506040919091013590565b60008060408385031215612313578182fd5b823561231e81612af9565b946020939093013593505050565b60006020828403121561233d578081fd5b8151801515811461221c578182fd5b600080600080600080600060a0888a031215612366578283fd5b873567ffffffffffffffff8082111561237d578485fd5b6123898b838c016121b9565b909950975060208a01359150808211156123a1578485fd5b506123ae8a828b016121b9565b90965094505060408801356123c281612af9565b925060608801356123d281612af9565b809250506080880135905092959891949750929550565b6000602082840312156123fa578081fd5b5035919050565b600060208284031215612412578081fd5b5051919050565b6000806040838503121561242b578182fd5b505080516020909101519092909150565b600080600060608486031215612450578283fd5b8351925060208401519150604084015190509250925092565b60008284528282602086013780602084860101526020601f19601f85011685010190509392505050565b60008251815b818110156124b35760208186018101518583015201612499565b818111156124c15782828501525b509190910192915050565b6001600160a01b0391909116815260200190565b6001600160a01b0392831681529116602082015260400190565b6001600160a01b0393841681529183166020830152909116604082015260600190565b6001600160a01b039384168152919092166020820152901515604082015260600190565b6001600160a01b039384168152919092166020820152604081019190915260600190565b6001600160a01b03929092168252602082015260400190565b6001600160a01b03929092168252602082015260606040820181905260009082015260800190565b6000608082526125ba60808301888a612469565b82810360208401526125cd818789612469565b9150506001600160a01b038085166040840152808416606084015250979650505050505050565b60208082526013908201527f556e6f52653a207a65726f206164647265737300000000000000000000000000604082015260600190565b6020808252601a908201527f556e6f52653a7a65726f20666163746f72792061646472657373000000000000604082015260600190565b6020808252601f908201527f556e6f52653a20776974686472617720616d6f756e74206f766572666c6f7700604082015260600190565b60208082526031908201527f5472616e7366657248656c7065723a3a7472616e7366657246726f6d3a20747260408201527f616e7366657246726f6d206661696c6564000000000000000000000000000000606082015260800190565b60208082526017908201527f556e6f52653a2062616c616e6365206f766572666c6f77000000000000000000604082015260600190565b6020808252818101527f556e6f52653a207269736b20706f6f6c206372656174656420616c7265616479604082015260600190565b60208082526012908201527f556e6f52653a204c6f636b65642074696d650000000000000000000000000000604082015260600190565b60208082526011908201527f556e6f52653a207a65726f2076616c7565000000000000000000000000000000604082015260600190565b60208082526012908201527f556e6f52653a207a65726f20616d6f756e740000000000000000000000000000604082015260600190565b60208082526019908201527f556e6f52653a207a65726f206f776e6572206164647265737300000000000000604082015260600190565b6020808252601f908201527f556e6f52653a206e6f7420616c6c6f77207a65726f206c6f636b2074696d6500604082015260600190565b60208082526011908201527f556e6f52653a205a45524f2056616c7565000000000000000000000000000000604082015260600190565b60208082526010908201527f556e6f52653a20466f7262696464656e00000000000000000000000000000000604082015260600190565b6020808252818101527f556e6f52653a20726577617264657220666163746f7279206e6f206578697374604082015260600190565b6020808252601f908201527f5265656e7472616e637947756172643a207265656e7472616e742063616c6c00604082015260600190565b6020808252601b908201527f556e6f52653a206e6f7420616c6c6f77207a65726f2076616c75650000000000604082015260600190565b6020808252818101527f556e6f52653a206e6f7420616c6c6f77206f7468657273207472616e73666572604082015260600190565b6001600160801b039384168152919092166020820152604081019190915260600190565b6001600160801b0393841681526020810192909252909116604082015260600190565b90815260200190565b918252602082015260400190565b9283526020830191909152604082015260600190565b93845260208401929092526040830152606082015260800190565b60006001600160801b03808316818516808303821115612a6c57612a6c612ae3565b01949350505050565b60008219821115612a8857612a88612ae3565b500190565b600082612aa857634e487b7160e01b81526012600452602481fd5b500490565b6000816000190483118215151615612ac757612ac7612ae3565b500290565b600082821015612ade57612ade612ae3565b500390565b634e487b7160e01b600052601160045260246000fd5b6001600160a01b0381168114612b0e57600080fd5b5056fea264697066735822122007ab41643d53f179e166894a7b3acbf21682c71f9fd929837a0e3d45c64a1a5c64736f6c63430008000033",
  "devdoc": {
    "kind": "dev",
    "methods": {
      "createRiskPool(string,string,address,address,uint256)": {
        "details": "create Risk pool with UNO from SSRP owner"
      },
      "getTotalWithdrawPendingAmount()": {
        "details": "get total withdraw request amount in pending for the risk pool in UNO"
      },
      "getWithdrawRequestPerUser(address)": {
        "details": "get withdraw request amount in pending per user in UNO"
      },
      "leaveFromPending()": {
        "details": "user can submit claim again and receive his funds into his wallet after 10 days since last WR."
      },
      "leaveFromPoolInPending(uint256)": {
        "details": "WR will be in pending for 10 days at least"
      }
    },
    "version": 1
  },
  "userdoc": {
    "kind": "user",
    "methods": {},
    "version": 1
  },
  "storageLayout": {
    "storage": [
      {
        "astId": 114,
        "contract": "contracts/SingleSidedReinsurancePool.sol:SingleSidedReinsurancePool",
        "label": "_status",
        "offset": 0,
        "slot": "0",
        "type": "t_uint256"
      },
      {
        "astId": 9401,
        "contract": "contracts/SingleSidedReinsurancePool.sol:SingleSidedReinsurancePool",
        "label": "owner",
        "offset": 0,
        "slot": "1",
        "type": "t_address"
      },
      {
        "astId": 9403,
        "contract": "contracts/SingleSidedReinsurancePool.sol:SingleSidedReinsurancePool",
        "label": "claimAssessor",
        "offset": 0,
        "slot": "2",
        "type": "t_address"
      },
      {
        "astId": 9405,
        "contract": "contracts/SingleSidedReinsurancePool.sol:SingleSidedReinsurancePool",
        "label": "migrateTo",
        "offset": 0,
        "slot": "3",
        "type": "t_address"
      },
      {
        "astId": 9407,
        "contract": "contracts/SingleSidedReinsurancePool.sol:SingleSidedReinsurancePool",
        "label": "syntheticSSRP",
        "offset": 0,
        "slot": "4",
        "type": "t_address"
      },
      {
        "astId": 9410,
        "contract": "contracts/SingleSidedReinsurancePool.sol:SingleSidedReinsurancePool",
        "label": "LOCK_TIME",
        "offset": 0,
        "slot": "5",
        "type": "t_uint256"
      },
      {
        "astId": 9415,
        "contract": "contracts/SingleSidedReinsurancePool.sol:SingleSidedReinsurancePool",
        "label": "rewarder",
        "offset": 0,
        "slot": "6",
        "type": "t_address"
      },
      {
        "astId": 9418,
        "contract": "contracts/SingleSidedReinsurancePool.sol:SingleSidedReinsurancePool",
        "label": "riskPool",
        "offset": 0,
        "slot": "7",
        "type": "t_address"
      },
      {
        "astId": 9437,
        "contract": "contracts/SingleSidedReinsurancePool.sol:SingleSidedReinsurancePool",
        "label": "userInfo",
        "offset": 0,
        "slot": "8",
        "type": "t_mapping(t_address,t_struct(UserInfo)9432_storage)"
      },
      {
        "astId": 9440,
        "contract": "contracts/SingleSidedReinsurancePool.sol:SingleSidedReinsurancePool",
        "label": "poolInfo",
        "offset": 0,
        "slot": "9",
        "type": "t_struct(PoolInfo)9425_storage"
      }
    ],
    "types": {
      "t_address": {
        "encoding": "inplace",
        "label": "address",
        "numberOfBytes": "20"
      },
      "t_mapping(t_address,t_struct(UserInfo)9432_storage)": {
        "encoding": "mapping",
        "key": "t_address",
        "label": "mapping(address => struct SingleSidedReinsurancePool.UserInfo)",
        "numberOfBytes": "32",
        "value": "t_struct(UserInfo)9432_storage"
      },
      "t_struct(PoolInfo)9425_storage": {
        "encoding": "inplace",
        "label": "struct SingleSidedReinsurancePool.PoolInfo",
        "members": [
          {
            "astId": 9420,
            "contract": "contracts/SingleSidedReinsurancePool.sol:SingleSidedReinsurancePool",
            "label": "lastRewardBlock",
            "offset": 0,
            "slot": "0",
            "type": "t_uint128"
          },
          {
            "astId": 9422,
            "contract": "contracts/SingleSidedReinsurancePool.sol:SingleSidedReinsurancePool",
            "label": "accUnoPerShare",
            "offset": 16,
            "slot": "0",
            "type": "t_uint128"
          },
          {
            "astId": 9424,
            "contract": "contracts/SingleSidedReinsurancePool.sol:SingleSidedReinsurancePool",
            "label": "unoMultiplierPerBlock",
            "offset": 0,
            "slot": "1",
            "type": "t_uint256"
          }
        ],
        "numberOfBytes": "64"
      },
      "t_struct(UserInfo)9432_storage": {
        "encoding": "inplace",
        "label": "struct SingleSidedReinsurancePool.UserInfo",
        "members": [
          {
            "astId": 9427,
            "contract": "contracts/SingleSidedReinsurancePool.sol:SingleSidedReinsurancePool",
            "label": "lastWithdrawTime",
            "offset": 0,
            "slot": "0",
            "type": "t_uint256"
          },
          {
            "astId": 9429,
            "contract": "contracts/SingleSidedReinsurancePool.sol:SingleSidedReinsurancePool",
            "label": "rewardDebt",
            "offset": 0,
            "slot": "1",
            "type": "t_uint256"
          },
          {
            "astId": 9431,
            "contract": "contracts/SingleSidedReinsurancePool.sol:SingleSidedReinsurancePool",
            "label": "amount",
            "offset": 0,
            "slot": "2",
            "type": "t_uint256"
          }
        ],
        "numberOfBytes": "96"
      },
      "t_uint128": {
        "encoding": "inplace",
        "label": "uint128",
        "numberOfBytes": "16"
      },
      "t_uint256": {
        "encoding": "inplace",
        "label": "uint256",
        "numberOfBytes": "32"
      }
    }
  }
}