{
  "address": "0xD9f69b8d50295119b002ecE30ec2C87cA33Ed565",
  "abi": [
    {
      "inputs": [
        {
          "internalType": "address",
          "name": "_owner",
          "type": "address"
        },
        {
          "internalType": "address",
          "name": "_claimAssessor",
          "type": "address"
        }
      ],
      "stateMutability": "nonpayable",
      "type": "constructor"
    },
    {
      "anonymous": false,
      "inputs": [
        {
          "indexed": true,
          "internalType": "address",
          "name": "_user",
          "type": "address"
        },
        {
          "indexed": true,
          "internalType": "address",
          "name": "_receiver",
          "type": "address"
        },
        {
          "indexed": false,
          "internalType": "uint256",
          "name": "_amount",
          "type": "uint256"
        }
      ],
      "name": "Harvest",
      "type": "event"
    },
    {
      "anonymous": false,
      "inputs": [
        {
          "indexed": true,
          "internalType": "address",
          "name": "_staker",
          "type": "address"
        },
        {
          "indexed": true,
          "internalType": "address",
          "name": "_pool",
          "type": "address"
        },
        {
          "indexed": false,
          "internalType": "uint256",
          "name": "_requestAmount",
          "type": "uint256"
        }
      ],
      "name": "LeftPool",
      "type": "event"
    },
    {
      "anonymous": false,
      "inputs": [
        {
          "indexed": true,
          "internalType": "address",
          "name": "_user",
          "type": "address"
        },
        {
          "indexed": false,
          "internalType": "uint256",
          "name": "_cancelAmount",
          "type": "uint256"
        },
        {
          "indexed": false,
          "internalType": "uint256",
          "name": "_cancelAmountInUno",
          "type": "uint256"
        }
      ],
      "name": "LogCancelWithdrawRequest",
      "type": "event"
    },
    {
      "anonymous": false,
      "inputs": [
        {
          "indexed": true,
          "internalType": "address",
          "name": "_SSRP",
          "type": "address"
        },
        {
          "indexed": true,
          "internalType": "address",
          "name": "_rewarder",
          "type": "address"
        },
        {
          "indexed": false,
          "internalType": "address",
          "name": "_currency",
          "type": "address"
        }
      ],
      "name": "LogCreateRewarder",
      "type": "event"
    },
    {
      "anonymous": false,
      "inputs": [
        {
          "indexed": true,
          "internalType": "address",
          "name": "_SSRP",
          "type": "address"
        },
        {
          "indexed": true,
          "internalType": "address",
          "name": "_syntheticSSRP",
          "type": "address"
        },
        {
          "indexed": true,
          "internalType": "address",
          "name": "_lpToken",
          "type": "address"
        }
      ],
      "name": "LogCreateSyntheticSSRP",
      "type": "event"
    },
    {
      "anonymous": false,
      "inputs": [
        {
          "indexed": true,
          "internalType": "address",
          "name": "_user",
          "type": "address"
        },
        {
          "indexed": false,
          "internalType": "uint256",
          "name": "_withdrawLpAmount",
          "type": "uint256"
        },
        {
          "indexed": false,
          "internalType": "uint256",
          "name": "_withdrawUnoAmount",
          "type": "uint256"
        }
      ],
      "name": "LogLeaveFromPendingSSRP",
      "type": "event"
    },
    {
      "anonymous": false,
      "inputs": [
        {
          "indexed": true,
          "internalType": "address",
          "name": "_from",
          "type": "address"
        },
        {
          "indexed": true,
          "internalType": "address",
          "name": "_to",
          "type": "address"
        },
        {
          "indexed": false,
          "internalType": "uint256",
          "name": "_amount",
          "type": "uint256"
        }
      ],
      "name": "LogLpTransferInSSRP",
      "type": "event"
    },
    {
      "anonymous": false,
      "inputs": [
        {
          "indexed": true,
          "internalType": "address",
          "name": "_user",
          "type": "address"
        },
        {
          "indexed": true,
          "internalType": "address",
          "name": "_migrateTo",
          "type": "address"
        },
        {
          "indexed": false,
          "internalType": "uint256",
          "name": "_migratedAmount",
          "type": "uint256"
        }
      ],
      "name": "LogMigrate",
      "type": "event"
    },
    {
      "anonymous": false,
      "inputs": [
        {
          "indexed": false,
          "internalType": "uint128",
          "name": "_lastRewardBlock",
          "type": "uint128"
        },
        {
          "indexed": false,
          "internalType": "uint256",
          "name": "_lpSupply",
          "type": "uint256"
        },
        {
          "indexed": false,
          "internalType": "uint256",
          "name": "_accUnoPerShare",
          "type": "uint256"
        }
      ],
      "name": "LogUpdatePool",
      "type": "event"
    },
    {
      "anonymous": false,
      "inputs": [
        {
          "indexed": true,
          "internalType": "address",
          "name": "_user",
          "type": "address"
        },
        {
          "indexed": false,
          "internalType": "uint256",
          "name": "_claimAmount",
          "type": "uint256"
        }
      ],
      "name": "PolicyClaim",
      "type": "event"
    },
    {
      "anonymous": false,
      "inputs": [
        {
          "indexed": true,
          "internalType": "address",
          "name": "_SSRP",
          "type": "address"
        },
        {
          "indexed": true,
          "internalType": "address",
          "name": "_pool",
          "type": "address"
        }
      ],
      "name": "RiskPoolCreated",
      "type": "event"
    },
    {
      "anonymous": false,
      "inputs": [
        {
          "indexed": true,
          "internalType": "address",
          "name": "_staker",
          "type": "address"
        },
        {
          "indexed": true,
          "internalType": "address",
          "name": "_pool",
          "type": "address"
        },
        {
          "indexed": false,
          "internalType": "uint256",
          "name": "_amount",
          "type": "uint256"
        }
      ],
      "name": "StakedInPool",
      "type": "event"
    },
    {
      "inputs": [],
      "name": "ACC_UNO_PRECISION",
      "outputs": [
        {
          "internalType": "uint256",
          "name": "",
          "type": "uint256"
        }
      ],
      "stateMutability": "view",
      "type": "function"
    },
    {
      "inputs": [],
      "name": "LOCK_TIME",
      "outputs": [
        {
          "internalType": "uint256",
          "name": "",
          "type": "uint256"
        }
      ],
      "stateMutability": "view",
      "type": "function"
    },
    {
      "inputs": [],
      "name": "STAKING_START_TIME",
      "outputs": [
        {
          "internalType": "uint256",
          "name": "",
          "type": "uint256"
        }
      ],
      "stateMutability": "view",
      "type": "function"
    },
    {
      "inputs": [],
      "name": "cancelWithdrawRequest",
      "outputs": [],
      "stateMutability": "nonpayable",
      "type": "function"
    },
    {
      "inputs": [],
      "name": "claimAssessor",
      "outputs": [
        {
          "internalType": "address",
          "name": "",
          "type": "address"
        }
      ],
      "stateMutability": "view",
      "type": "function"
    },
    {
      "inputs": [
        {
          "internalType": "address",
          "name": "_operator",
          "type": "address"
        },
        {
          "internalType": "address",
          "name": "_factory",
          "type": "address"
        },
        {
          "internalType": "address",
          "name": "_currency",
          "type": "address"
        }
      ],
      "name": "createRewarder",
      "outputs": [],
      "stateMutability": "nonpayable",
      "type": "function"
    },
    {
      "inputs": [
        {
          "internalType": "string",
          "name": "_name",
          "type": "string"
        },
        {
          "internalType": "string",
          "name": "_symbol",
          "type": "string"
        },
        {
          "internalType": "address",
          "name": "_factory",
          "type": "address"
        },
        {
          "internalType": "address",
          "name": "_currency",
          "type": "address"
        },
        {
          "internalType": "uint256",
          "name": "_rewardMultiplier",
          "type": "uint256"
        }
      ],
      "name": "createRiskPool",
      "outputs": [],
      "stateMutability": "nonpayable",
      "type": "function"
    },
    {
      "inputs": [
        {
          "internalType": "address",
          "name": "_owner",
          "type": "address"
        },
        {
          "internalType": "address",
          "name": "_factory",
          "type": "address"
        }
      ],
      "name": "createSyntheticSSRP",
      "outputs": [],
      "stateMutability": "nonpayable",
      "type": "function"
    },
    {
      "inputs": [
        {
          "internalType": "uint256",
          "name": "_amount",
          "type": "uint256"
        }
      ],
      "name": "enterInPool",
      "outputs": [],
      "stateMutability": "nonpayable",
      "type": "function"
    },
    {
      "inputs": [
        {
          "internalType": "address",
          "name": "_to",
          "type": "address"
        }
      ],
      "name": "getStakedAmountPerUser",
      "outputs": [
        {
          "internalType": "uint256",
          "name": "unoAmount",
          "type": "uint256"
        },
        {
          "internalType": "uint256",
          "name": "lpAmount",
          "type": "uint256"
        }
      ],
      "stateMutability": "view",
      "type": "function"
    },
    {
      "inputs": [],
      "name": "getTotalWithdrawPendingAmount",
      "outputs": [
        {
          "internalType": "uint256",
          "name": "",
          "type": "uint256"
        }
      ],
      "stateMutability": "view",
      "type": "function"
    },
    {
      "inputs": [
        {
          "internalType": "address",
          "name": "_user",
          "type": "address"
        }
      ],
      "name": "getWithdrawRequestPerUser",
      "outputs": [
        {
          "internalType": "uint256",
          "name": "pendingAmount",
          "type": "uint256"
        },
        {
          "internalType": "uint256",
          "name": "pendingAmountInUno",
          "type": "uint256"
        },
        {
          "internalType": "uint256",
          "name": "originUnoAmount",
          "type": "uint256"
        },
        {
          "internalType": "uint256",
          "name": "requestTime",
          "type": "uint256"
        }
      ],
      "stateMutability": "view",
      "type": "function"
    },
    {
      "inputs": [
        {
          "internalType": "address",
          "name": "_to",
          "type": "address"
        }
      ],
      "name": "harvest",
      "outputs": [],
      "stateMutability": "nonpayable",
      "type": "function"
    },
    {
      "inputs": [],
      "name": "leaveFromPending",
      "outputs": [],
      "stateMutability": "nonpayable",
      "type": "function"
    },
    {
      "inputs": [
        {
          "internalType": "uint256",
          "name": "_amount",
          "type": "uint256"
        }
      ],
      "name": "leaveFromPoolInPending",
      "outputs": [],
      "stateMutability": "nonpayable",
      "type": "function"
    },
    {
      "inputs": [
        {
          "internalType": "address",
          "name": "_from",
          "type": "address"
        },
        {
          "internalType": "address",
          "name": "_to",
          "type": "address"
        },
        {
          "internalType": "uint256",
          "name": "_amount",
          "type": "uint256"
        }
      ],
      "name": "lpTransfer",
      "outputs": [],
      "stateMutability": "nonpayable",
      "type": "function"
    },
    {
      "inputs": [],
      "name": "migrate",
      "outputs": [],
      "stateMutability": "nonpayable",
      "type": "function"
    },
    {
      "inputs": [],
      "name": "migrateTo",
      "outputs": [
        {
          "internalType": "address",
          "name": "",
          "type": "address"
        }
      ],
      "stateMutability": "view",
      "type": "function"
    },
    {
      "inputs": [],
      "name": "owner",
      "outputs": [
        {
          "internalType": "address",
          "name": "",
          "type": "address"
        }
      ],
      "stateMutability": "view",
      "type": "function"
    },
    {
      "inputs": [
        {
          "internalType": "address",
          "name": "_to",
          "type": "address"
        }
      ],
      "name": "pendingUno",
      "outputs": [
        {
          "internalType": "uint256",
          "name": "pending",
          "type": "uint256"
        }
      ],
      "stateMutability": "view",
      "type": "function"
    },
    {
      "inputs": [
        {
          "internalType": "address",
          "name": "_to",
          "type": "address"
        },
        {
          "internalType": "uint256",
          "name": "_amount",
          "type": "uint256"
        }
      ],
      "name": "policyClaim",
      "outputs": [],
      "stateMutability": "nonpayable",
      "type": "function"
    },
    {
      "inputs": [],
      "name": "poolInfo",
      "outputs": [
        {
          "internalType": "uint128",
          "name": "lastRewardBlock",
          "type": "uint128"
        },
        {
          "internalType": "uint128",
          "name": "accUnoPerShare",
          "type": "uint128"
        },
        {
          "internalType": "uint256",
          "name": "unoMultiplierPerBlock",
          "type": "uint256"
        }
      ],
      "stateMutability": "view",
      "type": "function"
    },
    {
      "inputs": [],
      "name": "rewarder",
      "outputs": [
        {
          "internalType": "address",
          "name": "",
          "type": "address"
        }
      ],
      "stateMutability": "view",
      "type": "function"
    },
    {
      "inputs": [],
      "name": "riskPool",
      "outputs": [
        {
          "internalType": "address",
          "name": "",
          "type": "address"
        }
      ],
      "stateMutability": "view",
      "type": "function"
    },
    {
      "inputs": [
        {
          "internalType": "address",
          "name": "_claimAssessor",
          "type": "address"
        }
      ],
      "name": "setClaimAssessor",
      "outputs": [],
      "stateMutability": "nonpayable",
      "type": "function"
    },
    {
      "inputs": [
        {
          "internalType": "uint256",
          "name": "_lockTime",
          "type": "uint256"
        }
      ],
      "name": "setLockTime",
      "outputs": [],
      "stateMutability": "nonpayable",
      "type": "function"
    },
    {
      "inputs": [
        {
          "internalType": "address",
          "name": "_migrateTo",
          "type": "address"
        }
      ],
      "name": "setMigrateTo",
      "outputs": [],
      "stateMutability": "nonpayable",
      "type": "function"
    },
    {
      "inputs": [
        {
          "internalType": "uint256",
          "name": "_minLPCapital",
          "type": "uint256"
        }
      ],
      "name": "setMinLPCapital",
      "outputs": [],
      "stateMutability": "nonpayable",
      "type": "function"
    },
    {
      "inputs": [
        {
          "internalType": "uint256",
          "name": "_rewardMultiplier",
          "type": "uint256"
        }
      ],
      "name": "setRewardMultiplier",
      "outputs": [],
      "stateMutability": "nonpayable",
      "type": "function"
    },
    {
      "inputs": [
        {
          "internalType": "uint256",
          "name": "_startTime",
          "type": "uint256"
        }
      ],
      "name": "setStakingStartTime",
      "outputs": [],
      "stateMutability": "nonpayable",
      "type": "function"
    },
    {
      "inputs": [],
      "name": "syntheticSSRP",
      "outputs": [
        {
          "internalType": "address",
          "name": "",
          "type": "address"
        }
      ],
      "stateMutability": "view",
      "type": "function"
    },
    {
      "inputs": [],
      "name": "updatePool",
      "outputs": [],
      "stateMutability": "nonpayable",
      "type": "function"
    },
    {
      "inputs": [
        {
          "internalType": "address",
          "name": "",
          "type": "address"
        }
      ],
      "name": "userInfo",
      "outputs": [
        {
          "internalType": "uint256",
          "name": "lastWithdrawTime",
          "type": "uint256"
        },
        {
          "internalType": "uint256",
          "name": "rewardDebt",
          "type": "uint256"
        },
        {
          "internalType": "uint256",
          "name": "amount",
          "type": "uint256"
        }
      ],
      "stateMutability": "view",
      "type": "function"
    }
  ],
  "transactionHash": "0x00baaa3f379d365cba821fb551ca87f7e26369ff6bdc73830e760f33876b5816",
  "args": [
    "0x5569BDF4e02cec3fE459796e3d0e741616029fA4",
    "0x5569BDF4e02cec3fE459796e3d0e741616029fA4"
  ],
  "solcInputHash": "f90f522f58a98379fa78a375edb9fda4",
  "bytecode": "0x6080604052620151806005553480156200001857600080fd5b5060405162002f2f38038062002f2f8339810160408190526200003b91620000a8565b6001600081905580546001600160a01b038085166001600160a01b03199283161790925560028054928416929091169190911790556200007f426203f480620000df565b60065550620001049050565b80516001600160a01b0381168114620000a357600080fd5b919050565b60008060408385031215620000bb578182fd5b620000c6836200008b565b9150620000d6602084016200008b565b90509250929050565b60008219821115620000ff57634e487b7160e01b81526011600452602481fd5b500190565b612e1b80620001146000396000f3fe608060405234801561001057600080fd5b506004361061020b5760003560e01c80639336f4061161012a578063bc8f8828116100bd578063dcc3e06e1161008c578063e19e716811610071578063e19e71681461041c578063e3161ddd14610424578063e3824a381461042c5761020b565b8063dcc3e06e14610401578063e08c5de1146104095761020b565b8063bc8f8828146103e1578063c4e5dacf146103e9578063c6e89915146103f1578063dba6f962146103f95761020b565b8063a3bdd632116100f9578063a3bdd63214610392578063ae04d45d1461039a578063af16d6e0146103ad578063ba619457146103c05761020b565b80639336f4061461034157806393b6b86c1461036457806398c6e760146103775780639cdf6c271461037f5761020b565b80635a2f3d09116101a257806389919b711161017157806389919b71146103165780638ba04b171461031e5780638da5cb5b146103315780638fd3ab80146103395761020b565b80635a2f3d09146102c65780635d90bad9146102dd578063736ec05c146102f05780638395206c146103035761020b565b80631959a002116101de5780631959a0021461025e5780632e4a014214610289578063413d9c3a1461029c5780634c032366146102b15761020b565b80630bd075a1146102105780630e5c011e146102255780630e9ae42014610238578063157f71ed1461024b575b600080fd5b61022361021e36600461261a565b61043f565b005b610223610233366004612431565b610497565b6102236102463660046124f2565b6104f2565b610223610259366004612431565b6107ea565b61027161026c366004612431565b61085c565b60405161028093929190612ced565b60405180910390f35b610223610297366004612532565b61087d565b6102a4610a09565b6040516102809190612cd6565b6102b9610a0f565b60405161028091906126fd565b6102ce610a1e565b60405161028093929190612c8f565b6102236102eb36600461261a565b610a3c565b6102236102fe366004612431565b610a8b565b61022361031136600461261a565b610afd565b6102a4610d7c565b61022361032c36600461257d565b610d88565b6102b9610f14565b610223610f23565b61035461034f366004612431565b61110c565b6040516102809493929190612d03565b61022361037236600461261a565b61124a565b6102b96112f9565b61022361038d366004612470565b611308565b6102a46114b0565b6102236103a836600461261a565b611532565b6102236103bb3660046124a8565b611581565b6103d36103ce366004612431565b6116ce565b604051610280929190612cdf565b610223611789565b6102b9611a27565b6102b9611a36565b6102a4611a45565b6102b9611a4b565b6102a4610417366004612431565b611a5a565b610223611bc4565b610223611cbf565b61022361043a36600461261a565b611e55565b6001546001600160a01b031633146104725760405162461bcd60e51b815260040161046990612b49565b60405180910390fd5b600081116104925760405162461bcd60e51b8152600401610469906129ca565b600b55565b6006544210156104b95760405162461bcd60e51b815260040161046990612bb5565b600260005414156104dc5760405162461bcd60e51b815260040161046990612bec565b60026000556104ea81612153565b506001600055565b600260005414156105155760405162461bcd60e51b815260040161046990612bec565b60026000556008546001600160a01b031633146105445760405162461bcd60e51b815260040161046990612c5a565b6004546001600160a01b0384811691161480159061057057506004546001600160a01b03838116911614155b156107e05761057e83612153565b6001600160a01b03808416600090815260096020526040808220600201546008549151631665744b60e11b815290939190911690632ccae896906105c69088906004016126fd565b60606040518083038186803b1580156105de57600080fd5b505afa1580156105f2573d6000803e3d6000fd5b505050506040513d601f19601f82011682018060405250810190610616919061266d565b505090508281836106279190612da0565b10156106455760405162461bcd60e51b815260040161046990612927565b600a54600090670de0b6b3a76400009061066f90600160801b90046001600160801b031685612d81565b6106799190612d61565b600a54909150670de0b6b3a7640000906106a390600160801b90046001600160801b031686612d81565b6106ad9190612d61565b6106b79082612da0565b6001600160a01b0387166000908152600960205260409020600101556106dd8484612da0565b6001600160a01b038716600090815260096020526040902060020155600a54670de0b6b3a76400009061072090600160801b90046001600160801b031686612d81565b61072a9190612d61565b6001600160a01b0386166000908152600960205260409020600101546107509190612d49565b6001600160a01b038616600090815260096020526040902060018101919091556002015461077f908590612d49565b6001600160a01b0380871660008181526009602052604090819020600201939093559151908816907fe97af49bf17de46bed3f953a242569bed68114f89f39c1afe4012bba1c5963d4906107d4908890612cd6565b60405180910390a35050505b5050600160005550565b6001546001600160a01b031633146108145760405162461bcd60e51b815260040161046990612b49565b6001600160a01b03811661083a5760405162461bcd60e51b815260040161046990612825565b600280546001600160a01b0319166001600160a01b0392909216919091179055565b60096020526000908152604090208054600182015460029092015490919083565b6002546001600160a01b031633146108a75760405162461bcd60e51b815260040161046990612b49565b6006544210156108c95760405162461bcd60e51b815260040161046990612bb5565b600260005414156108ec5760405162461bcd60e51b815260040161046990612bec565b60026000556001600160a01b0382166109175760405162461bcd60e51b815260040161046990612825565b600081116109375760405162461bcd60e51b815260040161046990612a36565b60085460405163172500a160e11b81526000916001600160a01b031690632e4a01429061096a9086908690600401612796565b602060405180830381600087803b15801561098457600080fd5b505af1158015610998573d6000803e3d6000fd5b505050506040513d601f19601f820116820180604052508101906109bc9190612632565b9050826001600160a01b03167f6420c9536b9a539410a930b1fd8d115dc296d8b71426dcc0ab64f2f736b7d59f826040516109f79190612cd6565b60405180910390a25050600160005550565b60055481565b6004546001600160a01b031681565b600a54600b546001600160801b0380831692600160801b9004169083565b6001546001600160a01b03163314610a665760405162461bcd60e51b815260040161046990612b49565b60008111610a865760405162461bcd60e51b815260040161046990612a01565b600655565b6001546001600160a01b03163314610ab55760405162461bcd60e51b815260040161046990612b49565b6001600160a01b038116610adb5760405162461bcd60e51b815260040161046990612825565b600380546001600160a01b0319166001600160a01b0392909216919091179055565b600654421015610b1f5760405162461bcd60e51b815260040161046990612bb5565b60026000541415610b425760405162461bcd60e51b815260040161046990612bec565b6002600055610b5033612153565b336000908152600960209081526040808320600201546008548251627a9fd960e91b815292519194936001600160a01b039091169263f53fb2009260048083019392829003018186803b158015610ba657600080fd5b505afa158015610bba573d6000803e3d6000fd5b505050506040513d601f19601f82011682018060405250810190610bde9190612632565b600854604051631665744b60e11b81529192506000916001600160a01b0390911690632ccae89690610c149033906004016126fd565b60606040518083038186803b158015610c2c57600080fd5b505afa158015610c40573d6000803e3d6000fd5b505050506040513d601f19601f82011682018060405250810190610c64919061266d565b5050905083670de0b6b3a7640000838386610c7f9190612da0565b610c899190612d81565b610c939190612d61565b1015610cb15760405162461bcd60e51b815260040161046990612893565b6008546040516323de6d9560e11b81526001600160a01b03909116906347bcdb2a90610ce39033908890600401612796565b600060405180830381600087803b158015610cfd57600080fd5b505af1158015610d11573d6000803e3d6000fd5b5050336000818152600960205260409081902042905560085490516001600160a01b0390911693509091507f940a14c75c418e7230a2e65567722d2dda5a6713cf71b369bd0fa219fdc1ac5e90610d69908890612cd6565b60405180910390a3505060016000555050565b670de0b6b3a764000081565b6001546001600160a01b03163314610db25760405162461bcd60e51b815260040161046990612b49565b60026000541415610dd55760405162461bcd60e51b815260040161046990612bec565b60026000556008546001600160a01b031615610e035760405162461bcd60e51b81526004016104699061295e565b604051630d98e31f60e01b81526001600160a01b03841690630d98e31f90610e39908a908a908a908a9030908a906004016127d7565b602060405180830381600087803b158015610e5357600080fd5b505af1158015610e67573d6000803e3d6000fd5b505050506040513d601f19601f82011682018060405250810190610e8b9190612454565b600880546001600160a01b0319166001600160a01b039283161790819055600a80546fffffffffffffffffffffffffffffffff1916436001600160801b0390811691909117169055600b83905560405191169030907f184d7691bf4a73930a21086fa1bdf0ee3075421531a60730288325fd5838021790600090a3505060016000555050505050565b6001546001600160a01b031681565b60026000541415610f465760405162461bcd60e51b815260040161046990612bec565b60026000556003546001600160a01b0316610f735760405162461bcd60e51b815260040161046990612825565b610f7c33612153565b3360009081526009602052604081206002810154600554915490929190610fa39042612da0565b600854600354604051633613302f60e01b81529390921193506000926001600160a01b0391821692633613302f92610fe592339290911690879060040161274e565b602060405180830381600087803b158015610fff57600080fd5b505af1158015611013573d6000803e3d6000fd5b505050506040513d601f19601f820116820180604052508101906110379190612632565b60035460405163ed59344b60e01b81529192506001600160a01b03169063ed59344b9061106a90339087906004016127af565b600060405180830381600087803b15801561108457600080fd5b505af1158015611098573d6000803e3d6000fd5b505033600081815260096020526040808220600281018390556001019190915560035490516001600160a01b0390911693509091507ff0fee1f70845d356d6a3e0baa0944ce846437b6469ea89416dad2cd7067919a4906110fa908590612cd6565b60405180910390a35050600160005550565b6000806000806000600860009054906101000a90046001600160a01b03166001600160a01b031663f53fb2006040518163ffffffff1660e01b815260040160206040518083038186803b15801561116257600080fd5b505afa158015611176573d6000803e3d6000fd5b505050506040513d601f19601f8201168201806040525081019061119a9190612632565b600854604051631665744b60e11b81529192506001600160a01b031690632ccae896906111cb9089906004016126fd565b60606040518083038186803b1580156111e357600080fd5b505afa1580156111f7573d6000803e3d6000fd5b505050506040513d601f19601f8201168201806040525081019061121b919061266d565b9196509093509150670de0b6b3a76400006112368287612d81565b6112409190612d61565b9350509193509193565b6001546001600160a01b031633146112745760405162461bcd60e51b815260040161046990612b49565b600081116112945760405162461bcd60e51b815260040161046990612c23565b6008546040516324edae1b60e21b81526001600160a01b03909116906393b6b86c906112c4908490600401612cd6565b600060405180830381600087803b1580156112de57600080fd5b505af11580156112f2573d6000803e3d6000fd5b5050505050565b6003546001600160a01b031681565b6001546001600160a01b031633146113325760405162461bcd60e51b815260040161046990612b49565b600260005414156113555760405162461bcd60e51b815260040161046990612bec565b60026000556001600160a01b0382166113805760405162461bcd60e51b815260040161046990612aa4565b6001600160a01b0381166113a65760405162461bcd60e51b81526004016104699061285c565b6008546001600160a01b03166113ce5760405162461bcd60e51b815260040161046990612a6d565b6008546040516377b3d99760e01b81526001600160a01b03808416926377b3d997926114009287921690600401612711565b602060405180830381600087803b15801561141a57600080fd5b505af115801561142e573d6000803e3d6000fd5b505050506040513d601f19601f820116820180604052508101906114529190612454565b600480546001600160a01b0319166001600160a01b03928316179081905560085460405190831692919091169030907f3d2362862a7867eb0f64552c1fa638b6adf3907a7defe349eab238f6a0b2d83190600090a450506001600055565b6008546040805163e95aa8d360e01b815290516000926001600160a01b03169163e95aa8d3916004808301926020929190829003018186803b1580156114f557600080fd5b505afa158015611509573d6000803e3d6000fd5b505050506040513d601f19601f8201168201806040525081019061152d9190612632565b905090565b6001546001600160a01b0316331461155c5760405162461bcd60e51b815260040161046990612b49565b6000811161157c5760405162461bcd60e51b815260040161046990612adb565b600555565b6001546001600160a01b031633146115ab5760405162461bcd60e51b815260040161046990612b49565b600260005414156115ce5760405162461bcd60e51b815260040161046990612bec565b60026000556001600160a01b0382166115f95760405162461bcd60e51b815260040161046990612b80565b6040516369ee745160e01b81526001600160a01b038316906369ee7451906116299086908590309060040161272b565b602060405180830381600087803b15801561164357600080fd5b505af1158015611657573d6000803e3d6000fd5b505050506040513d601f19601f8201168201806040525081019061167b9190612454565b600780546001600160a01b0319166001600160a01b03928316179081905560405191169030907f6c409a36847a0a3870deae25f656f4300d45957d2643fc27faab145e19cfcf1b906110fa9085906126fd565b6001600160a01b038082166000908152600960209081526040808320600201546008548251627a9fd960e91b81529251949591948694919092169263f53fb2009260048083019392829003018186803b15801561172a57600080fd5b505afa15801561173e573d6000803e3d6000fd5b505050506040513d601f19601f820116820180604052508101906117629190612632565b9050670de0b6b3a76400006117778284612d81565b6117819190612d61565b925050915091565b6006544210156117ab5760405162461bcd60e51b815260040161046990612bb5565b600260005414156117ce5760405162461bcd60e51b815260040161046990612bec565b6002600090815560055433825260096020526040909120546117f09042612da0565b101561180e5760405162461bcd60e51b815260040161046990612993565b61181733612153565b33600081815260096020526040808220600201546008549151631665744b60e11b815290936001600160a01b0390921691632ccae8969161185b91906004016126fd565b60606040518083038186803b15801561187357600080fd5b505afa158015611887573d6000803e3d6000fd5b505050506040513d601f19601f820116820180604052508101906118ab919061266d565b5050600a54909150600090670de0b6b3a7640000906118da90600160801b90046001600160801b031685612d81565b6118e49190612d61565b600a54909150670de0b6b3a76400009061190e90600160801b90046001600160801b031684612d81565b6119189190612d61565b6119229082612da0565b3360008181526009602052604080822060010193909355600854925163b20ecd1560e01b8152909283926001600160a01b039091169163b20ecd159161196a916004016126fd565b6040805180830381600087803b15801561198357600080fd5b505af1158015611997573d6000803e3d6000fd5b505050506040513d601f19601f820116820180604052508101906119bb919061264a565b90925090506119ca8286612da0565b33600081815260096020526040908190206002019290925590517f617c612e91653c86cd4538e3de94b98c8dd628b41e343380d1cf858f95c0674a90611a139085908590612cdf565b60405180910390a250506001600055505050565b6008546001600160a01b031681565b6002546001600160a01b031681565b60065481565b6007546001600160a01b031681565b600080600860009054906101000a90046001600160a01b03166001600160a01b03166318160ddd6040518163ffffffff1660e01b815260040160206040518083038186803b158015611aab57600080fd5b505afa158015611abf573d6000803e3d6000fd5b505050506040513d601f19601f82011682018060405250810190611ae39190612632565b600a549091506001600160801b03600160801b82048116911643118015611b0957508115155b15611b6857600a54600090611b27906001600160801b031643612da0565b600b54909150600090611b3a9083612d81565b905083611b4f670de0b6b3a764000083612d81565b611b599190612d61565b611b639084612d1e565b925050505b6001600160a01b03841660009081526009602052604090206002810154600190910154670de0b6b3a7640000611ba76001600160801b03851684612d81565b611bb19190612d61565b611bbb9190612da0565b95945050505050565b60026000541415611be75760405162461bcd60e51b815260040161046990612bec565b600260009081556008546040516306e6829960e51b815282916001600160a01b03169063dcd0532090611c1e9033906004016126fd565b6040805180830381600087803b158015611c3757600080fd5b505af1158015611c4b573d6000803e3d6000fd5b505050506040513d601f19601f82011682018060405250810190611c6f919061264a565b91509150336001600160a01b03167f09c6481cb228ea7f61ceb67c8e708038eb74bbb68cfcc54a9cfca199087ecfb78383604051611cae929190612cdf565b60405180910390a250506001600055565b600a546001600160801b0316431115611e5357600854604080516318160ddd60e01b815290516000926001600160a01b0316916318160ddd916004808301926020929190829003018186803b158015611d1757600080fd5b505afa158015611d2b573d6000803e3d6000fd5b505050506040513d601f19601f82011682018060405250810190611d4f9190612632565b90508015611ddf57600a54600090611d70906001600160801b031643612da0565b600b54909150600090611d839083612d81565b905082611d98670de0b6b3a764000083612d81565b611da29190612d61565b600a54611dbf9190600160801b90046001600160801b0316612d1e565b600a80546001600160801b03928316600160801b02921691909117905550505b600a80546fffffffffffffffffffffffffffffffff1916436001600160801b0390811691909117918290556040517f982b813c7d00a9ffce9441ba40f429b2e4a35068d75532f496d0c63585c2fa6892611e4992818116928692600160801b900490911690612cb3565b60405180910390a1505b565b600654421015611e775760405162461bcd60e51b815260040161046990612bb5565b60026000541415611e9a5760405162461bcd60e51b815260040161046990612bec565b600260005580611ebc5760405162461bcd60e51b815260040161046990612b12565b611ec4611cbf565b6008546040805163e5a6b10f60e01b815290516000926001600160a01b03169163e5a6b10f916004808301926020929190829003018186803b158015611f0957600080fd5b505afa158015611f1d573d6000803e3d6000fd5b505050506040513d601f19601f82011682018060405250810190611f419190612454565b90506000600860009054906101000a90046001600160a01b03166001600160a01b031663f53fb2006040518163ffffffff1660e01b815260040160206040518083038186803b158015611f9357600080fd5b505afa158015611fa7573d6000803e3d6000fd5b505050506040513d601f19601f82011682018060405250810190611fcb9190612632565b600854909150611fe890839033906001600160a01b0316866122e5565b600854604051637e348b7d60e01b81526001600160a01b0390911690637e348b7d9061201a9033908790600401612796565b600060405180830381600087803b15801561203457600080fd5b505af1158015612048573d6000803e3d6000fd5b5050600a54670de0b6b3a76400009250839150600160801b90046001600160801b03166120758684612d81565b61207f9190612d81565b6120899190612d61565b6120939190612d61565b336000908152600960205260409020600101546120b09190612d49565b33600090815260096020526040902060010155806120d684670de0b6b3a7640000612d81565b6120e09190612d61565b336000908152600960205260409020600201546120fd9190612d49565b33600081815260096020526040908190206002019290925560085491516001600160a01b03909216917fd3dba7b5565b16b7749db7d1938410a636e3c7a6ea46ed8ce7e259e19f2f3b9f906110fa908790612cd6565b61215b611cbf565b6001600160a01b038116600090815260096020526040812060020154600a54909190670de0b6b3a7640000906121a190600160801b90046001600160801b031684612d81565b6121ab9190612d61565b6001600160a01b038416600090815260096020526040812060010154919250906121d59083612da0565b336000908152600960205260408120600101849055600754919250906001600160a01b03161580159061220757508115155b156122935760075460405163186e465160e31b81526001600160a01b039091169063c37232889061223e9088908690600401612796565b602060405180830381600087803b15801561225857600080fd5b505af115801561226c573d6000803e3d6000fd5b505050506040513d601f19601f820116820180604052508101906122909190612632565b90505b846001600160a01b0316336001600160a01b03167fa0306f61d3fafe13787b78e276cb6b644382854a66cb46daae14227d3ec26797836040516122d69190612cd6565b60405180910390a35050505050565b600080856001600160a01b03166323b872dd86868660405160240161230c93929190612772565b6040516020818303038152906040529060e01b6020820180517bffffffffffffffffffffffffffffffffffffffffffffffffffffffff838183161783525050505060405161235a91906126c4565b6000604051808303816000865af19150503d8060008114612397576040519150601f19603f3d011682016040523d82523d6000602084013e61239c565b606091505b50915091508180156123c65750805115806123c65750808060200190518101906123c6919061255d565b6123e25760405162461bcd60e51b8152600401610469906128ca565b505050505050565b60008083601f8401126123fb578182fd5b50813567ffffffffffffffff811115612412578182fd5b60208301915083602082850101111561242a57600080fd5b9250929050565b600060208284031215612442578081fd5b813561244d81612dcd565b9392505050565b600060208284031215612465578081fd5b815161244d81612dcd565b60008060408385031215612482578081fd5b823561248d81612dcd565b9150602083013561249d81612dcd565b809150509250929050565b6000806000606084860312156124bc578081fd5b83356124c781612dcd565b925060208401356124d781612dcd565b915060408401356124e781612dcd565b809150509250925092565b600080600060608486031215612506578283fd5b833561251181612dcd565b9250602084013561252181612dcd565b929592945050506040919091013590565b60008060408385031215612544578182fd5b823561254f81612dcd565b946020939093013593505050565b60006020828403121561256e578081fd5b8151801515811461244d578182fd5b600080600080600080600060a0888a031215612597578283fd5b873567ffffffffffffffff808211156125ae578485fd5b6125ba8b838c016123ea565b909950975060208a01359150808211156125d2578485fd5b506125df8a828b016123ea565b90965094505060408801356125f381612dcd565b9250606088013561260381612dcd565b809250506080880135905092959891949750929550565b60006020828403121561262b578081fd5b5035919050565b600060208284031215612643578081fd5b5051919050565b6000806040838503121561265c578182fd5b505080516020909101519092909150565b600080600060608486031215612681578283fd5b8351925060208401519150604084015190509250925092565b60008284528282602086013780602084860101526020601f19601f85011685010190509392505050565b60008251815b818110156126e457602081860181015185830152016126ca565b818111156126f25782828501525b509190910192915050565b6001600160a01b0391909116815260200190565b6001600160a01b0392831681529116602082015260400190565b6001600160a01b0393841681529183166020830152909116604082015260600190565b6001600160a01b039384168152919092166020820152901515604082015260600190565b6001600160a01b039384168152919092166020820152604081019190915260600190565b6001600160a01b03929092168252602082015260400190565b6001600160a01b03929092168252602082015260606040820181905260009082015260800190565b6000608082526127eb60808301888a61269a565b82810360208401526127fe81878961269a565b9150506001600160a01b038085166040840152808416606084015250979650505050505050565b60208082526013908201527f556e6f52653a207a65726f206164647265737300000000000000000000000000604082015260600190565b6020808252601a908201527f556e6f52653a7a65726f20666163746f72792061646472657373000000000000604082015260600190565b6020808252601f908201527f556e6f52653a20776974686472617720616d6f756e74206f766572666c6f7700604082015260600190565b60208082526031908201527f5472616e7366657248656c7065723a3a7472616e7366657246726f6d3a20747260408201527f616e7366657246726f6d206661696c6564000000000000000000000000000000606082015260800190565b60208082526017908201527f556e6f52653a2062616c616e6365206f766572666c6f77000000000000000000604082015260600190565b6020808252818101527f556e6f52653a207269736b20706f6f6c206372656174656420616c7265616479604082015260600190565b60208082526012908201527f556e6f52653a204c6f636b65642074696d650000000000000000000000000000604082015260600190565b60208082526011908201527f556e6f52653a207a65726f2076616c7565000000000000000000000000000000604082015260600190565b6020808252818101527f556e6f52653a206e6f7420616c6c6f77207a65726f2073746172742074696d65604082015260600190565b60208082526012908201527f556e6f52653a207a65726f20616d6f756e740000000000000000000000000000604082015260600190565b6020808252601b908201527f556e6f52653a7a65726f204c5020746f6b656e20616464726573730000000000604082015260600190565b60208082526019908201527f556e6f52653a207a65726f206f776e6572206164647265737300000000000000604082015260600190565b6020808252601f908201527f556e6f52653a206e6f7420616c6c6f77207a65726f206c6f636b2074696d6500604082015260600190565b60208082526011908201527f556e6f52653a205a45524f2056616c7565000000000000000000000000000000604082015260600190565b60208082526010908201527f556e6f52653a20466f7262696464656e00000000000000000000000000000000604082015260600190565b6020808252818101527f556e6f52653a20726577617264657220666163746f7279206e6f206578697374604082015260600190565b60208082526019908201527f556e6f52653a206e6f7420617661696c61626c652074696d6500000000000000604082015260600190565b6020808252601f908201527f5265656e7472616e637947756172643a207265656e7472616e742063616c6c00604082015260600190565b6020808252601b908201527f556e6f52653a206e6f7420616c6c6f77207a65726f2076616c75650000000000604082015260600190565b6020808252818101527f556e6f52653a206e6f7420616c6c6f77206f7468657273207472616e73666572604082015260600190565b6001600160801b039384168152919092166020820152604081019190915260600190565b6001600160801b0393841681526020810192909252909116604082015260600190565b90815260200190565b918252602082015260400190565b9283526020830191909152604082015260600190565b93845260208401929092526040830152606082015260800190565b60006001600160801b03808316818516808303821115612d4057612d40612db7565b01949350505050565b60008219821115612d5c57612d5c612db7565b500190565b600082612d7c57634e487b7160e01b81526012600452602481fd5b500490565b6000816000190483118215151615612d9b57612d9b612db7565b500290565b600082821015612db257612db2612db7565b500390565b634e487b7160e01b600052601160045260246000fd5b6001600160a01b0381168114612de257600080fd5b5056fea2646970667358221220adea1357041c0bef6f370fc56055a45bb5c840b5a2e99d912fb4684e8bfa43ab64736f6c63430008000033",
  "devdoc": {
    "kind": "dev",
    "methods": {
      "createRiskPool(string,string,address,address,uint256)": {
        "details": "create Risk pool with UNO from SSRP owner"
      },
      "getTotalWithdrawPendingAmount()": {
        "details": "get total withdraw request amount in pending for the risk pool in UNO"
      },
      "getWithdrawRequestPerUser(address)": {
        "details": "get withdraw request amount in pending per user in UNO"
      },
      "leaveFromPending()": {
        "details": "user can submit claim again and receive his funds into his wallet after 10 days since last WR."
      },
      "leaveFromPoolInPending(uint256)": {
        "details": "WR will be in pending for 10 days at least"
      }
    },
    "version": 1
  },
  "userdoc": {
    "kind": "user",
    "methods": {},
    "version": 1
  },
  "storageLayout": {
    "storage": [
      {
        "astId": 114,
        "contract": "contracts/SingleSidedReinsurancePool.sol:SingleSidedReinsurancePool",
        "label": "_status",
        "offset": 0,
        "slot": "0",
        "type": "t_uint256"
      },
      {
        "astId": 13103,
        "contract": "contracts/SingleSidedReinsurancePool.sol:SingleSidedReinsurancePool",
        "label": "owner",
        "offset": 0,
        "slot": "1",
        "type": "t_address"
      },
      {
        "astId": 13105,
        "contract": "contracts/SingleSidedReinsurancePool.sol:SingleSidedReinsurancePool",
        "label": "claimAssessor",
        "offset": 0,
        "slot": "2",
        "type": "t_address"
      },
      {
        "astId": 13107,
        "contract": "contracts/SingleSidedReinsurancePool.sol:SingleSidedReinsurancePool",
        "label": "migrateTo",
        "offset": 0,
        "slot": "3",
        "type": "t_address"
      },
      {
        "astId": 13109,
        "contract": "contracts/SingleSidedReinsurancePool.sol:SingleSidedReinsurancePool",
        "label": "syntheticSSRP",
        "offset": 0,
        "slot": "4",
        "type": "t_address"
      },
      {
        "astId": 13112,
        "contract": "contracts/SingleSidedReinsurancePool.sol:SingleSidedReinsurancePool",
        "label": "LOCK_TIME",
        "offset": 0,
        "slot": "5",
        "type": "t_uint256"
      },
      {
        "astId": 13117,
        "contract": "contracts/SingleSidedReinsurancePool.sol:SingleSidedReinsurancePool",
        "label": "STAKING_START_TIME",
        "offset": 0,
        "slot": "6",
        "type": "t_uint256"
      },
      {
        "astId": 13119,
        "contract": "contracts/SingleSidedReinsurancePool.sol:SingleSidedReinsurancePool",
        "label": "rewarder",
        "offset": 0,
        "slot": "7",
        "type": "t_address"
      },
      {
        "astId": 13122,
        "contract": "contracts/SingleSidedReinsurancePool.sol:SingleSidedReinsurancePool",
        "label": "riskPool",
        "offset": 0,
        "slot": "8",
        "type": "t_address"
      },
      {
        "astId": 13141,
        "contract": "contracts/SingleSidedReinsurancePool.sol:SingleSidedReinsurancePool",
        "label": "userInfo",
        "offset": 0,
        "slot": "9",
        "type": "t_mapping(t_address,t_struct(UserInfo)13136_storage)"
      },
      {
        "astId": 13144,
        "contract": "contracts/SingleSidedReinsurancePool.sol:SingleSidedReinsurancePool",
        "label": "poolInfo",
        "offset": 0,
        "slot": "10",
        "type": "t_struct(PoolInfo)13129_storage"
      }
    ],
    "types": {
      "t_address": {
        "encoding": "inplace",
        "label": "address",
        "numberOfBytes": "20"
      },
      "t_mapping(t_address,t_struct(UserInfo)13136_storage)": {
        "encoding": "mapping",
        "key": "t_address",
        "label": "mapping(address => struct SingleSidedReinsurancePool.UserInfo)",
        "numberOfBytes": "32",
        "value": "t_struct(UserInfo)13136_storage"
      },
      "t_struct(PoolInfo)13129_storage": {
        "encoding": "inplace",
        "label": "struct SingleSidedReinsurancePool.PoolInfo",
        "members": [
          {
            "astId": 13124,
            "contract": "contracts/SingleSidedReinsurancePool.sol:SingleSidedReinsurancePool",
            "label": "lastRewardBlock",
            "offset": 0,
            "slot": "0",
            "type": "t_uint128"
          },
          {
            "astId": 13126,
            "contract": "contracts/SingleSidedReinsurancePool.sol:SingleSidedReinsurancePool",
            "label": "accUnoPerShare",
            "offset": 16,
            "slot": "0",
            "type": "t_uint128"
          },
          {
            "astId": 13128,
            "contract": "contracts/SingleSidedReinsurancePool.sol:SingleSidedReinsurancePool",
            "label": "unoMultiplierPerBlock",
            "offset": 0,
            "slot": "1",
            "type": "t_uint256"
          }
        ],
        "numberOfBytes": "64"
      },
      "t_struct(UserInfo)13136_storage": {
        "encoding": "inplace",
        "label": "struct SingleSidedReinsurancePool.UserInfo",
        "members": [
          {
            "astId": 13131,
            "contract": "contracts/SingleSidedReinsurancePool.sol:SingleSidedReinsurancePool",
            "label": "lastWithdrawTime",
            "offset": 0,
            "slot": "0",
            "type": "t_uint256"
          },
          {
            "astId": 13133,
            "contract": "contracts/SingleSidedReinsurancePool.sol:SingleSidedReinsurancePool",
            "label": "rewardDebt",
            "offset": 0,
            "slot": "1",
            "type": "t_uint256"
          },
          {
            "astId": 13135,
            "contract": "contracts/SingleSidedReinsurancePool.sol:SingleSidedReinsurancePool",
            "label": "amount",
            "offset": 0,
            "slot": "2",
            "type": "t_uint256"
          }
        ],
        "numberOfBytes": "96"
      },
      "t_uint128": {
        "encoding": "inplace",
        "label": "uint128",
        "numberOfBytes": "16"
      },
      "t_uint256": {
        "encoding": "inplace",
        "label": "uint256",
        "numberOfBytes": "32"
      }
    }
  }
}