{
  "address": "0x923651BeDA601B0C773Be7276376d9d6968cD7B9",
  "abi": [
    {
      "inputs": [],
      "stateMutability": "nonpayable",
      "type": "constructor"
    },
    {
      "inputs": [
        {
          "internalType": "address",
          "name": "_owner",
          "type": "address"
        },
        {
          "internalType": "address",
          "name": "_lpToken",
          "type": "address"
        }
      ],
      "name": "newSyntheticSSIP",
      "outputs": [
        {
          "internalType": "address",
          "name": "",
          "type": "address"
        }
      ],
      "stateMutability": "nonpayable",
      "type": "function"
    }
  ],
  "transactionHash": "0x5bf9b0f1599ec6a95550cdd0ed1fd8addd6ffb1e943dbf82ffe5603a608e599c",
  "args": [],
  "solcInputHash": "bf649fb54ad93792de572409f0dce774",
  "bytecode": "0x608060405234801561001057600080fd5b50611965806100206000396000f3fe608060405234801561001057600080fd5b506004361061002b5760003560e01c80633515167614610030575b600080fd5b61004361003e3660046100d0565b610059565b6040516100509190610102565b60405180910390f35b600080838360405161006a9061009a565b610075929190610123565b604051809103906000f080158015610091573d6000803e3d6000fd5b50949350505050565b6117e58061014b83390190565b803573ffffffffffffffffffffffffffffffffffffffff811681146100cb57600080fd5b919050565b600080604083850312156100e2578182fd5b6100eb836100a7565b91506100f9602084016100a7565b90509250929050565b73ffffffffffffffffffffffffffffffffffffffff91909116815260200190565b73ffffffffffffffffffffffffffffffffffffffff9283168152911660208201526040019056fe6080604052620d2f006003553480156200001857600080fd5b50604051620017e5380380620017e58339810160408190526200003b91620000f6565b60016000556001600160a01b038216620000725760405162461bcd60e51b8152600401620000699062000164565b60405180910390fd5b6001600160a01b0381166200009b5760405162461bcd60e51b815260040162000069906200012d565b600180546001600160a01b039384166001600160a01b03199182161790915560058054929093169116179055670de0b6b3a76400006008556200019b565b80516001600160a01b0381168114620000f157600080fd5b919050565b6000806040838503121562000109578182fd5b6200011483620000d9565b91506200012460208401620000d9565b90509250929050565b6020808252601c908201527f556e6f52653a207a65726f206c7020746f6b656e206164647265737300000000604082015260600190565b60208082526019908201527f556e6f52653a207a65726f206f776e6572206164647265737300000000000000604082015260600190565b61163a80620001ab6000396000f3fe608060405234801561001057600080fd5b50600436106101825760003560e01c806398c6e760116100d8578063d1c6a2311161008c578063e3161ddd11610066578063e3161ddd146102a1578063e3824a38146102a9578063f40f0f52146102bc57610182565b8063d1c6a23114610289578063dcc3e06e14610291578063e19e71681461029957610182565b8063af16d6e0116100bd578063af16d6e01461025b578063bb872b4a1461026e578063bc8f88281461028157610182565b806398c6e76014610240578063ae04d45d1461024857610182565b80635fcbd2851161013a5780638ae39cac116101145780638ae39cac146102285780638da5cb5b146102305780638fd3ab801461023857610182565b80635fcbd285146101ed578063736ec05c146102025780638395206c1461021557610182565b80631959a0021161016b5780631959a002146101ba57806336642c21146101dd578063413d9c3a146101e557610182565b80630e5c011e1461018757806313a100361461019c575b600080fd5b61019a6101953660046110d9565b6102cf565b005b6101a4610311565b6040516101b1919061152e565b60405180910390f35b6101cd6101c83660046110d9565b610317565b6040516101b1949392919061154d565b6101a461033e565b6101a4610344565b6101f561034a565b6040516101b191906111eb565b61019a6102103660046110d9565b610359565b61019a610223366004611182565b6103d8565b6101a46104db565b6101f56104e1565b61019a6104f0565b6101f5610652565b61019a610256366004611182565b610661565b61019a610269366004611118565b6106b0565b61019a61027c366004611182565b61080a565b61019a610859565b6101a46108d4565b6101f56108e0565b61019a6108ef565b61019a61091f565b61019a6102b7366004611182565b6109d1565b6101a46102ca3660046110d9565b610b02565b600260005414156102fb5760405162461bcd60e51b81526004016102f2906114f7565b60405180910390fd5b600260005561030981610bc8565b506001600055565b600a5481565b60096020526000908152604090208054600182015460028301546003909301549192909184565b600b5481565b60035481565b6005546001600160a01b031681565b6001546001600160a01b031633146103835760405162461bcd60e51b81526004016102f29061142e565b6001600160a01b0381166103a95760405162461bcd60e51b81526004016102f290611287565b6002805473ffffffffffffffffffffffffffffffffffffffff19166001600160a01b0392909216919091179055565b600260005414156103fb5760405162461bcd60e51b81526004016102f2906114f7565b600260005561040933610bc8565b33600090815260096020526040902060028101546003909101548261042e82846115bf565b101561044c5760405162461bcd60e51b81526004016102f2906112be565b3360009081526009602052604090206003015461046a908490611568565b3360009081526009602052604090206003810191909155429055600b54610492908490611568565b600b55604051309033907fd60ea263bba686471127787b82c1f8b19bddbd87f52b83498879e720d839d51f906104c990879061152e565b60405180910390a35050600160005550565b60085481565b6001546001600160a01b031681565b600260005414156105135760405162461bcd60e51b81526004016102f2906114f7565b60026000819055546001600160a01b03166105405760405162461bcd60e51b81526004016102f290611287565b61054933610bc8565b336000908152600960205260409020600301541580159061058557506003543360009081526009602052604090205461058290426115bf565b10155b1561059757610592610d4a565b61059f565b61059f610e6b565b336000908152600960205260409020600290810154600554915490916105d2916001600160a01b03918216911683610ed2565b60025460405163ed59344b60e01b81526001600160a01b039091169063ed59344b90610604903390859060040161125f565b600060405180830381600087803b15801561061e57600080fd5b505af1158015610632573d6000803e3d6000fd5b505033600090815260096020526040812060020181905560019055505050565b6002546001600160a01b031681565b6001546001600160a01b0316331461068b5760405162461bcd60e51b81526004016102f29061142e565b600081116106ab5760405162461bcd60e51b81526004016102f2906113c0565b600355565b6001546001600160a01b031633146106da5760405162461bcd60e51b81526004016102f29061142e565b600260005414156106fd5760405162461bcd60e51b81526004016102f2906114f7565b60026000556001600160a01b0382166107285760405162461bcd60e51b81526004016102f290611465565b6040516369ee745160e01b81526001600160a01b038316906369ee745190610758908690859030906004016111ff565b602060405180830381600087803b15801561077257600080fd5b505af1158015610786573d6000803e3d6000fd5b505050506040513d601f19601f820116820180604052508101906107aa91906110fc565b6004805473ffffffffffffffffffffffffffffffffffffffff19166001600160a01b03928316179081905560405191169030907f6c409a36847a0a3870deae25f656f4300d45957d2643fc27faab145e19cfcf1b906104c99085906111eb565b6001546001600160a01b031633146108345760405162461bcd60e51b81526004016102f29061142e565b600081116108545760405162461bcd60e51b81526004016102f290611389565b600855565b6002600054141561087c5760405162461bcd60e51b81526004016102f2906114f7565b60026000908155600354338252600960205260409091205461089e90426115bf565b10156108bc5760405162461bcd60e51b81526004016102f290611352565b6108c533610bc8565b6108cd610d4a565b6001600055565b670de0b6b3a764000081565b6004546001600160a01b031681565b600260005414156109125760405162461bcd60e51b81526004016102f2906114f7565b60026000556108cd610e6b565b6006544311156109cf57600a54156109885760006006544361094191906115bf565b905060006008548261095391906115a0565b600a5490915061096b670de0b6b3a7640000836115a0565b6109759190611580565b6007546109829190611568565b60075550505b436006819055600a546007546040517f1f2d1a9fde053af46b5db3dc92a8aa8696e56a677998fdd1311b45be341f7853936109c69390929091611537565b60405180910390a15b565b600260005414156109f45760405162461bcd60e51b81526004016102f2906114f7565b600260005580610a165760405162461bcd60e51b81526004016102f2906113f7565b610a1e61091f565b600554610a36906001600160a01b0316333084610fd4565b670de0b6b3a764000060075482610a4d91906115a0565b610a579190611580565b33600090815260096020526040902060010154610a749190611568565b336000908152600960205260409020600181019190915560020154610a9a908290611568565b33600090815260096020526040902060020155600a54610abb908290611568565b600a55604051309033907f19db7bd0d4b3b497594ec1221d3c790b31e985baeb3c80851231d930db53578b90610af290859061152e565b60405180910390a3506001600055565b6007546006546000919043118015610b1b5750600a5415155b15610b7657600060065443610b3091906115bf565b9050600060085482610b4291906115a0565b600a54909150610b5a670de0b6b3a7640000836115a0565b610b649190611580565b600754610b719190611568565b925050505b6001600160a01b03831660009081526009602052604090206002810154600190910154670de0b6b3a7640000610bac84846115a0565b610bb69190611580565b610bc091906115bf565b949350505050565b610bd061091f565b6001600160a01b038116600090815260096020526040812060020154600754909190670de0b6b3a764000090610c0690846115a0565b610c109190611580565b6001600160a01b03841660009081526009602052604081206001015491925090610c3a90836115bf565b336000908152600960205260408120600101849055600454919250906001600160a01b031615801590610c6d5750600082115b15610cf8576004805460405163186e465160e31b81526001600160a01b039091169163c372328891610ca3918991879101611246565b602060405180830381600087803b158015610cbd57600080fd5b505af1158015610cd1573d6000803e3d6000fd5b505050506040513d601f19601f82011682018060405250810190610cf5919061119a565b90505b846001600160a01b0316336001600160a01b03167f1501dd260e02a8825a24ab4e4875600b0093dd977e06b49bba75faaebe28364783604051610d3b919061152e565b60405180910390a35050505050565b336000908152600960205260408120600281015460039091015460075491929091670de0b6b3a764000090610d7f90856115a0565b610d899190611580565b600554909150610da3906001600160a01b03163384610ed2565b670de0b6b3a764000060075483610dba91906115a0565b610dc49190611580565b610dce90826115bf565b33600090815260096020526040902060010155610deb82846115bf565b3360009081526009602052604081206002810192909255600390910155600b54610e169083906115bf565b600b55600a54610e279083906115bf565b600a55604051309033907f082897d5a3548ef5742607ecedf0f1b9e4c355dcc81c81d5bfda47f2b49084a790610e5e90869061152e565b60405180910390a3505050565b3360009081526009602052604081206003018054919055600b54610e909082906115bf565b600b55604051309033907faa15bd4bbb83b4c5e5bf28548326ffc2e718d46db45779599cf4d87b42fbd10490610ec790859061152e565b60405180910390a350565b600080846001600160a01b031663a9059cbb8585604051602401610ef7929190611246565b6040516020818303038152906040529060e01b6020820180517bffffffffffffffffffffffffffffffffffffffffffffffffffffffff8381831617835250505050604051610f4591906111b2565b6000604051808303816000865af19150503d8060008114610f82576040519150601f19603f3d011682016040523d82523d6000602084013e610f87565b606091505b5091509150818015610fb1575080511580610fb1575080806020019051810190610fb19190611162565b610fcd5760405162461bcd60e51b81526004016102f29061149a565b5050505050565b600080856001600160a01b03166323b872dd868686604051602401610ffb93929190611222565b6040516020818303038152906040529060e01b6020820180517bffffffffffffffffffffffffffffffffffffffffffffffffffffffff838183161783525050505060405161104991906111b2565b6000604051808303816000865af19150503d8060008114611086576040519150601f19603f3d011682016040523d82523d6000602084013e61108b565b606091505b50915091508180156110b55750805115806110b55750808060200190518101906110b59190611162565b6110d15760405162461bcd60e51b81526004016102f2906112f5565b505050505050565b6000602082840312156110ea578081fd5b81356110f5816115ec565b9392505050565b60006020828403121561110d578081fd5b81516110f5816115ec565b60008060006060848603121561112c578182fd5b8335611137816115ec565b92506020840135611147816115ec565b91506040840135611157816115ec565b809150509250925092565b600060208284031215611173578081fd5b815180151581146110f5578182fd5b600060208284031215611193578081fd5b5035919050565b6000602082840312156111ab578081fd5b5051919050565b60008251815b818110156111d257602081860181015185830152016111b8565b818111156111e05782828501525b509190910192915050565b6001600160a01b0391909116815260200190565b6001600160a01b0393841681529183166020830152909116604082015260600190565b6001600160a01b039384168152919092166020820152604081019190915260600190565b6001600160a01b03929092168252602082015260400190565b6001600160a01b03929092168252602082015260606040820181905260009082015260800190565b60208082526013908201527f556e6f52653a207a65726f206164647265737300000000000000000000000000604082015260600190565b6020808252601f908201527f556e6f52653a20776974686472617720616d6f756e74206f766572666c6f7700604082015260600190565b60208082526031908201527f5472616e7366657248656c7065723a3a7472616e7366657246726f6d3a20747260408201527f616e7366657246726f6d206661696c6564000000000000000000000000000000606082015260800190565b60208082526012908201527f556e6f52653a204c6f636b65642074696d650000000000000000000000000000604082015260600190565b60208082526011908201527f556e6f52653a207a65726f2076616c7565000000000000000000000000000000604082015260600190565b6020808252601f908201527f556e6f52653a206e6f7420616c6c6f77207a65726f206c6f636b2074696d6500604082015260600190565b60208082526011908201527f556e6f52653a205a45524f2056616c7565000000000000000000000000000000604082015260600190565b60208082526010908201527f556e6f52653a20466f7262696464656e00000000000000000000000000000000604082015260600190565b6020808252818101527f556e6f52653a20726577617264657220666163746f7279206e6f206578697374604082015260600190565b6020808252602d908201527f5472616e7366657248656c7065723a3a736166655472616e736665723a20747260408201527f616e73666572206661696c656400000000000000000000000000000000000000606082015260800190565b6020808252601f908201527f5265656e7472616e637947756172643a207265656e7472616e742063616c6c00604082015260600190565b90815260200190565b9283526020830191909152604082015260600190565b93845260208401929092526040830152606082015260800190565b6000821982111561157b5761157b6115d6565b500190565b60008261159b57634e487b7160e01b81526012600452602481fd5b500490565b60008160001904831182151516156115ba576115ba6115d6565b500290565b6000828210156115d1576115d16115d6565b500390565b634e487b7160e01b600052601160045260246000fd5b6001600160a01b038116811461160157600080fd5b5056fea2646970667358221220a97938c2770222ee77173d4d67347441f4c807d1edeb5972b26c69d7c24acd9464736f6c63430008000033a2646970667358221220a2cada3a7f2dbc7bb532cc71f76ad79f0352e0459a37a17074d29c197206f8c464736f6c63430008000033",
  "devdoc": {
    "kind": "dev",
    "methods": {},
    "version": 1
  },
  "userdoc": {
    "kind": "user",
    "methods": {},
    "version": 1
  },
  "storageLayout": {
    "storage": [],
    "types": null
  }
}