{
  "address": "0x4FA22E153214269820Be0069556C19c19688c825",
  "abi": [
    {
      "inputs": [],
      "stateMutability": "nonpayable",
      "type": "constructor"
    },
    {
      "inputs": [
        {
          "internalType": "address",
          "name": "_owner",
          "type": "address"
        },
        {
          "internalType": "address",
          "name": "_lpToken",
          "type": "address"
        }
      ],
      "name": "newSyntheticSSRP",
      "outputs": [
        {
          "internalType": "address",
          "name": "",
          "type": "address"
        }
      ],
      "stateMutability": "nonpayable",
      "type": "function"
    }
  ],
  "transactionHash": "0x7aa09d3447b6a58cfdf9416bb0712367053cb26d07180cde4af84f6ed358b8bd",
  "args": [],
  "solcInputHash": "83a1e06e18c2c188d1ba5cc7d2484859",
  "bytecode": "0x608060405234801561001057600080fd5b506118e4806100206000396000f3fe608060405234801561001057600080fd5b506004361061002b5760003560e01c806377b3d99714610030575b600080fd5b61004361003e3660046100c3565b610059565b60405161005091906100f5565b60405180910390f35b600080838360405161006a9061009a565b610075929190610109565b604051809103906000f080158015610091573d6000803e3d6000fd5b50949350505050565b61178b8061012483390190565b80356001600160a01b03811681146100be57600080fd5b919050565b600080604083850312156100d5578182fd5b6100de836100a7565b91506100ec602084016100a7565b90509250929050565b6001600160a01b0391909116815260200190565b6001600160a01b039283168152911660208201526040019056fe6080604052620d2f006003553480156200001857600080fd5b506040516200178b3803806200178b8339810160408190526200003b91620000f6565b60016000556001600160a01b038216620000725760405162461bcd60e51b8152600401620000699062000164565b60405180910390fd5b6001600160a01b0381166200009b5760405162461bcd60e51b815260040162000069906200012d565b600180546001600160a01b039384166001600160a01b03199182161790915560058054929093169116179055670de0b6b3a76400006008556200019b565b80516001600160a01b0381168114620000f157600080fd5b919050565b6000806040838503121562000109578182fd5b6200011483620000d9565b91506200012460208401620000d9565b90509250929050565b6020808252601c908201527f556e6f52653a207a65726f206c7020746f6b656e206164647265737300000000604082015260600190565b60208082526019908201527f556e6f52653a207a65726f206f776e6572206164647265737300000000000000604082015260600190565b6115e080620001ab6000396000f3fe608060405234801561001057600080fd5b50600436106101625760003560e01c806398c6e760116100c8578063d1c6a2311161008c578063e3161ddd11610066578063e3161ddd14610281578063e3824a3814610289578063f40f0f521461029c57610162565b8063d1c6a23114610269578063dcc3e06e14610271578063e19e71681461027957610162565b806398c6e76014610220578063ae04d45d14610228578063af16d6e01461023b578063bb872b4a1461024e578063bc8f88281461026157610162565b80635fcbd2851161012a5780638ae39cac116101045780638ae39cac146102085780638da5cb5b146102105780638fd3ab801461021857610162565b80635fcbd285146101cd578063736ec05c146101e25780638395206c146101f557610162565b80630e5c011e1461016757806313a100361461017c5780631959a0021461019a57806336642c21146101bd578063413d9c3a146101c5575b600080fd5b61017a61017536600461108f565b6102af565b005b6101846102f1565b60405161019191906114d4565b60405180910390f35b6101ad6101a836600461108f565b6102f7565b60405161019194939291906114f3565b61018461031e565b610184610324565b6101d561032a565b60405161019191906111a1565b61017a6101f036600461108f565b610339565b61017a610203366004611138565b6103b8565b6101846104bb565b6101d56104c1565b61017a6104d0565b6101d5610632565b61017a610236366004611138565b610641565b61017a6102493660046110ce565b610690565b61017a61025c366004611138565b6107ea565b61017a610839565b6101846108b4565b6101d56108c0565b61017a6108cf565b61017a6108ff565b61017a610297366004611138565b6109b1565b6101846102aa36600461108f565b610ae2565b600260005414156102db5760405162461bcd60e51b81526004016102d29061149d565b60405180910390fd5b60026000556102e981610ba8565b506001600055565b600a5481565b60096020526000908152604090208054600182015460028301546003909301549192909184565b600b5481565b60035481565b6005546001600160a01b031681565b6001546001600160a01b031633146103635760405162461bcd60e51b81526004016102d2906113e4565b6001600160a01b0381166103895760405162461bcd60e51b81526004016102d29061123d565b6002805473ffffffffffffffffffffffffffffffffffffffff19166001600160a01b0392909216919091179055565b600260005414156103db5760405162461bcd60e51b81526004016102d29061149d565b60026000556103e933610ba8565b33600090815260096020526040902060028101546003909101548261040e8284611565565b101561042c5760405162461bcd60e51b81526004016102d290611274565b3360009081526009602052604090206003015461044a90849061150e565b3360009081526009602052604090206003810191909155429055600b5461047290849061150e565b600b55604051309033907fd60ea263bba686471127787b82c1f8b19bddbd87f52b83498879e720d839d51f906104a99087906114d4565b60405180910390a35050600160005550565b60085481565b6001546001600160a01b031681565b600260005414156104f35760405162461bcd60e51b81526004016102d29061149d565b60026000819055546001600160a01b03166105205760405162461bcd60e51b81526004016102d29061123d565b61052933610ba8565b33600090815260096020526040902060030154158015906105655750600354336000908152600960205260409020546105629042611565565b10155b1561057757610572610d2a565b61057f565b61057f610e4b565b336000908152600960205260409020600290810154600554915490916105b2916001600160a01b03918216911683610eb2565b60025460405163ed59344b60e01b81526001600160a01b039091169063ed59344b906105e49033908590600401611215565b600060405180830381600087803b1580156105fe57600080fd5b505af1158015610612573d6000803e3d6000fd5b505033600090815260096020526040812060020181905560019055505050565b6002546001600160a01b031681565b6001546001600160a01b0316331461066b5760405162461bcd60e51b81526004016102d2906113e4565b6000811161068b5760405162461bcd60e51b81526004016102d290611376565b600355565b6001546001600160a01b031633146106ba5760405162461bcd60e51b81526004016102d2906113e4565b600260005414156106dd5760405162461bcd60e51b81526004016102d29061149d565b60026000556001600160a01b0382166107085760405162461bcd60e51b81526004016102d29061141b565b6040516369ee745160e01b81526001600160a01b038316906369ee745190610738908690859030906004016111b5565b602060405180830381600087803b15801561075257600080fd5b505af1158015610766573d6000803e3d6000fd5b505050506040513d601f19601f8201168201806040525081019061078a91906110b2565b6004805473ffffffffffffffffffffffffffffffffffffffff19166001600160a01b03928316179081905560405191169030907f6c409a36847a0a3870deae25f656f4300d45957d2643fc27faab145e19cfcf1b906104a99085906111a1565b6001546001600160a01b031633146108145760405162461bcd60e51b81526004016102d2906113e4565b600081116108345760405162461bcd60e51b81526004016102d29061133f565b600855565b6002600054141561085c5760405162461bcd60e51b81526004016102d29061149d565b60026000908155600354338252600960205260409091205461087e9042611565565b101561089c5760405162461bcd60e51b81526004016102d290611308565b6108a533610ba8565b6108ad610d2a565b6001600055565b670de0b6b3a764000081565b6004546001600160a01b031681565b600260005414156108f25760405162461bcd60e51b81526004016102d29061149d565b60026000556108ad610e4b565b6006544311156109af57600a5415610968576000600654436109219190611565565b90506000600854826109339190611546565b600a5490915061094b670de0b6b3a764000083611546565b6109559190611526565b600754610962919061150e565b60075550505b436006819055600a546007546040517f1f2d1a9fde053af46b5db3dc92a8aa8696e56a677998fdd1311b45be341f7853936109a693909290916114dd565b60405180910390a15b565b600260005414156109d45760405162461bcd60e51b81526004016102d29061149d565b6002600055806109f65760405162461bcd60e51b81526004016102d2906113ad565b6109fe6108ff565b600554610a16906001600160a01b0316333084610f9f565b670de0b6b3a764000060075482610a2d9190611546565b610a379190611526565b33600090815260096020526040902060010154610a54919061150e565b336000908152600960205260409020600181019190915560020154610a7a90829061150e565b33600090815260096020526040902060020155600a54610a9b90829061150e565b600a55604051309033907f19db7bd0d4b3b497594ec1221d3c790b31e985baeb3c80851231d930db53578b90610ad29085906114d4565b60405180910390a3506001600055565b6007546006546000919043118015610afb5750600a5415155b15610b5657600060065443610b109190611565565b9050600060085482610b229190611546565b600a54909150610b3a670de0b6b3a764000083611546565b610b449190611526565b600754610b51919061150e565b925050505b6001600160a01b03831660009081526009602052604090206002810154600190910154670de0b6b3a7640000610b8c8484611546565b610b969190611526565b610ba09190611565565b949350505050565b610bb06108ff565b6001600160a01b038116600090815260096020526040812060020154600754909190670de0b6b3a764000090610be69084611546565b610bf09190611526565b6001600160a01b03841660009081526009602052604081206001015491925090610c1a9083611565565b336000908152600960205260408120600101849055600454919250906001600160a01b031615801590610c4d5750600082115b15610cd8576004805460405163186e465160e31b81526001600160a01b039091169163c372328891610c839189918791016111fc565b602060405180830381600087803b158015610c9d57600080fd5b505af1158015610cb1573d6000803e3d6000fd5b505050506040513d601f19601f82011682018060405250810190610cd59190611150565b90505b846001600160a01b0316336001600160a01b03167f1501dd260e02a8825a24ab4e4875600b0093dd977e06b49bba75faaebe28364783604051610d1b91906114d4565b60405180910390a35050505050565b336000908152600960205260408120600281015460039091015460075491929091670de0b6b3a764000090610d5f9085611546565b610d699190611526565b600554909150610d83906001600160a01b03163384610eb2565b670de0b6b3a764000060075483610d9a9190611546565b610da49190611526565b610dae9082611565565b33600090815260096020526040902060010155610dcb8284611565565b3360009081526009602052604081206002810192909255600390910155600b54610df6908390611565565b600b55600a54610e07908390611565565b600a55604051309033907f082897d5a3548ef5742607ecedf0f1b9e4c355dcc81c81d5bfda47f2b49084a790610e3e9086906114d4565b60405180910390a3505050565b3360009081526009602052604081206003018054919055600b54610e70908290611565565b600b55604051309033907faa15bd4bbb83b4c5e5bf28548326ffc2e718d46db45779599cf4d87b42fbd10490610ea79085906114d4565b60405180910390a350565b600080846001600160a01b031663a9059cbb8585604051602401610ed79291906111fc565b6040516020818303038152906040529060e01b6020820180516001600160e01b038381831617835250505050604051610f109190611168565b6000604051808303816000865af19150503d8060008114610f4d576040519150601f19603f3d011682016040523d82523d6000602084013e610f52565b606091505b5091509150818015610f7c575080511580610f7c575080806020019051810190610f7c9190611118565b610f985760405162461bcd60e51b81526004016102d290611450565b5050505050565b600080856001600160a01b03166323b872dd868686604051602401610fc6939291906111d8565b6040516020818303038152906040529060e01b6020820180516001600160e01b038381831617835250505050604051610fff9190611168565b6000604051808303816000865af19150503d806000811461103c576040519150601f19603f3d011682016040523d82523d6000602084013e611041565b606091505b509150915081801561106b57508051158061106b57508080602001905181019061106b9190611118565b6110875760405162461bcd60e51b81526004016102d2906112ab565b505050505050565b6000602082840312156110a0578081fd5b81356110ab81611592565b9392505050565b6000602082840312156110c3578081fd5b81516110ab81611592565b6000806000606084860312156110e2578182fd5b83356110ed81611592565b925060208401356110fd81611592565b9150604084013561110d81611592565b809150509250925092565b600060208284031215611129578081fd5b815180151581146110ab578182fd5b600060208284031215611149578081fd5b5035919050565b600060208284031215611161578081fd5b5051919050565b60008251815b81811015611188576020818601810151858301520161116e565b818111156111965782828501525b509190910192915050565b6001600160a01b0391909116815260200190565b6001600160a01b0393841681529183166020830152909116604082015260600190565b6001600160a01b039384168152919092166020820152604081019190915260600190565b6001600160a01b03929092168252602082015260400190565b6001600160a01b03929092168252602082015260606040820181905260009082015260800190565b60208082526013908201527f556e6f52653a207a65726f206164647265737300000000000000000000000000604082015260600190565b6020808252601f908201527f556e6f52653a20776974686472617720616d6f756e74206f766572666c6f7700604082015260600190565b60208082526031908201527f5472616e7366657248656c7065723a3a7472616e7366657246726f6d3a20747260408201527f616e7366657246726f6d206661696c6564000000000000000000000000000000606082015260800190565b60208082526012908201527f556e6f52653a204c6f636b65642074696d650000000000000000000000000000604082015260600190565b60208082526011908201527f556e6f52653a207a65726f2076616c7565000000000000000000000000000000604082015260600190565b6020808252601f908201527f556e6f52653a206e6f7420616c6c6f77207a65726f206c6f636b2074696d6500604082015260600190565b60208082526011908201527f556e6f52653a205a45524f2056616c7565000000000000000000000000000000604082015260600190565b60208082526010908201527f556e6f52653a20466f7262696464656e00000000000000000000000000000000604082015260600190565b6020808252818101527f556e6f52653a20726577617264657220666163746f7279206e6f206578697374604082015260600190565b6020808252602d908201527f5472616e7366657248656c7065723a3a736166655472616e736665723a20747260408201526c185b9cd9995c8819985a5b1959609a1b606082015260800190565b6020808252601f908201527f5265656e7472616e637947756172643a207265656e7472616e742063616c6c00604082015260600190565b90815260200190565b9283526020830191909152604082015260600190565b93845260208401929092526040830152606082015260800190565b600082198211156115215761152161157c565b500190565b60008261154157634e487b7160e01b81526012600452602481fd5b500490565b60008160001904831182151516156115605761156061157c565b500290565b6000828210156115775761157761157c565b500390565b634e487b7160e01b600052601160045260246000fd5b6001600160a01b03811681146115a757600080fd5b5056fea26469706673582212207aa85630b27eae7ac8e8beabdc31b8dad2e8610d193b19161ab6039cd9705b5b64736f6c63430008000033a264697066735822122011d1b62b2006ff431f23187be96f1cfd6f0a704b0184e6180566cfd3291884e164736f6c63430008000033",
  "devdoc": {
    "kind": "dev",
    "methods": {},
    "version": 1
  },
  "userdoc": {
    "kind": "user",
    "methods": {},
    "version": 1
  },
  "storageLayout": {
    "storage": [],
    "types": null
  }
}