{
  "address": "0xc4Dfc831292bA8113E92ac172F25B21f6f14bF61",
  "abi": [
    {
      "inputs": [],
      "name": "AccessControlBadConfirmation",
      "type": "error"
    },
    {
      "inputs": [
        {
          "internalType": "address",
          "name": "account",
          "type": "address"
        },
        {
          "internalType": "bytes32",
          "name": "neededRole",
          "type": "bytes32"
        }
      ],
      "name": "AccessControlUnauthorizedAccount",
      "type": "error"
    },
    {
      "inputs": [],
      "name": "InvalidInitialization",
      "type": "error"
    },
    {
      "inputs": [],
      "name": "NotInitializing",
      "type": "error"
    },
    {
      "inputs": [],
      "name": "ReentrancyGuardReentrantCall",
      "type": "error"
    },
    {
      "anonymous": false,
      "inputs": [
        {
          "indexed": false,
          "internalType": "uint64",
          "name": "version",
          "type": "uint64"
        }
      ],
      "name": "Initialized",
      "type": "event"
    },
    {
      "anonymous": false,
      "inputs": [
        {
          "indexed": true,
          "internalType": "address",
          "name": "_ssip",
          "type": "address"
        },
        {
          "indexed": false,
          "internalType": "address",
          "name": "_currency",
          "type": "address"
        },
        {
          "indexed": false,
          "internalType": "uint256",
          "name": "_scr",
          "type": "uint256"
        }
      ],
      "name": "LogAddPool",
      "type": "event"
    },
    {
      "anonymous": false,
      "inputs": [
        {
          "indexed": true,
          "internalType": "address",
          "name": "_pool",
          "type": "address"
        }
      ],
      "name": "LogAddPoolWhiteList",
      "type": "event"
    },
    {
      "anonymous": false,
      "inputs": [
        {
          "indexed": true,
          "internalType": "address",
          "name": "_policy",
          "type": "address"
        },
        {
          "indexed": false,
          "internalType": "uint256",
          "name": "_policyTokenId",
          "type": "uint256"
        }
      ],
      "name": "LogMarkToClaimPolicy",
      "type": "event"
    },
    {
      "anonymous": false,
      "inputs": [
        {
          "indexed": true,
          "internalType": "address",
          "name": "_salesPolicy",
          "type": "address"
        }
      ],
      "name": "LogRemovePolicy",
      "type": "event"
    },
    {
      "anonymous": false,
      "inputs": [
        {
          "indexed": true,
          "internalType": "address",
          "name": "_ssip",
          "type": "address"
        }
      ],
      "name": "LogRemovePool",
      "type": "event"
    },
    {
      "anonymous": false,
      "inputs": [
        {
          "indexed": true,
          "internalType": "address",
          "name": "_pool",
          "type": "address"
        }
      ],
      "name": "LogRemovePoolWhiteList",
      "type": "event"
    },
    {
      "anonymous": false,
      "inputs": [
        {
          "indexed": true,
          "internalType": "address",
          "name": "_owner",
          "type": "address"
        },
        {
          "indexed": true,
          "internalType": "address",
          "name": "_capitalAgent",
          "type": "address"
        },
        {
          "indexed": false,
          "internalType": "address",
          "name": "_exchangeAgent",
          "type": "address"
        }
      ],
      "name": "LogSetExchangeAgent",
      "type": "event"
    },
    {
      "anonymous": false,
      "inputs": [
        {
          "indexed": true,
          "internalType": "address",
          "name": "_owner",
          "type": "address"
        },
        {
          "indexed": true,
          "internalType": "address",
          "name": "_capitalAgent",
          "type": "address"
        },
        {
          "indexed": false,
          "internalType": "uint256",
          "name": "_MCR",
          "type": "uint256"
        }
      ],
      "name": "LogSetMCR",
      "type": "event"
    },
    {
      "anonymous": false,
      "inputs": [
        {
          "indexed": true,
          "internalType": "address",
          "name": "_owner",
          "type": "address"
        },
        {
          "indexed": true,
          "internalType": "address",
          "name": "_capitalAgent",
          "type": "address"
        },
        {
          "indexed": false,
          "internalType": "uint256",
          "name": "_MLR",
          "type": "uint256"
        }
      ],
      "name": "LogSetMLR",
      "type": "event"
    },
    {
      "anonymous": false,
      "inputs": [
        {
          "indexed": true,
          "internalType": "address",
          "name": "_operator",
          "type": "address"
        }
      ],
      "name": "LogSetOperator",
      "type": "event"
    },
    {
      "anonymous": false,
      "inputs": [
        {
          "indexed": true,
          "internalType": "address",
          "name": "_salesPolicy",
          "type": "address"
        }
      ],
      "name": "LogSetPolicy",
      "type": "event"
    },
    {
      "anonymous": false,
      "inputs": [
        {
          "indexed": true,
          "internalType": "address",
          "name": "_owner",
          "type": "address"
        },
        {
          "indexed": true,
          "internalType": "address",
          "name": "_capitalAgent",
          "type": "address"
        },
        {
          "indexed": true,
          "internalType": "address",
          "name": "_pool",
          "type": "address"
        },
        {
          "indexed": false,
          "internalType": "uint256",
          "name": "_SCR",
          "type": "uint256"
        }
      ],
      "name": "LogSetSCR",
      "type": "event"
    },
    {
      "anonymous": false,
      "inputs": [
        {
          "indexed": true,
          "internalType": "address",
          "name": "_factory",
          "type": "address"
        }
      ],
      "name": "LogSetSalesPolicyFactory",
      "type": "event"
    },
    {
      "anonymous": false,
      "inputs": [
        {
          "indexed": true,
          "internalType": "address",
          "name": "_usdcToken",
          "type": "address"
        }
      ],
      "name": "LogSetUSDC",
      "type": "event"
    },
    {
      "anonymous": false,
      "inputs": [
        {
          "indexed": true,
          "internalType": "address",
          "name": "_policy",
          "type": "address"
        },
        {
          "indexed": false,
          "internalType": "uint256",
          "name": "_amount",
          "type": "uint256"
        },
        {
          "indexed": false,
          "internalType": "uint256",
          "name": "_policyUtilized",
          "type": "uint256"
        },
        {
          "indexed": false,
          "internalType": "uint256",
          "name": "_totalUtilizedAmount",
          "type": "uint256"
        }
      ],
      "name": "LogUpdatePolicyCoverage",
      "type": "event"
    },
    {
      "anonymous": false,
      "inputs": [
        {
          "indexed": true,
          "internalType": "address",
          "name": "_policy",
          "type": "address"
        },
        {
          "indexed": false,
          "internalType": "uint256",
          "name": "_policyTokenId",
          "type": "uint256"
        }
      ],
      "name": "LogUpdatePolicyExpired",
      "type": "event"
    },
    {
      "anonymous": false,
      "inputs": [
        {
          "indexed": true,
          "internalType": "address",
          "name": "_ssip",
          "type": "address"
        },
        {
          "indexed": false,
          "internalType": "uint256",
          "name": "_poolCapital",
          "type": "uint256"
        },
        {
          "indexed": false,
          "internalType": "uint256",
          "name": "_totalCapital",
          "type": "uint256"
        }
      ],
      "name": "LogUpdatePoolCapital",
      "type": "event"
    },
    {
      "anonymous": false,
      "inputs": [
        {
          "indexed": true,
          "internalType": "bytes32",
          "name": "role",
          "type": "bytes32"
        },
        {
          "indexed": true,
          "internalType": "bytes32",
          "name": "previousAdminRole",
          "type": "bytes32"
        },
        {
          "indexed": true,
          "internalType": "bytes32",
          "name": "newAdminRole",
          "type": "bytes32"
        }
      ],
      "name": "RoleAdminChanged",
      "type": "event"
    },
    {
      "anonymous": false,
      "inputs": [
        {
          "indexed": true,
          "internalType": "bytes32",
          "name": "role",
          "type": "bytes32"
        },
        {
          "indexed": true,
          "internalType": "address",
          "name": "account",
          "type": "address"
        },
        {
          "indexed": true,
          "internalType": "address",
          "name": "sender",
          "type": "address"
        }
      ],
      "name": "RoleGranted",
      "type": "event"
    },
    {
      "anonymous": false,
      "inputs": [
        {
          "indexed": true,
          "internalType": "bytes32",
          "name": "role",
          "type": "bytes32"
        },
        {
          "indexed": true,
          "internalType": "address",
          "name": "account",
          "type": "address"
        },
        {
          "indexed": true,
          "internalType": "address",
          "name": "sender",
          "type": "address"
        }
      ],
      "name": "RoleRevoked",
      "type": "event"
    },
    {
      "inputs": [],
      "name": "ADMIN_ROLE",
      "outputs": [
        {
          "internalType": "bytes32",
          "name": "",
          "type": "bytes32"
        }
      ],
      "stateMutability": "view",
      "type": "function"
    },
    {
      "inputs": [],
      "name": "CALC_PRECISION",
      "outputs": [
        {
          "internalType": "uint256",
          "name": "",
          "type": "uint256"
        }
      ],
      "stateMutability": "view",
      "type": "function"
    },
    {
      "inputs": [],
      "name": "DEFAULT_ADMIN_ROLE",
      "outputs": [
        {
          "internalType": "bytes32",
          "name": "",
          "type": "bytes32"
        }
      ],
      "stateMutability": "view",
      "type": "function"
    },
    {
      "inputs": [],
      "name": "MCR",
      "outputs": [
        {
          "internalType": "uint256",
          "name": "",
          "type": "uint256"
        }
      ],
      "stateMutability": "view",
      "type": "function"
    },
    {
      "inputs": [],
      "name": "MLR",
      "outputs": [
        {
          "internalType": "uint256",
          "name": "",
          "type": "uint256"
        }
      ],
      "stateMutability": "view",
      "type": "function"
    },
    {
      "inputs": [
        {
          "internalType": "uint256",
          "name": "_withdrawAmount",
          "type": "uint256"
        },
        {
          "internalType": "uint256",
          "name": "_policyId",
          "type": "uint256"
        },
        {
          "internalType": "bool",
          "name": "_isNotMigrate",
          "type": "bool"
        }
      ],
      "name": "SSIPPolicyCaim",
      "outputs": [],
      "stateMutability": "nonpayable",
      "type": "function"
    },
    {
      "inputs": [
        {
          "internalType": "uint256",
          "name": "_stakingAmount",
          "type": "uint256"
        }
      ],
      "name": "SSIPStaking",
      "outputs": [],
      "stateMutability": "nonpayable",
      "type": "function"
    },
    {
      "inputs": [
        {
          "internalType": "uint256",
          "name": "_withdrawAmount",
          "type": "uint256"
        }
      ],
      "name": "SSIPWithdraw",
      "outputs": [],
      "stateMutability": "nonpayable",
      "type": "function"
    },
    {
      "inputs": [
        {
          "internalType": "address",
          "name": "_ssip",
          "type": "address"
        },
        {
          "internalType": "address",
          "name": "_currency",
          "type": "address"
        },
        {
          "internalType": "uint256",
          "name": "_scr",
          "type": "uint256"
        }
      ],
      "name": "addPool",
      "outputs": [],
      "stateMutability": "nonpayable",
      "type": "function"
    },
    {
      "inputs": [
        {
          "internalType": "address",
          "name": "_ssip",
          "type": "address"
        },
        {
          "internalType": "address",
          "name": "_currency",
          "type": "address"
        },
        {
          "internalType": "uint256",
          "name": "_scr",
          "type": "uint256"
        }
      ],
      "name": "addPoolByAdmin",
      "outputs": [],
      "stateMutability": "nonpayable",
      "type": "function"
    },
    {
      "inputs": [
        {
          "internalType": "address",
          "name": "_pool",
          "type": "address"
        }
      ],
      "name": "addPoolWhiteList",
      "outputs": [],
      "stateMutability": "nonpayable",
      "type": "function"
    },
    {
      "inputs": [
        {
          "internalType": "address",
          "name": "_pool",
          "type": "address"
        },
        {
          "internalType": "uint256",
          "name": "_withdrawAmount",
          "type": "uint256"
        }
      ],
      "name": "checkCapitalByMCR",
      "outputs": [
        {
          "internalType": "bool",
          "name": "",
          "type": "bool"
        }
      ],
      "stateMutability": "view",
      "type": "function"
    },
    {
      "inputs": [
        {
          "internalType": "uint256",
          "name": "_coverageAmount",
          "type": "uint256"
        }
      ],
      "name": "checkCoverageByMLR",
      "outputs": [
        {
          "internalType": "bool",
          "name": "",
          "type": "bool"
        }
      ],
      "stateMutability": "view",
      "type": "function"
    },
    {
      "inputs": [
        {
          "internalType": "address",
          "name": "",
          "type": "address"
        },
        {
          "internalType": "uint256",
          "name": "",
          "type": "uint256"
        }
      ],
      "name": "claimedAmount",
      "outputs": [
        {
          "internalType": "uint256",
          "name": "",
          "type": "uint256"
        }
      ],
      "stateMutability": "view",
      "type": "function"
    },
    {
      "inputs": [],
      "name": "exchangeAgent",
      "outputs": [
        {
          "internalType": "address",
          "name": "",
          "type": "address"
        }
      ],
      "stateMutability": "view",
      "type": "function"
    },
    {
      "inputs": [
        {
          "internalType": "address",
          "name": "",
          "type": "address"
        }
      ],
      "name": "existedCurrencies",
      "outputs": [
        {
          "internalType": "bool",
          "name": "",
          "type": "bool"
        }
      ],
      "stateMutability": "view",
      "type": "function"
    },
    {
      "inputs": [],
      "name": "getPolicyInfo",
      "outputs": [
        {
          "internalType": "address",
          "name": "",
          "type": "address"
        },
        {
          "internalType": "uint256",
          "name": "",
          "type": "uint256"
        },
        {
          "internalType": "bool",
          "name": "",
          "type": "bool"
        }
      ],
      "stateMutability": "view",
      "type": "function"
    },
    {
      "inputs": [
        {
          "internalType": "address",
          "name": "_pool",
          "type": "address"
        }
      ],
      "name": "getPoolInfo",
      "outputs": [
        {
          "internalType": "uint256",
          "name": "",
          "type": "uint256"
        },
        {
          "internalType": "uint256",
          "name": "",
          "type": "uint256"
        },
        {
          "internalType": "address",
          "name": "",
          "type": "address"
        },
        {
          "internalType": "bool",
          "name": "",
          "type": "bool"
        }
      ],
      "stateMutability": "view",
      "type": "function"
    },
    {
      "inputs": [
        {
          "internalType": "bytes32",
          "name": "role",
          "type": "bytes32"
        }
      ],
      "name": "getRoleAdmin",
      "outputs": [
        {
          "internalType": "bytes32",
          "name": "",
          "type": "bytes32"
        }
      ],
      "stateMutability": "view",
      "type": "function"
    },
    {
      "inputs": [
        {
          "internalType": "bytes32",
          "name": "role",
          "type": "bytes32"
        },
        {
          "internalType": "address",
          "name": "account",
          "type": "address"
        }
      ],
      "name": "grantRole",
      "outputs": [],
      "stateMutability": "nonpayable",
      "type": "function"
    },
    {
      "inputs": [
        {
          "internalType": "bytes32",
          "name": "role",
          "type": "bytes32"
        },
        {
          "internalType": "address",
          "name": "account",
          "type": "address"
        }
      ],
      "name": "hasRole",
      "outputs": [
        {
          "internalType": "bool",
          "name": "",
          "type": "bool"
        }
      ],
      "stateMutability": "view",
      "type": "function"
    },
    {
      "inputs": [
        {
          "internalType": "address",
          "name": "_exchangeAgent",
          "type": "address"
        },
        {
          "internalType": "address",
          "name": "_USDC_TOKEN",
          "type": "address"
        },
        {
          "internalType": "address",
          "name": "_multiSigWallet",
          "type": "address"
        },
        {
          "internalType": "address",
          "name": "_operator",
          "type": "address"
        }
      ],
      "name": "initialize",
      "outputs": [],
      "stateMutability": "nonpayable",
      "type": "function"
    },
    {
      "inputs": [
        {
          "internalType": "uint256",
          "name": "_policyId",
          "type": "uint256"
        }
      ],
      "name": "markToClaimPolicy",
      "outputs": [],
      "stateMutability": "nonpayable",
      "type": "function"
    },
    {
      "inputs": [],
      "name": "operator",
      "outputs": [
        {
          "internalType": "address",
          "name": "",
          "type": "address"
        }
      ],
      "stateMutability": "view",
      "type": "function"
    },
    {
      "inputs": [],
      "name": "policyInfo",
      "outputs": [
        {
          "internalType": "address",
          "name": "policy",
          "type": "address"
        },
        {
          "internalType": "uint256",
          "name": "utilizedAmount",
          "type": "uint256"
        },
        {
          "internalType": "bool",
          "name": "exist",
          "type": "bool"
        }
      ],
      "stateMutability": "view",
      "type": "function"
    },
    {
      "inputs": [
        {
          "internalType": "uint256",
          "name": "_coverageAmount",
          "type": "uint256"
        }
      ],
      "name": "policySale",
      "outputs": [],
      "stateMutability": "nonpayable",
      "type": "function"
    },
    {
      "inputs": [
        {
          "internalType": "address",
          "name": "",
          "type": "address"
        }
      ],
      "name": "poolInfo",
      "outputs": [
        {
          "internalType": "uint256",
          "name": "totalCapital",
          "type": "uint256"
        },
        {
          "internalType": "uint256",
          "name": "SCR",
          "type": "uint256"
        },
        {
          "internalType": "address",
          "name": "currency",
          "type": "address"
        },
        {
          "internalType": "bool",
          "name": "exist",
          "type": "bool"
        }
      ],
      "stateMutability": "view",
      "type": "function"
    },
    {
      "inputs": [
        {
          "internalType": "address",
          "name": "",
          "type": "address"
        }
      ],
      "name": "poolWhiteList",
      "outputs": [
        {
          "internalType": "bool",
          "name": "",
          "type": "bool"
        }
      ],
      "stateMutability": "view",
      "type": "function"
    },
    {
      "inputs": [],
      "name": "removePolicy",
      "outputs": [],
      "stateMutability": "nonpayable",
      "type": "function"
    },
    {
      "inputs": [
        {
          "internalType": "address",
          "name": "_ssip",
          "type": "address"
        }
      ],
      "name": "removePool",
      "outputs": [],
      "stateMutability": "nonpayable",
      "type": "function"
    },
    {
      "inputs": [
        {
          "internalType": "address",
          "name": "_pool",
          "type": "address"
        }
      ],
      "name": "removePoolWhiteList",
      "outputs": [],
      "stateMutability": "nonpayable",
      "type": "function"
    },
    {
      "inputs": [
        {
          "internalType": "bytes32",
          "name": "role",
          "type": "bytes32"
        },
        {
          "internalType": "address",
          "name": "callerConfirmation",
          "type": "address"
        }
      ],
      "name": "renounceRole",
      "outputs": [],
      "stateMutability": "nonpayable",
      "type": "function"
    },
    {
      "inputs": [
        {
          "internalType": "bytes32",
          "name": "role",
          "type": "bytes32"
        },
        {
          "internalType": "address",
          "name": "account",
          "type": "address"
        }
      ],
      "name": "revokeRole",
      "outputs": [],
      "stateMutability": "nonpayable",
      "type": "function"
    },
    {
      "inputs": [],
      "name": "salesPolicyFactory",
      "outputs": [
        {
          "internalType": "address",
          "name": "",
          "type": "address"
        }
      ],
      "stateMutability": "view",
      "type": "function"
    },
    {
      "inputs": [
        {
          "internalType": "address",
          "name": "_exchangeAgent",
          "type": "address"
        }
      ],
      "name": "setExchangeAgent",
      "outputs": [],
      "stateMutability": "nonpayable",
      "type": "function"
    },
    {
      "inputs": [
        {
          "internalType": "uint256",
          "name": "_MCR",
          "type": "uint256"
        }
      ],
      "name": "setMCR",
      "outputs": [],
      "stateMutability": "nonpayable",
      "type": "function"
    },
    {
      "inputs": [
        {
          "internalType": "uint256",
          "name": "_MLR",
          "type": "uint256"
        }
      ],
      "name": "setMLR",
      "outputs": [],
      "stateMutability": "nonpayable",
      "type": "function"
    },
    {
      "inputs": [
        {
          "internalType": "address",
          "name": "_operator",
          "type": "address"
        }
      ],
      "name": "setOperator",
      "outputs": [],
      "stateMutability": "nonpayable",
      "type": "function"
    },
    {
      "inputs": [
        {
          "internalType": "address",
          "name": "_policy",
          "type": "address"
        }
      ],
      "name": "setPolicy",
      "outputs": [],
      "stateMutability": "nonpayable",
      "type": "function"
    },
    {
      "inputs": [
        {
          "internalType": "address",
          "name": "_policy",
          "type": "address"
        }
      ],
      "name": "setPolicyByAdmin",
      "outputs": [],
      "stateMutability": "nonpayable",
      "type": "function"
    },
    {
      "inputs": [
        {
          "internalType": "address",
          "name": "_ssip",
          "type": "address"
        },
        {
          "internalType": "uint256",
          "name": "_capital",
          "type": "uint256"
        }
      ],
      "name": "setPoolCapital",
      "outputs": [],
      "stateMutability": "nonpayable",
      "type": "function"
    },
    {
      "inputs": [
        {
          "internalType": "uint256",
          "name": "_SCR",
          "type": "uint256"
        },
        {
          "internalType": "address",
          "name": "_pool",
          "type": "address"
        }
      ],
      "name": "setSCR",
      "outputs": [],
      "stateMutability": "nonpayable",
      "type": "function"
    },
    {
      "inputs": [
        {
          "internalType": "address",
          "name": "_factory",
          "type": "address"
        }
      ],
      "name": "setSalesPolicyFactory",
      "outputs": [],
      "stateMutability": "nonpayable",
      "type": "function"
    },
    {
      "inputs": [
        {
          "internalType": "address",
          "name": "_usdcToken",
          "type": "address"
        }
      ],
      "name": "setUSDCToken",
      "outputs": [],
      "stateMutability": "nonpayable",
      "type": "function"
    },
    {
      "inputs": [
        {
          "internalType": "bytes4",
          "name": "interfaceId",
          "type": "bytes4"
        }
      ],
      "name": "supportsInterface",
      "outputs": [
        {
          "internalType": "bool",
          "name": "",
          "type": "bool"
        }
      ],
      "stateMutability": "view",
      "type": "function"
    },
    {
      "inputs": [],
      "name": "totalCapitalStaked",
      "outputs": [
        {
          "internalType": "uint256",
          "name": "",
          "type": "uint256"
        }
      ],
      "stateMutability": "view",
      "type": "function"
    },
    {
      "inputs": [
        {
          "internalType": "address",
          "name": "",
          "type": "address"
        }
      ],
      "name": "totalCapitalStakedByCurrency",
      "outputs": [
        {
          "internalType": "uint256",
          "name": "",
          "type": "uint256"
        }
      ],
      "stateMutability": "view",
      "type": "function"
    },
    {
      "inputs": [],
      "name": "totalUtilizedAmount",
      "outputs": [
        {
          "internalType": "uint256",
          "name": "",
          "type": "uint256"
        }
      ],
      "stateMutability": "view",
      "type": "function"
    },
    {
      "inputs": [
        {
          "internalType": "uint256",
          "name": "_policyId",
          "type": "uint256"
        }
      ],
      "name": "updatePolicyStatus",
      "outputs": [],
      "stateMutability": "nonpayable",
      "type": "function"
    },
    {
      "inputs": [],
      "name": "usdcToken",
      "outputs": [
        {
          "internalType": "address",
          "name": "",
          "type": "address"
        }
      ],
      "stateMutability": "view",
      "type": "function"
    }
  ],
  "transactionHash": "0xf414f4164622f32943cacd24e8c6ee4cc1dd936834d9d15317ac8494003ae3c6",
  "args": [],
  "numDeployments": 2,
  "solcInputHash": "7cdd875d5ac1c48b4808506f030848fb",
  "bytecode": "0x608060405234801561001057600080fd5b50612e35806100206000396000f3fe608060405234801561001057600080fd5b50600436106102d65760003560e01c80637d4163d311610182578063a88d2f7a116100e9578063d4688a45116100a2578063d9203b911161007c578063d9203b9114610789578063f045089f1461079c578063f8c8765e146107bf578063fb6cb847146107d257600080fd5b8063d4688a451461075a578063d547741f14610763578063d8c5c8631461077657600080fd5b8063a88d2f7a146106db578063b3ab15fb146106ee578063be22041b14610701578063c139b04f14610714578063c3ea3a2814610727578063c9245b961461073a57600080fd5b806392ff38ec1161013b57806392ff38ec14610643578063974e4d851461064b5780639a7b5f1114610669578063a0931af2146106ad578063a217fddf146106c0578063a65888fb146106c857600080fd5b80637d4163d3146105db5780637e29d6c2146105ee578063869bd44a146106015780638bb70831146106145780638be5a39f1461061d57806391d148541461063057600080fd5b8063385a128f1161024157806355b4b1a4116101fa57806365cb3a83116101d457806365cb3a83146105a2578063706c2d1b146105aa57806375b238fc146105bd578063794e5724146105d257600080fd5b806355b4b1a414610551578063570ca7351461057c5780635b44d5761461058f57600080fd5b8063385a128f146104975780633b7d0946146104aa5780633fecfbf2146104bd5780634341e0991461051c5780634a3a3d141461052f5780634dc70bac1461054257600080fd5b80631dfa426d116102935780631dfa426d14610407578063248a9ca31461041a57806325042fe91461043b5780632f2ff15d1461045e57806336568abe1461047157806336760a1c1461048457600080fd5b806301ffc9a7146102db57806306bfa938146103035780630d757531146103a15780630f5a9d01146103b657806311eac855146103c957806318a00d8e146103f4575b600080fd5b6102ee6102e9366004612a5e565b6107e5565b60405190151581526020015b60405180910390f35b610370610311366004612aa4565b6001600160a01b03908116600090815260046020908152604091829020825160808101845281548082526001830154938201849052600290920154948516938101849052600160a01b90940460ff161515606090940184905293909290565b6040516102fa949392919093845260208401929092526001600160a01b031660408301521515606082015260800190565b6103b46103af366004612abf565b61081c565b005b6103b46103c4366004612aa4565b6108bf565b6002546103dc906001600160a01b031681565b6040516001600160a01b0390911681526020016102fa565b6103b4610402366004612aa4565b610984565b6103b4610415366004612aa4565b610a27565b61042d610428366004612aeb565b610ae8565b6040519081526020016102fa565b6102ee610449366004612aa4565b600e6020526000908152604090205460ff1681565b6103b461046c366004612abf565b610b0a565b6103b461047f366004612abf565b610b2c565b6001546103dc906001600160a01b031681565b6103b46104a5366004612aeb565b610b64565b6103b46104b8366004612aa4565b610bde565b6104f5604080516060810182526008546001600160a01b031680825260095460208301819052600a5460ff1615159290930182905292565b604080516001600160a01b03909416845260208401929092521515908201526060016102fa565b6103b461052a366004612b04565b610d16565b6103b461053d366004612aa4565b610db8565b61042d670de0b6b3a764000081565b61042d61055f366004612b04565b600f60209081526000928352604080842090915290825290205481565b6003546103dc906001600160a01b031681565b6103b461059d366004612aeb565b610e85565b6103b4610f30565b6103b46105b8366004612b2e565b610fd8565b61042d600080516020612de083398151915281565b61042d600c5481565b6103b46105e9366004612aa4565b6111c1565b6103b46105fc366004612b2e565b6112f8565b6103b461060f366004612aeb565b6114f6565b61042d600d5481565b6103b461062b366004612aeb565b61159d565b6102ee61063e366004612abf565b6115ea565b61042d611622565b600854600954600a546104f5926001600160a01b0316919060ff1683565b610370610677366004612aa4565b6004602052600090815260409020805460018201546002909201549091906001600160a01b03811690600160a01b900460ff1684565b6103b46106bb366004612aeb565b611631565b61042d600081565b6103b46106d6366004612aa4565b61173e565b6103b46106e9366004612aa4565b61186e565b6103b46106fc366004612aa4565b611933565b6103b461070f366004612aeb565b6119f8565b6102ee610722366004612b04565b611ba2565b6102ee610735366004612aeb565b611bb5565b61042d610748366004612aa4565b60076020526000908152604090205481565b61042d600b5481565b6103b4610771366004612abf565b611bc0565b6103b4610784366004612aeb565b611bdc565b6000546103dc906001600160a01b031681565b6102ee6107aa366004612aa4565b60066020526000908152604090205460ff1681565b6103b46107cd366004612b6a565b611c47565b6103b46107e0366004612bcc565b611ee6565b60006001600160e01b03198216637965db0b60e01b148061081657506301ffc9a760e01b6001600160e01b03198316145b92915050565b6003546001600160a01b0316331461084f5760405162461bcd60e51b815260040161084690612c05565b60405180910390fd5b610857611f4b565b6001600160a01b0381166000818152600460205260409081902060010184905551309033907fade0e16d2bd0d685eef1e5355dc835692faac192ef62225adb31cd0c0b99c8a8906108ab9087815260200190565b60405180910390a46108bb611f95565b5050565b600080516020612de08339815191526108d781611fbb565b6108df611f4b565b6001600160a01b0382166109355760405162461bcd60e51b815260206004820152601860248201527f556e6f52653a207a65726f2075736463206164647265737300000000000000006044820152606401610846565b600280546001600160a01b0319166001600160a01b0384169081179091556040517f103c5bd4d1fbed26f9d95c639ecfb64bbece2b8f7d599a45f9aaab41c3e9ded090600090a26108bb611f95565b600080516020612de083398151915261099c81611fbb565b6109a4611f4b565b6001600160a01b0382166109ca5760405162461bcd60e51b815260040161084690612c3c565b600080546001600160a01b0319166001600160a01b038416908117909155604051908152309033907f28e0ff29ad991f2655c48b0b095a69abbf13aec6c8bc181dd526dbb3f8c9d0b99060200160405180910390a36108bb611f95565b600080516020612de0833981519152610a3f81611fbb565b610a47611f4b565b6001600160a01b038216610a6d5760405162461bcd60e51b815260040161084690612c3c565b604080516060810182526001600160a01b0384168082526000602083018190526001928401839052600880546001600160a01b031916831790556009819055600a805460ff191690931790925591517f8ba1947a8c64577d7adbd8cbc248c72b68738fe23afef984d842ba5ec5af5cfe9190a26108bb611f95565b6000908152600080516020612dc0833981519152602052604090206001015490565b610b1382610ae8565b610b1c81611fbb565b610b268383611fc5565b50505050565b6001600160a01b0381163314610b555760405163334bd91960e11b815260040160405180910390fd5b610b5f828261206a565b505050565b6003546001600160a01b03163314610b8e5760405162461bcd60e51b815260040161084690612c05565b610b96611f4b565b600c819055604051818152309033907fa55ee73f4232498ac4c250ffa77f4337343a213648a66147d8848f6660fa3fdf906020015b60405180910390a3610bdb611f95565b50565b600080516020612de0833981519152610bf681611fbb565b610bfe611f4b565b6001600160a01b038216600090815260046020526040902060020154600160a01b900460ff16610c405760405162461bcd60e51b815260040161084690612c69565b6001600160a01b03821660009081526004602052604090205415610cb5576001600160a01b0380831660009081526004602090815260408083206002810154905494168084526007909252909120549091610c9a91612cac565b6001600160a01b039091166000908152600760205260409020555b6001600160a01b0382166000818152600460205260408082208281556001810183905560020180546001600160a81b0319169055517ff54e47602c09e6190ae0c9cba6074e2e211bf36944fd714fbb0bd78aba514cab9190a26108bb611f95565b600080516020612de0833981519152610d2e81611fbb565b610d36611f4b565b6001600160a01b038316600090815260046020526040902060020154600160a01b900460ff16610d785760405162461bcd60e51b815260040161084690612c69565b6001600160a01b03808416600081815260046020818152604080842060028101549096168452600782528320879055929091529052829055610b5f611f95565b600080516020612de0833981519152610dd081611fbb565b610dd8611f4b565b6001600160a01b0382166000908152600e602052604090205460ff16610e375760405162461bcd60e51b8152602060048201526014602482015273155b9bd4994e881b9bc81dda1a5d19481b1a5cdd60621b6044820152606401610846565b6001600160a01b0382166000818152600e6020526040808220805460ff19169055517f4151e001c03bfed83a194d10eea2c0edf04f98e382c440c94a947a99d38d2c329190a26108bb611f95565b610e8d611f4b565b33600090815260046020526040902060020154600160a01b900460ff16610ec65760405162461bcd60e51b815260040161084690612cbf565b610ed033826120e6565b610f1c5760405162461bcd60e51b815260206004820181905260248201527f556e6f52653a206d696e696d756d206361706974616c20756e646572666c6f776044820152606401610846565b610f28338260006121d3565b610bdb611f95565b600080516020612de0833981519152610f4881611fbb565b610f50611f4b565b600a5460ff16610f725760405162461bcd60e51b815260040161084690612c69565b6000600b819055600880546001600160a01b03198116909155600a805460ff1916905560098290556040516001600160a01b039091169182917fffb315d96bed6cc0b00a9cc39d15fcbcab7d047fca09660a2d73569cfc75817c9190a250610bdb611f95565b600080516020612de0833981519152610ff081611fbb565b6001600160a01b0384166110165760405162461bcd60e51b815260040161084690612c3c565b6001600160a01b038416600090815260046020526040902060020154600160a01b900460ff16156110855760405162461bcd60e51b8152602060048201526019602482015278155b9bd4994e88185b1c9958591e48195e1a5cdd081c1bdbdb603a1b6044820152606401610846565b6001600160a01b03831660009081526006602052604081205460ff161515900361110f576001600160a01b0383166000818152600660205260408120805460ff191660019081179091556005805491820181559091527f036b6384b5eca791c62761152d0c79bb0604c104a5fb6f4eb0703f3154bb3db00180546001600160a01b03191690911790555b60408051608081018252600080825260208083018681526001600160a01b038881168587018181526001606088018181528d851680895260048852978a902098518955945190880155516002909601805493511515600160a01b026001600160a81b0319909416969092169590951791909117905583519283528201859052917f4135167fcda3c31ddaa41eecaaa00c3e3ba8aabf49d039cfad433be34bf659ab91015b60405180910390a250505050565b6111c9611f4b565b600a5460ff16156112135760405162461bcd60e51b8152602060048201526014602482015273556e6f52653a20506f6c6963792065786973747360601b6044820152606401610846565b6001546001600160a01b0316331461127d5760405162461bcd60e51b815260206004820152602760248201527f556e6f52653a206f6e6c792073616c6573506f6c696379466163746f72792063604482015266185b8818d85b1b60ca1b6064820152608401610846565b604080516060810182526001600160a01b0383168082526000602083018190526001928401839052600880546001600160a01b031916831790556009819055600a805460ff191690931790925591517f8ba1947a8c64577d7adbd8cbc248c72b68738fe23afef984d842ba5ec5af5cfe9190a2610bdb611f95565b336000908152600e602052604090205460ff166113275760405162461bcd60e51b815260040161084690612c05565b6001600160a01b03831661134d5760405162461bcd60e51b815260040161084690612c3c565b6001600160a01b038316600090815260046020526040902060020154600160a01b900460ff16156113bc5760405162461bcd60e51b8152602060048201526019602482015278155b9bd4994e88185b1c9958591e48195e1a5cdd081c1bdbdb603a1b6044820152606401610846565b6001600160a01b03821660009081526006602052604081205460ff1615159003611446576001600160a01b0382166000818152600660205260408120805460ff191660019081179091556005805491820181559091527f036b6384b5eca791c62761152d0c79bb0604c104a5fb6f4eb0703f3154bb3db00180546001600160a01b03191690911790555b60408051608081018252600080825260208083018581526001600160a01b038781168587018181526001606088018181528c851680895260048852978a902098518955945190880155516002909601805493511515600160a01b026001600160a81b0319909416969092169590951791909117905583519283528201849052917f4135167fcda3c31ddaa41eecaaa00c3e3ba8aabf49d039cfad433be34bf659ab910160405180910390a2505050565b600080516020612de083398151915261150e81611fbb565b611516611f4b565b600854604051637a5402e960e01b8152600481018490526000916001600160a01b031690637a5402e99060240160a060405180830381865afa158015611560573d6000803e3d6000fd5b505050506040513d601f19601f820116820180604052508101906115849190612ced565b5050505090506115948382612382565b506108bb611f95565b6115a5611f4b565b33600090815260046020526040902060020154600160a01b900460ff166115de5760405162461bcd60e51b815260040161084690612cbf565b610f28338260016121d3565b6000918252600080516020612dc0833981519152602090815260408084206001600160a01b0393909316845291905290205460ff1690565b600061162c61248a565b905090565b611639611f4b565b6008546001600160a01b031633146116935760405162461bcd60e51b815260206004820181905260248201527f556e6f52653a206f6e6c792073616c6573506f6c6963792063616e2063616c6c6044820152606401610846565b600a5460ff166116de5760405162461bcd60e51b8152602060048201526016602482015275556e6f52653a206e6f20657869737420706f6c69637960501b6044820152606401610846565b6116e7816124fd565b6117335760405162461bcd60e51b815260206004820181905260248201527f556e6f52653a206d6178696d756d206c65766572616765206f766572666c6f776044820152606401610846565b610f28816001612542565b600080516020612de083398151915261175681611fbb565b61175e611f4b565b6001600160a01b0382166117b45760405162461bcd60e51b815260206004820152601860248201527f556e6f52653a207a65726f20706f6f6c206164647265737300000000000000006044820152606401610846565b6001600160a01b0382166000908152600e602052604090205460ff161561181d5760405162461bcd60e51b815260206004820152601960248201527f556e6f52653a207768697465206c69737420616c7265616479000000000000006044820152606401610846565b6001600160a01b0382166000818152600e6020526040808220805460ff19166001179055517f398e8e2ed05e6be725398a28e81fdf023a447b92941bd666e68ce2091b82bcc79190a26108bb611f95565b600080516020612de083398151915261188681611fbb565b61188e611f4b565b6001600160a01b0382166118e45760405162461bcd60e51b815260206004820152601b60248201527f556e6f52653a207a65726f20666163746f7279206164647265737300000000006044820152606401610846565b600180546001600160a01b0319166001600160a01b0384169081179091556040517f6507596e94e343212d1c22479359f82fffb65f099deb3ebcae9eb33c3d06de9e90600090a26108bb611f95565b600080516020612de083398151915261194b81611fbb565b611953611f4b565b6001600160a01b0382166119a95760405162461bcd60e51b815260206004820152601c60248201527f556e6f52653a207a65726f206f70657261746f722061646472657373000000006044820152606401610846565b600380546001600160a01b0319166001600160a01b0384169081179091556040517f08c5d29613b4e7468e893fe5f104f5a3ea6e28298f00fbbab9dc9394578c89de90600090a26108bb611f95565b611a00611f4b565b6008546001600160a01b0316611a585760405162461bcd60e51b815260206004820152601b60248201527f556e6f52653a206e6f2065786973742073616c6573506f6c69637900000000006044820152606401610846565b600854604051637a5402e960e01b815260048101839052600091829182916001600160a01b031690637a5402e99060240160a060405180830381865afa158015611aa6573d6000803e3d6000fd5b505050506040513d601f19601f82011682018060405250810190611aca9190612ced565b505092509250925060008183611ae09190612d44565b421080159150611b9657611af5846000612542565b6008546040516352eaf0a160e11b8152600481018790526001600160a01b039091169063a5d5e14290602401600060405180830381600087803b158015611b3b57600080fd5b505af1158015611b4f573d6000803e3d6000fd5b50506008546040518881526001600160a01b0390911692507faf1c77a8196c946ab8e645210cd1e2685b4fb758ddfd474fd918298854dea6fc915060200160405180910390a25b50505050610bdb611f95565b6000611bae83836120e6565b9392505050565b6000610816826124fd565b611bc982610ae8565b611bd281611fbb565b610b26838361206a565b6003546001600160a01b03163314611c065760405162461bcd60e51b815260040161084690612c05565b611c0e611f4b565b600d819055604051818152309033907fb2f30bd42a6b499419a01b9b79e7b98934167f5a8a8c389ce446e20a8e5df76590602001610bcb565b7ff0c57e16840df040f15088dc2f81fe391c3923bec73e23a9662efc9c229c6a008054600160401b810460ff16159067ffffffffffffffff16600081158015611c8d5750825b905060008267ffffffffffffffff166001148015611caa5750303b155b905081158015611cb8575080155b15611cd65760405163f92ee8a960e01b815260040160405180910390fd5b845467ffffffffffffffff191660011785558315611d0057845460ff60401b1916600160401b1785555b6001600160a01b038916611d605760405162461bcd60e51b815260206004820152602160248201527f556e6f52653a207a65726f2065786368616e67654167656e74206164647265736044820152607360f81b6064820152608401610846565b6001600160a01b038816611db65760405162461bcd60e51b815260206004820152601860248201527f556e6f52653a207a65726f2055534443206164647265737300000000000000006044820152606401610846565b6001600160a01b038716611e175760405162461bcd60e51b815260206004820152602260248201527f556e6f52653a207a65726f206d756c746973696777616c6c6574206164647265604482015261737360f01b6064820152608401610846565b600080546001600160a01b03808c166001600160a01b031992831617909255600280548b84169083161790556003805492891692909116919091179055611e5c61263c565b611e6461264e565b611e7c600080516020612de083398151915288611fc5565b50611e95600080516020612de083398151915280612656565b8315611edb57845460ff60401b19168555604051600181527fc7f505b2f371ae2175ee4913f4499e1f2633a7b5936321eed1cdaeb6115181d29060200160405180910390a15b505050505050505050565b611eee611f4b565b33600090815260046020526040902060020154600160a01b900460ff16611f275760405162461bcd60e51b815260040161084690612cbf565b611f33338460006121d3565b8015611f4357611f4383836126b9565b610b5f611f95565b7f9b779b17422d0df92223018b32b4d1fa46e071723d6817e2486d003becc55f00805460011901611f8f57604051633ee5aeb560e01b815260040160405180910390fd5b60029055565b60017f9b779b17422d0df92223018b32b4d1fa46e071723d6817e2486d003becc55f0055565b610bdb81336128a1565b6000600080516020612dc0833981519152611fe084846115ea565b612060576000848152602082815260408083206001600160a01b03871684529091529020805460ff191660011790556120163390565b6001600160a01b0316836001600160a01b0316857f2f8788117e7eff1d82e926ec794901d17c78024a50270940304540a733656f0d60405160405180910390a46001915050610816565b6000915050610816565b6000600080516020612dc083398151915261208584846115ea565b15612060576000848152602082815260408083206001600160a01b0387168085529252808320805460ff1916905551339287917ff6391f5c32d9c69d2a47ea670b442974b53935d1edc7fd64eb21e047a839171b9190a46001915050610816565b6001600160a01b0380831660009081526004602052604081206002015490911681808061211161248a565b6001600160a01b03851660009081526007602052604090205490935061214390859061213e908990612cac565b6128da565b6001600160a01b03881660009081526004602052604090205490925061217090859061213e908990612cac565b90506000670de0b6b3a7640000600c548561218b9190612d57565b6121959190612d6e565b6001600160a01b03891660009081526004602052604090206001015490841080159250908310159082906121c65750805b9998505050505050505050565b80612240576001600160a01b0383166000908152600460205260409020548211156122405760405162461bcd60e51b815260206004820152601c60248201527f556e6f52653a20706f6f6c206361706974616c206f766572666c6f77000000006044820152606401610846565b6001600160a01b03808416600090815260046020526040902060020154168161228c576001600160a01b038416600090815260046020526040902054612287908490612cac565b6122b0565b6001600160a01b0384166000908152600460205260409020546122b0908490612d44565b6001600160a01b038516600090815260046020526040902055816122f7576001600160a01b0381166000908152600760205260409020546122f2908490612cac565b61231b565b6001600160a01b03811660009081526007602052604090205461231b908490612d44565b6001600160a01b038281166000818152600760208181526040808420879055948a1680845260048252858420549490935290815283519283528201939093527f4c54f63d510ce2f2f9bf99bf203458cb67aa75fae97ccab560a1654eba9dbf2491016111b3565b6008546001600160a01b03166123da5760405162461bcd60e51b815260206004820152601b60248201527f556e6f52653a206e6f2065786973742073616c6573506f6c69637900000000006044820152606401610846565b6123e5816000612542565b6008546040516319d9b48f60e11b8152600481018490526001600160a01b03909116906333b3691e90602401600060405180830381600087803b15801561242b57600080fd5b505af115801561243f573d6000803e3d6000fd5b50506008546040518581526001600160a01b0390911692507f56b46e5b13fdb3c0b1989f448e91b2ad68cf0c8e8ddd87f996720708ae3a156991506020015b60405180910390a25050565b60008060005b6005548110156124f7576000600582815481106124af576124af612d90565b60009182526020808320909101546001600160a01b031680835260079091526040909120549091506124e29082906128da565b6124ec9084612d44565b925050600101612490565b50919050565b60008061250861248a565b9050670de0b6b3a7640000600d54826125219190612d57565b61252b9190612d6e565b83600b546125399190612d44565b11159392505050565b80612599576009548211156125995760405162461bcd60e51b815260206004820152601f60248201527f556e6f52653a20706f6c69637920636f766572616765206f766572666c6f77006044820152606401610846565b806125b1576009546125ac908390612cac565b6125bf565b6009546125bf908390612d44565b600955806125da5781600b546125d59190612cac565b6125e8565b81600b546125e89190612d44565b600b8190556008546009546040805186815260208101929092528101929092526001600160a01b0316907facece99dd8b86cb96519fb17caded4d103b35a8261463d0d11f80a41146073009060600161247e565b612644612a0d565b61264c612a56565b565b61264c612a0d565b600080516020612dc0833981519152600061267084610ae8565b600085815260208490526040808220600101869055519192508491839187917fbd79b86ffe0ab8e8776151514217cd7cacd52c909f66475c3af44e129f0b00ff9190a450505050565b600854604051637a5402e960e01b8152600481018390526001600160a01b03909116906000908290637a5402e99060240160a060405180830381865afa158015612707573d6000803e3d6000fd5b505050506040513d601f19601f8201168201806040525081019061272b9190612ced565b505050506001600160a01b038381166000908152600f60209081526040808320888452825280832054338452600492839052818420600290810154855491549351631a44cdf360e11b81529087169481018590529286166024840152604483018b905295965094919391909116906334899be690606401602060405180830381865afa1580156127bf573d6000803e3d6000fd5b505050506040513d601f19601f820116820180604052508101906127e39190612da6565b90506127ef8382612d44565b84101561283e5760405162461bcd60e51b815260206004820152601e60248201527f556e6f52653a20636f76657261676520616d6f756e74206973206c65737300006044820152606401610846565b6001600160a01b0385166000908152600f6020908152604080832089845290915281208054839290612871908490612d44565b90915550600090506128838483612d44565b851180159150612897576128978786612382565b5050505050505050565b6128ab82826115ea565b6108bb5760405163e2517d3f60e01b81526001600160a01b038216600482015260248101839052604401610846565b60025460009081906001600160a01b03908116908516036128fc575081611bae565b6001600160a01b0384166129865760005460025460405163ba560ed960e01b81526001600160a01b0391821660048201526024810186905291169063ba560ed990604401602060405180830381865afa15801561295d573d6000803e3d6000fd5b505050506040513d601f19601f820116820180604052508101906129819190612da6565b612a05565b600054600254604051631a44cdf360e11b81526001600160a01b0387811660048301529182166024820152604481018690529116906334899be690606401602060405180830381865afa1580156129e1573d6000803e3d6000fd5b505050506040513d601f19601f82011682018060405250810190612a059190612da6565b949350505050565b7ff0c57e16840df040f15088dc2f81fe391c3923bec73e23a9662efc9c229c6a0054600160401b900460ff1661264c57604051631afcd79f60e31b815260040160405180910390fd5b611f95612a0d565b600060208284031215612a7057600080fd5b81356001600160e01b031981168114611bae57600080fd5b80356001600160a01b0381168114612a9f57600080fd5b919050565b600060208284031215612ab657600080fd5b611bae82612a88565b60008060408385031215612ad257600080fd5b82359150612ae260208401612a88565b90509250929050565b600060208284031215612afd57600080fd5b5035919050565b60008060408385031215612b1757600080fd5b612b2083612a88565b946020939093013593505050565b600080600060608486031215612b4357600080fd5b612b4c84612a88565b9250612b5a60208501612a88565b9150604084013590509250925092565b60008060008060808587031215612b8057600080fd5b612b8985612a88565b9350612b9760208601612a88565b9250612ba560408601612a88565b9150612bb360608601612a88565b905092959194509250565b8015158114610bdb57600080fd5b600080600060608486031215612be157600080fd5b83359250602084013591506040840135612bfa81612bbe565b809150509250925092565b6020808252601e908201527f556e6f52653a204361706974616c204167656e7420466f7262696464656e0000604082015260600190565b602080825260139082015272556e6f52653a207a65726f206164647265737360681b604082015260600190565b602080825260139082015272155b9bd4994e881b9bc8195e1a5d081c1bdbdb606a1b604082015260600190565b634e487b7160e01b600052601160045260246000fd5b8181038181111561081657610816612c96565b6020808252601490820152730556e6f52653a206e6f20657869737420737369760641b604082015260600190565b600080600080600060a08688031215612d0557600080fd5b8551945060208601519350604086015192506060860151612d2581612bbe565b6080870151909250612d3681612bbe565b809150509295509295909350565b8082018082111561081657610816612c96565b808202811582820484141761081657610816612c96565b600082612d8b57634e487b7160e01b600052601260045260246000fd5b500490565b634e487b7160e01b600052603260045260246000fd5b600060208284031215612db857600080fd5b505191905056fe02dd7bc7dec4dceedda775e58dd541e08a116c6c53815c0bd028192f7b626800a49807205ce4d355092ef5a8a18f56e8913cf4a201fbe287825b095693c21775a26469706673582212203d32004576ea417fd15380121b93eb6780aa6a16dbde23bd8dba80c9e2ab312e64736f6c63430008170033",
  "devdoc": {
    "details": "update and manage all pools capital and policy utlized amount, whenever user stake and withdraw from the pool and buy policy from salesPolicy notifies to capital agent to update pool capital and policy coverage*",
    "errors": {
      "AccessControlBadConfirmation()": [
        {
          "details": "The caller of a function is not the expected one. NOTE: Don't confuse with {AccessControlUnauthorizedAccount}."
        }
      ],
      "AccessControlUnauthorizedAccount(address,bytes32)": [
        {
          "details": "The `account` is missing a role."
        }
      ],
      "InvalidInitialization()": [
        {
          "details": "The contract is already initialized."
        }
      ],
      "NotInitializing()": [
        {
          "details": "The contract is not initializing."
        }
      ],
      "ReentrancyGuardReentrantCall()": [
        {
          "details": "Unauthorized reentrant call."
        }
      ]
    },
    "events": {
      "Initialized(uint64)": {
        "details": "Triggered when the contract has been initialized or reinitialized."
      },
      "RoleAdminChanged(bytes32,bytes32,bytes32)": {
        "details": "Emitted when `newAdminRole` is set as ``role``'s admin role, replacing `previousAdminRole` `DEFAULT_ADMIN_ROLE` is the starting admin for all roles, despite {RoleAdminChanged} not being emitted signaling this."
      },
      "RoleGranted(bytes32,address,address)": {
        "details": "Emitted when `account` is granted `role`. `sender` is the account that originated the contract call, an admin role bearer except when using {AccessControl-_setupRole}."
      },
      "RoleRevoked(bytes32,address,address)": {
        "details": "Emitted when `account` is revoked `role`. `sender` is the account that originated the contract call:   - if using `revokeRole`, it is the admin role bearer   - if using `renounceRole`, it is the role bearer (i.e. `account`)"
      }
    },
    "kind": "dev",
    "methods": {
      "SSIPPolicyCaim(uint256,uint256,bool)": {
        "details": "update pool(caller) capital from capital agent, decrease capital of pool by _withdrawAmount, if user claim policy from pool ",
        "params": {
          "_withdrawAmount": "amount to withdraw*"
        }
      },
      "SSIPStaking(uint256)": {
        "details": "update pool(caller) capital from capital agent, increase capital of pool by _stakingAmount, if user stake in pool",
        "params": {
          "_stakingAmount": "amount to deposit*"
        }
      },
      "SSIPWithdraw(uint256)": {
        "details": "update pool(caller) capital from capital agent, decrease capital of pool by _withdrawAmount, if user withdraw from pool remaning pool capital and total capital staked from same currency should be greater pool SCR and MCR respectively",
        "params": {
          "_withdrawAmount": "amount to withdraw*"
        }
      },
      "addPool(address,address,uint256)": {
        "details": "add pool into capitalAgent to stake capital, can only be call by whitelisted pools",
        "params": {
          "_currency": "pool lp currency address",
          "_scr": "pool scr value(minimum capital should maintain in capital agent)*",
          "_ssip": "address of pool to add"
        }
      },
      "addPoolByAdmin(address,address,uint256)": {
        "details": "add pool into capitalAgent to stake capital, can only be call by admin role",
        "params": {
          "_currency": "pool lp currency address",
          "_scr": "pool scr value(minimum capital should maintain in capital agent)*",
          "_ssip": "address of pool to add"
        }
      },
      "addPoolWhiteList(address)": {
        "details": "whitelist pool address, can only be call by admin role",
        "params": {
          "_pool": "address of pool to whitelist*"
        }
      },
      "checkCapitalByMCR(address,uint256)": {
        "details": "return if pool can withdraw this amount, remaning pool capital and total capital staked from same currency should be greater pool SCR and MCR respectively",
        "params": {
          "_pool": "address of pool",
          "_withdrawAmount": "withdraw amount*"
        }
      },
      "checkCoverageByMLR(uint256)": {
        "details": "return if user can buy policy from this coverage amount,  total utlized amount plus coverage should be less than MLR of total capital staked",
        "params": {
          "_coverageAmount": "coverage amount*"
        }
      },
      "getRoleAdmin(bytes32)": {
        "details": "Returns the admin role that controls `role`. See {grantRole} and {revokeRole}. To change a role's admin, use {_setRoleAdmin}."
      },
      "grantRole(bytes32,address)": {
        "details": "Grants `role` to `account`. If `account` had not been already granted `role`, emits a {RoleGranted} event. Requirements: - the caller must have ``role``'s admin role. May emit a {RoleGranted} event."
      },
      "hasRole(bytes32,address)": {
        "details": "Returns `true` if `account` has been granted `role`."
      },
      "markToClaimPolicy(uint256)": {
        "details": "update policy status to not exist, can only be called by admin role",
        "params": {
          "_policyId": "policy id to update status*"
        }
      },
      "policySale(uint256)": {
        "details": "update policy coverage if user buy policy from SalesPolicy, only sales policy can call this function",
        "params": {
          "_coverageAmount": "coverage amount*"
        }
      },
      "removePolicy()": {
        "details": "remove sales policy from capital agent, can only be call by admin role*"
      },
      "removePool(address)": {
        "details": "remove pool from capitalAgent, can only be call by admin role",
        "params": {
          "_ssip": "address of pool to remove*"
        }
      },
      "removePoolWhiteList(address)": {
        "details": "remove whitelisted pool, can only be call by admin role",
        "params": {
          "_pool": "address of pool to remove from whitelist*"
        }
      },
      "renounceRole(bytes32,address)": {
        "details": "Revokes `role` from the calling account. Roles are often managed via {grantRole} and {revokeRole}: this function's purpose is to provide a mechanism for accounts to lose their privileges if they are compromised (such as when a trusted device is misplaced). If the calling account had been revoked `role`, emits a {RoleRevoked} event. Requirements: - the caller must be `callerConfirmation`. May emit a {RoleRevoked} event."
      },
      "revokeRole(bytes32,address)": {
        "details": "Revokes `role` from `account`. If `account` had been granted `role`, emits a {RoleRevoked} event. Requirements: - the caller must have ``role``'s admin role. May emit a {RoleRevoked} event."
      },
      "setExchangeAgent(address)": {
        "details": "set new exchange agent address, can only be called by admin role",
        "params": {
          "_exchangeAgent": "new exchange agent address*"
        }
      },
      "setMCR(uint256)": {
        "details": "set new MCR, can only be called by operator",
        "params": {
          "_MCR": "new value to update*"
        }
      },
      "setMLR(uint256)": {
        "details": "set new MLR, can only be called by operator",
        "params": {
          "_MLR": "new value to update*"
        }
      },
      "setOperator(address)": {
        "details": "set operator, can only be call by admin role",
        "params": {
          "_operator": "new operator address*"
        }
      },
      "setPolicy(address)": {
        "details": "set sales policy, can only be call by SalesPolicyFactory",
        "params": {
          "_policy": "address of new SalesPolicy*"
        }
      },
      "setPolicyByAdmin(address)": {
        "details": "set sales policy, can only be call by admin role",
        "params": {
          "_policy": "address of new SalesPolicy*"
        }
      },
      "setSCR(uint256,address)": {
        "details": "set new SCR of pool, can only be called by operator",
        "params": {
          "_SCR": "new value to update",
          "_pool": "address of pool*"
        }
      },
      "setSalesPolicyFactory(address)": {
        "details": "set sales policy factory, can only be call by admin role",
        "params": {
          "_factory": "new sales policy factory address*"
        }
      },
      "setUSDCToken(address)": {
        "details": "set usdc token, can only be call by admin role",
        "params": {
          "_usdcToken": "new usdc token address*"
        }
      },
      "supportsInterface(bytes4)": {
        "details": "See {IERC165-supportsInterface}."
      },
      "totalCapitalStaked()": {
        "details": "return total capital in usdc staked in capital agent by pools *"
      },
      "updatePolicyStatus(uint256)": {
        "details": "update policy status, if expired update policy coverage and notify to sales policy",
        "params": {
          "_policyId": "policy id to update status*"
        }
      }
    },
    "version": 1
  },
  "userdoc": {
    "kind": "user",
    "methods": {},
    "version": 1
  },
  "storageLayout": {
    "storage": [
      {
        "astId": 3013,
        "contract": "contracts/CapitalAgent.sol:CapitalAgent",
        "label": "exchangeAgent",
        "offset": 0,
        "slot": "0",
        "type": "t_address"
      },
      {
        "astId": 3015,
        "contract": "contracts/CapitalAgent.sol:CapitalAgent",
        "label": "salesPolicyFactory",
        "offset": 0,
        "slot": "1",
        "type": "t_address"
      },
      {
        "astId": 3017,
        "contract": "contracts/CapitalAgent.sol:CapitalAgent",
        "label": "usdcToken",
        "offset": 0,
        "slot": "2",
        "type": "t_address"
      },
      {
        "astId": 3019,
        "contract": "contracts/CapitalAgent.sol:CapitalAgent",
        "label": "operator",
        "offset": 0,
        "slot": "3",
        "type": "t_address"
      },
      {
        "astId": 3040,
        "contract": "contracts/CapitalAgent.sol:CapitalAgent",
        "label": "poolInfo",
        "offset": 0,
        "slot": "4",
        "type": "t_mapping(t_address,t_struct(PoolInfo)3028_storage)"
      },
      {
        "astId": 3043,
        "contract": "contracts/CapitalAgent.sol:CapitalAgent",
        "label": "currencyList",
        "offset": 0,
        "slot": "5",
        "type": "t_array(t_address)dyn_storage"
      },
      {
        "astId": 3047,
        "contract": "contracts/CapitalAgent.sol:CapitalAgent",
        "label": "existedCurrencies",
        "offset": 0,
        "slot": "6",
        "type": "t_mapping(t_address,t_bool)"
      },
      {
        "astId": 3051,
        "contract": "contracts/CapitalAgent.sol:CapitalAgent",
        "label": "totalCapitalStakedByCurrency",
        "offset": 0,
        "slot": "7",
        "type": "t_mapping(t_address,t_uint256)"
      },
      {
        "astId": 3054,
        "contract": "contracts/CapitalAgent.sol:CapitalAgent",
        "label": "policyInfo",
        "offset": 0,
        "slot": "8",
        "type": "t_struct(PolicyInfo)3035_storage"
      },
      {
        "astId": 3056,
        "contract": "contracts/CapitalAgent.sol:CapitalAgent",
        "label": "totalUtilizedAmount",
        "offset": 0,
        "slot": "11",
        "type": "t_uint256"
      },
      {
        "astId": 3058,
        "contract": "contracts/CapitalAgent.sol:CapitalAgent",
        "label": "MCR",
        "offset": 0,
        "slot": "12",
        "type": "t_uint256"
      },
      {
        "astId": 3060,
        "contract": "contracts/CapitalAgent.sol:CapitalAgent",
        "label": "MLR",
        "offset": 0,
        "slot": "13",
        "type": "t_uint256"
      },
      {
        "astId": 3067,
        "contract": "contracts/CapitalAgent.sol:CapitalAgent",
        "label": "poolWhiteList",
        "offset": 0,
        "slot": "14",
        "type": "t_mapping(t_address,t_bool)"
      },
      {
        "astId": 3073,
        "contract": "contracts/CapitalAgent.sol:CapitalAgent",
        "label": "claimedAmount",
        "offset": 0,
        "slot": "15",
        "type": "t_mapping(t_address,t_mapping(t_uint256,t_uint256))"
      }
    ],
    "types": {
      "t_address": {
        "encoding": "inplace",
        "label": "address",
        "numberOfBytes": "20"
      },
      "t_array(t_address)dyn_storage": {
        "base": "t_address",
        "encoding": "dynamic_array",
        "label": "address[]",
        "numberOfBytes": "32"
      },
      "t_bool": {
        "encoding": "inplace",
        "label": "bool",
        "numberOfBytes": "1"
      },
      "t_mapping(t_address,t_bool)": {
        "encoding": "mapping",
        "key": "t_address",
        "label": "mapping(address => bool)",
        "numberOfBytes": "32",
        "value": "t_bool"
      },
      "t_mapping(t_address,t_mapping(t_uint256,t_uint256))": {
        "encoding": "mapping",
        "key": "t_address",
        "label": "mapping(address => mapping(uint256 => uint256))",
        "numberOfBytes": "32",
        "value": "t_mapping(t_uint256,t_uint256)"
      },
      "t_mapping(t_address,t_struct(PoolInfo)3028_storage)": {
        "encoding": "mapping",
        "key": "t_address",
        "label": "mapping(address => struct CapitalAgent.PoolInfo)",
        "numberOfBytes": "32",
        "value": "t_struct(PoolInfo)3028_storage"
      },
      "t_mapping(t_address,t_uint256)": {
        "encoding": "mapping",
        "key": "t_address",
        "label": "mapping(address => uint256)",
        "numberOfBytes": "32",
        "value": "t_uint256"
      },
      "t_mapping(t_uint256,t_uint256)": {
        "encoding": "mapping",
        "key": "t_uint256",
        "label": "mapping(uint256 => uint256)",
        "numberOfBytes": "32",
        "value": "t_uint256"
      },
      "t_struct(PolicyInfo)3035_storage": {
        "encoding": "inplace",
        "label": "struct CapitalAgent.PolicyInfo",
        "members": [
          {
            "astId": 3030,
            "contract": "contracts/CapitalAgent.sol:CapitalAgent",
            "label": "policy",
            "offset": 0,
            "slot": "0",
            "type": "t_address"
          },
          {
            "astId": 3032,
            "contract": "contracts/CapitalAgent.sol:CapitalAgent",
            "label": "utilizedAmount",
            "offset": 0,
            "slot": "1",
            "type": "t_uint256"
          },
          {
            "astId": 3034,
            "contract": "contracts/CapitalAgent.sol:CapitalAgent",
            "label": "exist",
            "offset": 0,
            "slot": "2",
            "type": "t_bool"
          }
        ],
        "numberOfBytes": "96"
      },
      "t_struct(PoolInfo)3028_storage": {
        "encoding": "inplace",
        "label": "struct CapitalAgent.PoolInfo",
        "members": [
          {
            "astId": 3021,
            "contract": "contracts/CapitalAgent.sol:CapitalAgent",
            "label": "totalCapital",
            "offset": 0,
            "slot": "0",
            "type": "t_uint256"
          },
          {
            "astId": 3023,
            "contract": "contracts/CapitalAgent.sol:CapitalAgent",
            "label": "SCR",
            "offset": 0,
            "slot": "1",
            "type": "t_uint256"
          },
          {
            "astId": 3025,
            "contract": "contracts/CapitalAgent.sol:CapitalAgent",
            "label": "currency",
            "offset": 0,
            "slot": "2",
            "type": "t_address"
          },
          {
            "astId": 3027,
            "contract": "contracts/CapitalAgent.sol:CapitalAgent",
            "label": "exist",
            "offset": 20,
            "slot": "2",
            "type": "t_bool"
          }
        ],
        "numberOfBytes": "96"
      },
      "t_uint256": {
        "encoding": "inplace",
        "label": "uint256",
        "numberOfBytes": "32"
      }
    }
  }
}