{
  "address": "0xDB99B62bd15e88Fe995dCE4d959aCc3B82Eb9d92",
  "abi": [
    {
      "inputs": [
        {
          "internalType": "address",
          "name": "_optimisticOracleV3",
          "type": "address"
        },
        {
          "internalType": "address",
          "name": "_governance",
          "type": "address"
        }
      ],
      "stateMutability": "nonpayable",
      "type": "constructor"
    },
    {
      "inputs": [],
      "name": "AccessControlBadConfirmation",
      "type": "error"
    },
    {
      "inputs": [
        {
          "internalType": "address",
          "name": "account",
          "type": "address"
        },
        {
          "internalType": "bytes32",
          "name": "neededRole",
          "type": "bytes32"
        }
      ],
      "name": "AccessControlUnauthorizedAccount",
      "type": "error"
    },
    {
      "anonymous": false,
      "inputs": [
        {
          "indexed": true,
          "internalType": "bytes32",
          "name": "identifier",
          "type": "bytes32"
        },
        {
          "indexed": false,
          "internalType": "uint256",
          "name": "time",
          "type": "uint256"
        },
        {
          "indexed": false,
          "internalType": "bytes",
          "name": "ancillaryData",
          "type": "bytes"
        }
      ],
      "name": "PriceRequestAdded",
      "type": "event"
    },
    {
      "anonymous": false,
      "inputs": [
        {
          "indexed": true,
          "internalType": "bytes32",
          "name": "role",
          "type": "bytes32"
        },
        {
          "indexed": true,
          "internalType": "bytes32",
          "name": "previousAdminRole",
          "type": "bytes32"
        },
        {
          "indexed": true,
          "internalType": "bytes32",
          "name": "newAdminRole",
          "type": "bytes32"
        }
      ],
      "name": "RoleAdminChanged",
      "type": "event"
    },
    {
      "anonymous": false,
      "inputs": [
        {
          "indexed": true,
          "internalType": "bytes32",
          "name": "role",
          "type": "bytes32"
        },
        {
          "indexed": true,
          "internalType": "address",
          "name": "account",
          "type": "address"
        },
        {
          "indexed": true,
          "internalType": "address",
          "name": "sender",
          "type": "address"
        }
      ],
      "name": "RoleGranted",
      "type": "event"
    },
    {
      "anonymous": false,
      "inputs": [
        {
          "indexed": true,
          "internalType": "bytes32",
          "name": "role",
          "type": "bytes32"
        },
        {
          "indexed": true,
          "internalType": "address",
          "name": "account",
          "type": "address"
        },
        {
          "indexed": true,
          "internalType": "address",
          "name": "sender",
          "type": "address"
        }
      ],
      "name": "RoleRevoked",
      "type": "event"
    },
    {
      "anonymous": false,
      "inputs": [
        {
          "indexed": true,
          "internalType": "address",
          "name": "owner",
          "type": "address"
        },
        {
          "indexed": false,
          "internalType": "bool",
          "name": "arbitrateViaEscalationManager",
          "type": "bool"
        }
      ],
      "name": "UpdatedArbitrateViaEscalationManager",
      "type": "event"
    },
    {
      "anonymous": false,
      "inputs": [
        {
          "indexed": true,
          "internalType": "address",
          "name": "owner",
          "type": "address"
        },
        {
          "indexed": false,
          "internalType": "bool",
          "name": "discardOracle",
          "type": "bool"
        }
      ],
      "name": "UpdatedDiscardOracle",
      "type": "event"
    },
    {
      "anonymous": false,
      "inputs": [
        {
          "indexed": true,
          "internalType": "address",
          "name": "owner",
          "type": "address"
        },
        {
          "indexed": false,
          "internalType": "bool",
          "name": "validateDisputers",
          "type": "bool"
        }
      ],
      "name": "UpdatedValidateDisputers",
      "type": "event"
    },
    {
      "inputs": [],
      "name": "CLAIM_ASSESSOR_ROLE",
      "outputs": [
        {
          "internalType": "bytes32",
          "name": "",
          "type": "bytes32"
        }
      ],
      "stateMutability": "view",
      "type": "function"
    },
    {
      "inputs": [],
      "name": "DEFAULT_ADMIN_ROLE",
      "outputs": [
        {
          "internalType": "bytes32",
          "name": "",
          "type": "bytes32"
        }
      ],
      "stateMutability": "view",
      "type": "function"
    },
    {
      "inputs": [],
      "name": "NUMERICAL_VALUE",
      "outputs": [
        {
          "internalType": "int256",
          "name": "",
          "type": "int256"
        }
      ],
      "stateMutability": "view",
      "type": "function"
    },
    {
      "inputs": [],
      "name": "OPTMISTIC_ORACLE_V3_ROLE",
      "outputs": [
        {
          "internalType": "bytes32",
          "name": "",
          "type": "bytes32"
        }
      ],
      "stateMutability": "view",
      "type": "function"
    },
    {
      "inputs": [],
      "name": "arbitrateViaEscalationManager",
      "outputs": [
        {
          "internalType": "bool",
          "name": "",
          "type": "bool"
        }
      ],
      "stateMutability": "view",
      "type": "function"
    },
    {
      "inputs": [
        {
          "internalType": "bytes32",
          "name": "assertionId",
          "type": "bytes32"
        }
      ],
      "name": "assertionDisputedCallback",
      "outputs": [],
      "stateMutability": "nonpayable",
      "type": "function"
    },
    {
      "inputs": [
        {
          "internalType": "bytes32",
          "name": "assertionId",
          "type": "bytes32"
        },
        {
          "internalType": "bool",
          "name": "assertedTruthfully",
          "type": "bool"
        }
      ],
      "name": "assertionResolvedCallback",
      "outputs": [],
      "stateMutability": "nonpayable",
      "type": "function"
    },
    {
      "inputs": [
        {
          "internalType": "address",
          "name": "",
          "type": "address"
        }
      ],
      "name": "checkDisputers",
      "outputs": [
        {
          "internalType": "bool",
          "name": "",
          "type": "bool"
        }
      ],
      "stateMutability": "view",
      "type": "function"
    },
    {
      "inputs": [],
      "name": "discardOracle",
      "outputs": [
        {
          "internalType": "bool",
          "name": "",
          "type": "bool"
        }
      ],
      "stateMutability": "view",
      "type": "function"
    },
    {
      "inputs": [
        {
          "internalType": "bytes32",
          "name": "",
          "type": "bytes32"
        }
      ],
      "name": "getAssertionPolicy",
      "outputs": [
        {
          "components": [
            {
              "internalType": "bool",
              "name": "blockAssertion",
              "type": "bool"
            },
            {
              "internalType": "bool",
              "name": "arbitrateViaEscalationManager",
              "type": "bool"
            },
            {
              "internalType": "bool",
              "name": "discardOracle",
              "type": "bool"
            },
            {
              "internalType": "bool",
              "name": "validateDisputers",
              "type": "bool"
            }
          ],
          "internalType": "struct EscalationManagerInterface.AssertionPolicy",
          "name": "",
          "type": "tuple"
        }
      ],
      "stateMutability": "view",
      "type": "function"
    },
    {
      "inputs": [
        {
          "internalType": "bytes32",
          "name": "identifier",
          "type": "bytes32"
        },
        {
          "internalType": "uint256",
          "name": "time",
          "type": "uint256"
        },
        {
          "internalType": "bytes",
          "name": "ancillaryData",
          "type": "bytes"
        }
      ],
      "name": "getPrice",
      "outputs": [
        {
          "internalType": "int256",
          "name": "",
          "type": "int256"
        }
      ],
      "stateMutability": "view",
      "type": "function"
    },
    {
      "inputs": [
        {
          "internalType": "bytes32",
          "name": "role",
          "type": "bytes32"
        }
      ],
      "name": "getRoleAdmin",
      "outputs": [
        {
          "internalType": "bytes32",
          "name": "",
          "type": "bytes32"
        }
      ],
      "stateMutability": "view",
      "type": "function"
    },
    {
      "inputs": [
        {
          "internalType": "bytes32",
          "name": "role",
          "type": "bytes32"
        },
        {
          "internalType": "address",
          "name": "account",
          "type": "address"
        }
      ],
      "name": "grantRole",
      "outputs": [],
      "stateMutability": "nonpayable",
      "type": "function"
    },
    {
      "inputs": [
        {
          "internalType": "bytes32",
          "name": "role",
          "type": "bytes32"
        },
        {
          "internalType": "address",
          "name": "account",
          "type": "address"
        }
      ],
      "name": "hasRole",
      "outputs": [
        {
          "internalType": "bool",
          "name": "",
          "type": "bool"
        }
      ],
      "stateMutability": "view",
      "type": "function"
    },
    {
      "inputs": [
        {
          "internalType": "bytes32",
          "name": "assertionId",
          "type": "bytes32"
        },
        {
          "internalType": "address",
          "name": "disputeCaller",
          "type": "address"
        }
      ],
      "name": "isDisputeAllowed",
      "outputs": [
        {
          "internalType": "bool",
          "name": "",
          "type": "bool"
        }
      ],
      "stateMutability": "view",
      "type": "function"
    },
    {
      "inputs": [
        {
          "internalType": "bytes32",
          "name": "",
          "type": "bytes32"
        }
      ],
      "name": "isOraclePriceCalled",
      "outputs": [
        {
          "internalType": "bool",
          "name": "",
          "type": "bool"
        }
      ],
      "stateMutability": "view",
      "type": "function"
    },
    {
      "inputs": [
        {
          "internalType": "bytes32",
          "name": "",
          "type": "bytes32"
        }
      ],
      "name": "oraclePrice",
      "outputs": [
        {
          "internalType": "int256",
          "name": "",
          "type": "int256"
        }
      ],
      "stateMutability": "view",
      "type": "function"
    },
    {
      "inputs": [
        {
          "internalType": "bytes32",
          "name": "role",
          "type": "bytes32"
        },
        {
          "internalType": "address",
          "name": "callerConfirmation",
          "type": "address"
        }
      ],
      "name": "renounceRole",
      "outputs": [],
      "stateMutability": "nonpayable",
      "type": "function"
    },
    {
      "inputs": [
        {
          "internalType": "bytes32",
          "name": "identifier",
          "type": "bytes32"
        },
        {
          "internalType": "uint256",
          "name": "time",
          "type": "uint256"
        },
        {
          "internalType": "bytes",
          "name": "ancillaryData",
          "type": "bytes"
        }
      ],
      "name": "requestPrice",
      "outputs": [],
      "stateMutability": "nonpayable",
      "type": "function"
    },
    {
      "inputs": [
        {
          "internalType": "bytes32",
          "name": "role",
          "type": "bytes32"
        },
        {
          "internalType": "address",
          "name": "account",
          "type": "address"
        }
      ],
      "name": "revokeRole",
      "outputs": [],
      "stateMutability": "nonpayable",
      "type": "function"
    },
    {
      "inputs": [
        {
          "internalType": "bool",
          "name": "_arbitrateViaEscalationManager",
          "type": "bool"
        }
      ],
      "name": "setArbitrateViaEscalationManager",
      "outputs": [],
      "stateMutability": "nonpayable",
      "type": "function"
    },
    {
      "inputs": [
        {
          "internalType": "bool",
          "name": "_discardOracle",
          "type": "bool"
        }
      ],
      "name": "setDiscardOracle",
      "outputs": [],
      "stateMutability": "nonpayable",
      "type": "function"
    },
    {
      "inputs": [
        {
          "internalType": "bytes32",
          "name": "identifier",
          "type": "bytes32"
        },
        {
          "internalType": "uint256",
          "name": "time",
          "type": "uint256"
        },
        {
          "internalType": "bytes",
          "name": "ancillaryData",
          "type": "bytes"
        },
        {
          "internalType": "int256",
          "name": "price",
          "type": "int256"
        }
      ],
      "name": "setOraclePrice",
      "outputs": [],
      "stateMutability": "nonpayable",
      "type": "function"
    },
    {
      "inputs": [
        {
          "internalType": "bool",
          "name": "_validateDisputers",
          "type": "bool"
        }
      ],
      "name": "setValidateDisputers",
      "outputs": [],
      "stateMutability": "nonpayable",
      "type": "function"
    },
    {
      "inputs": [
        {
          "internalType": "bytes4",
          "name": "interfaceId",
          "type": "bytes4"
        }
      ],
      "name": "supportsInterface",
      "outputs": [
        {
          "internalType": "bool",
          "name": "",
          "type": "bool"
        }
      ],
      "stateMutability": "view",
      "type": "function"
    },
    {
      "inputs": [
        {
          "internalType": "address",
          "name": "_disputer",
          "type": "address"
        }
      ],
      "name": "toggleDisputer",
      "outputs": [],
      "stateMutability": "nonpayable",
      "type": "function"
    },
    {
      "inputs": [],
      "name": "validateDisputers",
      "outputs": [
        {
          "internalType": "bool",
          "name": "",
          "type": "bool"
        }
      ],
      "stateMutability": "view",
      "type": "function"
    }
  ],
  "transactionHash": "0xf42a9bf7e69785a9da5e0e70415fb853b1c211236b3273661d0cc0655983d503",
  "args": [
    "0xfb55F43fB9F48F63f9269DB7Dde3BbBe1ebDC0dE",
    "0x8C0F1b5C01A7146259d51F798a114f4F8dC0177e"
  ],
  "numDeployments": 1,
  "solcInputHash": "9d2b2f55b936710cd4edd91515c2aa79",
  "bytecode": "0x60806040523480156200001157600080fd5b5060405162000faf38038062000faf8339810160408190526200003491620001d0565b6200004f60008051602062000f6f83398151915282620000b9565b506200006b60008051602062000f6f8339815191528062000168565b6200008660008051602062000f8f83398151915283620000b9565b50620000b160008051602062000f8f83398151915260008051602062000f6f83398151915262000168565b505062000208565b6000828152602081815260408083206001600160a01b038516845290915281205460ff166200015e576000838152602081815260408083206001600160a01b03861684529091529020805460ff19166001179055620001153390565b6001600160a01b0316826001600160a01b0316847f2f8788117e7eff1d82e926ec794901d17c78024a50270940304540a733656f0d60405160405180910390a450600162000162565b5060005b92915050565b600082815260208190526040808220600101805490849055905190918391839186917fbd79b86ffe0ab8e8776151514217cd7cacd52c909f66475c3af44e129f0b00ff9190a4505050565b80516001600160a01b0381168114620001cb57600080fd5b919050565b60008060408385031215620001e457600080fd5b620001ef83620001b3565b9150620001ff60208401620001b3565b90509250929050565b610d5780620002186000396000f3fe608060405234801561001057600080fd5b50600436106101a95760003560e01c8063719c6d56116100f9578063c0b0503511610097578063d547741f11610071578063d547741f14610468578063d62efb751461047b578063d99fec711461048e578063f1b156b2146104a357600080fd5b8063c0b050351461041f578063c89a4ae914610432578063d448a4ec1461045557600080fd5b8063a217fddf116100d3578063a217fddf14610340578063a6b011a714610348578063a96e6cc6146103f7578063b1d959561461040a57600080fd5b8063719c6d56146102fa57806379adeacc1461030d57806391d148541461032d57600080fd5b80632daeba581161016657806341dc20461161014057806341dc20461461029457806343db49ad146102a75780634c7a7d38146102ba5780636b915d91146102cc57600080fd5b80632daeba581461024b5780632f2ff15d1461026e57806336568abe1461028157600080fd5b806301ffc9a7146101ae5780631f25bee0146101d6578063216666a4146101f3578063248a9ca314610208578063261d3d3a1461022b5780632a7de60b1461023e575b600080fd5b6101c16101bc366004610a10565b6104b6565b60405190151581526020015b60405180910390f35b6101e5670de0b6b3a764000081565b6040519081526020016101cd565b610206610201366004610ae4565b6104ed565b005b6101e5610216366004610b34565b60009081526020819052604090206001015490565b610206610239366004610b4d565b610545565b6001546101c19060ff1681565b6101c1610259366004610bc1565b60026020526000908152604090205460ff1681565b61020661027c366004610bdc565b610614565b61020661028f366004610bdc565b61063f565b6102066102a2366004610bc1565b610677565b6102066102b5366004610c18565b6106b9565b6001546101c190610100900460ff1681565b6101c16102da366004610bdc565b6001600160a01b031660009081526002602052604090205460ff16919050565b6101e5610308366004610ae4565b610728565b6101e561031b366004610b34565b60036020526000908152604090205481565b6101c161033b366004610bdc565b61078f565b6101e5600081565b6103bc610356366004610b34565b6040805160808101825260008082526020820181905291810182905260608101919091525050604080516080810182526000815260015460ff80821615156020840152610100820481161515938301939093526201000090049091161515606082015290565b6040516101cd919081511515815260208083015115159082015260408083015115159082015260609182015115159181019190915260800190565b610206610405366004610c18565b6107b8565b6101e5600080516020610d0283398151915281565b61020661042d366004610c18565b61081d565b6101c1610440366004610b34565b60046020526000908152604090205460ff1681565b610206610463366004610b34565b610878565b610206610476366004610bdc565b610894565b6001546101c19062010000900460ff1681565b6101e5600080516020610ce283398151915281565b6102066104b1366004610c33565b6108b9565b60006001600160e01b03198216637965db0b60e01b14806104e757506301ffc9a760e01b6001600160e01b03198316145b92915050565b600080516020610d02833981519152610505816108cd565b837fb17a139310ca50023f8dc119e2f4d6b839cf066d7b246eb502d16c335d1db6318484604051610537929190610c7a565b60405180910390a250505050565b600080516020610ce283398151915261055d816108cd565b8115806105715750670de0b6b3a764000082145b6105bb5760405162461bcd60e51b8152602060048201526016602482015275454d616e6765723a20696e76616c696420707269636560501b60448201526064015b60405180910390fd5b60008585856040516020016105d293929190610cb4565b60408051601f198184030181529181528151602092830120600090815260038352818120959095556004909152909220805460ff191660011790555050505050565b60008281526020819052604090206001015461062f816108cd565b61063983836108da565b50505050565b6001600160a01b03811633146106685760405163334bd91960e11b815260040160405180910390fd5b610672828261096c565b505050565b600080516020610ce283398151915261068f816108cd565b506001600160a01b03166000908152600260205260409020805460ff19811660ff90911615179055565b600080516020610ce28339815191526106d1816108cd565b600180548315156101000261ff001990911617905560405133907f0d848abbfec5c62f73a9e68f269ba0413cf78f98e90f97a268b65f0bafeafddf9061071c90851515815260200190565b60405180910390a25050565b60008084848460405160200161074093929190610cb4565b60408051601f1981840301815291815281516020928301206000818152600490935291205490915060ff16610776576000610786565b6000818152600360205260409020545b95945050505050565b6000918252602082815260408084206001600160a01b0393909316845291905290205460ff1690565b600080516020610ce28339815191526107d0816108cd565b60018054831515620100000262ff00001990911617905560405133907f86349522c1d987577f509a5fcb6fe45f112a16c9c4616f5eab7e13d64d16a3829061071c90851515815260200190565b600080516020610ce2833981519152610835816108cd565b6001805460ff191683151590811790915560405190815233907f808c14e99b3ea0f600449e4471ee5a2275234c5b1db0a8da763f8a15ee663f029060200161071c565b600080516020610d02833981519152610890816108cd565b5050565b6000828152602081905260409020600101546108af816108cd565b610639838361096c565b600080516020610d02833981519152610672815b6108d781336109d7565b50565b60006108e6838361078f565b610964576000838152602081815260408083206001600160a01b03861684529091529020805460ff1916600117905561091c3390565b6001600160a01b0316826001600160a01b0316847f2f8788117e7eff1d82e926ec794901d17c78024a50270940304540a733656f0d60405160405180910390a45060016104e7565b5060006104e7565b6000610978838361078f565b15610964576000838152602081815260408083206001600160a01b0386168085529252808320805460ff1916905551339286917ff6391f5c32d9c69d2a47ea670b442974b53935d1edc7fd64eb21e047a839171b9190a45060016104e7565b6109e1828261078f565b6108905760405163e2517d3f60e01b81526001600160a01b0382166004820152602481018390526044016105b2565b600060208284031215610a2257600080fd5b81356001600160e01b031981168114610a3a57600080fd5b9392505050565b634e487b7160e01b600052604160045260246000fd5b600082601f830112610a6857600080fd5b813567ffffffffffffffff80821115610a8357610a83610a41565b604051601f8301601f19908116603f01168101908282118183101715610aab57610aab610a41565b81604052838152866020858801011115610ac457600080fd5b836020870160208301376000602085830101528094505050505092915050565b600080600060608486031215610af957600080fd5b8335925060208401359150604084013567ffffffffffffffff811115610b1e57600080fd5b610b2a86828701610a57565b9150509250925092565b600060208284031215610b4657600080fd5b5035919050565b60008060008060808587031215610b6357600080fd5b8435935060208501359250604085013567ffffffffffffffff811115610b8857600080fd5b610b9487828801610a57565b949793965093946060013593505050565b80356001600160a01b0381168114610bbc57600080fd5b919050565b600060208284031215610bd357600080fd5b610a3a82610ba5565b60008060408385031215610bef57600080fd5b82359150610bff60208401610ba5565b90509250929050565b80358015158114610bbc57600080fd5b600060208284031215610c2a57600080fd5b610a3a82610c08565b60008060408385031215610c4657600080fd5b82359150610bff60208401610c08565b60005b83811015610c71578181015183820152602001610c59565b50506000910152565b8281526040602082015260008251806040840152610c9f816060850160208701610c56565b601f01601f1916919091016060019392505050565b83815282602082015260008251610cd2816040850160208701610c56565b9190910160400194935050505056fea7fb00808094bb0669054259df045936913ac8f131613a7a6da2e81ac75d5f48fa9ee5805867fcd64bc0d88adbfc542f8166570d1ca4cbb35eece5c4fc348fdda264697066735822122025bcaa55905bde4440fccb9d310e837d882a03d0593639d119c413a9a88fe1b764736f6c63430008170033a7fb00808094bb0669054259df045936913ac8f131613a7a6da2e81ac75d5f48fa9ee5805867fcd64bc0d88adbfc542f8166570d1ca4cbb35eece5c4fc348fdd",
  "devdoc": {
    "errors": {
      "AccessControlBadConfirmation()": [
        {
          "details": "The caller of a function is not the expected one. NOTE: Don't confuse with {AccessControlUnauthorizedAccount}."
        }
      ],
      "AccessControlUnauthorizedAccount(address,bytes32)": [
        {
          "details": "The `account` is missing a role."
        }
      ]
    },
    "events": {
      "RoleAdminChanged(bytes32,bytes32,bytes32)": {
        "details": "Emitted when `newAdminRole` is set as ``role``'s admin role, replacing `previousAdminRole` `DEFAULT_ADMIN_ROLE` is the starting admin for all roles, despite {RoleAdminChanged} not being emitted signaling this."
      },
      "RoleGranted(bytes32,address,address)": {
        "details": "Emitted when `account` is granted `role`. `sender` is the account that originated the contract call, an admin role bearer except when using {AccessControl-_setupRole}."
      },
      "RoleRevoked(bytes32,address,address)": {
        "details": "Emitted when `account` is revoked `role`. `sender` is the account that originated the contract call:   - if using `revokeRole`, it is the admin role bearer   - if using `renounceRole`, it is the role bearer (i.e. `account`)"
      }
    },
    "kind": "dev",
    "methods": {
      "assertionDisputedCallback(bytes32)": {
        "params": {
          "assertionId": "The identifier of the assertion that was disputed."
        }
      },
      "assertionResolvedCallback(bytes32,bool)": {
        "params": {
          "assertedTruthfully": "Whether the assertion was resolved as truthful or not.",
          "assertionId": "The identifier of the assertion that was resolved."
        }
      },
      "getPrice(bytes32,uint256,bytes)": {
        "params": {
          "ancillaryData": "ancillary data of the price being requested.",
          "identifier": "price identifier being requested.",
          "time": "timestamp of the price being requested."
        },
        "returns": {
          "_0": "price from the escalation manager to inform the resolution of the dispute."
        }
      },
      "getRoleAdmin(bytes32)": {
        "details": "Returns the admin role that controls `role`. See {grantRole} and {revokeRole}. To change a role's admin, use {_setRoleAdmin}."
      },
      "grantRole(bytes32,address)": {
        "details": "Grants `role` to `account`. If `account` had not been already granted `role`, emits a {RoleGranted} event. Requirements: - the caller must have ``role``'s admin role. May emit a {RoleGranted} event."
      },
      "hasRole(bytes32,address)": {
        "details": "Returns `true` if `account` has been granted `role`."
      },
      "isDisputeAllowed(bytes32,address)": {
        "params": {
          "assertionId": "the assertionId to validate the dispute for.",
          "disputeCaller": "the caller of the dispute function."
        },
        "returns": {
          "_0": "bool true if the dispute is allowed, false otherwise."
        }
      },
      "renounceRole(bytes32,address)": {
        "details": "Revokes `role` from the calling account. Roles are often managed via {grantRole} and {revokeRole}: this function's purpose is to provide a mechanism for accounts to lose their privileges if they are compromised (such as when a trusted device is misplaced). If the calling account had been revoked `role`, emits a {RoleRevoked} event. Requirements: - the caller must be `callerConfirmation`. May emit a {RoleRevoked} event."
      },
      "requestPrice(bytes32,uint256,bytes)": {
        "params": {
          "ancillaryData": "ancillary data of the price being requested.",
          "identifier": "the identifier to fetch the price for.",
          "time": "the time to fetch the price for."
        }
      },
      "revokeRole(bytes32,address)": {
        "details": "Revokes `role` from `account`. If `account` had been granted `role`, emits a {RoleRevoked} event. Requirements: - the caller must have ``role``'s admin role. May emit a {RoleRevoked} event."
      },
      "supportsInterface(bytes4)": {
        "details": "See {IERC165-supportsInterface}."
      }
    },
    "version": 1
  },
  "userdoc": {
    "kind": "user",
    "methods": {
      "assertionDisputedCallback(bytes32)": {
        "notice": "Callback function that is called by Optimistic Oracle V3 when an assertion is disputed."
      },
      "assertionResolvedCallback(bytes32,bool)": {
        "notice": "Callback function that is called by Optimistic Oracle V3 when an assertion is resolved."
      },
      "constructor": {
        "notice": "Constructs the escalation manager."
      },
      "getPrice(bytes32,uint256,bytes)": {
        "notice": "Implements price getting logic. This method is called by Optimistic Oracle V3 settling an assertion that is configured to use the escalation manager as the oracle. The interface is constructed to mimic the UMA DVM."
      },
      "isDisputeAllowed(bytes32,address)": {
        "notice": "Callback function that is called by Optimistic Oracle V3 when an assertion is disputed. Used to validate if the dispute should be allowed based on the escalation policy."
      },
      "requestPrice(bytes32,uint256,bytes)": {
        "notice": "Implements price requesting logic for the escalation manager. This function is called by the Optimistic Oracle V3 on dispute and is constructed to mimic that of the UMA DVM interface."
      }
    },
    "version": 1
  },
  "storageLayout": {
    "storage": [
      {
        "astId": 1034,
        "contract": "contracts/uma/EscalationManager.sol:EscalationManager",
        "label": "_roles",
        "offset": 0,
        "slot": "0",
        "type": "t_mapping(t_bytes32,t_struct(RoleData)1029_storage)"
      },
      {
        "astId": 18488,
        "contract": "contracts/uma/EscalationManager.sol:EscalationManager",
        "label": "arbitrateViaEscalationManager",
        "offset": 0,
        "slot": "1",
        "type": "t_bool"
      },
      {
        "astId": 18490,
        "contract": "contracts/uma/EscalationManager.sol:EscalationManager",
        "label": "discardOracle",
        "offset": 1,
        "slot": "1",
        "type": "t_bool"
      },
      {
        "astId": 18492,
        "contract": "contracts/uma/EscalationManager.sol:EscalationManager",
        "label": "validateDisputers",
        "offset": 2,
        "slot": "1",
        "type": "t_bool"
      },
      {
        "astId": 18496,
        "contract": "contracts/uma/EscalationManager.sol:EscalationManager",
        "label": "checkDisputers",
        "offset": 0,
        "slot": "2",
        "type": "t_mapping(t_address,t_bool)"
      },
      {
        "astId": 18500,
        "contract": "contracts/uma/EscalationManager.sol:EscalationManager",
        "label": "oraclePrice",
        "offset": 0,
        "slot": "3",
        "type": "t_mapping(t_bytes32,t_int256)"
      },
      {
        "astId": 18504,
        "contract": "contracts/uma/EscalationManager.sol:EscalationManager",
        "label": "isOraclePriceCalled",
        "offset": 0,
        "slot": "4",
        "type": "t_mapping(t_bytes32,t_bool)"
      }
    ],
    "types": {
      "t_address": {
        "encoding": "inplace",
        "label": "address",
        "numberOfBytes": "20"
      },
      "t_bool": {
        "encoding": "inplace",
        "label": "bool",
        "numberOfBytes": "1"
      },
      "t_bytes32": {
        "encoding": "inplace",
        "label": "bytes32",
        "numberOfBytes": "32"
      },
      "t_int256": {
        "encoding": "inplace",
        "label": "int256",
        "numberOfBytes": "32"
      },
      "t_mapping(t_address,t_bool)": {
        "encoding": "mapping",
        "key": "t_address",
        "label": "mapping(address => bool)",
        "numberOfBytes": "32",
        "value": "t_bool"
      },
      "t_mapping(t_bytes32,t_bool)": {
        "encoding": "mapping",
        "key": "t_bytes32",
        "label": "mapping(bytes32 => bool)",
        "numberOfBytes": "32",
        "value": "t_bool"
      },
      "t_mapping(t_bytes32,t_int256)": {
        "encoding": "mapping",
        "key": "t_bytes32",
        "label": "mapping(bytes32 => int256)",
        "numberOfBytes": "32",
        "value": "t_int256"
      },
      "t_mapping(t_bytes32,t_struct(RoleData)1029_storage)": {
        "encoding": "mapping",
        "key": "t_bytes32",
        "label": "mapping(bytes32 => struct AccessControl.RoleData)",
        "numberOfBytes": "32",
        "value": "t_struct(RoleData)1029_storage"
      },
      "t_struct(RoleData)1029_storage": {
        "encoding": "inplace",
        "label": "struct AccessControl.RoleData",
        "members": [
          {
            "astId": 1026,
            "contract": "contracts/uma/EscalationManager.sol:EscalationManager",
            "label": "hasRole",
            "offset": 0,
            "slot": "0",
            "type": "t_mapping(t_address,t_bool)"
          },
          {
            "astId": 1028,
            "contract": "contracts/uma/EscalationManager.sol:EscalationManager",
            "label": "adminRole",
            "offset": 0,
            "slot": "1",
            "type": "t_bytes32"
          }
        ],
        "numberOfBytes": "64"
      }
    }
  }
}