{
  "address": "0x0b0D83702acbD625aDD45c79c7307C08eecEff4B",
  "abi": [
    {
      "inputs": [
        {
          "internalType": "address",
          "name": "_usdcToken",
          "type": "address"
        },
        {
          "internalType": "address",
          "name": "_WETH",
          "type": "address"
        },
        {
          "internalType": "address",
          "name": "_oraclePriceFeed",
          "type": "address"
        },
        {
          "internalType": "address",
          "name": "_uniswapRouter",
          "type": "address"
        },
        {
          "internalType": "address",
          "name": "_uniswapFactory",
          "type": "address"
        },
        {
          "internalType": "address",
          "name": "_multiSigWallet",
          "type": "address"
        }
      ],
      "stateMutability": "nonpayable",
      "type": "constructor"
    },
    {
      "anonymous": false,
      "inputs": [
        {
          "indexed": true,
          "internalType": "address",
          "name": "_dexAddress",
          "type": "address"
        },
        {
          "indexed": true,
          "internalType": "address",
          "name": "_convertToken",
          "type": "address"
        },
        {
          "indexed": false,
          "internalType": "uint256",
          "name": "_convertAmount",
          "type": "uint256"
        },
        {
          "indexed": false,
          "internalType": "uint256",
          "name": "_desiredAmount",
          "type": "uint256"
        },
        {
          "indexed": false,
          "internalType": "uint256",
          "name": "_convertedAmount",
          "type": "uint256"
        }
      ],
      "name": "ConvertedTokenToETH",
      "type": "event"
    },
    {
      "anonymous": false,
      "inputs": [
        {
          "indexed": true,
          "internalType": "address",
          "name": "_dexAddress",
          "type": "address"
        },
        {
          "indexed": true,
          "internalType": "address",
          "name": "_convertToken",
          "type": "address"
        },
        {
          "indexed": true,
          "internalType": "address",
          "name": "_convertedToken",
          "type": "address"
        },
        {
          "indexed": false,
          "internalType": "uint256",
          "name": "_convertAmount",
          "type": "uint256"
        },
        {
          "indexed": false,
          "internalType": "uint256",
          "name": "_desiredAmount",
          "type": "uint256"
        },
        {
          "indexed": false,
          "internalType": "uint256",
          "name": "_convertedAmount",
          "type": "uint256"
        }
      ],
      "name": "ConvertedTokenToToken",
      "type": "event"
    },
    {
      "anonymous": false,
      "inputs": [
        {
          "indexed": true,
          "internalType": "address",
          "name": "_exchangeAgent",
          "type": "address"
        },
        {
          "indexed": true,
          "internalType": "address",
          "name": "_whiteListAddress",
          "type": "address"
        }
      ],
      "name": "LogAddWhiteList",
      "type": "event"
    },
    {
      "anonymous": false,
      "inputs": [
        {
          "indexed": true,
          "internalType": "address",
          "name": "_exchangeAgent",
          "type": "address"
        },
        {
          "indexed": true,
          "internalType": "address",
          "name": "_whiteListAddress",
          "type": "address"
        }
      ],
      "name": "LogRemoveWhiteList",
      "type": "event"
    },
    {
      "anonymous": false,
      "inputs": [
        {
          "indexed": true,
          "internalType": "address",
          "name": "_exchangeAgent",
          "type": "address"
        },
        {
          "indexed": true,
          "internalType": "address",
          "name": "_oraclePriceFeed",
          "type": "address"
        }
      ],
      "name": "LogSetOraclePriceFeed",
      "type": "event"
    },
    {
      "anonymous": false,
      "inputs": [
        {
          "indexed": true,
          "internalType": "address",
          "name": "_exchangeAgent",
          "type": "address"
        },
        {
          "indexed": false,
          "internalType": "uint256",
          "name": "_slippage",
          "type": "uint256"
        }
      ],
      "name": "LogSetSlippage",
      "type": "event"
    },
    {
      "anonymous": false,
      "inputs": [
        {
          "indexed": true,
          "internalType": "address",
          "name": "previousOwner",
          "type": "address"
        },
        {
          "indexed": true,
          "internalType": "address",
          "name": "newOwner",
          "type": "address"
        }
      ],
      "name": "OwnershipTransferred",
      "type": "event"
    },
    {
      "inputs": [],
      "name": "UNISWAP_FACTORY",
      "outputs": [
        {
          "internalType": "address",
          "name": "",
          "type": "address"
        }
      ],
      "stateMutability": "view",
      "type": "function"
    },
    {
      "inputs": [],
      "name": "UNISWAP_ROUTER",
      "outputs": [
        {
          "internalType": "address",
          "name": "",
          "type": "address"
        }
      ],
      "stateMutability": "view",
      "type": "function"
    },
    {
      "inputs": [],
      "name": "USDC_TOKEN",
      "outputs": [
        {
          "internalType": "address",
          "name": "",
          "type": "address"
        }
      ],
      "stateMutability": "view",
      "type": "function"
    },
    {
      "inputs": [],
      "name": "WETH",
      "outputs": [
        {
          "internalType": "address",
          "name": "",
          "type": "address"
        }
      ],
      "stateMutability": "view",
      "type": "function"
    },
    {
      "inputs": [
        {
          "internalType": "address",
          "name": "_whiteListAddress",
          "type": "address"
        }
      ],
      "name": "addWhiteList",
      "outputs": [],
      "stateMutability": "nonpayable",
      "type": "function"
    },
    {
      "inputs": [
        {
          "internalType": "address",
          "name": "_token",
          "type": "address"
        },
        {
          "internalType": "uint256",
          "name": "_convertAmount",
          "type": "uint256"
        }
      ],
      "name": "convertForETH",
      "outputs": [
        {
          "internalType": "uint256",
          "name": "",
          "type": "uint256"
        }
      ],
      "stateMutability": "nonpayable",
      "type": "function"
    },
    {
      "inputs": [
        {
          "internalType": "address",
          "name": "_token0",
          "type": "address"
        },
        {
          "internalType": "address",
          "name": "_token1",
          "type": "address"
        },
        {
          "internalType": "uint256",
          "name": "_token0Amount",
          "type": "uint256"
        }
      ],
      "name": "convertForToken",
      "outputs": [
        {
          "internalType": "uint256",
          "name": "",
          "type": "uint256"
        }
      ],
      "stateMutability": "nonpayable",
      "type": "function"
    },
    {
      "inputs": [
        {
          "internalType": "address",
          "name": "_token",
          "type": "address"
        },
        {
          "internalType": "uint256",
          "name": "_tokenAmount",
          "type": "uint256"
        }
      ],
      "name": "getETHAmountForToken",
      "outputs": [
        {
          "internalType": "uint256",
          "name": "",
          "type": "uint256"
        }
      ],
      "stateMutability": "view",
      "type": "function"
    },
    {
      "inputs": [
        {
          "internalType": "uint256",
          "name": "_usdtAmount",
          "type": "uint256"
        }
      ],
      "name": "getETHAmountForUSDC",
      "outputs": [
        {
          "internalType": "uint256",
          "name": "",
          "type": "uint256"
        }
      ],
      "stateMutability": "view",
      "type": "function"
    },
    {
      "inputs": [
        {
          "internalType": "address",
          "name": "_token0",
          "type": "address"
        },
        {
          "internalType": "address",
          "name": "_token1",
          "type": "address"
        },
        {
          "internalType": "uint256",
          "name": "_token0Amount",
          "type": "uint256"
        }
      ],
      "name": "getNeededTokenAmount",
      "outputs": [
        {
          "internalType": "uint256",
          "name": "",
          "type": "uint256"
        }
      ],
      "stateMutability": "view",
      "type": "function"
    },
    {
      "inputs": [
        {
          "internalType": "address",
          "name": "_token",
          "type": "address"
        },
        {
          "internalType": "uint256",
          "name": "_ethAmount",
          "type": "uint256"
        }
      ],
      "name": "getTokenAmountForETH",
      "outputs": [
        {
          "internalType": "uint256",
          "name": "",
          "type": "uint256"
        }
      ],
      "stateMutability": "view",
      "type": "function"
    },
    {
      "inputs": [
        {
          "internalType": "address",
          "name": "_token",
          "type": "address"
        },
        {
          "internalType": "uint256",
          "name": "_usdtAmount",
          "type": "uint256"
        }
      ],
      "name": "getTokenAmountForUSDC",
      "outputs": [
        {
          "internalType": "uint256",
          "name": "",
          "type": "uint256"
        }
      ],
      "stateMutability": "view",
      "type": "function"
    },
    {
      "inputs": [],
      "name": "oraclePriceFeed",
      "outputs": [
        {
          "internalType": "address",
          "name": "",
          "type": "address"
        }
      ],
      "stateMutability": "view",
      "type": "function"
    },
    {
      "inputs": [],
      "name": "owner",
      "outputs": [
        {
          "internalType": "address",
          "name": "",
          "type": "address"
        }
      ],
      "stateMutability": "view",
      "type": "function"
    },
    {
      "inputs": [
        {
          "internalType": "address",
          "name": "_whiteListAddress",
          "type": "address"
        }
      ],
      "name": "removeWhiteList",
      "outputs": [],
      "stateMutability": "nonpayable",
      "type": "function"
    },
    {
      "inputs": [],
      "name": "renounceOwnership",
      "outputs": [],
      "stateMutability": "nonpayable",
      "type": "function"
    },
    {
      "inputs": [
        {
          "internalType": "address",
          "name": "_oraclePriceFeed",
          "type": "address"
        }
      ],
      "name": "setOraclePriceFeed",
      "outputs": [],
      "stateMutability": "nonpayable",
      "type": "function"
    },
    {
      "inputs": [
        {
          "internalType": "uint256",
          "name": "_slippage",
          "type": "uint256"
        }
      ],
      "name": "setSlippage",
      "outputs": [],
      "stateMutability": "nonpayable",
      "type": "function"
    },
    {
      "inputs": [],
      "name": "slippage",
      "outputs": [
        {
          "internalType": "uint256",
          "name": "",
          "type": "uint256"
        }
      ],
      "stateMutability": "view",
      "type": "function"
    },
    {
      "inputs": [
        {
          "internalType": "address",
          "name": "newOwner",
          "type": "address"
        }
      ],
      "name": "transferOwnership",
      "outputs": [],
      "stateMutability": "nonpayable",
      "type": "function"
    },
    {
      "inputs": [
        {
          "internalType": "address",
          "name": "",
          "type": "address"
        }
      ],
      "name": "whiteList",
      "outputs": [
        {
          "internalType": "bool",
          "name": "",
          "type": "bool"
        }
      ],
      "stateMutability": "view",
      "type": "function"
    },
    {
      "stateMutability": "payable",
      "type": "receive"
    }
  ],
  "transactionHash": "0xf8a44f95e61bfc27336b918fe813acc1bffa901864bf9eeb9c1c38771eea3cf1",
  "args": [
    "0xA0b86991c6218b36c1d19D4a2e9Eb0cE3606eB48",
    "0xC02aaA39b223FE8D0A0e5C4F27eAD9083C756Cc2",
    "0x8e9581a717FDB3eaCc7a3420fFf22b530B61be0e",
    "0x7a250d5630B4cF539739dF2C5dAcb4c659F2488D",
    "0x5C69bEe701ef814a2B6a3EDD4B1652CB9cc5aA6f",
    "0x8c3d5c9538256DAB8Eb4B197370574340fe3254F"
  ],
  "solcInputHash": "00b4cef16d92e0a3bb1129bc7ed3c147",
  "bytecode": "0x6101006040523480156200001257600080fd5b50604051620027ca380380620027ca8339810160408190526200003591620002ac565b60016000556200004e62000048620001ad565b620001b1565b6001600160a01b038616620000805760405162461bcd60e51b815260040162000077906200042c565b60405180910390fd5b6001600160a01b038316620000a95760405162461bcd60e51b81526004016200007790620003a9565b6001600160a01b038216620000d25760405162461bcd60e51b8152600401620000779062000498565b6001600160a01b038516620000fb5760405162461bcd60e51b815260040162000077906200032c565b6001600160a01b038116620001245760405162461bcd60e51b81526004016200007790620003ea565b6001600160601b0319606087811b821660805283811b821660a05284811b821660c05286901b1660e052600280546001600160a01b0386166001600160a01b0319909116179055336000908152600460205260409020805460ff191660011790556200019360646005620004da565b600355620001a18162000203565b50505050505062000506565b3390565b600180546001600160a01b038381166001600160a01b0319831681179093556040519116919082907f8be0079c531659141344cd1fd0a4f28419497f9722a3daafe3b4186f6b6457e090600090a35050565b6200020d620001ad565b6001600160a01b03166200022062000280565b6001600160a01b031614620002495760405162461bcd60e51b8152600401620000779062000463565b6001600160a01b038116620002725760405162461bcd60e51b8152600401620000779062000363565b6200027d81620001b1565b50565b6001546001600160a01b031690565b80516001600160a01b0381168114620002a757600080fd5b919050565b60008060008060008060c08789031215620002c5578182fd5b620002d0876200028f565b9550620002e0602088016200028f565b9450620002f0604088016200028f565b935062000300606088016200028f565b925062000310608088016200028f565b91506200032060a088016200028f565b90509295509295509295565b60208082526018908201527f556e6f52653a207a65726f205745544820616464726573730000000000000000604082015260600190565b60208082526026908201527f4f776e61626c653a206e6577206f776e657220697320746865207a65726f206160408201526564647265737360d01b606082015260800190565b60208082526021908201527f556e6f52653a207a65726f20756e6973776170526f75746572206164647265736040820152607360f81b606082015260800190565b60208082526022908201527f556e6f52653a207a65726f206d756c746973696777616c6c6574206164647265604082015261737360f01b606082015260800190565b60208082526018908201527f556e6f52653a207a65726f205553444320616464726573730000000000000000604082015260600190565b6020808252818101527f4f776e61626c653a2063616c6c6572206973206e6f7420746865206f776e6572604082015260600190565b60208082526022908201527f556e6f52653a207a65726f20756e6973776170466163746f7279206164647265604082015261737360f01b606082015260800190565b60008160001904831182151516156200050157634e487b7160e01b81526011600452602481fd5b500290565b60805160601c60a05160601c60c05160601c60e05160601c61224d6200057d60003960008181610c830152818161177c0152611867015260008181610a6501528181610c1e0152610de001526000610dbc01526000818161072e015281816107ac01528181610c5b015261102a015261224d6000f3fe60806040526004361061016e5760003560e01c806393badc41116100cb578063c74c0fac1161007f578063f0fa55a911610059578063f0fa55a91461039f578063f2fde38b146103bf578063fa569274146103df57610175565b8063c74c0fac14610355578063d82649201461036a578063e7cd4a041461037f57610175565b8063a9a12d43116100b0578063a9a12d4314610300578063ad5c464814610320578063ba560ed91461033557610175565b806393badc41146102c05780639a553968146102e057610175565b80633e032a3b11610122578063715018a611610107578063715018a61461027457806375d38071146102895780638da5cb5b146102ab57610175565b80633e032a3b1461023f578063531a22111461025457610175565b80632042e5c2116101535780632042e5c2146101d257806334899be6146101f2578063372c12b11461021257610175565b8063102e32591461017a5780631eb5b699146101b057610175565b3661017557005b600080fd5b34801561018657600080fd5b5061019a610195366004611b03565b6103f4565b6040516101a79190611ff2565b60405180910390f35b3480156101bc57600080fd5b506101d06101cb366004611a8b565b61051b565b005b3480156101de57600080fd5b506101d06101ed366004611a8b565b6105e8565b3480156101fe57600080fd5b5061019a61020d366004611ac3565b6106cf565b34801561021e57600080fd5b5061023261022d366004611a8b565b6106e6565b6040516101a79190611c86565b34801561024b57600080fd5b5061019a6106fb565b34801561026057600080fd5b5061019a61026f366004611b4e565b610701565b34801561028057600080fd5b506101d0610867565b34801561029557600080fd5b5061029e6108b2565b6040516101a79190611c1b565b3480156102b757600080fd5b5061029e6108c1565b3480156102cc57600080fd5b5061019a6102db366004611ac3565b6108d0565b3480156102ec57600080fd5b5061019a6102fb366004611b03565b610a9d565b34801561030c57600080fd5b5061019a61031b366004611b03565b610c54565b34801561032c57600080fd5b5061029e610c81565b34801561034157600080fd5b5061019a610350366004611b03565b610ca5565b34801561036157600080fd5b5061029e610dba565b34801561037657600080fd5b5061029e610dde565b34801561038b57600080fd5b506101d061039a366004611a8b565b610e02565b3480156103ab57600080fd5b506101d06103ba366004611b4e565b610eed565b3480156103cb57600080fd5b506101d06103da366004611a8b565b610fb7565b3480156103eb57600080fd5b5061029e611028565b60025460405163355188ab60e01b815260009182916001600160a01b039091169063355188ab90610429908790600401611c1b565b60206040518083038186803b15801561044157600080fd5b505afa158015610455573d6000803e3d6000fd5b505050506040513d601f19601f820116820180604052508101906104799190611b66565b90506000846001600160a01b031663313ce5676040518163ffffffff1660e01b815260040160206040518083038186803b1580156104b657600080fd5b505afa1580156104ca573d6000803e3d6000fd5b505050506040513d601f19601f820116820180604052508101906104ee9190611b7e565b60ff1690506104fe81600a6120e8565b61050883866121b6565b6105129190612082565b95945050505050565b61052361104c565b6001600160a01b03166105346108c1565b6001600160a01b0316146105635760405162461bcd60e51b815260040161055a90611e84565b60405180910390fd5b6001600160a01b0381166105895760405162461bcd60e51b815260040161055a90611d25565b6002805473ffffffffffffffffffffffffffffffffffffffff19166001600160a01b03838116919091179182905560405191169030907f76d908faefb2e5bb2e5551cce5530e7d157dd5ddafe26554d2320c5cc065009f90600090a350565b6105f061104c565b6001600160a01b03166106016108c1565b6001600160a01b0316146106275760405162461bcd60e51b815260040161055a90611e84565b6001600160a01b03811661064d5760405162461bcd60e51b815260040161055a90611d25565b6001600160a01b03811660009081526004602052604090205460ff166106855760405162461bcd60e51b815260040161055a90611d5c565b6001600160a01b038116600081815260046020526040808220805460ff191690555130917f2f467772ef0a5478314f3bc2b37d4b2ad29b65f052b2cedc8e2972dda033529291a350565b60006106dc848484611050565b90505b9392505050565b60046020526000908152604090205460ff1681565b60035481565b60025460405163355188ab60e01b815260009182916001600160a01b039091169063355188ab90610756907f000000000000000000000000000000000000000000000000000000000000000090600401611c1b565b60206040518083038186803b15801561076e57600080fd5b505afa158015610782573d6000803e3d6000fd5b505050506040513d601f19601f820116820180604052508101906107a69190611b66565b905060007f00000000000000000000000000000000000000000000000000000000000000006001600160a01b031663313ce5676040518163ffffffff1660e01b815260040160206040518083038186803b15801561080357600080fd5b505afa158015610817573d6000803e3d6000fd5b505050506040513d601f19601f8201168201806040525081019061083b9190611b7e565b60ff16905061084b81600a6120e8565b61085583866121b6565b61085f9190612082565b949350505050565b61086f61104c565b6001600160a01b03166108806108c1565b6001600160a01b0316146108a65760405162461bcd60e51b815260040161055a90611e84565b6108b060006110d9565b565b6002546001600160a01b031681565b6001546001600160a01b031690565b3360009081526004602052604081205460ff166108ff5760405162461bcd60e51b815260040161055a90611f16565b600260005414156109225760405162461bcd60e51b815260040161055a90611fbb565b600260009081556001600160a01b038516156109f2576040516370a0823160e01b81526000906001600160a01b038716906370a0823190610967903390600401611c1b565b60206040518083038186803b15801561097f57600080fd5b505afa158015610993573d6000803e3d6000fd5b505050506040513d601f19601f820116820180604052508101906109b79190611b66565b116109d45760405162461bcd60e51b815260040161055a90611c91565b6109e085333086611138565b6109eb858585611050565b90506109ff565b6109fc8484610ca5565b90505b60008111610a1f5760405162461bcd60e51b815260040161055a90611f84565b6000606480600354606480610a3491906121b6565b610a3e91906121d5565b610a4890856121b6565b610a529190612082565b610a5c9190612082565b90506000610a8d7f00000000000000000000000000000000000000000000000000000000000000008888888661123d565b6001600055979650505050505050565b3360009081526004602052604081205460ff16610acc5760405162461bcd60e51b815260040161055a90611f16565b60026000541415610aef5760405162461bcd60e51b815260040161055a90611fbb565b600260009081556040516370a0823160e01b81526001600160a01b038516906370a0823190610b22903390600401611c1b565b60206040518083038186803b158015610b3a57600080fd5b505afa158015610b4e573d6000803e3d6000fd5b505050506040513d601f19601f82011682018060405250810190610b729190611b66565b11610b8f5760405162461bcd60e51b815260040161055a90611c91565b6001600160a01b03831615610baa57610baa83333085611138565b6000610bb684846103f4565b905060008111610bd85760405162461bcd60e51b815260040161055a90611f84565b6000606480600354606480610bed91906121b6565b610bf791906121d5565b610c0190856121b6565b610c0b9190612082565b610c159190612082565b90506000610c457f00000000000000000000000000000000000000000000000000000000000000008787856116cb565b60016000559695505050505050565b60006106df7f00000000000000000000000000000000000000000000000000000000000000008484611050565b7f000000000000000000000000000000000000000000000000000000000000000081565b60025460405163355188ab60e01b815260009182916001600160a01b039091169063355188ab90610cda908790600401611c1b565b60206040518083038186803b158015610cf257600080fd5b505afa158015610d06573d6000803e3d6000fd5b505050506040513d601f19601f82011682018060405250810190610d2a9190611b66565b90506000846001600160a01b031663313ce5676040518163ffffffff1660e01b815260040160206040518083038186803b158015610d6757600080fd5b505afa158015610d7b573d6000803e3d6000fd5b505050506040513d601f19601f82011682018060405250810190610d9f9190611b7e565b60ff16905081610db082600a6120e8565b61050890866121b6565b7f000000000000000000000000000000000000000000000000000000000000000081565b7f000000000000000000000000000000000000000000000000000000000000000081565b610e0a61104c565b6001600160a01b0316610e1b6108c1565b6001600160a01b031614610e415760405162461bcd60e51b815260040161055a90611e84565b6001600160a01b038116610e675760405162461bcd60e51b815260040161055a90611d25565b6001600160a01b03811660009081526004602052604090205460ff1615610ea05760405162461bcd60e51b815260040161055a90611e16565b6001600160a01b038116600081815260046020526040808220805460ff191660011790555130917f8cd7b0b1a7316eb3e5d781d629cb8bf4e2fd9a8903bdd0f6b894c087d61b21f291a350565b610ef561104c565b6001600160a01b0316610f066108c1565b6001600160a01b031614610f2c5760405162461bcd60e51b815260040161055a90611e84565b60008111610f4c5760405162461bcd60e51b815260040161055a90611e4d565b60648110610f6c5760405162461bcd60e51b815260040161055a90611f4d565b610f776064826121b6565b60035560405130907f1b5c61e79b0735d33852817a0af9ed28b909c7c0a2a04abcc0c19bba6d6ba56490610fac908490611ff2565b60405180910390a250565b610fbf61104c565b6001600160a01b0316610fd06108c1565b6001600160a01b031614610ff65760405162461bcd60e51b815260040161055a90611e84565b6001600160a01b03811661101c5760405162461bcd60e51b815260040161055a90611cc8565b611025816110d9565b50565b7f000000000000000000000000000000000000000000000000000000000000000081565b3390565b6002546040516318db3e8360e21b815260009182916001600160a01b039091169063636cfa0c9061108990889088908890600401611c49565b60206040518083038186803b1580156110a157600080fd5b505afa1580156110b5573d6000803e3d6000fd5b505050506040513d601f19601f820116820180604052508101906105129190611b66565b600180546001600160a01b0383811673ffffffffffffffffffffffffffffffffffffffff19831681179093556040519116919082907f8be0079c531659141344cd1fd0a4f28419497f9722a3daafe3b4186f6b6457e090600090a35050565b600080856001600160a01b03166323b872dd86868660405160240161115f93929190611c49565b6040516020818303038152906040529060e01b6020820180517bffffffffffffffffffffffffffffffffffffffffffffffffffffffff83818316178352505050506040516111ad9190611be2565b6000604051808303816000865af19150503d80600081146111ea576040519150601f19603f3d011682016040523d82523d6000602084013e6111ef565b606091505b50915091508180156112195750805115806112195750808060200190518101906112199190611b2e565b6112355760405162461bcd60e51b815260040161055a90611db9565b505050505050565b6000808690506000816001600160a01b031663c45a01556040518163ffffffff1660e01b815260040160206040518083038186803b15801561127e57600080fd5b505afa158015611292573d6000803e3d6000fd5b505050506040513d601f19601f820116820180604052508101906112b69190611aa7565b90506000866001600160a01b03166370a08231336040518263ffffffff1660e01b81526004016112e69190611c1b565b60206040518083038186803b1580156112fe57600080fd5b505afa158015611312573d6000803e3d6000fd5b505050506040513d601f19601f820116820180604052508101906113369190611b66565b90506000836001600160a01b031663ad5c46486040518163ffffffff1660e01b815260040160206040518083038186803b15801561137357600080fd5b505afa158015611387573d6000803e3d6000fd5b505050506040513d601f19601f820116820180604052508101906113ab9190611aa7565b90506001600160a01b038916156113c95750876113c9818589611989565b60405163e6a4390560e01b81526000906001600160a01b0385169063e6a43905906113fa9085908d90600401611c2f565b60206040518083038186803b15801561141257600080fd5b505afa158015611426573d6000803e3d6000fd5b505050506040513d601f19601f8201168201806040525081019061144a9190611aa7565b6001600160a01b0316146115cd57604080516002808252606082018352600092602083019080368337019050509050818160008151811061149b57634e487b7160e01b600052603260045260246000fd5b60200260200101906001600160a01b031690816001600160a01b03168152505088816001815181106114dd57634e487b7160e01b600052603260045260246000fd5b6001600160a01b0392831660209182029290920101528a166115645760405163b6f9de9560e01b81526001600160a01b0386169063b6f9de95908a9061152d908b90869033904290600401611ffb565b6000604051808303818588803b15801561154657600080fd5b505af115801561155a573d6000803e3d6000fd5b50505050506115cb565b604051635c11d79560e01b81526001600160a01b03861690635c11d79590611598908b908b90869033904290600401612030565b600060405180830381600087803b1580156115b257600080fd5b505af11580156115c6573d6000803e3d6000fd5b505050505b505b6040516370a0823160e01b81526000906001600160a01b038a16906370a08231906115fc903390600401611c1b565b60206040518083038186803b15801561161457600080fd5b505afa158015611628573d6000803e3d6000fd5b505050506040513d601f19601f8201168201806040525081019061164c9190611b66565b9050886001600160a01b03168a6001600160a01b03168c6001600160a01b03167fd30edfe8aafab67575a170d015da0337bcb39e5c9af1b2dfb9294fb75b344ac38b8b888761169b91906121d5565b6040516116aa9392919061206c565b60405180910390a46116bc83826121d5565b9b9a5050505050505050505050565b6000808590506000816001600160a01b031663c45a01556040518163ffffffff1660e01b815260040160206040518083038186803b15801561170c57600080fd5b505afa158015611720573d6000803e3d6000fd5b505050506040513d601f19601f820116820180604052508101906117449190611aa7565b90503331611753878488611989565b60405163e6a4390560e01b81526000906001600160a01b0384169063e6a43905906117a4908b907f000000000000000000000000000000000000000000000000000000000000000090600401611c2f565b60206040518083038186803b1580156117bc57600080fd5b505afa1580156117d0573d6000803e3d6000fd5b505050506040513d601f19601f820116820180604052508101906117f49190611aa7565b6001600160a01b03161461191e57604080516002808252606082018352600092602083019080368337019050509050878160008151811061184557634e487b7160e01b600052603260045260246000fd5b60200260200101906001600160a01b031690816001600160a01b0316815250507f0000000000000000000000000000000000000000000000000000000000000000816001815181106118a757634e487b7160e01b600052603260045260246000fd5b6001600160a01b03928316602091820292909201015260405163791ac94760e01b81529085169063791ac947906118ea908a908a90869033904290600401612030565b600060405180830381600087803b15801561190457600080fd5b505af1158015611918573d6000803e3d6000fd5b50505050505b33316001600160a01b03888116908a167f1df84ee81df9963f5d40b2a3f717360c1f62daa6f21f69580398a8d570de644c898961195b87876121d5565b60405161196a9392919061206c565b60405180910390a361197c82826121d5565b9998505050505050505050565b600080846001600160a01b031663095ea7b385856040516024016119ae929190611c6d565b6040516020818303038152906040529060e01b6020820180517bffffffffffffffffffffffffffffffffffffffffffffffffffffffff83818316178352505050506040516119fc9190611be2565b6000604051808303816000865af19150503d8060008114611a39576040519150601f19603f3d011682016040523d82523d6000602084013e611a3e565b606091505b5091509150818015611a68575080511580611a68575080806020019051810190611a689190611b2e565b611a845760405162461bcd60e51b815260040161055a90611eb9565b5050505050565b600060208284031215611a9c578081fd5b81356106df81612202565b600060208284031215611ab8578081fd5b81516106df81612202565b600080600060608486031215611ad7578182fd5b8335611ae281612202565b92506020840135611af281612202565b929592945050506040919091013590565b60008060408385031215611b15578182fd5b8235611b2081612202565b946020939093013593505050565b600060208284031215611b3f578081fd5b815180151581146106df578182fd5b600060208284031215611b5f578081fd5b5035919050565b600060208284031215611b77578081fd5b5051919050565b600060208284031215611b8f578081fd5b815160ff811681146106df578182fd5b6000815180845260208085019450808401835b83811015611bd75781516001600160a01b031687529582019590820190600101611bb2565b509495945050505050565b60008251815b81811015611c025760208186018101518583015201611be8565b81811115611c105782828501525b509190910192915050565b6001600160a01b0391909116815260200190565b6001600160a01b0392831681529116602082015260400190565b6001600160a01b039384168152919092166020820152604081019190915260600190565b6001600160a01b03929092168252602082015260400190565b901515815260200190565b60208082526013908201527f556e6f52653a207a65726f2062616c616e636500000000000000000000000000604082015260600190565b60208082526026908201527f4f776e61626c653a206e6577206f776e657220697320746865207a65726f206160408201527f6464726573730000000000000000000000000000000000000000000000000000606082015260800190565b60208082526013908201527f556e6f52653a207a65726f206164647265737300000000000000000000000000604082015260600190565b6020808252602c908201527f556e6f52653a207768697465206c6973742072656d6f766564206f7220756e6160408201527f6464656420616c72656164790000000000000000000000000000000000000000606082015260800190565b60208082526031908201527f5472616e7366657248656c7065723a3a7472616e7366657246726f6d3a20747260408201527f616e7366657246726f6d206661696c6564000000000000000000000000000000606082015260800190565b60208082526019908201527f556e6f52653a207768697465206c69737420616c726561647900000000000000604082015260600190565b60208082526014908201527f556e6f52653a207a65726f20736c697070616765000000000000000000000000604082015260600190565b6020808252818101527f4f776e61626c653a2063616c6c6572206973206e6f7420746865206f776e6572604082015260600190565b6020808252602b908201527f5472616e7366657248656c7065723a3a73616665417070726f76653a2061707060408201527f726f7665206661696c6564000000000000000000000000000000000000000000606082015260800190565b6020808252601e908201527f556e6f52653a2045786368616e67654167656e7420466f7262696464656e0000604082015260600190565b6020808252601d908201527f556e6f52653a203130302520736c697070616765206f766572666c6f77000000604082015260600190565b6020808252600f908201527f556e6f52653a206e6f2070616972730000000000000000000000000000000000604082015260600190565b6020808252601f908201527f5265656e7472616e637947756172643a207265656e7472616e742063616c6c00604082015260600190565b90815260200190565b6000858252608060208301526120146080830186611b9f565b6001600160a01b03949094166040830152506060015292915050565b600086825285602083015260a0604083015261204f60a0830186611b9f565b6001600160a01b0394909416606083015250608001529392505050565b9283526020830191909152604082015260600190565b60008261209d57634e487b7160e01b81526012600452602481fd5b500490565b80825b60018086116120b457506120df565b8187048211156120c6576120c66121ec565b808616156120d357918102915b9490941c9380026120a5565b94509492505050565b60006106df6000198484600082612101575060016106df565b8161210e575060006106df565b8160018114612124576002811461212e5761215b565b60019150506106df565b60ff84111561213f5761213f6121ec565b6001841b915084821115612155576121556121ec565b506106df565b5060208310610133831016604e8410600b841016171561218e575081810a83811115612189576121896121ec565b6106df565b61219b84848460016120a2565b8086048211156121ad576121ad6121ec565b02949350505050565b60008160001904831182151516156121d0576121d06121ec565b500290565b6000828210156121e7576121e76121ec565b500390565b634e487b7160e01b600052601160045260246000fd5b6001600160a01b038116811461102557600080fdfea2646970667358221220369a17f1973e6a5264e698f05ebf1d14aa92835cdd5c1f4d566492d5b57029ce64736f6c63430008000033",
  "devdoc": {
    "kind": "dev",
    "methods": {
      "owner()": {
        "details": "Returns the address of the current owner."
      },
      "renounceOwnership()": {
        "details": "Leaves the contract without owner. It will not be possible to call `onlyOwner` functions anymore. Can only be called by the current owner. NOTE: Renouncing ownership will leave the contract without an owner, thereby removing any functionality that is only available to the owner."
      },
      "transferOwnership(address)": {
        "details": "Transfers ownership of the contract to a new account (`newOwner`). Can only be called by the current owner."
      }
    },
    "version": 1
  },
  "userdoc": {
    "kind": "user",
    "methods": {},
    "version": 1
  },
  "storageLayout": {
    "storage": [
      {
        "astId": 114,
        "contract": "contracts/ExchangeAgent.sol:ExchangeAgent",
        "label": "_status",
        "offset": 0,
        "slot": "0",
        "type": "t_uint256"
      },
      {
        "astId": 7,
        "contract": "contracts/ExchangeAgent.sol:ExchangeAgent",
        "label": "_owner",
        "offset": 0,
        "slot": "1",
        "type": "t_address"
      },
      {
        "astId": 4054,
        "contract": "contracts/ExchangeAgent.sol:ExchangeAgent",
        "label": "oraclePriceFeed",
        "offset": 0,
        "slot": "2",
        "type": "t_address"
      },
      {
        "astId": 4056,
        "contract": "contracts/ExchangeAgent.sol:ExchangeAgent",
        "label": "slippage",
        "offset": 0,
        "slot": "3",
        "type": "t_uint256"
      },
      {
        "astId": 4063,
        "contract": "contracts/ExchangeAgent.sol:ExchangeAgent",
        "label": "whiteList",
        "offset": 0,
        "slot": "4",
        "type": "t_mapping(t_address,t_bool)"
      }
    ],
    "types": {
      "t_address": {
        "encoding": "inplace",
        "label": "address",
        "numberOfBytes": "20"
      },
      "t_bool": {
        "encoding": "inplace",
        "label": "bool",
        "numberOfBytes": "1"
      },
      "t_mapping(t_address,t_bool)": {
        "encoding": "mapping",
        "key": "t_address",
        "label": "mapping(address => bool)",
        "numberOfBytes": "32",
        "value": "t_bool"
      },
      "t_uint256": {
        "encoding": "inplace",
        "label": "uint256",
        "numberOfBytes": "32"
      }
    }
  }
}