{
  "address": "0xdB4B701f1a4653BFD5F0f4EFF1913aEAF5E21E68",
  "abi": [
    {
      "inputs": [
        {
          "internalType": "address",
          "name": "_exchangeAgent",
          "type": "address"
        },
        {
          "internalType": "address",
          "name": "_unoToken",
          "type": "address"
        },
        {
          "internalType": "address",
          "name": "_usdcToken",
          "type": "address"
        },
        {
          "internalType": "address",
          "name": "_multiSigWallet",
          "type": "address"
        }
      ],
      "stateMutability": "nonpayable",
      "type": "constructor"
    },
    {
      "anonymous": false,
      "inputs": [
        {
          "indexed": true,
          "internalType": "address",
          "name": "_premiumPool",
          "type": "address"
        },
        {
          "indexed": true,
          "internalType": "address",
          "name": "_currency",
          "type": "address"
        }
      ],
      "name": "LogAddCurrency",
      "type": "event"
    },
    {
      "anonymous": false,
      "inputs": [
        {
          "indexed": true,
          "internalType": "address",
          "name": "_premiumPool",
          "type": "address"
        },
        {
          "indexed": true,
          "internalType": "address",
          "name": "_whiteListAddress",
          "type": "address"
        }
      ],
      "name": "LogAddWhiteList",
      "type": "event"
    },
    {
      "anonymous": false,
      "inputs": [
        {
          "indexed": true,
          "internalType": "address",
          "name": "_operator",
          "type": "address"
        },
        {
          "indexed": true,
          "internalType": "address",
          "name": "_premiumPool",
          "type": "address"
        },
        {
          "indexed": false,
          "internalType": "uint256",
          "name": "_unoAmount",
          "type": "uint256"
        }
      ],
      "name": "LogBuyBackAndBurn",
      "type": "event"
    },
    {
      "anonymous": false,
      "inputs": [
        {
          "indexed": true,
          "internalType": "address",
          "name": "_from",
          "type": "address"
        },
        {
          "indexed": false,
          "internalType": "address",
          "name": "_premiumCurrency",
          "type": "address"
        },
        {
          "indexed": false,
          "internalType": "uint256",
          "name": "_premiumAmount",
          "type": "uint256"
        }
      ],
      "name": "LogCollectPremium",
      "type": "event"
    },
    {
      "anonymous": false,
      "inputs": [
        {
          "indexed": true,
          "internalType": "address",
          "name": "_rewarder",
          "type": "address"
        },
        {
          "indexed": true,
          "internalType": "address",
          "name": "_currency",
          "type": "address"
        },
        {
          "indexed": false,
          "internalType": "uint256",
          "name": "_amountDeposited",
          "type": "uint256"
        }
      ],
      "name": "LogDepositToSyntheticSSIPRewarder",
      "type": "event"
    },
    {
      "anonymous": false,
      "inputs": [
        {
          "indexed": true,
          "internalType": "address",
          "name": "_rewarder",
          "type": "address"
        },
        {
          "indexed": false,
          "internalType": "uint256",
          "name": "_amountDeposited",
          "type": "uint256"
        }
      ],
      "name": "LogDepositToSyntheticSSRPRewarder",
      "type": "event"
    },
    {
      "anonymous": false,
      "inputs": [
        {
          "indexed": true,
          "internalType": "address",
          "name": "_premiumPool",
          "type": "address"
        },
        {
          "indexed": true,
          "internalType": "address",
          "name": "_currency",
          "type": "address"
        },
        {
          "indexed": true,
          "internalType": "address",
          "name": "_to",
          "type": "address"
        }
      ],
      "name": "LogMaxApproveCurrency",
      "type": "event"
    },
    {
      "anonymous": false,
      "inputs": [
        {
          "indexed": true,
          "internalType": "address",
          "name": "_premiumPool",
          "type": "address"
        },
        {
          "indexed": true,
          "internalType": "address",
          "name": "_currency",
          "type": "address"
        },
        {
          "indexed": true,
          "internalType": "address",
          "name": "_to",
          "type": "address"
        }
      ],
      "name": "LogMaxDestroyCurrencyAllowance",
      "type": "event"
    },
    {
      "anonymous": false,
      "inputs": [
        {
          "indexed": true,
          "internalType": "address",
          "name": "_premiumPool",
          "type": "address"
        },
        {
          "indexed": true,
          "internalType": "address",
          "name": "_currency",
          "type": "address"
        }
      ],
      "name": "LogRemoveCurrency",
      "type": "event"
    },
    {
      "anonymous": false,
      "inputs": [
        {
          "indexed": true,
          "internalType": "address",
          "name": "_premiumPool",
          "type": "address"
        },
        {
          "indexed": true,
          "internalType": "address",
          "name": "_whiteListAddress",
          "type": "address"
        }
      ],
      "name": "LogRemoveWhiteList",
      "type": "event"
    },
    {
      "anonymous": false,
      "inputs": [
        {
          "indexed": true,
          "internalType": "address",
          "name": "previousOwner",
          "type": "address"
        },
        {
          "indexed": true,
          "internalType": "address",
          "name": "newOwner",
          "type": "address"
        }
      ],
      "name": "OwnershipTransferred",
      "type": "event"
    },
    {
      "anonymous": false,
      "inputs": [
        {
          "indexed": true,
          "internalType": "address",
          "name": "_currency",
          "type": "address"
        },
        {
          "indexed": true,
          "internalType": "address",
          "name": "_to",
          "type": "address"
        },
        {
          "indexed": false,
          "internalType": "uint256",
          "name": "_amount",
          "type": "uint256"
        }
      ],
      "name": "PremiumWithdraw",
      "type": "event"
    },
    {
      "inputs": [],
      "name": "BACK_BURN_PREMIUM_ETH",
      "outputs": [
        {
          "internalType": "uint256",
          "name": "",
          "type": "uint256"
        }
      ],
      "stateMutability": "view",
      "type": "function"
    },
    {
      "inputs": [
        {
          "internalType": "address",
          "name": "",
          "type": "address"
        }
      ],
      "name": "BACK_BURN_UNO_PREMIUM",
      "outputs": [
        {
          "internalType": "uint256",
          "name": "",
          "type": "uint256"
        }
      ],
      "stateMutability": "view",
      "type": "function"
    },
    {
      "inputs": [
        {
          "internalType": "address",
          "name": "",
          "type": "address"
        }
      ],
      "name": "SSIP_PREMIUM",
      "outputs": [
        {
          "internalType": "uint256",
          "name": "",
          "type": "uint256"
        }
      ],
      "stateMutability": "view",
      "type": "function"
    },
    {
      "inputs": [],
      "name": "SSIP_PREMIUM_ETH",
      "outputs": [
        {
          "internalType": "uint256",
          "name": "",
          "type": "uint256"
        }
      ],
      "stateMutability": "view",
      "type": "function"
    },
    {
      "inputs": [
        {
          "internalType": "address",
          "name": "",
          "type": "address"
        }
      ],
      "name": "SSRP_PREMIUM",
      "outputs": [
        {
          "internalType": "uint256",
          "name": "",
          "type": "uint256"
        }
      ],
      "stateMutability": "view",
      "type": "function"
    },
    {
      "inputs": [],
      "name": "SSRP_PREMIUM_ETH",
      "outputs": [
        {
          "internalType": "uint256",
          "name": "",
          "type": "uint256"
        }
      ],
      "stateMutability": "view",
      "type": "function"
    },
    {
      "inputs": [],
      "name": "UNO_TOKEN",
      "outputs": [
        {
          "internalType": "address",
          "name": "",
          "type": "address"
        }
      ],
      "stateMutability": "view",
      "type": "function"
    },
    {
      "inputs": [],
      "name": "USDC_TOKEN",
      "outputs": [
        {
          "internalType": "address",
          "name": "",
          "type": "address"
        }
      ],
      "stateMutability": "view",
      "type": "function"
    },
    {
      "inputs": [
        {
          "internalType": "address",
          "name": "_currency",
          "type": "address"
        }
      ],
      "name": "addCurrency",
      "outputs": [],
      "stateMutability": "nonpayable",
      "type": "function"
    },
    {
      "inputs": [
        {
          "internalType": "address",
          "name": "_whiteListAddress",
          "type": "address"
        }
      ],
      "name": "addWhiteList",
      "outputs": [],
      "stateMutability": "nonpayable",
      "type": "function"
    },
    {
      "inputs": [
        {
          "internalType": "address",
          "name": "",
          "type": "address"
        }
      ],
      "name": "availableCurrencies",
      "outputs": [
        {
          "internalType": "bool",
          "name": "",
          "type": "bool"
        }
      ],
      "stateMutability": "view",
      "type": "function"
    },
    {
      "inputs": [
        {
          "internalType": "uint256",
          "name": "",
          "type": "uint256"
        }
      ],
      "name": "availableCurrencyList",
      "outputs": [
        {
          "internalType": "address",
          "name": "",
          "type": "address"
        }
      ],
      "stateMutability": "view",
      "type": "function"
    },
    {
      "inputs": [],
      "name": "burnAddress",
      "outputs": [
        {
          "internalType": "address",
          "name": "",
          "type": "address"
        }
      ],
      "stateMutability": "view",
      "type": "function"
    },
    {
      "inputs": [],
      "name": "buyBackAndBurn",
      "outputs": [],
      "stateMutability": "nonpayable",
      "type": "function"
    },
    {
      "inputs": [
        {
          "internalType": "address",
          "name": "_premiumCurrency",
          "type": "address"
        },
        {
          "internalType": "uint256",
          "name": "_premiumAmount",
          "type": "uint256"
        }
      ],
      "name": "collectPremium",
      "outputs": [],
      "stateMutability": "nonpayable",
      "type": "function"
    },
    {
      "inputs": [],
      "name": "collectPremiumInETH",
      "outputs": [],
      "stateMutability": "payable",
      "type": "function"
    },
    {
      "inputs": [
        {
          "internalType": "address",
          "name": "_currency",
          "type": "address"
        },
        {
          "internalType": "address",
          "name": "_rewarder",
          "type": "address"
        },
        {
          "internalType": "uint256",
          "name": "_amount",
          "type": "uint256"
        }
      ],
      "name": "depositToSyntheticSSIPRewarder",
      "outputs": [],
      "stateMutability": "nonpayable",
      "type": "function"
    },
    {
      "inputs": [
        {
          "internalType": "address",
          "name": "_rewarder",
          "type": "address"
        }
      ],
      "name": "depositToSyntheticSSRPRewarder",
      "outputs": [],
      "stateMutability": "nonpayable",
      "type": "function"
    },
    {
      "inputs": [
        {
          "internalType": "address",
          "name": "_currency",
          "type": "address"
        },
        {
          "internalType": "address",
          "name": "_to",
          "type": "address"
        }
      ],
      "name": "destroyCurrencyAllowance",
      "outputs": [],
      "stateMutability": "nonpayable",
      "type": "function"
    },
    {
      "inputs": [],
      "name": "exchangeAgent",
      "outputs": [
        {
          "internalType": "address",
          "name": "",
          "type": "address"
        }
      ],
      "stateMutability": "view",
      "type": "function"
    },
    {
      "inputs": [
        {
          "internalType": "address",
          "name": "_currency",
          "type": "address"
        },
        {
          "internalType": "address",
          "name": "_to",
          "type": "address"
        }
      ],
      "name": "maxApproveCurrency",
      "outputs": [],
      "stateMutability": "nonpayable",
      "type": "function"
    },
    {
      "inputs": [],
      "name": "owner",
      "outputs": [
        {
          "internalType": "address",
          "name": "",
          "type": "address"
        }
      ],
      "stateMutability": "view",
      "type": "function"
    },
    {
      "inputs": [
        {
          "internalType": "address",
          "name": "_currency",
          "type": "address"
        }
      ],
      "name": "removeCurrency",
      "outputs": [],
      "stateMutability": "nonpayable",
      "type": "function"
    },
    {
      "inputs": [
        {
          "internalType": "address",
          "name": "_whiteListAddress",
          "type": "address"
        }
      ],
      "name": "removeWhiteList",
      "outputs": [],
      "stateMutability": "nonpayable",
      "type": "function"
    },
    {
      "inputs": [],
      "name": "renounceOwnership",
      "outputs": [],
      "stateMutability": "nonpayable",
      "type": "function"
    },
    {
      "inputs": [
        {
          "internalType": "address",
          "name": "newOwner",
          "type": "address"
        }
      ],
      "name": "transferOwnership",
      "outputs": [],
      "stateMutability": "nonpayable",
      "type": "function"
    },
    {
      "inputs": [
        {
          "internalType": "address",
          "name": "",
          "type": "address"
        }
      ],
      "name": "whiteList",
      "outputs": [
        {
          "internalType": "bool",
          "name": "",
          "type": "bool"
        }
      ],
      "stateMutability": "view",
      "type": "function"
    },
    {
      "inputs": [
        {
          "internalType": "address",
          "name": "_currency",
          "type": "address"
        },
        {
          "internalType": "address",
          "name": "_to",
          "type": "address"
        },
        {
          "internalType": "uint256",
          "name": "_amount",
          "type": "uint256"
        }
      ],
      "name": "withdrawPremium",
      "outputs": [],
      "stateMutability": "nonpayable",
      "type": "function"
    },
    {
      "stateMutability": "payable",
      "type": "receive"
    }
  ],
  "transactionHash": "0x536cbb76e1d0fb54a36d9ac9d414ce559bf5d70d9f39d86627619f8cf3e8f943",
  "args": [
    "0x6aC1081CBb92524170E61CFFD37bDaF3b38FBC4c",
    "0x474021845c4643113458ea4414bdb7fb74a01a77",
    "0xA0b86991c6218b36c1d19D4a2e9Eb0cE3606eB48",
    "0x8c3d5c9538256DAB8Eb4B197370574340fe3254F"
  ],
  "solcInputHash": "0218e2b28098b873f60b22055ee82641",
  "bytecode": "0x6080604052600019600e553480156200001757600080fd5b5060405162002d7838038062002d788339810160408190526200003a916200026b565b6001600055620000536200004d6200016c565b62000170565b6001600160a01b038416620000855760405162461bcd60e51b81526004016200007c9062000386565b60405180910390fd5b6001600160a01b038316620000ae5760405162461bcd60e51b81526004016200007c90620003fc565b6001600160a01b038216620000d75760405162461bcd60e51b81526004016200007c906200034f565b6001600160a01b038116620001005760405162461bcd60e51b81526004016200007c906200030d565b600280546001600160a01b038087166001600160a01b031992831617909255600380548684169083161790556004805492851692909116919091179055336000908152600760205260409020805460ff191660011790556200016281620001c2565b5050505062000433565b3390565b600180546001600160a01b038381166001600160a01b0319831681179093556040519116919082907f8be0079c531659141344cd1fd0a4f28419497f9722a3daafe3b4186f6b6457e090600090a35050565b620001cc6200016c565b6001600160a01b0316620001df6200023f565b6001600160a01b031614620002085760405162461bcd60e51b81526004016200007c90620003c7565b6001600160a01b038116620002315760405162461bcd60e51b81526004016200007c90620002c7565b6200023c8162000170565b50565b6001546001600160a01b031690565b80516001600160a01b03811681146200026657600080fd5b919050565b6000806000806080858703121562000281578384fd5b6200028c856200024e565b93506200029c602086016200024e565b9250620002ac604086016200024e565b9150620002bc606086016200024e565b905092959194509250565b60208082526026908201527f4f776e61626c653a206e6577206f776e657220697320746865207a65726f206160408201526564647265737360d01b606082015260800190565b60208082526022908201527f556e6f52653a207a65726f206d756c746973696777616c6c6574206164647265604082015261737360f01b606082015260800190565b60208082526018908201527f556e6f52653a207a65726f205553444320616464726573730000000000000000604082015260600190565b60208082526021908201527f556e6f52653a207a65726f2065786368616e67654167656e74206164647265736040820152607360f81b606082015260800190565b6020808252818101527f4f776e61626c653a2063616c6c6572206973206e6f7420746865206f776e6572604082015260600190565b60208082526017908201527f556e6f52653a207a65726f20554e4f2061646472657373000000000000000000604082015260600190565b61293580620004436000396000f3fe6080604052600436106101bb5760003560e01c80638c8ac76d116100ec578063d20535941161008a578063e7cd4a0411610064578063e7cd4a041461047e578063f2fde38b1461049e578063f88822c4146104be578063fa569274146104de576101c2565b8063d205359414610429578063d84e305a14610449578063d9203b9114610469576101c2565b8063bc181416116100c6578063bc181416146103cc578063c4ddd57c146103d4578063c5d3a107146103f4578063c970e99f14610414576101c2565b80638c8ac76d146103775780638da5cb5b1461039757806397274e6e146103ac576101c2565b8063493721f51161015957806370d5ae051161013357806370d5ae051461030d578063715018a614610322578063729ae6b0146103375780638ab234b614610357576101c2565b8063493721f5146102b857806354ea1d7d146102cd5780635bb48a00146102ed576101c2565b8063140742371161019557806314074237146102345780631af42c0f146102495780632042e5c214610276578063372c12b114610298576101c2565b8063095002b8146101c75780630cf84e0b146101f25780630f97b97b14610212576101c2565b366101c257005b600080fd5b3480156101d357600080fd5b506101dc6104f3565b6040516101e99190612857565b60405180910390f35b3480156101fe57600080fd5b506101dc61020d3660046121e1565b6104f9565b34801561021e57600080fd5b5061022761050b565b6040516101e99190612321565b34801561024057600080fd5b506101dc61051a565b34801561025557600080fd5b506102696102643660046121e1565b610520565b6040516101e9919061238c565b34801561028257600080fd5b506102966102913660046121e1565b610535565b005b3480156102a457600080fd5b506102696102b33660046121e1565b610625565b3480156102c457600080fd5b506101dc61063a565b3480156102d957600080fd5b506102966102e8366004612202565b610640565b3480156102f957600080fd5b506102276103083660046122b8565b610780565b34801561031957600080fd5b506102276107aa565b34801561032e57600080fd5b506102966107b0565b34801561034357600080fd5b506101dc6103523660046121e1565b6107fb565b34801561036357600080fd5b506102966103723660046121e1565b61080d565b34801561038357600080fd5b5061029661039236600461226f565b610940565b3480156103a357600080fd5b50610227610bbc565b3480156103b857600080fd5b506102966103c7366004612202565b610bcb565b610296610d08565b3480156103e057600080fd5b506101dc6103ef3660046121e1565b610e27565b34801561040057600080fd5b5061029661040f3660046121e1565b610e39565b34801561042057600080fd5b5061029661106a565b34801561043557600080fd5b50610296610444366004612234565b6113cb565b34801561045557600080fd5b50610296610464366004612234565b611645565b34801561047557600080fd5b506102276117fe565b34801561048a57600080fd5b506102966104993660046121e1565b61180d565b3480156104aa57600080fd5b506102966104b93660046121e1565b6118f8565b3480156104ca57600080fd5b506102966104d93660046121e1565b611966565b3480156104ea57600080fd5b50610227611df9565b600d5481565b600a6020526000908152604090205481565b6003546001600160a01b031681565b600b5481565b60056020526000908152604090205460ff1681565b61053d611e08565b6001600160a01b031661054e610bbc565b6001600160a01b03161461057d5760405162461bcd60e51b81526004016105749061268c565b60405180910390fd5b6001600160a01b0381166105a35760405162461bcd60e51b8152600401610574906123f4565b6001600160a01b03811660009081526007602052604090205460ff166105db5760405162461bcd60e51b81526004016105749061242b565b6001600160a01b038116600081815260076020526040808220805460ff191690555130917f2f467772ef0a5478314f3bc2b37d4b2ad29b65f052b2cedc8e2972dda033529291a350565b60076020526000908152604090205460ff1681565b600c5481565b610648611e08565b6001600160a01b0316610659610bbc565b6001600160a01b03161461067f5760405162461bcd60e51b81526004016105749061268c565b600260005414156106a25760405162461bcd60e51b8152600401610574906127e9565b6002600055600e54604051636eb1769f60e11b81526001600160a01b0384169063dd62ed3e906106d89030908690600401612335565b60206040518083038186803b1580156106f057600080fd5b505afa158015610704573d6000803e3d6000fd5b505050506040513d601f19601f8201168201806040525081019061072891906122d0565b10156107775761073b8282600e54611e0c565b6040516001600160a01b03808316919084169030907f43121c61393a372aa50e4d3b0ec4003cce2d54e92ae7799836389597d5ead98d90600090a45b50506001600055565b6006818154811061079057600080fd5b6000918252602090912001546001600160a01b0316905081565b61dead81565b6107b8611e08565b6001600160a01b03166107c9610bbc565b6001600160a01b0316146107ef5760405162461bcd60e51b81526004016105749061268c565b6107f96000611ef9565b565b60096020526000908152604090205481565b610815611e08565b6001600160a01b0316610826610bbc565b6001600160a01b03161461084c5760405162461bcd60e51b81526004016105749061268c565b6001600160a01b03811660009081526005602052604090205460ff16156108855760405162461bcd60e51b8152600401610574906125b0565b6001600160a01b038082166000818152600560205260408120805460ff191660019081179091556006805491820181559091527ff652222313e28459528d920b65115c16c04f3efc82aaedc97be59f3f377c0d3f01805473ffffffffffffffffffffffffffffffffffffffff1916909117905560025461090791839116610640565b6040516001600160a01b0382169030907fc2def0bb3cfcff0462d9a69faa99e2ddeb1bf6b642d12a1fe3ed6653944fecd590600090a350565b600260005414156109635760405162461bcd60e51b8152600401610574906127e9565b600260009081556001600160a01b038316815260056020526040902054829060ff166109a15760405162461bcd60e51b8152600401610574906124e5565b3360009081526007602052604090205460ff166109d05760405162461bcd60e51b815260040161057490612755565b6040516370a0823160e01b815282906001600160a01b038516906370a08231906109fe903390600401612321565b60206040518083038186803b158015610a1657600080fd5b505afa158015610a2a573d6000803e3d6000fd5b505050506040513d601f19601f82011682018060405250810190610a4e91906122d0565b1015610a6c5760405162461bcd60e51b8152600401610574906125e7565b610a7883333085611f58565b6000612710610a89846103e8612898565b610a939190612878565b90506000612710610aa685611b58612898565b610ab09190612878565b6001600160a01b038616600090815260086020526040902054909150610ad7908390612860565b6001600160a01b038616600090815260086020908152604080832093909355600990522054610b07908290612860565b6001600160a01b03861660009081526009602052604090205580610b2b83866128b7565b610b3591906128b7565b6001600160a01b0386166000908152600a6020526040902054610b589190612860565b6001600160a01b0386166000908152600a602052604090819020919091555133907f411101aad886ab4351e7c392d06f013b37a7c6c00b7f964bca364da03df0e7d590610ba89088908890612373565b60405180910390a250506001600055505050565b6001546001600160a01b031690565b610bd3611e08565b6001600160a01b0316610be4610bbc565b6001600160a01b031614610c0a5760405162461bcd60e51b81526004016105749061268c565b60026000541415610c2d5760405162461bcd60e51b8152600401610574906127e9565b60026000908155604051636eb1769f60e11b81526001600160a01b0384169063dd62ed3e90610c629030908690600401612335565b60206040518083038186803b158015610c7a57600080fd5b505afa158015610c8e573d6000803e3d6000fd5b505050506040513d601f19601f82011682018060405250810190610cb291906122d0565b111561077757610cc482826000611e0c565b6040516001600160a01b03808316919084169030907fefc983aa790fe837a31d17855afa75e3d276afef0959edcd4edd1a5e09905ee590600090a450506001600055565b60026000541415610d2b5760405162461bcd60e51b8152600401610574906127e9565b600260009081553381526007602052604090205460ff16610d5e5760405162461bcd60e51b815260040161057490612755565b346000612710610d70836103e8612898565b610d7a9190612878565b90506000612710610d8d84611b58612898565b610d979190612878565b905081600b54610da79190612860565b600b55600c54610db8908290612860565b600c5580610dc683856128b7565b610dd091906128b7565b600d54610ddd9190612860565b600d5560405133907f411101aad886ab4351e7c392d06f013b37a7c6c00b7f964bca364da03df0e7d590610e15906000908790612373565b60405180910390a25050600160005550565b60086020526000908152604090205481565b610e41611e08565b6001600160a01b0316610e52610bbc565b6001600160a01b031614610e785760405162461bcd60e51b81526004016105749061268c565b6001600160a01b03811660009081526005602052604090205460ff16610eb05760405162461bcd60e51b8152600401610574906126c1565b6001600160a01b0381166000908152600560205260408120805460ff19169055600680549190610ee16001846128b7565b81548110610eff57634e487b7160e01b600052603260045260246000fd5b60009182526020822001546001600160a01b031691505b8281101561102d5760068181548110610f3f57634e487b7160e01b600052603260045260246000fd5b6000918252602090912001546001600160a01b038581169116141561101b578160068281548110610f8057634e487b7160e01b600052603260045260246000fd5b9060005260206000200160006101000a8154816001600160a01b0302191690836001600160a01b031602179055506006805480610fcd57634e487b7160e01b600052603160045260246000fd5b6000828152602090208101600019908101805473ffffffffffffffffffffffffffffffffffffffff191690550190556002546110139085906001600160a01b0316610bcb565b505050611067565b80611025816128ce565b915050610f16565b506040516001600160a01b0384169030907f39198a02f988846be034bb915c4f3e43a226a15d6f29cf21918e838b1a5f878490600090a350505b50565b611072611e08565b6001600160a01b0316611083610bbc565b6001600160a01b0316146110a95760405162461bcd60e51b81526004016105749061268c565b600d546000901561116d57600254600d546110cd916001600160a01b031690612048565b600254600354600d546040516393badc4160e01b81526001600160a01b03938416936393badc419361110993600093929091169160040161234f565b602060405180830381600087803b15801561112357600080fd5b505af1158015611137573d6000803e3d6000fd5b505050506040513d601f19601f8201168201806040525081019061115b91906122d0565b6111659082612860565b6000600d5590505b60005b60065481101561136c576000600a6000600684815481106111a157634e487b7160e01b600052603260045260246000fd5b60009182526020808320909101546001600160a01b03168352820192909252604001902054111561135a57600254600680546000926001600160a01b0316916393badc41918590811061120457634e487b7160e01b600052603260045260246000fd5b6000918252602082200154600354600680546001600160a01b03938416949290931692600a9291908990811061124a57634e487b7160e01b600052603260045260246000fd5b60009182526020808320909101546001600160a01b0316835282019290925260409081019091205490517fffffffff0000000000000000000000000000000000000000000000000000000060e086901b1681526112ac9392919060040161234f565b602060405180830381600087803b1580156112c657600080fd5b505af11580156112da573d6000803e3d6000fd5b505050506040513d601f19601f820116820180604052508101906112fe91906122d0565b905061130a8184612860565b92506000600a60006006858154811061133357634e487b7160e01b600052603260045260246000fd5b60009182526020808320909101546001600160a01b03168352820192909252604001902055505b80611364816128ce565b915050611170565b50801561138c5760035461138c906001600160a01b031661dead836120da565b604051309033907f94032d93ea01eeeccc1b1f03a7eddaf352c7cd85e246c6fc01afed0ddf6b5c1d906113c0908590612857565b60405180910390a350565b6113d3611e08565b6001600160a01b03166113e4610bbc565b6001600160a01b03161461140a5760405162461bcd60e51b81526004016105749061268c565b6002600054141561142d5760405162461bcd60e51b8152600401610574906127e9565b60026000556001600160a01b0382166114585760405162461bcd60e51b8152600401610574906123f4565b61146a826001600160a01b03166121c0565b6114865760405162461bcd60e51b815260040161057490612820565b6001600160a01b03831615801561149f57506000600c54115b1561153957600c548111156114c65760405162461bcd60e51b8152600401610574906125e7565b6114d08282612048565b80600c60008282546114e291906128b7565b92505081905550826001600160a01b0316826001600160a01b03167f370cbb08cddf346c35e924a503aa223dcc1b75a993d7c23a602d2e4bc0802c108360405161152c9190612857565b60405180910390a361163b565b6001600160a01b03831660009081526005602052604090205460ff16801561157857506001600160a01b03831660009081526009602052604090205415155b1561163b576001600160a01b0383166000908152600960205260409020548111156115b55760405162461bcd60e51b8152600401610574906125e7565b6115c08383836120da565b6001600160a01b038316600090815260096020526040812080548392906115e89084906128b7565b92505081905550826001600160a01b0316826001600160a01b03167f370cbb08cddf346c35e924a503aa223dcc1b75a993d7c23a602d2e4bc0802c10836040516116329190612857565b60405180910390a35b5050600160005550565b61164d611e08565b6001600160a01b031661165e610bbc565b6001600160a01b0316146116845760405162461bcd60e51b81526004016105749061268c565b6001600160a01b0382166116aa5760405162461bcd60e51b8152600401610574906123f4565b600081116116ca5760405162461bcd60e51b81526004016105749061261e565b6001600160a01b03831661170757804710156116f85760405162461bcd60e51b815260040161057490612655565b6117028282612048565b6117ae565b6040516370a0823160e01b815281906001600160a01b038516906370a0823190611735903090600401612321565b60206040518083038186803b15801561174d57600080fd5b505afa158015611761573d6000803e3d6000fd5b505050506040513d601f19601f8201168201806040525081019061178591906122d0565b10156117a35760405162461bcd60e51b815260040161057490612655565b6117ae8383836120da565b816001600160a01b0316836001600160a01b03167f8d18a25569e967883ac0402e6991b4ac87616370a1c2ce59726abce4ef45bdb8836040516117f19190612857565b60405180910390a3505050565b6002546001600160a01b031681565b611815611e08565b6001600160a01b0316611826610bbc565b6001600160a01b03161461184c5760405162461bcd60e51b81526004016105749061268c565b6001600160a01b0381166118725760405162461bcd60e51b8152600401610574906123f4565b6001600160a01b03811660009081526007602052604090205460ff16156118ab5760405162461bcd60e51b815260040161057490612579565b6001600160a01b038116600081815260076020526040808220805460ff191660011790555130917f8cd7b0b1a7316eb3e5d781d629cb8bf4e2fd9a8903bdd0f6b894c087d61b21f291a350565b611900611e08565b6001600160a01b0316611911610bbc565b6001600160a01b0316146119375760405162461bcd60e51b81526004016105749061268c565b6001600160a01b03811661195d5760405162461bcd60e51b815260040161057490612397565b61106781611ef9565b61196e611e08565b6001600160a01b031661197f610bbc565b6001600160a01b0316146119a55760405162461bcd60e51b81526004016105749061268c565b600260005414156119c85760405162461bcd60e51b8152600401610574906127e9565b60026000556001600160a01b0381166119f35760405162461bcd60e51b8152600401610574906123f4565b611a05816001600160a01b03166121c0565b611a215760405162461bcd60e51b815260040161057490612820565b600b5460009015611aea57600254600b54611a45916001600160a01b031690612048565b60025460048054600b546040516393badc4160e01b81526000946001600160a01b03908116946393badc4194611a839488949190931692910161234f565b602060405180830381600087803b158015611a9d57600080fd5b505af1158015611ab1573d6000803e3d6000fd5b505050506040513d601f19601f82011682018060405250810190611ad591906122d0565b9050611ae18183612860565b6000600b559150505b60005b600654811015611d915760006008600060068481548110611b1e57634e487b7160e01b600052603260045260246000fd5b60009182526020808320909101546001600160a01b031683528201929092526040019020541115611d7f57600454600680546001600160a01b039092169183908110611b7a57634e487b7160e01b600052603260045260246000fd5b6000918252602090912001546001600160a01b03161415611bf0576008600060068381548110611bba57634e487b7160e01b600052603260045260246000fd5b60009182526020808320909101546001600160a01b03168352820192909252604001902054611be99083612860565b9150611d32565b600254600680546000926001600160a01b0316916393badc419185908110611c2857634e487b7160e01b600052603260045260246000fd5b6000918252602082200154600454600680546001600160a01b03938416949290931692600892919089908110611c6e57634e487b7160e01b600052603260045260246000fd5b60009182526020808320909101546001600160a01b0316835282019290925260409081019091205490517fffffffff0000000000000000000000000000000000000000000000000000000060e086901b168152611cd09392919060040161234f565b602060405180830381600087803b158015611cea57600080fd5b505af1158015611cfe573d6000803e3d6000fd5b505050506040513d601f19601f82011682018060405250810190611d2291906122d0565b9050611d2e8184612860565b9250505b60006008600060068481548110611d5957634e487b7160e01b600052603260045260246000fd5b60009182526020808320909101546001600160a01b031683528201929092526040019020555b80611d89816128ce565b915050611aed565b50801561077757600454611daf906001600160a01b031683836120da565b816001600160a01b03167f9a380c5d696c8e394928ff8981a11ee388a14e2f7e16d373d73486cf3c48625482604051611de89190612857565b60405180910390a250506001600055565b6004546001600160a01b031681565b3390565b600080846001600160a01b031663095ea7b38585604051602401611e31929190612373565b6040516020818303038152906040529060e01b6020820180516001600160e01b038381831617835250505050604051611e6a91906122e8565b6000604051808303816000865af19150503d8060008114611ea7576040519150601f19603f3d011682016040523d82523d6000602084013e611eac565b606091505b5091509150818015611ed6575080511580611ed6575080806020019051810190611ed69190612298565b611ef25760405162461bcd60e51b8152600401610574906126f8565b5050505050565b600180546001600160a01b0383811673ffffffffffffffffffffffffffffffffffffffff19831681179093556040519116919082907f8be0079c531659141344cd1fd0a4f28419497f9722a3daafe3b4186f6b6457e090600090a35050565b600080856001600160a01b03166323b872dd868686604051602401611f7f9392919061234f565b6040516020818303038152906040529060e01b6020820180516001600160e01b038381831617835250505050604051611fb891906122e8565b6000604051808303816000865af19150503d8060008114611ff5576040519150601f19603f3d011682016040523d82523d6000602084013e611ffa565b606091505b50915091508180156120245750805115806120245750808060200190518101906120249190612298565b6120405760405162461bcd60e51b815260040161057490612488565b505050505050565b604080516000808252602082019092526001600160a01b03841690839060405161207291906122e8565b60006040518083038185875af1925050503d80600081146120af576040519150601f19603f3d011682016040523d82523d6000602084013e6120b4565b606091505b50509050806120d55760405162461bcd60e51b81526004016105749061251c565b505050565b600080846001600160a01b031663a9059cbb85856040516024016120ff929190612373565b6040516020818303038152906040529060e01b6020820180516001600160e01b03838183161783525050505060405161213891906122e8565b6000604051808303816000865af19150503d8060008114612175576040519150601f19603f3d011682016040523d82523d6000602084013e61217a565b606091505b50915091508180156121a45750805115806121a45750808060200190518101906121a49190612298565b611ef25760405162461bcd60e51b81526004016105749061278c565b803b15155b919050565b80356001600160a01b03811681146121c557600080fd5b6000602082840312156121f2578081fd5b6121fb826121ca565b9392505050565b60008060408385031215612214578081fd5b61221d836121ca565b915061222b602084016121ca565b90509250929050565b600080600060608486031215612248578081fd5b612251846121ca565b925061225f602085016121ca565b9150604084013590509250925092565b60008060408385031215612281578182fd5b61228a836121ca565b946020939093013593505050565b6000602082840312156122a9578081fd5b815180151581146121fb578182fd5b6000602082840312156122c9578081fd5b5035919050565b6000602082840312156122e1578081fd5b5051919050565b60008251815b8181101561230857602081860181015185830152016122ee565b818111156123165782828501525b509190910192915050565b6001600160a01b0391909116815260200190565b6001600160a01b0392831681529116602082015260400190565b6001600160a01b039384168152919092166020820152604081019190915260600190565b6001600160a01b03929092168252602082015260400190565b901515815260200190565b60208082526026908201527f4f776e61626c653a206e6577206f776e657220697320746865207a65726f206160408201527f6464726573730000000000000000000000000000000000000000000000000000606082015260800190565b60208082526013908201527f556e6f52653a207a65726f206164647265737300000000000000000000000000604082015260600190565b6020808252602c908201527f556e6f52653a207768697465206c6973742072656d6f766564206f7220756e6160408201527f6464656420616c72656164790000000000000000000000000000000000000000606082015260800190565b60208082526031908201527f5472616e7366657248656c7065723a3a7472616e7366657246726f6d3a20747260408201527f616e7366657246726f6d206661696c6564000000000000000000000000000000606082015260800190565b6020808252601b908201527f556e6f52653a206e6f7420616c6c6f7765642063757272656e63790000000000604082015260600190565b60208082526034908201527f5472616e7366657248656c7065723a3a736166655472616e736665724554483a60408201527f20455448207472616e73666572206661696c6564000000000000000000000000606082015260800190565b60208082526019908201527f556e6f52653a207768697465206c69737420616c726561647900000000000000604082015260600190565b60208082526011908201527f416c726561647920617661696c61626c65000000000000000000000000000000604082015260600190565b6020808252601f908201527f556e6f52653a207072656d69756d2062616c616e6365206f766572666c6f7700604082015260600190565b60208082526012908201527f556e6f52653a207a65726f20616d6f756e740000000000000000000000000000604082015260600190565b6020808252601b908201527f556e6f52653a20496e73756666696369656e74205072656d69756d0000000000604082015260600190565b6020808252818101527f4f776e61626c653a2063616c6c6572206973206e6f7420746865206f776e6572604082015260600190565b60208082526011908201527f4e6f7420617661696c61626c6520796574000000000000000000000000000000604082015260600190565b6020808252602b908201527f5472616e7366657248656c7065723a3a73616665417070726f76653a2061707060408201527f726f7665206661696c6564000000000000000000000000000000000000000000606082015260800190565b6020808252601d908201527f556e6f52653a206e6f74207768697465206c6973742061646472657373000000604082015260600190565b6020808252602d908201527f5472616e7366657248656c7065723a3a736166655472616e736665723a20747260408201527f616e73666572206661696c656400000000000000000000000000000000000000606082015260800190565b6020808252601f908201527f5265656e7472616e637947756172643a207265656e7472616e742063616c6c00604082015260600190565b6020808252601a908201527f556e6f52653a206e6f20636f6e74726163742061646472657373000000000000604082015260600190565b90815260200190565b60008219821115612873576128736128e9565b500190565b60008261289357634e487b7160e01b81526012600452602481fd5b500490565b60008160001904831182151516156128b2576128b26128e9565b500290565b6000828210156128c9576128c96128e9565b500390565b60006000198214156128e2576128e26128e9565b5060010190565b634e487b7160e01b600052601160045260246000fdfea2646970667358221220bc011e08a7173c135b7ab90ef4956658e7f4fc697e246925df343e52b81a5fa264736f6c63430008000033",
  "devdoc": {
    "kind": "dev",
    "methods": {
      "owner()": {
        "details": "Returns the address of the current owner."
      },
      "renounceOwnership()": {
        "details": "Leaves the contract without owner. It will not be possible to call `onlyOwner` functions anymore. Can only be called by the current owner. NOTE: Renouncing ownership will leave the contract without an owner, thereby removing any functionality that is only available to the owner."
      },
      "transferOwnership(address)": {
        "details": "Transfers ownership of the contract to a new account (`newOwner`). Can only be called by the current owner."
      }
    },
    "version": 1
  },
  "userdoc": {
    "kind": "user",
    "methods": {},
    "version": 1
  },
  "storageLayout": {
    "storage": [
      {
        "astId": 114,
        "contract": "contracts/PremiumPool.sol:PremiumPool",
        "label": "_status",
        "offset": 0,
        "slot": "0",
        "type": "t_uint256"
      },
      {
        "astId": 7,
        "contract": "contracts/PremiumPool.sol:PremiumPool",
        "label": "_owner",
        "offset": 0,
        "slot": "1",
        "type": "t_address"
      },
      {
        "astId": 5224,
        "contract": "contracts/PremiumPool.sol:PremiumPool",
        "label": "exchangeAgent",
        "offset": 0,
        "slot": "2",
        "type": "t_address"
      },
      {
        "astId": 5226,
        "contract": "contracts/PremiumPool.sol:PremiumPool",
        "label": "UNO_TOKEN",
        "offset": 0,
        "slot": "3",
        "type": "t_address"
      },
      {
        "astId": 5228,
        "contract": "contracts/PremiumPool.sol:PremiumPool",
        "label": "USDC_TOKEN",
        "offset": 0,
        "slot": "4",
        "type": "t_address"
      },
      {
        "astId": 5232,
        "contract": "contracts/PremiumPool.sol:PremiumPool",
        "label": "availableCurrencies",
        "offset": 0,
        "slot": "5",
        "type": "t_mapping(t_address,t_bool)"
      },
      {
        "astId": 5235,
        "contract": "contracts/PremiumPool.sol:PremiumPool",
        "label": "availableCurrencyList",
        "offset": 0,
        "slot": "6",
        "type": "t_array(t_address)dyn_storage"
      },
      {
        "astId": 5239,
        "contract": "contracts/PremiumPool.sol:PremiumPool",
        "label": "whiteList",
        "offset": 0,
        "slot": "7",
        "type": "t_mapping(t_address,t_bool)"
      },
      {
        "astId": 5246,
        "contract": "contracts/PremiumPool.sol:PremiumPool",
        "label": "SSRP_PREMIUM",
        "offset": 0,
        "slot": "8",
        "type": "t_mapping(t_address,t_uint256)"
      },
      {
        "astId": 5250,
        "contract": "contracts/PremiumPool.sol:PremiumPool",
        "label": "SSIP_PREMIUM",
        "offset": 0,
        "slot": "9",
        "type": "t_mapping(t_address,t_uint256)"
      },
      {
        "astId": 5254,
        "contract": "contracts/PremiumPool.sol:PremiumPool",
        "label": "BACK_BURN_UNO_PREMIUM",
        "offset": 0,
        "slot": "10",
        "type": "t_mapping(t_address,t_uint256)"
      },
      {
        "astId": 5256,
        "contract": "contracts/PremiumPool.sol:PremiumPool",
        "label": "SSRP_PREMIUM_ETH",
        "offset": 0,
        "slot": "11",
        "type": "t_uint256"
      },
      {
        "astId": 5258,
        "contract": "contracts/PremiumPool.sol:PremiumPool",
        "label": "SSIP_PREMIUM_ETH",
        "offset": 0,
        "slot": "12",
        "type": "t_uint256"
      },
      {
        "astId": 5260,
        "contract": "contracts/PremiumPool.sol:PremiumPool",
        "label": "BACK_BURN_PREMIUM_ETH",
        "offset": 0,
        "slot": "13",
        "type": "t_uint256"
      },
      {
        "astId": 5267,
        "contract": "contracts/PremiumPool.sol:PremiumPool",
        "label": "MAX_INTEGER",
        "offset": 0,
        "slot": "14",
        "type": "t_uint256"
      }
    ],
    "types": {
      "t_address": {
        "encoding": "inplace",
        "label": "address",
        "numberOfBytes": "20"
      },
      "t_array(t_address)dyn_storage": {
        "base": "t_address",
        "encoding": "dynamic_array",
        "label": "address[]",
        "numberOfBytes": "32"
      },
      "t_bool": {
        "encoding": "inplace",
        "label": "bool",
        "numberOfBytes": "1"
      },
      "t_mapping(t_address,t_bool)": {
        "encoding": "mapping",
        "key": "t_address",
        "label": "mapping(address => bool)",
        "numberOfBytes": "32",
        "value": "t_bool"
      },
      "t_mapping(t_address,t_uint256)": {
        "encoding": "mapping",
        "key": "t_address",
        "label": "mapping(address => uint256)",
        "numberOfBytes": "32",
        "value": "t_uint256"
      },
      "t_uint256": {
        "encoding": "inplace",
        "label": "uint256",
        "numberOfBytes": "32"
      }
    }
  }
}