{
  "address": "0xcdB18293E0738cffFc7EA37072311e22fEeBb7c3",
  "abi": [
    {
      "inputs": [],
      "stateMutability": "nonpayable",
      "type": "constructor"
    },
    {
      "inputs": [
        {
          "internalType": "address",
          "name": "_operator",
          "type": "address"
        },
        {
          "internalType": "address",
          "name": "_currency",
          "type": "address"
        },
        {
          "internalType": "address",
          "name": "_pool",
          "type": "address"
        }
      ],
      "name": "newRewarder",
      "outputs": [
        {
          "internalType": "address",
          "name": "",
          "type": "address"
        }
      ],
      "stateMutability": "nonpayable",
      "type": "function"
    }
  ],
  "transactionHash": "0x9fef67ff141e38e89454f9a7e997bd8ed79e56393fdd3b7b44598a7abae673d5",
  "args": [],
  "solcInputHash": "c31affd0d7ff952b504e064b0d92a280",
  "bytecode": "0x608060405234801561001057600080fd5b50611878806100206000396000f3fe608060405234801561001057600080fd5b506004361061002b5760003560e01c806369ee745114610030575b600080fd5b61004361003e3660046100d3565b610059565b6040516100509190610115565b60405180910390f35b60008084848460405161006b9061009d565b61007793929190610136565b604051809103906000f080158015610093573d6000803e3d6000fd5b5095945050505050565b6116dc8061016783390190565b803573ffffffffffffffffffffffffffffffffffffffff811681146100ce57600080fd5b919050565b6000806000606084860312156100e7578283fd5b6100f0846100aa565b92506100fe602085016100aa565b915061010c604085016100aa565b90509250925092565b73ffffffffffffffffffffffffffffffffffffffff91909116815260200190565b73ffffffffffffffffffffffffffffffffffffffff9384168152918316602083015290911660408201526060019056fe60c06040523480156200001157600080fd5b50604051620016dc380380620016dc8339810160408190526200003491620000f1565b60016000556001600160a01b0383166200006b5760405162461bcd60e51b8152600401620000629062000171565b60405180910390fd5b6001600160a01b038116620000945760405162461bcd60e51b815260040162000062906200013a565b606091821b6001600160601b0319908116608052911b1660a052600180546001600160a01b0319166001600160a01b0392909216919091179055620001a8565b80516001600160a01b0381168114620000ec57600080fd5b919050565b60008060006060848603121562000106578283fd5b6200011184620000d4565b92506200012160208501620000d4565b91506200013160408501620000d4565b90509250925092565b60208082526018908201527f556e6f52653a207a65726f20706f6f6c20616464726573730000000000000000604082015260600190565b6020808252601c908201527f556e6f52653a207a65726f206f70657261746f72206164647265737300000000604082015260600190565b60805160601c60a05160601c6114986200024460003960008181610264015281816102c0015261033401526000818161060b01528181610688015281816107300152818161075e0152818161088e0152818161090201528181610985015281816109db01528181610a6a01528181610ac701528181610b1c01528181610bc101528181610c4d01528181610c6f0152610d4501526114986000f3fe60806040526004361061009a5760003560e01c806389919b7111610069578063e5a6b10f1161004e578063e5a6b10f1461015d578063f2fde38b14610172578063f3fef3a314610192576100a1565b806389919b7114610135578063c37232881461014a576100a1565b80630117b713146100a657806316f0115b146100c85780634bf6f9e7146100f3578063570ca73514610120576100a1565b366100a157005b600080fd5b3480156100b257600080fd5b506100c66100c1366004610f79565b6101b2565b005b3480156100d457600080fd5b506100dd610262565b6040516100ea919061109d565b60405180910390f35b3480156100ff57600080fd5b5061011361010e366004610f3a565b610286565b6040516100ea919061139d565b34801561012c57600080fd5b506100dd610298565b34801561014157600080fd5b506101136102a7565b610113610158366004610f79565b6102b3565b34801561016957600080fd5b506100dd61075c565b34801561017e57600080fd5b506100c661018d366004610f3a565b610780565b34801561019e57600080fd5b506100c66101ad366004610f79565b61083c565b6001546001600160a01b031633146101e55760405162461bcd60e51b81526004016101dc9061125a565b60405180910390fd5b6001600160a01b03821661020b5760405162461bcd60e51b81526004016101dc906110ca565b6001600160a01b03821660008181526002602052604090819020839055517f09eb3d432321f676fe06600f18cdbe6a6c011fc777695c52942e7494d7a3ec5e9061025690849061139d565b60405180910390a25050565b7f000000000000000000000000000000000000000000000000000000000000000081565b60026020526000908152604090205481565b6001546001600160a01b031681565b670de0b6b3a764000081565b6000336001600160a01b037f000000000000000000000000000000000000000000000000000000000000000016146102fd5760405162461bcd60e51b81526004016101dc90611101565b326001600160a01b038416146103255760405162461bcd60e51b81526004016101dc90611366565b604051630cacd00160e11b81527f0000000000000000000000000000000000000000000000000000000000000000906000906001600160a01b03831690631959a0029061037690889060040161109d565b60606040518083038186803b15801561038e57600080fd5b505afa1580156103a2573d6000803e3d6000fd5b505050506040513d601f19601f820116820180604052508101906103c6919061100f565b90506000826001600160a01b0316635a2f3d096040518163ffffffff1660e01b815260040160606040518083038186803b15801561040357600080fd5b505afa158015610417573d6000803e3d6000fd5b505050506040513d601f19601f8201168201806040525081019061043b9190610fc4565b90506000670de0b6b3a764000082602001516fffffffffffffffffffffffffffffffff16846040015161046e91906113fe565b61047891906113de565b6001600160a01b0388166000908152600260205260408120549192509061049f908361141d565b905081600260008a6001600160a01b03166001600160a01b03168152602001908152602001600020819055506000856001600160a01b031663c4e5dacf6040518163ffffffff1660e01b815260040160206040518083038186803b15801561050657600080fd5b505afa15801561051a573d6000803e3d6000fd5b505050506040513d601f19601f8201168201806040525081019061053e9190610f5d565b905082866001600160a01b0316631959a002836040518263ffffffff1660e01b815260040161056d919061109d565b60606040518083038186803b15801561058557600080fd5b505afa158015610599573d6000803e3d6000fd5b505050506040513d601f19601f820116820180604052508101906105bd919061100f565b60200151146105e957828560200151146105e95760405162461bcd60e51b81526004016101dc906111fd565b878210156106095760405162461bcd60e51b81526004016101dc906112f8565b7f00000000000000000000000000000000000000000000000000000000000000006001600160a01b031661066f57874710156106575760405162461bcd60e51b81526004016101dc906111bb565b6106618989610d81565b879650505050505050610756565b6040516370a0823160e01b815288906001600160a01b037f000000000000000000000000000000000000000000000000000000000000000016906370a08231906106bd90309060040161109d565b60206040518083038186803b1580156106d557600080fd5b505afa1580156106e9573d6000803e3d6000fd5b505050506040513d601f19601f8201168201806040525081019061070d919061104c565b101561072b5760405162461bcd60e51b81526004016101dc906111bb565b6106617f00000000000000000000000000000000000000000000000000000000000000008a8a610e13565b92915050565b7f000000000000000000000000000000000000000000000000000000000000000081565b6001546001600160a01b031633146107aa5760405162461bcd60e51b81526004016101dc9061125a565b6001600160a01b0381166107d05760405162461bcd60e51b81526004016101dc9061132f565b600180546001600160a01b038381167fffffffffffffffffffffffff00000000000000000000000000000000000000008316811790935560405191169190829030907f47c976e5452318b6b1a69e30851ef22b5fe752d4fabe5271b89c52c3d03a884d90600090a45050565b6001546001600160a01b031633146108665760405162461bcd60e51b81526004016101dc9061125a565b6001600160a01b03821661088c5760405162461bcd60e51b81526004016101dc9061132f565b7f00000000000000000000000000000000000000000000000000000000000000006001600160a01b03166109c25780471061093d576108cb8282610d81565b816001600160a01b0316306001600160a01b03167fd29d3d001850cedc5d5d3cad05ac52962e3f2e0aa84aeb99f813d515eb9750967f0000000000000000000000000000000000000000000000000000000000000000846040516109309291906110b1565b60405180910390a36109bd565b47156109bd574761094e8347610d81565b826001600160a01b0316306001600160a01b03167fd29d3d001850cedc5d5d3cad05ac52962e3f2e0aa84aeb99f813d515eb9750967f0000000000000000000000000000000000000000000000000000000000000000846040516109b39291906110b1565b60405180910390a3505b610d7d565b6040516370a0823160e01b815281906001600160a01b037f000000000000000000000000000000000000000000000000000000000000000016906370a0823190610a1090309060040161109d565b60206040518083038186803b158015610a2857600080fd5b505afa158015610a3c573d6000803e3d6000fd5b505050506040513d601f19601f82011682018060405250810190610a60919061104c565b10610b0257610a907f00000000000000000000000000000000000000000000000000000000000000008383610e13565b816001600160a01b0316306001600160a01b03167fd29d3d001850cedc5d5d3cad05ac52962e3f2e0aa84aeb99f813d515eb9750967f000000000000000000000000000000000000000000000000000000000000000084604051610af59291906110b1565b60405180910390a3610d7d565b6040516370a0823160e01b81526000906001600160a01b037f000000000000000000000000000000000000000000000000000000000000000016906370a0823190610b5190309060040161109d565b60206040518083038186803b158015610b6957600080fd5b505afa158015610b7d573d6000803e3d6000fd5b505050506040513d601f19601f82011682018060405250810190610ba1919061104c565b1115610d7d576040516370a0823160e01b81526000906001600160a01b037f000000000000000000000000000000000000000000000000000000000000000016906370a0823190610bf690309060040161109d565b60206040518083038186803b158015610c0e57600080fd5b505afa158015610c22573d6000803e3d6000fd5b505050506040513d601f19601f82011682018060405250810190610c46919061104c565b9050610d0e7f0000000000000000000000000000000000000000000000000000000000000000847f00000000000000000000000000000000000000000000000000000000000000006001600160a01b03166370a08231306040518263ffffffff1660e01b8152600401610cb9919061109d565b60206040518083038186803b158015610cd157600080fd5b505afa158015610ce5573d6000803e3d6000fd5b505050506040513d601f19601f82011682018060405250810190610d09919061104c565b610e13565b826001600160a01b0316306001600160a01b03167fd29d3d001850cedc5d5d3cad05ac52962e3f2e0aa84aeb99f813d515eb9750967f000000000000000000000000000000000000000000000000000000000000000084604051610d739291906110b1565b60405180910390a3505b5050565b604080516000808252602082019092526001600160a01b038416908390604051610dab9190611064565b60006040518083038185875af1925050503d8060008114610de8576040519150601f19603f3d011682016040523d82523d6000602084013e610ded565b606091505b5050905080610e0e5760405162461bcd60e51b81526004016101dc9061115e565b505050565b600080846001600160a01b031663a9059cbb8585604051602401610e389291906110b1565b6040516020818303038152906040529060e01b6020820180517bffffffffffffffffffffffffffffffffffffffffffffffffffffffff8381831617835250505050604051610e869190611064565b6000604051808303816000865af19150503d8060008114610ec3576040519150601f19603f3d011682016040523d82523d6000602084013e610ec8565b606091505b5091509150818015610ef2575080511580610ef2575080806020019051810190610ef29190610fa4565b610f0e5760405162461bcd60e51b81526004016101dc9061129b565b5050505050565b80516fffffffffffffffffffffffffffffffff81168114610f3557600080fd5b919050565b600060208284031215610f4b578081fd5b8135610f568161144a565b9392505050565b600060208284031215610f6e578081fd5b8151610f568161144a565b60008060408385031215610f8b578081fd5b8235610f968161144a565b946020939093013593505050565b600060208284031215610fb5578081fd5b81518015158114610f56578182fd5b600060608284031215610fd5578081fd5b610fdf60606113a6565b610fe883610f15565b8152610ff660208401610f15565b6020820152604083015160408201528091505092915050565b600060608284031215611020578081fd5b61102a60606113a6565b8251815260208301516020820152604083015160408201528091505092915050565b60006020828403121561105d578081fd5b5051919050565b60008251815b81811015611084576020818601810151858301520161106a565b818111156110925782828501525b509190910192915050565b6001600160a01b0391909116815260200190565b6001600160a01b03929092168252602082015260400190565b60208082526013908201527f556e6f52653a207a65726f206164647265737300000000000000000000000000604082015260600190565b60208082526032908201527f4f6e6c792053535250206f72205353495020636f6e74726163742063616e206360408201527f616c6c20746869732066756e6374696f6e2e0000000000000000000000000000606082015260800190565b60208082526034908201527f5472616e7366657248656c7065723a3a736166655472616e736665724554483a60408201527f20455448207472616e73666572206661696c6564000000000000000000000000606082015260800190565b60208082526022908201527f556e6f52653a20696e73756666696369656e74207265776172642062616c616e604082015261636560f01b606082015260800190565b60208082526025908201527f556e6f52653a2075706461746564207265776172646465627420696e636f727260408201527f6563746c79000000000000000000000000000000000000000000000000000000606082015260800190565b60208082526021908201527f4f6e6c79206f70657261746f722063616c6c20746869732066756e6374696f6e6040820152601760f91b606082015260800190565b6020808252602d908201527f5472616e7366657248656c7065723a3a736166655472616e736665723a20747260408201527f616e73666572206661696c656400000000000000000000000000000000000000606082015260800190565b6020808252601c908201527f556e6f52653a20696e76616c69642072657761726420616d6f756e7400000000604082015260600190565b6020808252601a908201527f556e6f52653a207a65726f206164647265737320726577617264000000000000604082015260600190565b6020808252601d908201527f556e6f52653a206d757374206265206d6573736167652073656e646572000000604082015260600190565b90815260200190565b60405181810167ffffffffffffffff811182821017156113d657634e487b7160e01b600052604160045260246000fd5b604052919050565b6000826113f957634e487b7160e01b81526012600452602481fd5b500490565b600081600019048311821515161561141857611418611434565b500290565b60008282101561142f5761142f611434565b500390565b634e487b7160e01b600052601160045260246000fd5b6001600160a01b038116811461145f57600080fd5b5056fea264697066735822122051c1b90501cd4e85839e6d8808dd8aa58dc41083c161240e329cdb99ec83f7b064736f6c63430008000033a2646970667358221220c0a3d148122a683bbfa2494642a7ac1069ebe1249e3e7ce9906aafd954b5bf1864736f6c63430008000033",
  "devdoc": {
    "kind": "dev",
    "methods": {},
    "version": 1
  },
  "userdoc": {
    "kind": "user",
    "methods": {},
    "version": 1
  },
  "storageLayout": {
    "storage": [],
    "types": null
  }
}