{
  "address": "0xdE31844aAbF490ca1987d22a87ad922d736E0eE9",
  "abi": [
    {
      "inputs": [],
      "name": "AccessControlBadConfirmation",
      "type": "error"
    },
    {
      "inputs": [
        {
          "internalType": "address",
          "name": "account",
          "type": "address"
        },
        {
          "internalType": "bytes32",
          "name": "neededRole",
          "type": "bytes32"
        }
      ],
      "name": "AccessControlUnauthorizedAccount",
      "type": "error"
    },
    {
      "inputs": [],
      "name": "InvalidInitialization",
      "type": "error"
    },
    {
      "inputs": [],
      "name": "NotInitializing",
      "type": "error"
    },
    {
      "inputs": [],
      "name": "ReentrancyGuardReentrantCall",
      "type": "error"
    },
    {
      "anonymous": false,
      "inputs": [
        {
          "indexed": false,
          "internalType": "uint64",
          "name": "version",
          "type": "uint64"
        }
      ],
      "name": "Initialized",
      "type": "event"
    },
    {
      "anonymous": false,
      "inputs": [
        {
          "indexed": true,
          "internalType": "address",
          "name": "_ssip",
          "type": "address"
        },
        {
          "indexed": false,
          "internalType": "address",
          "name": "_currency",
          "type": "address"
        },
        {
          "indexed": false,
          "internalType": "uint256",
          "name": "_scr",
          "type": "uint256"
        }
      ],
      "name": "LogAddPool",
      "type": "event"
    },
    {
      "anonymous": false,
      "inputs": [
        {
          "indexed": true,
          "internalType": "address",
          "name": "_pool",
          "type": "address"
        }
      ],
      "name": "LogAddPoolWhiteList",
      "type": "event"
    },
    {
      "anonymous": false,
      "inputs": [
        {
          "indexed": true,
          "internalType": "address",
          "name": "_policy",
          "type": "address"
        },
        {
          "indexed": false,
          "internalType": "uint256",
          "name": "_policyTokenId",
          "type": "uint256"
        }
      ],
      "name": "LogMarkToClaimPolicy",
      "type": "event"
    },
    {
      "anonymous": false,
      "inputs": [
        {
          "indexed": true,
          "internalType": "address",
          "name": "_salesPolicy",
          "type": "address"
        }
      ],
      "name": "LogRemovePolicy",
      "type": "event"
    },
    {
      "anonymous": false,
      "inputs": [
        {
          "indexed": true,
          "internalType": "address",
          "name": "_ssip",
          "type": "address"
        }
      ],
      "name": "LogRemovePool",
      "type": "event"
    },
    {
      "anonymous": false,
      "inputs": [
        {
          "indexed": true,
          "internalType": "address",
          "name": "_pool",
          "type": "address"
        }
      ],
      "name": "LogRemovePoolWhiteList",
      "type": "event"
    },
    {
      "anonymous": false,
      "inputs": [
        {
          "indexed": true,
          "internalType": "address",
          "name": "_owner",
          "type": "address"
        },
        {
          "indexed": true,
          "internalType": "address",
          "name": "_capitalAgent",
          "type": "address"
        },
        {
          "indexed": false,
          "internalType": "address",
          "name": "_exchangeAgent",
          "type": "address"
        }
      ],
      "name": "LogSetExchangeAgent",
      "type": "event"
    },
    {
      "anonymous": false,
      "inputs": [
        {
          "indexed": true,
          "internalType": "address",
          "name": "_owner",
          "type": "address"
        },
        {
          "indexed": true,
          "internalType": "address",
          "name": "_capitalAgent",
          "type": "address"
        },
        {
          "indexed": false,
          "internalType": "uint256",
          "name": "_MCR",
          "type": "uint256"
        }
      ],
      "name": "LogSetMCR",
      "type": "event"
    },
    {
      "anonymous": false,
      "inputs": [
        {
          "indexed": true,
          "internalType": "address",
          "name": "_owner",
          "type": "address"
        },
        {
          "indexed": true,
          "internalType": "address",
          "name": "_capitalAgent",
          "type": "address"
        },
        {
          "indexed": false,
          "internalType": "uint256",
          "name": "_MLR",
          "type": "uint256"
        }
      ],
      "name": "LogSetMLR",
      "type": "event"
    },
    {
      "anonymous": false,
      "inputs": [
        {
          "indexed": true,
          "internalType": "address",
          "name": "_operator",
          "type": "address"
        }
      ],
      "name": "LogSetOperator",
      "type": "event"
    },
    {
      "anonymous": false,
      "inputs": [
        {
          "indexed": true,
          "internalType": "address",
          "name": "_salesPolicy",
          "type": "address"
        }
      ],
      "name": "LogSetPolicy",
      "type": "event"
    },
    {
      "anonymous": false,
      "inputs": [
        {
          "indexed": true,
          "internalType": "address",
          "name": "_owner",
          "type": "address"
        },
        {
          "indexed": true,
          "internalType": "address",
          "name": "_capitalAgent",
          "type": "address"
        },
        {
          "indexed": true,
          "internalType": "address",
          "name": "_pool",
          "type": "address"
        },
        {
          "indexed": false,
          "internalType": "uint256",
          "name": "_SCR",
          "type": "uint256"
        }
      ],
      "name": "LogSetSCR",
      "type": "event"
    },
    {
      "anonymous": false,
      "inputs": [
        {
          "indexed": true,
          "internalType": "address",
          "name": "_factory",
          "type": "address"
        }
      ],
      "name": "LogSetSalesPolicyFactory",
      "type": "event"
    },
    {
      "anonymous": false,
      "inputs": [
        {
          "indexed": true,
          "internalType": "address",
          "name": "_usdcToken",
          "type": "address"
        }
      ],
      "name": "LogSetUSDC",
      "type": "event"
    },
    {
      "anonymous": false,
      "inputs": [
        {
          "indexed": true,
          "internalType": "address",
          "name": "_policy",
          "type": "address"
        },
        {
          "indexed": false,
          "internalType": "uint256",
          "name": "_amount",
          "type": "uint256"
        },
        {
          "indexed": false,
          "internalType": "uint256",
          "name": "_policyUtilized",
          "type": "uint256"
        },
        {
          "indexed": false,
          "internalType": "uint256",
          "name": "_totalUtilizedAmount",
          "type": "uint256"
        }
      ],
      "name": "LogUpdatePolicyCoverage",
      "type": "event"
    },
    {
      "anonymous": false,
      "inputs": [
        {
          "indexed": true,
          "internalType": "address",
          "name": "_policy",
          "type": "address"
        },
        {
          "indexed": false,
          "internalType": "uint256",
          "name": "_policyTokenId",
          "type": "uint256"
        }
      ],
      "name": "LogUpdatePolicyExpired",
      "type": "event"
    },
    {
      "anonymous": false,
      "inputs": [
        {
          "indexed": true,
          "internalType": "address",
          "name": "_ssip",
          "type": "address"
        },
        {
          "indexed": false,
          "internalType": "uint256",
          "name": "_poolCapital",
          "type": "uint256"
        },
        {
          "indexed": false,
          "internalType": "uint256",
          "name": "_totalCapital",
          "type": "uint256"
        }
      ],
      "name": "LogUpdatePoolCapital",
      "type": "event"
    },
    {
      "anonymous": false,
      "inputs": [
        {
          "indexed": true,
          "internalType": "bytes32",
          "name": "role",
          "type": "bytes32"
        },
        {
          "indexed": true,
          "internalType": "bytes32",
          "name": "previousAdminRole",
          "type": "bytes32"
        },
        {
          "indexed": true,
          "internalType": "bytes32",
          "name": "newAdminRole",
          "type": "bytes32"
        }
      ],
      "name": "RoleAdminChanged",
      "type": "event"
    },
    {
      "anonymous": false,
      "inputs": [
        {
          "indexed": true,
          "internalType": "bytes32",
          "name": "role",
          "type": "bytes32"
        },
        {
          "indexed": true,
          "internalType": "address",
          "name": "account",
          "type": "address"
        },
        {
          "indexed": true,
          "internalType": "address",
          "name": "sender",
          "type": "address"
        }
      ],
      "name": "RoleGranted",
      "type": "event"
    },
    {
      "anonymous": false,
      "inputs": [
        {
          "indexed": true,
          "internalType": "bytes32",
          "name": "role",
          "type": "bytes32"
        },
        {
          "indexed": true,
          "internalType": "address",
          "name": "account",
          "type": "address"
        },
        {
          "indexed": true,
          "internalType": "address",
          "name": "sender",
          "type": "address"
        }
      ],
      "name": "RoleRevoked",
      "type": "event"
    },
    {
      "inputs": [],
      "name": "ADMIN_ROLE",
      "outputs": [
        {
          "internalType": "bytes32",
          "name": "",
          "type": "bytes32"
        }
      ],
      "stateMutability": "view",
      "type": "function"
    },
    {
      "inputs": [],
      "name": "CALC_PRECISION",
      "outputs": [
        {
          "internalType": "uint256",
          "name": "",
          "type": "uint256"
        }
      ],
      "stateMutability": "view",
      "type": "function"
    },
    {
      "inputs": [],
      "name": "DEFAULT_ADMIN_ROLE",
      "outputs": [
        {
          "internalType": "bytes32",
          "name": "",
          "type": "bytes32"
        }
      ],
      "stateMutability": "view",
      "type": "function"
    },
    {
      "inputs": [],
      "name": "MCR",
      "outputs": [
        {
          "internalType": "uint256",
          "name": "",
          "type": "uint256"
        }
      ],
      "stateMutability": "view",
      "type": "function"
    },
    {
      "inputs": [],
      "name": "MLR",
      "outputs": [
        {
          "internalType": "uint256",
          "name": "",
          "type": "uint256"
        }
      ],
      "stateMutability": "view",
      "type": "function"
    },
    {
      "inputs": [
        {
          "internalType": "uint256",
          "name": "_withdrawAmount",
          "type": "uint256"
        },
        {
          "internalType": "uint256",
          "name": "_policyId",
          "type": "uint256"
        },
        {
          "internalType": "bool",
          "name": "_isNotMigrate",
          "type": "bool"
        }
      ],
      "name": "SSIPPolicyCaim",
      "outputs": [],
      "stateMutability": "nonpayable",
      "type": "function"
    },
    {
      "inputs": [
        {
          "internalType": "uint256",
          "name": "_stakingAmount",
          "type": "uint256"
        }
      ],
      "name": "SSIPStaking",
      "outputs": [],
      "stateMutability": "nonpayable",
      "type": "function"
    },
    {
      "inputs": [
        {
          "internalType": "uint256",
          "name": "_withdrawAmount",
          "type": "uint256"
        }
      ],
      "name": "SSIPWithdraw",
      "outputs": [],
      "stateMutability": "nonpayable",
      "type": "function"
    },
    {
      "inputs": [
        {
          "internalType": "address",
          "name": "_ssip",
          "type": "address"
        },
        {
          "internalType": "address",
          "name": "_currency",
          "type": "address"
        },
        {
          "internalType": "uint256",
          "name": "_scr",
          "type": "uint256"
        }
      ],
      "name": "addPool",
      "outputs": [],
      "stateMutability": "nonpayable",
      "type": "function"
    },
    {
      "inputs": [
        {
          "internalType": "address",
          "name": "_ssip",
          "type": "address"
        },
        {
          "internalType": "address",
          "name": "_currency",
          "type": "address"
        },
        {
          "internalType": "uint256",
          "name": "_scr",
          "type": "uint256"
        }
      ],
      "name": "addPoolByAdmin",
      "outputs": [],
      "stateMutability": "nonpayable",
      "type": "function"
    },
    {
      "inputs": [
        {
          "internalType": "address",
          "name": "_pool",
          "type": "address"
        }
      ],
      "name": "addPoolWhiteList",
      "outputs": [],
      "stateMutability": "nonpayable",
      "type": "function"
    },
    {
      "inputs": [
        {
          "internalType": "address",
          "name": "_pool",
          "type": "address"
        },
        {
          "internalType": "uint256",
          "name": "_withdrawAmount",
          "type": "uint256"
        }
      ],
      "name": "checkCapitalByMCR",
      "outputs": [
        {
          "internalType": "bool",
          "name": "",
          "type": "bool"
        }
      ],
      "stateMutability": "view",
      "type": "function"
    },
    {
      "inputs": [
        {
          "internalType": "uint256",
          "name": "_coverageAmount",
          "type": "uint256"
        }
      ],
      "name": "checkCoverageByMLR",
      "outputs": [
        {
          "internalType": "bool",
          "name": "",
          "type": "bool"
        }
      ],
      "stateMutability": "view",
      "type": "function"
    },
    {
      "inputs": [
        {
          "internalType": "address",
          "name": "",
          "type": "address"
        },
        {
          "internalType": "uint256",
          "name": "",
          "type": "uint256"
        }
      ],
      "name": "claimedAmount",
      "outputs": [
        {
          "internalType": "uint256",
          "name": "",
          "type": "uint256"
        }
      ],
      "stateMutability": "view",
      "type": "function"
    },
    {
      "inputs": [],
      "name": "exchangeAgent",
      "outputs": [
        {
          "internalType": "address",
          "name": "",
          "type": "address"
        }
      ],
      "stateMutability": "view",
      "type": "function"
    },
    {
      "inputs": [],
      "name": "getPolicyInfo",
      "outputs": [
        {
          "internalType": "address",
          "name": "",
          "type": "address"
        },
        {
          "internalType": "uint256",
          "name": "",
          "type": "uint256"
        },
        {
          "internalType": "bool",
          "name": "",
          "type": "bool"
        }
      ],
      "stateMutability": "view",
      "type": "function"
    },
    {
      "inputs": [
        {
          "internalType": "bytes32",
          "name": "role",
          "type": "bytes32"
        }
      ],
      "name": "getRoleAdmin",
      "outputs": [
        {
          "internalType": "bytes32",
          "name": "",
          "type": "bytes32"
        }
      ],
      "stateMutability": "view",
      "type": "function"
    },
    {
      "inputs": [
        {
          "internalType": "bytes32",
          "name": "role",
          "type": "bytes32"
        },
        {
          "internalType": "address",
          "name": "account",
          "type": "address"
        }
      ],
      "name": "grantRole",
      "outputs": [],
      "stateMutability": "nonpayable",
      "type": "function"
    },
    {
      "inputs": [
        {
          "internalType": "bytes32",
          "name": "role",
          "type": "bytes32"
        },
        {
          "internalType": "address",
          "name": "account",
          "type": "address"
        }
      ],
      "name": "hasRole",
      "outputs": [
        {
          "internalType": "bool",
          "name": "",
          "type": "bool"
        }
      ],
      "stateMutability": "view",
      "type": "function"
    },
    {
      "inputs": [
        {
          "internalType": "address",
          "name": "_exchangeAgent",
          "type": "address"
        },
        {
          "internalType": "address",
          "name": "_USDC_TOKEN",
          "type": "address"
        },
        {
          "internalType": "address",
          "name": "_multiSigWallet",
          "type": "address"
        },
        {
          "internalType": "address",
          "name": "_operator",
          "type": "address"
        }
      ],
      "name": "initialize",
      "outputs": [],
      "stateMutability": "nonpayable",
      "type": "function"
    },
    {
      "inputs": [
        {
          "internalType": "uint256",
          "name": "_policyId",
          "type": "uint256"
        }
      ],
      "name": "markToClaimPolicy",
      "outputs": [],
      "stateMutability": "nonpayable",
      "type": "function"
    },
    {
      "inputs": [],
      "name": "operator",
      "outputs": [
        {
          "internalType": "address",
          "name": "",
          "type": "address"
        }
      ],
      "stateMutability": "view",
      "type": "function"
    },
    {
      "inputs": [],
      "name": "policyInfo",
      "outputs": [
        {
          "internalType": "address",
          "name": "policy",
          "type": "address"
        },
        {
          "internalType": "uint256",
          "name": "utilizedAmount",
          "type": "uint256"
        },
        {
          "internalType": "bool",
          "name": "exist",
          "type": "bool"
        }
      ],
      "stateMutability": "view",
      "type": "function"
    },
    {
      "inputs": [
        {
          "internalType": "uint256",
          "name": "_coverageAmount",
          "type": "uint256"
        }
      ],
      "name": "policySale",
      "outputs": [],
      "stateMutability": "nonpayable",
      "type": "function"
    },
    {
      "inputs": [
        {
          "internalType": "address",
          "name": "",
          "type": "address"
        }
      ],
      "name": "poolInfo",
      "outputs": [
        {
          "internalType": "uint256",
          "name": "totalCapital",
          "type": "uint256"
        },
        {
          "internalType": "uint256",
          "name": "SCR",
          "type": "uint256"
        },
        {
          "internalType": "address",
          "name": "currency",
          "type": "address"
        },
        {
          "internalType": "bool",
          "name": "exist",
          "type": "bool"
        }
      ],
      "stateMutability": "view",
      "type": "function"
    },
    {
      "inputs": [
        {
          "internalType": "address",
          "name": "",
          "type": "address"
        }
      ],
      "name": "poolWhiteList",
      "outputs": [
        {
          "internalType": "bool",
          "name": "",
          "type": "bool"
        }
      ],
      "stateMutability": "view",
      "type": "function"
    },
    {
      "inputs": [],
      "name": "removePolicy",
      "outputs": [],
      "stateMutability": "nonpayable",
      "type": "function"
    },
    {
      "inputs": [
        {
          "internalType": "address",
          "name": "_ssip",
          "type": "address"
        }
      ],
      "name": "removePool",
      "outputs": [],
      "stateMutability": "nonpayable",
      "type": "function"
    },
    {
      "inputs": [
        {
          "internalType": "address",
          "name": "_pool",
          "type": "address"
        }
      ],
      "name": "removePoolWhiteList",
      "outputs": [],
      "stateMutability": "nonpayable",
      "type": "function"
    },
    {
      "inputs": [
        {
          "internalType": "bytes32",
          "name": "role",
          "type": "bytes32"
        },
        {
          "internalType": "address",
          "name": "callerConfirmation",
          "type": "address"
        }
      ],
      "name": "renounceRole",
      "outputs": [],
      "stateMutability": "nonpayable",
      "type": "function"
    },
    {
      "inputs": [
        {
          "internalType": "bytes32",
          "name": "role",
          "type": "bytes32"
        },
        {
          "internalType": "address",
          "name": "account",
          "type": "address"
        }
      ],
      "name": "revokeRole",
      "outputs": [],
      "stateMutability": "nonpayable",
      "type": "function"
    },
    {
      "inputs": [],
      "name": "salesPolicyFactory",
      "outputs": [
        {
          "internalType": "address",
          "name": "",
          "type": "address"
        }
      ],
      "stateMutability": "view",
      "type": "function"
    },
    {
      "inputs": [
        {
          "internalType": "address",
          "name": "_exchangeAgent",
          "type": "address"
        }
      ],
      "name": "setExchangeAgent",
      "outputs": [],
      "stateMutability": "nonpayable",
      "type": "function"
    },
    {
      "inputs": [
        {
          "internalType": "uint256",
          "name": "_MCR",
          "type": "uint256"
        }
      ],
      "name": "setMCR",
      "outputs": [],
      "stateMutability": "nonpayable",
      "type": "function"
    },
    {
      "inputs": [
        {
          "internalType": "uint256",
          "name": "_MLR",
          "type": "uint256"
        }
      ],
      "name": "setMLR",
      "outputs": [],
      "stateMutability": "nonpayable",
      "type": "function"
    },
    {
      "inputs": [
        {
          "internalType": "address",
          "name": "_operator",
          "type": "address"
        }
      ],
      "name": "setOperator",
      "outputs": [],
      "stateMutability": "nonpayable",
      "type": "function"
    },
    {
      "inputs": [
        {
          "internalType": "address",
          "name": "_policy",
          "type": "address"
        }
      ],
      "name": "setPolicy",
      "outputs": [],
      "stateMutability": "nonpayable",
      "type": "function"
    },
    {
      "inputs": [
        {
          "internalType": "address",
          "name": "_policy",
          "type": "address"
        }
      ],
      "name": "setPolicyByAdmin",
      "outputs": [],
      "stateMutability": "nonpayable",
      "type": "function"
    },
    {
      "inputs": [
        {
          "internalType": "uint256",
          "name": "_SCR",
          "type": "uint256"
        },
        {
          "internalType": "address",
          "name": "_pool",
          "type": "address"
        }
      ],
      "name": "setSCR",
      "outputs": [],
      "stateMutability": "nonpayable",
      "type": "function"
    },
    {
      "inputs": [
        {
          "internalType": "address",
          "name": "_factory",
          "type": "address"
        }
      ],
      "name": "setSalesPolicyFactory",
      "outputs": [],
      "stateMutability": "nonpayable",
      "type": "function"
    },
    {
      "inputs": [
        {
          "internalType": "address",
          "name": "_usdcToken",
          "type": "address"
        }
      ],
      "name": "setUSDCToken",
      "outputs": [],
      "stateMutability": "nonpayable",
      "type": "function"
    },
    {
      "inputs": [
        {
          "internalType": "bytes4",
          "name": "interfaceId",
          "type": "bytes4"
        }
      ],
      "name": "supportsInterface",
      "outputs": [
        {
          "internalType": "bool",
          "name": "",
          "type": "bool"
        }
      ],
      "stateMutability": "view",
      "type": "function"
    },
    {
      "inputs": [],
      "name": "totalCapitalStaked",
      "outputs": [
        {
          "internalType": "uint256",
          "name": "",
          "type": "uint256"
        }
      ],
      "stateMutability": "view",
      "type": "function"
    },
    {
      "inputs": [],
      "name": "totalUtilizedAmount",
      "outputs": [
        {
          "internalType": "uint256",
          "name": "",
          "type": "uint256"
        }
      ],
      "stateMutability": "view",
      "type": "function"
    },
    {
      "inputs": [
        {
          "internalType": "uint256",
          "name": "_policyId",
          "type": "uint256"
        }
      ],
      "name": "updatePolicyStatus",
      "outputs": [],
      "stateMutability": "nonpayable",
      "type": "function"
    },
    {
      "inputs": [],
      "name": "usdcToken",
      "outputs": [
        {
          "internalType": "address",
          "name": "",
          "type": "address"
        }
      ],
      "stateMutability": "view",
      "type": "function"
    }
  ],
  "transactionHash": "0x979d1e85aafb9c29f3f2ff23b9e3709e9802f0d5f4bedcf7475095afa5534c9b",
  "args": [],
  "numDeployments": 1,
  "solcInputHash": "805f75f5e326618e0af6cb56c124c05d",
  "bytecode": "0x608060405234801561001057600080fd5b50612cd8806100206000396000f3fe608060405234801561001057600080fd5b506004361061028a5760003560e01c80637d4163d31161015c578063a65888fb116100ce578063d4688a4511610087578063d4688a451461066e578063d547741f14610677578063d8c5c8631461068a578063d9203b911461069d578063f8c8765e146106b0578063fb6cb847146106c357600080fd5b8063a65888fb146105fc578063a88d2f7a1461060f578063b3ab15fb14610622578063be22041b14610635578063c139b04f14610648578063c3ea3a281461065b57600080fd5b806391d148541161012057806391d148541461053357806392ff38ec14610546578063974e4d851461054e5780639a7b5f111461056c578063a0931af2146105e1578063a217fddf146105f457600080fd5b80637d4163d3146104de5780637e29d6c2146104f1578063869bd44a146105045780638bb70831146105175780638be5a39f1461052057600080fd5b8063385a128f11610200578063570ca735116101b9578063570ca7351461047f5780635b44d5761461049257806365cb3a83146104a5578063706c2d1b146104ad57806375b238fc146104c0578063794e5724146104d557600080fd5b8063385a128f146103ad5780633b7d0946146103c05780633fecfbf2146103d35780634a3a3d14146104325780634dc70bac1461044557806355b4b1a41461045457600080fd5b80631dfa426d116102525780631dfa426d1461031d578063248a9ca31461033057806325042fe9146103515780632f2ff15d1461037457806336568abe1461038757806336760a1c1461039a57600080fd5b806301ffc9a71461028f5780630d757531146102b75780630f5a9d01146102cc57806311eac855146102df57806318a00d8e1461030a575b600080fd5b6102a261029d36600461292e565b6106d6565b60405190151581526020015b60405180910390f35b6102ca6102c5366004612974565b61070d565b005b6102ca6102da3660046129a0565b6107f2565b6002546102f2906001600160a01b031681565b6040516001600160a01b0390911681526020016102ae565b6102ca6103183660046129a0565b6108b7565b6102ca61032b3660046129a0565b61095a565b61034361033e3660046129bb565b610a1b565b6040519081526020016102ae565b6102a261035f3660046129a0565b600e6020526000908152604090205460ff1681565b6102ca610382366004612974565b610a3d565b6102ca610395366004612974565b610a5f565b6001546102f2906001600160a01b031681565b6102ca6103bb3660046129bb565b610a97565b6102ca6103ce3660046129a0565b610b53565b61040b604080516060810182526008546001600160a01b031680825260095460208301819052600a5460ff1615159290930182905292565b604080516001600160a01b03909416845260208401929092521515908201526060016102ae565b6102ca6104403660046129a0565b610cb1565b610343670de0b6b3a764000081565b6103436104623660046129d4565b600f60209081526000928352604080842090915290825290205481565b6003546102f2906001600160a01b031681565b6102ca6104a03660046129bb565b610d7e565b6102ca610e29565b6102ca6104bb3660046129fe565b610ef7565b610343600080516020612c8383398151915281565b610343600c5481565b6102ca6104ec3660046129a0565b6110e0565b6102ca6104ff3660046129fe565b611217565b6102ca6105123660046129bb565b611415565b610343600d5481565b6102ca61052e3660046129bb565b6114bc565b6102a2610541366004612974565b611509565b610343611541565b600854600954600a5461040b926001600160a01b0316919060ff1683565b6105b061057a3660046129a0565b6004602052600090815260409020805460018201546002909201549091906001600160a01b03811690600160a01b900460ff1684565b6040516102ae949392919093845260208401929092526001600160a01b031660408301521515606082015260800190565b6102ca6105ef3660046129bb565b611550565b610343600081565b6102ca61060a3660046129a0565b61165d565b6102ca61061d3660046129a0565b61178d565b6102ca6106303660046129a0565b611852565b6102ca6106433660046129bb565b611917565b6102a26106563660046129d4565b611ac1565b6102a26106693660046129bb565b611ad4565b610343600b5481565b6102ca610685366004612974565b611adf565b6102ca6106983660046129bb565b611afb565b6000546102f2906001600160a01b031681565b6102ca6106be366004612a3a565b611ba8565b6102ca6106d1366004612a9c565b611e47565b60006001600160e01b03198216637965db0b60e01b148061070757506301ffc9a760e01b6001600160e01b03198316145b92915050565b6003546001600160a01b031633146107405760405162461bcd60e51b815260040161073790612ad5565b60405180910390fd5b610748611eac565b6000821161078a5760405162461bcd60e51b815260206004820152600f60248201526e2ab737a9329d103d32b9379039b1b960891b6044820152606401610737565b6001600160a01b0381166000818152600460205260409081902060010184905551309033907fade0e16d2bd0d685eef1e5355dc835692faac192ef62225adb31cd0c0b99c8a8906107de9087815260200190565b60405180910390a46107ee611ef6565b5050565b600080516020612c8383398151915261080a81611f1c565b610812611eac565b6001600160a01b0382166108685760405162461bcd60e51b815260206004820152601860248201527f556e6f52653a207a65726f2075736463206164647265737300000000000000006044820152606401610737565b600280546001600160a01b0319166001600160a01b0384169081179091556040517f103c5bd4d1fbed26f9d95c639ecfb64bbece2b8f7d599a45f9aaab41c3e9ded090600090a26107ee611ef6565b600080516020612c838339815191526108cf81611f1c565b6108d7611eac565b6001600160a01b0382166108fd5760405162461bcd60e51b815260040161073790612b0c565b600080546001600160a01b0319166001600160a01b038416908117909155604051908152309033907f28e0ff29ad991f2655c48b0b095a69abbf13aec6c8bc181dd526dbb3f8c9d0b99060200160405180910390a36107ee611ef6565b600080516020612c8383398151915261097281611f1c565b61097a611eac565b6001600160a01b0382166109a05760405162461bcd60e51b815260040161073790612b0c565b604080516060810182526001600160a01b0384168082526000602083018190526001928401839052600880546001600160a01b031916831790556009819055600a805460ff191690931790925591517f8ba1947a8c64577d7adbd8cbc248c72b68738fe23afef984d842ba5ec5af5cfe9190a26107ee611ef6565b6000908152600080516020612c63833981519152602052604090206001015490565b610a4682610a1b565b610a4f81611f1c565b610a598383611f26565b50505050565b6001600160a01b0381163314610a885760405163334bd91960e11b815260040160405180910390fd5b610a928282611fcb565b505050565b6003546001600160a01b03163314610ac15760405162461bcd60e51b815260040161073790612ad5565b610ac9611eac565b60008111610b0b5760405162461bcd60e51b815260206004820152600f60248201526e2ab737a9329d103d32b9379036b1b960891b6044820152606401610737565b600c819055604051818152309033907fa55ee73f4232498ac4c250ffa77f4337343a213648a66147d8848f6660fa3fdf906020015b60405180910390a3610b50611ef6565b50565b600080516020612c83833981519152610b6b81611f1c565b610b73611eac565b6001600160a01b038216600090815260046020526040902060020154600160a01b900460ff16610bdb5760405162461bcd60e51b8152602060048201526013602482015272155b9bd4994e881b9bc8195e1a5d081c1bdbdb606a1b6044820152606401610737565b6001600160a01b03821660009081526004602052604090205415610c50576001600160a01b0380831660009081526004602090815260408083206002810154905494168084526007909252909120549091610c3591612b4f565b6001600160a01b039091166000908152600760205260409020555b6001600160a01b0382166000818152600460205260408082208281556001810183905560020180546001600160a81b0319169055517ff54e47602c09e6190ae0c9cba6074e2e211bf36944fd714fbb0bd78aba514cab9190a26107ee611ef6565b600080516020612c83833981519152610cc981611f1c565b610cd1611eac565b6001600160a01b0382166000908152600e602052604090205460ff16610d305760405162461bcd60e51b8152602060048201526014602482015273155b9bd4994e881b9bc81dda1a5d19481b1a5cdd60621b6044820152606401610737565b6001600160a01b0382166000818152600e6020526040808220805460ff19169055517f4151e001c03bfed83a194d10eea2c0edf04f98e382c440c94a947a99d38d2c329190a26107ee611ef6565b610d86611eac565b33600090815260046020526040902060020154600160a01b900460ff16610dbf5760405162461bcd60e51b815260040161073790612b62565b610dc93382612047565b610e155760405162461bcd60e51b815260206004820181905260248201527f556e6f52653a206d696e696d756d206361706974616c20756e646572666c6f776044820152606401610737565b610e2133826000612134565b610b50611ef6565b600080516020612c83833981519152610e4181611f1c565b610e49611eac565b600a5460ff16610e915760405162461bcd60e51b8152602060048201526013602482015272155b9bd4994e881b9bc8195e1a5d081c1bdbdb606a1b6044820152606401610737565b6000600b819055600880546001600160a01b03198116909155600a805460ff1916905560098290556040516001600160a01b039091169182917fffb315d96bed6cc0b00a9cc39d15fcbcab7d047fca09660a2d73569cfc75817c9190a250610b50611ef6565b600080516020612c83833981519152610f0f81611f1c565b6001600160a01b038416610f355760405162461bcd60e51b815260040161073790612b0c565b6001600160a01b038416600090815260046020526040902060020154600160a01b900460ff1615610fa45760405162461bcd60e51b8152602060048201526019602482015278155b9bd4994e88185b1c9958591e48195e1a5cdd081c1bdbdb603a1b6044820152606401610737565b6001600160a01b03831660009081526006602052604081205460ff161515900361102e576001600160a01b0383166000818152600660205260408120805460ff191660019081179091556005805491820181559091527f036b6384b5eca791c62761152d0c79bb0604c104a5fb6f4eb0703f3154bb3db00180546001600160a01b03191690911790555b60408051608081018252600080825260208083018681526001600160a01b038881168587018181526001606088018181528d851680895260048852978a902098518955945190880155516002909601805493511515600160a01b026001600160a81b0319909416969092169590951791909117905583519283528201859052917f4135167fcda3c31ddaa41eecaaa00c3e3ba8aabf49d039cfad433be34bf659ab91015b60405180910390a250505050565b6110e8611eac565b600a5460ff16156111325760405162461bcd60e51b8152602060048201526014602482015273556e6f52653a20506f6c6963792065786973747360601b6044820152606401610737565b6001546001600160a01b0316331461119c5760405162461bcd60e51b815260206004820152602760248201527f556e6f52653a206f6e6c792073616c6573506f6c696379466163746f72792063604482015266185b8818d85b1b60ca1b6064820152608401610737565b604080516060810182526001600160a01b0383168082526000602083018190526001928401839052600880546001600160a01b031916831790556009819055600a805460ff191690931790925591517f8ba1947a8c64577d7adbd8cbc248c72b68738fe23afef984d842ba5ec5af5cfe9190a2610b50611ef6565b336000908152600e602052604090205460ff166112465760405162461bcd60e51b815260040161073790612ad5565b6001600160a01b03831661126c5760405162461bcd60e51b815260040161073790612b0c565b6001600160a01b038316600090815260046020526040902060020154600160a01b900460ff16156112db5760405162461bcd60e51b8152602060048201526019602482015278155b9bd4994e88185b1c9958591e48195e1a5cdd081c1bdbdb603a1b6044820152606401610737565b6001600160a01b03821660009081526006602052604081205460ff1615159003611365576001600160a01b0382166000818152600660205260408120805460ff191660019081179091556005805491820181559091527f036b6384b5eca791c62761152d0c79bb0604c104a5fb6f4eb0703f3154bb3db00180546001600160a01b03191690911790555b60408051608081018252600080825260208083018581526001600160a01b038781168587018181526001606088018181528c851680895260048852978a902098518955945190880155516002909601805493511515600160a01b026001600160a81b0319909416969092169590951791909117905583519283528201849052917f4135167fcda3c31ddaa41eecaaa00c3e3ba8aabf49d039cfad433be34bf659ab910160405180910390a2505050565b600080516020612c8383398151915261142d81611f1c565b611435611eac565b600854604051637a5402e960e01b8152600481018490526000916001600160a01b031690637a5402e99060240160a060405180830381865afa15801561147f573d6000803e3d6000fd5b505050506040513d601f19601f820116820180604052508101906114a39190612b90565b5050505090506114b383826122e3565b506107ee611ef6565b6114c4611eac565b33600090815260046020526040902060020154600160a01b900460ff166114fd5760405162461bcd60e51b815260040161073790612b62565b610e2133826001612134565b6000918252600080516020612c63833981519152602090815260408084206001600160a01b0393909316845291905290205460ff1690565b600061154b6123eb565b905090565b611558611eac565b6008546001600160a01b031633146115b25760405162461bcd60e51b815260206004820181905260248201527f556e6f52653a206f6e6c792073616c6573506f6c6963792063616e2063616c6c6044820152606401610737565b600a5460ff166115fd5760405162461bcd60e51b8152602060048201526016602482015275556e6f52653a206e6f20657869737420706f6c69637960501b6044820152606401610737565b6116068161245e565b6116525760405162461bcd60e51b815260206004820181905260248201527f556e6f52653a206d6178696d756d206c65766572616765206f766572666c6f776044820152606401610737565b610e218160016124a3565b600080516020612c8383398151915261167581611f1c565b61167d611eac565b6001600160a01b0382166116d35760405162461bcd60e51b815260206004820152601860248201527f556e6f52653a207a65726f20706f6f6c206164647265737300000000000000006044820152606401610737565b6001600160a01b0382166000908152600e602052604090205460ff161561173c5760405162461bcd60e51b815260206004820152601960248201527f556e6f52653a207768697465206c69737420616c7265616479000000000000006044820152606401610737565b6001600160a01b0382166000818152600e6020526040808220805460ff19166001179055517f398e8e2ed05e6be725398a28e81fdf023a447b92941bd666e68ce2091b82bcc79190a26107ee611ef6565b600080516020612c838339815191526117a581611f1c565b6117ad611eac565b6001600160a01b0382166118035760405162461bcd60e51b815260206004820152601b60248201527f556e6f52653a207a65726f20666163746f7279206164647265737300000000006044820152606401610737565b600180546001600160a01b0319166001600160a01b0384169081179091556040517f6507596e94e343212d1c22479359f82fffb65f099deb3ebcae9eb33c3d06de9e90600090a26107ee611ef6565b600080516020612c8383398151915261186a81611f1c565b611872611eac565b6001600160a01b0382166118c85760405162461bcd60e51b815260206004820152601c60248201527f556e6f52653a207a65726f206f70657261746f722061646472657373000000006044820152606401610737565b600380546001600160a01b0319166001600160a01b0384169081179091556040517f08c5d29613b4e7468e893fe5f104f5a3ea6e28298f00fbbab9dc9394578c89de90600090a26107ee611ef6565b61191f611eac565b6008546001600160a01b03166119775760405162461bcd60e51b815260206004820152601b60248201527f556e6f52653a206e6f2065786973742073616c6573506f6c69637900000000006044820152606401610737565b600854604051637a5402e960e01b815260048101839052600091829182916001600160a01b031690637a5402e99060240160a060405180830381865afa1580156119c5573d6000803e3d6000fd5b505050506040513d601f19601f820116820180604052508101906119e99190612b90565b5050925092509250600081836119ff9190612be7565b421080159150611ab557611a148460006124a3565b6008546040516352eaf0a160e11b8152600481018790526001600160a01b039091169063a5d5e14290602401600060405180830381600087803b158015611a5a57600080fd5b505af1158015611a6e573d6000803e3d6000fd5b50506008546040518881526001600160a01b0390911692507faf1c77a8196c946ab8e645210cd1e2685b4fb758ddfd474fd918298854dea6fc915060200160405180910390a25b50505050610b50611ef6565b6000611acd8383612047565b9392505050565b60006107078261245e565b611ae882610a1b565b611af181611f1c565b610a598383611fcb565b6003546001600160a01b03163314611b255760405162461bcd60e51b815260040161073790612ad5565b611b2d611eac565b60008111611b6f5760405162461bcd60e51b815260206004820152600f60248201526e2ab737a9329d103d32b9379036b63960891b6044820152606401610737565b600d819055604051818152309033907fb2f30bd42a6b499419a01b9b79e7b98934167f5a8a8c389ce446e20a8e5df76590602001610b40565b7ff0c57e16840df040f15088dc2f81fe391c3923bec73e23a9662efc9c229c6a008054600160401b810460ff16159067ffffffffffffffff16600081158015611bee5750825b905060008267ffffffffffffffff166001148015611c0b5750303b155b905081158015611c19575080155b15611c375760405163f92ee8a960e01b815260040160405180910390fd5b845467ffffffffffffffff191660011785558315611c6157845460ff60401b1916600160401b1785555b6001600160a01b038916611cc15760405162461bcd60e51b815260206004820152602160248201527f556e6f52653a207a65726f2065786368616e67654167656e74206164647265736044820152607360f81b6064820152608401610737565b6001600160a01b038816611d175760405162461bcd60e51b815260206004820152601860248201527f556e6f52653a207a65726f2055534443206164647265737300000000000000006044820152606401610737565b6001600160a01b038716611d785760405162461bcd60e51b815260206004820152602260248201527f556e6f52653a207a65726f206d756c746973696777616c6c6574206164647265604482015261737360f01b6064820152608401610737565b600080546001600160a01b03808c166001600160a01b031992831617909255600280548b84169083161790556003805492891692909116919091179055611dbd61259d565b611dc56125af565b611ddd600080516020612c8383398151915288611f26565b50611df6600080516020612c83833981519152806125b7565b8315611e3c57845460ff60401b19168555604051600181527fc7f505b2f371ae2175ee4913f4499e1f2633a7b5936321eed1cdaeb6115181d29060200160405180910390a15b505050505050505050565b611e4f611eac565b33600090815260046020526040902060020154600160a01b900460ff16611e885760405162461bcd60e51b815260040161073790612b62565b611e9433846000612134565b8015611ea457611ea4838361261a565b610a92611ef6565b7f9b779b17422d0df92223018b32b4d1fa46e071723d6817e2486d003becc55f00805460011901611ef057604051633ee5aeb560e01b815260040160405180910390fd5b60029055565b60017f9b779b17422d0df92223018b32b4d1fa46e071723d6817e2486d003becc55f0055565b610b508133612771565b6000600080516020612c63833981519152611f418484611509565b611fc1576000848152602082815260408083206001600160a01b03871684529091529020805460ff19166001179055611f773390565b6001600160a01b0316836001600160a01b0316857f2f8788117e7eff1d82e926ec794901d17c78024a50270940304540a733656f0d60405160405180910390a46001915050610707565b6000915050610707565b6000600080516020612c63833981519152611fe68484611509565b15611fc1576000848152602082815260408083206001600160a01b0387168085529252808320805460ff1916905551339287917ff6391f5c32d9c69d2a47ea670b442974b53935d1edc7fd64eb21e047a839171b9190a46001915050610707565b6001600160a01b038083166000908152600460205260408120600201549091168180806120726123eb565b6001600160a01b0385166000908152600760205260409020549093506120a490859061209f908990612b4f565b6127aa565b6001600160a01b0388166000908152600460205260409020549092506120d190859061209f908990612b4f565b90506000670de0b6b3a7640000600c54856120ec9190612bfa565b6120f69190612c11565b6001600160a01b03891660009081526004602052604090206001015490841080159250908310159082906121275750805b9998505050505050505050565b806121a1576001600160a01b0383166000908152600460205260409020548211156121a15760405162461bcd60e51b815260206004820152601c60248201527f556e6f52653a20706f6f6c206361706974616c206f766572666c6f77000000006044820152606401610737565b6001600160a01b0380841660009081526004602052604090206002015416816121ed576001600160a01b0384166000908152600460205260409020546121e8908490612b4f565b612211565b6001600160a01b038416600090815260046020526040902054612211908490612be7565b6001600160a01b03851660009081526004602052604090205581612258576001600160a01b038116600090815260076020526040902054612253908490612b4f565b61227c565b6001600160a01b03811660009081526007602052604090205461227c908490612be7565b6001600160a01b038281166000818152600760208181526040808420879055948a1680845260048252858420549490935290815283519283528201939093527f4c54f63d510ce2f2f9bf99bf203458cb67aa75fae97ccab560a1654eba9dbf2491016110d2565b6008546001600160a01b031661233b5760405162461bcd60e51b815260206004820152601b60248201527f556e6f52653a206e6f2065786973742073616c6573506f6c69637900000000006044820152606401610737565b6123468160006124a3565b6008546040516319d9b48f60e11b8152600481018490526001600160a01b03909116906333b3691e90602401600060405180830381600087803b15801561238c57600080fd5b505af11580156123a0573d6000803e3d6000fd5b50506008546040518581526001600160a01b0390911692507f56b46e5b13fdb3c0b1989f448e91b2ad68cf0c8e8ddd87f996720708ae3a156991506020015b60405180910390a25050565b60008060005b6005548110156124585760006005828154811061241057612410612c33565b60009182526020808320909101546001600160a01b031680835260079091526040909120549091506124439082906127aa565b61244d9084612be7565b9250506001016123f1565b50919050565b6000806124696123eb565b9050670de0b6b3a7640000600d54826124829190612bfa565b61248c9190612c11565b83600b5461249a9190612be7565b11159392505050565b806124fa576009548211156124fa5760405162461bcd60e51b815260206004820152601f60248201527f556e6f52653a20706f6c69637920636f766572616765206f766572666c6f77006044820152606401610737565b806125125760095461250d908390612b4f565b612520565b600954612520908390612be7565b6009558061253b5781600b546125369190612b4f565b612549565b81600b546125499190612be7565b600b8190556008546009546040805186815260208101929092528101929092526001600160a01b0316907facece99dd8b86cb96519fb17caded4d103b35a8261463d0d11f80a4114607300906060016123df565b6125a56128dd565b6125ad612926565b565b6125ad6128dd565b600080516020612c6383398151915260006125d184610a1b565b600085815260208490526040808220600101869055519192508491839187917fbd79b86ffe0ab8e8776151514217cd7cacd52c909f66475c3af44e129f0b00ff9190a450505050565b600854604051637a5402e960e01b8152600481018390526001600160a01b03909116906000908290637a5402e99060240160a060405180830381865afa158015612668573d6000803e3d6000fd5b505050506040513d601f19601f8201168201806040525081019061268c9190612b90565b505050506001600160a01b0383166000908152600f602090815260408083208784529091529020549091506126c18186612be7565b8210156127105760405162461bcd60e51b815260206004820152601e60248201527f556e6f52653a20636f76657261676520616d6f756e74206973206c65737300006044820152606401610737565b6001600160a01b0383166000908152600f6020908152604080832087845290915281208054879290612743908490612be7565b90915550600090506127558287612be7565b8311801591506127695761276985846122e3565b505050505050565b61277b8282611509565b6107ee5760405163e2517d3f60e01b81526001600160a01b038216600482015260248101839052604401610737565b60025460009081906001600160a01b03908116908516036127cc575081611acd565b6001600160a01b0384166128565760005460025460405163ba560ed960e01b81526001600160a01b0391821660048201526024810186905291169063ba560ed990604401602060405180830381865afa15801561282d573d6000803e3d6000fd5b505050506040513d601f19601f820116820180604052508101906128519190612c49565b6128d5565b600054600254604051631a44cdf360e11b81526001600160a01b0387811660048301529182166024820152604481018690529116906334899be690606401602060405180830381865afa1580156128b1573d6000803e3d6000fd5b505050506040513d601f19601f820116820180604052508101906128d59190612c49565b949350505050565b7ff0c57e16840df040f15088dc2f81fe391c3923bec73e23a9662efc9c229c6a0054600160401b900460ff166125ad57604051631afcd79f60e31b815260040160405180910390fd5b611ef66128dd565b60006020828403121561294057600080fd5b81356001600160e01b031981168114611acd57600080fd5b80356001600160a01b038116811461296f57600080fd5b919050565b6000806040838503121561298757600080fd5b8235915061299760208401612958565b90509250929050565b6000602082840312156129b257600080fd5b611acd82612958565b6000602082840312156129cd57600080fd5b5035919050565b600080604083850312156129e757600080fd5b6129f083612958565b946020939093013593505050565b600080600060608486031215612a1357600080fd5b612a1c84612958565b9250612a2a60208501612958565b9150604084013590509250925092565b60008060008060808587031215612a5057600080fd5b612a5985612958565b9350612a6760208601612958565b9250612a7560408601612958565b9150612a8360608601612958565b905092959194509250565b8015158114610b5057600080fd5b600080600060608486031215612ab157600080fd5b83359250602084013591506040840135612aca81612a8e565b809150509250925092565b6020808252601e908201527f556e6f52653a204361706974616c204167656e7420466f7262696464656e0000604082015260600190565b602080825260139082015272556e6f52653a207a65726f206164647265737360681b604082015260600190565b634e487b7160e01b600052601160045260246000fd5b8181038181111561070757610707612b39565b6020808252601490820152730556e6f52653a206e6f20657869737420737369760641b604082015260600190565b600080600080600060a08688031215612ba857600080fd5b8551945060208601519350604086015192506060860151612bc881612a8e565b6080870151909250612bd981612a8e565b809150509295509295909350565b8082018082111561070757610707612b39565b808202811582820484141761070757610707612b39565b600082612c2e57634e487b7160e01b600052601260045260246000fd5b500490565b634e487b7160e01b600052603260045260246000fd5b600060208284031215612c5b57600080fd5b505191905056fe02dd7bc7dec4dceedda775e58dd541e08a116c6c53815c0bd028192f7b626800a49807205ce4d355092ef5a8a18f56e8913cf4a201fbe287825b095693c21775a2646970667358221220d7ec96682abc739b33eebe79aa96df31fe0e9484a59747ea8fa09fc37453dd4964736f6c63430008170033",
  "devdoc": {
    "details": "update and manage all pools capital and policy utlized amount, whenever user stake and withdraw from the pool and buy policy from salesPolicy notifies to capital agent to update pool capital and policy coverage*",
    "errors": {
      "AccessControlBadConfirmation()": [
        {
          "details": "The caller of a function is not the expected one. NOTE: Don't confuse with {AccessControlUnauthorizedAccount}."
        }
      ],
      "AccessControlUnauthorizedAccount(address,bytes32)": [
        {
          "details": "The `account` is missing a role."
        }
      ],
      "InvalidInitialization()": [
        {
          "details": "The contract is already initialized."
        }
      ],
      "NotInitializing()": [
        {
          "details": "The contract is not initializing."
        }
      ],
      "ReentrancyGuardReentrantCall()": [
        {
          "details": "Unauthorized reentrant call."
        }
      ]
    },
    "events": {
      "Initialized(uint64)": {
        "details": "Triggered when the contract has been initialized or reinitialized."
      },
      "RoleAdminChanged(bytes32,bytes32,bytes32)": {
        "details": "Emitted when `newAdminRole` is set as ``role``'s admin role, replacing `previousAdminRole` `DEFAULT_ADMIN_ROLE` is the starting admin for all roles, despite {RoleAdminChanged} not being emitted signaling this."
      },
      "RoleGranted(bytes32,address,address)": {
        "details": "Emitted when `account` is granted `role`. `sender` is the account that originated the contract call, an admin role bearer except when using {AccessControl-_setupRole}."
      },
      "RoleRevoked(bytes32,address,address)": {
        "details": "Emitted when `account` is revoked `role`. `sender` is the account that originated the contract call:   - if using `revokeRole`, it is the admin role bearer   - if using `renounceRole`, it is the role bearer (i.e. `account`)"
      }
    },
    "kind": "dev",
    "methods": {
      "SSIPPolicyCaim(uint256,uint256,bool)": {
        "details": "update pool(caller) capital from capital agent, decrease capital of pool by _withdrawAmount, if user claim policy from pool ",
        "params": {
          "_withdrawAmount": "amount to withdraw*"
        }
      },
      "SSIPStaking(uint256)": {
        "details": "update pool(caller) capital from capital agent, increase capital of pool by _stakingAmount, if user stake in pool",
        "params": {
          "_stakingAmount": "amount to deposit*"
        }
      },
      "SSIPWithdraw(uint256)": {
        "details": "update pool(caller) capital from capital agent, decrease capital of pool by _withdrawAmount, if user withdraw from pool remaning pool capital and total capital staked from same currency should be greater pool SCR and MCR respectively",
        "params": {
          "_withdrawAmount": "amount to withdraw*"
        }
      },
      "addPool(address,address,uint256)": {
        "details": "add pool into capitalAgent to stake capital, can only be call by whitelisted pools",
        "params": {
          "_currency": "pool lp currency address",
          "_scr": "pool scr value(minimum capital should maintain in capital agent)*",
          "_ssip": "address of pool to add"
        }
      },
      "addPoolByAdmin(address,address,uint256)": {
        "details": "add pool into capitalAgent to stake capital, can only be call by admin role",
        "params": {
          "_currency": "pool lp currency address",
          "_scr": "pool scr value(minimum capital should maintain in capital agent)*",
          "_ssip": "address of pool to add"
        }
      },
      "addPoolWhiteList(address)": {
        "details": "whitelist pool address, can only be call by admin role",
        "params": {
          "_pool": "address of pool to whitelist*"
        }
      },
      "checkCapitalByMCR(address,uint256)": {
        "details": "return if pool can withdraw this amount, remaning pool capital and total capital staked from same currency should be greater pool SCR and MCR respectively",
        "params": {
          "_pool": "address of pool",
          "_withdrawAmount": "withdraw amount*"
        }
      },
      "checkCoverageByMLR(uint256)": {
        "details": "return if user can buy policy from this coverage amount,  total utlized amount plus coverage should be less than MLR of total capital staked",
        "params": {
          "_coverageAmount": "coverage amount*"
        }
      },
      "getRoleAdmin(bytes32)": {
        "details": "Returns the admin role that controls `role`. See {grantRole} and {revokeRole}. To change a role's admin, use {_setRoleAdmin}."
      },
      "grantRole(bytes32,address)": {
        "details": "Grants `role` to `account`. If `account` had not been already granted `role`, emits a {RoleGranted} event. Requirements: - the caller must have ``role``'s admin role. May emit a {RoleGranted} event."
      },
      "hasRole(bytes32,address)": {
        "details": "Returns `true` if `account` has been granted `role`."
      },
      "markToClaimPolicy(uint256)": {
        "details": "update policy status to not exist, can only be called by admin role",
        "params": {
          "_policyId": "policy id to update status*"
        }
      },
      "policySale(uint256)": {
        "details": "update policy coverage if user buy policy from SalesPolicy, only sales policy can call this function",
        "params": {
          "_coverageAmount": "coverage amount*"
        }
      },
      "removePolicy()": {
        "details": "remove sales policy from capital agent, can only be call by admin role*"
      },
      "removePool(address)": {
        "details": "remove pool from capitalAgent, can only be call by admin role",
        "params": {
          "_ssip": "address of pool to remove*"
        }
      },
      "removePoolWhiteList(address)": {
        "details": "remove whitelisted pool, can only be call by admin role",
        "params": {
          "_pool": "address of pool to remove from whitelist*"
        }
      },
      "renounceRole(bytes32,address)": {
        "details": "Revokes `role` from the calling account. Roles are often managed via {grantRole} and {revokeRole}: this function's purpose is to provide a mechanism for accounts to lose their privileges if they are compromised (such as when a trusted device is misplaced). If the calling account had been revoked `role`, emits a {RoleRevoked} event. Requirements: - the caller must be `callerConfirmation`. May emit a {RoleRevoked} event."
      },
      "revokeRole(bytes32,address)": {
        "details": "Revokes `role` from `account`. If `account` had been granted `role`, emits a {RoleRevoked} event. Requirements: - the caller must have ``role``'s admin role. May emit a {RoleRevoked} event."
      },
      "setExchangeAgent(address)": {
        "details": "set new exchange agent address, can only be called by admin role",
        "params": {
          "_exchangeAgent": "new exchange agent address*"
        }
      },
      "setMCR(uint256)": {
        "details": "set new MCR, can only be called by operator",
        "params": {
          "_MCR": "new value to update*"
        }
      },
      "setMLR(uint256)": {
        "details": "set new MLR, can only be called by operator",
        "params": {
          "_MLR": "new value to update*"
        }
      },
      "setOperator(address)": {
        "details": "set operator, can only be call by admin role",
        "params": {
          "_operator": "new operator address*"
        }
      },
      "setPolicy(address)": {
        "details": "set sales policy, can only be call by SalesPolicyFactory",
        "params": {
          "_policy": "address of new SalesPolicy*"
        }
      },
      "setPolicyByAdmin(address)": {
        "details": "set sales policy, can only be call by admin role",
        "params": {
          "_policy": "address of new SalesPolicy*"
        }
      },
      "setSCR(uint256,address)": {
        "details": "set new SCR of pool, can only be called by operator",
        "params": {
          "_SCR": "new value to update",
          "_pool": "address of pool*"
        }
      },
      "setSalesPolicyFactory(address)": {
        "details": "set sales policy factory, can only be call by admin role",
        "params": {
          "_factory": "new sales policy factory address*"
        }
      },
      "setUSDCToken(address)": {
        "details": "set usdc token, can only be call by admin role",
        "params": {
          "_usdcToken": "new usdc token address*"
        }
      },
      "supportsInterface(bytes4)": {
        "details": "See {IERC165-supportsInterface}."
      },
      "totalCapitalStaked()": {
        "details": "return total capital in usdc staked in capital agent by pools *"
      },
      "updatePolicyStatus(uint256)": {
        "details": "update policy status, if expired update policy coverage and notify to sales policy",
        "params": {
          "_policyId": "policy id to update status*"
        }
      }
    },
    "version": 1
  },
  "userdoc": {
    "kind": "user",
    "methods": {},
    "version": 1
  },
  "storageLayout": {
    "storage": [
      {
        "astId": 5648,
        "contract": "contracts/CapitalAgent.sol:CapitalAgent",
        "label": "exchangeAgent",
        "offset": 0,
        "slot": "0",
        "type": "t_address"
      },
      {
        "astId": 5650,
        "contract": "contracts/CapitalAgent.sol:CapitalAgent",
        "label": "salesPolicyFactory",
        "offset": 0,
        "slot": "1",
        "type": "t_address"
      },
      {
        "astId": 5652,
        "contract": "contracts/CapitalAgent.sol:CapitalAgent",
        "label": "usdcToken",
        "offset": 0,
        "slot": "2",
        "type": "t_address"
      },
      {
        "astId": 5654,
        "contract": "contracts/CapitalAgent.sol:CapitalAgent",
        "label": "operator",
        "offset": 0,
        "slot": "3",
        "type": "t_address"
      },
      {
        "astId": 5675,
        "contract": "contracts/CapitalAgent.sol:CapitalAgent",
        "label": "poolInfo",
        "offset": 0,
        "slot": "4",
        "type": "t_mapping(t_address,t_struct(PoolInfo)5663_storage)"
      },
      {
        "astId": 5678,
        "contract": "contracts/CapitalAgent.sol:CapitalAgent",
        "label": "currencyList",
        "offset": 0,
        "slot": "5",
        "type": "t_array(t_address)dyn_storage"
      },
      {
        "astId": 5682,
        "contract": "contracts/CapitalAgent.sol:CapitalAgent",
        "label": "existedCurrencies",
        "offset": 0,
        "slot": "6",
        "type": "t_mapping(t_address,t_bool)"
      },
      {
        "astId": 5686,
        "contract": "contracts/CapitalAgent.sol:CapitalAgent",
        "label": "totalCapitalStakedByCurrency",
        "offset": 0,
        "slot": "7",
        "type": "t_mapping(t_address,t_uint256)"
      },
      {
        "astId": 5689,
        "contract": "contracts/CapitalAgent.sol:CapitalAgent",
        "label": "policyInfo",
        "offset": 0,
        "slot": "8",
        "type": "t_struct(PolicyInfo)5670_storage"
      },
      {
        "astId": 5691,
        "contract": "contracts/CapitalAgent.sol:CapitalAgent",
        "label": "totalUtilizedAmount",
        "offset": 0,
        "slot": "11",
        "type": "t_uint256"
      },
      {
        "astId": 5693,
        "contract": "contracts/CapitalAgent.sol:CapitalAgent",
        "label": "MCR",
        "offset": 0,
        "slot": "12",
        "type": "t_uint256"
      },
      {
        "astId": 5695,
        "contract": "contracts/CapitalAgent.sol:CapitalAgent",
        "label": "MLR",
        "offset": 0,
        "slot": "13",
        "type": "t_uint256"
      },
      {
        "astId": 5702,
        "contract": "contracts/CapitalAgent.sol:CapitalAgent",
        "label": "poolWhiteList",
        "offset": 0,
        "slot": "14",
        "type": "t_mapping(t_address,t_bool)"
      },
      {
        "astId": 5708,
        "contract": "contracts/CapitalAgent.sol:CapitalAgent",
        "label": "claimedAmount",
        "offset": 0,
        "slot": "15",
        "type": "t_mapping(t_address,t_mapping(t_uint256,t_uint256))"
      }
    ],
    "types": {
      "t_address": {
        "encoding": "inplace",
        "label": "address",
        "numberOfBytes": "20"
      },
      "t_array(t_address)dyn_storage": {
        "base": "t_address",
        "encoding": "dynamic_array",
        "label": "address[]",
        "numberOfBytes": "32"
      },
      "t_bool": {
        "encoding": "inplace",
        "label": "bool",
        "numberOfBytes": "1"
      },
      "t_mapping(t_address,t_bool)": {
        "encoding": "mapping",
        "key": "t_address",
        "label": "mapping(address => bool)",
        "numberOfBytes": "32",
        "value": "t_bool"
      },
      "t_mapping(t_address,t_mapping(t_uint256,t_uint256))": {
        "encoding": "mapping",
        "key": "t_address",
        "label": "mapping(address => mapping(uint256 => uint256))",
        "numberOfBytes": "32",
        "value": "t_mapping(t_uint256,t_uint256)"
      },
      "t_mapping(t_address,t_struct(PoolInfo)5663_storage)": {
        "encoding": "mapping",
        "key": "t_address",
        "label": "mapping(address => struct CapitalAgent.PoolInfo)",
        "numberOfBytes": "32",
        "value": "t_struct(PoolInfo)5663_storage"
      },
      "t_mapping(t_address,t_uint256)": {
        "encoding": "mapping",
        "key": "t_address",
        "label": "mapping(address => uint256)",
        "numberOfBytes": "32",
        "value": "t_uint256"
      },
      "t_mapping(t_uint256,t_uint256)": {
        "encoding": "mapping",
        "key": "t_uint256",
        "label": "mapping(uint256 => uint256)",
        "numberOfBytes": "32",
        "value": "t_uint256"
      },
      "t_struct(PolicyInfo)5670_storage": {
        "encoding": "inplace",
        "label": "struct CapitalAgent.PolicyInfo",
        "members": [
          {
            "astId": 5665,
            "contract": "contracts/CapitalAgent.sol:CapitalAgent",
            "label": "policy",
            "offset": 0,
            "slot": "0",
            "type": "t_address"
          },
          {
            "astId": 5667,
            "contract": "contracts/CapitalAgent.sol:CapitalAgent",
            "label": "utilizedAmount",
            "offset": 0,
            "slot": "1",
            "type": "t_uint256"
          },
          {
            "astId": 5669,
            "contract": "contracts/CapitalAgent.sol:CapitalAgent",
            "label": "exist",
            "offset": 0,
            "slot": "2",
            "type": "t_bool"
          }
        ],
        "numberOfBytes": "96"
      },
      "t_struct(PoolInfo)5663_storage": {
        "encoding": "inplace",
        "label": "struct CapitalAgent.PoolInfo",
        "members": [
          {
            "astId": 5656,
            "contract": "contracts/CapitalAgent.sol:CapitalAgent",
            "label": "totalCapital",
            "offset": 0,
            "slot": "0",
            "type": "t_uint256"
          },
          {
            "astId": 5658,
            "contract": "contracts/CapitalAgent.sol:CapitalAgent",
            "label": "SCR",
            "offset": 0,
            "slot": "1",
            "type": "t_uint256"
          },
          {
            "astId": 5660,
            "contract": "contracts/CapitalAgent.sol:CapitalAgent",
            "label": "currency",
            "offset": 0,
            "slot": "2",
            "type": "t_address"
          },
          {
            "astId": 5662,
            "contract": "contracts/CapitalAgent.sol:CapitalAgent",
            "label": "exist",
            "offset": 20,
            "slot": "2",
            "type": "t_bool"
          }
        ],
        "numberOfBytes": "96"
      },
      "t_uint256": {
        "encoding": "inplace",
        "label": "uint256",
        "numberOfBytes": "32"
      }
    }
  }
}