{
  "address": "0x6c5D5cDB9F6330005A9D92E9838577A324aeB805",
  "abi": [
    {
      "inputs": [
        {
          "internalType": "address",
          "name": "_governance",
          "type": "address"
        }
      ],
      "stateMutability": "nonpayable",
      "type": "constructor"
    },
    {
      "inputs": [],
      "name": "AccessControlBadConfirmation",
      "type": "error"
    },
    {
      "inputs": [
        {
          "internalType": "address",
          "name": "account",
          "type": "address"
        },
        {
          "internalType": "bytes32",
          "name": "neededRole",
          "type": "bytes32"
        }
      ],
      "name": "AccessControlUnauthorizedAccount",
      "type": "error"
    },
    {
      "anonymous": false,
      "inputs": [
        {
          "indexed": true,
          "internalType": "uint256",
          "name": "_assertionId",
          "type": "uint256"
        }
      ],
      "name": "PolicyApproved",
      "type": "event"
    },
    {
      "anonymous": false,
      "inputs": [
        {
          "indexed": true,
          "internalType": "address",
          "name": "_user",
          "type": "address"
        },
        {
          "indexed": true,
          "internalType": "uint256",
          "name": "_assertionId",
          "type": "uint256"
        },
        {
          "indexed": true,
          "internalType": "address",
          "name": "_ssip",
          "type": "address"
        }
      ],
      "name": "PolicyClaimed",
      "type": "event"
    },
    {
      "anonymous": false,
      "inputs": [
        {
          "indexed": true,
          "internalType": "address",
          "name": "_ssip",
          "type": "address"
        },
        {
          "indexed": true,
          "internalType": "uint256",
          "name": "_assertionId",
          "type": "uint256"
        },
        {
          "indexed": true,
          "internalType": "uint256",
          "name": "_policyId",
          "type": "uint256"
        }
      ],
      "name": "PolicyRequested",
      "type": "event"
    },
    {
      "anonymous": false,
      "inputs": [
        {
          "indexed": true,
          "internalType": "bytes32",
          "name": "role",
          "type": "bytes32"
        },
        {
          "indexed": true,
          "internalType": "bytes32",
          "name": "previousAdminRole",
          "type": "bytes32"
        },
        {
          "indexed": true,
          "internalType": "bytes32",
          "name": "newAdminRole",
          "type": "bytes32"
        }
      ],
      "name": "RoleAdminChanged",
      "type": "event"
    },
    {
      "anonymous": false,
      "inputs": [
        {
          "indexed": true,
          "internalType": "bytes32",
          "name": "role",
          "type": "bytes32"
        },
        {
          "indexed": true,
          "internalType": "address",
          "name": "account",
          "type": "address"
        },
        {
          "indexed": true,
          "internalType": "address",
          "name": "sender",
          "type": "address"
        }
      ],
      "name": "RoleGranted",
      "type": "event"
    },
    {
      "anonymous": false,
      "inputs": [
        {
          "indexed": true,
          "internalType": "bytes32",
          "name": "role",
          "type": "bytes32"
        },
        {
          "indexed": true,
          "internalType": "address",
          "name": "account",
          "type": "address"
        },
        {
          "indexed": true,
          "internalType": "address",
          "name": "sender",
          "type": "address"
        }
      ],
      "name": "RoleRevoked",
      "type": "event"
    },
    {
      "inputs": [],
      "name": "DEFAULT_ADMIN_ROLE",
      "outputs": [
        {
          "internalType": "bytes32",
          "name": "",
          "type": "bytes32"
        }
      ],
      "stateMutability": "view",
      "type": "function"
    },
    {
      "inputs": [],
      "name": "GUARDIAN_COUNCIL_ROLE",
      "outputs": [
        {
          "internalType": "bytes32",
          "name": "",
          "type": "bytes32"
        }
      ],
      "stateMutability": "view",
      "type": "function"
    },
    {
      "inputs": [],
      "name": "PAYOUT_REQUEST_ROLE",
      "outputs": [
        {
          "internalType": "bytes32",
          "name": "",
          "type": "bytes32"
        }
      ],
      "stateMutability": "view",
      "type": "function"
    },
    {
      "inputs": [
        {
          "internalType": "uint256",
          "name": "_assertionId",
          "type": "uint256"
        }
      ],
      "name": "approvePolicy",
      "outputs": [],
      "stateMutability": "nonpayable",
      "type": "function"
    },
    {
      "inputs": [
        {
          "internalType": "uint256",
          "name": "",
          "type": "uint256"
        }
      ],
      "name": "assertion",
      "outputs": [
        {
          "internalType": "bool",
          "name": "approved",
          "type": "bool"
        },
        {
          "internalType": "bool",
          "name": "settled",
          "type": "bool"
        },
        {
          "internalType": "address",
          "name": "ssip",
          "type": "address"
        },
        {
          "internalType": "uint256",
          "name": "policyId",
          "type": "uint256"
        },
        {
          "internalType": "address",
          "name": "payoutAddress",
          "type": "address"
        },
        {
          "internalType": "uint256",
          "name": "insureAmount",
          "type": "uint256"
        }
      ],
      "stateMutability": "view",
      "type": "function"
    },
    {
      "inputs": [
        {
          "internalType": "uint256",
          "name": "_assertionId",
          "type": "uint256"
        }
      ],
      "name": "claimPolicy",
      "outputs": [],
      "stateMutability": "nonpayable",
      "type": "function"
    },
    {
      "inputs": [
        {
          "internalType": "bytes32",
          "name": "role",
          "type": "bytes32"
        }
      ],
      "name": "getRoleAdmin",
      "outputs": [
        {
          "internalType": "bytes32",
          "name": "",
          "type": "bytes32"
        }
      ],
      "stateMutability": "view",
      "type": "function"
    },
    {
      "inputs": [
        {
          "internalType": "bytes32",
          "name": "role",
          "type": "bytes32"
        },
        {
          "internalType": "address",
          "name": "account",
          "type": "address"
        }
      ],
      "name": "grantRole",
      "outputs": [],
      "stateMutability": "nonpayable",
      "type": "function"
    },
    {
      "inputs": [
        {
          "internalType": "bytes32",
          "name": "role",
          "type": "bytes32"
        },
        {
          "internalType": "address",
          "name": "account",
          "type": "address"
        }
      ],
      "name": "hasRole",
      "outputs": [
        {
          "internalType": "bool",
          "name": "",
          "type": "bool"
        }
      ],
      "stateMutability": "view",
      "type": "function"
    },
    {
      "inputs": [],
      "name": "lastIndex",
      "outputs": [
        {
          "internalType": "uint256",
          "name": "",
          "type": "uint256"
        }
      ],
      "stateMutability": "view",
      "type": "function"
    },
    {
      "inputs": [
        {
          "internalType": "bytes32",
          "name": "role",
          "type": "bytes32"
        },
        {
          "internalType": "address",
          "name": "callerConfirmation",
          "type": "address"
        }
      ],
      "name": "renounceRole",
      "outputs": [],
      "stateMutability": "nonpayable",
      "type": "function"
    },
    {
      "inputs": [
        {
          "internalType": "uint256",
          "name": "_policyId",
          "type": "uint256"
        },
        {
          "internalType": "address",
          "name": "_ssip",
          "type": "address"
        },
        {
          "internalType": "address",
          "name": "_to",
          "type": "address"
        },
        {
          "internalType": "uint256",
          "name": "_amount",
          "type": "uint256"
        }
      ],
      "name": "requestPolicyId",
      "outputs": [],
      "stateMutability": "nonpayable",
      "type": "function"
    },
    {
      "inputs": [
        {
          "internalType": "bytes32",
          "name": "role",
          "type": "bytes32"
        },
        {
          "internalType": "address",
          "name": "account",
          "type": "address"
        }
      ],
      "name": "revokeRole",
      "outputs": [],
      "stateMutability": "nonpayable",
      "type": "function"
    },
    {
      "inputs": [
        {
          "internalType": "bytes4",
          "name": "interfaceId",
          "type": "bytes4"
        }
      ],
      "name": "supportsInterface",
      "outputs": [
        {
          "internalType": "bool",
          "name": "",
          "type": "bool"
        }
      ],
      "stateMutability": "view",
      "type": "function"
    }
  ],
  "transactionHash": "0x3b316eab25e60b98dd9cb5342016503b5a8ffdd24d2c1b6afe3c5eade38ceb69",
  "args": [
    "0xedFFe0a06914c9D6083B4B099e5b935E9E84c9a5"
  ],
  "numDeployments": 2,
  "solcInputHash": "573b26df0e2054e8a098179caf9dccc1",
  "bytecode": "0x608060405234801561001057600080fd5b50604051610cba380380610cba83398101604081905261002f91610195565b610047600080516020610c9a8339815191528261009e565b506100807fcf9f1810ef810bbcc840ce0a6f6dc13392aee445bf3c072ad1e452aae75474f2600080516020610c9a83398151915261014a565b610098600080516020610c9a8339815191528061014a565b506101c5565b6000828152602081815260408083206001600160a01b038516845290915281205460ff16610140576000838152602081815260408083206001600160a01b03861684529091529020805460ff191660011790556100f83390565b6001600160a01b0316826001600160a01b0316847f2f8788117e7eff1d82e926ec794901d17c78024a50270940304540a733656f0d60405160405180910390a4506001610144565b5060005b92915050565b600082815260208190526040808220600101805490849055905190918391839186917fbd79b86ffe0ab8e8776151514217cd7cacd52c909f66475c3af44e129f0b00ff9190a4505050565b6000602082840312156101a757600080fd5b81516001600160a01b03811681146101be57600080fd5b9392505050565b610ac6806101d46000396000f3fe608060405234801561001057600080fd5b50600436106100ea5760003560e01c806362dd5fec1161008c578063b5714add11610066578063b5714add1461026f578063d531d94414610282578063d547741f146102a9578063f3f6f0d7146102bc57600080fd5b806362dd5fec1461024157806391d1485414610254578063a217fddf1461026757600080fd5b80632aea118d116100c85780632aea118d146101df5780632f2ff15d146101f457806336568abe14610207578063435bf32a1461021a57600080fd5b806301ffc9a7146100ef578063248a9ca3146101175780632a61f6b614610148575b600080fd5b6101026100fd366004610993565b6102c5565b60405190151581526020015b60405180910390f35b61013a6101253660046109c4565b60009081526020819052604090206001015490565b60405190815260200161010e565b6101a16101563660046109c4565b6002602081905260009182526040909120805460018201549282015460039092015460ff808316946101008404909116936001600160a01b0362010000909404841693919291169086565b60408051961515875294151560208701526001600160a01b0393841694860194909452606085019190915216608083015260a082015260c00161010e565b6101f26101ed3660046109c4565b6102fc565b005b6101f26102023660046109f9565b610453565b6101f26102153660046109f9565b61047e565b61013a7fcf9f1810ef810bbcc840ce0a6f6dc13392aee445bf3c072ad1e452aae75474f281565b6101f261024f3660046109c4565b6104b6565b6101026102623660046109f9565b610583565b61013a600081565b6101f261027d366004610a25565b6105ac565b61013a7f525f00f39e65e1c0c967e855509bb98a6cd037ce8b8a5f910c034f8ef97baa3b81565b6101f26102b73660046109f9565b610827565b61013a60015481565b60006001600160e01b03198216637965db0b60e01b14806102f657506301ffc9a760e01b6001600160e01b03198316145b92915050565b6000818152600260205260409020805460ff16801561032257508054610100900460ff16155b6103825760405162461bcd60e51b815260206004820152602660248201527f556e6f52653a206e6f7420617070726f766564206f7220616c72656164792073604482015265195d1d1b195960d21b60648201526084015b60405180910390fd5b805461ff00191661010017808255600182015460028301546003840154604051637f1873f360e11b815260048101939093526001600160a01b0391821660248401526044830152620100009092049091169063fe30e7e690606401600060405180830381600087803b1580156103f757600080fd5b505af115801561040b573d6000803e3d6000fd5b50508254604051620100009091046001600160a01b0316925084915033907ffabd90836bc2ca590a372847681c3eac3d4d2d69034f2636eb5ec2a31b28c2ad90600090a45050565b60008281526020819052604090206001015461046e8161084c565b6104788383610859565b50505050565b6001600160a01b03811633146104a75760405163334bd91960e11b815260040160405180910390fd5b6104b182826108eb565b505050565b7f525f00f39e65e1c0c967e855509bb98a6cd037ce8b8a5f910c034f8ef97baa3b6104e08161084c565b60008281526002602052604090205460ff161561053f5760405162461bcd60e51b815260206004820152601e60248201527f556e6f52653a20706f6c69637920616c726561647920617070726f76656400006044820152606401610379565b600082815260026020526040808220805460ff191660011790555183917f6fe99ad3a609f3d0a6942a00689c9a4357619ff730f68e4498c42f4c71d7aed391a25050565b6000918252602082815260408084206001600160a01b0393909316845291905290205460ff1690565b7fcf9f1810ef810bbcc840ce0a6f6dc13392aee445bf3c072ad1e452aae75474f26105d68161084c565b60006001600081546105e790610a69565b91905081905590506000600260008381526020019081526020016000206040518060c00160405290816000820160009054906101000a900460ff161515151581526020016000820160019054906101000a900460ff161515151581526020016000820160029054906101000a90046001600160a01b03166001600160a01b03166001600160a01b03168152602001600182015481526020016002820160009054906101000a90046001600160a01b03166001600160a01b03166001600160a01b0316815260200160038201548152505090508581604001906001600160a01b031690816001600160a01b031681525050868160600181815250508481608001906001600160a01b031690816001600160a01b031681525050838160a0018181525050806002600084815260200190815260200160002060008201518160000160006101000a81548160ff02191690831515021790555060208201518160000160016101000a81548160ff02191690831515021790555060408201518160000160026101000a8154816001600160a01b0302191690836001600160a01b031602179055506060820151816001015560808201518160020160006101000a8154816001600160a01b0302191690836001600160a01b0316021790555060a08201518160030155905050600160008154809291906107e190610a69565b91905055508682876001600160a01b03167fcda702d9f4063d5818ea55a812bc2bd4832f802b1d3127026ac60c2ec4f9547b60405160405180910390a450505050505050565b6000828152602081905260409020600101546108428161084c565b61047883836108eb565b6108568133610956565b50565b60006108658383610583565b6108e3576000838152602081815260408083206001600160a01b03861684529091529020805460ff1916600117905561089b3390565b6001600160a01b0316826001600160a01b0316847f2f8788117e7eff1d82e926ec794901d17c78024a50270940304540a733656f0d60405160405180910390a45060016102f6565b5060006102f6565b60006108f78383610583565b156108e3576000838152602081815260408083206001600160a01b0386168085529252808320805460ff1916905551339286917ff6391f5c32d9c69d2a47ea670b442974b53935d1edc7fd64eb21e047a839171b9190a45060016102f6565b6109608282610583565b61098f5760405163e2517d3f60e01b81526001600160a01b038216600482015260248101839052604401610379565b5050565b6000602082840312156109a557600080fd5b81356001600160e01b0319811681146109bd57600080fd5b9392505050565b6000602082840312156109d657600080fd5b5035919050565b80356001600160a01b03811681146109f457600080fd5b919050565b60008060408385031215610a0c57600080fd5b82359150610a1c602084016109dd565b90509250929050565b60008060008060808587031215610a3b57600080fd5b84359350610a4b602086016109dd565b9250610a59604086016109dd565b9396929550929360600135925050565b600060018201610a8957634e487b7160e01b600052601160045260246000fd5b506001019056fea264697066735822122063b738df699bb3421bef464a875351ce3caa5e8a47ba17a332a5aee68d5e0a8b64736f6c63430008170033525f00f39e65e1c0c967e855509bb98a6cd037ce8b8a5f910c034f8ef97baa3b",
  "devdoc": {
    "errors": {
      "AccessControlBadConfirmation()": [
        {
          "details": "The caller of a function is not the expected one. NOTE: Don't confuse with {AccessControlUnauthorizedAccount}."
        }
      ],
      "AccessControlUnauthorizedAccount(address,bytes32)": [
        {
          "details": "The `account` is missing a role."
        }
      ]
    },
    "events": {
      "RoleAdminChanged(bytes32,bytes32,bytes32)": {
        "details": "Emitted when `newAdminRole` is set as ``role``'s admin role, replacing `previousAdminRole` `DEFAULT_ADMIN_ROLE` is the starting admin for all roles, despite {RoleAdminChanged} not being emitted signaling this."
      },
      "RoleGranted(bytes32,address,address)": {
        "details": "Emitted when `account` is granted `role`. `sender` is the account that originated the contract call, an admin role bearer except when using {AccessControl-_setupRole}."
      },
      "RoleRevoked(bytes32,address,address)": {
        "details": "Emitted when `account` is revoked `role`. `sender` is the account that originated the contract call:   - if using `revokeRole`, it is the admin role bearer   - if using `renounceRole`, it is the role bearer (i.e. `account`)"
      }
    },
    "kind": "dev",
    "methods": {
      "getRoleAdmin(bytes32)": {
        "details": "Returns the admin role that controls `role`. See {grantRole} and {revokeRole}. To change a role's admin, use {_setRoleAdmin}."
      },
      "grantRole(bytes32,address)": {
        "details": "Grants `role` to `account`. If `account` had not been already granted `role`, emits a {RoleGranted} event. Requirements: - the caller must have ``role``'s admin role. May emit a {RoleGranted} event."
      },
      "hasRole(bytes32,address)": {
        "details": "Returns `true` if `account` has been granted `role`."
      },
      "renounceRole(bytes32,address)": {
        "details": "Revokes `role` from the calling account. Roles are often managed via {grantRole} and {revokeRole}: this function's purpose is to provide a mechanism for accounts to lose their privileges if they are compromised (such as when a trusted device is misplaced). If the calling account had been revoked `role`, emits a {RoleRevoked} event. Requirements: - the caller must be `callerConfirmation`. May emit a {RoleRevoked} event."
      },
      "revokeRole(bytes32,address)": {
        "details": "Revokes `role` from `account`. If `account` had been granted `role`, emits a {RoleRevoked} event. Requirements: - the caller must have ``role``'s admin role. May emit a {RoleRevoked} event."
      },
      "supportsInterface(bytes4)": {
        "details": "See {IERC165-supportsInterface}."
      }
    },
    "version": 1
  },
  "userdoc": {
    "kind": "user",
    "methods": {},
    "version": 1
  },
  "storageLayout": {
    "storage": [
      {
        "astId": 1034,
        "contract": "contracts/deprecated/ClaimProcessor.sol:ClaimProcessor",
        "label": "_roles",
        "offset": 0,
        "slot": "0",
        "type": "t_mapping(t_bytes32,t_struct(RoleData)1029_storage)"
      },
      {
        "astId": 25086,
        "contract": "contracts/deprecated/ClaimProcessor.sol:ClaimProcessor",
        "label": "lastIndex",
        "offset": 0,
        "slot": "1",
        "type": "t_uint256"
      },
      {
        "astId": 25091,
        "contract": "contracts/deprecated/ClaimProcessor.sol:ClaimProcessor",
        "label": "assertion",
        "offset": 0,
        "slot": "2",
        "type": "t_mapping(t_uint256,t_struct(Claim)25084_storage)"
      }
    ],
    "types": {
      "t_address": {
        "encoding": "inplace",
        "label": "address",
        "numberOfBytes": "20"
      },
      "t_bool": {
        "encoding": "inplace",
        "label": "bool",
        "numberOfBytes": "1"
      },
      "t_bytes32": {
        "encoding": "inplace",
        "label": "bytes32",
        "numberOfBytes": "32"
      },
      "t_mapping(t_address,t_bool)": {
        "encoding": "mapping",
        "key": "t_address",
        "label": "mapping(address => bool)",
        "numberOfBytes": "32",
        "value": "t_bool"
      },
      "t_mapping(t_bytes32,t_struct(RoleData)1029_storage)": {
        "encoding": "mapping",
        "key": "t_bytes32",
        "label": "mapping(bytes32 => struct AccessControl.RoleData)",
        "numberOfBytes": "32",
        "value": "t_struct(RoleData)1029_storage"
      },
      "t_mapping(t_uint256,t_struct(Claim)25084_storage)": {
        "encoding": "mapping",
        "key": "t_uint256",
        "label": "mapping(uint256 => struct ClaimProcessor.Claim)",
        "numberOfBytes": "32",
        "value": "t_struct(Claim)25084_storage"
      },
      "t_struct(Claim)25084_storage": {
        "encoding": "inplace",
        "label": "struct ClaimProcessor.Claim",
        "members": [
          {
            "astId": 25073,
            "contract": "contracts/deprecated/ClaimProcessor.sol:ClaimProcessor",
            "label": "approved",
            "offset": 0,
            "slot": "0",
            "type": "t_bool"
          },
          {
            "astId": 25075,
            "contract": "contracts/deprecated/ClaimProcessor.sol:ClaimProcessor",
            "label": "settled",
            "offset": 1,
            "slot": "0",
            "type": "t_bool"
          },
          {
            "astId": 25077,
            "contract": "contracts/deprecated/ClaimProcessor.sol:ClaimProcessor",
            "label": "ssip",
            "offset": 2,
            "slot": "0",
            "type": "t_address"
          },
          {
            "astId": 25079,
            "contract": "contracts/deprecated/ClaimProcessor.sol:ClaimProcessor",
            "label": "policyId",
            "offset": 0,
            "slot": "1",
            "type": "t_uint256"
          },
          {
            "astId": 25081,
            "contract": "contracts/deprecated/ClaimProcessor.sol:ClaimProcessor",
            "label": "payoutAddress",
            "offset": 0,
            "slot": "2",
            "type": "t_address"
          },
          {
            "astId": 25083,
            "contract": "contracts/deprecated/ClaimProcessor.sol:ClaimProcessor",
            "label": "insureAmount",
            "offset": 0,
            "slot": "3",
            "type": "t_uint256"
          }
        ],
        "numberOfBytes": "128"
      },
      "t_struct(RoleData)1029_storage": {
        "encoding": "inplace",
        "label": "struct AccessControl.RoleData",
        "members": [
          {
            "astId": 1026,
            "contract": "contracts/deprecated/ClaimProcessor.sol:ClaimProcessor",
            "label": "hasRole",
            "offset": 0,
            "slot": "0",
            "type": "t_mapping(t_address,t_bool)"
          },
          {
            "astId": 1028,
            "contract": "contracts/deprecated/ClaimProcessor.sol:ClaimProcessor",
            "label": "adminRole",
            "offset": 0,
            "slot": "1",
            "type": "t_bytes32"
          }
        ],
        "numberOfBytes": "64"
      },
      "t_uint256": {
        "encoding": "inplace",
        "label": "uint256",
        "numberOfBytes": "32"
      }
    }
  }
}