{
  "address": "0x7CFD06DD944FA5DfA1a4eBEEfdb3BF4Ae42B7432",
  "abi": [
    {
      "inputs": [
        {
          "internalType": "address",
          "name": "_optimisticOracleV3",
          "type": "address"
        },
        {
          "internalType": "address",
          "name": "_governance",
          "type": "address"
        }
      ],
      "stateMutability": "nonpayable",
      "type": "constructor"
    },
    {
      "inputs": [],
      "name": "AccessControlBadConfirmation",
      "type": "error"
    },
    {
      "inputs": [
        {
          "internalType": "address",
          "name": "account",
          "type": "address"
        },
        {
          "internalType": "bytes32",
          "name": "neededRole",
          "type": "bytes32"
        }
      ],
      "name": "AccessControlUnauthorizedAccount",
      "type": "error"
    },
    {
      "anonymous": false,
      "inputs": [
        {
          "indexed": true,
          "internalType": "bytes32",
          "name": "identifier",
          "type": "bytes32"
        },
        {
          "indexed": false,
          "internalType": "uint256",
          "name": "time",
          "type": "uint256"
        },
        {
          "indexed": false,
          "internalType": "bytes",
          "name": "ancillaryData",
          "type": "bytes"
        }
      ],
      "name": "PriceRequestAdded",
      "type": "event"
    },
    {
      "anonymous": false,
      "inputs": [
        {
          "indexed": true,
          "internalType": "bytes32",
          "name": "role",
          "type": "bytes32"
        },
        {
          "indexed": true,
          "internalType": "bytes32",
          "name": "previousAdminRole",
          "type": "bytes32"
        },
        {
          "indexed": true,
          "internalType": "bytes32",
          "name": "newAdminRole",
          "type": "bytes32"
        }
      ],
      "name": "RoleAdminChanged",
      "type": "event"
    },
    {
      "anonymous": false,
      "inputs": [
        {
          "indexed": true,
          "internalType": "bytes32",
          "name": "role",
          "type": "bytes32"
        },
        {
          "indexed": true,
          "internalType": "address",
          "name": "account",
          "type": "address"
        },
        {
          "indexed": true,
          "internalType": "address",
          "name": "sender",
          "type": "address"
        }
      ],
      "name": "RoleGranted",
      "type": "event"
    },
    {
      "anonymous": false,
      "inputs": [
        {
          "indexed": true,
          "internalType": "bytes32",
          "name": "role",
          "type": "bytes32"
        },
        {
          "indexed": true,
          "internalType": "address",
          "name": "account",
          "type": "address"
        },
        {
          "indexed": true,
          "internalType": "address",
          "name": "sender",
          "type": "address"
        }
      ],
      "name": "RoleRevoked",
      "type": "event"
    },
    {
      "inputs": [],
      "name": "CLAIM_ASSESSOR_ROLE",
      "outputs": [
        {
          "internalType": "bytes32",
          "name": "",
          "type": "bytes32"
        }
      ],
      "stateMutability": "view",
      "type": "function"
    },
    {
      "inputs": [],
      "name": "DEFAULT_ADMIN_ROLE",
      "outputs": [
        {
          "internalType": "bytes32",
          "name": "",
          "type": "bytes32"
        }
      ],
      "stateMutability": "view",
      "type": "function"
    },
    {
      "inputs": [],
      "name": "OPTMISTIC_ORACLE_V3_ROLE",
      "outputs": [
        {
          "internalType": "bytes32",
          "name": "",
          "type": "bytes32"
        }
      ],
      "stateMutability": "view",
      "type": "function"
    },
    {
      "inputs": [
        {
          "internalType": "bytes32",
          "name": "assertionId",
          "type": "bytes32"
        }
      ],
      "name": "assertionDisputedCallback",
      "outputs": [],
      "stateMutability": "nonpayable",
      "type": "function"
    },
    {
      "inputs": [
        {
          "internalType": "bytes32",
          "name": "assertionId",
          "type": "bytes32"
        },
        {
          "internalType": "bool",
          "name": "assertedTruthfully",
          "type": "bool"
        }
      ],
      "name": "assertionResolvedCallback",
      "outputs": [],
      "stateMutability": "nonpayable",
      "type": "function"
    },
    {
      "inputs": [
        {
          "internalType": "bytes32",
          "name": "",
          "type": "bytes32"
        }
      ],
      "name": "getAssertionPolicy",
      "outputs": [
        {
          "components": [
            {
              "internalType": "bool",
              "name": "blockAssertion",
              "type": "bool"
            },
            {
              "internalType": "bool",
              "name": "arbitrateViaEscalationManager",
              "type": "bool"
            },
            {
              "internalType": "bool",
              "name": "discardOracle",
              "type": "bool"
            },
            {
              "internalType": "bool",
              "name": "validateDisputers",
              "type": "bool"
            }
          ],
          "internalType": "struct EscalationManagerInterface.AssertionPolicy",
          "name": "",
          "type": "tuple"
        }
      ],
      "stateMutability": "pure",
      "type": "function"
    },
    {
      "inputs": [
        {
          "internalType": "bytes32",
          "name": "identifier",
          "type": "bytes32"
        },
        {
          "internalType": "uint256",
          "name": "time",
          "type": "uint256"
        },
        {
          "internalType": "bytes",
          "name": "ancillaryData",
          "type": "bytes"
        }
      ],
      "name": "getPrice",
      "outputs": [
        {
          "internalType": "int256",
          "name": "",
          "type": "int256"
        }
      ],
      "stateMutability": "nonpayable",
      "type": "function"
    },
    {
      "inputs": [
        {
          "internalType": "bytes32",
          "name": "role",
          "type": "bytes32"
        }
      ],
      "name": "getRoleAdmin",
      "outputs": [
        {
          "internalType": "bytes32",
          "name": "",
          "type": "bytes32"
        }
      ],
      "stateMutability": "view",
      "type": "function"
    },
    {
      "inputs": [
        {
          "internalType": "bytes32",
          "name": "role",
          "type": "bytes32"
        },
        {
          "internalType": "address",
          "name": "account",
          "type": "address"
        }
      ],
      "name": "grantRole",
      "outputs": [],
      "stateMutability": "nonpayable",
      "type": "function"
    },
    {
      "inputs": [
        {
          "internalType": "bytes32",
          "name": "role",
          "type": "bytes32"
        },
        {
          "internalType": "address",
          "name": "account",
          "type": "address"
        }
      ],
      "name": "hasRole",
      "outputs": [
        {
          "internalType": "bool",
          "name": "",
          "type": "bool"
        }
      ],
      "stateMutability": "view",
      "type": "function"
    },
    {
      "inputs": [
        {
          "internalType": "bytes32",
          "name": "assertionId",
          "type": "bytes32"
        },
        {
          "internalType": "address",
          "name": "disputeCaller",
          "type": "address"
        }
      ],
      "name": "isDisputeAllowed",
      "outputs": [
        {
          "internalType": "bool",
          "name": "",
          "type": "bool"
        }
      ],
      "stateMutability": "view",
      "type": "function"
    },
    {
      "inputs": [],
      "name": "optimisticOracleV3",
      "outputs": [
        {
          "internalType": "contract OptimisticOracleV3Interface",
          "name": "",
          "type": "address"
        }
      ],
      "stateMutability": "view",
      "type": "function"
    },
    {
      "inputs": [
        {
          "internalType": "bytes32",
          "name": "role",
          "type": "bytes32"
        },
        {
          "internalType": "address",
          "name": "callerConfirmation",
          "type": "address"
        }
      ],
      "name": "renounceRole",
      "outputs": [],
      "stateMutability": "nonpayable",
      "type": "function"
    },
    {
      "inputs": [
        {
          "internalType": "bytes32",
          "name": "identifier",
          "type": "bytes32"
        },
        {
          "internalType": "uint256",
          "name": "time",
          "type": "uint256"
        },
        {
          "internalType": "bytes",
          "name": "ancillaryData",
          "type": "bytes"
        }
      ],
      "name": "requestPrice",
      "outputs": [],
      "stateMutability": "nonpayable",
      "type": "function"
    },
    {
      "inputs": [
        {
          "internalType": "bytes32",
          "name": "role",
          "type": "bytes32"
        },
        {
          "internalType": "address",
          "name": "account",
          "type": "address"
        }
      ],
      "name": "revokeRole",
      "outputs": [],
      "stateMutability": "nonpayable",
      "type": "function"
    },
    {
      "inputs": [
        {
          "internalType": "bytes4",
          "name": "interfaceId",
          "type": "bytes4"
        }
      ],
      "name": "supportsInterface",
      "outputs": [
        {
          "internalType": "bool",
          "name": "",
          "type": "bool"
        }
      ],
      "stateMutability": "view",
      "type": "function"
    },
    {
      "inputs": [
        {
          "internalType": "address",
          "name": "_caller",
          "type": "address"
        }
      ],
      "name": "toggleAssertionCaller",
      "outputs": [],
      "stateMutability": "nonpayable",
      "type": "function"
    },
    {
      "inputs": [
        {
          "internalType": "address",
          "name": "_disputer",
          "type": "address"
        }
      ],
      "name": "toggleDisputer",
      "outputs": [],
      "stateMutability": "nonpayable",
      "type": "function"
    }
  ],
  "transactionHash": "0x1cdb8e68631ba122670f59b884f8f69815da29edcfdafbd89277bd92b4005f11",
  "args": [
    "0x9923D42eF695B5dd9911D05Ac944d4cAca3c4EAB",
    "0xedFFe0a06914c9D6083B4B099e5b935E9E84c9a5"
  ],
  "numDeployments": 1,
  "solcInputHash": "d2fc875e3afcbd9499ae3f5e7a33f9ef",
  "bytecode": "0x60a06040523480156200001157600080fd5b5060405162000d0b38038062000d0b8339810160408190526200003491620001dd565b6001600160a01b0382166080526200005c60008051602062000ccb83398151915282620000c6565b506200007860008051602062000ccb8339815191528062000175565b6200009360008051602062000ceb83398151915283620000c6565b50620000be60008051602062000ceb83398151915260008051602062000ccb83398151915262000175565b505062000215565b6000828152602081815260408083206001600160a01b038516845290915281205460ff166200016b576000838152602081815260408083206001600160a01b03861684529091529020805460ff19166001179055620001223390565b6001600160a01b0316826001600160a01b0316847f2f8788117e7eff1d82e926ec794901d17c78024a50270940304540a733656f0d60405160405180910390a45060016200016f565b5060005b92915050565b600082815260208190526040808220600101805490849055905190918391839186917fbd79b86ffe0ab8e8776151514217cd7cacd52c909f66475c3af44e129f0b00ff9190a4505050565b80516001600160a01b0381168114620001d857600080fd5b919050565b60008060408385031215620001f157600080fd5b620001fc83620001c0565b91506200020c60208401620001c0565b90509250929050565b608051610a9a62000231600039600061017d0152610a9a6000f3fe608060405234801561001057600080fd5b50600436106101365760003560e01c806391d14854116100b2578063b1d9595611610081578063d547741f11610066578063d547741f14610389578063d99fec711461039c578063f1b156b2146103c357600080fd5b8063b1d959561461034f578063d448a4ec1461037657600080fd5b806391d14854146102665780639878ab8c1461029d578063a217fddf146102b0578063a6b011a7146102b857600080fd5b80632f2ff15d1161010957806341dc2046116100ee57806341dc20461461020e5780636b915d9114610221578063719c6d561461024f57600080fd5b80632f2ff15d146101e857806336568abe146101fb57600080fd5b806301ffc9a71461013b578063216666a414610163578063226beb1914610178578063248a9ca3146101b7575b600080fd5b61014e610149366004610820565b6103d6565b60405190151581526020015b60405180910390f35b610176610171366004610898565b61046f565b005b61019f7f000000000000000000000000000000000000000000000000000000000000000081565b6040516001600160a01b03909116815260200161015a565b6101da6101c536600461095c565b60009081526020819052604090206001015490565b60405190815260200161015a565b6101766101f6366004610991565b6104d9565b610176610209366004610991565b610504565b61017661021c3660046109bd565b610555565b61014e61022f366004610991565b6001600160a01b031660009081526001602052604090205460ff16919050565b6101da61025d366004610898565b60009392505050565b61014e610274366004610991565b6000918252602082815260408084206001600160a01b0393909316845291905290205460ff1690565b6101766102ab3660046109bd565b6105a9565b6101da600081565b6103146102c636600461095c565b60408051608081018252600080825260208201819052918101829052606081019190915250506040805160808101825260008152600160208201819052918101829052606081019190915290565b60405161015a919081511515815260208083015115159082015260408083015115159082015260609182015115159181019190915260800190565b6101da7ffa9ee5805867fcd64bc0d88adbfc542f8166570d1ca4cbb35eece5c4fc348fdd81565b61017661038436600461095c565b6105fd565b610176610397366004610991565b61062b565b6101da7fa7fb00808094bb0669054259df045936913ac8f131613a7a6da2e81ac75d5f4881565b6101766103d13660046109d8565b610650565b60007fffffffff0000000000000000000000000000000000000000000000000000000082167f7965db0b00000000000000000000000000000000000000000000000000000000148061046957507f01ffc9a7000000000000000000000000000000000000000000000000000000007fffffffff000000000000000000000000000000000000000000000000000000008316145b92915050565b7ffa9ee5805867fcd64bc0d88adbfc542f8166570d1ca4cbb35eece5c4fc348fdd61049981610676565b837fb17a139310ca50023f8dc119e2f4d6b839cf066d7b246eb502d16c335d1db63184846040516104cb929190610a0d565b60405180910390a250505050565b6000828152602081905260409020600101546104f481610676565b6104fe8383610683565b50505050565b6001600160a01b0381163314610546576040517f6697b23200000000000000000000000000000000000000000000000000000000815260040160405180910390fd5b610550828261072d565b505050565b7fa7fb00808094bb0669054259df045936913ac8f131613a7a6da2e81ac75d5f4861057f81610676565b506001600160a01b03166000908152600160205260409020805460ff19811660ff90911615179055565b7fa7fb00808094bb0669054259df045936913ac8f131613a7a6da2e81ac75d5f486105d381610676565b506001600160a01b03166000908152600260205260409020805460ff19811660ff90911615179055565b7ffa9ee5805867fcd64bc0d88adbfc542f8166570d1ca4cbb35eece5c4fc348fdd61062781610676565b5050565b60008281526020819052604090206001015461064681610676565b6104fe838361072d565b7ffa9ee5805867fcd64bc0d88adbfc542f8166570d1ca4cbb35eece5c4fc348fdd610550815b61068081336107b0565b50565b6000828152602081815260408083206001600160a01b038516845290915281205460ff16610725576000838152602081815260408083206001600160a01b03861684529091529020805460ff191660011790556106dd3390565b6001600160a01b0316826001600160a01b0316847f2f8788117e7eff1d82e926ec794901d17c78024a50270940304540a733656f0d60405160405180910390a4506001610469565b506000610469565b6000828152602081815260408083206001600160a01b038516845290915281205460ff1615610725576000838152602081815260408083206001600160a01b0386168085529252808320805460ff1916905551339286917ff6391f5c32d9c69d2a47ea670b442974b53935d1edc7fd64eb21e047a839171b9190a4506001610469565b6000828152602081815260408083206001600160a01b038516845290915290205460ff16610627576040517fe2517d3f0000000000000000000000000000000000000000000000000000000081526001600160a01b03821660048201526024810183905260440160405180910390fd5b60006020828403121561083257600080fd5b81357fffffffff000000000000000000000000000000000000000000000000000000008116811461086257600080fd5b9392505050565b7f4e487b7100000000000000000000000000000000000000000000000000000000600052604160045260246000fd5b6000806000606084860312156108ad57600080fd5b8335925060208401359150604084013567ffffffffffffffff808211156108d357600080fd5b818601915086601f8301126108e757600080fd5b8135818111156108f9576108f9610869565b604051601f8201601f19908116603f0116810190838211818310171561092157610921610869565b8160405282815289602084870101111561093a57600080fd5b8260208601602083013760006020848301015280955050505050509250925092565b60006020828403121561096e57600080fd5b5035919050565b80356001600160a01b038116811461098c57600080fd5b919050565b600080604083850312156109a457600080fd5b823591506109b460208401610975565b90509250929050565b6000602082840312156109cf57600080fd5b61086282610975565b600080604083850312156109eb57600080fd5b8235915060208301358015158114610a0257600080fd5b809150509250929050565b8281526000602060406020840152835180604085015260005b81811015610a4257858101830151858201606001528201610a26565b506000606082860101526060601f19601f83011685010192505050939250505056fea2646970667358221220b656649f855881d4b637cd7baabbc5dbacbe8efbb7cf18a481abb2b7f84d490764736f6c63430008170033a7fb00808094bb0669054259df045936913ac8f131613a7a6da2e81ac75d5f48fa9ee5805867fcd64bc0d88adbfc542f8166570d1ca4cbb35eece5c4fc348fdd",
  "devdoc": {
    "errors": {
      "AccessControlBadConfirmation()": [
        {
          "details": "The caller of a function is not the expected one. NOTE: Don't confuse with {AccessControlUnauthorizedAccount}."
        }
      ],
      "AccessControlUnauthorizedAccount(address,bytes32)": [
        {
          "details": "The `account` is missing a role."
        }
      ]
    },
    "events": {
      "RoleAdminChanged(bytes32,bytes32,bytes32)": {
        "details": "Emitted when `newAdminRole` is set as ``role``'s admin role, replacing `previousAdminRole` `DEFAULT_ADMIN_ROLE` is the starting admin for all roles, despite {RoleAdminChanged} not being emitted signaling this."
      },
      "RoleGranted(bytes32,address,address)": {
        "details": "Emitted when `account` is granted `role`. `sender` is the account that originated the contract call, an admin role bearer except when using {AccessControl-_setupRole}."
      },
      "RoleRevoked(bytes32,address,address)": {
        "details": "Emitted when `account` is revoked `role`. `sender` is the account that originated the contract call:   - if using `revokeRole`, it is the admin role bearer   - if using `renounceRole`, it is the role bearer (i.e. `account`)"
      }
    },
    "kind": "dev",
    "methods": {
      "assertionDisputedCallback(bytes32)": {
        "params": {
          "assertionId": "The identifier of the assertion that was disputed."
        }
      },
      "assertionResolvedCallback(bytes32,bool)": {
        "params": {
          "assertedTruthfully": "Whether the assertion was resolved as truthful or not.",
          "assertionId": "The identifier of the assertion that was resolved."
        }
      },
      "constructor": {
        "params": {
          "_optimisticOracleV3": "the Optimistic Oracle V3 to use."
        }
      },
      "getPrice(bytes32,uint256,bytes)": {
        "params": {
          "ancillaryData": "ancillary data of the price being requested.",
          "identifier": "price identifier being requested.",
          "time": "timestamp of the price being requested."
        },
        "returns": {
          "_0": "price from the escalation manager to inform the resolution of the dispute."
        }
      },
      "getRoleAdmin(bytes32)": {
        "details": "Returns the admin role that controls `role`. See {grantRole} and {revokeRole}. To change a role's admin, use {_setRoleAdmin}."
      },
      "grantRole(bytes32,address)": {
        "details": "Grants `role` to `account`. If `account` had not been already granted `role`, emits a {RoleGranted} event. Requirements: - the caller must have ``role``'s admin role. May emit a {RoleGranted} event."
      },
      "hasRole(bytes32,address)": {
        "details": "Returns `true` if `account` has been granted `role`."
      },
      "isDisputeAllowed(bytes32,address)": {
        "params": {
          "assertionId": "the assertionId to validate the dispute for.",
          "disputeCaller": "the caller of the dispute function."
        },
        "returns": {
          "_0": "bool true if the dispute is allowed, false otherwise."
        }
      },
      "renounceRole(bytes32,address)": {
        "details": "Revokes `role` from the calling account. Roles are often managed via {grantRole} and {revokeRole}: this function's purpose is to provide a mechanism for accounts to lose their privileges if they are compromised (such as when a trusted device is misplaced). If the calling account had been revoked `role`, emits a {RoleRevoked} event. Requirements: - the caller must be `callerConfirmation`. May emit a {RoleRevoked} event."
      },
      "requestPrice(bytes32,uint256,bytes)": {
        "params": {
          "ancillaryData": "ancillary data of the price being requested.",
          "identifier": "the identifier to fetch the price for.",
          "time": "the time to fetch the price for."
        }
      },
      "revokeRole(bytes32,address)": {
        "details": "Revokes `role` from `account`. If `account` had been granted `role`, emits a {RoleRevoked} event. Requirements: - the caller must have ``role``'s admin role. May emit a {RoleRevoked} event."
      },
      "supportsInterface(bytes4)": {
        "details": "See {IERC165-supportsInterface}."
      }
    },
    "version": 1
  },
  "userdoc": {
    "kind": "user",
    "methods": {
      "assertionDisputedCallback(bytes32)": {
        "notice": "Callback function that is called by Optimistic Oracle V3 when an assertion is disputed."
      },
      "assertionResolvedCallback(bytes32,bool)": {
        "notice": "Callback function that is called by Optimistic Oracle V3 when an assertion is resolved."
      },
      "constructor": {
        "notice": "Constructs the escalation manager."
      },
      "getPrice(bytes32,uint256,bytes)": {
        "notice": "Implements price getting logic. This method is called by Optimistic Oracle V3 settling an assertion that is configured to use the escalation manager as the oracle. The interface is constructed to mimic the UMA DVM."
      },
      "isDisputeAllowed(bytes32,address)": {
        "notice": "Callback function that is called by Optimistic Oracle V3 when an assertion is disputed. Used to validate if the dispute should be allowed based on the escalation policy."
      },
      "requestPrice(bytes32,uint256,bytes)": {
        "notice": "Implements price requesting logic for the escalation manager. This function is called by the Optimistic Oracle V3 on dispute and is constructed to mimic that of the UMA DVM interface."
      }
    },
    "version": 1
  },
  "storageLayout": {
    "storage": [
      {
        "astId": 1034,
        "contract": "contracts/uma/EscalationManager.sol:EscalationManager",
        "label": "_roles",
        "offset": 0,
        "slot": "0",
        "type": "t_mapping(t_bytes32,t_struct(RoleData)1029_storage)"
      },
      {
        "astId": 28377,
        "contract": "contracts/uma/EscalationManager.sol:EscalationManager",
        "label": "checkDisputers",
        "offset": 0,
        "slot": "1",
        "type": "t_mapping(t_address,t_bool)"
      },
      {
        "astId": 28381,
        "contract": "contracts/uma/EscalationManager.sol:EscalationManager",
        "label": "checkAssertingCaller",
        "offset": 0,
        "slot": "2",
        "type": "t_mapping(t_address,t_bool)"
      }
    ],
    "types": {
      "t_address": {
        "encoding": "inplace",
        "label": "address",
        "numberOfBytes": "20"
      },
      "t_bool": {
        "encoding": "inplace",
        "label": "bool",
        "numberOfBytes": "1"
      },
      "t_bytes32": {
        "encoding": "inplace",
        "label": "bytes32",
        "numberOfBytes": "32"
      },
      "t_mapping(t_address,t_bool)": {
        "encoding": "mapping",
        "key": "t_address",
        "label": "mapping(address => bool)",
        "numberOfBytes": "32",
        "value": "t_bool"
      },
      "t_mapping(t_bytes32,t_struct(RoleData)1029_storage)": {
        "encoding": "mapping",
        "key": "t_bytes32",
        "label": "mapping(bytes32 => struct AccessControl.RoleData)",
        "numberOfBytes": "32",
        "value": "t_struct(RoleData)1029_storage"
      },
      "t_struct(RoleData)1029_storage": {
        "encoding": "inplace",
        "label": "struct AccessControl.RoleData",
        "members": [
          {
            "astId": 1026,
            "contract": "contracts/uma/EscalationManager.sol:EscalationManager",
            "label": "hasRole",
            "offset": 0,
            "slot": "0",
            "type": "t_mapping(t_address,t_bool)"
          },
          {
            "astId": 1028,
            "contract": "contracts/uma/EscalationManager.sol:EscalationManager",
            "label": "adminRole",
            "offset": 0,
            "slot": "1",
            "type": "t_bytes32"
          }
        ],
        "numberOfBytes": "64"
      }
    }
  }
}