{
  "address": "0x68012760bfAfeF636877418D34Cc3e10CF9bd155",
  "abi": [
    {
      "inputs": [
        {
          "internalType": "address",
          "name": "_optimisticOracleV3",
          "type": "address"
        },
        {
          "internalType": "address",
          "name": "_governance",
          "type": "address"
        }
      ],
      "stateMutability": "nonpayable",
      "type": "constructor"
    },
    {
      "inputs": [],
      "name": "AccessControlBadConfirmation",
      "type": "error"
    },
    {
      "inputs": [
        {
          "internalType": "address",
          "name": "account",
          "type": "address"
        },
        {
          "internalType": "bytes32",
          "name": "neededRole",
          "type": "bytes32"
        }
      ],
      "name": "AccessControlUnauthorizedAccount",
      "type": "error"
    },
    {
      "anonymous": false,
      "inputs": [
        {
          "indexed": true,
          "internalType": "bytes32",
          "name": "identifier",
          "type": "bytes32"
        },
        {
          "indexed": false,
          "internalType": "uint256",
          "name": "time",
          "type": "uint256"
        },
        {
          "indexed": false,
          "internalType": "bytes",
          "name": "ancillaryData",
          "type": "bytes"
        }
      ],
      "name": "PriceRequestAdded",
      "type": "event"
    },
    {
      "anonymous": false,
      "inputs": [
        {
          "indexed": true,
          "internalType": "bytes32",
          "name": "role",
          "type": "bytes32"
        },
        {
          "indexed": true,
          "internalType": "bytes32",
          "name": "previousAdminRole",
          "type": "bytes32"
        },
        {
          "indexed": true,
          "internalType": "bytes32",
          "name": "newAdminRole",
          "type": "bytes32"
        }
      ],
      "name": "RoleAdminChanged",
      "type": "event"
    },
    {
      "anonymous": false,
      "inputs": [
        {
          "indexed": true,
          "internalType": "bytes32",
          "name": "role",
          "type": "bytes32"
        },
        {
          "indexed": true,
          "internalType": "address",
          "name": "account",
          "type": "address"
        },
        {
          "indexed": true,
          "internalType": "address",
          "name": "sender",
          "type": "address"
        }
      ],
      "name": "RoleGranted",
      "type": "event"
    },
    {
      "anonymous": false,
      "inputs": [
        {
          "indexed": true,
          "internalType": "bytes32",
          "name": "role",
          "type": "bytes32"
        },
        {
          "indexed": true,
          "internalType": "address",
          "name": "account",
          "type": "address"
        },
        {
          "indexed": true,
          "internalType": "address",
          "name": "sender",
          "type": "address"
        }
      ],
      "name": "RoleRevoked",
      "type": "event"
    },
    {
      "anonymous": false,
      "inputs": [
        {
          "indexed": true,
          "internalType": "address",
          "name": "owner",
          "type": "address"
        },
        {
          "indexed": false,
          "internalType": "bool",
          "name": "arbitrateViaEscalationManager",
          "type": "bool"
        }
      ],
      "name": "UpdatedArbitrateViaEscalationManager",
      "type": "event"
    },
    {
      "anonymous": false,
      "inputs": [
        {
          "indexed": true,
          "internalType": "address",
          "name": "owner",
          "type": "address"
        },
        {
          "indexed": false,
          "internalType": "bool",
          "name": "blockAssertion",
          "type": "bool"
        }
      ],
      "name": "UpdatedBlockAssertion",
      "type": "event"
    },
    {
      "anonymous": false,
      "inputs": [
        {
          "indexed": true,
          "internalType": "address",
          "name": "owner",
          "type": "address"
        },
        {
          "indexed": false,
          "internalType": "bool",
          "name": "discardOracle",
          "type": "bool"
        }
      ],
      "name": "UpdatedDiscardOracle",
      "type": "event"
    },
    {
      "anonymous": false,
      "inputs": [
        {
          "indexed": true,
          "internalType": "address",
          "name": "owner",
          "type": "address"
        },
        {
          "indexed": false,
          "internalType": "bool",
          "name": "validateDisputers",
          "type": "bool"
        }
      ],
      "name": "UpdatedValidateDisputers",
      "type": "event"
    },
    {
      "inputs": [],
      "name": "CLAIM_ASSESSOR_ROLE",
      "outputs": [
        {
          "internalType": "bytes32",
          "name": "",
          "type": "bytes32"
        }
      ],
      "stateMutability": "view",
      "type": "function"
    },
    {
      "inputs": [],
      "name": "DEFAULT_ADMIN_ROLE",
      "outputs": [
        {
          "internalType": "bytes32",
          "name": "",
          "type": "bytes32"
        }
      ],
      "stateMutability": "view",
      "type": "function"
    },
    {
      "inputs": [],
      "name": "OPTMISTIC_ORACLE_V3_ROLE",
      "outputs": [
        {
          "internalType": "bytes32",
          "name": "",
          "type": "bytes32"
        }
      ],
      "stateMutability": "view",
      "type": "function"
    },
    {
      "inputs": [],
      "name": "arbitrateViaEscalationManager",
      "outputs": [
        {
          "internalType": "bool",
          "name": "",
          "type": "bool"
        }
      ],
      "stateMutability": "view",
      "type": "function"
    },
    {
      "inputs": [
        {
          "internalType": "bytes32",
          "name": "assertionId",
          "type": "bytes32"
        }
      ],
      "name": "assertionDisputedCallback",
      "outputs": [],
      "stateMutability": "nonpayable",
      "type": "function"
    },
    {
      "inputs": [
        {
          "internalType": "bytes32",
          "name": "assertionId",
          "type": "bytes32"
        },
        {
          "internalType": "bool",
          "name": "assertedTruthfully",
          "type": "bool"
        }
      ],
      "name": "assertionResolvedCallback",
      "outputs": [],
      "stateMutability": "nonpayable",
      "type": "function"
    },
    {
      "inputs": [],
      "name": "blockAssertion",
      "outputs": [
        {
          "internalType": "bool",
          "name": "",
          "type": "bool"
        }
      ],
      "stateMutability": "view",
      "type": "function"
    },
    {
      "inputs": [],
      "name": "discardOracle",
      "outputs": [
        {
          "internalType": "bool",
          "name": "",
          "type": "bool"
        }
      ],
      "stateMutability": "view",
      "type": "function"
    },
    {
      "inputs": [
        {
          "internalType": "bytes32",
          "name": "",
          "type": "bytes32"
        }
      ],
      "name": "getAssertionPolicy",
      "outputs": [
        {
          "components": [
            {
              "internalType": "bool",
              "name": "blockAssertion",
              "type": "bool"
            },
            {
              "internalType": "bool",
              "name": "arbitrateViaEscalationManager",
              "type": "bool"
            },
            {
              "internalType": "bool",
              "name": "discardOracle",
              "type": "bool"
            },
            {
              "internalType": "bool",
              "name": "validateDisputers",
              "type": "bool"
            }
          ],
          "internalType": "struct EscalationManagerInterface.AssertionPolicy",
          "name": "",
          "type": "tuple"
        }
      ],
      "stateMutability": "view",
      "type": "function"
    },
    {
      "inputs": [
        {
          "internalType": "bytes32",
          "name": "identifier",
          "type": "bytes32"
        },
        {
          "internalType": "uint256",
          "name": "time",
          "type": "uint256"
        },
        {
          "internalType": "bytes",
          "name": "ancillaryData",
          "type": "bytes"
        }
      ],
      "name": "getPrice",
      "outputs": [
        {
          "internalType": "int256",
          "name": "",
          "type": "int256"
        }
      ],
      "stateMutability": "view",
      "type": "function"
    },
    {
      "inputs": [
        {
          "internalType": "bytes32",
          "name": "role",
          "type": "bytes32"
        }
      ],
      "name": "getRoleAdmin",
      "outputs": [
        {
          "internalType": "bytes32",
          "name": "",
          "type": "bytes32"
        }
      ],
      "stateMutability": "view",
      "type": "function"
    },
    {
      "inputs": [
        {
          "internalType": "bytes32",
          "name": "role",
          "type": "bytes32"
        },
        {
          "internalType": "address",
          "name": "account",
          "type": "address"
        }
      ],
      "name": "grantRole",
      "outputs": [],
      "stateMutability": "nonpayable",
      "type": "function"
    },
    {
      "inputs": [
        {
          "internalType": "bytes32",
          "name": "role",
          "type": "bytes32"
        },
        {
          "internalType": "address",
          "name": "account",
          "type": "address"
        }
      ],
      "name": "hasRole",
      "outputs": [
        {
          "internalType": "bool",
          "name": "",
          "type": "bool"
        }
      ],
      "stateMutability": "view",
      "type": "function"
    },
    {
      "inputs": [
        {
          "internalType": "bytes32",
          "name": "assertionId",
          "type": "bytes32"
        },
        {
          "internalType": "address",
          "name": "disputeCaller",
          "type": "address"
        }
      ],
      "name": "isDisputeAllowed",
      "outputs": [
        {
          "internalType": "bool",
          "name": "",
          "type": "bool"
        }
      ],
      "stateMutability": "view",
      "type": "function"
    },
    {
      "inputs": [
        {
          "internalType": "bytes32",
          "name": "role",
          "type": "bytes32"
        },
        {
          "internalType": "address",
          "name": "callerConfirmation",
          "type": "address"
        }
      ],
      "name": "renounceRole",
      "outputs": [],
      "stateMutability": "nonpayable",
      "type": "function"
    },
    {
      "inputs": [
        {
          "internalType": "bytes32",
          "name": "identifier",
          "type": "bytes32"
        },
        {
          "internalType": "uint256",
          "name": "time",
          "type": "uint256"
        },
        {
          "internalType": "bytes",
          "name": "ancillaryData",
          "type": "bytes"
        }
      ],
      "name": "requestPrice",
      "outputs": [],
      "stateMutability": "nonpayable",
      "type": "function"
    },
    {
      "inputs": [
        {
          "internalType": "bytes32",
          "name": "role",
          "type": "bytes32"
        },
        {
          "internalType": "address",
          "name": "account",
          "type": "address"
        }
      ],
      "name": "revokeRole",
      "outputs": [],
      "stateMutability": "nonpayable",
      "type": "function"
    },
    {
      "inputs": [
        {
          "internalType": "bool",
          "name": "_arbitrateViaEscalationManager",
          "type": "bool"
        }
      ],
      "name": "setArbitrateViaEscalationManager",
      "outputs": [],
      "stateMutability": "nonpayable",
      "type": "function"
    },
    {
      "inputs": [
        {
          "internalType": "bytes32",
          "name": "_assertionId",
          "type": "bytes32"
        },
        {
          "internalType": "bool",
          "name": "_isApproved",
          "type": "bool"
        },
        {
          "internalType": "bool",
          "name": "_exist",
          "type": "bool"
        }
      ],
      "name": "setAssertionIdApproval",
      "outputs": [],
      "stateMutability": "nonpayable",
      "type": "function"
    },
    {
      "inputs": [
        {
          "internalType": "bool",
          "name": "_blockAssertion",
          "type": "bool"
        }
      ],
      "name": "setBlockAssertion",
      "outputs": [],
      "stateMutability": "nonpayable",
      "type": "function"
    },
    {
      "inputs": [
        {
          "internalType": "bool",
          "name": "_discardOracle",
          "type": "bool"
        }
      ],
      "name": "setDiscardOracle",
      "outputs": [],
      "stateMutability": "nonpayable",
      "type": "function"
    },
    {
      "inputs": [
        {
          "internalType": "bytes32",
          "name": "identifier",
          "type": "bytes32"
        },
        {
          "internalType": "uint256",
          "name": "time",
          "type": "uint256"
        },
        {
          "internalType": "bytes",
          "name": "ancillaryData",
          "type": "bytes"
        },
        {
          "internalType": "int256",
          "name": "price",
          "type": "int256"
        }
      ],
      "name": "setOraclePrice",
      "outputs": [],
      "stateMutability": "nonpayable",
      "type": "function"
    },
    {
      "inputs": [
        {
          "internalType": "bool",
          "name": "_validateDisputers",
          "type": "bool"
        }
      ],
      "name": "setValidateDisputers",
      "outputs": [],
      "stateMutability": "nonpayable",
      "type": "function"
    },
    {
      "inputs": [
        {
          "internalType": "bytes4",
          "name": "interfaceId",
          "type": "bytes4"
        }
      ],
      "name": "supportsInterface",
      "outputs": [
        {
          "internalType": "bool",
          "name": "",
          "type": "bool"
        }
      ],
      "stateMutability": "view",
      "type": "function"
    },
    {
      "inputs": [
        {
          "internalType": "address",
          "name": "_caller",
          "type": "address"
        }
      ],
      "name": "toggleAssertionCaller",
      "outputs": [],
      "stateMutability": "nonpayable",
      "type": "function"
    },
    {
      "inputs": [
        {
          "internalType": "address",
          "name": "_disputer",
          "type": "address"
        }
      ],
      "name": "toggleDisputer",
      "outputs": [],
      "stateMutability": "nonpayable",
      "type": "function"
    },
    {
      "inputs": [],
      "name": "validateDisputers",
      "outputs": [
        {
          "internalType": "bool",
          "name": "",
          "type": "bool"
        }
      ],
      "stateMutability": "view",
      "type": "function"
    }
  ],
  "transactionHash": "0x0018e54a9699c6e586bfb638488e743701c6c3e96af4a625b48006657b229f30",
  "args": [
    "0x9923D42eF695B5dd9911D05Ac944d4cAca3c4EAB",
    "0xedFFe0a06914c9D6083B4B099e5b935E9E84c9a5"
  ],
  "numDeployments": 1,
  "solcInputHash": "12268d9cd2236e09e749aed9fe97c7a2",
  "bytecode": "0x60806040523480156200001157600080fd5b5060405162001584380380620015848339810160408190526200003491620001d0565b6200004f6000805160206200154483398151915282620000b9565b506200006b600080516020620015448339815191528062000168565b620000866000805160206200156483398151915283620000b9565b50620000b1600080516020620015648339815191526000805160206200154483398151915262000168565b505062000208565b6000828152602081815260408083206001600160a01b038516845290915281205460ff166200015e576000838152602081815260408083206001600160a01b03861684529091529020805460ff19166001179055620001153390565b6001600160a01b0316826001600160a01b0316847f2f8788117e7eff1d82e926ec794901d17c78024a50270940304540a733656f0d60405160405180910390a450600162000162565b5060005b92915050565b600082815260208190526040808220600101805490849055905190918391839186917fbd79b86ffe0ab8e8776151514217cd7cacd52c909f66475c3af44e129f0b00ff9190a4505050565b80516001600160a01b0381168114620001cb57600080fd5b919050565b60008060408385031215620001e457600080fd5b620001ef83620001b3565b9150620001ff60208401620001b3565b90509250929050565b61132c80620002186000396000f3fe608060405234801561001057600080fd5b50600436106101a95760003560e01c806391d14854116100f9578063c0b0503511610097578063d62efb7511610071578063d62efb751461044e578063d99fec7114610462578063e6a82af914610477578063f1b156b21461048457600080fd5b8063c0b0503514610415578063d448a4ec14610428578063d547741f1461043b57600080fd5b8063a217fddf116100d3578063a217fddf1461032d578063a6b011a714610335578063a96e6cc6146103ed578063b1d959561461040057600080fd5b806391d14854146102f45780639878ab8c146103075780639f68e4aa1461031a57600080fd5b806336568abe116101665780634c7a7d38116101405780634c7a7d381461028d5780635fa49e1a146102a05780636b915d91146102b3578063719c6d56146102e157600080fd5b806336568abe1461025457806341dc20461461026757806343db49ad1461027a57600080fd5b806301ffc9a7146101ae578063216666a4146101d6578063248a9ca3146101eb578063261d3d3a1461021c5780632a7de60b1461022f5780632f2ff15d14610241575b600080fd5b6101c16101bc366004610d28565b610497565b60405190151581526020015b60405180910390f35b6101e96101e4366004610e26565b6104ce565b005b61020e6101f9366004610e76565b60009081526020819052604090206001015490565b6040519081526020016101cd565b6101e961022a366004610e8f565b610526565b6001546101c190610100900460ff1681565b6101e961024f366004610efc565b610584565b6101e9610262366004610efc565b6105af565b6101e9610275366004610f2c565b6105e7565b6101e9610288366004610f57565b610629565b6001546101c19062010000900460ff1681565b6101e96102ae366004610f74565b61069a565b6101c16102c1366004610efc565b6001600160a01b031660009081526002602052604090205460ff16919050565b61020e6102ef366004610e26565b6106e4565b6101c1610302366004610efc565b61072a565b6101e9610315366004610f2c565b610753565b6101e9610328366004610f57565b610795565b61020e600081565b6103b2610343366004610e76565b60408051608081018252600080825260208201819052918101829052606081019190915250506040805160808101825260015460ff8082161515835261010082048116151560208401526201000082048116151593830193909352630100000090049091161515606082015290565b6040516101cd919081511515815260208083015115159082015260408083015115159082015260609182015115159181019190915260800190565b6101e96103fb366004610f57565b6107f0565b61020e6000805160206112d783398151915281565b6101e9610423366004610f57565b610857565b6101e9610436366004610e76565b6108ba565b6101e9610449366004610efc565b6108d6565b6001546101c1906301000000900460ff1681565b61020e6000805160206112b783398151915281565b6001546101c19060ff1681565b6101e9610492366004610fb6565b6108fb565b60006001600160e01b03198216637965db0b60e01b14806104c857506301ffc9a760e01b6001600160e01b03198316145b92915050565b6000805160206112d78339815191526104e681610be5565b837fb17a139310ca50023f8dc119e2f4d6b839cf066d7b246eb502d16c335d1db6318484604051610518929190610fff565b60405180910390a250505050565b6000805160206112b783398151915261053e81610be5565b600085858560405160200161055593929190611039565b60408051601f198184030181529181528151602092830120600090815260059092529020929092555050505050565b60008281526020819052604090206001015461059f81610be5565b6105a98383610bf2565b50505050565b6001600160a01b03811633146105d85760405163334bd91960e11b815260040160405180910390fd5b6105e28282610c84565b505050565b6000805160206112b78339815191526105ff81610be5565b506001600160a01b03166000908152600260205260409020805460ff19811660ff90911615179055565b6000805160206112b783398151915261064181610be5565b60018054831515620100000262ff00001990911617905560405133907f0d848abbfec5c62f73a9e68f269ba0413cf78f98e90f97a268b65f0bafeafddf9061068e90851515815260200190565b60405180910390a25050565b6000805160206112b78339815191526106b281610be5565b50600092835260046020526040909220805461ffff191692151561ff0019169290921761010091151591909102179055565b6000808484846040516020016106fc93929190611039565b60408051808303601f1901815291815281516020928301206000908152600590925290205495945050505050565b6000918252602082815260408084206001600160a01b0393909316845291905290205460ff1690565b6000805160206112b783398151915261076b81610be5565b506001600160a01b03166000908152600360205260409020805460ff19811660ff90911615179055565b6000805160206112b78339815191526107ad81610be5565b6001805460ff191683151590811790915560405190815233907fa380f65e59038eb44eff9847beb52f717add1016e812efc8e770b3253ff7d24c9060200161068e565b6000805160206112b783398151915261080881610be5565b6001805483151563010000000263ff0000001990911617905560405133907f86349522c1d987577f509a5fcb6fe45f112a16c9c4616f5eab7e13d64d16a3829061068e90851515815260200190565b6000805160206112b783398151915261086f81610be5565b600180548315156101000261ff001990911617905560405133907f808c14e99b3ea0f600449e4471ee5a2275234c5b1db0a8da763f8a15ee663f029061068e90851515815260200190565b6000805160206112d78339815191526108d281610be5565b5050565b6000828152602081905260409020600101546108f181610be5565b6105a98383610c84565b6000805160206112d783398151915261091381610be5565b60008381526004602090815260409182902082518084019093525460ff8082161580158552610100909204161515918301919091526105a9578060200151801561095b575082155b15610b845760405163220c0a2160e21b815260048101859052600090339063883028849060240161020060405180830381865afa1580156109a0573d6000803e3d6000fd5b505050506040513d601f19601f820116820180604052508101906109c49190611137565b610140015160405163f320b51f60e01b8152600481018790529091506000906001600160a01b0383169063f320b51f90602401602060405180830381865afa158015610a14573d6000803e3d6000fd5b505050506040513d601f19601f82011682018060405250810190610a389190611217565b60405163d3e8948360e01b8152600481018290529091506000906001600160a01b0384169063d3e8948390602401606060405180830381865afa158015610a83573d6000803e3d6000fd5b505050506040513d601f19601f82011682018060405250810190610aa79190611230565b9050826001600160a01b031663f0bb285b6040518163ffffffff1660e01b8152600401602060405180830381865afa158015610ae7573d6000803e3d6000fd5b505050506040513d601f19601f82011682018060405250810190610b0b9190611299565b60208201518251604051637f1873f360e11b8152600481018690526001600160a01b039283166024820152604481019190915291169063fe30e7e690606401600060405180830381600087803b158015610b6457600080fd5b505af1158015610b78573d6000803e3d6000fd5b505050505050506105a9565b828015610b9357508060200151155b156105a95760405162461bcd60e51b815260206004820152601860248201527f417373657274696f6e4964206e6f7420617070726f766564000000000000000060448201526064015b60405180910390fd5b610bef8133610cef565b50565b6000610bfe838361072a565b610c7c576000838152602081815260408083206001600160a01b03861684529091529020805460ff19166001179055610c343390565b6001600160a01b0316826001600160a01b0316847f2f8788117e7eff1d82e926ec794901d17c78024a50270940304540a733656f0d60405160405180910390a45060016104c8565b5060006104c8565b6000610c90838361072a565b15610c7c576000838152602081815260408083206001600160a01b0386168085529252808320805460ff1916905551339286917ff6391f5c32d9c69d2a47ea670b442974b53935d1edc7fd64eb21e047a839171b9190a45060016104c8565b610cf9828261072a565b6108d25760405163e2517d3f60e01b81526001600160a01b038216600482015260248101839052604401610bdc565b600060208284031215610d3a57600080fd5b81356001600160e01b031981168114610d5257600080fd5b9392505050565b634e487b7160e01b600052604160045260246000fd5b604051610180810167ffffffffffffffff81118282101715610d9357610d93610d59565b60405290565b600082601f830112610daa57600080fd5b813567ffffffffffffffff80821115610dc557610dc5610d59565b604051601f8301601f19908116603f01168101908282118183101715610ded57610ded610d59565b81604052838152866020858801011115610e0657600080fd5b836020870160208301376000602085830101528094505050505092915050565b600080600060608486031215610e3b57600080fd5b8335925060208401359150604084013567ffffffffffffffff811115610e6057600080fd5b610e6c86828701610d99565b9150509250925092565b600060208284031215610e8857600080fd5b5035919050565b60008060008060808587031215610ea557600080fd5b8435935060208501359250604085013567ffffffffffffffff811115610eca57600080fd5b610ed687828801610d99565b949793965093946060013593505050565b6001600160a01b0381168114610bef57600080fd5b60008060408385031215610f0f57600080fd5b823591506020830135610f2181610ee7565b809150509250929050565b600060208284031215610f3e57600080fd5b8135610d5281610ee7565b8015158114610bef57600080fd5b600060208284031215610f6957600080fd5b8135610d5281610f49565b600080600060608486031215610f8957600080fd5b833592506020840135610f9b81610f49565b91506040840135610fab81610f49565b809150509250925092565b60008060408385031215610fc957600080fd5b823591506020830135610f2181610f49565b60005b83811015610ff6578181015183820152602001610fde565b50506000910152565b8281526040602082015260008251806040840152611024816060850160208701610fdb565b601f01601f1916919091016060019392505050565b83815282602082015260008251611057816040850160208701610fdb565b91909101604001949350505050565b805161107181610f49565b919050565b805161107181610ee7565b600060a0828403121561109357600080fd5b60405160a0810181811067ffffffffffffffff821117156110b6576110b6610d59565b806040525080915082516110c981610f49565b815260208301516110d981610f49565b602082015260408301516110ec81610f49565b604082015260608301516110ff81610ee7565b6060820152608083015161111281610ee7565b6080919091015292915050565b805167ffffffffffffffff8116811461107157600080fd5b6000610200828403121561114a57600080fd5b611152610d6f565b61115c8484611081565b815261116a60a08401611076565b602082015261117b60c0840161111f565b604082015261118c60e08401611066565b606082015261010061119f818501611076565b60808301526101206111b281860161111f565b60a08401526101406111c5818701611066565b60c08501526101608087015160e0860152610180870151848601526101a0870151838601526111f76101c08801611076565b828601526112086101e08801611076565b90850152509195945050505050565b60006020828403121561122957600080fd5b5051919050565b60006060828403121561124257600080fd5b6040516060810181811067ffffffffffffffff8211171561126557611265610d59565b60405282518152602083015161127a81610ee7565b6020820152604083015161128d81610f49565b60408201529392505050565b6000602082840312156112ab57600080fd5b8151610d5281610ee756fea7fb00808094bb0669054259df045936913ac8f131613a7a6da2e81ac75d5f48fa9ee5805867fcd64bc0d88adbfc542f8166570d1ca4cbb35eece5c4fc348fdda2646970667358221220dc2ad066849a7419552978a0cc1861c10a3b470acb66e1fe453c7b498f763bd964736f6c63430008170033a7fb00808094bb0669054259df045936913ac8f131613a7a6da2e81ac75d5f48fa9ee5805867fcd64bc0d88adbfc542f8166570d1ca4cbb35eece5c4fc348fdd",
  "devdoc": {
    "errors": {
      "AccessControlBadConfirmation()": [
        {
          "details": "The caller of a function is not the expected one. NOTE: Don't confuse with {AccessControlUnauthorizedAccount}."
        }
      ],
      "AccessControlUnauthorizedAccount(address,bytes32)": [
        {
          "details": "The `account` is missing a role."
        }
      ]
    },
    "events": {
      "RoleAdminChanged(bytes32,bytes32,bytes32)": {
        "details": "Emitted when `newAdminRole` is set as ``role``'s admin role, replacing `previousAdminRole` `DEFAULT_ADMIN_ROLE` is the starting admin for all roles, despite {RoleAdminChanged} not being emitted signaling this."
      },
      "RoleGranted(bytes32,address,address)": {
        "details": "Emitted when `account` is granted `role`. `sender` is the account that originated the contract call, an admin role bearer except when using {AccessControl-_setupRole}."
      },
      "RoleRevoked(bytes32,address,address)": {
        "details": "Emitted when `account` is revoked `role`. `sender` is the account that originated the contract call:   - if using `revokeRole`, it is the admin role bearer   - if using `renounceRole`, it is the role bearer (i.e. `account`)"
      }
    },
    "kind": "dev",
    "methods": {
      "assertionDisputedCallback(bytes32)": {
        "params": {
          "assertionId": "The identifier of the assertion that was disputed."
        }
      },
      "assertionResolvedCallback(bytes32,bool)": {
        "params": {
          "assertedTruthfully": "Whether the assertion was resolved as truthful or not.",
          "assertionId": "The identifier of the assertion that was resolved."
        }
      },
      "getPrice(bytes32,uint256,bytes)": {
        "params": {
          "ancillaryData": "ancillary data of the price being requested.",
          "identifier": "price identifier being requested.",
          "time": "timestamp of the price being requested."
        },
        "returns": {
          "_0": "price from the escalation manager to inform the resolution of the dispute."
        }
      },
      "getRoleAdmin(bytes32)": {
        "details": "Returns the admin role that controls `role`. See {grantRole} and {revokeRole}. To change a role's admin, use {_setRoleAdmin}."
      },
      "grantRole(bytes32,address)": {
        "details": "Grants `role` to `account`. If `account` had not been already granted `role`, emits a {RoleGranted} event. Requirements: - the caller must have ``role``'s admin role. May emit a {RoleGranted} event."
      },
      "hasRole(bytes32,address)": {
        "details": "Returns `true` if `account` has been granted `role`."
      },
      "isDisputeAllowed(bytes32,address)": {
        "params": {
          "assertionId": "the assertionId to validate the dispute for.",
          "disputeCaller": "the caller of the dispute function."
        },
        "returns": {
          "_0": "bool true if the dispute is allowed, false otherwise."
        }
      },
      "renounceRole(bytes32,address)": {
        "details": "Revokes `role` from the calling account. Roles are often managed via {grantRole} and {revokeRole}: this function's purpose is to provide a mechanism for accounts to lose their privileges if they are compromised (such as when a trusted device is misplaced). If the calling account had been revoked `role`, emits a {RoleRevoked} event. Requirements: - the caller must be `callerConfirmation`. May emit a {RoleRevoked} event."
      },
      "requestPrice(bytes32,uint256,bytes)": {
        "params": {
          "ancillaryData": "ancillary data of the price being requested.",
          "identifier": "the identifier to fetch the price for.",
          "time": "the time to fetch the price for."
        }
      },
      "revokeRole(bytes32,address)": {
        "details": "Revokes `role` from `account`. If `account` had been granted `role`, emits a {RoleRevoked} event. Requirements: - the caller must have ``role``'s admin role. May emit a {RoleRevoked} event."
      },
      "supportsInterface(bytes4)": {
        "details": "See {IERC165-supportsInterface}."
      }
    },
    "version": 1
  },
  "userdoc": {
    "kind": "user",
    "methods": {
      "assertionDisputedCallback(bytes32)": {
        "notice": "Callback function that is called by Optimistic Oracle V3 when an assertion is disputed."
      },
      "assertionResolvedCallback(bytes32,bool)": {
        "notice": "Callback function that is called by Optimistic Oracle V3 when an assertion is resolved."
      },
      "constructor": {
        "notice": "Constructs the escalation manager."
      },
      "getPrice(bytes32,uint256,bytes)": {
        "notice": "Implements price getting logic. This method is called by Optimistic Oracle V3 settling an assertion that is configured to use the escalation manager as the oracle. The interface is constructed to mimic the UMA DVM."
      },
      "isDisputeAllowed(bytes32,address)": {
        "notice": "Callback function that is called by Optimistic Oracle V3 when an assertion is disputed. Used to validate if the dispute should be allowed based on the escalation policy."
      },
      "requestPrice(bytes32,uint256,bytes)": {
        "notice": "Implements price requesting logic for the escalation manager. This function is called by the Optimistic Oracle V3 on dispute and is constructed to mimic that of the UMA DVM interface."
      }
    },
    "version": 1
  },
  "storageLayout": {
    "storage": [
      {
        "astId": 26,
        "contract": "contracts/uma/EscalationManager.sol:EscalationManager",
        "label": "_roles",
        "offset": 0,
        "slot": "0",
        "type": "t_mapping(t_bytes32,t_struct(RoleData)21_storage)"
      },
      {
        "astId": 908,
        "contract": "contracts/uma/EscalationManager.sol:EscalationManager",
        "label": "blockAssertion",
        "offset": 0,
        "slot": "1",
        "type": "t_bool"
      },
      {
        "astId": 910,
        "contract": "contracts/uma/EscalationManager.sol:EscalationManager",
        "label": "arbitrateViaEscalationManager",
        "offset": 1,
        "slot": "1",
        "type": "t_bool"
      },
      {
        "astId": 912,
        "contract": "contracts/uma/EscalationManager.sol:EscalationManager",
        "label": "discardOracle",
        "offset": 2,
        "slot": "1",
        "type": "t_bool"
      },
      {
        "astId": 914,
        "contract": "contracts/uma/EscalationManager.sol:EscalationManager",
        "label": "validateDisputers",
        "offset": 3,
        "slot": "1",
        "type": "t_bool"
      },
      {
        "astId": 918,
        "contract": "contracts/uma/EscalationManager.sol:EscalationManager",
        "label": "checkDisputers",
        "offset": 0,
        "slot": "2",
        "type": "t_mapping(t_address,t_bool)"
      },
      {
        "astId": 922,
        "contract": "contracts/uma/EscalationManager.sol:EscalationManager",
        "label": "checkAssertingCaller",
        "offset": 0,
        "slot": "3",
        "type": "t_mapping(t_address,t_bool)"
      },
      {
        "astId": 927,
        "contract": "contracts/uma/EscalationManager.sol:EscalationManager",
        "label": "isAssertionIdApproved",
        "offset": 0,
        "slot": "4",
        "type": "t_mapping(t_bytes32,t_struct(AssertionApproval)896_storage)"
      },
      {
        "astId": 931,
        "contract": "contracts/uma/EscalationManager.sol:EscalationManager",
        "label": "oraclePrice",
        "offset": 0,
        "slot": "5",
        "type": "t_mapping(t_bytes32,t_int256)"
      }
    ],
    "types": {
      "t_address": {
        "encoding": "inplace",
        "label": "address",
        "numberOfBytes": "20"
      },
      "t_bool": {
        "encoding": "inplace",
        "label": "bool",
        "numberOfBytes": "1"
      },
      "t_bytes32": {
        "encoding": "inplace",
        "label": "bytes32",
        "numberOfBytes": "32"
      },
      "t_int256": {
        "encoding": "inplace",
        "label": "int256",
        "numberOfBytes": "32"
      },
      "t_mapping(t_address,t_bool)": {
        "encoding": "mapping",
        "key": "t_address",
        "label": "mapping(address => bool)",
        "numberOfBytes": "32",
        "value": "t_bool"
      },
      "t_mapping(t_bytes32,t_int256)": {
        "encoding": "mapping",
        "key": "t_bytes32",
        "label": "mapping(bytes32 => int256)",
        "numberOfBytes": "32",
        "value": "t_int256"
      },
      "t_mapping(t_bytes32,t_struct(AssertionApproval)896_storage)": {
        "encoding": "mapping",
        "key": "t_bytes32",
        "label": "mapping(bytes32 => struct EscalationManager.AssertionApproval)",
        "numberOfBytes": "32",
        "value": "t_struct(AssertionApproval)896_storage"
      },
      "t_mapping(t_bytes32,t_struct(RoleData)21_storage)": {
        "encoding": "mapping",
        "key": "t_bytes32",
        "label": "mapping(bytes32 => struct AccessControl.RoleData)",
        "numberOfBytes": "32",
        "value": "t_struct(RoleData)21_storage"
      },
      "t_struct(AssertionApproval)896_storage": {
        "encoding": "inplace",
        "label": "struct EscalationManager.AssertionApproval",
        "members": [
          {
            "astId": 893,
            "contract": "contracts/uma/EscalationManager.sol:EscalationManager",
            "label": "exist",
            "offset": 0,
            "slot": "0",
            "type": "t_bool"
          },
          {
            "astId": 895,
            "contract": "contracts/uma/EscalationManager.sol:EscalationManager",
            "label": "approved",
            "offset": 1,
            "slot": "0",
            "type": "t_bool"
          }
        ],
        "numberOfBytes": "32"
      },
      "t_struct(RoleData)21_storage": {
        "encoding": "inplace",
        "label": "struct AccessControl.RoleData",
        "members": [
          {
            "astId": 18,
            "contract": "contracts/uma/EscalationManager.sol:EscalationManager",
            "label": "hasRole",
            "offset": 0,
            "slot": "0",
            "type": "t_mapping(t_address,t_bool)"
          },
          {
            "astId": 20,
            "contract": "contracts/uma/EscalationManager.sol:EscalationManager",
            "label": "adminRole",
            "offset": 0,
            "slot": "1",
            "type": "t_bytes32"
          }
        ],
        "numberOfBytes": "64"
      }
    }
  }
}