{
  "address": "0x91f9ad6aec2f140C54c6289510C3daFBC8736DBe",
  "abi": [
    {
      "inputs": [
        {
          "internalType": "address",
          "name": "_usdcToken",
          "type": "address"
        },
        {
          "internalType": "address",
          "name": "_WETH",
          "type": "address"
        },
        {
          "internalType": "address",
          "name": "_oraclePriceFeed",
          "type": "address"
        },
        {
          "internalType": "address",
          "name": "_uniswapRouter",
          "type": "address"
        },
        {
          "internalType": "address",
          "name": "_uniswapFactory",
          "type": "address"
        },
        {
          "internalType": "address",
          "name": "_multiSigWallet",
          "type": "address"
        },
        {
          "internalType": "uint256",
          "name": "_swapDeadline",
          "type": "uint256"
        }
      ],
      "stateMutability": "nonpayable",
      "type": "constructor"
    },
    {
      "inputs": [
        {
          "internalType": "address",
          "name": "target",
          "type": "address"
        }
      ],
      "name": "AddressEmptyCode",
      "type": "error"
    },
    {
      "inputs": [
        {
          "internalType": "address",
          "name": "account",
          "type": "address"
        }
      ],
      "name": "AddressInsufficientBalance",
      "type": "error"
    },
    {
      "inputs": [],
      "name": "EnforcedPause",
      "type": "error"
    },
    {
      "inputs": [],
      "name": "ExpectedPause",
      "type": "error"
    },
    {
      "inputs": [],
      "name": "FailedInnerCall",
      "type": "error"
    },
    {
      "inputs": [
        {
          "internalType": "address",
          "name": "owner",
          "type": "address"
        }
      ],
      "name": "OwnableInvalidOwner",
      "type": "error"
    },
    {
      "inputs": [
        {
          "internalType": "address",
          "name": "account",
          "type": "address"
        }
      ],
      "name": "OwnableUnauthorizedAccount",
      "type": "error"
    },
    {
      "inputs": [],
      "name": "ReentrancyGuardReentrantCall",
      "type": "error"
    },
    {
      "inputs": [
        {
          "internalType": "address",
          "name": "token",
          "type": "address"
        }
      ],
      "name": "SafeERC20FailedOperation",
      "type": "error"
    },
    {
      "anonymous": false,
      "inputs": [
        {
          "indexed": true,
          "internalType": "address",
          "name": "_dexAddress",
          "type": "address"
        },
        {
          "indexed": true,
          "internalType": "address",
          "name": "_convertToken",
          "type": "address"
        },
        {
          "indexed": false,
          "internalType": "uint256",
          "name": "_convertAmount",
          "type": "uint256"
        },
        {
          "indexed": false,
          "internalType": "uint256",
          "name": "_desiredAmount",
          "type": "uint256"
        },
        {
          "indexed": false,
          "internalType": "uint256",
          "name": "_convertedAmount",
          "type": "uint256"
        }
      ],
      "name": "ConvertedTokenToETH",
      "type": "event"
    },
    {
      "anonymous": false,
      "inputs": [
        {
          "indexed": true,
          "internalType": "address",
          "name": "_dexAddress",
          "type": "address"
        },
        {
          "indexed": true,
          "internalType": "address",
          "name": "_convertToken",
          "type": "address"
        },
        {
          "indexed": true,
          "internalType": "address",
          "name": "_convertedToken",
          "type": "address"
        },
        {
          "indexed": false,
          "internalType": "uint256",
          "name": "_convertAmount",
          "type": "uint256"
        },
        {
          "indexed": false,
          "internalType": "uint256",
          "name": "_desiredAmount",
          "type": "uint256"
        },
        {
          "indexed": false,
          "internalType": "uint256",
          "name": "_convertedAmount",
          "type": "uint256"
        }
      ],
      "name": "ConvertedTokenToToken",
      "type": "event"
    },
    {
      "anonymous": false,
      "inputs": [
        {
          "indexed": true,
          "internalType": "address",
          "name": "_exchangeAgent",
          "type": "address"
        },
        {
          "indexed": true,
          "internalType": "address",
          "name": "_whiteListAddress",
          "type": "address"
        }
      ],
      "name": "LogAddWhiteList",
      "type": "event"
    },
    {
      "anonymous": false,
      "inputs": [
        {
          "indexed": true,
          "internalType": "address",
          "name": "_exchangeAgent",
          "type": "address"
        },
        {
          "indexed": true,
          "internalType": "address",
          "name": "_whiteListAddress",
          "type": "address"
        }
      ],
      "name": "LogRemoveWhiteList",
      "type": "event"
    },
    {
      "anonymous": false,
      "inputs": [
        {
          "indexed": true,
          "internalType": "address",
          "name": "_exchangeAgent",
          "type": "address"
        },
        {
          "indexed": true,
          "internalType": "address",
          "name": "_oraclePriceFeed",
          "type": "address"
        }
      ],
      "name": "LogSetOraclePriceFeed",
      "type": "event"
    },
    {
      "anonymous": false,
      "inputs": [
        {
          "indexed": true,
          "internalType": "address",
          "name": "_exchangeAgent",
          "type": "address"
        },
        {
          "indexed": false,
          "internalType": "uint256",
          "name": "_slippage",
          "type": "uint256"
        }
      ],
      "name": "LogSetSlippage",
      "type": "event"
    },
    {
      "anonymous": false,
      "inputs": [
        {
          "indexed": true,
          "internalType": "address",
          "name": "previousOwner",
          "type": "address"
        },
        {
          "indexed": true,
          "internalType": "address",
          "name": "newOwner",
          "type": "address"
        }
      ],
      "name": "OwnershipTransferred",
      "type": "event"
    },
    {
      "anonymous": false,
      "inputs": [
        {
          "indexed": false,
          "internalType": "address",
          "name": "account",
          "type": "address"
        }
      ],
      "name": "Paused",
      "type": "event"
    },
    {
      "anonymous": false,
      "inputs": [
        {
          "indexed": false,
          "internalType": "address",
          "name": "account",
          "type": "address"
        }
      ],
      "name": "Unpaused",
      "type": "event"
    },
    {
      "inputs": [],
      "name": "UNISWAP_FACTORY",
      "outputs": [
        {
          "internalType": "address",
          "name": "",
          "type": "address"
        }
      ],
      "stateMutability": "view",
      "type": "function"
    },
    {
      "inputs": [],
      "name": "UNISWAP_ROUTER",
      "outputs": [
        {
          "internalType": "address",
          "name": "",
          "type": "address"
        }
      ],
      "stateMutability": "view",
      "type": "function"
    },
    {
      "inputs": [],
      "name": "WETH",
      "outputs": [
        {
          "internalType": "address",
          "name": "",
          "type": "address"
        }
      ],
      "stateMutability": "view",
      "type": "function"
    },
    {
      "inputs": [
        {
          "internalType": "address",
          "name": "_whiteListAddress",
          "type": "address"
        }
      ],
      "name": "addWhiteList",
      "outputs": [],
      "stateMutability": "nonpayable",
      "type": "function"
    },
    {
      "inputs": [
        {
          "internalType": "address",
          "name": "_token",
          "type": "address"
        },
        {
          "internalType": "uint256",
          "name": "_convertAmount",
          "type": "uint256"
        }
      ],
      "name": "convertForETH",
      "outputs": [
        {
          "internalType": "uint256",
          "name": "",
          "type": "uint256"
        }
      ],
      "stateMutability": "nonpayable",
      "type": "function"
    },
    {
      "inputs": [
        {
          "internalType": "address",
          "name": "_token0",
          "type": "address"
        },
        {
          "internalType": "address",
          "name": "_token1",
          "type": "address"
        },
        {
          "internalType": "uint256",
          "name": "_token0Amount",
          "type": "uint256"
        }
      ],
      "name": "convertForToken",
      "outputs": [
        {
          "internalType": "uint256",
          "name": "",
          "type": "uint256"
        }
      ],
      "stateMutability": "nonpayable",
      "type": "function"
    },
    {
      "inputs": [
        {
          "internalType": "address",
          "name": "_token",
          "type": "address"
        },
        {
          "internalType": "uint256",
          "name": "_tokenAmount",
          "type": "uint256"
        }
      ],
      "name": "getETHAmountForToken",
      "outputs": [
        {
          "internalType": "uint256",
          "name": "",
          "type": "uint256"
        }
      ],
      "stateMutability": "view",
      "type": "function"
    },
    {
      "inputs": [
        {
          "internalType": "uint256",
          "name": "_usdtAmount",
          "type": "uint256"
        }
      ],
      "name": "getETHAmountForUSDC",
      "outputs": [
        {
          "internalType": "uint256",
          "name": "",
          "type": "uint256"
        }
      ],
      "stateMutability": "view",
      "type": "function"
    },
    {
      "inputs": [
        {
          "internalType": "address",
          "name": "_token0",
          "type": "address"
        },
        {
          "internalType": "address",
          "name": "_token1",
          "type": "address"
        },
        {
          "internalType": "uint256",
          "name": "_token0Amount",
          "type": "uint256"
        }
      ],
      "name": "getNeededTokenAmount",
      "outputs": [
        {
          "internalType": "uint256",
          "name": "",
          "type": "uint256"
        }
      ],
      "stateMutability": "view",
      "type": "function"
    },
    {
      "inputs": [
        {
          "internalType": "address",
          "name": "_token",
          "type": "address"
        },
        {
          "internalType": "uint256",
          "name": "_ethAmount",
          "type": "uint256"
        }
      ],
      "name": "getTokenAmountForETH",
      "outputs": [
        {
          "internalType": "uint256",
          "name": "",
          "type": "uint256"
        }
      ],
      "stateMutability": "view",
      "type": "function"
    },
    {
      "inputs": [
        {
          "internalType": "address",
          "name": "_token",
          "type": "address"
        },
        {
          "internalType": "uint256",
          "name": "_usdtAmount",
          "type": "uint256"
        }
      ],
      "name": "getTokenAmountForUSDC",
      "outputs": [
        {
          "internalType": "uint256",
          "name": "",
          "type": "uint256"
        }
      ],
      "stateMutability": "view",
      "type": "function"
    },
    {
      "inputs": [],
      "name": "killPool",
      "outputs": [],
      "stateMutability": "nonpayable",
      "type": "function"
    },
    {
      "inputs": [],
      "name": "oraclePriceFeed",
      "outputs": [
        {
          "internalType": "address",
          "name": "",
          "type": "address"
        }
      ],
      "stateMutability": "view",
      "type": "function"
    },
    {
      "inputs": [],
      "name": "owner",
      "outputs": [
        {
          "internalType": "address",
          "name": "",
          "type": "address"
        }
      ],
      "stateMutability": "view",
      "type": "function"
    },
    {
      "inputs": [],
      "name": "paused",
      "outputs": [
        {
          "internalType": "bool",
          "name": "",
          "type": "bool"
        }
      ],
      "stateMutability": "view",
      "type": "function"
    },
    {
      "inputs": [
        {
          "internalType": "address",
          "name": "_whiteListAddress",
          "type": "address"
        }
      ],
      "name": "removeWhiteList",
      "outputs": [],
      "stateMutability": "nonpayable",
      "type": "function"
    },
    {
      "inputs": [],
      "name": "renounceOwnership",
      "outputs": [],
      "stateMutability": "nonpayable",
      "type": "function"
    },
    {
      "inputs": [],
      "name": "revivePool",
      "outputs": [],
      "stateMutability": "nonpayable",
      "type": "function"
    },
    {
      "inputs": [
        {
          "internalType": "address",
          "name": "_oraclePriceFeed",
          "type": "address"
        }
      ],
      "name": "setOraclePriceFeed",
      "outputs": [],
      "stateMutability": "nonpayable",
      "type": "function"
    },
    {
      "inputs": [
        {
          "internalType": "uint256",
          "name": "_slippage",
          "type": "uint256"
        }
      ],
      "name": "setSlippage",
      "outputs": [],
      "stateMutability": "nonpayable",
      "type": "function"
    },
    {
      "inputs": [
        {
          "internalType": "uint256",
          "name": "_swapDeadline",
          "type": "uint256"
        }
      ],
      "name": "setSwapDeadline",
      "outputs": [],
      "stateMutability": "nonpayable",
      "type": "function"
    },
    {
      "inputs": [],
      "name": "slippage",
      "outputs": [
        {
          "internalType": "uint256",
          "name": "",
          "type": "uint256"
        }
      ],
      "stateMutability": "view",
      "type": "function"
    },
    {
      "inputs": [],
      "name": "swapDeadline",
      "outputs": [
        {
          "internalType": "uint256",
          "name": "",
          "type": "uint256"
        }
      ],
      "stateMutability": "view",
      "type": "function"
    },
    {
      "inputs": [
        {
          "internalType": "address",
          "name": "newOwner",
          "type": "address"
        }
      ],
      "name": "transferOwnership",
      "outputs": [],
      "stateMutability": "nonpayable",
      "type": "function"
    },
    {
      "inputs": [],
      "name": "usdcToken",
      "outputs": [
        {
          "internalType": "address",
          "name": "",
          "type": "address"
        }
      ],
      "stateMutability": "view",
      "type": "function"
    },
    {
      "inputs": [
        {
          "internalType": "address",
          "name": "",
          "type": "address"
        }
      ],
      "name": "whiteList",
      "outputs": [
        {
          "internalType": "bool",
          "name": "",
          "type": "bool"
        }
      ],
      "stateMutability": "view",
      "type": "function"
    },
    {
      "stateMutability": "payable",
      "type": "receive"
    }
  ],
  "transactionHash": "0xa4d3a58254e8e26006bf0643ef3728c175bfbbd5e6b75d1dcab7daef4f776770",
  "args": [
    "0xB6b67A0b6B3e627d9e9aD6232c1CEf3cBb719620",
    "0xB4FBF271143F4FBf7B91A5ded31805e42b2208d6",
    "0x8e2D79d787A4C35F7d7443180F141894cd1Bbfb8",
    "0x7a250d5630B4cF539739dF2C5dAcb4c659F2488D",
    "0x5C69bEe701ef814a2B6a3EDD4B1652CB9cc5aA6f",
    "0xBC13Ca15b56BEEA075E39F6f6C09CA40c10Ddba6",
    "60000000000000000000"
  ],
  "numDeployments": 1,
  "solcInputHash": "d2fc875e3afcbd9499ae3f5e7a33f9ef",
  "bytecode": "0x6101006040523480156200001257600080fd5b5060405162002ca638038062002ca68339810160408190526200003591620004d5565b6001600055816001600160a01b0381166200006b57604051631e4fbdf760e01b8152600060048201526024015b60405180910390fd5b620000768162000466565b506001805460ff60a01b191690556001600160a01b038716620000dc5760405162461bcd60e51b815260206004820152601860248201527f556e6f52653a207a65726f205553444320616464726573730000000000000000604482015260640162000062565b6001600160a01b0384166200013e5760405162461bcd60e51b815260206004820152602160248201527f556e6f52653a207a65726f20756e6973776170526f75746572206164647265736044820152607360f81b606482015260840162000062565b6001600160a01b038316620001a15760405162461bcd60e51b815260206004820152602260248201527f556e6f52653a207a65726f20756e6973776170466163746f7279206164647265604482015261737360f01b606482015260840162000062565b6001600160a01b038616620001f95760405162461bcd60e51b815260206004820152601860248201527f556e6f52653a207a65726f205745544820616464726573730000000000000000604482015260640162000062565b6001600160a01b0382166200025c5760405162461bcd60e51b815260206004820152602260248201527f556e6f52653a207a65726f206d756c746973696777616c6c6574206164647265604482015261737360f01b606482015260840162000062565b6003826001600160a01b031663a0e67e2b6040518163ffffffff1660e01b8152600401600060405180830381865afa1580156200029d573d6000803e3d6000fd5b505050506040513d6000823e601f3d908101601f19168201604052620002c7919081019062000577565b5111620003255760405162461bcd60e51b815260206004820152602560248201527f556e6f52653a206d6f7265207468616e207468726565206f776e6572732072656044820152641c5d5a595960da1b606482015260840162000062565b6001826001600160a01b031663e75235b86040518163ffffffff1660e01b8152600401602060405180830381865afa15801562000366573d6000803e3d6000fd5b505050506040513d601f19601f820116820180604052508101906200038c919062000649565b11620003f15760405162461bcd60e51b815260206004820152602d60248201527f556e6f52653a206d6f7265207468616e206f6e65206f776e657273207265717560448201526c69656420746f2076657269667960981b606482015260840162000062565b6001600160a01b0387811660805283811660a05284811660c05286811660e052600280546001600160a01b031916918716919091179055336000908152600560208190526040909120805460ff19166001179055620004539060649062000663565b600355600455506200068f945050505050565b600180546001600160a01b038381166001600160a01b0319831681179093556040519116919082907f8be0079c531659141344cd1fd0a4f28419497f9722a3daafe3b4186f6b6457e090600090a35050565b80516001600160a01b0381168114620004d057600080fd5b919050565b600080600080600080600060e0888a031215620004f157600080fd5b620004fc88620004b8565b96506200050c60208901620004b8565b95506200051c60408901620004b8565b94506200052c60608901620004b8565b93506200053c60808901620004b8565b92506200054c60a08901620004b8565b915060c0880151905092959891949750929550565b634e487b7160e01b600052604160045260246000fd5b600060208083850312156200058b57600080fd5b82516001600160401b0380821115620005a357600080fd5b818501915085601f830112620005b857600080fd5b815181811115620005cd57620005cd62000561565b8060051b604051601f19603f83011681018181108582111715620005f557620005f562000561565b6040529182528482019250838101850191888311156200061457600080fd5b938501935b828510156200063d576200062d85620004b8565b8452938501939285019262000619565b98975050505050505050565b6000602082840312156200065c57600080fd5b5051919050565b80820281158282048414176200068957634e487b7160e01b600052601160045260246000fd5b92915050565b60805160a05160c05160e0516125ac620006fa6000396000818161044c01528181611af40152611bd00152600081816104d401528181610bef0152610e0c015260006104a00152600081816101f60152818161088b015281816109090152610e4901526125ac6000f3fe6080604052600436106101a55760003560e01c80638da5cb5b116100e1578063ad5c46481161008a578063d826492011610064578063d8264920146104c2578063e7cd4a04146104f6578063f0fa55a914610516578063f2fde38b1461053657600080fd5b8063ad5c46481461043a578063ba560ed91461046e578063c74c0fac1461048e57600080fd5b8063942dbff4116100bb578063942dbff4146103e45780639a553968146103fa578063a9a12d431461041a57600080fd5b80638da5cb5b1461038657806393ad9f17146103a457806393badc41146103c457600080fd5b80633e032a3b1161014e57806367755415116101285780636775541514610327578063715018a61461033c57806375d38071146103515780637a39b8d81461037157600080fd5b80633e032a3b146102d2578063531a2211146102e85780635c975abb1461030857600080fd5b80632042e5c21161017f5780632042e5c21461025257806334899be614610272578063372c12b11461029257600080fd5b8063102e3259146101b157806311eac855146101e45780631eb5b6991461023057600080fd5b366101ac57005b600080fd5b3480156101bd57600080fd5b506101d16101cc3660046121f8565b610556565b6040519081526020015b60405180910390f35b3480156101f057600080fd5b506102187f000000000000000000000000000000000000000000000000000000000000000081565b6040516001600160a01b0390911681526020016101db565b34801561023c57600080fd5b5061025061024b366004612224565b61065d565b005b34801561025e57600080fd5b5061025061026d366004612224565b610724565b34801561027e57600080fd5b506101d161028d366004612241565b61085a565b34801561029e57600080fd5b506102c26102ad366004612224565b60056020526000908152604090205460ff1681565b60405190151581526020016101db565b3480156102de57600080fd5b506101d160035481565b3480156102f457600080fd5b506101d1610303366004612282565b610871565b34801561031457600080fd5b50600154600160a01b900460ff166102c2565b34801561033357600080fd5b506102506109b5565b34801561034857600080fd5b506102506109c7565b34801561035d57600080fd5b50600254610218906001600160a01b031681565b34801561037d57600080fd5b506102506109d9565b34801561039257600080fd5b506001546001600160a01b0316610218565b3480156103b057600080fd5b506102506103bf366004612282565b6109e9565b3480156103d057600080fd5b506101d16103df366004612241565b6109f6565b3480156103f057600080fd5b506101d160045481565b34801561040657600080fd5b506101d16104153660046121f8565b610c26565b34801561042657600080fd5b506101d16104353660046121f8565b610e42565b34801561044657600080fd5b506102187f000000000000000000000000000000000000000000000000000000000000000081565b34801561047a57600080fd5b506101d16104893660046121f8565b610e6f565b34801561049a57600080fd5b506102187f000000000000000000000000000000000000000000000000000000000000000081565b3480156104ce57600080fd5b506102187f000000000000000000000000000000000000000000000000000000000000000081565b34801561050257600080fd5b50610250610511366004612224565b610f62565b34801561052257600080fd5b50610250610531366004612282565b611076565b34801561054257600080fd5b50610250610551366004612224565b611164565b60025460405163355188ab60e01b81526001600160a01b038481166004830152600092839291169063355188ab90602401602060405180830381865afa1580156105a4573d6000803e3d6000fd5b505050506040513d601f19601f820116820180604052508101906105c8919061229b565b90506000846001600160a01b031663313ce5676040518163ffffffff1660e01b8152600401602060405180830381865afa15801561060a573d6000803e3d6000fd5b505050506040513d601f19601f8201168201806040525081019061062e91906122b4565b60ff16905061063e81600a6123d1565b61064883866123dd565b61065291906123f4565b925050505b92915050565b6106656111bb565b6001600160a01b0381166106c05760405162461bcd60e51b815260206004820152601360248201527f556e6f52653a207a65726f20616464726573730000000000000000000000000060448201526064015b60405180910390fd5b600280547fffffffffffffffffffffffff0000000000000000000000000000000000000000166001600160a01b03831690811790915560405130907f76d908faefb2e5bb2e5551cce5530e7d157dd5ddafe26554d2320c5cc065009f90600090a350565b61072c6111bb565b6001600160a01b0381166107825760405162461bcd60e51b815260206004820152601360248201527f556e6f52653a207a65726f20616464726573730000000000000000000000000060448201526064016106b7565b6001600160a01b03811660009081526005602052604090205460ff166108105760405162461bcd60e51b815260206004820152602c60248201527f556e6f52653a207768697465206c6973742072656d6f766564206f7220756e6160448201527f6464656420616c7265616479000000000000000000000000000000000000000060648201526084016106b7565b6001600160a01b038116600081815260056020526040808220805460ff191690555130917f2f467772ef0a5478314f3bc2b37d4b2ad29b65f052b2cedc8e2972dda033529291a350565b6000610867848484611201565b90505b9392505050565b60025460405163355188ab60e01b81526001600160a01b037f000000000000000000000000000000000000000000000000000000000000000081166004830152600092839291169063355188ab90602401602060405180830381865afa1580156108df573d6000803e3d6000fd5b505050506040513d601f19601f82011682018060405250810190610903919061229b565b905060007f00000000000000000000000000000000000000000000000000000000000000006001600160a01b031663313ce5676040518163ffffffff1660e01b8152600401602060405180830381865afa158015610965573d6000803e3d6000fd5b505050506040513d601f19601f8201168201806040525081019061098991906122b4565b60ff16905061099981600a6123d1565b6109a383866123dd565b6109ad91906123f4565b949350505050565b6109bd6111bb565b6109c56112a4565b565b6109cf6111bb565b6109c56000611314565b6109e16111bb565b6109c561137e565b6109f16111bb565b600455565b3360009081526005602052604081205460ff16610a555760405162461bcd60e51b815260206004820152601e60248201527f556e6f52653a2045786368616e67654167656e7420466f7262696464656e000060448201526064016106b7565b610a5d6113dc565b610a65611420565b60006001600160a01b03851615610b4c576040516370a0823160e01b81523360048201526000906001600160a01b038716906370a0823190602401602060405180830381865afa158015610abd573d6000803e3d6000fd5b505050506040513d601f19601f82011682018060405250810190610ae1919061229b565b11610b2e5760405162461bcd60e51b815260206004820152601360248201527f556e6f52653a207a65726f2062616c616e63650000000000000000000000000060448201526064016106b7565b610b3a85333086611463565b610b45858585611201565b9050610b59565b610b568484610e6f565b90505b60008111610ba95760405162461bcd60e51b815260206004820152600f60248201527f556e6f52653a206e6f207061697273000000000000000000000000000000000060448201526064016106b7565b6000606480600354606480610bbe91906123dd565b610bc89190612416565b610bd290856123dd565b610bdc91906123f4565b610be691906123f4565b90506000610c177f0000000000000000000000000000000000000000000000000000000000000000888888866115db565b935050505061086a6001600055565b3360009081526005602052604081205460ff16610c855760405162461bcd60e51b815260206004820152601e60248201527f556e6f52653a2045786368616e67654167656e7420466f7262696464656e000060448201526064016106b7565b610c8d6113dc565b610c95611420565b6040516370a0823160e01b81523360048201526000906001600160a01b038516906370a0823190602401602060405180830381865afa158015610cdc573d6000803e3d6000fd5b505050506040513d601f19601f82011682018060405250810190610d00919061229b565b11610d4d5760405162461bcd60e51b815260206004820152601360248201527f556e6f52653a207a65726f2062616c616e63650000000000000000000000000060448201526064016106b7565b6001600160a01b03831615610d6857610d6883333085611463565b6000610d748484610556565b905060008111610dc65760405162461bcd60e51b815260206004820152600f60248201527f556e6f52653a206e6f207061697273000000000000000000000000000000000060448201526064016106b7565b6000606480600354606480610ddb91906123dd565b610de59190612416565b610def90856123dd565b610df991906123f4565b610e0391906123f4565b90506000610e337f0000000000000000000000000000000000000000000000000000000000000000878785611a43565b93505050506106576001600055565b600061086a7f00000000000000000000000000000000000000000000000000000000000000008484611201565b60025460405163355188ab60e01b81526001600160a01b038481166004830152600092839291169063355188ab90602401602060405180830381865afa158015610ebd573d6000803e3d6000fd5b505050506040513d601f19601f82011682018060405250810190610ee1919061229b565b90506000846001600160a01b031663313ce5676040518163ffffffff1660e01b8152600401602060405180830381865afa158015610f23573d6000803e3d6000fd5b505050506040513d601f19601f82011682018060405250810190610f4791906122b4565b60ff16905081610f5882600a6123d1565b61064890866123dd565b610f6a6111bb565b6001600160a01b038116610fc05760405162461bcd60e51b815260206004820152601360248201527f556e6f52653a207a65726f20616464726573730000000000000000000000000060448201526064016106b7565b6001600160a01b03811660009081526005602052604090205460ff16156110295760405162461bcd60e51b815260206004820152601960248201527f556e6f52653a207768697465206c69737420616c72656164790000000000000060448201526064016106b7565b6001600160a01b038116600081815260056020526040808220805460ff191660011790555130917f8cd7b0b1a7316eb3e5d781d629cb8bf4e2fd9a8903bdd0f6b894c087d61b21f291a350565b61107e6111bb565b600081116110ce5760405162461bcd60e51b815260206004820152601460248201527f556e6f52653a207a65726f20736c69707061676500000000000000000000000060448201526064016106b7565b6064811061111e5760405162461bcd60e51b815260206004820152601d60248201527f556e6f52653a203130302520736c697070616765206f766572666c6f7700000060448201526064016106b7565b6111296064826123dd565b60035560405181815230907f1b5c61e79b0735d33852817a0af9ed28b909c7c0a2a04abcc0c19bba6d6ba5649060200160405180910390a250565b61116c6111bb565b6001600160a01b0381166111af576040517f1e4fbdf7000000000000000000000000000000000000000000000000000000008152600060048201526024016106b7565b6111b881611314565b50565b6001546001600160a01b031633146109c5576040517f118cdaa70000000000000000000000000000000000000000000000000000000081523360048201526024016106b7565b6002546040517f636cfa0c0000000000000000000000000000000000000000000000000000000081526001600160a01b038581166004830152848116602483015260448201849052600092839291169063636cfa0c90606401602060405180830381865afa158015611277573d6000803e3d6000fd5b505050506040513d601f19601f8201168201806040525081019061129b919061229b565b95945050505050565b6112ac611d09565b600180547fffffffffffffffffffffff00ffffffffffffffffffffffffffffffffffffffff1690557f5db9ee0a495bf2e6ff9c91a7834c1ba4fdd244a5e8aa4e537bd38aeae4b073aa335b6040516001600160a01b03909116815260200160405180910390a1565b600180546001600160a01b038381167fffffffffffffffffffffffff0000000000000000000000000000000000000000831681179093556040519116919082907f8be0079c531659141344cd1fd0a4f28419497f9722a3daafe3b4186f6b6457e090600090a35050565b6113866113dc565b600180547fffffffffffffffffffffff00ffffffffffffffffffffffffffffffffffffffff16600160a01b1790557f62e78cea01bee320cd4e420270b5ea74000d11b0c9f74754ebdbfc544b05a2586112f73390565b600154600160a01b900460ff16156109c5576040517fd93c066500000000000000000000000000000000000000000000000000000000815260040160405180910390fd5b60026000540361145c576040517f3ee5aeb500000000000000000000000000000000000000000000000000000000815260040160405180910390fd5b6002600055565b604080516001600160a01b0385811660248301528481166044830152606480830185905283518084039091018152608490920183526020820180517bffffffffffffffffffffffffffffffffffffffffffffffffffffffff167f23b872dd0000000000000000000000000000000000000000000000000000000017905291516000928392908816916114f59190612429565b6000604051808303816000865af19150503d8060008114611532576040519150601f19603f3d011682016040523d82523d6000602084013e611537565b606091505b50915091508180156115615750805115806115615750808060200190518101906115619190612458565b6115d35760405162461bcd60e51b815260206004820152603160248201527f5472616e7366657248656c7065723a3a7472616e7366657246726f6d3a20747260448201527f616e7366657246726f6d206661696c656400000000000000000000000000000060648201526084016106b7565b505050505050565b6000808690506000816001600160a01b031663c45a01556040518163ffffffff1660e01b8152600401602060405180830381865afa158015611621573d6000803e3d6000fd5b505050506040513d601f19601f82011682018060405250810190611645919061247a565b6040516370a0823160e01b81523360048201529091506000906001600160a01b038816906370a0823190602401602060405180830381865afa15801561168f573d6000803e3d6000fd5b505050506040513d601f19601f820116820180604052508101906116b3919061229b565b90506000836001600160a01b031663ad5c46486040518163ffffffff1660e01b8152600401602060405180830381865afa1580156116f5573d6000803e3d6000fd5b505050506040513d601f19601f82011682018060405250810190611719919061247a565b90506001600160a01b03891615611737575087611737818589611d4c565b6040517fe6a439050000000000000000000000000000000000000000000000000000000081526001600160a01b03828116600483015289811660248301526000919085169063e6a4390590604401602060405180830381865afa1580156117a2573d6000803e3d6000fd5b505050506040513d601f19601f820116820180604052508101906117c6919061247a565b6001600160a01b03161461195257604080516002808252606082018352600092602083019080368337019050509050818160008151811061180957611809612497565b60200260200101906001600160a01b031690816001600160a01b031681525050888160018151811061183d5761183d612497565b6001600160a01b0392831660209182029290920101528a166118d057846001600160a01b031663b6f9de95898984336004544261187a91906124ad565b6040518663ffffffff1660e01b81526004016118999493929190612505565b6000604051808303818588803b1580156118b257600080fd5b505af11580156118c6573d6000803e3d6000fd5b5050505050611950565b6040517f5c11d7950000000000000000000000000000000000000000000000000000000081526001600160a01b03861690635c11d7959061191d908b908b9086903390429060040161253a565b600060405180830381600087803b15801561193757600080fd5b505af115801561194b573d6000803e3d6000fd5b505050505b505b6040516370a0823160e01b81523360048201526000906001600160a01b038a16906370a0823190602401602060405180830381865afa158015611999573d6000803e3d6000fd5b505050506040513d601f19601f820116820180604052508101906119bd919061229b565b9050886001600160a01b03168a6001600160a01b03168c6001600160a01b03167fd30edfe8aafab67575a170d015da0337bcb39e5c9af1b2dfb9294fb75b344ac38b8b8887611a0c9190612416565b6040805193845260208401929092529082015260600160405180910390a4611a348382612416565b9b9a5050505050505050505050565b6000808590506000816001600160a01b031663c45a01556040518163ffffffff1660e01b8152600401602060405180830381865afa158015611a89573d6000803e3d6000fd5b505050506040513d601f19601f82011682018060405250810190611aad919061247a565b90503331611abc878488611ea2565b6040517fe6a439050000000000000000000000000000000000000000000000000000000081526001600160a01b0388811660048301527f0000000000000000000000000000000000000000000000000000000000000000811660248301526000919084169063e6a4390590604401602060405180830381865afa158015611b47573d6000803e3d6000fd5b505050506040513d601f19601f82011682018060405250810190611b6b919061247a565b6001600160a01b031614611c97576040805160028082526060820183526000926020830190803683370190505090508781600081518110611bae57611bae612497565b60200260200101906001600160a01b031690816001600160a01b0316815250507f000000000000000000000000000000000000000000000000000000000000000081600181518110611c0257611c02612497565b60200260200101906001600160a01b031690816001600160a01b031681525050836001600160a01b031663791ac9478888843360045442611c4391906124ad565b6040518663ffffffff1660e01b8152600401611c6395949392919061253a565b600060405180830381600087803b158015611c7d57600080fd5b505af1158015611c91573d6000803e3d6000fd5b50505050505b33316001600160a01b03888116908a167f1df84ee81df9963f5d40b2a3f717360c1f62daa6f21f69580398a8d570de644c8989611cd48787612416565b6040805193845260208401929092529082015260600160405180910390a3611cfc8282612416565b9998505050505050505050565b600154600160a01b900460ff166109c5576040517f8dfc202b00000000000000000000000000000000000000000000000000000000815260040160405180910390fd5b604080516001600160a01b038481166024830152604480830185905283518084039091018152606490920183526020820180517bffffffffffffffffffffffffffffffffffffffffffffffffffffffff1663095ea7b360e01b1790529151600092839290871691611dbd9190612429565b6000604051808303816000865af19150503d8060008114611dfa576040519150601f19603f3d011682016040523d82523d6000602084013e611dff565b606091505b5091509150818015611e29575080511580611e29575080806020019051810190611e299190612458565b611e9b5760405162461bcd60e51b815260206004820152602b60248201527f5472616e7366657248656c7065723a3a73616665417070726f76653a2061707060448201527f726f7665206661696c656400000000000000000000000000000000000000000060648201526084016106b7565b5050505050565b604080516001600160a01b038416602482015260448082018490528251808303909101815260649091019091526020810180517bffffffffffffffffffffffffffffffffffffffffffffffffffffffff1663095ea7b360e01b179052611f088482611f86565b611f8057604080516001600160a01b038516602482015260006044808301919091528251808303909101815260649091019091526020810180517bffffffffffffffffffffffffffffffffffffffffffffffffffffffff1663095ea7b360e01b179052611f76908590612029565b611f808482612029565b50505050565b6000806000846001600160a01b031684604051611fa39190612429565b6000604051808303816000865af19150503d8060008114611fe0576040519150601f19603f3d011682016040523d82523d6000602084013e611fe5565b606091505b509150915081801561200f57508051158061200f57508080602001905181019061200f9190612458565b80156106525750505050506001600160a01b03163b151590565b600061203e6001600160a01b038416836120aa565b905080516000141580156120635750808060200190518101906120619190612458565b155b156120a5576040517f5274afe70000000000000000000000000000000000000000000000000000000081526001600160a01b03841660048201526024016106b7565b505050565b606061086a8383600084600080856001600160a01b031684866040516120d09190612429565b60006040518083038185875af1925050503d806000811461210d576040519150601f19603f3d011682016040523d82523d6000602084013e612112565b606091505b509150915061212286838361212c565b9695505050505050565b6060826121415761213c826121a1565b61086a565b815115801561215857506001600160a01b0384163b155b1561219a576040517f9996b3150000000000000000000000000000000000000000000000000000000081526001600160a01b03851660048201526024016106b7565b508061086a565b8051156121b15780518082602001fd5b6040517f1425ea4200000000000000000000000000000000000000000000000000000000815260040160405180910390fd5b6001600160a01b03811681146111b857600080fd5b6000806040838503121561220b57600080fd5b8235612216816121e3565b946020939093013593505050565b60006020828403121561223657600080fd5b813561086a816121e3565b60008060006060848603121561225657600080fd5b8335612261816121e3565b92506020840135612271816121e3565b929592945050506040919091013590565b60006020828403121561229457600080fd5b5035919050565b6000602082840312156122ad57600080fd5b5051919050565b6000602082840312156122c657600080fd5b815160ff8116811461086a57600080fd5b634e487b7160e01b600052601160045260246000fd5b600181815b8085111561232857816000190482111561230e5761230e6122d7565b8085161561231b57918102915b93841c93908002906122f2565b509250929050565b60008261233f57506001610657565b8161234c57506000610657565b8160018114612362576002811461236c57612388565b6001915050610657565b60ff84111561237d5761237d6122d7565b50506001821b610657565b5060208310610133831016604e8410600b84101617156123ab575081810a610657565b6123b583836122ed565b80600019048211156123c9576123c96122d7565b029392505050565b600061086a8383612330565b8082028115828204841417610657576106576122d7565b60008261241157634e487b7160e01b600052601260045260246000fd5b500490565b81810381811115610657576106576122d7565b6000825160005b8181101561244a5760208186018101518583015201612430565b506000920191825250919050565b60006020828403121561246a57600080fd5b8151801515811461086a57600080fd5b60006020828403121561248c57600080fd5b815161086a816121e3565b634e487b7160e01b600052603260045260246000fd5b80820180821115610657576106576122d7565b60008151808452602080850194506020840160005b838110156124fa5781516001600160a01b0316875295820195908201906001016124d5565b509495945050505050565b84815260806020820152600061251e60808301866124c0565b6001600160a01b03949094166040830152506060015292915050565b85815284602082015260a06040820152600061255960a08301866124c0565b6001600160a01b039490941660608301525060800152939250505056fea264697066735822122032c97391f6969eb34fa335187d939a5d67971a53707146974b86d28cb8b006da64736f6c63430008170033",
  "devdoc": {
    "errors": {
      "AddressEmptyCode(address)": [
        {
          "details": "There's no code at `target` (it is not a contract)."
        }
      ],
      "AddressInsufficientBalance(address)": [
        {
          "details": "The ETH balance of the account is not enough to perform the operation."
        }
      ],
      "EnforcedPause()": [
        {
          "details": "The operation failed because the contract is paused."
        }
      ],
      "ExpectedPause()": [
        {
          "details": "The operation failed because the contract is not paused."
        }
      ],
      "FailedInnerCall()": [
        {
          "details": "A call to an address target failed. The target may have reverted."
        }
      ],
      "OwnableInvalidOwner(address)": [
        {
          "details": "The owner is not a valid owner account. (eg. `address(0)`)"
        }
      ],
      "OwnableUnauthorizedAccount(address)": [
        {
          "details": "The caller account is not authorized to perform an operation."
        }
      ],
      "ReentrancyGuardReentrantCall()": [
        {
          "details": "Unauthorized reentrant call."
        }
      ],
      "SafeERC20FailedOperation(address)": [
        {
          "details": "An operation with an ERC20 token failed."
        }
      ]
    },
    "events": {
      "Paused(address)": {
        "details": "Emitted when the pause is triggered by `account`."
      },
      "Unpaused(address)": {
        "details": "Emitted when the pause is lifted by `account`."
      }
    },
    "kind": "dev",
    "methods": {
      "owner()": {
        "details": "Returns the address of the current owner."
      },
      "paused()": {
        "details": "Returns true if the contract is paused, and false otherwise."
      },
      "renounceOwnership()": {
        "details": "Leaves the contract without owner. It will not be possible to call `onlyOwner` functions. Can only be called by the current owner. NOTE: Renouncing ownership will leave the contract without an owner, thereby disabling any functionality that is only available to the owner."
      },
      "transferOwnership(address)": {
        "details": "Transfers ownership of the contract to a new account (`newOwner`). Can only be called by the current owner."
      }
    },
    "version": 1
  },
  "userdoc": {
    "kind": "user",
    "methods": {},
    "version": 1
  },
  "storageLayout": {
    "storage": [
      {
        "astId": 4199,
        "contract": "contracts/ExchangeAgent.sol:ExchangeAgent",
        "label": "_status",
        "offset": 0,
        "slot": "0",
        "type": "t_uint256"
      },
      {
        "astId": 1395,
        "contract": "contracts/ExchangeAgent.sol:ExchangeAgent",
        "label": "_owner",
        "offset": 0,
        "slot": "1",
        "type": "t_address"
      },
      {
        "astId": 4080,
        "contract": "contracts/ExchangeAgent.sol:ExchangeAgent",
        "label": "_paused",
        "offset": 20,
        "slot": "1",
        "type": "t_bool"
      },
      {
        "astId": 9388,
        "contract": "contracts/ExchangeAgent.sol:ExchangeAgent",
        "label": "oraclePriceFeed",
        "offset": 0,
        "slot": "2",
        "type": "t_address"
      },
      {
        "astId": 9390,
        "contract": "contracts/ExchangeAgent.sol:ExchangeAgent",
        "label": "slippage",
        "offset": 0,
        "slot": "3",
        "type": "t_uint256"
      },
      {
        "astId": 9395,
        "contract": "contracts/ExchangeAgent.sol:ExchangeAgent",
        "label": "swapDeadline",
        "offset": 0,
        "slot": "4",
        "type": "t_uint256"
      },
      {
        "astId": 9399,
        "contract": "contracts/ExchangeAgent.sol:ExchangeAgent",
        "label": "whiteList",
        "offset": 0,
        "slot": "5",
        "type": "t_mapping(t_address,t_bool)"
      }
    ],
    "types": {
      "t_address": {
        "encoding": "inplace",
        "label": "address",
        "numberOfBytes": "20"
      },
      "t_bool": {
        "encoding": "inplace",
        "label": "bool",
        "numberOfBytes": "1"
      },
      "t_mapping(t_address,t_bool)": {
        "encoding": "mapping",
        "key": "t_address",
        "label": "mapping(address => bool)",
        "numberOfBytes": "32",
        "value": "t_bool"
      },
      "t_uint256": {
        "encoding": "inplace",
        "label": "uint256",
        "numberOfBytes": "32"
      }
    }
  }
}