{
  "address": "0xc5386bfEb4E1a4a78a2c4AF8374f0D5fb06eB405",
  "abi": [
    {
      "inputs": [
        {
          "internalType": "address",
          "name": "_usdcToken",
          "type": "address"
        },
        {
          "internalType": "address",
          "name": "_WETH",
          "type": "address"
        },
        {
          "internalType": "address",
          "name": "_oraclePriceFeed",
          "type": "address"
        },
        {
          "internalType": "address",
          "name": "_uniswapRouter",
          "type": "address"
        },
        {
          "internalType": "address",
          "name": "_multiSigWallet",
          "type": "address"
        }
      ],
      "stateMutability": "nonpayable",
      "type": "constructor"
    },
    {
      "anonymous": false,
      "inputs": [
        {
          "indexed": true,
          "internalType": "address",
          "name": "_dexAddress",
          "type": "address"
        },
        {
          "indexed": true,
          "internalType": "address",
          "name": "_convertToken",
          "type": "address"
        },
        {
          "indexed": false,
          "internalType": "uint256",
          "name": "_convertAmount",
          "type": "uint256"
        },
        {
          "indexed": false,
          "internalType": "uint256",
          "name": "_desiredAmount",
          "type": "uint256"
        },
        {
          "indexed": false,
          "internalType": "uint256",
          "name": "_convertedAmount",
          "type": "uint256"
        }
      ],
      "name": "ConvertedTokenToETH",
      "type": "event"
    },
    {
      "anonymous": false,
      "inputs": [
        {
          "indexed": true,
          "internalType": "address",
          "name": "_dexAddress",
          "type": "address"
        },
        {
          "indexed": true,
          "internalType": "address",
          "name": "_convertToken",
          "type": "address"
        },
        {
          "indexed": true,
          "internalType": "address",
          "name": "_convertedToken",
          "type": "address"
        },
        {
          "indexed": false,
          "internalType": "uint256",
          "name": "_convertAmount",
          "type": "uint256"
        },
        {
          "indexed": false,
          "internalType": "uint256",
          "name": "_desiredAmount",
          "type": "uint256"
        },
        {
          "indexed": false,
          "internalType": "uint256",
          "name": "_convertedAmount",
          "type": "uint256"
        }
      ],
      "name": "ConvertedTokenToToken",
      "type": "event"
    },
    {
      "anonymous": false,
      "inputs": [
        {
          "indexed": true,
          "internalType": "address",
          "name": "_exchangeAgent",
          "type": "address"
        },
        {
          "indexed": true,
          "internalType": "address",
          "name": "_whiteListAddress",
          "type": "address"
        }
      ],
      "name": "LogAddWhiteList",
      "type": "event"
    },
    {
      "anonymous": false,
      "inputs": [
        {
          "indexed": true,
          "internalType": "address",
          "name": "_exchangeAgent",
          "type": "address"
        },
        {
          "indexed": true,
          "internalType": "address",
          "name": "_whiteListAddress",
          "type": "address"
        }
      ],
      "name": "LogRemoveWhiteList",
      "type": "event"
    },
    {
      "anonymous": false,
      "inputs": [
        {
          "indexed": true,
          "internalType": "address",
          "name": "_exchangeAgent",
          "type": "address"
        },
        {
          "indexed": true,
          "internalType": "address",
          "name": "_oraclePriceFeed",
          "type": "address"
        }
      ],
      "name": "LogSetOraclePriceFeed",
      "type": "event"
    },
    {
      "anonymous": false,
      "inputs": [
        {
          "indexed": true,
          "internalType": "address",
          "name": "_exchangeAgent",
          "type": "address"
        },
        {
          "indexed": false,
          "internalType": "uint256",
          "name": "_slippage",
          "type": "uint256"
        }
      ],
      "name": "LogSetSlippage",
      "type": "event"
    },
    {
      "anonymous": false,
      "inputs": [
        {
          "indexed": true,
          "internalType": "address",
          "name": "previousOwner",
          "type": "address"
        },
        {
          "indexed": true,
          "internalType": "address",
          "name": "newOwner",
          "type": "address"
        }
      ],
      "name": "OwnershipTransferred",
      "type": "event"
    },
    {
      "inputs": [],
      "name": "UNISWAP_ROUTER",
      "outputs": [
        {
          "internalType": "address",
          "name": "",
          "type": "address"
        }
      ],
      "stateMutability": "view",
      "type": "function"
    },
    {
      "inputs": [],
      "name": "USDC_TOKEN",
      "outputs": [
        {
          "internalType": "address",
          "name": "",
          "type": "address"
        }
      ],
      "stateMutability": "view",
      "type": "function"
    },
    {
      "inputs": [],
      "name": "WETH",
      "outputs": [
        {
          "internalType": "address",
          "name": "",
          "type": "address"
        }
      ],
      "stateMutability": "view",
      "type": "function"
    },
    {
      "inputs": [
        {
          "internalType": "address",
          "name": "_whiteListAddress",
          "type": "address"
        }
      ],
      "name": "addWhiteList",
      "outputs": [],
      "stateMutability": "nonpayable",
      "type": "function"
    },
    {
      "inputs": [
        {
          "internalType": "address",
          "name": "_token",
          "type": "address"
        },
        {
          "internalType": "uint256",
          "name": "_convertAmount",
          "type": "uint256"
        }
      ],
      "name": "convertForETH",
      "outputs": [
        {
          "internalType": "uint256",
          "name": "",
          "type": "uint256"
        }
      ],
      "stateMutability": "nonpayable",
      "type": "function"
    },
    {
      "inputs": [
        {
          "internalType": "address",
          "name": "_token0",
          "type": "address"
        },
        {
          "internalType": "address",
          "name": "_token1",
          "type": "address"
        },
        {
          "internalType": "uint256",
          "name": "_token0Amount",
          "type": "uint256"
        }
      ],
      "name": "convertForToken",
      "outputs": [
        {
          "internalType": "uint256",
          "name": "",
          "type": "uint256"
        }
      ],
      "stateMutability": "nonpayable",
      "type": "function"
    },
    {
      "inputs": [
        {
          "internalType": "address",
          "name": "_token",
          "type": "address"
        },
        {
          "internalType": "uint256",
          "name": "_tokenAmount",
          "type": "uint256"
        }
      ],
      "name": "getETHAmountForToken",
      "outputs": [
        {
          "internalType": "uint256",
          "name": "",
          "type": "uint256"
        }
      ],
      "stateMutability": "view",
      "type": "function"
    },
    {
      "inputs": [
        {
          "internalType": "uint256",
          "name": "_usdtAmount",
          "type": "uint256"
        }
      ],
      "name": "getETHAmountForUSDC",
      "outputs": [
        {
          "internalType": "uint256",
          "name": "",
          "type": "uint256"
        }
      ],
      "stateMutability": "view",
      "type": "function"
    },
    {
      "inputs": [
        {
          "internalType": "address",
          "name": "_token0",
          "type": "address"
        },
        {
          "internalType": "address",
          "name": "_token1",
          "type": "address"
        },
        {
          "internalType": "uint256",
          "name": "_token0Amount",
          "type": "uint256"
        }
      ],
      "name": "getNeededTokenAmount",
      "outputs": [
        {
          "internalType": "uint256",
          "name": "",
          "type": "uint256"
        }
      ],
      "stateMutability": "view",
      "type": "function"
    },
    {
      "inputs": [
        {
          "internalType": "address",
          "name": "_token",
          "type": "address"
        },
        {
          "internalType": "uint256",
          "name": "_ethAmount",
          "type": "uint256"
        }
      ],
      "name": "getTokenAmountForETH",
      "outputs": [
        {
          "internalType": "uint256",
          "name": "",
          "type": "uint256"
        }
      ],
      "stateMutability": "view",
      "type": "function"
    },
    {
      "inputs": [
        {
          "internalType": "address",
          "name": "_token",
          "type": "address"
        },
        {
          "internalType": "uint256",
          "name": "_usdtAmount",
          "type": "uint256"
        }
      ],
      "name": "getTokenAmountForUSDC",
      "outputs": [
        {
          "internalType": "uint256",
          "name": "",
          "type": "uint256"
        }
      ],
      "stateMutability": "view",
      "type": "function"
    },
    {
      "inputs": [],
      "name": "oraclePriceFeed",
      "outputs": [
        {
          "internalType": "address",
          "name": "",
          "type": "address"
        }
      ],
      "stateMutability": "view",
      "type": "function"
    },
    {
      "inputs": [],
      "name": "owner",
      "outputs": [
        {
          "internalType": "address",
          "name": "",
          "type": "address"
        }
      ],
      "stateMutability": "view",
      "type": "function"
    },
    {
      "inputs": [
        {
          "internalType": "address",
          "name": "_whiteListAddress",
          "type": "address"
        }
      ],
      "name": "removeWhiteList",
      "outputs": [],
      "stateMutability": "nonpayable",
      "type": "function"
    },
    {
      "inputs": [],
      "name": "renounceOwnership",
      "outputs": [],
      "stateMutability": "nonpayable",
      "type": "function"
    },
    {
      "inputs": [
        {
          "internalType": "address",
          "name": "_oraclePriceFeed",
          "type": "address"
        }
      ],
      "name": "setOraclePriceFeed",
      "outputs": [],
      "stateMutability": "nonpayable",
      "type": "function"
    },
    {
      "inputs": [
        {
          "internalType": "uint256",
          "name": "_slippage",
          "type": "uint256"
        }
      ],
      "name": "setSlippage",
      "outputs": [],
      "stateMutability": "nonpayable",
      "type": "function"
    },
    {
      "inputs": [],
      "name": "slippage",
      "outputs": [
        {
          "internalType": "uint256",
          "name": "",
          "type": "uint256"
        }
      ],
      "stateMutability": "view",
      "type": "function"
    },
    {
      "inputs": [
        {
          "internalType": "address",
          "name": "newOwner",
          "type": "address"
        }
      ],
      "name": "transferOwnership",
      "outputs": [],
      "stateMutability": "nonpayable",
      "type": "function"
    },
    {
      "inputs": [
        {
          "internalType": "address",
          "name": "",
          "type": "address"
        }
      ],
      "name": "whiteList",
      "outputs": [
        {
          "internalType": "bool",
          "name": "",
          "type": "bool"
        }
      ],
      "stateMutability": "view",
      "type": "function"
    },
    {
      "stateMutability": "payable",
      "type": "receive"
    }
  ],
  "transactionHash": "0x8b2d5c89594b0a8d5490416e4140f350dc04bcccdd06e89095b930ccab33bba2",
  "args": [
    "0x9EEe705BdBe05B159c8EDd5589acFA9ca5Bdec96",
    "0xB4FBF271143F4FBf7B91A5ded31805e42b2208d6",
    "0x2Ab19250Cf3821EE45A9602785ebBe246F750feF",
    "0x7a250d5630B4cF539739dF2C5dAcb4c659F2488D",
    "0x7e47419EFE3E49f3E616965bFa96f089b2b0e574"
  ],
  "solcInputHash": "245069e8c757e5b45caaccdb8a00ded2",
  "bytecode": "0x60e06040523480156200001157600080fd5b50604051620026f3380380620026f3833981016040819052620000349162000279565b60016000556200004d620000476200017a565b6200017e565b6001600160a01b0385166200007f5760405162461bcd60e51b81526004016200007690620003e8565b60405180910390fd5b6001600160a01b038216620000a85760405162461bcd60e51b8152600401620000769062000365565b6001600160a01b038416620000d15760405162461bcd60e51b81526004016200007690620002e8565b6001600160a01b038116620000fa5760405162461bcd60e51b81526004016200007690620003a6565b6001600160601b0319606086811b821660805283811b821660a05285901b1660c052600280546001600160a01b0385166001600160a01b0319909116179055336000908152600460205260409020805460ff19166001179055620001616064600562000454565b6003556200016f81620001d0565b505050505062000480565b3390565b600180546001600160a01b038381166001600160a01b0319831681179093556040519116919082907f8be0079c531659141344cd1fd0a4f28419497f9722a3daafe3b4186f6b6457e090600090a35050565b620001da6200017a565b6001600160a01b0316620001ed6200024d565b6001600160a01b031614620002165760405162461bcd60e51b815260040162000076906200041f565b6001600160a01b0381166200023f5760405162461bcd60e51b815260040162000076906200031f565b6200024a816200017e565b50565b6001546001600160a01b031690565b80516001600160a01b03811681146200027457600080fd5b919050565b600080600080600060a0868803121562000291578081fd5b6200029c866200025c565b9450620002ac602087016200025c565b9350620002bc604087016200025c565b9250620002cc606087016200025c565b9150620002dc608087016200025c565b90509295509295909350565b60208082526018908201527f556e6f52653a207a65726f205745544820616464726573730000000000000000604082015260600190565b60208082526026908201527f4f776e61626c653a206e6577206f776e657220697320746865207a65726f206160408201526564647265737360d01b606082015260800190565b60208082526021908201527f556e6f52653a207a65726f20756e6973776170526f75746572206164647265736040820152607360f81b606082015260800190565b60208082526022908201527f556e6f52653a207a65726f206d756c746973696777616c6c6574206164647265604082015261737360f01b606082015260800190565b60208082526018908201527f556e6f52653a207a65726f205553444320616464726573730000000000000000604082015260600190565b6020808252818101527f4f776e61626c653a2063616c6c6572206973206e6f7420746865206f776e6572604082015260600190565b60008160001904831182151516156200047b57634e487b7160e01b81526011600452602481fd5b500290565b60805160601c60a05160601c60c05160601c612209620004ea60003960008181610c63015281816117380152611823015260008181610a4501528181610bfe0152610d9c01526000818161070e0152818161078c01528181610c3b0152610fe601526122096000f3fe6080604052600436106101635760003560e01c806393badc41116100c0578063d826492011610074578063f0fa55a911610059578063f0fa55a91461037f578063f2fde38b1461039f578063fa569274146103bf5761016a565b8063d82649201461034a578063e7cd4a041461035f5761016a565b8063a9a12d43116100a5578063a9a12d43146102f5578063ad5c464814610315578063ba560ed91461032a5761016a565b806393badc41146102b55780639a553968146102d55761016a565b80633e032a3b11610117578063715018a6116100fc578063715018a61461026957806375d380711461027e5780638da5cb5b146102a05761016a565b80633e032a3b14610234578063531a2211146102495761016a565b80632042e5c2116101485780632042e5c2146101c757806334899be6146101e7578063372c12b1146102075761016a565b8063102e32591461016f5780631eb5b699146101a55761016a565b3661016a57005b600080fd5b34801561017b57600080fd5b5061018f61018a366004611abf565b6103d4565b60405161019c9190611fae565b60405180910390f35b3480156101b157600080fd5b506101c56101c0366004611a47565b6104fb565b005b3480156101d357600080fd5b506101c56101e2366004611a47565b6105c8565b3480156101f357600080fd5b5061018f610202366004611a7f565b6106af565b34801561021357600080fd5b50610227610222366004611a47565b6106c6565b60405161019c9190611c42565b34801561024057600080fd5b5061018f6106db565b34801561025557600080fd5b5061018f610264366004611b0a565b6106e1565b34801561027557600080fd5b506101c5610847565b34801561028a57600080fd5b50610293610892565b60405161019c9190611bd7565b3480156102ac57600080fd5b506102936108a1565b3480156102c157600080fd5b5061018f6102d0366004611a7f565b6108b0565b3480156102e157600080fd5b5061018f6102f0366004611abf565b610a7d565b34801561030157600080fd5b5061018f610310366004611abf565b610c34565b34801561032157600080fd5b50610293610c61565b34801561033657600080fd5b5061018f610345366004611abf565b610c85565b34801561035657600080fd5b50610293610d9a565b34801561036b57600080fd5b506101c561037a366004611a47565b610dbe565b34801561038b57600080fd5b506101c561039a366004611b0a565b610ea9565b3480156103ab57600080fd5b506101c56103ba366004611a47565b610f73565b3480156103cb57600080fd5b50610293610fe4565b60025460405163355188ab60e01b815260009182916001600160a01b039091169063355188ab90610409908790600401611bd7565b60206040518083038186803b15801561042157600080fd5b505afa158015610435573d6000803e3d6000fd5b505050506040513d601f19601f820116820180604052508101906104599190611b22565b90506000846001600160a01b031663313ce5676040518163ffffffff1660e01b815260040160206040518083038186803b15801561049657600080fd5b505afa1580156104aa573d6000803e3d6000fd5b505050506040513d601f19601f820116820180604052508101906104ce9190611b3a565b60ff1690506104de81600a6120a4565b6104e88386612172565b6104f2919061203e565b95945050505050565b610503611008565b6001600160a01b03166105146108a1565b6001600160a01b0316146105435760405162461bcd60e51b815260040161053a90611e40565b60405180910390fd5b6001600160a01b0381166105695760405162461bcd60e51b815260040161053a90611ce1565b6002805473ffffffffffffffffffffffffffffffffffffffff19166001600160a01b03838116919091179182905560405191169030907f76d908faefb2e5bb2e5551cce5530e7d157dd5ddafe26554d2320c5cc065009f90600090a350565b6105d0611008565b6001600160a01b03166105e16108a1565b6001600160a01b0316146106075760405162461bcd60e51b815260040161053a90611e40565b6001600160a01b03811661062d5760405162461bcd60e51b815260040161053a90611ce1565b6001600160a01b03811660009081526004602052604090205460ff166106655760405162461bcd60e51b815260040161053a90611d18565b6001600160a01b038116600081815260046020526040808220805460ff191690555130917f2f467772ef0a5478314f3bc2b37d4b2ad29b65f052b2cedc8e2972dda033529291a350565b60006106bc84848461100c565b90505b9392505050565b60046020526000908152604090205460ff1681565b60035481565b60025460405163355188ab60e01b815260009182916001600160a01b039091169063355188ab90610736907f000000000000000000000000000000000000000000000000000000000000000090600401611bd7565b60206040518083038186803b15801561074e57600080fd5b505afa158015610762573d6000803e3d6000fd5b505050506040513d601f19601f820116820180604052508101906107869190611b22565b905060007f00000000000000000000000000000000000000000000000000000000000000006001600160a01b031663313ce5676040518163ffffffff1660e01b815260040160206040518083038186803b1580156107e357600080fd5b505afa1580156107f7573d6000803e3d6000fd5b505050506040513d601f19601f8201168201806040525081019061081b9190611b3a565b60ff16905061082b81600a6120a4565b6108358386612172565b61083f919061203e565b949350505050565b61084f611008565b6001600160a01b03166108606108a1565b6001600160a01b0316146108865760405162461bcd60e51b815260040161053a90611e40565b6108906000611095565b565b6002546001600160a01b031681565b6001546001600160a01b031690565b3360009081526004602052604081205460ff166108df5760405162461bcd60e51b815260040161053a90611ed2565b600260005414156109025760405162461bcd60e51b815260040161053a90611f77565b600260009081556001600160a01b038516156109d2576040516370a0823160e01b81526000906001600160a01b038716906370a0823190610947903390600401611bd7565b60206040518083038186803b15801561095f57600080fd5b505afa158015610973573d6000803e3d6000fd5b505050506040513d601f19601f820116820180604052508101906109979190611b22565b116109b45760405162461bcd60e51b815260040161053a90611c4d565b6109c0853330866110f4565b6109cb85858561100c565b90506109df565b6109dc8484610c85565b90505b600081116109ff5760405162461bcd60e51b815260040161053a90611f40565b6000606480600354606480610a149190612172565b610a1e9190612191565b610a289085612172565b610a32919061203e565b610a3c919061203e565b90506000610a6d7f0000000000000000000000000000000000000000000000000000000000000000888888866111f9565b6001600055979650505050505050565b3360009081526004602052604081205460ff16610aac5760405162461bcd60e51b815260040161053a90611ed2565b60026000541415610acf5760405162461bcd60e51b815260040161053a90611f77565b600260009081556040516370a0823160e01b81526001600160a01b038516906370a0823190610b02903390600401611bd7565b60206040518083038186803b158015610b1a57600080fd5b505afa158015610b2e573d6000803e3d6000fd5b505050506040513d601f19601f82011682018060405250810190610b529190611b22565b11610b6f5760405162461bcd60e51b815260040161053a90611c4d565b6001600160a01b03831615610b8a57610b8a833330856110f4565b6000610b9684846103d4565b905060008111610bb85760405162461bcd60e51b815260040161053a90611f40565b6000606480600354606480610bcd9190612172565b610bd79190612191565b610be19085612172565b610beb919061203e565b610bf5919061203e565b90506000610c257f0000000000000000000000000000000000000000000000000000000000000000878785611687565b60016000559695505050505050565b60006106bf7f0000000000000000000000000000000000000000000000000000000000000000848461100c565b7f000000000000000000000000000000000000000000000000000000000000000081565b60025460405163355188ab60e01b815260009182916001600160a01b039091169063355188ab90610cba908790600401611bd7565b60206040518083038186803b158015610cd257600080fd5b505afa158015610ce6573d6000803e3d6000fd5b505050506040513d601f19601f82011682018060405250810190610d0a9190611b22565b90506000846001600160a01b031663313ce5676040518163ffffffff1660e01b815260040160206040518083038186803b158015610d4757600080fd5b505afa158015610d5b573d6000803e3d6000fd5b505050506040513d601f19601f82011682018060405250810190610d7f9190611b3a565b60ff16905081610d9082600a6120a4565b6104e89086612172565b7f000000000000000000000000000000000000000000000000000000000000000081565b610dc6611008565b6001600160a01b0316610dd76108a1565b6001600160a01b031614610dfd5760405162461bcd60e51b815260040161053a90611e40565b6001600160a01b038116610e235760405162461bcd60e51b815260040161053a90611ce1565b6001600160a01b03811660009081526004602052604090205460ff1615610e5c5760405162461bcd60e51b815260040161053a90611dd2565b6001600160a01b038116600081815260046020526040808220805460ff191660011790555130917f8cd7b0b1a7316eb3e5d781d629cb8bf4e2fd9a8903bdd0f6b894c087d61b21f291a350565b610eb1611008565b6001600160a01b0316610ec26108a1565b6001600160a01b031614610ee85760405162461bcd60e51b815260040161053a90611e40565b60008111610f085760405162461bcd60e51b815260040161053a90611e09565b60648110610f285760405162461bcd60e51b815260040161053a90611f09565b610f33606482612172565b60035560405130907f1b5c61e79b0735d33852817a0af9ed28b909c7c0a2a04abcc0c19bba6d6ba56490610f68908490611fae565b60405180910390a250565b610f7b611008565b6001600160a01b0316610f8c6108a1565b6001600160a01b031614610fb25760405162461bcd60e51b815260040161053a90611e40565b6001600160a01b038116610fd85760405162461bcd60e51b815260040161053a90611c84565b610fe181611095565b50565b7f000000000000000000000000000000000000000000000000000000000000000081565b3390565b6002546040516318db3e8360e21b815260009182916001600160a01b039091169063636cfa0c9061104590889088908890600401611c05565b60206040518083038186803b15801561105d57600080fd5b505afa158015611071573d6000803e3d6000fd5b505050506040513d601f19601f820116820180604052508101906104f29190611b22565b600180546001600160a01b0383811673ffffffffffffffffffffffffffffffffffffffff19831681179093556040519116919082907f8be0079c531659141344cd1fd0a4f28419497f9722a3daafe3b4186f6b6457e090600090a35050565b600080856001600160a01b03166323b872dd86868660405160240161111b93929190611c05565b6040516020818303038152906040529060e01b6020820180517bffffffffffffffffffffffffffffffffffffffffffffffffffffffff83818316178352505050506040516111699190611b9e565b6000604051808303816000865af19150503d80600081146111a6576040519150601f19603f3d011682016040523d82523d6000602084013e6111ab565b606091505b50915091508180156111d55750805115806111d55750808060200190518101906111d59190611aea565b6111f15760405162461bcd60e51b815260040161053a90611d75565b505050505050565b6000808690506000816001600160a01b031663c45a01556040518163ffffffff1660e01b815260040160206040518083038186803b15801561123a57600080fd5b505afa15801561124e573d6000803e3d6000fd5b505050506040513d601f19601f820116820180604052508101906112729190611a63565b90506000866001600160a01b03166370a08231336040518263ffffffff1660e01b81526004016112a29190611bd7565b60206040518083038186803b1580156112ba57600080fd5b505afa1580156112ce573d6000803e3d6000fd5b505050506040513d601f19601f820116820180604052508101906112f29190611b22565b90506000836001600160a01b031663ad5c46486040518163ffffffff1660e01b815260040160206040518083038186803b15801561132f57600080fd5b505afa158015611343573d6000803e3d6000fd5b505050506040513d601f19601f820116820180604052508101906113679190611a63565b90506001600160a01b03891615611385575087611385818589611945565b60405163e6a4390560e01b81526000906001600160a01b0385169063e6a43905906113b69085908d90600401611beb565b60206040518083038186803b1580156113ce57600080fd5b505afa1580156113e2573d6000803e3d6000fd5b505050506040513d601f19601f820116820180604052508101906114069190611a63565b6001600160a01b03161461158957604080516002808252606082018352600092602083019080368337019050509050818160008151811061145757634e487b7160e01b600052603260045260246000fd5b60200260200101906001600160a01b031690816001600160a01b031681525050888160018151811061149957634e487b7160e01b600052603260045260246000fd5b6001600160a01b0392831660209182029290920101528a166115205760405163b6f9de9560e01b81526001600160a01b0386169063b6f9de95908a906114e9908b90869033904290600401611fb7565b6000604051808303818588803b15801561150257600080fd5b505af1158015611516573d6000803e3d6000fd5b5050505050611587565b604051635c11d79560e01b81526001600160a01b03861690635c11d79590611554908b908b90869033904290600401611fec565b600060405180830381600087803b15801561156e57600080fd5b505af1158015611582573d6000803e3d6000fd5b505050505b505b6040516370a0823160e01b81526000906001600160a01b038a16906370a08231906115b8903390600401611bd7565b60206040518083038186803b1580156115d057600080fd5b505afa1580156115e4573d6000803e3d6000fd5b505050506040513d601f19601f820116820180604052508101906116089190611b22565b9050886001600160a01b03168a6001600160a01b03168c6001600160a01b03167fd30edfe8aafab67575a170d015da0337bcb39e5c9af1b2dfb9294fb75b344ac38b8b88876116579190612191565b60405161166693929190612028565b60405180910390a46116788382612191565b9b9a5050505050505050505050565b6000808590506000816001600160a01b031663c45a01556040518163ffffffff1660e01b815260040160206040518083038186803b1580156116c857600080fd5b505afa1580156116dc573d6000803e3d6000fd5b505050506040513d601f19601f820116820180604052508101906117009190611a63565b9050333161170f878488611945565b60405163e6a4390560e01b81526000906001600160a01b0384169063e6a4390590611760908b907f000000000000000000000000000000000000000000000000000000000000000090600401611beb565b60206040518083038186803b15801561177857600080fd5b505afa15801561178c573d6000803e3d6000fd5b505050506040513d601f19601f820116820180604052508101906117b09190611a63565b6001600160a01b0316146118da57604080516002808252606082018352600092602083019080368337019050509050878160008151811061180157634e487b7160e01b600052603260045260246000fd5b60200260200101906001600160a01b031690816001600160a01b0316815250507f00000000000000000000000000000000000000000000000000000000000000008160018151811061186357634e487b7160e01b600052603260045260246000fd5b6001600160a01b03928316602091820292909201015260405163791ac94760e01b81529085169063791ac947906118a6908a908a90869033904290600401611fec565b600060405180830381600087803b1580156118c057600080fd5b505af11580156118d4573d6000803e3d6000fd5b50505050505b33316001600160a01b03888116908a167f1df84ee81df9963f5d40b2a3f717360c1f62daa6f21f69580398a8d570de644c89896119178787612191565b60405161192693929190612028565b60405180910390a36119388282612191565b9998505050505050505050565b600080846001600160a01b031663095ea7b3858560405160240161196a929190611c29565b6040516020818303038152906040529060e01b6020820180517bffffffffffffffffffffffffffffffffffffffffffffffffffffffff83818316178352505050506040516119b89190611b9e565b6000604051808303816000865af19150503d80600081146119f5576040519150601f19603f3d011682016040523d82523d6000602084013e6119fa565b606091505b5091509150818015611a24575080511580611a24575080806020019051810190611a249190611aea565b611a405760405162461bcd60e51b815260040161053a90611e75565b5050505050565b600060208284031215611a58578081fd5b81356106bf816121be565b600060208284031215611a74578081fd5b81516106bf816121be565b600080600060608486031215611a93578182fd5b8335611a9e816121be565b92506020840135611aae816121be565b929592945050506040919091013590565b60008060408385031215611ad1578182fd5b8235611adc816121be565b946020939093013593505050565b600060208284031215611afb578081fd5b815180151581146106bf578182fd5b600060208284031215611b1b578081fd5b5035919050565b600060208284031215611b33578081fd5b5051919050565b600060208284031215611b4b578081fd5b815160ff811681146106bf578182fd5b6000815180845260208085019450808401835b83811015611b935781516001600160a01b031687529582019590820190600101611b6e565b509495945050505050565b60008251815b81811015611bbe5760208186018101518583015201611ba4565b81811115611bcc5782828501525b509190910192915050565b6001600160a01b0391909116815260200190565b6001600160a01b0392831681529116602082015260400190565b6001600160a01b039384168152919092166020820152604081019190915260600190565b6001600160a01b03929092168252602082015260400190565b901515815260200190565b60208082526013908201527f556e6f52653a207a65726f2062616c616e636500000000000000000000000000604082015260600190565b60208082526026908201527f4f776e61626c653a206e6577206f776e657220697320746865207a65726f206160408201527f6464726573730000000000000000000000000000000000000000000000000000606082015260800190565b60208082526013908201527f556e6f52653a207a65726f206164647265737300000000000000000000000000604082015260600190565b6020808252602c908201527f556e6f52653a207768697465206c6973742072656d6f766564206f7220756e6160408201527f6464656420616c72656164790000000000000000000000000000000000000000606082015260800190565b60208082526031908201527f5472616e7366657248656c7065723a3a7472616e7366657246726f6d3a20747260408201527f616e7366657246726f6d206661696c6564000000000000000000000000000000606082015260800190565b60208082526019908201527f556e6f52653a207768697465206c69737420616c726561647900000000000000604082015260600190565b60208082526014908201527f556e6f52653a207a65726f20736c697070616765000000000000000000000000604082015260600190565b6020808252818101527f4f776e61626c653a2063616c6c6572206973206e6f7420746865206f776e6572604082015260600190565b6020808252602b908201527f5472616e7366657248656c7065723a3a73616665417070726f76653a2061707060408201527f726f7665206661696c6564000000000000000000000000000000000000000000606082015260800190565b6020808252601e908201527f556e6f52653a2045786368616e67654167656e7420466f7262696464656e0000604082015260600190565b6020808252601d908201527f556e6f52653a203130302520736c697070616765206f766572666c6f77000000604082015260600190565b6020808252600f908201527f556e6f52653a206e6f2070616972730000000000000000000000000000000000604082015260600190565b6020808252601f908201527f5265656e7472616e637947756172643a207265656e7472616e742063616c6c00604082015260600190565b90815260200190565b600085825260806020830152611fd06080830186611b5b565b6001600160a01b03949094166040830152506060015292915050565b600086825285602083015260a0604083015261200b60a0830186611b5b565b6001600160a01b0394909416606083015250608001529392505050565b9283526020830191909152604082015260600190565b60008261205957634e487b7160e01b81526012600452602481fd5b500490565b80825b6001808611612070575061209b565b818704821115612082576120826121a8565b8086161561208f57918102915b9490941c938002612061565b94509492505050565b60006106bf60001984846000826120bd575060016106bf565b816120ca575060006106bf565b81600181146120e057600281146120ea57612117565b60019150506106bf565b60ff8411156120fb576120fb6121a8565b6001841b915084821115612111576121116121a8565b506106bf565b5060208310610133831016604e8410600b841016171561214a575081810a83811115612145576121456121a8565b6106bf565b612157848484600161205e565b808604821115612169576121696121a8565b02949350505050565b600081600019048311821515161561218c5761218c6121a8565b500290565b6000828210156121a3576121a36121a8565b500390565b634e487b7160e01b600052601160045260246000fd5b6001600160a01b0381168114610fe157600080fdfea2646970667358221220826bf01a72ef46fea3c3e75faaabc820c96dbc720cb3eb1872b683bd66f959d764736f6c63430008000033",
  "devdoc": {
    "kind": "dev",
    "methods": {
      "owner()": {
        "details": "Returns the address of the current owner."
      },
      "renounceOwnership()": {
        "details": "Leaves the contract without owner. It will not be possible to call `onlyOwner` functions anymore. Can only be called by the current owner. NOTE: Renouncing ownership will leave the contract without an owner, thereby removing any functionality that is only available to the owner."
      },
      "transferOwnership(address)": {
        "details": "Transfers ownership of the contract to a new account (`newOwner`). Can only be called by the current owner."
      }
    },
    "version": 1
  },
  "userdoc": {
    "kind": "user",
    "methods": {},
    "version": 1
  },
  "storageLayout": {
    "storage": [
      {
        "astId": 114,
        "contract": "contracts/ExchangeAgent.sol:ExchangeAgent",
        "label": "_status",
        "offset": 0,
        "slot": "0",
        "type": "t_uint256"
      },
      {
        "astId": 7,
        "contract": "contracts/ExchangeAgent.sol:ExchangeAgent",
        "label": "_owner",
        "offset": 0,
        "slot": "1",
        "type": "t_address"
      },
      {
        "astId": 4034,
        "contract": "contracts/ExchangeAgent.sol:ExchangeAgent",
        "label": "oraclePriceFeed",
        "offset": 0,
        "slot": "2",
        "type": "t_address"
      },
      {
        "astId": 4036,
        "contract": "contracts/ExchangeAgent.sol:ExchangeAgent",
        "label": "slippage",
        "offset": 0,
        "slot": "3",
        "type": "t_uint256"
      },
      {
        "astId": 4043,
        "contract": "contracts/ExchangeAgent.sol:ExchangeAgent",
        "label": "whiteList",
        "offset": 0,
        "slot": "4",
        "type": "t_mapping(t_address,t_bool)"
      }
    ],
    "types": {
      "t_address": {
        "encoding": "inplace",
        "label": "address",
        "numberOfBytes": "20"
      },
      "t_bool": {
        "encoding": "inplace",
        "label": "bool",
        "numberOfBytes": "1"
      },
      "t_mapping(t_address,t_bool)": {
        "encoding": "mapping",
        "key": "t_address",
        "label": "mapping(address => bool)",
        "numberOfBytes": "32",
        "value": "t_bool"
      },
      "t_uint256": {
        "encoding": "inplace",
        "label": "uint256",
        "numberOfBytes": "32"
      }
    }
  }
}