{
  "address": "0xE80158dDFE013de2BDEc8eAACFF4068173b6b37a",
  "abi": [
    {
      "inputs": [
        {
          "internalType": "address",
          "name": "uno",
          "type": "address"
        },
        {
          "internalType": "address",
          "name": "_usdt",
          "type": "address"
        }
      ],
      "stateMutability": "nonpayable",
      "type": "constructor"
    },
    {
      "inputs": [
        {
          "internalType": "address",
          "name": "owner",
          "type": "address"
        }
      ],
      "name": "OwnableInvalidOwner",
      "type": "error"
    },
    {
      "inputs": [
        {
          "internalType": "address",
          "name": "account",
          "type": "address"
        }
      ],
      "name": "OwnableUnauthorizedAccount",
      "type": "error"
    },
    {
      "anonymous": false,
      "inputs": [
        {
          "indexed": true,
          "internalType": "address",
          "name": "previousOwner",
          "type": "address"
        },
        {
          "indexed": true,
          "internalType": "address",
          "name": "newOwner",
          "type": "address"
        }
      ],
      "name": "OwnershipTransferred",
      "type": "event"
    },
    {
      "inputs": [
        {
          "internalType": "address",
          "name": "",
          "type": "address"
        }
      ],
      "name": "assetEthPrice",
      "outputs": [
        {
          "internalType": "uint256",
          "name": "",
          "type": "uint256"
        }
      ],
      "stateMutability": "view",
      "type": "function"
    },
    {
      "inputs": [
        {
          "internalType": "address",
          "name": "token0",
          "type": "address"
        },
        {
          "internalType": "address",
          "name": "token1",
          "type": "address"
        },
        {
          "internalType": "uint256",
          "name": "amount1",
          "type": "uint256"
        }
      ],
      "name": "consult",
      "outputs": [
        {
          "internalType": "uint256",
          "name": "",
          "type": "uint256"
        }
      ],
      "stateMutability": "view",
      "type": "function"
    },
    {
      "inputs": [],
      "name": "ethUsdtPrice",
      "outputs": [
        {
          "internalType": "uint256",
          "name": "",
          "type": "uint256"
        }
      ],
      "stateMutability": "view",
      "type": "function"
    },
    {
      "inputs": [
        {
          "internalType": "address",
          "name": "_currency",
          "type": "address"
        }
      ],
      "name": "getAssetEthPrice",
      "outputs": [
        {
          "internalType": "uint256",
          "name": "",
          "type": "uint256"
        }
      ],
      "stateMutability": "view",
      "type": "function"
    },
    {
      "inputs": [],
      "name": "getEthUsdPrice",
      "outputs": [
        {
          "internalType": "uint256",
          "name": "",
          "type": "uint256"
        }
      ],
      "stateMutability": "view",
      "type": "function"
    },
    {
      "inputs": [],
      "name": "owner",
      "outputs": [
        {
          "internalType": "address",
          "name": "",
          "type": "address"
        }
      ],
      "stateMutability": "view",
      "type": "function"
    },
    {
      "inputs": [],
      "name": "renounceOwnership",
      "outputs": [],
      "stateMutability": "nonpayable",
      "type": "function"
    },
    {
      "inputs": [
        {
          "internalType": "address",
          "name": "_asset",
          "type": "address"
        },
        {
          "internalType": "uint256",
          "name": "_amount",
          "type": "uint256"
        }
      ],
      "name": "setAssetEthPrice",
      "outputs": [],
      "stateMutability": "nonpayable",
      "type": "function"
    },
    {
      "inputs": [
        {
          "internalType": "uint256",
          "name": "_amount",
          "type": "uint256"
        }
      ],
      "name": "setEthUsdPrice",
      "outputs": [],
      "stateMutability": "nonpayable",
      "type": "function"
    },
    {
      "inputs": [
        {
          "internalType": "address",
          "name": "newOwner",
          "type": "address"
        }
      ],
      "name": "transferOwnership",
      "outputs": [],
      "stateMutability": "nonpayable",
      "type": "function"
    },
    {
      "inputs": [],
      "name": "usdt",
      "outputs": [
        {
          "internalType": "address",
          "name": "",
          "type": "address"
        }
      ],
      "stateMutability": "view",
      "type": "function"
    }
  ],
  "transactionHash": "0x0e4ced7070c59accaadc87a5a47a6f66351dce7c0718ca2062381925fcaf7619",
  "args": [
    "0xf0E7F2c4DF6285878822F4F08B2f4c720835d2b6",
    "0xB6b67A0b6B3e627d9e9aD6232c1CEf3cBb719620"
  ],
  "numDeployments": 1,
  "solcInputHash": "573b26df0e2054e8a098179caf9dccc1",
  "bytecode": "0x608060405234801561001057600080fd5b5060405161059738038061059783398101604081905261002f9161011e565b338061005557604051631e4fbdf760e01b81526000600482015260240160405180910390fd5b61005e816100b2565b50600280546001600160a01b0319166001600160a01b039283161781556601a1c63a0cdd1360018190559282166000908152600360205260408082206511389865661b905591549092168252902055610151565b600080546001600160a01b038381166001600160a01b0319831681178455604051919092169283917f8be0079c531659141344cd1fd0a4f28419497f9722a3daafe3b4186f6b6457e09190a35050565b80516001600160a01b038116811461011957600080fd5b919050565b6000806040838503121561013157600080fd5b61013a83610102565b915061014860208401610102565b90509250929050565b610437806101606000396000f3fe608060405234801561001057600080fd5b50600436106100a95760003560e01c8063715018a611610071578063715018a6146101515780638da5cb5b1461015b578063a0a8045e1461016c578063b100d9af14610174578063b951883a14610187578063f2fde38b1461019a57600080fd5b80632f48ab7d146100ae578063355188ab146100de5780635384491514610115578063636cfa0c14610135578063661e265814610148575b600080fd5b6002546100c1906001600160a01b031681565b6040516001600160a01b0390911681526020015b60405180910390f35b6101076100ec366004610313565b6001600160a01b031660009081526003602052604090205490565b6040519081526020016100d5565b610107610123366004610313565b60036020526000908152604090205481565b610107610143366004610335565b6101ad565b61010760015481565b6101596101f2565b005b6000546001600160a01b03166100c1565b600154610107565b610159610182366004610371565b610206565b61015961019536600461039b565b61022a565b6101596101a8366004610313565b610237565b6001600160a01b03808416600090815260036020526040808220549285168252812054909190806101de85846103b4565b6101e891906103df565b9695505050505050565b6101fa61027a565b61020460006102a7565b565b61020e61027a565b6001600160a01b03909116600090815260036020526040902055565b61023261027a565b600155565b61023f61027a565b6001600160a01b03811661026e57604051631e4fbdf760e01b8152600060048201526024015b60405180910390fd5b610277816102a7565b50565b6000546001600160a01b031633146102045760405163118cdaa760e01b8152336004820152602401610265565b600080546001600160a01b038381166001600160a01b0319831681178455604051919092169283917f8be0079c531659141344cd1fd0a4f28419497f9722a3daafe3b4186f6b6457e09190a35050565b80356001600160a01b038116811461030e57600080fd5b919050565b60006020828403121561032557600080fd5b61032e826102f7565b9392505050565b60008060006060848603121561034a57600080fd5b610353846102f7565b9250610361602085016102f7565b9150604084013590509250925092565b6000806040838503121561038457600080fd5b61038d836102f7565b946020939093013593505050565b6000602082840312156103ad57600080fd5b5035919050565b80820281158282048414176103d957634e487b7160e01b600052601160045260246000fd5b92915050565b6000826103fc57634e487b7160e01b600052601260045260246000fd5b50049056fea264697066735822122042758c446c0621f7107d7d0c689adc31fb4b01a0f145349bea2c084081e9eb1964736f6c63430008170033",
  "devdoc": {
    "errors": {
      "OwnableInvalidOwner(address)": [
        {
          "details": "The owner is not a valid owner account. (eg. `address(0)`)"
        }
      ],
      "OwnableUnauthorizedAccount(address)": [
        {
          "details": "The caller account is not authorized to perform an operation."
        }
      ]
    },
    "kind": "dev",
    "methods": {
      "owner()": {
        "details": "Returns the address of the current owner."
      },
      "renounceOwnership()": {
        "details": "Leaves the contract without owner. It will not be possible to call `onlyOwner` functions. Can only be called by the current owner. NOTE: Renouncing ownership will leave the contract without an owner, thereby disabling any functionality that is only available to the owner."
      },
      "transferOwnership(address)": {
        "details": "Transfers ownership of the contract to a new account (`newOwner`). Can only be called by the current owner."
      }
    },
    "version": 1
  },
  "userdoc": {
    "kind": "user",
    "methods": {},
    "notice": "This smart contract",
    "version": 1
  },
  "storageLayout": {
    "storage": [
      {
        "astId": 1395,
        "contract": "contracts/Mocks/OraclePriceFeed.sol:MockOraclePriceFeed",
        "label": "_owner",
        "offset": 0,
        "slot": "0",
        "type": "t_address"
      },
      {
        "astId": 12739,
        "contract": "contracts/Mocks/OraclePriceFeed.sol:MockOraclePriceFeed",
        "label": "ethUsdtPrice",
        "offset": 0,
        "slot": "1",
        "type": "t_uint256"
      },
      {
        "astId": 12741,
        "contract": "contracts/Mocks/OraclePriceFeed.sol:MockOraclePriceFeed",
        "label": "usdt",
        "offset": 0,
        "slot": "2",
        "type": "t_address"
      },
      {
        "astId": 12745,
        "contract": "contracts/Mocks/OraclePriceFeed.sol:MockOraclePriceFeed",
        "label": "assetEthPrice",
        "offset": 0,
        "slot": "3",
        "type": "t_mapping(t_address,t_uint256)"
      }
    ],
    "types": {
      "t_address": {
        "encoding": "inplace",
        "label": "address",
        "numberOfBytes": "20"
      },
      "t_mapping(t_address,t_uint256)": {
        "encoding": "mapping",
        "key": "t_address",
        "label": "mapping(address => uint256)",
        "numberOfBytes": "32",
        "value": "t_uint256"
      },
      "t_uint256": {
        "encoding": "inplace",
        "label": "uint256",
        "numberOfBytes": "32"
      }
    }
  }
}