{
  "address": "0x96a5719879f542d30beCcA9c32Ce7d5C2bB11ED8",
  "abi": [
    {
      "inputs": [],
      "stateMutability": "nonpayable",
      "type": "constructor"
    },
    {
      "inputs": [
        {
          "internalType": "address",
          "name": "spender",
          "type": "address"
        },
        {
          "internalType": "uint256",
          "name": "allowance",
          "type": "uint256"
        },
        {
          "internalType": "uint256",
          "name": "needed",
          "type": "uint256"
        }
      ],
      "name": "ERC20InsufficientAllowance",
      "type": "error"
    },
    {
      "inputs": [
        {
          "internalType": "address",
          "name": "sender",
          "type": "address"
        },
        {
          "internalType": "uint256",
          "name": "balance",
          "type": "uint256"
        },
        {
          "internalType": "uint256",
          "name": "needed",
          "type": "uint256"
        }
      ],
      "name": "ERC20InsufficientBalance",
      "type": "error"
    },
    {
      "inputs": [
        {
          "internalType": "address",
          "name": "approver",
          "type": "address"
        }
      ],
      "name": "ERC20InvalidApprover",
      "type": "error"
    },
    {
      "inputs": [
        {
          "internalType": "address",
          "name": "receiver",
          "type": "address"
        }
      ],
      "name": "ERC20InvalidReceiver",
      "type": "error"
    },
    {
      "inputs": [
        {
          "internalType": "address",
          "name": "sender",
          "type": "address"
        }
      ],
      "name": "ERC20InvalidSender",
      "type": "error"
    },
    {
      "inputs": [
        {
          "internalType": "address",
          "name": "spender",
          "type": "address"
        }
      ],
      "name": "ERC20InvalidSpender",
      "type": "error"
    },
    {
      "anonymous": false,
      "inputs": [
        {
          "indexed": true,
          "internalType": "address",
          "name": "owner",
          "type": "address"
        },
        {
          "indexed": true,
          "internalType": "address",
          "name": "spender",
          "type": "address"
        },
        {
          "indexed": false,
          "internalType": "uint256",
          "name": "value",
          "type": "uint256"
        }
      ],
      "name": "Approval",
      "type": "event"
    },
    {
      "anonymous": false,
      "inputs": [
        {
          "indexed": true,
          "internalType": "address",
          "name": "from",
          "type": "address"
        },
        {
          "indexed": true,
          "internalType": "address",
          "name": "to",
          "type": "address"
        },
        {
          "indexed": false,
          "internalType": "uint256",
          "name": "value",
          "type": "uint256"
        }
      ],
      "name": "Transfer",
      "type": "event"
    },
    {
      "inputs": [
        {
          "internalType": "address",
          "name": "owner",
          "type": "address"
        },
        {
          "internalType": "address",
          "name": "spender",
          "type": "address"
        }
      ],
      "name": "allowance",
      "outputs": [
        {
          "internalType": "uint256",
          "name": "",
          "type": "uint256"
        }
      ],
      "stateMutability": "view",
      "type": "function"
    },
    {
      "inputs": [
        {
          "internalType": "address",
          "name": "spender",
          "type": "address"
        },
        {
          "internalType": "uint256",
          "name": "value",
          "type": "uint256"
        }
      ],
      "name": "approve",
      "outputs": [
        {
          "internalType": "bool",
          "name": "",
          "type": "bool"
        }
      ],
      "stateMutability": "nonpayable",
      "type": "function"
    },
    {
      "inputs": [
        {
          "internalType": "address",
          "name": "account",
          "type": "address"
        }
      ],
      "name": "balanceOf",
      "outputs": [
        {
          "internalType": "uint256",
          "name": "",
          "type": "uint256"
        }
      ],
      "stateMutability": "view",
      "type": "function"
    },
    {
      "inputs": [],
      "name": "decimals",
      "outputs": [
        {
          "internalType": "uint8",
          "name": "",
          "type": "uint8"
        }
      ],
      "stateMutability": "view",
      "type": "function"
    },
    {
      "inputs": [],
      "name": "faucetLimit",
      "outputs": [
        {
          "internalType": "uint256",
          "name": "",
          "type": "uint256"
        }
      ],
      "stateMutability": "view",
      "type": "function"
    },
    {
      "inputs": [
        {
          "internalType": "uint256",
          "name": "_amount",
          "type": "uint256"
        }
      ],
      "name": "faucetToken",
      "outputs": [],
      "stateMutability": "nonpayable",
      "type": "function"
    },
    {
      "inputs": [],
      "name": "name",
      "outputs": [
        {
          "internalType": "string",
          "name": "",
          "type": "string"
        }
      ],
      "stateMutability": "view",
      "type": "function"
    },
    {
      "inputs": [],
      "name": "symbol",
      "outputs": [
        {
          "internalType": "string",
          "name": "",
          "type": "string"
        }
      ],
      "stateMutability": "view",
      "type": "function"
    },
    {
      "inputs": [],
      "name": "totalSupply",
      "outputs": [
        {
          "internalType": "uint256",
          "name": "",
          "type": "uint256"
        }
      ],
      "stateMutability": "view",
      "type": "function"
    },
    {
      "inputs": [
        {
          "internalType": "address",
          "name": "to",
          "type": "address"
        },
        {
          "internalType": "uint256",
          "name": "value",
          "type": "uint256"
        }
      ],
      "name": "transfer",
      "outputs": [
        {
          "internalType": "bool",
          "name": "",
          "type": "bool"
        }
      ],
      "stateMutability": "nonpayable",
      "type": "function"
    },
    {
      "inputs": [
        {
          "internalType": "address",
          "name": "from",
          "type": "address"
        },
        {
          "internalType": "address",
          "name": "to",
          "type": "address"
        },
        {
          "internalType": "uint256",
          "name": "value",
          "type": "uint256"
        }
      ],
      "name": "transferFrom",
      "outputs": [
        {
          "internalType": "bool",
          "name": "",
          "type": "bool"
        }
      ],
      "stateMutability": "nonpayable",
      "type": "function"
    }
  ],
  "transactionHash": "0x6c30f21940d8fac252dde44ebd6127c2fc8ed20da725739270cd165a75fb61bc",
  "args": [],
  "numDeployments": 2,
  "solcInputHash": "573b26df0e2054e8a098179caf9dccc1",
  "bytecode": "0x60806040526b204fce5e3e250261100000006005553480156200002157600080fd5b506040805180820182526004808252631554d11560e21b60208084018290528451808601909552918452908301529060036200005e8382620002a6565b5060046200006d8282620002a6565b50505062000084336005546200008a60201b60201c565b6200039a565b6001600160a01b038216620000ba5760405163ec442f0560e01b8152600060048201526024015b60405180910390fd5b620000c860008383620000cc565b5050565b6001600160a01b038316620000fb578060026000828254620000ef919062000372565b909155506200016f9050565b6001600160a01b03831660009081526020819052604090205481811015620001505760405163391434e360e21b81526001600160a01b03851660048201526024810182905260448101839052606401620000b1565b6001600160a01b03841660009081526020819052604090209082900390555b6001600160a01b0382166200018d57600280548290039055620001ac565b6001600160a01b03821660009081526020819052604090208054820190555b816001600160a01b0316836001600160a01b03167fddf252ad1be2c89b69c2b068fc378daa952ba7f163c4a11628f55a4df523b3ef83604051620001f291815260200190565b60405180910390a3505050565b634e487b7160e01b600052604160045260246000fd5b600181811c908216806200022a57607f821691505b6020821081036200024b57634e487b7160e01b600052602260045260246000fd5b50919050565b601f821115620002a1576000816000526020600020601f850160051c810160208610156200027c5750805b601f850160051c820191505b818110156200029d5782815560010162000288565b5050505b505050565b81516001600160401b03811115620002c257620002c2620001ff565b620002da81620002d3845462000215565b8462000251565b602080601f831160018114620003125760008415620002f95750858301515b600019600386901b1c1916600185901b1785556200029d565b600085815260208120601f198616915b82811015620003435788860151825594840194600190910190840162000322565b5085821015620003625787850151600019600388901b60f8161c191681555b5050505050600190811b01905550565b808201808211156200039457634e487b7160e01b600052601160045260246000fd5b92915050565b6107bd80620003aa6000396000f3fe608060405234801561001057600080fd5b50600436106100a95760003560e01c80636544e439116100715780636544e4391461012357806370a08231146101345780637f846d461461015d57806395d89b4114610172578063a9059cbb1461017a578063dd62ed3e1461018d57600080fd5b806306fdde03146100ae578063095ea7b3146100cc57806318160ddd146100ef57806323b872dd14610101578063313ce56714610114575b600080fd5b6100b66101c6565b6040516100c391906105ed565b60405180910390f35b6100df6100da366004610658565b610258565b60405190151581526020016100c3565b6002545b6040519081526020016100c3565b6100df61010f366004610682565b610272565b604051601281526020016100c3565b6100f36969e10de76676d080000081565b6100f36101423660046106be565b6001600160a01b031660009081526020819052604090205490565b61017061016b3660046106e0565b610296565b005b6100b66102a3565b6100df610188366004610658565b6102b2565b6100f361019b3660046106f9565b6001600160a01b03918216600090815260016020908152604080832093909416825291909152205490565b6060600380546101d59061072c565b80601f01602080910402602001604051908101604052809291908181526020018280546102019061072c565b801561024e5780601f106102235761010080835404028352916020019161024e565b820191906000526020600020905b81548152906001019060200180831161023157829003601f168201915b5050505050905090565b6000336102668185856102c0565b60019150505b92915050565b6000336102808582856102d2565b61028b858585610355565b506001949350505050565b6102a033826103b4565b50565b6060600480546101d59061072c565b600033610266818585610355565b6102cd83838360016103ee565b505050565b6001600160a01b03838116600090815260016020908152604080832093861683529290522054600019811461034f578181101561034057604051637dc7a0d960e11b81526001600160a01b038416600482015260248101829052604481018390526064015b60405180910390fd5b61034f848484840360006103ee565b50505050565b6001600160a01b03831661037f57604051634b637e8f60e11b815260006004820152602401610337565b6001600160a01b0382166103a95760405163ec442f0560e01b815260006004820152602401610337565b6102cd8383836104c3565b6001600160a01b0382166103de5760405163ec442f0560e01b815260006004820152602401610337565b6103ea600083836104c3565b5050565b6001600160a01b0384166104185760405163e602df0560e01b815260006004820152602401610337565b6001600160a01b03831661044257604051634a1406b160e11b815260006004820152602401610337565b6001600160a01b038085166000908152600160209081526040808320938716835292905220829055801561034f57826001600160a01b0316846001600160a01b03167f8c5be1e5ebec7d5bd14f71427d1e84f3dd0314c0f7b2291e5b200ac8c7c3b925846040516104b591815260200190565b60405180910390a350505050565b6001600160a01b0383166104ee5780600260008282546104e39190610766565b909155506105609050565b6001600160a01b038316600090815260208190526040902054818110156105415760405163391434e360e21b81526001600160a01b03851660048201526024810182905260448101839052606401610337565b6001600160a01b03841660009081526020819052604090209082900390555b6001600160a01b03821661057c5760028054829003905561059b565b6001600160a01b03821660009081526020819052604090208054820190555b816001600160a01b0316836001600160a01b03167fddf252ad1be2c89b69c2b068fc378daa952ba7f163c4a11628f55a4df523b3ef836040516105e091815260200190565b60405180910390a3505050565b60006020808352835180602085015260005b8181101561061b578581018301518582016040015282016105ff565b506000604082860101526040601f19601f8301168501019250505092915050565b80356001600160a01b038116811461065357600080fd5b919050565b6000806040838503121561066b57600080fd5b6106748361063c565b946020939093013593505050565b60008060006060848603121561069757600080fd5b6106a08461063c565b92506106ae6020850161063c565b9150604084013590509250925092565b6000602082840312156106d057600080fd5b6106d98261063c565b9392505050565b6000602082840312156106f257600080fd5b5035919050565b6000806040838503121561070c57600080fd5b6107158361063c565b91506107236020840161063c565b90509250929050565b600181811c9082168061074057607f821691505b60208210810361076057634e487b7160e01b600052602260045260246000fd5b50919050565b8082018082111561026c57634e487b7160e01b600052601160045260246000fdfea26469706673582212205e1c02786645b77cb5085d38b6ca5e1bf5d5ab45d1b6b40f76fefdff8efa3d0364736f6c63430008170033",
  "devdoc": {
    "errors": {
      "ERC20InsufficientAllowance(address,uint256,uint256)": [
        {
          "details": "Indicates a failure with the `spender`s `allowance`. Used in transfers.",
          "params": {
            "allowance": "Amount of tokens a `spender` is allowed to operate with.",
            "needed": "Minimum amount required to perform a transfer.",
            "spender": "Address that may be allowed to operate on tokens without being their owner."
          }
        }
      ],
      "ERC20InsufficientBalance(address,uint256,uint256)": [
        {
          "details": "Indicates an error related to the current `balance` of a `sender`. Used in transfers.",
          "params": {
            "balance": "Current balance for the interacting account.",
            "needed": "Minimum amount required to perform a transfer.",
            "sender": "Address whose tokens are being transferred."
          }
        }
      ],
      "ERC20InvalidApprover(address)": [
        {
          "details": "Indicates a failure with the `approver` of a token to be approved. Used in approvals.",
          "params": {
            "approver": "Address initiating an approval operation."
          }
        }
      ],
      "ERC20InvalidReceiver(address)": [
        {
          "details": "Indicates a failure with the token `receiver`. Used in transfers.",
          "params": {
            "receiver": "Address to which tokens are being transferred."
          }
        }
      ],
      "ERC20InvalidSender(address)": [
        {
          "details": "Indicates a failure with the token `sender`. Used in transfers.",
          "params": {
            "sender": "Address whose tokens are being transferred."
          }
        }
      ],
      "ERC20InvalidSpender(address)": [
        {
          "details": "Indicates a failure with the `spender` to be approved. Used in approvals.",
          "params": {
            "spender": "Address that may be allowed to operate on tokens without being their owner."
          }
        }
      ]
    },
    "events": {
      "Approval(address,address,uint256)": {
        "details": "Emitted when the allowance of a `spender` for an `owner` is set by a call to {approve}. `value` is the new allowance."
      },
      "Transfer(address,address,uint256)": {
        "details": "Emitted when `value` tokens are moved from one account (`from`) to another (`to`). Note that `value` may be zero."
      }
    },
    "kind": "dev",
    "methods": {
      "allowance(address,address)": {
        "details": "See {IERC20-allowance}."
      },
      "approve(address,uint256)": {
        "details": "See {IERC20-approve}. NOTE: If `value` is the maximum `uint256`, the allowance is not updated on `transferFrom`. This is semantically equivalent to an infinite approval. Requirements: - `spender` cannot be the zero address."
      },
      "balanceOf(address)": {
        "details": "See {IERC20-balanceOf}."
      },
      "decimals()": {
        "details": "Returns the number of decimals used to get its user representation. For example, if `decimals` equals `2`, a balance of `505` tokens should be displayed to a user as `5.05` (`505 / 10 ** 2`). Tokens usually opt for a value of 18, imitating the relationship between Ether and Wei. This is the default value returned by this function, unless it's overridden. NOTE: This information is only used for _display_ purposes: it in no way affects any of the arithmetic of the contract, including {IERC20-balanceOf} and {IERC20-transfer}."
      },
      "name()": {
        "details": "Returns the name of the token."
      },
      "symbol()": {
        "details": "Returns the symbol of the token, usually a shorter version of the name."
      },
      "totalSupply()": {
        "details": "See {IERC20-totalSupply}."
      },
      "transfer(address,uint256)": {
        "details": "See {IERC20-transfer}. Requirements: - `to` cannot be the zero address. - the caller must have a balance of at least `value`."
      },
      "transferFrom(address,address,uint256)": {
        "details": "See {IERC20-transferFrom}. Emits an {Approval} event indicating the updated allowance. This is not required by the EIP. See the note at the beginning of {ERC20}. NOTE: Does not update the allowance if the current allowance is the maximum `uint256`. Requirements: - `from` and `to` cannot be the zero address. - `from` must have a balance of at least `value`. - the caller must have allowance for ``from``'s tokens of at least `value`."
      }
    },
    "version": 1
  },
  "userdoc": {
    "kind": "user",
    "methods": {},
    "notice": "This smart contract",
    "version": 1
  },
  "storageLayout": {
    "storage": [
      {
        "astId": 1780,
        "contract": "contracts/Mocks/MockUSDT.sol:MockUSDT",
        "label": "_balances",
        "offset": 0,
        "slot": "0",
        "type": "t_mapping(t_address,t_uint256)"
      },
      {
        "astId": 1786,
        "contract": "contracts/Mocks/MockUSDT.sol:MockUSDT",
        "label": "_allowances",
        "offset": 0,
        "slot": "1",
        "type": "t_mapping(t_address,t_mapping(t_address,t_uint256))"
      },
      {
        "astId": 1788,
        "contract": "contracts/Mocks/MockUSDT.sol:MockUSDT",
        "label": "_totalSupply",
        "offset": 0,
        "slot": "2",
        "type": "t_uint256"
      },
      {
        "astId": 1790,
        "contract": "contracts/Mocks/MockUSDT.sol:MockUSDT",
        "label": "_name",
        "offset": 0,
        "slot": "3",
        "type": "t_string_storage"
      },
      {
        "astId": 1792,
        "contract": "contracts/Mocks/MockUSDT.sol:MockUSDT",
        "label": "_symbol",
        "offset": 0,
        "slot": "4",
        "type": "t_string_storage"
      },
      {
        "astId": 12602,
        "contract": "contracts/Mocks/MockUSDT.sol:MockUSDT",
        "label": "INITIAL_SUPPLY",
        "offset": 0,
        "slot": "5",
        "type": "t_uint256"
      },
      {
        "astId": 12606,
        "contract": "contracts/Mocks/MockUSDT.sol:MockUSDT",
        "label": "_faucets",
        "offset": 0,
        "slot": "6",
        "type": "t_mapping(t_address,t_uint256)"
      }
    ],
    "types": {
      "t_address": {
        "encoding": "inplace",
        "label": "address",
        "numberOfBytes": "20"
      },
      "t_mapping(t_address,t_mapping(t_address,t_uint256))": {
        "encoding": "mapping",
        "key": "t_address",
        "label": "mapping(address => mapping(address => uint256))",
        "numberOfBytes": "32",
        "value": "t_mapping(t_address,t_uint256)"
      },
      "t_mapping(t_address,t_uint256)": {
        "encoding": "mapping",
        "key": "t_address",
        "label": "mapping(address => uint256)",
        "numberOfBytes": "32",
        "value": "t_uint256"
      },
      "t_string_storage": {
        "encoding": "bytes",
        "label": "string",
        "numberOfBytes": "32"
      },
      "t_uint256": {
        "encoding": "inplace",
        "label": "uint256",
        "numberOfBytes": "32"
      }
    }
  }
}