{
  "address": "0x7641A3b7A3Ae26a162e53f69dAb99a656B46362d",
  "abi": [
    {
      "inputs": [
        {
          "internalType": "address",
          "name": "_usdcToken",
          "type": "address"
        },
        {
          "internalType": "address",
          "name": "_exchangeAgent",
          "type": "address"
        },
        {
          "internalType": "address",
          "name": "_premiumPool",
          "type": "address"
        },
        {
          "internalType": "address",
          "name": "_capitalAgent",
          "type": "address"
        },
        {
          "internalType": "address",
          "name": "_multiSigWallet",
          "type": "address"
        }
      ],
      "stateMutability": "nonpayable",
      "type": "constructor"
    },
    {
      "inputs": [
        {
          "internalType": "address",
          "name": "owner",
          "type": "address"
        }
      ],
      "name": "OwnableInvalidOwner",
      "type": "error"
    },
    {
      "inputs": [
        {
          "internalType": "address",
          "name": "account",
          "type": "address"
        }
      ],
      "name": "OwnableUnauthorizedAccount",
      "type": "error"
    },
    {
      "inputs": [],
      "name": "ReentrancyGuardReentrantCall",
      "type": "error"
    },
    {
      "anonymous": false,
      "inputs": [
        {
          "indexed": false,
          "internalType": "uint16",
          "name": "_protocolId",
          "type": "uint16"
        },
        {
          "indexed": true,
          "internalType": "address",
          "name": "_protocol",
          "type": "address"
        }
      ],
      "name": "LogSetBlackListProtocol",
      "type": "event"
    },
    {
      "anonymous": false,
      "inputs": [
        {
          "indexed": true,
          "internalType": "address",
          "name": "_premiumPool",
          "type": "address"
        }
      ],
      "name": "LogSetPremiumPool",
      "type": "event"
    },
    {
      "anonymous": false,
      "inputs": [
        {
          "indexed": false,
          "internalType": "bool",
          "name": "_status",
          "type": "bool"
        }
      ],
      "name": "LogUpdateCheckIfProtocolInWhitelistArray",
      "type": "event"
    },
    {
      "anonymous": false,
      "inputs": [
        {
          "indexed": true,
          "internalType": "address",
          "name": "previousOwner",
          "type": "address"
        },
        {
          "indexed": true,
          "internalType": "address",
          "name": "newOwner",
          "type": "address"
        }
      ],
      "name": "OwnershipTransferred",
      "type": "event"
    },
    {
      "anonymous": false,
      "inputs": [
        {
          "indexed": false,
          "internalType": "uint16",
          "name": "_protocolIdx",
          "type": "uint16"
        },
        {
          "indexed": false,
          "internalType": "address",
          "name": "_protocol",
          "type": "address"
        }
      ],
      "name": "ProtocolCreated",
      "type": "event"
    },
    {
      "inputs": [],
      "name": "USDC_TOKEN",
      "outputs": [
        {
          "internalType": "address",
          "name": "",
          "type": "address"
        }
      ],
      "stateMutability": "view",
      "type": "function"
    },
    {
      "inputs": [
        {
          "internalType": "address",
          "name": "_protocolAddress",
          "type": "address"
        }
      ],
      "name": "addProtocol",
      "outputs": [],
      "stateMutability": "nonpayable",
      "type": "function"
    },
    {
      "inputs": [],
      "name": "allProtocolsLength",
      "outputs": [
        {
          "internalType": "uint256",
          "name": "",
          "type": "uint256"
        }
      ],
      "stateMutability": "view",
      "type": "function"
    },
    {
      "inputs": [
        {
          "internalType": "address",
          "name": "_premiumCurrency",
          "type": "address"
        }
      ],
      "name": "approvePremiumInPolicy",
      "outputs": [],
      "stateMutability": "nonpayable",
      "type": "function"
    },
    {
      "inputs": [],
      "name": "capitalAgent",
      "outputs": [
        {
          "internalType": "address",
          "name": "",
          "type": "address"
        }
      ],
      "stateMutability": "view",
      "type": "function"
    },
    {
      "inputs": [],
      "name": "checkIfProtocolInWhitelistArray",
      "outputs": [
        {
          "internalType": "bool",
          "name": "",
          "type": "bool"
        }
      ],
      "stateMutability": "view",
      "type": "function"
    },
    {
      "inputs": [],
      "name": "exchangeAgent",
      "outputs": [
        {
          "internalType": "address",
          "name": "",
          "type": "address"
        }
      ],
      "stateMutability": "view",
      "type": "function"
    },
    {
      "inputs": [
        {
          "internalType": "uint16",
          "name": "",
          "type": "uint16"
        }
      ],
      "name": "getProtocol",
      "outputs": [
        {
          "internalType": "address",
          "name": "protocolAddress",
          "type": "address"
        },
        {
          "internalType": "bool",
          "name": "isBlackList",
          "type": "bool"
        }
      ],
      "stateMutability": "view",
      "type": "function"
    },
    {
      "inputs": [
        {
          "internalType": "uint16",
          "name": "_protocolIdx",
          "type": "uint16"
        }
      ],
      "name": "getProtocolData",
      "outputs": [
        {
          "internalType": "address",
          "name": "protocolAddress",
          "type": "address"
        },
        {
          "internalType": "bool",
          "name": "isBlackList",
          "type": "bool"
        }
      ],
      "stateMutability": "view",
      "type": "function"
    },
    {
      "inputs": [
        {
          "internalType": "address",
          "name": "",
          "type": "address"
        }
      ],
      "name": "getProtocolId",
      "outputs": [
        {
          "internalType": "uint16",
          "name": "",
          "type": "uint16"
        }
      ],
      "stateMutability": "view",
      "type": "function"
    },
    {
      "inputs": [
        {
          "internalType": "address",
          "name": "_exchangeAgent",
          "type": "address"
        },
        {
          "internalType": "address",
          "name": "_premiumPool",
          "type": "address"
        },
        {
          "internalType": "address",
          "name": "_capitalAgent",
          "type": "address"
        }
      ],
      "name": "newSalesPolicy",
      "outputs": [
        {
          "internalType": "address",
          "name": "",
          "type": "address"
        }
      ],
      "stateMutability": "nonpayable",
      "type": "function"
    },
    {
      "inputs": [],
      "name": "owner",
      "outputs": [
        {
          "internalType": "address",
          "name": "",
          "type": "address"
        }
      ],
      "stateMutability": "view",
      "type": "function"
    },
    {
      "inputs": [],
      "name": "premiumPool",
      "outputs": [
        {
          "internalType": "address",
          "name": "",
          "type": "address"
        }
      ],
      "stateMutability": "view",
      "type": "function"
    },
    {
      "inputs": [],
      "name": "renounceOwnership",
      "outputs": [],
      "stateMutability": "nonpayable",
      "type": "function"
    },
    {
      "inputs": [],
      "name": "salesPolicy",
      "outputs": [
        {
          "internalType": "address",
          "name": "",
          "type": "address"
        }
      ],
      "stateMutability": "view",
      "type": "function"
    },
    {
      "inputs": [
        {
          "internalType": "address",
          "name": "_protocol",
          "type": "address"
        }
      ],
      "name": "setBlackListProtocolByAddress",
      "outputs": [],
      "stateMutability": "nonpayable",
      "type": "function"
    },
    {
      "inputs": [
        {
          "internalType": "uint16",
          "name": "_protocolId",
          "type": "uint16"
        }
      ],
      "name": "setBlackListProtocolById",
      "outputs": [],
      "stateMutability": "nonpayable",
      "type": "function"
    },
    {
      "inputs": [
        {
          "internalType": "uint256",
          "name": "_maxDeadline",
          "type": "uint256"
        }
      ],
      "name": "setBuyPolicyMaxDeadlineInPolicy",
      "outputs": [],
      "stateMutability": "nonpayable",
      "type": "function"
    },
    {
      "inputs": [
        {
          "internalType": "address",
          "name": "_capitalAgent",
          "type": "address"
        }
      ],
      "name": "setCapitalAgentInPolicy",
      "outputs": [],
      "stateMutability": "nonpayable",
      "type": "function"
    },
    {
      "inputs": [
        {
          "internalType": "address",
          "name": "_exchangeAgent",
          "type": "address"
        }
      ],
      "name": "setExchangeAgentInPolicy",
      "outputs": [],
      "stateMutability": "nonpayable",
      "type": "function"
    },
    {
      "inputs": [
        {
          "internalType": "address",
          "name": "_premiumPool",
          "type": "address"
        }
      ],
      "name": "setPremiumPool",
      "outputs": [],
      "stateMutability": "nonpayable",
      "type": "function"
    },
    {
      "inputs": [
        {
          "internalType": "address",
          "name": "_premiumPool",
          "type": "address"
        }
      ],
      "name": "setPremiumPoolInPolicy",
      "outputs": [],
      "stateMutability": "nonpayable",
      "type": "function"
    },
    {
      "inputs": [
        {
          "internalType": "string",
          "name": "_uri",
          "type": "string"
        }
      ],
      "name": "setProtocolURIInPolicy",
      "outputs": [],
      "stateMutability": "nonpayable",
      "type": "function"
    },
    {
      "inputs": [
        {
          "internalType": "address",
          "name": "_signer",
          "type": "address"
        }
      ],
      "name": "setSignerInPolicy",
      "outputs": [],
      "stateMutability": "nonpayable",
      "type": "function"
    },
    {
      "inputs": [
        {
          "internalType": "address",
          "name": "newOwner",
          "type": "address"
        }
      ],
      "name": "transferOwnership",
      "outputs": [],
      "stateMutability": "nonpayable",
      "type": "function"
    },
    {
      "inputs": [
        {
          "internalType": "bool",
          "name": "_status",
          "type": "bool"
        }
      ],
      "name": "updateCheckIfProtocolInWhitelistArray",
      "outputs": [],
      "stateMutability": "nonpayable",
      "type": "function"
    }
  ],
  "transactionHash": "0x1d25b9043cfb8f057fd3ff7768eb8b268b41c49cdfcebe5e5bf4fde42c190fa4",
  "args": [
    "0xb1Ce55d27FaF8D4499b840A3EDf509E4df43f9E1",
    "0x045Fb0d025c982D633191017381ea772eCfAea81",
    "0xf18bBfF301c8602DeA7EC739fECDDE9690fF9f3B",
    "0xa50F3fD32d7Ead49a5C34091744bE516b67417cA",
    "0xedFFe0a06914c9D6083B4B099e5b935E9E84c9a5"
  ],
  "numDeployments": 1,
  "solcInputHash": "043e6f9291d730ca425769ce9470ab90",
  "bytecode": "0x60806040523480156200001157600080fd5b50604051620053c6380380620053c6833981016040819052620000349162000306565b6001600055806001600160a01b0381166200006a57604051631e4fbdf760e01b8152600060048201526024015b60405180910390fd5b620000758162000297565b506001600160a01b038516620000ce5760405162461bcd60e51b815260206004820152601860248201527f556e6f52653a207a65726f205553444320616464726573730000000000000000604482015260640162000061565b6001600160a01b038416620001305760405162461bcd60e51b815260206004820152602160248201527f556e6f52653a207a65726f2065786368616e67654167656e74206164647265736044820152607360f81b606482015260840162000061565b6001600160a01b038316620001885760405162461bcd60e51b815260206004820152601f60248201527f556e6f52653a207a65726f207072656d69756d506f6f6c206164647265737300604482015260640162000061565b6001600160a01b038216620001e05760405162461bcd60e51b815260206004820181905260248201527f556e6f52653a207a65726f206361706974616c4167656e742061646472657373604482015260640162000061565b6001600160a01b038116620002435760405162461bcd60e51b815260206004820152602260248201527f556e6f52653a207a65726f206d756c746973696777616c6c6574206164647265604482015261737360f01b606482015260840162000061565b50600980546001600160a01b03199081166001600160a01b03968716179091556002805482169386169390931790925560038054831693851693909317909255600480549091169190921617905562000376565b600180546001600160a01b038381166001600160a01b0319831681179093556040519116919082907f8be0079c531659141344cd1fd0a4f28419497f9722a3daafe3b4186f6b6457e090600090a35050565b80516001600160a01b03811681146200030157600080fd5b919050565b600080600080600060a086880312156200031f57600080fd5b6200032a86620002e9565b94506200033a60208701620002e9565b93506200034a60408701620002e9565b92506200035a60608701620002e9565b91506200036a60808701620002e9565b90509295509295909350565b61504080620003866000396000f3fe60806040523480156200001157600080fd5b5060043610620001af5760003560e01c8063b381ff8211620000f0578063d191097e11620000a3578063dc962e45116200007a578063dc962e451462000444578063dfca9781146200045b578063f2fde38b1462000472578063fa569274146200048957600080fd5b8063d191097e14620003e1578063d2c7c2a414620003f8578063d9203b91146200043057600080fd5b8063b381ff821462000319578063b64a775e146200032b578063bbd9d8e11462000342578063bcd54f0c146200039f578063c3c3b55b14620003b6578063c5870a4b14620003ca57600080fd5b8063715018a611620001665780638da5cb5b116200013d5780638da5cb5b14620002c2578063924589c514620002d4578063aeba91d014620002eb578063b31b9fee146200030257600080fd5b8063715018a6146200028a578063771d4c2814620002945780638bc798dc14620002ab57600080fd5b806302f3318d14620001b45780631bcc247214620001cd578063222a5df614620001e457806342198160146200020e5780634ba69faa146200023b5780636c18443d146200024f575b600080fd5b620001cb620001c536600462000c85565b6200049d565b005b620001cb620001de36600462000c85565b6200053e565b600154620001f990600160a01b900460ff1681565b60405190151581526020015b60405180910390f35b60045462000222906001600160a01b031681565b6040516001600160a01b03909116815260200162000205565b60025462000222906001600160a01b031681565b620002766200026036600462000c85565b60076020526000908152604090205461ffff1681565b60405161ffff909116815260200162000205565b620001cb620005bb565b620001cb620002a536600462000c85565b620005d3565b620001cb620002bc36600462000c85565b620006a6565b6001546001600160a01b031662000222565b620001cb620002e536600462000ca3565b6200070c565b620001cb620002fc36600462000c85565b6200077f565b620002226200031336600462000cc9565b620007fb565b60085460405190815260200162000205565b620001cb6200033c36600462000c85565b62000912565b6200037f6200035336600462000ca3565b61ffff166000908152600660205260409020546001600160a01b03811691600160a01b90910460ff1690565b604080516001600160a01b03909316835290151560208301520162000205565b620001cb620003b036600462000d29565b62000978565b60055462000222906001600160a01b031681565b620001cb620003db36600462000c85565b620009b4565b620001cb620003f236600462000de4565b62000a1a565b6200037f6200040936600462000ca3565b6006602052600090815260409020546001600160a01b03811690600160a01b900460ff1682565b60035462000222906001600160a01b031681565b620001cb6200045536600462000dfe565b62000aa8565b620001cb6200046c36600462000c85565b62000b0b565b620001cb6200048336600462000c85565b62000b48565b60095462000222906001600160a01b031681565b620004a762000b89565b6001600160a01b038116620004d95760405162461bcd60e51b8152600401620004d09062000e22565b60405180910390fd5b600554604051630de6123960e11b81526001600160a01b03838116600483015290911690631bcc2472906024015b600060405180830381600087803b1580156200052257600080fd5b505af115801562000537573d6000803e3d6000fd5b5050505050565b6200054862000b89565b6001600160a01b038116620005715760405162461bcd60e51b8152600401620004d09062000e22565b600280546001600160a01b0319166001600160a01b0383169081179091556040517faa0150507cbcab99f33127173fcbdd580e5710d253406b99952e1feda3cdcc0e90600090a250565b620005c562000b89565b620005d1600062000bb8565b565b620005dd62000b89565b620005e762000c0a565b620005f3600862000c35565b506008546040805180820182526001600160a01b038481168083526000602080850182815261ffff8816808452600683528784209651875492511515600160a01b026001600160a81b03199093169616959095171790945581815260078452849020805461ffff1916831790558351918252918101919091527fc3971223019c1361f0a91605997c54932599b5f815f2f7d49e183fbc21014029910160405180910390a150620006a36001600055565b50565b620006b062000b89565b6001600160a01b038116620006d95760405162461bcd60e51b8152600401620004d09062000e22565b600554604051636c19e78360e01b81526001600160a01b03838116600483015290911690636c19e7839060240162000507565b6200071662000b89565b61ffff81166000818152600660209081526040918290208054600160a01b60ff60a01b1982161790915591519283526001600160a01b03909116917f599cca7c0d636819ca3833dcdbcd266536199c19522d35eb59e13d07f1041770910160405180910390a250565b6200078962000b89565b6001600160a01b03811660008181526007602090815260408083205461ffff168084526006835292819020805460ff60a01b1916600160a01b179055518281529192917f599cca7c0d636819ca3833dcdbcd266536199c19522d35eb59e13d07f1041770910160405180910390a25050565b60006200080762000b89565b6200081162000c0a565b60095460405160009130918791879187916001600160a01b031690620008379062000c5a565b6001600160a01b0395861681529385166020850152918416604084015283166060830152909116608082015260a001604051809103906000f08015801562000883573d6000803e3d6000fd5b50600580546001600160a01b0319166001600160a01b0383811691821790925560048054604051637d4163d360e01b8152918201929092529293501690637d4163d390602401600060405180830381600087803b158015620008e457600080fd5b505af1158015620008f9573d6000803e3d6000fd5b509293505050506200090b6001600055565b9392505050565b6200091c62000b89565b6001600160a01b038116620009455760405162461bcd60e51b8152600401620004d09062000e22565b600554604051630c5006c760e11b81526001600160a01b038381166004830152909116906318a00d8e9060240162000507565b6200098262000b89565b6005546040516313b41ce760e31b81526001600160a01b0390911690639da0e738906200050790849060040162000e4f565b620009be62000b89565b6001600160a01b038116620009e75760405162461bcd60e51b8152600401620004d09062000e22565b60055460405163c2eb8eb960e01b81526001600160a01b0383811660048301529091169063c2eb8eb99060240162000507565b62000a2462000b89565b6000811162000a765760405162461bcd60e51b815260206004820152601860248201527f556e6f52653a207a65726f206d617820646561646c696e6500000000000000006044820152606401620004d0565b60055460405163fda2071d60e01b8152600481018390526001600160a01b039091169063fda2071d9060240162000507565b62000ab262000b89565b60018054821515600160a01b0260ff60a01b199091161790556040517f8488d1fbbfabc3e41bea48b6d06c5139182eccbd9942a27a1142748120d028589062000b0090831515815260200190565b60405180910390a150565b62000b1562000b89565b6005546040516321ecf70160e01b81526001600160a01b038381166004830152909116906321ecf7019060240162000507565b62000b5262000b89565b6001600160a01b03811662000b7e57604051631e4fbdf760e01b815260006004820152602401620004d0565b620006a38162000bb8565b6001546001600160a01b03163314620005d15760405163118cdaa760e01b8152336004820152602401620004d0565b600180546001600160a01b038381166001600160a01b0319831681179093556040519116919082907f8be0079c531659141344cd1fd0a4f28419497f9722a3daafe3b4186f6b6457e090600090a35050565b60026000540362000c2e57604051633ee5aeb560e01b815260040160405180910390fd5b6002600055565b6000600182600001600082825462000c4e919062000ea0565b90915550509054919050565b6141428062000ec983390190565b80356001600160a01b038116811462000c8057600080fd5b919050565b60006020828403121562000c9857600080fd5b6200090b8262000c68565b60006020828403121562000cb657600080fd5b813561ffff811681146200090b57600080fd5b60008060006060848603121562000cdf57600080fd5b62000cea8462000c68565b925062000cfa6020850162000c68565b915062000d0a6040850162000c68565b90509250925092565b634e487b7160e01b600052604160045260246000fd5b60006020828403121562000d3c57600080fd5b813567ffffffffffffffff8082111562000d5557600080fd5b818401915084601f83011262000d6a57600080fd5b81358181111562000d7f5762000d7f62000d13565b604051601f8201601f19908116603f0116810190838211818310171562000daa5762000daa62000d13565b8160405282815287602084870101111562000dc457600080fd5b826020860160208301376000928101602001929092525095945050505050565b60006020828403121562000df757600080fd5b5035919050565b60006020828403121562000e1157600080fd5b813580151581146200090b57600080fd5b602080825260139082015272556e6f52653a207a65726f206164647265737360681b604082015260600190565b60006020808352835180602085015260005b8181101562000e7f5785810183015185820160400152820162000e61565b506000604082860101526040601f19601f8301168501019250505092915050565b8082018082111562000ec257634e487b7160e01b600052601160045260246000fd5b9291505056fe60c06040526000196012553480156200001757600080fd5b5060405162004142380380620041428339810160408190526200003a91620003dc565b6040518060400160405280601081526020016f506f6c69637920696e737572616e636560801b8152506040518060400160405280601081526020016f506f6c69637920696e737572616e636560801b8152506040518060400160405280601881526020017f427579506f6c6963794d6574615472616e73616374696f6e0000000000000000815250604051806040016040528060018152602001603160f81b81525081816040518060800160405280604f8152602001620040f3604f913980519060200120828051906020012082805190602001203062000120620003bb60201b60201c565b60408051602081019690965285019390935260608401919091526001600160a01b0316608083015260a082015260c00160408051601f198184030181529190528051602090910120600055506002925062000180915084905082620004f3565b5060036200018f8282620004f3565b50506001600855506009805460ff191690556001600160a01b038516620001fd5760405162461bcd60e51b815260206004820152601b60248201527f556e6f52653a207a65726f20666163746f72792061646472657373000000000060448201526064015b60405180910390fd5b6001600160a01b0384166200025f5760405162461bcd60e51b815260206004820152602160248201527f556e6f52653a207a65726f2065786368616e67654167656e74206164647265736044820152607360f81b6064820152608401620001f4565b6001600160a01b038316620002b75760405162461bcd60e51b815260206004820152601f60248201527f556e6f52653a207a65726f207072656d69756d506f6f6c2061646472657373006044820152606401620001f4565b6001600160a01b0382166200030f5760405162461bcd60e51b815260206004820181905260248201527f556e6f52653a207a65726f206361706974616c4167656e7420616464726573736044820152606401620001f4565b6001600160a01b038116620003675760405162461bcd60e51b815260206004820152601860248201527f556e6f52653a207a65726f2055534443206164647265737300000000000000006044820152606401620001f4565b6001600160a01b03948516608052600b80549486166001600160a01b0319958616179055600d805492861692851692909217909155831660a052600c805491909316911617905562093a80600a55620005bf565b4690565b80516001600160a01b0381168114620003d757600080fd5b919050565b600080600080600060a08688031215620003f557600080fd5b6200040086620003bf565b94506200041060208701620003bf565b93506200042060408701620003bf565b92506200043060608701620003bf565b91506200044060808701620003bf565b90509295509295909350565b634e487b7160e01b600052604160045260246000fd5b600181811c908216806200047757607f821691505b6020821081036200049857634e487b7160e01b600052602260045260246000fd5b50919050565b601f821115620004ee576000816000526020600020601f850160051c81016020861015620004c95750805b601f850160051c820191505b81811015620004ea57828155600101620004d5565b5050505b505050565b81516001600160401b038111156200050f576200050f6200044c565b620005278162000520845462000462565b846200049e565b602080601f8311600181146200055f5760008415620005465750858301515b600019600386901b1c1916600185901b178555620004ea565b600085815260208120601f198616915b8281101562000590578886015182559484019460019091019084016200056f565b5085821015620005af5787850151600019600388901b60f8161c191681555b5050505050600190811b01905550565b60805160a051613ab362000640600039600081816107c9015261154e01526000818161072a01528181610ba401528181610c6f01528181610e93015281816116d00152818161173201528181611845015281816118b401528181611a9c01528181611bfd015281816124aa015281816125df01526126740152613ab36000f3fe6080604052600436106102295760003560e01c80636352211e11610123578063a5d5e142116100ab578063d341960b1161006f578063d341960b1461076c578063de4e420114610781578063e985e9c514610797578063fa569274146107b7578063fda2071d146107eb57600080fd5b8063a5d5e142146106b8578063b88d4fde146106d8578063c2eb8eb9146106f8578063c45a015514610718578063c87b56dd1461074c57600080fd5b80637a39b8d8116100f25780637a39b8d8146105cc5780637a5402e9146105e157806395d89b41146106635780639da0e73814610678578063a22cb4651461069857600080fd5b80636352211e1461055757806367755415146105775780636c19e7831461058c57806370a08231146105ac57600080fd5b8063238ac933116101b157806335f336f31161017557806335f336f3146104cc57806342198160146104df57806342842e0e146104ff5780634ba69faa1461051f5780635c975abb1461053f57600080fd5b8063238ac9331461037957806323b872dd146103995780632b07fce3146103b95780632d0335ab1461046857806333b3691e146104ac57600080fd5b80630c53c51c116101f85780630c53c51c146102e657806318a00d8e146102f95780631bcc24721461031957806321c61b881461033957806321ecf7011461035957600080fd5b806301ffc9a71461023557806306fdde031461026a578063081812fc1461028c578063095ea7b3146102c457600080fd5b3661023057005b600080fd5b34801561024157600080fd5b5061025561025036600461302f565b61080b565b60405190151581526020015b60405180910390f35b34801561027657600080fd5b5061027f61085d565b604051610261919061309c565b34801561029857600080fd5b506102ac6102a73660046130af565b6108ef565b6040516001600160a01b039091168152602001610261565b3480156102d057600080fd5b506102e46102df3660046130ed565b610918565b005b61027f6102f43660046131e9565b610927565b34801561030557600080fd5b506102e461031436600461325d565b610ba2565b34801561032557600080fd5b506102e461033436600461325d565b610c6d565b34801561034557600080fd5b506102e461035436600461327a565b610d38565b34801561036557600080fd5b506102e461037436600461325d565b610e91565b34801561038557600080fd5b50600e546102ac906001600160a01b031681565b3480156103a557600080fd5b506102e46103b43660046132b2565b610fcd565b3480156103c557600080fd5b506104266103d43660046130af565b601160205260009081526040902080546001820154600283015460038401546004909401549293919290916001600160a01b03908116919081169060ff600160a01b8204811691600160a81b90041687565b604080519788526020880196909652948601939093526001600160a01b039182166060860152166080840152151560a0830152151560c082015260e001610261565b34801561047457600080fd5b5061049e61048336600461325d565b6001600160a01b031660009081526001602052604090205490565b604051908152602001610261565b3480156104b857600080fd5b506102e46104c73660046130af565b611058565b6102e46104da3660046133dd565b6111e5565b3480156104eb57600080fd5b50600d546102ac906001600160a01b031681565b34801561050b57600080fd5b506102e461051a3660046132b2565b6116a3565b34801561052b57600080fd5b50600c546102ac906001600160a01b031681565b34801561054b57600080fd5b5060095460ff16610255565b34801561056357600080fd5b506102ac6105723660046130af565b6116c3565b34801561058357600080fd5b506102e46116ce565b34801561059857600080fd5b506102e46105a736600461325d565b611730565b3480156105b857600080fd5b5061049e6105c736600461325d565b6117fb565b3480156105d857600080fd5b506102e4611843565b3480156105ed57600080fd5b506106376105fc3660046130af565b600090815260116020526040902060048101546002820154600183015492549093909160ff600160a01b8204811692600160a81b9092041690565b60408051958652602086019490945292840191909152151560608301521515608082015260a001610261565b34801561066f57600080fd5b5061027f6118a3565b34801561068457600080fd5b506102e46106933660046134d4565b6118b2565b3480156106a457600080fd5b506102e46106b336600461352b565b61195b565b3480156106c457600080fd5b506102e46106d33660046130af565b611966565b3480156106e457600080fd5b506102e46106f3366004613564565b611a83565b34801561070457600080fd5b506102e461071336600461325d565b611a9a565b34801561072457600080fd5b506102ac7f000000000000000000000000000000000000000000000000000000000000000081565b34801561075857600080fd5b5061027f6107673660046130af565b611b65565b34801561077857600080fd5b5060105461049e565b34801561078d57600080fd5b5061049e600a5481565b3480156107a357600080fd5b506102556107b23660046135d0565b611bcd565b3480156107c357600080fd5b506102ac7f000000000000000000000000000000000000000000000000000000000000000081565b3480156107f757600080fd5b506102e46108063660046130af565b611bfb565b60006001600160e01b031982166380ac58cd60e01b148061083c57506001600160e01b03198216635b5e139f60e01b145b8061085757506301ffc9a760e01b6001600160e01b03198316145b92915050565b60606002805461086c906135fe565b80601f0160208091040260200160405190810160405280929190818152602001828054610898906135fe565b80156108e55780601f106108ba576101008083540402835291602001916108e5565b820191906000526020600020905b8154815290600101906020018083116108c857829003601f168201915b5050505050905090565b60006108fa82611cda565b506000828152600660205260409020546001600160a01b0316610857565b610923828233611d13565b5050565b6060600061093486611d20565b90506001600160e01b03196000358116908216036109bf5760405162461bcd60e51b815260206004820152603d60248201527f66756e6374696f6e5369676e61747572652063616e206e6f74206265206f662060448201527f657865637574654d6574615472616e73616374696f6e206d6574686f6400000060648201526084015b60405180910390fd5b604080516060810182526001600160a01b038916600081815260016020908152908490205483528201529081018790526109fc8882888888611d3b565b610a525760405162461bcd60e51b815260206004820152602160248201527f5369676e657220616e64207369676e617475726520646f206e6f74206d6174636044820152600d60fb1b60648201526084016109b6565b6001600160a01b038816600090815260016020819052604090912054610a779161364e565b6001600160a01b0389166000908152600160209081526040808320939093559151909182913091610aac918c918e9101613661565b60408051601f1981840301815290829052610ac691613698565b6000604051808303816000865af19150503d8060008114610b03576040519150601f19603f3d011682016040523d82523d6000602084013e610b08565b606091505b509150915081610b5a5760405162461bcd60e51b815260206004820152601c60248201527f46756e6374696f6e2063616c6c206e6f74207375636365737366756c0000000060448201526064016109b6565b7f5845892132946850460bff5a0083f71031bc5bf9aadcd40f1de79423eac9b10b8a338b604051610b8d939291906136b4565b60405180910390a19998505050505050505050565b7f00000000000000000000000000000000000000000000000000000000000000006001600160a01b0316610bd4611e17565b6001600160a01b031614610bfa5760405162461bcd60e51b81526004016109b6906136e9565b6001600160a01b038116610c205760405162461bcd60e51b81526004016109b690613720565b600b80546001600160a01b0319166001600160a01b0383169081179091556040513091907f5ca4aeaf5ab178bf08d3e1eb491b9a13a2de5b100038437cf5ed0e361fff8f3790600090a350565b7f00000000000000000000000000000000000000000000000000000000000000006001600160a01b0316610c9f611e17565b6001600160a01b031614610cc55760405162461bcd60e51b81526004016109b6906136e9565b6001600160a01b038116610ceb5760405162461bcd60e51b81526004016109b690613720565b600c80546001600160a01b0319166001600160a01b0383169081179091556040513091907fb6f78fe449cc310adeef201f18b6afe9569041a997be6b619607692854999c8190600090a350565b6040805160e081018252428152620186a060208083019182528284018581526000606085018181526001600160a01b0389811660808801908152600160a0890181815260c08a018681528e8752601190985299909420975188559551928701929092559151600286015590516003850180546001600160a01b03191691831691909117905591516004909301805494519151939092166001600160a81b031990941693909317600160a01b931515939093029290921760ff60a81b1916600160a81b91151591909102179055610e15610e0f611e17565b84611e73565b600d54600084815260116020526040908190206002015490516350498d7960e11b81526001600160a01b039092169163a0931af291610e5a9160040190815260200190565b600060405180830381600087803b158015610e7457600080fd5b505af1158015610e88573d6000803e3d6000fd5b50505050505050565b7f00000000000000000000000000000000000000000000000000000000000000006001600160a01b0316610ec3611e17565b6001600160a01b031614610ee95760405162461bcd60e51b81526004016109b6906136e9565b6001600160a01b038116610f0f5760405162461bcd60e51b81526004016109b690613720565b600c546001600160a01b0316610f675760405162461bcd60e51b815260206004820152601e60248201527f556e6f52653a206e6f742064656669656e64207072656d69756d506f6f6c000060448201526064016109b6565b600c54601254610f849183916001600160a01b0390911690611ed8565b600c546040516001600160a01b0391821681529082169030907fc571353a8852cd132c515d367a4fa7c21e9c38baf9c7e9818f59d40b2b156b7c9060200160405180910390a350565b6001600160a01b038216610ff757604051633250574960e11b8152600060048201526024016109b6565b6000611004838333612007565b9050836001600160a01b0316816001600160a01b031614611052576040516364283d7b60e01b81526001600160a01b03808616600483015260248201849052821660448201526064016109b6565b50505050565b611060612100565b600d546001600160a01b0316611074611e17565b6001600160a01b03161461109a5760405162461bcd60e51b81526004016109b6906136e9565b600081815260116020526040902060040154600160a01b900460ff166111025760405162461bcd60e51b815260206004820152601e60248201527f556e6f52653a206d61726b656420746f20636c61696d20616c7265616479000060448201526064016109b6565b600081815260116020526040902060040154600160a81b900460ff16156111635760405162461bcd60e51b8152602060048201526015602482015274155b9bd4994e881c1bdb1a58de48195e1c1a5c9959605a1b60448201526064016109b6565b6000818152601160205260409020600401805460ff60a01b191690556111888161212a565b807f048ce8e17c5255ee6428918540ffd64ab271d402ec9f5cdc6976d66043b174ab60116000848152602001908152602001600020600201546040516111d091815260200190565b60405180910390a26111e26001600855565b50565b6111ed612165565b6111f5612100565b8851806112375760405162461bcd60e51b815260206004820152601060248201526f556e6f52653a206e6f20706f6c69637960801b60448201526064016109b6565b8851811461129f5760405162461bcd60e51b815260206004820152602f60248201527f556e6f52653a206e6f206d617463682070726f746f636f6c496473207769746860448201526e0818dbdd995c9859d9505b5bdd5b9d608a1b60648201526084016109b6565b875181146113095760405162461bcd60e51b815260206004820152603160248201527f556e6f52653a206e6f206d617463682070726f746f636f6c49647320776974686044820152701031b7bb32b930b3b2a23ab930ba34b7b760791b60648201526084016109b6565b600061131c888c8b8d8b8b8b8b8b612189565b90506001600160a01b038116158015906113435750600e546001600160a01b038281169116145b6113875760405162461bcd60e51b81526020600482015260156024820152742ab737a9329d1034b73b30b634b21039b4b3b732b960591b60448201526064016109b6565b4287111580156113a15750600a5461139f884261374d565b105b6113ed5760405162461bcd60e51b815260206004820152601860248201527f556e6f52653a207369676e61747572652065787069726564000000000000000060448201526064016109b6565b60006001600160a01b03871661154c57600b5460405163531a221160e01b8152600481018b90526001600160a01b039091169063531a221190602401602060405180830381865afa158015611446573d6000803e3d6000fd5b505050506040513d601f19601f8201168201806040525081019061146a9190613760565b9050803410156114bc5760405162461bcd60e51b815260206004820152601860248201527f556e6f52653a20696e73756666696369656e742070616964000000000000000060448201526064016109b6565b803411156114de576114de6114cf611e17565b6114d9833461374d565b612285565b600c60009054906101000a90046001600160a01b03166001600160a01b031663bc181416826040518263ffffffff1660e01b81526004016000604051808303818588803b15801561152e57600080fd5b505af1158015611542573d6000803e3d6000fd5b505050505061167c565b7f00000000000000000000000000000000000000000000000000000000000000006001600160a01b0316876001600160a01b03160361158b5788611600565b600b5460405163a9a12d4360e01b81526001600160a01b038981166004830152602482018c90529091169063a9a12d4390604401602060405180830381865afa1580156115dc573d6000803e3d6000fd5b505050506040513d601f19601f820116820180604052508101906116009190613760565b90506116158761160e611e17565b308461235f565b600c54604051638c8ac76d60e01b81526001600160a01b0389811660048301526024820184905290911690638c8ac76d90604401600060405180830381600087803b15801561166357600080fd5b505af1158015611677573d6000803e3d6000fd5b505050505b61168a8d8d8d8d858c61249d565b5050506116976001600855565b50505050505050505050565b6116be83838360405180602001604052806000815250611a83565b505050565b600061085782611cda565b7f00000000000000000000000000000000000000000000000000000000000000006001600160a01b0316611700611e17565b6001600160a01b0316146117265760405162461bcd60e51b81526004016109b6906136e9565b61172e612993565b565b7f00000000000000000000000000000000000000000000000000000000000000006001600160a01b0316611762611e17565b6001600160a01b0316146117885760405162461bcd60e51b81526004016109b6906136e9565b6001600160a01b0381166117ae5760405162461bcd60e51b81526004016109b690613720565b600e80546001600160a01b0319166001600160a01b0383169081179091556040513091907f8e2c76c578fb1494886741ea1b707ab0b9b0f8001354273d5b491bd68299720e90600090a350565b60006001600160a01b038216611827576040516322718ad960e21b8152600060048201526024016109b6565b506001600160a01b031660009081526005602052604090205490565b7f00000000000000000000000000000000000000000000000000000000000000006001600160a01b0316611875611e17565b6001600160a01b03161461189b5760405162461bcd60e51b81526004016109b6906136e9565b61172e6129e5565b60606003805461086c906135fe565b7f00000000000000000000000000000000000000000000000000000000000000006001600160a01b03166118e4611e17565b6001600160a01b03161461190a5760405162461bcd60e51b81526004016109b6906136e9565b600f61191682826137c1565b50306001600160a01b03167f970aa99b4d9e40ecd777dc926534019dbf26bef2c6021c90c036984b5a9e0fde82604051611950919061309c565b60405180910390a250565b610923338383612a22565b61196e612100565b600d546001600160a01b0316611982611e17565b6001600160a01b0316146119a85760405162461bcd60e51b81526004016109b6906136e9565b600081815260116020526040902060040154600160a01b900460ff16611a105760405162461bcd60e51b815260206004820152601e60248201527f556e6f52653a206d61726b656420746f20636c61696d20616c7265616479000060448201526064016109b6565b6000818152601160205260409020600401805460ff60a81b1916600160a81b179055611a3b8161212a565b807f184fb82e16552a73263d53d4dcb23c8300d042a0578b8633d30680ac2f09f07660116000848152602001908152602001600020600201546040516111d091815260200190565b611a8e848484610fcd565b61105284848484612ac1565b7f00000000000000000000000000000000000000000000000000000000000000006001600160a01b0316611acc611e17565b6001600160a01b031614611af25760405162461bcd60e51b81526004016109b6906136e9565b6001600160a01b038116611b185760405162461bcd60e51b81526004016109b690613720565b600d80546001600160a01b0319166001600160a01b0383169081179091556040513091907f8dadc789ed91201272dd8c71737c6f84bb2d72bca3f5ec01601694cda82868c090600090a350565b6060611b7082611cda565b506000611b7b612be3565b90506000815111611b9b5760405180602001604052806000815250611bc6565b80611ba584612bf2565b604051602001611bb6929190613881565b6040516020818303038152906040525b9392505050565b6001600160a01b03918216600090815260076020908152604080832093909416825291909152205460ff1690565b7f00000000000000000000000000000000000000000000000000000000000000006001600160a01b0316611c2d611e17565b6001600160a01b031614611c535760405162461bcd60e51b81526004016109b6906136e9565b60008111611ca35760405162461bcd60e51b815260206004820152601a60248201527f556e6f52653a207a65726f206d6178207369676e656454696d6500000000000060448201526064016109b6565b600a81905560405181815230907fef0e0784016a6db87327a652697e3f4ff408f7e7951378b26c113979017f7f0290602001611950565b6000818152600460205260408120546001600160a01b03168061085757604051637e27328960e01b8152600481018490526024016109b6565b6116be8383836001612c85565b60008151600003611d3357506000919050565b506020015190565b6000806001611d51611d4c88612d8b565b612e08565b6040805160008152602081018083529290925260ff861690820152606081018790526080810186905260a0016020604051602081039080840390855afa158015611d9f573d6000803e3d6000fd5b5050604051601f1901519150506001600160a01b038116611df65760405162461bcd60e51b8152602060048201526011602482015270496e76616c6964207369676e617475726560781b60448201526064016109b6565b866001600160a01b0316816001600160a01b03161491505095945050505050565b6000303303611e6d57600080368080601f0160208091040260200160405190810160405280939291908181526020018383808284376000920191909152505050503601516001600160a01b03169150611e709050565b50335b90565b6001600160a01b038216611e9d57604051633250574960e11b8152600060048201526024016109b6565b6000611eab83836000612007565b90506001600160a01b038116156116be576040516339e3563760e11b8152600060048201526024016109b6565b604080516001600160a01b038481166024830152604480830185905283518084039091018152606490920183526020820180516001600160e01b031663095ea7b360e01b1790529151600092839290871691611f349190613698565b6000604051808303816000865af19150503d8060008114611f71576040519150601f19603f3d011682016040523d82523d6000602084013e611f76565b606091505b5091509150818015611fa0575080511580611fa0575080806020019051810190611fa091906138b0565b6120005760405162461bcd60e51b815260206004820152602b60248201527f5472616e7366657248656c7065723a3a73616665417070726f76653a2061707060448201526a1c9bdd994819985a5b195960aa1b60648201526084016109b6565b5050505050565b6000828152600460205260408120546001600160a01b039081169083161561203457612034818486612e31565b6001600160a01b0381161561207257612051600085600080612c85565b6001600160a01b038116600090815260056020526040902080546000190190555b6001600160a01b038516156120a1576001600160a01b0385166000908152600560205260409020805460010190555b60008481526004602052604080822080546001600160a01b0319166001600160a01b0389811691821790925591518793918516917fddf252ad1be2c89b69c2b068fc378daa952ba7f163c4a11628f55a4df523b3ef91a4949350505050565b60026008540361212357604051633ee5aeb560e01b815260040160405180910390fd5b6002600855565b60006121396000836000612007565b90506001600160a01b03811661092357604051637e27328960e01b8152600481018390526024016109b6565b60095460ff161561172e5760405163d93c066560e01b815260040160405180910390fd5b6000808a8a8a8a8a8a6040516020016121a796959493929190613900565b6040516020818303038152906040528051906020012090506000816040516020016121fe91907f19457468657265756d205369676e6564204d6573736167653a0a3332000000008152601c810191909152603c0190565b60408051601f198184030181528282528051602091820120600080855291840180845281905260ff88169284019290925260608301899052608083018890529092509060019060a0016020604051602081039080840390855afa158015612269573d6000803e3d6000fd5b5050604051601f1901519e9d5050505050505050505050505050565b604080516000808252602082019092526001600160a01b0384169083906040516122af9190613698565b60006040518083038185875af1925050503d80600081146122ec576040519150601f19603f3d011682016040523d82523d6000602084013e6122f1565b606091505b50509050806116be5760405162461bcd60e51b815260206004820152603460248201527f5472616e7366657248656c7065723a3a736166655472616e736665724554483a60448201527308115512081d1c985b9cd9995c8819985a5b195960621b60648201526084016109b6565b604080516001600160a01b0385811660248301528481166044830152606480830185905283518084039091018152608490920183526020820180516001600160e01b03166323b872dd60e01b17905291516000928392908816916123c39190613698565b6000604051808303816000865af19150503d8060008114612400576040519150601f19603f3d011682016040523d82523d6000602084013e612405565b606091505b509150915081801561242f57508051158061242f57508080602001905181019061242f91906138b0565b6124955760405162461bcd60e51b815260206004820152603160248201527f5472616e7366657248656c7065723a3a7472616e7366657246726f6d3a207472604482015270185b9cd9995c919c9bdb4819985a5b1959607a1b60648201526084016109b6565b505050505050565b60008060008060008060007f00000000000000000000000000000000000000000000000000000000000000006001600160a01b031663222a5df66040518163ffffffff1660e01b8152600401602060405180830381865afa158015612506573d6000803e3d6000fd5b505050506040513d601f19601f8201168201806040525081019061252a91906138b0565b905060005b8c5181101561291e5760106000015496508b818151811061255257612552613977565b602002602001015195508a818151811061256e5761256e613977565b602002602001015194508c818151811061258a5761258a613977565b602002602001015193508d81815181106125a6576125a6613977565b6020026020010151925060008a9050600083156126fb57604051636c18443d60e01b81526001600160a01b0387811660048301526000917f000000000000000000000000000000000000000000000000000000000000000090911690636c18443d90602401602060405180830381865afa158015612628573d6000803e3d6000fd5b505050506040513d601f19601f8201168201806040525081019061264c919061398d565b905061ffff8116156126f55760405163bbd9d8e160e01b815261ffff821660048201526000907f00000000000000000000000000000000000000000000000000000000000000006001600160a01b03169063bbd9d8e1906024016040805180830381865afa1580156126c2573d6000803e3d6000fd5b505050506040513d601f19601f820116820180604052508101906126e691906139b1565b915050806126f357600192505b505b506126ff565b5060015b8061274c5760405162461bcd60e51b815260206004820152601960248201527f556e6f52653a20756e617661696c61626c6520706f6c6963790000000000000060448201526064016109b6565b6040518060e00160405280428152602001888152602001898152602001876001600160a01b031681526020018c6001600160a01b0316815260200160011515815260200160001515815250601160008b815260200190815260200160002060008201518160000155602082015181600101556040820151816002015560608201518160030160006101000a8154816001600160a01b0302191690836001600160a01b0316021790555060808201518160040160006101000a8154816001600160a01b0302191690836001600160a01b0316021790555060a08201518160040160146101000a81548160ff02191690831515021790555060c08201518160040160156101000a81548160ff021916908315150217905550905050612876612870611e17565b8a611e73565b612880888b61364e565b995088856001600160a01b0316612895611e17565b6001600160a01b03167f15c2b464a5dd92b73eb56515f6c99c04fbeec68d56dda66903c8a136d53e27f18e8a8d8d896040516129019594939291906001600160a01b03958616815293909416602084015260408301919091526060820152608081019190915260a00190565b60405180910390a46129136010612e95565b50505060010161252f565b50861561298457600d546040516350498d7960e11b8152600481018990526001600160a01b039091169063a0931af290602401600060405180830381600087803b15801561296b57600080fd5b505af115801561297f573d6000803e3d6000fd5b505050505b50505050505050505050505050565b61299b612eb8565b6009805460ff191690557f5db9ee0a495bf2e6ff9c91a7834c1ba4fdd244a5e8aa4e537bd38aeae4b073aa335b6040516001600160a01b03909116815260200160405180910390a1565b6129ed612165565b6009805460ff191660011790557f62e78cea01bee320cd4e420270b5ea74000d11b0c9f74754ebdbfc544b05a2586129c83390565b6001600160a01b038216612a5457604051630b61174360e31b81526001600160a01b03831660048201526024016109b6565b6001600160a01b03838116600081815260076020908152604080832094871680845294825291829020805460ff191686151590811790915591519182527f17307eab39ab6107e8899845ad3d59bd9653f200f220920489ca2b5937696c31910160405180910390a3505050565b6001600160a01b0383163b1561105257604051630a85bd0160e11b81526001600160a01b0384169063150b7a0290612b039033908890879087906004016139e0565b6020604051808303816000875af1925050508015612b3e575060408051601f3d908101601f19168201909252612b3b91810190613a1d565b60015b612ba7573d808015612b6c576040519150601f19603f3d011682016040523d82523d6000602084013e612b71565b606091505b508051600003612b9f57604051633250574960e11b81526001600160a01b03851660048201526024016109b6565b805181602001fd5b6001600160e01b03198116630a85bd0160e11b1461200057604051633250574960e11b81526001600160a01b03851660048201526024016109b6565b6060600f805461086c906135fe565b60606000612bff83612edb565b600101905060008167ffffffffffffffff811115612c1f57612c1f613119565b6040519080825280601f01601f191660200182016040528015612c49576020820181803683370190505b5090508181016020015b600019016f181899199a1a9b1b9c1cb0b131b232b360811b600a86061a8153600a8504945084612c5357509392505050565b8080612c9957506001600160a01b03821615155b15612d5b576000612ca984611cda565b90506001600160a01b03831615801590612cd55750826001600160a01b0316816001600160a01b031614155b8015612ce85750612ce68184611bcd565b155b15612d115760405163a9fbf51f60e01b81526001600160a01b03841660048201526024016109b6565b8115612d595783856001600160a01b0316826001600160a01b03167f8c5be1e5ebec7d5bd14f71427d1e84f3dd0314c0f7b2291e5b200ac8c7c3b92560405160405180910390a45b505b5050600090815260066020526040902080546001600160a01b0319166001600160a01b0392909216919091179055565b6000604051806080016040528060438152602001613a3b6043913980516020918201208351848301516040808701518051908601209051612deb950193845260208401929092526001600160a01b03166040830152606082015260800190565b604051602081830303815290604052805190602001209050919050565b6000805460405161190160f01b6020820152602281019190915260428101839052606201612deb565b612e3c838383612fb3565b6116be576001600160a01b038316612e6a57604051637e27328960e01b8152600481018290526024016109b6565b60405163177e802f60e01b81526001600160a01b0383166004820152602481018290526044016109b6565b60006001826000016000828254612eac919061364e565b90915550509054919050565b60095460ff1661172e57604051638dfc202b60e01b815260040160405180910390fd5b60008072184f03e93ff9f4daa797ed6e38ed64bf6a1f0160401b8310612f1a5772184f03e93ff9f4daa797ed6e38ed64bf6a1f0160401b830492506040015b6d04ee2d6d415b85acef81000000008310612f46576d04ee2d6d415b85acef8100000000830492506020015b662386f26fc100008310612f6457662386f26fc10000830492506010015b6305f5e1008310612f7c576305f5e100830492506008015b6127108310612f9057612710830492506004015b60648310612fa2576064830492506002015b600a83106108575760010192915050565b60006001600160a01b038316158015906130115750826001600160a01b0316846001600160a01b03161480612fed5750612fed8484611bcd565b8061301157506000828152600660205260409020546001600160a01b038481169116145b949350505050565b6001600160e01b0319811681146111e257600080fd5b60006020828403121561304157600080fd5b8135611bc681613019565b60005b8381101561306757818101518382015260200161304f565b50506000910152565b6000815180845261308881602086016020860161304c565b601f01601f19169290920160200192915050565b602081526000611bc66020830184613070565b6000602082840312156130c157600080fd5b5035919050565b6001600160a01b03811681146111e257600080fd5b80356130e8816130c8565b919050565b6000806040838503121561310057600080fd5b823561310b816130c8565b946020939093013593505050565b634e487b7160e01b600052604160045260246000fd5b604051601f8201601f1916810167ffffffffffffffff8111828210171561315857613158613119565b604052919050565b600067ffffffffffffffff83111561317a5761317a613119565b61318d601f8401601f191660200161312f565b90508281528383830111156131a157600080fd5b828260208301376000602084830101529392505050565b600082601f8301126131c957600080fd5b611bc683833560208501613160565b803560ff811681146130e857600080fd5b600080600080600060a0868803121561320157600080fd5b853561320c816130c8565b9450602086013567ffffffffffffffff81111561322857600080fd5b613234888289016131b8565b9450506040860135925060608601359150613251608087016131d8565b90509295509295909350565b60006020828403121561326f57600080fd5b8135611bc6816130c8565b60008060006060848603121561328f57600080fd5b8335925060208401356132a1816130c8565b929592945050506040919091013590565b6000806000606084860312156132c757600080fd5b83356132d2816130c8565b925060208401356132a1816130c8565b600067ffffffffffffffff8211156132fc576132fc613119565b5060051b60200190565b600082601f83011261331757600080fd5b8135602061332c613327836132e2565b61312f565b8083825260208201915060208460051b87010193508684111561334e57600080fd5b602086015b84811015613373578035613366816130c8565b8352918301918301613353565b509695505050505050565b600082601f83011261338f57600080fd5b8135602061339f613327836132e2565b8083825260208201915060208460051b8701019350868411156133c157600080fd5b602086015b8481101561337357803583529183019183016133c6565b6000806000806000806000806000806101408b8d0312156133fd57600080fd5b8a3567ffffffffffffffff8082111561341557600080fd5b6134218e838f01613306565b9b5060208d013591508082111561343757600080fd5b6134438e838f01613306565b9a5060408d013591508082111561345957600080fd5b6134658e838f0161337e565b995060608d013591508082111561347b57600080fd5b506134888d828e0161337e565b97505060808b0135955060a08b013594506134a560c08c016130dd565b935060e08b013592506101008b013591506134c36101208c016131d8565b90509295989b9194979a5092959850565b6000602082840312156134e657600080fd5b813567ffffffffffffffff8111156134fd57600080fd5b8201601f8101841361350e57600080fd5b61301184823560208401613160565b80151581146111e257600080fd5b6000806040838503121561353e57600080fd5b8235613549816130c8565b915060208301356135598161351d565b809150509250929050565b6000806000806080858703121561357a57600080fd5b8435613585816130c8565b93506020850135613595816130c8565b925060408501359150606085013567ffffffffffffffff8111156135b857600080fd5b6135c4878288016131b8565b91505092959194509250565b600080604083850312156135e357600080fd5b82356135ee816130c8565b91506020830135613559816130c8565b600181811c9082168061361257607f821691505b60208210810361363257634e487b7160e01b600052602260045260246000fd5b50919050565b634e487b7160e01b600052601160045260246000fd5b8082018082111561085757610857613638565b6000835161367381846020880161304c565b60609390931b6bffffffffffffffffffffffff19169190920190815260140192915050565b600082516136aa81846020870161304c565b9190910192915050565b6001600160a01b038481168252831660208201526060604082018190526000906136e090830184613070565b95945050505050565b6020808252601c908201527f556e6f52653a2053616c6573506f6c69637920466f7262696464656e00000000604082015260600190565b602080825260139082015272556e6f52653a207a65726f206164647265737360681b604082015260600190565b8181038181111561085757610857613638565b60006020828403121561377257600080fd5b5051919050565b601f8211156116be576000816000526020600020601f850160051c810160208610156137a25750805b601f850160051c820191505b81811015612495578281556001016137ae565b815167ffffffffffffffff8111156137db576137db613119565b6137ef816137e984546135fe565b84613779565b602080601f831160018114613824576000841561380c5750858301515b600019600386901b1c1916600185901b178555612495565b600085815260208120601f198616915b8281101561385357888601518255948401946001909101908401613834565b50858210156138715787850151600019600388901b60f8161c191681555b5050505050600190811b01905550565b6000835161389381846020880161304c565b8351908301906138a781836020880161304c565b01949350505050565b6000602082840312156138c257600080fd5b8151611bc68161351d565b60008151602080840160005b838110156138f5578151875295820195908201906001016138d9565b509495945050505050565b86815260006020808301885160208a0160005b828110156139385781516001600160a01b031684529284019290840190600101613913565b50505061394e613948828a6138cd565b886138cd565b9586525050505060601b6bffffffffffffffffffffffff19166020820152603401949350505050565b634e487b7160e01b600052603260045260246000fd5b60006020828403121561399f57600080fd5b815161ffff81168114611bc657600080fd5b600080604083850312156139c457600080fd5b82516139cf816130c8565b60208401519092506135598161351d565b6001600160a01b0385811682528416602082015260408101839052608060608201819052600090613a1390830184613070565b9695505050505050565b600060208284031215613a2f57600080fd5b8151611bc68161301956fe4d6574615472616e73616374696f6e2875696e74323536206e6f6e63652c616464726573732066726f6d2c62797465732066756e6374696f6e5369676e617475726529a2646970667358221220e744472d21b783e5dfb6f52df89d76fe14ad1226ea5734682051c30a3b3fe91f64736f6c63430008170033454950373132446f6d61696e28737472696e67206e616d652c737472696e672076657273696f6e2c6164647265737320766572696679696e67436f6e74726163742c627974657333322073616c7429a26469706673582212207d1806669706417c6bbe75ba00992ce5de4dbc57aaa8c97b7d51916fde53bb9364736f6c63430008170033",
  "devdoc": {
    "errors": {
      "OwnableInvalidOwner(address)": [
        {
          "details": "The owner is not a valid owner account. (eg. `address(0)`)"
        }
      ],
      "OwnableUnauthorizedAccount(address)": [
        {
          "details": "The caller account is not authorized to perform an operation."
        }
      ],
      "ReentrancyGuardReentrantCall()": [
        {
          "details": "Unauthorized reentrant call."
        }
      ]
    },
    "kind": "dev",
    "methods": {
      "owner()": {
        "details": "Returns the address of the current owner."
      },
      "renounceOwnership()": {
        "details": "Leaves the contract without owner. It will not be possible to call `onlyOwner` functions. Can only be called by the current owner. NOTE: Renouncing ownership will leave the contract without an owner, thereby disabling any functionality that is only available to the owner."
      },
      "transferOwnership(address)": {
        "details": "Transfers ownership of the contract to a new account (`newOwner`). Can only be called by the current owner."
      }
    },
    "version": 1
  },
  "userdoc": {
    "kind": "user",
    "methods": {},
    "version": 1
  },
  "storageLayout": {
    "storage": [
      {
        "astId": 3857,
        "contract": "contracts/Mocks/MockSalesPolicyFactory.sol:MockSalesPolicyFactory",
        "label": "_status",
        "offset": 0,
        "slot": "0",
        "type": "t_uint256"
      },
      {
        "astId": 1387,
        "contract": "contracts/Mocks/MockSalesPolicyFactory.sol:MockSalesPolicyFactory",
        "label": "_owner",
        "offset": 0,
        "slot": "1",
        "type": "t_address"
      },
      {
        "astId": 9367,
        "contract": "contracts/Mocks/MockSalesPolicyFactory.sol:MockSalesPolicyFactory",
        "label": "checkIfProtocolInWhitelistArray",
        "offset": 20,
        "slot": "1",
        "type": "t_bool"
      },
      {
        "astId": 9369,
        "contract": "contracts/Mocks/MockSalesPolicyFactory.sol:MockSalesPolicyFactory",
        "label": "premiumPool",
        "offset": 0,
        "slot": "2",
        "type": "t_address"
      },
      {
        "astId": 9371,
        "contract": "contracts/Mocks/MockSalesPolicyFactory.sol:MockSalesPolicyFactory",
        "label": "exchangeAgent",
        "offset": 0,
        "slot": "3",
        "type": "t_address"
      },
      {
        "astId": 9373,
        "contract": "contracts/Mocks/MockSalesPolicyFactory.sol:MockSalesPolicyFactory",
        "label": "capitalAgent",
        "offset": 0,
        "slot": "4",
        "type": "t_address"
      },
      {
        "astId": 9375,
        "contract": "contracts/Mocks/MockSalesPolicyFactory.sol:MockSalesPolicyFactory",
        "label": "salesPolicy",
        "offset": 0,
        "slot": "5",
        "type": "t_address"
      },
      {
        "astId": 9380,
        "contract": "contracts/Mocks/MockSalesPolicyFactory.sol:MockSalesPolicyFactory",
        "label": "getProtocol",
        "offset": 0,
        "slot": "6",
        "type": "t_mapping(t_uint16,t_struct(Protocol)9364_storage)"
      },
      {
        "astId": 9385,
        "contract": "contracts/Mocks/MockSalesPolicyFactory.sol:MockSalesPolicyFactory",
        "label": "getProtocolId",
        "offset": 0,
        "slot": "7",
        "type": "t_mapping(t_address,t_uint16)"
      },
      {
        "astId": 9388,
        "contract": "contracts/Mocks/MockSalesPolicyFactory.sol:MockSalesPolicyFactory",
        "label": "protocolIds",
        "offset": 0,
        "slot": "8",
        "type": "t_struct(Counter)24735_storage"
      },
      {
        "astId": 9390,
        "contract": "contracts/Mocks/MockSalesPolicyFactory.sol:MockSalesPolicyFactory",
        "label": "USDC_TOKEN",
        "offset": 0,
        "slot": "9",
        "type": "t_address"
      }
    ],
    "types": {
      "t_address": {
        "encoding": "inplace",
        "label": "address",
        "numberOfBytes": "20"
      },
      "t_bool": {
        "encoding": "inplace",
        "label": "bool",
        "numberOfBytes": "1"
      },
      "t_mapping(t_address,t_uint16)": {
        "encoding": "mapping",
        "key": "t_address",
        "label": "mapping(address => uint16)",
        "numberOfBytes": "32",
        "value": "t_uint16"
      },
      "t_mapping(t_uint16,t_struct(Protocol)9364_storage)": {
        "encoding": "mapping",
        "key": "t_uint16",
        "label": "mapping(uint16 => struct MockSalesPolicyFactory.Protocol)",
        "numberOfBytes": "32",
        "value": "t_struct(Protocol)9364_storage"
      },
      "t_struct(Counter)24735_storage": {
        "encoding": "inplace",
        "label": "struct Counters.Counter",
        "members": [
          {
            "astId": 24734,
            "contract": "contracts/Mocks/MockSalesPolicyFactory.sol:MockSalesPolicyFactory",
            "label": "current",
            "offset": 0,
            "slot": "0",
            "type": "t_uint256"
          }
        ],
        "numberOfBytes": "32"
      },
      "t_struct(Protocol)9364_storage": {
        "encoding": "inplace",
        "label": "struct MockSalesPolicyFactory.Protocol",
        "members": [
          {
            "astId": 9361,
            "contract": "contracts/Mocks/MockSalesPolicyFactory.sol:MockSalesPolicyFactory",
            "label": "protocolAddress",
            "offset": 0,
            "slot": "0",
            "type": "t_address"
          },
          {
            "astId": 9363,
            "contract": "contracts/Mocks/MockSalesPolicyFactory.sol:MockSalesPolicyFactory",
            "label": "isBlackList",
            "offset": 20,
            "slot": "0",
            "type": "t_bool"
          }
        ],
        "numberOfBytes": "32"
      },
      "t_uint16": {
        "encoding": "inplace",
        "label": "uint16",
        "numberOfBytes": "2"
      },
      "t_uint256": {
        "encoding": "inplace",
        "label": "uint256",
        "numberOfBytes": "32"
      }
    }
  }
}