{
  "address": "0xeC1FD1B0969c3B2d1e4302c31e82ECe0C2601412",
  "abi": [
    {
      "inputs": [
        {
          "internalType": "address[]",
          "name": "_signers",
          "type": "address[]"
        },
        {
          "internalType": "uint256",
          "name": "_numConfirmationsRequired",
          "type": "uint256"
        }
      ],
      "stateMutability": "nonpayable",
      "type": "constructor"
    },
    {
      "inputs": [],
      "name": "ReentrancyGuardReentrantCall",
      "type": "error"
    },
    {
      "anonymous": false,
      "inputs": [
        {
          "indexed": true,
          "internalType": "address",
          "name": "signer",
          "type": "address"
        },
        {
          "indexed": true,
          "internalType": "uint256",
          "name": "txIndex",
          "type": "uint256"
        }
      ],
      "name": "ConfirmTransaction",
      "type": "event"
    },
    {
      "anonymous": false,
      "inputs": [
        {
          "indexed": true,
          "internalType": "address",
          "name": "sender",
          "type": "address"
        },
        {
          "indexed": false,
          "internalType": "uint256",
          "name": "amount",
          "type": "uint256"
        },
        {
          "indexed": false,
          "internalType": "uint256",
          "name": "balance",
          "type": "uint256"
        }
      ],
      "name": "Deposit",
      "type": "event"
    },
    {
      "anonymous": false,
      "inputs": [
        {
          "indexed": true,
          "internalType": "address",
          "name": "signer",
          "type": "address"
        },
        {
          "indexed": true,
          "internalType": "uint256",
          "name": "txIndex",
          "type": "uint256"
        }
      ],
      "name": "ExecuteTransaction",
      "type": "event"
    },
    {
      "anonymous": false,
      "inputs": [
        {
          "indexed": true,
          "internalType": "address",
          "name": "signer",
          "type": "address"
        },
        {
          "indexed": true,
          "internalType": "uint256",
          "name": "txIndex",
          "type": "uint256"
        }
      ],
      "name": "RevokeConfirmation",
      "type": "event"
    },
    {
      "anonymous": false,
      "inputs": [
        {
          "indexed": true,
          "internalType": "address",
          "name": "signer",
          "type": "address"
        },
        {
          "indexed": true,
          "internalType": "uint256",
          "name": "txIndex",
          "type": "uint256"
        },
        {
          "indexed": true,
          "internalType": "address",
          "name": "to",
          "type": "address"
        },
        {
          "indexed": false,
          "internalType": "uint256",
          "name": "value",
          "type": "uint256"
        },
        {
          "indexed": false,
          "internalType": "bytes",
          "name": "data",
          "type": "bytes"
        }
      ],
      "name": "SubmitTransaction",
      "type": "event"
    },
    {
      "inputs": [
        {
          "internalType": "uint256",
          "name": "_txIndex",
          "type": "uint256"
        },
        {
          "internalType": "bool",
          "name": "_execute",
          "type": "bool"
        }
      ],
      "name": "confirmTransaction",
      "outputs": [],
      "stateMutability": "nonpayable",
      "type": "function"
    },
    {
      "inputs": [
        {
          "internalType": "uint256",
          "name": "_txIndex",
          "type": "uint256"
        }
      ],
      "name": "executeTransaction",
      "outputs": [],
      "stateMutability": "nonpayable",
      "type": "function"
    },
    {
      "inputs": [],
      "name": "getOwners",
      "outputs": [
        {
          "internalType": "address[]",
          "name": "",
          "type": "address[]"
        }
      ],
      "stateMutability": "view",
      "type": "function"
    },
    {
      "inputs": [],
      "name": "getSigners",
      "outputs": [
        {
          "internalType": "address[]",
          "name": "",
          "type": "address[]"
        }
      ],
      "stateMutability": "view",
      "type": "function"
    },
    {
      "inputs": [],
      "name": "getThreshold",
      "outputs": [
        {
          "internalType": "uint256",
          "name": "",
          "type": "uint256"
        }
      ],
      "stateMutability": "view",
      "type": "function"
    },
    {
      "inputs": [
        {
          "internalType": "uint256",
          "name": "_txIndex",
          "type": "uint256"
        }
      ],
      "name": "getTransaction",
      "outputs": [
        {
          "internalType": "address",
          "name": "to",
          "type": "address"
        },
        {
          "internalType": "uint256",
          "name": "value",
          "type": "uint256"
        },
        {
          "internalType": "bytes",
          "name": "data",
          "type": "bytes"
        },
        {
          "internalType": "bool",
          "name": "executed",
          "type": "bool"
        },
        {
          "internalType": "uint256",
          "name": "numConfirmations",
          "type": "uint256"
        }
      ],
      "stateMutability": "view",
      "type": "function"
    },
    {
      "inputs": [],
      "name": "getTransactionCount",
      "outputs": [
        {
          "internalType": "uint256",
          "name": "",
          "type": "uint256"
        }
      ],
      "stateMutability": "view",
      "type": "function"
    },
    {
      "inputs": [
        {
          "internalType": "uint256",
          "name": "",
          "type": "uint256"
        },
        {
          "internalType": "address",
          "name": "",
          "type": "address"
        }
      ],
      "name": "isConfirmed",
      "outputs": [
        {
          "internalType": "bool",
          "name": "",
          "type": "bool"
        }
      ],
      "stateMutability": "view",
      "type": "function"
    },
    {
      "inputs": [
        {
          "internalType": "address",
          "name": "",
          "type": "address"
        }
      ],
      "name": "isSigner",
      "outputs": [
        {
          "internalType": "bool",
          "name": "",
          "type": "bool"
        }
      ],
      "stateMutability": "view",
      "type": "function"
    },
    {
      "inputs": [],
      "name": "numConfirmationsRequired",
      "outputs": [
        {
          "internalType": "uint256",
          "name": "",
          "type": "uint256"
        }
      ],
      "stateMutability": "view",
      "type": "function"
    },
    {
      "inputs": [
        {
          "internalType": "uint256",
          "name": "_txIndex",
          "type": "uint256"
        }
      ],
      "name": "revokeConfirmation",
      "outputs": [],
      "stateMutability": "nonpayable",
      "type": "function"
    },
    {
      "inputs": [
        {
          "internalType": "uint256",
          "name": "",
          "type": "uint256"
        }
      ],
      "name": "signers",
      "outputs": [
        {
          "internalType": "address",
          "name": "",
          "type": "address"
        }
      ],
      "stateMutability": "view",
      "type": "function"
    },
    {
      "inputs": [
        {
          "internalType": "address",
          "name": "_to",
          "type": "address"
        },
        {
          "internalType": "uint256",
          "name": "_value",
          "type": "uint256"
        },
        {
          "internalType": "bytes",
          "name": "_data",
          "type": "bytes"
        }
      ],
      "name": "submitTransaction",
      "outputs": [],
      "stateMutability": "payable",
      "type": "function"
    },
    {
      "stateMutability": "payable",
      "type": "receive"
    }
  ],
  "transactionHash": "0x61742b8f91b9f53cb3c20725588d2633c7ea5bd5f027c38197cee5b97c846560",
  "args": [
    [
      "0x5569BDF4e02cec3fE459796e3d0e741616029fA4",
      "0x8CB75ae7a37f20cC73d74eb01b8D9BE81ebe4043",
      "0x378C4B07Ac325E7e19d19fAb10ef523e35d4dd18",
      "0xBeF2C0415CC95b57a6e96cEE05804c8259601a2f",
      "0x7EF5A63908aF1104151F0aE7Af59fA3D691e946c"
    ],
    2
  ],
  "numDeployments": 1,
  "solcInputHash": "cf6b6fefd10a05e0011cf18559940c22",
  "bytecode": "0x60806040523480156200001157600080fd5b50604051620015eb380380620015eb83398101604081905262000034916200027e565b60016000558151620000805760405162461bcd60e51b815260206004820152601060248201526f1cda59db995c9cc81c995c5d5a5c995960821b60448201526064015b60405180910390fd5b60008111801562000092575081518111155b620000f15760405162461bcd60e51b815260206004820152602860248201527f696e76616c6964206e756d626572206f6620726571756972656420636f6e6669604482015267726d6174696f6e7360c01b606482015260840162000077565b60005b82518110156200024057600083828151811062000115576200011562000358565b6020026020010151905060006001600160a01b0316816001600160a01b031603620001745760405162461bcd60e51b815260206004820152600e60248201526d34b73b30b634b21039b4b3b732b960911b604482015260640162000077565b6001600160a01b03811660009081526002602052604090205460ff1615620001d35760405162461bcd60e51b81526020600482015260116024820152707369676e6572206e6f7420756e6971756560781b604482015260640162000077565b6001600160a01b03166000818152600260205260408120805460ff1916600190811790915580548082018255918190527fb10e2d527612073b26eecdfd717e6a320cf44b4afac2b0732d9fcbe2b7fa0cf690910180546001600160a01b03191690921790915501620000f4565b50600355506200036e565b634e487b7160e01b600052604160045260246000fd5b80516001600160a01b03811681146200027957600080fd5b919050565b600080604083850312156200029257600080fd5b82516001600160401b0380821115620002aa57600080fd5b818501915085601f830112620002bf57600080fd5b8151602082821115620002d657620002d66200024b565b8160051b604051601f19603f83011681018181108682111715620002fe57620002fe6200024b565b6040529283528183019350848101820192898411156200031d57600080fd5b948201945b838610156200034657620003368662000261565b8552948201949382019362000322565b97909101519698969750505050505050565b634e487b7160e01b600052603260045260246000fd5b61126d806200037e6000396000f3fe6080604052600436106100d65760003560e01c806394cf795e1161007f578063c6a725d811610059578063c6a725d81461027b578063d0549b851461029b578063e75235b8146102b1578063ee22610b146102c657600080fd5b806394cf795e14610246578063a0e67e2b14610246578063c64274741461026857600080fd5b806333ea3dc8116100b057806333ea3dc81461019a5780637df73e27146101cb57806380f59a651461020b57600080fd5b80632079fb9a1461011c57806320ea8d86146101595780632e7700f01461017b57600080fd5b36610117576040805134815247602082015233917f90890809c654f11d6e72a28fa60149770a0d11ec6c92319d6ceb2bb0a4ea1a15910160405180910390a2005b600080fd5b34801561012857600080fd5b5061013c610137366004610d9e565b6102e6565b6040516001600160a01b0390911681526020015b60405180910390f35b34801561016557600080fd5b50610179610174366004610d9e565b610310565b005b34801561018757600080fd5b506005545b604051908152602001610150565b3480156101a657600080fd5b506101ba6101b5366004610d9e565b610534565b604051610150959493929190610dfd565b3480156101d757600080fd5b506101fb6101e6366004610e55565b60026020526000908152604090205460ff1681565b6040519015158152602001610150565b34801561021757600080fd5b506101fb610226366004610e77565b600460209081526000928352604080842090915290825290205460ff1681565b34801561025257600080fd5b5061025b61062f565b6040516101509190610ea3565b610179610276366004610f06565b610691565b34801561028757600080fd5b50610179610296366004610fd1565b6108bb565b3480156102a757600080fd5b5061018c60035481565b3480156102bd57600080fd5b5060035461018c565b3480156102d257600080fd5b506101796102e1366004610d9e565b610b0b565b600181815481106102f657600080fd5b6000918252602090912001546001600160a01b0316905081565b3360009081526002602052604090205460ff166103745760405162461bcd60e51b815260206004820152600a60248201527f6e6f74207369676e65720000000000000000000000000000000000000000000060448201526064015b60405180910390fd5b600554819081106103c75760405162461bcd60e51b815260206004820152601160248201527f747820646f6573206e6f74206578697374000000000000000000000000000000604482015260640161036b565b81600581815481106103db576103db611006565b600091825260209091206003600590920201015460ff161561043f5760405162461bcd60e51b815260206004820152601360248201527f747820616c726561647920657865637574656400000000000000000000000000604482015260640161036b565b60006005848154811061045457610454611006565b600091825260208083208784526004825260408085203386529092529220546005909102909101915060ff166104cc5760405162461bcd60e51b815260206004820152601060248201527f7478206e6f7420636f6e6669726d656400000000000000000000000000000000604482015260640161036b565b60018160040160008282546104e19190611032565b90915550506000848152600460209081526040808320338085529252808320805460ff191690555186927ff0dca620e2e81f7841d07bcc105e1704fb01475b278a9d4c236e1c62945edd5591a350505050565b600080606060008060006005878154811061055157610551611006565b6000918252602090912060059091020180546001820154600383015460048401546002850180549596506001600160a01b039094169492939260ff90921691839061059b9061104b565b80601f01602080910402602001604051908101604052809291908181526020018280546105c79061104b565b80156106145780601f106105e957610100808354040283529160200191610614565b820191906000526020600020905b8154815290600101906020018083116105f757829003601f168201915b50505050509250955095509550955095505091939590929450565b6060600180548060200260200160405190810160405280929190818152602001828054801561068757602002820191906000526020600020905b81546001600160a01b03168152600190910190602001808311610669575b5050505050905090565b3360009081526002602052604090205460ff166106f05760405162461bcd60e51b815260206004820152600a60248201527f6e6f74207369676e657200000000000000000000000000000000000000000000604482015260640161036b565b6106f8610b17565b811561074d5781341461074d5760405162461bcd60e51b815260206004820152601160248201527f53686f756c642073656e642076616c7565000000000000000000000000000000604482015260640161036b565b600580546040805160a0810182526001600160a01b038781168252602082018781529282018681526000606084018190526080840181905260018601875586905282517f036b6384b5eca791c62761152d0c79bb0604c104a5fb6f4eb0703f3154bb3db096860296870180547fffffffffffffffffffffffff0000000000000000000000000000000000000000169190931617825592517f036b6384b5eca791c62761152d0c79bb0604c104a5fb6f4eb0703f3154bb3db18601559151929390927f036b6384b5eca791c62761152d0c79bb0604c104a5fb6f4eb0703f3154bb3db29091019061083d90826110cd565b50606082015160038201805460ff19169115159190911790556080909101516004909101556040516001600160a01b03851690829033907fd5a05bf70715ad82a09a756320284a1b54c9ff74cd0f8cce6219e79b563fe59d906108a3908890889061118d565b60405180910390a4506108b66001600055565b505050565b3360009081526002602052604090205460ff1661091a5760405162461bcd60e51b815260206004820152600a60248201527f6e6f74207369676e657200000000000000000000000000000000000000000000604482015260640161036b565b6005548290811061096d5760405162461bcd60e51b815260206004820152601160248201527f747820646f6573206e6f74206578697374000000000000000000000000000000604482015260640161036b565b826005818154811061098157610981611006565b600091825260209091206003600590920201015460ff16156109e55760405162461bcd60e51b815260206004820152601360248201527f747820616c726561647920657865637574656400000000000000000000000000604482015260640161036b565b6000848152600460209081526040808320338452909152902054849060ff1615610a515760405162461bcd60e51b815260206004820152601460248201527f747820616c726561647920636f6e6669726d6564000000000000000000000000604482015260640161036b565b600060058681548110610a6657610a66611006565b6000918252602080832089845260048083526040808620338752909352918420805460ff191660019081179091556005909302019081018054919450919290610ab09084906111ae565b9091555050604051869033907f5cbe105e36805f7820e291f799d5794ff948af2a5f664e580382defb6339004190600090a3600354816004015410158015610af55750845b15610b0357610b0386610b5a565b505050505050565b610b1481610b5a565b50565b600260005403610b53576040517f3ee5aeb500000000000000000000000000000000000000000000000000000000815260040160405180910390fd5b6002600055565b60055481908110610bad5760405162461bcd60e51b815260206004820152601160248201527f747820646f6573206e6f74206578697374000000000000000000000000000000604482015260640161036b565b8160058181548110610bc157610bc1611006565b600091825260209091206003600590920201015460ff1615610c255760405162461bcd60e51b815260206004820152601360248201527f747820616c726561647920657865637574656400000000000000000000000000604482015260640161036b565b600060058481548110610c3a57610c3a611006565b9060005260206000209060050201905060035481600401541015610ca05760405162461bcd60e51b815260206004820152601160248201527f63616e6e6f742065786563757465207478000000000000000000000000000000604482015260640161036b565b60038101805460ff191660019081179091558154908201546040516000926001600160a01b03169190610cd79060028601906111c1565b60006040518083038185875af1925050503d8060008114610d14576040519150601f19603f3d011682016040523d82523d6000602084013e610d19565b606091505b5050905080610d6a5760405162461bcd60e51b815260206004820152600960248201527f7478206661696c65640000000000000000000000000000000000000000000000604482015260640161036b565b604051859033907f5445f318f4f5fcfb66592e68e0cc5822aa15664039bd5f0ffde24c5a8142b1ac90600090a35050505050565b600060208284031215610db057600080fd5b5035919050565b6000815180845260005b81811015610ddd57602081850181015186830182015201610dc1565b506000602082860101526020601f19601f83011685010191505092915050565b6001600160a01b038616815284602082015260a060408201526000610e2560a0830186610db7565b931515606083015250608001529392505050565b80356001600160a01b0381168114610e5057600080fd5b919050565b600060208284031215610e6757600080fd5b610e7082610e39565b9392505050565b60008060408385031215610e8a57600080fd5b82359150610e9a60208401610e39565b90509250929050565b6020808252825182820181905260009190848201906040850190845b81811015610ee45783516001600160a01b031683529284019291840191600101610ebf565b50909695505050505050565b634e487b7160e01b600052604160045260246000fd5b600080600060608486031215610f1b57600080fd5b610f2484610e39565b925060208401359150604084013567ffffffffffffffff80821115610f4857600080fd5b818601915086601f830112610f5c57600080fd5b813581811115610f6e57610f6e610ef0565b604051601f8201601f19908116603f01168101908382118183101715610f9657610f96610ef0565b81604052828152896020848701011115610faf57600080fd5b8260208601602083013760006020848301015280955050505050509250925092565b60008060408385031215610fe457600080fd5b8235915060208301358015158114610ffb57600080fd5b809150509250929050565b634e487b7160e01b600052603260045260246000fd5b634e487b7160e01b600052601160045260246000fd5b818103818111156110455761104561101c565b92915050565b600181811c9082168061105f57607f821691505b60208210810361107f57634e487b7160e01b600052602260045260246000fd5b50919050565b601f8211156108b6576000816000526020600020601f850160051c810160208610156110ae5750805b601f850160051c820191505b81811015610b03578281556001016110ba565b815167ffffffffffffffff8111156110e7576110e7610ef0565b6110fb816110f5845461104b565b84611085565b602080601f83116001811461113057600084156111185750858301515b600019600386901b1c1916600185901b178555610b03565b600085815260208120601f198616915b8281101561115f57888601518255948401946001909101908401611140565b508582101561117d5787850151600019600388901b60f8161c191681555b5050505050600190811b01905550565b8281526040602082015260006111a66040830184610db7565b949350505050565b808201808211156110455761104561101c565b60008083546111cf8161104b565b600182811680156111e757600181146111fc5761122b565b60ff198416875282151583028701945061122b565b8760005260208060002060005b858110156112225781548a820152908401908201611209565b50505082870194505b5092969550505050505056fea264697066735822122072c03606a286a60bcdc82eb2e1820974d323c5fa2dc5c86871b942f0a5eac9b164736f6c63430008170033",
  "devdoc": {
    "errors": {
      "ReentrancyGuardReentrantCall()": [
        {
          "details": "Unauthorized reentrant call."
        }
      ]
    },
    "kind": "dev",
    "methods": {
      "executeTransaction(uint256)": {
        "details": "We did not add onlySigner modifier here, because we want to allow any community member to execute transaction which had got at least minimum number of confirmations"
      },
      "submitTransaction(address,uint256,bytes)": {
        "details": "when buying is failed, agent should send loan again to TribeOne."
      }
    },
    "version": 1
  },
  "userdoc": {
    "kind": "user",
    "methods": {},
    "version": 1
  },
  "storageLayout": {
    "storage": [
      {
        "astId": 4199,
        "contract": "contracts/libraries/MultiSigWallet.sol:MultiSigWallet",
        "label": "_status",
        "offset": 0,
        "slot": "0",
        "type": "t_uint256"
      },
      {
        "astId": 27629,
        "contract": "contracts/libraries/MultiSigWallet.sol:MultiSigWallet",
        "label": "signers",
        "offset": 0,
        "slot": "1",
        "type": "t_array(t_address)dyn_storage"
      },
      {
        "astId": 27633,
        "contract": "contracts/libraries/MultiSigWallet.sol:MultiSigWallet",
        "label": "isSigner",
        "offset": 0,
        "slot": "2",
        "type": "t_mapping(t_address,t_bool)"
      },
      {
        "astId": 27635,
        "contract": "contracts/libraries/MultiSigWallet.sol:MultiSigWallet",
        "label": "numConfirmationsRequired",
        "offset": 0,
        "slot": "3",
        "type": "t_uint256"
      },
      {
        "astId": 27652,
        "contract": "contracts/libraries/MultiSigWallet.sol:MultiSigWallet",
        "label": "isConfirmed",
        "offset": 0,
        "slot": "4",
        "type": "t_mapping(t_uint256,t_mapping(t_address,t_bool))"
      },
      {
        "astId": 27656,
        "contract": "contracts/libraries/MultiSigWallet.sol:MultiSigWallet",
        "label": "transactions",
        "offset": 0,
        "slot": "5",
        "type": "t_array(t_struct(Transaction)27646_storage)dyn_storage"
      }
    ],
    "types": {
      "t_address": {
        "encoding": "inplace",
        "label": "address",
        "numberOfBytes": "20"
      },
      "t_array(t_address)dyn_storage": {
        "base": "t_address",
        "encoding": "dynamic_array",
        "label": "address[]",
        "numberOfBytes": "32"
      },
      "t_array(t_struct(Transaction)27646_storage)dyn_storage": {
        "base": "t_struct(Transaction)27646_storage",
        "encoding": "dynamic_array",
        "label": "struct MultiSigWallet.Transaction[]",
        "numberOfBytes": "32"
      },
      "t_bool": {
        "encoding": "inplace",
        "label": "bool",
        "numberOfBytes": "1"
      },
      "t_bytes_storage": {
        "encoding": "bytes",
        "label": "bytes",
        "numberOfBytes": "32"
      },
      "t_mapping(t_address,t_bool)": {
        "encoding": "mapping",
        "key": "t_address",
        "label": "mapping(address => bool)",
        "numberOfBytes": "32",
        "value": "t_bool"
      },
      "t_mapping(t_uint256,t_mapping(t_address,t_bool))": {
        "encoding": "mapping",
        "key": "t_uint256",
        "label": "mapping(uint256 => mapping(address => bool))",
        "numberOfBytes": "32",
        "value": "t_mapping(t_address,t_bool)"
      },
      "t_struct(Transaction)27646_storage": {
        "encoding": "inplace",
        "label": "struct MultiSigWallet.Transaction",
        "members": [
          {
            "astId": 27637,
            "contract": "contracts/libraries/MultiSigWallet.sol:MultiSigWallet",
            "label": "to",
            "offset": 0,
            "slot": "0",
            "type": "t_address"
          },
          {
            "astId": 27639,
            "contract": "contracts/libraries/MultiSigWallet.sol:MultiSigWallet",
            "label": "value",
            "offset": 0,
            "slot": "1",
            "type": "t_uint256"
          },
          {
            "astId": 27641,
            "contract": "contracts/libraries/MultiSigWallet.sol:MultiSigWallet",
            "label": "data",
            "offset": 0,
            "slot": "2",
            "type": "t_bytes_storage"
          },
          {
            "astId": 27643,
            "contract": "contracts/libraries/MultiSigWallet.sol:MultiSigWallet",
            "label": "executed",
            "offset": 0,
            "slot": "3",
            "type": "t_bool"
          },
          {
            "astId": 27645,
            "contract": "contracts/libraries/MultiSigWallet.sol:MultiSigWallet",
            "label": "numConfirmations",
            "offset": 0,
            "slot": "4",
            "type": "t_uint256"
          }
        ],
        "numberOfBytes": "160"
      },
      "t_uint256": {
        "encoding": "inplace",
        "label": "uint256",
        "numberOfBytes": "32"
      }
    }
  }
}