{
  "address": "0x12091D6739454A10c42b6Fea9A52D97B48D9e9F4",
  "abi": [
    {
      "inputs": [],
      "name": "EnforcedPause",
      "type": "error"
    },
    {
      "inputs": [],
      "name": "ExpectedPause",
      "type": "error"
    },
    {
      "inputs": [],
      "name": "InvalidInitialization",
      "type": "error"
    },
    {
      "inputs": [],
      "name": "NotInitializing",
      "type": "error"
    },
    {
      "anonymous": false,
      "inputs": [
        {
          "indexed": false,
          "internalType": "uint64",
          "name": "version",
          "type": "uint64"
        }
      ],
      "name": "Initialized",
      "type": "event"
    },
    {
      "anonymous": false,
      "inputs": [
        {
          "indexed": true,
          "internalType": "uint256",
          "name": "policyId",
          "type": "uint256"
        },
        {
          "indexed": true,
          "internalType": "bytes32",
          "name": "assertionId",
          "type": "bytes32"
        }
      ],
      "name": "InsurancePayoutRequested",
      "type": "event"
    },
    {
      "anonymous": false,
      "inputs": [
        {
          "indexed": true,
          "internalType": "address",
          "name": "payout",
          "type": "address"
        },
        {
          "indexed": false,
          "internalType": "uint256",
          "name": "assertionAliveTime",
          "type": "uint256"
        }
      ],
      "name": "LogSetAssertionAliveTime",
      "type": "event"
    },
    {
      "anonymous": false,
      "inputs": [
        {
          "indexed": true,
          "internalType": "address",
          "name": "payout",
          "type": "address"
        },
        {
          "indexed": true,
          "internalType": "address",
          "name": "capitalAgent",
          "type": "address"
        }
      ],
      "name": "LogSetCapitalAgent",
      "type": "event"
    },
    {
      "anonymous": false,
      "inputs": [
        {
          "indexed": true,
          "internalType": "address",
          "name": "payout",
          "type": "address"
        },
        {
          "indexed": true,
          "internalType": "address",
          "name": "claimProccessor",
          "type": "address"
        }
      ],
      "name": "LogSetClaimProccessor",
      "type": "event"
    },
    {
      "anonymous": false,
      "inputs": [
        {
          "indexed": true,
          "internalType": "address",
          "name": "payout",
          "type": "address"
        },
        {
          "indexed": true,
          "internalType": "address",
          "name": "escalatingManager",
          "type": "address"
        }
      ],
      "name": "LogSetEscalationManager",
      "type": "event"
    },
    {
      "anonymous": false,
      "inputs": [
        {
          "indexed": false,
          "internalType": "address",
          "name": "account",
          "type": "address"
        }
      ],
      "name": "Paused",
      "type": "event"
    },
    {
      "anonymous": false,
      "inputs": [
        {
          "indexed": true,
          "internalType": "address",
          "name": "owner",
          "type": "address"
        },
        {
          "indexed": false,
          "internalType": "bool",
          "name": "fail",
          "type": "bool"
        }
      ],
      "name": "PoolFailed",
      "type": "event"
    },
    {
      "anonymous": false,
      "inputs": [
        {
          "indexed": false,
          "internalType": "address",
          "name": "account",
          "type": "address"
        }
      ],
      "name": "Unpaused",
      "type": "event"
    },
    {
      "inputs": [
        {
          "internalType": "bytes32",
          "name": "",
          "type": "bytes32"
        }
      ],
      "name": "assertedPolicies",
      "outputs": [
        {
          "internalType": "uint256",
          "name": "",
          "type": "uint256"
        }
      ],
      "stateMutability": "view",
      "type": "function"
    },
    {
      "inputs": [
        {
          "internalType": "bytes32",
          "name": "assertionId",
          "type": "bytes32"
        }
      ],
      "name": "assertionDisputedCallback",
      "outputs": [],
      "stateMutability": "nonpayable",
      "type": "function"
    },
    {
      "inputs": [
        {
          "internalType": "bytes32",
          "name": "_assertionId",
          "type": "bytes32"
        },
        {
          "internalType": "bool",
          "name": "_assertedTruthfully",
          "type": "bool"
        }
      ],
      "name": "assertionResolvedCallback",
      "outputs": [],
      "stateMutability": "nonpayable",
      "type": "function"
    },
    {
      "inputs": [],
      "name": "assertionliveTime",
      "outputs": [
        {
          "internalType": "uint256",
          "name": "",
          "type": "uint256"
        }
      ],
      "stateMutability": "view",
      "type": "function"
    },
    {
      "inputs": [],
      "name": "capitalAgent",
      "outputs": [
        {
          "internalType": "contract ICapitalAgent",
          "name": "",
          "type": "address"
        }
      ],
      "stateMutability": "view",
      "type": "function"
    },
    {
      "inputs": [],
      "name": "claimsDao",
      "outputs": [
        {
          "internalType": "address",
          "name": "",
          "type": "address"
        }
      ],
      "stateMutability": "view",
      "type": "function"
    },
    {
      "inputs": [],
      "name": "defaultCurrency",
      "outputs": [
        {
          "internalType": "contract IERC20",
          "name": "",
          "type": "address"
        }
      ],
      "stateMutability": "view",
      "type": "function"
    },
    {
      "inputs": [],
      "name": "defaultIdentifier",
      "outputs": [
        {
          "internalType": "bytes32",
          "name": "",
          "type": "bytes32"
        }
      ],
      "stateMutability": "view",
      "type": "function"
    },
    {
      "inputs": [],
      "name": "escalationManager",
      "outputs": [
        {
          "internalType": "address",
          "name": "",
          "type": "address"
        }
      ],
      "stateMutability": "view",
      "type": "function"
    },
    {
      "inputs": [
        {
          "internalType": "uint256",
          "name": "_policyId",
          "type": "uint256"
        },
        {
          "internalType": "uint256",
          "name": "_amount",
          "type": "uint256"
        },
        {
          "internalType": "address",
          "name": "_to",
          "type": "address"
        }
      ],
      "name": "initRequest",
      "outputs": [
        {
          "internalType": "bytes32",
          "name": "assertionId",
          "type": "bytes32"
        }
      ],
      "stateMutability": "nonpayable",
      "type": "function"
    },
    {
      "inputs": [
        {
          "internalType": "contract ISingleSidedInsurancePool",
          "name": "_ssip",
          "type": "address"
        },
        {
          "internalType": "contract OptimisticOracleV3Interface",
          "name": "_optimisticOracleV3",
          "type": "address"
        },
        {
          "internalType": "contract IERC20",
          "name": "_defaultCurrency",
          "type": "address"
        },
        {
          "internalType": "address",
          "name": "_escalationManager",
          "type": "address"
        },
        {
          "internalType": "address",
          "name": "__guardianCouncil",
          "type": "address"
        },
        {
          "internalType": "address",
          "name": "_claimsDao",
          "type": "address"
        }
      ],
      "name": "initialize",
      "outputs": [],
      "stateMutability": "nonpayable",
      "type": "function"
    },
    {
      "inputs": [
        {
          "internalType": "uint256",
          "name": "",
          "type": "uint256"
        }
      ],
      "name": "isRequestInit",
      "outputs": [
        {
          "internalType": "bool",
          "name": "",
          "type": "bool"
        }
      ],
      "stateMutability": "view",
      "type": "function"
    },
    {
      "inputs": [],
      "name": "isUMAFailed",
      "outputs": [
        {
          "internalType": "bool",
          "name": "",
          "type": "bool"
        }
      ],
      "stateMutability": "view",
      "type": "function"
    },
    {
      "inputs": [],
      "name": "optimisticOracle",
      "outputs": [
        {
          "internalType": "contract OptimisticOracleV3Interface",
          "name": "",
          "type": "address"
        }
      ],
      "stateMutability": "view",
      "type": "function"
    },
    {
      "inputs": [],
      "name": "paused",
      "outputs": [
        {
          "internalType": "bool",
          "name": "",
          "type": "bool"
        }
      ],
      "stateMutability": "view",
      "type": "function"
    },
    {
      "inputs": [
        {
          "internalType": "uint256",
          "name": "",
          "type": "uint256"
        }
      ],
      "name": "policies",
      "outputs": [
        {
          "internalType": "uint256",
          "name": "insuranceAmount",
          "type": "uint256"
        },
        {
          "internalType": "address",
          "name": "payoutAddress",
          "type": "address"
        },
        {
          "internalType": "bool",
          "name": "settled",
          "type": "bool"
        }
      ],
      "stateMutability": "view",
      "type": "function"
    },
    {
      "inputs": [
        {
          "internalType": "uint256",
          "name": "",
          "type": "uint256"
        }
      ],
      "name": "policiesAssertionId",
      "outputs": [
        {
          "internalType": "bytes32",
          "name": "",
          "type": "bytes32"
        }
      ],
      "stateMutability": "view",
      "type": "function"
    },
    {
      "inputs": [
        {
          "internalType": "uint256",
          "name": "_assertionliveTime",
          "type": "uint256"
        }
      ],
      "name": "setAliveness",
      "outputs": [],
      "stateMutability": "nonpayable",
      "type": "function"
    },
    {
      "inputs": [
        {
          "internalType": "contract ICapitalAgent",
          "name": "_capitalAgent",
          "type": "address"
        }
      ],
      "name": "setCapitalAgent",
      "outputs": [],
      "stateMutability": "nonpayable",
      "type": "function"
    },
    {
      "inputs": [
        {
          "internalType": "address",
          "name": "_escalatingManager",
          "type": "address"
        }
      ],
      "name": "setEscalatingManager",
      "outputs": [],
      "stateMutability": "nonpayable",
      "type": "function"
    },
    {
      "inputs": [
        {
          "internalType": "bool",
          "name": "_failed",
          "type": "bool"
        }
      ],
      "name": "setFailed",
      "outputs": [],
      "stateMutability": "nonpayable",
      "type": "function"
    },
    {
      "inputs": [],
      "name": "ssip",
      "outputs": [
        {
          "internalType": "contract ISingleSidedInsurancePool",
          "name": "",
          "type": "address"
        }
      ],
      "stateMutability": "view",
      "type": "function"
    },
    {
      "inputs": [],
      "name": "togglePause",
      "outputs": [],
      "stateMutability": "nonpayable",
      "type": "function"
    }
  ],
  "transactionHash": "0x78533fabc9ba73e24f862d93df13327b58e5db5a4d148930fcdd6953e17469d5",
  "args": [],
  "numDeployments": 1,
  "solcInputHash": "d2fc875e3afcbd9499ae3f5e7a33f9ef",
  "bytecode": "0x608060405234801561001057600080fd5b50611bbb806100206000396000f3fe608060405234801561001057600080fd5b506004361061018d5760003560e01c8063c2eb8eb9116100e3578063d509b0171161008c578063f1b156b211610066578063f1b156b2146103a6578063f320b51f146103b9578063f53713d5146103d957600080fd5b8063d509b0171461036a578063dd33acc214610373578063f0bb285b1461039357600080fd5b8063cc2a9a5b116100bd578063cc2a9a5b146102e5578063d3e89483146102f8578063d448a4ec1461035957600080fd5b8063c2eb8eb9146102b7578063c4ae3168146102ca578063c5b02989146102d257600080fd5b8063421981601161014557806371548adc1161011f57806371548adc1461026e5780639203891314610281578063a49ad1231461029457600080fd5b8063421981601461021e5780635c975abb1461023157806363f2bee51461025b57600080fd5b806320402e1d1161017657806320402e1d146101cb57806322302922146101f6578063406cca231461020957600080fd5b8063026dca351461019257806316908fed146101b4575b600080fd5b600d5461019f9060ff1681565b60405190151581526020015b60405180910390f35b6101bd60065481565b6040519081526020016101ab565b6004546101de906001600160a01b031681565b6040516001600160a01b0390911681526020016101ab565b6001546101de906001600160a01b031681565b61021c6102173660046116c6565b6103ec565b005b6003546101de906001600160a01b031681565b7fcd5ed15c6e187e77e9aee88184c21f4f2182ab5827cb3b7e07fbedcd63f033005460ff1661019f565b6008546101de906001600160a01b031681565b6101bd61027c3660046116ff565b61043e565b61021c61028f366004611738565b610c2c565b61019f6102a2366004611755565b600c6020526000908152604090205460ff1681565b61021c6102c5366004611738565b610c8d565b61021c610cee565b6007546101de906001600160a01b031681565b61021c6102f336600461176e565b610d31565b610334610306366004611755565b600960205260009081526040902080546001909101546001600160a01b03811690600160a01b900460ff1683565b604080519384526001600160a01b0390921660208401521515908201526060016101ab565b61021c610367366004611755565b50565b6101bd60055481565b6101bd610381366004611755565b600b6020526000908152604090205481565b6002546101de906001600160a01b031681565b61021c6103b43660046117f0565b610f81565b6101bd6103c7366004611755565b600a6020526000908152604090205481565b61021c6103e7366004611755565b61114d565b6103f4611202565b600d805460ff191682151590811790915560405190815233907fe86205fd4b28bc975ade25d5bbd8096df537071d8536eb2fa726496c1e561d22906020015b60405180910390a250565b600061044861125c565b600354604080517f3fecfbf200000000000000000000000000000000000000000000000000000000815290516000926001600160a01b031691633fecfbf2916004808301926060929190829003018187875af11580156104ac573d6000803e3d6000fd5b505050506040513d601f19601f820116820180604052508101906104d09190611820565b505090506000806000836001600160a01b0316637a5402e9896040518263ffffffff1660e01b815260040161050791815260200190565b60a060405180830381865afa158015610524573d6000803e3d6000fd5b505050506040513d601f19601f820116820180604052508101906105489190611858565b9450945050509250828711156105cb5760405162461bcd60e51b815260206004820152602560248201527f556e6f52653a20616d6f756e74206578636565647320636f766572616765206160448201527f6d6f756e7400000000000000000000000000000000000000000000000000000060648201526084015b60405180910390fd5b8180156105d6575080155b6106485760405162461bcd60e51b815260206004820152602260248201527f556e6f52653a20706f6c6963792065787069726564206f72206e6f742065786960448201527f737400000000000000000000000000000000000000000000000000000000000060648201526084016105c2565b6000600960008a8152602001908152602001600020604051806060016040529081600082015481526020016001820160009054906101000a90046001600160a01b03166001600160a01b03166001600160a01b031681526020016001820160149054906101000a900460ff1615151515815250509050878160000181815250508681602001906001600160a01b031690816001600160a01b03168152505080600960008b81526020019081526020016000206000820151816000015560208201518160010160006101000a8154816001600160a01b0302191690836001600160a01b0316021790555060408201518160010160146101000a81548160ff021916908315150217905550905050600d60009054906101000a900460ff16610ac1576040517f6352211e000000000000000000000000000000000000000000000000000000008152600481018a905233906001600160a01b03871690636352211e90602401602060405180830381865afa1580156107c8573d6000803e3d6000fd5b505050506040513d601f19601f820116820180604052508101906107ec91906118af565b6001600160a01b0316146108425760405162461bcd60e51b815260206004820152601d60248201527f556e6f52653a206e6f74206f776e6572206f6620706f6c69637920696400000060448201526064016105c2565b600154600480546040517f4360af3d0000000000000000000000000000000000000000000000000000000081526001600160a01b03918216928101929092526000921690634360af3d90602401602060405180830381865afa1580156108ac573d6000803e3d6000fd5b505050506040513d601f19601f820116820180604052508101906108d091906118cc565b6004549091506108eb906001600160a01b03163330846112b8565b600480546001546040517f095ea7b30000000000000000000000000000000000000000000000000000000081526001600160a01b039182169381019390935260248301849052169063095ea7b3906044016020604051808303816000875af115801561095b573d6000803e3d6000fd5b505050506040513d601f19601f8201168201806040525081019061097f91906118e5565b506001546001600160a01b0316636457c97961099a42611430565b6040516020016109aa9190611926565b6040516020818303038152906040528a600260009054906101000a90046001600160a01b0316600760009054906101000a90046001600160a01b0316600654600460009054906101000a90046001600160a01b0316886005546000801b6040518a63ffffffff1660e01b8152600401610a2b999897969594939291906119de565b6020604051808303816000875af1158015610a4a573d6000803e3d6000fd5b505050506040513d601f19601f82011682018060405250810190610a6e91906118cc565b6000818152600a602090815260408083208e90558d8352600b9091528082208390555191985088918c917f1a1feb7e2311cdd8c08d411741ddc6a84f54391c1927082e6e1c870fe136d13091a350610c06565b6008546001600160a01b03163314610b415760405162461bcd60e51b815260206004820152602560248201527f525061796f75743a2063616e206f6e6c792063616c6c656420627920636c616960448201527f6d7344616f00000000000000000000000000000000000000000000000000000060648201526084016105c2565b6000898152600960205260409081902060010180547fffffffffffffffffffffff00ffffffffffffffffffffffffffffffffffffffff16600160a01b17905560025490517ffe30e7e6000000000000000000000000000000000000000000000000000000008152600481018b90526001600160a01b038981166024830152604482018b90529091169063fe30e7e690606401600060405180830381600087803b158015610bed57600080fd5b505af1158015610c01573d6000803e3d6000fd5b505050505b50505060009586525050600c6020526040909320805460ff191660011790555090919050565b610c34611202565b6007805473ffffffffffffffffffffffffffffffffffffffff19166001600160a01b03831690811790915560405130907f45f734c792ccab188daebff0355896691246940a4daa87e512511b916ac7b16190600090a350565b610c95611202565b6003805473ffffffffffffffffffffffffffffffffffffffff19166001600160a01b03831690811790915560405130907fdf8e7a62b39a2ec070924d5c5dce9a1957d75476af59af5a7e7ce2ee48bc777490600090a350565b610cf6611202565b7fcd5ed15c6e187e77e9aee88184c21f4f2182ab5827cb3b7e07fbedcd63f033005460ff16610d2957610d27611590565b565b610d27611605565b7ff0c57e16840df040f15088dc2f81fe391c3923bec73e23a9662efc9c229c6a00805468010000000000000000810460ff16159067ffffffffffffffff16600081158015610d7c5750825b905060008267ffffffffffffffff166001148015610d995750303b155b905081158015610da7575080155b15610dde576040517ff92ee8a900000000000000000000000000000000000000000000000000000000815260040160405180910390fd5b84547fffffffffffffffffffffffffffffffffffffffffffffffff00000000000000001660011785558315610e2957845468ff00000000000000001916680100000000000000001785555b6002805473ffffffffffffffffffffffffffffffffffffffff199081166001600160a01b038e8116919091179092556001805482168d84169081179091556004805483168d85161781556007805484168d86161790556008805484168b861617905560008054909316938b1693909317909155604080517fd509b0170000000000000000000000000000000000000000000000000000000081529051919263d509b0179282820192602092908290030181865afa158015610eee573d6000803e3d6000fd5b505050506040513d601f19601f82011682018060405250810190610f1291906118cc565b600555620d2f00600655600d805460ff191660011790558315610f7457845468ff000000000000000019168555604051600181527fc7f505b2f371ae2175ee4913f4499e1f2633a7b5936321eed1cdaeb6115181d29060200160405180910390a15b5050505050505050505050565b610f8961125c565b600d5460ff1615610fdc5760405162461bcd60e51b815260206004820152601460248201527f525061796f75743a20706f6f6c206661696c656400000000000000000000000060448201526064016105c2565b6001546001600160a01b031633146110365760405162461bcd60e51b815260206004820152601b60248201527f525061796f75743a20216f7074696d6973746963206f7261636c65000000000060448201526064016105c2565b6000828152600a602052604090205481156111335760008181526009602052604090206001810154600160a01b900460ff16156110735750505050565b600181018054600160a01b7fffffffffffffffffffffff00ffffffffffffffffffffffffffffffffffffffff82161790915560025482546040517ffe30e7e6000000000000000000000000000000000000000000000000000000008152600481018690526001600160a01b039384166024820152604481019190915291169063fe30e7e690606401600060405180830381600087803b15801561111557600080fd5b505af1158015611129573d6000803e3d6000fd5b5050505050505050565b6000908152600c60205260409020805460ff191690555050565b611155611202565b600081116111cb5760405162461bcd60e51b815260206004820152602160248201527f525061796f75743a207a65726f20617373657274696f6e206c6976652074696d60448201527f650000000000000000000000000000000000000000000000000000000000000060648201526084016105c2565b600681905560405181815230907f6d61c2e16ec51869e6d13ed016bb63815ca584310be5413d6c9e1926bffe76b790602001610433565b6000546001600160a01b03163314610d275760405162461bcd60e51b815260206004820152601560248201527f525061796f75743a20756e617574686f7269736564000000000000000000000060448201526064016105c2565b7fcd5ed15c6e187e77e9aee88184c21f4f2182ab5827cb3b7e07fbedcd63f033005460ff1615610d27576040517fd93c066500000000000000000000000000000000000000000000000000000000815260040160405180910390fd5b604080516001600160a01b0385811660248301528481166044830152606480830185905283518084039091018152608490920183526020820180517bffffffffffffffffffffffffffffffffffffffffffffffffffffffff167f23b872dd00000000000000000000000000000000000000000000000000000000179052915160009283929088169161134a9190611a84565b6000604051808303816000865af19150503d8060008114611387576040519150601f19603f3d011682016040523d82523d6000602084013e61138c565b606091505b50915091508180156113b65750805115806113b65750808060200190518101906113b691906118e5565b6114285760405162461bcd60e51b815260206004820152603160248201527f5472616e7366657248656c7065723a3a7472616e7366657246726f6d3a20747260448201527f616e7366657246726f6d206661696c656400000000000000000000000000000060648201526084016105c2565b505050505050565b60608160000361147357505060408051808201909152600181527f3000000000000000000000000000000000000000000000000000000000000000602082015290565b8160005b811561149d578061148781611ab6565b91506114969050600a83611aee565b9150611477565b60008167ffffffffffffffff8111156114b8576114b8611b10565b6040519080825280601f01601f1916602001820160405280156114e2576020820181803683370190505b509050815b8515611587576114f8600182611b26565b90506000611507600a88611aee565b61151290600a611b3f565b61151c9088611b26565b611527906030611b56565b905060008160f81b90508084848151811061154457611544611b6f565b60200101907effffffffffffffffffffffffffffffffffffffffffffffffffffffffffffff1916908160001a90535061157e600a89611aee565b975050506114e7565b50949350505050565b61159861125c565b7fcd5ed15c6e187e77e9aee88184c21f4f2182ab5827cb3b7e07fbedcd63f03300805460ff191660011781557f62e78cea01bee320cd4e420270b5ea74000d11b0c9f74754ebdbfc544b05a258335b6040516001600160a01b03909116815260200160405180910390a150565b61160d61165d565b7fcd5ed15c6e187e77e9aee88184c21f4f2182ab5827cb3b7e07fbedcd63f03300805460ff191681557f5db9ee0a495bf2e6ff9c91a7834c1ba4fdd244a5e8aa4e537bd38aeae4b073aa336115e7565b7fcd5ed15c6e187e77e9aee88184c21f4f2182ab5827cb3b7e07fbedcd63f033005460ff16610d27576040517f8dfc202b00000000000000000000000000000000000000000000000000000000815260040160405180910390fd5b801515811461036757600080fd5b6000602082840312156116d857600080fd5b81356116e3816116b8565b9392505050565b6001600160a01b038116811461036757600080fd5b60008060006060848603121561171457600080fd5b8335925060208401359150604084013561172d816116ea565b809150509250925092565b60006020828403121561174a57600080fd5b81356116e3816116ea565b60006020828403121561176757600080fd5b5035919050565b60008060008060008060c0878903121561178757600080fd5b8635611792816116ea565b955060208701356117a2816116ea565b945060408701356117b2816116ea565b935060608701356117c2816116ea565b925060808701356117d2816116ea565b915060a08701356117e2816116ea565b809150509295509295509295565b6000806040838503121561180357600080fd5b823591506020830135611815816116b8565b809150509250929050565b60008060006060848603121561183557600080fd5b8351611840816116ea565b60208501516040860151919450925061172d816116b8565b600080600080600060a0868803121561187057600080fd5b8551945060208601519350604086015192506060860151611890816116b8565b60808701519092506118a1816116b8565b809150509295509295909350565b6000602082840312156118c157600080fd5b81516116e3816116ea565b6000602082840312156118de57600080fd5b5051919050565b6000602082840312156118f757600080fd5b81516116e3816116b8565b60005b8381101561191d578181015183820152602001611905565b50506000910152565b7f496e737572616e636520636f6e747261637420697320636c61696d696e67207481527f68617420696e737572616e6365206576656e742000000000000000000000000060208201527f20686164206f63637572726564206173206f66200000000000000000000000006034820152600082516119aa816048850160208701611902565b7f2e000000000000000000000000000000000000000000000000000000000000006048939091019283015250604901919050565b610120815260008a5180610120840152611a0081610140850160208f01611902565b6001600160a01b039a8b166020840152988a16604083015250958816606087015267ffffffffffffffff9490941660808601529190951660a084015260c083019490945260e0820193909352610100810192909252601f017fffffffffffffffffffffffffffffffffffffffffffffffffffffffffffffffe0160161014001919050565b60008251611a96818460208701611902565b9190910192915050565b634e487b7160e01b600052601160045260246000fd5b60007fffffffffffffffffffffffffffffffffffffffffffffffffffffffffffffffff8203611ae757611ae7611aa0565b5060010190565b600082611b0b57634e487b7160e01b600052601260045260246000fd5b500490565b634e487b7160e01b600052604160045260246000fd5b81810381811115611b3957611b39611aa0565b92915050565b8082028115828204841417611b3957611b39611aa0565b60ff8181168382160190811115611b3957611b39611aa0565b634e487b7160e01b600052603260045260246000fdfea264697066735822122017e46754b2ae4b730287cbd8d39921fd09ea9face6ab3e58b2dcaba9dfe8c03364736f6c63430008170033",
  "devdoc": {
    "errors": {
      "EnforcedPause()": [
        {
          "details": "The operation failed because the contract is paused."
        }
      ],
      "ExpectedPause()": [
        {
          "details": "The operation failed because the contract is not paused."
        }
      ],
      "InvalidInitialization()": [
        {
          "details": "The contract is already initialized."
        }
      ],
      "NotInitializing()": [
        {
          "details": "The contract is not initializing."
        }
      ]
    },
    "events": {
      "Initialized(uint64)": {
        "details": "Triggered when the contract has been initialized or reinitialized."
      },
      "Paused(address)": {
        "details": "Emitted when the pause is triggered by `account`."
      },
      "Unpaused(address)": {
        "details": "Emitted when the pause is lifted by `account`."
      }
    },
    "kind": "dev",
    "methods": {
      "paused()": {
        "details": "Returns true if the contract is paused, and false otherwise."
      }
    },
    "version": 1
  },
  "userdoc": {
    "kind": "user",
    "methods": {},
    "version": 1
  },
  "storageLayout": {
    "storage": [
      {
        "astId": 28584,
        "contract": "contracts/uma/PayoutRequest.sol:PayoutRequest",
        "label": "_guardianCouncil",
        "offset": 0,
        "slot": "0",
        "type": "t_address"
      },
      {
        "astId": 28587,
        "contract": "contracts/uma/PayoutRequest.sol:PayoutRequest",
        "label": "optimisticOracle",
        "offset": 0,
        "slot": "1",
        "type": "t_contract(OptimisticOracleV3Interface)27128"
      },
      {
        "astId": 28590,
        "contract": "contracts/uma/PayoutRequest.sol:PayoutRequest",
        "label": "ssip",
        "offset": 0,
        "slot": "2",
        "type": "t_contract(ISingleSidedInsurancePool)26308"
      },
      {
        "astId": 28593,
        "contract": "contracts/uma/PayoutRequest.sol:PayoutRequest",
        "label": "capitalAgent",
        "offset": 0,
        "slot": "3",
        "type": "t_contract(ICapitalAgent)25730"
      },
      {
        "astId": 28596,
        "contract": "contracts/uma/PayoutRequest.sol:PayoutRequest",
        "label": "defaultCurrency",
        "offset": 0,
        "slot": "4",
        "type": "t_contract(IERC20)2264"
      },
      {
        "astId": 28598,
        "contract": "contracts/uma/PayoutRequest.sol:PayoutRequest",
        "label": "defaultIdentifier",
        "offset": 0,
        "slot": "5",
        "type": "t_bytes32"
      },
      {
        "astId": 28600,
        "contract": "contracts/uma/PayoutRequest.sol:PayoutRequest",
        "label": "assertionliveTime",
        "offset": 0,
        "slot": "6",
        "type": "t_uint256"
      },
      {
        "astId": 28602,
        "contract": "contracts/uma/PayoutRequest.sol:PayoutRequest",
        "label": "escalationManager",
        "offset": 0,
        "slot": "7",
        "type": "t_address"
      },
      {
        "astId": 28604,
        "contract": "contracts/uma/PayoutRequest.sol:PayoutRequest",
        "label": "claimsDao",
        "offset": 0,
        "slot": "8",
        "type": "t_address"
      },
      {
        "astId": 28609,
        "contract": "contracts/uma/PayoutRequest.sol:PayoutRequest",
        "label": "policies",
        "offset": 0,
        "slot": "9",
        "type": "t_mapping(t_uint256,t_struct(Policy)28582_storage)"
      },
      {
        "astId": 28613,
        "contract": "contracts/uma/PayoutRequest.sol:PayoutRequest",
        "label": "assertedPolicies",
        "offset": 0,
        "slot": "10",
        "type": "t_mapping(t_bytes32,t_uint256)"
      },
      {
        "astId": 28617,
        "contract": "contracts/uma/PayoutRequest.sol:PayoutRequest",
        "label": "policiesAssertionId",
        "offset": 0,
        "slot": "11",
        "type": "t_mapping(t_uint256,t_bytes32)"
      },
      {
        "astId": 28621,
        "contract": "contracts/uma/PayoutRequest.sol:PayoutRequest",
        "label": "isRequestInit",
        "offset": 0,
        "slot": "12",
        "type": "t_mapping(t_uint256,t_bool)"
      },
      {
        "astId": 28623,
        "contract": "contracts/uma/PayoutRequest.sol:PayoutRequest",
        "label": "isUMAFailed",
        "offset": 0,
        "slot": "13",
        "type": "t_bool"
      }
    ],
    "types": {
      "t_address": {
        "encoding": "inplace",
        "label": "address",
        "numberOfBytes": "20"
      },
      "t_bool": {
        "encoding": "inplace",
        "label": "bool",
        "numberOfBytes": "1"
      },
      "t_bytes32": {
        "encoding": "inplace",
        "label": "bytes32",
        "numberOfBytes": "32"
      },
      "t_contract(ICapitalAgent)25730": {
        "encoding": "inplace",
        "label": "contract ICapitalAgent",
        "numberOfBytes": "20"
      },
      "t_contract(IERC20)2264": {
        "encoding": "inplace",
        "label": "contract IERC20",
        "numberOfBytes": "20"
      },
      "t_contract(ISingleSidedInsurancePool)26308": {
        "encoding": "inplace",
        "label": "contract ISingleSidedInsurancePool",
        "numberOfBytes": "20"
      },
      "t_contract(OptimisticOracleV3Interface)27128": {
        "encoding": "inplace",
        "label": "contract OptimisticOracleV3Interface",
        "numberOfBytes": "20"
      },
      "t_mapping(t_bytes32,t_uint256)": {
        "encoding": "mapping",
        "key": "t_bytes32",
        "label": "mapping(bytes32 => uint256)",
        "numberOfBytes": "32",
        "value": "t_uint256"
      },
      "t_mapping(t_uint256,t_bool)": {
        "encoding": "mapping",
        "key": "t_uint256",
        "label": "mapping(uint256 => bool)",
        "numberOfBytes": "32",
        "value": "t_bool"
      },
      "t_mapping(t_uint256,t_bytes32)": {
        "encoding": "mapping",
        "key": "t_uint256",
        "label": "mapping(uint256 => bytes32)",
        "numberOfBytes": "32",
        "value": "t_bytes32"
      },
      "t_mapping(t_uint256,t_struct(Policy)28582_storage)": {
        "encoding": "mapping",
        "key": "t_uint256",
        "label": "mapping(uint256 => struct PayoutRequest.Policy)",
        "numberOfBytes": "32",
        "value": "t_struct(Policy)28582_storage"
      },
      "t_struct(Policy)28582_storage": {
        "encoding": "inplace",
        "label": "struct PayoutRequest.Policy",
        "members": [
          {
            "astId": 28577,
            "contract": "contracts/uma/PayoutRequest.sol:PayoutRequest",
            "label": "insuranceAmount",
            "offset": 0,
            "slot": "0",
            "type": "t_uint256"
          },
          {
            "astId": 28579,
            "contract": "contracts/uma/PayoutRequest.sol:PayoutRequest",
            "label": "payoutAddress",
            "offset": 0,
            "slot": "1",
            "type": "t_address"
          },
          {
            "astId": 28581,
            "contract": "contracts/uma/PayoutRequest.sol:PayoutRequest",
            "label": "settled",
            "offset": 20,
            "slot": "1",
            "type": "t_bool"
          }
        ],
        "numberOfBytes": "64"
      },
      "t_uint256": {
        "encoding": "inplace",
        "label": "uint256",
        "numberOfBytes": "32"
      }
    }
  }
}