{
  "address": "0x7ff90C1C5e7cB2535e7e7992491dd1Be6c5325A3",
  "abi": [
    {
      "inputs": [
        {
          "internalType": "address",
          "name": "_exchangeAgent",
          "type": "address"
        },
        {
          "internalType": "address",
          "name": "_unoToken",
          "type": "address"
        },
        {
          "internalType": "address",
          "name": "_usdcToken",
          "type": "address"
        },
        {
          "internalType": "address",
          "name": "_multiSigWallet",
          "type": "address"
        },
        {
          "internalType": "address",
          "name": "_governance",
          "type": "address"
        }
      ],
      "stateMutability": "nonpayable",
      "type": "constructor"
    },
    {
      "inputs": [],
      "name": "AccessControlBadConfirmation",
      "type": "error"
    },
    {
      "inputs": [
        {
          "internalType": "address",
          "name": "account",
          "type": "address"
        },
        {
          "internalType": "bytes32",
          "name": "neededRole",
          "type": "bytes32"
        }
      ],
      "name": "AccessControlUnauthorizedAccount",
      "type": "error"
    },
    {
      "inputs": [],
      "name": "EnforcedPause",
      "type": "error"
    },
    {
      "inputs": [],
      "name": "ExpectedPause",
      "type": "error"
    },
    {
      "inputs": [],
      "name": "ReentrancyGuardReentrantCall",
      "type": "error"
    },
    {
      "anonymous": false,
      "inputs": [
        {
          "indexed": true,
          "internalType": "address",
          "name": "_owner",
          "type": "address"
        },
        {
          "indexed": false,
          "internalType": "bool",
          "name": "_killed",
          "type": "bool"
        }
      ],
      "name": "KillPool",
      "type": "event"
    },
    {
      "anonymous": false,
      "inputs": [
        {
          "indexed": true,
          "internalType": "address",
          "name": "_premiumPool",
          "type": "address"
        },
        {
          "indexed": true,
          "internalType": "address",
          "name": "_currency",
          "type": "address"
        }
      ],
      "name": "LogAddCurrency",
      "type": "event"
    },
    {
      "anonymous": false,
      "inputs": [
        {
          "indexed": true,
          "internalType": "address",
          "name": "_premiumPool",
          "type": "address"
        },
        {
          "indexed": true,
          "internalType": "address",
          "name": "_whiteListAddress",
          "type": "address"
        }
      ],
      "name": "LogAddWhiteList",
      "type": "event"
    },
    {
      "anonymous": false,
      "inputs": [
        {
          "indexed": true,
          "internalType": "address",
          "name": "_operator",
          "type": "address"
        },
        {
          "indexed": true,
          "internalType": "address",
          "name": "_premiumPool",
          "type": "address"
        },
        {
          "indexed": false,
          "internalType": "uint256",
          "name": "_unoAmount",
          "type": "uint256"
        }
      ],
      "name": "LogBuyBackAndBurn",
      "type": "event"
    },
    {
      "anonymous": false,
      "inputs": [
        {
          "indexed": true,
          "internalType": "address",
          "name": "_from",
          "type": "address"
        },
        {
          "indexed": false,
          "internalType": "address",
          "name": "_premiumCurrency",
          "type": "address"
        },
        {
          "indexed": false,
          "internalType": "uint256",
          "name": "_premiumAmount",
          "type": "uint256"
        }
      ],
      "name": "LogCollectPremium",
      "type": "event"
    },
    {
      "anonymous": false,
      "inputs": [
        {
          "indexed": true,
          "internalType": "address",
          "name": "_rewarder",
          "type": "address"
        },
        {
          "indexed": true,
          "internalType": "address",
          "name": "_currency",
          "type": "address"
        },
        {
          "indexed": false,
          "internalType": "uint256",
          "name": "_amountDeposited",
          "type": "uint256"
        }
      ],
      "name": "LogDepositToSyntheticSSIPRewarder",
      "type": "event"
    },
    {
      "anonymous": false,
      "inputs": [
        {
          "indexed": true,
          "internalType": "address",
          "name": "_rewarder",
          "type": "address"
        },
        {
          "indexed": false,
          "internalType": "uint256",
          "name": "_amountDeposited",
          "type": "uint256"
        }
      ],
      "name": "LogDepositToSyntheticSSRPRewarder",
      "type": "event"
    },
    {
      "anonymous": false,
      "inputs": [
        {
          "indexed": true,
          "internalType": "address",
          "name": "_premiumPool",
          "type": "address"
        },
        {
          "indexed": true,
          "internalType": "address",
          "name": "_currency",
          "type": "address"
        },
        {
          "indexed": true,
          "internalType": "address",
          "name": "_to",
          "type": "address"
        }
      ],
      "name": "LogMaxApproveCurrency",
      "type": "event"
    },
    {
      "anonymous": false,
      "inputs": [
        {
          "indexed": true,
          "internalType": "address",
          "name": "_premiumPool",
          "type": "address"
        },
        {
          "indexed": true,
          "internalType": "address",
          "name": "_currency",
          "type": "address"
        },
        {
          "indexed": true,
          "internalType": "address",
          "name": "_to",
          "type": "address"
        }
      ],
      "name": "LogMaxDestroyCurrencyAllowance",
      "type": "event"
    },
    {
      "anonymous": false,
      "inputs": [
        {
          "indexed": true,
          "internalType": "address",
          "name": "_premiumPool",
          "type": "address"
        },
        {
          "indexed": true,
          "internalType": "address",
          "name": "_currency",
          "type": "address"
        }
      ],
      "name": "LogRemoveCurrency",
      "type": "event"
    },
    {
      "anonymous": false,
      "inputs": [
        {
          "indexed": true,
          "internalType": "address",
          "name": "_premiumPool",
          "type": "address"
        },
        {
          "indexed": true,
          "internalType": "address",
          "name": "_whiteListAddress",
          "type": "address"
        }
      ],
      "name": "LogRemoveWhiteList",
      "type": "event"
    },
    {
      "anonymous": false,
      "inputs": [
        {
          "indexed": false,
          "internalType": "address",
          "name": "account",
          "type": "address"
        }
      ],
      "name": "Paused",
      "type": "event"
    },
    {
      "anonymous": false,
      "inputs": [
        {
          "indexed": true,
          "internalType": "address",
          "name": "_owner",
          "type": "address"
        },
        {
          "indexed": false,
          "internalType": "bool",
          "name": "_alive",
          "type": "bool"
        }
      ],
      "name": "PoolAlived",
      "type": "event"
    },
    {
      "anonymous": false,
      "inputs": [
        {
          "indexed": true,
          "internalType": "address",
          "name": "_currency",
          "type": "address"
        },
        {
          "indexed": true,
          "internalType": "address",
          "name": "_to",
          "type": "address"
        },
        {
          "indexed": false,
          "internalType": "uint256",
          "name": "_amount",
          "type": "uint256"
        }
      ],
      "name": "PremiumWithdraw",
      "type": "event"
    },
    {
      "anonymous": false,
      "inputs": [
        {
          "indexed": true,
          "internalType": "bytes32",
          "name": "role",
          "type": "bytes32"
        },
        {
          "indexed": true,
          "internalType": "bytes32",
          "name": "previousAdminRole",
          "type": "bytes32"
        },
        {
          "indexed": true,
          "internalType": "bytes32",
          "name": "newAdminRole",
          "type": "bytes32"
        }
      ],
      "name": "RoleAdminChanged",
      "type": "event"
    },
    {
      "anonymous": false,
      "inputs": [
        {
          "indexed": true,
          "internalType": "bytes32",
          "name": "role",
          "type": "bytes32"
        },
        {
          "indexed": true,
          "internalType": "address",
          "name": "account",
          "type": "address"
        },
        {
          "indexed": true,
          "internalType": "address",
          "name": "sender",
          "type": "address"
        }
      ],
      "name": "RoleGranted",
      "type": "event"
    },
    {
      "anonymous": false,
      "inputs": [
        {
          "indexed": true,
          "internalType": "bytes32",
          "name": "role",
          "type": "bytes32"
        },
        {
          "indexed": true,
          "internalType": "address",
          "name": "account",
          "type": "address"
        },
        {
          "indexed": true,
          "internalType": "address",
          "name": "sender",
          "type": "address"
        }
      ],
      "name": "RoleRevoked",
      "type": "event"
    },
    {
      "anonymous": false,
      "inputs": [
        {
          "indexed": false,
          "internalType": "address",
          "name": "account",
          "type": "address"
        }
      ],
      "name": "Unpaused",
      "type": "event"
    },
    {
      "inputs": [],
      "name": "ADMIN_ROLE",
      "outputs": [
        {
          "internalType": "bytes32",
          "name": "",
          "type": "bytes32"
        }
      ],
      "stateMutability": "view",
      "type": "function"
    },
    {
      "inputs": [],
      "name": "BURNADDRESS",
      "outputs": [
        {
          "internalType": "address",
          "name": "",
          "type": "address"
        }
      ],
      "stateMutability": "view",
      "type": "function"
    },
    {
      "inputs": [],
      "name": "DEFAULT_ADMIN_ROLE",
      "outputs": [
        {
          "internalType": "bytes32",
          "name": "",
          "type": "bytes32"
        }
      ],
      "stateMutability": "view",
      "type": "function"
    },
    {
      "inputs": [],
      "name": "GOVERNANCE_ROLE",
      "outputs": [
        {
          "internalType": "bytes32",
          "name": "",
          "type": "bytes32"
        }
      ],
      "stateMutability": "view",
      "type": "function"
    },
    {
      "inputs": [
        {
          "internalType": "address",
          "name": "_currency",
          "type": "address"
        }
      ],
      "name": "addCurrency",
      "outputs": [],
      "stateMutability": "nonpayable",
      "type": "function"
    },
    {
      "inputs": [
        {
          "internalType": "address",
          "name": "_whiteListAddress",
          "type": "address"
        }
      ],
      "name": "addWhiteList",
      "outputs": [],
      "stateMutability": "nonpayable",
      "type": "function"
    },
    {
      "inputs": [
        {
          "internalType": "address",
          "name": "",
          "type": "address"
        }
      ],
      "name": "availableCurrencies",
      "outputs": [
        {
          "internalType": "bool",
          "name": "",
          "type": "bool"
        }
      ],
      "stateMutability": "view",
      "type": "function"
    },
    {
      "inputs": [
        {
          "internalType": "uint256",
          "name": "",
          "type": "uint256"
        }
      ],
      "name": "availableCurrencyList",
      "outputs": [
        {
          "internalType": "address",
          "name": "",
          "type": "address"
        }
      ],
      "stateMutability": "view",
      "type": "function"
    },
    {
      "inputs": [],
      "name": "backBurnPremiumEth",
      "outputs": [
        {
          "internalType": "uint256",
          "name": "",
          "type": "uint256"
        }
      ],
      "stateMutability": "view",
      "type": "function"
    },
    {
      "inputs": [
        {
          "internalType": "address",
          "name": "",
          "type": "address"
        }
      ],
      "name": "backBurnUnoPremium",
      "outputs": [
        {
          "internalType": "uint256",
          "name": "",
          "type": "uint256"
        }
      ],
      "stateMutability": "view",
      "type": "function"
    },
    {
      "inputs": [],
      "name": "buyBackAndBurn",
      "outputs": [],
      "stateMutability": "nonpayable",
      "type": "function"
    },
    {
      "inputs": [
        {
          "internalType": "address",
          "name": "_premiumCurrency",
          "type": "address"
        },
        {
          "internalType": "uint256",
          "name": "_premiumAmount",
          "type": "uint256"
        }
      ],
      "name": "collectPremium",
      "outputs": [],
      "stateMutability": "nonpayable",
      "type": "function"
    },
    {
      "inputs": [],
      "name": "collectPremiumInETH",
      "outputs": [],
      "stateMutability": "payable",
      "type": "function"
    },
    {
      "inputs": [
        {
          "internalType": "address",
          "name": "_currency",
          "type": "address"
        },
        {
          "internalType": "address",
          "name": "_rewarder",
          "type": "address"
        },
        {
          "internalType": "uint256",
          "name": "_amount",
          "type": "uint256"
        }
      ],
      "name": "depositToSyntheticSSIPRewarder",
      "outputs": [],
      "stateMutability": "nonpayable",
      "type": "function"
    },
    {
      "inputs": [
        {
          "internalType": "address",
          "name": "_rewarder",
          "type": "address"
        }
      ],
      "name": "depositToSyntheticSSRPRewarder",
      "outputs": [],
      "stateMutability": "nonpayable",
      "type": "function"
    },
    {
      "inputs": [
        {
          "internalType": "address",
          "name": "_currency",
          "type": "address"
        },
        {
          "internalType": "address",
          "name": "_to",
          "type": "address"
        }
      ],
      "name": "destroyCurrencyAllowance",
      "outputs": [],
      "stateMutability": "nonpayable",
      "type": "function"
    },
    {
      "inputs": [],
      "name": "exchangeAgent",
      "outputs": [
        {
          "internalType": "address",
          "name": "",
          "type": "address"
        }
      ],
      "stateMutability": "view",
      "type": "function"
    },
    {
      "inputs": [
        {
          "internalType": "bytes32",
          "name": "role",
          "type": "bytes32"
        }
      ],
      "name": "getRoleAdmin",
      "outputs": [
        {
          "internalType": "bytes32",
          "name": "",
          "type": "bytes32"
        }
      ],
      "stateMutability": "view",
      "type": "function"
    },
    {
      "inputs": [
        {
          "internalType": "bytes32",
          "name": "role",
          "type": "bytes32"
        },
        {
          "internalType": "address",
          "name": "account",
          "type": "address"
        }
      ],
      "name": "grantRole",
      "outputs": [],
      "stateMutability": "nonpayable",
      "type": "function"
    },
    {
      "inputs": [
        {
          "internalType": "bytes32",
          "name": "role",
          "type": "bytes32"
        },
        {
          "internalType": "address",
          "name": "account",
          "type": "address"
        }
      ],
      "name": "hasRole",
      "outputs": [
        {
          "internalType": "bool",
          "name": "",
          "type": "bool"
        }
      ],
      "stateMutability": "view",
      "type": "function"
    },
    {
      "inputs": [],
      "name": "killPool",
      "outputs": [],
      "stateMutability": "nonpayable",
      "type": "function"
    },
    {
      "inputs": [],
      "name": "killed",
      "outputs": [
        {
          "internalType": "bool",
          "name": "",
          "type": "bool"
        }
      ],
      "stateMutability": "view",
      "type": "function"
    },
    {
      "inputs": [
        {
          "internalType": "address",
          "name": "_currency",
          "type": "address"
        },
        {
          "internalType": "address",
          "name": "_to",
          "type": "address"
        }
      ],
      "name": "maxApproveCurrency",
      "outputs": [],
      "stateMutability": "nonpayable",
      "type": "function"
    },
    {
      "inputs": [],
      "name": "pausePool",
      "outputs": [],
      "stateMutability": "nonpayable",
      "type": "function"
    },
    {
      "inputs": [],
      "name": "paused",
      "outputs": [
        {
          "internalType": "bool",
          "name": "",
          "type": "bool"
        }
      ],
      "stateMutability": "view",
      "type": "function"
    },
    {
      "inputs": [
        {
          "internalType": "address",
          "name": "_currency",
          "type": "address"
        }
      ],
      "name": "removeCurrency",
      "outputs": [],
      "stateMutability": "nonpayable",
      "type": "function"
    },
    {
      "inputs": [
        {
          "internalType": "address",
          "name": "_whiteListAddress",
          "type": "address"
        }
      ],
      "name": "removeWhiteList",
      "outputs": [],
      "stateMutability": "nonpayable",
      "type": "function"
    },
    {
      "inputs": [
        {
          "internalType": "bytes32",
          "name": "role",
          "type": "bytes32"
        },
        {
          "internalType": "address",
          "name": "callerConfirmation",
          "type": "address"
        }
      ],
      "name": "renounceRole",
      "outputs": [],
      "stateMutability": "nonpayable",
      "type": "function"
    },
    {
      "inputs": [],
      "name": "revivePool",
      "outputs": [],
      "stateMutability": "nonpayable",
      "type": "function"
    },
    {
      "inputs": [
        {
          "internalType": "bytes32",
          "name": "role",
          "type": "bytes32"
        },
        {
          "internalType": "address",
          "name": "account",
          "type": "address"
        }
      ],
      "name": "revokeRole",
      "outputs": [],
      "stateMutability": "nonpayable",
      "type": "function"
    },
    {
      "inputs": [
        {
          "internalType": "address",
          "name": "",
          "type": "address"
        }
      ],
      "name": "ssipPremium",
      "outputs": [
        {
          "internalType": "uint256",
          "name": "",
          "type": "uint256"
        }
      ],
      "stateMutability": "view",
      "type": "function"
    },
    {
      "inputs": [],
      "name": "ssipPremiumEth",
      "outputs": [
        {
          "internalType": "uint256",
          "name": "",
          "type": "uint256"
        }
      ],
      "stateMutability": "view",
      "type": "function"
    },
    {
      "inputs": [
        {
          "internalType": "address",
          "name": "",
          "type": "address"
        }
      ],
      "name": "ssrpPremium",
      "outputs": [
        {
          "internalType": "uint256",
          "name": "",
          "type": "uint256"
        }
      ],
      "stateMutability": "view",
      "type": "function"
    },
    {
      "inputs": [],
      "name": "ssrpPremiumEth",
      "outputs": [
        {
          "internalType": "uint256",
          "name": "",
          "type": "uint256"
        }
      ],
      "stateMutability": "view",
      "type": "function"
    },
    {
      "inputs": [
        {
          "internalType": "bytes4",
          "name": "interfaceId",
          "type": "bytes4"
        }
      ],
      "name": "supportsInterface",
      "outputs": [
        {
          "internalType": "bool",
          "name": "",
          "type": "bool"
        }
      ],
      "stateMutability": "view",
      "type": "function"
    },
    {
      "inputs": [],
      "name": "unoToken",
      "outputs": [
        {
          "internalType": "address",
          "name": "",
          "type": "address"
        }
      ],
      "stateMutability": "view",
      "type": "function"
    },
    {
      "inputs": [],
      "name": "unpausePool",
      "outputs": [],
      "stateMutability": "nonpayable",
      "type": "function"
    },
    {
      "inputs": [],
      "name": "usdcToken",
      "outputs": [
        {
          "internalType": "address",
          "name": "",
          "type": "address"
        }
      ],
      "stateMutability": "view",
      "type": "function"
    },
    {
      "inputs": [
        {
          "internalType": "address",
          "name": "",
          "type": "address"
        }
      ],
      "name": "whiteList",
      "outputs": [
        {
          "internalType": "bool",
          "name": "",
          "type": "bool"
        }
      ],
      "stateMutability": "view",
      "type": "function"
    },
    {
      "inputs": [
        {
          "internalType": "address",
          "name": "_currency",
          "type": "address"
        },
        {
          "internalType": "address",
          "name": "_to",
          "type": "address"
        },
        {
          "internalType": "uint256",
          "name": "_amount",
          "type": "uint256"
        }
      ],
      "name": "withdrawPremium",
      "outputs": [],
      "stateMutability": "nonpayable",
      "type": "function"
    },
    {
      "stateMutability": "payable",
      "type": "receive"
    }
  ],
  "transactionHash": "0xa23d62093c9dd1d061085319b6d46a913e93ff0313c6c110d96424df41490fd1",
  "args": [
    "0x97a70De3D00C9D377eaa539d54A3598bEB623A1F",
    "0xf0E7F2c4DF6285878822F4F08B2f4c720835d2b6",
    "0xB6b67A0b6B3e627d9e9aD6232c1CEf3cBb719620",
    "0xedFFe0a06914c9D6083B4B099e5b935E9E84c9a5",
    "0xedFFe0a06914c9D6083B4B099e5b935E9E84c9a5"
  ],
  "numDeployments": 1,
  "solcInputHash": "773dff1273a5bf4e713bac58bddad671",
  "bytecode": "0x6080604052600019600f553480156200001757600080fd5b5060405162002f1438038062002f148339810160408190526200003a916200040c565b60016000556002805460ff191690556001600160a01b038516620000af5760405162461bcd60e51b815260206004820152602160248201527f556e6f52653a207a65726f2065786368616e67654167656e74206164647265736044820152607360f81b60648201526084015b60405180910390fd5b6001600160a01b038416620001075760405162461bcd60e51b815260206004820152601760248201527f556e6f52653a207a65726f20554e4f20616464726573730000000000000000006044820152606401620000a6565b6001600160a01b0383166200015f5760405162461bcd60e51b815260206004820152601860248201527f556e6f52653a207a65726f2055534443206164647265737300000000000000006044820152606401620000a6565b6001600160a01b038216620001c25760405162461bcd60e51b815260206004820152602260248201527f556e6f52653a207a65726f206d756c746973696777616c6c6574206164647265604482015261737360f01b6064820152608401620000a6565b6001600160a01b0381166200021a5760405162461bcd60e51b815260206004820152601e60248201527f556e6f52653a207a65726f20676f7665726e616e6365206164647265737300006044820152606401620000a6565b600280546001600160a01b0380881661010002610100600160a81b031990921691909117909155600380548683166001600160a01b0319918216179091556004805492861692909116919091179055336000908152600760205260409020805460ff191660011790556200029e60008051602062002ef4833981519152836200030b565b50620002ba60008051602062002ed4833981519152826200030b565b50620002e560008051602062002ed483398151915260008051602062002ef4833981519152620003a2565b6200030060008051602062002ef483398151915280620003a2565b50505050506200047c565b60008281526001602090815260408083206001600160a01b038516845290915281205460ff16620003985760008381526001602081815260408084206001600160a01b0387168086529252808420805460ff19169093179092559051339286917f2f8788117e7eff1d82e926ec794901d17c78024a50270940304540a733656f0d9190a45060016200039c565b5060005b92915050565b6000828152600160208190526040808320909101805490849055905190918391839186917fbd79b86ffe0ab8e8776151514217cd7cacd52c909f66475c3af44e129f0b00ff9190a4505050565b80516001600160a01b03811681146200040757600080fd5b919050565b600080600080600060a086880312156200042557600080fd5b6200043086620003ef565b94506200044060208701620003ef565b93506200045060408701620003ef565b92506200046060608701620003ef565b91506200047060808701620003ef565b90509295509295909350565b612a48806200048c6000396000f3fe60806040526004361061023f5760003560e01c80638ab234b61161012e578063c970e99f116100ab578063e1df99d51161006f578063e1df99d5146106b4578063e7cd4a04146106e1578063ed7c5f0a14610701578063f36c8f5c14610717578063f88822c41461074b57600080fd5b8063c970e99f1461061a578063d20535941461062f578063d547741f1461064f578063d84e305a1461066f578063d9203b911461068f57600080fd5b80639e382612116100f25780639e3826121461059b578063a217fddf146105c8578063aa09d5b7146105dd578063bc181416146105f2578063c5d3a107146105fa57600080fd5b80638ab234b6146104ee5780638c8ac76d1461050e5780638d9eb5271461052e57806391d148541461055b57806397274e6e1461057b57600080fd5b806336568abe116101bc5780635c975abb116101805780635c975abb1461046a578063677554151461048257806375837a7f1461049757806375b238fc146104b75780637a39b8d8146104d957600080fd5b806336568abe146103c457806337013d8a146103e4578063372c12b1146103fa57806354ea1d7d1461042a5780635bb48a001461044a57600080fd5b80631f3a0e41116102035780631f3a0e41146103235780632042e5c21461033d578063248a9ca31461035d5780632f2ff15d1461038e57806330fed930146103ae57600080fd5b806301ffc9a71461024b578063033ab8f014610280578063068cc514146102a457806311eac855146102bb5780631af42c0f146102f357600080fd5b3661024657005b600080fd5b34801561025757600080fd5b5061026b6102663660046126e5565b61076b565b60405190151581526020015b60405180910390f35b34801561028c57600080fd5b50610296600e5481565b604051908152602001610277565b3480156102b057600080fd5b506102b96107a2565b005b3480156102c757600080fd5b506004546102db906001600160a01b031681565b6040516001600160a01b039091168152602001610277565b3480156102ff57600080fd5b5061026b61030e36600461272b565b60056020526000908152604090205460ff1681565b34801561032f57600080fd5b5060085461026b9060ff1681565b34801561034957600080fd5b506102b961035836600461272b565b6107c5565b34801561036957600080fd5b50610296610378366004612746565b6000908152600160208190526040909120015490565b34801561039a57600080fd5b506102b96103a936600461275f565b6108d4565b3480156103ba57600080fd5b50610296600d5481565b3480156103d057600080fd5b506102b96103df36600461275f565b610908565b3480156103f057600080fd5b50610296600c5481565b34801561040657600080fd5b5061026b61041536600461272b565b60076020526000908152604090205460ff1681565b34801561043657600080fd5b506102b961044536600461278b565b610940565b34801561045657600080fd5b506102db610465366004612746565b610a2c565b34801561047657600080fd5b5060025460ff1661026b565b34801561048e57600080fd5b506102b9610a56565b3480156104a357600080fd5b506003546102db906001600160a01b031681565b3480156104c357600080fd5b506102966000805160206129f383398151915281565b3480156104e557600080fd5b506102b9610ab2565b3480156104fa57600080fd5b506102b961050936600461272b565b610b0c565b34801561051a57600080fd5b506102b96105293660046127b5565b610c35565b34801561053a57600080fd5b5061029661054936600461272b565b600b6020526000908152604090205481565b34801561056757600080fd5b5061026b61057636600461275f565b610eeb565b34801561058757600080fd5b506102b961059636600461278b565b610f16565b3480156105a757600080fd5b506102966105b636600461272b565b600a6020526000908152604090205481565b3480156105d457600080fd5b50610296600081565b3480156105e957600080fd5b506102b9611001565b6102b9611021565b34801561060657600080fd5b506102b961061536600461272b565b61115d565b34801561062657600080fd5b506102b9611340565b34801561063b57600080fd5b506102b961064a3660046127df565b611660565b34801561065b57600080fd5b506102b961066a36600461275f565b6118b0565b34801561067b57600080fd5b506102b961068a3660046127df565b6118d6565b34801561069b57600080fd5b506002546102db9061010090046001600160a01b031681565b3480156106c057600080fd5b506102966106cf36600461272b565b60096020526000908152604090205481565b3480156106ed57600080fd5b506102b96106fc36600461272b565b611b41565b34801561070d57600080fd5b506102db61dead81565b34801561072357600080fd5b506102967f71840dc4906352362b0cdaf79870196c8e42acafade72d5d5a6d59291253ceb181565b34801561075757600080fd5b506102b961076636600461272b565b611c36565b60006001600160e01b03198216637965db0b60e01b148061079c57506301ffc9a760e01b6001600160e01b03198316145b92915050565b6000805160206129f38339815191526107ba8161201a565b6107c2612024565b50565b6000805160206129f38339815191526107dd8161201a565b6001600160a01b03821661080c5760405162461bcd60e51b81526004016108039061281b565b60405180910390fd5b6001600160a01b03821660009081526007602052604090205460ff166108895760405162461bcd60e51b815260206004820152602c60248201527f556e6f52653a207768697465206c6973742072656d6f766564206f7220756e6160448201526b6464656420616c726561647960a01b6064820152608401610803565b6001600160a01b038216600081815260076020526040808220805460ff191690555130917f2f467772ef0a5478314f3bc2b37d4b2ad29b65f052b2cedc8e2972dda033529291a35050565b6108dc612076565b600082815260016020819052604090912001546108f88161201a565b610902838361209a565b50505050565b6001600160a01b03811633146109315760405163334bd91960e11b815260040160405180910390fd5b61093b8282612113565b505050565b6000805160206129f38339815191526109588161201a565b61096061212e565b600f54604051636eb1769f60e11b81523060048201526001600160a01b03848116602483015285169063dd62ed3e90604401602060405180830381865afa1580156109af573d6000803e3d6000fd5b505050506040513d601f19601f820116820180604052508101906109d39190612848565b1015610a22576109e68383600f54612158565b6040516001600160a01b03808416919085169030907f43121c61393a372aa50e4d3b0ec4003cce2d54e92ae7799836389597d5ead98d90600090a45b61093b6001600055565b60068181548110610a3c57600080fd5b6000918252602090912001546001600160a01b0316905081565b6000805160206129f3833981519152610a6e8161201a565b6008805460ff191690556040516000815233907f77337fcf1b48e6e024b256962b66c49de98c9f606b2cd9937cc0edbc7a0fb709906020015b60405180910390a250565b6000805160206129f3833981519152610aca8161201a565b6008805460ff1916600190811790915560405190815233907f7c952f2e528aa25b4eaf8b6c07af29184b27ce591295e543ced0a27b167dc79490602001610aa7565b6000805160206129f3833981519152610b248161201a565b6001600160a01b03821660009081526005602052604090205460ff1615610b815760405162461bcd60e51b8152602060048201526011602482015270416c726561647920617661696c61626c6560781b6044820152606401610803565b6001600160a01b038083166000818152600560205260408120805460ff191660019081179091556006805491820181559091527ff652222313e28459528d920b65115c16c04f3efc82aaedc97be59f3f377c0d3f0180546001600160a01b0319169091179055600254610bfb918491610100900416610940565b6040516001600160a01b0383169030907fc2def0bb3cfcff0462d9a69faa99e2ddeb1bf6b642d12a1fe3ed6653944fecd590600090a35050565b610c3d612076565b610c4561212e565b6001600160a01b038216600090815260056020526040902054829060ff16610caf5760405162461bcd60e51b815260206004820152601b60248201527f556e6f52653a206e6f7420616c6c6f7765642063757272656e637900000000006044820152606401610803565b3360009081526007602052604090205460ff16610d0e5760405162461bcd60e51b815260206004820152601d60248201527f556e6f52653a206e6f74207768697465206c69737420616464726573730000006044820152606401610803565b6040516370a0823160e01b815233600482015282906001600160a01b038516906370a0823190602401602060405180830381865afa158015610d54573d6000803e3d6000fd5b505050506040513d601f19601f82011682018060405250810190610d789190612848565b1015610d965760405162461bcd60e51b815260040161080390612861565b610da283333085612280565b6000612710610db3846103e86128ae565b610dbd91906128c5565b90506000612710610dd085611b586128ae565b610dda91906128c5565b6001600160a01b038616600090815260096020526040902054909150610e019083906128e7565b6001600160a01b038616600090815260096020908152604080832093909355600a90522054610e319082906128e7565b6001600160a01b0386166000908152600a602052604090205580610e5583866128fa565b610e5f91906128fa565b6001600160a01b0386166000908152600b6020526040902054610e8291906128e7565b6001600160a01b0386166000818152600b602090815260409182902093909355805191825291810186905233917f411101aad886ab4351e7c392d06f013b37a7c6c00b7f964bca364da03df0e7d5910160405180910390a2505050610ee76001600055565b5050565b60009182526001602090815260408084206001600160a01b0393909316845291905290205460ff1690565b6000805160206129f3833981519152610f2e8161201a565b610f3661212e565b604051636eb1769f60e11b81523060048201526001600160a01b0383811660248301526000919085169063dd62ed3e90604401602060405180830381865afa158015610f86573d6000803e3d6000fd5b505050506040513d601f19601f82011682018060405250810190610faa9190612848565b1115610a2257610fbc83836000612158565b6040516001600160a01b03808416919085169030907fefc983aa790fe837a31d17855afa75e3d276afef0959edcd4edd1a5e09905ee590600090a461093b6001600055565b6000805160206129f38339815191526110198161201a565b6107c26123ba565b611029612076565b61103161212e565b3360009081526007602052604090205460ff166110905760405162461bcd60e51b815260206004820152601d60248201527f556e6f52653a206e6f74207768697465206c69737420616464726573730000006044820152606401610803565b3460006127106110a2836103e86128ae565b6110ac91906128c5565b905060006127106110bf84611b586128ae565b6110c991906128c5565b905081600c546110d991906128e7565b600c55600d546110ea9082906128e7565b600d55806110f883856128fa565b61110291906128fa565b600e5461110f91906128e7565b600e5560408051600081526020810185905233917f411101aad886ab4351e7c392d06f013b37a7c6c00b7f964bca364da03df0e7d5910160405180910390a250505061115b6001600055565b565b6000805160206129f38339815191526111758161201a565b6001600160a01b03821660009081526005602052604090205460ff166111d15760405162461bcd60e51b8152602060048201526011602482015270139bdd08185d985a5b18589b19481e595d607a1b6044820152606401610803565b6001600160a01b0382166000908152600560205260408120805460ff191690556006805491906112026001846128fa565b815481106112125761121261290d565b60009182526020822001546001600160a01b031691505b8281101561133957600681815481106112445761124461290d565b6000918252602090912001546001600160a01b03908116908616036113315781600682815481106112775761127761290d565b9060005260206000200160006101000a8154816001600160a01b0302191690836001600160a01b0316021790555060068054806112b6576112b6612923565b600082815260209020810160001990810180546001600160a01b03191690550190556002546112f490869061010090046001600160a01b0316610f16565b6040516001600160a01b0386169030907f39198a02f988846be034bb915c4f3e43a226a15d6f29cf21918e838b1a5f878490600090a35050505050565b600101611229565b5050505050565b6000805160206129f38339815191526113588161201a565b60085460ff16156113a35760405162461bcd60e51b8152602060048201526015602482015274155b9bd4994e881c1bdbdb081a5cc81ada5b1b1959605a1b6044820152606401610803565b6113ab612076565b600e546000901561146a57600254600e546113d49161010090046001600160a01b0316906123f7565b600254600354600e546040516393badc4160e01b81526101009093046001600160a01b03908116936393badc41936114159360009390911691600401612939565b6020604051808303816000875af1158015611434573d6000803e3d6000fd5b505050506040513d601f19601f820116820180604052508101906114589190612848565b61146290826128e7565b6000600e5590505b60005b600654811015611605576000600b6000600684815481106114905761149061290d565b60009182526020808320909101546001600160a01b0316835282019290925260400190205411156115fd576002546006805460009261010090046001600160a01b0316916393badc4191859081106114ea576114ea61290d565b6000918252602082200154600354600680546001600160a01b03938416949290931692600b929190899081106115225761152261290d565b60009182526020808320909101546001600160a01b0316835282019290925260409081019091205490516001600160e01b031960e086901b16815261156c93929190600401612939565b6020604051808303816000875af115801561158b573d6000803e3d6000fd5b505050506040513d601f19601f820116820180604052508101906115af9190612848565b90506115bb81846128e7565b92506000600b6000600685815481106115d6576115d661290d565b60009182526020808320909101546001600160a01b03168352820192909252604001902055505b60010161146d565b50801561162557600354611625906001600160a01b031661dead836124d1565b604051818152309033907f94032d93ea01eeeccc1b1f03a7eddaf352c7cd85e246c6fc01afed0ddf6b5c1d9060200160405180910390a35050565b6000805160206129f38339815191526116788161201a565b611680612076565b61168861212e565b6001600160a01b0383166116ae5760405162461bcd60e51b81526004016108039061281b565b6116ed836040518060400160405280601a81526020017f556e6f52653a206e6f20636f6e747261637420616464726573730000000000008152506125fb565b6001600160a01b03841615801561170657506000600d54115b156117a257600d5482111561172d5760405162461bcd60e51b815260040161080390612861565b61173783836123f7565b81600d600082825461174991906128fa565b92505081905550836001600160a01b0316836001600160a01b03167f370cbb08cddf346c35e924a503aa223dcc1b75a993d7c23a602d2e4bc0802c108460405161179591815260200190565b60405180910390a36118a6565b6001600160a01b03841660009081526005602052604090205460ff1680156117e157506001600160a01b0384166000908152600a602052604090205415155b156118a6576001600160a01b0384166000908152600a602052604090205482111561181e5760405162461bcd60e51b815260040161080390612861565b6118298484846124d1565b6001600160a01b0384166000908152600a6020526040812080548492906118519084906128fa565b92505081905550836001600160a01b0316836001600160a01b03167f370cbb08cddf346c35e924a503aa223dcc1b75a993d7c23a602d2e4bc0802c108460405161189d91815260200190565b60405180910390a35b6109026001600055565b600082815260016020819052604090912001546118cc8161201a565b6109028383612113565b7f71840dc4906352362b0cdaf79870196c8e42acafade72d5d5a6d59291253ceb16119008161201a565b60085460ff161561194b5760405162461bcd60e51b8152602060048201526015602482015274155b9bd4994e881c1bdbdb081a5cc81ada5b1b1959605a1b6044820152606401610803565b611953612076565b6001600160a01b0383166119795760405162461bcd60e51b81526004016108039061281b565b600082116119be5760405162461bcd60e51b8152602060048201526012602482015271155b9bd4994e881e995c9bc8185b5bdd5b9d60721b6044820152606401610803565b6001600160a01b038416611a2b5781471015611a1c5760405162461bcd60e51b815260206004820152601b60248201527f556e6f52653a20496e73756666696369656e74205072656d69756d00000000006044820152606401610803565b611a2683836123f7565b611aee565b6040516370a0823160e01b815230600482015282906001600160a01b038616906370a0823190602401602060405180830381865afa158015611a71573d6000803e3d6000fd5b505050506040513d601f19601f82011682018060405250810190611a959190612848565b1015611ae35760405162461bcd60e51b815260206004820152601b60248201527f556e6f52653a20496e73756666696369656e74205072656d69756d00000000006044820152606401610803565b611aee8484846124d1565b826001600160a01b0316846001600160a01b03167f8d18a25569e967883ac0402e6991b4ac87616370a1c2ce59726abce4ef45bdb884604051611b3391815260200190565b60405180910390a350505050565b6000805160206129f3833981519152611b598161201a565b6001600160a01b038216611b7f5760405162461bcd60e51b81526004016108039061281b565b6001600160a01b03821660009081526007602052604090205460ff1615611be85760405162461bcd60e51b815260206004820152601960248201527f556e6f52653a207768697465206c69737420616c7265616479000000000000006044820152606401610803565b6001600160a01b038216600081815260076020526040808220805460ff191660011790555130917f8cd7b0b1a7316eb3e5d781d629cb8bf4e2fd9a8903bdd0f6b894c087d61b21f291a35050565b6000805160206129f3833981519152611c4e8161201a565b611c56612076565b611c5e61212e565b6001600160a01b038216611c845760405162461bcd60e51b81526004016108039061281b565b611cc3826040518060400160405280601a81526020017f556e6f52653a206e6f20636f6e747261637420616464726573730000000000008152506125fb565b600c5460009015611d8757600254600c54611cec9161010090046001600160a01b0316906123f7565b60025460048054600c546040516393badc4160e01b81526000946001600160a01b036101009091048116946393badc4194611d2f94889491909316929101612939565b6020604051808303816000875af1158015611d4e573d6000803e3d6000fd5b505050506040513d601f19601f82011682018060405250810190611d729190612848565b9050611d7e81836128e7565b6000600c559150505b60005b600654811015611fad5760006009600060068481548110611dad57611dad61290d565b60009182526020808320909101546001600160a01b031683528201929092526040019020541115611fa557600454600680546001600160a01b039092169183908110611dfb57611dfb61290d565b6000918252602090912001546001600160a01b031603611e62576009600060068381548110611e2c57611e2c61290d565b60009182526020808320909101546001600160a01b03168352820192909252604001902054611e5b90836128e7565b9150611f66565b6002546006805460009261010090046001600160a01b0316916393badc419185908110611e9157611e9161290d565b6000918252602082200154600454600680546001600160a01b03938416949290931692600992919089908110611ec957611ec961290d565b60009182526020808320909101546001600160a01b0316835282019290925260409081019091205490516001600160e01b031960e086901b168152611f1393929190600401612939565b6020604051808303816000875af1158015611f32573d6000803e3d6000fd5b505050506040513d601f19601f82011682018060405250810190611f569190612848565b9050611f6281846128e7565b9250505b60006009600060068481548110611f7f57611f7f61290d565b60009182526020808320909101546001600160a01b031683528201929092526040019020555b600101611d8a565b50801561200f57600454611fcb906001600160a01b031684836124d1565b826001600160a01b03167f9a380c5d696c8e394928ff8981a11ee388a14e2f7e16d373d73486cf3c4862548260405161200691815260200190565b60405180910390a25b50610ee76001600055565b6107c2813361261c565b61202c612655565b6002805460ff191690557f5db9ee0a495bf2e6ff9c91a7834c1ba4fdd244a5e8aa4e537bd38aeae4b073aa335b6040516001600160a01b03909116815260200160405180910390a1565b60025460ff161561115b5760405163d93c066560e01b815260040160405180910390fd5b60006120a68383610eeb565b61210b5760008381526001602081815260408084206001600160a01b0387168086529252808420805460ff19169093179092559051339286917f2f8788117e7eff1d82e926ec794901d17c78024a50270940304540a733656f0d9190a450600161079c565b50600061079c565b600061211d612076565b6121278383612678565b9392505050565b60026000540361215157604051633ee5aeb560e01b815260040160405180910390fd5b6002600055565b604080516001600160a01b038481166024830152604480830185905283518084039091018152606490920183526020820180516001600160e01b031663095ea7b360e01b17905291516000928392908716916121b49190612981565b6000604051808303816000865af19150503d80600081146121f1576040519150601f19603f3d011682016040523d82523d6000602084013e6121f6565b606091505b5091509150818015612220575080511580612220575080806020019051810190612220919061299d565b6113395760405162461bcd60e51b815260206004820152602b60248201527f5472616e7366657248656c7065723a3a73616665417070726f76653a2061707060448201526a1c9bdd994819985a5b195960aa1b6064820152608401610803565b600080856001600160a01b03166323b872dd8686866040516024016122a793929190612939565b6040516020818303038152906040529060e01b6020820180516001600160e01b0383818316178352505050506040516122e09190612981565b6000604051808303816000865af19150503d806000811461231d576040519150601f19603f3d011682016040523d82523d6000602084013e612322565b606091505b509150915081801561234c57508051158061234c57508080602001905181019061234c919061299d565b6123b25760405162461bcd60e51b815260206004820152603160248201527f5472616e7366657248656c7065723a3a7472616e7366657246726f6d3a207472604482015270185b9cd9995c919c9bdb4819985a5b1959607a1b6064820152608401610803565b505050505050565b6123c2612076565b6002805460ff191660011790557f62e78cea01bee320cd4e420270b5ea74000d11b0c9f74754ebdbfc544b05a2586120593390565b604080516000808252602082019092526001600160a01b0384169083906040516124219190612981565b60006040518083038185875af1925050503d806000811461245e576040519150601f19603f3d011682016040523d82523d6000602084013e612463565b606091505b505090508061093b5760405162461bcd60e51b815260206004820152603460248201527f5472616e7366657248656c7065723a3a736166655472616e736665724554483a60448201527308115512081d1c985b9cd9995c8819985a5b195960621b6064820152608401610803565b604080516001600160a01b038481166024830152604480830185905283518084039091018152606490920183526020820180516001600160e01b031663a9059cbb60e01b179052915160009283929087169161252d9190612981565b6000604051808303816000865af19150503d806000811461256a576040519150601f19603f3d011682016040523d82523d6000602084013e61256f565b606091505b5091509150818015612599575080511580612599575080806020019051810190612599919061299d565b6113395760405162461bcd60e51b815260206004820152602d60248201527f5472616e7366657248656c7065723a3a736166655472616e736665723a20747260448201526c185b9cd9995c8819985a5b1959609a1b6064820152608401610803565b813b81816109025760405162461bcd60e51b815260040161080391906129bf565b6126268282610eeb565b610ee75760405163e2517d3f60e01b81526001600160a01b038216600482015260248101839052604401610803565b60025460ff1661115b57604051638dfc202b60e01b815260040160405180910390fd5b60006126848383610eeb565b1561210b5760008381526001602090815260408083206001600160a01b0386168085529252808320805460ff1916905551339286917ff6391f5c32d9c69d2a47ea670b442974b53935d1edc7fd64eb21e047a839171b9190a450600161079c565b6000602082840312156126f757600080fd5b81356001600160e01b03198116811461212757600080fd5b80356001600160a01b038116811461272657600080fd5b919050565b60006020828403121561273d57600080fd5b6121278261270f565b60006020828403121561275857600080fd5b5035919050565b6000806040838503121561277257600080fd5b823591506127826020840161270f565b90509250929050565b6000806040838503121561279e57600080fd5b6127a78361270f565b91506127826020840161270f565b600080604083850312156127c857600080fd5b6127d18361270f565b946020939093013593505050565b6000806000606084860312156127f457600080fd5b6127fd8461270f565b925061280b6020850161270f565b9150604084013590509250925092565b602080825260139082015272556e6f52653a207a65726f206164647265737360681b604082015260600190565b60006020828403121561285a57600080fd5b5051919050565b6020808252601f908201527f556e6f52653a207072656d69756d2062616c616e6365206f766572666c6f7700604082015260600190565b634e487b7160e01b600052601160045260246000fd5b808202811582820484141761079c5761079c612898565b6000826128e257634e487b7160e01b600052601260045260246000fd5b500490565b8082018082111561079c5761079c612898565b8181038181111561079c5761079c612898565b634e487b7160e01b600052603260045260246000fd5b634e487b7160e01b600052603160045260246000fd5b6001600160a01b039384168152919092166020820152604081019190915260600190565b60005b83811015612978578181015183820152602001612960565b50506000910152565b6000825161299381846020870161295d565b9190910192915050565b6000602082840312156129af57600080fd5b8151801515811461212757600080fd5b60208152600082518060208401526129de81604085016020870161295d565b601f01601f1916919091016040019291505056fea49807205ce4d355092ef5a8a18f56e8913cf4a201fbe287825b095693c21775a2646970667358221220017824160f920ae4b25966aed1f46efca1be6d284bbe8fe62f2975b7c2ac0b1b64736f6c6343000817003371840dc4906352362b0cdaf79870196c8e42acafade72d5d5a6d59291253ceb1a49807205ce4d355092ef5a8a18f56e8913cf4a201fbe287825b095693c21775",
  "devdoc": {
    "errors": {
      "AccessControlBadConfirmation()": [
        {
          "details": "The caller of a function is not the expected one. NOTE: Don't confuse with {AccessControlUnauthorizedAccount}."
        }
      ],
      "AccessControlUnauthorizedAccount(address,bytes32)": [
        {
          "details": "The `account` is missing a role."
        }
      ],
      "EnforcedPause()": [
        {
          "details": "The operation failed because the contract is paused."
        }
      ],
      "ExpectedPause()": [
        {
          "details": "The operation failed because the contract is not paused."
        }
      ],
      "ReentrancyGuardReentrantCall()": [
        {
          "details": "Unauthorized reentrant call."
        }
      ]
    },
    "events": {
      "Paused(address)": {
        "details": "Emitted when the pause is triggered by `account`."
      },
      "RoleAdminChanged(bytes32,bytes32,bytes32)": {
        "details": "Emitted when `newAdminRole` is set as ``role``'s admin role, replacing `previousAdminRole` `DEFAULT_ADMIN_ROLE` is the starting admin for all roles, despite {RoleAdminChanged} not being emitted signaling this."
      },
      "RoleGranted(bytes32,address,address)": {
        "details": "Emitted when `account` is granted `role`. `sender` is the account that originated the contract call, an admin role bearer except when using {AccessControl-_setupRole}."
      },
      "RoleRevoked(bytes32,address,address)": {
        "details": "Emitted when `account` is revoked `role`. `sender` is the account that originated the contract call:   - if using `revokeRole`, it is the admin role bearer   - if using `renounceRole`, it is the role bearer (i.e. `account`)"
      },
      "Unpaused(address)": {
        "details": "Emitted when the pause is lifted by `account`."
      }
    },
    "kind": "dev",
    "methods": {
      "addCurrency(address)": {
        "details": "add `_currency` to available, can only be call by admin role",
        "params": {
          "_currency": "address of the currency to add"
        }
      },
      "addWhiteList(address)": {
        "details": "white list address to collect premium, can only be call by admin role",
        "params": {
          "_whiteListAddress": "address to white list"
        }
      },
      "collectPremium(address,uint256)": {
        "details": "collect premium of `_premiumCurrency` from caller into premiumPool address, when user buy policy from sales policy it call this function to collect premium from user only whitelisted address can call this function"
      },
      "collectPremiumInETH()": {
        "details": "collect eth premium from caller into premiumPool address, when user buy policy from sales policy it call this function to collect premium from user only whitelisted address can call this function"
      },
      "destroyCurrencyAllowance(address,address)": {
        "details": "remove `_currency` allowanve from premiumPool to `_to` address, can only be call by admin role",
        "params": {
          "_currency": "address of the currency to remove"
        }
      },
      "getRoleAdmin(bytes32)": {
        "details": "Returns the admin role that controls `role`. See {grantRole} and {revokeRole}. To change a role's admin, use {_setRoleAdmin}."
      },
      "grantRole(bytes32,address)": {
        "details": "Grants `role` to `account`. If `account` had not been already granted `role`, emits a {RoleGranted} event. Requirements: - the caller must have ``role``'s admin role. May emit a {RoleGranted} event."
      },
      "hasRole(bytes32,address)": {
        "details": "Returns `true` if `account` has been granted `role`."
      },
      "maxApproveCurrency(address,address)": {
        "details": "approve `_currency` to `_to` address from premiumPool, can only be call by admin role",
        "params": {
          "_currency": "address of the currency to remove"
        }
      },
      "paused()": {
        "details": "Returns true if the contract is paused, and false otherwise."
      },
      "removeCurrency(address)": {
        "details": "remove `_currency` from available, can only be call by admin role",
        "params": {
          "_currency": "address of the currency to remove"
        }
      },
      "removeWhiteList(address)": {
        "details": "remove address from white list, can only be call by admin role",
        "params": {
          "_whiteListAddress": "address to remove from white list"
        }
      },
      "renounceRole(bytes32,address)": {
        "details": "Revokes `role` from the calling account. Roles are often managed via {grantRole} and {revokeRole}: this function's purpose is to provide a mechanism for accounts to lose their privileges if they are compromised (such as when a trusted device is misplaced). If the calling account had been revoked `role`, emits a {RoleRevoked} event. Requirements: - the caller must be `callerConfirmation`. May emit a {RoleRevoked} event."
      },
      "revokeRole(bytes32,address)": {
        "details": "Revokes `role` from `account`. If `account` had been granted `role`, emits a {RoleRevoked} event. Requirements: - the caller must have ``role``'s admin role. May emit a {RoleRevoked} event."
      },
      "supportsInterface(bytes4)": {
        "details": "See {IERC165-supportsInterface}."
      },
      "withdrawPremium(address,address,uint256)": {
        "details": "withdraw premium of `_currency` from premiumPool to `_to` address only governance can call this function"
      }
    },
    "version": 1
  },
  "userdoc": {
    "kind": "user",
    "methods": {},
    "version": 1
  },
  "storageLayout": {
    "storage": [
      {
        "astId": 3770,
        "contract": "contracts/PremiumPool.sol:PremiumPool",
        "label": "_status",
        "offset": 0,
        "slot": "0",
        "type": "t_uint256"
      },
      {
        "astId": 1034,
        "contract": "contracts/PremiumPool.sol:PremiumPool",
        "label": "_roles",
        "offset": 0,
        "slot": "1",
        "type": "t_mapping(t_bytes32,t_struct(RoleData)1029_storage)"
      },
      {
        "astId": 3651,
        "contract": "contracts/PremiumPool.sol:PremiumPool",
        "label": "_paused",
        "offset": 0,
        "slot": "2",
        "type": "t_bool"
      },
      {
        "astId": 8663,
        "contract": "contracts/PremiumPool.sol:PremiumPool",
        "label": "exchangeAgent",
        "offset": 1,
        "slot": "2",
        "type": "t_address"
      },
      {
        "astId": 8665,
        "contract": "contracts/PremiumPool.sol:PremiumPool",
        "label": "unoToken",
        "offset": 0,
        "slot": "3",
        "type": "t_address"
      },
      {
        "astId": 8667,
        "contract": "contracts/PremiumPool.sol:PremiumPool",
        "label": "usdcToken",
        "offset": 0,
        "slot": "4",
        "type": "t_address"
      },
      {
        "astId": 8671,
        "contract": "contracts/PremiumPool.sol:PremiumPool",
        "label": "availableCurrencies",
        "offset": 0,
        "slot": "5",
        "type": "t_mapping(t_address,t_bool)"
      },
      {
        "astId": 8674,
        "contract": "contracts/PremiumPool.sol:PremiumPool",
        "label": "availableCurrencyList",
        "offset": 0,
        "slot": "6",
        "type": "t_array(t_address)dyn_storage"
      },
      {
        "astId": 8678,
        "contract": "contracts/PremiumPool.sol:PremiumPool",
        "label": "whiteList",
        "offset": 0,
        "slot": "7",
        "type": "t_mapping(t_address,t_bool)"
      },
      {
        "astId": 8680,
        "contract": "contracts/PremiumPool.sol:PremiumPool",
        "label": "killed",
        "offset": 0,
        "slot": "8",
        "type": "t_bool"
      },
      {
        "astId": 8687,
        "contract": "contracts/PremiumPool.sol:PremiumPool",
        "label": "ssrpPremium",
        "offset": 0,
        "slot": "9",
        "type": "t_mapping(t_address,t_uint256)"
      },
      {
        "astId": 8691,
        "contract": "contracts/PremiumPool.sol:PremiumPool",
        "label": "ssipPremium",
        "offset": 0,
        "slot": "10",
        "type": "t_mapping(t_address,t_uint256)"
      },
      {
        "astId": 8695,
        "contract": "contracts/PremiumPool.sol:PremiumPool",
        "label": "backBurnUnoPremium",
        "offset": 0,
        "slot": "11",
        "type": "t_mapping(t_address,t_uint256)"
      },
      {
        "astId": 8697,
        "contract": "contracts/PremiumPool.sol:PremiumPool",
        "label": "ssrpPremiumEth",
        "offset": 0,
        "slot": "12",
        "type": "t_uint256"
      },
      {
        "astId": 8699,
        "contract": "contracts/PremiumPool.sol:PremiumPool",
        "label": "ssipPremiumEth",
        "offset": 0,
        "slot": "13",
        "type": "t_uint256"
      },
      {
        "astId": 8701,
        "contract": "contracts/PremiumPool.sol:PremiumPool",
        "label": "backBurnPremiumEth",
        "offset": 0,
        "slot": "14",
        "type": "t_uint256"
      },
      {
        "astId": 8708,
        "contract": "contracts/PremiumPool.sol:PremiumPool",
        "label": "maxInteger",
        "offset": 0,
        "slot": "15",
        "type": "t_uint256"
      }
    ],
    "types": {
      "t_address": {
        "encoding": "inplace",
        "label": "address",
        "numberOfBytes": "20"
      },
      "t_array(t_address)dyn_storage": {
        "base": "t_address",
        "encoding": "dynamic_array",
        "label": "address[]",
        "numberOfBytes": "32"
      },
      "t_bool": {
        "encoding": "inplace",
        "label": "bool",
        "numberOfBytes": "1"
      },
      "t_bytes32": {
        "encoding": "inplace",
        "label": "bytes32",
        "numberOfBytes": "32"
      },
      "t_mapping(t_address,t_bool)": {
        "encoding": "mapping",
        "key": "t_address",
        "label": "mapping(address => bool)",
        "numberOfBytes": "32",
        "value": "t_bool"
      },
      "t_mapping(t_address,t_uint256)": {
        "encoding": "mapping",
        "key": "t_address",
        "label": "mapping(address => uint256)",
        "numberOfBytes": "32",
        "value": "t_uint256"
      },
      "t_mapping(t_bytes32,t_struct(RoleData)1029_storage)": {
        "encoding": "mapping",
        "key": "t_bytes32",
        "label": "mapping(bytes32 => struct AccessControl.RoleData)",
        "numberOfBytes": "32",
        "value": "t_struct(RoleData)1029_storage"
      },
      "t_struct(RoleData)1029_storage": {
        "encoding": "inplace",
        "label": "struct AccessControl.RoleData",
        "members": [
          {
            "astId": 1026,
            "contract": "contracts/PremiumPool.sol:PremiumPool",
            "label": "hasRole",
            "offset": 0,
            "slot": "0",
            "type": "t_mapping(t_address,t_bool)"
          },
          {
            "astId": 1028,
            "contract": "contracts/PremiumPool.sol:PremiumPool",
            "label": "adminRole",
            "offset": 0,
            "slot": "1",
            "type": "t_bytes32"
          }
        ],
        "numberOfBytes": "64"
      },
      "t_uint256": {
        "encoding": "inplace",
        "label": "uint256",
        "numberOfBytes": "32"
      }
    }
  }
}