{
  "address": "0xD7009e01Ab21dc6806f9347D6F65af6Eb3449263",
  "abi": [
    {
      "inputs": [
        {
          "internalType": "address",
          "name": "_usdcToken",
          "type": "address"
        },
        {
          "internalType": "address",
          "name": "_exchangeAgent",
          "type": "address"
        },
        {
          "internalType": "address",
          "name": "_premiumPool",
          "type": "address"
        },
        {
          "internalType": "address",
          "name": "_capitalAgent",
          "type": "address"
        },
        {
          "internalType": "address",
          "name": "_multiSigWallet",
          "type": "address"
        }
      ],
      "stateMutability": "nonpayable",
      "type": "constructor"
    },
    {
      "inputs": [
        {
          "internalType": "address",
          "name": "owner",
          "type": "address"
        }
      ],
      "name": "OwnableInvalidOwner",
      "type": "error"
    },
    {
      "inputs": [
        {
          "internalType": "address",
          "name": "account",
          "type": "address"
        }
      ],
      "name": "OwnableUnauthorizedAccount",
      "type": "error"
    },
    {
      "inputs": [],
      "name": "ReentrancyGuardReentrantCall",
      "type": "error"
    },
    {
      "anonymous": false,
      "inputs": [
        {
          "indexed": false,
          "internalType": "address",
          "name": "_premiumCurrency",
          "type": "address"
        }
      ],
      "name": "LogApprovePremiumInPolicy",
      "type": "event"
    },
    {
      "anonymous": false,
      "inputs": [
        {
          "indexed": false,
          "internalType": "uint16",
          "name": "_protocolId",
          "type": "uint16"
        },
        {
          "indexed": true,
          "internalType": "address",
          "name": "_protocol",
          "type": "address"
        }
      ],
      "name": "LogSetBlackListProtocol",
      "type": "event"
    },
    {
      "anonymous": false,
      "inputs": [
        {
          "indexed": false,
          "internalType": "uint256",
          "name": "_maxDeadline",
          "type": "uint256"
        }
      ],
      "name": "LogSetBuyPolicyMaxDeadlineInPolicy",
      "type": "event"
    },
    {
      "anonymous": false,
      "inputs": [
        {
          "indexed": false,
          "internalType": "address",
          "name": "_capitalAgent",
          "type": "address"
        }
      ],
      "name": "LogSetCapitalAgentInPolicy",
      "type": "event"
    },
    {
      "anonymous": false,
      "inputs": [
        {
          "indexed": false,
          "internalType": "address",
          "name": "_exchangeAgent",
          "type": "address"
        }
      ],
      "name": "LogSetExchangeAgentInPolicy",
      "type": "event"
    },
    {
      "anonymous": false,
      "inputs": [
        {
          "indexed": true,
          "internalType": "address",
          "name": "_premiumPool",
          "type": "address"
        }
      ],
      "name": "LogSetPremiumPool",
      "type": "event"
    },
    {
      "anonymous": false,
      "inputs": [
        {
          "indexed": false,
          "internalType": "address",
          "name": "_premiumPool",
          "type": "address"
        }
      ],
      "name": "LogSetPremiumPoolInPolicy",
      "type": "event"
    },
    {
      "anonymous": false,
      "inputs": [
        {
          "indexed": false,
          "internalType": "string",
          "name": "_uri",
          "type": "string"
        }
      ],
      "name": "LogSetProtocolURIInPolicy",
      "type": "event"
    },
    {
      "anonymous": false,
      "inputs": [
        {
          "indexed": false,
          "internalType": "address",
          "name": "_signer",
          "type": "address"
        }
      ],
      "name": "LogSetSignerInPolicy",
      "type": "event"
    },
    {
      "anonymous": false,
      "inputs": [
        {
          "indexed": false,
          "internalType": "bool",
          "name": "_status",
          "type": "bool"
        }
      ],
      "name": "LogUpdateCheckIfProtocolInWhitelistArray",
      "type": "event"
    },
    {
      "anonymous": false,
      "inputs": [
        {
          "indexed": true,
          "internalType": "address",
          "name": "previousOwner",
          "type": "address"
        },
        {
          "indexed": true,
          "internalType": "address",
          "name": "newOwner",
          "type": "address"
        }
      ],
      "name": "OwnershipTransferred",
      "type": "event"
    },
    {
      "anonymous": false,
      "inputs": [
        {
          "indexed": false,
          "internalType": "uint16",
          "name": "_protocolIdx",
          "type": "uint16"
        },
        {
          "indexed": false,
          "internalType": "address",
          "name": "_protocol",
          "type": "address"
        }
      ],
      "name": "ProtocolCreated",
      "type": "event"
    },
    {
      "inputs": [
        {
          "internalType": "address",
          "name": "_protocolAddress",
          "type": "address"
        }
      ],
      "name": "addProtocol",
      "outputs": [],
      "stateMutability": "nonpayable",
      "type": "function"
    },
    {
      "inputs": [],
      "name": "allProtocolsLength",
      "outputs": [
        {
          "internalType": "uint256",
          "name": "",
          "type": "uint256"
        }
      ],
      "stateMutability": "view",
      "type": "function"
    },
    {
      "inputs": [
        {
          "internalType": "address",
          "name": "_premiumCurrency",
          "type": "address"
        }
      ],
      "name": "approvePremiumInPolicy",
      "outputs": [],
      "stateMutability": "nonpayable",
      "type": "function"
    },
    {
      "inputs": [],
      "name": "capitalAgent",
      "outputs": [
        {
          "internalType": "address",
          "name": "",
          "type": "address"
        }
      ],
      "stateMutability": "view",
      "type": "function"
    },
    {
      "inputs": [],
      "name": "checkIfProtocolInWhitelistArray",
      "outputs": [
        {
          "internalType": "bool",
          "name": "",
          "type": "bool"
        }
      ],
      "stateMutability": "view",
      "type": "function"
    },
    {
      "inputs": [],
      "name": "exchangeAgent",
      "outputs": [
        {
          "internalType": "address",
          "name": "",
          "type": "address"
        }
      ],
      "stateMutability": "view",
      "type": "function"
    },
    {
      "inputs": [
        {
          "internalType": "uint16",
          "name": "",
          "type": "uint16"
        }
      ],
      "name": "getProtocol",
      "outputs": [
        {
          "internalType": "address",
          "name": "protocolAddress",
          "type": "address"
        },
        {
          "internalType": "bool",
          "name": "isBlackList",
          "type": "bool"
        }
      ],
      "stateMutability": "view",
      "type": "function"
    },
    {
      "inputs": [
        {
          "internalType": "uint16",
          "name": "_protocolIdx",
          "type": "uint16"
        }
      ],
      "name": "getProtocolData",
      "outputs": [
        {
          "internalType": "address",
          "name": "protocolAddress",
          "type": "address"
        },
        {
          "internalType": "bool",
          "name": "isBlackList",
          "type": "bool"
        }
      ],
      "stateMutability": "view",
      "type": "function"
    },
    {
      "inputs": [
        {
          "internalType": "address",
          "name": "",
          "type": "address"
        }
      ],
      "name": "getProtocolId",
      "outputs": [
        {
          "internalType": "uint16",
          "name": "",
          "type": "uint16"
        }
      ],
      "stateMutability": "view",
      "type": "function"
    },
    {
      "inputs": [],
      "name": "killSalesPolicyPool",
      "outputs": [],
      "stateMutability": "nonpayable",
      "type": "function"
    },
    {
      "inputs": [
        {
          "internalType": "address",
          "name": "_exchangeAgent",
          "type": "address"
        },
        {
          "internalType": "address",
          "name": "_premiumPool",
          "type": "address"
        },
        {
          "internalType": "address",
          "name": "_capitalAgent",
          "type": "address"
        }
      ],
      "name": "newSalesPolicy",
      "outputs": [
        {
          "internalType": "address",
          "name": "",
          "type": "address"
        }
      ],
      "stateMutability": "nonpayable",
      "type": "function"
    },
    {
      "inputs": [],
      "name": "owner",
      "outputs": [
        {
          "internalType": "address",
          "name": "",
          "type": "address"
        }
      ],
      "stateMutability": "view",
      "type": "function"
    },
    {
      "inputs": [],
      "name": "premiumPool",
      "outputs": [
        {
          "internalType": "address",
          "name": "",
          "type": "address"
        }
      ],
      "stateMutability": "view",
      "type": "function"
    },
    {
      "inputs": [],
      "name": "renounceOwnership",
      "outputs": [],
      "stateMutability": "nonpayable",
      "type": "function"
    },
    {
      "inputs": [],
      "name": "reviveSalesPolicyPool",
      "outputs": [],
      "stateMutability": "nonpayable",
      "type": "function"
    },
    {
      "inputs": [],
      "name": "salesPolicy",
      "outputs": [
        {
          "internalType": "address",
          "name": "",
          "type": "address"
        }
      ],
      "stateMutability": "view",
      "type": "function"
    },
    {
      "inputs": [
        {
          "internalType": "address",
          "name": "_protocol",
          "type": "address"
        }
      ],
      "name": "setBlackListProtocolByAddress",
      "outputs": [],
      "stateMutability": "nonpayable",
      "type": "function"
    },
    {
      "inputs": [
        {
          "internalType": "uint16",
          "name": "_protocolId",
          "type": "uint16"
        }
      ],
      "name": "setBlackListProtocolById",
      "outputs": [],
      "stateMutability": "nonpayable",
      "type": "function"
    },
    {
      "inputs": [
        {
          "internalType": "uint256",
          "name": "_maxDeadline",
          "type": "uint256"
        }
      ],
      "name": "setBuyPolicyMaxDeadlineInPolicy",
      "outputs": [],
      "stateMutability": "nonpayable",
      "type": "function"
    },
    {
      "inputs": [
        {
          "internalType": "address",
          "name": "_capitalAgent",
          "type": "address"
        }
      ],
      "name": "setCapitalAgentInPolicy",
      "outputs": [],
      "stateMutability": "nonpayable",
      "type": "function"
    },
    {
      "inputs": [
        {
          "internalType": "address",
          "name": "_exchangeAgent",
          "type": "address"
        }
      ],
      "name": "setExchangeAgentInPolicy",
      "outputs": [],
      "stateMutability": "nonpayable",
      "type": "function"
    },
    {
      "inputs": [
        {
          "internalType": "address",
          "name": "_premiumPool",
          "type": "address"
        }
      ],
      "name": "setPremiumPool",
      "outputs": [],
      "stateMutability": "nonpayable",
      "type": "function"
    },
    {
      "inputs": [
        {
          "internalType": "address",
          "name": "_premiumPool",
          "type": "address"
        }
      ],
      "name": "setPremiumPoolInPolicy",
      "outputs": [],
      "stateMutability": "nonpayable",
      "type": "function"
    },
    {
      "inputs": [
        {
          "internalType": "string",
          "name": "_uri",
          "type": "string"
        }
      ],
      "name": "setProtocolURIInPolicy",
      "outputs": [],
      "stateMutability": "nonpayable",
      "type": "function"
    },
    {
      "inputs": [
        {
          "internalType": "address",
          "name": "_signer",
          "type": "address"
        }
      ],
      "name": "setSignerInPolicy",
      "outputs": [],
      "stateMutability": "nonpayable",
      "type": "function"
    },
    {
      "inputs": [
        {
          "internalType": "address",
          "name": "newOwner",
          "type": "address"
        }
      ],
      "name": "transferOwnership",
      "outputs": [],
      "stateMutability": "nonpayable",
      "type": "function"
    },
    {
      "inputs": [
        {
          "internalType": "bool",
          "name": "_status",
          "type": "bool"
        }
      ],
      "name": "updateCheckIfProtocolInWhitelistArray",
      "outputs": [],
      "stateMutability": "nonpayable",
      "type": "function"
    },
    {
      "inputs": [],
      "name": "usdcToken",
      "outputs": [
        {
          "internalType": "address",
          "name": "",
          "type": "address"
        }
      ],
      "stateMutability": "view",
      "type": "function"
    }
  ],
  "transactionHash": "0xb258bd3f1903a96dc737351d6a931f45ae60071a5caeec7b43d591efe34b569d",
  "args": [
    "0xB6b67A0b6B3e627d9e9aD6232c1CEf3cBb719620",
    "0x3BF02ae707a38CD1443C380c7d908D89ec58B0C4",
    "0x4eE516d5B4b874EcCb8567eF665ba6F75bCe07cC",
    "0xd1E834C2E110D4607F53ecbcaac0733a402487d0",
    "0xBC13Ca15b56BEEA075E39F6f6C09CA40c10Ddba6"
  ],
  "numDeployments": 1,
  "solcInputHash": "b03844d1a6c61077bfe3ad7e20b6f493",
  "bytecode": "0x60806040523480156200001157600080fd5b506040516200642b3803806200642b83398101604081905262000034916200049b565b6001600055806001600160a01b0381166200006a57604051631e4fbdf760e01b8152600060048201526024015b60405180910390fd5b62000075816200042c565b506001600160a01b038516620000ce5760405162461bcd60e51b815260206004820152601860248201527f556e6f52653a207a65726f205553444320616464726573730000000000000000604482015260640162000061565b6001600160a01b038416620001305760405162461bcd60e51b815260206004820152602160248201527f556e6f52653a207a65726f2065786368616e67654167656e74206164647265736044820152607360f81b606482015260840162000061565b6001600160a01b038316620001885760405162461bcd60e51b815260206004820152601f60248201527f556e6f52653a207a65726f207072656d69756d506f6f6c206164647265737300604482015260640162000061565b6001600160a01b038216620001e05760405162461bcd60e51b815260206004820181905260248201527f556e6f52653a207a65726f206361706974616c4167656e742061646472657373604482015260640162000061565b6001600160a01b038116620002435760405162461bcd60e51b815260206004820152602260248201527f556e6f52653a207a65726f206d756c746973696777616c6c6574206164647265604482015261737360f01b606482015260840162000061565b6003816001600160a01b031663a0e67e2b6040518163ffffffff1660e01b8152600401600060405180830381865afa15801562000284573d6000803e3d6000fd5b505050506040513d6000823e601f3d908101601f19168201604052620002ae919081019062000521565b51116200030c5760405162461bcd60e51b815260206004820152602560248201527f556e6f52653a206d6f7265207468616e207468726565206f776e6572732072656044820152641c5d5a595960da1b606482015260840162000061565b6001816001600160a01b031663e75235b86040518163ffffffff1660e01b8152600401602060405180830381865afa1580156200034d573d6000803e3d6000fd5b505050506040513d601f19601f82011682018060405250810190620003739190620005f3565b11620003d85760405162461bcd60e51b815260206004820152602d60248201527f556e6f52653a206d6f7265207468616e206f6e65206f776e657273207265717560448201526c69656420746f2076657269667960981b606482015260840162000061565b50600980546001600160a01b03199081166001600160a01b0396871617909155600280548216938616939093179092556003805483169385169390931790925560048054909116919092161790556200060d565b600180546001600160a01b038381166001600160a01b0319831681179093556040519116919082907f8be0079c531659141344cd1fd0a4f28419497f9722a3daafe3b4186f6b6457e090600090a35050565b80516001600160a01b03811681146200049657600080fd5b919050565b600080600080600060a08688031215620004b457600080fd5b620004bf866200047e565b9450620004cf602087016200047e565b9350620004df604087016200047e565b9250620004ef606087016200047e565b9150620004ff608087016200047e565b90509295509295909350565b634e487b7160e01b600052604160045260246000fd5b600060208083850312156200053557600080fd5b82516001600160401b03808211156200054d57600080fd5b818501915085601f8301126200056257600080fd5b8151818111156200057757620005776200050b565b8060051b604051601f19603f830116810181811085821117156200059f576200059f6200050b565b604052918252848201925083810185019188831115620005be57600080fd5b938501935b82851015620005e757620005d7856200047e565b84529385019392850192620005c3565b98975050505050505050565b6000602082840312156200060657600080fd5b5051919050565b615e0e806200061d6000396000f3fe60806040523480156200001157600080fd5b5060043610620001e95760003560e01c8063aeba91d0116200010d578063c5870a4b11620000a3578063d9203b91116200007a578063d9203b911462000492578063dc962e4514620004a6578063dfca978114620004bd578063f2fde38b14620004d457600080fd5b8063c5870a4b146200042c578063d191097e1462000443578063d2c7c2a4146200045a57600080fd5b8063b64a775e11620000e4578063b64a775e146200038d578063bbd9d8e114620003a4578063bcd54f0c1462000401578063c3c3b55b146200041857600080fd5b8063aeba91d0146200034d578063b31b9fee1462000364578063b381ff82146200037b57600080fd5b80634ba69faa1162000183578063771d4c28116200015a578063771d4c2814620002f65780638bc798dc146200030d5780638da5cb5b1462000324578063924589c5146200033657600080fd5b80634ba69faa146200029d5780636c18443d14620002b1578063715018a614620002ec57600080fd5b80631eaf26d811620001c45780631eaf26d8146200024f578063222a5df614620002595780633bd77b2c146200027f57806342198160146200028957600080fd5b806302f3318d14620001ee57806311eac85514620002075780631bcc24721462000238575b600080fd5b62000205620001ff366004620011b9565b620004eb565b005b6009546200021b906001600160a01b031681565b6040516001600160a01b0390911681526020015b60405180910390f35b6200020562000249366004620011b9565b620005b0565b6200020562000687565b6001546200026e90600160a01b900460ff1681565b60405190151581526020016200022f565b62000205620006fd565b6004546200021b906001600160a01b031681565b6002546200021b906001600160a01b031681565b620002d8620002c2366004620011b9565b60076020526000908152604090205461ffff1681565b60405161ffff90911681526020016200022f565b6200020562000758565b6200020562000307366004620011b9565b62000770565b620002056200031e366004620011b9565b62000878565b6001546001600160a01b03166200021b565b6200020562000347366004620011d7565b62000937565b620002056200035e366004620011b9565b620009c5565b6200021b62000375366004620011fd565b62000a5c565b6008546040519081526020016200022f565b620002056200039e366004620011b9565b62000b99565b620003e1620003b5366004620011d7565b61ffff166000908152600660205260409020546001600160a01b03811691600160a01b90910460ff1690565b604080516001600160a01b0390931683529015156020830152016200022f565b620002056200041236600462001276565b62000c58565b6005546200021b906001600160a01b031681565b620002056200043d366004620011b9565b62000d12565b620002056200045436600462001331565b62000dd1565b620003e16200046b366004620011d7565b6006602052600090815260409020546001600160a01b03811690600160a01b900460ff1682565b6003546200021b906001600160a01b031681565b62000205620004b73660046200134b565b62000ef2565b62000205620004ce366004620011b9565b62000f65565b62000205620004e5366004620011b9565b62001024565b620004f56200107e565b6005546040517f1bcc24720000000000000000000000000000000000000000000000000000000081526001600160a01b03838116600483015290911690631bcc247290602401600060405180830381600087803b1580156200055657600080fd5b505af11580156200056b573d6000803e3d6000fd5b50506040516001600160a01b03841681527f901a140d78903c603146fb34abddcb4eb3bd955766116712f267c68f3ee3dd0b925060200190505b60405180910390a150565b620005ba6200107e565b6001600160a01b03811662000630576040517f08c379a000000000000000000000000000000000000000000000000000000000815260206004820152601360248201527f556e6f52653a207a65726f20616464726573730000000000000000000000000060448201526064015b60405180910390fd5b6002805473ffffffffffffffffffffffffffffffffffffffff19166001600160a01b0383169081179091556040517faa0150507cbcab99f33127173fcbdd580e5710d253406b99952e1feda3cdcc0e90600090a250565b620006916200107e565b600560009054906101000a90046001600160a01b03166001600160a01b031663677554156040518163ffffffff1660e01b8152600401600060405180830381600087803b158015620006e257600080fd5b505af1158015620006f7573d6000803e3d6000fd5b50505050565b620007076200107e565b600560009054906101000a90046001600160a01b03166001600160a01b0316637a39b8d86040518163ffffffff1660e01b8152600401600060405180830381600087803b158015620006e257600080fd5b620007626200107e565b6200076e6000620010c6565b565b6200077a6200107e565b6200078462001125565b62000790600862001169565b506008546040805180820182526001600160a01b038481168083526000602080850182815261ffff8816808452600683528784209651875492511515600160a01b027fffffffffffffffffffffff000000000000000000000000000000000000000000909316961695909517179094558181526007845284902080547fffffffffffffffffffffffffffffffffffffffffffffffffffffffffffff000016831790558351918252918101919091527fc3971223019c1361f0a91605997c54932599b5f815f2f7d49e183fbc21014029910160405180910390a150620008756001600055565b50565b620008826200107e565b6005546040517f6c19e7830000000000000000000000000000000000000000000000000000000081526001600160a01b03838116600483015290911690636c19e78390602401600060405180830381600087803b158015620008e357600080fd5b505af1158015620008f8573d6000803e3d6000fd5b50506040516001600160a01b03841681527f9b62fe13476d0a7f908d90e180935392e86c56b8a7cf8c5235044b0c79419adc92506020019050620005a5565b620009416200107e565b61ffff81166000818152600660209081526040918290208054600160a01b7fffffffffffffffffffffff00ffffffffffffffffffffffffffffffffffffffff82161790915591519283526001600160a01b03909116917f599cca7c0d636819ca3833dcdbcd266536199c19522d35eb59e13d07f1041770910160405180910390a250565b620009cf6200107e565b6001600160a01b03811660008181526007602090815260408083205461ffff16808452600683529281902080547fffffffffffffffffffffff00ffffffffffffffffffffffffffffffffffffffff16600160a01b179055518281529192917f599cca7c0d636819ca3833dcdbcd266536199c19522d35eb59e13d07f1041770910160405180910390a25050565b600062000a686200107e565b62000a7262001125565b60095460405160009130918791879187916001600160a01b03169062000a98906200118e565b6001600160a01b0395861681529385166020850152918416604084015283166060830152909116608082015260a001604051809103906000f08015801562000ae4573d6000803e3d6000fd5b506005805473ffffffffffffffffffffffffffffffffffffffff19166001600160a01b03838116918217909255600480546040517f7d4163d3000000000000000000000000000000000000000000000000000000008152918201929092529293501690637d4163d390602401600060405180830381600087803b15801562000b6b57600080fd5b505af115801562000b80573d6000803e3d6000fd5b5092935050505062000b926001600055565b9392505050565b62000ba36200107e565b6005546040517f18a00d8e0000000000000000000000000000000000000000000000000000000081526001600160a01b038381166004830152909116906318a00d8e90602401600060405180830381600087803b15801562000c0457600080fd5b505af115801562000c19573d6000803e3d6000fd5b50506040516001600160a01b03841681527fe4fe8844d1e5998ef63f21ffbff963c6c413c8652c2d1d5e789cafabd2cc693b92506020019050620005a5565b62000c626200107e565b6005546040517f9da0e7380000000000000000000000000000000000000000000000000000000081526001600160a01b0390911690639da0e7389062000cad9084906004016200136f565b600060405180830381600087803b15801562000cc857600080fd5b505af115801562000cdd573d6000803e3d6000fd5b505050507fe2320890b741157bc1c8bfacd484c1bcc09e63bb2ac13f0c2c026e7dd4cc26e981604051620005a591906200136f565b62000d1c6200107e565b6005546040517fc2eb8eb90000000000000000000000000000000000000000000000000000000081526001600160a01b0383811660048301529091169063c2eb8eb990602401600060405180830381600087803b15801562000d7d57600080fd5b505af115801562000d92573d6000803e3d6000fd5b50506040516001600160a01b03841681527fd5b4f49340c2225ec716a0c588248053821d16fbfc897c021f23e664ed2ffd7792506020019050620005a5565b62000ddb6200107e565b6000811162000e47576040517f08c379a000000000000000000000000000000000000000000000000000000000815260206004820152601860248201527f556e6f52653a207a65726f206d617820646561646c696e650000000000000000604482015260640162000627565b6005546040517ffda2071d000000000000000000000000000000000000000000000000000000008152600481018390526001600160a01b039091169063fda2071d90602401600060405180830381600087803b15801562000ea757600080fd5b505af115801562000ebc573d6000803e3d6000fd5b505050507f6b9b557bfefa92e934516e0d9934ba204689bdbb8d6279ec351b1f67b267f76d81604051620005a591815260200190565b62000efc6200107e565b60018054821515600160a01b027fffffffffffffffffffffff00ffffffffffffffffffffffffffffffffffffffff9091161790556040517f8488d1fbbfabc3e41bea48b6d06c5139182eccbd9942a27a1142748120d0285890620005a590831515815260200190565b62000f6f6200107e565b6005546040517f21ecf7010000000000000000000000000000000000000000000000000000000081526001600160a01b038381166004830152909116906321ecf70190602401600060405180830381600087803b15801562000fd057600080fd5b505af115801562000fe5573d6000803e3d6000fd5b50506040516001600160a01b03841681527fa1ebcc173cc3b3fe102bd730c868e636d67232919419b2865b10ec2c0eb7f4dc92506020019050620005a5565b6200102e6200107e565b6001600160a01b03811662001073576040517f1e4fbdf70000000000000000000000000000000000000000000000000000000081526000600482015260240162000627565b6200087581620010c6565b6001546001600160a01b031633146200076e576040517f118cdaa700000000000000000000000000000000000000000000000000000000815233600482015260240162000627565b600180546001600160a01b0383811673ffffffffffffffffffffffffffffffffffffffff19831681179093556040519116919082907f8be0079c531659141344cd1fd0a4f28419497f9722a3daafe3b4186f6b6457e090600090a35050565b60026000540362001162576040517f3ee5aeb500000000000000000000000000000000000000000000000000000000815260040160405180910390fd5b6002600055565b60006001826000016000828254620011829190620013c0565b90915550509054919050565b6149d7806200140283390190565b80356001600160a01b0381168114620011b457600080fd5b919050565b600060208284031215620011cc57600080fd5b62000b92826200119c565b600060208284031215620011ea57600080fd5b813561ffff8116811462000b9257600080fd5b6000806000606084860312156200121357600080fd5b6200121e846200119c565b92506200122e602085016200119c565b91506200123e604085016200119c565b90509250925092565b7f4e487b7100000000000000000000000000000000000000000000000000000000600052604160045260246000fd5b6000602082840312156200128957600080fd5b813567ffffffffffffffff80821115620012a257600080fd5b818401915084601f830112620012b757600080fd5b813581811115620012cc57620012cc62001247565b604051601f8201601f19908116603f01168101908382118183101715620012f757620012f762001247565b816040528281528760208487010111156200131157600080fd5b826020860160208301376000928101602001929092525095945050505050565b6000602082840312156200134457600080fd5b5035919050565b6000602082840312156200135e57600080fd5b8135801515811462000b9257600080fd5b60006020808352835180602085015260005b818110156200139f5785810183015185820160400152820162001381565b506000604082860101526040601f19601f8301168501019250505092915050565b80820180821115620013fb577f4e487b7100000000000000000000000000000000000000000000000000000000600052601160045260246000fd5b9291505056fe60c06040526000196013553480156200001757600080fd5b50604051620049d7380380620049d78339810160408190526200003a91620003dc565b6040518060400160405280601081526020016f506f6c69637920696e737572616e636560801b8152506040518060400160405280601081526020016f506f6c69637920696e737572616e636560801b8152506040518060400160405280601881526020017f427579506f6c6963794d6574615472616e73616374696f6e0000000000000000815250604051806040016040528060018152602001603160f81b81525081816040518060800160405280604f815260200162004988604f913980519060200120828051906020012082805190602001203062000120620003bb60201b60201c565b60408051602081019690965285019390935260608401919091526001600160a01b0316608083015260a082015260c00160408051601f198184030181529190528051602090910120600055506002925062000180915084905082620004f3565b5060036200018f8282620004f3565b50506001600855506009805460ff191690556001600160a01b038516620001fd5760405162461bcd60e51b815260206004820152601b60248201527f556e6f52653a207a65726f20666163746f72792061646472657373000000000060448201526064015b60405180910390fd5b6001600160a01b0384166200025f5760405162461bcd60e51b815260206004820152602160248201527f556e6f52653a207a65726f2065786368616e67654167656e74206164647265736044820152607360f81b6064820152608401620001f4565b6001600160a01b038316620002b75760405162461bcd60e51b815260206004820152601f60248201527f556e6f52653a207a65726f207072656d69756d506f6f6c2061646472657373006044820152606401620001f4565b6001600160a01b0382166200030f5760405162461bcd60e51b815260206004820181905260248201527f556e6f52653a207a65726f206361706974616c4167656e7420616464726573736044820152606401620001f4565b6001600160a01b038116620003675760405162461bcd60e51b815260206004820152601860248201527f556e6f52653a207a65726f2055534443206164647265737300000000000000006044820152606401620001f4565b6001600160a01b03948516608052600b80549486166001600160a01b0319958616179055600d805492861692851692909217909155831660a052600c805491909316911617905562093a80600a55620005bf565b4690565b80516001600160a01b0381168114620003d757600080fd5b919050565b600080600080600060a08688031215620003f557600080fd5b6200040086620003bf565b94506200041060208701620003bf565b93506200042060408701620003bf565b92506200043060608701620003bf565b91506200044060808701620003bf565b90509295509295909350565b634e487b7160e01b600052604160045260246000fd5b600181811c908216806200047757607f821691505b6020821081036200049857634e487b7160e01b600052602260045260246000fd5b50919050565b601f821115620004ee576000816000526020600020601f850160051c81016020861015620004c95750805b601f850160051c820191505b81811015620004ea57828155600101620004d5565b5050505b505050565b81516001600160401b038111156200050f576200050f6200044c565b620005278162000520845462000462565b846200049e565b602080601f8311600181146200055f5760008415620005465750858301515b600019600386901b1c1916600185901b178555620004ea565b600085815260208120601f198616915b8281101562000590578886015182559484019460019091019084016200056f565b5085821015620005af5787850151600019600388901b60f8161c191681555b5050505050600190811b01905550565b60805160a051614348620006406000396000818161036b01526115e10152600081816107d401528181610d0a01528181610e4201528181610f7a0152818161197601528181611a0801528181611ba101528181611c4001528181611ea3015281816120430152818161294701528181612a950152612b4301526143486000f3fe6080604052600436106102895760003560e01c80635c975abb11610153578063a22cb465116100cb578063c87b56dd1161007f578063de4e420111610064578063de4e42011461082b578063e985e9c514610841578063fda2071d1461088a57600080fd5b8063c87b56dd146107f6578063d341960b1461081657600080fd5b8063b88d4fde116100b0578063b88d4fde14610782578063c2eb8eb9146107a2578063c45a0155146107c257600080fd5b8063a22cb46514610742578063a5d5e1421461076257600080fd5b806370a08231116101225780637a5402e9116101075780637a5402e91461068b57806395d89b411461070d5780639da0e7381461072257600080fd5b806370a08231146106565780637a39b8d81461067657600080fd5b80635c975abb146105e95780636352211e1461060157806367755415146106215780636c19e7831461063657600080fd5b8063238ac9331161020157806333b3691e116101b557806342842e0e1161019a57806342842e0e146105735780634ba69faa14610593578063560ebbd1146105b357600080fd5b806333b3691e14610533578063421981601461055357600080fd5b80632b07fce3116101e65780632b07fce31461042d5780632d0335ab146104dc5780632fb172df1461052057600080fd5b8063238ac933146103ed57806323b872dd1461040d57600080fd5b80630c53c51c1161025857806318a00d8e1161023d57806318a00d8e1461038d5780631bcc2472146103ad57806321ecf701146103cd57600080fd5b80630c53c51c1461034657806311eac8551461035957600080fd5b806301ffc9a71461029557806306fdde03146102ca578063081812fc146102ec578063095ea7b31461032457600080fd5b3661029057005b600080fd5b3480156102a157600080fd5b506102b56102b0366004613915565b6108aa565b60405190151581526020015b60405180910390f35b3480156102d657600080fd5b506102df61098f565b6040516102c19190613982565b3480156102f857600080fd5b5061030c610307366004613995565b610a21565b6040516001600160a01b0390911681526020016102c1565b34801561033057600080fd5b5061034461033f3660046139d3565b610a4a565b005b6102df610354366004613acf565b610a59565b34801561036557600080fd5b5061030c7f000000000000000000000000000000000000000000000000000000000000000081565b34801561039957600080fd5b506103446103a8366004613b43565b610d08565b3480156103b957600080fd5b506103446103c8366004613b43565b610e40565b3480156103d957600080fd5b506103446103e8366004613b43565b610f78565b3480156103f957600080fd5b50600e5461030c906001600160a01b031681565b34801561041957600080fd5b50610344610428366004613b60565b611114565b34801561043957600080fd5b5061049a610448366004613995565b601160205260009081526040902080546001820154600283015460038401546004909401549293919290916001600160a01b03908116919081169060ff600160a01b8204811691600160a81b90041687565b604080519788526020880196909652948601939093526001600160a01b039182166060860152166080840152151560a0830152151560c082015260e0016102c1565b3480156104e857600080fd5b506105126104f7366004613b43565b6001600160a01b031660009081526001602052604090205490565b6040519081526020016102c1565b61034461052e366004613c9c565b6111b8565b34801561053f57600080fd5b5061034461054e366004613995565b611769565b34801561055f57600080fd5b50600d5461030c906001600160a01b031681565b34801561057f57600080fd5b5061034461058e366004613b60565b611949565b34801561059f57600080fd5b50600c5461030c906001600160a01b031681565b3480156105bf57600080fd5b5061030c6105ce366004613995565b6012602052600090815260409020546001600160a01b031681565b3480156105f557600080fd5b5060095460ff166102b5565b34801561060d57600080fd5b5061030c61061c366004613995565b611969565b34801561062d57600080fd5b50610344611974565b34801561064257600080fd5b50610344610651366004613b43565b611a06565b34801561066257600080fd5b50610512610671366004613b43565b611b3e565b34801561068257600080fd5b50610344611b9f565b34801561069757600080fd5b506106e16106a6366004613995565b600090815260116020526040902060048101546002820154600183015492549093909160ff600160a01b8204811692600160a81b9092041690565b60408051958652602086019490945292840191909152151560608301521515608082015260a0016102c1565b34801561071957600080fd5b506102df611c2f565b34801561072e57600080fd5b5061034461073d366004613da0565b611c3e565b34801561074e57600080fd5b5061034461075d366004613df7565b611d17565b34801561076e57600080fd5b5061034461077d366004613995565b611d22565b34801561078e57600080fd5b5061034461079d366004613e30565b611e8a565b3480156107ae57600080fd5b506103446107bd366004613b43565b611ea1565b3480156107ce57600080fd5b5061030c7f000000000000000000000000000000000000000000000000000000000000000081565b34801561080257600080fd5b506102df610811366004613995565b611fd9565b34801561082257600080fd5b50601054610512565b34801561083757600080fd5b50610512600a5481565b34801561084d57600080fd5b506102b561085c366004613e9c565b6001600160a01b03918216600090815260076020908152604080832093909416825291909152205460ff1690565b34801561089657600080fd5b506103446108a5366004613995565b612041565b60007fffffffff0000000000000000000000000000000000000000000000000000000082167f80ac58cd00000000000000000000000000000000000000000000000000000000148061093d57507fffffffff0000000000000000000000000000000000000000000000000000000082167f5b5e139f00000000000000000000000000000000000000000000000000000000145b8061098957507f01ffc9a7000000000000000000000000000000000000000000000000000000007fffffffff000000000000000000000000000000000000000000000000000000008316145b92915050565b60606002805461099e90613eca565b80601f01602080910402602001604051908101604052809291908181526020018280546109ca90613eca565b8015610a175780601f106109ec57610100808354040283529160200191610a17565b820191906000526020600020905b8154815290600101906020018083116109fa57829003601f168201915b5050505050905090565b6000610a2c82612150565b506000828152600660205260409020546001600160a01b0316610989565b610a55828233612189565b5050565b60606000610a6686612196565b90507fffffffff00000000000000000000000000000000000000000000000000000000600035811690821603610b095760405162461bcd60e51b815260206004820152603d60248201527f66756e6374696f6e5369676e61747572652063616e206e6f74206265206f662060448201527f657865637574654d6574615472616e73616374696f6e206d6574686f6400000060648201526084015b60405180910390fd5b604080516060810182526001600160a01b03891660008181526001602090815290849020548352820152908101879052610b4688828888886121b1565b610bb85760405162461bcd60e51b815260206004820152602160248201527f5369676e657220616e64207369676e617475726520646f206e6f74206d61746360448201527f68000000000000000000000000000000000000000000000000000000000000006064820152608401610b00565b6001600160a01b038816600090815260016020819052604090912054610bdd91613f1a565b6001600160a01b0389166000908152600160209081526040808320939093559151909182913091610c12918c918e9101613f2d565b60408051601f1981840301815290829052610c2c91613f64565b6000604051808303816000865af19150503d8060008114610c69576040519150601f19603f3d011682016040523d82523d6000602084013e610c6e565b606091505b509150915081610cc05760405162461bcd60e51b815260206004820152601c60248201527f46756e6374696f6e2063616c6c206e6f74207375636365737366756c000000006044820152606401610b00565b7f5845892132946850460bff5a0083f71031bc5bf9aadcd40f1de79423eac9b10b8a338b604051610cf393929190613f80565b60405180910390a19998505050505050505050565b7f00000000000000000000000000000000000000000000000000000000000000006001600160a01b0316610d3a61224f565b6001600160a01b031614610d905760405162461bcd60e51b815260206004820152601c60248201527f556e6f52653a2053616c6573506f6c69637920466f7262696464656e000000006044820152606401610b00565b6001600160a01b038116610de65760405162461bcd60e51b815260206004820152601360248201527f556e6f52653a207a65726f2061646472657373000000000000000000000000006044820152606401610b00565b600b805473ffffffffffffffffffffffffffffffffffffffff19166001600160a01b0383169081179091556040513091907f5ca4aeaf5ab178bf08d3e1eb491b9a13a2de5b100038437cf5ed0e361fff8f3790600090a350565b7f00000000000000000000000000000000000000000000000000000000000000006001600160a01b0316610e7261224f565b6001600160a01b031614610ec85760405162461bcd60e51b815260206004820152601c60248201527f556e6f52653a2053616c6573506f6c69637920466f7262696464656e000000006044820152606401610b00565b6001600160a01b038116610f1e5760405162461bcd60e51b815260206004820152601360248201527f556e6f52653a207a65726f2061646472657373000000000000000000000000006044820152606401610b00565b600c805473ffffffffffffffffffffffffffffffffffffffff19166001600160a01b0383169081179091556040513091907fb6f78fe449cc310adeef201f18b6afe9569041a997be6b619607692854999c8190600090a350565b7f00000000000000000000000000000000000000000000000000000000000000006001600160a01b0316610faa61224f565b6001600160a01b0316146110005760405162461bcd60e51b815260206004820152601c60248201527f556e6f52653a2053616c6573506f6c69637920466f7262696464656e000000006044820152606401610b00565b6001600160a01b0381166110565760405162461bcd60e51b815260206004820152601360248201527f556e6f52653a207a65726f2061646472657373000000000000000000000000006044820152606401610b00565b600c546001600160a01b03166110ae5760405162461bcd60e51b815260206004820152601e60248201527f556e6f52653a206e6f742064656669656e64207072656d69756d506f6f6c00006044820152606401610b00565b600c546013546110cb9183916001600160a01b03909116906122ab565b600c546040516001600160a01b0391821681529082169030907fc571353a8852cd132c515d367a4fa7c21e9c38baf9c7e9818f59d40b2b156b7c9060200160405180910390a350565b6001600160a01b03821661113e57604051633250574960e11b815260006004820152602401610b00565b600061114b83833361241a565b9050836001600160a01b0316816001600160a01b0316146111b2576040517f64283d7b0000000000000000000000000000000000000000000000000000000081526001600160a01b0380861660048301526024820184905282166044820152606401610b00565b50505050565b6111c0612520565b6111c861255d565b8951806112175760405162461bcd60e51b815260206004820152601060248201527f556e6f52653a206e6f20706f6c696379000000000000000000000000000000006044820152606401610b00565b8b51811461128d5760405162461bcd60e51b815260206004820152602760248201527f556e6f52653a206e6f206d617463682070726f746f636f6c496473207769746860448201527f20617373657473000000000000000000000000000000000000000000000000006064820152608401610b00565b895181146113035760405162461bcd60e51b815260206004820152602f60248201527f556e6f52653a206e6f206d617463682070726f746f636f6c496473207769746860448201527f20636f766572616765416d6f756e7400000000000000000000000000000000006064820152608401610b00565b885181146113795760405162461bcd60e51b815260206004820152603160248201527f556e6f52653a206e6f206d617463682070726f746f636f6c496473207769746860448201527f20636f7665726167654475726174696f6e0000000000000000000000000000006064820152608401610b00565b600061138e898d8c8e8c8c8c8c8c8c336125a0565b90506001600160a01b038116158015906113b55750600e546001600160a01b038281169116145b6114015760405162461bcd60e51b815260206004820152601560248201527f556e6f52653a20696e76616c6964207369676e657200000000000000000000006044820152606401610b00565b42881115801561141b5750600a546114198942613fb5565b105b6114675760405162461bcd60e51b815260206004820152601860248201527f556e6f52653a207369676e6174757265206578706972656400000000000000006044820152606401610b00565b60006001600160a01b0388166115df57600b546040517f531a2211000000000000000000000000000000000000000000000000000000008152600481018c90526001600160a01b039091169063531a221190602401602060405180830381865afa1580156114d9573d6000803e3d6000fd5b505050506040513d601f19601f820116820180604052508101906114fd9190613fc8565b90508034101561154f5760405162461bcd60e51b815260206004820152601860248201527f556e6f52653a20696e73756666696369656e74207061696400000000000000006044820152606401610b00565b803411156115715761157161156261224f565b61156c8334613fb5565b6126df565b600c60009054906101000a90046001600160a01b03166001600160a01b031663bc181416826040518263ffffffff1660e01b81526004016000604051808303818588803b1580156115c157600080fd5b505af11580156115d5573d6000803e3d6000fd5b5050505050611741565b7f00000000000000000000000000000000000000000000000000000000000000006001600160a01b0316886001600160a01b03160361161e57896116ac565b600b546040517fa9a12d430000000000000000000000000000000000000000000000000000000081526001600160a01b038a81166004830152602482018d90529091169063a9a12d4390604401602060405180830381865afa158015611688573d6000803e3d6000fd5b505050506040513d601f19601f820116820180604052508101906116ac9190613fc8565b90506116c1886116ba61224f565b30846127c2565b600c546040517f8c8ac76d0000000000000000000000000000000000000000000000000000000081526001600160a01b038a811660048301526024820184905290911690638c8ac76d90604401600060405180830381600087803b15801561172857600080fd5b505af115801561173c573d6000803e3d6000fd5b505050505b61174f8e8e8e8e858d61293a565b50505061175c6001600855565b5050505050505050505050565b61177161255d565b600d546001600160a01b031661178561224f565b6001600160a01b0316146117db5760405162461bcd60e51b815260206004820152601c60248201527f556e6f52653a2053616c6573506f6c69637920466f7262696464656e000000006044820152606401610b00565b600081815260116020526040902060040154600160a01b900460ff166118435760405162461bcd60e51b815260206004820152601e60248201527f556e6f52653a206d61726b656420746f20636c61696d20616c726561647900006044820152606401610b00565b600081815260116020526040902060040154600160a81b900460ff16156118ac5760405162461bcd60e51b815260206004820152601560248201527f556e6f52653a20706f6c696379206578706972656400000000000000000000006044820152606401610b00565b600081815260116020526040902060040180547fffffffffffffffffffffff00ffffffffffffffffffffffffffffffffffffffff1690556118ec81612e7b565b807f048ce8e17c5255ee6428918540ffd64ab271d402ec9f5cdc6976d66043b174ab601160008481526020019081526020016000206002015460405161193491815260200190565b60405180910390a26119466001600855565b50565b61196483838360405180602001604052806000815250611e8a565b505050565b600061098982612150565b7f00000000000000000000000000000000000000000000000000000000000000006001600160a01b03166119a661224f565b6001600160a01b0316146119fc5760405162461bcd60e51b815260206004820152601c60248201527f556e6f52653a2053616c6573506f6c69637920466f7262696464656e000000006044820152606401610b00565b611a04612eb6565b565b7f00000000000000000000000000000000000000000000000000000000000000006001600160a01b0316611a3861224f565b6001600160a01b031614611a8e5760405162461bcd60e51b815260206004820152601c60248201527f556e6f52653a2053616c6573506f6c69637920466f7262696464656e000000006044820152606401610b00565b6001600160a01b038116611ae45760405162461bcd60e51b815260206004820152601360248201527f556e6f52653a207a65726f2061646472657373000000000000000000000000006044820152606401610b00565b600e805473ffffffffffffffffffffffffffffffffffffffff19166001600160a01b0383169081179091556040513091907f8e2c76c578fb1494886741ea1b707ab0b9b0f8001354273d5b491bd68299720e90600090a350565b60006001600160a01b038216611b83576040517f89c62b6400000000000000000000000000000000000000000000000000000000815260006004820152602401610b00565b506001600160a01b031660009081526005602052604090205490565b7f00000000000000000000000000000000000000000000000000000000000000006001600160a01b0316611bd161224f565b6001600160a01b031614611c275760405162461bcd60e51b815260206004820152601c60248201527f556e6f52653a2053616c6573506f6c69637920466f7262696464656e000000006044820152606401610b00565b611a04612f08565b60606003805461099e90613eca565b7f00000000000000000000000000000000000000000000000000000000000000006001600160a01b0316611c7061224f565b6001600160a01b031614611cc65760405162461bcd60e51b815260206004820152601c60248201527f556e6f52653a2053616c6573506f6c69637920466f7262696464656e000000006044820152606401610b00565b600f611cd28282614029565b50306001600160a01b03167f970aa99b4d9e40ecd777dc926534019dbf26bef2c6021c90c036984b5a9e0fde82604051611d0c9190613982565b60405180910390a250565b610a55338383612f45565b611d2a61255d565b600d546001600160a01b0316611d3e61224f565b6001600160a01b031614611d945760405162461bcd60e51b815260206004820152601c60248201527f556e6f52653a2053616c6573506f6c69637920466f7262696464656e000000006044820152606401610b00565b600081815260116020526040902060040154600160a01b900460ff16611dfc5760405162461bcd60e51b815260206004820152601e60248201527f556e6f52653a206d61726b656420746f20636c61696d20616c726561647900006044820152606401610b00565b600081815260116020526040902060040180547fffffffffffffffffffff00ffffffffffffffffffffffffffffffffffffffffff16600160a81b179055611e4281612e7b565b807f184fb82e16552a73263d53d4dcb23c8300d042a0578b8633d30680ac2f09f076601160008481526020019081526020016000206002015460405161193491815260200190565b611e95848484611114565b6111b284848484612ffd565b7f00000000000000000000000000000000000000000000000000000000000000006001600160a01b0316611ed361224f565b6001600160a01b031614611f295760405162461bcd60e51b815260206004820152601c60248201527f556e6f52653a2053616c6573506f6c69637920466f7262696464656e000000006044820152606401610b00565b6001600160a01b038116611f7f5760405162461bcd60e51b815260206004820152601360248201527f556e6f52653a207a65726f2061646472657373000000000000000000000000006044820152606401610b00565b600d805473ffffffffffffffffffffffffffffffffffffffff19166001600160a01b0383169081179091556040513091907f8dadc789ed91201272dd8c71737c6f84bb2d72bca3f5ec01601694cda82868c090600090a350565b6060611fe482612150565b506000611fef613169565b9050600081511161200f576040518060200160405280600081525061203a565b8061201984613178565b60405160200161202a9291906140e9565b6040516020818303038152906040525b9392505050565b7f00000000000000000000000000000000000000000000000000000000000000006001600160a01b031661207361224f565b6001600160a01b0316146120c95760405162461bcd60e51b815260206004820152601c60248201527f556e6f52653a2053616c6573506f6c69637920466f7262696464656e000000006044820152606401610b00565b600081116121195760405162461bcd60e51b815260206004820152601a60248201527f556e6f52653a207a65726f206d6178207369676e656454696d650000000000006044820152606401610b00565b600a81905560405181815230907fef0e0784016a6db87327a652697e3f4ff408f7e7951378b26c113979017f7f0290602001611d0c565b6000818152600460205260408120546001600160a01b03168061098957604051637e27328960e01b815260048101849052602401610b00565b6119648383836001613218565b600081516000036121a957506000919050565b506020015190565b6000806121c56121c087613363565b6133e0565b905060006121d582858888613424565b90506001600160a01b03811661222d5760405162461bcd60e51b815260206004820152601160248201527f496e76616c6964207369676e61747572650000000000000000000000000000006044820152606401610b00565b876001600160a01b0316816001600160a01b0316149250505095945050505050565b60003033036122a557600080368080601f0160208091040260200160405190810160405280939291908181526020018383808284376000920191909152505050503601516001600160a01b031691506122a89050565b50335b90565b604080516001600160a01b038481166024830152604480830185905283518084039091018152606490920183526020820180517bffffffffffffffffffffffffffffffffffffffffffffffffffffffff167f095ea7b30000000000000000000000000000000000000000000000000000000017905291516000928392908716916123359190613f64565b6000604051808303816000865af19150503d8060008114612372576040519150601f19603f3d011682016040523d82523d6000602084013e612377565b606091505b50915091508180156123a15750805115806123a15750808060200190518101906123a19190614118565b6124135760405162461bcd60e51b815260206004820152602b60248201527f5472616e7366657248656c7065723a3a73616665417070726f76653a2061707060448201527f726f7665206661696c65640000000000000000000000000000000000000000006064820152608401610b00565b5050505050565b6000828152600460205260408120546001600160a01b039081169083161561244757612447818486613452565b6001600160a01b0381161561248557612464600085600080613218565b6001600160a01b038116600090815260056020526040902080546000190190555b6001600160a01b038516156124b4576001600160a01b0385166000908152600560205260409020805460010190555b600084815260046020526040808220805473ffffffffffffffffffffffffffffffffffffffff19166001600160a01b0389811691821790925591518793918516917fddf252ad1be2c89b69c2b068fc378daa952ba7f163c4a11628f55a4df523b3ef91a4949350505050565b60095460ff1615611a04576040517fd93c066500000000000000000000000000000000000000000000000000000000815260040160405180910390fd5b600260085403612599576040517f3ee5aeb500000000000000000000000000000000000000000000000000000000815260040160405180910390fd5b6002600855565b6000808c8c8c8c8c8c8989466040516020016125c499989796959493929190614168565b60408051601f198184030181529181528151602092830120600081815260129093529120549091506001600160a01b0316156126425760405162461bcd60e51b815260206004820152601160248201527f416c7265616479207573656420686173680000000000000000000000000000006044820152606401610b00565b6000818152601260209081526040808320805473ffffffffffffffffffffffffffffffffffffffff19166001600160a01b03881617905580517f19457468657265756d205369676e6564204d6573736167653a0a33320000000081840152603c80820186905282518083039091018152605c9091019091528051910120906126cc82888b8b613424565b9f9e505050505050505050505050505050565b604080516000808252602082019092526001600160a01b0384169083906040516127099190613f64565b60006040518083038185875af1925050503d8060008114612746576040519150601f19603f3d011682016040523d82523d6000602084013e61274b565b606091505b50509050806119645760405162461bcd60e51b815260206004820152603460248201527f5472616e7366657248656c7065723a3a736166655472616e736665724554483a60448201527f20455448207472616e73666572206661696c65640000000000000000000000006064820152608401610b00565b604080516001600160a01b0385811660248301528481166044830152606480830185905283518084039091018152608490920183526020820180517bffffffffffffffffffffffffffffffffffffffffffffffffffffffff167f23b872dd0000000000000000000000000000000000000000000000000000000017905291516000928392908816916128549190613f64565b6000604051808303816000865af19150503d8060008114612891576040519150601f19603f3d011682016040523d82523d6000602084013e612896565b606091505b50915091508180156128c05750805115806128c05750808060200190518101906128c09190614118565b6129325760405162461bcd60e51b815260206004820152603160248201527f5472616e7366657248656c7065723a3a7472616e7366657246726f6d3a20747260448201527f616e7366657246726f6d206661696c65640000000000000000000000000000006064820152608401610b00565b505050505050565b60008060008060008060007f00000000000000000000000000000000000000000000000000000000000000006001600160a01b031663222a5df66040518163ffffffff1660e01b8152600401602060405180830381865afa1580156129a3573d6000803e3d6000fd5b505050506040513d601f19601f820116820180604052508101906129c79190614118565b905060005b8c51811015612ded5760106000015496508b81815181106129ef576129ef6141f7565b602002602001015195508a8181518110612a0b57612a0b6141f7565b602002602001015194508c8181518110612a2757612a276141f7565b602002602001015193508d8181518110612a4357612a436141f7565b6020026020010151925060008a905060008315612bca576040517f6c18443d0000000000000000000000000000000000000000000000000000000081526001600160a01b0387811660048301526000917f000000000000000000000000000000000000000000000000000000000000000090911690636c18443d90602401602060405180830381865afa158015612ade573d6000803e3d6000fd5b505050506040513d601f19601f82011682018060405250810190612b02919061420d565b905061ffff811615612bc4576040517fbbd9d8e100000000000000000000000000000000000000000000000000000000815261ffff821660048201526000907f00000000000000000000000000000000000000000000000000000000000000006001600160a01b03169063bbd9d8e1906024016040805180830381865afa158015612b91573d6000803e3d6000fd5b505050506040513d601f19601f82011682018060405250810190612bb59190614231565b91505080612bc257600192505b505b50612bce565b5060015b80612c1b5760405162461bcd60e51b815260206004820152601960248201527f556e6f52653a20756e617661696c61626c6520706f6c696379000000000000006044820152606401610b00565b6040518060e00160405280428152602001888152602001898152602001876001600160a01b031681526020018c6001600160a01b0316815260200160011515815260200160001515815250601160008b815260200190815260200160002060008201518160000155602082015181600101556040820151816002015560608201518160030160006101000a8154816001600160a01b0302191690836001600160a01b0316021790555060808201518160040160006101000a8154816001600160a01b0302191690836001600160a01b0316021790555060a08201518160040160146101000a81548160ff02191690831515021790555060c08201518160040160156101000a81548160ff021916908315150217905550905050612d45612d3f61224f565b8a6134cf565b612d4f888b613f1a565b995088856001600160a01b0316612d6461224f565b6001600160a01b03167f15c2b464a5dd92b73eb56515f6c99c04fbeec68d56dda66903c8a136d53e27f18e8a8d8d89604051612dd09594939291906001600160a01b03958616815293909416602084015260408301919091526060820152608081019190915260a00190565b60405180910390a4612de2601061354d565b5050506001016129cc565b508615612e6c57600d546040517fa0931af2000000000000000000000000000000000000000000000000000000008152600481018990526001600160a01b039091169063a0931af290602401600060405180830381600087803b158015612e5357600080fd5b505af1158015612e67573d6000803e3d6000fd5b505050505b50505050505050505050505050565b6000612e8a600083600061241a565b90506001600160a01b038116610a5557604051637e27328960e01b815260048101839052602401610b00565b612ebe613570565b6009805460ff191690557f5db9ee0a495bf2e6ff9c91a7834c1ba4fdd244a5e8aa4e537bd38aeae4b073aa335b6040516001600160a01b03909116815260200160405180910390a1565b612f10612520565b6009805460ff191660011790557f62e78cea01bee320cd4e420270b5ea74000d11b0c9f74754ebdbfc544b05a258612eeb3390565b6001600160a01b038216612f90576040517f5b08ba180000000000000000000000000000000000000000000000000000000081526001600160a01b0383166004820152602401610b00565b6001600160a01b03838116600081815260076020908152604080832094871680845294825291829020805460ff191686151590811790915591519182527f17307eab39ab6107e8899845ad3d59bd9653f200f220920489ca2b5937696c31910160405180910390a3505050565b6001600160a01b0383163b156111b2576040517f150b7a020000000000000000000000000000000000000000000000000000000081526001600160a01b0384169063150b7a0290613058903390889087908790600401614260565b6020604051808303816000875af1925050508015613093575060408051601f3d908101601f191682019092526130909181019061429c565b60015b6130fc573d8080156130c1576040519150601f19603f3d011682016040523d82523d6000602084013e6130c6565b606091505b5080516000036130f457604051633250574960e11b81526001600160a01b0385166004820152602401610b00565b805181602001fd5b7fffffffff0000000000000000000000000000000000000000000000000000000081167f150b7a02000000000000000000000000000000000000000000000000000000001461241357604051633250574960e11b81526001600160a01b0385166004820152602401610b00565b6060600f805461099e90613eca565b60606000613185836135ac565b600101905060008167ffffffffffffffff8111156131a5576131a56139ff565b6040519080825280601f01601f1916602001820160405280156131cf576020820181803683370190505b5090508181016020015b600019017f3031323334353637383961626364656600000000000000000000000000000000600a86061a8153600a85049450846131d957509392505050565b808061322c57506001600160a01b03821615155b1561332657600061323c84612150565b90506001600160a01b038316158015906132685750826001600160a01b0316816001600160a01b031614155b801561329a57506001600160a01b0380821660009081526007602090815260408083209387168352929052205460ff16155b156132dc576040517fa9fbf51f0000000000000000000000000000000000000000000000000000000081526001600160a01b0384166004820152602401610b00565b81156133245783856001600160a01b0316826001600160a01b03167f8c5be1e5ebec7d5bd14f71427d1e84f3dd0314c0f7b2291e5b200ac8c7c3b92560405160405180910390a45b505b50506000908152600660205260409020805473ffffffffffffffffffffffffffffffffffffffff19166001600160a01b0392909216919091179055565b60006040518060800160405280604381526020016142d060439139805160209182012083518483015160408087015180519086012090516133c3950193845260208401929092526001600160a01b03166040830152606082015260800190565b604051602081830303815290604052805190602001209050919050565b600080546040517f190100000000000000000000000000000000000000000000000000000000000060208201526022810191909152604281018390526062016133c3565b6000806000806134368888888861368e565b925092509250613446828261375d565b50909695505050505050565b61345d838383613861565b611964576001600160a01b03831661348b57604051637e27328960e01b815260048101829052602401610b00565b6040517f177e802f0000000000000000000000000000000000000000000000000000000081526001600160a01b038316600482015260248101829052604401610b00565b6001600160a01b0382166134f957604051633250574960e11b815260006004820152602401610b00565b60006135078383600061241a565b90506001600160a01b03811615611964576040517f73c6ac6e00000000000000000000000000000000000000000000000000000000815260006004820152602401610b00565b600060018260000160008282546135649190613f1a565b90915550509054919050565b60095460ff16611a04576040517f8dfc202b00000000000000000000000000000000000000000000000000000000815260040160405180910390fd5b6000807a184f03e93ff9f4daa797ed6e38ed64bf6a1f01000000000000000083106135f5577a184f03e93ff9f4daa797ed6e38ed64bf6a1f010000000000000000830492506040015b6d04ee2d6d415b85acef81000000008310613621576d04ee2d6d415b85acef8100000000830492506020015b662386f26fc10000831061363f57662386f26fc10000830492506010015b6305f5e1008310613657576305f5e100830492506008015b612710831061366b57612710830492506004015b6064831061367d576064830492506002015b600a83106109895760010192915050565b600080807f7fffffffffffffffffffffffffffffff5d576e7357a4501ddfe92f46681b20a08411156136c95750600091506003905082613753565b604080516000808252602082018084528a905260ff891692820192909252606081018790526080810186905260019060a0016020604051602081039080840390855afa15801561371d573d6000803e3d6000fd5b5050604051601f1901519150506001600160a01b03811661374957506000925060019150829050613753565b9250600091508190505b9450945094915050565b6000826003811115613771576137716142b9565b0361377a575050565b600182600381111561378e5761378e6142b9565b036137c5576040517ff645eedf00000000000000000000000000000000000000000000000000000000815260040160405180910390fd5b60028260038111156137d9576137d96142b9565b03613813576040517ffce698f700000000000000000000000000000000000000000000000000000000815260048101829052602401610b00565b6003826003811115613827576138276142b9565b03610a55576040517fd78bce0c00000000000000000000000000000000000000000000000000000000815260048101829052602401610b00565b60006001600160a01b038316158015906138df5750826001600160a01b0316846001600160a01b031614806138bb57506001600160a01b0380851660009081526007602090815260408083209387168352929052205460ff165b806138df57506000828152600660205260409020546001600160a01b038481169116145b949350505050565b7fffffffff000000000000000000000000000000000000000000000000000000008116811461194657600080fd5b60006020828403121561392757600080fd5b813561203a816138e7565b60005b8381101561394d578181015183820152602001613935565b50506000910152565b6000815180845261396e816020860160208601613932565b601f01601f19169290920160200192915050565b60208152600061203a6020830184613956565b6000602082840312156139a757600080fd5b5035919050565b6001600160a01b038116811461194657600080fd5b80356139ce816139ae565b919050565b600080604083850312156139e657600080fd5b82356139f1816139ae565b946020939093013593505050565b634e487b7160e01b600052604160045260246000fd5b604051601f8201601f1916810167ffffffffffffffff81118282101715613a3e57613a3e6139ff565b604052919050565b600067ffffffffffffffff831115613a6057613a606139ff565b613a736020601f19601f86011601613a15565b9050828152838383011115613a8757600080fd5b828260208301376000602084830101529392505050565b600082601f830112613aaf57600080fd5b61203a83833560208501613a46565b803560ff811681146139ce57600080fd5b600080600080600060a08688031215613ae757600080fd5b8535613af2816139ae565b9450602086013567ffffffffffffffff811115613b0e57600080fd5b613b1a88828901613a9e565b9450506040860135925060608601359150613b3760808701613abe565b90509295509295909350565b600060208284031215613b5557600080fd5b813561203a816139ae565b600080600060608486031215613b7557600080fd5b8335613b80816139ae565b92506020840135613b90816139ae565b929592945050506040919091013590565b600067ffffffffffffffff821115613bbb57613bbb6139ff565b5060051b60200190565b600082601f830112613bd657600080fd5b81356020613beb613be683613ba1565b613a15565b8083825260208201915060208460051b870101935086841115613c0d57600080fd5b602086015b84811015613c32578035613c25816139ae565b8352918301918301613c12565b509695505050505050565b600082601f830112613c4e57600080fd5b81356020613c5e613be683613ba1565b8083825260208201915060208460051b870101935086841115613c8057600080fd5b602086015b84811015613c325780358352918301918301613c85565b60008060008060008060008060008060006101608c8e031215613cbe57600080fd5b67ffffffffffffffff808d351115613cd557600080fd5b613ce28e8e358f01613bc5565b9b508060208e01351115613cf557600080fd5b613d058e60208f01358f01613bc5565b9a508060408e01351115613d1857600080fd5b613d288e60408f01358f01613c3d565b99508060608e01351115613d3b57600080fd5b50613d4c8d60608e01358e01613c3d565b975060808c0135965060a08c01359550613d6860c08d016139c3565b945060e08c013593506101008c01359250613d866101208d01613abe565b91506101408c013590509295989b509295989b9093969950565b600060208284031215613db257600080fd5b813567ffffffffffffffff811115613dc957600080fd5b8201601f81018413613dda57600080fd5b6138df84823560208401613a46565b801515811461194657600080fd5b60008060408385031215613e0a57600080fd5b8235613e15816139ae565b91506020830135613e2581613de9565b809150509250929050565b60008060008060808587031215613e4657600080fd5b8435613e51816139ae565b93506020850135613e61816139ae565b925060408501359150606085013567ffffffffffffffff811115613e8457600080fd5b613e9087828801613a9e565b91505092959194509250565b60008060408385031215613eaf57600080fd5b8235613eba816139ae565b91506020830135613e25816139ae565b600181811c90821680613ede57607f821691505b602082108103613efe57634e487b7160e01b600052602260045260246000fd5b50919050565b634e487b7160e01b600052601160045260246000fd5b8082018082111561098957610989613f04565b60008351613f3f818460208801613932565b60609390931b6bffffffffffffffffffffffff19169190920190815260140192915050565b60008251613f76818460208701613932565b9190910192915050565b60006001600160a01b03808616835280851660208401525060606040830152613fac6060830184613956565b95945050505050565b8181038181111561098957610989613f04565b600060208284031215613fda57600080fd5b5051919050565b601f821115611964576000816000526020600020601f850160051c8101602086101561400a5750805b601f850160051c820191505b8181101561293257828155600101614016565b815167ffffffffffffffff811115614043576140436139ff565b614057816140518454613eca565b84613fe1565b602080601f83116001811461408c57600084156140745750858301515b600019600386901b1c1916600185901b178555612932565b600085815260208120601f198616915b828110156140bb5788860151825594840194600190910190840161409c565b50858210156140d95787850151600019600388901b60f8161c191681555b5050505050600190811b01905550565b600083516140fb818460208801613932565b83519083019061410f818360208801613932565b01949350505050565b60006020828403121561412a57600080fd5b815161203a81613de9565b60008151602080840160005b8381101561415d57815187529582019590820190600101614141565b509495945050505050565b898152600060208083018b5160208d0160005b828110156141a05781516001600160a01b03168452928401929084019060010161417b565b5050506141b66141b0828d614135565b8b614135565b9889525050506bffffffffffffffffffffffff19606095861b81166020880152603487019490945250921b1660548301526068820152608801949350505050565b634e487b7160e01b600052603260045260246000fd5b60006020828403121561421f57600080fd5b815161ffff8116811461203a57600080fd5b6000806040838503121561424457600080fd5b825161424f816139ae565b6020840151909250613e2581613de9565b60006001600160a01b038087168352808616602084015250836040830152608060608301526142926080830184613956565b9695505050505050565b6000602082840312156142ae57600080fd5b815161203a816138e7565b634e487b7160e01b600052602160045260246000fdfe4d6574615472616e73616374696f6e2875696e74323536206e6f6e63652c616464726573732066726f6d2c62797465732066756e6374696f6e5369676e617475726529a26469706673582212201e856e0e0b0f7970a57de55fc5c8853181533ba12d0574fef576874989c1c51464736f6c63430008170033454950373132446f6d61696e28737472696e67206e616d652c737472696e672076657273696f6e2c6164647265737320766572696679696e67436f6e74726163742c627974657333322073616c7429a264697066735822122034d61eafc9438841fa966a9b70fbc007abe84f690ddb08b547b4a0f8521b097164736f6c63430008170033",
  "devdoc": {
    "errors": {
      "OwnableInvalidOwner(address)": [
        {
          "details": "The owner is not a valid owner account. (eg. `address(0)`)"
        }
      ],
      "OwnableUnauthorizedAccount(address)": [
        {
          "details": "The caller account is not authorized to perform an operation."
        }
      ],
      "ReentrancyGuardReentrantCall()": [
        {
          "details": "Unauthorized reentrant call."
        }
      ]
    },
    "kind": "dev",
    "methods": {
      "owner()": {
        "details": "Returns the address of the current owner."
      },
      "renounceOwnership()": {
        "details": "Leaves the contract without owner. It will not be possible to call `onlyOwner` functions. Can only be called by the current owner. NOTE: Renouncing ownership will leave the contract without an owner, thereby disabling any functionality that is only available to the owner."
      },
      "transferOwnership(address)": {
        "details": "Transfers ownership of the contract to a new account (`newOwner`). Can only be called by the current owner."
      }
    },
    "version": 1
  },
  "userdoc": {
    "kind": "user",
    "methods": {},
    "version": 1
  },
  "storageLayout": {
    "storage": [
      {
        "astId": 3332,
        "contract": "contracts/factories/SalesPolicyFactory.sol:SalesPolicyFactory",
        "label": "_status",
        "offset": 0,
        "slot": "0",
        "type": "t_uint256"
      },
      {
        "astId": 1395,
        "contract": "contracts/factories/SalesPolicyFactory.sol:SalesPolicyFactory",
        "label": "_owner",
        "offset": 0,
        "slot": "1",
        "type": "t_address"
      },
      {
        "astId": 15872,
        "contract": "contracts/factories/SalesPolicyFactory.sol:SalesPolicyFactory",
        "label": "checkIfProtocolInWhitelistArray",
        "offset": 20,
        "slot": "1",
        "type": "t_bool"
      },
      {
        "astId": 15874,
        "contract": "contracts/factories/SalesPolicyFactory.sol:SalesPolicyFactory",
        "label": "premiumPool",
        "offset": 0,
        "slot": "2",
        "type": "t_address"
      },
      {
        "astId": 15876,
        "contract": "contracts/factories/SalesPolicyFactory.sol:SalesPolicyFactory",
        "label": "exchangeAgent",
        "offset": 0,
        "slot": "3",
        "type": "t_address"
      },
      {
        "astId": 15878,
        "contract": "contracts/factories/SalesPolicyFactory.sol:SalesPolicyFactory",
        "label": "capitalAgent",
        "offset": 0,
        "slot": "4",
        "type": "t_address"
      },
      {
        "astId": 15880,
        "contract": "contracts/factories/SalesPolicyFactory.sol:SalesPolicyFactory",
        "label": "salesPolicy",
        "offset": 0,
        "slot": "5",
        "type": "t_address"
      },
      {
        "astId": 15885,
        "contract": "contracts/factories/SalesPolicyFactory.sol:SalesPolicyFactory",
        "label": "getProtocol",
        "offset": 0,
        "slot": "6",
        "type": "t_mapping(t_uint16,t_struct(Protocol)15869_storage)"
      },
      {
        "astId": 15890,
        "contract": "contracts/factories/SalesPolicyFactory.sol:SalesPolicyFactory",
        "label": "getProtocolId",
        "offset": 0,
        "slot": "7",
        "type": "t_mapping(t_address,t_uint16)"
      },
      {
        "astId": 15893,
        "contract": "contracts/factories/SalesPolicyFactory.sol:SalesPolicyFactory",
        "label": "protocolIds",
        "offset": 0,
        "slot": "8",
        "type": "t_struct(Counter)17745_storage"
      },
      {
        "astId": 15895,
        "contract": "contracts/factories/SalesPolicyFactory.sol:SalesPolicyFactory",
        "label": "usdcToken",
        "offset": 0,
        "slot": "9",
        "type": "t_address"
      }
    ],
    "types": {
      "t_address": {
        "encoding": "inplace",
        "label": "address",
        "numberOfBytes": "20"
      },
      "t_bool": {
        "encoding": "inplace",
        "label": "bool",
        "numberOfBytes": "1"
      },
      "t_mapping(t_address,t_uint16)": {
        "encoding": "mapping",
        "key": "t_address",
        "label": "mapping(address => uint16)",
        "numberOfBytes": "32",
        "value": "t_uint16"
      },
      "t_mapping(t_uint16,t_struct(Protocol)15869_storage)": {
        "encoding": "mapping",
        "key": "t_uint16",
        "label": "mapping(uint16 => struct SalesPolicyFactory.Protocol)",
        "numberOfBytes": "32",
        "value": "t_struct(Protocol)15869_storage"
      },
      "t_struct(Counter)17745_storage": {
        "encoding": "inplace",
        "label": "struct Counters.Counter",
        "members": [
          {
            "astId": 17744,
            "contract": "contracts/factories/SalesPolicyFactory.sol:SalesPolicyFactory",
            "label": "current",
            "offset": 0,
            "slot": "0",
            "type": "t_uint256"
          }
        ],
        "numberOfBytes": "32"
      },
      "t_struct(Protocol)15869_storage": {
        "encoding": "inplace",
        "label": "struct SalesPolicyFactory.Protocol",
        "members": [
          {
            "astId": 15866,
            "contract": "contracts/factories/SalesPolicyFactory.sol:SalesPolicyFactory",
            "label": "protocolAddress",
            "offset": 0,
            "slot": "0",
            "type": "t_address"
          },
          {
            "astId": 15868,
            "contract": "contracts/factories/SalesPolicyFactory.sol:SalesPolicyFactory",
            "label": "isBlackList",
            "offset": 20,
            "slot": "0",
            "type": "t_bool"
          }
        ],
        "numberOfBytes": "32"
      },
      "t_uint16": {
        "encoding": "inplace",
        "label": "uint16",
        "numberOfBytes": "2"
      },
      "t_uint256": {
        "encoding": "inplace",
        "label": "uint256",
        "numberOfBytes": "32"
      }
    }
  }
}