{
  "address": "0x73b15F31569449D81AF0Cde34c78B184f73EbD62",
  "abi": [
    {
      "inputs": [
        {
          "internalType": "address",
          "name": "_claimAssessor",
          "type": "address"
        },
        {
          "internalType": "address",
          "name": "_multiSigWallet",
          "type": "address"
        }
      ],
      "stateMutability": "nonpayable",
      "type": "constructor"
    },
    {
      "anonymous": false,
      "inputs": [
        {
          "indexed": true,
          "internalType": "address",
          "name": "_user",
          "type": "address"
        },
        {
          "indexed": true,
          "internalType": "address",
          "name": "_receiver",
          "type": "address"
        },
        {
          "indexed": false,
          "internalType": "uint256",
          "name": "_amount",
          "type": "uint256"
        }
      ],
      "name": "Harvest",
      "type": "event"
    },
    {
      "anonymous": false,
      "inputs": [
        {
          "indexed": true,
          "internalType": "address",
          "name": "_staker",
          "type": "address"
        },
        {
          "indexed": true,
          "internalType": "address",
          "name": "_pool",
          "type": "address"
        },
        {
          "indexed": false,
          "internalType": "uint256",
          "name": "_requestAmount",
          "type": "uint256"
        }
      ],
      "name": "LeftPool",
      "type": "event"
    },
    {
      "anonymous": false,
      "inputs": [
        {
          "indexed": true,
          "internalType": "address",
          "name": "_user",
          "type": "address"
        },
        {
          "indexed": false,
          "internalType": "uint256",
          "name": "_cancelAmount",
          "type": "uint256"
        },
        {
          "indexed": false,
          "internalType": "uint256",
          "name": "_cancelAmountInUno",
          "type": "uint256"
        }
      ],
      "name": "LogCancelWithdrawRequest",
      "type": "event"
    },
    {
      "anonymous": false,
      "inputs": [
        {
          "indexed": true,
          "internalType": "address",
          "name": "_SSRP",
          "type": "address"
        },
        {
          "indexed": true,
          "internalType": "address",
          "name": "_rewarder",
          "type": "address"
        },
        {
          "indexed": false,
          "internalType": "address",
          "name": "_currency",
          "type": "address"
        }
      ],
      "name": "LogCreateRewarder",
      "type": "event"
    },
    {
      "anonymous": false,
      "inputs": [
        {
          "indexed": true,
          "internalType": "address",
          "name": "_SSRP",
          "type": "address"
        },
        {
          "indexed": true,
          "internalType": "address",
          "name": "_syntheticSSRP",
          "type": "address"
        },
        {
          "indexed": true,
          "internalType": "address",
          "name": "_lpToken",
          "type": "address"
        }
      ],
      "name": "LogCreateSyntheticSSRP",
      "type": "event"
    },
    {
      "anonymous": false,
      "inputs": [
        {
          "indexed": true,
          "internalType": "address",
          "name": "_user",
          "type": "address"
        },
        {
          "indexed": false,
          "internalType": "uint256",
          "name": "_withdrawLpAmount",
          "type": "uint256"
        },
        {
          "indexed": false,
          "internalType": "uint256",
          "name": "_withdrawUnoAmount",
          "type": "uint256"
        }
      ],
      "name": "LogLeaveFromPendingSSRP",
      "type": "event"
    },
    {
      "anonymous": false,
      "inputs": [
        {
          "indexed": true,
          "internalType": "address",
          "name": "_from",
          "type": "address"
        },
        {
          "indexed": true,
          "internalType": "address",
          "name": "_to",
          "type": "address"
        },
        {
          "indexed": false,
          "internalType": "uint256",
          "name": "_amount",
          "type": "uint256"
        }
      ],
      "name": "LogLpTransferInSSRP",
      "type": "event"
    },
    {
      "anonymous": false,
      "inputs": [
        {
          "indexed": true,
          "internalType": "address",
          "name": "_user",
          "type": "address"
        },
        {
          "indexed": true,
          "internalType": "address",
          "name": "_migrateTo",
          "type": "address"
        },
        {
          "indexed": false,
          "internalType": "uint256",
          "name": "_migratedAmount",
          "type": "uint256"
        }
      ],
      "name": "LogMigrate",
      "type": "event"
    },
    {
      "anonymous": false,
      "inputs": [
        {
          "indexed": true,
          "internalType": "address",
          "name": "_SSIP",
          "type": "address"
        },
        {
          "indexed": true,
          "internalType": "address",
          "name": "_claimAssessor",
          "type": "address"
        }
      ],
      "name": "LogSetClaimAssessor",
      "type": "event"
    },
    {
      "anonymous": false,
      "inputs": [
        {
          "indexed": true,
          "internalType": "address",
          "name": "_SSIP",
          "type": "address"
        },
        {
          "indexed": false,
          "internalType": "uint256",
          "name": "_lockTime",
          "type": "uint256"
        }
      ],
      "name": "LogSetLockTime",
      "type": "event"
    },
    {
      "anonymous": false,
      "inputs": [
        {
          "indexed": true,
          "internalType": "address",
          "name": "_SSIP",
          "type": "address"
        },
        {
          "indexed": true,
          "internalType": "address",
          "name": "_migrateTo",
          "type": "address"
        }
      ],
      "name": "LogSetMigrateTo",
      "type": "event"
    },
    {
      "anonymous": false,
      "inputs": [
        {
          "indexed": true,
          "internalType": "address",
          "name": "_SSIP",
          "type": "address"
        },
        {
          "indexed": false,
          "internalType": "uint256",
          "name": "_minLPCapital",
          "type": "uint256"
        }
      ],
      "name": "LogSetMinLPCapital",
      "type": "event"
    },
    {
      "anonymous": false,
      "inputs": [
        {
          "indexed": true,
          "internalType": "address",
          "name": "_SSIP",
          "type": "address"
        },
        {
          "indexed": false,
          "internalType": "uint256",
          "name": "_rewardMultiplier",
          "type": "uint256"
        }
      ],
      "name": "LogSetRewardMultiplier",
      "type": "event"
    },
    {
      "anonymous": false,
      "inputs": [
        {
          "indexed": true,
          "internalType": "address",
          "name": "_SSIP",
          "type": "address"
        },
        {
          "indexed": false,
          "internalType": "uint256",
          "name": "_startTime",
          "type": "uint256"
        }
      ],
      "name": "LogSetStakingStartTime",
      "type": "event"
    },
    {
      "anonymous": false,
      "inputs": [
        {
          "indexed": false,
          "internalType": "uint128",
          "name": "_lastRewardBlock",
          "type": "uint128"
        },
        {
          "indexed": false,
          "internalType": "uint256",
          "name": "_lpSupply",
          "type": "uint256"
        },
        {
          "indexed": false,
          "internalType": "uint256",
          "name": "_accUnoPerShare",
          "type": "uint256"
        }
      ],
      "name": "LogUpdatePool",
      "type": "event"
    },
    {
      "anonymous": false,
      "inputs": [
        {
          "indexed": true,
          "internalType": "address",
          "name": "previousOwner",
          "type": "address"
        },
        {
          "indexed": true,
          "internalType": "address",
          "name": "newOwner",
          "type": "address"
        }
      ],
      "name": "OwnershipTransferred",
      "type": "event"
    },
    {
      "anonymous": false,
      "inputs": [
        {
          "indexed": true,
          "internalType": "address",
          "name": "_user",
          "type": "address"
        },
        {
          "indexed": false,
          "internalType": "uint256",
          "name": "_claimAmount",
          "type": "uint256"
        }
      ],
      "name": "PolicyClaim",
      "type": "event"
    },
    {
      "anonymous": false,
      "inputs": [
        {
          "indexed": true,
          "internalType": "address",
          "name": "_SSRP",
          "type": "address"
        },
        {
          "indexed": true,
          "internalType": "address",
          "name": "_pool",
          "type": "address"
        }
      ],
      "name": "RiskPoolCreated",
      "type": "event"
    },
    {
      "anonymous": false,
      "inputs": [
        {
          "indexed": true,
          "internalType": "address",
          "name": "_staker",
          "type": "address"
        },
        {
          "indexed": true,
          "internalType": "address",
          "name": "_pool",
          "type": "address"
        },
        {
          "indexed": false,
          "internalType": "uint256",
          "name": "_amount",
          "type": "uint256"
        }
      ],
      "name": "StakedInPool",
      "type": "event"
    },
    {
      "inputs": [],
      "name": "ACC_UNO_PRECISION",
      "outputs": [
        {
          "internalType": "uint256",
          "name": "",
          "type": "uint256"
        }
      ],
      "stateMutability": "view",
      "type": "function"
    },
    {
      "inputs": [],
      "name": "LOCK_TIME",
      "outputs": [
        {
          "internalType": "uint256",
          "name": "",
          "type": "uint256"
        }
      ],
      "stateMutability": "view",
      "type": "function"
    },
    {
      "inputs": [],
      "name": "STAKING_START_TIME",
      "outputs": [
        {
          "internalType": "uint256",
          "name": "",
          "type": "uint256"
        }
      ],
      "stateMutability": "view",
      "type": "function"
    },
    {
      "inputs": [],
      "name": "cancelWithdrawRequest",
      "outputs": [],
      "stateMutability": "nonpayable",
      "type": "function"
    },
    {
      "inputs": [],
      "name": "claimAssessor",
      "outputs": [
        {
          "internalType": "address",
          "name": "",
          "type": "address"
        }
      ],
      "stateMutability": "view",
      "type": "function"
    },
    {
      "inputs": [
        {
          "internalType": "address",
          "name": "_operator",
          "type": "address"
        },
        {
          "internalType": "address",
          "name": "_factory",
          "type": "address"
        },
        {
          "internalType": "address",
          "name": "_currency",
          "type": "address"
        }
      ],
      "name": "createRewarder",
      "outputs": [],
      "stateMutability": "nonpayable",
      "type": "function"
    },
    {
      "inputs": [
        {
          "internalType": "string",
          "name": "_name",
          "type": "string"
        },
        {
          "internalType": "string",
          "name": "_symbol",
          "type": "string"
        },
        {
          "internalType": "address",
          "name": "_factory",
          "type": "address"
        },
        {
          "internalType": "address",
          "name": "_currency",
          "type": "address"
        },
        {
          "internalType": "uint256",
          "name": "_rewardMultiplier",
          "type": "uint256"
        }
      ],
      "name": "createRiskPool",
      "outputs": [],
      "stateMutability": "nonpayable",
      "type": "function"
    },
    {
      "inputs": [
        {
          "internalType": "address",
          "name": "_owner",
          "type": "address"
        },
        {
          "internalType": "address",
          "name": "_factory",
          "type": "address"
        }
      ],
      "name": "createSyntheticSSRP",
      "outputs": [],
      "stateMutability": "nonpayable",
      "type": "function"
    },
    {
      "inputs": [
        {
          "internalType": "uint256",
          "name": "_amount",
          "type": "uint256"
        }
      ],
      "name": "enterInPool",
      "outputs": [],
      "stateMutability": "nonpayable",
      "type": "function"
    },
    {
      "inputs": [
        {
          "internalType": "address",
          "name": "_to",
          "type": "address"
        }
      ],
      "name": "getStakedAmountPerUser",
      "outputs": [
        {
          "internalType": "uint256",
          "name": "unoAmount",
          "type": "uint256"
        },
        {
          "internalType": "uint256",
          "name": "lpAmount",
          "type": "uint256"
        }
      ],
      "stateMutability": "view",
      "type": "function"
    },
    {
      "inputs": [],
      "name": "getTotalWithdrawPendingAmount",
      "outputs": [
        {
          "internalType": "uint256",
          "name": "",
          "type": "uint256"
        }
      ],
      "stateMutability": "view",
      "type": "function"
    },
    {
      "inputs": [
        {
          "internalType": "address",
          "name": "_user",
          "type": "address"
        }
      ],
      "name": "getWithdrawRequestPerUser",
      "outputs": [
        {
          "internalType": "uint256",
          "name": "pendingAmount",
          "type": "uint256"
        },
        {
          "internalType": "uint256",
          "name": "pendingAmountInUno",
          "type": "uint256"
        },
        {
          "internalType": "uint256",
          "name": "originUnoAmount",
          "type": "uint256"
        },
        {
          "internalType": "uint256",
          "name": "requestTime",
          "type": "uint256"
        }
      ],
      "stateMutability": "view",
      "type": "function"
    },
    {
      "inputs": [
        {
          "internalType": "address",
          "name": "_to",
          "type": "address"
        }
      ],
      "name": "harvest",
      "outputs": [],
      "stateMutability": "nonpayable",
      "type": "function"
    },
    {
      "inputs": [],
      "name": "leaveFromPending",
      "outputs": [],
      "stateMutability": "nonpayable",
      "type": "function"
    },
    {
      "inputs": [
        {
          "internalType": "uint256",
          "name": "_amount",
          "type": "uint256"
        }
      ],
      "name": "leaveFromPoolInPending",
      "outputs": [],
      "stateMutability": "nonpayable",
      "type": "function"
    },
    {
      "inputs": [
        {
          "internalType": "address",
          "name": "_from",
          "type": "address"
        },
        {
          "internalType": "address",
          "name": "_to",
          "type": "address"
        },
        {
          "internalType": "uint256",
          "name": "_amount",
          "type": "uint256"
        }
      ],
      "name": "lpTransfer",
      "outputs": [],
      "stateMutability": "nonpayable",
      "type": "function"
    },
    {
      "inputs": [],
      "name": "migrate",
      "outputs": [],
      "stateMutability": "nonpayable",
      "type": "function"
    },
    {
      "inputs": [],
      "name": "migrateTo",
      "outputs": [
        {
          "internalType": "address",
          "name": "",
          "type": "address"
        }
      ],
      "stateMutability": "view",
      "type": "function"
    },
    {
      "inputs": [],
      "name": "owner",
      "outputs": [
        {
          "internalType": "address",
          "name": "",
          "type": "address"
        }
      ],
      "stateMutability": "view",
      "type": "function"
    },
    {
      "inputs": [
        {
          "internalType": "address",
          "name": "_to",
          "type": "address"
        }
      ],
      "name": "pendingUno",
      "outputs": [
        {
          "internalType": "uint256",
          "name": "pending",
          "type": "uint256"
        }
      ],
      "stateMutability": "view",
      "type": "function"
    },
    {
      "inputs": [
        {
          "internalType": "address",
          "name": "_to",
          "type": "address"
        },
        {
          "internalType": "uint256",
          "name": "_amount",
          "type": "uint256"
        }
      ],
      "name": "policyClaim",
      "outputs": [],
      "stateMutability": "nonpayable",
      "type": "function"
    },
    {
      "inputs": [],
      "name": "poolInfo",
      "outputs": [
        {
          "internalType": "uint128",
          "name": "lastRewardBlock",
          "type": "uint128"
        },
        {
          "internalType": "uint128",
          "name": "accUnoPerShare",
          "type": "uint128"
        },
        {
          "internalType": "uint256",
          "name": "unoMultiplierPerBlock",
          "type": "uint256"
        }
      ],
      "stateMutability": "view",
      "type": "function"
    },
    {
      "inputs": [],
      "name": "renounceOwnership",
      "outputs": [],
      "stateMutability": "nonpayable",
      "type": "function"
    },
    {
      "inputs": [],
      "name": "rewarder",
      "outputs": [
        {
          "internalType": "address",
          "name": "",
          "type": "address"
        }
      ],
      "stateMutability": "view",
      "type": "function"
    },
    {
      "inputs": [],
      "name": "riskPool",
      "outputs": [
        {
          "internalType": "address",
          "name": "",
          "type": "address"
        }
      ],
      "stateMutability": "view",
      "type": "function"
    },
    {
      "inputs": [
        {
          "internalType": "address",
          "name": "_claimAssessor",
          "type": "address"
        }
      ],
      "name": "setClaimAssessor",
      "outputs": [],
      "stateMutability": "nonpayable",
      "type": "function"
    },
    {
      "inputs": [
        {
          "internalType": "uint256",
          "name": "_lockTime",
          "type": "uint256"
        }
      ],
      "name": "setLockTime",
      "outputs": [],
      "stateMutability": "nonpayable",
      "type": "function"
    },
    {
      "inputs": [
        {
          "internalType": "address",
          "name": "_migrateTo",
          "type": "address"
        }
      ],
      "name": "setMigrateTo",
      "outputs": [],
      "stateMutability": "nonpayable",
      "type": "function"
    },
    {
      "inputs": [
        {
          "internalType": "uint256",
          "name": "_minLPCapital",
          "type": "uint256"
        }
      ],
      "name": "setMinLPCapital",
      "outputs": [],
      "stateMutability": "nonpayable",
      "type": "function"
    },
    {
      "inputs": [
        {
          "internalType": "uint256",
          "name": "_rewardMultiplier",
          "type": "uint256"
        }
      ],
      "name": "setRewardMultiplier",
      "outputs": [],
      "stateMutability": "nonpayable",
      "type": "function"
    },
    {
      "inputs": [
        {
          "internalType": "uint256",
          "name": "_startTime",
          "type": "uint256"
        }
      ],
      "name": "setStakingStartTime",
      "outputs": [],
      "stateMutability": "nonpayable",
      "type": "function"
    },
    {
      "inputs": [],
      "name": "syntheticSSRP",
      "outputs": [
        {
          "internalType": "address",
          "name": "",
          "type": "address"
        }
      ],
      "stateMutability": "view",
      "type": "function"
    },
    {
      "inputs": [
        {
          "internalType": "address",
          "name": "newOwner",
          "type": "address"
        }
      ],
      "name": "transferOwnership",
      "outputs": [],
      "stateMutability": "nonpayable",
      "type": "function"
    },
    {
      "inputs": [],
      "name": "updatePool",
      "outputs": [],
      "stateMutability": "nonpayable",
      "type": "function"
    },
    {
      "inputs": [
        {
          "internalType": "address",
          "name": "",
          "type": "address"
        }
      ],
      "name": "userInfo",
      "outputs": [
        {
          "internalType": "uint256",
          "name": "lastWithdrawTime",
          "type": "uint256"
        },
        {
          "internalType": "uint256",
          "name": "rewardDebt",
          "type": "uint256"
        },
        {
          "internalType": "uint256",
          "name": "amount",
          "type": "uint256"
        }
      ],
      "stateMutability": "view",
      "type": "function"
    }
  ],
  "transactionHash": "0xf5e72ed8666ab78543794f2c86768d1a7304351c32215651ab964f6c222878c3",
  "args": [
    "0x7e47419EFE3E49f3E616965bFa96f089b2b0e574",
    "0x7e47419EFE3E49f3E616965bFa96f089b2b0e574"
  ],
  "solcInputHash": "e29fe87f99695ffc7732560c14df9058",
  "bytecode": "0x6080604052620d2f006005553480156200001857600080fd5b5060405162003689380380620036898339810160408190526200003b91620001ee565b6001600055620000546200004e620000ef565b620000f3565b6001600160a01b038116620000865760405162461bcd60e51b81526004016200007d90620002e1565b60405180910390fd5b6001600160a01b038216620000af5760405162461bcd60e51b81526004016200007d90620002a0565b600280546001600160a01b0319166001600160a01b038416179055620000d9426203f48062000323565b600655620000e78162000145565b505062000348565b3390565b600180546001600160a01b038381166001600160a01b0319831681179093556040519116919082907f8be0079c531659141344cd1fd0a4f28419497f9722a3daafe3b4186f6b6457e090600090a35050565b6200014f620000ef565b6001600160a01b031662000162620001c2565b6001600160a01b0316146200018b5760405162461bcd60e51b81526004016200007d906200026b565b6001600160a01b038116620001b45760405162461bcd60e51b81526004016200007d9062000225565b620001bf81620000f3565b50565b6001546001600160a01b031690565b80516001600160a01b0381168114620001e957600080fd5b919050565b6000806040838503121562000201578182fd5b6200020c83620001d1565b91506200021c60208401620001d1565b90509250929050565b60208082526026908201527f4f776e61626c653a206e6577206f776e657220697320746865207a65726f206160408201526564647265737360d01b606082015260800190565b6020808252818101527f4f776e61626c653a2063616c6c6572206973206e6f7420746865206f776e6572604082015260600190565b60208082526021908201527f556e6f52653a207a65726f20636c61696d4173736573736f72206164647265736040820152607360f81b606082015260800190565b60208082526022908201527f556e6f52653a207a65726f206d756c746953696757616c6c6574206164647265604082015261737360f01b606082015260800190565b600082198211156200034357634e487b7160e01b81526011600452602481fd5b500190565b61333180620003586000396000f3fe608060405234801561001057600080fd5b50600436106102415760003560e01c80639336f40611610145578063c4e5dacf116100bd578063e08c5de11161008c578063e3161ddd11610071578063e3161ddd14610462578063e3824a381461046a578063f2fde38b1461047d57610241565b8063e08c5de114610447578063e19e71681461045a57610241565b8063c4e5dacf14610427578063c6e899151461042f578063dba6f96214610437578063dcc3e06e1461043f57610241565b8063a3bdd63211610114578063af16d6e0116100f9578063af16d6e0146103eb578063ba619457146103fe578063bc8f88281461041f57610241565b8063a3bdd632146103d0578063ae04d45d146103d857610241565b80639336f4061461037f57806393b6b86c146103a257806398c6e760146103b55780639cdf6c27146103bd57610241565b80635a2f3d09116101d85780638395206c116101a75780638ba04b171161018c5780638ba04b171461035c5780638da5cb5b1461036f5780638fd3ab801461037757610241565b80638395206c1461034157806389919b711461035457610241565b80635a2f3d09146102fc5780635d90bad914610313578063715018a614610326578063736ec05c1461032e57610241565b80631959a002116102145780631959a002146102945780632e4a0142146102bf578063413d9c3a146102d25780634c032366146102e757610241565b80630bd075a1146102465780630e5c011e1461025b5780630e9ae4201461026e578063157f71ed14610281575b600080fd5b6102596102543660046129fc565b610490565b005b610259610269366004612813565b61053a565b61025961027c3660046128d4565b610595565b61025961028f366004612813565b61088d565b6102a76102a2366004612813565b61093e565b6040516102b693929190613206565b60405180910390f35b6102596102cd366004612914565b61095f565b6102da610aeb565b6040516102b691906131ef565b6102ef610af1565b6040516102b69190612adf565b610304610b00565b6040516102b6939291906131a8565b6102596103213660046129fc565b610b1e565b610259610bb4565b61025961033c366004612813565b610bff565b61025961034f3660046129fc565b610cb0565b6102da610f2d565b61025961036a36600461295f565b610f39565b6102ef611126565b610259611135565b61039261038d366004612813565b61131e565b6040516102b6949392919061321c565b6102596103b03660046129fc565b61145c565b6102ef611556565b6102596103cb366004612852565b611565565b6102da611722565b6102596103e63660046129fc565b6117a4565b6102596103f936600461288a565b61183a565b61041161040c366004612813565b6119e8565b6040516102b69291906131f8565b610259611aa3565b6102ef611d41565b6102ef611d50565b6102da611d5f565b6102ef611d65565b6102da610455366004612813565b611d74565b610259611ede565b610259611fd9565b6102596104783660046129fc565b61216e565b61025961048b366004612813565b61246c565b6104986124dd565b6001600160a01b03166104a9611126565b6001600160a01b0316146104d85760405162461bcd60e51b81526004016104cf90612ff6565b60405180910390fd5b600081116104f85760405162461bcd60e51b81526004016104cf90612e40565b600b81905560405130907fbd1dd13c6a5b4a28ebd27fdcb8fdd01aba6bbb9f67599306248f465bcdf9817f9061052f9084906131ef565b60405180910390a250565b60065442101561055c5760405162461bcd60e51b81526004016104cf906130ce565b6002600054141561057f5760405162461bcd60e51b81526004016104cf90613105565b600260005561058d816124e1565b506001600055565b600260005414156105b85760405162461bcd60e51b81526004016104cf90613105565b60026000556008546001600160a01b031633146105e75760405162461bcd60e51b81526004016104cf90613173565b6004546001600160a01b0384811691161480159061061357506004546001600160a01b03838116911614155b1561088357610621836124e1565b6001600160a01b03808416600090815260096020526040808220600201546008549151631665744b60e11b815290939190911690632ccae89690610669908890600401612adf565b60606040518083038186803b15801561068157600080fd5b505afa158015610695573d6000803e3d6000fd5b505050506040513d601f19601f820116820180604052508101906106b99190612a4f565b505090508281836106ca91906132b9565b10156106e85760405162461bcd60e51b81526004016104cf90612d9d565b600a54600090670de0b6b3a76400009061071290600160801b90046001600160801b03168561329a565b61071c919061327a565b600a54909150670de0b6b3a76400009061074690600160801b90046001600160801b03168661329a565b610750919061327a565b61075a90826132b9565b6001600160a01b03871660009081526009602052604090206001015561078084846132b9565b6001600160a01b038716600090815260096020526040902060020155600a54670de0b6b3a7640000906107c390600160801b90046001600160801b03168661329a565b6107cd919061327a565b6001600160a01b0386166000908152600960205260409020600101546107f39190613262565b6001600160a01b0386166000908152600960205260409020600181019190915560020154610822908590613262565b6001600160a01b0380871660008181526009602052604090819020600201939093559151908816907fe97af49bf17de46bed3f953a242569bed68114f89f39c1afe4012bba1c5963d4906108779088906131ef565b60405180910390a35050505b5050600160005550565b6108956124dd565b6001600160a01b03166108a6611126565b6001600160a01b0316146108cc5760405162461bcd60e51b81526004016104cf90612ff6565b6001600160a01b0381166108f25760405162461bcd60e51b81526004016104cf90612c9b565b600280546001600160a01b0319166001600160a01b03831690811790915560405130907f073f9d6137d7fa6d64859eb388090b7e90a768c36e707e4404e1fa6485b5c91e90600090a350565b60096020526000908152604090208054600182015460029092015490919083565b6002546001600160a01b031633146109895760405162461bcd60e51b81526004016104cf90613062565b6006544210156109ab5760405162461bcd60e51b81526004016104cf906130ce565b600260005414156109ce5760405162461bcd60e51b81526004016104cf90613105565b60026000556001600160a01b0382166109f95760405162461bcd60e51b81526004016104cf90612c9b565b60008111610a195760405162461bcd60e51b81526004016104cf90612ee3565b60085460405163172500a160e11b81526000916001600160a01b031690632e4a014290610a4c9086908690600401612b78565b602060405180830381600087803b158015610a6657600080fd5b505af1158015610a7a573d6000803e3d6000fd5b505050506040513d601f19601f82011682018060405250810190610a9e9190612a14565b9050826001600160a01b03167f6420c9536b9a539410a930b1fd8d115dc296d8b71426dcc0ab64f2f736b7d59f82604051610ad991906131ef565b60405180910390a25050600160005550565b60055481565b6004546001600160a01b031681565b600a54600b546001600160801b0380831692600160801b9004169083565b610b266124dd565b6001600160a01b0316610b37611126565b6001600160a01b031614610b5d5760405162461bcd60e51b81526004016104cf90612ff6565b60008111610b7d5760405162461bcd60e51b81526004016104cf90612eae565b600681905560405130907fa8aa08cc14eef7b97ab4cd52f37082e23f7526bccc98cf91e6a1d412494b90519061052f9084906131ef565b610bbc6124dd565b6001600160a01b0316610bcd611126565b6001600160a01b031614610bf35760405162461bcd60e51b81526004016104cf90612ff6565b610bfd6000612675565b565b610c076124dd565b6001600160a01b0316610c18611126565b6001600160a01b031614610c3e5760405162461bcd60e51b81526004016104cf90612ff6565b6001600160a01b038116610c645760405162461bcd60e51b81526004016104cf90612c9b565b600380546001600160a01b0319166001600160a01b03831690811790915560405130907f877238238dbd7134e89b00809ea73fabb50da117ace807a6b31c733bbf55d36990600090a350565b600654421015610cd25760405162461bcd60e51b81526004016104cf906130ce565b60026000541415610cf55760405162461bcd60e51b81526004016104cf90613105565b6002600055610d03336124e1565b336000908152600960209081526040808320600201546008548251627a9fd960e91b815292519194936001600160a01b039091169263f53fb2009260048083019392829003018186803b158015610d5957600080fd5b505afa158015610d6d573d6000803e3d6000fd5b505050506040513d601f19601f82011682018060405250810190610d919190612a14565b600854604051631665744b60e11b81529192506000916001600160a01b0390911690632ccae89690610dc7903390600401612adf565b60606040518083038186803b158015610ddf57600080fd5b505afa158015610df3573d6000803e3d6000fd5b505050506040513d601f19601f82011682018060405250810190610e179190612a4f565b505090508184670de0b6b3a7640000610e30919061329a565b610e3a919061327a565b610e4482856132b9565b1015610e625760405162461bcd60e51b81526004016104cf90612d09565b6008546040516323de6d9560e11b81526001600160a01b03909116906347bcdb2a90610e949033908890600401612b78565b600060405180830381600087803b158015610eae57600080fd5b505af1158015610ec2573d6000803e3d6000fd5b5050336000818152600960205260409081902042905560085490516001600160a01b0390911693509091507f940a14c75c418e7230a2e65567722d2dda5a6713cf71b369bd0fa219fdc1ac5e90610f1a9088906131ef565b60405180910390a3505060016000555050565b670de0b6b3a764000081565b610f416124dd565b6001600160a01b0316610f52611126565b6001600160a01b031614610f785760405162461bcd60e51b81526004016104cf90612ff6565b60026000541415610f9b5760405162461bcd60e51b81526004016104cf90613105565b60026000556008546001600160a01b031615610fc95760405162461bcd60e51b81526004016104cf90612dd4565b6001600160a01b038316610fef5760405162461bcd60e51b81526004016104cf90612fbf565b6001600160a01b0382166110155760405162461bcd60e51b81526004016104cf90612c07565b604051630d98e31f60e01b81526001600160a01b03841690630d98e31f9061104b908a908a908a908a9030908a90600401612bb9565b602060405180830381600087803b15801561106557600080fd5b505af1158015611079573d6000803e3d6000fd5b505050506040513d601f19601f8201168201806040525081019061109d9190612836565b600880546001600160a01b0319166001600160a01b039283161790819055600a80546fffffffffffffffffffffffffffffffff1916436001600160801b0390811691909117169055600b83905560405191169030907f184d7691bf4a73930a21086fa1bdf0ee3075421531a60730288325fd5838021790600090a3505060016000555050505050565b6001546001600160a01b031690565b600260005414156111585760405162461bcd60e51b81526004016104cf90613105565b60026000556003546001600160a01b03166111855760405162461bcd60e51b81526004016104cf90612c9b565b61118e336124e1565b33600090815260096020526040812060028101546005549154909291906111b590426132b9565b600854600354604051633613302f60e01b81529390921193506000926001600160a01b0391821692633613302f926111f7923392909116908790600401612b30565b602060405180830381600087803b15801561121157600080fd5b505af1158015611225573d6000803e3d6000fd5b505050506040513d601f19601f820116820180604052508101906112499190612a14565b60035460405163ed59344b60e01b81529192506001600160a01b03169063ed59344b9061127c9033908790600401612b91565b600060405180830381600087803b15801561129657600080fd5b505af11580156112aa573d6000803e3d6000fd5b505033600081815260096020526040808220600281018390556001019190915560035490516001600160a01b0390911693509091507ff0fee1f70845d356d6a3e0baa0944ce846437b6469ea89416dad2cd7067919a49061130c9085906131ef565b60405180910390a35050600160005550565b6000806000806000600860009054906101000a90046001600160a01b03166001600160a01b031663f53fb2006040518163ffffffff1660e01b815260040160206040518083038186803b15801561137457600080fd5b505afa158015611388573d6000803e3d6000fd5b505050506040513d601f19601f820116820180604052508101906113ac9190612a14565b600854604051631665744b60e11b81529192506001600160a01b031690632ccae896906113dd908990600401612adf565b60606040518083038186803b1580156113f557600080fd5b505afa158015611409573d6000803e3d6000fd5b505050506040513d601f19601f8201168201806040525081019061142d9190612a4f565b9196509093509150670de0b6b3a7640000611448828761329a565b611452919061327a565b9350509193509193565b6114646124dd565b6001600160a01b0316611475611126565b6001600160a01b03161461149b5760405162461bcd60e51b81526004016104cf90612ff6565b600081116114bb5760405162461bcd60e51b81526004016104cf9061313c565b6008546040516324edae1b60e21b81526001600160a01b03909116906393b6b86c906114eb9084906004016131ef565b600060405180830381600087803b15801561150557600080fd5b505af1158015611519573d6000803e3d6000fd5b50505050306001600160a01b03167f353ac2778fe09bc60cf3070bb11d548faf4037e4217a06977c16463087474aab8260405161052f91906131ef565b6003546001600160a01b031681565b61156d6124dd565b6001600160a01b031661157e611126565b6001600160a01b0316146115a45760405162461bcd60e51b81526004016104cf90612ff6565b600260005414156115c75760405162461bcd60e51b81526004016104cf90613105565b60026000556001600160a01b0382166115f25760405162461bcd60e51b81526004016104cf90612f51565b6001600160a01b0381166116185760405162461bcd60e51b81526004016104cf90612cd2565b6008546001600160a01b03166116405760405162461bcd60e51b81526004016104cf90612f1a565b6008546040516377b3d99760e01b81526001600160a01b03808416926377b3d997926116729287921690600401612af3565b602060405180830381600087803b15801561168c57600080fd5b505af11580156116a0573d6000803e3d6000fd5b505050506040513d601f19601f820116820180604052508101906116c49190612836565b600480546001600160a01b0319166001600160a01b03928316179081905560085460405190831692919091169030907f3d2362862a7867eb0f64552c1fa638b6adf3907a7defe349eab238f6a0b2d83190600090a450506001600055565b6008546040805163e95aa8d360e01b815290516000926001600160a01b03169163e95aa8d3916004808301926020929190829003018186803b15801561176757600080fd5b505afa15801561177b573d6000803e3d6000fd5b505050506040513d601f19601f8201168201806040525081019061179f9190612a14565b905090565b6117ac6124dd565b6001600160a01b03166117bd611126565b6001600160a01b0316146117e35760405162461bcd60e51b81526004016104cf90612ff6565b600081116118035760405162461bcd60e51b81526004016104cf90612f88565b600581905560405130907f2c2c43c64e937ae35257af782c222986dc5adb4f56dc0881594e79bf83658d8c9061052f9084906131ef565b6118426124dd565b6001600160a01b0316611853611126565b6001600160a01b0316146118795760405162461bcd60e51b81526004016104cf90612ff6565b6002600054141561189c5760405162461bcd60e51b81526004016104cf90613105565b60026000556001600160a01b0382166118c75760405162461bcd60e51b81526004016104cf90613099565b6001600160a01b0383166118ed5760405162461bcd60e51b81526004016104cf90612e77565b6001600160a01b0381166119135760405162461bcd60e51b81526004016104cf90612c07565b6040516369ee745160e01b81526001600160a01b038316906369ee74519061194390869085903090600401612b0d565b602060405180830381600087803b15801561195d57600080fd5b505af1158015611971573d6000803e3d6000fd5b505050506040513d601f19601f820116820180604052508101906119959190612836565b600780546001600160a01b0319166001600160a01b03928316179081905560405191169030907f6c409a36847a0a3870deae25f656f4300d45957d2643fc27faab145e19cfcf1b9061130c908590612adf565b6001600160a01b038082166000908152600960209081526040808320600201546008548251627a9fd960e91b81529251949591948694919092169263f53fb2009260048083019392829003018186803b158015611a4457600080fd5b505afa158015611a58573d6000803e3d6000fd5b505050506040513d601f19601f82011682018060405250810190611a7c9190612a14565b9050670de0b6b3a7640000611a91828461329a565b611a9b919061327a565b925050915091565b600654421015611ac55760405162461bcd60e51b81526004016104cf906130ce565b60026000541415611ae85760405162461bcd60e51b81526004016104cf90613105565b600260009081556005543382526009602052604090912054611b0a90426132b9565b1015611b285760405162461bcd60e51b81526004016104cf90612e09565b611b31336124e1565b33600081815260096020526040808220600201546008549151631665744b60e11b815290936001600160a01b0390921691632ccae89691611b759190600401612adf565b60606040518083038186803b158015611b8d57600080fd5b505afa158015611ba1573d6000803e3d6000fd5b505050506040513d601f19601f82011682018060405250810190611bc59190612a4f565b5050600a54909150600090670de0b6b3a764000090611bf490600160801b90046001600160801b03168561329a565b611bfe919061327a565b600a54909150670de0b6b3a764000090611c2890600160801b90046001600160801b03168461329a565b611c32919061327a565b611c3c90826132b9565b3360008181526009602052604080822060010193909355600854925163b20ecd1560e01b8152909283926001600160a01b039091169163b20ecd1591611c8491600401612adf565b6040805180830381600087803b158015611c9d57600080fd5b505af1158015611cb1573d6000803e3d6000fd5b505050506040513d601f19601f82011682018060405250810190611cd59190612a2c565b9092509050611ce482866132b9565b33600081815260096020526040908190206002019290925590517f617c612e91653c86cd4538e3de94b98c8dd628b41e343380d1cf858f95c0674a90611d2d90859085906131f8565b60405180910390a250506001600055505050565b6008546001600160a01b031681565b6002546001600160a01b031681565b60065481565b6007546001600160a01b031681565b600080600860009054906101000a90046001600160a01b03166001600160a01b03166318160ddd6040518163ffffffff1660e01b815260040160206040518083038186803b158015611dc557600080fd5b505afa158015611dd9573d6000803e3d6000fd5b505050506040513d601f19601f82011682018060405250810190611dfd9190612a14565b600a549091506001600160801b03600160801b82048116911643118015611e2357508115155b15611e8257600a54600090611e41906001600160801b0316436132b9565b600b54909150600090611e54908361329a565b905083611e69670de0b6b3a76400008361329a565b611e73919061327a565b611e7d9084613237565b925050505b6001600160a01b03841660009081526009602052604090206002810154600190910154670de0b6b3a7640000611ec16001600160801b0385168461329a565b611ecb919061327a565b611ed591906132b9565b95945050505050565b60026000541415611f015760405162461bcd60e51b81526004016104cf90613105565b600260009081556008546040516306e6829960e51b815282916001600160a01b03169063dcd0532090611f38903390600401612adf565b6040805180830381600087803b158015611f5157600080fd5b505af1158015611f65573d6000803e3d6000fd5b505050506040513d601f19601f82011682018060405250810190611f899190612a2c565b91509150336001600160a01b03167f09c6481cb228ea7f61ceb67c8e708038eb74bbb68cfcc54a9cfca199087ecfb78383604051611fc89291906131f8565b60405180910390a250506001600055565b600a546001600160801b0316431115610bfd57600854604080516318160ddd60e01b815290516000926001600160a01b0316916318160ddd916004808301926020929190829003018186803b15801561203157600080fd5b505afa158015612045573d6000803e3d6000fd5b505050506040513d601f19601f820116820180604052508101906120699190612a14565b905080156120f957600a5460009061208a906001600160801b0316436132b9565b600b5490915060009061209d908361329a565b9050826120b2670de0b6b3a76400008361329a565b6120bc919061327a565b600a546120d99190600160801b90046001600160801b0316613237565b600a80546001600160801b03928316600160801b02921691909117905550505b600a80546fffffffffffffffffffffffffffffffff1916436001600160801b0390811691909117918290556040517f982b813c7d00a9ffce9441ba40f429b2e4a35068d75532f496d0c63585c2fa689261216392818116928692600160801b9004909116906131cc565b60405180910390a150565b6006544210156121905760405162461bcd60e51b81526004016104cf906130ce565b600260005414156121b35760405162461bcd60e51b81526004016104cf90613105565b6002600055806121d55760405162461bcd60e51b81526004016104cf9061302b565b6121dd611fd9565b6008546040805163e5a6b10f60e01b815290516000926001600160a01b03169163e5a6b10f916004808301926020929190829003018186803b15801561222257600080fd5b505afa158015612236573d6000803e3d6000fd5b505050506040513d601f19601f8201168201806040525081019061225a9190612836565b90506000600860009054906101000a90046001600160a01b03166001600160a01b031663f53fb2006040518163ffffffff1660e01b815260040160206040518083038186803b1580156122ac57600080fd5b505afa1580156122c0573d6000803e3d6000fd5b505050506040513d601f19601f820116820180604052508101906122e49190612a14565b60085490915061230190839033906001600160a01b0316866126c7565b600854604051637e348b7d60e01b81526001600160a01b0390911690637e348b7d906123339033908790600401612b78565b600060405180830381600087803b15801561234d57600080fd5b505af1158015612361573d6000803e3d6000fd5b5050600a54670de0b6b3a76400009250839150600160801b90046001600160801b031661238e868461329a565b612398919061329a565b6123a2919061327a565b6123ac919061327a565b336000908152600960205260409020600101546123c99190613262565b33600090815260096020526040902060010155806123ef84670de0b6b3a764000061329a565b6123f9919061327a565b336000908152600960205260409020600201546124169190613262565b33600081815260096020526040908190206002019290925560085491516001600160a01b03909216917fd3dba7b5565b16b7749db7d1938410a636e3c7a6ea46ed8ce7e259e19f2f3b9f9061130c9087906131ef565b6124746124dd565b6001600160a01b0316612485611126565b6001600160a01b0316146124ab5760405162461bcd60e51b81526004016104cf90612ff6565b6001600160a01b0381166124d15760405162461bcd60e51b81526004016104cf90612c3e565b6124da81612675565b50565b3390565b6124e9611fd9565b6001600160a01b038116600090815260096020526040812060020154600a54909190670de0b6b3a76400009061252f90600160801b90046001600160801b03168461329a565b612539919061327a565b6001600160a01b0384166000908152600960205260408120600101549192509061256390836132b9565b6001600160a01b03808616600090815260096020526040812060010185905560075492935091161580159061259757508115155b156126235760075460405163186e465160e31b81526001600160a01b039091169063c3723288906125ce9088908690600401612b78565b602060405180830381600087803b1580156125e857600080fd5b505af11580156125fc573d6000803e3d6000fd5b505050506040513d601f19601f820116820180604052508101906126209190612a14565b90505b846001600160a01b0316336001600160a01b03167fa0306f61d3fafe13787b78e276cb6b644382854a66cb46daae14227d3ec267978360405161266691906131ef565b60405180910390a35050505050565b600180546001600160a01b038381166001600160a01b0319831681179093556040519116919082907f8be0079c531659141344cd1fd0a4f28419497f9722a3daafe3b4186f6b6457e090600090a35050565b600080856001600160a01b03166323b872dd8686866040516024016126ee93929190612b54565b6040516020818303038152906040529060e01b6020820180517bffffffffffffffffffffffffffffffffffffffffffffffffffffffff838183161783525050505060405161273c9190612aa6565b6000604051808303816000865af19150503d8060008114612779576040519150601f19603f3d011682016040523d82523d6000602084013e61277e565b606091505b50915091508180156127a85750805115806127a85750808060200190518101906127a8919061293f565b6127c45760405162461bcd60e51b81526004016104cf90612d40565b505050505050565b60008083601f8401126127dd578182fd5b50813567ffffffffffffffff8111156127f4578182fd5b60208301915083602082850101111561280c57600080fd5b9250929050565b600060208284031215612824578081fd5b813561282f816132e6565b9392505050565b600060208284031215612847578081fd5b815161282f816132e6565b60008060408385031215612864578081fd5b823561286f816132e6565b9150602083013561287f816132e6565b809150509250929050565b60008060006060848603121561289e578081fd5b83356128a9816132e6565b925060208401356128b9816132e6565b915060408401356128c9816132e6565b809150509250925092565b6000806000606084860312156128e8578283fd5b83356128f3816132e6565b92506020840135612903816132e6565b929592945050506040919091013590565b60008060408385031215612926578182fd5b8235612931816132e6565b946020939093013593505050565b600060208284031215612950578081fd5b8151801515811461282f578182fd5b600080600080600080600060a0888a031215612979578283fd5b873567ffffffffffffffff80821115612990578485fd5b61299c8b838c016127cc565b909950975060208a01359150808211156129b4578485fd5b506129c18a828b016127cc565b90965094505060408801356129d5816132e6565b925060608801356129e5816132e6565b809250506080880135905092959891949750929550565b600060208284031215612a0d578081fd5b5035919050565b600060208284031215612a25578081fd5b5051919050565b60008060408385031215612a3e578182fd5b505080516020909101519092909150565b600080600060608486031215612a63578283fd5b8351925060208401519150604084015190509250925092565b60008284528282602086013780602084860101526020601f19601f85011685010190509392505050565b60008251815b81811015612ac65760208186018101518583015201612aac565b81811115612ad45782828501525b509190910192915050565b6001600160a01b0391909116815260200190565b6001600160a01b0392831681529116602082015260400190565b6001600160a01b0393841681529183166020830152909116604082015260600190565b6001600160a01b039384168152919092166020820152901515604082015260600190565b6001600160a01b039384168152919092166020820152604081019190915260600190565b6001600160a01b03929092168252602082015260400190565b6001600160a01b03929092168252602082015260606040820181905260009082015260800190565b600060808252612bcd60808301888a612a7c565b8281036020840152612be0818789612a7c565b9150506001600160a01b038085166040840152808416606084015250979650505050505050565b6020808252601c908201527f556e6f52653a207a65726f2063757272656e6379206164647265737300000000604082015260600190565b60208082526026908201527f4f776e61626c653a206e6577206f776e657220697320746865207a65726f206160408201527f6464726573730000000000000000000000000000000000000000000000000000606082015260800190565b60208082526013908201527f556e6f52653a207a65726f206164647265737300000000000000000000000000604082015260600190565b6020808252601a908201527f556e6f52653a7a65726f20666163746f72792061646472657373000000000000604082015260600190565b6020808252601f908201527f556e6f52653a20776974686472617720616d6f756e74206f766572666c6f7700604082015260600190565b60208082526031908201527f5472616e7366657248656c7065723a3a7472616e7366657246726f6d3a20747260408201527f616e7366657246726f6d206661696c6564000000000000000000000000000000606082015260800190565b60208082526017908201527f556e6f52653a2062616c616e6365206f766572666c6f77000000000000000000604082015260600190565b6020808252818101527f556e6f52653a207269736b20706f6f6c206372656174656420616c7265616479604082015260600190565b60208082526012908201527f556e6f52653a204c6f636b65642074696d650000000000000000000000000000604082015260600190565b60208082526011908201527f556e6f52653a207a65726f2076616c7565000000000000000000000000000000604082015260600190565b6020808252601c908201527f556e6f52653a207a65726f206f70657261746f72206164647265737300000000604082015260600190565b6020808252818101527f556e6f52653a206e6f7420616c6c6f77207a65726f2073746172742074696d65604082015260600190565b60208082526012908201527f556e6f52653a207a65726f20616d6f756e740000000000000000000000000000604082015260600190565b6020808252601b908201527f556e6f52653a7a65726f204c5020746f6b656e20616464726573730000000000604082015260600190565b60208082526019908201527f556e6f52653a207a65726f206f776e6572206164647265737300000000000000604082015260600190565b6020808252601f908201527f556e6f52653a206e6f7420616c6c6f77207a65726f206c6f636b2074696d6500604082015260600190565b6020808252601b908201527f556e6f52653a207a65726f20666163746f727920616464726573730000000000604082015260600190565b6020808252818101527f4f776e61626c653a2063616c6c6572206973206e6f7420746865206f776e6572604082015260600190565b60208082526011908201527f556e6f52653a205a45524f2056616c7565000000000000000000000000000000604082015260600190565b60208082526010908201527f556e6f52653a20466f7262696464656e00000000000000000000000000000000604082015260600190565b6020808252818101527f556e6f52653a20726577617264657220666163746f7279206e6f206578697374604082015260600190565b60208082526019908201527f556e6f52653a206e6f7420617661696c61626c652074696d6500000000000000604082015260600190565b6020808252601f908201527f5265656e7472616e637947756172643a207265656e7472616e742063616c6c00604082015260600190565b6020808252601b908201527f556e6f52653a206e6f7420616c6c6f77207a65726f2076616c75650000000000604082015260600190565b6020808252818101527f556e6f52653a206e6f7420616c6c6f77206f7468657273207472616e73666572604082015260600190565b6001600160801b039384168152919092166020820152604081019190915260600190565b6001600160801b0393841681526020810192909252909116604082015260600190565b90815260200190565b918252602082015260400190565b9283526020830191909152604082015260600190565b93845260208401929092526040830152606082015260800190565b60006001600160801b03808316818516808303821115613259576132596132d0565b01949350505050565b60008219821115613275576132756132d0565b500190565b60008261329557634e487b7160e01b81526012600452602481fd5b500490565b60008160001904831182151516156132b4576132b46132d0565b500290565b6000828210156132cb576132cb6132d0565b500390565b634e487b7160e01b600052601160045260246000fd5b6001600160a01b03811681146124da57600080fdfea2646970667358221220a084e52542acf3a54277c063387a5b734a733125f5b6cb4e6fde786a6da39d3a64736f6c63430008000033",
  "devdoc": {
    "kind": "dev",
    "methods": {
      "createRiskPool(string,string,address,address,uint256)": {
        "details": "create Risk pool with UNO from SSRP owner"
      },
      "getTotalWithdrawPendingAmount()": {
        "details": "get total withdraw request amount in pending for the risk pool in UNO"
      },
      "getWithdrawRequestPerUser(address)": {
        "details": "get withdraw request amount in pending per user in UNO"
      },
      "leaveFromPending()": {
        "details": "user can submit claim again and receive his funds into his wallet after 10 days since last WR."
      },
      "leaveFromPoolInPending(uint256)": {
        "details": "WR will be in pending for 10 days at least"
      },
      "owner()": {
        "details": "Returns the address of the current owner."
      },
      "renounceOwnership()": {
        "details": "Leaves the contract without owner. It will not be possible to call `onlyOwner` functions anymore. Can only be called by the current owner. NOTE: Renouncing ownership will leave the contract without an owner, thereby removing any functionality that is only available to the owner."
      },
      "transferOwnership(address)": {
        "details": "Transfers ownership of the contract to a new account (`newOwner`). Can only be called by the current owner."
      }
    },
    "version": 1
  },
  "userdoc": {
    "kind": "user",
    "methods": {},
    "version": 1
  },
  "storageLayout": {
    "storage": [
      {
        "astId": 114,
        "contract": "contracts/SingleSidedReinsurancePool.sol:SingleSidedReinsurancePool",
        "label": "_status",
        "offset": 0,
        "slot": "0",
        "type": "t_uint256"
      },
      {
        "astId": 7,
        "contract": "contracts/SingleSidedReinsurancePool.sol:SingleSidedReinsurancePool",
        "label": "_owner",
        "offset": 0,
        "slot": "1",
        "type": "t_address"
      },
      {
        "astId": 11636,
        "contract": "contracts/SingleSidedReinsurancePool.sol:SingleSidedReinsurancePool",
        "label": "claimAssessor",
        "offset": 0,
        "slot": "2",
        "type": "t_address"
      },
      {
        "astId": 11638,
        "contract": "contracts/SingleSidedReinsurancePool.sol:SingleSidedReinsurancePool",
        "label": "migrateTo",
        "offset": 0,
        "slot": "3",
        "type": "t_address"
      },
      {
        "astId": 11640,
        "contract": "contracts/SingleSidedReinsurancePool.sol:SingleSidedReinsurancePool",
        "label": "syntheticSSRP",
        "offset": 0,
        "slot": "4",
        "type": "t_address"
      },
      {
        "astId": 11643,
        "contract": "contracts/SingleSidedReinsurancePool.sol:SingleSidedReinsurancePool",
        "label": "LOCK_TIME",
        "offset": 0,
        "slot": "5",
        "type": "t_uint256"
      },
      {
        "astId": 11648,
        "contract": "contracts/SingleSidedReinsurancePool.sol:SingleSidedReinsurancePool",
        "label": "STAKING_START_TIME",
        "offset": 0,
        "slot": "6",
        "type": "t_uint256"
      },
      {
        "astId": 11650,
        "contract": "contracts/SingleSidedReinsurancePool.sol:SingleSidedReinsurancePool",
        "label": "rewarder",
        "offset": 0,
        "slot": "7",
        "type": "t_address"
      },
      {
        "astId": 11653,
        "contract": "contracts/SingleSidedReinsurancePool.sol:SingleSidedReinsurancePool",
        "label": "riskPool",
        "offset": 0,
        "slot": "8",
        "type": "t_address"
      },
      {
        "astId": 11672,
        "contract": "contracts/SingleSidedReinsurancePool.sol:SingleSidedReinsurancePool",
        "label": "userInfo",
        "offset": 0,
        "slot": "9",
        "type": "t_mapping(t_address,t_struct(UserInfo)11667_storage)"
      },
      {
        "astId": 11675,
        "contract": "contracts/SingleSidedReinsurancePool.sol:SingleSidedReinsurancePool",
        "label": "poolInfo",
        "offset": 0,
        "slot": "10",
        "type": "t_struct(PoolInfo)11660_storage"
      }
    ],
    "types": {
      "t_address": {
        "encoding": "inplace",
        "label": "address",
        "numberOfBytes": "20"
      },
      "t_mapping(t_address,t_struct(UserInfo)11667_storage)": {
        "encoding": "mapping",
        "key": "t_address",
        "label": "mapping(address => struct SingleSidedReinsurancePool.UserInfo)",
        "numberOfBytes": "32",
        "value": "t_struct(UserInfo)11667_storage"
      },
      "t_struct(PoolInfo)11660_storage": {
        "encoding": "inplace",
        "label": "struct SingleSidedReinsurancePool.PoolInfo",
        "members": [
          {
            "astId": 11655,
            "contract": "contracts/SingleSidedReinsurancePool.sol:SingleSidedReinsurancePool",
            "label": "lastRewardBlock",
            "offset": 0,
            "slot": "0",
            "type": "t_uint128"
          },
          {
            "astId": 11657,
            "contract": "contracts/SingleSidedReinsurancePool.sol:SingleSidedReinsurancePool",
            "label": "accUnoPerShare",
            "offset": 16,
            "slot": "0",
            "type": "t_uint128"
          },
          {
            "astId": 11659,
            "contract": "contracts/SingleSidedReinsurancePool.sol:SingleSidedReinsurancePool",
            "label": "unoMultiplierPerBlock",
            "offset": 0,
            "slot": "1",
            "type": "t_uint256"
          }
        ],
        "numberOfBytes": "64"
      },
      "t_struct(UserInfo)11667_storage": {
        "encoding": "inplace",
        "label": "struct SingleSidedReinsurancePool.UserInfo",
        "members": [
          {
            "astId": 11662,
            "contract": "contracts/SingleSidedReinsurancePool.sol:SingleSidedReinsurancePool",
            "label": "lastWithdrawTime",
            "offset": 0,
            "slot": "0",
            "type": "t_uint256"
          },
          {
            "astId": 11664,
            "contract": "contracts/SingleSidedReinsurancePool.sol:SingleSidedReinsurancePool",
            "label": "rewardDebt",
            "offset": 0,
            "slot": "1",
            "type": "t_uint256"
          },
          {
            "astId": 11666,
            "contract": "contracts/SingleSidedReinsurancePool.sol:SingleSidedReinsurancePool",
            "label": "amount",
            "offset": 0,
            "slot": "2",
            "type": "t_uint256"
          }
        ],
        "numberOfBytes": "96"
      },
      "t_uint128": {
        "encoding": "inplace",
        "label": "uint128",
        "numberOfBytes": "16"
      },
      "t_uint256": {
        "encoding": "inplace",
        "label": "uint256",
        "numberOfBytes": "32"
      }
    }
  }
}