{
  "address": "0x126a71657E06994EB841727bD79B345B681d64e2",
  "abi": [
    {
      "inputs": [],
      "name": "AccessControlBadConfirmation",
      "type": "error"
    },
    {
      "inputs": [
        {
          "internalType": "address",
          "name": "account",
          "type": "address"
        },
        {
          "internalType": "bytes32",
          "name": "neededRole",
          "type": "bytes32"
        }
      ],
      "name": "AccessControlUnauthorizedAccount",
      "type": "error"
    },
    {
      "inputs": [],
      "name": "EnforcedPause",
      "type": "error"
    },
    {
      "inputs": [],
      "name": "ExpectedPause",
      "type": "error"
    },
    {
      "inputs": [],
      "name": "InvalidInitialization",
      "type": "error"
    },
    {
      "inputs": [],
      "name": "NotInitializing",
      "type": "error"
    },
    {
      "inputs": [],
      "name": "ReentrancyGuardReentrantCall",
      "type": "error"
    },
    {
      "anonymous": false,
      "inputs": [
        {
          "indexed": true,
          "internalType": "address",
          "name": "user",
          "type": "address"
        },
        {
          "indexed": false,
          "internalType": "uint256",
          "name": "amount",
          "type": "uint256"
        }
      ],
      "name": "EmergencyWithdraw",
      "type": "event"
    },
    {
      "anonymous": false,
      "inputs": [
        {
          "indexed": true,
          "internalType": "address",
          "name": "user",
          "type": "address"
        },
        {
          "indexed": false,
          "internalType": "bool",
          "name": "EmergencyWithdraw",
          "type": "bool"
        }
      ],
      "name": "EmergencyWithdrawToggled",
      "type": "event"
    },
    {
      "anonymous": false,
      "inputs": [
        {
          "indexed": true,
          "internalType": "address",
          "name": "_user",
          "type": "address"
        },
        {
          "indexed": true,
          "internalType": "address",
          "name": "_receiver",
          "type": "address"
        },
        {
          "indexed": false,
          "internalType": "uint256",
          "name": "_amount",
          "type": "uint256"
        }
      ],
      "name": "Harvest",
      "type": "event"
    },
    {
      "anonymous": false,
      "inputs": [
        {
          "indexed": false,
          "internalType": "uint64",
          "name": "version",
          "type": "uint64"
        }
      ],
      "name": "Initialized",
      "type": "event"
    },
    {
      "anonymous": false,
      "inputs": [
        {
          "indexed": true,
          "internalType": "uint256",
          "name": "policyId",
          "type": "uint256"
        },
        {
          "indexed": true,
          "internalType": "address",
          "name": "payout",
          "type": "address"
        },
        {
          "indexed": false,
          "internalType": "uint256",
          "name": "amount",
          "type": "uint256"
        }
      ],
      "name": "InsurancePayoutSettled",
      "type": "event"
    },
    {
      "anonymous": false,
      "inputs": [
        {
          "indexed": true,
          "internalType": "address",
          "name": "_owner",
          "type": "address"
        },
        {
          "indexed": false,
          "internalType": "bool",
          "name": "_killed",
          "type": "bool"
        }
      ],
      "name": "KillPool",
      "type": "event"
    },
    {
      "anonymous": false,
      "inputs": [
        {
          "indexed": true,
          "internalType": "address",
          "name": "_staker",
          "type": "address"
        },
        {
          "indexed": true,
          "internalType": "address",
          "name": "_pool",
          "type": "address"
        },
        {
          "indexed": false,
          "internalType": "uint256",
          "name": "_requestAmount",
          "type": "uint256"
        }
      ],
      "name": "LeftPool",
      "type": "event"
    },
    {
      "anonymous": false,
      "inputs": [
        {
          "indexed": true,
          "internalType": "address",
          "name": "_user",
          "type": "address"
        },
        {
          "indexed": false,
          "internalType": "uint256",
          "name": "_cancelAmount",
          "type": "uint256"
        },
        {
          "indexed": false,
          "internalType": "uint256",
          "name": "_cancelAmountInUno",
          "type": "uint256"
        }
      ],
      "name": "LogCancelWithdrawRequest",
      "type": "event"
    },
    {
      "anonymous": false,
      "inputs": [
        {
          "indexed": true,
          "internalType": "address",
          "name": "_SSIP",
          "type": "address"
        },
        {
          "indexed": true,
          "internalType": "address",
          "name": "_rewarder",
          "type": "address"
        },
        {
          "indexed": false,
          "internalType": "address",
          "name": "_currency",
          "type": "address"
        }
      ],
      "name": "LogCreateRewarder",
      "type": "event"
    },
    {
      "anonymous": false,
      "inputs": [
        {
          "indexed": true,
          "internalType": "address",
          "name": "_SSIP",
          "type": "address"
        },
        {
          "indexed": true,
          "internalType": "address",
          "name": "_syntheticSSIP",
          "type": "address"
        },
        {
          "indexed": true,
          "internalType": "address",
          "name": "_lpToken",
          "type": "address"
        }
      ],
      "name": "LogCreateSyntheticSSIP",
      "type": "event"
    },
    {
      "anonymous": false,
      "inputs": [
        {
          "indexed": true,
          "internalType": "address",
          "name": "_user",
          "type": "address"
        },
        {
          "indexed": true,
          "internalType": "address",
          "name": "_riskPool",
          "type": "address"
        },
        {
          "indexed": false,
          "internalType": "uint256",
          "name": "_withdrawLpAmount",
          "type": "uint256"
        },
        {
          "indexed": false,
          "internalType": "uint256",
          "name": "_withdrawUnoAmount",
          "type": "uint256"
        }
      ],
      "name": "LogLeaveFromPendingSSIP",
      "type": "event"
    },
    {
      "anonymous": false,
      "inputs": [
        {
          "indexed": true,
          "internalType": "address",
          "name": "_from",
          "type": "address"
        },
        {
          "indexed": true,
          "internalType": "address",
          "name": "_to",
          "type": "address"
        },
        {
          "indexed": false,
          "internalType": "uint256",
          "name": "_amount",
          "type": "uint256"
        }
      ],
      "name": "LogLpTransferInSSIP",
      "type": "event"
    },
    {
      "anonymous": false,
      "inputs": [
        {
          "indexed": true,
          "internalType": "address",
          "name": "_user",
          "type": "address"
        },
        {
          "indexed": true,
          "internalType": "address",
          "name": "_migrateTo",
          "type": "address"
        },
        {
          "indexed": false,
          "internalType": "uint256",
          "name": "_migratedAmount",
          "type": "uint256"
        }
      ],
      "name": "LogMigrate",
      "type": "event"
    },
    {
      "anonymous": false,
      "inputs": [
        {
          "indexed": true,
          "internalType": "address",
          "name": "_SSIP",
          "type": "address"
        },
        {
          "indexed": true,
          "internalType": "address",
          "name": "_capitalAgent",
          "type": "address"
        }
      ],
      "name": "LogSetCapitalAgent",
      "type": "event"
    },
    {
      "anonymous": false,
      "inputs": [
        {
          "indexed": true,
          "internalType": "address",
          "name": "_SSIP",
          "type": "address"
        },
        {
          "indexed": false,
          "internalType": "uint256",
          "name": "_lockTime",
          "type": "uint256"
        }
      ],
      "name": "LogSetLockTime",
      "type": "event"
    },
    {
      "anonymous": false,
      "inputs": [
        {
          "indexed": true,
          "internalType": "address",
          "name": "_SSIP",
          "type": "address"
        },
        {
          "indexed": true,
          "internalType": "address",
          "name": "_migrateTo",
          "type": "address"
        }
      ],
      "name": "LogSetMigrateTo",
      "type": "event"
    },
    {
      "anonymous": false,
      "inputs": [
        {
          "indexed": true,
          "internalType": "address",
          "name": "_SSIP",
          "type": "address"
        },
        {
          "indexed": false,
          "internalType": "uint256",
          "name": "_minLPCapital",
          "type": "uint256"
        }
      ],
      "name": "LogSetMinLPCapital",
      "type": "event"
    },
    {
      "anonymous": false,
      "inputs": [
        {
          "indexed": true,
          "internalType": "address",
          "name": "_SSIP",
          "type": "address"
        },
        {
          "indexed": false,
          "internalType": "uint256",
          "name": "_rewardPerBlock",
          "type": "uint256"
        }
      ],
      "name": "LogSetRewardMultiplier",
      "type": "event"
    },
    {
      "anonymous": false,
      "inputs": [
        {
          "indexed": true,
          "internalType": "address",
          "name": "_SSIP",
          "type": "address"
        },
        {
          "indexed": false,
          "internalType": "bytes32",
          "name": "_role",
          "type": "bytes32"
        },
        {
          "indexed": true,
          "internalType": "address",
          "name": "_account",
          "type": "address"
        }
      ],
      "name": "LogSetRole",
      "type": "event"
    },
    {
      "anonymous": false,
      "inputs": [
        {
          "indexed": true,
          "internalType": "address",
          "name": "_SSIP",
          "type": "address"
        },
        {
          "indexed": false,
          "internalType": "uint256",
          "name": "_startTime",
          "type": "uint256"
        }
      ],
      "name": "LogSetStakingStartTime",
      "type": "event"
    },
    {
      "anonymous": false,
      "inputs": [
        {
          "indexed": false,
          "internalType": "uint256",
          "name": "_lastRewardBlock",
          "type": "uint256"
        },
        {
          "indexed": false,
          "internalType": "uint256",
          "name": "_lpSupply",
          "type": "uint256"
        },
        {
          "indexed": false,
          "internalType": "uint256",
          "name": "_accUnoPerShare",
          "type": "uint256"
        }
      ],
      "name": "LogUpdatePool",
      "type": "event"
    },
    {
      "anonymous": false,
      "inputs": [
        {
          "indexed": false,
          "internalType": "address",
          "name": "account",
          "type": "address"
        }
      ],
      "name": "Paused",
      "type": "event"
    },
    {
      "anonymous": false,
      "inputs": [
        {
          "indexed": true,
          "internalType": "address",
          "name": "_user",
          "type": "address"
        },
        {
          "indexed": false,
          "internalType": "uint256",
          "name": "_claimAmount",
          "type": "uint256"
        }
      ],
      "name": "PolicyClaim",
      "type": "event"
    },
    {
      "anonymous": false,
      "inputs": [
        {
          "indexed": true,
          "internalType": "address",
          "name": "_owner",
          "type": "address"
        },
        {
          "indexed": false,
          "internalType": "bool",
          "name": "_alive",
          "type": "bool"
        }
      ],
      "name": "PoolAlived",
      "type": "event"
    },
    {
      "anonymous": false,
      "inputs": [
        {
          "indexed": true,
          "internalType": "address",
          "name": "_owner",
          "type": "address"
        },
        {
          "indexed": false,
          "internalType": "bool",
          "name": "_fail",
          "type": "bool"
        }
      ],
      "name": "PoolFailed",
      "type": "event"
    },
    {
      "anonymous": false,
      "inputs": [
        {
          "indexed": true,
          "internalType": "address",
          "name": "_SSIP",
          "type": "address"
        },
        {
          "indexed": true,
          "internalType": "address",
          "name": "_pool",
          "type": "address"
        }
      ],
      "name": "RiskPoolCreated",
      "type": "event"
    },
    {
      "anonymous": false,
      "inputs": [
        {
          "indexed": true,
          "internalType": "bytes32",
          "name": "role",
          "type": "bytes32"
        },
        {
          "indexed": true,
          "internalType": "bytes32",
          "name": "previousAdminRole",
          "type": "bytes32"
        },
        {
          "indexed": true,
          "internalType": "bytes32",
          "name": "newAdminRole",
          "type": "bytes32"
        }
      ],
      "name": "RoleAdminChanged",
      "type": "event"
    },
    {
      "anonymous": false,
      "inputs": [
        {
          "indexed": true,
          "internalType": "bytes32",
          "name": "role",
          "type": "bytes32"
        },
        {
          "indexed": true,
          "internalType": "address",
          "name": "account",
          "type": "address"
        },
        {
          "indexed": true,
          "internalType": "address",
          "name": "sender",
          "type": "address"
        }
      ],
      "name": "RoleGranted",
      "type": "event"
    },
    {
      "anonymous": false,
      "inputs": [
        {
          "indexed": true,
          "internalType": "bytes32",
          "name": "role",
          "type": "bytes32"
        },
        {
          "indexed": true,
          "internalType": "address",
          "name": "account",
          "type": "address"
        },
        {
          "indexed": true,
          "internalType": "address",
          "name": "sender",
          "type": "address"
        }
      ],
      "name": "RoleRevoked",
      "type": "event"
    },
    {
      "anonymous": false,
      "inputs": [
        {
          "indexed": true,
          "internalType": "address[]",
          "name": "_staker",
          "type": "address[]"
        },
        {
          "indexed": true,
          "internalType": "address",
          "name": "_pool",
          "type": "address"
        },
        {
          "indexed": false,
          "internalType": "uint256",
          "name": "_amount",
          "type": "uint256"
        }
      ],
      "name": "RollOverReward",
      "type": "event"
    },
    {
      "anonymous": false,
      "inputs": [
        {
          "indexed": true,
          "internalType": "address",
          "name": "_staker",
          "type": "address"
        },
        {
          "indexed": true,
          "internalType": "address",
          "name": "_pool",
          "type": "address"
        },
        {
          "indexed": false,
          "internalType": "uint256",
          "name": "_amount",
          "type": "uint256"
        }
      ],
      "name": "StakedInPool",
      "type": "event"
    },
    {
      "anonymous": false,
      "inputs": [
        {
          "indexed": false,
          "internalType": "address",
          "name": "account",
          "type": "address"
        }
      ],
      "name": "Unpaused",
      "type": "event"
    },
    {
      "inputs": [],
      "name": "ACC_UNO_PRECISION",
      "outputs": [
        {
          "internalType": "uint256",
          "name": "",
          "type": "uint256"
        }
      ],
      "stateMutability": "view",
      "type": "function"
    },
    {
      "inputs": [],
      "name": "ADMIN_ROLE",
      "outputs": [
        {
          "internalType": "bytes32",
          "name": "",
          "type": "bytes32"
        }
      ],
      "stateMutability": "view",
      "type": "function"
    },
    {
      "inputs": [],
      "name": "BOT_ROLE",
      "outputs": [
        {
          "internalType": "bytes32",
          "name": "",
          "type": "bytes32"
        }
      ],
      "stateMutability": "view",
      "type": "function"
    },
    {
      "inputs": [],
      "name": "CLAIM_PROCESSOR_ROLE",
      "outputs": [
        {
          "internalType": "bytes32",
          "name": "",
          "type": "bytes32"
        }
      ],
      "stateMutability": "view",
      "type": "function"
    },
    {
      "inputs": [],
      "name": "DEFAULT_ADMIN_ROLE",
      "outputs": [
        {
          "internalType": "bytes32",
          "name": "",
          "type": "bytes32"
        }
      ],
      "stateMutability": "view",
      "type": "function"
    },
    {
      "inputs": [],
      "name": "GUARDIAN_COUNCIL_ROLE",
      "outputs": [
        {
          "internalType": "bytes32",
          "name": "",
          "type": "bytes32"
        }
      ],
      "stateMutability": "view",
      "type": "function"
    },
    {
      "inputs": [],
      "name": "cancelWithdrawRequest",
      "outputs": [],
      "stateMutability": "nonpayable",
      "type": "function"
    },
    {
      "inputs": [],
      "name": "capitalAgent",
      "outputs": [
        {
          "internalType": "address",
          "name": "",
          "type": "address"
        }
      ],
      "stateMutability": "view",
      "type": "function"
    },
    {
      "inputs": [
        {
          "internalType": "address",
          "name": "_operator",
          "type": "address"
        },
        {
          "internalType": "address",
          "name": "_factory",
          "type": "address"
        },
        {
          "internalType": "address",
          "name": "_currency",
          "type": "address"
        }
      ],
      "name": "createRewarder",
      "outputs": [],
      "stateMutability": "nonpayable",
      "type": "function"
    },
    {
      "inputs": [
        {
          "internalType": "string",
          "name": "_name",
          "type": "string"
        },
        {
          "internalType": "string",
          "name": "_symbol",
          "type": "string"
        },
        {
          "internalType": "address",
          "name": "_factory",
          "type": "address"
        },
        {
          "internalType": "address",
          "name": "_currency",
          "type": "address"
        },
        {
          "internalType": "uint256",
          "name": "_rewardMultiplier",
          "type": "uint256"
        },
        {
          "internalType": "uint256",
          "name": "_SCR",
          "type": "uint256"
        }
      ],
      "name": "createRiskPool",
      "outputs": [],
      "stateMutability": "nonpayable",
      "type": "function"
    },
    {
      "inputs": [
        {
          "internalType": "address",
          "name": "_multiSigWallet",
          "type": "address"
        },
        {
          "internalType": "address",
          "name": "_factory",
          "type": "address"
        }
      ],
      "name": "createSyntheticSSIP",
      "outputs": [],
      "stateMutability": "nonpayable",
      "type": "function"
    },
    {
      "inputs": [],
      "name": "emergencyWithdraw",
      "outputs": [],
      "stateMutability": "nonpayable",
      "type": "function"
    },
    {
      "inputs": [],
      "name": "emergencyWithdrawAllowed",
      "outputs": [
        {
          "internalType": "bool",
          "name": "",
          "type": "bool"
        }
      ],
      "stateMutability": "view",
      "type": "function"
    },
    {
      "inputs": [
        {
          "internalType": "uint256",
          "name": "_amount",
          "type": "uint256"
        }
      ],
      "name": "enterInPool",
      "outputs": [],
      "stateMutability": "payable",
      "type": "function"
    },
    {
      "inputs": [
        {
          "internalType": "bytes32",
          "name": "role",
          "type": "bytes32"
        }
      ],
      "name": "getRoleAdmin",
      "outputs": [
        {
          "internalType": "bytes32",
          "name": "",
          "type": "bytes32"
        }
      ],
      "stateMutability": "view",
      "type": "function"
    },
    {
      "inputs": [
        {
          "internalType": "address",
          "name": "_to",
          "type": "address"
        }
      ],
      "name": "getStakedAmountPerUser",
      "outputs": [
        {
          "internalType": "uint256",
          "name": "unoAmount",
          "type": "uint256"
        },
        {
          "internalType": "uint256",
          "name": "lpAmount",
          "type": "uint256"
        }
      ],
      "stateMutability": "view",
      "type": "function"
    },
    {
      "inputs": [],
      "name": "getTotalWithdrawPendingAmount",
      "outputs": [
        {
          "internalType": "uint256",
          "name": "",
          "type": "uint256"
        }
      ],
      "stateMutability": "view",
      "type": "function"
    },
    {
      "inputs": [
        {
          "internalType": "address",
          "name": "_user",
          "type": "address"
        }
      ],
      "name": "getWithdrawRequestPerUser",
      "outputs": [
        {
          "internalType": "uint256",
          "name": "pendingAmount",
          "type": "uint256"
        },
        {
          "internalType": "uint256",
          "name": "pendingAmountInUno",
          "type": "uint256"
        },
        {
          "internalType": "uint256",
          "name": "originUnoAmount",
          "type": "uint256"
        },
        {
          "internalType": "uint256",
          "name": "requestTime",
          "type": "uint256"
        }
      ],
      "stateMutability": "view",
      "type": "function"
    },
    {
      "inputs": [
        {
          "internalType": "bytes32",
          "name": "role",
          "type": "bytes32"
        },
        {
          "internalType": "address",
          "name": "account",
          "type": "address"
        }
      ],
      "name": "grantRole",
      "outputs": [],
      "stateMutability": "nonpayable",
      "type": "function"
    },
    {
      "inputs": [
        {
          "internalType": "address",
          "name": "_to",
          "type": "address"
        }
      ],
      "name": "harvest",
      "outputs": [],
      "stateMutability": "nonpayable",
      "type": "function"
    },
    {
      "inputs": [
        {
          "internalType": "bytes32",
          "name": "role",
          "type": "bytes32"
        },
        {
          "internalType": "address",
          "name": "account",
          "type": "address"
        }
      ],
      "name": "hasRole",
      "outputs": [
        {
          "internalType": "bool",
          "name": "",
          "type": "bool"
        }
      ],
      "stateMutability": "view",
      "type": "function"
    },
    {
      "inputs": [
        {
          "internalType": "address",
          "name": "_capitalAgent",
          "type": "address"
        },
        {
          "internalType": "address",
          "name": "_multiSigWallet",
          "type": "address"
        },
        {
          "internalType": "address",
          "name": "_governance",
          "type": "address"
        }
      ],
      "name": "initialize",
      "outputs": [],
      "stateMutability": "nonpayable",
      "type": "function"
    },
    {
      "inputs": [],
      "name": "killPool",
      "outputs": [],
      "stateMutability": "nonpayable",
      "type": "function"
    },
    {
      "inputs": [],
      "name": "killed",
      "outputs": [
        {
          "internalType": "bool",
          "name": "",
          "type": "bool"
        }
      ],
      "stateMutability": "view",
      "type": "function"
    },
    {
      "inputs": [
        {
          "internalType": "uint256",
          "name": "_amount",
          "type": "uint256"
        }
      ],
      "name": "leaveFromPending",
      "outputs": [],
      "stateMutability": "nonpayable",
      "type": "function"
    },
    {
      "inputs": [
        {
          "internalType": "uint256",
          "name": "_amount",
          "type": "uint256"
        }
      ],
      "name": "leaveFromPoolInPending",
      "outputs": [],
      "stateMutability": "nonpayable",
      "type": "function"
    },
    {
      "inputs": [],
      "name": "lockTime",
      "outputs": [
        {
          "internalType": "uint256",
          "name": "",
          "type": "uint256"
        }
      ],
      "stateMutability": "view",
      "type": "function"
    },
    {
      "inputs": [
        {
          "internalType": "address",
          "name": "_from",
          "type": "address"
        },
        {
          "internalType": "address",
          "name": "_to",
          "type": "address"
        },
        {
          "internalType": "uint256",
          "name": "_amount",
          "type": "uint256"
        }
      ],
      "name": "lpTransfer",
      "outputs": [],
      "stateMutability": "nonpayable",
      "type": "function"
    },
    {
      "inputs": [],
      "name": "migrate",
      "outputs": [],
      "stateMutability": "nonpayable",
      "type": "function"
    },
    {
      "inputs": [],
      "name": "migrateTo",
      "outputs": [
        {
          "internalType": "address",
          "name": "",
          "type": "address"
        }
      ],
      "stateMutability": "view",
      "type": "function"
    },
    {
      "inputs": [],
      "name": "pausePool",
      "outputs": [],
      "stateMutability": "nonpayable",
      "type": "function"
    },
    {
      "inputs": [],
      "name": "paused",
      "outputs": [
        {
          "internalType": "bool",
          "name": "",
          "type": "bool"
        }
      ],
      "stateMutability": "view",
      "type": "function"
    },
    {
      "inputs": [
        {
          "internalType": "address",
          "name": "_to",
          "type": "address"
        }
      ],
      "name": "pendingUno",
      "outputs": [
        {
          "internalType": "uint256",
          "name": "pending",
          "type": "uint256"
        }
      ],
      "stateMutability": "view",
      "type": "function"
    },
    {
      "inputs": [
        {
          "internalType": "uint256",
          "name": "",
          "type": "uint256"
        }
      ],
      "name": "policies",
      "outputs": [
        {
          "internalType": "uint256",
          "name": "insuranceAmount",
          "type": "uint256"
        },
        {
          "internalType": "address",
          "name": "payoutAddress",
          "type": "address"
        },
        {
          "internalType": "bool",
          "name": "settled",
          "type": "bool"
        }
      ],
      "stateMutability": "view",
      "type": "function"
    },
    {
      "inputs": [],
      "name": "poolInfo",
      "outputs": [
        {
          "internalType": "uint256",
          "name": "lastRewardBlock",
          "type": "uint256"
        },
        {
          "internalType": "uint256",
          "name": "accUnoPerShare",
          "type": "uint256"
        },
        {
          "internalType": "uint256",
          "name": "unoMultiplierPerBlock",
          "type": "uint256"
        }
      ],
      "stateMutability": "view",
      "type": "function"
    },
    {
      "inputs": [
        {
          "internalType": "bytes32",
          "name": "role",
          "type": "bytes32"
        },
        {
          "internalType": "address",
          "name": "callerConfirmation",
          "type": "address"
        }
      ],
      "name": "renounceRole",
      "outputs": [],
      "stateMutability": "nonpayable",
      "type": "function"
    },
    {
      "inputs": [],
      "name": "revivePool",
      "outputs": [],
      "stateMutability": "nonpayable",
      "type": "function"
    },
    {
      "inputs": [
        {
          "internalType": "bytes32",
          "name": "role",
          "type": "bytes32"
        },
        {
          "internalType": "address",
          "name": "account",
          "type": "address"
        }
      ],
      "name": "revokeRole",
      "outputs": [],
      "stateMutability": "nonpayable",
      "type": "function"
    },
    {
      "inputs": [],
      "name": "rewarder",
      "outputs": [
        {
          "internalType": "address",
          "name": "",
          "type": "address"
        }
      ],
      "stateMutability": "view",
      "type": "function"
    },
    {
      "inputs": [],
      "name": "riskPool",
      "outputs": [
        {
          "internalType": "address",
          "name": "",
          "type": "address"
        }
      ],
      "stateMutability": "view",
      "type": "function"
    },
    {
      "inputs": [
        {
          "internalType": "bytes32",
          "name": "",
          "type": "bytes32"
        },
        {
          "internalType": "address",
          "name": "",
          "type": "address"
        }
      ],
      "name": "roleLockTime",
      "outputs": [
        {
          "internalType": "uint256",
          "name": "",
          "type": "uint256"
        }
      ],
      "stateMutability": "view",
      "type": "function"
    },
    {
      "inputs": [
        {
          "internalType": "address[]",
          "name": "_to",
          "type": "address[]"
        }
      ],
      "name": "rollOverReward",
      "outputs": [],
      "stateMutability": "nonpayable",
      "type": "function"
    },
    {
      "inputs": [
        {
          "internalType": "address",
          "name": "_capitalAgent",
          "type": "address"
        }
      ],
      "name": "setCapitalAgent",
      "outputs": [],
      "stateMutability": "nonpayable",
      "type": "function"
    },
    {
      "inputs": [
        {
          "internalType": "uint256",
          "name": "_lockTime",
          "type": "uint256"
        }
      ],
      "name": "setLockTime",
      "outputs": [],
      "stateMutability": "nonpayable",
      "type": "function"
    },
    {
      "inputs": [
        {
          "internalType": "address",
          "name": "_migrateTo",
          "type": "address"
        }
      ],
      "name": "setMigrateTo",
      "outputs": [],
      "stateMutability": "nonpayable",
      "type": "function"
    },
    {
      "inputs": [
        {
          "internalType": "uint256",
          "name": "_minLPCapital",
          "type": "uint256"
        }
      ],
      "name": "setMinLPCapital",
      "outputs": [],
      "stateMutability": "nonpayable",
      "type": "function"
    },
    {
      "inputs": [
        {
          "internalType": "uint256",
          "name": "_rewardMultiplier",
          "type": "uint256"
        }
      ],
      "name": "setRewardMultiplier",
      "outputs": [],
      "stateMutability": "nonpayable",
      "type": "function"
    },
    {
      "inputs": [
        {
          "internalType": "bytes32",
          "name": "_role",
          "type": "bytes32"
        },
        {
          "internalType": "address",
          "name": "_account",
          "type": "address"
        }
      ],
      "name": "setRole",
      "outputs": [],
      "stateMutability": "nonpayable",
      "type": "function"
    },
    {
      "inputs": [
        {
          "internalType": "uint256",
          "name": "_startTime",
          "type": "uint256"
        }
      ],
      "name": "setStakingStartTime",
      "outputs": [],
      "stateMutability": "nonpayable",
      "type": "function"
    },
    {
      "inputs": [
        {
          "internalType": "uint256",
          "name": "_policyId",
          "type": "uint256"
        },
        {
          "internalType": "address",
          "name": "_payout",
          "type": "address"
        },
        {
          "internalType": "uint256",
          "name": "_amount",
          "type": "uint256"
        }
      ],
      "name": "settlePayout",
      "outputs": [],
      "stateMutability": "nonpayable",
      "type": "function"
    },
    {
      "inputs": [],
      "name": "stakingStartTime",
      "outputs": [
        {
          "internalType": "uint256",
          "name": "",
          "type": "uint256"
        }
      ],
      "stateMutability": "view",
      "type": "function"
    },
    {
      "inputs": [
        {
          "internalType": "bytes4",
          "name": "interfaceId",
          "type": "bytes4"
        }
      ],
      "name": "supportsInterface",
      "outputs": [
        {
          "internalType": "bool",
          "name": "",
          "type": "bool"
        }
      ],
      "stateMutability": "view",
      "type": "function"
    },
    {
      "inputs": [],
      "name": "syntheticSSIP",
      "outputs": [
        {
          "internalType": "address",
          "name": "",
          "type": "address"
        }
      ],
      "stateMutability": "view",
      "type": "function"
    },
    {
      "inputs": [],
      "name": "toggleEmergencyWithdraw",
      "outputs": [],
      "stateMutability": "nonpayable",
      "type": "function"
    },
    {
      "inputs": [],
      "name": "toggleRollOver",
      "outputs": [],
      "stateMutability": "nonpayable",
      "type": "function"
    },
    {
      "inputs": [],
      "name": "unpausePool",
      "outputs": [],
      "stateMutability": "nonpayable",
      "type": "function"
    },
    {
      "inputs": [],
      "name": "updatePool",
      "outputs": [],
      "stateMutability": "nonpayable",
      "type": "function"
    },
    {
      "inputs": [
        {
          "internalType": "address",
          "name": "",
          "type": "address"
        }
      ],
      "name": "userInfo",
      "outputs": [
        {
          "internalType": "uint256",
          "name": "lastWithdrawTime",
          "type": "uint256"
        },
        {
          "internalType": "uint256",
          "name": "rewardDebt",
          "type": "uint256"
        },
        {
          "internalType": "uint256",
          "name": "amount",
          "type": "uint256"
        },
        {
          "internalType": "bool",
          "name": "isNotRollOver",
          "type": "bool"
        }
      ],
      "stateMutability": "view",
      "type": "function"
    }
  ],
  "transactionHash": "0x4136f3a7b0adc8c5b54ec9ab9e33f75db05d59a5b548907b14530a8fb3a26786",
  "args": [],
  "numDeployments": 2,
  "solcInputHash": "382d06669c6157ce1b29c417fb0b2c7f",
  "bytecode": "0x608060405234801561001057600080fd5b50615f0f80620000216000396000f3fe6080604052600436106103815760003560e01c806393b6b86c116101d1578063cd87c83c11610102578063e08c5de1116100a0578063e3824a381161006f578063e3824a3814610bdf578063f1daf24c14610bf2578063fd91db9614610c12578063fe30e7e614610c3257600080fd5b8063e08c5de114610b5d578063e0c8d9a514610b7d578063e19e716814610bb5578063e3161ddd14610bca57600080fd5b8063d547741f116100dc578063d547741f14610ae8578063db2e21bc14610b08578063dcc3e06e14610b1d578063dff8720314610b3d57600080fd5b8063cd87c83c14610a26578063d3e8948314610a46578063d531d94414610ab457600080fd5b8063af16d6e01161016f578063c0c53b8b11610149578063c0c53b8b146109a6578063c2eb8eb9146109c6578063c3dcfcf1146109e6578063c4e5dacf14610a0657600080fd5b8063af16d6e01461091d578063b15037741461093d578063ba6194571461097157600080fd5b8063a3bdd632116101ab578063a3bdd632146108a0578063aa09d5b7146108b5578063aceda7f9146108ca578063ae04d45d146108fd57600080fd5b806393b6b86c1461084b57806398c6e7601461086b578063a217fddf1461088b57600080fd5b806342198160116102b657806375b238fc1161025457806389919b711161022357806389919b71146107755780638fd3ab801461079157806391d14854146107a65780639336f4061461080b57600080fd5b806375b238fc146106ea5780637a39b8d81461070c5780637da2a4a7146107215780638395206c1461075557600080fd5b80635d90bad9116102905780635d90bad91461067f578063677554151461069f5780636abfd183146106b4578063736ec05c146106ca57600080fd5b806342198160146105d65780635a2f3d091461060e5780635c975abb1461064857600080fd5b80630e9ae420116103235780631f3a0e41116102fd5780631f3a0e4114610526578063248a9ca3146105475780632f2ff15d1461059657806336568abe146105b657600080fd5b80630e9ae4201461047f5780631959a0021461049f5780631b600ca21461050657600080fd5b8063093cf18f1161035f578063093cf18f146104145780630bd075a1146104295780630d668087146104495780630e5c011e1461045f57600080fd5b806301ffc9a714610386578063068cc514146103bb578063078fa9bc146103d2575b600080fd5b34801561039257600080fd5b506103a66103a136600461586f565b610c52565b60405190151581526020015b60405180910390f35b3480156103c757600080fd5b506103d0610ceb565b005b3480156103de57600080fd5b506104067f3b745c09aefb8f732a168ec71c3c87b50c0a4cfd1d104649ae3c04a4623b26bf81565b6040519081526020016103b2565b34801561042057600080fd5b506103d0610da2565b34801561043557600080fd5b506103d06104443660046158b8565b610edd565b34801561045557600080fd5b5061040660055481565b34801561046b57600080fd5b506103d061047a3660046158e6565b611013565b34801561048b57600080fd5b506103d061049a366004615903565b6110fc565b3480156104ab57600080fd5b506104e46104ba3660046158e6565b60096020526000908152604090208054600182015460028301546003909301549192909160ff1684565b60408051948552602085019390935291830152151560608201526080016103b2565b34801561051257600080fd5b506103d0610521366004615944565b611471565b34801561053257600080fd5b506002546103a690600160a01b900460ff1681565b34801561055357600080fd5b506104066105623660046158b8565b60009081527f02dd7bc7dec4dceedda775e58dd541e08a116c6c53815c0bd028192f7b626800602052604090206001015490565b3480156105a257600080fd5b506103d06105b136600461597d565b611742565b3480156105c257600080fd5b506103d06105d136600461597d565b611881565b3480156105e257600080fd5b506001546105f6906001600160a01b031681565b6040516001600160a01b0390911681526020016103b2565b34801561061a57600080fd5b50600a54600b54600c5461062d92919083565b604080519384526020840192909252908201526060016103b2565b34801561065457600080fd5b507fcd5ed15c6e187e77e9aee88184c21f4f2182ab5827cb3b7e07fbedcd63f033005460ff166103a6565b34801561068b57600080fd5b506103d061069a3660046158b8565b6118cd565b3480156106ab57600080fd5b506103d06119b4565b3480156106c057600080fd5b5061040660065481565b3480156106d657600080fd5b506103d06106e53660046158e6565b611ab5565b3480156106f657600080fd5b50610406600080516020615eba83398151915281565b34801561071857600080fd5b506103d0611c0b565b34801561072d57600080fd5b506103d0336000908152600960205260409020600301805460ff19811660ff90911615179055565b34801561076157600080fd5b506103d06107703660046158b8565b611d12565b34801561078157600080fd5b50610406670de0b6b3a764000081565b34801561079d57600080fd5b506103d06120dd565b3480156107b257600080fd5b506103a66107c136600461597d565b60009182527f02dd7bc7dec4dceedda775e58dd541e08a116c6c53815c0bd028192f7b626800602090815260408084206001600160a01b0393909316845291905290205460ff1690565b34801561081757600080fd5b5061082b6108263660046158e6565b612402565b6040805194855260208501939093529183015260608201526080016103b2565b34801561085757600080fd5b506103d06108663660046158b8565b612522565b34801561087757600080fd5b506000546105f6906001600160a01b031681565b34801561089757600080fd5b50610406600081565b3480156108ac57600080fd5b506104066126bf565b3480156108c157600080fd5b506103d061273d565b3480156108d657600080fd5b506002546103a6907501000000000000000000000000000000000000000000900460ff1681565b34801561090957600080fd5b506103d06109183660046158b8565b6127eb565b34801561092957600080fd5b506103d06109383660046159a2565b612918565b34801561094957600080fd5b506104067f6d5c9827c1f410bbb61d3b2a0a34b6b30492d9a1fd38588edca7ec4562ab9c9b81565b34801561097d57600080fd5b5061099161098c3660046158e6565b612b94565b604080519283526020830191909152016103b2565b3480156109b257600080fd5b506103d06109c13660046159a2565b612c5a565b3480156109d257600080fd5b506103d06109e13660046158e6565b613121565b3480156109f257600080fd5b506103d0610a01366004615a36565b613278565b348015610a1257600080fd5b506004546105f6906001600160a01b031681565b348015610a3257600080fd5b506002546105f6906001600160a01b031681565b348015610a5257600080fd5b50610a8f610a613660046158b8565b600860205260009081526040902080546001909101546001600160a01b03811690600160a01b900460ff1683565b604080519384526001600160a01b0390921660208401521515908201526060016103b2565b348015610ac057600080fd5b506104067f525f00f39e65e1c0c967e855509bb98a6cd037ce8b8a5f910c034f8ef97baa3b81565b348015610af457600080fd5b506103d0610b0336600461597d565b613582565b348015610b1457600080fd5b506103d06135c6565b348015610b2957600080fd5b506003546105f6906001600160a01b031681565b348015610b4957600080fd5b506103d0610b5836600461597d565b613817565b348015610b6957600080fd5b50610406610b783660046158e6565b6139ee565b348015610b8957600080fd5b50610406610b9836600461597d565b600760209081526000928352604080842090915290825290205481565b348015610bc157600080fd5b506103d0613b34565b348015610bd657600080fd5b506103d0613c60565b6103d0610bed3660046158b8565b613d8b565b348015610bfe57600080fd5b506103d0610c0d3660046158b8565b613ebf565b348015610c1e57600080fd5b506103d0610c2d366004615b48565b614222565b348015610c3e57600080fd5b506103d0610c4d366004615be7565b6146ac565b60007fffffffff0000000000000000000000000000000000000000000000000000000082167f7965db0b000000000000000000000000000000000000000000000000000000001480610ce557507f01ffc9a7000000000000000000000000000000000000000000000000000000007fffffffff000000000000000000000000000000000000000000000000000000008316145b92915050565b600080516020615eba833981519152610d038161493c565b3360009081527fa70365933f78520ef41d6645ba61e509916296603327302d41466c063e8e26086020526040902054600080516020615eba83398151915290421015610d965760405162461bcd60e51b815260206004820181905260248201527f556e6f52653a20726f6c6c206c6f636b2074696d65206e6f742070617373656460448201526064015b60405180910390fd5b610d9e614946565b5050565b600080516020615eba833981519152610dba8161493c565b3360009081527fa70365933f78520ef41d6645ba61e509916296603327302d41466c063e8e26086020526040902054600080516020615eba83398151915290421015610e485760405162461bcd60e51b815260206004820181905260248201527f556e6f52653a20726f6c6c206c6f636b2074696d65206e6f74207061737365646044820152606401610d8d565b6002805460ff750100000000000000000000000000000000000000000080830482161581027fffffffffffffffffffff00ffffffffffffffffffffffffffffffffffffffffff909316929092179283905560405130937f4a1fbdd1e9ef46cfe9e097f622e1d79f51dcd6762c86122e6a8198c5394d640193610ed1939104161515815260200190565b60405180910390a25050565b600080516020615eba833981519152610ef58161493c565b3360009081527fa70365933f78520ef41d6645ba61e509916296603327302d41466c063e8e26086020526040902054600080516020615eba83398151915290421015610f835760405162461bcd60e51b815260206004820181905260248201527f556e6f52653a20726f6c6c206c6f636b2074696d65206e6f74207061737365646044820152606401610d8d565b60008311610fd35760405162461bcd60e51b815260206004820152601160248201527f556e6f52653a207a65726f2076616c75650000000000000000000000000000006044820152606401610d8d565b600c83905560405183815230907fbd1dd13c6a5b4a28ebd27fdcb8fdd01aba6bbb9f67599306248f465bcdf9817f906020015b60405180910390a2505050565b61101b6149b2565b600254600160a01b900460ff161561106d5760405162461bcd60e51b8152602060048201526015602482015274155b9bd4994e881c1bdbdb081a5cc81ada5b1b1959605a1b6044820152606401610d8d565b6006544210156110bf5760405162461bcd60e51b815260206004820152601960248201527f556e6f52653a206e6f7420617661696c61626c652074696d65000000000000006044820152606401610d8d565b6110c7614a0e565b6110d081614a8f565b6110f960017f9b779b17422d0df92223018b32b4d1fa46e071723d6817e2486d003becc55f0055565b50565b611104614a0e565b61110c6149b2565b600254600160a01b900460ff161561115e5760405162461bcd60e51b8152602060048201526015602482015274155b9bd4994e881c1bdbdb081a5cc81ada5b1b1959605a1b6044820152606401610d8d565b6004546001600160a01b031633146111b85760405162461bcd60e51b815260206004820181905260248201527f556e6f52653a206e6f7420616c6c6f77206f7468657273207472616e736665726044820152606401610d8d565b6002546001600160a01b038481169116148015906111e457506002546001600160a01b03838116911614155b15611443576111f283614a8f565b6001600160a01b0383811660008181526009602052604080822060020154600480549251631665744b60e11b815290810194909452939192911690632ccae89690602401606060405180830381865afa158015611253573d6000803e3d6000fd5b505050506040513d601f19601f820116820180604052508101906112779190615c0e565b505090508281836112889190615c52565b10156112d65760405162461bcd60e51b815260206004820152601760248201527f556e6f52653a2062616c616e6365206f766572666c6f770000000000000000006044820152606401610d8d565b600b54600090670de0b6b3a7640000906112f09085615c65565b6112fa9190615c7c565b600b54909150670de0b6b3a7640000906113149086615c65565b61131e9190615c7c565b6113289082615c52565b6001600160a01b03871660009081526009602052604090206001015561134e8484615c52565b6001600160a01b038716600090815260096020526040902060020155600b54670de0b6b3a7640000906113819086615c65565b61138b9190615c7c565b6001600160a01b0386166000908152600960205260409020600101546113b19190615c9e565b6001600160a01b03861660009081526009602052604090206001810191909155600201546113e0908590615c9e565b6001600160a01b0380871660008181526009602052604090819020600201939093559151908816907fabc254a3e8b16a8605ce22e693a6e493e375434011c1a7ff082d09e2a84ad121906114379088815260200190565b60405180910390a35050505b61146c60017f9b779b17422d0df92223018b32b4d1fa46e071723d6817e2486d003becc55f0055565b505050565b600080516020615eba8339815191526114898161493c565b3360009081527fa70365933f78520ef41d6645ba61e509916296603327302d41466c063e8e26086020526040902054600080516020615eba833981519152904210156115175760405162461bcd60e51b815260206004820181905260248201527f556e6f52653a20726f6c6c206c6f636b2074696d65206e6f74207061737365646044820152606401610d8d565b61151f614a0e565b6001600160a01b0384166115755760405162461bcd60e51b815260206004820152601960248201527f556e6f52653a207a65726f206f776e65722061646472657373000000000000006044820152606401610d8d565b6001600160a01b0383166115cb5760405162461bcd60e51b815260206004820152601a60248201527f556e6f52653a7a65726f20666163746f727920616464726573730000000000006044820152606401610d8d565b6004546001600160a01b03166116235760405162461bcd60e51b815260206004820152601b60248201527f556e6f52653a7a65726f204c5020746f6b656e206164647265737300000000006044820152606401610d8d565b600480546040517f351516760000000000000000000000000000000000000000000000000000000081526001600160a01b03878116938201939093529082166024820152908416906335151676906044016020604051808303816000875af1158015611693573d6000803e3d6000fd5b505050506040513d601f19601f820116820180604052508101906116b79190615cb1565b6002805473ffffffffffffffffffffffffffffffffffffffff19166001600160a01b0392831690811790915560045460405192169130907e1129b9865226cebad4acf884618ae0607fff06758062b050509602db7065f090600090a461173c60017f9b779b17422d0df92223018b32b4d1fa46e071723d6817e2486d003becc55f0055565b50505050565b600254600160a01b900460ff16156117945760405162461bcd60e51b8152602060048201526015602482015274155b9bd4994e881c1bdbdb081a5cc81ada5b1b1959605a1b6044820152606401610d8d565b61179c6149b2565b60008281527f02dd7bc7dec4dceedda775e58dd541e08a116c6c53815c0bd028192f7b62680060205260409020600101546117d68161493c565b60008381527f02dd7bc7dec4dceedda775e58dd541e08a116c6c53815c0bd028192f7b626800602052604090206001015460008181526007602090815260408083203384529091529020544210156118705760405162461bcd60e51b815260206004820181905260248201527f556e6f52653a20726f6c6c206c6f636b2074696d65206e6f74207061737365646044820152606401610d8d565b61187a8484614bca565b5050505050565b6001600160a01b03811633146118c3576040517f6697b23200000000000000000000000000000000000000000000000000000000815260040160405180910390fd5b61146c8282614c99565b600080516020615eba8339815191526118e58161493c565b3360009081527fa70365933f78520ef41d6645ba61e509916296603327302d41466c063e8e26086020526040902054600080516020615eba833981519152904210156119735760405162461bcd60e51b815260206004820181905260248201527f556e6f52653a20726f6c6c206c6f636b2074696d65206e6f74207061737365646044820152606401610d8d565b61197d4284615c9e565b600681905560405190815230907fa8aa08cc14eef7b97ab4cd52f37082e23f7526bccc98cf91e6a1d412494b905190602001611006565b600080516020615eba8339815191526119cc8161493c565b3360009081527fa70365933f78520ef41d6645ba61e509916296603327302d41466c063e8e26086020526040902054600080516020615eba83398151915290421015611a5a5760405162461bcd60e51b815260206004820181905260248201527f556e6f52653a20726f6c6c206c6f636b2074696d65206e6f74207061737365646044820152606401610d8d565b600280547fffffffffffffffffffffff00ffffffffffffffffffffffffffffffffffffffff1690556040516000815233907f77337fcf1b48e6e024b256962b66c49de98c9f606b2cd9937cc0edbc7a0fb70990602001610ed1565b600080516020615eba833981519152611acd8161493c565b3360009081527fa70365933f78520ef41d6645ba61e509916296603327302d41466c063e8e26086020526040902054600080516020615eba83398151915290421015611b5b5760405162461bcd60e51b815260206004820181905260248201527f556e6f52653a20726f6c6c206c6f636b2074696d65206e6f74207061737365646044820152606401610d8d565b6001600160a01b038316611bb15760405162461bcd60e51b815260206004820152601360248201527f556e6f52653a207a65726f2061646472657373000000000000000000000000006044820152606401610d8d565b6000805473ffffffffffffffffffffffffffffffffffffffff19166001600160a01b0385169081178255604051909130917f877238238dbd7134e89b00809ea73fabb50da117ace807a6b31c733bbf55d3699190a3505050565b600080516020615eba833981519152611c238161493c565b3360009081527fa70365933f78520ef41d6645ba61e509916296603327302d41466c063e8e26086020526040902054600080516020615eba83398151915290421015611cb15760405162461bcd60e51b815260206004820181905260248201527f556e6f52653a20726f6c6c206c6f636b2074696d65206e6f74207061737365646044820152606401610d8d565b600280547fffffffffffffffffffffff00ffffffffffffffffffffffffffffffffffffffff16600160a01b1790556040516001815233907f7c952f2e528aa25b4eaf8b6c07af29184b27ce591295e543ced0a27b167dc79490602001610ed1565b611d1a6149b2565b600654421015611d6c5760405162461bcd60e51b815260206004820152601960248201527f556e6f52653a206e6f7420617661696c61626c652074696d65000000000000006044820152606401610d8d565b611d74614a0e565b611d7d33614a8f565b6001546040517fc139b04f000000000000000000000000000000000000000000000000000000008152306004820152602481018390526001600160a01b039091169063c139b04f90604401602060405180830381865afa158015611de5573d6000803e3d6000fd5b505050506040513d601f19601f82011682018060405250810190611e099190615cce565b611e555760405162461bcd60e51b815260206004820181905260248201527f556e6f52653a206d696e696d756d206361706974616c20756e646572666c6f776044820152606401610d8d565b336000908152600960209081526040808320600201546004805483517ff53fb20000000000000000000000000000000000000000000000000000000000815293519295946001600160a01b039091169363f53fb200938184019390918290030181865afa158015611eca573d6000803e3d6000fd5b505050506040513d601f19601f82011682018060405250810190611eee9190615cf0565b60048054604051631665744b60e11b815233928101929092529192506000916001600160a01b031690632ccae89690602401606060405180830381865afa158015611f3d573d6000803e3d6000fd5b505050506040513d601f19601f82011682018060405250810190611f619190615c0e565b505090508184670de0b6b3a7640000611f7a9190615c65565b611f849190615c7c565b611f8e8285615c52565b1015611fdc5760405162461bcd60e51b815260206004820152601f60248201527f556e6f52653a20776974686472617720616d6f756e74206f766572666c6f77006044820152606401610d8d565b600480546040517f47bcdb2a0000000000000000000000000000000000000000000000000000000081523392810192909252602482018690526001600160a01b0316906347bcdb2a90604401600060405180830381600087803b15801561204257600080fd5b505af1158015612056573d6000803e3d6000fd5b50503360008181526009602090815260409182902042905560045491518981526001600160a01b0390921694509192507f940a14c75c418e7230a2e65567722d2dda5a6713cf71b369bd0fa219fdc1ac5e910160405180910390a35050506110f960017f9b779b17422d0df92223018b32b4d1fa46e071723d6817e2486d003becc55f0055565b6120e5614a0e565b6120ed6149b2565b600254600160a01b900460ff161561213f5760405162461bcd60e51b8152602060048201526015602482015274155b9bd4994e881c1bdbdb081a5cc81ada5b1b1959605a1b6044820152606401610d8d565b6000546001600160a01b03166121975760405162461bcd60e51b815260206004820152601360248201527f556e6f52653a207a65726f2061646472657373000000000000000000000000006044820152606401610d8d565b6121a033614a8f565b600554336000908152600960205260408120549091906121c09042615c52565b60048054600080546040517f3613302f00000000000000000000000000000000000000000000000000000000815233948101949094526001600160a01b03908116602485015294909311604483018190529450919290911690633613302f906064016020604051808303816000875af1158015612241573d6000803e3d6000fd5b505050506040513d601f19601f820116820180604052508101906122659190615cf0565b6001546040517ffb6cb8470000000000000000000000000000000000000000000000000000000081526004810183905260006024820181905260448201529192506001600160a01b03169063fb6cb84790606401600060405180830381600087803b1580156122d357600080fd5b505af11580156122e7573d6000803e3d6000fd5b5050600080546040517fed59344b000000000000000000000000000000000000000000000000000000008152336004820152602481018690526060604482015260648101929092526001600160a01b0316925063ed59344b9150608401600060405180830381600087803b15801561235e57600080fd5b505af1158015612372573d6000803e3d6000fd5b505033600081815260096020908152604080832060028101849055600101839055915491518681526001600160a01b0390921694509192507ff0fee1f70845d356d6a3e0baa0944ce846437b6469ea89416dad2cd7067919a4910160405180910390a3505061240060017f9b779b17422d0df92223018b32b4d1fa46e071723d6817e2486d003becc55f0055565b565b6000806000806000600460009054906101000a90046001600160a01b03166001600160a01b031663f53fb2006040518163ffffffff1660e01b8152600401602060405180830381865afa15801561245d573d6000803e3d6000fd5b505050506040513d601f19601f820116820180604052508101906124819190615cf0565b60048054604051631665744b60e11b81526001600160a01b038a8116938201939093529293501690632ccae89690602401606060405180830381865afa1580156124cf573d6000803e3d6000fd5b505050506040513d601f19601f820116820180604052508101906124f39190615c0e565b9196509093509150670de0b6b3a764000061250e8287615c65565b6125189190615c7c565b9350509193509193565b600080516020615eba83398151915261253a8161493c565b3360009081527fa70365933f78520ef41d6645ba61e509916296603327302d41466c063e8e26086020526040902054600080516020615eba833981519152904210156125c85760405162461bcd60e51b815260206004820181905260248201527f556e6f52653a20726f6c6c206c6f636b2074696d65206e6f74207061737365646044820152606401610d8d565b600083116126185760405162461bcd60e51b815260206004820152601b60248201527f556e6f52653a206e6f7420616c6c6f77207a65726f2076616c756500000000006044820152606401610d8d565b600480546040517f93b6b86c0000000000000000000000000000000000000000000000000000000081529182018590526001600160a01b0316906393b6b86c90602401600060405180830381600087803b15801561267557600080fd5b505af1158015612689573d6000803e3d6000fd5b50506040518581523092507f353ac2778fe09bc60cf3070bb11d548faf4037e4217a06977c16463087474aab9150602001611006565b6000600460009054906101000a90046001600160a01b03166001600160a01b031663e95aa8d36040518163ffffffff1660e01b8152600401602060405180830381865afa158015612714573d6000803e3d6000fd5b505050506040513d601f19601f820116820180604052508101906127389190615cf0565b905090565b600080516020615eba8339815191526127558161493c565b3360009081527fa70365933f78520ef41d6645ba61e509916296603327302d41466c063e8e26086020526040902054600080516020615eba833981519152904210156127e35760405162461bcd60e51b815260206004820181905260248201527f556e6f52653a20726f6c6c206c6f636b2074696d65206e6f74207061737365646044820152606401610d8d565b610d9e614da2565b600080516020615eba8339815191526128038161493c565b3360009081527fa70365933f78520ef41d6645ba61e509916296603327302d41466c063e8e26086020526040902054600080516020615eba833981519152904210156128915760405162461bcd60e51b815260206004820181905260248201527f556e6f52653a20726f6c6c206c6f636b2074696d65206e6f74207061737365646044820152606401610d8d565b600083116128e15760405162461bcd60e51b815260206004820152601f60248201527f556e6f52653a206e6f7420616c6c6f77207a65726f206c6f636b2074696d65006044820152606401610d8d565b600583905560405183815230907f2c2c43c64e937ae35257af782c222986dc5adb4f56dc0881594e79bf83658d8c90602001611006565b612920614a0e565b600080516020615eba8339815191526129388161493c565b3360009081527fa70365933f78520ef41d6645ba61e509916296603327302d41466c063e8e26086020526040902054600080516020615eba833981519152904210156129c65760405162461bcd60e51b815260206004820181905260248201527f556e6f52653a20726f6c6c206c6f636b2074696d65206e6f74207061737365646044820152606401610d8d565b6001600160a01b038416612a1c5760405162461bcd60e51b815260206004820181905260248201527f556e6f52653a20726577617264657220666163746f7279206e6f2065786973746044820152606401610d8d565b6001600160a01b038516612a725760405162461bcd60e51b815260206004820152601c60248201527f556e6f52653a207a65726f206f70657261746f722061646472657373000000006044820152606401610d8d565b6040517f69ee74510000000000000000000000000000000000000000000000000000000081526001600160a01b03868116600483015284811660248301523060448301528516906369ee7451906064016020604051808303816000875af1158015612ae1573d6000803e3d6000fd5b505050506040513d601f19601f82011682018060405250810190612b059190615cb1565b6003805473ffffffffffffffffffffffffffffffffffffffff19166001600160a01b0392831690811790915560405191851682529030907f6c409a36847a0a3870deae25f656f4300d45957d2643fc27faab145e19cfcf1b9060200160405180910390a3505061146c60017f9b779b17422d0df92223018b32b4d1fa46e071723d6817e2486d003becc55f0055565b6001600160a01b038082166000908152600960209081526040808320600201546004805483517ff53fb2000000000000000000000000000000000000000000000000000000000081529351959692958795919093169363f53fb200938184019390918290030181865afa158015612c0f573d6000803e3d6000fd5b505050506040513d601f19601f82011682018060405250810190612c339190615cf0565b9050670de0b6b3a7640000612c488284615c65565b612c529190615c7c565b925050915091565b7ff0c57e16840df040f15088dc2f81fe391c3923bec73e23a9662efc9c229c6a00805468010000000000000000810460ff16159067ffffffffffffffff16600081158015612ca55750825b905060008267ffffffffffffffff166001148015612cc25750303b155b905081158015612cd0575080155b15612d07576040517ff92ee8a900000000000000000000000000000000000000000000000000000000815260040160405180910390fd5b84547fffffffffffffffffffffffffffffffffffffffffffffffff00000000000000001660011785558315612d5257845468ff00000000000000001916680100000000000000001785555b6001600160a01b038716612dce5760405162461bcd60e51b815260206004820152602260248201527f556e6f52653a207a65726f206d756c746973696777616c6c657420616464726560448201527f73730000000000000000000000000000000000000000000000000000000000006064820152608401610d8d565b6003876001600160a01b031663a0e67e2b6040518163ffffffff1660e01b8152600401600060405180830381865afa158015612e0e573d6000803e3d6000fd5b505050506040513d6000823e601f3d908101601f19168201604052612e369190810190615d09565b5111612eaa5760405162461bcd60e51b815260206004820152602660248201527f556e6f52653a206d6f7265207468616e207468726565206f776e65727320726560448201527f71756972656400000000000000000000000000000000000000000000000000006064820152608401610d8d565b6001876001600160a01b031663e75235b86040518163ffffffff1660e01b8152600401602060405180830381865afa158015612eea573d6000803e3d6000fd5b505050506040513d601f19601f82011682018060405250810190612f0e9190615cf0565b11612f815760405162461bcd60e51b815260206004820152602e60248201527f556e6f52653a206d6f7265207468616e206f6e65206f776e657273207265717560448201527f6972656420746f207665726966790000000000000000000000000000000000006064820152608401610d8d565b6001805473ffffffffffffffffffffffffffffffffffffffff19166001600160a01b038a16179055620d2f00600555612fb8614dfd565b612fc0614e0d565b612fc8614e1d565b612fe0600080516020615eba83398151915288614bca565b5061300b7f525f00f39e65e1c0c967e855509bb98a6cd037ce8b8a5f910c034f8ef97baa3b87614bca565b506130447f525f00f39e65e1c0c967e855509bb98a6cd037ce8b8a5f910c034f8ef97baa3b600080516020615eba833981519152614e25565b61305c600080516020615eba83398151915280614e25565b6130947f3b745c09aefb8f732a168ec71c3c87b50c0a4cfd1d104649ae3c04a4623b26bf600080516020615eba833981519152614e25565b6130cc7f6d5c9827c1f410bbb61d3b2a0a34b6b30492d9a1fd38588edca7ec4562ab9c9b600080516020615eba833981519152614e25565b831561311757845468ff000000000000000019168555604051600181527fc7f505b2f371ae2175ee4913f4499e1f2633a7b5936321eed1cdaeb6115181d29060200160405180910390a15b5050505050505050565b600080516020615eba8339815191526131398161493c565b3360009081527fa70365933f78520ef41d6645ba61e509916296603327302d41466c063e8e26086020526040902054600080516020615eba833981519152904210156131c75760405162461bcd60e51b815260206004820181905260248201527f556e6f52653a20726f6c6c206c6f636b2074696d65206e6f74207061737365646044820152606401610d8d565b6001600160a01b03831661321d5760405162461bcd60e51b815260206004820152601360248201527f556e6f52653a207a65726f2061646472657373000000000000000000000000006044820152606401610d8d565b6001805473ffffffffffffffffffffffffffffffffffffffff19166001600160a01b03851690811790915560405130907fdf8e7a62b39a2ec070924d5c5dce9a1957d75476af59af5a7e7ce2ee48bc777490600090a3505050565b613280614a0e565b600080516020615eba8339815191526132988161493c565b3360009081527fa70365933f78520ef41d6645ba61e509916296603327302d41466c063e8e26086020526040902054600080516020615eba833981519152904210156133265760405162461bcd60e51b815260206004820181905260248201527f556e6f52653a20726f6c6c206c6f636b2074696d65206e6f74207061737365646044820152606401610d8d565b6004546001600160a01b03161561337f5760405162461bcd60e51b815260206004820181905260248201527f556e6f52653a207269736b20706f6f6c206372656174656420616c72656164796044820152606401610d8d565b6001600160a01b0386166133d55760405162461bcd60e51b815260206004820152601b60248201527f556e6f52653a207a65726f20666163746f7279206164647265737300000000006044820152606401610d8d565b6040517f0d98e31f0000000000000000000000000000000000000000000000000000000081526001600160a01b03871690630d98e31f90613424908d908d908d908d9030908d90600401615dc3565b6020604051808303816000875af1158015613443573d6000803e3d6000fd5b505050506040513d601f19601f820116820180604052508101906134679190615cb1565b6004805473ffffffffffffffffffffffffffffffffffffffff19166001600160a01b0392831617815543600a556000600b55600c8690556001546040517f7e29d6c2000000000000000000000000000000000000000000000000000000008152309281019290925287831660248301526044820186905290911690637e29d6c290606401600060405180830381600087803b15801561350557600080fd5b505af1158015613519573d6000803e3d6000fd5b50506004546040516001600160a01b0390911692503091507f184d7691bf4a73930a21086fa1bdf0ee3075421531a60730288325fd5838021790600090a3505061311760017f9b779b17422d0df92223018b32b4d1fa46e071723d6817e2486d003becc55f0055565b60008281527f02dd7bc7dec4dceedda775e58dd541e08a116c6c53815c0bd028192f7b62680060205260409020600101546135bc8161493c565b61173c8383614c99565b6135ce614a0e565b6135d66149b2565b6002547501000000000000000000000000000000000000000000900460ff166136675760405162461bcd60e51b815260206004820152602760248201527f556e6f72653a20656d657267656e63795769746864726177206973206e6f742060448201527f616c6c6f776564000000000000000000000000000000000000000000000000006064820152608401610d8d565b3360009081526009602090815260409182902082516080810184528154815260018201549281019290925260028101549282018390526003015460ff161515606082015290806136f95760405162461bcd60e51b815260206004820152601760248201527f556e6f72653a205a65726f207573657220616d6f756e740000000000000000006044820152606401610d8d565b336000818152600960205260408082208281556001810183905560028101929092556003909101805460ff191690556004805491517f95ccea6700000000000000000000000000000000000000000000000000000000815290810192909252602482018390526001600160a01b0316906395ccea67906044016020604051808303816000875af1158015613791573d6000803e3d6000fd5b505050506040513d601f19601f820116820180604052508101906137b59190615cce565b5060405181815233907f5fafa99d0643513820be26656b45130b01e1c03062e1266bf36f88cbd3bd9695906020015b60405180910390a2505061240060017f9b779b17422d0df92223018b32b4d1fa46e071723d6817e2486d003becc55f0055565b600080516020615eba83398151915261382f8161493c565b3360009081527fa70365933f78520ef41d6645ba61e509916296603327302d41466c063e8e26086020526040902054600080516020615eba833981519152904210156138bd5760405162461bcd60e51b815260206004820181905260248201527f556e6f52653a20726f6c6c206c6f636b2074696d65206e6f74207061737365646044820152606401610d8d565b6138c56149b2565b600254600160a01b900460ff16156139175760405162461bcd60e51b8152602060048201526015602482015274155b9bd4994e881c1bdbdb081a5cc81ada5b1b1959605a1b6044820152606401610d8d565b6001600160a01b03831661396d5760405162461bcd60e51b815260206004820152601360248201527f556e6f52653a207a65726f2061646472657373000000000000000000000000006044820152606401610d8d565b60055461397a9042615c9e565b60008581526007602090815260408083206001600160a01b03881684529091529020556139a78484614bca565b506040518481526001600160a01b0384169030907faa08bed1c8e2500452096c9af125a3944be2a139782a1853abaef7a74bd7dd519060200160405180910390a350505050565b60048054604080517f18160ddd000000000000000000000000000000000000000000000000000000008152905160009384936001600160a01b0316926318160ddd92818301926020928290030181865afa158015613a50573d6000803e3d6000fd5b505050506040513d601f19601f82011682018060405250810190613a749190615cf0565b600b54600a549192509043118015613a8b57508115155b15613ae157600a54600090613aa09043615c52565b600c54909150600090613ab39083615c65565b905083613ac8670de0b6b3a764000083615c65565b613ad29190615c7c565b613adc9084615c9e565b925050505b6001600160a01b03841660009081526009602052604090206002810154600190910154670de0b6b3a7640000613b178484615c65565b613b219190615c7c565b613b2b9190615c52565b95945050505050565b613b3c614a0e565b613b446149b2565b600254600160a01b900460ff1615613b965760405162461bcd60e51b8152602060048201526015602482015274155b9bd4994e881c1bdbdb081a5cc81ada5b1b1959605a1b6044820152606401610d8d565b600480546040517f5d2cd2a7000000000000000000000000000000000000000000000000000000008152339281019290925260009182916001600160a01b031690635d2cd2a79060240160408051808303816000875af1158015613bfe573d6000803e3d6000fd5b505050506040513d601f19601f82011682018060405250810190613c229190615e11565b604080518381526020810183905292945090925033917f09c6481cb228ea7f61ceb67c8e708038eb74bbb68cfcc54a9cfca199087ecfb791016137e4565b600a54431115612400576000600460009054906101000a90046001600160a01b03166001600160a01b03166318160ddd6040518163ffffffff1660e01b8152600401602060405180830381865afa158015613cbf573d6000803e3d6000fd5b505050506040513d601f19601f82011682018060405250810190613ce39190615cf0565b90508015613d4057600a54600090613cfb9043615c52565b600c54909150600090613d0e9083615c65565b905082613d23670de0b6b3a764000083615c65565b613d2d9190615c7c565b600b54613d3a9190615c9e565b600b5550505b43600a819055600b5460408051928352602083018490528201527f1f2d1a9fde053af46b5db3dc92a8aa8696e56a677998fdd1311b45be341f7853906060015b60405180910390a150565b613d936149b2565b600254600160a01b900460ff1615613de55760405162461bcd60e51b8152602060048201526015602482015274155b9bd4994e881c1bdbdb081a5cc81ada5b1b1959605a1b6044820152606401610d8d565b600654421015613e375760405162461bcd60e51b815260206004820152601960248201527f556e6f52653a206e6f7420617661696c61626c652074696d65000000000000006044820152606401610d8d565b613e3f614a0e565b613e4881614ec9565b613e528133614fed565b6004546040518281526001600160a01b039091169033907fd3dba7b5565b16b7749db7d1938410a636e3c7a6ea46ed8ce7e259e19f2f3b9f9060200160405180910390a36110f960017f9b779b17422d0df92223018b32b4d1fa46e071723d6817e2486d003becc55f0055565b600654421015613f115760405162461bcd60e51b815260206004820152601960248201527f556e6f52653a206e6f7420617661696c61626c652074696d65000000000000006044820152606401610d8d565b613f196149b2565b613f21614a0e565b60008111613f975760405162461bcd60e51b815260206004820152602b60248201527f576974686472617720616d6f756e742073686f756c642062652067726561746f60448201527f72207468616e207a65726f0000000000000000000000000000000000000000006064820152608401610d8d565b60055433600090815260096020526040902054613fb49042615c52565b10156140025760405162461bcd60e51b815260206004820152601260248201527f556e6f52653a204c6f636b65642074696d6500000000000000000000000000006044820152606401610d8d565b61400b33614a8f565b33600081815260096020526040808220600201546004805492517f6ce40c7900000000000000000000000000000000000000000000000000000000815290810194909452602484018590529282916001600160a01b031690636ce40c799060440160408051808303816000875af115801561408a573d6000803e3d6000fd5b505050506040513d601f19601f820116820180604052508101906140ae9190615e11565b6001546040517f5b44d576000000000000000000000000000000000000000000000000000000008152600481018390529294509092506001600160a01b031690635b44d57690602401600060405180830381600087803b15801561411157600080fd5b505af1158015614125573d6000803e3d6000fd5b5050600b5460009250670de0b6b3a764000091506141439086615c65565b61414d9190615c7c565b600b54909150670de0b6b3a7640000906141679085615c65565b6141719190615c7c565b61417b9082615c52565b336000908152600960205260409020600101556141988385615c52565b336000818152600960209081526040918290206002019390935560045481518781529384018690526001600160a01b0316927fced2424eb51507abd1611ac0d9893e5bc6b6d0a0596b53f86d24d31fc75a5d60910160405180910390a3505050506110f960017f9b779b17422d0df92223018b32b4d1fa46e071723d6817e2486d003becc55f0055565b6006544210156142745760405162461bcd60e51b815260206004820152601960248201527f556e6f52653a206e6f7420617661696c61626c652074696d65000000000000006044820152606401610d8d565b61427c6149b2565b600254600160a01b900460ff16156142ce5760405162461bcd60e51b8152602060048201526015602482015274155b9bd4994e881c1bdbdb081a5cc81ada5b1b1959605a1b6044820152606401610d8d565b7f6d5c9827c1f410bbb61d3b2a0a34b6b30492d9a1fd38588edca7ec4562ab9c9b6142f88161493c565b614300614a0e565b600360009054906101000a90046001600160a01b03166001600160a01b031663e5a6b10f6040518163ffffffff1660e01b8152600401602060405180830381865afa158015614353573d6000803e3d6000fd5b505050506040513d601f19601f820116820180604052508101906143779190615cb1565b6001600160a01b0316600460009054906101000a90046001600160a01b03166001600160a01b031663e5a6b10f6040518163ffffffff1660e01b8152600401602060405180830381865afa1580156143d3573d6000803e3d6000fd5b505050506040513d601f19601f820116820180604052508101906143f79190615cb1565b6001600160a01b03161461444d5760405162461bcd60e51b815260206004820152601b60248201527f556e6f52653a2063757272656e6379206e6f74206d61746368656400000000006044820152606401610d8d565b614455613c60565b60008060005b8451811015614560576009600086838151811061447a5761447a615e35565b6020908102919091018101516001600160a01b031682528101919091526040016000206003015460ff16156144f15760405162461bcd60e51b815260206004820152601a60248201527f556e6f52653a20726f6c6c6f766572206973206e6f74207365740000000000006044820152606401610d8d565b60008061451687848151811061450957614509615e35565b60200260200101516152c4565b90925090506145258286615c9e565b94506145318185615c9e565b93506145568288858151811061454957614549615e35565b6020026020010151614fed565b505060010161445b565b506003546001600160a01b03161580159061457a57508115155b80156145865750600081115b1561462a57600354600480546040517f658ec4e40000000000000000000000000000000000000000000000000000000081526001600160a01b039182169281019290925260248201859052604482018490529091169063658ec4e4906064016020604051808303816000875af1158015614604573d6000803e3d6000fd5b505050506040513d601f19601f820116820180604052508101906146289190615cf0565b505b6004546040516001600160a01b0390911690614647908690615e4b565b604051908190038120848252907f2b1ab5aad08854cca1e3b3cd94bbb4acc5cf06bd794383289c30ae264d03121d9060200160405180910390a35050610d9e60017f9b779b17422d0df92223018b32b4d1fa46e071723d6817e2486d003becc55f0055565b6146b46149b2565b600254600160a01b900460ff16156147065760405162461bcd60e51b8152602060048201526015602482015274155b9bd4994e881c1bdbdb081a5cc81ada5b1b1959605a1b6044820152606401610d8d565b7f3b745c09aefb8f732a168ec71c3c87b50c0a4cfd1d104649ae3c04a4623b26bf6147308161493c565b3360009081527f47cc2c24439320872cbf8ac52d752d578282f7861bba91d04f4520061c2b5c5f60205260409020547f3b745c09aefb8f732a168ec71c3c87b50c0a4cfd1d104649ae3c04a4623b26bf904210156147d05760405162461bcd60e51b815260206004820181905260248201527f556e6f52653a20726f6c6c206c6f636b2074696d65206e6f74207061737365646044820152606401610d8d565b600480546040517f2e4a01420000000000000000000000000000000000000000000000000000000081526001600160a01b03878116938201939093526024810186905260009290911690632e4a0142906044016020604051808303816000875af1158015614842573d6000803e3d6000fd5b505050506040513d601f19601f820116820180604052508101906148669190615cf0565b600180546040517ffb6cb84700000000000000000000000000000000000000000000000000000000815260048101849052602481018a905260448101929092529192506001600160a01b039091169063fb6cb84790606401600060405180830381600087803b1580156148d857600080fd5b505af11580156148ec573d6000803e3d6000fd5b50505050846001600160a01b0316867fa57c8f00bb515630e1e4af145f087299b8d5ac5d871605bb0a9c0479b7b2d65b8660405161492c91815260200190565b60405180910390a3505050505050565b6110f981336153e4565b61494e615471565b7fcd5ed15c6e187e77e9aee88184c21f4f2182ab5827cb3b7e07fbedcd63f03300805460ff191681557f5db9ee0a495bf2e6ff9c91a7834c1ba4fdd244a5e8aa4e537bd38aeae4b073aa335b6040516001600160a01b039091168152602001613d80565b7fcd5ed15c6e187e77e9aee88184c21f4f2182ab5827cb3b7e07fbedcd63f033005460ff1615612400576040517fd93c066500000000000000000000000000000000000000000000000000000000815260040160405180910390fd5b7f9b779b17422d0df92223018b32b4d1fa46e071723d6817e2486d003becc55f0080547ffffffffffffffffffffffffffffffffffffffffffffffffffffffffffffffffe01614a89576040517f3ee5aeb500000000000000000000000000000000000000000000000000000000815260040160405180910390fd5b60029055565b614a97613c60565b600080614aa3836152c4565b60035491935091506001600160a01b031615801590614ac157508115155b15614b5f576003546040517f658ec4e40000000000000000000000000000000000000000000000000000000081526001600160a01b03858116600483015260248201859052604482018490529091169063658ec4e4906064016020604051808303816000875af1158015614b39573d6000803e3d6000fd5b505050506040513d601f19601f82011682018060405250810190614b5d9190615cf0565b505b6040518281526001600160a01b0384169033907fa0306f61d3fafe13787b78e276cb6b644382854a66cb46daae14227d3ec267979060200160405180910390a3505050565b60017f9b779b17422d0df92223018b32b4d1fa46e071723d6817e2486d003becc55f0055565b60008281527f02dd7bc7dec4dceedda775e58dd541e08a116c6c53815c0bd028192f7b626800602081815260408084206001600160a01b038616855290915282205460ff16614c8f576000848152602082815260408083206001600160a01b03871684529091529020805460ff19166001179055614c453390565b6001600160a01b0316836001600160a01b0316857f2f8788117e7eff1d82e926ec794901d17c78024a50270940304540a733656f0d60405160405180910390a46001915050610ce5565b6000915050610ce5565b600254600090600160a01b900460ff1615614cee5760405162461bcd60e51b8152602060048201526015602482015274155b9bd4994e881c1bdbdb081a5cc81ada5b1b1959605a1b6044820152606401610d8d565b614cf66149b2565b60008381527f02dd7bc7dec4dceedda775e58dd541e08a116c6c53815c0bd028192f7b62680060205260409020600101546000818152600760209081526040808320338452909152902054421015614d905760405162461bcd60e51b815260206004820181905260248201527f556e6f52653a20726f6c6c206c6f636b2074696d65206e6f74207061737365646044820152606401610d8d565b614d9a84846154cc565b949350505050565b614daa6149b2565b7fcd5ed15c6e187e77e9aee88184c21f4f2182ab5827cb3b7e07fbedcd63f03300805460ff191660011781557f62e78cea01bee320cd4e420270b5ea74000d11b0c9f74754ebdbfc544b05a2583361499a565b614e05615572565b6124006155d9565b614e15615572565b6124006155e1565b612400615572565b7f02dd7bc7dec4dceedda775e58dd541e08a116c6c53815c0bd028192f7b6268006000614e808460009081527f02dd7bc7dec4dceedda775e58dd541e08a116c6c53815c0bd028192f7b626800602052604090206001015490565b600085815260208490526040808220600101869055519192508491839187917fbd79b86ffe0ab8e8776151514217cd7cacd52c909f66475c3af44e129f0b00ff9190a450505050565b6000600460009054906101000a90046001600160a01b03166001600160a01b031663e5a6b10f6040518163ffffffff1660e01b8152600401602060405180830381865afa158015614f1e573d6000803e3d6000fd5b505050506040513d601f19601f82011682018060405250810190614f429190615cb1565b90506001600160a01b038116614fd35781341015614fa25760405162461bcd60e51b815260206004820152601860248201527f556e6f52653a20696e73756666696369656e74207061696400000000000000006044820152606401610d8d565b81341115614fbd57614fbd33614fb88434615c52565b615614565b600454610d9e906001600160a01b031683615614565b600454610d9e90829033906001600160a01b0316856156f7565b8160000361503d5760405162461bcd60e51b815260206004820152601160248201527f556e6f52653a205a45524f2056616c75650000000000000000000000000000006044820152606401610d8d565b615045613c60565b6000600460009054906101000a90046001600160a01b03166001600160a01b031663f53fb2006040518163ffffffff1660e01b8152600401602060405180830381865afa15801561509a573d6000803e3d6000fd5b505050506040513d601f19601f820116820180604052508101906150be9190615cf0565b600480546040517f7e348b7d0000000000000000000000000000000000000000000000000000000081526001600160a01b0386811693820193909352602481018790529293501690637e348b7d90604401600060405180830381600087803b15801561512957600080fd5b505af115801561513d573d6000803e3d6000fd5b505050506001600160a01b03821660009081526009602090815260409182902082516080810184528154815260018201549281019290925260028101549282019290925260039091015460ff1615156060820152600b54670de0b6b3a76400009083906151aa8784615c65565b6151b49190615c65565b6151be9190615c7c565b6151c89190615c7c565b81602001516151d79190615c9e565b6020820152816151ef85670de0b6b3a7640000615c65565b6151f99190615c7c565b81604001516152089190615c9e565b60408281019182526001600160a01b038581166000908152600960209081529083902085518155908501516001808301919091559351600282015560608501516003909101805460ff1916911515919091179055915490517f8be5a39f00000000000000000000000000000000000000000000000000000000815260048101879052911690638be5a39f90602401600060405180830381600087803b1580156152b057600080fd5b505af1158015613117573d6000803e3d6000fd5b60048054604051631665744b60e11b81526001600160a01b038481169382019390935260009283928392911690632ccae89690602401606060405180830381865afa158015615317573d6000803e3d6000fd5b505050506040513d601f19601f8201168201806040525081019061533b9190615c0e565b5091505080156153515750600093849350915050565b6001600160a01b038416600090815260096020526040812060020154600b54909190670de0b6b3a7640000906153879084615c65565b6153919190615c7c565b6001600160a01b038716600090815260096020526040812060010154919250906153bb9083615c52565b6001600160a01b0390971660009081526009602052604090206001019190915550939492505050565b60008281527f02dd7bc7dec4dceedda775e58dd541e08a116c6c53815c0bd028192f7b626800602090815260408083206001600160a01b038516845290915290205460ff16610d9e576040517fe2517d3f0000000000000000000000000000000000000000000000000000000081526001600160a01b038216600482015260248101839052604401610d8d565b7fcd5ed15c6e187e77e9aee88184c21f4f2182ab5827cb3b7e07fbedcd63f033005460ff16612400576040517f8dfc202b00000000000000000000000000000000000000000000000000000000815260040160405180910390fd5b60008281527f02dd7bc7dec4dceedda775e58dd541e08a116c6c53815c0bd028192f7b626800602081815260408084206001600160a01b038616855290915282205460ff1615614c8f576000848152602082815260408083206001600160a01b0387168085529252808320805460ff1916905551339287917ff6391f5c32d9c69d2a47ea670b442974b53935d1edc7fd64eb21e047a839171b9190a46001915050610ce5565b7ff0c57e16840df040f15088dc2f81fe391c3923bec73e23a9662efc9c229c6a005468010000000000000000900460ff16612400576040517fd7e6bcf800000000000000000000000000000000000000000000000000000000815260040160405180910390fd5b614ba4615572565b6155e9615572565b7fcd5ed15c6e187e77e9aee88184c21f4f2182ab5827cb3b7e07fbedcd63f03300805460ff19169055565b604080516000808252602082019092526001600160a01b03841690839060405161563e9190615e8a565b60006040518083038185875af1925050503d806000811461567b576040519150601f19603f3d011682016040523d82523d6000602084013e615680565b606091505b505090508061146c5760405162461bcd60e51b815260206004820152603460248201527f5472616e7366657248656c7065723a3a736166655472616e736665724554483a60448201527f20455448207472616e73666572206661696c65640000000000000000000000006064820152608401610d8d565b604080516001600160a01b0385811660248301528481166044830152606480830185905283518084039091018152608490920183526020820180517bffffffffffffffffffffffffffffffffffffffffffffffffffffffff167f23b872dd0000000000000000000000000000000000000000000000000000000017905291516000928392908816916157899190615e8a565b6000604051808303816000865af19150503d80600081146157c6576040519150601f19603f3d011682016040523d82523d6000602084013e6157cb565b606091505b50915091508180156157f55750805115806157f55750808060200190518101906157f59190615cce565b6158675760405162461bcd60e51b815260206004820152603160248201527f5472616e7366657248656c7065723a3a7472616e7366657246726f6d3a20747260448201527f616e7366657246726f6d206661696c65640000000000000000000000000000006064820152608401610d8d565b505050505050565b60006020828403121561588157600080fd5b81357fffffffff00000000000000000000000000000000000000000000000000000000811681146158b157600080fd5b9392505050565b6000602082840312156158ca57600080fd5b5035919050565b6001600160a01b03811681146110f957600080fd5b6000602082840312156158f857600080fd5b81356158b1816158d1565b60008060006060848603121561591857600080fd5b8335615923816158d1565b92506020840135615933816158d1565b929592945050506040919091013590565b6000806040838503121561595757600080fd5b8235615962816158d1565b91506020830135615972816158d1565b809150509250929050565b6000806040838503121561599057600080fd5b823591506020830135615972816158d1565b6000806000606084860312156159b757600080fd5b83356159c2816158d1565b925060208401356159d2816158d1565b915060408401356159e2816158d1565b809150509250925092565b60008083601f8401126159ff57600080fd5b50813567ffffffffffffffff811115615a1757600080fd5b602083019150836020828501011115615a2f57600080fd5b9250929050565b60008060008060008060008060c0898b031215615a5257600080fd5b883567ffffffffffffffff80821115615a6a57600080fd5b615a768c838d016159ed565b909a50985060208b0135915080821115615a8f57600080fd5b50615a9c8b828c016159ed565b9097509550506040890135615ab0816158d1565b93506060890135615ac0816158d1565b979a969950949793969295929450505060808201359160a0013590565b634e487b7160e01b600052604160045260246000fd5b604051601f8201601f1916810167ffffffffffffffff81118282101715615b1c57615b1c615add565b604052919050565b600067ffffffffffffffff821115615b3e57615b3e615add565b5060051b60200190565b60006020808385031215615b5b57600080fd5b823567ffffffffffffffff811115615b7257600080fd5b8301601f81018513615b8357600080fd5b8035615b96615b9182615b24565b615af3565b81815260059190911b82018301908381019087831115615bb557600080fd5b928401925b82841015615bdc578335615bcd816158d1565b82529284019290840190615bba565b979650505050505050565b600080600060608486031215615bfc57600080fd5b833592506020840135615933816158d1565b600080600060608486031215615c2357600080fd5b8351925060208401519150604084015190509250925092565b634e487b7160e01b600052601160045260246000fd5b81810381811115610ce557610ce5615c3c565b8082028115828204841417610ce557610ce5615c3c565b600082615c9957634e487b7160e01b600052601260045260246000fd5b500490565b80820180821115610ce557610ce5615c3c565b600060208284031215615cc357600080fd5b81516158b1816158d1565b600060208284031215615ce057600080fd5b815180151581146158b157600080fd5b600060208284031215615d0257600080fd5b5051919050565b60006020808385031215615d1c57600080fd5b825167ffffffffffffffff811115615d3357600080fd5b8301601f81018513615d4457600080fd5b8051615d52615b9182615b24565b81815260059190911b82018301908381019087831115615d7157600080fd5b928401925b82841015615bdc578351615d89816158d1565b82529284019290840190615d76565b818352818160208501375060006020828401015260006020601f19601f840116840101905092915050565b608081526000615dd760808301888a615d98565b8281036020840152615dea818789615d98565b9150506001600160a01b038085166040840152808416606084015250979650505050505050565b60008060408385031215615e2457600080fd5b505080516020909101519092909150565b634e487b7160e01b600052603260045260246000fd5b815160009082906020808601845b83811015615e7e5781516001600160a01b031685529382019390820190600101615e59565b50929695505050505050565b6000825160005b81811015615eab5760208186018101518583015201615e91565b50600092019182525091905056fea49807205ce4d355092ef5a8a18f56e8913cf4a201fbe287825b095693c21775a2646970667358221220ce983cec9cf7aac461d786268392a2f3911213c96b66f0d1098de140b26928f764736f6c63430008170033",
  "devdoc": {
    "errors": {
      "AccessControlBadConfirmation()": [
        {
          "details": "The caller of a function is not the expected one. NOTE: Don't confuse with {AccessControlUnauthorizedAccount}."
        }
      ],
      "AccessControlUnauthorizedAccount(address,bytes32)": [
        {
          "details": "The `account` is missing a role."
        }
      ],
      "EnforcedPause()": [
        {
          "details": "The operation failed because the contract is paused."
        }
      ],
      "ExpectedPause()": [
        {
          "details": "The operation failed because the contract is not paused."
        }
      ],
      "InvalidInitialization()": [
        {
          "details": "The contract is already initialized."
        }
      ],
      "NotInitializing()": [
        {
          "details": "The contract is not initializing."
        }
      ],
      "ReentrancyGuardReentrantCall()": [
        {
          "details": "Unauthorized reentrant call."
        }
      ]
    },
    "events": {
      "Initialized(uint64)": {
        "details": "Triggered when the contract has been initialized or reinitialized."
      },
      "Paused(address)": {
        "details": "Emitted when the pause is triggered by `account`."
      },
      "RoleAdminChanged(bytes32,bytes32,bytes32)": {
        "details": "Emitted when `newAdminRole` is set as ``role``'s admin role, replacing `previousAdminRole` `DEFAULT_ADMIN_ROLE` is the starting admin for all roles, despite {RoleAdminChanged} not being emitted signaling this."
      },
      "RoleGranted(bytes32,address,address)": {
        "details": "Emitted when `account` is granted `role`. `sender` is the account that originated the contract call, an admin role bearer except when using {AccessControl-_setupRole}."
      },
      "RoleRevoked(bytes32,address,address)": {
        "details": "Emitted when `account` is revoked `role`. `sender` is the account that originated the contract call:   - if using `revokeRole`, it is the admin role bearer   - if using `renounceRole`, it is the role bearer (i.e. `account`)"
      },
      "Unpaused(address)": {
        "details": "Emitted when the pause is lifted by `account`."
      }
    },
    "kind": "dev",
    "methods": {
      "cancelWithdrawRequest()": {
        "details": "user can cancel its pending withdraw request"
      },
      "createRewarder(address,address,address)": {
        "details": "create rewarder with UNO token "
      },
      "createRiskPool(string,string,address,address,uint256,uint256)": {
        "details": "create Risk pool with UNO from SSIP owner"
      },
      "enterInPool(uint256)": {
        "details": "stake user collateral, update user reward per block",
        "params": {
          "_amount": "amount to deposit to pool"
        }
      },
      "getRoleAdmin(bytes32)": {
        "details": "Returns the admin role that controls `role`. See {grantRole} and {revokeRole}. To change a role's admin, use {_setRoleAdmin}."
      },
      "getStakedAmountPerUser(address)": {
        "details": "return user staked currency corresponding to current lp price of uno"
      },
      "getTotalWithdrawPendingAmount()": {
        "details": "get total withdraw request amount in pending for the risk pool in UNO"
      },
      "getWithdrawRequestPerUser(address)": {
        "details": "get withdraw request amount in pending per user in UNO"
      },
      "grantRole(bytes32,address)": {
        "details": "Grants `role` to `account`. If `account` had not been already granted `role`, emits a {RoleGranted} event. Requirements: - the caller must have ``role``'s admin role. May emit a {RoleGranted} event."
      },
      "harvest(address)": {
        "details": "withdraw user pending uno",
        "params": {
          "_to": "user address"
        }
      },
      "hasRole(bytes32,address)": {
        "details": "Returns `true` if `account` has been granted `role`."
      },
      "killPool()": {
        "details": "kill pool to restrict pool functionality, can only by called by admin role"
      },
      "leaveFromPending(uint256)": {
        "details": "user can submit claim again and receive his funds into his wallet after 10 days since last WR."
      },
      "leaveFromPoolInPending(uint256)": {
        "details": "WR will be in pending for 10 days at least"
      },
      "migrate()": {
        "details": "migrate user to new version "
      },
      "pausePool()": {
        "details": "pause pool to restrict pool functionality, can only by called by admin role"
      },
      "paused()": {
        "details": "Returns true if the contract is paused, and false otherwise."
      },
      "pendingUno(address)": {
        "details": "return pending uno to claim of `_to` address"
      },
      "renounceRole(bytes32,address)": {
        "details": "Revokes `role` from the calling account. Roles are often managed via {grantRole} and {revokeRole}: this function's purpose is to provide a mechanism for accounts to lose their privileges if they are compromised (such as when a trusted device is misplaced). If the calling account had been revoked `role`, emits a {RoleRevoked} event. Requirements: - the caller must be `callerConfirmation`. May emit a {RoleRevoked} event."
      },
      "revivePool()": {
        "details": "revive pool, can only by called by admin role"
      },
      "revokeRole(bytes32,address)": {
        "details": "Revokes `role` from `account`. If `account` had been granted `role`, emits a {RoleRevoked} event. Requirements: - the caller must have ``role``'s admin role. May emit a {RoleRevoked} event."
      },
      "rollOverReward(address[])": {
        "details": "user roll over its pending uno to stake"
      },
      "setCapitalAgent(address)": {
        "details": "set new capital agent, can only by called by admin role",
        "params": {
          "_capitalAgent": "new capital agent address"
        }
      },
      "setLockTime(uint256)": {
        "details": "lock time, only admin role call this function"
      },
      "setMigrateTo(address)": {
        "details": "set migrate address, can only by called by admin role",
        "params": {
          "_migrateTo": "new migrate address"
        }
      },
      "setMinLPCapital(uint256)": {
        "details": "update min lp capital, only admin role call this function"
      },
      "setRewardMultiplier(uint256)": {
        "details": "update reward muiltiplier, can only by called by admin role",
        "params": {
          "_rewardMultiplier": "value to set"
        }
      },
      "setStakingStartTime(uint256)": {
        "details": "set staking start time, only admin role call this function"
      },
      "settlePayout(uint256,address,uint256)": {
        "details": "claim policy to payout, can only be called by claim processor role"
      },
      "supportsInterface(bytes4)": {
        "details": "See {IERC165-supportsInterface}."
      },
      "toggleEmergencyWithdraw()": {
        "details": "toggle emergency withdraw bool to restrict or use this emergency withdraw, only admin role call this function"
      },
      "toggleRollOver()": {
        "details": "user can toggle its roll over bool"
      },
      "unpausePool()": {
        "details": "unpause pool, can only by called by admin role"
      },
      "updatePool()": {
        "details": "update pool last reward and accumulated uno per share, update every time when use enter, withdraw from pool"
      }
    },
    "version": 1
  },
  "userdoc": {
    "kind": "user",
    "methods": {},
    "version": 1
  },
  "storageLayout": {
    "storage": [
      {
        "astId": 15382,
        "contract": "contracts/SingleSidedInsurancePool.sol:SingleSidedInsurancePool",
        "label": "migrateTo",
        "offset": 0,
        "slot": "0",
        "type": "t_address"
      },
      {
        "astId": 15384,
        "contract": "contracts/SingleSidedInsurancePool.sol:SingleSidedInsurancePool",
        "label": "capitalAgent",
        "offset": 0,
        "slot": "1",
        "type": "t_address"
      },
      {
        "astId": 15386,
        "contract": "contracts/SingleSidedInsurancePool.sol:SingleSidedInsurancePool",
        "label": "syntheticSSIP",
        "offset": 0,
        "slot": "2",
        "type": "t_address"
      },
      {
        "astId": 15388,
        "contract": "contracts/SingleSidedInsurancePool.sol:SingleSidedInsurancePool",
        "label": "killed",
        "offset": 20,
        "slot": "2",
        "type": "t_bool"
      },
      {
        "astId": 15390,
        "contract": "contracts/SingleSidedInsurancePool.sol:SingleSidedInsurancePool",
        "label": "emergencyWithdrawAllowed",
        "offset": 21,
        "slot": "2",
        "type": "t_bool"
      },
      {
        "astId": 15392,
        "contract": "contracts/SingleSidedInsurancePool.sol:SingleSidedInsurancePool",
        "label": "rewarder",
        "offset": 0,
        "slot": "3",
        "type": "t_address"
      },
      {
        "astId": 15395,
        "contract": "contracts/SingleSidedInsurancePool.sol:SingleSidedInsurancePool",
        "label": "riskPool",
        "offset": 0,
        "slot": "4",
        "type": "t_address"
      },
      {
        "astId": 15397,
        "contract": "contracts/SingleSidedInsurancePool.sol:SingleSidedInsurancePool",
        "label": "lockTime",
        "offset": 0,
        "slot": "5",
        "type": "t_uint256"
      },
      {
        "astId": 15399,
        "contract": "contracts/SingleSidedInsurancePool.sol:SingleSidedInsurancePool",
        "label": "stakingStartTime",
        "offset": 0,
        "slot": "6",
        "type": "t_uint256"
      },
      {
        "astId": 15428,
        "contract": "contracts/SingleSidedInsurancePool.sol:SingleSidedInsurancePool",
        "label": "roleLockTime",
        "offset": 0,
        "slot": "7",
        "type": "t_mapping(t_bytes32,t_mapping(t_address,t_uint256))"
      },
      {
        "astId": 15433,
        "contract": "contracts/SingleSidedInsurancePool.sol:SingleSidedInsurancePool",
        "label": "policies",
        "offset": 0,
        "slot": "8",
        "type": "t_mapping(t_uint256,t_struct(Policy)15422_storage)"
      },
      {
        "astId": 15438,
        "contract": "contracts/SingleSidedInsurancePool.sol:SingleSidedInsurancePool",
        "label": "userInfo",
        "offset": 0,
        "slot": "9",
        "type": "t_mapping(t_address,t_struct(UserInfo)15415_storage)"
      },
      {
        "astId": 15441,
        "contract": "contracts/SingleSidedInsurancePool.sol:SingleSidedInsurancePool",
        "label": "poolInfo",
        "offset": 0,
        "slot": "10",
        "type": "t_struct(PoolInfo)15406_storage"
      }
    ],
    "types": {
      "t_address": {
        "encoding": "inplace",
        "label": "address",
        "numberOfBytes": "20"
      },
      "t_bool": {
        "encoding": "inplace",
        "label": "bool",
        "numberOfBytes": "1"
      },
      "t_bytes32": {
        "encoding": "inplace",
        "label": "bytes32",
        "numberOfBytes": "32"
      },
      "t_mapping(t_address,t_struct(UserInfo)15415_storage)": {
        "encoding": "mapping",
        "key": "t_address",
        "label": "mapping(address => struct SingleSidedInsurancePool.UserInfo)",
        "numberOfBytes": "32",
        "value": "t_struct(UserInfo)15415_storage"
      },
      "t_mapping(t_address,t_uint256)": {
        "encoding": "mapping",
        "key": "t_address",
        "label": "mapping(address => uint256)",
        "numberOfBytes": "32",
        "value": "t_uint256"
      },
      "t_mapping(t_bytes32,t_mapping(t_address,t_uint256))": {
        "encoding": "mapping",
        "key": "t_bytes32",
        "label": "mapping(bytes32 => mapping(address => uint256))",
        "numberOfBytes": "32",
        "value": "t_mapping(t_address,t_uint256)"
      },
      "t_mapping(t_uint256,t_struct(Policy)15422_storage)": {
        "encoding": "mapping",
        "key": "t_uint256",
        "label": "mapping(uint256 => struct SingleSidedInsurancePool.Policy)",
        "numberOfBytes": "32",
        "value": "t_struct(Policy)15422_storage"
      },
      "t_struct(Policy)15422_storage": {
        "encoding": "inplace",
        "label": "struct SingleSidedInsurancePool.Policy",
        "members": [
          {
            "astId": 15417,
            "contract": "contracts/SingleSidedInsurancePool.sol:SingleSidedInsurancePool",
            "label": "insuranceAmount",
            "offset": 0,
            "slot": "0",
            "type": "t_uint256"
          },
          {
            "astId": 15419,
            "contract": "contracts/SingleSidedInsurancePool.sol:SingleSidedInsurancePool",
            "label": "payoutAddress",
            "offset": 0,
            "slot": "1",
            "type": "t_address"
          },
          {
            "astId": 15421,
            "contract": "contracts/SingleSidedInsurancePool.sol:SingleSidedInsurancePool",
            "label": "settled",
            "offset": 20,
            "slot": "1",
            "type": "t_bool"
          }
        ],
        "numberOfBytes": "64"
      },
      "t_struct(PoolInfo)15406_storage": {
        "encoding": "inplace",
        "label": "struct SingleSidedInsurancePool.PoolInfo",
        "members": [
          {
            "astId": 15401,
            "contract": "contracts/SingleSidedInsurancePool.sol:SingleSidedInsurancePool",
            "label": "lastRewardBlock",
            "offset": 0,
            "slot": "0",
            "type": "t_uint256"
          },
          {
            "astId": 15403,
            "contract": "contracts/SingleSidedInsurancePool.sol:SingleSidedInsurancePool",
            "label": "accUnoPerShare",
            "offset": 0,
            "slot": "1",
            "type": "t_uint256"
          },
          {
            "astId": 15405,
            "contract": "contracts/SingleSidedInsurancePool.sol:SingleSidedInsurancePool",
            "label": "unoMultiplierPerBlock",
            "offset": 0,
            "slot": "2",
            "type": "t_uint256"
          }
        ],
        "numberOfBytes": "96"
      },
      "t_struct(UserInfo)15415_storage": {
        "encoding": "inplace",
        "label": "struct SingleSidedInsurancePool.UserInfo",
        "members": [
          {
            "astId": 15408,
            "contract": "contracts/SingleSidedInsurancePool.sol:SingleSidedInsurancePool",
            "label": "lastWithdrawTime",
            "offset": 0,
            "slot": "0",
            "type": "t_uint256"
          },
          {
            "astId": 15410,
            "contract": "contracts/SingleSidedInsurancePool.sol:SingleSidedInsurancePool",
            "label": "rewardDebt",
            "offset": 0,
            "slot": "1",
            "type": "t_uint256"
          },
          {
            "astId": 15412,
            "contract": "contracts/SingleSidedInsurancePool.sol:SingleSidedInsurancePool",
            "label": "amount",
            "offset": 0,
            "slot": "2",
            "type": "t_uint256"
          },
          {
            "astId": 15414,
            "contract": "contracts/SingleSidedInsurancePool.sol:SingleSidedInsurancePool",
            "label": "isNotRollOver",
            "offset": 0,
            "slot": "3",
            "type": "t_bool"
          }
        ],
        "numberOfBytes": "128"
      },
      "t_uint256": {
        "encoding": "inplace",
        "label": "uint256",
        "numberOfBytes": "32"
      }
    }
  }
}