{
  "address": "0x13EB4F7a4079C3E9A67e4bff3245c4cFF41d85cE",
  "abi": [
    {
      "inputs": [],
      "name": "AccessControlBadConfirmation",
      "type": "error"
    },
    {
      "inputs": [
        {
          "internalType": "address",
          "name": "account",
          "type": "address"
        },
        {
          "internalType": "bytes32",
          "name": "neededRole",
          "type": "bytes32"
        }
      ],
      "name": "AccessControlUnauthorizedAccount",
      "type": "error"
    },
    {
      "inputs": [],
      "name": "EnforcedPause",
      "type": "error"
    },
    {
      "inputs": [],
      "name": "ExpectedPause",
      "type": "error"
    },
    {
      "inputs": [],
      "name": "InvalidInitialization",
      "type": "error"
    },
    {
      "inputs": [],
      "name": "NotInitializing",
      "type": "error"
    },
    {
      "inputs": [],
      "name": "ReentrancyGuardReentrantCall",
      "type": "error"
    },
    {
      "anonymous": false,
      "inputs": [
        {
          "indexed": true,
          "internalType": "address",
          "name": "_user",
          "type": "address"
        },
        {
          "indexed": true,
          "internalType": "address",
          "name": "_receiver",
          "type": "address"
        },
        {
          "indexed": false,
          "internalType": "uint256",
          "name": "_amount",
          "type": "uint256"
        }
      ],
      "name": "Harvest",
      "type": "event"
    },
    {
      "anonymous": false,
      "inputs": [
        {
          "indexed": false,
          "internalType": "uint64",
          "name": "version",
          "type": "uint64"
        }
      ],
      "name": "Initialized",
      "type": "event"
    },
    {
      "anonymous": false,
      "inputs": [
        {
          "indexed": true,
          "internalType": "bytes32",
          "name": "policyId",
          "type": "bytes32"
        },
        {
          "indexed": false,
          "internalType": "bytes",
          "name": "insuredEvent",
          "type": "bytes"
        },
        {
          "indexed": false,
          "internalType": "uint256",
          "name": "insuranceAmount",
          "type": "uint256"
        },
        {
          "indexed": true,
          "internalType": "address",
          "name": "payoutAddress",
          "type": "address"
        }
      ],
      "name": "InsuranceIssued",
      "type": "event"
    },
    {
      "anonymous": false,
      "inputs": [
        {
          "indexed": true,
          "internalType": "uint256",
          "name": "policyId",
          "type": "uint256"
        },
        {
          "indexed": true,
          "internalType": "bytes32",
          "name": "assertionId",
          "type": "bytes32"
        }
      ],
      "name": "InsurancePayoutRequested",
      "type": "event"
    },
    {
      "anonymous": false,
      "inputs": [
        {
          "indexed": true,
          "internalType": "uint256",
          "name": "policyId",
          "type": "uint256"
        },
        {
          "indexed": true,
          "internalType": "bytes32",
          "name": "assertionId",
          "type": "bytes32"
        }
      ],
      "name": "InsurancePayoutSettled",
      "type": "event"
    },
    {
      "anonymous": false,
      "inputs": [
        {
          "indexed": true,
          "internalType": "address",
          "name": "_staker",
          "type": "address"
        },
        {
          "indexed": true,
          "internalType": "address",
          "name": "_pool",
          "type": "address"
        },
        {
          "indexed": false,
          "internalType": "uint256",
          "name": "_requestAmount",
          "type": "uint256"
        }
      ],
      "name": "LeftPool",
      "type": "event"
    },
    {
      "anonymous": false,
      "inputs": [
        {
          "indexed": true,
          "internalType": "address",
          "name": "_user",
          "type": "address"
        },
        {
          "indexed": false,
          "internalType": "uint256",
          "name": "_cancelAmount",
          "type": "uint256"
        },
        {
          "indexed": false,
          "internalType": "uint256",
          "name": "_cancelAmountInUno",
          "type": "uint256"
        }
      ],
      "name": "LogCancelWithdrawRequest",
      "type": "event"
    },
    {
      "anonymous": false,
      "inputs": [
        {
          "indexed": true,
          "internalType": "address",
          "name": "_SSIP",
          "type": "address"
        },
        {
          "indexed": true,
          "internalType": "address",
          "name": "_rewarder",
          "type": "address"
        },
        {
          "indexed": false,
          "internalType": "address",
          "name": "_currency",
          "type": "address"
        }
      ],
      "name": "LogCreateRewarder",
      "type": "event"
    },
    {
      "anonymous": false,
      "inputs": [
        {
          "indexed": true,
          "internalType": "address",
          "name": "_SSIP",
          "type": "address"
        },
        {
          "indexed": true,
          "internalType": "address",
          "name": "_syntheticSSIP",
          "type": "address"
        },
        {
          "indexed": true,
          "internalType": "address",
          "name": "_lpToken",
          "type": "address"
        }
      ],
      "name": "LogCreateSyntheticSSIP",
      "type": "event"
    },
    {
      "anonymous": false,
      "inputs": [
        {
          "indexed": true,
          "internalType": "address",
          "name": "_user",
          "type": "address"
        },
        {
          "indexed": true,
          "internalType": "address",
          "name": "_riskPool",
          "type": "address"
        },
        {
          "indexed": false,
          "internalType": "uint256",
          "name": "_withdrawLpAmount",
          "type": "uint256"
        },
        {
          "indexed": false,
          "internalType": "uint256",
          "name": "_withdrawUnoAmount",
          "type": "uint256"
        }
      ],
      "name": "LogLeaveFromPendingSSIP",
      "type": "event"
    },
    {
      "anonymous": false,
      "inputs": [
        {
          "indexed": true,
          "internalType": "address",
          "name": "_from",
          "type": "address"
        },
        {
          "indexed": true,
          "internalType": "address",
          "name": "_to",
          "type": "address"
        },
        {
          "indexed": false,
          "internalType": "uint256",
          "name": "_amount",
          "type": "uint256"
        }
      ],
      "name": "LogLpTransferInSSIP",
      "type": "event"
    },
    {
      "anonymous": false,
      "inputs": [
        {
          "indexed": true,
          "internalType": "address",
          "name": "_user",
          "type": "address"
        },
        {
          "indexed": true,
          "internalType": "address",
          "name": "_migrateTo",
          "type": "address"
        },
        {
          "indexed": false,
          "internalType": "uint256",
          "name": "_migratedAmount",
          "type": "uint256"
        }
      ],
      "name": "LogMigrate",
      "type": "event"
    },
    {
      "anonymous": false,
      "inputs": [
        {
          "indexed": true,
          "internalType": "address",
          "name": "_SSIP",
          "type": "address"
        },
        {
          "indexed": false,
          "internalType": "uint256",
          "name": "_assertionAliveTime",
          "type": "uint256"
        }
      ],
      "name": "LogSetAssertionAliveTime",
      "type": "event"
    },
    {
      "anonymous": false,
      "inputs": [
        {
          "indexed": true,
          "internalType": "address",
          "name": "_SSIP",
          "type": "address"
        },
        {
          "indexed": true,
          "internalType": "address",
          "name": "_capitalAgent",
          "type": "address"
        }
      ],
      "name": "LogSetCapitalAgent",
      "type": "event"
    },
    {
      "anonymous": false,
      "inputs": [
        {
          "indexed": true,
          "internalType": "address",
          "name": "_SSIP",
          "type": "address"
        },
        {
          "indexed": true,
          "internalType": "address",
          "name": "_claimProccessor",
          "type": "address"
        }
      ],
      "name": "LogSetClaimProccessor",
      "type": "event"
    },
    {
      "anonymous": false,
      "inputs": [
        {
          "indexed": true,
          "internalType": "address",
          "name": "_SSIP",
          "type": "address"
        },
        {
          "indexed": true,
          "internalType": "address",
          "name": "_escalatingManager",
          "type": "address"
        }
      ],
      "name": "LogSetEscalationManager",
      "type": "event"
    },
    {
      "anonymous": false,
      "inputs": [
        {
          "indexed": true,
          "internalType": "address",
          "name": "_SSIP",
          "type": "address"
        },
        {
          "indexed": false,
          "internalType": "uint256",
          "name": "_lockTime",
          "type": "uint256"
        }
      ],
      "name": "LogSetLockTime",
      "type": "event"
    },
    {
      "anonymous": false,
      "inputs": [
        {
          "indexed": true,
          "internalType": "address",
          "name": "_SSIP",
          "type": "address"
        },
        {
          "indexed": true,
          "internalType": "address",
          "name": "_migrateTo",
          "type": "address"
        }
      ],
      "name": "LogSetMigrateTo",
      "type": "event"
    },
    {
      "anonymous": false,
      "inputs": [
        {
          "indexed": true,
          "internalType": "address",
          "name": "_SSIP",
          "type": "address"
        },
        {
          "indexed": false,
          "internalType": "uint256",
          "name": "_minLPCapital",
          "type": "uint256"
        }
      ],
      "name": "LogSetMinLPCapital",
      "type": "event"
    },
    {
      "anonymous": false,
      "inputs": [
        {
          "indexed": true,
          "internalType": "address",
          "name": "_SSIP",
          "type": "address"
        },
        {
          "indexed": false,
          "internalType": "uint256",
          "name": "_rewardPerBlock",
          "type": "uint256"
        }
      ],
      "name": "LogSetRewardMultiplier",
      "type": "event"
    },
    {
      "anonymous": false,
      "inputs": [
        {
          "indexed": true,
          "internalType": "address",
          "name": "_SSIP",
          "type": "address"
        },
        {
          "indexed": false,
          "internalType": "bytes32",
          "name": "_role",
          "type": "bytes32"
        },
        {
          "indexed": true,
          "internalType": "address",
          "name": "_account",
          "type": "address"
        }
      ],
      "name": "LogSetRole",
      "type": "event"
    },
    {
      "anonymous": false,
      "inputs": [
        {
          "indexed": true,
          "internalType": "address",
          "name": "_SSIP",
          "type": "address"
        },
        {
          "indexed": false,
          "internalType": "uint256",
          "name": "_startTime",
          "type": "uint256"
        }
      ],
      "name": "LogSetStakingStartTime",
      "type": "event"
    },
    {
      "anonymous": false,
      "inputs": [
        {
          "indexed": false,
          "internalType": "uint128",
          "name": "_lastRewardBlock",
          "type": "uint128"
        },
        {
          "indexed": false,
          "internalType": "uint256",
          "name": "_lpSupply",
          "type": "uint256"
        },
        {
          "indexed": false,
          "internalType": "uint256",
          "name": "_accUnoPerShare",
          "type": "uint256"
        }
      ],
      "name": "LogUpdatePool",
      "type": "event"
    },
    {
      "anonymous": false,
      "inputs": [
        {
          "indexed": false,
          "internalType": "address",
          "name": "account",
          "type": "address"
        }
      ],
      "name": "Paused",
      "type": "event"
    },
    {
      "anonymous": false,
      "inputs": [
        {
          "indexed": true,
          "internalType": "address",
          "name": "_owner",
          "type": "address"
        },
        {
          "indexed": false,
          "internalType": "uint256",
          "name": "_policyId",
          "type": "uint256"
        }
      ],
      "name": "PolicyApproved",
      "type": "event"
    },
    {
      "anonymous": false,
      "inputs": [
        {
          "indexed": true,
          "internalType": "address",
          "name": "_user",
          "type": "address"
        },
        {
          "indexed": false,
          "internalType": "uint256",
          "name": "_claimAmount",
          "type": "uint256"
        }
      ],
      "name": "PolicyClaim",
      "type": "event"
    },
    {
      "anonymous": false,
      "inputs": [
        {
          "indexed": true,
          "internalType": "address",
          "name": "_owner",
          "type": "address"
        },
        {
          "indexed": false,
          "internalType": "uint256",
          "name": "_policyId",
          "type": "uint256"
        }
      ],
      "name": "PolicyRejected",
      "type": "event"
    },
    {
      "anonymous": false,
      "inputs": [
        {
          "indexed": true,
          "internalType": "address",
          "name": "_owner",
          "type": "address"
        },
        {
          "indexed": false,
          "internalType": "bool",
          "name": "_alive",
          "type": "bool"
        }
      ],
      "name": "PoolAlived",
      "type": "event"
    },
    {
      "anonymous": false,
      "inputs": [
        {
          "indexed": true,
          "internalType": "address",
          "name": "_owner",
          "type": "address"
        },
        {
          "indexed": false,
          "internalType": "bool",
          "name": "_fail",
          "type": "bool"
        }
      ],
      "name": "PoolFailed",
      "type": "event"
    },
    {
      "anonymous": false,
      "inputs": [
        {
          "indexed": true,
          "internalType": "address",
          "name": "_SSIP",
          "type": "address"
        },
        {
          "indexed": true,
          "internalType": "address",
          "name": "_pool",
          "type": "address"
        }
      ],
      "name": "RiskPoolCreated",
      "type": "event"
    },
    {
      "anonymous": false,
      "inputs": [
        {
          "indexed": true,
          "internalType": "address",
          "name": "_SSIP",
          "type": "address"
        },
        {
          "indexed": true,
          "internalType": "address",
          "name": "_previousOwner",
          "type": "address"
        },
        {
          "indexed": true,
          "internalType": "address",
          "name": "_newOwner",
          "type": "address"
        }
      ],
      "name": "RoleAccepted",
      "type": "event"
    },
    {
      "anonymous": false,
      "inputs": [
        {
          "indexed": true,
          "internalType": "bytes32",
          "name": "role",
          "type": "bytes32"
        },
        {
          "indexed": true,
          "internalType": "bytes32",
          "name": "previousAdminRole",
          "type": "bytes32"
        },
        {
          "indexed": true,
          "internalType": "bytes32",
          "name": "newAdminRole",
          "type": "bytes32"
        }
      ],
      "name": "RoleAdminChanged",
      "type": "event"
    },
    {
      "anonymous": false,
      "inputs": [
        {
          "indexed": true,
          "internalType": "bytes32",
          "name": "role",
          "type": "bytes32"
        },
        {
          "indexed": true,
          "internalType": "address",
          "name": "account",
          "type": "address"
        },
        {
          "indexed": true,
          "internalType": "address",
          "name": "sender",
          "type": "address"
        }
      ],
      "name": "RoleGranted",
      "type": "event"
    },
    {
      "anonymous": false,
      "inputs": [
        {
          "indexed": true,
          "internalType": "bytes32",
          "name": "role",
          "type": "bytes32"
        },
        {
          "indexed": true,
          "internalType": "address",
          "name": "account",
          "type": "address"
        },
        {
          "indexed": true,
          "internalType": "address",
          "name": "sender",
          "type": "address"
        }
      ],
      "name": "RoleRevoked",
      "type": "event"
    },
    {
      "anonymous": false,
      "inputs": [
        {
          "indexed": true,
          "internalType": "address[]",
          "name": "_staker",
          "type": "address[]"
        },
        {
          "indexed": true,
          "internalType": "address",
          "name": "_pool",
          "type": "address"
        },
        {
          "indexed": false,
          "internalType": "uint256",
          "name": "_amount",
          "type": "uint256"
        }
      ],
      "name": "RollOverReward",
      "type": "event"
    },
    {
      "anonymous": false,
      "inputs": [
        {
          "indexed": true,
          "internalType": "address",
          "name": "_staker",
          "type": "address"
        },
        {
          "indexed": true,
          "internalType": "address",
          "name": "_pool",
          "type": "address"
        },
        {
          "indexed": false,
          "internalType": "uint256",
          "name": "_amount",
          "type": "uint256"
        }
      ],
      "name": "StakedInPool",
      "type": "event"
    },
    {
      "anonymous": false,
      "inputs": [
        {
          "indexed": false,
          "internalType": "address",
          "name": "account",
          "type": "address"
        }
      ],
      "name": "Unpaused",
      "type": "event"
    },
    {
      "inputs": [],
      "name": "ACC_UNO_PRECISION",
      "outputs": [
        {
          "internalType": "uint256",
          "name": "",
          "type": "uint256"
        }
      ],
      "stateMutability": "view",
      "type": "function"
    },
    {
      "inputs": [],
      "name": "ADMIN_ROLE",
      "outputs": [
        {
          "internalType": "bytes32",
          "name": "",
          "type": "bytes32"
        }
      ],
      "stateMutability": "view",
      "type": "function"
    },
    {
      "inputs": [],
      "name": "BOT_ROLE",
      "outputs": [
        {
          "internalType": "bytes32",
          "name": "",
          "type": "bytes32"
        }
      ],
      "stateMutability": "view",
      "type": "function"
    },
    {
      "inputs": [],
      "name": "CLAIM_PROCESSOR_ROLE",
      "outputs": [
        {
          "internalType": "bytes32",
          "name": "",
          "type": "bytes32"
        }
      ],
      "stateMutability": "view",
      "type": "function"
    },
    {
      "inputs": [],
      "name": "DEFAULT_ADMIN_ROLE",
      "outputs": [
        {
          "internalType": "bytes32",
          "name": "",
          "type": "bytes32"
        }
      ],
      "stateMutability": "view",
      "type": "function"
    },
    {
      "inputs": [],
      "name": "GUARDIAN_COUNCIL_ROLE",
      "outputs": [
        {
          "internalType": "bytes32",
          "name": "",
          "type": "bytes32"
        }
      ],
      "stateMutability": "view",
      "type": "function"
    },
    {
      "inputs": [],
      "name": "UnpausePool",
      "outputs": [],
      "stateMutability": "nonpayable",
      "type": "function"
    },
    {
      "inputs": [
        {
          "internalType": "bytes32",
          "name": "",
          "type": "bytes32"
        }
      ],
      "name": "assertedPolicies",
      "outputs": [
        {
          "internalType": "uint256",
          "name": "",
          "type": "uint256"
        }
      ],
      "stateMutability": "view",
      "type": "function"
    },
    {
      "inputs": [
        {
          "internalType": "bytes32",
          "name": "assertionId",
          "type": "bytes32"
        }
      ],
      "name": "assertionDisputedCallback",
      "outputs": [],
      "stateMutability": "nonpayable",
      "type": "function"
    },
    {
      "inputs": [
        {
          "internalType": "bytes32",
          "name": "_assertionId",
          "type": "bytes32"
        },
        {
          "internalType": "bool",
          "name": "_assertedTruthfully",
          "type": "bool"
        }
      ],
      "name": "assertionResolvedCallback",
      "outputs": [],
      "stateMutability": "nonpayable",
      "type": "function"
    },
    {
      "inputs": [],
      "name": "assertionliveTime",
      "outputs": [
        {
          "internalType": "uint256",
          "name": "",
          "type": "uint256"
        }
      ],
      "stateMutability": "view",
      "type": "function"
    },
    {
      "inputs": [],
      "name": "cancelWithdrawRequest",
      "outputs": [],
      "stateMutability": "nonpayable",
      "type": "function"
    },
    {
      "inputs": [],
      "name": "capitalAgent",
      "outputs": [
        {
          "internalType": "address",
          "name": "",
          "type": "address"
        }
      ],
      "stateMutability": "view",
      "type": "function"
    },
    {
      "inputs": [],
      "name": "claimProcessor",
      "outputs": [
        {
          "internalType": "address",
          "name": "",
          "type": "address"
        }
      ],
      "stateMutability": "view",
      "type": "function"
    },
    {
      "inputs": [
        {
          "internalType": "address",
          "name": "_operator",
          "type": "address"
        },
        {
          "internalType": "address",
          "name": "_factory",
          "type": "address"
        },
        {
          "internalType": "address",
          "name": "_currency",
          "type": "address"
        }
      ],
      "name": "createRewarder",
      "outputs": [],
      "stateMutability": "nonpayable",
      "type": "function"
    },
    {
      "inputs": [
        {
          "internalType": "string",
          "name": "_name",
          "type": "string"
        },
        {
          "internalType": "string",
          "name": "_symbol",
          "type": "string"
        },
        {
          "internalType": "address",
          "name": "_factory",
          "type": "address"
        },
        {
          "internalType": "address",
          "name": "_currency",
          "type": "address"
        },
        {
          "internalType": "uint256",
          "name": "_rewardMultiplier",
          "type": "uint256"
        },
        {
          "internalType": "uint256",
          "name": "_SCR",
          "type": "uint256"
        }
      ],
      "name": "createRiskPool",
      "outputs": [],
      "stateMutability": "nonpayable",
      "type": "function"
    },
    {
      "inputs": [
        {
          "internalType": "address",
          "name": "_multiSigWallet",
          "type": "address"
        },
        {
          "internalType": "address",
          "name": "_factory",
          "type": "address"
        }
      ],
      "name": "createSyntheticSSIP",
      "outputs": [],
      "stateMutability": "nonpayable",
      "type": "function"
    },
    {
      "inputs": [],
      "name": "defaultCurrency",
      "outputs": [
        {
          "internalType": "contract IERC20",
          "name": "",
          "type": "address"
        }
      ],
      "stateMutability": "view",
      "type": "function"
    },
    {
      "inputs": [],
      "name": "defaultIdentifier",
      "outputs": [
        {
          "internalType": "bytes32",
          "name": "",
          "type": "bytes32"
        }
      ],
      "stateMutability": "view",
      "type": "function"
    },
    {
      "inputs": [
        {
          "internalType": "uint256",
          "name": "_amount",
          "type": "uint256"
        }
      ],
      "name": "enterInPool",
      "outputs": [],
      "stateMutability": "payable",
      "type": "function"
    },
    {
      "inputs": [],
      "name": "escalationManager",
      "outputs": [
        {
          "internalType": "address",
          "name": "",
          "type": "address"
        }
      ],
      "stateMutability": "view",
      "type": "function"
    },
    {
      "inputs": [],
      "name": "failed",
      "outputs": [
        {
          "internalType": "bool",
          "name": "",
          "type": "bool"
        }
      ],
      "stateMutability": "view",
      "type": "function"
    },
    {
      "inputs": [
        {
          "internalType": "bytes32",
          "name": "role",
          "type": "bytes32"
        }
      ],
      "name": "getRoleAdmin",
      "outputs": [
        {
          "internalType": "bytes32",
          "name": "",
          "type": "bytes32"
        }
      ],
      "stateMutability": "view",
      "type": "function"
    },
    {
      "inputs": [
        {
          "internalType": "address",
          "name": "_to",
          "type": "address"
        }
      ],
      "name": "getStakedAmountPerUser",
      "outputs": [
        {
          "internalType": "uint256",
          "name": "unoAmount",
          "type": "uint256"
        },
        {
          "internalType": "uint256",
          "name": "lpAmount",
          "type": "uint256"
        }
      ],
      "stateMutability": "view",
      "type": "function"
    },
    {
      "inputs": [],
      "name": "getTotalWithdrawPendingAmount",
      "outputs": [
        {
          "internalType": "uint256",
          "name": "",
          "type": "uint256"
        }
      ],
      "stateMutability": "view",
      "type": "function"
    },
    {
      "inputs": [
        {
          "internalType": "address",
          "name": "_user",
          "type": "address"
        }
      ],
      "name": "getWithdrawRequestPerUser",
      "outputs": [
        {
          "internalType": "uint256",
          "name": "pendingAmount",
          "type": "uint256"
        },
        {
          "internalType": "uint256",
          "name": "pendingAmountInUno",
          "type": "uint256"
        },
        {
          "internalType": "uint256",
          "name": "originUnoAmount",
          "type": "uint256"
        },
        {
          "internalType": "uint256",
          "name": "requestTime",
          "type": "uint256"
        }
      ],
      "stateMutability": "view",
      "type": "function"
    },
    {
      "inputs": [
        {
          "internalType": "bytes32",
          "name": "role",
          "type": "bytes32"
        },
        {
          "internalType": "address",
          "name": "account",
          "type": "address"
        }
      ],
      "name": "grantRole",
      "outputs": [],
      "stateMutability": "nonpayable",
      "type": "function"
    },
    {
      "inputs": [
        {
          "internalType": "address",
          "name": "_to",
          "type": "address"
        }
      ],
      "name": "harvest",
      "outputs": [],
      "stateMutability": "nonpayable",
      "type": "function"
    },
    {
      "inputs": [
        {
          "internalType": "bytes32",
          "name": "role",
          "type": "bytes32"
        },
        {
          "internalType": "address",
          "name": "account",
          "type": "address"
        }
      ],
      "name": "hasRole",
      "outputs": [
        {
          "internalType": "bool",
          "name": "",
          "type": "bool"
        }
      ],
      "stateMutability": "view",
      "type": "function"
    },
    {
      "inputs": [
        {
          "internalType": "address",
          "name": "_capitalAgent",
          "type": "address"
        },
        {
          "internalType": "address",
          "name": "_multiSigWallet",
          "type": "address"
        },
        {
          "internalType": "address",
          "name": "_governance",
          "type": "address"
        },
        {
          "internalType": "address",
          "name": "_claimProcessor",
          "type": "address"
        },
        {
          "internalType": "address",
          "name": "_escalationManager",
          "type": "address"
        },
        {
          "internalType": "address",
          "name": "_defaultCurrency",
          "type": "address"
        },
        {
          "internalType": "address",
          "name": "_optimisticOracleV3",
          "type": "address"
        }
      ],
      "name": "initialize",
      "outputs": [],
      "stateMutability": "nonpayable",
      "type": "function"
    },
    {
      "inputs": [],
      "name": "killPool",
      "outputs": [],
      "stateMutability": "nonpayable",
      "type": "function"
    },
    {
      "inputs": [],
      "name": "killed",
      "outputs": [
        {
          "internalType": "bool",
          "name": "",
          "type": "bool"
        }
      ],
      "stateMutability": "view",
      "type": "function"
    },
    {
      "inputs": [],
      "name": "leaveFromPending",
      "outputs": [],
      "stateMutability": "nonpayable",
      "type": "function"
    },
    {
      "inputs": [
        {
          "internalType": "uint256",
          "name": "_amount",
          "type": "uint256"
        }
      ],
      "name": "leaveFromPoolInPending",
      "outputs": [],
      "stateMutability": "nonpayable",
      "type": "function"
    },
    {
      "inputs": [],
      "name": "lockTime",
      "outputs": [
        {
          "internalType": "uint256",
          "name": "",
          "type": "uint256"
        }
      ],
      "stateMutability": "view",
      "type": "function"
    },
    {
      "inputs": [
        {
          "internalType": "address",
          "name": "_from",
          "type": "address"
        },
        {
          "internalType": "address",
          "name": "_to",
          "type": "address"
        },
        {
          "internalType": "uint256",
          "name": "_amount",
          "type": "uint256"
        }
      ],
      "name": "lpTransfer",
      "outputs": [],
      "stateMutability": "nonpayable",
      "type": "function"
    },
    {
      "inputs": [],
      "name": "migrate",
      "outputs": [],
      "stateMutability": "nonpayable",
      "type": "function"
    },
    {
      "inputs": [],
      "name": "migrateTo",
      "outputs": [
        {
          "internalType": "address",
          "name": "",
          "type": "address"
        }
      ],
      "stateMutability": "view",
      "type": "function"
    },
    {
      "inputs": [],
      "name": "oo",
      "outputs": [
        {
          "internalType": "contract OptimisticOracleV3Interface",
          "name": "",
          "type": "address"
        }
      ],
      "stateMutability": "view",
      "type": "function"
    },
    {
      "inputs": [],
      "name": "pausePool",
      "outputs": [],
      "stateMutability": "nonpayable",
      "type": "function"
    },
    {
      "inputs": [],
      "name": "paused",
      "outputs": [
        {
          "internalType": "bool",
          "name": "",
          "type": "bool"
        }
      ],
      "stateMutability": "view",
      "type": "function"
    },
    {
      "inputs": [
        {
          "internalType": "address",
          "name": "_to",
          "type": "address"
        }
      ],
      "name": "pendingUno",
      "outputs": [
        {
          "internalType": "uint256",
          "name": "pending",
          "type": "uint256"
        }
      ],
      "stateMutability": "view",
      "type": "function"
    },
    {
      "inputs": [
        {
          "internalType": "uint256",
          "name": "",
          "type": "uint256"
        }
      ],
      "name": "policies",
      "outputs": [
        {
          "internalType": "uint256",
          "name": "insuranceAmount",
          "type": "uint256"
        },
        {
          "internalType": "address",
          "name": "payoutAddress",
          "type": "address"
        },
        {
          "internalType": "bool",
          "name": "settled",
          "type": "bool"
        }
      ],
      "stateMutability": "view",
      "type": "function"
    },
    {
      "inputs": [
        {
          "internalType": "uint256",
          "name": "",
          "type": "uint256"
        }
      ],
      "name": "policiesAssertionId",
      "outputs": [
        {
          "internalType": "bytes32",
          "name": "",
          "type": "bytes32"
        }
      ],
      "stateMutability": "view",
      "type": "function"
    },
    {
      "inputs": [],
      "name": "poolInfo",
      "outputs": [
        {
          "internalType": "uint128",
          "name": "lastRewardBlock",
          "type": "uint128"
        },
        {
          "internalType": "uint128",
          "name": "accUnoPerShare",
          "type": "uint128"
        },
        {
          "internalType": "uint256",
          "name": "unoMultiplierPerBlock",
          "type": "uint256"
        }
      ],
      "stateMutability": "view",
      "type": "function"
    },
    {
      "inputs": [
        {
          "internalType": "bytes32",
          "name": "role",
          "type": "bytes32"
        },
        {
          "internalType": "address",
          "name": "callerConfirmation",
          "type": "address"
        }
      ],
      "name": "renounceRole",
      "outputs": [],
      "stateMutability": "nonpayable",
      "type": "function"
    },
    {
      "inputs": [
        {
          "internalType": "uint256",
          "name": "_policyId",
          "type": "uint256"
        },
        {
          "internalType": "uint256",
          "name": "_amount",
          "type": "uint256"
        },
        {
          "internalType": "address",
          "name": "_to",
          "type": "address"
        }
      ],
      "name": "requestPayout",
      "outputs": [
        {
          "internalType": "bytes32",
          "name": "assertionId",
          "type": "bytes32"
        }
      ],
      "stateMutability": "nonpayable",
      "type": "function"
    },
    {
      "inputs": [],
      "name": "revivePool",
      "outputs": [],
      "stateMutability": "nonpayable",
      "type": "function"
    },
    {
      "inputs": [
        {
          "internalType": "bytes32",
          "name": "role",
          "type": "bytes32"
        },
        {
          "internalType": "address",
          "name": "account",
          "type": "address"
        }
      ],
      "name": "revokeRole",
      "outputs": [],
      "stateMutability": "nonpayable",
      "type": "function"
    },
    {
      "inputs": [],
      "name": "rewarder",
      "outputs": [
        {
          "internalType": "address",
          "name": "",
          "type": "address"
        }
      ],
      "stateMutability": "view",
      "type": "function"
    },
    {
      "inputs": [],
      "name": "riskPool",
      "outputs": [
        {
          "internalType": "address",
          "name": "",
          "type": "address"
        }
      ],
      "stateMutability": "view",
      "type": "function"
    },
    {
      "inputs": [
        {
          "internalType": "bytes32",
          "name": "",
          "type": "bytes32"
        },
        {
          "internalType": "address",
          "name": "",
          "type": "address"
        }
      ],
      "name": "roleLockTime",
      "outputs": [
        {
          "internalType": "uint256",
          "name": "",
          "type": "uint256"
        }
      ],
      "stateMutability": "view",
      "type": "function"
    },
    {
      "inputs": [
        {
          "internalType": "address[]",
          "name": "_to",
          "type": "address[]"
        }
      ],
      "name": "rollOverReward",
      "outputs": [],
      "stateMutability": "nonpayable",
      "type": "function"
    },
    {
      "inputs": [
        {
          "internalType": "uint256",
          "name": "_assertionliveTime",
          "type": "uint256"
        }
      ],
      "name": "setAliveness",
      "outputs": [],
      "stateMutability": "nonpayable",
      "type": "function"
    },
    {
      "inputs": [
        {
          "internalType": "address",
          "name": "_capitalAgent",
          "type": "address"
        }
      ],
      "name": "setCapitalAgent",
      "outputs": [],
      "stateMutability": "nonpayable",
      "type": "function"
    },
    {
      "inputs": [
        {
          "internalType": "address",
          "name": "_claimProcessor",
          "type": "address"
        }
      ],
      "name": "setClaimProcessor",
      "outputs": [],
      "stateMutability": "nonpayable",
      "type": "function"
    },
    {
      "inputs": [
        {
          "internalType": "address",
          "name": "_escalatingManager",
          "type": "address"
        }
      ],
      "name": "setEscalatingManager",
      "outputs": [],
      "stateMutability": "nonpayable",
      "type": "function"
    },
    {
      "inputs": [
        {
          "internalType": "bool",
          "name": "_failed",
          "type": "bool"
        }
      ],
      "name": "setFailed",
      "outputs": [],
      "stateMutability": "nonpayable",
      "type": "function"
    },
    {
      "inputs": [
        {
          "internalType": "uint256",
          "name": "_lockTime",
          "type": "uint256"
        }
      ],
      "name": "setLockTime",
      "outputs": [],
      "stateMutability": "nonpayable",
      "type": "function"
    },
    {
      "inputs": [
        {
          "internalType": "address",
          "name": "_migrateTo",
          "type": "address"
        }
      ],
      "name": "setMigrateTo",
      "outputs": [],
      "stateMutability": "nonpayable",
      "type": "function"
    },
    {
      "inputs": [
        {
          "internalType": "uint256",
          "name": "_minLPCapital",
          "type": "uint256"
        }
      ],
      "name": "setMinLPCapital",
      "outputs": [],
      "stateMutability": "nonpayable",
      "type": "function"
    },
    {
      "inputs": [
        {
          "internalType": "uint256",
          "name": "_rewardMultiplier",
          "type": "uint256"
        }
      ],
      "name": "setRewardMultiplier",
      "outputs": [],
      "stateMutability": "nonpayable",
      "type": "function"
    },
    {
      "inputs": [
        {
          "internalType": "bytes32",
          "name": "_role",
          "type": "bytes32"
        },
        {
          "internalType": "address",
          "name": "_account",
          "type": "address"
        }
      ],
      "name": "setRole",
      "outputs": [],
      "stateMutability": "nonpayable",
      "type": "function"
    },
    {
      "inputs": [
        {
          "internalType": "uint256",
          "name": "_startTime",
          "type": "uint256"
        }
      ],
      "name": "setStakingStartTime",
      "outputs": [],
      "stateMutability": "nonpayable",
      "type": "function"
    },
    {
      "inputs": [
        {
          "internalType": "uint256",
          "name": "_policyId",
          "type": "uint256"
        },
        {
          "internalType": "bytes32",
          "name": "_assertionId",
          "type": "bytes32"
        }
      ],
      "name": "settlePayout",
      "outputs": [],
      "stateMutability": "nonpayable",
      "type": "function"
    },
    {
      "inputs": [],
      "name": "stakingStartTime",
      "outputs": [
        {
          "internalType": "uint256",
          "name": "",
          "type": "uint256"
        }
      ],
      "stateMutability": "view",
      "type": "function"
    },
    {
      "inputs": [
        {
          "internalType": "bytes4",
          "name": "interfaceId",
          "type": "bytes4"
        }
      ],
      "name": "supportsInterface",
      "outputs": [
        {
          "internalType": "bool",
          "name": "",
          "type": "bool"
        }
      ],
      "stateMutability": "view",
      "type": "function"
    },
    {
      "inputs": [],
      "name": "syntheticSSIP",
      "outputs": [
        {
          "internalType": "address",
          "name": "",
          "type": "address"
        }
      ],
      "stateMutability": "view",
      "type": "function"
    },
    {
      "inputs": [],
      "name": "toggleRollOver",
      "outputs": [],
      "stateMutability": "nonpayable",
      "type": "function"
    },
    {
      "inputs": [],
      "name": "updatePool",
      "outputs": [],
      "stateMutability": "nonpayable",
      "type": "function"
    },
    {
      "inputs": [
        {
          "internalType": "address",
          "name": "",
          "type": "address"
        }
      ],
      "name": "userInfo",
      "outputs": [
        {
          "internalType": "uint256",
          "name": "lastWithdrawTime",
          "type": "uint256"
        },
        {
          "internalType": "uint256",
          "name": "rewardDebt",
          "type": "uint256"
        },
        {
          "internalType": "uint256",
          "name": "amount",
          "type": "uint256"
        },
        {
          "internalType": "bool",
          "name": "isNotRollOver",
          "type": "bool"
        }
      ],
      "stateMutability": "view",
      "type": "function"
    }
  ],
  "transactionHash": "0xb5ab593ff7652efed81ddbb1d2d45854e03a0125c57e34aff037ad71e6330fb7",
  "args": [],
  "numDeployments": 1,
  "solcInputHash": "d02985954e23ee55f6611f03e3607aaf",
  "bytecode": "0x608060405234801561001057600080fd5b50615c6480620000216000396000f3fe6080604052600436106104105760003560e01c80639f1bd31e1161021e578063d448a4ec11610123578063e0c8d9a5116100ab578063e39a0af91161007a578063e39a0af914610d43578063f1b156b214610d63578063f320b51f14610d83578063f53713d514610db0578063fd91db9614610dd057600080fd5b8063e0c8d9a514610cce578063e19e716814610d06578063e3161ddd14610d1b578063e3824a3814610d3057600080fd5b8063d7c2d6b5116100f2578063d7c2d6b514610c21578063dcc3e06e14610c41578063dd33acc214610c61578063dff8720314610c8e578063e08c5de114610cae57600080fd5b8063d448a4ec14610bab578063d509b01714610bc9578063d531d94414610bdf578063d547741f14610c0157600080fd5b8063ba414fa6116101a6578063c3dcfcf111610175578063c3dcfcf114610abd578063c4e5dacf14610add578063c5b0298914610afd578063cd87c83c14610b1d578063d3e8948314610b3d57600080fd5b8063ba414fa614610a32578063ba61945714610a53578063bc8f882814610a88578063c2eb8eb914610a9d57600080fd5b8063a79b15e5116101ed578063a79b15e514610989578063aa09d5b7146109a9578063ae04d45d146109be578063af16d6e0146109de578063b1503774146109fe57600080fd5b80639f1bd31e1461092a578063a19c93571461093f578063a217fddf1461095f578063a3bdd6321461097457600080fd5b80635a2f3d09116103245780638395206c116102ac57806391d148541161027b57806391d148541461086a578063920389131461088a5780639336f406146108aa57806393b6b86c146108ea57806398c6e7601461090a57600080fd5b80638395206c146107f95780638921a6141461081957806389919b71146108395780638fd3ab801461085557600080fd5b80636abfd183116102f35780636abfd18314610758578063736ec05c1461076e57806375b238fc1461078e5780637a39b8d8146107b05780637da2a4a7146107c557600080fd5b80635a2f3d09146106a85780635c975abb146106fe5780635d90bad914610723578063677554151461074357600080fd5b80631b600ca2116103a75780632f2ff15d116103765780632f2ff15d14610608578063358764761461062857806336568abe14610648578063406cca2314610668578063421981601461068857600080fd5b80631b600ca21461056f5780631f3a0e411461058f57806320402e1d146105b0578063248a9ca3146105e857600080fd5b80630e5c011e116103e35780630e5c011e146104b25780630e9ae420146104d257806316908fed146104f25780631959a0021461050857600080fd5b806301ffc9a714610415578063078fa9bc1461044a5780630bd075a11461047a5780630d6680871461049c575b600080fd5b34801561042157600080fd5b50610435610430366004615168565b610df0565b60405190151581526020015b60405180910390f35b34801561045657600080fd5b5061046c600080516020615bcf83398151915281565b604051908152602001610441565b34801561048657600080fd5b5061049a610495366004615199565b610e27565b005b3480156104a857600080fd5b5061046c600a5481565b3480156104be57600080fd5b5061049a6104cd3660046151c7565b610f18565b3480156104de57600080fd5b5061049a6104ed3660046151e4565b610f85565b3480156104fe57600080fd5b5061046c600b5481565b34801561051457600080fd5b5061054d6105233660046151c7565b60116020526000908152604090208054600182015460028301546003909301549192909160ff1684565b6040805194855260208501939093529183015215156060820152608001610441565b34801561057b57600080fd5b5061049a61058a366004615225565b6112b7565b34801561059b57600080fd5b5060075461043590600160a01b900460ff1681565b3480156105bc57600080fd5b506001546105d0906001600160a01b031681565b6040516001600160a01b039091168152602001610441565b3480156105f457600080fd5b5061046c610603366004615199565b6114fc565b34801561061457600080fd5b5061049a61062336600461525e565b61151e565b34801561063457600080fd5b5061049a610643366004615283565b61153a565b34801561065457600080fd5b5061049a61066336600461525e565b6119f5565b34801561067457600080fd5b5061049a610683366004615327565b611a28565b34801561069457600080fd5b506005546105d0906001600160a01b031681565b3480156106b457600080fd5b506012546013546106d8916001600160801b0380821692600160801b909204169083565b604080516001600160801b03948516815293909216602084015290820152606001610441565b34801561070a57600080fd5b50600080516020615bef8339815191525460ff16610435565b34801561072f57600080fd5b5061049a61073e366004615199565b611aed565b34801561074f57600080fd5b5061049a611b92565b34801561076457600080fd5b5061046c600c5481565b34801561077a57600080fd5b5061049a6107893660046151c7565b611c3e565b34801561079a57600080fd5b5061046c600080516020615c0f83398151915281565b3480156107bc57600080fd5b5061049a611d16565b3480156107d157600080fd5b5061049a336000908152601160205260409020600301805460ff19811660ff90911615179055565b34801561080557600080fd5b5061049a610814366004615199565b611dc0565b34801561082557600080fd5b506000546105d0906001600160a01b031681565b34801561084557600080fd5b5061046c670de0b6b3a764000081565b34801561086157600080fd5b5061049a6120ec565b34801561087657600080fd5b5061043561088536600461525e565b612346565b34801561089657600080fd5b5061049a6108a53660046151c7565b61237e565b3480156108b657600080fd5b506108ca6108c53660046151c7565b612430565b604080519485526020850193909352918301526060820152608001610441565b3480156108f657600080fd5b5061049a610905366004615199565b61254e565b34801561091657600080fd5b506004546105d0906001600160a01b031681565b34801561093657600080fd5b5061049a612692565b34801561094b57600080fd5b5061049a61095a366004615344565b612702565b34801561096b57600080fd5b5061046c600081565b34801561098057600080fd5b5061046c612900565b34801561099557600080fd5b506007546105d0906001600160a01b031681565b3480156109b557600080fd5b5061049a612973565b3480156109ca57600080fd5b5061049a6109d9366004615199565b6129df565b3480156109ea57600080fd5b5061049a6109f9366004615366565b612aca565b348015610a0a57600080fd5b5061046c7f6d5c9827c1f410bbb61d3b2a0a34b6b30492d9a1fd38588edca7ec4562ab9c9b81565b348015610a3e57600080fd5b5060085461043590600160a01b900460ff1681565b348015610a5f57600080fd5b50610a73610a6e3660046151c7565b612cbd565b60408051928352602083019190915201610441565b348015610a9457600080fd5b5061049a612d69565b348015610aa957600080fd5b5061049a610ab83660046151c7565b613060565b348015610ac957600080fd5b5061049a610ad83660046153fa565b613138565b348015610ae957600080fd5b506009546105d0906001600160a01b031681565b348015610b0957600080fd5b506003546105d0906001600160a01b031681565b348015610b2957600080fd5b506006546105d0906001600160a01b031681565b348015610b4957600080fd5b50610b86610b58366004615199565b601060205260009081526040902080546001909101546001600160a01b03811690600160a01b900460ff1683565b604080519384526001600160a01b039092166020840152151590820152606001610441565b348015610bb757600080fd5b5061049a610bc6366004615199565b50565b348015610bd557600080fd5b5061046c60025481565b348015610beb57600080fd5b5061046c600080516020615b8f83398151915281565b348015610c0d57600080fd5b5061049a610c1c36600461525e565b6133ab565b348015610c2d57600080fd5b5061046c610c3c3660046154a1565b6133c7565b348015610c4d57600080fd5b506008546105d0906001600160a01b031681565b348015610c6d57600080fd5b5061046c610c7c366004615199565b600e6020526000908152604090205481565b348015610c9a57600080fd5b5061049a610ca936600461525e565b613990565b348015610cba57600080fd5b5061046c610cc93660046151c7565b613aad565b348015610cda57600080fd5b5061046c610ce936600461525e565b600f60209081526000928352604080842090915290825290205481565b348015610d1257600080fd5b5061049a613c08565b348015610d2757600080fd5b5061049a613ccd565b61049a610d3e366004615199565b613e57565b348015610d4f57600080fd5b5061049a610d5e3660046151c7565b613f0a565b348015610d6f57600080fd5b5061049a610d7e3660046154cf565b613fbc565b348015610d8f57600080fd5b5061046c610d9e366004615199565b600d6020526000908152604090205481565b348015610dbc57600080fd5b5061049a610dcb366004615199565b614054565b348015610ddc57600080fd5b5061049a610deb36600461555f565b61413f565b60006001600160e01b03198216637965db0b60e01b1480610e2157506301ffc9a760e01b6001600160e01b03198316145b92915050565b600080516020615c0f833981519152610e3f81614504565b336000908152600080516020615b6f8339815191526020526040902054600080516020615c0f83398151915290421015610e945760405162461bcd60e51b8152600401610e8b906155fe565b60405180910390fd5b60008311610ed85760405162461bcd60e51b8152602060048201526011602482015270556e6f52653a207a65726f2076616c756560781b6044820152606401610e8b565b601383905560405183815230907fbd1dd13c6a5b4a28ebd27fdcb8fdd01aba6bbb9f67599306248f465bcdf9817f906020015b60405180910390a2505050565b610f2061450e565b600754600160a01b900460ff1615610f4a5760405162461bcd60e51b8152600401610e8b90615633565b600c54421015610f6c5760405162461bcd60e51b8152600401610e8b90615662565b610f7461453f565b610f7d81614589565b610bc661467a565b610f8d61453f565b610f9561450e565b6009546001600160a01b03163314610fef5760405162461bcd60e51b815260206004820181905260248201527f556e6f52653a206e6f7420616c6c6f77206f7468657273207472616e736665726044820152606401610e8b565b6006546001600160a01b0384811691161480159061101b57506006546001600160a01b03838116911614155b156112aa5761102983614589565b6001600160a01b03838116600081815260116020526040808220600201546009549151631665744b60e11b81526004810194909452939192911690632ccae89690602401606060405180830381865afa15801561108a573d6000803e3d6000fd5b505050506040513d601f19601f820116820180604052508101906110ae9190615699565b505090508281836110bf91906156dd565b101561110d5760405162461bcd60e51b815260206004820152601760248201527f556e6f52653a2062616c616e6365206f766572666c6f770000000000000000006044820152606401610e8b565b601254600090670de0b6b3a76400009061113790600160801b90046001600160801b0316856156f0565b6111419190615707565b601254909150670de0b6b3a76400009061116b90600160801b90046001600160801b0316866156f0565b6111759190615707565b61117f90826156dd565b6001600160a01b0387166000908152601160205260409020600101556111a584846156dd565b6001600160a01b038716600090815260116020526040902060020155601254670de0b6b3a7640000906111e890600160801b90046001600160801b0316866156f0565b6111f29190615707565b6001600160a01b0386166000908152601160205260409020600101546112189190615729565b6001600160a01b0386166000908152601160205260409020600181019190915560020154611247908590615729565b6001600160a01b0380871660008181526011602052604090819020600201939093559151908816907fabc254a3e8b16a8605ce22e693a6e493e375434011c1a7ff082d09e2a84ad1219061129e9088815260200190565b60405180910390a35050505b6112b261467a565b505050565b600080516020615c0f8339815191526112cf81614504565b336000908152600080516020615b6f8339815191526020526040902054600080516020615c0f8339815191529042101561131b5760405162461bcd60e51b8152600401610e8b906155fe565b61132361453f565b6001600160a01b0384166113795760405162461bcd60e51b815260206004820152601960248201527f556e6f52653a207a65726f206f776e65722061646472657373000000000000006044820152606401610e8b565b6001600160a01b0383166113cf5760405162461bcd60e51b815260206004820152601a60248201527f556e6f52653a7a65726f20666163746f727920616464726573730000000000006044820152606401610e8b565b6009546001600160a01b03166114275760405162461bcd60e51b815260206004820152601b60248201527f556e6f52653a7a65726f204c5020746f6b656e206164647265737300000000006044820152606401610e8b565b600954604051631a8a8b3b60e11b81526001600160a01b0386811660048301529182166024820152908416906335151676906044016020604051808303816000875af115801561147b573d6000803e3d6000fd5b505050506040513d601f19601f8201168201806040525081019061149f919061573c565b600680546001600160a01b0319166001600160a01b0392831690811790915560095460405192169130907e1129b9865226cebad4acf884618ae0607fff06758062b050509602db7065f090600090a46114f661467a565b50505050565b6000908152600080516020615baf833981519152602052604090206001015490565b611527826114fc565b61153081614504565b6114f683836146a0565b7ff0c57e16840df040f15088dc2f81fe391c3923bec73e23a9662efc9c229c6a008054600160401b810460ff16159067ffffffffffffffff166000811580156115805750825b905060008267ffffffffffffffff16600114801561159d5750303b155b9050811580156115ab575080155b156115c95760405163f92ee8a960e01b815260040160405180910390fd5b845467ffffffffffffffff1916600117855583156115f357845460ff60401b1916600160401b1785555b6001600160a01b038b166116545760405162461bcd60e51b815260206004820152602260248201527f556e6f52653a207a65726f206d756c746973696777616c6c6574206164647265604482015261737360f01b6064820152608401610e8b565b60038b6001600160a01b031663a0e67e2b6040518163ffffffff1660e01b8152600401600060405180830381865afa158015611694573d6000803e3d6000fd5b505050506040513d6000823e601f3d908101601f191682016040526116bc9190810190615759565b51116117185760405162461bcd60e51b815260206004820152602560248201527f556e6f52653a206d6f7265207468616e207468726565206f776e6572732072656044820152641c5d5a595960da1b6064820152608401610e8b565b60018b6001600160a01b031663e75235b86040518163ffffffff1660e01b8152600401602060405180830381865afa158015611758573d6000803e3d6000fd5b505050506040513d601f19601f8201168201806040525081019061177c91906157e8565b116117df5760405162461bcd60e51b815260206004820152602d60248201527f556e6f52653a206d6f7265207468616e206f6e65206f776e657273207265717560448201526c69656420746f2076657269667960981b6064820152608401610e8b565b600580546001600160a01b03808f166001600160a01b031992831617909255620d2f00600a819055600b55600380548b8416908316179055600780548c8416908316179055600180548a84169083161790556000805492891692909116821790556040805163d509b01760e01b8152905163d509b017916004818101926020929091908290030181865afa15801561187b573d6000803e3d6000fd5b505050506040513d601f19601f8201168201806040525081019061189f91906157e8565b6002556118aa61474c565b6118b261475c565b6118ba61476c565b6118d2600080516020615c0f8339815191528c6146a0565b506118eb600080516020615c0f83398151915280614774565b611903600080516020615b8f8339815191528b6146a0565b5061192a600080516020615b8f833981519152600080516020615c0f833981519152614774565b611942600080516020615bcf8339815191528a6146a0565b50611969600080516020615bcf833981519152600080516020615c0f833981519152614774565b6119a17f6d5c9827c1f410bbb61d3b2a0a34b6b30492d9a1fd38588edca7ec4562ab9c9b600080516020615c0f833981519152614774565b83156119e757845460ff60401b19168555604051600181527fc7f505b2f371ae2175ee4913f4499e1f2633a7b5936321eed1cdaeb6115181d29060200160405180910390a15b505050505050505050505050565b6001600160a01b0381163314611a1e5760405163334bd91960e11b815260040160405180910390fd5b6112b282826147d7565b600080516020615b8f833981519152611a4081614504565b3360009081527f7fb215b72c595b7ea42d4f188843a9b2100e6bcb45486c320fd06421c661583c6020526040902054600080516020615b8f83398151915290421015611a9e5760405162461bcd60e51b8152600401610e8b906155fe565b60088054841515600160a01b0260ff60a01b1990911617905560405133907fe86205fd4b28bc975ade25d5bbd8096df537071d8536eb2fa726496c1e561d2290610f0b90861515815260200190565b600080516020615c0f833981519152611b0581614504565b336000908152600080516020615b6f8339815191526020526040902054600080516020615c0f83398151915290421015611b515760405162461bcd60e51b8152600401610e8b906155fe565b611b5b4284615729565b600c81905560405190815230907fa8aa08cc14eef7b97ab4cd52f37082e23f7526bccc98cf91e6a1d412494b905190602001610f0b565b600080516020615c0f833981519152611baa81614504565b336000908152600080516020615b6f8339815191526020526040902054600080516020615c0f83398151915290421015611bf65760405162461bcd60e51b8152600401610e8b906155fe565b6007805460ff60a01b191690556040516000815233907f77337fcf1b48e6e024b256962b66c49de98c9f606b2cd9937cc0edbc7a0fb709906020015b60405180910390a25050565b600080516020615c0f833981519152611c5681614504565b336000908152600080516020615b6f8339815191526020526040902054600080516020615c0f83398151915290421015611ca25760405162461bcd60e51b8152600401610e8b906155fe565b6001600160a01b038316611cc85760405162461bcd60e51b8152600401610e8b90615801565b600480546001600160a01b0319166001600160a01b03851690811790915560405130907f877238238dbd7134e89b00809ea73fabb50da117ace807a6b31c733bbf55d36990600090a3505050565b600080516020615c0f833981519152611d2e81614504565b336000908152600080516020615b6f8339815191526020526040902054600080516020615c0f83398151915290421015611d7a5760405162461bcd60e51b8152600401610e8b906155fe565b6007805460ff60a01b1916600160a01b1790556040516001815233907f77337fcf1b48e6e024b256962b66c49de98c9f606b2cd9937cc0edbc7a0fb70990602001611c32565b600c54421015611de25760405162461bcd60e51b8152600401610e8b90615662565b611dea61450e565b611df261453f565b611dfb33614589565b60055460405163c139b04f60e01b8152306004820152602481018390526001600160a01b039091169063c139b04f90604401602060405180830381865afa158015611e4a573d6000803e3d6000fd5b505050506040513d601f19601f82011682018060405250810190611e6e919061582e565b611eba5760405162461bcd60e51b815260206004820181905260248201527f556e6f52653a206d696e696d756d206361706974616c20756e646572666c6f776044820152606401610e8b565b336000908152601160209081526040808320600201546009548251627a9fd960e91b815292519194936001600160a01b039091169263f53fb20092600480830193928290030181865afa158015611f15573d6000803e3d6000fd5b505050506040513d601f19601f82011682018060405250810190611f3991906157e8565b600954604051631665744b60e11b81523360048201529192506000916001600160a01b0390911690632ccae89690602401606060405180830381865afa158015611f87573d6000803e3d6000fd5b505050506040513d601f19601f82011682018060405250810190611fab9190615699565b505090508184670de0b6b3a7640000611fc491906156f0565b611fce9190615707565b611fd882856156dd565b10156120265760405162461bcd60e51b815260206004820152601f60248201527f556e6f52653a20776974686472617720616d6f756e74206f766572666c6f77006044820152606401610e8b565b6009546040516323de6d9560e11b8152336004820152602481018690526001600160a01b03909116906347bcdb2a90604401600060405180830381600087803b15801561207257600080fd5b505af1158015612086573d6000803e3d6000fd5b50503360008181526011602090815260409182902042905560095491518981526001600160a01b0390921694509192507f940a14c75c418e7230a2e65567722d2dda5a6713cf71b369bd0fa219fdc1ac5e910160405180910390a3505050610bc661467a565b6120f461453f565b600754600160a01b900460ff161561211e5760405162461bcd60e51b8152600401610e8b90615633565b6004546001600160a01b03166121465760405162461bcd60e51b8152600401610e8b90615801565b61214f33614589565b600a543360009081526011602052604081205490919061216f90426156dd565b60095460048054604051633613302f60e01b815233928101929092526001600160a01b039081166024830152939092116044830181905293506000921690633613302f906064016020604051808303816000875af11580156121d5573d6000803e3d6000fd5b505050506040513d601f19601f820116820180604052508101906121f991906157e8565b60055460405163fb6cb84760e01b81526004810183905260006024820181905260448201529192506001600160a01b03169063fb6cb84790606401600060405180830381600087803b15801561224e57600080fd5b505af1158015612262573d6000803e3d6000fd5b50506004805460405163ed59344b60e01b815233928101929092526024820185905260606044830152600060648301526001600160a01b0316925063ed59344b9150608401600060405180830381600087803b1580156122c157600080fd5b505af11580156122d5573d6000803e3d6000fd5b5050336000818152601160209081526040808320600281018490556001019290925560045491518681526001600160a01b0390921694509192507ff0fee1f70845d356d6a3e0baa0944ce846437b6469ea89416dad2cd7067919a4910160405180910390a3505061234461467a565b565b6000918252600080516020615baf833981519152602090815260408084206001600160a01b0393909316845291905290205460ff1690565b600080516020615c0f83398151915261239681614504565b336000908152600080516020615b6f8339815191526020526040902054600080516020615c0f833981519152904210156123e25760405162461bcd60e51b8152600401610e8b906155fe565b600380546001600160a01b0319166001600160a01b03851690811790915560405130907f45f734c792ccab188daebff0355896691246940a4daa87e512511b916ac7b16190600090a3505050565b6000806000806000600960009054906101000a90046001600160a01b03166001600160a01b031663f53fb2006040518163ffffffff1660e01b8152600401602060405180830381865afa15801561248b573d6000803e3d6000fd5b505050506040513d601f19601f820116820180604052508101906124af91906157e8565b600954604051631665744b60e11b81526001600160a01b038981166004830152929350911690632ccae89690602401606060405180830381865afa1580156124fb573d6000803e3d6000fd5b505050506040513d601f19601f8201168201806040525081019061251f9190615699565b9196509093509150670de0b6b3a764000061253a82876156f0565b6125449190615707565b9350509193509193565b600080516020615c0f83398151915261256681614504565b336000908152600080516020615b6f8339815191526020526040902054600080516020615c0f833981519152904210156125b25760405162461bcd60e51b8152600401610e8b906155fe565b600083116126025760405162461bcd60e51b815260206004820152601b60248201527f556e6f52653a206e6f7420616c6c6f77207a65726f2076616c756500000000006044820152606401610e8b565b6009546040516324edae1b60e21b8152600481018590526001600160a01b03909116906393b6b86c90602401600060405180830381600087803b15801561264857600080fd5b505af115801561265c573d6000803e3d6000fd5b50506040518581523092507f353ac2778fe09bc60cf3070bb11d548faf4037e4217a06977c16463087474aab9150602001610f0b565b600080516020615c0f8339815191526126aa81614504565b336000908152600080516020615b6f8339815191526020526040902054600080516020615c0f833981519152904210156126f65760405162461bcd60e51b8152600401610e8b906155fe565b6126fe614853565b5050565b600754600160a01b900460ff161561272c5760405162461bcd60e51b8152600401610e8b90615633565b600080516020615bcf83398151915261274481614504565b3360009081527fc7c2527510c95c356d4b83c94f4e0908938911080a75c0b2fbcb9caeff5f34156020526040902054600080516020615bcf833981519152904210156127a25760405162461bcd60e51b8152600401610e8b906155fe565b60008481526010602052604090206001810154600160a01b900460ff16156127ca57506114f6565b600181018054600160a01b60ff60a01b19821617909155600954825460405163172500a160e11b81526001600160a01b039384166004820152602481019190915260009290911690632e4a0142906044016020604051808303816000875af115801561283a573d6000803e3d6000fd5b505050506040513d601f19601f8201168201806040525081019061285e91906157e8565b60055460405163fb6cb84760e01b81526004810183905260248101899052600160448201529192506001600160a01b03169063fb6cb84790606401600060405180830381600087803b1580156128b357600080fd5b505af11580156128c7573d6000803e3d6000fd5b50506040518792508891507f5c6ca8242783208d2ffaed6d7a0584f2a7cdf8e033fe79aea2821eee2443d54890600090a3505050505050565b6009546040805163e95aa8d360e01b815290516000926001600160a01b03169163e95aa8d39160048083019260209291908290030181865afa15801561294a573d6000803e3d6000fd5b505050506040513d601f19601f8201168201806040525081019061296e91906157e8565b905090565b600080516020615c0f83398151915261298b81614504565b336000908152600080516020615b6f8339815191526020526040902054600080516020615c0f833981519152904210156129d75760405162461bcd60e51b8152600401610e8b906155fe565b6126fe6148ad565b600080516020615c0f8339815191526129f781614504565b336000908152600080516020615b6f8339815191526020526040902054600080516020615c0f83398151915290421015612a435760405162461bcd60e51b8152600401610e8b906155fe565b60008311612a935760405162461bcd60e51b815260206004820152601f60248201527f556e6f52653a206e6f7420616c6c6f77207a65726f206c6f636b2074696d65006044820152606401610e8b565b600a83905560405183815230907f2c2c43c64e937ae35257af782c222986dc5adb4f56dc0881594e79bf83658d8c90602001610f0b565b612ad261453f565b600080516020615c0f833981519152612aea81614504565b336000908152600080516020615b6f8339815191526020526040902054600080516020615c0f83398151915290421015612b365760405162461bcd60e51b8152600401610e8b906155fe565b6001600160a01b038416612b8c5760405162461bcd60e51b815260206004820181905260248201527f556e6f52653a20726577617264657220666163746f7279206e6f2065786973746044820152606401610e8b565b6001600160a01b038516612be25760405162461bcd60e51b815260206004820152601c60248201527f556e6f52653a207a65726f206f70657261746f722061646472657373000000006044820152606401610e8b565b6040516369ee745160e01b81526001600160a01b03868116600483015284811660248301523060448301528516906369ee7451906064016020604051808303816000875af1158015612c38573d6000803e3d6000fd5b505050506040513d601f19601f82011682018060405250810190612c5c919061573c565b600880546001600160a01b0319166001600160a01b0392831690811790915560405191851682529030907f6c409a36847a0a3870deae25f656f4300d45957d2643fc27faab145e19cfcf1b9060200160405180910390a350506112b261467a565b6001600160a01b038082166000908152601160209081526040808320600201546009548251627a9fd960e91b81529251949591948694919092169263f53fb20092600480830193928290030181865afa158015612d1e573d6000803e3d6000fd5b505050506040513d601f19601f82011682018060405250810190612d4291906157e8565b9050670de0b6b3a7640000612d5782846156f0565b612d619190615707565b925050915091565b600c54421015612d8b5760405162461bcd60e51b8152600401610e8b90615662565b612d9361450e565b612d9b61453f565b600a5433600090815260116020526040902054612db890426156dd565b1015612dfb5760405162461bcd60e51b8152602060048201526012602482015271556e6f52653a204c6f636b65642074696d6560701b6044820152606401610e8b565b612e0433614589565b33600081815260116020526040808220600201546009549151631665744b60e11b81526004810194909452926001600160a01b0390911690632ccae89690602401606060405180830381865afa158015612e62573d6000803e3d6000fd5b505050506040513d601f19601f82011682018060405250810190612e869190615699565b5050601254909150600090670de0b6b3a764000090612eb590600160801b90046001600160801b0316856156f0565b612ebf9190615707565b601254909150670de0b6b3a764000090612ee990600160801b90046001600160801b0316846156f0565b612ef39190615707565b612efd90826156dd565b3360008181526011602052604080822060010193909355600954925163b20ecd1560e01b815260048101929092529182916001600160a01b039091169063b20ecd159060240160408051808303816000875af1158015612f61573d6000803e3d6000fd5b505050506040513d601f19601f82011682018060405250810190612f85919061584b565b9092509050612f9482866156dd565b3360009081526011602052604090819020600201919091556005549051632da26abb60e11b8152600481018390526001600160a01b0390911690635b44d57690602401600060405180830381600087803b158015612ff157600080fd5b505af1158015613005573d6000803e3d6000fd5b505060095460408051868152602081018690526001600160a01b0390921693503392507fced2424eb51507abd1611ac0d9893e5bc6b6d0a0596b53f86d24d31fc75a5d60910160405180910390a3505050505061234461467a565b600080516020615c0f83398151915261307881614504565b336000908152600080516020615b6f8339815191526020526040902054600080516020615c0f833981519152904210156130c45760405162461bcd60e51b8152600401610e8b906155fe565b6001600160a01b0383166130ea5760405162461bcd60e51b8152600401610e8b90615801565b600580546001600160a01b0319166001600160a01b03851690811790915560405130907fdf8e7a62b39a2ec070924d5c5dce9a1957d75476af59af5a7e7ce2ee48bc777490600090a3505050565b61314061453f565b600080516020615c0f83398151915261315881614504565b336000908152600080516020615b6f8339815191526020526040902054600080516020615c0f833981519152904210156131a45760405162461bcd60e51b8152600401610e8b906155fe565b6009546001600160a01b0316156131fd5760405162461bcd60e51b815260206004820181905260248201527f556e6f52653a207269736b20706f6f6c206372656174656420616c72656164796044820152606401610e8b565b6001600160a01b0386166132535760405162461bcd60e51b815260206004820152601b60248201527f556e6f52653a207a65726f20666163746f7279206164647265737300000000006044820152606401610e8b565b604051630d98e31f60e01b81526001600160a01b03871690630d98e31f90613289908d908d908d908d9030908d90600401615898565b6020604051808303816000875af11580156132a8573d6000803e3d6000fd5b505050506040513d601f19601f820116820180604052508101906132cc919061573c565b600980546001600160a01b0319166001600160a01b03928316179055436001600160801b03166012556013859055600554604051633f14eb6160e11b8152306004820152878316602482015260448101869052911690637e29d6c290606401600060405180830381600087803b15801561334557600080fd5b505af1158015613359573d6000803e3d6000fd5b50506009546040516001600160a01b0390911692503091507f184d7691bf4a73930a21086fa1bdf0ee3075421531a60730288325fd5838021790600090a350506133a161467a565b5050505050505050565b6133b4826114fc565b6133bd81614504565b6114f683836147d7565b600754600090600160a01b900460ff16156133f45760405162461bcd60e51b8152600401610e8b90615633565b60055460408051631ff67df960e11b815290516000926001600160a01b031691633fecfbf2916004808301926060929190829003018187875af115801561343f573d6000803e3d6000fd5b505050506040513d601f19601f8201168201806040525081019061346391906158e6565b50506040516331a9108f60e11b81526004810187905290915033906001600160a01b03831690636352211e90602401602060405180830381865afa1580156134af573d6000803e3d6000fd5b505050506040513d601f19601f820116820180604052508101906134d3919061573c565b6001600160a01b0316146135295760405162461bcd60e51b815260206004820152601d60248201527f556e6f52653a206e6f74206f776e6572206f6620706f6c6963792069640000006044820152606401610e8b565b6000806000836001600160a01b0316637a5402e9896040518263ffffffff1660e01b815260040161355c91815260200190565b60a060405180830381865afa158015613579573d6000803e3d6000fd5b505050506040513d601f19601f8201168201806040525081019061359d919061591e565b9450945050509250828711156136035760405162461bcd60e51b815260206004820152602560248201527f556e6f52653a20616d6f756e74206578636565647320636f76657261676520616044820152641b5bdd5b9d60da1b6064820152608401610e8b565b81801561360e575080155b6136655760405162461bcd60e51b815260206004820152602260248201527f556e6f52653a20706f6c6963792065787069726564206f72206e6f74206578696044820152611cdd60f21b6064820152608401610e8b565b6000601060008a8152602001908152602001600020604051806060016040529081600082015481526020016001820160009054906101000a90046001600160a01b03166001600160a01b03166001600160a01b031681526020016001820160149054906101000a900460ff1615151515815250509050878160000181815250508681602001906001600160a01b031690816001600160a01b03168152505080601060008b81526020019081526020016000206000820151816000015560208201518160010160006101000a8154816001600160a01b0302191690836001600160a01b0316021790555060408201518160010160146101000a81548160ff021916908315150217905550905050600860149054906101000a900460ff166139255760008054600154604051634360af3d60e01b81526001600160a01b039182166004820152911690634360af3d90602401602060405180830381865afa1580156137d2573d6000803e3d6000fd5b505050506040513d601f19601f820116820180604052508101906137f691906157e8565b6000549091506001600160a01b0316636457c979613813426148f6565b6040516020016138239190615999565b6040516020818303038152906040528a30600360009054906101000a90046001600160a01b0316600b54600160009054906101000a90046001600160a01b0316886002546000801b6040518a63ffffffff1660e01b815260040161388f99989796959493929190615a23565b6020604051808303816000875af11580156138ae573d6000803e3d6000fd5b505050506040513d601f19601f820116820180604052508101906138d291906157e8565b6000818152600d602090815260408083208e90558d8352600e9091528082208390555191985088918c917f1a1feb7e2311cdd8c08d411741ddc6a84f54391c1927082e6e1c870fe136d13091a350613984565b60075460405163427095cd60e11b8152600481018b90526001600160a01b03909116906384e12b9a90602401600060405180830381600087803b15801561396b57600080fd5b505af115801561397f573d6000803e3d6000fd5b505050505b50505050509392505050565b600080516020615b8f8339815191526139a881614504565b3360009081527f7fb215b72c595b7ea42d4f188843a9b2100e6bcb45486c320fd06421c661583c6020526040902054600080516020615b8f83398151915290421015613a065760405162461bcd60e51b8152600401610e8b906155fe565b6001600160a01b038316613a2c5760405162461bcd60e51b8152600401610e8b90615801565b600a54613a399042615729565b6000858152600f602090815260408083206001600160a01b0388168452909152902055613a6684846146a0565b506040518481526001600160a01b0384169030907faa08bed1c8e2500452096c9af125a3944be2a139782a1853abaef7a74bd7dd519060200160405180910390a350505050565b600080600960009054906101000a90046001600160a01b03166001600160a01b03166318160ddd6040518163ffffffff1660e01b8152600401602060405180830381865afa158015613b03573d6000803e3d6000fd5b505050506040513d601f19601f82011682018060405250810190613b2791906157e8565b6012549091506001600160801b03600160801b82048116911643118015613b4d57508115155b15613bac57601254600090613b6b906001600160801b0316436156dd565b601354909150600090613b7e90836156f0565b905083613b93670de0b6b3a7640000836156f0565b613b9d9190615707565b613ba79084615aab565b925050505b6001600160a01b03841660009081526011602052604090206002810154600190910154670de0b6b3a7640000613beb6001600160801b038516846156f0565b613bf59190615707565b613bff91906156dd565b95945050505050565b613c1061453f565b6009546040516306e6829960e51b815233600482015260009182916001600160a01b039091169063dcd053209060240160408051808303816000875af1158015613c5e573d6000803e3d6000fd5b505050506040513d601f19601f82011682018060405250810190613c82919061584b565b604080518381526020810183905292945090925033917f09c6481cb228ea7f61ceb67c8e708038eb74bbb68cfcc54a9cfca199087ecfb7910160405180910390a2505061234461467a565b6012546001600160801b031643111561234457600954604080516318160ddd60e01b815290516000926001600160a01b0316916318160ddd9160048083019260209291908290030181865afa158015613d2a573d6000803e3d6000fd5b505050506040513d601f19601f82011682018060405250810190613d4e91906157e8565b90508015613dde57601254600090613d6f906001600160801b0316436156dd565b601354909150600090613d8290836156f0565b905082613d97670de0b6b3a7640000836156f0565b613da19190615707565b601254613dbe9190600160801b90046001600160801b0316615aab565b601280546001600160801b03928316600160801b02921691909117905550505b601280546fffffffffffffffffffffffffffffffff1916436001600160801b03908116918217928390556040805192835260208301859052600160801b90930416918101919091527f982b813c7d00a9ffce9441ba40f429b2e4a35068d75532f496d0c63585c2fa68906060015b60405180910390a150565b600c54421015613e795760405162461bcd60e51b8152600401610e8b90615662565b600754600160a01b900460ff1615613ea35760405162461bcd60e51b8152600401610e8b90615633565b613eab61453f565b613eb481614a22565b613ebe8133614b3b565b6009546040518281526001600160a01b039091169033907fd3dba7b5565b16b7749db7d1938410a636e3c7a6ea46ed8ce7e259e19f2f3b9f9060200160405180910390a3610bc661467a565b600080516020615c0f833981519152613f2281614504565b336000908152600080516020615b6f8339815191526020526040902054600080516020615c0f83398151915290421015613f6e5760405162461bcd60e51b8152600401610e8b906155fe565b600780546001600160a01b0319166001600160a01b03851690811790915560405130907f7c41ea02b52408aaf08b47f7b189e4ee03054b16f9b15b2f721a307205e8a28690600090a3505050565b600754600160a01b900460ff1615613fe65760405162461bcd60e51b8152600401610e8b90615633565b600854600160a01b900460ff16156140355760405162461bcd60e51b8152602060048201526012602482015271155b9bd4994e881c1bdbdb0819985a5b195960721b6044820152606401610e8b565b80156126fe576000828152600d60205260409020546112b28184612702565b600080516020615c0f83398151915261406c81614504565b336000908152600080516020615b6f8339815191526020526040902054600080516020615c0f833981519152904210156140b85760405162461bcd60e51b8152600401610e8b906155fe565b600083116141085760405162461bcd60e51b815260206004820152601f60248201527f556e6f52653a206e6f7420616c6c6f77207a65726f206c6f636b2074696d65006044820152606401610e8b565b600b83905560405183815230907f6d61c2e16ec51869e6d13ed016bb63815ca584310be5413d6c9e1926bffe76b790602001610f0b565b600c544210156141615760405162461bcd60e51b8152600401610e8b90615662565b600754600160a01b900460ff161561418b5760405162461bcd60e51b8152600401610e8b90615633565b7f6d5c9827c1f410bbb61d3b2a0a34b6b30492d9a1fd38588edca7ec4562ab9c9b6141b581614504565b6141bd61453f565b600860009054906101000a90046001600160a01b03166001600160a01b031663e5a6b10f6040518163ffffffff1660e01b8152600401602060405180830381865afa158015614210573d6000803e3d6000fd5b505050506040513d601f19601f82011682018060405250810190614234919061573c565b6001600160a01b0316600960009054906101000a90046001600160a01b03166001600160a01b031663e5a6b10f6040518163ffffffff1660e01b8152600401602060405180830381865afa158015614290573d6000803e3d6000fd5b505050506040513d601f19601f820116820180604052508101906142b4919061573c565b6001600160a01b03161461430a5760405162461bcd60e51b815260206004820152601b60248201527f556e6f52653a2063757272656e6379206e6f74206d61746368656400000000006044820152606401610e8b565b614312613ccd565b6000805b835181101561440a576011600085838151811061433557614335615acb565b6020908102919091018101516001600160a01b031682528101919091526040016000206003015460ff16156143ac5760405162461bcd60e51b815260206004820152601a60248201527f556e6f52653a20726f6c6c6f766572206973206e6f74207365740000000000006044820152606401610e8b565b60006143d08583815181106143c3576143c3615acb565b6020026020010151614dd4565b90506143dc8184615729565b9250614401818684815181106143f4576143f4615acb565b6020026020010151614b3b565b50600101614316565b506008546001600160a01b03161580159061442457508015155b156144a45760085460095460405163186e465160e31b81526001600160a01b0391821660048201526024810184905291169063c3723288906044016020604051808303816000875af115801561447e573d6000803e3d6000fd5b505050506040513d601f19601f820116820180604052508101906144a291906157e8565b505b6009546040516001600160a01b03909116906144c1908590615ae1565b604051908190038120838252907f2b1ab5aad08854cca1e3b3cd94bbb4acc5cf06bd794383289c30ae264d03121d9060200160405180910390a3506126fe61467a565b610bc68133614e75565b600080516020615bef8339815191525460ff16156123445760405163d93c066560e01b815260040160405180910390fd5b7f9b779b17422d0df92223018b32b4d1fa46e071723d6817e2486d003becc55f0080546001190161458357604051633ee5aeb560e01b815260040160405180910390fd5b60029055565b614591613ccd565b600061459c82614dd4565b6008549091506001600160a01b0316158015906145b857508015155b156146365760085460405163186e465160e31b81526001600160a01b038481166004830152602482018490529091169063c3723288906044016020604051808303816000875af1158015614610573d6000803e3d6000fd5b505050506040513d601f19601f8201168201806040525081019061463491906157e8565b505b6040518181526001600160a01b0383169033907fa0306f61d3fafe13787b78e276cb6b644382854a66cb46daae14227d3ec267979060200160405180910390a35050565b60017f9b779b17422d0df92223018b32b4d1fa46e071723d6817e2486d003becc55f0055565b6000600080516020615baf8339815191526146bb8484612346565b61473b576000848152602082815260408083206001600160a01b03871684529091529020805460ff191660011790556146f13390565b6001600160a01b0316836001600160a01b0316857f2f8788117e7eff1d82e926ec794901d17c78024a50270940304540a733656f0d60405160405180910390a46001915050610e21565b6000915050610e21565b5092915050565b614754614eae565b612344614ef7565b614764614eae565b612344614eff565b612344614eae565b600080516020615baf833981519152600061478e846114fc565b600085815260208490526040808220600101869055519192508491839187917fbd79b86ffe0ab8e8776151514217cd7cacd52c909f66475c3af44e129f0b00ff9190a450505050565b6000600080516020615baf8339815191526147f28484612346565b1561473b576000848152602082815260408083206001600160a01b0387168085529252808320805460ff1916905551339287917ff6391f5c32d9c69d2a47ea670b442974b53935d1edc7fd64eb21e047a839171b9190a46001915050610e21565b61485b614f20565b600080516020615bef833981519152805460ff191681557f5db9ee0a495bf2e6ff9c91a7834c1ba4fdd244a5e8aa4e537bd38aeae4b073aa335b6040516001600160a01b039091168152602001613e4c565b6148b561450e565b600080516020615bef833981519152805460ff191660011781557f62e78cea01bee320cd4e420270b5ea74000d11b0c9f74754ebdbfc544b05a25833614895565b60608160000361491d5750506040805180820190915260018152600360fc1b602082015290565b8160005b8115614947578061493181615b20565b91506149409050600a83615707565b9150614921565b60008167ffffffffffffffff811115614962576149626154f4565b6040519080825280601f01601f19166020018201604052801561498c576020820181803683370190505b509050815b8515614a19576149a26001826156dd565b905060006149b1600a88615707565b6149bc90600a6156f0565b6149c690886156dd565b6149d1906030615b39565b905060008160f81b9050808484815181106149ee576149ee615acb565b60200101906001600160f81b031916908160001a905350614a10600a89615707565b97505050614991565b50949350505050565b6009546040805163e5a6b10f60e01b815290516000926001600160a01b03169163e5a6b10f9160048083019260209291908290030181865afa158015614a6c573d6000803e3d6000fd5b505050506040513d601f19601f82011682018060405250810190614a90919061573c565b90506001600160a01b038116614b215781341015614af05760405162461bcd60e51b815260206004820152601860248201527f556e6f52653a20696e73756666696369656e74207061696400000000000000006044820152606401610e8b565b81341115614b0b57614b0b33614b0684346156dd565b614f50565b6009546126fe906001600160a01b031683614f50565b6009546126fe90829033906001600160a01b03168561502a565b81600003614b7f5760405162461bcd60e51b8152602060048201526011602482015270556e6f52653a205a45524f2056616c756560781b6044820152606401610e8b565b614b87613ccd565b60095460408051627a9fd960e91b815290516000926001600160a01b03169163f53fb2009160048083019260209291908290030181865afa158015614bd0573d6000803e3d6000fd5b505050506040513d601f19601f82011682018060405250810190614bf491906157e8565b600954604051637e348b7d60e01b81526001600160a01b03858116600483015260248201879052929350911690637e348b7d90604401600060405180830381600087803b158015614c4457600080fd5b505af1158015614c58573d6000803e3d6000fd5b505050506001600160a01b03821660009081526011602090815260409182902082516080810184528154815260018201549281019290925260028101549282019290925260039091015460ff1615156060820152601254670de0b6b3a7640000908390600160801b90046001600160801b0316614cd587846156f0565b614cdf91906156f0565b614ce99190615707565b614cf39190615707565b8160200151614d029190615729565b602082015281614d1a85670de0b6b3a76400006156f0565b614d249190615707565b8160400151614d339190615729565b60408281019182526001600160a01b0385811660009081526011602090815290839020855181559085015160018201559251600284015560608401516003909301805460ff1916931515939093179092556005549051638be5a39f60e01b815260048101879052911690638be5a39f90602401600060405180830381600087803b158015614dc057600080fd5b505af11580156133a1573d6000803e3d6000fd5b6001600160a01b0381166000908152601160205260408120600201546012548290670de0b6b3a764000090614e1990600160801b90046001600160801b0316846156f0565b614e239190615707565b6001600160a01b03851660009081526011602052604081206001015491925090614e4d90836156dd565b6001600160a01b03909516600090815260116020526040902060010191909155509192915050565b614e7f8282612346565b6126fe5760405163e2517d3f60e01b81526001600160a01b038216600482015260248101839052604401610e8b565b7ff0c57e16840df040f15088dc2f81fe391c3923bec73e23a9662efc9c229c6a0054600160401b900460ff1661234457604051631afcd79f60e31b815260040160405180910390fd5b61467a614eae565b614f07614eae565b600080516020615bef833981519152805460ff19169055565b600080516020615bef8339815191525460ff1661234457604051638dfc202b60e01b815260040160405180910390fd5b604080516000808252602082019092526001600160a01b038416908390604051614f7a9190615b52565b60006040518083038185875af1925050503d8060008114614fb7576040519150601f19603f3d011682016040523d82523d6000602084013e614fbc565b606091505b50509050806112b25760405162461bcd60e51b815260206004820152603460248201527f5472616e7366657248656c7065723a3a736166655472616e736665724554483a60448201527308115512081d1c985b9cd9995c8819985a5b195960621b6064820152608401610e8b565b604080516001600160a01b0385811660248301528481166044830152606480830185905283518084039091018152608490920183526020820180516001600160e01b03166323b872dd60e01b179052915160009283929088169161508e9190615b52565b6000604051808303816000865af19150503d80600081146150cb576040519150601f19603f3d011682016040523d82523d6000602084013e6150d0565b606091505b50915091508180156150fa5750805115806150fa5750808060200190518101906150fa919061582e565b6151605760405162461bcd60e51b815260206004820152603160248201527f5472616e7366657248656c7065723a3a7472616e7366657246726f6d3a207472604482015270185b9cd9995c919c9bdb4819985a5b1959607a1b6064820152608401610e8b565b505050505050565b60006020828403121561517a57600080fd5b81356001600160e01b03198116811461519257600080fd5b9392505050565b6000602082840312156151ab57600080fd5b5035919050565b6001600160a01b0381168114610bc657600080fd5b6000602082840312156151d957600080fd5b8135615192816151b2565b6000806000606084860312156151f957600080fd5b8335615204816151b2565b92506020840135615214816151b2565b929592945050506040919091013590565b6000806040838503121561523857600080fd5b8235615243816151b2565b91506020830135615253816151b2565b809150509250929050565b6000806040838503121561527157600080fd5b823591506020830135615253816151b2565b600080600080600080600060e0888a03121561529e57600080fd5b87356152a9816151b2565b965060208801356152b9816151b2565b955060408801356152c9816151b2565b945060608801356152d9816151b2565b935060808801356152e9816151b2565b925060a08801356152f9816151b2565b915060c0880135615309816151b2565b8091505092959891949750929550565b8015158114610bc657600080fd5b60006020828403121561533957600080fd5b813561519281615319565b6000806040838503121561535757600080fd5b50508035926020909101359150565b60008060006060848603121561537b57600080fd5b8335615386816151b2565b92506020840135615396816151b2565b915060408401356153a6816151b2565b809150509250925092565b60008083601f8401126153c357600080fd5b50813567ffffffffffffffff8111156153db57600080fd5b6020830191508360208285010111156153f357600080fd5b9250929050565b60008060008060008060008060c0898b03121561541657600080fd5b883567ffffffffffffffff8082111561542e57600080fd5b61543a8c838d016153b1565b909a50985060208b013591508082111561545357600080fd5b506154608b828c016153b1565b9097509550506040890135615474816151b2565b93506060890135615484816151b2565b979a969950949793969295929450505060808201359160a0013590565b6000806000606084860312156154b657600080fd5b833592506020840135915060408401356153a6816151b2565b600080604083850312156154e257600080fd5b82359150602083013561525381615319565b634e487b7160e01b600052604160045260246000fd5b604051601f8201601f1916810167ffffffffffffffff81118282101715615533576155336154f4565b604052919050565b600067ffffffffffffffff821115615555576155556154f4565b5060051b60200190565b6000602080838503121561557257600080fd5b823567ffffffffffffffff81111561558957600080fd5b8301601f8101851361559a57600080fd5b80356155ad6155a88261553b565b61550a565b81815260059190911b820183019083810190878311156155cc57600080fd5b928401925b828410156155f35783356155e4816151b2565b825292840192908401906155d1565b979650505050505050565b6020808252818101527f556e6f52653a20726f6c6c206c6f636b2074696d65206e6f7420706173736564604082015260600190565b602080825260159082015274155b9bd4994e881c1bdbdb081a5cc81ada5b1b1959605a1b604082015260600190565b60208082526019908201527f556e6f52653a206e6f7420617661696c61626c652074696d6500000000000000604082015260600190565b6000806000606084860312156156ae57600080fd5b8351925060208401519150604084015190509250925092565b634e487b7160e01b600052601160045260246000fd5b81810381811115610e2157610e216156c7565b8082028115828204841417610e2157610e216156c7565b60008261572457634e487b7160e01b600052601260045260246000fd5b500490565b80820180821115610e2157610e216156c7565b60006020828403121561574e57600080fd5b8151615192816151b2565b6000602080838503121561576c57600080fd5b825167ffffffffffffffff81111561578357600080fd5b8301601f8101851361579457600080fd5b80516157a26155a88261553b565b81815260059190911b820183019083810190878311156157c157600080fd5b928401925b828410156155f35783516157d9816151b2565b825292840192908401906157c6565b6000602082840312156157fa57600080fd5b5051919050565b602080825260139082015272556e6f52653a207a65726f206164647265737360681b604082015260600190565b60006020828403121561584057600080fd5b815161519281615319565b6000806040838503121561585e57600080fd5b505080516020909101519092909150565b81835281816020850137506000828201602090810191909152601f909101601f19169091010190565b6080815260006158ac60808301888a61586f565b82810360208401526158bf81878961586f565b6001600160a01b039586166040850152939094166060909201919091525095945050505050565b6000806000606084860312156158fb57600080fd5b8351615906816151b2565b6020850151604086015191945092506153a681615319565b600080600080600060a0868803121561593657600080fd5b855194506020860151935060408601519250606086015161595681615319565b608087015190925061596781615319565b809150509295509295909350565b60005b83811015615990578181015183820152602001615978565b50506000910152565b7f496e737572616e636520636f6e747261637420697320636c61696d696e67207481527303430ba1034b739bab930b731b29032bb32b73a160651b6020820152730103430b21037b1b1bab93932b21030b99037b3160651b603482015260008251615a0b816048850160208701615975565b601760f91b6048939091019283015250604901919050565b610120815260008a5180610120840152615a4581610140850160208f01615975565b6001600160a01b039a8b166020840152988a16604083015250958816606087015267ffffffffffffffff9490941660808601529190951660a084015260c083019490945260e0820193909352610100810192909252601f01601f19160161014001919050565b6001600160801b03818116838216019080821115614745576147456156c7565b634e487b7160e01b600052603260045260246000fd5b815160009082906020808601845b83811015615b145781516001600160a01b031685529382019390820190600101615aef565b50929695505050505050565b600060018201615b3257615b326156c7565b5060010190565b60ff8181168382160190811115610e2157610e216156c7565b60008251615b64818460208701615975565b919091019291505056fe90d60a028e5787c6e8135d966fd25bf630b21251c4970c6810a549081ae79dc8525f00f39e65e1c0c967e855509bb98a6cd037ce8b8a5f910c034f8ef97baa3b02dd7bc7dec4dceedda775e58dd541e08a116c6c53815c0bd028192f7b6268003b745c09aefb8f732a168ec71c3c87b50c0a4cfd1d104649ae3c04a4623b26bfcd5ed15c6e187e77e9aee88184c21f4f2182ab5827cb3b7e07fbedcd63f03300a49807205ce4d355092ef5a8a18f56e8913cf4a201fbe287825b095693c21775a264697066735822122019e25bbd00affa610126ece98f3741301c52a2e83cbf6368ad49bfc4bf8c290f64736f6c63430008170033",
  "devdoc": {
    "errors": {
      "AccessControlBadConfirmation()": [
        {
          "details": "The caller of a function is not the expected one. NOTE: Don't confuse with {AccessControlUnauthorizedAccount}."
        }
      ],
      "AccessControlUnauthorizedAccount(address,bytes32)": [
        {
          "details": "The `account` is missing a role."
        }
      ],
      "EnforcedPause()": [
        {
          "details": "The operation failed because the contract is paused."
        }
      ],
      "ExpectedPause()": [
        {
          "details": "The operation failed because the contract is not paused."
        }
      ],
      "InvalidInitialization()": [
        {
          "details": "The contract is already initialized."
        }
      ],
      "NotInitializing()": [
        {
          "details": "The contract is not initializing."
        }
      ],
      "ReentrancyGuardReentrantCall()": [
        {
          "details": "Unauthorized reentrant call."
        }
      ]
    },
    "events": {
      "Initialized(uint64)": {
        "details": "Triggered when the contract has been initialized or reinitialized."
      },
      "Paused(address)": {
        "details": "Emitted when the pause is triggered by `account`."
      },
      "RoleAdminChanged(bytes32,bytes32,bytes32)": {
        "details": "Emitted when `newAdminRole` is set as ``role``'s admin role, replacing `previousAdminRole` `DEFAULT_ADMIN_ROLE` is the starting admin for all roles, despite {RoleAdminChanged} not being emitted signaling this."
      },
      "RoleGranted(bytes32,address,address)": {
        "details": "Emitted when `account` is granted `role`. `sender` is the account that originated the contract call, an admin role bearer except when using {AccessControl-_setupRole}."
      },
      "RoleRevoked(bytes32,address,address)": {
        "details": "Emitted when `account` is revoked `role`. `sender` is the account that originated the contract call:   - if using `revokeRole`, it is the admin role bearer   - if using `renounceRole`, it is the role bearer (i.e. `account`)"
      },
      "Unpaused(address)": {
        "details": "Emitted when the pause is lifted by `account`."
      }
    },
    "kind": "dev",
    "methods": {
      "createRiskPool(string,string,address,address,uint256,uint256)": {
        "details": "create Risk pool with UNO from SSIP owner"
      },
      "getRoleAdmin(bytes32)": {
        "details": "Returns the admin role that controls `role`. See {grantRole} and {revokeRole}. To change a role's admin, use {_setRoleAdmin}."
      },
      "getTotalWithdrawPendingAmount()": {
        "details": "get total withdraw request amount in pending for the risk pool in UNO"
      },
      "getWithdrawRequestPerUser(address)": {
        "details": "get withdraw request amount in pending per user in UNO"
      },
      "grantRole(bytes32,address)": {
        "details": "Grants `role` to `account`. If `account` had not been already granted `role`, emits a {RoleGranted} event. Requirements: - the caller must have ``role``'s admin role. May emit a {RoleGranted} event."
      },
      "hasRole(bytes32,address)": {
        "details": "Returns `true` if `account` has been granted `role`."
      },
      "leaveFromPending()": {
        "details": "user can submit claim again and receive his funds into his wallet after 10 days since last WR."
      },
      "leaveFromPoolInPending(uint256)": {
        "details": "WR will be in pending for 10 days at least"
      },
      "paused()": {
        "details": "Returns true if the contract is paused, and false otherwise."
      },
      "renounceRole(bytes32,address)": {
        "details": "Revokes `role` from the calling account. Roles are often managed via {grantRole} and {revokeRole}: this function's purpose is to provide a mechanism for accounts to lose their privileges if they are compromised (such as when a trusted device is misplaced). If the calling account had been revoked `role`, emits a {RoleRevoked} event. Requirements: - the caller must be `callerConfirmation`. May emit a {RoleRevoked} event."
      },
      "revokeRole(bytes32,address)": {
        "details": "Revokes `role` from `account`. If `account` had been granted `role`, emits a {RoleRevoked} event. Requirements: - the caller must have ``role``'s admin role. May emit a {RoleRevoked} event."
      },
      "supportsInterface(bytes4)": {
        "details": "See {IERC165-supportsInterface}."
      }
    },
    "version": 1
  },
  "userdoc": {
    "kind": "user",
    "methods": {},
    "version": 1
  },
  "storageLayout": {
    "storage": [
      {
        "astId": 15153,
        "contract": "contracts/SingleSidedInsurancePool.sol:SingleSidedInsurancePool",
        "label": "oo",
        "offset": 0,
        "slot": "0",
        "type": "t_contract(OptimisticOracleV3Interface)24507"
      },
      {
        "astId": 15156,
        "contract": "contracts/SingleSidedInsurancePool.sol:SingleSidedInsurancePool",
        "label": "defaultCurrency",
        "offset": 0,
        "slot": "1",
        "type": "t_contract(IERC20)2264"
      },
      {
        "astId": 15158,
        "contract": "contracts/SingleSidedInsurancePool.sol:SingleSidedInsurancePool",
        "label": "defaultIdentifier",
        "offset": 0,
        "slot": "2",
        "type": "t_bytes32"
      },
      {
        "astId": 15160,
        "contract": "contracts/SingleSidedInsurancePool.sol:SingleSidedInsurancePool",
        "label": "escalationManager",
        "offset": 0,
        "slot": "3",
        "type": "t_address"
      },
      {
        "astId": 15162,
        "contract": "contracts/SingleSidedInsurancePool.sol:SingleSidedInsurancePool",
        "label": "migrateTo",
        "offset": 0,
        "slot": "4",
        "type": "t_address"
      },
      {
        "astId": 15164,
        "contract": "contracts/SingleSidedInsurancePool.sol:SingleSidedInsurancePool",
        "label": "capitalAgent",
        "offset": 0,
        "slot": "5",
        "type": "t_address"
      },
      {
        "astId": 15166,
        "contract": "contracts/SingleSidedInsurancePool.sol:SingleSidedInsurancePool",
        "label": "syntheticSSIP",
        "offset": 0,
        "slot": "6",
        "type": "t_address"
      },
      {
        "astId": 15168,
        "contract": "contracts/SingleSidedInsurancePool.sol:SingleSidedInsurancePool",
        "label": "claimProcessor",
        "offset": 0,
        "slot": "7",
        "type": "t_address"
      },
      {
        "astId": 15170,
        "contract": "contracts/SingleSidedInsurancePool.sol:SingleSidedInsurancePool",
        "label": "killed",
        "offset": 20,
        "slot": "7",
        "type": "t_bool"
      },
      {
        "astId": 15172,
        "contract": "contracts/SingleSidedInsurancePool.sol:SingleSidedInsurancePool",
        "label": "rewarder",
        "offset": 0,
        "slot": "8",
        "type": "t_address"
      },
      {
        "astId": 15174,
        "contract": "contracts/SingleSidedInsurancePool.sol:SingleSidedInsurancePool",
        "label": "failed",
        "offset": 20,
        "slot": "8",
        "type": "t_bool"
      },
      {
        "astId": 15177,
        "contract": "contracts/SingleSidedInsurancePool.sol:SingleSidedInsurancePool",
        "label": "riskPool",
        "offset": 0,
        "slot": "9",
        "type": "t_address"
      },
      {
        "astId": 15179,
        "contract": "contracts/SingleSidedInsurancePool.sol:SingleSidedInsurancePool",
        "label": "lockTime",
        "offset": 0,
        "slot": "10",
        "type": "t_uint256"
      },
      {
        "astId": 15181,
        "contract": "contracts/SingleSidedInsurancePool.sol:SingleSidedInsurancePool",
        "label": "assertionliveTime",
        "offset": 0,
        "slot": "11",
        "type": "t_uint256"
      },
      {
        "astId": 15183,
        "contract": "contracts/SingleSidedInsurancePool.sol:SingleSidedInsurancePool",
        "label": "stakingStartTime",
        "offset": 0,
        "slot": "12",
        "type": "t_uint256"
      },
      {
        "astId": 15210,
        "contract": "contracts/SingleSidedInsurancePool.sol:SingleSidedInsurancePool",
        "label": "assertedPolicies",
        "offset": 0,
        "slot": "13",
        "type": "t_mapping(t_bytes32,t_uint256)"
      },
      {
        "astId": 15214,
        "contract": "contracts/SingleSidedInsurancePool.sol:SingleSidedInsurancePool",
        "label": "policiesAssertionId",
        "offset": 0,
        "slot": "14",
        "type": "t_mapping(t_uint256,t_bytes32)"
      },
      {
        "astId": 15220,
        "contract": "contracts/SingleSidedInsurancePool.sol:SingleSidedInsurancePool",
        "label": "roleLockTime",
        "offset": 0,
        "slot": "15",
        "type": "t_mapping(t_bytes32,t_mapping(t_address,t_uint256))"
      },
      {
        "astId": 15225,
        "contract": "contracts/SingleSidedInsurancePool.sol:SingleSidedInsurancePool",
        "label": "policies",
        "offset": 0,
        "slot": "16",
        "type": "t_mapping(t_uint256,t_struct(Policy)15206_storage)"
      },
      {
        "astId": 15230,
        "contract": "contracts/SingleSidedInsurancePool.sol:SingleSidedInsurancePool",
        "label": "userInfo",
        "offset": 0,
        "slot": "17",
        "type": "t_mapping(t_address,t_struct(UserInfo)15199_storage)"
      },
      {
        "astId": 15233,
        "contract": "contracts/SingleSidedInsurancePool.sol:SingleSidedInsurancePool",
        "label": "poolInfo",
        "offset": 0,
        "slot": "18",
        "type": "t_struct(PoolInfo)15190_storage"
      }
    ],
    "types": {
      "t_address": {
        "encoding": "inplace",
        "label": "address",
        "numberOfBytes": "20"
      },
      "t_bool": {
        "encoding": "inplace",
        "label": "bool",
        "numberOfBytes": "1"
      },
      "t_bytes32": {
        "encoding": "inplace",
        "label": "bytes32",
        "numberOfBytes": "32"
      },
      "t_contract(IERC20)2264": {
        "encoding": "inplace",
        "label": "contract IERC20",
        "numberOfBytes": "20"
      },
      "t_contract(OptimisticOracleV3Interface)24507": {
        "encoding": "inplace",
        "label": "contract OptimisticOracleV3Interface",
        "numberOfBytes": "20"
      },
      "t_mapping(t_address,t_struct(UserInfo)15199_storage)": {
        "encoding": "mapping",
        "key": "t_address",
        "label": "mapping(address => struct SingleSidedInsurancePool.UserInfo)",
        "numberOfBytes": "32",
        "value": "t_struct(UserInfo)15199_storage"
      },
      "t_mapping(t_address,t_uint256)": {
        "encoding": "mapping",
        "key": "t_address",
        "label": "mapping(address => uint256)",
        "numberOfBytes": "32",
        "value": "t_uint256"
      },
      "t_mapping(t_bytes32,t_mapping(t_address,t_uint256))": {
        "encoding": "mapping",
        "key": "t_bytes32",
        "label": "mapping(bytes32 => mapping(address => uint256))",
        "numberOfBytes": "32",
        "value": "t_mapping(t_address,t_uint256)"
      },
      "t_mapping(t_bytes32,t_uint256)": {
        "encoding": "mapping",
        "key": "t_bytes32",
        "label": "mapping(bytes32 => uint256)",
        "numberOfBytes": "32",
        "value": "t_uint256"
      },
      "t_mapping(t_uint256,t_bytes32)": {
        "encoding": "mapping",
        "key": "t_uint256",
        "label": "mapping(uint256 => bytes32)",
        "numberOfBytes": "32",
        "value": "t_bytes32"
      },
      "t_mapping(t_uint256,t_struct(Policy)15206_storage)": {
        "encoding": "mapping",
        "key": "t_uint256",
        "label": "mapping(uint256 => struct SingleSidedInsurancePool.Policy)",
        "numberOfBytes": "32",
        "value": "t_struct(Policy)15206_storage"
      },
      "t_struct(Policy)15206_storage": {
        "encoding": "inplace",
        "label": "struct SingleSidedInsurancePool.Policy",
        "members": [
          {
            "astId": 15201,
            "contract": "contracts/SingleSidedInsurancePool.sol:SingleSidedInsurancePool",
            "label": "insuranceAmount",
            "offset": 0,
            "slot": "0",
            "type": "t_uint256"
          },
          {
            "astId": 15203,
            "contract": "contracts/SingleSidedInsurancePool.sol:SingleSidedInsurancePool",
            "label": "payoutAddress",
            "offset": 0,
            "slot": "1",
            "type": "t_address"
          },
          {
            "astId": 15205,
            "contract": "contracts/SingleSidedInsurancePool.sol:SingleSidedInsurancePool",
            "label": "settled",
            "offset": 20,
            "slot": "1",
            "type": "t_bool"
          }
        ],
        "numberOfBytes": "64"
      },
      "t_struct(PoolInfo)15190_storage": {
        "encoding": "inplace",
        "label": "struct SingleSidedInsurancePool.PoolInfo",
        "members": [
          {
            "astId": 15185,
            "contract": "contracts/SingleSidedInsurancePool.sol:SingleSidedInsurancePool",
            "label": "lastRewardBlock",
            "offset": 0,
            "slot": "0",
            "type": "t_uint128"
          },
          {
            "astId": 15187,
            "contract": "contracts/SingleSidedInsurancePool.sol:SingleSidedInsurancePool",
            "label": "accUnoPerShare",
            "offset": 16,
            "slot": "0",
            "type": "t_uint128"
          },
          {
            "astId": 15189,
            "contract": "contracts/SingleSidedInsurancePool.sol:SingleSidedInsurancePool",
            "label": "unoMultiplierPerBlock",
            "offset": 0,
            "slot": "1",
            "type": "t_uint256"
          }
        ],
        "numberOfBytes": "64"
      },
      "t_struct(UserInfo)15199_storage": {
        "encoding": "inplace",
        "label": "struct SingleSidedInsurancePool.UserInfo",
        "members": [
          {
            "astId": 15192,
            "contract": "contracts/SingleSidedInsurancePool.sol:SingleSidedInsurancePool",
            "label": "lastWithdrawTime",
            "offset": 0,
            "slot": "0",
            "type": "t_uint256"
          },
          {
            "astId": 15194,
            "contract": "contracts/SingleSidedInsurancePool.sol:SingleSidedInsurancePool",
            "label": "rewardDebt",
            "offset": 0,
            "slot": "1",
            "type": "t_uint256"
          },
          {
            "astId": 15196,
            "contract": "contracts/SingleSidedInsurancePool.sol:SingleSidedInsurancePool",
            "label": "amount",
            "offset": 0,
            "slot": "2",
            "type": "t_uint256"
          },
          {
            "astId": 15198,
            "contract": "contracts/SingleSidedInsurancePool.sol:SingleSidedInsurancePool",
            "label": "isNotRollOver",
            "offset": 0,
            "slot": "3",
            "type": "t_bool"
          }
        ],
        "numberOfBytes": "128"
      },
      "t_uint128": {
        "encoding": "inplace",
        "label": "uint128",
        "numberOfBytes": "16"
      },
      "t_uint256": {
        "encoding": "inplace",
        "label": "uint256",
        "numberOfBytes": "32"
      }
    }
  }
}