{
  "address": "0xC1c8A5c8C9745244eEfD65c6c16E87834D308105",
  "abi": [
    {
      "inputs": [],
      "name": "AccessControlBadConfirmation",
      "type": "error"
    },
    {
      "inputs": [
        {
          "internalType": "address",
          "name": "account",
          "type": "address"
        },
        {
          "internalType": "bytes32",
          "name": "neededRole",
          "type": "bytes32"
        }
      ],
      "name": "AccessControlUnauthorizedAccount",
      "type": "error"
    },
    {
      "inputs": [],
      "name": "EnforcedPause",
      "type": "error"
    },
    {
      "inputs": [],
      "name": "ExpectedPause",
      "type": "error"
    },
    {
      "inputs": [],
      "name": "InvalidInitialization",
      "type": "error"
    },
    {
      "inputs": [],
      "name": "NotInitializing",
      "type": "error"
    },
    {
      "inputs": [],
      "name": "ReentrancyGuardReentrantCall",
      "type": "error"
    },
    {
      "anonymous": false,
      "inputs": [
        {
          "indexed": true,
          "internalType": "address",
          "name": "user",
          "type": "address"
        },
        {
          "indexed": false,
          "internalType": "uint256",
          "name": "amount",
          "type": "uint256"
        }
      ],
      "name": "EmergencyWithdraw",
      "type": "event"
    },
    {
      "anonymous": false,
      "inputs": [
        {
          "indexed": true,
          "internalType": "address",
          "name": "user",
          "type": "address"
        },
        {
          "indexed": false,
          "internalType": "bool",
          "name": "EmergencyWithdraw",
          "type": "bool"
        }
      ],
      "name": "EmergencyWithdrawToggled",
      "type": "event"
    },
    {
      "anonymous": false,
      "inputs": [
        {
          "indexed": true,
          "internalType": "address",
          "name": "_user",
          "type": "address"
        },
        {
          "indexed": true,
          "internalType": "address",
          "name": "_receiver",
          "type": "address"
        },
        {
          "indexed": false,
          "internalType": "uint256",
          "name": "_amount",
          "type": "uint256"
        }
      ],
      "name": "Harvest",
      "type": "event"
    },
    {
      "anonymous": false,
      "inputs": [
        {
          "indexed": false,
          "internalType": "uint64",
          "name": "version",
          "type": "uint64"
        }
      ],
      "name": "Initialized",
      "type": "event"
    },
    {
      "anonymous": false,
      "inputs": [
        {
          "indexed": true,
          "internalType": "uint256",
          "name": "policyId",
          "type": "uint256"
        },
        {
          "indexed": true,
          "internalType": "address",
          "name": "payout",
          "type": "address"
        },
        {
          "indexed": false,
          "internalType": "uint256",
          "name": "amount",
          "type": "uint256"
        }
      ],
      "name": "InsurancePayoutSettled",
      "type": "event"
    },
    {
      "anonymous": false,
      "inputs": [
        {
          "indexed": true,
          "internalType": "address",
          "name": "_owner",
          "type": "address"
        },
        {
          "indexed": false,
          "internalType": "bool",
          "name": "_killed",
          "type": "bool"
        }
      ],
      "name": "KillPool",
      "type": "event"
    },
    {
      "anonymous": false,
      "inputs": [
        {
          "indexed": true,
          "internalType": "address",
          "name": "_staker",
          "type": "address"
        },
        {
          "indexed": true,
          "internalType": "address",
          "name": "_pool",
          "type": "address"
        },
        {
          "indexed": false,
          "internalType": "uint256",
          "name": "_requestAmount",
          "type": "uint256"
        }
      ],
      "name": "LeftPool",
      "type": "event"
    },
    {
      "anonymous": false,
      "inputs": [
        {
          "indexed": true,
          "internalType": "address",
          "name": "_user",
          "type": "address"
        },
        {
          "indexed": false,
          "internalType": "uint256",
          "name": "_cancelAmount",
          "type": "uint256"
        },
        {
          "indexed": false,
          "internalType": "uint256",
          "name": "_cancelAmountInUno",
          "type": "uint256"
        }
      ],
      "name": "LogCancelWithdrawRequest",
      "type": "event"
    },
    {
      "anonymous": false,
      "inputs": [
        {
          "indexed": true,
          "internalType": "address",
          "name": "_SSIP",
          "type": "address"
        },
        {
          "indexed": true,
          "internalType": "address",
          "name": "_rewarder",
          "type": "address"
        },
        {
          "indexed": false,
          "internalType": "address",
          "name": "_currency",
          "type": "address"
        }
      ],
      "name": "LogCreateRewarder",
      "type": "event"
    },
    {
      "anonymous": false,
      "inputs": [
        {
          "indexed": true,
          "internalType": "address",
          "name": "_SSIP",
          "type": "address"
        },
        {
          "indexed": true,
          "internalType": "address",
          "name": "_syntheticSSIP",
          "type": "address"
        },
        {
          "indexed": true,
          "internalType": "address",
          "name": "_lpToken",
          "type": "address"
        }
      ],
      "name": "LogCreateSyntheticSSIP",
      "type": "event"
    },
    {
      "anonymous": false,
      "inputs": [
        {
          "indexed": true,
          "internalType": "address",
          "name": "_user",
          "type": "address"
        },
        {
          "indexed": true,
          "internalType": "address",
          "name": "_riskPool",
          "type": "address"
        },
        {
          "indexed": false,
          "internalType": "uint256",
          "name": "_withdrawLpAmount",
          "type": "uint256"
        },
        {
          "indexed": false,
          "internalType": "uint256",
          "name": "_withdrawUnoAmount",
          "type": "uint256"
        }
      ],
      "name": "LogLeaveFromPendingSSIP",
      "type": "event"
    },
    {
      "anonymous": false,
      "inputs": [
        {
          "indexed": true,
          "internalType": "address",
          "name": "_from",
          "type": "address"
        },
        {
          "indexed": true,
          "internalType": "address",
          "name": "_to",
          "type": "address"
        },
        {
          "indexed": false,
          "internalType": "uint256",
          "name": "_amount",
          "type": "uint256"
        }
      ],
      "name": "LogLpTransferInSSIP",
      "type": "event"
    },
    {
      "anonymous": false,
      "inputs": [
        {
          "indexed": true,
          "internalType": "address",
          "name": "_user",
          "type": "address"
        },
        {
          "indexed": true,
          "internalType": "address",
          "name": "_migrateTo",
          "type": "address"
        },
        {
          "indexed": false,
          "internalType": "uint256",
          "name": "_migratedAmount",
          "type": "uint256"
        }
      ],
      "name": "LogMigrate",
      "type": "event"
    },
    {
      "anonymous": false,
      "inputs": [
        {
          "indexed": true,
          "internalType": "address",
          "name": "_SSIP",
          "type": "address"
        },
        {
          "indexed": true,
          "internalType": "address",
          "name": "_capitalAgent",
          "type": "address"
        }
      ],
      "name": "LogSetCapitalAgent",
      "type": "event"
    },
    {
      "anonymous": false,
      "inputs": [
        {
          "indexed": true,
          "internalType": "address",
          "name": "_SSIP",
          "type": "address"
        },
        {
          "indexed": false,
          "internalType": "uint256",
          "name": "_lockTime",
          "type": "uint256"
        }
      ],
      "name": "LogSetLockTime",
      "type": "event"
    },
    {
      "anonymous": false,
      "inputs": [
        {
          "indexed": true,
          "internalType": "address",
          "name": "_SSIP",
          "type": "address"
        },
        {
          "indexed": true,
          "internalType": "address",
          "name": "_migrateTo",
          "type": "address"
        }
      ],
      "name": "LogSetMigrateTo",
      "type": "event"
    },
    {
      "anonymous": false,
      "inputs": [
        {
          "indexed": true,
          "internalType": "address",
          "name": "_SSIP",
          "type": "address"
        },
        {
          "indexed": false,
          "internalType": "uint256",
          "name": "_minLPCapital",
          "type": "uint256"
        }
      ],
      "name": "LogSetMinLPCapital",
      "type": "event"
    },
    {
      "anonymous": false,
      "inputs": [
        {
          "indexed": true,
          "internalType": "address",
          "name": "_SSIP",
          "type": "address"
        },
        {
          "indexed": false,
          "internalType": "uint256",
          "name": "_rewardPerBlock",
          "type": "uint256"
        }
      ],
      "name": "LogSetRewardMultiplier",
      "type": "event"
    },
    {
      "anonymous": false,
      "inputs": [
        {
          "indexed": true,
          "internalType": "address",
          "name": "_SSIP",
          "type": "address"
        },
        {
          "indexed": false,
          "internalType": "bytes32",
          "name": "_role",
          "type": "bytes32"
        },
        {
          "indexed": true,
          "internalType": "address",
          "name": "_account",
          "type": "address"
        }
      ],
      "name": "LogSetRole",
      "type": "event"
    },
    {
      "anonymous": false,
      "inputs": [
        {
          "indexed": true,
          "internalType": "address",
          "name": "_SSIP",
          "type": "address"
        },
        {
          "indexed": false,
          "internalType": "uint256",
          "name": "_startTime",
          "type": "uint256"
        }
      ],
      "name": "LogSetStakingStartTime",
      "type": "event"
    },
    {
      "anonymous": false,
      "inputs": [
        {
          "indexed": false,
          "internalType": "uint256",
          "name": "_lastRewardBlock",
          "type": "uint256"
        },
        {
          "indexed": false,
          "internalType": "uint256",
          "name": "_lpSupply",
          "type": "uint256"
        },
        {
          "indexed": false,
          "internalType": "uint256",
          "name": "_accUnoPerShare",
          "type": "uint256"
        }
      ],
      "name": "LogUpdatePool",
      "type": "event"
    },
    {
      "anonymous": false,
      "inputs": [
        {
          "indexed": false,
          "internalType": "address",
          "name": "account",
          "type": "address"
        }
      ],
      "name": "Paused",
      "type": "event"
    },
    {
      "anonymous": false,
      "inputs": [
        {
          "indexed": true,
          "internalType": "address",
          "name": "_user",
          "type": "address"
        },
        {
          "indexed": false,
          "internalType": "uint256",
          "name": "_claimAmount",
          "type": "uint256"
        }
      ],
      "name": "PolicyClaim",
      "type": "event"
    },
    {
      "anonymous": false,
      "inputs": [
        {
          "indexed": true,
          "internalType": "address",
          "name": "_owner",
          "type": "address"
        },
        {
          "indexed": false,
          "internalType": "bool",
          "name": "_alive",
          "type": "bool"
        }
      ],
      "name": "PoolAlived",
      "type": "event"
    },
    {
      "anonymous": false,
      "inputs": [
        {
          "indexed": true,
          "internalType": "address",
          "name": "_owner",
          "type": "address"
        },
        {
          "indexed": false,
          "internalType": "bool",
          "name": "_fail",
          "type": "bool"
        }
      ],
      "name": "PoolFailed",
      "type": "event"
    },
    {
      "anonymous": false,
      "inputs": [
        {
          "indexed": true,
          "internalType": "address",
          "name": "_SSIP",
          "type": "address"
        },
        {
          "indexed": true,
          "internalType": "address",
          "name": "_pool",
          "type": "address"
        }
      ],
      "name": "RiskPoolCreated",
      "type": "event"
    },
    {
      "anonymous": false,
      "inputs": [
        {
          "indexed": true,
          "internalType": "bytes32",
          "name": "role",
          "type": "bytes32"
        },
        {
          "indexed": true,
          "internalType": "bytes32",
          "name": "previousAdminRole",
          "type": "bytes32"
        },
        {
          "indexed": true,
          "internalType": "bytes32",
          "name": "newAdminRole",
          "type": "bytes32"
        }
      ],
      "name": "RoleAdminChanged",
      "type": "event"
    },
    {
      "anonymous": false,
      "inputs": [
        {
          "indexed": true,
          "internalType": "bytes32",
          "name": "role",
          "type": "bytes32"
        },
        {
          "indexed": true,
          "internalType": "address",
          "name": "account",
          "type": "address"
        },
        {
          "indexed": true,
          "internalType": "address",
          "name": "sender",
          "type": "address"
        }
      ],
      "name": "RoleGranted",
      "type": "event"
    },
    {
      "anonymous": false,
      "inputs": [
        {
          "indexed": true,
          "internalType": "bytes32",
          "name": "role",
          "type": "bytes32"
        },
        {
          "indexed": true,
          "internalType": "address",
          "name": "account",
          "type": "address"
        },
        {
          "indexed": true,
          "internalType": "address",
          "name": "sender",
          "type": "address"
        }
      ],
      "name": "RoleRevoked",
      "type": "event"
    },
    {
      "anonymous": false,
      "inputs": [
        {
          "indexed": true,
          "internalType": "address[]",
          "name": "_staker",
          "type": "address[]"
        },
        {
          "indexed": true,
          "internalType": "address",
          "name": "_pool",
          "type": "address"
        },
        {
          "indexed": false,
          "internalType": "uint256",
          "name": "_amount",
          "type": "uint256"
        }
      ],
      "name": "RollOverReward",
      "type": "event"
    },
    {
      "anonymous": false,
      "inputs": [
        {
          "indexed": true,
          "internalType": "address",
          "name": "_staker",
          "type": "address"
        },
        {
          "indexed": true,
          "internalType": "address",
          "name": "_pool",
          "type": "address"
        },
        {
          "indexed": false,
          "internalType": "uint256",
          "name": "_amount",
          "type": "uint256"
        }
      ],
      "name": "StakedInPool",
      "type": "event"
    },
    {
      "anonymous": false,
      "inputs": [
        {
          "indexed": false,
          "internalType": "address",
          "name": "account",
          "type": "address"
        }
      ],
      "name": "Unpaused",
      "type": "event"
    },
    {
      "inputs": [],
      "name": "ACC_UNO_PRECISION",
      "outputs": [
        {
          "internalType": "uint256",
          "name": "",
          "type": "uint256"
        }
      ],
      "stateMutability": "view",
      "type": "function"
    },
    {
      "inputs": [],
      "name": "ADMIN_ROLE",
      "outputs": [
        {
          "internalType": "bytes32",
          "name": "",
          "type": "bytes32"
        }
      ],
      "stateMutability": "view",
      "type": "function"
    },
    {
      "inputs": [],
      "name": "BOT_ROLE",
      "outputs": [
        {
          "internalType": "bytes32",
          "name": "",
          "type": "bytes32"
        }
      ],
      "stateMutability": "view",
      "type": "function"
    },
    {
      "inputs": [],
      "name": "CLAIM_PROCESSOR_ROLE",
      "outputs": [
        {
          "internalType": "bytes32",
          "name": "",
          "type": "bytes32"
        }
      ],
      "stateMutability": "view",
      "type": "function"
    },
    {
      "inputs": [],
      "name": "DEFAULT_ADMIN_ROLE",
      "outputs": [
        {
          "internalType": "bytes32",
          "name": "",
          "type": "bytes32"
        }
      ],
      "stateMutability": "view",
      "type": "function"
    },
    {
      "inputs": [],
      "name": "cancelWithdrawRequest",
      "outputs": [],
      "stateMutability": "nonpayable",
      "type": "function"
    },
    {
      "inputs": [],
      "name": "capitalAgent",
      "outputs": [
        {
          "internalType": "address",
          "name": "",
          "type": "address"
        }
      ],
      "stateMutability": "view",
      "type": "function"
    },
    {
      "inputs": [
        {
          "internalType": "address",
          "name": "_operator",
          "type": "address"
        },
        {
          "internalType": "address",
          "name": "_factory",
          "type": "address"
        },
        {
          "internalType": "address",
          "name": "_currency",
          "type": "address"
        }
      ],
      "name": "createRewarder",
      "outputs": [],
      "stateMutability": "nonpayable",
      "type": "function"
    },
    {
      "inputs": [
        {
          "internalType": "string",
          "name": "_name",
          "type": "string"
        },
        {
          "internalType": "string",
          "name": "_symbol",
          "type": "string"
        },
        {
          "internalType": "address",
          "name": "_factory",
          "type": "address"
        },
        {
          "internalType": "address",
          "name": "_currency",
          "type": "address"
        },
        {
          "internalType": "uint256",
          "name": "_rewardMultiplier",
          "type": "uint256"
        },
        {
          "internalType": "uint256",
          "name": "_SCR",
          "type": "uint256"
        }
      ],
      "name": "createRiskPool",
      "outputs": [],
      "stateMutability": "nonpayable",
      "type": "function"
    },
    {
      "inputs": [
        {
          "internalType": "address",
          "name": "_multiSigWallet",
          "type": "address"
        },
        {
          "internalType": "address",
          "name": "_factory",
          "type": "address"
        }
      ],
      "name": "createSyntheticSSIP",
      "outputs": [],
      "stateMutability": "nonpayable",
      "type": "function"
    },
    {
      "inputs": [],
      "name": "emergencyWithdraw",
      "outputs": [],
      "stateMutability": "nonpayable",
      "type": "function"
    },
    {
      "inputs": [],
      "name": "emergencyWithdrawAllowed",
      "outputs": [
        {
          "internalType": "bool",
          "name": "",
          "type": "bool"
        }
      ],
      "stateMutability": "view",
      "type": "function"
    },
    {
      "inputs": [
        {
          "internalType": "uint256",
          "name": "_amount",
          "type": "uint256"
        }
      ],
      "name": "enterInPool",
      "outputs": [],
      "stateMutability": "payable",
      "type": "function"
    },
    {
      "inputs": [
        {
          "internalType": "bytes32",
          "name": "role",
          "type": "bytes32"
        }
      ],
      "name": "getRoleAdmin",
      "outputs": [
        {
          "internalType": "bytes32",
          "name": "",
          "type": "bytes32"
        }
      ],
      "stateMutability": "view",
      "type": "function"
    },
    {
      "inputs": [
        {
          "internalType": "address",
          "name": "_to",
          "type": "address"
        }
      ],
      "name": "getStakedAmountPerUser",
      "outputs": [
        {
          "internalType": "uint256",
          "name": "unoAmount",
          "type": "uint256"
        },
        {
          "internalType": "uint256",
          "name": "lpAmount",
          "type": "uint256"
        }
      ],
      "stateMutability": "view",
      "type": "function"
    },
    {
      "inputs": [],
      "name": "getTotalWithdrawPendingAmount",
      "outputs": [
        {
          "internalType": "uint256",
          "name": "",
          "type": "uint256"
        }
      ],
      "stateMutability": "view",
      "type": "function"
    },
    {
      "inputs": [
        {
          "internalType": "address",
          "name": "_user",
          "type": "address"
        }
      ],
      "name": "getWithdrawRequestPerUser",
      "outputs": [
        {
          "internalType": "uint256",
          "name": "pendingAmount",
          "type": "uint256"
        },
        {
          "internalType": "uint256",
          "name": "pendingAmountInUno",
          "type": "uint256"
        },
        {
          "internalType": "uint256",
          "name": "originUnoAmount",
          "type": "uint256"
        },
        {
          "internalType": "uint256",
          "name": "requestTime",
          "type": "uint256"
        }
      ],
      "stateMutability": "view",
      "type": "function"
    },
    {
      "inputs": [
        {
          "internalType": "bytes32",
          "name": "role",
          "type": "bytes32"
        },
        {
          "internalType": "address",
          "name": "account",
          "type": "address"
        }
      ],
      "name": "grantRole",
      "outputs": [],
      "stateMutability": "nonpayable",
      "type": "function"
    },
    {
      "inputs": [
        {
          "internalType": "address",
          "name": "_to",
          "type": "address"
        }
      ],
      "name": "harvest",
      "outputs": [],
      "stateMutability": "nonpayable",
      "type": "function"
    },
    {
      "inputs": [
        {
          "internalType": "bytes32",
          "name": "role",
          "type": "bytes32"
        },
        {
          "internalType": "address",
          "name": "account",
          "type": "address"
        }
      ],
      "name": "hasRole",
      "outputs": [
        {
          "internalType": "bool",
          "name": "",
          "type": "bool"
        }
      ],
      "stateMutability": "view",
      "type": "function"
    },
    {
      "inputs": [
        {
          "internalType": "address",
          "name": "_capitalAgent",
          "type": "address"
        },
        {
          "internalType": "address",
          "name": "_multiSigWallet",
          "type": "address"
        }
      ],
      "name": "initialize",
      "outputs": [],
      "stateMutability": "nonpayable",
      "type": "function"
    },
    {
      "inputs": [],
      "name": "killPool",
      "outputs": [],
      "stateMutability": "nonpayable",
      "type": "function"
    },
    {
      "inputs": [],
      "name": "killed",
      "outputs": [
        {
          "internalType": "bool",
          "name": "",
          "type": "bool"
        }
      ],
      "stateMutability": "view",
      "type": "function"
    },
    {
      "inputs": [
        {
          "internalType": "uint256",
          "name": "_amount",
          "type": "uint256"
        }
      ],
      "name": "leaveFromPending",
      "outputs": [],
      "stateMutability": "nonpayable",
      "type": "function"
    },
    {
      "inputs": [
        {
          "internalType": "uint256",
          "name": "_amount",
          "type": "uint256"
        }
      ],
      "name": "leaveFromPoolInPending",
      "outputs": [],
      "stateMutability": "nonpayable",
      "type": "function"
    },
    {
      "inputs": [],
      "name": "lockTime",
      "outputs": [
        {
          "internalType": "uint256",
          "name": "",
          "type": "uint256"
        }
      ],
      "stateMutability": "view",
      "type": "function"
    },
    {
      "inputs": [
        {
          "internalType": "address",
          "name": "_from",
          "type": "address"
        },
        {
          "internalType": "address",
          "name": "_to",
          "type": "address"
        },
        {
          "internalType": "uint256",
          "name": "_amount",
          "type": "uint256"
        }
      ],
      "name": "lpTransfer",
      "outputs": [],
      "stateMutability": "nonpayable",
      "type": "function"
    },
    {
      "inputs": [],
      "name": "migrate",
      "outputs": [],
      "stateMutability": "nonpayable",
      "type": "function"
    },
    {
      "inputs": [],
      "name": "migrateTo",
      "outputs": [
        {
          "internalType": "address",
          "name": "",
          "type": "address"
        }
      ],
      "stateMutability": "view",
      "type": "function"
    },
    {
      "inputs": [],
      "name": "pausePool",
      "outputs": [],
      "stateMutability": "nonpayable",
      "type": "function"
    },
    {
      "inputs": [],
      "name": "paused",
      "outputs": [
        {
          "internalType": "bool",
          "name": "",
          "type": "bool"
        }
      ],
      "stateMutability": "view",
      "type": "function"
    },
    {
      "inputs": [
        {
          "internalType": "address",
          "name": "_to",
          "type": "address"
        }
      ],
      "name": "pendingUno",
      "outputs": [
        {
          "internalType": "uint256",
          "name": "pending",
          "type": "uint256"
        }
      ],
      "stateMutability": "view",
      "type": "function"
    },
    {
      "inputs": [
        {
          "internalType": "uint256",
          "name": "",
          "type": "uint256"
        }
      ],
      "name": "policies",
      "outputs": [
        {
          "internalType": "uint256",
          "name": "insuranceAmount",
          "type": "uint256"
        },
        {
          "internalType": "address",
          "name": "payoutAddress",
          "type": "address"
        },
        {
          "internalType": "bool",
          "name": "settled",
          "type": "bool"
        }
      ],
      "stateMutability": "view",
      "type": "function"
    },
    {
      "inputs": [],
      "name": "poolInfo",
      "outputs": [
        {
          "internalType": "uint256",
          "name": "lastRewardBlock",
          "type": "uint256"
        },
        {
          "internalType": "uint256",
          "name": "accUnoPerShare",
          "type": "uint256"
        },
        {
          "internalType": "uint256",
          "name": "unoMultiplierPerBlock",
          "type": "uint256"
        }
      ],
      "stateMutability": "view",
      "type": "function"
    },
    {
      "inputs": [
        {
          "internalType": "bytes32",
          "name": "role",
          "type": "bytes32"
        },
        {
          "internalType": "address",
          "name": "callerConfirmation",
          "type": "address"
        }
      ],
      "name": "renounceRole",
      "outputs": [],
      "stateMutability": "nonpayable",
      "type": "function"
    },
    {
      "inputs": [],
      "name": "revivePool",
      "outputs": [],
      "stateMutability": "nonpayable",
      "type": "function"
    },
    {
      "inputs": [
        {
          "internalType": "bytes32",
          "name": "role",
          "type": "bytes32"
        },
        {
          "internalType": "address",
          "name": "account",
          "type": "address"
        }
      ],
      "name": "revokeRole",
      "outputs": [],
      "stateMutability": "nonpayable",
      "type": "function"
    },
    {
      "inputs": [],
      "name": "rewarder",
      "outputs": [
        {
          "internalType": "address",
          "name": "",
          "type": "address"
        }
      ],
      "stateMutability": "view",
      "type": "function"
    },
    {
      "inputs": [],
      "name": "riskPool",
      "outputs": [
        {
          "internalType": "address",
          "name": "",
          "type": "address"
        }
      ],
      "stateMutability": "view",
      "type": "function"
    },
    {
      "inputs": [
        {
          "internalType": "bytes32",
          "name": "",
          "type": "bytes32"
        },
        {
          "internalType": "address",
          "name": "",
          "type": "address"
        }
      ],
      "name": "roleLockTime",
      "outputs": [
        {
          "internalType": "uint256",
          "name": "",
          "type": "uint256"
        }
      ],
      "stateMutability": "view",
      "type": "function"
    },
    {
      "inputs": [
        {
          "internalType": "address[]",
          "name": "_to",
          "type": "address[]"
        }
      ],
      "name": "rollOverReward",
      "outputs": [],
      "stateMutability": "nonpayable",
      "type": "function"
    },
    {
      "inputs": [
        {
          "internalType": "address",
          "name": "_capitalAgent",
          "type": "address"
        }
      ],
      "name": "setCapitalAgent",
      "outputs": [],
      "stateMutability": "nonpayable",
      "type": "function"
    },
    {
      "inputs": [
        {
          "internalType": "uint256",
          "name": "_lockTime",
          "type": "uint256"
        }
      ],
      "name": "setLockTime",
      "outputs": [],
      "stateMutability": "nonpayable",
      "type": "function"
    },
    {
      "inputs": [
        {
          "internalType": "address",
          "name": "_migrateTo",
          "type": "address"
        }
      ],
      "name": "setMigrateTo",
      "outputs": [],
      "stateMutability": "nonpayable",
      "type": "function"
    },
    {
      "inputs": [
        {
          "internalType": "uint256",
          "name": "_minLPCapital",
          "type": "uint256"
        }
      ],
      "name": "setMinLPCapital",
      "outputs": [],
      "stateMutability": "nonpayable",
      "type": "function"
    },
    {
      "inputs": [
        {
          "internalType": "uint256",
          "name": "_rewardMultiplier",
          "type": "uint256"
        }
      ],
      "name": "setRewardMultiplier",
      "outputs": [],
      "stateMutability": "nonpayable",
      "type": "function"
    },
    {
      "inputs": [
        {
          "internalType": "bytes32",
          "name": "_role",
          "type": "bytes32"
        },
        {
          "internalType": "address",
          "name": "_account",
          "type": "address"
        }
      ],
      "name": "setRole",
      "outputs": [],
      "stateMutability": "nonpayable",
      "type": "function"
    },
    {
      "inputs": [
        {
          "internalType": "uint256",
          "name": "_startTime",
          "type": "uint256"
        }
      ],
      "name": "setStakingStartTime",
      "outputs": [],
      "stateMutability": "nonpayable",
      "type": "function"
    },
    {
      "inputs": [
        {
          "internalType": "uint256",
          "name": "_policyId",
          "type": "uint256"
        },
        {
          "internalType": "address",
          "name": "_payout",
          "type": "address"
        },
        {
          "internalType": "uint256",
          "name": "_amount",
          "type": "uint256"
        }
      ],
      "name": "settlePayout",
      "outputs": [],
      "stateMutability": "nonpayable",
      "type": "function"
    },
    {
      "inputs": [],
      "name": "stakingStartTime",
      "outputs": [
        {
          "internalType": "uint256",
          "name": "",
          "type": "uint256"
        }
      ],
      "stateMutability": "view",
      "type": "function"
    },
    {
      "inputs": [
        {
          "internalType": "bytes4",
          "name": "interfaceId",
          "type": "bytes4"
        }
      ],
      "name": "supportsInterface",
      "outputs": [
        {
          "internalType": "bool",
          "name": "",
          "type": "bool"
        }
      ],
      "stateMutability": "view",
      "type": "function"
    },
    {
      "inputs": [],
      "name": "syntheticSSIP",
      "outputs": [
        {
          "internalType": "address",
          "name": "",
          "type": "address"
        }
      ],
      "stateMutability": "view",
      "type": "function"
    },
    {
      "inputs": [],
      "name": "toggleEmergencyWithdraw",
      "outputs": [],
      "stateMutability": "nonpayable",
      "type": "function"
    },
    {
      "inputs": [],
      "name": "toggleRollOver",
      "outputs": [],
      "stateMutability": "nonpayable",
      "type": "function"
    },
    {
      "inputs": [],
      "name": "unpausePool",
      "outputs": [],
      "stateMutability": "nonpayable",
      "type": "function"
    },
    {
      "inputs": [],
      "name": "updatePool",
      "outputs": [],
      "stateMutability": "nonpayable",
      "type": "function"
    },
    {
      "inputs": [
        {
          "internalType": "address",
          "name": "",
          "type": "address"
        }
      ],
      "name": "userInfo",
      "outputs": [
        {
          "internalType": "uint256",
          "name": "lastWithdrawTime",
          "type": "uint256"
        },
        {
          "internalType": "uint256",
          "name": "rewardDebt",
          "type": "uint256"
        },
        {
          "internalType": "uint256",
          "name": "amount",
          "type": "uint256"
        },
        {
          "internalType": "bool",
          "name": "isNotRollOver",
          "type": "bool"
        }
      ],
      "stateMutability": "view",
      "type": "function"
    }
  ],
  "transactionHash": "0xbf419f9f866c986a4a3c4789b7c68ba969e019339edc3fb8ffae67c94f998a0d",
  "args": [],
  "numDeployments": 1,
  "solcInputHash": "805f75f5e326618e0af6cb56c124c05d",
  "bytecode": "0x608060405234801561001057600080fd5b50614cd2806100206000396000f3fe6080604052600436106103765760003560e01c806391d14854116101d1578063c4e5dacf11610102578063e08c5de1116100a0578063e3824a381161006f578063e3824a3814610af6578063f1daf24c14610b09578063fd91db9614610b29578063fe30e7e614610b4957600080fd5b8063e08c5de114610a74578063e0c8d9a514610a94578063e19e716814610acc578063e3161ddd14610ae157600080fd5b8063d547741f116100dc578063d547741f146109ff578063db2e21bc14610a1f578063dcc3e06e14610a34578063dff8720314610a5457600080fd5b8063c4e5dacf14610951578063cd87c83c14610971578063d3e894831461099157600080fd5b8063aceda7f91161016f578063b150377411610149578063b1503774146108a8578063ba619457146108dc578063c2eb8eb914610911578063c3dcfcf11461093157600080fd5b8063aceda7f914610847578063ae04d45d14610868578063af16d6e01461088857600080fd5b806398c6e760116101ab57806398c6e760146107e8578063a217fddf14610808578063a3bdd6321461081d578063aa09d5b71461083257600080fd5b806391d14854146107685780639336f4061461078857806393b6b86c146107c857600080fd5b806342198160116102ab578063736ec05c116102495780637da2a4a7116102235780637da2a4a7146106e35780638395206c1461071757806389919b71146107375780638fd3ab801461075357600080fd5b8063736ec05c1461068c57806375b238fc146106ac5780637a39b8d8146106ce57600080fd5b80635c975abb116102855780635c975abb1461061c5780635d90bad91461064157806367755415146106615780636abfd1831461067657600080fd5b8063421981601461058a578063485cc955146105c25780635a2f3d09146105e257600080fd5b80630e9ae420116103185780631f3a0e41116102f25780631f3a0e4114610509578063248a9ca31461052a5780632f2ff15d1461054a57806336568abe1461056a57600080fd5b80630e9ae420146104625780631959a002146104825780631b600ca2146104e957600080fd5b8063093cf18f11610354578063093cf18f146103f75780630bd075a11461040c5780630d6680871461042c5780630e5c011e1461044257600080fd5b806301ffc9a71461037b578063068cc514146103b0578063078fa9bc146103c7575b600080fd5b34801561038757600080fd5b5061039b6103963660046145b2565b610b69565b60405190151581526020015b60405180910390f35b3480156103bc57600080fd5b506103c5610ba0565b005b3480156103d357600080fd5b506103e9600080516020614c3d83398151915281565b6040519081526020016103a7565b34801561040357600080fd5b506103c5610c19565b34801561041857600080fd5b506103c56104273660046145e3565b610ce5565b34801561043857600080fd5b506103e960055481565b34801561044e57600080fd5b506103c561045d366004614621565b610dcd565b34801561046e57600080fd5b506103c561047d36600461463e565b610e3d565b34801561048e57600080fd5b506104c761049d366004614621565b60096020526000908152604090208054600182015460028301546003909301549192909160ff1684565b60408051948552602085019390935291830152151560608201526080016103a7565b3480156104f557600080fd5b506103c561050436600461467f565b611169565b34801561051557600080fd5b5060025461039b90600160a01b900460ff1681565b34801561053657600080fd5b506103e96105453660046145e3565b6113b1565b34801561055657600080fd5b506103c56105653660046146b8565b6113d3565b34801561057657600080fd5b506103c56105853660046146b8565b61146a565b34801561059657600080fd5b506001546105aa906001600160a01b031681565b6040516001600160a01b0390911681526020016103a7565b3480156105ce57600080fd5b506103c56105dd36600461467f565b61149d565b3480156105ee57600080fd5b50600a54600b54600c5461060192919083565b604080519384526020840192909252908201526060016103a7565b34801561062857600080fd5b50600080516020614c5d8339815191525460ff1661039b565b34801561064d57600080fd5b506103c561065c3660046145e3565b6116cf565b34801561066d57600080fd5b506103c5611774565b34801561068257600080fd5b506103e960065481565b34801561069857600080fd5b506103c56106a7366004614621565b611818565b3480156106b857600080fd5b506103e9600080516020614c7d83398151915281565b3480156106da57600080fd5b506103c56118ef565b3480156106ef57600080fd5b506103c5336000908152600960205260409020600301805460ff19811660ff90911615179055565b34801561072357600080fd5b506103c56107323660046145e3565b611999565b34801561074357600080fd5b506103e9670de0b6b3a764000081565b34801561075f57600080fd5b506103c5611cc7565b34801561077457600080fd5b5061039b6107833660046146b8565b611f28565b34801561079457600080fd5b506107a86107a3366004614621565b611f60565b6040805194855260208501939093529183015260608201526080016103a7565b3480156107d457600080fd5b506103c56107e33660046145e3565b612080565b3480156107f457600080fd5b506000546105aa906001600160a01b031681565b34801561081457600080fd5b506103e9600081565b34801561082957600080fd5b506103e96121c2565b34801561083e57600080fd5b506103c5612240565b34801561085357600080fd5b5060025461039b90600160a81b900460ff1681565b34801561087457600080fd5b506103c56108833660046145e3565b6122ac565b34801561089457600080fd5b506103c56108a33660046146dd565b612397565b3480156108b457600080fd5b506103e97f6d5c9827c1f410bbb61d3b2a0a34b6b30492d9a1fd38588edca7ec4562ab9c9b81565b3480156108e857600080fd5b506108fc6108f7366004614621565b61258a565b604080519283526020830191909152016103a7565b34801561091d57600080fd5b506103c561092c366004614621565b612636565b34801561093d57600080fd5b506103c561094c366004614771565b61270e565b34801561095d57600080fd5b506004546105aa906001600160a01b031681565b34801561097d57600080fd5b506002546105aa906001600160a01b031681565b34801561099d57600080fd5b506109da6109ac3660046145e3565b600860205260009081526040902080546001909101546001600160a01b03811690600160a01b900460ff1683565b604080519384526001600160a01b0390921660208401521515908201526060016103a7565b348015610a0b57600080fd5b506103c5610a1a3660046146b8565b612980565b348015610a2b57600080fd5b506103c561299c565b348015610a4057600080fd5b506003546105aa906001600160a01b031681565b348015610a6057600080fd5b506103c5610a6f3660046146b8565b612b8b565b348015610a8057600080fd5b506103e9610a8f366004614621565b612cc8565b348015610aa057600080fd5b506103e9610aaf3660046146b8565b600760209081526000928352604080842090915290825290205481565b348015610ad857600080fd5b506103c5612df5565b348015610aed57600080fd5b506103c5612ee0565b6103c5610b043660046145e3565b61300b565b348015610b1557600080fd5b506103c5610b243660046145e3565b6130c6565b348015610b3557600080fd5b506103c5610b4436600461482e565b613389565b348015610b5557600080fd5b506103c5610b643660046148f3565b613781565b60006001600160e01b03198216637965db0b60e01b1480610b9a57506301ffc9a760e01b6001600160e01b03198316145b92915050565b600080516020614c7d833981519152610bb881613963565b336000908152600080516020614bfd8339815191526020526040902054600080516020614c7d83398151915290421015610c0d5760405162461bcd60e51b8152600401610c049061491a565b60405180910390fd5b610c1561396d565b5050565b600080516020614c7d833981519152610c3181613963565b336000908152600080516020614bfd8339815191526020526040902054600080516020614c7d83398151915290421015610c7d5760405162461bcd60e51b8152600401610c049061491a565b6002805460ff600160a81b808304821615810260ff60a81b19909316929092179283905560405130937f4a1fbdd1e9ef46cfe9e097f622e1d79f51dcd6762c86122e6a8198c5394d640193610cd9939104161515815260200190565b60405180910390a25050565b600080516020614c7d833981519152610cfd81613963565b336000908152600080516020614bfd8339815191526020526040902054600080516020614c7d83398151915290421015610d495760405162461bcd60e51b8152600401610c049061491a565b60008311610d8d5760405162461bcd60e51b8152602060048201526011602482015270556e6f52653a207a65726f2076616c756560781b6044820152606401610c04565b600c83905560405183815230907fbd1dd13c6a5b4a28ebd27fdcb8fdd01aba6bbb9f67599306248f465bcdf9817f906020015b60405180910390a2505050565b610dd56139c7565b600254600160a01b900460ff1615610dff5760405162461bcd60e51b8152600401610c049061494f565b600654421015610e215760405162461bcd60e51b8152600401610c049061497e565b610e296139f8565b610e3281613a42565b610e3a613b3e565b50565b610e456139f8565b610e4d6139c7565b600254600160a01b900460ff1615610e775760405162461bcd60e51b8152600401610c049061494f565b6004546001600160a01b03163314610ed15760405162461bcd60e51b815260206004820181905260248201527f556e6f52653a206e6f7420616c6c6f77206f7468657273207472616e736665726044820152606401610c04565b6002546001600160a01b03848116911614801590610efd57506002546001600160a01b03838116911614155b1561115c57610f0b83613a42565b6001600160a01b0383811660008181526009602052604080822060020154600480549251631665744b60e11b815290810194909452939192911690632ccae89690602401606060405180830381865afa158015610f6c573d6000803e3d6000fd5b505050506040513d601f19601f82011682018060405250810190610f9091906149b5565b50509050828183610fa191906149f9565b1015610fef5760405162461bcd60e51b815260206004820152601760248201527f556e6f52653a2062616c616e6365206f766572666c6f770000000000000000006044820152606401610c04565b600b54600090670de0b6b3a7640000906110099085614a0c565b6110139190614a23565b600b54909150670de0b6b3a76400009061102d9086614a0c565b6110379190614a23565b61104190826149f9565b6001600160a01b03871660009081526009602052604090206001015561106784846149f9565b6001600160a01b038716600090815260096020526040902060020155600b54670de0b6b3a76400009061109a9086614a0c565b6110a49190614a23565b6001600160a01b0386166000908152600960205260409020600101546110ca9190614a45565b6001600160a01b03861660009081526009602052604090206001810191909155600201546110f9908590614a45565b6001600160a01b0380871660008181526009602052604090819020600201939093559151908816907fabc254a3e8b16a8605ce22e693a6e493e375434011c1a7ff082d09e2a84ad121906111509088815260200190565b60405180910390a35050505b611164613b3e565b505050565b600080516020614c7d83398151915261118181613963565b336000908152600080516020614bfd8339815191526020526040902054600080516020614c7d833981519152904210156111cd5760405162461bcd60e51b8152600401610c049061491a565b6111d56139f8565b6001600160a01b03841661122b5760405162461bcd60e51b815260206004820152601960248201527f556e6f52653a207a65726f206f776e65722061646472657373000000000000006044820152606401610c04565b6001600160a01b0383166112815760405162461bcd60e51b815260206004820152601a60248201527f556e6f52653a7a65726f20666163746f727920616464726573730000000000006044820152606401610c04565b6004546001600160a01b03166112d95760405162461bcd60e51b815260206004820152601b60248201527f556e6f52653a7a65726f204c5020746f6b656e206164647265737300000000006044820152606401610c04565b60048054604051631a8a8b3b60e11b81526001600160a01b03878116938201939093529082166024820152908416906335151676906044016020604051808303816000875af1158015611330573d6000803e3d6000fd5b505050506040513d601f19601f820116820180604052508101906113549190614a58565b600280546001600160a01b0319166001600160a01b0392831690811790915560045460405192169130907e1129b9865226cebad4acf884618ae0607fff06758062b050509602db7065f090600090a46113ab613b3e565b50505050565b6000908152600080516020614c1d833981519152602052604090206001015490565b600254600160a01b900460ff16156113fd5760405162461bcd60e51b8152600401610c049061494f565b6114056139c7565b61140e826113b1565b61141781613963565b611420836113b1565b60008181526007602090815260408083203384529091529020544210156114595760405162461bcd60e51b8152600401610c049061491a565b6114638484613b64565b5050505050565b6001600160a01b03811633146114935760405163334bd91960e11b815260040160405180910390fd5b6111648282613c09565b7ff0c57e16840df040f15088dc2f81fe391c3923bec73e23a9662efc9c229c6a008054600160401b810460ff16159067ffffffffffffffff166000811580156114e35750825b905060008267ffffffffffffffff1660011480156115005750303b155b90508115801561150e575080155b1561152c5760405163f92ee8a960e01b815260040160405180910390fd5b845467ffffffffffffffff19166001178555831561155657845460ff60401b1916600160401b1785555b6001600160a01b0386166115b75760405162461bcd60e51b815260206004820152602260248201527f556e6f52653a207a65726f206d756c746973696777616c6c6574206164647265604482015261737360f01b6064820152608401610c04565b600180546001600160a01b0319166001600160a01b038916179055620d2f006005556115e1613c92565b6115e9613ca2565b6115f1613cb2565b611609600080516020614c7d83398151915287613b64565b50611622600080516020614c7d83398151915280613cba565b611648600080516020614c3d833981519152600080516020614c7d833981519152613cba565b6116807f6d5c9827c1f410bbb61d3b2a0a34b6b30492d9a1fd38588edca7ec4562ab9c9b600080516020614c7d833981519152613cba565b83156116c657845460ff60401b19168555604051600181527fc7f505b2f371ae2175ee4913f4499e1f2633a7b5936321eed1cdaeb6115181d29060200160405180910390a15b50505050505050565b600080516020614c7d8339815191526116e781613963565b336000908152600080516020614bfd8339815191526020526040902054600080516020614c7d833981519152904210156117335760405162461bcd60e51b8152600401610c049061491a565b61173d4284614a45565b600681905560405190815230907fa8aa08cc14eef7b97ab4cd52f37082e23f7526bccc98cf91e6a1d412494b905190602001610dc0565b600080516020614c7d83398151915261178c81613963565b336000908152600080516020614bfd8339815191526020526040902054600080516020614c7d833981519152904210156117d85760405162461bcd60e51b8152600401610c049061491a565b6002805460ff60a01b191690556040516000815233907f77337fcf1b48e6e024b256962b66c49de98c9f606b2cd9937cc0edbc7a0fb70990602001610cd9565b600080516020614c7d83398151915261183081613963565b336000908152600080516020614bfd8339815191526020526040902054600080516020614c7d8339815191529042101561187c5760405162461bcd60e51b8152600401610c049061491a565b6001600160a01b0383166118a25760405162461bcd60e51b8152600401610c0490614a75565b600080546001600160a01b0319166001600160a01b0385169081178255604051909130917f877238238dbd7134e89b00809ea73fabb50da117ace807a6b31c733bbf55d3699190a3505050565b600080516020614c7d83398151915261190781613963565b336000908152600080516020614bfd8339815191526020526040902054600080516020614c7d833981519152904210156119535760405162461bcd60e51b8152600401610c049061491a565b6002805460ff60a01b1916600160a01b1790556040516001815233907f7c952f2e528aa25b4eaf8b6c07af29184b27ce591295e543ced0a27b167dc79490602001610cd9565b6119a16139c7565b6006544210156119c35760405162461bcd60e51b8152600401610c049061497e565b6119cb6139f8565b6119d433613a42565b60015460405163c139b04f60e01b8152306004820152602481018390526001600160a01b039091169063c139b04f90604401602060405180830381865afa158015611a23573d6000803e3d6000fd5b505050506040513d601f19601f82011682018060405250810190611a479190614aa2565b611a935760405162461bcd60e51b815260206004820181905260248201527f556e6f52653a206d696e696d756d206361706974616c20756e646572666c6f776044820152606401610c04565b33600090815260096020908152604080832060020154600480548351627a9fd960e91b815293519295946001600160a01b039091169363f53fb200938184019390918290030181865afa158015611aee573d6000803e3d6000fd5b505050506040513d601f19601f82011682018060405250810190611b129190614ac4565b60048054604051631665744b60e11b815233928101929092529192506000916001600160a01b031690632ccae89690602401606060405180830381865afa158015611b61573d6000803e3d6000fd5b505050506040513d601f19601f82011682018060405250810190611b8591906149b5565b505090508184670de0b6b3a7640000611b9e9190614a0c565b611ba89190614a23565b611bb282856149f9565b1015611c005760405162461bcd60e51b815260206004820152601f60248201527f556e6f52653a20776974686472617720616d6f756e74206f766572666c6f77006044820152606401610c04565b600480546040516323de6d9560e11b81523392810192909252602482018690526001600160a01b0316906347bcdb2a90604401600060405180830381600087803b158015611c4d57600080fd5b505af1158015611c61573d6000803e3d6000fd5b50503360008181526009602090815260409182902042905560045491518981526001600160a01b0390921694509192507f940a14c75c418e7230a2e65567722d2dda5a6713cf71b369bd0fa219fdc1ac5e910160405180910390a3505050610e3a613b3e565b611ccf6139f8565b611cd76139c7565b600254600160a01b900460ff1615611d015760405162461bcd60e51b8152600401610c049061494f565b6000546001600160a01b0316611d295760405162461bcd60e51b8152600401610c0490614a75565b611d3233613a42565b60055433600090815260096020526040812054909190611d5290426149f9565b6004805460008054604051633613302f60e01b815233948101949094526001600160a01b03908116602485015294909311604483018190529450919290911690633613302f906064016020604051808303816000875af1158015611dba573d6000803e3d6000fd5b505050506040513d601f19601f82011682018060405250810190611dde9190614ac4565b60015460405163fb6cb84760e01b81526004810183905260006024820181905260448201529192506001600160a01b03169063fb6cb84790606401600060405180830381600087803b158015611e3357600080fd5b505af1158015611e47573d6000803e3d6000fd5b50506000805460405163ed59344b60e01b8152336004820152602481018690526060604482015260648101929092526001600160a01b0316925063ed59344b9150608401600060405180830381600087803b158015611ea557600080fd5b505af1158015611eb9573d6000803e3d6000fd5b505033600081815260096020908152604080832060028101849055600101839055915491518681526001600160a01b0390921694509192507ff0fee1f70845d356d6a3e0baa0944ce846437b6469ea89416dad2cd7067919a4910160405180910390a35050611f26613b3e565b565b6000918252600080516020614c1d833981519152602090815260408084206001600160a01b0393909316845291905290205460ff1690565b6000806000806000600460009054906101000a90046001600160a01b03166001600160a01b031663f53fb2006040518163ffffffff1660e01b8152600401602060405180830381865afa158015611fbb573d6000803e3d6000fd5b505050506040513d601f19601f82011682018060405250810190611fdf9190614ac4565b60048054604051631665744b60e11b81526001600160a01b038a8116938201939093529293501690632ccae89690602401606060405180830381865afa15801561202d573d6000803e3d6000fd5b505050506040513d601f19601f8201168201806040525081019061205191906149b5565b9196509093509150670de0b6b3a764000061206c8287614a0c565b6120769190614a23565b9350509193509193565b600080516020614c7d83398151915261209881613963565b336000908152600080516020614bfd8339815191526020526040902054600080516020614c7d833981519152904210156120e45760405162461bcd60e51b8152600401610c049061491a565b600083116121345760405162461bcd60e51b815260206004820152601b60248201527f556e6f52653a206e6f7420616c6c6f77207a65726f2076616c756500000000006044820152606401610c04565b600480546040516324edae1b60e21b81529182018590526001600160a01b0316906393b6b86c90602401600060405180830381600087803b15801561217857600080fd5b505af115801561218c573d6000803e3d6000fd5b50506040518581523092507f353ac2778fe09bc60cf3070bb11d548faf4037e4217a06977c16463087474aab9150602001610dc0565b6000600460009054906101000a90046001600160a01b03166001600160a01b031663e95aa8d36040518163ffffffff1660e01b8152600401602060405180830381865afa158015612217573d6000803e3d6000fd5b505050506040513d601f19601f8201168201806040525081019061223b9190614ac4565b905090565b600080516020614c7d83398151915261225881613963565b336000908152600080516020614bfd8339815191526020526040902054600080516020614c7d833981519152904210156122a45760405162461bcd60e51b8152600401610c049061491a565b610c15613d1d565b600080516020614c7d8339815191526122c481613963565b336000908152600080516020614bfd8339815191526020526040902054600080516020614c7d833981519152904210156123105760405162461bcd60e51b8152600401610c049061491a565b600083116123605760405162461bcd60e51b815260206004820152601f60248201527f556e6f52653a206e6f7420616c6c6f77207a65726f206c6f636b2074696d65006044820152606401610c04565b600583905560405183815230907f2c2c43c64e937ae35257af782c222986dc5adb4f56dc0881594e79bf83658d8c90602001610dc0565b61239f6139f8565b600080516020614c7d8339815191526123b781613963565b336000908152600080516020614bfd8339815191526020526040902054600080516020614c7d833981519152904210156124035760405162461bcd60e51b8152600401610c049061491a565b6001600160a01b0384166124595760405162461bcd60e51b815260206004820181905260248201527f556e6f52653a20726577617264657220666163746f7279206e6f2065786973746044820152606401610c04565b6001600160a01b0385166124af5760405162461bcd60e51b815260206004820152601c60248201527f556e6f52653a207a65726f206f70657261746f722061646472657373000000006044820152606401610c04565b6040516369ee745160e01b81526001600160a01b03868116600483015284811660248301523060448301528516906369ee7451906064016020604051808303816000875af1158015612505573d6000803e3d6000fd5b505050506040513d601f19601f820116820180604052508101906125299190614a58565b600380546001600160a01b0319166001600160a01b0392831690811790915560405191851682529030907f6c409a36847a0a3870deae25f656f4300d45957d2643fc27faab145e19cfcf1b9060200160405180910390a35050611164613b3e565b6001600160a01b03808216600090815260096020908152604080832060020154600480548351627a9fd960e91b81529351959692958795919093169363f53fb200938184019390918290030181865afa1580156125eb573d6000803e3d6000fd5b505050506040513d601f19601f8201168201806040525081019061260f9190614ac4565b9050670de0b6b3a76400006126248284614a0c565b61262e9190614a23565b925050915091565b600080516020614c7d83398151915261264e81613963565b336000908152600080516020614bfd8339815191526020526040902054600080516020614c7d8339815191529042101561269a5760405162461bcd60e51b8152600401610c049061491a565b6001600160a01b0383166126c05760405162461bcd60e51b8152600401610c0490614a75565b600180546001600160a01b0319166001600160a01b03851690811790915560405130907fdf8e7a62b39a2ec070924d5c5dce9a1957d75476af59af5a7e7ce2ee48bc777490600090a3505050565b6127166139f8565b600080516020614c7d83398151915261272e81613963565b336000908152600080516020614bfd8339815191526020526040902054600080516020614c7d8339815191529042101561277a5760405162461bcd60e51b8152600401610c049061491a565b6004546001600160a01b0316156127d35760405162461bcd60e51b815260206004820181905260248201527f556e6f52653a207269736b20706f6f6c206372656174656420616c72656164796044820152606401610c04565b6001600160a01b0386166128295760405162461bcd60e51b815260206004820152601b60248201527f556e6f52653a207a65726f20666163746f7279206164647265737300000000006044820152606401610c04565b604051630d98e31f60e01b81526001600160a01b03871690630d98e31f9061285f908d908d908d908d9030908d90600401614b06565b6020604051808303816000875af115801561287e573d6000803e3d6000fd5b505050506040513d601f19601f820116820180604052508101906128a29190614a58565b600480546001600160a01b0319166001600160a01b0392831617815543600a556000600b55600c869055600154604051633f14eb6160e11b8152309281019290925287831660248301526044820186905290911690637e29d6c290606401600060405180830381600087803b15801561291a57600080fd5b505af115801561292e573d6000803e3d6000fd5b50506004546040516001600160a01b0390911692503091507f184d7691bf4a73930a21086fa1bdf0ee3075421531a60730288325fd5838021790600090a35050612976613b3e565b5050505050505050565b612989826113b1565b61299281613963565b6113ab8383613c09565b6129a46139f8565b6129ac6139c7565b600254600160a81b900460ff16612a155760405162461bcd60e51b815260206004820152602760248201527f556e6f72653a20656d657267656e63795769746864726177206973206e6f7420604482015266185b1b1bddd95960ca1b6064820152608401610c04565b3360009081526009602090815260409182902082516080810184528154815260018201549281019290925260028101549282018390526003015460ff16151560608201529080612aa75760405162461bcd60e51b815260206004820152601760248201527f556e6f72653a205a65726f207573657220616d6f756e740000000000000000006044820152606401610c04565b336000818152600960205260408082208281556001810183905560028101929092556003909101805460ff191690556004805491516395ccea6760e01b815290810192909252602482018390526001600160a01b0316906395ccea67906044016020604051808303816000875af1158015612b26573d6000803e3d6000fd5b505050506040513d601f19601f82011682018060405250810190612b4a9190614aa2565b5060405181815233907f5fafa99d0643513820be26656b45130b01e1c03062e1266bf36f88cbd3bd9695906020015b60405180910390a25050611f26613b3e565b600080516020614c7d833981519152612ba381613963565b336000908152600080516020614bfd8339815191526020526040902054600080516020614c7d83398151915290421015612bef5760405162461bcd60e51b8152600401610c049061491a565b612bf76139c7565b600254600160a01b900460ff1615612c215760405162461bcd60e51b8152600401610c049061494f565b6001600160a01b038316612c475760405162461bcd60e51b8152600401610c0490614a75565b600554612c549042614a45565b60008581526007602090815260408083206001600160a01b0388168452909152902055612c818484613b64565b506040518481526001600160a01b0384169030907faa08bed1c8e2500452096c9af125a3944be2a139782a1853abaef7a74bd7dd519060200160405180910390a350505050565b60048054604080516318160ddd60e01b8152905160009384936001600160a01b0316926318160ddd92818301926020928290030181865afa158015612d11573d6000803e3d6000fd5b505050506040513d601f19601f82011682018060405250810190612d359190614ac4565b600b54600a549192509043118015612d4c57508115155b15612da257600a54600090612d6190436149f9565b600c54909150600090612d749083614a0c565b905083612d89670de0b6b3a764000083614a0c565b612d939190614a23565b612d9d9084614a45565b925050505b6001600160a01b03841660009081526009602052604090206002810154600190910154670de0b6b3a7640000612dd88484614a0c565b612de29190614a23565b612dec91906149f9565b95945050505050565b612dfd6139f8565b612e056139c7565b600254600160a01b900460ff1615612e2f5760405162461bcd60e51b8152600401610c049061494f565b60048054604051635d2cd2a760e01b8152339281019290925260009182916001600160a01b031690635d2cd2a79060240160408051808303816000875af1158015612e7e573d6000803e3d6000fd5b505050506040513d601f19601f82011682018060405250810190612ea29190614b54565b604080518381526020810183905292945090925033917f09c6481cb228ea7f61ceb67c8e708038eb74bbb68cfcc54a9cfca199087ecfb79101612b79565b600a54431115611f26576000600460009054906101000a90046001600160a01b03166001600160a01b03166318160ddd6040518163ffffffff1660e01b8152600401602060405180830381865afa158015612f3f573d6000803e3d6000fd5b505050506040513d601f19601f82011682018060405250810190612f639190614ac4565b90508015612fc057600a54600090612f7b90436149f9565b600c54909150600090612f8e9083614a0c565b905082612fa3670de0b6b3a764000083614a0c565b612fad9190614a23565b600b54612fba9190614a45565b600b5550505b43600a819055600b5460408051928352602083018490528201527f1f2d1a9fde053af46b5db3dc92a8aa8696e56a677998fdd1311b45be341f7853906060015b60405180910390a150565b6130136139c7565b600254600160a01b900460ff161561303d5760405162461bcd60e51b8152600401610c049061494f565b60065442101561305f5760405162461bcd60e51b8152600401610c049061497e565b6130676139f8565b61307081613d66565b61307a8133613e8a565b6004546040518281526001600160a01b039091169033907fd3dba7b5565b16b7749db7d1938410a636e3c7a6ea46ed8ce7e259e19f2f3b9f9060200160405180910390a3610e3a613b3e565b6006544210156130e85760405162461bcd60e51b8152600401610c049061497e565b6130f06139c7565b6130f86139f8565b6000811161315c5760405162461bcd60e51b815260206004820152602b60248201527f576974686472617720616d6f756e742073686f756c642062652067726561746f60448201526a72207468616e207a65726f60a81b6064820152608401610c04565b6005543360009081526009602052604090205461317990426149f9565b10156131bc5760405162461bcd60e51b8152602060048201526012602482015271556e6f52653a204c6f636b65642074696d6560701b6044820152606401610c04565b6131c533613a42565b3360008181526009602052604080822060020154600480549251636ce40c7960e01b815290810194909452602484018590529282916001600160a01b031690636ce40c799060440160408051808303816000875af115801561322b573d6000803e3d6000fd5b505050506040513d601f19601f8201168201806040525081019061324f9190614b54565b600154604051632da26abb60e11b8152600481018390529294509092506001600160a01b031690635b44d57690602401600060405180830381600087803b15801561329957600080fd5b505af11580156132ad573d6000803e3d6000fd5b5050600b5460009250670de0b6b3a764000091506132cb9086614a0c565b6132d59190614a23565b600b54909150670de0b6b3a7640000906132ef9085614a0c565b6132f99190614a23565b61330390826149f9565b3360009081526009602052604090206001015561332083856149f9565b336000818152600960209081526040918290206002019390935560045481518781529384018690526001600160a01b0316927fced2424eb51507abd1611ac0d9893e5bc6b6d0a0596b53f86d24d31fc75a5d60910160405180910390a350505050610e3a613b3e565b6006544210156133ab5760405162461bcd60e51b8152600401610c049061497e565b6133b36139c7565b600254600160a01b900460ff16156133dd5760405162461bcd60e51b8152600401610c049061494f565b7f6d5c9827c1f410bbb61d3b2a0a34b6b30492d9a1fd38588edca7ec4562ab9c9b61340781613963565b61340f6139f8565b600360009054906101000a90046001600160a01b03166001600160a01b031663e5a6b10f6040518163ffffffff1660e01b8152600401602060405180830381865afa158015613462573d6000803e3d6000fd5b505050506040513d601f19601f820116820180604052508101906134869190614a58565b6001600160a01b0316600460009054906101000a90046001600160a01b03166001600160a01b031663e5a6b10f6040518163ffffffff1660e01b8152600401602060405180830381865afa1580156134e2573d6000803e3d6000fd5b505050506040513d601f19601f820116820180604052508101906135069190614a58565b6001600160a01b03161461355c5760405162461bcd60e51b815260206004820152601b60248201527f556e6f52653a2063757272656e6379206e6f74206d61746368656400000000006044820152606401610c04565b613564612ee0565b60008060005b845181101561366f576009600086838151811061358957613589614b78565b6020908102919091018101516001600160a01b031682528101919091526040016000206003015460ff16156136005760405162461bcd60e51b815260206004820152601a60248201527f556e6f52653a20726f6c6c6f766572206973206e6f74207365740000000000006044820152606401610c04565b60008061362587848151811061361857613618614b78565b6020026020010151614123565b90925090506136348286614a45565b94506136408185614a45565b93506136658288858151811061365857613658614b78565b6020026020010151613e8a565b505060010161356a565b506003546001600160a01b03161580159061368957508115155b80156136955750600081115b156137205760035460048054604051631963b13960e21b81526001600160a01b039182169281019290925260248201859052604482018490529091169063658ec4e4906064016020604051808303816000875af11580156136fa573d6000803e3d6000fd5b505050506040513d601f19601f8201168201806040525081019061371e9190614ac4565b505b6004546040516001600160a01b039091169061373d908690614b8e565b604051908190038120848252907f2b1ab5aad08854cca1e3b3cd94bbb4acc5cf06bd794383289c30ae264d03121d9060200160405180910390a35050610c15613b3e565b6137896139c7565b600254600160a01b900460ff16156137b35760405162461bcd60e51b8152600401610c049061494f565b600080516020614c3d8339815191526137cb81613963565b3360009081527f47cc2c24439320872cbf8ac52d752d578282f7861bba91d04f4520061c2b5c5f6020526040902054600080516020614c3d833981519152904210156138295760405162461bcd60e51b8152600401610c049061491a565b6004805460405163172500a160e11b81526001600160a01b03878116938201939093526024810186905260009290911690632e4a0142906044016020604051808303816000875af1158015613882573d6000803e3d6000fd5b505050506040513d601f19601f820116820180604052508101906138a69190614ac4565b6001805460405163fb6cb84760e01b815260048101849052602481018a905260448101929092529192506001600160a01b039091169063fb6cb84790606401600060405180830381600087803b1580156138ff57600080fd5b505af1158015613913573d6000803e3d6000fd5b50505050846001600160a01b0316867fa57c8f00bb515630e1e4af145f087299b8d5ac5d871605bb0a9c0479b7b2d65b8660405161395391815260200190565b60405180910390a3505050505050565b610e3a8133614243565b61397561427c565b600080516020614c5d833981519152805460ff191681557f5db9ee0a495bf2e6ff9c91a7834c1ba4fdd244a5e8aa4e537bd38aeae4b073aa335b6040516001600160a01b039091168152602001613000565b600080516020614c5d8339815191525460ff1615611f265760405163d93c066560e01b815260040160405180910390fd5b7f9b779b17422d0df92223018b32b4d1fa46e071723d6817e2486d003becc55f00805460011901613a3c57604051633ee5aeb560e01b815260040160405180910390fd5b60029055565b613a4a612ee0565b600080613a5683614123565b60035491935091506001600160a01b031615801590613a7457508115155b15613af957600354604051631963b13960e21b81526001600160a01b03858116600483015260248201859052604482018490529091169063658ec4e4906064016020604051808303816000875af1158015613ad3573d6000803e3d6000fd5b505050506040513d601f19601f82011682018060405250810190613af79190614ac4565b505b6040518281526001600160a01b0384169033907fa0306f61d3fafe13787b78e276cb6b644382854a66cb46daae14227d3ec267979060200160405180910390a3505050565b60017f9b779b17422d0df92223018b32b4d1fa46e071723d6817e2486d003becc55f0055565b6000600080516020614c1d833981519152613b7f8484611f28565b613bff576000848152602082815260408083206001600160a01b03871684529091529020805460ff19166001179055613bb53390565b6001600160a01b0316836001600160a01b0316857f2f8788117e7eff1d82e926ec794901d17c78024a50270940304540a733656f0d60405160405180910390a46001915050610b9a565b6000915050610b9a565b600254600090600160a01b900460ff1615613c365760405162461bcd60e51b8152600401610c049061494f565b613c3e6139c7565b613c47836113b1565b6000818152600760209081526040808320338452909152902054421015613c805760405162461bcd60e51b8152600401610c049061491a565b613c8a84846142ac565b949350505050565b613c9a614328565b611f26614371565b613caa614328565b611f26614379565b611f26614328565b600080516020614c1d8339815191526000613cd4846113b1565b600085815260208490526040808220600101869055519192508491839187917fbd79b86ffe0ab8e8776151514217cd7cacd52c909f66475c3af44e129f0b00ff9190a450505050565b613d256139c7565b600080516020614c5d833981519152805460ff191660011781557f62e78cea01bee320cd4e420270b5ea74000d11b0c9f74754ebdbfc544b05a258336139af565b6000600460009054906101000a90046001600160a01b03166001600160a01b031663e5a6b10f6040518163ffffffff1660e01b8152600401602060405180830381865afa158015613dbb573d6000803e3d6000fd5b505050506040513d601f19601f82011682018060405250810190613ddf9190614a58565b90506001600160a01b038116613e705781341015613e3f5760405162461bcd60e51b815260206004820152601860248201527f556e6f52653a20696e73756666696369656e74207061696400000000000000006044820152606401610c04565b81341115613e5a57613e5a33613e5584346149f9565b61439a565b600454610c15906001600160a01b03168361439a565b600454610c1590829033906001600160a01b031685614474565b81600003613ece5760405162461bcd60e51b8152602060048201526011602482015270556e6f52653a205a45524f2056616c756560781b6044820152606401610c04565b613ed6612ee0565b6000600460009054906101000a90046001600160a01b03166001600160a01b031663f53fb2006040518163ffffffff1660e01b8152600401602060405180830381865afa158015613f2b573d6000803e3d6000fd5b505050506040513d601f19601f82011682018060405250810190613f4f9190614ac4565b60048054604051637e348b7d60e01b81526001600160a01b0386811693820193909352602481018790529293501690637e348b7d90604401600060405180830381600087803b158015613fa157600080fd5b505af1158015613fb5573d6000803e3d6000fd5b505050506001600160a01b03821660009081526009602090815260409182902082516080810184528154815260018201549281019290925260028101549282019290925260039091015460ff1615156060820152600b54670de0b6b3a76400009083906140228784614a0c565b61402c9190614a0c565b6140369190614a23565b6140409190614a23565b816020015161404f9190614a45565b60208201528161406785670de0b6b3a7640000614a0c565b6140719190614a23565b81604001516140809190614a45565b60408281019182526001600160a01b038581166000908152600960209081529083902085518155908501516001808301919091559351600282015560608501516003909101805460ff191691151591909117905591549051638be5a39f60e01b815260048101879052911690638be5a39f90602401600060405180830381600087803b15801561410f57600080fd5b505af1158015612976573d6000803e3d6000fd5b60048054604051631665744b60e11b81526001600160a01b038481169382019390935260009283928392911690632ccae89690602401606060405180830381865afa158015614176573d6000803e3d6000fd5b505050506040513d601f19601f8201168201806040525081019061419a91906149b5565b5091505080156141b05750600093849350915050565b6001600160a01b038416600090815260096020526040812060020154600b54909190670de0b6b3a7640000906141e69084614a0c565b6141f09190614a23565b6001600160a01b0387166000908152600960205260408120600101549192509061421a90836149f9565b6001600160a01b0390971660009081526009602052604090206001019190915550939492505050565b61424d8282611f28565b610c155760405163e2517d3f60e01b81526001600160a01b038216600482015260248101839052604401610c04565b600080516020614c5d8339815191525460ff16611f2657604051638dfc202b60e01b815260040160405180910390fd5b6000600080516020614c1d8339815191526142c78484611f28565b15613bff576000848152602082815260408083206001600160a01b0387168085529252808320805460ff1916905551339287917ff6391f5c32d9c69d2a47ea670b442974b53935d1edc7fd64eb21e047a839171b9190a46001915050610b9a565b7ff0c57e16840df040f15088dc2f81fe391c3923bec73e23a9662efc9c229c6a0054600160401b900460ff16611f2657604051631afcd79f60e31b815260040160405180910390fd5b613b3e614328565b614381614328565b600080516020614c5d833981519152805460ff19169055565b604080516000808252602082019092526001600160a01b0384169083906040516143c49190614bcd565b60006040518083038185875af1925050503d8060008114614401576040519150601f19603f3d011682016040523d82523d6000602084013e614406565b606091505b50509050806111645760405162461bcd60e51b815260206004820152603460248201527f5472616e7366657248656c7065723a3a736166655472616e736665724554483a60448201527308115512081d1c985b9cd9995c8819985a5b195960621b6064820152608401610c04565b604080516001600160a01b0385811660248301528481166044830152606480830185905283518084039091018152608490920183526020820180516001600160e01b03166323b872dd60e01b17905291516000928392908816916144d89190614bcd565b6000604051808303816000865af19150503d8060008114614515576040519150601f19603f3d011682016040523d82523d6000602084013e61451a565b606091505b50915091508180156145445750805115806145445750808060200190518101906145449190614aa2565b6145aa5760405162461bcd60e51b815260206004820152603160248201527f5472616e7366657248656c7065723a3a7472616e7366657246726f6d3a207472604482015270185b9cd9995c919c9bdb4819985a5b1959607a1b6064820152608401610c04565b505050505050565b6000602082840312156145c457600080fd5b81356001600160e01b0319811681146145dc57600080fd5b9392505050565b6000602082840312156145f557600080fd5b5035919050565b6001600160a01b0381168114610e3a57600080fd5b803561461c816145fc565b919050565b60006020828403121561463357600080fd5b81356145dc816145fc565b60008060006060848603121561465357600080fd5b833561465e816145fc565b9250602084013561466e816145fc565b929592945050506040919091013590565b6000806040838503121561469257600080fd5b823561469d816145fc565b915060208301356146ad816145fc565b809150509250929050565b600080604083850312156146cb57600080fd5b8235915060208301356146ad816145fc565b6000806000606084860312156146f257600080fd5b83356146fd816145fc565b9250602084013561470d816145fc565b9150604084013561471d816145fc565b809150509250925092565b60008083601f84011261473a57600080fd5b50813567ffffffffffffffff81111561475257600080fd5b60208301915083602082850101111561476a57600080fd5b9250929050565b60008060008060008060008060c0898b03121561478d57600080fd5b883567ffffffffffffffff808211156147a557600080fd5b6147b18c838d01614728565b909a50985060208b01359150808211156147ca57600080fd5b506147d78b828c01614728565b90975095505060408901356147eb816145fc565b935060608901356147fb816145fc565b979a969950949793969295929450505060808201359160a0013590565b634e487b7160e01b600052604160045260246000fd5b6000602080838503121561484157600080fd5b823567ffffffffffffffff8082111561485957600080fd5b818501915085601f83011261486d57600080fd5b81358181111561487f5761487f614818565b8060051b604051601f19603f830116810181811085821117156148a4576148a4614818565b6040529182528482019250838101850191888311156148c257600080fd5b938501935b828510156148e7576148d885614611565b845293850193928501926148c7565b98975050505050505050565b60008060006060848603121561490857600080fd5b83359250602084013561466e816145fc565b6020808252818101527f556e6f52653a20726f6c6c206c6f636b2074696d65206e6f7420706173736564604082015260600190565b602080825260159082015274155b9bd4994e881c1bdbdb081a5cc81ada5b1b1959605a1b604082015260600190565b60208082526019908201527f556e6f52653a206e6f7420617661696c61626c652074696d6500000000000000604082015260600190565b6000806000606084860312156149ca57600080fd5b8351925060208401519150604084015190509250925092565b634e487b7160e01b600052601160045260246000fd5b81810381811115610b9a57610b9a6149e3565b8082028115828204841417610b9a57610b9a6149e3565b600082614a4057634e487b7160e01b600052601260045260246000fd5b500490565b80820180821115610b9a57610b9a6149e3565b600060208284031215614a6a57600080fd5b81516145dc816145fc565b602080825260139082015272556e6f52653a207a65726f206164647265737360681b604082015260600190565b600060208284031215614ab457600080fd5b815180151581146145dc57600080fd5b600060208284031215614ad657600080fd5b5051919050565b81835281816020850137506000828201602090810191909152601f909101601f19169091010190565b608081526000614b1a60808301888a614add565b8281036020840152614b2d818789614add565b6001600160a01b039586166040850152939094166060909201919091525095945050505050565b60008060408385031215614b6757600080fd5b505080516020909101519092909150565b634e487b7160e01b600052603260045260246000fd5b815160009082906020808601845b83811015614bc15781516001600160a01b031685529382019390820190600101614b9c565b50929695505050505050565b6000825160005b81811015614bee5760208186018101518583015201614bd4565b50600092019182525091905056fea70365933f78520ef41d6645ba61e509916296603327302d41466c063e8e260802dd7bc7dec4dceedda775e58dd541e08a116c6c53815c0bd028192f7b6268003b745c09aefb8f732a168ec71c3c87b50c0a4cfd1d104649ae3c04a4623b26bfcd5ed15c6e187e77e9aee88184c21f4f2182ab5827cb3b7e07fbedcd63f03300a49807205ce4d355092ef5a8a18f56e8913cf4a201fbe287825b095693c21775a2646970667358221220064231dd8351ac9234681f949a70f9804e0e9a9f1a91c6c4f40ea49276fe630764736f6c63430008170033",
  "devdoc": {
    "errors": {
      "AccessControlBadConfirmation()": [
        {
          "details": "The caller of a function is not the expected one. NOTE: Don't confuse with {AccessControlUnauthorizedAccount}."
        }
      ],
      "AccessControlUnauthorizedAccount(address,bytes32)": [
        {
          "details": "The `account` is missing a role."
        }
      ],
      "EnforcedPause()": [
        {
          "details": "The operation failed because the contract is paused."
        }
      ],
      "ExpectedPause()": [
        {
          "details": "The operation failed because the contract is not paused."
        }
      ],
      "InvalidInitialization()": [
        {
          "details": "The contract is already initialized."
        }
      ],
      "NotInitializing()": [
        {
          "details": "The contract is not initializing."
        }
      ],
      "ReentrancyGuardReentrantCall()": [
        {
          "details": "Unauthorized reentrant call."
        }
      ]
    },
    "events": {
      "Initialized(uint64)": {
        "details": "Triggered when the contract has been initialized or reinitialized."
      },
      "Paused(address)": {
        "details": "Emitted when the pause is triggered by `account`."
      },
      "RoleAdminChanged(bytes32,bytes32,bytes32)": {
        "details": "Emitted when `newAdminRole` is set as ``role``'s admin role, replacing `previousAdminRole` `DEFAULT_ADMIN_ROLE` is the starting admin for all roles, despite {RoleAdminChanged} not being emitted signaling this."
      },
      "RoleGranted(bytes32,address,address)": {
        "details": "Emitted when `account` is granted `role`. `sender` is the account that originated the contract call, an admin role bearer except when using {AccessControl-_setupRole}."
      },
      "RoleRevoked(bytes32,address,address)": {
        "details": "Emitted when `account` is revoked `role`. `sender` is the account that originated the contract call:   - if using `revokeRole`, it is the admin role bearer   - if using `renounceRole`, it is the role bearer (i.e. `account`)"
      },
      "Unpaused(address)": {
        "details": "Emitted when the pause is lifted by `account`."
      }
    },
    "kind": "dev",
    "methods": {
      "cancelWithdrawRequest()": {
        "details": "user can cancel its pending withdraw request"
      },
      "createRewarder(address,address,address)": {
        "details": "create rewarder with UNO token "
      },
      "createRiskPool(string,string,address,address,uint256,uint256)": {
        "details": "create Risk pool with UNO from SSIP owner"
      },
      "enterInPool(uint256)": {
        "details": "stake user collateral, update user reward per block",
        "params": {
          "_amount": "amount to deposit to pool"
        }
      },
      "getRoleAdmin(bytes32)": {
        "details": "Returns the admin role that controls `role`. See {grantRole} and {revokeRole}. To change a role's admin, use {_setRoleAdmin}."
      },
      "getStakedAmountPerUser(address)": {
        "details": "return user staked currency corresponding to current lp price of uno"
      },
      "getTotalWithdrawPendingAmount()": {
        "details": "get total withdraw request amount in pending for the risk pool in UNO"
      },
      "getWithdrawRequestPerUser(address)": {
        "details": "get withdraw request amount in pending per user in UNO"
      },
      "grantRole(bytes32,address)": {
        "details": "Grants `role` to `account`. If `account` had not been already granted `role`, emits a {RoleGranted} event. Requirements: - the caller must have ``role``'s admin role. May emit a {RoleGranted} event."
      },
      "harvest(address)": {
        "details": "withdraw user pending uno",
        "params": {
          "_to": "user address"
        }
      },
      "hasRole(bytes32,address)": {
        "details": "Returns `true` if `account` has been granted `role`."
      },
      "killPool()": {
        "details": "kill pool to restrict pool functionality, can only by called by admin role"
      },
      "leaveFromPending(uint256)": {
        "details": "user can submit claim again and receive his funds into his wallet after 10 days since last WR."
      },
      "leaveFromPoolInPending(uint256)": {
        "details": "WR will be in pending for 10 days at least"
      },
      "migrate()": {
        "details": "migrate user to new version "
      },
      "pausePool()": {
        "details": "pause pool to restrict pool functionality, can only by called by admin role"
      },
      "paused()": {
        "details": "Returns true if the contract is paused, and false otherwise."
      },
      "pendingUno(address)": {
        "details": "return pending uno to claim of `_to` address"
      },
      "renounceRole(bytes32,address)": {
        "details": "Revokes `role` from the calling account. Roles are often managed via {grantRole} and {revokeRole}: this function's purpose is to provide a mechanism for accounts to lose their privileges if they are compromised (such as when a trusted device is misplaced). If the calling account had been revoked `role`, emits a {RoleRevoked} event. Requirements: - the caller must be `callerConfirmation`. May emit a {RoleRevoked} event."
      },
      "revivePool()": {
        "details": "revive pool, can only by called by admin role"
      },
      "revokeRole(bytes32,address)": {
        "details": "Revokes `role` from `account`. If `account` had been granted `role`, emits a {RoleRevoked} event. Requirements: - the caller must have ``role``'s admin role. May emit a {RoleRevoked} event."
      },
      "rollOverReward(address[])": {
        "details": "user roll over its pending uno to stake"
      },
      "setCapitalAgent(address)": {
        "details": "set new capital agent, can only by called by admin role",
        "params": {
          "_capitalAgent": "new capital agent address"
        }
      },
      "setLockTime(uint256)": {
        "details": "lock time, only admin role call this function"
      },
      "setMigrateTo(address)": {
        "details": "set migrate address, can only by called by admin role",
        "params": {
          "_migrateTo": "new migrate address"
        }
      },
      "setMinLPCapital(uint256)": {
        "details": "update min lp capital, only admin role call this function"
      },
      "setRewardMultiplier(uint256)": {
        "details": "update reward muiltiplier, can only by called by admin role",
        "params": {
          "_rewardMultiplier": "value to set"
        }
      },
      "setStakingStartTime(uint256)": {
        "details": "set staking start time, only admin role call this function"
      },
      "settlePayout(uint256,address,uint256)": {
        "details": "claim policy to payout, can only be called by claim processor role"
      },
      "supportsInterface(bytes4)": {
        "details": "See {IERC165-supportsInterface}."
      },
      "toggleEmergencyWithdraw()": {
        "details": "toggle emergency withdraw bool to restrict or use this emergency withdraw, only admin role call this function"
      },
      "toggleRollOver()": {
        "details": "user can toggle its roll over bool"
      },
      "unpausePool()": {
        "details": "unpause pool, can only by called by admin role"
      },
      "updatePool()": {
        "details": "update pool last reward and accumulated uno per share, update every time when use enter, withdraw from pool"
      }
    },
    "version": 1
  },
  "userdoc": {
    "kind": "user",
    "methods": {},
    "version": 1
  },
  "storageLayout": {
    "storage": [
      {
        "astId": 11190,
        "contract": "contracts/SingleSidedInsurancePool.sol:SingleSidedInsurancePool",
        "label": "migrateTo",
        "offset": 0,
        "slot": "0",
        "type": "t_address"
      },
      {
        "astId": 11192,
        "contract": "contracts/SingleSidedInsurancePool.sol:SingleSidedInsurancePool",
        "label": "capitalAgent",
        "offset": 0,
        "slot": "1",
        "type": "t_address"
      },
      {
        "astId": 11194,
        "contract": "contracts/SingleSidedInsurancePool.sol:SingleSidedInsurancePool",
        "label": "syntheticSSIP",
        "offset": 0,
        "slot": "2",
        "type": "t_address"
      },
      {
        "astId": 11196,
        "contract": "contracts/SingleSidedInsurancePool.sol:SingleSidedInsurancePool",
        "label": "killed",
        "offset": 20,
        "slot": "2",
        "type": "t_bool"
      },
      {
        "astId": 11198,
        "contract": "contracts/SingleSidedInsurancePool.sol:SingleSidedInsurancePool",
        "label": "emergencyWithdrawAllowed",
        "offset": 21,
        "slot": "2",
        "type": "t_bool"
      },
      {
        "astId": 11200,
        "contract": "contracts/SingleSidedInsurancePool.sol:SingleSidedInsurancePool",
        "label": "rewarder",
        "offset": 0,
        "slot": "3",
        "type": "t_address"
      },
      {
        "astId": 11203,
        "contract": "contracts/SingleSidedInsurancePool.sol:SingleSidedInsurancePool",
        "label": "riskPool",
        "offset": 0,
        "slot": "4",
        "type": "t_address"
      },
      {
        "astId": 11205,
        "contract": "contracts/SingleSidedInsurancePool.sol:SingleSidedInsurancePool",
        "label": "lockTime",
        "offset": 0,
        "slot": "5",
        "type": "t_uint256"
      },
      {
        "astId": 11207,
        "contract": "contracts/SingleSidedInsurancePool.sol:SingleSidedInsurancePool",
        "label": "stakingStartTime",
        "offset": 0,
        "slot": "6",
        "type": "t_uint256"
      },
      {
        "astId": 11236,
        "contract": "contracts/SingleSidedInsurancePool.sol:SingleSidedInsurancePool",
        "label": "roleLockTime",
        "offset": 0,
        "slot": "7",
        "type": "t_mapping(t_bytes32,t_mapping(t_address,t_uint256))"
      },
      {
        "astId": 11241,
        "contract": "contracts/SingleSidedInsurancePool.sol:SingleSidedInsurancePool",
        "label": "policies",
        "offset": 0,
        "slot": "8",
        "type": "t_mapping(t_uint256,t_struct(Policy)11230_storage)"
      },
      {
        "astId": 11246,
        "contract": "contracts/SingleSidedInsurancePool.sol:SingleSidedInsurancePool",
        "label": "userInfo",
        "offset": 0,
        "slot": "9",
        "type": "t_mapping(t_address,t_struct(UserInfo)11223_storage)"
      },
      {
        "astId": 11249,
        "contract": "contracts/SingleSidedInsurancePool.sol:SingleSidedInsurancePool",
        "label": "poolInfo",
        "offset": 0,
        "slot": "10",
        "type": "t_struct(PoolInfo)11214_storage"
      }
    ],
    "types": {
      "t_address": {
        "encoding": "inplace",
        "label": "address",
        "numberOfBytes": "20"
      },
      "t_bool": {
        "encoding": "inplace",
        "label": "bool",
        "numberOfBytes": "1"
      },
      "t_bytes32": {
        "encoding": "inplace",
        "label": "bytes32",
        "numberOfBytes": "32"
      },
      "t_mapping(t_address,t_struct(UserInfo)11223_storage)": {
        "encoding": "mapping",
        "key": "t_address",
        "label": "mapping(address => struct SingleSidedInsurancePool.UserInfo)",
        "numberOfBytes": "32",
        "value": "t_struct(UserInfo)11223_storage"
      },
      "t_mapping(t_address,t_uint256)": {
        "encoding": "mapping",
        "key": "t_address",
        "label": "mapping(address => uint256)",
        "numberOfBytes": "32",
        "value": "t_uint256"
      },
      "t_mapping(t_bytes32,t_mapping(t_address,t_uint256))": {
        "encoding": "mapping",
        "key": "t_bytes32",
        "label": "mapping(bytes32 => mapping(address => uint256))",
        "numberOfBytes": "32",
        "value": "t_mapping(t_address,t_uint256)"
      },
      "t_mapping(t_uint256,t_struct(Policy)11230_storage)": {
        "encoding": "mapping",
        "key": "t_uint256",
        "label": "mapping(uint256 => struct SingleSidedInsurancePool.Policy)",
        "numberOfBytes": "32",
        "value": "t_struct(Policy)11230_storage"
      },
      "t_struct(Policy)11230_storage": {
        "encoding": "inplace",
        "label": "struct SingleSidedInsurancePool.Policy",
        "members": [
          {
            "astId": 11225,
            "contract": "contracts/SingleSidedInsurancePool.sol:SingleSidedInsurancePool",
            "label": "insuranceAmount",
            "offset": 0,
            "slot": "0",
            "type": "t_uint256"
          },
          {
            "astId": 11227,
            "contract": "contracts/SingleSidedInsurancePool.sol:SingleSidedInsurancePool",
            "label": "payoutAddress",
            "offset": 0,
            "slot": "1",
            "type": "t_address"
          },
          {
            "astId": 11229,
            "contract": "contracts/SingleSidedInsurancePool.sol:SingleSidedInsurancePool",
            "label": "settled",
            "offset": 20,
            "slot": "1",
            "type": "t_bool"
          }
        ],
        "numberOfBytes": "64"
      },
      "t_struct(PoolInfo)11214_storage": {
        "encoding": "inplace",
        "label": "struct SingleSidedInsurancePool.PoolInfo",
        "members": [
          {
            "astId": 11209,
            "contract": "contracts/SingleSidedInsurancePool.sol:SingleSidedInsurancePool",
            "label": "lastRewardBlock",
            "offset": 0,
            "slot": "0",
            "type": "t_uint256"
          },
          {
            "astId": 11211,
            "contract": "contracts/SingleSidedInsurancePool.sol:SingleSidedInsurancePool",
            "label": "accUnoPerShare",
            "offset": 0,
            "slot": "1",
            "type": "t_uint256"
          },
          {
            "astId": 11213,
            "contract": "contracts/SingleSidedInsurancePool.sol:SingleSidedInsurancePool",
            "label": "unoMultiplierPerBlock",
            "offset": 0,
            "slot": "2",
            "type": "t_uint256"
          }
        ],
        "numberOfBytes": "96"
      },
      "t_struct(UserInfo)11223_storage": {
        "encoding": "inplace",
        "label": "struct SingleSidedInsurancePool.UserInfo",
        "members": [
          {
            "astId": 11216,
            "contract": "contracts/SingleSidedInsurancePool.sol:SingleSidedInsurancePool",
            "label": "lastWithdrawTime",
            "offset": 0,
            "slot": "0",
            "type": "t_uint256"
          },
          {
            "astId": 11218,
            "contract": "contracts/SingleSidedInsurancePool.sol:SingleSidedInsurancePool",
            "label": "rewardDebt",
            "offset": 0,
            "slot": "1",
            "type": "t_uint256"
          },
          {
            "astId": 11220,
            "contract": "contracts/SingleSidedInsurancePool.sol:SingleSidedInsurancePool",
            "label": "amount",
            "offset": 0,
            "slot": "2",
            "type": "t_uint256"
          },
          {
            "astId": 11222,
            "contract": "contracts/SingleSidedInsurancePool.sol:SingleSidedInsurancePool",
            "label": "isNotRollOver",
            "offset": 0,
            "slot": "3",
            "type": "t_bool"
          }
        ],
        "numberOfBytes": "128"
      },
      "t_uint256": {
        "encoding": "inplace",
        "label": "uint256",
        "numberOfBytes": "32"
      }
    }
  }
}