{
  "address": "0x442d3e1F6f90ac7e3cC67Ee646ac7896286d52E9",
  "abi": [
    {
      "inputs": [],
      "name": "AccessControlBadConfirmation",
      "type": "error"
    },
    {
      "inputs": [
        {
          "internalType": "address",
          "name": "account",
          "type": "address"
        },
        {
          "internalType": "bytes32",
          "name": "neededRole",
          "type": "bytes32"
        }
      ],
      "name": "AccessControlUnauthorizedAccount",
      "type": "error"
    },
    {
      "inputs": [],
      "name": "EnforcedPause",
      "type": "error"
    },
    {
      "inputs": [],
      "name": "ExpectedPause",
      "type": "error"
    },
    {
      "inputs": [],
      "name": "InvalidInitialization",
      "type": "error"
    },
    {
      "inputs": [],
      "name": "NotInitializing",
      "type": "error"
    },
    {
      "inputs": [],
      "name": "ReentrancyGuardReentrantCall",
      "type": "error"
    },
    {
      "anonymous": false,
      "inputs": [
        {
          "indexed": true,
          "internalType": "address",
          "name": "user",
          "type": "address"
        },
        {
          "indexed": false,
          "internalType": "uint256",
          "name": "amount",
          "type": "uint256"
        }
      ],
      "name": "EmergencyWithdraw",
      "type": "event"
    },
    {
      "anonymous": false,
      "inputs": [
        {
          "indexed": true,
          "internalType": "address",
          "name": "user",
          "type": "address"
        },
        {
          "indexed": false,
          "internalType": "bool",
          "name": "EmergencyWithdraw",
          "type": "bool"
        }
      ],
      "name": "EmergencyWithdrawToggled",
      "type": "event"
    },
    {
      "anonymous": false,
      "inputs": [
        {
          "indexed": true,
          "internalType": "address",
          "name": "_user",
          "type": "address"
        },
        {
          "indexed": true,
          "internalType": "address",
          "name": "_receiver",
          "type": "address"
        },
        {
          "indexed": false,
          "internalType": "uint256",
          "name": "_amount",
          "type": "uint256"
        }
      ],
      "name": "Harvest",
      "type": "event"
    },
    {
      "anonymous": false,
      "inputs": [
        {
          "indexed": false,
          "internalType": "uint64",
          "name": "version",
          "type": "uint64"
        }
      ],
      "name": "Initialized",
      "type": "event"
    },
    {
      "anonymous": false,
      "inputs": [
        {
          "indexed": true,
          "internalType": "address",
          "name": "_owner",
          "type": "address"
        },
        {
          "indexed": false,
          "internalType": "bool",
          "name": "_killed",
          "type": "bool"
        }
      ],
      "name": "KillPool",
      "type": "event"
    },
    {
      "anonymous": false,
      "inputs": [
        {
          "indexed": true,
          "internalType": "address",
          "name": "_staker",
          "type": "address"
        },
        {
          "indexed": true,
          "internalType": "address",
          "name": "_pool",
          "type": "address"
        },
        {
          "indexed": false,
          "internalType": "uint256",
          "name": "_requestAmount",
          "type": "uint256"
        }
      ],
      "name": "LeftPool",
      "type": "event"
    },
    {
      "anonymous": false,
      "inputs": [
        {
          "indexed": true,
          "internalType": "address",
          "name": "_user",
          "type": "address"
        },
        {
          "indexed": false,
          "internalType": "uint256",
          "name": "_cancelAmount",
          "type": "uint256"
        },
        {
          "indexed": false,
          "internalType": "uint256",
          "name": "_cancelAmountInUno",
          "type": "uint256"
        }
      ],
      "name": "LogCancelWithdrawRequest",
      "type": "event"
    },
    {
      "anonymous": false,
      "inputs": [
        {
          "indexed": true,
          "internalType": "address",
          "name": "_SSRP",
          "type": "address"
        },
        {
          "indexed": true,
          "internalType": "address",
          "name": "_rewarder",
          "type": "address"
        },
        {
          "indexed": false,
          "internalType": "address",
          "name": "_currency",
          "type": "address"
        }
      ],
      "name": "LogCreateRewarder",
      "type": "event"
    },
    {
      "anonymous": false,
      "inputs": [
        {
          "indexed": true,
          "internalType": "address",
          "name": "_SSRP",
          "type": "address"
        },
        {
          "indexed": true,
          "internalType": "address",
          "name": "_syntheticSSRP",
          "type": "address"
        },
        {
          "indexed": true,
          "internalType": "address",
          "name": "_lpToken",
          "type": "address"
        }
      ],
      "name": "LogCreateSyntheticSSRP",
      "type": "event"
    },
    {
      "anonymous": false,
      "inputs": [
        {
          "indexed": true,
          "internalType": "address",
          "name": "_user",
          "type": "address"
        },
        {
          "indexed": false,
          "internalType": "uint256",
          "name": "_withdrawLpAmount",
          "type": "uint256"
        },
        {
          "indexed": false,
          "internalType": "uint256",
          "name": "_withdrawUnoAmount",
          "type": "uint256"
        }
      ],
      "name": "LogLeaveFromPendingSSRP",
      "type": "event"
    },
    {
      "anonymous": false,
      "inputs": [
        {
          "indexed": true,
          "internalType": "address",
          "name": "_from",
          "type": "address"
        },
        {
          "indexed": true,
          "internalType": "address",
          "name": "_to",
          "type": "address"
        },
        {
          "indexed": false,
          "internalType": "uint256",
          "name": "_amount",
          "type": "uint256"
        }
      ],
      "name": "LogLpTransferInSSRP",
      "type": "event"
    },
    {
      "anonymous": false,
      "inputs": [
        {
          "indexed": true,
          "internalType": "address",
          "name": "_user",
          "type": "address"
        },
        {
          "indexed": true,
          "internalType": "address",
          "name": "_migrateTo",
          "type": "address"
        },
        {
          "indexed": false,
          "internalType": "uint256",
          "name": "_migratedAmount",
          "type": "uint256"
        }
      ],
      "name": "LogMigrate",
      "type": "event"
    },
    {
      "anonymous": false,
      "inputs": [
        {
          "indexed": true,
          "internalType": "address",
          "name": "_SSIP",
          "type": "address"
        },
        {
          "indexed": false,
          "internalType": "uint256",
          "name": "_lockTime",
          "type": "uint256"
        }
      ],
      "name": "LogSetLockTime",
      "type": "event"
    },
    {
      "anonymous": false,
      "inputs": [
        {
          "indexed": true,
          "internalType": "address",
          "name": "_SSIP",
          "type": "address"
        },
        {
          "indexed": true,
          "internalType": "address",
          "name": "_migrateTo",
          "type": "address"
        }
      ],
      "name": "LogSetMigrateTo",
      "type": "event"
    },
    {
      "anonymous": false,
      "inputs": [
        {
          "indexed": true,
          "internalType": "address",
          "name": "_SSIP",
          "type": "address"
        },
        {
          "indexed": false,
          "internalType": "uint256",
          "name": "_minLPCapital",
          "type": "uint256"
        }
      ],
      "name": "LogSetMinLPCapital",
      "type": "event"
    },
    {
      "anonymous": false,
      "inputs": [
        {
          "indexed": true,
          "internalType": "address",
          "name": "_SSIP",
          "type": "address"
        },
        {
          "indexed": false,
          "internalType": "uint256",
          "name": "_rewardMultiplier",
          "type": "uint256"
        }
      ],
      "name": "LogSetRewardMultiplier",
      "type": "event"
    },
    {
      "anonymous": false,
      "inputs": [
        {
          "indexed": true,
          "internalType": "address",
          "name": "_SSIP",
          "type": "address"
        },
        {
          "indexed": false,
          "internalType": "bytes32",
          "name": "_role",
          "type": "bytes32"
        },
        {
          "indexed": true,
          "internalType": "address",
          "name": "_account",
          "type": "address"
        }
      ],
      "name": "LogSetRole",
      "type": "event"
    },
    {
      "anonymous": false,
      "inputs": [
        {
          "indexed": true,
          "internalType": "address",
          "name": "_SSIP",
          "type": "address"
        },
        {
          "indexed": false,
          "internalType": "uint256",
          "name": "_startTime",
          "type": "uint256"
        }
      ],
      "name": "LogSetStakingStartTime",
      "type": "event"
    },
    {
      "anonymous": false,
      "inputs": [
        {
          "indexed": false,
          "internalType": "uint256",
          "name": "_lastRewardBlock",
          "type": "uint256"
        },
        {
          "indexed": false,
          "internalType": "uint256",
          "name": "_lpSupply",
          "type": "uint256"
        },
        {
          "indexed": false,
          "internalType": "uint256",
          "name": "_accUnoPerShare",
          "type": "uint256"
        }
      ],
      "name": "LogUpdatePool",
      "type": "event"
    },
    {
      "anonymous": false,
      "inputs": [
        {
          "indexed": false,
          "internalType": "address",
          "name": "account",
          "type": "address"
        }
      ],
      "name": "Paused",
      "type": "event"
    },
    {
      "anonymous": false,
      "inputs": [
        {
          "indexed": true,
          "internalType": "address",
          "name": "_user",
          "type": "address"
        },
        {
          "indexed": false,
          "internalType": "uint256",
          "name": "_claimAmount",
          "type": "uint256"
        }
      ],
      "name": "PolicyClaim",
      "type": "event"
    },
    {
      "anonymous": false,
      "inputs": [
        {
          "indexed": true,
          "internalType": "address",
          "name": "_owner",
          "type": "address"
        },
        {
          "indexed": false,
          "internalType": "bool",
          "name": "_alive",
          "type": "bool"
        }
      ],
      "name": "PoolAlived",
      "type": "event"
    },
    {
      "anonymous": false,
      "inputs": [
        {
          "indexed": true,
          "internalType": "address",
          "name": "_SSRP",
          "type": "address"
        },
        {
          "indexed": true,
          "internalType": "address",
          "name": "_pool",
          "type": "address"
        }
      ],
      "name": "RiskPoolCreated",
      "type": "event"
    },
    {
      "anonymous": false,
      "inputs": [
        {
          "indexed": true,
          "internalType": "bytes32",
          "name": "role",
          "type": "bytes32"
        },
        {
          "indexed": true,
          "internalType": "bytes32",
          "name": "previousAdminRole",
          "type": "bytes32"
        },
        {
          "indexed": true,
          "internalType": "bytes32",
          "name": "newAdminRole",
          "type": "bytes32"
        }
      ],
      "name": "RoleAdminChanged",
      "type": "event"
    },
    {
      "anonymous": false,
      "inputs": [
        {
          "indexed": true,
          "internalType": "bytes32",
          "name": "role",
          "type": "bytes32"
        },
        {
          "indexed": true,
          "internalType": "address",
          "name": "account",
          "type": "address"
        },
        {
          "indexed": true,
          "internalType": "address",
          "name": "sender",
          "type": "address"
        }
      ],
      "name": "RoleGranted",
      "type": "event"
    },
    {
      "anonymous": false,
      "inputs": [
        {
          "indexed": true,
          "internalType": "bytes32",
          "name": "role",
          "type": "bytes32"
        },
        {
          "indexed": true,
          "internalType": "address",
          "name": "account",
          "type": "address"
        },
        {
          "indexed": true,
          "internalType": "address",
          "name": "sender",
          "type": "address"
        }
      ],
      "name": "RoleRevoked",
      "type": "event"
    },
    {
      "anonymous": false,
      "inputs": [
        {
          "indexed": true,
          "internalType": "address[]",
          "name": "_staker",
          "type": "address[]"
        },
        {
          "indexed": true,
          "internalType": "address",
          "name": "_pool",
          "type": "address"
        },
        {
          "indexed": false,
          "internalType": "uint256",
          "name": "_amount",
          "type": "uint256"
        }
      ],
      "name": "RollOverReward",
      "type": "event"
    },
    {
      "anonymous": false,
      "inputs": [
        {
          "indexed": true,
          "internalType": "address",
          "name": "_staker",
          "type": "address"
        },
        {
          "indexed": true,
          "internalType": "address",
          "name": "_pool",
          "type": "address"
        },
        {
          "indexed": false,
          "internalType": "uint256",
          "name": "_amount",
          "type": "uint256"
        }
      ],
      "name": "StakedInPool",
      "type": "event"
    },
    {
      "anonymous": false,
      "inputs": [
        {
          "indexed": false,
          "internalType": "address",
          "name": "account",
          "type": "address"
        }
      ],
      "name": "Unpaused",
      "type": "event"
    },
    {
      "inputs": [],
      "name": "ACC_UNO_PRECISION",
      "outputs": [
        {
          "internalType": "uint256",
          "name": "",
          "type": "uint256"
        }
      ],
      "stateMutability": "view",
      "type": "function"
    },
    {
      "inputs": [],
      "name": "ADMIN_ROLE",
      "outputs": [
        {
          "internalType": "bytes32",
          "name": "",
          "type": "bytes32"
        }
      ],
      "stateMutability": "view",
      "type": "function"
    },
    {
      "inputs": [],
      "name": "BOT_ROLE",
      "outputs": [
        {
          "internalType": "bytes32",
          "name": "",
          "type": "bytes32"
        }
      ],
      "stateMutability": "view",
      "type": "function"
    },
    {
      "inputs": [],
      "name": "CLAIM_ASSESSOR_ROLE",
      "outputs": [
        {
          "internalType": "bytes32",
          "name": "",
          "type": "bytes32"
        }
      ],
      "stateMutability": "view",
      "type": "function"
    },
    {
      "inputs": [],
      "name": "DEFAULT_ADMIN_ROLE",
      "outputs": [
        {
          "internalType": "bytes32",
          "name": "",
          "type": "bytes32"
        }
      ],
      "stateMutability": "view",
      "type": "function"
    },
    {
      "inputs": [],
      "name": "cancelWithdrawRequest",
      "outputs": [],
      "stateMutability": "nonpayable",
      "type": "function"
    },
    {
      "inputs": [
        {
          "internalType": "address",
          "name": "_operator",
          "type": "address"
        },
        {
          "internalType": "address",
          "name": "_factory",
          "type": "address"
        },
        {
          "internalType": "address",
          "name": "_currency",
          "type": "address"
        }
      ],
      "name": "createRewarder",
      "outputs": [],
      "stateMutability": "nonpayable",
      "type": "function"
    },
    {
      "inputs": [
        {
          "internalType": "string",
          "name": "_name",
          "type": "string"
        },
        {
          "internalType": "string",
          "name": "_symbol",
          "type": "string"
        },
        {
          "internalType": "address",
          "name": "_factory",
          "type": "address"
        },
        {
          "internalType": "address",
          "name": "_currency",
          "type": "address"
        },
        {
          "internalType": "uint256",
          "name": "_rewardMultiplier",
          "type": "uint256"
        }
      ],
      "name": "createRiskPool",
      "outputs": [],
      "stateMutability": "nonpayable",
      "type": "function"
    },
    {
      "inputs": [
        {
          "internalType": "address",
          "name": "_owner",
          "type": "address"
        },
        {
          "internalType": "address",
          "name": "_factory",
          "type": "address"
        }
      ],
      "name": "createSyntheticSSRP",
      "outputs": [],
      "stateMutability": "nonpayable",
      "type": "function"
    },
    {
      "inputs": [],
      "name": "emergencyWithdraw",
      "outputs": [],
      "stateMutability": "nonpayable",
      "type": "function"
    },
    {
      "inputs": [],
      "name": "emergencyWithdrawAllowed",
      "outputs": [
        {
          "internalType": "bool",
          "name": "",
          "type": "bool"
        }
      ],
      "stateMutability": "view",
      "type": "function"
    },
    {
      "inputs": [
        {
          "internalType": "uint256",
          "name": "_amount",
          "type": "uint256"
        }
      ],
      "name": "enterInPool",
      "outputs": [],
      "stateMutability": "nonpayable",
      "type": "function"
    },
    {
      "inputs": [
        {
          "internalType": "bytes32",
          "name": "role",
          "type": "bytes32"
        }
      ],
      "name": "getRoleAdmin",
      "outputs": [
        {
          "internalType": "bytes32",
          "name": "",
          "type": "bytes32"
        }
      ],
      "stateMutability": "view",
      "type": "function"
    },
    {
      "inputs": [
        {
          "internalType": "address",
          "name": "_to",
          "type": "address"
        }
      ],
      "name": "getStakedAmountPerUser",
      "outputs": [
        {
          "internalType": "uint256",
          "name": "unoAmount",
          "type": "uint256"
        },
        {
          "internalType": "uint256",
          "name": "lpAmount",
          "type": "uint256"
        }
      ],
      "stateMutability": "view",
      "type": "function"
    },
    {
      "inputs": [],
      "name": "getTotalWithdrawPendingAmount",
      "outputs": [
        {
          "internalType": "uint256",
          "name": "",
          "type": "uint256"
        }
      ],
      "stateMutability": "view",
      "type": "function"
    },
    {
      "inputs": [
        {
          "internalType": "address",
          "name": "_user",
          "type": "address"
        }
      ],
      "name": "getWithdrawRequestPerUser",
      "outputs": [
        {
          "internalType": "uint256",
          "name": "pendingAmount",
          "type": "uint256"
        },
        {
          "internalType": "uint256",
          "name": "pendingAmountInUno",
          "type": "uint256"
        },
        {
          "internalType": "uint256",
          "name": "originUnoAmount",
          "type": "uint256"
        },
        {
          "internalType": "uint256",
          "name": "requestTime",
          "type": "uint256"
        }
      ],
      "stateMutability": "view",
      "type": "function"
    },
    {
      "inputs": [
        {
          "internalType": "bytes32",
          "name": "role",
          "type": "bytes32"
        },
        {
          "internalType": "address",
          "name": "account",
          "type": "address"
        }
      ],
      "name": "grantRole",
      "outputs": [],
      "stateMutability": "nonpayable",
      "type": "function"
    },
    {
      "inputs": [
        {
          "internalType": "address",
          "name": "_to",
          "type": "address"
        }
      ],
      "name": "harvest",
      "outputs": [],
      "stateMutability": "nonpayable",
      "type": "function"
    },
    {
      "inputs": [
        {
          "internalType": "bytes32",
          "name": "role",
          "type": "bytes32"
        },
        {
          "internalType": "address",
          "name": "account",
          "type": "address"
        }
      ],
      "name": "hasRole",
      "outputs": [
        {
          "internalType": "bool",
          "name": "",
          "type": "bool"
        }
      ],
      "stateMutability": "view",
      "type": "function"
    },
    {
      "inputs": [
        {
          "internalType": "address",
          "name": "_multiSigWallet",
          "type": "address"
        },
        {
          "internalType": "address",
          "name": "_claimAccessor",
          "type": "address"
        }
      ],
      "name": "initialize",
      "outputs": [],
      "stateMutability": "nonpayable",
      "type": "function"
    },
    {
      "inputs": [],
      "name": "killPool",
      "outputs": [],
      "stateMutability": "nonpayable",
      "type": "function"
    },
    {
      "inputs": [],
      "name": "killed",
      "outputs": [
        {
          "internalType": "bool",
          "name": "",
          "type": "bool"
        }
      ],
      "stateMutability": "view",
      "type": "function"
    },
    {
      "inputs": [
        {
          "internalType": "uint256",
          "name": "_amount",
          "type": "uint256"
        }
      ],
      "name": "leaveFromPending",
      "outputs": [],
      "stateMutability": "nonpayable",
      "type": "function"
    },
    {
      "inputs": [
        {
          "internalType": "uint256",
          "name": "_amount",
          "type": "uint256"
        }
      ],
      "name": "leaveFromPoolInPending",
      "outputs": [],
      "stateMutability": "nonpayable",
      "type": "function"
    },
    {
      "inputs": [],
      "name": "lockTime",
      "outputs": [
        {
          "internalType": "uint256",
          "name": "",
          "type": "uint256"
        }
      ],
      "stateMutability": "view",
      "type": "function"
    },
    {
      "inputs": [
        {
          "internalType": "address",
          "name": "_from",
          "type": "address"
        },
        {
          "internalType": "address",
          "name": "_to",
          "type": "address"
        },
        {
          "internalType": "uint256",
          "name": "_amount",
          "type": "uint256"
        }
      ],
      "name": "lpTransfer",
      "outputs": [],
      "stateMutability": "nonpayable",
      "type": "function"
    },
    {
      "inputs": [],
      "name": "migrate",
      "outputs": [],
      "stateMutability": "nonpayable",
      "type": "function"
    },
    {
      "inputs": [],
      "name": "migrateTo",
      "outputs": [
        {
          "internalType": "address",
          "name": "",
          "type": "address"
        }
      ],
      "stateMutability": "view",
      "type": "function"
    },
    {
      "inputs": [],
      "name": "pausePool",
      "outputs": [],
      "stateMutability": "nonpayable",
      "type": "function"
    },
    {
      "inputs": [],
      "name": "paused",
      "outputs": [
        {
          "internalType": "bool",
          "name": "",
          "type": "bool"
        }
      ],
      "stateMutability": "view",
      "type": "function"
    },
    {
      "inputs": [
        {
          "internalType": "address",
          "name": "_to",
          "type": "address"
        }
      ],
      "name": "pendingUno",
      "outputs": [
        {
          "internalType": "uint256",
          "name": "pending",
          "type": "uint256"
        }
      ],
      "stateMutability": "view",
      "type": "function"
    },
    {
      "inputs": [
        {
          "internalType": "address",
          "name": "_to",
          "type": "address"
        },
        {
          "internalType": "uint256",
          "name": "_amount",
          "type": "uint256"
        }
      ],
      "name": "policyClaim",
      "outputs": [],
      "stateMutability": "nonpayable",
      "type": "function"
    },
    {
      "inputs": [],
      "name": "poolInfo",
      "outputs": [
        {
          "internalType": "uint256",
          "name": "lastRewardBlock",
          "type": "uint256"
        },
        {
          "internalType": "uint256",
          "name": "accUnoPerShare",
          "type": "uint256"
        },
        {
          "internalType": "uint256",
          "name": "unoMultiplierPerBlock",
          "type": "uint256"
        }
      ],
      "stateMutability": "view",
      "type": "function"
    },
    {
      "inputs": [
        {
          "internalType": "bytes32",
          "name": "role",
          "type": "bytes32"
        },
        {
          "internalType": "address",
          "name": "callerConfirmation",
          "type": "address"
        }
      ],
      "name": "renounceRole",
      "outputs": [],
      "stateMutability": "nonpayable",
      "type": "function"
    },
    {
      "inputs": [],
      "name": "revivePool",
      "outputs": [],
      "stateMutability": "nonpayable",
      "type": "function"
    },
    {
      "inputs": [
        {
          "internalType": "bytes32",
          "name": "role",
          "type": "bytes32"
        },
        {
          "internalType": "address",
          "name": "account",
          "type": "address"
        }
      ],
      "name": "revokeRole",
      "outputs": [],
      "stateMutability": "nonpayable",
      "type": "function"
    },
    {
      "inputs": [],
      "name": "rewarder",
      "outputs": [
        {
          "internalType": "address",
          "name": "",
          "type": "address"
        }
      ],
      "stateMutability": "view",
      "type": "function"
    },
    {
      "inputs": [],
      "name": "riskPool",
      "outputs": [
        {
          "internalType": "address",
          "name": "",
          "type": "address"
        }
      ],
      "stateMutability": "view",
      "type": "function"
    },
    {
      "inputs": [
        {
          "internalType": "bytes32",
          "name": "",
          "type": "bytes32"
        },
        {
          "internalType": "address",
          "name": "",
          "type": "address"
        }
      ],
      "name": "roleLockTime",
      "outputs": [
        {
          "internalType": "uint256",
          "name": "",
          "type": "uint256"
        }
      ],
      "stateMutability": "view",
      "type": "function"
    },
    {
      "inputs": [
        {
          "internalType": "address[]",
          "name": "_to",
          "type": "address[]"
        }
      ],
      "name": "rollOverReward",
      "outputs": [],
      "stateMutability": "nonpayable",
      "type": "function"
    },
    {
      "inputs": [
        {
          "internalType": "uint256",
          "name": "_lockTime",
          "type": "uint256"
        }
      ],
      "name": "setLockTime",
      "outputs": [],
      "stateMutability": "nonpayable",
      "type": "function"
    },
    {
      "inputs": [
        {
          "internalType": "address",
          "name": "_migrateTo",
          "type": "address"
        }
      ],
      "name": "setMigrateTo",
      "outputs": [],
      "stateMutability": "nonpayable",
      "type": "function"
    },
    {
      "inputs": [
        {
          "internalType": "uint256",
          "name": "_minLPCapital",
          "type": "uint256"
        }
      ],
      "name": "setMinLPCapital",
      "outputs": [],
      "stateMutability": "nonpayable",
      "type": "function"
    },
    {
      "inputs": [
        {
          "internalType": "uint256",
          "name": "_rewardMultiplier",
          "type": "uint256"
        }
      ],
      "name": "setRewardMultiplier",
      "outputs": [],
      "stateMutability": "nonpayable",
      "type": "function"
    },
    {
      "inputs": [
        {
          "internalType": "bytes32",
          "name": "_role",
          "type": "bytes32"
        },
        {
          "internalType": "address",
          "name": "_account",
          "type": "address"
        }
      ],
      "name": "setRole",
      "outputs": [],
      "stateMutability": "nonpayable",
      "type": "function"
    },
    {
      "inputs": [
        {
          "internalType": "uint256",
          "name": "_startTime",
          "type": "uint256"
        }
      ],
      "name": "setStakingStartTime",
      "outputs": [],
      "stateMutability": "nonpayable",
      "type": "function"
    },
    {
      "inputs": [],
      "name": "stakingStartTime",
      "outputs": [
        {
          "internalType": "uint256",
          "name": "",
          "type": "uint256"
        }
      ],
      "stateMutability": "view",
      "type": "function"
    },
    {
      "inputs": [
        {
          "internalType": "bytes4",
          "name": "interfaceId",
          "type": "bytes4"
        }
      ],
      "name": "supportsInterface",
      "outputs": [
        {
          "internalType": "bool",
          "name": "",
          "type": "bool"
        }
      ],
      "stateMutability": "view",
      "type": "function"
    },
    {
      "inputs": [],
      "name": "syntheticSSRP",
      "outputs": [
        {
          "internalType": "address",
          "name": "",
          "type": "address"
        }
      ],
      "stateMutability": "view",
      "type": "function"
    },
    {
      "inputs": [],
      "name": "toggleEmergencyWithdraw",
      "outputs": [],
      "stateMutability": "nonpayable",
      "type": "function"
    },
    {
      "inputs": [],
      "name": "toggleRollOver",
      "outputs": [],
      "stateMutability": "nonpayable",
      "type": "function"
    },
    {
      "inputs": [],
      "name": "unpausePool",
      "outputs": [],
      "stateMutability": "nonpayable",
      "type": "function"
    },
    {
      "inputs": [],
      "name": "updatePool",
      "outputs": [],
      "stateMutability": "nonpayable",
      "type": "function"
    },
    {
      "inputs": [
        {
          "internalType": "address",
          "name": "",
          "type": "address"
        }
      ],
      "name": "userInfo",
      "outputs": [
        {
          "internalType": "uint256",
          "name": "lastWithdrawTime",
          "type": "uint256"
        },
        {
          "internalType": "uint256",
          "name": "rewardDebt",
          "type": "uint256"
        },
        {
          "internalType": "uint256",
          "name": "amount",
          "type": "uint256"
        },
        {
          "internalType": "bool",
          "name": "isNotRollOver",
          "type": "bool"
        }
      ],
      "stateMutability": "view",
      "type": "function"
    }
  ],
  "transactionHash": "0x85c419ca59b3691c83c051c2cc7add1bd4ef1de399aa5cae680f625e26164997",
  "args": [],
  "numDeployments": 1,
  "solcInputHash": "d2fc875e3afcbd9499ae3f5e7a33f9ef",
  "bytecode": "0x608060405234801561001057600080fd5b506152ee806100206000396000f3fe608060405234801561001057600080fd5b50600436106103625760003560e01c80638fd3ab80116101c8578063ba61945711610104578063e08c5de1116100a2578063e3161ddd1161007c578063e3161ddd1461085f578063e3824a3814610867578063f1daf24c1461087a578063fd91db961461088d57600080fd5b8063e08c5de114610819578063e0c8d9a51461082c578063e19e71681461085757600080fd5b8063d99fec71116100de578063d99fec71146107c4578063db2e21bc146107eb578063dcc3e06e146107f3578063dff872031461080657600080fd5b8063ba61945714610776578063c4e5dacf1461079e578063d547741f146107b157600080fd5b8063a217fddf11610171578063aceda7f91161014b578063aceda7f914610703578063ae04d45d14610729578063af16d6e01461073c578063b15037741461074f57600080fd5b8063a217fddf146106eb578063a3bdd632146106f3578063aa09d5b7146106fb57600080fd5b806393b6b86c116101a257806393b6b86c146106b257806398c6e760146106c55780639cdf6c27146106d857600080fd5b80638fd3ab801461061f57806391d14854146106275780639336f4061461067f57600080fd5b8063485cc955116102a2578063736ec05c116102405780637da2a4a71161021a5780637da2a4a7146105c35780638395206c146105ea57806389919b71146105fd5780638ba04b171461060c57600080fd5b8063736ec05c1461059357806375b238fc146105a65780637a39b8d8146105bb57600080fd5b80635c975abb1161027c5780635c975abb146105455780635d90bad91461056f57806367755415146105825780636abfd1831461058a57600080fd5b8063485cc955146104da5780634c032366146104ed5780635a2f3d091461051857600080fd5b80630e9ae4201161030f578063248a9ca3116102e9578063248a9ca31461045f5780632e4a0142146104a15780632f2ff15d146104b457806336568abe146104c757600080fd5b80630e9ae420146103de5780631959a002146103f15780631f3a0e411461044b57600080fd5b80630bd075a1116103405780630bd075a1146103a15780630d668087146103b45780630e5c011e146103cb57600080fd5b806301ffc9a714610367578063068cc5141461038f578063093cf18f14610399575b600080fd5b61037a610375366004614c50565b6108a0565b60405190151581526020015b60405180910390f35b610397610939565b005b6103976109f0565b6103976103af366004614c99565b610b2b565b6103bd60025481565b604051908152602001610386565b6103976103d9366004614cc7565b610c61565b6103976103ec366004614ce4565b610d52565b6104296103ff366004614cc7565b60066020526000908152604090208054600182015460028301546003909301549192909160ff1684565b6040805194855260208501939093529183015215156060820152608001610386565b60055461037a90600160a01b900460ff1681565b6103bd61046d366004614c99565b60009081527f02dd7bc7dec4dceedda775e58dd541e08a116c6c53815c0bd028192f7b626800602052604090206001015490565b6103976104af366004614d25565b611075565b6103976104c2366004614d51565b61139f565b6103976104d5366004614d51565b6113e3565b6103976104e8366004614d81565b61142f565b600154610500906001600160a01b031681565b6040516001600160a01b039091168152602001610386565b600854600954600a5461052a92919083565b60408051938452602084019290925290820152606001610386565b7fcd5ed15c6e187e77e9aee88184c21f4f2182ab5827cb3b7e07fbedcd63f033005460ff1661037a565b61039761057d366004614c99565b6118a5565b6103976119d2565b6103bd60035481565b6103976105a1366004614cc7565b611ad3565b6103bd60008051602061529983398151915281565b610397611c29565b610397336000908152600660205260409020600301805460ff19811660ff90911615179055565b6103976105f8366004614c99565b611d30565b6103bd670de0b6b3a764000081565b61039761061a366004614df8565b611fff565b6103976122dc565b61037a610635366004614d51565b60009182527f02dd7bc7dec4dceedda775e58dd541e08a116c6c53815c0bd028192f7b626800602090815260408084206001600160a01b0393909316845291905290205460ff1690565b61069261068d366004614cc7565b61257b565b604080519485526020850193909352918301526060820152608001610386565b6103976106c0366004614c99565b612699565b600054610500906001600160a01b031681565b6103976106e6366004614d81565b612838565b6103bd600081565b6103bd612b01565b610397612b8d565b60055461037a907501000000000000000000000000000000000000000000900460ff1681565b610397610737366004614c99565b612c3b565b61039761074a366004614e98565b612d68565b6103bd7f6d5c9827c1f410bbb61d3b2a0a34b6b30492d9a1fd38588edca7ec4562ab9c9b81565b610789610784366004614cc7565b61303f565b60408051928352602083019190915201610386565b600554610500906001600160a01b031681565b6103976107bf366004614d51565b6130eb565b6103bd7fa7fb00808094bb0669054259df045936913ac8f131613a7a6da2e81ac75d5f4881565b61039761312f565b600454610500906001600160a01b031681565b610397610814366004614d51565b613378565b6103bd610827366004614cc7565b613465565b6103bd61083a366004614d51565b600760209081526000928352604080842090915290825290205481565b61039761359f565b610397613670565b610397610875366004614c99565b6137a9565b610397610888366004614c99565b6138dd565b61039761089b366004614f4e565b613b4a565b60007fffffffff0000000000000000000000000000000000000000000000000000000082167f7965db0b00000000000000000000000000000000000000000000000000000000148061093357507f01ffc9a7000000000000000000000000000000000000000000000000000000007fffffffff000000000000000000000000000000000000000000000000000000008316145b92915050565b60008051602061529983398151915261095181614011565b3360009081527fa70365933f78520ef41d6645ba61e509916296603327302d41466c063e8e26086020526040902054600080516020615299833981519152904210156109e45760405162461bcd60e51b815260206004820181905260248201527f556e6f52653a20726f6c6c206c6f636b2074696d65206e6f742070617373656460448201526064015b60405180910390fd5b6109ec61401b565b5050565b600080516020615299833981519152610a0881614011565b3360009081527fa70365933f78520ef41d6645ba61e509916296603327302d41466c063e8e2608602052604090205460008051602061529983398151915290421015610a965760405162461bcd60e51b815260206004820181905260248201527f556e6f52653a20726f6c6c206c6f636b2074696d65206e6f742070617373656460448201526064016109db565b6005805460ff750100000000000000000000000000000000000000000080830482161581027fffffffffffffffffffff00ffffffffffffffffffffffffffffffffffffffffff909316929092179283905560405130937f4a1fbdd1e9ef46cfe9e097f622e1d79f51dcd6762c86122e6a8198c5394d640193610b1f939104161515815260200190565b60405180910390a25050565b600080516020615299833981519152610b4381614011565b3360009081527fa70365933f78520ef41d6645ba61e509916296603327302d41466c063e8e2608602052604090205460008051602061529983398151915290421015610bd15760405162461bcd60e51b815260206004820181905260248201527f556e6f52653a20726f6c6c206c6f636b2074696d65206e6f742070617373656460448201526064016109db565b60008311610c215760405162461bcd60e51b815260206004820152601160248201527f556e6f52653a207a65726f2076616c756500000000000000000000000000000060448201526064016109db565b600a83905560405183815230907fbd1dd13c6a5b4a28ebd27fdcb8fdd01aba6bbb9f67599306248f465bcdf9817f906020015b60405180910390a2505050565b600354421015610cb35760405162461bcd60e51b815260206004820152601960248201527f556e6f52653a206e6f7420617661696c61626c652074696d650000000000000060448201526064016109db565b610cbb614087565b600554600160a01b900460ff1615610d155760405162461bcd60e51b815260206004820152601560248201527f556e6f52653a20706f6f6c206973206b696c6c6564000000000000000000000060448201526064016109db565b610d1d6140e3565b610d2681614164565b610d4f60017f9b779b17422d0df92223018b32b4d1fa46e071723d6817e2486d003becc55f0055565b50565b610d5a614087565b610d626140e3565b6005546001600160a01b03163314610dbc5760405162461bcd60e51b815260206004820181905260248201527f556e6f52653a206e6f7420616c6c6f77206f7468657273207472616e7366657260448201526064016109db565b6001546001600160a01b03848116911614801590610de857506001546001600160a01b03838116911614155b1561104757610df683614164565b6001600160a01b03838116600081815260066020526040808220600201546005549151631665744b60e11b81526004810194909452939192911690632ccae89690602401606060405180830381865afa158015610e57573d6000803e3d6000fd5b505050506040513d601f19601f82011682018060405250810190610e7b9190614fed565b50509050828183610e8c9190615031565b1015610eda5760405162461bcd60e51b815260206004820152601760248201527f556e6f52653a2062616c616e6365206f766572666c6f7700000000000000000060448201526064016109db565b600954600090670de0b6b3a764000090610ef49085615044565b610efe919061505b565b600954909150670de0b6b3a764000090610f189086615044565b610f22919061505b565b610f2c9082615031565b6001600160a01b038716600090815260066020526040902060010155610f528484615031565b6001600160a01b038716600090815260066020526040902060020155600954670de0b6b3a764000090610f859086615044565b610f8f919061505b565b6001600160a01b038616600090815260066020526040902060010154610fb5919061507d565b6001600160a01b0386166000908152600660205260409020600181019190915560020154610fe490859061507d565b6001600160a01b0380871660008181526006602052604090819020600201939093559151908816907fe97af49bf17de46bed3f953a242569bed68114f89f39c1afe4012bba1c5963d49061103b9088815260200190565b60405180910390a35050505b61107060017f9b779b17422d0df92223018b32b4d1fa46e071723d6817e2486d003becc55f0055565b505050565b7fa7fb00808094bb0669054259df045936913ac8f131613a7a6da2e81ac75d5f4861109f81614011565b3360009081527f07cf794796064a1dc9f93079878b258b7331026292fbb4d3f9a990077aff9e5d60205260409020547fa7fb00808094bb0669054259df045936913ac8f131613a7a6da2e81ac75d5f489042101561113f5760405162461bcd60e51b815260206004820181905260248201527f556e6f52653a20726f6c6c206c6f636b2074696d65206e6f742070617373656460448201526064016109db565b6003544210156111915760405162461bcd60e51b815260206004820152601960248201527f556e6f52653a206e6f7420617661696c61626c652074696d650000000000000060448201526064016109db565b600554600160a01b900460ff16156111eb5760405162461bcd60e51b815260206004820152601560248201527f556e6f52653a20706f6f6c206973206b696c6c6564000000000000000000000060448201526064016109db565b6111f36140e3565b6001600160a01b0384166112495760405162461bcd60e51b815260206004820152601360248201527f556e6f52653a207a65726f20616464726573730000000000000000000000000060448201526064016109db565b600083116112995760405162461bcd60e51b815260206004820152601260248201527f556e6f52653a207a65726f20616d6f756e74000000000000000000000000000060448201526064016109db565b6005546040517f2e4a01420000000000000000000000000000000000000000000000000000000081526001600160a01b038681166004830152602482018690526000921690632e4a0142906044016020604051808303816000875af1158015611306573d6000803e3d6000fd5b505050506040513d601f19601f8201168201806040525081019061132a9190615090565b9050846001600160a01b03167f6420c9536b9a539410a930b1fd8d115dc296d8b71426dcc0ab64f2f736b7d59f8260405161136791815260200190565b60405180910390a25061139960017f9b779b17422d0df92223018b32b4d1fa46e071723d6817e2486d003becc55f0055565b50505050565b60008281527f02dd7bc7dec4dceedda775e58dd541e08a116c6c53815c0bd028192f7b62680060205260409020600101546113d981614011565b6113998383614296565b6001600160a01b0381163314611425576040517f6697b23200000000000000000000000000000000000000000000000000000000815260040160405180910390fd5b6110708282614365565b7ff0c57e16840df040f15088dc2f81fe391c3923bec73e23a9662efc9c229c6a00805468010000000000000000810460ff16159067ffffffffffffffff1660008115801561147a5750825b905060008267ffffffffffffffff1660011480156114975750303b155b9050811580156114a5575080155b156114dc576040517ff92ee8a900000000000000000000000000000000000000000000000000000000815260040160405180910390fd5b84547fffffffffffffffffffffffffffffffffffffffffffffffff0000000000000000166001178555831561152757845468ff00000000000000001916680100000000000000001785555b6001600160a01b0387166115a35760405162461bcd60e51b815260206004820152602260248201527f556e6f52653a207a65726f206d756c746953696757616c6c657420616464726560448201527f737300000000000000000000000000000000000000000000000000000000000060648201526084016109db565b6003866001600160a01b031663a0e67e2b6040518163ffffffff1660e01b8152600401600060405180830381865afa1580156115e3573d6000803e3d6000fd5b505050506040513d6000823e601f3d908101601f1916820160405261160b91908101906150a9565b511161167f5760405162461bcd60e51b815260206004820152602660248201527f556e6f52653a206d6f7265207468616e207468726565206f776e65727320726560448201527f717569726564000000000000000000000000000000000000000000000000000060648201526084016109db565b6001866001600160a01b031663e75235b86040518163ffffffff1660e01b8152600401602060405180830381865afa1580156116bf573d6000803e3d6000fd5b505050506040513d601f19601f820116820180604052508101906116e39190615090565b116117565760405162461bcd60e51b815260206004820152602e60248201527f556e6f52653a206d6f7265207468616e206f6e65206f776e657273207265717560448201527f6972656420746f2076657269667900000000000000000000000000000000000060648201526084016109db565b611763426203f48061507d565b600355620d2f0060025561177561440b565b61177d61441b565b61178561442b565b61179d60008051602061529983398151915288614296565b506117c87fa7fb00808094bb0669054259df045936913ac8f131613a7a6da2e81ac75d5f4887614296565b506117e160008051602061529983398151915280614433565b6118197fa7fb00808094bb0669054259df045936913ac8f131613a7a6da2e81ac75d5f48600080516020615299833981519152614433565b6118517f6d5c9827c1f410bbb61d3b2a0a34b6b30492d9a1fd38588edca7ec4562ab9c9b600080516020615299833981519152614433565b831561189c57845468ff000000000000000019168555604051600181527fc7f505b2f371ae2175ee4913f4499e1f2633a7b5936321eed1cdaeb6115181d29060200160405180910390a15b50505050505050565b6000805160206152998339815191526118bd81614011565b3360009081527fa70365933f78520ef41d6645ba61e509916296603327302d41466c063e8e260860205260409020546000805160206152998339815191529042101561194b5760405162461bcd60e51b815260206004820181905260248201527f556e6f52653a20726f6c6c206c6f636b2074696d65206e6f742070617373656460448201526064016109db565b6000831161199b5760405162461bcd60e51b815260206004820181905260248201527f556e6f52653a206e6f7420616c6c6f77207a65726f2073746172742074696d6560448201526064016109db565b600383905560405183815230907fa8aa08cc14eef7b97ab4cd52f37082e23f7526bccc98cf91e6a1d412494b905190602001610c54565b6000805160206152998339815191526119ea81614011565b3360009081527fa70365933f78520ef41d6645ba61e509916296603327302d41466c063e8e2608602052604090205460008051602061529983398151915290421015611a785760405162461bcd60e51b815260206004820181905260248201527f556e6f52653a20726f6c6c206c6f636b2074696d65206e6f742070617373656460448201526064016109db565b600580547fffffffffffffffffffffff00ffffffffffffffffffffffffffffffffffffffff1690556040516000815233907f77337fcf1b48e6e024b256962b66c49de98c9f606b2cd9937cc0edbc7a0fb70990602001610b1f565b600080516020615299833981519152611aeb81614011565b3360009081527fa70365933f78520ef41d6645ba61e509916296603327302d41466c063e8e2608602052604090205460008051602061529983398151915290421015611b795760405162461bcd60e51b815260206004820181905260248201527f556e6f52653a20726f6c6c206c6f636b2074696d65206e6f742070617373656460448201526064016109db565b6001600160a01b038316611bcf5760405162461bcd60e51b815260206004820152601360248201527f556e6f52653a207a65726f20616464726573730000000000000000000000000060448201526064016109db565b6000805473ffffffffffffffffffffffffffffffffffffffff19166001600160a01b0385169081178255604051909130917f877238238dbd7134e89b00809ea73fabb50da117ace807a6b31c733bbf55d3699190a3505050565b600080516020615299833981519152611c4181614011565b3360009081527fa70365933f78520ef41d6645ba61e509916296603327302d41466c063e8e2608602052604090205460008051602061529983398151915290421015611ccf5760405162461bcd60e51b815260206004820181905260248201527f556e6f52653a20726f6c6c206c6f636b2074696d65206e6f742070617373656460448201526064016109db565b600580547fffffffffffffffffffffff00ffffffffffffffffffffffffffffffffffffffff16600160a01b1790556040516001815233907f7c952f2e528aa25b4eaf8b6c07af29184b27ce591295e543ced0a27b167dc79490602001610b1f565b600354421015611d825760405162461bcd60e51b815260206004820152601960248201527f556e6f52653a206e6f7420617661696c61626c652074696d650000000000000060448201526064016109db565b611d8a6140e3565b611d9333614164565b336000908152600660209081526040808320600201546005548251627a9fd960e91b815292519194936001600160a01b039091169263f53fb20092600480830193928290030181865afa158015611dee573d6000803e3d6000fd5b505050506040513d601f19601f82011682018060405250810190611e129190615090565b600554604051631665744b60e11b81523360048201529192506000916001600160a01b0390911690632ccae89690602401606060405180830381865afa158015611e60573d6000803e3d6000fd5b505050506040513d601f19601f82011682018060405250810190611e849190614fed565b505090508184670de0b6b3a7640000611e9d9190615044565b611ea7919061505b565b611eb18285615031565b1015611eff5760405162461bcd60e51b815260206004820152601f60248201527f556e6f52653a20776974686472617720616d6f756e74206f766572666c6f770060448201526064016109db565b6005546040517f47bcdb2a000000000000000000000000000000000000000000000000000000008152336004820152602481018690526001600160a01b03909116906347bcdb2a90604401600060405180830381600087803b158015611f6457600080fd5b505af1158015611f78573d6000803e3d6000fd5b50503360008181526006602090815260409182902042905560055491518981526001600160a01b0390921694509192507f940a14c75c418e7230a2e65567722d2dda5a6713cf71b369bd0fa219fdc1ac5e910160405180910390a3505050610d4f60017f9b779b17422d0df92223018b32b4d1fa46e071723d6817e2486d003becc55f0055565b60008051602061529983398151915261201781614011565b3360009081527fa70365933f78520ef41d6645ba61e509916296603327302d41466c063e8e26086020526040902054600080516020615299833981519152904210156120a55760405162461bcd60e51b815260206004820181905260248201527f556e6f52653a20726f6c6c206c6f636b2074696d65206e6f742070617373656460448201526064016109db565b6120ad6140e3565b6005546001600160a01b0316156121065760405162461bcd60e51b815260206004820181905260248201527f556e6f52653a207269736b20706f6f6c206372656174656420616c726561647960448201526064016109db565b6001600160a01b03851661215c5760405162461bcd60e51b815260206004820152601b60248201527f556e6f52653a207a65726f20666163746f72792061646472657373000000000060448201526064016109db565b6001600160a01b0384166121b25760405162461bcd60e51b815260206004820152601c60248201527f556e6f52653a207a65726f2063757272656e637920616464726573730000000060448201526064016109db565b6040517f0d98e31f0000000000000000000000000000000000000000000000000000000081526001600160a01b03861690630d98e31f90612201908c908c908c908c9030908c90600401615163565b6020604051808303816000875af1158015612220573d6000803e3d6000fd5b505050506040513d601f19601f8201168201806040525081019061224491906151b1565b6005805473ffffffffffffffffffffffffffffffffffffffff19166001600160a01b039290921691821790554360085560006009819055600a85905560405130917f184d7691bf4a73930a21086fa1bdf0ee3075421531a60730288325fd5838021791a36122d160017f9b779b17422d0df92223018b32b4d1fa46e071723d6817e2486d003becc55f0055565b505050505050505050565b600554600160a01b900460ff16156123365760405162461bcd60e51b815260206004820152601560248201527f556e6f52653a20706f6f6c206973206b696c6c6564000000000000000000000060448201526064016109db565b61233e6140e3565b6000546001600160a01b03166123965760405162461bcd60e51b815260206004820152601360248201527f556e6f52653a207a65726f20616464726573730000000000000000000000000060448201526064016109db565b61239f33614164565b600254336000908152600660205260408120549091906123bf9042615031565b600554600080546040517f3613302f0000000000000000000000000000000000000000000000000000000081523360048201526001600160a01b0391821660248201529490931160448501819052945092911690633613302f906064016020604051808303816000875af115801561243b573d6000803e3d6000fd5b505050506040513d601f19601f8201168201806040525081019061245f9190615090565b600080546040517fed59344b000000000000000000000000000000000000000000000000000000008152336004820152602481018490526060604482015260648101929092529192506001600160a01b039091169063ed59344b90608401600060405180830381600087803b1580156124d757600080fd5b505af11580156124eb573d6000803e3d6000fd5b505033600081815260066020908152604080832060028101849055600101839055915491518681526001600160a01b0390921694509192507ff0fee1f70845d356d6a3e0baa0944ce846437b6469ea89416dad2cd7067919a4910160405180910390a3505061257960017f9b779b17422d0df92223018b32b4d1fa46e071723d6817e2486d003becc55f0055565b565b6000806000806000600560009054906101000a90046001600160a01b03166001600160a01b031663f53fb2006040518163ffffffff1660e01b8152600401602060405180830381865afa1580156125d6573d6000803e3d6000fd5b505050506040513d601f19601f820116820180604052508101906125fa9190615090565b600554604051631665744b60e11b81526001600160a01b038981166004830152929350911690632ccae89690602401606060405180830381865afa158015612646573d6000803e3d6000fd5b505050506040513d601f19601f8201168201806040525081019061266a9190614fed565b9196509093509150670de0b6b3a76400006126858287615044565b61268f919061505b565b9350509193509193565b6000805160206152998339815191526126b181614011565b3360009081527fa70365933f78520ef41d6645ba61e509916296603327302d41466c063e8e260860205260409020546000805160206152998339815191529042101561273f5760405162461bcd60e51b815260206004820181905260248201527f556e6f52653a20726f6c6c206c6f636b2074696d65206e6f742070617373656460448201526064016109db565b6000831161278f5760405162461bcd60e51b815260206004820152601b60248201527f556e6f52653a206e6f7420616c6c6f77207a65726f2076616c7565000000000060448201526064016109db565b6005546040517f93b6b86c000000000000000000000000000000000000000000000000000000008152600481018590526001600160a01b03909116906393b6b86c90602401600060405180830381600087803b1580156127ee57600080fd5b505af1158015612802573d6000803e3d6000fd5b50506040518581523092507f353ac2778fe09bc60cf3070bb11d548faf4037e4217a06977c16463087474aab9150602001610c54565b60008051602061529983398151915261285081614011565b3360009081527fa70365933f78520ef41d6645ba61e509916296603327302d41466c063e8e26086020526040902054600080516020615299833981519152904210156128de5760405162461bcd60e51b815260206004820181905260248201527f556e6f52653a20726f6c6c206c6f636b2074696d65206e6f742070617373656460448201526064016109db565b6128e66140e3565b6001600160a01b03841661293c5760405162461bcd60e51b815260206004820152601960248201527f556e6f52653a207a65726f206f776e657220616464726573730000000000000060448201526064016109db565b6001600160a01b0383166129925760405162461bcd60e51b815260206004820152601a60248201527f556e6f52653a7a65726f20666163746f7279206164647265737300000000000060448201526064016109db565b6005546001600160a01b03166129ea5760405162461bcd60e51b815260206004820152601b60248201527f556e6f52653a7a65726f204c5020746f6b656e2061646472657373000000000060448201526064016109db565b6005546040517f77b3d9970000000000000000000000000000000000000000000000000000000081526001600160a01b0386811660048301529182166024820152908416906377b3d997906044016020604051808303816000875af1158015612a57573d6000803e3d6000fd5b505050506040513d601f19601f82011682018060405250810190612a7b91906151b1565b6001805473ffffffffffffffffffffffffffffffffffffffff19166001600160a01b0392831690811790915560055460405192169130907f3d2362862a7867eb0f64552c1fa638b6adf3907a7defe349eab238f6a0b2d83190600090a461139960017f9b779b17422d0df92223018b32b4d1fa46e071723d6817e2486d003becc55f0055565b600554604080517fe95aa8d300000000000000000000000000000000000000000000000000000000815290516000926001600160a01b03169163e95aa8d39160048083019260209291908290030181865afa158015612b64573d6000803e3d6000fd5b505050506040513d601f19601f82011682018060405250810190612b889190615090565b905090565b600080516020615299833981519152612ba581614011565b3360009081527fa70365933f78520ef41d6645ba61e509916296603327302d41466c063e8e2608602052604090205460008051602061529983398151915290421015612c335760405162461bcd60e51b815260206004820181905260248201527f556e6f52653a20726f6c6c206c6f636b2074696d65206e6f742070617373656460448201526064016109db565b6109ec6144d7565b600080516020615299833981519152612c5381614011565b3360009081527fa70365933f78520ef41d6645ba61e509916296603327302d41466c063e8e2608602052604090205460008051602061529983398151915290421015612ce15760405162461bcd60e51b815260206004820181905260248201527f556e6f52653a20726f6c6c206c6f636b2074696d65206e6f742070617373656460448201526064016109db565b60008311612d315760405162461bcd60e51b815260206004820152601f60248201527f556e6f52653a206e6f7420616c6c6f77207a65726f206c6f636b2074696d650060448201526064016109db565b600283905560405183815230907f2c2c43c64e937ae35257af782c222986dc5adb4f56dc0881594e79bf83658d8c90602001610c54565b600080516020615299833981519152612d8081614011565b3360009081527fa70365933f78520ef41d6645ba61e509916296603327302d41466c063e8e2608602052604090205460008051602061529983398151915290421015612e0e5760405162461bcd60e51b815260206004820181905260248201527f556e6f52653a20726f6c6c206c6f636b2074696d65206e6f742070617373656460448201526064016109db565b612e166140e3565b6001600160a01b038416612e6c5760405162461bcd60e51b815260206004820181905260248201527f556e6f52653a20726577617264657220666163746f7279206e6f20657869737460448201526064016109db565b6001600160a01b038516612ec25760405162461bcd60e51b815260206004820152601c60248201527f556e6f52653a207a65726f206f70657261746f7220616464726573730000000060448201526064016109db565b6001600160a01b038316612f185760405162461bcd60e51b815260206004820152601c60248201527f556e6f52653a207a65726f2063757272656e637920616464726573730000000060448201526064016109db565b6040517f69ee74510000000000000000000000000000000000000000000000000000000081526001600160a01b03868116600483015284811660248301523060448301528516906369ee7451906064016020604051808303816000875af1158015612f87573d6000803e3d6000fd5b505050506040513d601f19601f82011682018060405250810190612fab91906151b1565b6004805473ffffffffffffffffffffffffffffffffffffffff19166001600160a01b0392831690811790915560405191851682529030907f6c409a36847a0a3870deae25f656f4300d45957d2643fc27faab145e19cfcf1b9060200160405180910390a361303860017f9b779b17422d0df92223018b32b4d1fa46e071723d6817e2486d003becc55f0055565b5050505050565b6001600160a01b038082166000908152600660209081526040808320600201546005548251627a9fd960e91b81529251949591948694919092169263f53fb20092600480830193928290030181865afa1580156130a0573d6000803e3d6000fd5b505050506040513d601f19601f820116820180604052508101906130c49190615090565b9050670de0b6b3a76400006130d98284615044565b6130e3919061505b565b925050915091565b60008281527f02dd7bc7dec4dceedda775e58dd541e08a116c6c53815c0bd028192f7b626800602052604090206001015461312581614011565b6113998383614365565b6131376140e3565b6005547501000000000000000000000000000000000000000000900460ff166131c85760405162461bcd60e51b815260206004820152602760248201527f556e6f72653a20656d657267656e63795769746864726177206973206e6f742060448201527f616c6c6f7765640000000000000000000000000000000000000000000000000060648201526084016109db565b3360009081526006602090815260409182902082516080810184528154815260018201549281019290925260028101549282018390526003015460ff1615156060820152908061325a5760405162461bcd60e51b815260206004820152601760248201527f556e6f72653a205a65726f207573657220616d6f756e7400000000000000000060448201526064016109db565b336000818152600660205260408082208281556001810183905560028101929092556003909101805460ff1916905560055490517f95ccea670000000000000000000000000000000000000000000000000000000081526004810192909252602482018390526001600160a01b0316906395ccea67906044016020604051808303816000875af11580156132f2573d6000803e3d6000fd5b505050506040513d601f19601f8201168201806040525081019061331691906151ce565b5060405181815233907f5fafa99d0643513820be26656b45130b01e1c03062e1266bf36f88cbd3bd9695906020015b60405180910390a2505061257960017f9b779b17422d0df92223018b32b4d1fa46e071723d6817e2486d003becc55f0055565b60008051602061529983398151915261339081614011565b6001600160a01b0382166133e65760405162461bcd60e51b815260206004820152601360248201527f556e6f52653a207a65726f20616464726573730000000000000000000000000060448201526064016109db565b6133f08383614296565b506002546133fe904261507d565b60008481526007602090815260408083206001600160a01b038716808552925291829020929092555130907faa08bed1c8e2500452096c9af125a3944be2a139782a1853abaef7a74bd7dd51906134589087815260200190565b60405180910390a3505050565b600080600560009054906101000a90046001600160a01b03166001600160a01b03166318160ddd6040518163ffffffff1660e01b8152600401602060405180830381865afa1580156134bb573d6000803e3d6000fd5b505050506040513d601f19601f820116820180604052508101906134df9190615090565b60095460085491925090431180156134f657508115155b1561354c5760085460009061350b9043615031565b600a5490915060009061351e9083615044565b905083613533670de0b6b3a764000083615044565b61353d919061505b565b613547908461507d565b925050505b6001600160a01b03841660009081526006602052604090206002810154600190910154670de0b6b3a76400006135828484615044565b61358c919061505b565b6135969190615031565b95945050505050565b6135a76140e3565b6005546040517f5d2cd2a700000000000000000000000000000000000000000000000000000000815233600482015260009182916001600160a01b0390911690635d2cd2a79060240160408051808303816000875af115801561360e573d6000803e3d6000fd5b505050506040513d601f19601f8201168201806040525081019061363291906151f0565b604080518381526020810183905292945090925033917f09c6481cb228ea7f61ceb67c8e708038eb74bbb68cfcc54a9cfca199087ecfb79101613345565b60085443111561257957600554604080517f18160ddd00000000000000000000000000000000000000000000000000000000815290516000926001600160a01b0316916318160ddd9160048083019260209291908290030181865afa1580156136dd573d6000803e3d6000fd5b505050506040513d601f19601f820116820180604052508101906137019190615090565b9050801561375e576008546000906137199043615031565b600a5490915060009061372c9083615044565b905082613741670de0b6b3a764000083615044565b61374b919061505b565b600954613758919061507d565b60095550505b43600881905560095460408051928352602083018490528201527f1f2d1a9fde053af46b5db3dc92a8aa8696e56a677998fdd1311b45be341f7853906060015b60405180910390a150565b6003544210156137fb5760405162461bcd60e51b815260206004820152601960248201527f556e6f52653a206e6f7420617661696c61626c652074696d650000000000000060448201526064016109db565b600554600160a01b900460ff16156138555760405162461bcd60e51b815260206004820152601560248201527f556e6f52653a20706f6f6c206973206b696c6c6564000000000000000000000060448201526064016109db565b61385d6140e3565b61386681614532565b61387081336145d6565b6005546040518281526001600160a01b039091169033907fd3dba7b5565b16b7749db7d1938410a636e3c7a6ea46ed8ce7e259e19f2f3b9f9060200160405180910390a3610d4f60017f9b779b17422d0df92223018b32b4d1fa46e071723d6817e2486d003becc55f0055565b60035442101561392f5760405162461bcd60e51b815260206004820152601960248201527f556e6f52653a206e6f7420617661696c61626c652074696d650000000000000060448201526064016109db565b613937614087565b61393f6140e3565b6002543360009081526006602052604090205461395c9042615031565b10156139aa5760405162461bcd60e51b815260206004820152601260248201527f556e6f52653a204c6f636b65642074696d65000000000000000000000000000060448201526064016109db565b6139b333614164565b336000818152600660205260408082206002015460055491517f6ce40c790000000000000000000000000000000000000000000000000000000081526004810194909452602484018590529282916001600160a01b031690636ce40c799060440160408051808303816000875af1158015613a32573d6000803e3d6000fd5b505050506040513d601f19601f82011682018060405250810190613a5691906151f0565b915091506000670de0b6b3a764000060086001015485613a769190615044565b613a80919061505b565b600954909150670de0b6b3a764000090613a9a9085615044565b613aa4919061505b565b613aae9082615031565b33600090815260066020526040902060010155613acb8385615031565b3360008181526006602090815260409182902060020193909355805186815292830185905290917f617c612e91653c86cd4538e3de94b98c8dd628b41e343380d1cf858f95c0674a910160405180910390a250505050610d4f60017f9b779b17422d0df92223018b32b4d1fa46e071723d6817e2486d003becc55f0055565b600354421015613b9c5760405162461bcd60e51b815260206004820152601960248201527f556e6f52653a206e6f7420617661696c61626c652074696d650000000000000060448201526064016109db565b600554600160a01b900460ff1615613bf65760405162461bcd60e51b815260206004820152601560248201527f556e6f52653a20706f6f6c206973206b696c6c6564000000000000000000000060448201526064016109db565b7f6d5c9827c1f410bbb61d3b2a0a34b6b30492d9a1fd38588edca7ec4562ab9c9b613c2081614011565b613c286140e3565b60048054604080517fe5a6b10f00000000000000000000000000000000000000000000000000000000815290516001600160a01b039092169263e5a6b10f9282820192602092908290030181865afa158015613c88573d6000803e3d6000fd5b505050506040513d601f19601f82011682018060405250810190613cac91906151b1565b6001600160a01b0316600560009054906101000a90046001600160a01b03166001600160a01b031663e5a6b10f6040518163ffffffff1660e01b8152600401602060405180830381865afa158015613d08573d6000803e3d6000fd5b505050506040513d601f19601f82011682018060405250810190613d2c91906151b1565b6001600160a01b031614613d825760405162461bcd60e51b815260206004820152601b60248201527f556e6f52653a2063757272656e6379206e6f74206d617463686564000000000060448201526064016109db565b613d8a613670565b60008060005b8451811015613ed35760066000868381518110613daf57613daf615214565b6020908102919091018101516001600160a01b031682528101919091526040016000206003015460ff1615613e265760405162461bcd60e51b815260206004820152601a60248201527f556e6f52653a20726f6c6c6f766572206973206e6f742073657400000000000060448201526064016109db565b6000613e4a868381518110613e3d57613e3d615214565b6020026020010151614836565b9050613e56818561507d565b935060066000878481518110613e6e57613e6e615214565b60200260200101516001600160a01b03166001600160a01b031681526020019081526020016000206002015483613ea5919061507d565b9250613eca81878481518110613ebd57613ebd615214565b60200260200101516145d6565b50600101613d90565b506004546001600160a01b031615801590613eed57508115155b15613f8f57600480546005546040517f0d97f74b0000000000000000000000000000000000000000000000000000000081526001600160a01b039182169381019390935260248301859052604483018490521690630d97f74b906064016020604051808303816000875af1158015613f69573d6000803e3d6000fd5b505050506040513d601f19601f82011682018060405250810190613f8d9190615090565b505b6005546040516001600160a01b0390911690613fac90869061522a565b604051908190038120848252907f2b1ab5aad08854cca1e3b3cd94bbb4acc5cf06bd794383289c30ae264d03121d9060200160405180910390a350506109ec60017f9b779b17422d0df92223018b32b4d1fa46e071723d6817e2486d003becc55f0055565b610d4f813361494e565b6140236149db565b7fcd5ed15c6e187e77e9aee88184c21f4f2182ab5827cb3b7e07fbedcd63f03300805460ff191681557f5db9ee0a495bf2e6ff9c91a7834c1ba4fdd244a5e8aa4e537bd38aeae4b073aa335b6040516001600160a01b03909116815260200161379e565b7fcd5ed15c6e187e77e9aee88184c21f4f2182ab5827cb3b7e07fbedcd63f033005460ff1615612579576040517fd93c066500000000000000000000000000000000000000000000000000000000815260040160405180910390fd5b7f9b779b17422d0df92223018b32b4d1fa46e071723d6817e2486d003becc55f0080547ffffffffffffffffffffffffffffffffffffffffffffffffffffffffffffffffe0161415e576040517f3ee5aeb500000000000000000000000000000000000000000000000000000000815260040160405180910390fd5b60029055565b61416c613670565b600061417782614836565b6004549091506001600160a01b03161580159061419357508015155b1561422c57600480546040517fc37232880000000000000000000000000000000000000000000000000000000081526001600160a01b03858116938201939093526024810184905291169063c3723288906044016020604051808303816000875af1158015614206573d6000803e3d6000fd5b505050506040513d601f19601f8201168201806040525081019061422a9190615090565b505b6040518181526001600160a01b0383169033907fa0306f61d3fafe13787b78e276cb6b644382854a66cb46daae14227d3ec267979060200160405180910390a35050565b60017f9b779b17422d0df92223018b32b4d1fa46e071723d6817e2486d003becc55f0055565b60008281527f02dd7bc7dec4dceedda775e58dd541e08a116c6c53815c0bd028192f7b626800602081815260408084206001600160a01b038616855290915282205460ff1661435b576000848152602082815260408083206001600160a01b03871684529091529020805460ff191660011790556143113390565b6001600160a01b0316836001600160a01b0316857f2f8788117e7eff1d82e926ec794901d17c78024a50270940304540a733656f0d60405160405180910390a46001915050610933565b6000915050610933565b60008281527f02dd7bc7dec4dceedda775e58dd541e08a116c6c53815c0bd028192f7b626800602081815260408084206001600160a01b038616855290915282205460ff161561435b576000848152602082815260408083206001600160a01b0387168085529252808320805460ff1916905551339287917ff6391f5c32d9c69d2a47ea670b442974b53935d1edc7fd64eb21e047a839171b9190a46001915050610933565b614413614a36565b612579614a9d565b614423614a36565b612579614aa5565b612579614a36565b7f02dd7bc7dec4dceedda775e58dd541e08a116c6c53815c0bd028192f7b626800600061448e8460009081527f02dd7bc7dec4dceedda775e58dd541e08a116c6c53815c0bd028192f7b626800602052604090206001015490565b600085815260208490526040808220600101869055519192508491839187917fbd79b86ffe0ab8e8776151514217cd7cacd52c909f66475c3af44e129f0b00ff9190a450505050565b6144df614087565b7fcd5ed15c6e187e77e9aee88184c21f4f2182ab5827cb3b7e07fbedcd63f03300805460ff191660011781557f62e78cea01bee320cd4e420270b5ea74000d11b0c9f74754ebdbfc544b05a2583361406f565b600554604080517fe5a6b10f00000000000000000000000000000000000000000000000000000000815290516000926001600160a01b03169163e5a6b10f9160048083019260209291908290030181865afa158015614595573d6000803e3d6000fd5b505050506040513d601f19601f820116820180604052508101906145b991906151b1565b6005549091506109ec90829033906001600160a01b031685614ad8565b816000036146265760405162461bcd60e51b815260206004820152601160248201527f556e6f52653a205a45524f2056616c756500000000000000000000000000000060448201526064016109db565b61462e613670565b60055460408051627a9fd960e91b815290516000926001600160a01b03169163f53fb2009160048083019260209291908290030181865afa158015614677573d6000803e3d6000fd5b505050506040513d601f19601f8201168201806040525081019061469b9190615090565b6005546040517f7e348b7d0000000000000000000000000000000000000000000000000000000081526001600160a01b03858116600483015260248201879052929350911690637e348b7d90604401600060405180830381600087803b15801561470457600080fd5b505af1158015614718573d6000803e3d6000fd5b505050506001600160a01b03821660009081526006602090815260409182902082516080810184528154815260018201549281019290925260028101549282019290925260039091015460ff1615156060820152600954670de0b6b3a76400009083906147858784615044565b61478f9190615044565b614799919061505b565b6147a3919061505b565b81602001516147b2919061507d565b6020820152816147ca85670de0b6b3a7640000615044565b6147d4919061505b565b81604001516147e3919061507d565b60408281019182526001600160a01b039490941660009081526006602090815294902082518155938201516001850155516002840155606001516003909201805460ff1916921515929092179091555050565b600554604051631665744b60e11b81526001600160a01b0383811660048301526000928392911690632ccae89690602401606060405180830381865afa158015614884573d6000803e3d6000fd5b505050506040513d601f19601f820116820180604052508101906148a89190614fed565b5091505080156148bb5750600092915050565b6001600160a01b038316600090815260066020526040812060020154600954909190670de0b6b3a7640000906148f19084615044565b6148fb919061505b565b6001600160a01b038616600090815260066020526040812060010154919250906149259083615031565b6001600160a01b0390961660009081526006602052604090206001019190915550929392505050565b60008281527f02dd7bc7dec4dceedda775e58dd541e08a116c6c53815c0bd028192f7b626800602090815260408083206001600160a01b038516845290915290205460ff166109ec576040517fe2517d3f0000000000000000000000000000000000000000000000000000000081526001600160a01b0382166004820152602481018390526044016109db565b7fcd5ed15c6e187e77e9aee88184c21f4f2182ab5827cb3b7e07fbedcd63f033005460ff16612579576040517f8dfc202b00000000000000000000000000000000000000000000000000000000815260040160405180910390fd5b7ff0c57e16840df040f15088dc2f81fe391c3923bec73e23a9662efc9c229c6a005468010000000000000000900460ff16612579576040517fd7e6bcf800000000000000000000000000000000000000000000000000000000815260040160405180910390fd5b614270614a36565b614aad614a36565b7fcd5ed15c6e187e77e9aee88184c21f4f2182ab5827cb3b7e07fbedcd63f03300805460ff19169055565b604080516001600160a01b0385811660248301528481166044830152606480830185905283518084039091018152608490920183526020820180517bffffffffffffffffffffffffffffffffffffffffffffffffffffffff167f23b872dd000000000000000000000000000000000000000000000000000000001790529151600092839290881691614b6a9190615269565b6000604051808303816000865af19150503d8060008114614ba7576040519150601f19603f3d011682016040523d82523d6000602084013e614bac565b606091505b5091509150818015614bd6575080511580614bd6575080806020019051810190614bd691906151ce565b614c485760405162461bcd60e51b815260206004820152603160248201527f5472616e7366657248656c7065723a3a7472616e7366657246726f6d3a20747260448201527f616e7366657246726f6d206661696c656400000000000000000000000000000060648201526084016109db565b505050505050565b600060208284031215614c6257600080fd5b81357fffffffff0000000000000000000000000000000000000000000000000000000081168114614c9257600080fd5b9392505050565b600060208284031215614cab57600080fd5b5035919050565b6001600160a01b0381168114610d4f57600080fd5b600060208284031215614cd957600080fd5b8135614c9281614cb2565b600080600060608486031215614cf957600080fd5b8335614d0481614cb2565b92506020840135614d1481614cb2565b929592945050506040919091013590565b60008060408385031215614d3857600080fd5b8235614d4381614cb2565b946020939093013593505050565b60008060408385031215614d6457600080fd5b823591506020830135614d7681614cb2565b809150509250929050565b60008060408385031215614d9457600080fd5b8235614d9f81614cb2565b91506020830135614d7681614cb2565b60008083601f840112614dc157600080fd5b50813567ffffffffffffffff811115614dd957600080fd5b602083019150836020828501011115614df157600080fd5b9250929050565b600080600080600080600060a0888a031215614e1357600080fd5b873567ffffffffffffffff80821115614e2b57600080fd5b614e378b838c01614daf565b909950975060208a0135915080821115614e5057600080fd5b50614e5d8a828b01614daf565b9096509450506040880135614e7181614cb2565b92506060880135614e8181614cb2565b809250506080880135905092959891949750929550565b600080600060608486031215614ead57600080fd5b8335614eb881614cb2565b92506020840135614ec881614cb2565b91506040840135614ed881614cb2565b809150509250925092565b634e487b7160e01b600052604160045260246000fd5b604051601f8201601f1916810167ffffffffffffffff81118282101715614f2257614f22614ee3565b604052919050565b600067ffffffffffffffff821115614f4457614f44614ee3565b5060051b60200190565b60006020808385031215614f6157600080fd5b823567ffffffffffffffff811115614f7857600080fd5b8301601f81018513614f8957600080fd5b8035614f9c614f9782614f2a565b614ef9565b81815260059190911b82018301908381019087831115614fbb57600080fd5b928401925b82841015614fe2578335614fd381614cb2565b82529284019290840190614fc0565b979650505050505050565b60008060006060848603121561500257600080fd5b8351925060208401519150604084015190509250925092565b634e487b7160e01b600052601160045260246000fd5b818103818111156109335761093361501b565b80820281158282048414176109335761093361501b565b60008261507857634e487b7160e01b600052601260045260246000fd5b500490565b808201808211156109335761093361501b565b6000602082840312156150a257600080fd5b5051919050565b600060208083850312156150bc57600080fd5b825167ffffffffffffffff8111156150d357600080fd5b8301601f810185136150e457600080fd5b80516150f2614f9782614f2a565b81815260059190911b8201830190838101908783111561511157600080fd5b928401925b82841015614fe257835161512981614cb2565b82529284019290840190615116565b818352818160208501375060006020828401015260006020601f19601f840116840101905092915050565b60808152600061517760808301888a615138565b828103602084015261518a818789615138565b9150506001600160a01b038085166040840152808416606084015250979650505050505050565b6000602082840312156151c357600080fd5b8151614c9281614cb2565b6000602082840312156151e057600080fd5b81518015158114614c9257600080fd5b6000806040838503121561520357600080fd5b505080516020909101519092909150565b634e487b7160e01b600052603260045260246000fd5b815160009082906020808601845b8381101561525d5781516001600160a01b031685529382019390820190600101615238565b50929695505050505050565b6000825160005b8181101561528a5760208186018101518583015201615270565b50600092019182525091905056fea49807205ce4d355092ef5a8a18f56e8913cf4a201fbe287825b095693c21775a264697066735822122035c14941bbba4ab53b018e43ebbd2694210057f1cd433c58822e5fbb39c1cacc64736f6c63430008170033",
  "devdoc": {
    "errors": {
      "AccessControlBadConfirmation()": [
        {
          "details": "The caller of a function is not the expected one. NOTE: Don't confuse with {AccessControlUnauthorizedAccount}."
        }
      ],
      "AccessControlUnauthorizedAccount(address,bytes32)": [
        {
          "details": "The `account` is missing a role."
        }
      ],
      "EnforcedPause()": [
        {
          "details": "The operation failed because the contract is paused."
        }
      ],
      "ExpectedPause()": [
        {
          "details": "The operation failed because the contract is not paused."
        }
      ],
      "InvalidInitialization()": [
        {
          "details": "The contract is already initialized."
        }
      ],
      "NotInitializing()": [
        {
          "details": "The contract is not initializing."
        }
      ],
      "ReentrancyGuardReentrantCall()": [
        {
          "details": "Unauthorized reentrant call."
        }
      ]
    },
    "events": {
      "Initialized(uint64)": {
        "details": "Triggered when the contract has been initialized or reinitialized."
      },
      "Paused(address)": {
        "details": "Emitted when the pause is triggered by `account`."
      },
      "RoleAdminChanged(bytes32,bytes32,bytes32)": {
        "details": "Emitted when `newAdminRole` is set as ``role``'s admin role, replacing `previousAdminRole` `DEFAULT_ADMIN_ROLE` is the starting admin for all roles, despite {RoleAdminChanged} not being emitted signaling this."
      },
      "RoleGranted(bytes32,address,address)": {
        "details": "Emitted when `account` is granted `role`. `sender` is the account that originated the contract call, an admin role bearer except when using {AccessControl-_setupRole}."
      },
      "RoleRevoked(bytes32,address,address)": {
        "details": "Emitted when `account` is revoked `role`. `sender` is the account that originated the contract call:   - if using `revokeRole`, it is the admin role bearer   - if using `renounceRole`, it is the role bearer (i.e. `account`)"
      },
      "Unpaused(address)": {
        "details": "Emitted when the pause is lifted by `account`."
      }
    },
    "kind": "dev",
    "methods": {
      "createRiskPool(string,string,address,address,uint256)": {
        "details": "create Risk pool with UNO from SSRP owner"
      },
      "getRoleAdmin(bytes32)": {
        "details": "Returns the admin role that controls `role`. See {grantRole} and {revokeRole}. To change a role's admin, use {_setRoleAdmin}."
      },
      "getTotalWithdrawPendingAmount()": {
        "details": "get total withdraw request amount in pending for the risk pool in UNO"
      },
      "getWithdrawRequestPerUser(address)": {
        "details": "get withdraw request amount in pending per user in UNO"
      },
      "grantRole(bytes32,address)": {
        "details": "Grants `role` to `account`. If `account` had not been already granted `role`, emits a {RoleGranted} event. Requirements: - the caller must have ``role``'s admin role. May emit a {RoleGranted} event."
      },
      "hasRole(bytes32,address)": {
        "details": "Returns `true` if `account` has been granted `role`."
      },
      "leaveFromPending(uint256)": {
        "details": "user can submit claim again and receive his funds into his wallet after 10 days since last WR."
      },
      "leaveFromPoolInPending(uint256)": {
        "details": "WR will be in pending for 10 days at least"
      },
      "paused()": {
        "details": "Returns true if the contract is paused, and false otherwise."
      },
      "renounceRole(bytes32,address)": {
        "details": "Revokes `role` from the calling account. Roles are often managed via {grantRole} and {revokeRole}: this function's purpose is to provide a mechanism for accounts to lose their privileges if they are compromised (such as when a trusted device is misplaced). If the calling account had been revoked `role`, emits a {RoleRevoked} event. Requirements: - the caller must be `callerConfirmation`. May emit a {RoleRevoked} event."
      },
      "revokeRole(bytes32,address)": {
        "details": "Revokes `role` from `account`. If `account` had been granted `role`, emits a {RoleRevoked} event. Requirements: - the caller must have ``role``'s admin role. May emit a {RoleRevoked} event."
      },
      "supportsInterface(bytes4)": {
        "details": "See {IERC165-supportsInterface}."
      }
    },
    "version": 1
  },
  "userdoc": {
    "kind": "user",
    "methods": {},
    "version": 1
  },
  "storageLayout": {
    "storage": [
      {
        "astId": 20081,
        "contract": "contracts/SingleSidedReinsurancePool.sol:SingleSidedReinsurancePool",
        "label": "migrateTo",
        "offset": 0,
        "slot": "0",
        "type": "t_address"
      },
      {
        "astId": 20083,
        "contract": "contracts/SingleSidedReinsurancePool.sol:SingleSidedReinsurancePool",
        "label": "syntheticSSRP",
        "offset": 0,
        "slot": "1",
        "type": "t_address"
      },
      {
        "astId": 20085,
        "contract": "contracts/SingleSidedReinsurancePool.sol:SingleSidedReinsurancePool",
        "label": "lockTime",
        "offset": 0,
        "slot": "2",
        "type": "t_uint256"
      },
      {
        "astId": 20087,
        "contract": "contracts/SingleSidedReinsurancePool.sol:SingleSidedReinsurancePool",
        "label": "stakingStartTime",
        "offset": 0,
        "slot": "3",
        "type": "t_uint256"
      },
      {
        "astId": 20089,
        "contract": "contracts/SingleSidedReinsurancePool.sol:SingleSidedReinsurancePool",
        "label": "rewarder",
        "offset": 0,
        "slot": "4",
        "type": "t_address"
      },
      {
        "astId": 20092,
        "contract": "contracts/SingleSidedReinsurancePool.sol:SingleSidedReinsurancePool",
        "label": "riskPool",
        "offset": 0,
        "slot": "5",
        "type": "t_address"
      },
      {
        "astId": 20094,
        "contract": "contracts/SingleSidedReinsurancePool.sol:SingleSidedReinsurancePool",
        "label": "killed",
        "offset": 20,
        "slot": "5",
        "type": "t_bool"
      },
      {
        "astId": 20096,
        "contract": "contracts/SingleSidedReinsurancePool.sol:SingleSidedReinsurancePool",
        "label": "emergencyWithdrawAllowed",
        "offset": 21,
        "slot": "5",
        "type": "t_bool"
      },
      {
        "astId": 20117,
        "contract": "contracts/SingleSidedReinsurancePool.sol:SingleSidedReinsurancePool",
        "label": "userInfo",
        "offset": 0,
        "slot": "6",
        "type": "t_mapping(t_address,t_struct(UserInfo)20112_storage)"
      },
      {
        "astId": 20123,
        "contract": "contracts/SingleSidedReinsurancePool.sol:SingleSidedReinsurancePool",
        "label": "roleLockTime",
        "offset": 0,
        "slot": "7",
        "type": "t_mapping(t_bytes32,t_mapping(t_address,t_uint256))"
      },
      {
        "astId": 20126,
        "contract": "contracts/SingleSidedReinsurancePool.sol:SingleSidedReinsurancePool",
        "label": "poolInfo",
        "offset": 0,
        "slot": "8",
        "type": "t_struct(PoolInfo)20103_storage"
      }
    ],
    "types": {
      "t_address": {
        "encoding": "inplace",
        "label": "address",
        "numberOfBytes": "20"
      },
      "t_bool": {
        "encoding": "inplace",
        "label": "bool",
        "numberOfBytes": "1"
      },
      "t_bytes32": {
        "encoding": "inplace",
        "label": "bytes32",
        "numberOfBytes": "32"
      },
      "t_mapping(t_address,t_struct(UserInfo)20112_storage)": {
        "encoding": "mapping",
        "key": "t_address",
        "label": "mapping(address => struct SingleSidedReinsurancePool.UserInfo)",
        "numberOfBytes": "32",
        "value": "t_struct(UserInfo)20112_storage"
      },
      "t_mapping(t_address,t_uint256)": {
        "encoding": "mapping",
        "key": "t_address",
        "label": "mapping(address => uint256)",
        "numberOfBytes": "32",
        "value": "t_uint256"
      },
      "t_mapping(t_bytes32,t_mapping(t_address,t_uint256))": {
        "encoding": "mapping",
        "key": "t_bytes32",
        "label": "mapping(bytes32 => mapping(address => uint256))",
        "numberOfBytes": "32",
        "value": "t_mapping(t_address,t_uint256)"
      },
      "t_struct(PoolInfo)20103_storage": {
        "encoding": "inplace",
        "label": "struct SingleSidedReinsurancePool.PoolInfo",
        "members": [
          {
            "astId": 20098,
            "contract": "contracts/SingleSidedReinsurancePool.sol:SingleSidedReinsurancePool",
            "label": "lastRewardBlock",
            "offset": 0,
            "slot": "0",
            "type": "t_uint256"
          },
          {
            "astId": 20100,
            "contract": "contracts/SingleSidedReinsurancePool.sol:SingleSidedReinsurancePool",
            "label": "accUnoPerShare",
            "offset": 0,
            "slot": "1",
            "type": "t_uint256"
          },
          {
            "astId": 20102,
            "contract": "contracts/SingleSidedReinsurancePool.sol:SingleSidedReinsurancePool",
            "label": "unoMultiplierPerBlock",
            "offset": 0,
            "slot": "2",
            "type": "t_uint256"
          }
        ],
        "numberOfBytes": "96"
      },
      "t_struct(UserInfo)20112_storage": {
        "encoding": "inplace",
        "label": "struct SingleSidedReinsurancePool.UserInfo",
        "members": [
          {
            "astId": 20105,
            "contract": "contracts/SingleSidedReinsurancePool.sol:SingleSidedReinsurancePool",
            "label": "lastWithdrawTime",
            "offset": 0,
            "slot": "0",
            "type": "t_uint256"
          },
          {
            "astId": 20107,
            "contract": "contracts/SingleSidedReinsurancePool.sol:SingleSidedReinsurancePool",
            "label": "rewardDebt",
            "offset": 0,
            "slot": "1",
            "type": "t_uint256"
          },
          {
            "astId": 20109,
            "contract": "contracts/SingleSidedReinsurancePool.sol:SingleSidedReinsurancePool",
            "label": "amount",
            "offset": 0,
            "slot": "2",
            "type": "t_uint256"
          },
          {
            "astId": 20111,
            "contract": "contracts/SingleSidedReinsurancePool.sol:SingleSidedReinsurancePool",
            "label": "isNotRollOver",
            "offset": 0,
            "slot": "3",
            "type": "t_bool"
          }
        ],
        "numberOfBytes": "128"
      },
      "t_uint256": {
        "encoding": "inplace",
        "label": "uint256",
        "numberOfBytes": "32"
      }
    }
  }
}