{
  "address": "0x518dAabF8898459a73804c091dbB69194A49333F",
  "abi": [
    {
      "inputs": [],
      "name": "AccessControlBadConfirmation",
      "type": "error"
    },
    {
      "inputs": [
        {
          "internalType": "address",
          "name": "account",
          "type": "address"
        },
        {
          "internalType": "bytes32",
          "name": "neededRole",
          "type": "bytes32"
        }
      ],
      "name": "AccessControlUnauthorizedAccount",
      "type": "error"
    },
    {
      "inputs": [],
      "name": "EnforcedPause",
      "type": "error"
    },
    {
      "inputs": [],
      "name": "ExpectedPause",
      "type": "error"
    },
    {
      "inputs": [],
      "name": "InvalidInitialization",
      "type": "error"
    },
    {
      "inputs": [],
      "name": "NotInitializing",
      "type": "error"
    },
    {
      "inputs": [],
      "name": "ReentrancyGuardReentrantCall",
      "type": "error"
    },
    {
      "anonymous": false,
      "inputs": [
        {
          "indexed": true,
          "internalType": "address",
          "name": "user",
          "type": "address"
        },
        {
          "indexed": false,
          "internalType": "uint256",
          "name": "amount",
          "type": "uint256"
        }
      ],
      "name": "EmergencyWithdraw",
      "type": "event"
    },
    {
      "anonymous": false,
      "inputs": [
        {
          "indexed": true,
          "internalType": "address",
          "name": "user",
          "type": "address"
        },
        {
          "indexed": false,
          "internalType": "bool",
          "name": "EmergencyWithdraw",
          "type": "bool"
        }
      ],
      "name": "EmergencyWithdrawToggled",
      "type": "event"
    },
    {
      "anonymous": false,
      "inputs": [
        {
          "indexed": true,
          "internalType": "address",
          "name": "_user",
          "type": "address"
        },
        {
          "indexed": true,
          "internalType": "address",
          "name": "_receiver",
          "type": "address"
        },
        {
          "indexed": false,
          "internalType": "uint256",
          "name": "_amount",
          "type": "uint256"
        }
      ],
      "name": "Harvest",
      "type": "event"
    },
    {
      "anonymous": false,
      "inputs": [
        {
          "indexed": false,
          "internalType": "uint64",
          "name": "version",
          "type": "uint64"
        }
      ],
      "name": "Initialized",
      "type": "event"
    },
    {
      "anonymous": false,
      "inputs": [
        {
          "indexed": true,
          "internalType": "address",
          "name": "_owner",
          "type": "address"
        },
        {
          "indexed": false,
          "internalType": "bool",
          "name": "_killed",
          "type": "bool"
        }
      ],
      "name": "KillPool",
      "type": "event"
    },
    {
      "anonymous": false,
      "inputs": [
        {
          "indexed": true,
          "internalType": "address",
          "name": "_staker",
          "type": "address"
        },
        {
          "indexed": true,
          "internalType": "address",
          "name": "_pool",
          "type": "address"
        },
        {
          "indexed": false,
          "internalType": "uint256",
          "name": "_requestAmount",
          "type": "uint256"
        }
      ],
      "name": "LeftPool",
      "type": "event"
    },
    {
      "anonymous": false,
      "inputs": [
        {
          "indexed": true,
          "internalType": "address",
          "name": "_user",
          "type": "address"
        },
        {
          "indexed": false,
          "internalType": "uint256",
          "name": "_cancelAmount",
          "type": "uint256"
        },
        {
          "indexed": false,
          "internalType": "uint256",
          "name": "_cancelAmountInUno",
          "type": "uint256"
        }
      ],
      "name": "LogCancelWithdrawRequest",
      "type": "event"
    },
    {
      "anonymous": false,
      "inputs": [
        {
          "indexed": true,
          "internalType": "address",
          "name": "_SSRP",
          "type": "address"
        },
        {
          "indexed": true,
          "internalType": "address",
          "name": "_rewarder",
          "type": "address"
        },
        {
          "indexed": false,
          "internalType": "address",
          "name": "_currency",
          "type": "address"
        }
      ],
      "name": "LogCreateRewarder",
      "type": "event"
    },
    {
      "anonymous": false,
      "inputs": [
        {
          "indexed": true,
          "internalType": "address",
          "name": "_SSRP",
          "type": "address"
        },
        {
          "indexed": true,
          "internalType": "address",
          "name": "_syntheticSSRP",
          "type": "address"
        },
        {
          "indexed": true,
          "internalType": "address",
          "name": "_lpToken",
          "type": "address"
        }
      ],
      "name": "LogCreateSyntheticSSRP",
      "type": "event"
    },
    {
      "anonymous": false,
      "inputs": [
        {
          "indexed": true,
          "internalType": "address",
          "name": "_user",
          "type": "address"
        },
        {
          "indexed": false,
          "internalType": "uint256",
          "name": "_withdrawLpAmount",
          "type": "uint256"
        },
        {
          "indexed": false,
          "internalType": "uint256",
          "name": "_withdrawUnoAmount",
          "type": "uint256"
        }
      ],
      "name": "LogLeaveFromPendingSSRP",
      "type": "event"
    },
    {
      "anonymous": false,
      "inputs": [
        {
          "indexed": true,
          "internalType": "address",
          "name": "_from",
          "type": "address"
        },
        {
          "indexed": true,
          "internalType": "address",
          "name": "_to",
          "type": "address"
        },
        {
          "indexed": false,
          "internalType": "uint256",
          "name": "_amount",
          "type": "uint256"
        }
      ],
      "name": "LogLpTransferInSSRP",
      "type": "event"
    },
    {
      "anonymous": false,
      "inputs": [
        {
          "indexed": true,
          "internalType": "address",
          "name": "_user",
          "type": "address"
        },
        {
          "indexed": true,
          "internalType": "address",
          "name": "_migrateTo",
          "type": "address"
        },
        {
          "indexed": false,
          "internalType": "uint256",
          "name": "_migratedAmount",
          "type": "uint256"
        }
      ],
      "name": "LogMigrate",
      "type": "event"
    },
    {
      "anonymous": false,
      "inputs": [
        {
          "indexed": true,
          "internalType": "address",
          "name": "_SSIP",
          "type": "address"
        },
        {
          "indexed": false,
          "internalType": "uint256",
          "name": "_lockTime",
          "type": "uint256"
        }
      ],
      "name": "LogSetLockTime",
      "type": "event"
    },
    {
      "anonymous": false,
      "inputs": [
        {
          "indexed": true,
          "internalType": "address",
          "name": "_SSIP",
          "type": "address"
        },
        {
          "indexed": true,
          "internalType": "address",
          "name": "_migrateTo",
          "type": "address"
        }
      ],
      "name": "LogSetMigrateTo",
      "type": "event"
    },
    {
      "anonymous": false,
      "inputs": [
        {
          "indexed": true,
          "internalType": "address",
          "name": "_SSIP",
          "type": "address"
        },
        {
          "indexed": false,
          "internalType": "uint256",
          "name": "_minLPCapital",
          "type": "uint256"
        }
      ],
      "name": "LogSetMinLPCapital",
      "type": "event"
    },
    {
      "anonymous": false,
      "inputs": [
        {
          "indexed": true,
          "internalType": "address",
          "name": "_SSIP",
          "type": "address"
        },
        {
          "indexed": false,
          "internalType": "uint256",
          "name": "_rewardMultiplier",
          "type": "uint256"
        }
      ],
      "name": "LogSetRewardMultiplier",
      "type": "event"
    },
    {
      "anonymous": false,
      "inputs": [
        {
          "indexed": true,
          "internalType": "address",
          "name": "_SSIP",
          "type": "address"
        },
        {
          "indexed": false,
          "internalType": "bytes32",
          "name": "_role",
          "type": "bytes32"
        },
        {
          "indexed": true,
          "internalType": "address",
          "name": "_account",
          "type": "address"
        }
      ],
      "name": "LogSetRole",
      "type": "event"
    },
    {
      "anonymous": false,
      "inputs": [
        {
          "indexed": true,
          "internalType": "address",
          "name": "_SSIP",
          "type": "address"
        },
        {
          "indexed": false,
          "internalType": "uint256",
          "name": "_startTime",
          "type": "uint256"
        }
      ],
      "name": "LogSetStakingStartTime",
      "type": "event"
    },
    {
      "anonymous": false,
      "inputs": [
        {
          "indexed": false,
          "internalType": "uint256",
          "name": "_lastRewardBlock",
          "type": "uint256"
        },
        {
          "indexed": false,
          "internalType": "uint256",
          "name": "_lpSupply",
          "type": "uint256"
        },
        {
          "indexed": false,
          "internalType": "uint256",
          "name": "_accUnoPerShare",
          "type": "uint256"
        }
      ],
      "name": "LogUpdatePool",
      "type": "event"
    },
    {
      "anonymous": false,
      "inputs": [
        {
          "indexed": false,
          "internalType": "address",
          "name": "account",
          "type": "address"
        }
      ],
      "name": "Paused",
      "type": "event"
    },
    {
      "anonymous": false,
      "inputs": [
        {
          "indexed": true,
          "internalType": "address",
          "name": "_user",
          "type": "address"
        },
        {
          "indexed": false,
          "internalType": "uint256",
          "name": "_claimAmount",
          "type": "uint256"
        }
      ],
      "name": "PolicyClaim",
      "type": "event"
    },
    {
      "anonymous": false,
      "inputs": [
        {
          "indexed": true,
          "internalType": "address",
          "name": "_owner",
          "type": "address"
        },
        {
          "indexed": false,
          "internalType": "bool",
          "name": "_alive",
          "type": "bool"
        }
      ],
      "name": "PoolAlived",
      "type": "event"
    },
    {
      "anonymous": false,
      "inputs": [
        {
          "indexed": true,
          "internalType": "address",
          "name": "_SSRP",
          "type": "address"
        },
        {
          "indexed": true,
          "internalType": "address",
          "name": "_pool",
          "type": "address"
        }
      ],
      "name": "RiskPoolCreated",
      "type": "event"
    },
    {
      "anonymous": false,
      "inputs": [
        {
          "indexed": true,
          "internalType": "bytes32",
          "name": "role",
          "type": "bytes32"
        },
        {
          "indexed": true,
          "internalType": "bytes32",
          "name": "previousAdminRole",
          "type": "bytes32"
        },
        {
          "indexed": true,
          "internalType": "bytes32",
          "name": "newAdminRole",
          "type": "bytes32"
        }
      ],
      "name": "RoleAdminChanged",
      "type": "event"
    },
    {
      "anonymous": false,
      "inputs": [
        {
          "indexed": true,
          "internalType": "bytes32",
          "name": "role",
          "type": "bytes32"
        },
        {
          "indexed": true,
          "internalType": "address",
          "name": "account",
          "type": "address"
        },
        {
          "indexed": true,
          "internalType": "address",
          "name": "sender",
          "type": "address"
        }
      ],
      "name": "RoleGranted",
      "type": "event"
    },
    {
      "anonymous": false,
      "inputs": [
        {
          "indexed": true,
          "internalType": "bytes32",
          "name": "role",
          "type": "bytes32"
        },
        {
          "indexed": true,
          "internalType": "address",
          "name": "account",
          "type": "address"
        },
        {
          "indexed": true,
          "internalType": "address",
          "name": "sender",
          "type": "address"
        }
      ],
      "name": "RoleRevoked",
      "type": "event"
    },
    {
      "anonymous": false,
      "inputs": [
        {
          "indexed": true,
          "internalType": "address[]",
          "name": "_staker",
          "type": "address[]"
        },
        {
          "indexed": true,
          "internalType": "address",
          "name": "_pool",
          "type": "address"
        },
        {
          "indexed": false,
          "internalType": "uint256",
          "name": "_amount",
          "type": "uint256"
        }
      ],
      "name": "RollOverReward",
      "type": "event"
    },
    {
      "anonymous": false,
      "inputs": [
        {
          "indexed": true,
          "internalType": "address",
          "name": "_staker",
          "type": "address"
        },
        {
          "indexed": true,
          "internalType": "address",
          "name": "_pool",
          "type": "address"
        },
        {
          "indexed": false,
          "internalType": "uint256",
          "name": "_amount",
          "type": "uint256"
        }
      ],
      "name": "StakedInPool",
      "type": "event"
    },
    {
      "anonymous": false,
      "inputs": [
        {
          "indexed": false,
          "internalType": "address",
          "name": "account",
          "type": "address"
        }
      ],
      "name": "Unpaused",
      "type": "event"
    },
    {
      "inputs": [],
      "name": "ACC_UNO_PRECISION",
      "outputs": [
        {
          "internalType": "uint256",
          "name": "",
          "type": "uint256"
        }
      ],
      "stateMutability": "view",
      "type": "function"
    },
    {
      "inputs": [],
      "name": "ADMIN_ROLE",
      "outputs": [
        {
          "internalType": "bytes32",
          "name": "",
          "type": "bytes32"
        }
      ],
      "stateMutability": "view",
      "type": "function"
    },
    {
      "inputs": [],
      "name": "BOT_ROLE",
      "outputs": [
        {
          "internalType": "bytes32",
          "name": "",
          "type": "bytes32"
        }
      ],
      "stateMutability": "view",
      "type": "function"
    },
    {
      "inputs": [],
      "name": "CLAIM_ASSESSOR_ROLE",
      "outputs": [
        {
          "internalType": "bytes32",
          "name": "",
          "type": "bytes32"
        }
      ],
      "stateMutability": "view",
      "type": "function"
    },
    {
      "inputs": [],
      "name": "DEFAULT_ADMIN_ROLE",
      "outputs": [
        {
          "internalType": "bytes32",
          "name": "",
          "type": "bytes32"
        }
      ],
      "stateMutability": "view",
      "type": "function"
    },
    {
      "inputs": [],
      "name": "cancelWithdrawRequest",
      "outputs": [],
      "stateMutability": "nonpayable",
      "type": "function"
    },
    {
      "inputs": [
        {
          "internalType": "address",
          "name": "_operator",
          "type": "address"
        },
        {
          "internalType": "address",
          "name": "_factory",
          "type": "address"
        },
        {
          "internalType": "address",
          "name": "_currency",
          "type": "address"
        }
      ],
      "name": "createRewarder",
      "outputs": [],
      "stateMutability": "nonpayable",
      "type": "function"
    },
    {
      "inputs": [
        {
          "internalType": "string",
          "name": "_name",
          "type": "string"
        },
        {
          "internalType": "string",
          "name": "_symbol",
          "type": "string"
        },
        {
          "internalType": "address",
          "name": "_factory",
          "type": "address"
        },
        {
          "internalType": "address",
          "name": "_currency",
          "type": "address"
        },
        {
          "internalType": "uint256",
          "name": "_rewardMultiplier",
          "type": "uint256"
        }
      ],
      "name": "createRiskPool",
      "outputs": [],
      "stateMutability": "nonpayable",
      "type": "function"
    },
    {
      "inputs": [
        {
          "internalType": "address",
          "name": "_owner",
          "type": "address"
        },
        {
          "internalType": "address",
          "name": "_factory",
          "type": "address"
        }
      ],
      "name": "createSyntheticSSRP",
      "outputs": [],
      "stateMutability": "nonpayable",
      "type": "function"
    },
    {
      "inputs": [],
      "name": "emergencyWithdraw",
      "outputs": [],
      "stateMutability": "nonpayable",
      "type": "function"
    },
    {
      "inputs": [],
      "name": "emergencyWithdrawAllowed",
      "outputs": [
        {
          "internalType": "bool",
          "name": "",
          "type": "bool"
        }
      ],
      "stateMutability": "view",
      "type": "function"
    },
    {
      "inputs": [
        {
          "internalType": "uint256",
          "name": "_amount",
          "type": "uint256"
        }
      ],
      "name": "enterInPool",
      "outputs": [],
      "stateMutability": "nonpayable",
      "type": "function"
    },
    {
      "inputs": [
        {
          "internalType": "bytes32",
          "name": "role",
          "type": "bytes32"
        }
      ],
      "name": "getRoleAdmin",
      "outputs": [
        {
          "internalType": "bytes32",
          "name": "",
          "type": "bytes32"
        }
      ],
      "stateMutability": "view",
      "type": "function"
    },
    {
      "inputs": [
        {
          "internalType": "address",
          "name": "_to",
          "type": "address"
        }
      ],
      "name": "getStakedAmountPerUser",
      "outputs": [
        {
          "internalType": "uint256",
          "name": "unoAmount",
          "type": "uint256"
        },
        {
          "internalType": "uint256",
          "name": "lpAmount",
          "type": "uint256"
        }
      ],
      "stateMutability": "view",
      "type": "function"
    },
    {
      "inputs": [],
      "name": "getTotalWithdrawPendingAmount",
      "outputs": [
        {
          "internalType": "uint256",
          "name": "",
          "type": "uint256"
        }
      ],
      "stateMutability": "view",
      "type": "function"
    },
    {
      "inputs": [
        {
          "internalType": "address",
          "name": "_user",
          "type": "address"
        }
      ],
      "name": "getWithdrawRequestPerUser",
      "outputs": [
        {
          "internalType": "uint256",
          "name": "pendingAmount",
          "type": "uint256"
        },
        {
          "internalType": "uint256",
          "name": "pendingAmountInUno",
          "type": "uint256"
        },
        {
          "internalType": "uint256",
          "name": "originUnoAmount",
          "type": "uint256"
        },
        {
          "internalType": "uint256",
          "name": "requestTime",
          "type": "uint256"
        }
      ],
      "stateMutability": "view",
      "type": "function"
    },
    {
      "inputs": [
        {
          "internalType": "bytes32",
          "name": "role",
          "type": "bytes32"
        },
        {
          "internalType": "address",
          "name": "account",
          "type": "address"
        }
      ],
      "name": "grantRole",
      "outputs": [],
      "stateMutability": "nonpayable",
      "type": "function"
    },
    {
      "inputs": [
        {
          "internalType": "address",
          "name": "_to",
          "type": "address"
        }
      ],
      "name": "harvest",
      "outputs": [],
      "stateMutability": "nonpayable",
      "type": "function"
    },
    {
      "inputs": [
        {
          "internalType": "bytes32",
          "name": "role",
          "type": "bytes32"
        },
        {
          "internalType": "address",
          "name": "account",
          "type": "address"
        }
      ],
      "name": "hasRole",
      "outputs": [
        {
          "internalType": "bool",
          "name": "",
          "type": "bool"
        }
      ],
      "stateMutability": "view",
      "type": "function"
    },
    {
      "inputs": [
        {
          "internalType": "address",
          "name": "_multiSigWallet",
          "type": "address"
        },
        {
          "internalType": "address",
          "name": "_claimAccessor",
          "type": "address"
        }
      ],
      "name": "initialize",
      "outputs": [],
      "stateMutability": "nonpayable",
      "type": "function"
    },
    {
      "inputs": [],
      "name": "killPool",
      "outputs": [],
      "stateMutability": "nonpayable",
      "type": "function"
    },
    {
      "inputs": [],
      "name": "killed",
      "outputs": [
        {
          "internalType": "bool",
          "name": "",
          "type": "bool"
        }
      ],
      "stateMutability": "view",
      "type": "function"
    },
    {
      "inputs": [
        {
          "internalType": "uint256",
          "name": "_amount",
          "type": "uint256"
        }
      ],
      "name": "leaveFromPending",
      "outputs": [],
      "stateMutability": "nonpayable",
      "type": "function"
    },
    {
      "inputs": [
        {
          "internalType": "uint256",
          "name": "_amount",
          "type": "uint256"
        }
      ],
      "name": "leaveFromPoolInPending",
      "outputs": [],
      "stateMutability": "nonpayable",
      "type": "function"
    },
    {
      "inputs": [],
      "name": "lockTime",
      "outputs": [
        {
          "internalType": "uint256",
          "name": "",
          "type": "uint256"
        }
      ],
      "stateMutability": "view",
      "type": "function"
    },
    {
      "inputs": [
        {
          "internalType": "address",
          "name": "_from",
          "type": "address"
        },
        {
          "internalType": "address",
          "name": "_to",
          "type": "address"
        },
        {
          "internalType": "uint256",
          "name": "_amount",
          "type": "uint256"
        }
      ],
      "name": "lpTransfer",
      "outputs": [],
      "stateMutability": "nonpayable",
      "type": "function"
    },
    {
      "inputs": [],
      "name": "migrate",
      "outputs": [],
      "stateMutability": "nonpayable",
      "type": "function"
    },
    {
      "inputs": [],
      "name": "migrateTo",
      "outputs": [
        {
          "internalType": "address",
          "name": "",
          "type": "address"
        }
      ],
      "stateMutability": "view",
      "type": "function"
    },
    {
      "inputs": [],
      "name": "pausePool",
      "outputs": [],
      "stateMutability": "nonpayable",
      "type": "function"
    },
    {
      "inputs": [],
      "name": "paused",
      "outputs": [
        {
          "internalType": "bool",
          "name": "",
          "type": "bool"
        }
      ],
      "stateMutability": "view",
      "type": "function"
    },
    {
      "inputs": [
        {
          "internalType": "address",
          "name": "_to",
          "type": "address"
        }
      ],
      "name": "pendingUno",
      "outputs": [
        {
          "internalType": "uint256",
          "name": "pending",
          "type": "uint256"
        }
      ],
      "stateMutability": "view",
      "type": "function"
    },
    {
      "inputs": [
        {
          "internalType": "address",
          "name": "_to",
          "type": "address"
        },
        {
          "internalType": "uint256",
          "name": "_amount",
          "type": "uint256"
        }
      ],
      "name": "policyClaim",
      "outputs": [],
      "stateMutability": "nonpayable",
      "type": "function"
    },
    {
      "inputs": [],
      "name": "poolInfo",
      "outputs": [
        {
          "internalType": "uint256",
          "name": "lastRewardBlock",
          "type": "uint256"
        },
        {
          "internalType": "uint256",
          "name": "accUnoPerShare",
          "type": "uint256"
        },
        {
          "internalType": "uint256",
          "name": "unoMultiplierPerBlock",
          "type": "uint256"
        }
      ],
      "stateMutability": "view",
      "type": "function"
    },
    {
      "inputs": [
        {
          "internalType": "bytes32",
          "name": "role",
          "type": "bytes32"
        },
        {
          "internalType": "address",
          "name": "callerConfirmation",
          "type": "address"
        }
      ],
      "name": "renounceRole",
      "outputs": [],
      "stateMutability": "nonpayable",
      "type": "function"
    },
    {
      "inputs": [],
      "name": "revivePool",
      "outputs": [],
      "stateMutability": "nonpayable",
      "type": "function"
    },
    {
      "inputs": [
        {
          "internalType": "bytes32",
          "name": "role",
          "type": "bytes32"
        },
        {
          "internalType": "address",
          "name": "account",
          "type": "address"
        }
      ],
      "name": "revokeRole",
      "outputs": [],
      "stateMutability": "nonpayable",
      "type": "function"
    },
    {
      "inputs": [],
      "name": "rewarder",
      "outputs": [
        {
          "internalType": "address",
          "name": "",
          "type": "address"
        }
      ],
      "stateMutability": "view",
      "type": "function"
    },
    {
      "inputs": [],
      "name": "riskPool",
      "outputs": [
        {
          "internalType": "address",
          "name": "",
          "type": "address"
        }
      ],
      "stateMutability": "view",
      "type": "function"
    },
    {
      "inputs": [
        {
          "internalType": "bytes32",
          "name": "",
          "type": "bytes32"
        },
        {
          "internalType": "address",
          "name": "",
          "type": "address"
        }
      ],
      "name": "roleLockTime",
      "outputs": [
        {
          "internalType": "uint256",
          "name": "",
          "type": "uint256"
        }
      ],
      "stateMutability": "view",
      "type": "function"
    },
    {
      "inputs": [
        {
          "internalType": "address[]",
          "name": "_to",
          "type": "address[]"
        }
      ],
      "name": "rollOverReward",
      "outputs": [],
      "stateMutability": "nonpayable",
      "type": "function"
    },
    {
      "inputs": [
        {
          "internalType": "uint256",
          "name": "_lockTime",
          "type": "uint256"
        }
      ],
      "name": "setLockTime",
      "outputs": [],
      "stateMutability": "nonpayable",
      "type": "function"
    },
    {
      "inputs": [
        {
          "internalType": "address",
          "name": "_migrateTo",
          "type": "address"
        }
      ],
      "name": "setMigrateTo",
      "outputs": [],
      "stateMutability": "nonpayable",
      "type": "function"
    },
    {
      "inputs": [
        {
          "internalType": "uint256",
          "name": "_minLPCapital",
          "type": "uint256"
        }
      ],
      "name": "setMinLPCapital",
      "outputs": [],
      "stateMutability": "nonpayable",
      "type": "function"
    },
    {
      "inputs": [
        {
          "internalType": "uint256",
          "name": "_rewardMultiplier",
          "type": "uint256"
        }
      ],
      "name": "setRewardMultiplier",
      "outputs": [],
      "stateMutability": "nonpayable",
      "type": "function"
    },
    {
      "inputs": [
        {
          "internalType": "bytes32",
          "name": "_role",
          "type": "bytes32"
        },
        {
          "internalType": "address",
          "name": "_account",
          "type": "address"
        }
      ],
      "name": "setRole",
      "outputs": [],
      "stateMutability": "nonpayable",
      "type": "function"
    },
    {
      "inputs": [
        {
          "internalType": "uint256",
          "name": "_startTime",
          "type": "uint256"
        }
      ],
      "name": "setStakingStartTime",
      "outputs": [],
      "stateMutability": "nonpayable",
      "type": "function"
    },
    {
      "inputs": [],
      "name": "stakingStartTime",
      "outputs": [
        {
          "internalType": "uint256",
          "name": "",
          "type": "uint256"
        }
      ],
      "stateMutability": "view",
      "type": "function"
    },
    {
      "inputs": [
        {
          "internalType": "bytes4",
          "name": "interfaceId",
          "type": "bytes4"
        }
      ],
      "name": "supportsInterface",
      "outputs": [
        {
          "internalType": "bool",
          "name": "",
          "type": "bool"
        }
      ],
      "stateMutability": "view",
      "type": "function"
    },
    {
      "inputs": [],
      "name": "syntheticSSRP",
      "outputs": [
        {
          "internalType": "address",
          "name": "",
          "type": "address"
        }
      ],
      "stateMutability": "view",
      "type": "function"
    },
    {
      "inputs": [],
      "name": "toggleEmergencyWithdraw",
      "outputs": [],
      "stateMutability": "nonpayable",
      "type": "function"
    },
    {
      "inputs": [],
      "name": "toggleRollOver",
      "outputs": [],
      "stateMutability": "nonpayable",
      "type": "function"
    },
    {
      "inputs": [],
      "name": "unpausePool",
      "outputs": [],
      "stateMutability": "nonpayable",
      "type": "function"
    },
    {
      "inputs": [],
      "name": "updatePool",
      "outputs": [],
      "stateMutability": "nonpayable",
      "type": "function"
    },
    {
      "inputs": [
        {
          "internalType": "address",
          "name": "",
          "type": "address"
        }
      ],
      "name": "userInfo",
      "outputs": [
        {
          "internalType": "uint256",
          "name": "lastWithdrawTime",
          "type": "uint256"
        },
        {
          "internalType": "uint256",
          "name": "rewardDebt",
          "type": "uint256"
        },
        {
          "internalType": "uint256",
          "name": "amount",
          "type": "uint256"
        },
        {
          "internalType": "bool",
          "name": "isNotRollOver",
          "type": "bool"
        }
      ],
      "stateMutability": "view",
      "type": "function"
    }
  ],
  "transactionHash": "0x98a843bf744df13ac135e0f74989318362894e7f9db9eaf1f50cd643e5acd2d8",
  "args": [],
  "numDeployments": 1,
  "solcInputHash": "805f75f5e326618e0af6cb56c124c05d",
  "bytecode": "0x608060405234801561001057600080fd5b5061452a806100206000396000f3fe608060405234801561001057600080fd5b50600436106103425760003560e01c80638fd3ab80116101b8578063ba61945711610104578063e08c5de1116100a2578063e3161ddd1161007c578063e3161ddd14610795578063e3824a381461079d578063f1daf24c146107b0578063fd91db96146107c357600080fd5b8063e08c5de11461074f578063e0c8d9a514610762578063e19e71681461078d57600080fd5b8063d99fec71116100de578063d99fec711461070c578063db2e21bc14610721578063dcc3e06e14610729578063dff872031461073c57600080fd5b8063ba619457146106be578063c4e5dacf146106e6578063d547741f146106f957600080fd5b8063a217fddf11610171578063aceda7f91161014b578063aceda7f91461065d578063ae04d45d14610671578063af16d6e014610684578063b15037741461069757600080fd5b8063a217fddf14610645578063a3bdd6321461064d578063aa09d5b71461065557600080fd5b80638fd3ab80146105be57806391d14854146105c65780639336f406146105d957806393b6b86c1461060c57806398c6e7601461061f5780639cdf6c271461063257600080fd5b8063485cc95511610292578063736ec05c116102305780637da2a4a71161020a5780637da2a4a7146105625780638395206c1461058957806389919b711461059c5780638ba04b17146105ab57600080fd5b8063736ec05c1461053257806375b238fc146105455780637a39b8d81461055a57600080fd5b80635c975abb1161026c5780635c975abb146104f65780635d90bad91461050e57806367755415146105215780636abfd1831461052957600080fd5b8063485cc9551461048b5780634c0323661461049e5780635a2f3d09146104c957600080fd5b80630e9ae420116102ff578063248a9ca3116102d9578063248a9ca31461043f5780632e4a0142146104525780632f2ff15d1461046557806336568abe1461047857600080fd5b80630e9ae420146103be5780631959a002146103d15780631f3a0e411461042b57600080fd5b806301ffc9a714610347578063068cc5141461036f578063093cf18f146103795780630bd075a1146103815780630d668087146103945780630e5c011e146103ab575b600080fd5b61035a610355366004613e0c565b6107d6565b60405190151581526020015b60405180910390f35b61037761080d565b005b610377610886565b61037761038f366004613e3d565b610952565b61039d60025481565b604051908152602001610366565b6103776103b9366004613e7b565b610a3a565b6103776103cc366004613e98565b610aaa565b6104096103df366004613e7b565b60066020526000908152604090208054600182015460028301546003909301549192909160ff1684565b6040805194855260208501939093529183015215156060820152608001610366565b60055461035a90600160a01b900460ff1681565b61039d61044d366004613e3d565b610dd6565b610377610460366004613ed9565b610df8565b610377610473366004613f05565b611001565b610377610486366004613f05565b611098565b610377610499366004613f35565b6110cb565b6001546104b1906001600160a01b031681565b6040516001600160a01b039091168152602001610366565b600854600954600a546104db92919083565b60408051938452602084019290925290820152606001610366565b6000805160206144b58339815191525460ff1661035a565b61037761051c366004613e3d565b61130b565b6103776113f6565b61039d60035481565b610377610540366004613e7b565b61149a565b61039d6000805160206144d583398151915281565b610377611571565b610377336000908152600660205260409020600301805460ff19811660ff90911615179055565b610377610597366004613e3d565b61161b565b61039d670de0b6b3a764000081565b6103776105b9366004613fac565b611888565b610377611adc565b61035a6105d4366004613f05565b611cd0565b6105ec6105e7366004613e7b565b611d08565b604080519485526020850193909352918301526060820152608001610366565b61037761061a366004613e3d565b611e26565b6000546104b1906001600160a01b031681565b610377610640366004613f35565b611f6a565b61039d600081565b61039d6121aa565b61037761221d565b60055461035a90600160a81b900460ff1681565b61037761067f366004613e3d565b612289565b61037761069236600461404c565b612374565b61039d7f6d5c9827c1f410bbb61d3b2a0a34b6b30492d9a1fd38588edca7ec4562ab9c9b81565b6106d16106cc366004613e7b565b6125bb565b60408051928352602083019190915201610366565b6005546104b1906001600160a01b031681565b610377610707366004613f05565b612667565b61039d60008051602061447583398151915281565b610377612683565b6004546104b1906001600160a01b031681565b61037761074a366004613f05565b612872565b61039d61075d366004613e7b565b6129ae565b61039d610770366004613f05565b600760209081526000928352604080842090915290825290205481565b610377612ae8565b610377612bd2565b6103776107ab366004613e3d565b612cf2565b6103776107be366004613e3d565b612dad565b6103776107d13660046140ad565b612fa5565b60006001600160e01b03198216637965db0b60e01b148061080757506301ffc9a760e01b6001600160e01b03198316145b92915050565b6000805160206144d58339815191526108258161338f565b33600090815260008051602061445583398151915260205260409020546000805160206144d58339815191529042101561087a5760405162461bcd60e51b815260040161087190614172565b60405180910390fd5b610882613399565b5050565b6000805160206144d583398151915261089e8161338f565b33600090815260008051602061445583398151915260205260409020546000805160206144d5833981519152904210156108ea5760405162461bcd60e51b815260040161087190614172565b6005805460ff600160a81b808304821615810260ff60a81b19909316929092179283905560405130937f4a1fbdd1e9ef46cfe9e097f622e1d79f51dcd6762c86122e6a8198c5394d640193610946939104161515815260200190565b60405180910390a25050565b6000805160206144d583398151915261096a8161338f565b33600090815260008051602061445583398151915260205260409020546000805160206144d5833981519152904210156109b65760405162461bcd60e51b815260040161087190614172565b600083116109fa5760405162461bcd60e51b8152602060048201526011602482015270556e6f52653a207a65726f2076616c756560781b6044820152606401610871565b600a83905560405183815230907fbd1dd13c6a5b4a28ebd27fdcb8fdd01aba6bbb9f67599306248f465bcdf9817f906020015b60405180910390a2505050565b600354421015610a5c5760405162461bcd60e51b8152600401610871906141a7565b600554600160a01b900460ff1615610a865760405162461bcd60e51b8152600401610871906141de565b610a8e6133f3565b610a96613424565b610a9f8161346e565b610aa761356c565b50565b600554600160a01b900460ff1615610ad45760405162461bcd60e51b8152600401610871906141de565b610adc6133f3565b610ae4613424565b6005546001600160a01b03163314610b3e5760405162461bcd60e51b815260206004820181905260248201527f556e6f52653a206e6f7420616c6c6f77206f7468657273207472616e736665726044820152606401610871565b6001546001600160a01b03848116911614801590610b6a57506001546001600160a01b03838116911614155b15610dc957610b788361346e565b6001600160a01b03838116600081815260066020526040808220600201546005549151631665744b60e11b81526004810194909452939192911690632ccae89690602401606060405180830381865afa158015610bd9573d6000803e3d6000fd5b505050506040513d601f19601f82011682018060405250810190610bfd919061420d565b50509050828183610c0e9190614251565b1015610c5c5760405162461bcd60e51b815260206004820152601760248201527f556e6f52653a2062616c616e6365206f766572666c6f770000000000000000006044820152606401610871565b600954600090670de0b6b3a764000090610c769085614264565b610c80919061427b565b600954909150670de0b6b3a764000090610c9a9086614264565b610ca4919061427b565b610cae9082614251565b6001600160a01b038716600090815260066020526040902060010155610cd48484614251565b6001600160a01b038716600090815260066020526040902060020155600954670de0b6b3a764000090610d079086614264565b610d11919061427b565b6001600160a01b038616600090815260066020526040902060010154610d37919061429d565b6001600160a01b0386166000908152600660205260409020600181019190915560020154610d6690859061429d565b6001600160a01b0380871660008181526006602052604090819020600201939093559151908816907fe97af49bf17de46bed3f953a242569bed68114f89f39c1afe4012bba1c5963d490610dbd9088815260200190565b60405180910390a35050505b610dd161356c565b505050565b6000908152600080516020614495833981519152602052604090206001015490565b600080516020614475833981519152610e108161338f565b3360009081527f07cf794796064a1dc9f93079878b258b7331026292fbb4d3f9a990077aff9e5d602052604090205460008051602061447583398151915290421015610e6e5760405162461bcd60e51b815260040161087190614172565b600354421015610e905760405162461bcd60e51b8152600401610871906141a7565b610e986133f3565b600554600160a01b900460ff1615610ec25760405162461bcd60e51b8152600401610871906141de565b610eca613424565b6001600160a01b038416610ef05760405162461bcd60e51b8152600401610871906142b0565b60008311610f355760405162461bcd60e51b8152602060048201526012602482015271155b9bd4994e881e995c9bc8185b5bdd5b9d60721b6044820152606401610871565b60055460405163172500a160e11b81526001600160a01b038681166004830152602482018690526000921690632e4a0142906044016020604051808303816000875af1158015610f89573d6000803e3d6000fd5b505050506040513d601f19601f82011682018060405250810190610fad91906142dd565b9050846001600160a01b03167f6420c9536b9a539410a930b1fd8d115dc296d8b71426dcc0ab64f2f736b7d59f82604051610fea91815260200190565b60405180910390a250610ffb61356c565b50505050565b6110096133f3565b600554600160a01b900460ff16156110335760405162461bcd60e51b8152600401610871906141de565b61103c82610dd6565b6110458161338f565b61104e83610dd6565b60008181526007602090815260408083203384529091529020544210156110875760405162461bcd60e51b815260040161087190614172565b6110918484613592565b5050505050565b6001600160a01b03811633146110c15760405163334bd91960e11b815260040160405180910390fd5b610dd18282613637565b7ff0c57e16840df040f15088dc2f81fe391c3923bec73e23a9662efc9c229c6a008054600160401b810460ff16159067ffffffffffffffff166000811580156111115750825b905060008267ffffffffffffffff16600114801561112e5750303b155b90508115801561113c575080155b1561115a5760405163f92ee8a960e01b815260040160405180910390fd5b845467ffffffffffffffff19166001178555831561118457845460ff60401b1916600160401b1785555b6001600160a01b0387166111e55760405162461bcd60e51b815260206004820152602260248201527f556e6f52653a207a65726f206d756c746953696757616c6c6574206164647265604482015261737360f01b6064820152608401610871565b6111f2426203f48061429d565b600355620d2f006002556112046136bf565b61120c6136cf565b6112146136df565b61122c6000805160206144d583398151915288613592565b5061124560008051602061447583398151915287613592565b5061125e6000805160206144d5833981519152806136e7565b6112846000805160206144758339815191526000805160206144d58339815191526136e7565b6112bc7f6d5c9827c1f410bbb61d3b2a0a34b6b30492d9a1fd38588edca7ec4562ab9c9b6000805160206144d58339815191526136e7565b831561130257845460ff60401b19168555604051600181527fc7f505b2f371ae2175ee4913f4499e1f2633a7b5936321eed1cdaeb6115181d29060200160405180910390a15b50505050505050565b6000805160206144d58339815191526113238161338f565b33600090815260008051602061445583398151915260205260409020546000805160206144d58339815191529042101561136f5760405162461bcd60e51b815260040161087190614172565b600083116113bf5760405162461bcd60e51b815260206004820181905260248201527f556e6f52653a206e6f7420616c6c6f77207a65726f2073746172742074696d656044820152606401610871565b600383905560405183815230907fa8aa08cc14eef7b97ab4cd52f37082e23f7526bccc98cf91e6a1d412494b905190602001610a2d565b6000805160206144d583398151915261140e8161338f565b33600090815260008051602061445583398151915260205260409020546000805160206144d58339815191529042101561145a5760405162461bcd60e51b815260040161087190614172565b6005805460ff60a01b191690556040516000815233907f77337fcf1b48e6e024b256962b66c49de98c9f606b2cd9937cc0edbc7a0fb70990602001610946565b6000805160206144d58339815191526114b28161338f565b33600090815260008051602061445583398151915260205260409020546000805160206144d5833981519152904210156114fe5760405162461bcd60e51b815260040161087190614172565b6001600160a01b0383166115245760405162461bcd60e51b8152600401610871906142b0565b600080546001600160a01b0319166001600160a01b0385169081178255604051909130917f877238238dbd7134e89b00809ea73fabb50da117ace807a6b31c733bbf55d3699190a3505050565b6000805160206144d58339815191526115898161338f565b33600090815260008051602061445583398151915260205260409020546000805160206144d5833981519152904210156115d55760405162461bcd60e51b815260040161087190614172565b6005805460ff60a01b1916600160a01b1790556040516001815233907f7c952f2e528aa25b4eaf8b6c07af29184b27ce591295e543ced0a27b167dc79490602001610946565b60035442101561163d5760405162461bcd60e51b8152600401610871906141a7565b6116456133f3565b61164d613424565b6116563361346e565b336000908152600660209081526040808320600201546005548251627a9fd960e91b815292519194936001600160a01b039091169263f53fb20092600480830193928290030181865afa1580156116b1573d6000803e3d6000fd5b505050506040513d601f19601f820116820180604052508101906116d591906142dd565b600554604051631665744b60e11b81523360048201529192506000916001600160a01b0390911690632ccae89690602401606060405180830381865afa158015611723573d6000803e3d6000fd5b505050506040513d601f19601f82011682018060405250810190611747919061420d565b505090508184670de0b6b3a76400006117609190614264565b61176a919061427b565b6117748285614251565b10156117c25760405162461bcd60e51b815260206004820152601f60248201527f556e6f52653a20776974686472617720616d6f756e74206f766572666c6f77006044820152606401610871565b6005546040516323de6d9560e11b8152336004820152602481018690526001600160a01b03909116906347bcdb2a90604401600060405180830381600087803b15801561180e57600080fd5b505af1158015611822573d6000803e3d6000fd5b50503360008181526006602090815260409182902042905560055491518981526001600160a01b0390921694509192507f940a14c75c418e7230a2e65567722d2dda5a6713cf71b369bd0fa219fdc1ac5e910160405180910390a3505050610aa761356c565b6000805160206144d58339815191526118a08161338f565b33600090815260008051602061445583398151915260205260409020546000805160206144d5833981519152904210156118ec5760405162461bcd60e51b815260040161087190614172565b6118f4613424565b6005546001600160a01b03161561194d5760405162461bcd60e51b815260206004820181905260248201527f556e6f52653a207269736b20706f6f6c206372656174656420616c72656164796044820152606401610871565b6001600160a01b0385166119a35760405162461bcd60e51b815260206004820152601b60248201527f556e6f52653a207a65726f20666163746f7279206164647265737300000000006044820152606401610871565b6001600160a01b0384166119f95760405162461bcd60e51b815260206004820152601c60248201527f556e6f52653a207a65726f2063757272656e63792061646472657373000000006044820152606401610871565b604051630d98e31f60e01b81526001600160a01b03861690630d98e31f90611a2f908c908c908c908c9030908c9060040161431f565b6020604051808303816000875af1158015611a4e573d6000803e3d6000fd5b505050506040513d601f19601f82011682018060405250810190611a72919061436d565b600580546001600160a01b0319166001600160a01b039290921691821790554360085560006009819055600a85905560405130917f184d7691bf4a73930a21086fa1bdf0ee3075421531a60730288325fd5838021791a3611ad161356c565b505050505050505050565b611ae4613424565b611aec6133f3565b600554600160a01b900460ff1615611b165760405162461bcd60e51b8152600401610871906141de565b6000546001600160a01b0316611b3e5760405162461bcd60e51b8152600401610871906142b0565b611b473361346e565b60025433600090815260066020526040812054909190611b679042614251565b60055460008054604051633613302f60e01b81523360048201526001600160a01b0391821660248201529490931160448501819052945092911690633613302f906064016020604051808303816000875af1158015611bca573d6000803e3d6000fd5b505050506040513d601f19601f82011682018060405250810190611bee91906142dd565b6000805460405163ed59344b60e01b8152336004820152602481018490526060604482015260648101929092529192506001600160a01b039091169063ed59344b90608401600060405180830381600087803b158015611c4d57600080fd5b505af1158015611c61573d6000803e3d6000fd5b505033600081815260066020908152604080832060028101849055600101839055915491518681526001600160a01b0390921694509192507ff0fee1f70845d356d6a3e0baa0944ce846437b6469ea89416dad2cd7067919a4910160405180910390a35050611cce61356c565b565b6000918252600080516020614495833981519152602090815260408084206001600160a01b0393909316845291905290205460ff1690565b6000806000806000600560009054906101000a90046001600160a01b03166001600160a01b031663f53fb2006040518163ffffffff1660e01b8152600401602060405180830381865afa158015611d63573d6000803e3d6000fd5b505050506040513d601f19601f82011682018060405250810190611d8791906142dd565b600554604051631665744b60e11b81526001600160a01b038981166004830152929350911690632ccae89690602401606060405180830381865afa158015611dd3573d6000803e3d6000fd5b505050506040513d601f19601f82011682018060405250810190611df7919061420d565b9196509093509150670de0b6b3a7640000611e128287614264565b611e1c919061427b565b9350509193509193565b6000805160206144d5833981519152611e3e8161338f565b33600090815260008051602061445583398151915260205260409020546000805160206144d583398151915290421015611e8a5760405162461bcd60e51b815260040161087190614172565b60008311611eda5760405162461bcd60e51b815260206004820152601b60248201527f556e6f52653a206e6f7420616c6c6f77207a65726f2076616c756500000000006044820152606401610871565b6005546040516324edae1b60e21b8152600481018590526001600160a01b03909116906393b6b86c90602401600060405180830381600087803b158015611f2057600080fd5b505af1158015611f34573d6000803e3d6000fd5b50506040518581523092507f353ac2778fe09bc60cf3070bb11d548faf4037e4217a06977c16463087474aab9150602001610a2d565b6000805160206144d5833981519152611f828161338f565b33600090815260008051602061445583398151915260205260409020546000805160206144d583398151915290421015611fce5760405162461bcd60e51b815260040161087190614172565b611fd6613424565b6001600160a01b03841661202c5760405162461bcd60e51b815260206004820152601960248201527f556e6f52653a207a65726f206f776e65722061646472657373000000000000006044820152606401610871565b6001600160a01b0383166120825760405162461bcd60e51b815260206004820152601a60248201527f556e6f52653a7a65726f20666163746f727920616464726573730000000000006044820152606401610871565b6005546001600160a01b03166120da5760405162461bcd60e51b815260206004820152601b60248201527f556e6f52653a7a65726f204c5020746f6b656e206164647265737300000000006044820152606401610871565b6005546040516377b3d99760e01b81526001600160a01b0386811660048301529182166024820152908416906377b3d997906044016020604051808303816000875af115801561212e573d6000803e3d6000fd5b505050506040513d601f19601f82011682018060405250810190612152919061436d565b600180546001600160a01b0319166001600160a01b0392831690811790915560055460405192169130907f3d2362862a7867eb0f64552c1fa638b6adf3907a7defe349eab238f6a0b2d83190600090a4610ffb61356c565b6005546040805163e95aa8d360e01b815290516000926001600160a01b03169163e95aa8d39160048083019260209291908290030181865afa1580156121f4573d6000803e3d6000fd5b505050506040513d601f19601f8201168201806040525081019061221891906142dd565b905090565b6000805160206144d58339815191526122358161338f565b33600090815260008051602061445583398151915260205260409020546000805160206144d5833981519152904210156122815760405162461bcd60e51b815260040161087190614172565b61088261374a565b6000805160206144d58339815191526122a18161338f565b33600090815260008051602061445583398151915260205260409020546000805160206144d5833981519152904210156122ed5760405162461bcd60e51b815260040161087190614172565b6000831161233d5760405162461bcd60e51b815260206004820152601f60248201527f556e6f52653a206e6f7420616c6c6f77207a65726f206c6f636b2074696d65006044820152606401610871565b600283905560405183815230907f2c2c43c64e937ae35257af782c222986dc5adb4f56dc0881594e79bf83658d8c90602001610a2d565b6000805160206144d583398151915261238c8161338f565b33600090815260008051602061445583398151915260205260409020546000805160206144d5833981519152904210156123d85760405162461bcd60e51b815260040161087190614172565b6123e0613424565b6001600160a01b0384166124365760405162461bcd60e51b815260206004820181905260248201527f556e6f52653a20726577617264657220666163746f7279206e6f2065786973746044820152606401610871565b6001600160a01b03851661248c5760405162461bcd60e51b815260206004820152601c60248201527f556e6f52653a207a65726f206f70657261746f722061646472657373000000006044820152606401610871565b6001600160a01b0383166124e25760405162461bcd60e51b815260206004820152601c60248201527f556e6f52653a207a65726f2063757272656e63792061646472657373000000006044820152606401610871565b6040516369ee745160e01b81526001600160a01b03868116600483015284811660248301523060448301528516906369ee7451906064016020604051808303816000875af1158015612538573d6000803e3d6000fd5b505050506040513d601f19601f8201168201806040525081019061255c919061436d565b600480546001600160a01b0319166001600160a01b0392831690811790915560405191851682529030907f6c409a36847a0a3870deae25f656f4300d45957d2643fc27faab145e19cfcf1b9060200160405180910390a361109161356c565b6001600160a01b038082166000908152600660209081526040808320600201546005548251627a9fd960e91b81529251949591948694919092169263f53fb20092600480830193928290030181865afa15801561261c573d6000803e3d6000fd5b505050506040513d601f19601f8201168201806040525081019061264091906142dd565b9050670de0b6b3a76400006126558284614264565b61265f919061427b565b925050915091565b61267082610dd6565b6126798161338f565b610ffb8383613637565b61268b6133f3565b612693613424565b600554600160a81b900460ff166126fc5760405162461bcd60e51b815260206004820152602760248201527f556e6f72653a20656d657267656e63795769746864726177206973206e6f7420604482015266185b1b1bddd95960ca1b6064820152608401610871565b3360009081526006602090815260409182902082516080810184528154815260018201549281019290925260028101549282018390526003015460ff1615156060820152908061278e5760405162461bcd60e51b815260206004820152601760248201527f556e6f72653a205a65726f207573657220616d6f756e740000000000000000006044820152606401610871565b336000818152600660205260408082208281556001810183905560028101929092556003909101805460ff1916905560055490516395ccea6760e01b81526004810192909252602482018390526001600160a01b0316906395ccea67906044016020604051808303816000875af115801561280d573d6000803e3d6000fd5b505050506040513d601f19601f82011682018060405250810190612831919061438a565b5060405181815233907f5fafa99d0643513820be26656b45130b01e1c03062e1266bf36f88cbd3bd9695906020015b60405180910390a25050611cce61356c565b600554600160a01b900460ff161561289c5760405162461bcd60e51b8152600401610871906141de565b6128a46133f3565b6000805160206144d58339815191526128bc8161338f565b33600090815260008051602061445583398151915260205260409020546000805160206144d5833981519152904210156129085760405162461bcd60e51b815260040161087190614172565b6001600160a01b03831661292e5760405162461bcd60e51b8152600401610871906142b0565b6129388484613592565b50600254612946904261429d565b60008581526007602090815260408083206001600160a01b038816808552925291829020929092555130907faa08bed1c8e2500452096c9af125a3944be2a139782a1853abaef7a74bd7dd51906129a09088815260200190565b60405180910390a350505050565b600080600560009054906101000a90046001600160a01b03166001600160a01b03166318160ddd6040518163ffffffff1660e01b8152600401602060405180830381865afa158015612a04573d6000803e3d6000fd5b505050506040513d601f19601f82011682018060405250810190612a2891906142dd565b6009546008549192509043118015612a3f57508115155b15612a9557600854600090612a549043614251565b600a54909150600090612a679083614264565b905083612a7c670de0b6b3a764000083614264565b612a86919061427b565b612a90908461429d565b925050505b6001600160a01b03841660009081526006602052604090206002810154600190910154670de0b6b3a7640000612acb8484614264565b612ad5919061427b565b612adf9190614251565b95945050505050565b612af0613424565b600554600160a01b900460ff1615612b1a5760405162461bcd60e51b8152600401610871906141de565b612b226133f3565b600554604051635d2cd2a760e01b815233600482015260009182916001600160a01b0390911690635d2cd2a79060240160408051808303816000875af1158015612b70573d6000803e3d6000fd5b505050506040513d601f19601f82011682018060405250810190612b9491906143ac565b604080518381526020810183905292945090925033917f09c6481cb228ea7f61ceb67c8e708038eb74bbb68cfcc54a9cfca199087ecfb79101612860565b600854431115611cce57600554604080516318160ddd60e01b815290516000926001600160a01b0316916318160ddd9160048083019260209291908290030181865afa158015612c26573d6000803e3d6000fd5b505050506040513d601f19601f82011682018060405250810190612c4a91906142dd565b90508015612ca757600854600090612c629043614251565b600a54909150600090612c759083614264565b905082612c8a670de0b6b3a764000083614264565b612c94919061427b565b600954612ca1919061429d565b60095550505b43600881905560095460408051928352602083018490528201527f1f2d1a9fde053af46b5db3dc92a8aa8696e56a677998fdd1311b45be341f7853906060015b60405180910390a150565b600354421015612d145760405162461bcd60e51b8152600401610871906141a7565b612d1c6133f3565b600554600160a01b900460ff1615612d465760405162461bcd60e51b8152600401610871906141de565b612d4e613424565b612d5781613793565b612d61813361381e565b6005546040518281526001600160a01b039091169033907fd3dba7b5565b16b7749db7d1938410a636e3c7a6ea46ed8ce7e259e19f2f3b9f9060200160405180910390a3610aa761356c565b600354421015612dcf5760405162461bcd60e51b8152600401610871906141a7565b612dd76133f3565b612ddf613424565b60025433600090815260066020526040902054612dfc9042614251565b1015612e3f5760405162461bcd60e51b8152602060048201526012602482015271556e6f52653a204c6f636b65642074696d6560701b6044820152606401610871565b612e483361346e565b33600081815260066020526040808220600201546005549151636ce40c7960e01b81526004810194909452602484018590529282916001600160a01b031690636ce40c799060440160408051808303816000875af1158015612eae573d6000803e3d6000fd5b505050506040513d601f19601f82011682018060405250810190612ed291906143ac565b915091506000670de0b6b3a764000060086001015485612ef29190614264565b612efc919061427b565b600954909150670de0b6b3a764000090612f169085614264565b612f20919061427b565b612f2a9082614251565b33600090815260066020526040902060010155612f478385614251565b3360008181526006602090815260409182902060020193909355805186815292830185905290917f617c612e91653c86cd4538e3de94b98c8dd628b41e343380d1cf858f95c0674a910160405180910390a250505050610aa761356c565b600354421015612fc75760405162461bcd60e51b8152600401610871906141a7565b600554600160a01b900460ff1615612ff15760405162461bcd60e51b8152600401610871906141de565b612ff96133f3565b7f6d5c9827c1f410bbb61d3b2a0a34b6b30492d9a1fd38588edca7ec4562ab9c9b6130238161338f565b61302b613424565b600480546040805163e5a6b10f60e01b815290516001600160a01b039092169263e5a6b10f9282820192602092908290030181865afa158015613072573d6000803e3d6000fd5b505050506040513d601f19601f82011682018060405250810190613096919061436d565b6001600160a01b0316600560009054906101000a90046001600160a01b03166001600160a01b031663e5a6b10f6040518163ffffffff1660e01b8152600401602060405180830381865afa1580156130f2573d6000803e3d6000fd5b505050506040513d601f19601f82011682018060405250810190613116919061436d565b6001600160a01b03161461316c5760405162461bcd60e51b815260206004820152601b60248201527f556e6f52653a2063757272656e6379206e6f74206d61746368656400000000006044820152606401610871565b613174612bd2565b60008060005b845181101561327f5760066000868381518110613199576131996143d0565b6020908102919091018101516001600160a01b031682528101919091526040016000206003015460ff16156132105760405162461bcd60e51b815260206004820152601a60248201527f556e6f52653a20726f6c6c6f766572206973206e6f74207365740000000000006044820152606401610871565b600080613235878481518110613228576132286143d0565b6020026020010151613a59565b9092509050613244828661429d565b9450613250818561429d565b935061327582888581518110613268576132686143d0565b602002602001015161381e565b505060010161317a565b506004546001600160a01b03161580159061329957508115155b80156132a55750600081115b1561332e5760048054600554604051631963b13960e21b81526001600160a01b03918216938101939093526024830185905260448301849052169063658ec4e4906064016020604051808303816000875af1158015613308573d6000803e3d6000fd5b505050506040513d601f19601f8201168201806040525081019061332c91906142dd565b505b6005546040516001600160a01b039091169061334b9086906143e6565b604051908190038120848252907f2b1ab5aad08854cca1e3b3cd94bbb4acc5cf06bd794383289c30ae264d03121d9060200160405180910390a3505061088261356c565b610aa78133613b77565b6133a1613bb0565b6000805160206144b5833981519152805460ff191681557f5db9ee0a495bf2e6ff9c91a7834c1ba4fdd244a5e8aa4e537bd38aeae4b073aa335b6040516001600160a01b039091168152602001612ce7565b6000805160206144b58339815191525460ff1615611cce5760405163d93c066560e01b815260040160405180910390fd5b7f9b779b17422d0df92223018b32b4d1fa46e071723d6817e2486d003becc55f0080546001190161346857604051633ee5aeb560e01b815260040160405180910390fd5b60029055565b613476612bd2565b60008061348283613a59565b60045491935091506001600160a01b0316158015906134a057508115155b156135275760048054604051631963b13960e21b81526001600160a01b0386811693820193909352602481018590526044810184905291169063658ec4e4906064016020604051808303816000875af1158015613501573d6000803e3d6000fd5b505050506040513d601f19601f8201168201806040525081019061352591906142dd565b505b6040518281526001600160a01b0384169033907fa0306f61d3fafe13787b78e276cb6b644382854a66cb46daae14227d3ec267979060200160405180910390a3505050565b60017f9b779b17422d0df92223018b32b4d1fa46e071723d6817e2486d003becc55f0055565b60006000805160206144958339815191526135ad8484611cd0565b61362d576000848152602082815260408083206001600160a01b03871684529091529020805460ff191660011790556135e33390565b6001600160a01b0316836001600160a01b0316857f2f8788117e7eff1d82e926ec794901d17c78024a50270940304540a733656f0d60405160405180910390a46001915050610807565b6000915050610807565b60006136416133f3565b600554600160a01b900460ff161561366b5760405162461bcd60e51b8152600401610871906141de565b61367483610dd6565b60008181526007602090815260408083203384529091529020544210156136ad5760405162461bcd60e51b815260040161087190614172565b6136b78484613be0565b949350505050565b6136c7613c5c565b611cce613ca5565b6136d7613c5c565b611cce613cad565b611cce613c5c565b600080516020614495833981519152600061370184610dd6565b600085815260208490526040808220600101869055519192508491839187917fbd79b86ffe0ab8e8776151514217cd7cacd52c909f66475c3af44e129f0b00ff9190a450505050565b6137526133f3565b6000805160206144b5833981519152805460ff191660011781557f62e78cea01bee320cd4e420270b5ea74000d11b0c9f74754ebdbfc544b05a258336133db565b6005546040805163e5a6b10f60e01b815290516000926001600160a01b03169163e5a6b10f9160048083019260209291908290030181865afa1580156137dd573d6000803e3d6000fd5b505050506040513d601f19601f82011682018060405250810190613801919061436d565b60055490915061088290829033906001600160a01b031685613cce565b816000036138625760405162461bcd60e51b8152602060048201526011602482015270556e6f52653a205a45524f2056616c756560781b6044820152606401610871565b61386a612bd2565b60055460408051627a9fd960e91b815290516000926001600160a01b03169163f53fb2009160048083019260209291908290030181865afa1580156138b3573d6000803e3d6000fd5b505050506040513d601f19601f820116820180604052508101906138d791906142dd565b600554604051637e348b7d60e01b81526001600160a01b03858116600483015260248201879052929350911690637e348b7d90604401600060405180830381600087803b15801561392757600080fd5b505af115801561393b573d6000803e3d6000fd5b505050506001600160a01b03821660009081526006602090815260409182902082516080810184528154815260018201549281019290925260028101549282019290925260039091015460ff1615156060820152600954670de0b6b3a76400009083906139a88784614264565b6139b29190614264565b6139bc919061427b565b6139c6919061427b565b81602001516139d5919061429d565b6020820152816139ed85670de0b6b3a7640000614264565b6139f7919061427b565b8160400151613a06919061429d565b60408281019182526001600160a01b039490941660009081526006602090815294902082518155938201516001850155516002840155606001516003909201805460ff1916921515929092179091555050565b600554604051631665744b60e11b81526001600160a01b0383811660048301526000928392839290911690632ccae89690602401606060405180830381865afa158015613aaa573d6000803e3d6000fd5b505050506040513d601f19601f82011682018060405250810190613ace919061420d565b509150508015613ae45750600093849350915050565b6001600160a01b038416600090815260066020526040812060020154600954909190670de0b6b3a764000090613b1a9084614264565b613b24919061427b565b6001600160a01b03871660009081526006602052604081206001015491925090613b4e9083614251565b6001600160a01b0390971660009081526006602052604090206001019190915550939492505050565b613b818282611cd0565b6108825760405163e2517d3f60e01b81526001600160a01b038216600482015260248101839052604401610871565b6000805160206144b58339815191525460ff16611cce57604051638dfc202b60e01b815260040160405180910390fd5b6000600080516020614495833981519152613bfb8484611cd0565b1561362d576000848152602082815260408083206001600160a01b0387168085529252808320805460ff1916905551339287917ff6391f5c32d9c69d2a47ea670b442974b53935d1edc7fd64eb21e047a839171b9190a46001915050610807565b7ff0c57e16840df040f15088dc2f81fe391c3923bec73e23a9662efc9c229c6a0054600160401b900460ff16611cce57604051631afcd79f60e31b815260040160405180910390fd5b61356c613c5c565b613cb5613c5c565b6000805160206144b5833981519152805460ff19169055565b604080516001600160a01b0385811660248301528481166044830152606480830185905283518084039091018152608490920183526020820180516001600160e01b03166323b872dd60e01b1790529151600092839290881691613d329190614425565b6000604051808303816000865af19150503d8060008114613d6f576040519150601f19603f3d011682016040523d82523d6000602084013e613d74565b606091505b5091509150818015613d9e575080511580613d9e575080806020019051810190613d9e919061438a565b613e045760405162461bcd60e51b815260206004820152603160248201527f5472616e7366657248656c7065723a3a7472616e7366657246726f6d3a207472604482015270185b9cd9995c919c9bdb4819985a5b1959607a1b6064820152608401610871565b505050505050565b600060208284031215613e1e57600080fd5b81356001600160e01b031981168114613e3657600080fd5b9392505050565b600060208284031215613e4f57600080fd5b5035919050565b6001600160a01b0381168114610aa757600080fd5b8035613e7681613e56565b919050565b600060208284031215613e8d57600080fd5b8135613e3681613e56565b600080600060608486031215613ead57600080fd5b8335613eb881613e56565b92506020840135613ec881613e56565b929592945050506040919091013590565b60008060408385031215613eec57600080fd5b8235613ef781613e56565b946020939093013593505050565b60008060408385031215613f1857600080fd5b823591506020830135613f2a81613e56565b809150509250929050565b60008060408385031215613f4857600080fd5b8235613f5381613e56565b91506020830135613f2a81613e56565b60008083601f840112613f7557600080fd5b50813567ffffffffffffffff811115613f8d57600080fd5b602083019150836020828501011115613fa557600080fd5b9250929050565b600080600080600080600060a0888a031215613fc757600080fd5b873567ffffffffffffffff80821115613fdf57600080fd5b613feb8b838c01613f63565b909950975060208a013591508082111561400457600080fd5b506140118a828b01613f63565b909650945050604088013561402581613e56565b9250606088013561403581613e56565b809250506080880135905092959891949750929550565b60008060006060848603121561406157600080fd5b833561406c81613e56565b9250602084013561407c81613e56565b9150604084013561408c81613e56565b809150509250925092565b634e487b7160e01b600052604160045260246000fd5b600060208083850312156140c057600080fd5b823567ffffffffffffffff808211156140d857600080fd5b818501915085601f8301126140ec57600080fd5b8135818111156140fe576140fe614097565b8060051b604051601f19603f8301168101818110858211171561412357614123614097565b60405291825284820192508381018501918883111561414157600080fd5b938501935b828510156141665761415785613e6b565b84529385019392850192614146565b98975050505050505050565b6020808252818101527f556e6f52653a20726f6c6c206c6f636b2074696d65206e6f7420706173736564604082015260600190565b60208082526019908201527f556e6f52653a206e6f7420617661696c61626c652074696d6500000000000000604082015260600190565b602080825260159082015274155b9bd4994e881c1bdbdb081a5cc81ada5b1b1959605a1b604082015260600190565b60008060006060848603121561422257600080fd5b8351925060208401519150604084015190509250925092565b634e487b7160e01b600052601160045260246000fd5b818103818111156108075761080761423b565b80820281158282048414176108075761080761423b565b60008261429857634e487b7160e01b600052601260045260246000fd5b500490565b808201808211156108075761080761423b565b602080825260139082015272556e6f52653a207a65726f206164647265737360681b604082015260600190565b6000602082840312156142ef57600080fd5b5051919050565b81835281816020850137506000828201602090810191909152601f909101601f19169091010190565b60808152600061433360808301888a6142f6565b82810360208401526143468187896142f6565b6001600160a01b039586166040850152939094166060909201919091525095945050505050565b60006020828403121561437f57600080fd5b8151613e3681613e56565b60006020828403121561439c57600080fd5b81518015158114613e3657600080fd5b600080604083850312156143bf57600080fd5b505080516020909101519092909150565b634e487b7160e01b600052603260045260246000fd5b815160009082906020808601845b838110156144195781516001600160a01b0316855293820193908201906001016143f4565b50929695505050505050565b6000825160005b81811015614446576020818601810151858301520161442c565b50600092019182525091905056fea70365933f78520ef41d6645ba61e509916296603327302d41466c063e8e2608a7fb00808094bb0669054259df045936913ac8f131613a7a6da2e81ac75d5f4802dd7bc7dec4dceedda775e58dd541e08a116c6c53815c0bd028192f7b626800cd5ed15c6e187e77e9aee88184c21f4f2182ab5827cb3b7e07fbedcd63f03300a49807205ce4d355092ef5a8a18f56e8913cf4a201fbe287825b095693c21775a2646970667358221220d91d27086948385f487378456e81afe0d6ca2613d7d4014827acc331c86cdce464736f6c63430008170033",
  "devdoc": {
    "errors": {
      "AccessControlBadConfirmation()": [
        {
          "details": "The caller of a function is not the expected one. NOTE: Don't confuse with {AccessControlUnauthorizedAccount}."
        }
      ],
      "AccessControlUnauthorizedAccount(address,bytes32)": [
        {
          "details": "The `account` is missing a role."
        }
      ],
      "EnforcedPause()": [
        {
          "details": "The operation failed because the contract is paused."
        }
      ],
      "ExpectedPause()": [
        {
          "details": "The operation failed because the contract is not paused."
        }
      ],
      "InvalidInitialization()": [
        {
          "details": "The contract is already initialized."
        }
      ],
      "NotInitializing()": [
        {
          "details": "The contract is not initializing."
        }
      ],
      "ReentrancyGuardReentrantCall()": [
        {
          "details": "Unauthorized reentrant call."
        }
      ]
    },
    "events": {
      "Initialized(uint64)": {
        "details": "Triggered when the contract has been initialized or reinitialized."
      },
      "Paused(address)": {
        "details": "Emitted when the pause is triggered by `account`."
      },
      "RoleAdminChanged(bytes32,bytes32,bytes32)": {
        "details": "Emitted when `newAdminRole` is set as ``role``'s admin role, replacing `previousAdminRole` `DEFAULT_ADMIN_ROLE` is the starting admin for all roles, despite {RoleAdminChanged} not being emitted signaling this."
      },
      "RoleGranted(bytes32,address,address)": {
        "details": "Emitted when `account` is granted `role`. `sender` is the account that originated the contract call, an admin role bearer except when using {AccessControl-_setupRole}."
      },
      "RoleRevoked(bytes32,address,address)": {
        "details": "Emitted when `account` is revoked `role`. `sender` is the account that originated the contract call:   - if using `revokeRole`, it is the admin role bearer   - if using `renounceRole`, it is the role bearer (i.e. `account`)"
      },
      "Unpaused(address)": {
        "details": "Emitted when the pause is lifted by `account`."
      }
    },
    "kind": "dev",
    "methods": {
      "cancelWithdrawRequest()": {
        "details": "user can cancel its pending withdraw request"
      },
      "createRewarder(address,address,address)": {
        "details": "create rewarder with UNO token "
      },
      "createRiskPool(string,string,address,address,uint256)": {
        "details": "create Risk pool with UNO from SSRP owner"
      },
      "enterInPool(uint256)": {
        "details": "stake user collateral, update user reward per block",
        "params": {
          "_amount": "amount to deposit to pool"
        }
      },
      "getRoleAdmin(bytes32)": {
        "details": "Returns the admin role that controls `role`. See {grantRole} and {revokeRole}. To change a role's admin, use {_setRoleAdmin}."
      },
      "getStakedAmountPerUser(address)": {
        "details": "return user staked currency corresponding to current lp price of uno"
      },
      "getTotalWithdrawPendingAmount()": {
        "details": "get total withdraw request amount in pending for the risk pool in UNO"
      },
      "getWithdrawRequestPerUser(address)": {
        "details": "get withdraw request amount in pending per user in UNO"
      },
      "grantRole(bytes32,address)": {
        "details": "Grants `role` to `account`. If `account` had not been already granted `role`, emits a {RoleGranted} event. Requirements: - the caller must have ``role``'s admin role. May emit a {RoleGranted} event."
      },
      "harvest(address)": {
        "details": "withdraw user pending uno",
        "params": {
          "_to": "user address"
        }
      },
      "hasRole(bytes32,address)": {
        "details": "Returns `true` if `account` has been granted `role`."
      },
      "killPool()": {
        "details": "kill pool to restrict pool functionality, can only by called by admin role"
      },
      "leaveFromPending(uint256)": {
        "details": "user can submit claim again and receive his funds into his wallet after 10 days since last WR."
      },
      "leaveFromPoolInPending(uint256)": {
        "details": "WR will be in pending for 10 days at least"
      },
      "migrate()": {
        "details": "migrate user to new version "
      },
      "pausePool()": {
        "details": "pause pool to restrict pool functionality, can only by called by admin role"
      },
      "paused()": {
        "details": "Returns true if the contract is paused, and false otherwise."
      },
      "pendingUno(address)": {
        "details": "return pending uno to claim of `_to` address"
      },
      "policyClaim(address,uint256)": {
        "details": "claim policy to `_to`, can only be called by claim processor role"
      },
      "renounceRole(bytes32,address)": {
        "details": "Revokes `role` from the calling account. Roles are often managed via {grantRole} and {revokeRole}: this function's purpose is to provide a mechanism for accounts to lose their privileges if they are compromised (such as when a trusted device is misplaced). If the calling account had been revoked `role`, emits a {RoleRevoked} event. Requirements: - the caller must be `callerConfirmation`. May emit a {RoleRevoked} event."
      },
      "revivePool()": {
        "details": "revive pool, can only by called by admin role"
      },
      "revokeRole(bytes32,address)": {
        "details": "Revokes `role` from `account`. If `account` had been granted `role`, emits a {RoleRevoked} event. Requirements: - the caller must have ``role``'s admin role. May emit a {RoleRevoked} event."
      },
      "rollOverReward(address[])": {
        "details": "user roll over its pending uno to stake"
      },
      "setLockTime(uint256)": {
        "details": "lock time, only admin role call this function"
      },
      "setMigrateTo(address)": {
        "details": "set migrate address, can only by called by admin role",
        "params": {
          "_migrateTo": "new migrate address"
        }
      },
      "setMinLPCapital(uint256)": {
        "details": "update min lp capital, only admin role call this function"
      },
      "setRewardMultiplier(uint256)": {
        "details": "update reward muiltiplier, can only by called by admin role",
        "params": {
          "_rewardMultiplier": "value to set"
        }
      },
      "setStakingStartTime(uint256)": {
        "details": "set staking start time, only admin role call this function"
      },
      "supportsInterface(bytes4)": {
        "details": "See {IERC165-supportsInterface}."
      },
      "toggleEmergencyWithdraw()": {
        "details": "toggle emergency withdraw bool to restrict or use this emergency withdraw, only admin role call this function"
      },
      "toggleRollOver()": {
        "details": "user can toggle its roll over bool"
      },
      "unpausePool()": {
        "details": "unpause pool, can only by called by admin role"
      },
      "updatePool()": {
        "details": "update pool last reward and accumulated uno per share, update every time when use enter, withdraw from pool"
      }
    },
    "version": 1
  },
  "userdoc": {
    "kind": "user",
    "methods": {},
    "version": 1
  },
  "storageLayout": {
    "storage": [
      {
        "astId": 13572,
        "contract": "contracts/SingleSidedReinsurancePool.sol:SingleSidedReinsurancePool",
        "label": "migrateTo",
        "offset": 0,
        "slot": "0",
        "type": "t_address"
      },
      {
        "astId": 13574,
        "contract": "contracts/SingleSidedReinsurancePool.sol:SingleSidedReinsurancePool",
        "label": "syntheticSSRP",
        "offset": 0,
        "slot": "1",
        "type": "t_address"
      },
      {
        "astId": 13576,
        "contract": "contracts/SingleSidedReinsurancePool.sol:SingleSidedReinsurancePool",
        "label": "lockTime",
        "offset": 0,
        "slot": "2",
        "type": "t_uint256"
      },
      {
        "astId": 13578,
        "contract": "contracts/SingleSidedReinsurancePool.sol:SingleSidedReinsurancePool",
        "label": "stakingStartTime",
        "offset": 0,
        "slot": "3",
        "type": "t_uint256"
      },
      {
        "astId": 13580,
        "contract": "contracts/SingleSidedReinsurancePool.sol:SingleSidedReinsurancePool",
        "label": "rewarder",
        "offset": 0,
        "slot": "4",
        "type": "t_address"
      },
      {
        "astId": 13583,
        "contract": "contracts/SingleSidedReinsurancePool.sol:SingleSidedReinsurancePool",
        "label": "riskPool",
        "offset": 0,
        "slot": "5",
        "type": "t_address"
      },
      {
        "astId": 13585,
        "contract": "contracts/SingleSidedReinsurancePool.sol:SingleSidedReinsurancePool",
        "label": "killed",
        "offset": 20,
        "slot": "5",
        "type": "t_bool"
      },
      {
        "astId": 13587,
        "contract": "contracts/SingleSidedReinsurancePool.sol:SingleSidedReinsurancePool",
        "label": "emergencyWithdrawAllowed",
        "offset": 21,
        "slot": "5",
        "type": "t_bool"
      },
      {
        "astId": 13608,
        "contract": "contracts/SingleSidedReinsurancePool.sol:SingleSidedReinsurancePool",
        "label": "userInfo",
        "offset": 0,
        "slot": "6",
        "type": "t_mapping(t_address,t_struct(UserInfo)13603_storage)"
      },
      {
        "astId": 13614,
        "contract": "contracts/SingleSidedReinsurancePool.sol:SingleSidedReinsurancePool",
        "label": "roleLockTime",
        "offset": 0,
        "slot": "7",
        "type": "t_mapping(t_bytes32,t_mapping(t_address,t_uint256))"
      },
      {
        "astId": 13617,
        "contract": "contracts/SingleSidedReinsurancePool.sol:SingleSidedReinsurancePool",
        "label": "poolInfo",
        "offset": 0,
        "slot": "8",
        "type": "t_struct(PoolInfo)13594_storage"
      }
    ],
    "types": {
      "t_address": {
        "encoding": "inplace",
        "label": "address",
        "numberOfBytes": "20"
      },
      "t_bool": {
        "encoding": "inplace",
        "label": "bool",
        "numberOfBytes": "1"
      },
      "t_bytes32": {
        "encoding": "inplace",
        "label": "bytes32",
        "numberOfBytes": "32"
      },
      "t_mapping(t_address,t_struct(UserInfo)13603_storage)": {
        "encoding": "mapping",
        "key": "t_address",
        "label": "mapping(address => struct SingleSidedReinsurancePool.UserInfo)",
        "numberOfBytes": "32",
        "value": "t_struct(UserInfo)13603_storage"
      },
      "t_mapping(t_address,t_uint256)": {
        "encoding": "mapping",
        "key": "t_address",
        "label": "mapping(address => uint256)",
        "numberOfBytes": "32",
        "value": "t_uint256"
      },
      "t_mapping(t_bytes32,t_mapping(t_address,t_uint256))": {
        "encoding": "mapping",
        "key": "t_bytes32",
        "label": "mapping(bytes32 => mapping(address => uint256))",
        "numberOfBytes": "32",
        "value": "t_mapping(t_address,t_uint256)"
      },
      "t_struct(PoolInfo)13594_storage": {
        "encoding": "inplace",
        "label": "struct SingleSidedReinsurancePool.PoolInfo",
        "members": [
          {
            "astId": 13589,
            "contract": "contracts/SingleSidedReinsurancePool.sol:SingleSidedReinsurancePool",
            "label": "lastRewardBlock",
            "offset": 0,
            "slot": "0",
            "type": "t_uint256"
          },
          {
            "astId": 13591,
            "contract": "contracts/SingleSidedReinsurancePool.sol:SingleSidedReinsurancePool",
            "label": "accUnoPerShare",
            "offset": 0,
            "slot": "1",
            "type": "t_uint256"
          },
          {
            "astId": 13593,
            "contract": "contracts/SingleSidedReinsurancePool.sol:SingleSidedReinsurancePool",
            "label": "unoMultiplierPerBlock",
            "offset": 0,
            "slot": "2",
            "type": "t_uint256"
          }
        ],
        "numberOfBytes": "96"
      },
      "t_struct(UserInfo)13603_storage": {
        "encoding": "inplace",
        "label": "struct SingleSidedReinsurancePool.UserInfo",
        "members": [
          {
            "astId": 13596,
            "contract": "contracts/SingleSidedReinsurancePool.sol:SingleSidedReinsurancePool",
            "label": "lastWithdrawTime",
            "offset": 0,
            "slot": "0",
            "type": "t_uint256"
          },
          {
            "astId": 13598,
            "contract": "contracts/SingleSidedReinsurancePool.sol:SingleSidedReinsurancePool",
            "label": "rewardDebt",
            "offset": 0,
            "slot": "1",
            "type": "t_uint256"
          },
          {
            "astId": 13600,
            "contract": "contracts/SingleSidedReinsurancePool.sol:SingleSidedReinsurancePool",
            "label": "amount",
            "offset": 0,
            "slot": "2",
            "type": "t_uint256"
          },
          {
            "astId": 13602,
            "contract": "contracts/SingleSidedReinsurancePool.sol:SingleSidedReinsurancePool",
            "label": "isNotRollOver",
            "offset": 0,
            "slot": "3",
            "type": "t_bool"
          }
        ],
        "numberOfBytes": "128"
      },
      "t_uint256": {
        "encoding": "inplace",
        "label": "uint256",
        "numberOfBytes": "32"
      }
    }
  }
}