{
  "address": "0x53D20c192F0c675d301bc485061b094ED6765cDd",
  "abi": [
    {
      "inputs": [],
      "stateMutability": "nonpayable",
      "type": "constructor"
    },
    {
      "inputs": [
        {
          "internalType": "address",
          "name": "_multiSigWallet",
          "type": "address"
        },
        {
          "internalType": "address",
          "name": "_lpToken",
          "type": "address"
        }
      ],
      "name": "newSyntheticSSIP",
      "outputs": [
        {
          "internalType": "address",
          "name": "",
          "type": "address"
        }
      ],
      "stateMutability": "nonpayable",
      "type": "function"
    }
  ],
  "transactionHash": "0x8dcd87d87fd1d2f078650019ee8ae3cbcf34ead1bf9606f628bf298d0192aa7e",
  "args": [],
  "numDeployments": 1,
  "solcInputHash": "d2fc875e3afcbd9499ae3f5e7a33f9ef",
  "bytecode": "0x608060405234801561001057600080fd5b506129d6806100206000396000f3fe608060405234801561001057600080fd5b506004361061002b5760003560e01c80633515167614610030575b600080fd5b61004361003e3660046100fc565b61006c565b60405173ffffffffffffffffffffffffffffffffffffffff909116815260200160405180910390f35b600080828460405161007d906100c6565b73ffffffffffffffffffffffffffffffffffffffff928316815291166020820152604001604051809103906000f0801580156100bd573d6000803e3d6000fd5b50949350505050565b6128718061013083390190565b803573ffffffffffffffffffffffffffffffffffffffff811681146100f757600080fd5b919050565b6000806040838503121561010f57600080fd5b610118836100d3565b9150610126602084016100d3565b9050925092905056fe6080604052620d2f006003553480156200001857600080fd5b5060405162002871380380620028718339810160408190526200003b91620002ab565b60016000556002805460ff191690556001600160a01b038116620000b15760405162461bcd60e51b815260206004820152602260248201527f556e6f52653a207a65726f206d756c746953696757616c6c6574206164647265604482015261737360f01b60648201526084015b60405180910390fd5b6001600160a01b038216620001095760405162461bcd60e51b815260206004820152601c60248201527f556e6f52653a207a65726f206c7020746f6b656e2061646472657373000000006044820152606401620000a8565b600680546001600160a01b0319166001600160a01b038416179055670de0b6b3a76400006009556200014b6000805160206200285183398151915282620001aa565b50620001877f6d5c9827c1f410bbb61d3b2a0a34b6b30492d9a1fd38588edca7ec4562ab9c9b6000805160206200285183398151915262000241565b620001a2600080516020620028518339815191528062000241565b5050620002e3565b60008281526001602090815260408083206001600160a01b038516845290915281205460ff16620002375760008381526001602081815260408084206001600160a01b0387168086529252808420805460ff19169093179092559051339286917f2f8788117e7eff1d82e926ec794901d17c78024a50270940304540a733656f0d9190a45060016200023b565b5060005b92915050565b6000828152600160208190526040808320909101805490849055905190918391839186917fbd79b86ffe0ab8e8776151514217cd7cacd52c909f66475c3af44e129f0b00ff9190a4505050565b80516001600160a01b0381168114620002a657600080fd5b919050565b60008060408385031215620002bf57600080fd5b620002ca836200028e565b9150620002da602084016200028e565b90509250929050565b61255e80620002f36000396000f3fe608060405234801561001057600080fd5b50600436106102925760003560e01c80638ae39cac11610160578063bb872b4a116100d8578063e19e71681161008c578063e3824a3811610071578063e3824a38146105a1578063f40f0f52146105b4578063fd91db96146105c757600080fd5b8063e19e716814610591578063e3161ddd1461059957600080fd5b8063d1c6a231116100bd578063d1c6a2311461055c578063d547741f1461056b578063dcc3e06e1461057e57600080fd5b8063bb872b4a14610541578063bc8f88281461055457600080fd5b8063a217fddf1161012f578063ae04d45d11610114578063ae04d45d146104f4578063af16d6e014610507578063b15037741461051a57600080fd5b8063a217fddf146104e4578063aa09d5b7146104ec57600080fd5b80638ae39cac146104875780638fd3ab801461049057806391d148541461049857806398c6e760146104d157600080fd5b806336568abe1161020e578063736ec05c116101c25780637a39b8d8116101a75780637a39b8d8146104455780637da2a4a71461044d5780638395206c1461047457600080fd5b8063736ec05c1461040b57806375b238fc1461041e57600080fd5b80635c975abb116101f35780635c975abb146103cd5780635fcbd285146103d8578063677554151461040357600080fd5b806336568abe146103b157806336642c21146103c457600080fd5b806313a10036116102655780631f3a0e411161024a5780631f3a0e4114610366578063248a9ca31461037a5780632f2ff15d1461039e57600080fd5b806313a10036146102f35780631959a002146102fc57600080fd5b806301ffc9a714610297578063068cc514146102bf5780630d668087146102c95780630e5c011e146102e0575b600080fd5b6102aa6102a53660046121a8565b6105da565b60405190151581526020015b60405180910390f35b6102c7610673565b005b6102d260035481565b6040519081526020016102b6565b6102c76102ee366004612216565b6106a8565b6102d2600b5481565b61033c61030a366004612216565b600a60205260009081526040902080546001820154600283015460038401546004909401549293919290919060ff1685565b6040805195865260208601949094529284019190915260608301521515608082015260a0016102b6565b6006546102aa90600160a01b900460ff1681565b6102d2610388366004612233565b6000908152600160208190526040909120015490565b6102c76103ac36600461224c565b61072a565b6102c76103bf36600461224c565b610756565b6102d2600c5481565b60025460ff166102aa565b6006546103eb906001600160a01b031681565b6040516001600160a01b0390911681526020016102b6565b6102c76107a7565b6102c7610419366004612216565b610833565b6102d27fa49807205ce4d355092ef5a8a18f56e8913cf4a201fbe287825b095693c2177581565b6102c7610918565b6102c7336000908152600a60205260409020600401805460ff19811660ff90911615179055565b6102c7610482366004612233565b6109a3565b6102d260095481565b6102c7610ab3565b6102aa6104a636600461224c565b60009182526001602090815260408084206001600160a01b0393909316845291905290205460ff1690565b6004546103eb906001600160a01b031681565b6102d2600081565b6102c7610cef565b6102c7610502366004612233565b610d21565b6102c761051536600461227c565b610dda565b6102d27f6d5c9827c1f410bbb61d3b2a0a34b6b30492d9a1fd38588edca7ec4562ab9c9b81565b6102c761054f366004612233565b61101a565b6102c7611106565b6102d2670de0b6b3a764000081565b6102c761057936600461224c565b61119c565b6005546103eb906001600160a01b031681565b6102c76111c2565b6102c76111d2565b6102c76105af366004612233565b61128a565b6102d26105c2366004612216565b61134f565b6102c76105d53660046122dd565b611415565b60007fffffffff0000000000000000000000000000000000000000000000000000000082167f7965db0b00000000000000000000000000000000000000000000000000000000148061066d57507f01ffc9a7000000000000000000000000000000000000000000000000000000007fffffffff000000000000000000000000000000000000000000000000000000008316145b92915050565b7fa49807205ce4d355092ef5a8a18f56e8913cf4a201fbe287825b095693c2177561069d816117d0565b6106a56117da565b50565b6106b0611827565b600654600160a01b900460ff161561070f5760405162461bcd60e51b815260206004820152601560248201527f556e6f52653a20706f6f6c206973206b696c6c6564000000000000000000000060448201526064015b60405180910390fd5b610717611864565b610720816118a7565b6106a56001600055565b60008281526001602081905260409091200154610746816117d0565b61075083836119b2565b50505050565b6001600160a01b0381163314610798576040517f6697b23200000000000000000000000000000000000000000000000000000000815260040160405180910390fd5b6107a28282611a45565b505050565b7fa49807205ce4d355092ef5a8a18f56e8913cf4a201fbe287825b095693c217756107d1816117d0565b600680547fffffffffffffffffffffff00ffffffffffffffffffffffffffffffffffffffff1690556040516000815233907f77337fcf1b48e6e024b256962b66c49de98c9f606b2cd9937cc0edbc7a0fb709906020015b60405180910390a250565b7fa49807205ce4d355092ef5a8a18f56e8913cf4a201fbe287825b095693c2177561085d816117d0565b6001600160a01b0382166108b35760405162461bcd60e51b815260206004820152601360248201527f556e6f52653a207a65726f2061646472657373000000000000000000000000006044820152606401610706565b600480547fffffffffffffffffffffffff0000000000000000000000000000000000000000166001600160a01b03841690811790915560405130907f877238238dbd7134e89b00809ea73fabb50da117ace807a6b31c733bbf55d36990600090a35050565b7fa49807205ce4d355092ef5a8a18f56e8913cf4a201fbe287825b095693c21775610942816117d0565b600680547fffffffffffffffffffffff00ffffffffffffffffffffffffffffffffffffffff16600160a01b1790556040516001815233907f7c952f2e528aa25b4eaf8b6c07af29184b27ce591295e543ced0a27b167dc79490602001610828565b6109ab611864565b6109b4336118a7565b336000908152600a602052604090206002810154600390910154826109d982846123d6565b1015610a275760405162461bcd60e51b815260206004820152601f60248201527f556e6f52653a20776974686472617720616d6f756e74206f766572666c6f77006044820152606401610706565b336000908152600a6020526040902060030154610a459084906123e9565b336000908152600a602052604090206003810191909155429055600c54610a6d9084906123e9565b600c55604051838152309033907fd60ea263bba686471127787b82c1f8b19bddbd87f52b83498879e720d839d51f9060200160405180910390a350506106a56001600055565b600654600160a01b900460ff1615610b0d5760405162461bcd60e51b815260206004820152601560248201527f556e6f52653a20706f6f6c206973206b696c6c656400000000000000000000006044820152606401610706565b610b15611864565b6004546001600160a01b0316610b6d5760405162461bcd60e51b815260206004820152601360248201527f556e6f52653a207a65726f2061646472657373000000000000000000000000006044820152606401610706565b610b76336118a7565b336000908152600a602052604090206003015415801590610bb25750600354336000908152600a6020526040902054610baf90426123d6565b10155b15610bc457610bbf611acc565b610bcc565b610bcc611be8565b336000908152600a6020526040902060020154600654600454610bfc916001600160a01b03908116911683611c4a565b600480546040517fed59344b00000000000000000000000000000000000000000000000000000000815233928101929092526024820183905260606044830152600060648301526001600160a01b03169063ed59344b90608401600060405180830381600087803b158015610c7057600080fd5b505af1158015610c84573d6000803e3d6000fd5b5050336000818152600a602090815260408083206002019290925560045491518681526001600160a01b0390921694503093507f49208a4dfe6cade3e0d45c2c52e5e68917971aeb5714c4b3151c74337e9e860f910160405180910390a450610ced6001600055565b565b7fa49807205ce4d355092ef5a8a18f56e8913cf4a201fbe287825b095693c21775610d19816117d0565b6106a5611db9565b7fa49807205ce4d355092ef5a8a18f56e8913cf4a201fbe287825b095693c21775610d4b816117d0565b60008211610d9b5760405162461bcd60e51b815260206004820152601f60248201527f556e6f52653a206e6f7420616c6c6f77207a65726f206c6f636b2074696d65006044820152606401610706565b600382905560405182815230907f2c2c43c64e937ae35257af782c222986dc5adb4f56dc0881594e79bf83658d8c906020015b60405180910390a25050565b7fa49807205ce4d355092ef5a8a18f56e8913cf4a201fbe287825b095693c21775610e04816117d0565b610e0c611864565b6001600160a01b038316610e625760405162461bcd60e51b815260206004820181905260248201527f556e6f52653a20726577617264657220666163746f7279206e6f2065786973746044820152606401610706565b6001600160a01b038416610eb85760405162461bcd60e51b815260206004820152601c60248201527f556e6f52653a207a65726f206f70657261746f722061646472657373000000006044820152606401610706565b6001600160a01b038216610f0e5760405162461bcd60e51b815260206004820152601c60248201527f556e6f52653a207a65726f2063757272656e63792061646472657373000000006044820152606401610706565b6040517f69ee74510000000000000000000000000000000000000000000000000000000081526001600160a01b03858116600483015283811660248301523060448301528416906369ee7451906064016020604051808303816000875af1158015610f7d573d6000803e3d6000fd5b505050506040513d601f19601f82011682018060405250810190610fa191906123fc565b600580547fffffffffffffffffffffffff0000000000000000000000000000000000000000166001600160a01b0392831690811790915560405191841682529030907f6c409a36847a0a3870deae25f656f4300d45957d2643fc27faab145e19cfcf1b9060200160405180910390a36107506001600055565b7fa49807205ce4d355092ef5a8a18f56e8913cf4a201fbe287825b095693c21775611044816117d0565b60008211801561105d5750683635c9adc5dea000008211155b6110cf5760405162461bcd60e51b815260206004820152603960248201527f556e6f52653a20696e76616c69642076616c75652c2073686f756c642062652060448201527f6265747765656e203020616e642031303030202a2031653138000000000000006064820152608401610706565b600982905560405182815230907f5cd67ede94fe3507535f0408ae70afe426103c9d5d51a909bd9dbd931e09875c90602001610dce565b61110e611827565b611116611864565b600354336000908152600a602052604090205461113390426123d6565b10156111815760405162461bcd60e51b815260206004820152601260248201527f556e6f52653a204c6f636b65642074696d6500000000000000000000000000006044820152606401610706565b61118a336118a7565b611192611acc565b610ced6001600055565b600082815260016020819052604090912001546111b8816117d0565b6107508383611a45565b6111ca611864565b611192611be8565b600754431115610ced57600b541561123b576000600754436111f491906123d6565b90506000600954826112069190612419565b600b5490915061121e670de0b6b3a764000083612419565b6112289190612430565b60085461123591906123e9565b60085550505b436007819055600b54600854604080519384526020840192909252908201527f1f2d1a9fde053af46b5db3dc92a8aa8696e56a677998fdd1311b45be341f7853906060015b60405180910390a1565b600654600160a01b900460ff16156112e45760405162461bcd60e51b815260206004820152601560248201527f556e6f52653a20706f6f6c206973206b696c6c656400000000000000000000006044820152606401610706565b6112ec611864565b600654611304906001600160a01b0316333084611df6565b61130e8133611f6e565b604051818152309033907f19db7bd0d4b3b497594ec1221d3c790b31e985baeb3c80851231d930db53578b9060200160405180910390a36106a56001600055565b60085460075460009190431180156113685750600b5415155b156113c35760006007544361137d91906123d6565b905060006009548261138f9190612419565b600b549091506113a7670de0b6b3a764000083612419565b6113b19190612430565b6008546113be91906123e9565b925050505b6001600160a01b0383166000908152600a602052604090206002810154600190910154670de0b6b3a76400006113f98484612419565b6114039190612430565b61140d91906123d6565b949350505050565b600654600160a01b900460ff161561146f5760405162461bcd60e51b815260206004820152601560248201527f556e6f52653a20706f6f6c206973206b696c6c656400000000000000000000006044820152606401610706565b7f6d5c9827c1f410bbb61d3b2a0a34b6b30492d9a1fd38588edca7ec4562ab9c9b611499816117d0565b6114a1611864565b600560009054906101000a90046001600160a01b03166001600160a01b031663e5a6b10f6040518163ffffffff1660e01b8152600401602060405180830381865afa1580156114f4573d6000803e3d6000fd5b505050506040513d601f19601f8201168201806040525081019061151891906123fc565b6006546001600160a01b039081169116146115755760405162461bcd60e51b815260206004820152601b60248201527f556e6f52653a2063757272656e6379206e6f74206d61746368656400000000006044820152606401610706565b61157d6111d2565b60008060005b84518110156116c657600a60008683815181106115a2576115a2612452565b6020908102919091018101516001600160a01b031682528101919091526040016000206004015460ff16156116195760405162461bcd60e51b815260206004820152601a60248201527f556e6f52653a20726f6c6c6f766572206973206e6f74207365740000000000006044820152606401610706565b600061163d86838151811061163057611630612452565b602002602001015161206d565b905061164981856123e9565b9350600a600087848151811061166157611661612452565b60200260200101516001600160a01b03166001600160a01b03168152602001908152602001600020600201548361169891906123e9565b92506116bd818784815181106116b0576116b0612452565b6020026020010151611f6e565b50600101611583565b506005546001600160a01b0316158015906116e15750600082115b1561177d576005546040517f0d97f74b00000000000000000000000000000000000000000000000000000000815230600482015260248101849052604481018390526001600160a01b0390911690630d97f74b906064016020604051808303816000875af1158015611757573d6000803e3d6000fd5b505050506040513d601f19601f8201168201806040525081019061177b9190612468565b505b306001600160a01b03167ff1ed90dcc96085d1d901cce2d0746c5c4f60aefb033128edea1426a6013f2a9585846040516117b8929190612481565b60405180910390a250506117cc6001600055565b5050565b6106a581336120fe565b6117e261216c565b6002805460ff191690557f5db9ee0a495bf2e6ff9c91a7834c1ba4fdd244a5e8aa4e537bd38aeae4b073aa335b6040516001600160a01b039091168152602001611280565b60025460ff1615610ced576040517fd93c066500000000000000000000000000000000000000000000000000000000815260040160405180910390fd5b6002600054036118a0576040517f3ee5aeb500000000000000000000000000000000000000000000000000000000815260040160405180910390fd5b6002600055565b6118af6111d2565b60006118ba8261206d565b6005549091506001600160a01b0316158015906118d75750600081115b1561196e576005546040517fc37232880000000000000000000000000000000000000000000000000000000081526001600160a01b038481166004830152602482018490529091169063c3723288906044016020604051808303816000875af1158015611948573d6000803e3d6000fd5b505050506040513d601f19601f8201168201806040525081019061196c9190612468565b505b6040518181526001600160a01b0383169033907f1501dd260e02a8825a24ab4e4875600b0093dd977e06b49bba75faaebe2836479060200160405180910390a35050565b60008281526001602090815260408083206001600160a01b038516845290915281205460ff16611a3d5760008381526001602081815260408084206001600160a01b0387168086529252808420805460ff19169093179092559051339286917f2f8788117e7eff1d82e926ec794901d17c78024a50270940304540a733656f0d9190a450600161066d565b50600061066d565b60008281526001602090815260408083206001600160a01b038516845290915281205460ff1615611a3d5760008381526001602090815260408083206001600160a01b0386168085529252808320805460ff1916905551339286917ff6391f5c32d9c69d2a47ea670b442974b53935d1edc7fd64eb21e047a839171b9190a450600161066d565b336000908152600a60205260408120600281015460039091015460085491929091670de0b6b3a764000090611b019085612419565b611b0b9190612430565b600654909150611b25906001600160a01b03163384611c4a565b670de0b6b3a764000060085483611b3c9190612419565b611b469190612430565b611b5090826123d6565b336000908152600a6020526040902060010155611b6d82846123d6565b336000908152600a602052604081206002810192909255600390910155600c54611b989083906123d6565b600c55600b54611ba99083906123d6565b600b55604051828152309033907f082897d5a3548ef5742607ecedf0f1b9e4c355dcc81c81d5bfda47f2b49084a79060200160405180910390a3505050565b336000908152600a602052604081206003018054919055600c54611c0d9082906123d6565b600c55604051818152309033907faa15bd4bbb83b4c5e5bf28548326ffc2e718d46db45779599cf4d87b42fbd1049060200160405180910390a350565b604080516001600160a01b038481166024830152604480830185905283518084039091018152606490920183526020820180517bffffffffffffffffffffffffffffffffffffffffffffffffffffffff167fa9059cbb000000000000000000000000000000000000000000000000000000001790529151600092839290871691611cd491906124d7565b6000604051808303816000865af19150503d8060008114611d11576040519150601f19603f3d011682016040523d82523d6000602084013e611d16565b606091505b5091509150818015611d40575080511580611d40575080806020019051810190611d409190612506565b611db25760405162461bcd60e51b815260206004820152602d60248201527f5472616e7366657248656c7065723a3a736166655472616e736665723a20747260448201527f616e73666572206661696c6564000000000000000000000000000000000000006064820152608401610706565b5050505050565b611dc1611827565b6002805460ff191660011790557f62e78cea01bee320cd4e420270b5ea74000d11b0c9f74754ebdbfc544b05a25861180f3390565b604080516001600160a01b0385811660248301528481166044830152606480830185905283518084039091018152608490920183526020820180517bffffffffffffffffffffffffffffffffffffffffffffffffffffffff167f23b872dd000000000000000000000000000000000000000000000000000000001790529151600092839290881691611e8891906124d7565b6000604051808303816000865af19150503d8060008114611ec5576040519150601f19603f3d011682016040523d82523d6000602084013e611eca565b606091505b5091509150818015611ef4575080511580611ef4575080806020019051810190611ef49190612506565b611f665760405162461bcd60e51b815260206004820152603160248201527f5472616e7366657248656c7065723a3a7472616e7366657246726f6d3a20747260448201527f616e7366657246726f6d206661696c65640000000000000000000000000000006064820152608401610706565b505050505050565b81600003611fbe5760405162461bcd60e51b815260206004820152601160248201527f556e6f52653a205a45524f2056616c75650000000000000000000000000000006044820152606401610706565b611fc66111d2565b670de0b6b3a764000060085483611fdd9190612419565b611fe79190612430565b6001600160a01b0382166000908152600a602052604090206001015461200d91906123e9565b6001600160a01b0382166000908152600a6020526040902060018101919091556002015461203c9083906123e9565b6001600160a01b0382166000908152600a6020526040902060020155600b546120669083906123e9565b600b555050565b6001600160a01b0381166000908152600a60205260408120600201546008548290670de0b6b3a7640000906120a29084612419565b6120ac9190612430565b6001600160a01b0385166000908152600a6020526040812060010154919250906120d690836123d6565b6001600160a01b039095166000908152600a6020526040902060010191909155509192915050565b60008281526001602090815260408083206001600160a01b038516845290915290205460ff166117cc576040517fe2517d3f0000000000000000000000000000000000000000000000000000000081526001600160a01b038216600482015260248101839052604401610706565b60025460ff16610ced576040517f8dfc202b00000000000000000000000000000000000000000000000000000000815260040160405180910390fd5b6000602082840312156121ba57600080fd5b81357fffffffff00000000000000000000000000000000000000000000000000000000811681146121ea57600080fd5b9392505050565b6001600160a01b03811681146106a557600080fd5b8035612211816121f1565b919050565b60006020828403121561222857600080fd5b81356121ea816121f1565b60006020828403121561224557600080fd5b5035919050565b6000806040838503121561225f57600080fd5b823591506020830135612271816121f1565b809150509250929050565b60008060006060848603121561229157600080fd5b833561229c816121f1565b925060208401356122ac816121f1565b915060408401356122bc816121f1565b809150509250925092565b634e487b7160e01b600052604160045260246000fd5b600060208083850312156122f057600080fd5b823567ffffffffffffffff8082111561230857600080fd5b818501915085601f83011261231c57600080fd5b81358181111561232e5761232e6122c7565b8060051b6040517fffffffffffffffffffffffffffffffffffffffffffffffffffffffffffffffe0603f83011681018181108582111715612371576123716122c7565b60405291825284820192508381018501918883111561238f57600080fd5b938501935b828510156123b4576123a585612206565b84529385019392850192612394565b98975050505050505050565b634e487b7160e01b600052601160045260246000fd5b8181038181111561066d5761066d6123c0565b8082018082111561066d5761066d6123c0565b60006020828403121561240e57600080fd5b81516121ea816121f1565b808202811582820484141761066d5761066d6123c0565b60008261244d57634e487b7160e01b600052601260045260246000fd5b500490565b634e487b7160e01b600052603260045260246000fd5b60006020828403121561247a57600080fd5b5051919050565b604080825283519082018190526000906020906060840190828701845b828110156124c35781516001600160a01b03168452928401929084019060010161249e565b505050602093909301939093525092915050565b6000825160005b818110156124f857602081860181015185830152016124de565b506000920191825250919050565b60006020828403121561251857600080fd5b815180151581146121ea57600080fdfea26469706673582212205014c8900cbae0f589b8d0d1a6019fbc5274b02fc4ec7abfbcaaa8224f6c86bd64736f6c63430008170033a49807205ce4d355092ef5a8a18f56e8913cf4a201fbe287825b095693c21775a2646970667358221220083bac0c25e6ddfa72d223540163aaec09d50d5e93bd670228cfd7795ffa224864736f6c63430008170033",
  "devdoc": {
    "kind": "dev",
    "methods": {},
    "version": 1
  },
  "userdoc": {
    "kind": "user",
    "methods": {},
    "version": 1
  },
  "storageLayout": {
    "storage": [],
    "types": null
  }
}